{
	"data": {
		"bytecode": {
			"linkReferences": {},
			"object": "60806040523480156200001157600080fd5b5060405162000af338038062000af38339818101604052810190620000379190620000e0565b6012600181905550600154600a62000050919062000295565b816200005d9190620002e6565b6000819055506000600260006101000a81548160ff0219169083151502179055506000600260016101000a81548160ff0219169083151502179055505062000347565b600080fd5b6000819050919050565b620000ba81620000a5565b8114620000c657600080fd5b50565b600081519050620000da81620000af565b92915050565b600060208284031215620000f957620000f8620000a0565b5b60006200010984828501620000c9565b91505092915050565b7f4e487b7100000000000000000000000000000000000000000000000000000000600052601160045260246000fd5b60008160011c9050919050565b6000808291508390505b6001851115620001a05780860481111562000178576200017762000112565b5b6001851615620001885780820291505b8081029050620001988562000141565b945062000158565b94509492505050565b600082620001bb57600190506200028e565b81620001cb57600090506200028e565b8160018114620001e45760028114620001ef5762000225565b60019150506200028e565b60ff84111562000204576200020362000112565b5b8360020a9150848211156200021e576200021d62000112565b5b506200028e565b5060208310610133831016604e8410600b84101617156200025f5782820a90508381111562000259576200025862000112565b5b6200028e565b6200026e84848460016200014e565b9250905081840481111562000288576200028762000112565b5b81810290505b9392505050565b6000620002a282620000a5565b9150620002af83620000a5565b9250620002de7fffffffffffffffffffffffffffffffffffffffffffffffffffffffffffffffff8484620001a9565b905092915050565b6000620002f382620000a5565b91506200030083620000a5565b9250817fffffffffffffffffffffffffffffffffffffffffffffffffffffffffffffffff04831182151516156200033c576200033b62000112565b5b828202905092915050565b61079c80620003576000396000f3fe608060405234801561001057600080fd5b50600436106100575760003560e01c8063131e2f181461005c5780632c4e722e1461008c57806384c6e2c8146100aa5780639f8af9dd146100b4578063effc1fe0146100d0575b600080fd5b61007660048036038101906100719190610361565b6100da565b604051610083919061039d565b60405180910390f35b610094610121565b6040516100a1919061039d565b60405180910390f35b6100b2610127565b005b6100ce60048036038101906100c991906103b8565b610131565b005b6100d86102c9565b005b6000600154600a6100eb919061055a565b6064600054846100fb91906105a5565b610105919061062e565b61010f919061062e565b8261011a919061065f565b9050919050565b60005481565b61012f610303565b565b600260009054906101000a900460ff1615610181576040517f08c379a000000000000000000000000000000000000000000000000000000000815260040161017890610712565b60405180910390fd5b6000600154600a610192919061055a565b8361019d91906105a5565b90506000600154600a6101b0919061055a565b836101bb91906105a5565b9050600083836101cb919061062e565b90506000671158e460913d000090508181116102095780826101ed9190610732565b6000808282546101fd919061065f565b925050819055506102a6565b600060648761021891906105a5565b607d60005461022791906105a5565b610231919061062e565b90506000606460508761024491906105a5565b61024e919061062e565b90506000818661025e9190610732565b90506000600154600a610271919061055a565b828561027d91906105a5565b610287919061062e565b90508060008082825461029a9190610732565b92505081905550505050505b6001600260006101000a81548160ff021916908315150217905550505050505050565b600260019054906101000a900460ff16610301576102e5610303565b6001600260016101000a81548160ff0219169083151502179055505b565b6008600760005461031491906105a5565b61031e919061062e565b600081905550565b600080fd5b6000819050919050565b61033e8161032b565b811461034957600080fd5b50565b60008135905061035b81610335565b92915050565b60006020828403121561037757610376610326565b5b60006103858482850161034c565b91505092915050565b6103978161032b565b82525050565b60006020820190506103b2600083018461038e565b92915050565b600080604083850312156103cf576103ce610326565b5b60006103dd8582860161034c565b92505060206103ee8582860161034c565b9150509250929050565b7f4e487b7100000000000000000000000000000000000000000000000000000000600052601160045260246000fd5b60008160011c9050919050565b6000808291508390505b600185111561047e5780860481111561045a576104596103f8565b5b60018516156104695780820291505b808102905061047785610427565b945061043e565b94509492505050565b6000826104975760019050610553565b816104a55760009050610553565b81600181146104bb57600281146104c5576104f4565b6001915050610553565b60ff8411156104d7576104d66103f8565b5b8360020a9150848211156104ee576104ed6103f8565b5b50610553565b5060208310610133831016604e8410600b84101617156105295782820a905083811115610524576105236103f8565b5b610553565b6105368484846001610434565b9250905081840481111561054d5761054c6103f8565b5b81810290505b9392505050565b60006105658261032b565b91506105708361032b565b925061059d7fffffffffffffffffffffffffffffffffffffffffffffffffffffffffffffffff8484610487565b905092915050565b60006105b08261032b565b91506105bb8361032b565b9250817fffffffffffffffffffffffffffffffffffffffffffffffffffffffffffffffff04831182151516156105f4576105f36103f8565b5b828202905092915050565b7f4e487b7100000000000000000000000000000000000000000000000000000000600052601260045260246000fd5b60006106398261032b565b91506106448361032b565b925082610654576106536105ff565b5b828204905092915050565b600061066a8261032b565b91506106758361032b565b9250827fffffffffffffffffffffffffffffffffffffffffffffffffffffffffffffffff038211156106aa576106a96103f8565b5b828201905092915050565b600082825260208201905092915050565b7f416c726561647920657865637574656400000000000000000000000000000000600082015250565b60006106fc6010836106b5565b9150610707826106c6565b602082019050919050565b6000602082019050818103600083015261072b816106ef565b9050919050565b600061073d8261032b565b91506107488361032b565b92508282101561075b5761075a6103f8565b5b82820390509291505056fea26469706673582212203435408fa041cc55cf85cad4c2b61080a05f55f8519ae06245b8da16f204132864736f6c634300080f0033",
			"opcodes": "PUSH1 0x80 PUSH1 0x40 MSTORE CALLVALUE DUP1 ISZERO PUSH3 0x11 JUMPI PUSH1 0x0 DUP1 REVERT JUMPDEST POP PUSH1 0x40 MLOAD PUSH3 0xAF3 CODESIZE SUB DUP1 PUSH3 0xAF3 DUP4 CODECOPY DUP2 DUP2 ADD PUSH1 0x40 MSTORE DUP2 ADD SWAP1 PUSH3 0x37 SWAP2 SWAP1 PUSH3 0xE0 JUMP JUMPDEST PUSH1 0x12 PUSH1 0x1 DUP2 SWAP1 SSTORE POP PUSH1 0x1 SLOAD PUSH1 0xA PUSH3 0x50 SWAP2 SWAP1 PUSH3 0x295 JUMP JUMPDEST DUP2 PUSH3 0x5D SWAP2 SWAP1 PUSH3 0x2E6 JUMP JUMPDEST PUSH1 0x0 DUP2 SWAP1 SSTORE POP PUSH1 0x0 PUSH1 0x2 PUSH1 0x0 PUSH2 0x100 EXP DUP2 SLOAD DUP2 PUSH1 0xFF MUL NOT AND SWAP1 DUP4 ISZERO ISZERO MUL OR SWAP1 SSTORE POP PUSH1 0x0 PUSH1 0x2 PUSH1 0x1 PUSH2 0x100 EXP DUP2 SLOAD DUP2 PUSH1 0xFF MUL NOT AND SWAP1 DUP4 ISZERO ISZERO MUL OR SWAP1 SSTORE POP POP PUSH3 0x347 JUMP JUMPDEST PUSH1 0x0 DUP1 REVERT JUMPDEST PUSH1 0x0 DUP2 SWAP1 POP SWAP2 SWAP1 POP JUMP JUMPDEST PUSH3 0xBA DUP2 PUSH3 0xA5 JUMP JUMPDEST DUP2 EQ PUSH3 0xC6 JUMPI PUSH1 0x0 DUP1 REVERT JUMPDEST POP JUMP JUMPDEST PUSH1 0x0 DUP2 MLOAD SWAP1 POP PUSH3 0xDA DUP2 PUSH3 0xAF JUMP JUMPDEST SWAP3 SWAP2 POP POP JUMP JUMPDEST PUSH1 0x0 PUSH1 0x20 DUP3 DUP5 SUB SLT ISZERO PUSH3 0xF9 JUMPI PUSH3 0xF8 PUSH3 0xA0 JUMP JUMPDEST JUMPDEST PUSH1 0x0 PUSH3 0x109 DUP5 DUP3 DUP6 ADD PUSH3 0xC9 JUMP JUMPDEST SWAP2 POP POP SWAP3 SWAP2 POP POP JUMP JUMPDEST PUSH32 0x4E487B7100000000000000000000000000000000000000000000000000000000 PUSH1 0x0 MSTORE PUSH1 0x11 PUSH1 0x4 MSTORE PUSH1 0x24 PUSH1 0x0 REVERT JUMPDEST PUSH1 0x0 DUP2 PUSH1 0x1 SHR SWAP1 POP SWAP2 SWAP1 POP JUMP JUMPDEST PUSH1 0x0 DUP1 DUP3 SWAP2 POP DUP4 SWAP1 POP JUMPDEST PUSH1 0x1 DUP6 GT ISZERO PUSH3 0x1A0 JUMPI DUP1 DUP7 DIV DUP2 GT ISZERO PUSH3 0x178 JUMPI PUSH3 0x177 PUSH3 0x112 JUMP JUMPDEST JUMPDEST PUSH1 0x1 DUP6 AND ISZERO PUSH3 0x188 JUMPI DUP1 DUP3 MUL SWAP2 POP JUMPDEST DUP1 DUP2 MUL SWAP1 POP PUSH3 0x198 DUP6 PUSH3 0x141 JUMP JUMPDEST SWAP5 POP PUSH3 0x158 JUMP JUMPDEST SWAP5 POP SWAP5 SWAP3 POP POP POP JUMP JUMPDEST PUSH1 0x0 DUP3 PUSH3 0x1BB JUMPI PUSH1 0x1 SWAP1 POP PUSH3 0x28E JUMP JUMPDEST DUP2 PUSH3 0x1CB JUMPI PUSH1 0x0 SWAP1 POP PUSH3 0x28E JUMP JUMPDEST DUP2 PUSH1 0x1 DUP2 EQ PUSH3 0x1E4 JUMPI PUSH1 0x2 DUP2 EQ PUSH3 0x1EF JUMPI PUSH3 0x225 JUMP JUMPDEST PUSH1 0x1 SWAP2 POP POP PUSH3 0x28E JUMP JUMPDEST PUSH1 0xFF DUP5 GT ISZERO PUSH3 0x204 JUMPI PUSH3 0x203 PUSH3 0x112 JUMP JUMPDEST JUMPDEST DUP4 PUSH1 0x2 EXP SWAP2 POP DUP5 DUP3 GT ISZERO PUSH3 0x21E JUMPI PUSH3 0x21D PUSH3 0x112 JUMP JUMPDEST JUMPDEST POP PUSH3 0x28E JUMP JUMPDEST POP PUSH1 0x20 DUP4 LT PUSH2 0x133 DUP4 LT AND PUSH1 0x4E DUP5 LT PUSH1 0xB DUP5 LT AND OR ISZERO PUSH3 0x25F JUMPI DUP3 DUP3 EXP SWAP1 POP DUP4 DUP2 GT ISZERO PUSH3 0x259 JUMPI PUSH3 0x258 PUSH3 0x112 JUMP JUMPDEST JUMPDEST PUSH3 0x28E JUMP JUMPDEST PUSH3 0x26E DUP5 DUP5 DUP5 PUSH1 0x1 PUSH3 0x14E JUMP JUMPDEST SWAP3 POP SWAP1 POP DUP2 DUP5 DIV DUP2 GT ISZERO PUSH3 0x288 JUMPI PUSH3 0x287 PUSH3 0x112 JUMP JUMPDEST JUMPDEST DUP2 DUP2 MUL SWAP1 POP JUMPDEST SWAP4 SWAP3 POP POP POP JUMP JUMPDEST PUSH1 0x0 PUSH3 0x2A2 DUP3 PUSH3 0xA5 JUMP JUMPDEST SWAP2 POP PUSH3 0x2AF DUP4 PUSH3 0xA5 JUMP JUMPDEST SWAP3 POP PUSH3 0x2DE PUSH32 0xFFFFFFFFFFFFFFFFFFFFFFFFFFFFFFFFFFFFFFFFFFFFFFFFFFFFFFFFFFFFFFFF DUP5 DUP5 PUSH3 0x1A9 JUMP JUMPDEST SWAP1 POP SWAP3 SWAP2 POP POP JUMP JUMPDEST PUSH1 0x0 PUSH3 0x2F3 DUP3 PUSH3 0xA5 JUMP JUMPDEST SWAP2 POP PUSH3 0x300 DUP4 PUSH3 0xA5 JUMP JUMPDEST SWAP3 POP DUP2 PUSH32 0xFFFFFFFFFFFFFFFFFFFFFFFFFFFFFFFFFFFFFFFFFFFFFFFFFFFFFFFFFFFFFFFF DIV DUP4 GT DUP3 ISZERO ISZERO AND ISZERO PUSH3 0x33C JUMPI PUSH3 0x33B PUSH3 0x112 JUMP JUMPDEST JUMPDEST DUP3 DUP3 MUL SWAP1 POP SWAP3 SWAP2 POP POP JUMP JUMPDEST PUSH2 0x79C DUP1 PUSH3 0x357 PUSH1 0x0 CODECOPY PUSH1 0x0 RETURN INVALID PUSH1 0x80 PUSH1 0x40 MSTORE CALLVALUE DUP1 ISZERO PUSH2 0x10 JUMPI PUSH1 0x0 DUP1 REVERT JUMPDEST POP PUSH1 0x4 CALLDATASIZE LT PUSH2 0x57 JUMPI PUSH1 0x0 CALLDATALOAD PUSH1 0xE0 SHR DUP1 PUSH4 0x131E2F18 EQ PUSH2 0x5C JUMPI DUP1 PUSH4 0x2C4E722E EQ PUSH2 0x8C JUMPI DUP1 PUSH4 0x84C6E2C8 EQ PUSH2 0xAA JUMPI DUP1 PUSH4 0x9F8AF9DD EQ PUSH2 0xB4 JUMPI DUP1 PUSH4 0xEFFC1FE0 EQ PUSH2 0xD0 JUMPI JUMPDEST PUSH1 0x0 DUP1 REVERT JUMPDEST PUSH2 0x76 PUSH1 0x4 DUP1 CALLDATASIZE SUB DUP2 ADD SWAP1 PUSH2 0x71 SWAP2 SWAP1 PUSH2 0x361 JUMP JUMPDEST PUSH2 0xDA JUMP JUMPDEST PUSH1 0x40 MLOAD PUSH2 0x83 SWAP2 SWAP1 PUSH2 0x39D JUMP JUMPDEST PUSH1 0x40 MLOAD DUP1 SWAP2 SUB SWAP1 RETURN JUMPDEST PUSH2 0x94 PUSH2 0x121 JUMP JUMPDEST PUSH1 0x40 MLOAD PUSH2 0xA1 SWAP2 SWAP1 PUSH2 0x39D JUMP JUMPDEST PUSH1 0x40 MLOAD DUP1 SWAP2 SUB SWAP1 RETURN JUMPDEST PUSH2 0xB2 PUSH2 0x127 JUMP JUMPDEST STOP JUMPDEST PUSH2 0xCE PUSH1 0x4 DUP1 CALLDATASIZE SUB DUP2 ADD SWAP1 PUSH2 0xC9 SWAP2 SWAP1 PUSH2 0x3B8 JUMP JUMPDEST PUSH2 0x131 JUMP JUMPDEST STOP JUMPDEST PUSH2 0xD8 PUSH2 0x2C9 JUMP JUMPDEST STOP JUMPDEST PUSH1 0x0 PUSH1 0x1 SLOAD PUSH1 0xA PUSH2 0xEB SWAP2 SWAP1 PUSH2 0x55A JUMP JUMPDEST PUSH1 0x64 PUSH1 0x0 SLOAD DUP5 PUSH2 0xFB SWAP2 SWAP1 PUSH2 0x5A5 JUMP JUMPDEST PUSH2 0x105 SWAP2 SWAP1 PUSH2 0x62E JUMP JUMPDEST PUSH2 0x10F SWAP2 SWAP1 PUSH2 0x62E JUMP JUMPDEST DUP3 PUSH2 0x11A SWAP2 SWAP1 PUSH2 0x65F JUMP JUMPDEST SWAP1 POP SWAP2 SWAP1 POP JUMP JUMPDEST PUSH1 0x0 SLOAD DUP2 JUMP JUMPDEST PUSH2 0x12F PUSH2 0x303 JUMP JUMPDEST JUMP JUMPDEST PUSH1 0x2 PUSH1 0x0 SWAP1 SLOAD SWAP1 PUSH2 0x100 EXP SWAP1 DIV PUSH1 0xFF AND ISZERO PUSH2 0x181 JUMPI PUSH1 0x40 MLOAD PUSH32 0x8C379A000000000000000000000000000000000000000000000000000000000 DUP2 MSTORE PUSH1 0x4 ADD PUSH2 0x178 SWAP1 PUSH2 0x712 JUMP JUMPDEST PUSH1 0x40 MLOAD DUP1 SWAP2 SUB SWAP1 REVERT JUMPDEST PUSH1 0x0 PUSH1 0x1 SLOAD PUSH1 0xA PUSH2 0x192 SWAP2 SWAP1 PUSH2 0x55A JUMP JUMPDEST DUP4 PUSH2 0x19D SWAP2 SWAP1 PUSH2 0x5A5 JUMP JUMPDEST SWAP1 POP PUSH1 0x0 PUSH1 0x1 SLOAD PUSH1 0xA PUSH2 0x1B0 SWAP2 SWAP1 PUSH2 0x55A JUMP JUMPDEST DUP4 PUSH2 0x1BB SWAP2 SWAP1 PUSH2 0x5A5 JUMP JUMPDEST SWAP1 POP PUSH1 0x0 DUP4 DUP4 PUSH2 0x1CB SWAP2 SWAP1 PUSH2 0x62E JUMP JUMPDEST SWAP1 POP PUSH1 0x0 PUSH8 0x1158E460913D0000 SWAP1 POP DUP2 DUP2 GT PUSH2 0x209 JUMPI DUP1 DUP3 PUSH2 0x1ED SWAP2 SWAP1 PUSH2 0x732 JUMP JUMPDEST PUSH1 0x0 DUP1 DUP3 DUP3 SLOAD PUSH2 0x1FD SWAP2 SWAP1 PUSH2 0x65F JUMP JUMPDEST SWAP3 POP POP DUP2 SWAP1 SSTORE POP PUSH2 0x2A6 JUMP JUMPDEST PUSH1 0x0 PUSH1 0x64 DUP8 PUSH2 0x218 SWAP2 SWAP1 PUSH2 0x5A5 JUMP JUMPDEST PUSH1 0x7D PUSH1 0x0 SLOAD PUSH2 0x227 SWAP2 SWAP1 PUSH2 0x5A5 JUMP JUMPDEST PUSH2 0x231 SWAP2 SWAP1 PUSH2 0x62E JUMP JUMPDEST SWAP1 POP PUSH1 0x0 PUSH1 0x64 PUSH1 0x50 DUP8 PUSH2 0x244 SWAP2 SWAP1 PUSH2 0x5A5 JUMP JUMPDEST PUSH2 0x24E SWAP2 SWAP1 PUSH2 0x62E JUMP JUMPDEST SWAP1 POP PUSH1 0x0 DUP2 DUP7 PUSH2 0x25E SWAP2 SWAP1 PUSH2 0x732 JUMP JUMPDEST SWAP1 POP PUSH1 0x0 PUSH1 0x1 SLOAD PUSH1 0xA PUSH2 0x271 SWAP2 SWAP1 PUSH2 0x55A JUMP JUMPDEST DUP3 DUP6 PUSH2 0x27D SWAP2 SWAP1 PUSH2 0x5A5 JUMP JUMPDEST PUSH2 0x287 SWAP2 SWAP1 PUSH2 0x62E JUMP JUMPDEST SWAP1 POP DUP1 PUSH1 0x0 DUP1 DUP3 DUP3 SLOAD PUSH2 0x29A SWAP2 SWAP1 PUSH2 0x732 JUMP JUMPDEST SWAP3 POP POP DUP2 SWAP1 SSTORE POP POP POP POP POP JUMPDEST PUSH1 0x1 PUSH1 0x2 PUSH1 0x0 PUSH2 0x100 EXP DUP2 SLOAD DUP2 PUSH1 0xFF MUL NOT AND SWAP1 DUP4 ISZERO ISZERO MUL OR SWAP1 SSTORE POP POP POP POP POP POP POP JUMP JUMPDEST PUSH1 0x2 PUSH1 0x1 SWAP1 SLOAD SWAP1 PUSH2 0x100 EXP SWAP1 DIV PUSH1 0xFF AND PUSH2 0x301 JUMPI PUSH2 0x2E5 PUSH2 0x303 JUMP JUMPDEST PUSH1 0x1 PUSH1 0x2 PUSH1 0x1 PUSH2 0x100 EXP DUP2 SLOAD DUP2 PUSH1 0xFF MUL NOT AND SWAP1 DUP4 ISZERO ISZERO MUL OR SWAP1 SSTORE POP JUMPDEST JUMP JUMPDEST PUSH1 0x8 PUSH1 0x7 PUSH1 0x0 SLOAD PUSH2 0x314 SWAP2 SWAP1 PUSH2 0x5A5 JUMP JUMPDEST PUSH2 0x31E SWAP2 SWAP1 PUSH2 0x62E JUMP JUMPDEST PUSH1 0x0 DUP2 SWAP1 SSTORE POP JUMP JUMPDEST PUSH1 0x0 DUP1 REVERT JUMPDEST PUSH1 0x0 DUP2 SWAP1 POP SWAP2 SWAP1 POP JUMP JUMPDEST PUSH2 0x33E DUP2 PUSH2 0x32B JUMP JUMPDEST DUP2 EQ PUSH2 0x349 JUMPI PUSH1 0x0 DUP1 REVERT JUMPDEST POP JUMP JUMPDEST PUSH1 0x0 DUP2 CALLDATALOAD SWAP1 POP PUSH2 0x35B DUP2 PUSH2 0x335 JUMP JUMPDEST SWAP3 SWAP2 POP POP JUMP JUMPDEST PUSH1 0x0 PUSH1 0x20 DUP3 DUP5 SUB SLT ISZERO PUSH2 0x377 JUMPI PUSH2 0x376 PUSH2 0x326 JUMP JUMPDEST JUMPDEST PUSH1 0x0 PUSH2 0x385 DUP5 DUP3 DUP6 ADD PUSH2 0x34C JUMP JUMPDEST SWAP2 POP POP SWAP3 SWAP2 POP POP JUMP JUMPDEST PUSH2 0x397 DUP2 PUSH2 0x32B JUMP JUMPDEST DUP3 MSTORE POP POP JUMP JUMPDEST PUSH1 0x0 PUSH1 0x20 DUP3 ADD SWAP1 POP PUSH2 0x3B2 PUSH1 0x0 DUP4 ADD DUP5 PUSH2 0x38E JUMP JUMPDEST SWAP3 SWAP2 POP POP JUMP JUMPDEST PUSH1 0x0 DUP1 PUSH1 0x40 DUP4 DUP6 SUB SLT ISZERO PUSH2 0x3CF JUMPI PUSH2 0x3CE PUSH2 0x326 JUMP JUMPDEST JUMPDEST PUSH1 0x0 PUSH2 0x3DD DUP6 DUP3 DUP7 ADD PUSH2 0x34C JUMP JUMPDEST SWAP3 POP POP PUSH1 0x20 PUSH2 0x3EE DUP6 DUP3 DUP7 ADD PUSH2 0x34C JUMP JUMPDEST SWAP2 POP POP SWAP3 POP SWAP3 SWAP1 POP JUMP JUMPDEST PUSH32 0x4E487B7100000000000000000000000000000000000000000000000000000000 PUSH1 0x0 MSTORE PUSH1 0x11 PUSH1 0x4 MSTORE PUSH1 0x24 PUSH1 0x0 REVERT JUMPDEST PUSH1 0x0 DUP2 PUSH1 0x1 SHR SWAP1 POP SWAP2 SWAP1 POP JUMP JUMPDEST PUSH1 0x0 DUP1 DUP3 SWAP2 POP DUP4 SWAP1 POP JUMPDEST PUSH1 0x1 DUP6 GT ISZERO PUSH2 0x47E JUMPI DUP1 DUP7 DIV DUP2 GT ISZERO PUSH2 0x45A JUMPI PUSH2 0x459 PUSH2 0x3F8 JUMP JUMPDEST JUMPDEST PUSH1 0x1 DUP6 AND ISZERO PUSH2 0x469 JUMPI DUP1 DUP3 MUL SWAP2 POP JUMPDEST DUP1 DUP2 MUL SWAP1 POP PUSH2 0x477 DUP6 PUSH2 0x427 JUMP JUMPDEST SWAP5 POP PUSH2 0x43E JUMP JUMPDEST SWAP5 POP SWAP5 SWAP3 POP POP POP JUMP JUMPDEST PUSH1 0x0 DUP3 PUSH2 0x497 JUMPI PUSH1 0x1 SWAP1 POP PUSH2 0x553 JUMP JUMPDEST DUP2 PUSH2 0x4A5 JUMPI PUSH1 0x0 SWAP1 POP PUSH2 0x553 JUMP JUMPDEST DUP2 PUSH1 0x1 DUP2 EQ PUSH2 0x4BB JUMPI PUSH1 0x2 DUP2 EQ PUSH2 0x4C5 JUMPI PUSH2 0x4F4 JUMP JUMPDEST PUSH1 0x1 SWAP2 POP POP PUSH2 0x553 JUMP JUMPDEST PUSH1 0xFF DUP5 GT ISZERO PUSH2 0x4D7 JUMPI PUSH2 0x4D6 PUSH2 0x3F8 JUMP JUMPDEST JUMPDEST DUP4 PUSH1 0x2 EXP SWAP2 POP DUP5 DUP3 GT ISZERO PUSH2 0x4EE JUMPI PUSH2 0x4ED PUSH2 0x3F8 JUMP JUMPDEST JUMPDEST POP PUSH2 0x553 JUMP JUMPDEST POP PUSH1 0x20 DUP4 LT PUSH2 0x133 DUP4 LT AND PUSH1 0x4E DUP5 LT PUSH1 0xB DUP5 LT AND OR ISZERO PUSH2 0x529 JUMPI DUP3 DUP3 EXP SWAP1 POP DUP4 DUP2 GT ISZERO PUSH2 0x524 JUMPI PUSH2 0x523 PUSH2 0x3F8 JUMP JUMPDEST JUMPDEST PUSH2 0x553 JUMP JUMPDEST PUSH2 0x536 DUP5 DUP5 DUP5 PUSH1 0x1 PUSH2 0x434 JUMP JUMPDEST SWAP3 POP SWAP1 POP DUP2 DUP5 DIV DUP2 GT ISZERO PUSH2 0x54D JUMPI PUSH2 0x54C PUSH2 0x3F8 JUMP JUMPDEST JUMPDEST DUP2 DUP2 MUL SWAP1 POP JUMPDEST SWAP4 SWAP3 POP POP POP JUMP JUMPDEST PUSH1 0x0 PUSH2 0x565 DUP3 PUSH2 0x32B JUMP JUMPDEST SWAP2 POP PUSH2 0x570 DUP4 PUSH2 0x32B JUMP JUMPDEST SWAP3 POP PUSH2 0x59D PUSH32 0xFFFFFFFFFFFFFFFFFFFFFFFFFFFFFFFFFFFFFFFFFFFFFFFFFFFFFFFFFFFFFFFF DUP5 DUP5 PUSH2 0x487 JUMP JUMPDEST SWAP1 POP SWAP3 SWAP2 POP POP JUMP JUMPDEST PUSH1 0x0 PUSH2 0x5B0 DUP3 PUSH2 0x32B JUMP JUMPDEST SWAP2 POP PUSH2 0x5BB DUP4 PUSH2 0x32B JUMP JUMPDEST SWAP3 POP DUP2 PUSH32 0xFFFFFFFFFFFFFFFFFFFFFFFFFFFFFFFFFFFFFFFFFFFFFFFFFFFFFFFFFFFFFFFF DIV DUP4 GT DUP3 ISZERO ISZERO AND ISZERO PUSH2 0x5F4 JUMPI PUSH2 0x5F3 PUSH2 0x3F8 JUMP JUMPDEST JUMPDEST DUP3 DUP3 MUL SWAP1 POP SWAP3 SWAP2 POP POP JUMP JUMPDEST PUSH32 0x4E487B7100000000000000000000000000000000000000000000000000000000 PUSH1 0x0 MSTORE PUSH1 0x12 PUSH1 0x4 MSTORE PUSH1 0x24 PUSH1 0x0 REVERT JUMPDEST PUSH1 0x0 PUSH2 0x639 DUP3 PUSH2 0x32B JUMP JUMPDEST SWAP2 POP PUSH2 0x644 DUP4 PUSH2 0x32B JUMP JUMPDEST SWAP3 POP DUP3 PUSH2 0x654 JUMPI PUSH2 0x653 PUSH2 0x5FF JUMP JUMPDEST JUMPDEST DUP3 DUP3 DIV SWAP1 POP SWAP3 SWAP2 POP POP JUMP JUMPDEST PUSH1 0x0 PUSH2 0x66A DUP3 PUSH2 0x32B JUMP JUMPDEST SWAP2 POP PUSH2 0x675 DUP4 PUSH2 0x32B JUMP JUMPDEST SWAP3 POP DUP3 PUSH32 0xFFFFFFFFFFFFFFFFFFFFFFFFFFFFFFFFFFFFFFFFFFFFFFFFFFFFFFFFFFFFFFFF SUB DUP3 GT ISZERO PUSH2 0x6AA JUMPI PUSH2 0x6A9 PUSH2 0x3F8 JUMP JUMPDEST JUMPDEST DUP3 DUP3 ADD SWAP1 POP SWAP3 SWAP2 POP POP JUMP JUMPDEST PUSH1 0x0 DUP3 DUP3 MSTORE PUSH1 0x20 DUP3 ADD SWAP1 POP SWAP3 SWAP2 POP POP JUMP JUMPDEST PUSH32 0x416C726561647920657865637574656400000000000000000000000000000000 PUSH1 0x0 DUP3 ADD MSTORE POP JUMP JUMPDEST PUSH1 0x0 PUSH2 0x6FC PUSH1 0x10 DUP4 PUSH2 0x6B5 JUMP JUMPDEST SWAP2 POP PUSH2 0x707 DUP3 PUSH2 0x6C6 JUMP JUMPDEST PUSH1 0x20 DUP3 ADD SWAP1 POP SWAP2 SWAP1 POP JUMP JUMPDEST PUSH1 0x0 PUSH1 0x20 DUP3 ADD SWAP1 POP DUP2 DUP2 SUB PUSH1 0x0 DUP4 ADD MSTORE PUSH2 0x72B DUP2 PUSH2 0x6EF JUMP JUMPDEST SWAP1 POP SWAP2 SWAP1 POP JUMP JUMPDEST PUSH1 0x0 PUSH2 0x73D DUP3 PUSH2 0x32B JUMP JUMPDEST SWAP2 POP PUSH2 0x748 DUP4 PUSH2 0x32B JUMP JUMPDEST SWAP3 POP DUP3 DUP3 LT ISZERO PUSH2 0x75B JUMPI PUSH2 0x75A PUSH2 0x3F8 JUMP JUMPDEST JUMPDEST DUP3 DUP3 SUB SWAP1 POP SWAP3 SWAP2 POP POP JUMP INVALID LOG2 PUSH5 0x6970667358 0x22 SLT KECCAK256 CALLVALUE CALLDATALOAD BLOCKHASH DUP16 LOG0 COINBASE 0xCC SSTORE 0xCF DUP6 0xCA 0xD4 0xC2 0xB6 LT DUP1 LOG0 0x5F SSTORE 0xF8 MLOAD SWAP11 0xE0 PUSH3 0x45B8DA AND CALLCODE DIV SGT 0x28 PUSH5 0x736F6C6343 STOP ADDMOD 0xF STOP CALLER "
		},
		"gasEstimates": {
			"creation": {
				"codeDepositCost": "389600",
				"executionCost": "infinite",
				"totalCost": "infinite"
			},
			"external": {
				"adjustIntCol(uint256,uint256)": "infinite",
				"adjustIntDoc()": "infinite",
				"adjustIntVerify()": "infinite",
				"mul(uint256)": "infinite",
				"rate()": "2429"
			},
			"internal": {
				"reduction()": "infinite"
			}
		},
		"methodIdentifiers": {
			"adjustIntCol(uint256,uint256)": "9f8af9dd",
			"adjustIntDoc()": "84c6e2c8",
			"adjustIntVerify()": "effc1fe0",
			"mul(uint256)": "131e2f18",
			"rate()": "2c4e722e"
		}
	},
	"abi": [
		{
			"inputs": [
				{
					"internalType": "uint256",
					"name": "_init",
					"type": "uint256"
				}
			],
			"stateMutability": "nonpayable",
			"type": "constructor"
		},
		{
			"inputs": [
				{
					"internalType": "uint256",
					"name": "val",
					"type": "uint256"
				},
				{
					"internalType": "uint256",
					"name": "col",
					"type": "uint256"
				}
			],
			"name": "adjustIntCol",
			"outputs": [],
			"stateMutability": "nonpayable",
			"type": "function"
		},
		{
			"inputs": [],
			"name": "adjustIntDoc",
			"outputs": [],
			"stateMutability": "nonpayable",
			"type": "function"
		},
		{
			"inputs": [],
			"name": "adjustIntVerify",
			"outputs": [],
			"stateMutability": "nonpayable",
			"type": "function"
		},
		{
			"inputs": [
				{
					"internalType": "uint256",
					"name": "amount",
					"type": "uint256"
				}
			],
			"name": "mul",
			"outputs": [
				{
					"internalType": "uint256",
					"name": "",
					"type": "uint256"
				}
			],
			"stateMutability": "view",
			"type": "function"
		},
		{
			"inputs": [],
			"name": "rate",
			"outputs": [
				{
					"internalType": "uint256",
					"name": "",
					"type": "uint256"
				}
			],
			"stateMutability": "view",
			"type": "function"
		}
	]
}