{
	"PFG/Interest.sol": {
		"Interest": {
			"abi": [
				{
					"inputs": [
						{
							"internalType": "uint256",
							"name": "_init",
							"type": "uint256"
						}
					],
					"stateMutability": "nonpayable",
					"type": "constructor"
				},
				{
					"inputs": [
						{
							"internalType": "uint256",
							"name": "val",
							"type": "uint256"
						},
						{
							"internalType": "uint256",
							"name": "col",
							"type": "uint256"
						}
					],
					"name": "collInterest",
					"outputs": [],
					"stateMutability": "nonpayable",
					"type": "function"
				},
				{
					"inputs": [],
					"name": "rate",
					"outputs": [
						{
							"internalType": "uint256",
							"name": "",
							"type": "uint256"
						}
					],
					"stateMutability": "view",
					"type": "function"
				},
				{
					"inputs": [],
					"name": "reduction",
					"outputs": [],
					"stateMutability": "nonpayable",
					"type": "function"
				}
			],
			"devdoc": {
				"kind": "dev",
				"methods": {},
				"version": 1
			},
			"evm": {
				"assembly": "    /* \"PFG/Interest.sol\":66:1028  contract Interest {... */\n  mstore(0x40, 0x80)\n    /* \"PFG/Interest.sol\":181:296  constructor(uint256 _init){... */\n  callvalue\n  dup1\n  iszero\n  tag_1\n  jumpi\n  0x00\n  dup1\n  revert\ntag_1:\n  pop\n  mload(0x40)\n  sub(codesize, bytecodeSize)\n  dup1\n  bytecodeSize\n  dup4\n  codecopy\n  dup2\n  dup2\n  add\n  0x40\n  mstore\n  dup2\n  add\n  swap1\n  tag_2\n  swap2\n  swap1\n  tag_3\n  jump\t// in\ntag_2:\n    /* \"PFG/Interest.sol\":224:226  18 */\n  0x12\n    /* \"PFG/Interest.sol\":218:221  dec */\n  0x01\n    /* \"PFG/Interest.sol\":218:226  dec = 18 */\n  dup2\n  swap1\n  sstore\n  pop\n    /* \"PFG/Interest.sol\":258:261  dec */\n  sload(0x01)\n    /* \"PFG/Interest.sol\":252:254  10 */\n  0x0a\n    /* \"PFG/Interest.sol\":252:261  10 ** dec */\n  tag_6\n  swap2\n  swap1\n  tag_7\n  jump\t// in\ntag_6:\n    /* \"PFG/Interest.sol\":244:249  _init */\n  dup2\n    /* \"PFG/Interest.sol\":244:261  _init * 10 ** dec */\n  tag_8\n  swap2\n  swap1\n  tag_9\n  jump\t// in\ntag_8:\n    /* \"PFG/Interest.sol\":237:241  rate */\n  0x00\n    /* \"PFG/Interest.sol\":237:261  rate = _init * 10 ** dec */\n  dup2\n  swap1\n  sstore\n  pop\n    /* \"PFG/Interest.sol\":283:288  false */\n  0x00\n    /* \"PFG/Interest.sol\":272:280  executed */\n  0x02\n  0x00\n    /* \"PFG/Interest.sol\":272:288  executed = false */\n  0x0100\n  exp\n  dup2\n  sload\n  dup2\n  0xff\n  mul\n  not\n  and\n  swap1\n  dup4\n  iszero\n  iszero\n  mul\n  or\n  swap1\n  sstore\n  pop\n    /* \"PFG/Interest.sol\":181:296  constructor(uint256 _init){... */\n  pop\n    /* \"PFG/Interest.sol\":66:1028  contract Interest {... */\n  jump(tag_10)\n    /* \"#utility.yul\":88:205   */\ntag_12:\n    /* \"#utility.yul\":197:198   */\n  0x00\n    /* \"#utility.yul\":194:195   */\n  dup1\n    /* \"#utility.yul\":187:199   */\n  revert\n    /* \"#utility.yul\":334:411   */\ntag_14:\n    /* \"#utility.yul\":371:378   */\n  0x00\n    /* \"#utility.yul\":400:405   */\n  dup2\n    /* \"#utility.yul\":389:405   */\n  swap1\n  pop\n    /* \"#utility.yul\":334:411   */\n  swap2\n  swap1\n  pop\n  jump\t// out\n    /* \"#utility.yul\":417:539   */\ntag_15:\n    /* \"#utility.yul\":490:514   */\n  tag_27\n    /* \"#utility.yul\":508:513   */\n  dup2\n    /* \"#utility.yul\":490:514   */\n  tag_14\n  jump\t// in\ntag_27:\n    /* \"#utility.yul\":483:488   */\n  dup2\n    /* \"#utility.yul\":480:515   */\n  eq\n    /* \"#utility.yul\":470:533   */\n  tag_28\n  jumpi\n    /* \"#utility.yul\":529:530   */\n  0x00\n    /* \"#utility.yul\":526:527   */\n  dup1\n    /* \"#utility.yul\":519:531   */\n  revert\n    /* \"#utility.yul\":470:533   */\ntag_28:\n    /* \"#utility.yul\":417:539   */\n  pop\n  jump\t// out\n    /* \"#utility.yul\":545:688   */\ntag_16:\n    /* \"#utility.yul\":602:607   */\n  0x00\n    /* \"#utility.yul\":633:639   */\n  dup2\n    /* \"#utility.yul\":627:640   */\n  mload\n    /* \"#utility.yul\":618:640   */\n  swap1\n  pop\n    /* \"#utility.yul\":649:682   */\n  tag_30\n    /* \"#utility.yul\":676:681   */\n  dup2\n    /* \"#utility.yul\":649:682   */\n  tag_15\n  jump\t// in\ntag_30:\n    /* \"#utility.yul\":545:688   */\n  swap3\n  swap2\n  pop\n  pop\n  jump\t// out\n    /* \"#utility.yul\":694:1045   */\ntag_3:\n    /* \"#utility.yul\":764:770   */\n  0x00\n    /* \"#utility.yul\":813:815   */\n  0x20\n    /* \"#utility.yul\":801:810   */\n  dup3\n    /* \"#utility.yul\":792:799   */\n  dup5\n    /* \"#utility.yul\":788:811   */\n  sub\n    /* \"#utility.yul\":784:816   */\n  slt\n    /* \"#utility.yul\":781:900   */\n  iszero\n  tag_32\n  jumpi\n    /* \"#utility.yul\":819:898   */\n  tag_33\n  tag_12\n  jump\t// in\ntag_33:\n    /* \"#utility.yul\":781:900   */\ntag_32:\n    /* \"#utility.yul\":939:940   */\n  0x00\n    /* \"#utility.yul\":964:1028   */\n  tag_34\n    /* \"#utility.yul\":1020:1027   */\n  dup5\n    /* \"#utility.yul\":1011:1017   */\n  dup3\n    /* \"#utility.yul\":1000:1009   */\n  dup6\n    /* \"#utility.yul\":996:1018   */\n  add\n    /* \"#utility.yul\":964:1028   */\n  tag_16\n  jump\t// in\ntag_34:\n    /* \"#utility.yul\":954:1028   */\n  swap2\n  pop\n    /* \"#utility.yul\":910:1038   */\n  pop\n    /* \"#utility.yul\":694:1045   */\n  swap3\n  swap2\n  pop\n  pop\n  jump\t// out\n    /* \"#utility.yul\":1051:1231   */\ntag_17:\n    /* \"#utility.yul\":1099:1176   */\n  0x4e487b7100000000000000000000000000000000000000000000000000000000\n    /* \"#utility.yul\":1096:1097   */\n  0x00\n    /* \"#utility.yul\":1089:1177   */\n  mstore\n    /* \"#utility.yul\":1196:1200   */\n  0x11\n    /* \"#utility.yul\":1193:1194   */\n  0x04\n    /* \"#utility.yul\":1186:1201   */\n  mstore\n    /* \"#utility.yul\":1220:1224   */\n  0x24\n    /* \"#utility.yul\":1217:1218   */\n  0x00\n    /* \"#utility.yul\":1210:1225   */\n  revert\n    /* \"#utility.yul\":1237:1339   */\ntag_18:\n    /* \"#utility.yul\":1279:1287   */\n  0x00\n    /* \"#utility.yul\":1326:1331   */\n  dup2\n    /* \"#utility.yul\":1323:1324   */\n  0x01\n    /* \"#utility.yul\":1319:1332   */\n  shr\n    /* \"#utility.yul\":1298:1332   */\n  swap1\n  pop\n    /* \"#utility.yul\":1237:1339   */\n  swap2\n  swap1\n  pop\n  jump\t// out\n    /* \"#utility.yul\":1345:2193   */\ntag_19:\n    /* \"#utility.yul\":1406:1411   */\n  0x00\n    /* \"#utility.yul\":1413:1417   */\n  dup1\n    /* \"#utility.yul\":1437:1443   */\n  dup3\n    /* \"#utility.yul\":1428:1443   */\n  swap2\n  pop\n    /* \"#utility.yul\":1461:1466   */\n  dup4\n    /* \"#utility.yul\":1452:1466   */\n  swap1\n  pop\n    /* \"#utility.yul\":1475:2187   */\ntag_38:\n    /* \"#utility.yul\":1496:1497   */\n  0x01\n    /* \"#utility.yul\":1486:1494   */\n  dup6\n    /* \"#utility.yul\":1483:1498   */\n  gt\n    /* \"#utility.yul\":1475:2187   */\n  iszero\n  tag_40\n  jumpi\n    /* \"#utility.yul\":1591:1595   */\n  dup1\n    /* \"#utility.yul\":1586:1589   */\n  dup7\n    /* \"#utility.yul\":1582:1596   */\n  div\n    /* \"#utility.yul\":1576:1580   */\n  dup2\n    /* \"#utility.yul\":1573:1597   */\n  gt\n    /* \"#utility.yul\":1570:1620   */\n  iszero\n  tag_41\n  jumpi\n    /* \"#utility.yul\":1600:1618   */\n  tag_42\n  tag_17\n  jump\t// in\ntag_42:\n    /* \"#utility.yul\":1570:1620   */\ntag_41:\n    /* \"#utility.yul\":1650:1651   */\n  0x01\n    /* \"#utility.yul\":1640:1648   */\n  dup6\n    /* \"#utility.yul\":1636:1652   */\n  and\n    /* \"#utility.yul\":1633:2084   */\n  iszero\n  tag_43\n  jumpi\n    /* \"#utility.yul\":2065:2069   */\n  dup1\n    /* \"#utility.yul\":2058:2063   */\n  dup3\n    /* \"#utility.yul\":2054:2070   */\n  mul\n    /* \"#utility.yul\":2045:2070   */\n  swap2\n  pop\n    /* \"#utility.yul\":1633:2084   */\ntag_43:\n    /* \"#utility.yul\":2115:2119   */\n  dup1\n    /* \"#utility.yul\":2109:2113   */\n  dup2\n    /* \"#utility.yul\":2105:2120   */\n  mul\n    /* \"#utility.yul\":2097:2120   */\n  swap1\n  pop\n    /* \"#utility.yul\":2145:2177   */\n  tag_44\n    /* \"#utility.yul\":2168:2176   */\n  dup6\n    /* \"#utility.yul\":2145:2177   */\n  tag_18\n  jump\t// in\ntag_44:\n    /* \"#utility.yul\":2133:2177   */\n  swap5\n  pop\n    /* \"#utility.yul\":1475:2187   */\n  jump(tag_38)\ntag_40:\n    /* \"#utility.yul\":1345:2193   */\n  swap5\n  pop\n  swap5\n  swap3\n  pop\n  pop\n  pop\n  jump\t// out\n    /* \"#utility.yul\":2199:3272   */\ntag_20:\n    /* \"#utility.yul\":2253:2258   */\n  0x00\n    /* \"#utility.yul\":2444:2452   */\n  dup3\n    /* \"#utility.yul\":2434:2474   */\n  tag_46\n  jumpi\n    /* \"#utility.yul\":2465:2466   */\n  0x01\n    /* \"#utility.yul\":2456:2466   */\n  swap1\n  pop\n    /* \"#utility.yul\":2467:2472   */\n  jump(tag_45)\n    /* \"#utility.yul\":2434:2474   */\ntag_46:\n    /* \"#utility.yul\":2493:2497   */\n  dup2\n    /* \"#utility.yul\":2483:2519   */\n  tag_47\n  jumpi\n    /* \"#utility.yul\":2510:2511   */\n  0x00\n    /* \"#utility.yul\":2501:2511   */\n  swap1\n  pop\n    /* \"#utility.yul\":2512:2517   */\n  jump(tag_45)\n    /* \"#utility.yul\":2483:2519   */\ntag_47:\n    /* \"#utility.yul\":2579:2583   */\n  dup2\n    /* \"#utility.yul\":2627:2628   */\n  0x01\n    /* \"#utility.yul\":2622:2649   */\n  dup2\n  eq\n  tag_49\n  jumpi\n    /* \"#utility.yul\":2663:2664   */\n  0x02\n    /* \"#utility.yul\":2658:2849   */\n  dup2\n  eq\n  tag_50\n  jumpi\n    /* \"#utility.yul\":2572:2849   */\n  jump(tag_48)\n    /* \"#utility.yul\":2622:2649   */\ntag_49:\n    /* \"#utility.yul\":2640:2641   */\n  0x01\n    /* \"#utility.yul\":2631:2641   */\n  swap2\n  pop\n    /* \"#utility.yul\":2642:2647   */\n  pop\n  jump(tag_45)\n    /* \"#utility.yul\":2658:2849   */\ntag_50:\n    /* \"#utility.yul\":2703:2706   */\n  0xff\n    /* \"#utility.yul\":2693:2701   */\n  dup5\n    /* \"#utility.yul\":2690:2707   */\n  gt\n    /* \"#utility.yul\":2687:2730   */\n  iszero\n  tag_51\n  jumpi\n    /* \"#utility.yul\":2710:2728   */\n  tag_52\n  tag_17\n  jump\t// in\ntag_52:\n    /* \"#utility.yul\":2687:2730   */\ntag_51:\n    /* \"#utility.yul\":2759:2767   */\n  dup4\n    /* \"#utility.yul\":2756:2757   */\n  0x02\n    /* \"#utility.yul\":2752:2768   */\n  exp\n    /* \"#utility.yul\":2743:2768   */\n  swap2\n  pop\n    /* \"#utility.yul\":2794:2797   */\n  dup5\n    /* \"#utility.yul\":2787:2792   */\n  dup3\n    /* \"#utility.yul\":2784:2798   */\n  gt\n    /* \"#utility.yul\":2781:2821   */\n  iszero\n  tag_53\n  jumpi\n    /* \"#utility.yul\":2801:2819   */\n  tag_54\n  tag_17\n  jump\t// in\ntag_54:\n    /* \"#utility.yul\":2781:2821   */\ntag_53:\n    /* \"#utility.yul\":2834:2839   */\n  pop\n  jump(tag_45)\n    /* \"#utility.yul\":2572:2849   */\ntag_48:\n  pop\n    /* \"#utility.yul\":2958:2960   */\n  0x20\n    /* \"#utility.yul\":2948:2956   */\n  dup4\n    /* \"#utility.yul\":2945:2961   */\n  lt\n    /* \"#utility.yul\":2939:2942   */\n  0x0133\n    /* \"#utility.yul\":2933:2937   */\n  dup4\n    /* \"#utility.yul\":2930:2943   */\n  lt\n    /* \"#utility.yul\":2926:2962   */\n  and\n    /* \"#utility.yul\":2908:2910   */\n  0x4e\n    /* \"#utility.yul\":2898:2906   */\n  dup5\n    /* \"#utility.yul\":2895:2911   */\n  lt\n    /* \"#utility.yul\":2890:2892   */\n  0x0b\n    /* \"#utility.yul\":2884:2888   */\n  dup5\n    /* \"#utility.yul\":2881:2893   */\n  lt\n    /* \"#utility.yul\":2877:2912   */\n  and\n    /* \"#utility.yul\":2861:2972   */\n  or\n    /* \"#utility.yul\":2858:3104   */\n  iszero\n  tag_55\n  jumpi\n    /* \"#utility.yul\":3014:3022   */\n  dup3\n    /* \"#utility.yul\":3008:3012   */\n  dup3\n    /* \"#utility.yul\":3004:3023   */\n  exp\n    /* \"#utility.yul\":2995:3023   */\n  swap1\n  pop\n    /* \"#utility.yul\":3049:3052   */\n  dup4\n    /* \"#utility.yul\":3042:3047   */\n  dup2\n    /* \"#utility.yul\":3039:3053   */\n  gt\n    /* \"#utility.yul\":3036:3076   */\n  iszero\n  tag_56\n  jumpi\n    /* \"#utility.yul\":3056:3074   */\n  tag_57\n  tag_17\n  jump\t// in\ntag_57:\n    /* \"#utility.yul\":3036:3076   */\ntag_56:\n    /* \"#utility.yul\":3089:3094   */\n  jump(tag_45)\n    /* \"#utility.yul\":2858:3104   */\ntag_55:\n    /* \"#utility.yul\":3129:3171   */\n  tag_58\n    /* \"#utility.yul\":3167:3170   */\n  dup5\n    /* \"#utility.yul\":3157:3165   */\n  dup5\n    /* \"#utility.yul\":3151:3155   */\n  dup5\n    /* \"#utility.yul\":3148:3149   */\n  0x01\n    /* \"#utility.yul\":3129:3171   */\n  tag_19\n  jump\t// in\ntag_58:\n    /* \"#utility.yul\":3114:3171   */\n  swap3\n  pop\n  swap1\n  pop\n    /* \"#utility.yul\":3203:3207   */\n  dup2\n    /* \"#utility.yul\":3198:3201   */\n  dup5\n    /* \"#utility.yul\":3194:3208   */\n  div\n    /* \"#utility.yul\":3187:3192   */\n  dup2\n    /* \"#utility.yul\":3184:3209   */\n  gt\n    /* \"#utility.yul\":3181:3232   */\n  iszero\n  tag_59\n  jumpi\n    /* \"#utility.yul\":3212:3230   */\n  tag_60\n  tag_17\n  jump\t// in\ntag_60:\n    /* \"#utility.yul\":3181:3232   */\ntag_59:\n    /* \"#utility.yul\":3261:3265   */\n  dup2\n    /* \"#utility.yul\":3254:3259   */\n  dup2\n    /* \"#utility.yul\":3250:3266   */\n  mul\n    /* \"#utility.yul\":3241:3266   */\n  swap1\n  pop\n    /* \"#utility.yul\":2199:3272   */\ntag_45:\n  swap4\n  swap3\n  pop\n  pop\n  pop\n  jump\t// out\n    /* \"#utility.yul\":3278:3563   */\ntag_7:\n    /* \"#utility.yul\":3338:3343   */\n  0x00\n    /* \"#utility.yul\":3362:3385   */\n  tag_62\n    /* \"#utility.yul\":3380:3384   */\n  dup3\n    /* \"#utility.yul\":3362:3385   */\n  tag_14\n  jump\t// in\ntag_62:\n    /* \"#utility.yul\":3354:3385   */\n  swap2\n  pop\n    /* \"#utility.yul\":3406:3433   */\n  tag_63\n    /* \"#utility.yul\":3424:3432   */\n  dup4\n    /* \"#utility.yul\":3406:3433   */\n  tag_14\n  jump\t// in\ntag_63:\n    /* \"#utility.yul\":3394:3433   */\n  swap3\n  pop\n    /* \"#utility.yul\":3452:3556   */\n  tag_64\n    /* \"#utility.yul\":3489:3555   */\n  0xffffffffffffffffffffffffffffffffffffffffffffffffffffffffffffffff\n    /* \"#utility.yul\":3479:3487   */\n  dup5\n    /* \"#utility.yul\":3473:3477   */\n  dup5\n    /* \"#utility.yul\":3452:3556   */\n  tag_20\n  jump\t// in\ntag_64:\n    /* \"#utility.yul\":3443:3556   */\n  swap1\n  pop\n    /* \"#utility.yul\":3278:3563   */\n  swap3\n  swap2\n  pop\n  pop\n  jump\t// out\n    /* \"#utility.yul\":3569:3917   */\ntag_9:\n    /* \"#utility.yul\":3609:3616   */\n  0x00\n    /* \"#utility.yul\":3632:3652   */\n  tag_66\n    /* \"#utility.yul\":3650:3651   */\n  dup3\n    /* \"#utility.yul\":3632:3652   */\n  tag_14\n  jump\t// in\ntag_66:\n    /* \"#utility.yul\":3627:3652   */\n  swap2\n  pop\n    /* \"#utility.yul\":3666:3686   */\n  tag_67\n    /* \"#utility.yul\":3684:3685   */\n  dup4\n    /* \"#utility.yul\":3666:3686   */\n  tag_14\n  jump\t// in\ntag_67:\n    /* \"#utility.yul\":3661:3686   */\n  swap3\n  pop\n    /* \"#utility.yul\":3854:3855   */\n  dup2\n    /* \"#utility.yul\":3786:3852   */\n  0xffffffffffffffffffffffffffffffffffffffffffffffffffffffffffffffff\n    /* \"#utility.yul\":3782:3856   */\n  div\n    /* \"#utility.yul\":3779:3780   */\n  dup4\n    /* \"#utility.yul\":3776:3857   */\n  gt\n    /* \"#utility.yul\":3771:3772   */\n  dup3\n    /* \"#utility.yul\":3764:3773   */\n  iszero\n    /* \"#utility.yul\":3757:3774   */\n  iszero\n    /* \"#utility.yul\":3753:3858   */\n  and\n    /* \"#utility.yul\":3750:3881   */\n  iszero\n  tag_68\n  jumpi\n    /* \"#utility.yul\":3861:3879   */\n  tag_69\n  tag_17\n  jump\t// in\ntag_69:\n    /* \"#utility.yul\":3750:3881   */\ntag_68:\n    /* \"#utility.yul\":3909:3910   */\n  dup3\n    /* \"#utility.yul\":3906:3907   */\n  dup3\n    /* \"#utility.yul\":3902:3911   */\n  mul\n    /* \"#utility.yul\":3891:3911   */\n  swap1\n  pop\n    /* \"#utility.yul\":3569:3917   */\n  swap3\n  swap2\n  pop\n  pop\n  jump\t// out\n    /* \"PFG/Interest.sol\":66:1028  contract Interest {... */\ntag_10:\n  dataSize(sub_0)\n  dup1\n  dataOffset(sub_0)\n  0x00\n  codecopy\n  0x00\n  return\nstop\n\nsub_0: assembly {\n        /* \"PFG/Interest.sol\":66:1028  contract Interest {... */\n      mstore(0x40, 0x80)\n      callvalue\n      dup1\n      iszero\n      tag_1\n      jumpi\n      0x00\n      dup1\n      revert\n    tag_1:\n      pop\n      jumpi(tag_2, lt(calldatasize, 0x04))\n      shr(0xe0, calldataload(0x00))\n      dup1\n      0x2c4e722e\n      eq\n      tag_3\n      jumpi\n      dup1\n      0x4e72d15f\n      eq\n      tag_4\n      jumpi\n      dup1\n      0xea0c9fa1\n      eq\n      tag_5\n      jumpi\n    tag_2:\n      0x00\n      dup1\n      revert\n        /* \"PFG/Interest.sol\":95:114  uint256 public rate */\n    tag_3:\n      tag_6\n      tag_7\n      jump\t// in\n    tag_6:\n      mload(0x40)\n      tag_8\n      swap2\n      swap1\n      tag_9\n      jump\t// in\n    tag_8:\n      mload(0x40)\n      dup1\n      swap2\n      sub\n      swap1\n      return\n        /* \"PFG/Interest.sol\":942:1009  function reduction() public {... */\n    tag_4:\n      tag_10\n      tag_11\n      jump\t// in\n    tag_10:\n      stop\n        /* \"PFG/Interest.sol\":304:934  function collInterest(uint256 val, uint256 col) public {... */\n    tag_5:\n      tag_12\n      0x04\n      dup1\n      calldatasize\n      sub\n      dup2\n      add\n      swap1\n      tag_13\n      swap2\n      swap1\n      tag_14\n      jump\t// in\n    tag_13:\n      tag_15\n      jump\t// in\n    tag_12:\n      stop\n        /* \"PFG/Interest.sol\":95:114  uint256 public rate */\n    tag_7:\n      sload(0x00)\n      dup2\n      jump\t// out\n        /* \"PFG/Interest.sol\":942:1009  function reduction() public {... */\n    tag_11:\n        /* \"PFG/Interest.sol\":1000:1001  8 */\n      0x08\n        /* \"PFG/Interest.sol\":996:997  7 */\n      0x07\n        /* \"PFG/Interest.sol\":989:993  rate */\n      sload(0x00)\n        /* \"PFG/Interest.sol\":989:997  rate * 7 */\n      tag_17\n      swap2\n      swap1\n      tag_18\n      jump\t// in\n    tag_17:\n        /* \"PFG/Interest.sol\":988:1001  (rate * 7) /8 */\n      tag_19\n      swap2\n      swap1\n      tag_20\n      jump\t// in\n    tag_19:\n        /* \"PFG/Interest.sol\":981:985  rate */\n      0x00\n        /* \"PFG/Interest.sol\":981:1001  rate = (rate * 7) /8 */\n      dup2\n      swap1\n      sstore\n      pop\n        /* \"PFG/Interest.sol\":942:1009  function reduction() public {... */\n      jump\t// out\n        /* \"PFG/Interest.sol\":304:934  function collInterest(uint256 val, uint256 col) public {... */\n    tag_15:\n        /* \"PFG/Interest.sol\":379:387  executed */\n      0x02\n      0x00\n      swap1\n      sload\n      swap1\n      0x0100\n      exp\n      swap1\n      div\n      0xff\n      and\n        /* \"PFG/Interest.sol\":378:387  !executed */\n      iszero\n        /* \"PFG/Interest.sol\":370:388  require(!executed) */\n      tag_22\n      jumpi\n      0x00\n      dup1\n      revert\n    tag_22:\n        /* \"PFG/Interest.sol\":399:415  uint256 valueDec */\n      0x00\n        /* \"PFG/Interest.sol\":431:434  dec */\n      sload(0x01)\n        /* \"PFG/Interest.sol\":425:427  10 */\n      0x0a\n        /* \"PFG/Interest.sol\":425:434  10 ** dec */\n      tag_23\n      swap2\n      swap1\n      tag_24\n      jump\t// in\n    tag_23:\n        /* \"PFG/Interest.sol\":419:422  val */\n      dup4\n        /* \"PFG/Interest.sol\":419:434  val * 10 ** dec */\n      tag_25\n      swap2\n      swap1\n      tag_18\n      jump\t// in\n    tag_25:\n        /* \"PFG/Interest.sol\":399:435  uint256 valueDec = (val * 10 ** dec) */\n      swap1\n      pop\n        /* \"PFG/Interest.sol\":446:460  uint256 colDec */\n      0x00\n        /* \"PFG/Interest.sol\":476:479  dec */\n      sload(0x01)\n        /* \"PFG/Interest.sol\":470:472  10 */\n      0x0a\n        /* \"PFG/Interest.sol\":470:479  10 ** dec */\n      tag_26\n      swap2\n      swap1\n      tag_24\n      jump\t// in\n    tag_26:\n        /* \"PFG/Interest.sol\":464:467  col */\n      dup4\n        /* \"PFG/Interest.sol\":464:479  col * 10 ** dec */\n      tag_27\n      swap2\n      swap1\n      tag_18\n      jump\t// in\n    tag_27:\n        /* \"PFG/Interest.sol\":446:480  uint256 colDec = (col * 10 ** dec) */\n      swap1\n      pop\n        /* \"PFG/Interest.sol\":491:508  uint256 actualRef */\n      0x00\n        /* \"PFG/Interest.sol\":520:523  col */\n      dup4\n        /* \"PFG/Interest.sol\":511:519  valueDec */\n      dup4\n        /* \"PFG/Interest.sol\":511:523  valueDec/col */\n      tag_28\n      swap2\n      swap1\n      tag_20\n      jump\t// in\n    tag_28:\n        /* \"PFG/Interest.sol\":491:523  uint256 actualRef = valueDec/col */\n      swap1\n      pop\n        /* \"PFG/Interest.sol\":534:545  uint256 ref */\n      0x00\n        /* \"PFG/Interest.sol\":548:567  1250000000000000000 */\n      0x1158e460913d0000\n        /* \"PFG/Interest.sol\":534:567  uint256 ref = 1250000000000000000 */\n      swap1\n      pop\n        /* \"PFG/Interest.sol\":591:600  actualRef */\n      dup2\n        /* \"PFG/Interest.sol\":584:587  ref */\n      dup2\n        /* \"PFG/Interest.sol\":584:600  ref <= actualRef */\n      gt\n        /* \"PFG/Interest.sol\":580:899  if (ref <= actualRef){... */\n      tag_29\n      jumpi\n        /* \"PFG/Interest.sol\":628:637  actualRef */\n      dup2\n        /* \"PFG/Interest.sol\":624:627  ref */\n      dup2\n        /* \"PFG/Interest.sol\":624:637  ref-actualRef */\n      tag_30\n      swap2\n      swap1\n      tag_31\n      jump\t// in\n    tag_30:\n        /* \"PFG/Interest.sol\":616:620  rate */\n      0x00\n      dup1\n        /* \"PFG/Interest.sol\":616:637  rate -= ref-actualRef */\n      dup3\n      dup3\n      sload\n      tag_32\n      swap2\n      swap1\n      tag_31\n      jump\t// in\n    tag_32:\n      swap3\n      pop\n      pop\n      dup2\n      swap1\n      sstore\n      pop\n        /* \"PFG/Interest.sol\":580:899  if (ref <= actualRef){... */\n      jump(tag_33)\n    tag_29:\n        /* \"PFG/Interest.sol\":678:687  uint256 x */\n      0x00\n        /* \"PFG/Interest.sol\":708:711  100 */\n      0x64\n        /* \"PFG/Interest.sol\":704:707  val */\n      dup8\n        /* \"PFG/Interest.sol\":704:711  val*100 */\n      tag_34\n      swap2\n      swap1\n      tag_18\n      jump\t// in\n    tag_34:\n        /* \"PFG/Interest.sol\":696:699  125 */\n      0x7d\n        /* \"PFG/Interest.sol\":691:695  rate */\n      sload(0x00)\n        /* \"PFG/Interest.sol\":691:699  rate*125 */\n      tag_35\n      swap2\n      swap1\n      tag_18\n      jump\t// in\n    tag_35:\n        /* \"PFG/Interest.sol\":690:712  (rate*125) / (val*100) */\n      tag_36\n      swap2\n      swap1\n      tag_20\n      jump\t// in\n    tag_36:\n        /* \"PFG/Interest.sol\":678:712  uint256 x = (rate*125) / (val*100) */\n      swap1\n      pop\n        /* \"PFG/Interest.sol\":727:741  uint256 colRes */\n      0x00\n        /* \"PFG/Interest.sol\":760:763  100 */\n      0x64\n        /* \"PFG/Interest.sol\":756:758  80 */\n      0x50\n        /* \"PFG/Interest.sol\":745:753  valueDec */\n      dup8\n        /* \"PFG/Interest.sol\":745:758  valueDec * 80 */\n      tag_37\n      swap2\n      swap1\n      tag_18\n      jump\t// in\n    tag_37:\n        /* \"PFG/Interest.sol\":744:763  (valueDec * 80)/100 */\n      tag_38\n      swap2\n      swap1\n      tag_20\n      jump\t// in\n    tag_38:\n        /* \"PFG/Interest.sol\":727:763  uint256 colRes = (valueDec * 80)/100 */\n      swap1\n      pop\n        /* \"PFG/Interest.sol\":778:792  uint256 difCol */\n      0x00\n        /* \"PFG/Interest.sol\":804:810  colRes */\n      dup2\n        /* \"PFG/Interest.sol\":795:801  colDec */\n      dup7\n        /* \"PFG/Interest.sol\":795:810  colDec - colRes */\n      tag_39\n      swap2\n      swap1\n      tag_31\n      jump\t// in\n    tag_39:\n        /* \"PFG/Interest.sol\":778:810  uint256 difCol = colDec - colRes */\n      swap1\n      pop\n        /* \"PFG/Interest.sol\":825:836  uint256 res */\n      0x00\n        /* \"PFG/Interest.sol\":857:860  dec */\n      sload(0x01)\n        /* \"PFG/Interest.sol\":853:855  10 */\n      0x0a\n        /* \"PFG/Interest.sol\":853:860  10**dec */\n      tag_40\n      swap2\n      swap1\n      tag_24\n      jump\t// in\n    tag_40:\n        /* \"PFG/Interest.sol\":844:850  difCol */\n      dup3\n        /* \"PFG/Interest.sol\":840:841  x */\n      dup6\n        /* \"PFG/Interest.sol\":840:850  x * difCol */\n      tag_41\n      swap2\n      swap1\n      tag_18\n      jump\t// in\n    tag_41:\n        /* \"PFG/Interest.sol\":839:861  (x * difCol)/(10**dec) */\n      tag_42\n      swap2\n      swap1\n      tag_20\n      jump\t// in\n    tag_42:\n        /* \"PFG/Interest.sol\":825:861  uint256 res = (x * difCol)/(10**dec) */\n      swap1\n      pop\n        /* \"PFG/Interest.sol\":884:887  res */\n      dup1\n        /* \"PFG/Interest.sol\":876:880  rate */\n      0x00\n      dup1\n        /* \"PFG/Interest.sol\":876:887  rate -= res */\n      dup3\n      dup3\n      sload\n      tag_43\n      swap2\n      swap1\n      tag_31\n      jump\t// in\n    tag_43:\n      swap3\n      pop\n      pop\n      dup2\n      swap1\n      sstore\n      pop\n        /* \"PFG/Interest.sol\":663:899  {... */\n      pop\n      pop\n      pop\n      pop\n        /* \"PFG/Interest.sol\":580:899  if (ref <= actualRef){... */\n    tag_33:\n        /* \"PFG/Interest.sol\":922:926  true */\n      0x01\n        /* \"PFG/Interest.sol\":911:919  executed */\n      0x02\n      0x00\n        /* \"PFG/Interest.sol\":911:926  executed = true */\n      0x0100\n      exp\n      dup2\n      sload\n      dup2\n      0xff\n      mul\n      not\n      and\n      swap1\n      dup4\n      iszero\n      iszero\n      mul\n      or\n      swap1\n      sstore\n      pop\n        /* \"PFG/Interest.sol\":359:934  {... */\n      pop\n      pop\n      pop\n      pop\n        /* \"PFG/Interest.sol\":304:934  function collInterest(uint256 val, uint256 col) public {... */\n      pop\n      pop\n      jump\t// out\n        /* \"#utility.yul\":7:84   */\n    tag_44:\n        /* \"#utility.yul\":44:51   */\n      0x00\n        /* \"#utility.yul\":73:78   */\n      dup2\n        /* \"#utility.yul\":62:78   */\n      swap1\n      pop\n        /* \"#utility.yul\":7:84   */\n      swap2\n      swap1\n      pop\n      jump\t// out\n        /* \"#utility.yul\":90:208   */\n    tag_45:\n        /* \"#utility.yul\":177:201   */\n      tag_59\n        /* \"#utility.yul\":195:200   */\n      dup2\n        /* \"#utility.yul\":177:201   */\n      tag_44\n      jump\t// in\n    tag_59:\n        /* \"#utility.yul\":172:175   */\n      dup3\n        /* \"#utility.yul\":165:202   */\n      mstore\n        /* \"#utility.yul\":90:208   */\n      pop\n      pop\n      jump\t// out\n        /* \"#utility.yul\":214:436   */\n    tag_9:\n        /* \"#utility.yul\":307:311   */\n      0x00\n        /* \"#utility.yul\":345:347   */\n      0x20\n        /* \"#utility.yul\":334:343   */\n      dup3\n        /* \"#utility.yul\":330:348   */\n      add\n        /* \"#utility.yul\":322:348   */\n      swap1\n      pop\n        /* \"#utility.yul\":358:429   */\n      tag_61\n        /* \"#utility.yul\":426:427   */\n      0x00\n        /* \"#utility.yul\":415:424   */\n      dup4\n        /* \"#utility.yul\":411:428   */\n      add\n        /* \"#utility.yul\":402:408   */\n      dup5\n        /* \"#utility.yul\":358:429   */\n      tag_45\n      jump\t// in\n    tag_61:\n        /* \"#utility.yul\":214:436   */\n      swap3\n      swap2\n      pop\n      pop\n      jump\t// out\n        /* \"#utility.yul\":523:640   */\n    tag_47:\n        /* \"#utility.yul\":632:633   */\n      0x00\n        /* \"#utility.yul\":629:630   */\n      dup1\n        /* \"#utility.yul\":622:634   */\n      revert\n        /* \"#utility.yul\":769:891   */\n    tag_49:\n        /* \"#utility.yul\":842:866   */\n      tag_66\n        /* \"#utility.yul\":860:865   */\n      dup2\n        /* \"#utility.yul\":842:866   */\n      tag_44\n      jump\t// in\n    tag_66:\n        /* \"#utility.yul\":835:840   */\n      dup2\n        /* \"#utility.yul\":832:867   */\n      eq\n        /* \"#utility.yul\":822:885   */\n      tag_67\n      jumpi\n        /* \"#utility.yul\":881:882   */\n      0x00\n        /* \"#utility.yul\":878:879   */\n      dup1\n        /* \"#utility.yul\":871:883   */\n      revert\n        /* \"#utility.yul\":822:885   */\n    tag_67:\n        /* \"#utility.yul\":769:891   */\n      pop\n      jump\t// out\n        /* \"#utility.yul\":897:1036   */\n    tag_50:\n        /* \"#utility.yul\":943:948   */\n      0x00\n        /* \"#utility.yul\":981:987   */\n      dup2\n        /* \"#utility.yul\":968:988   */\n      calldataload\n        /* \"#utility.yul\":959:988   */\n      swap1\n      pop\n        /* \"#utility.yul\":997:1030   */\n      tag_69\n        /* \"#utility.yul\":1024:1029   */\n      dup2\n        /* \"#utility.yul\":997:1030   */\n      tag_49\n      jump\t// in\n    tag_69:\n        /* \"#utility.yul\":897:1036   */\n      swap3\n      swap2\n      pop\n      pop\n      jump\t// out\n        /* \"#utility.yul\":1042:1516   */\n    tag_14:\n        /* \"#utility.yul\":1110:1116   */\n      0x00\n        /* \"#utility.yul\":1118:1124   */\n      dup1\n        /* \"#utility.yul\":1167:1169   */\n      0x40\n        /* \"#utility.yul\":1155:1164   */\n      dup4\n        /* \"#utility.yul\":1146:1153   */\n      dup6\n        /* \"#utility.yul\":1142:1165   */\n      sub\n        /* \"#utility.yul\":1138:1170   */\n      slt\n        /* \"#utility.yul\":1135:1254   */\n      iszero\n      tag_71\n      jumpi\n        /* \"#utility.yul\":1173:1252   */\n      tag_72\n      tag_47\n      jump\t// in\n    tag_72:\n        /* \"#utility.yul\":1135:1254   */\n    tag_71:\n        /* \"#utility.yul\":1293:1294   */\n      0x00\n        /* \"#utility.yul\":1318:1371   */\n      tag_73\n        /* \"#utility.yul\":1363:1370   */\n      dup6\n        /* \"#utility.yul\":1354:1360   */\n      dup3\n        /* \"#utility.yul\":1343:1352   */\n      dup7\n        /* \"#utility.yul\":1339:1361   */\n      add\n        /* \"#utility.yul\":1318:1371   */\n      tag_50\n      jump\t// in\n    tag_73:\n        /* \"#utility.yul\":1308:1371   */\n      swap3\n      pop\n        /* \"#utility.yul\":1264:1381   */\n      pop\n        /* \"#utility.yul\":1420:1422   */\n      0x20\n        /* \"#utility.yul\":1446:1499   */\n      tag_74\n        /* \"#utility.yul\":1491:1498   */\n      dup6\n        /* \"#utility.yul\":1482:1488   */\n      dup3\n        /* \"#utility.yul\":1471:1480   */\n      dup7\n        /* \"#utility.yul\":1467:1489   */\n      add\n        /* \"#utility.yul\":1446:1499   */\n      tag_50\n      jump\t// in\n    tag_74:\n        /* \"#utility.yul\":1436:1499   */\n      swap2\n      pop\n        /* \"#utility.yul\":1391:1509   */\n      pop\n        /* \"#utility.yul\":1042:1516   */\n      swap3\n      pop\n      swap3\n      swap1\n      pop\n      jump\t// out\n        /* \"#utility.yul\":1522:1702   */\n    tag_51:\n        /* \"#utility.yul\":1570:1647   */\n      0x4e487b7100000000000000000000000000000000000000000000000000000000\n        /* \"#utility.yul\":1567:1568   */\n      0x00\n        /* \"#utility.yul\":1560:1648   */\n      mstore\n        /* \"#utility.yul\":1667:1671   */\n      0x11\n        /* \"#utility.yul\":1664:1665   */\n      0x04\n        /* \"#utility.yul\":1657:1672   */\n      mstore\n        /* \"#utility.yul\":1691:1695   */\n      0x24\n        /* \"#utility.yul\":1688:1689   */\n      0x00\n        /* \"#utility.yul\":1681:1696   */\n      revert\n        /* \"#utility.yul\":1708:2056   */\n    tag_18:\n        /* \"#utility.yul\":1748:1755   */\n      0x00\n        /* \"#utility.yul\":1771:1791   */\n      tag_77\n        /* \"#utility.yul\":1789:1790   */\n      dup3\n        /* \"#utility.yul\":1771:1791   */\n      tag_44\n      jump\t// in\n    tag_77:\n        /* \"#utility.yul\":1766:1791   */\n      swap2\n      pop\n        /* \"#utility.yul\":1805:1825   */\n      tag_78\n        /* \"#utility.yul\":1823:1824   */\n      dup4\n        /* \"#utility.yul\":1805:1825   */\n      tag_44\n      jump\t// in\n    tag_78:\n        /* \"#utility.yul\":1800:1825   */\n      swap3\n      pop\n        /* \"#utility.yul\":1993:1994   */\n      dup2\n        /* \"#utility.yul\":1925:1991   */\n      0xffffffffffffffffffffffffffffffffffffffffffffffffffffffffffffffff\n        /* \"#utility.yul\":1921:1995   */\n      div\n        /* \"#utility.yul\":1918:1919   */\n      dup4\n        /* \"#utility.yul\":1915:1996   */\n      gt\n        /* \"#utility.yul\":1910:1911   */\n      dup3\n        /* \"#utility.yul\":1903:1912   */\n      iszero\n        /* \"#utility.yul\":1896:1913   */\n      iszero\n        /* \"#utility.yul\":1892:1997   */\n      and\n        /* \"#utility.yul\":1889:2020   */\n      iszero\n      tag_79\n      jumpi\n        /* \"#utility.yul\":2000:2018   */\n      tag_80\n      tag_51\n      jump\t// in\n    tag_80:\n        /* \"#utility.yul\":1889:2020   */\n    tag_79:\n        /* \"#utility.yul\":2048:2049   */\n      dup3\n        /* \"#utility.yul\":2045:2046   */\n      dup3\n        /* \"#utility.yul\":2041:2050   */\n      mul\n        /* \"#utility.yul\":2030:2050   */\n      swap1\n      pop\n        /* \"#utility.yul\":1708:2056   */\n      swap3\n      swap2\n      pop\n      pop\n      jump\t// out\n        /* \"#utility.yul\":2062:2242   */\n    tag_52:\n        /* \"#utility.yul\":2110:2187   */\n      0x4e487b7100000000000000000000000000000000000000000000000000000000\n        /* \"#utility.yul\":2107:2108   */\n      0x00\n        /* \"#utility.yul\":2100:2188   */\n      mstore\n        /* \"#utility.yul\":2207:2211   */\n      0x12\n        /* \"#utility.yul\":2204:2205   */\n      0x04\n        /* \"#utility.yul\":2197:2212   */\n      mstore\n        /* \"#utility.yul\":2231:2235   */\n      0x24\n        /* \"#utility.yul\":2228:2229   */\n      0x00\n        /* \"#utility.yul\":2221:2236   */\n      revert\n        /* \"#utility.yul\":2248:2433   */\n    tag_20:\n        /* \"#utility.yul\":2288:2289   */\n      0x00\n        /* \"#utility.yul\":2305:2325   */\n      tag_83\n        /* \"#utility.yul\":2323:2324   */\n      dup3\n        /* \"#utility.yul\":2305:2325   */\n      tag_44\n      jump\t// in\n    tag_83:\n        /* \"#utility.yul\":2300:2325   */\n      swap2\n      pop\n        /* \"#utility.yul\":2339:2359   */\n      tag_84\n        /* \"#utility.yul\":2357:2358   */\n      dup4\n        /* \"#utility.yul\":2339:2359   */\n      tag_44\n      jump\t// in\n    tag_84:\n        /* \"#utility.yul\":2334:2359   */\n      swap3\n      pop\n        /* \"#utility.yul\":2378:2379   */\n      dup3\n        /* \"#utility.yul\":2368:2403   */\n      tag_85\n      jumpi\n        /* \"#utility.yul\":2383:2401   */\n      tag_86\n      tag_52\n      jump\t// in\n    tag_86:\n        /* \"#utility.yul\":2368:2403   */\n    tag_85:\n        /* \"#utility.yul\":2425:2426   */\n      dup3\n        /* \"#utility.yul\":2422:2423   */\n      dup3\n        /* \"#utility.yul\":2418:2427   */\n      div\n        /* \"#utility.yul\":2413:2427   */\n      swap1\n      pop\n        /* \"#utility.yul\":2248:2433   */\n      swap3\n      swap2\n      pop\n      pop\n      jump\t// out\n        /* \"#utility.yul\":2439:2541   */\n    tag_53:\n        /* \"#utility.yul\":2481:2489   */\n      0x00\n        /* \"#utility.yul\":2528:2533   */\n      dup2\n        /* \"#utility.yul\":2525:2526   */\n      0x01\n        /* \"#utility.yul\":2521:2534   */\n      shr\n        /* \"#utility.yul\":2500:2534   */\n      swap1\n      pop\n        /* \"#utility.yul\":2439:2541   */\n      swap2\n      swap1\n      pop\n      jump\t// out\n        /* \"#utility.yul\":2547:3395   */\n    tag_54:\n        /* \"#utility.yul\":2608:2613   */\n      0x00\n        /* \"#utility.yul\":2615:2619   */\n      dup1\n        /* \"#utility.yul\":2639:2645   */\n      dup3\n        /* \"#utility.yul\":2630:2645   */\n      swap2\n      pop\n        /* \"#utility.yul\":2663:2668   */\n      dup4\n        /* \"#utility.yul\":2654:2668   */\n      swap1\n      pop\n        /* \"#utility.yul\":2677:3389   */\n    tag_89:\n        /* \"#utility.yul\":2698:2699   */\n      0x01\n        /* \"#utility.yul\":2688:2696   */\n      dup6\n        /* \"#utility.yul\":2685:2700   */\n      gt\n        /* \"#utility.yul\":2677:3389   */\n      iszero\n      tag_91\n      jumpi\n        /* \"#utility.yul\":2793:2797   */\n      dup1\n        /* \"#utility.yul\":2788:2791   */\n      dup7\n        /* \"#utility.yul\":2784:2798   */\n      div\n        /* \"#utility.yul\":2778:2782   */\n      dup2\n        /* \"#utility.yul\":2775:2799   */\n      gt\n        /* \"#utility.yul\":2772:2822   */\n      iszero\n      tag_92\n      jumpi\n        /* \"#utility.yul\":2802:2820   */\n      tag_93\n      tag_51\n      jump\t// in\n    tag_93:\n        /* \"#utility.yul\":2772:2822   */\n    tag_92:\n        /* \"#utility.yul\":2852:2853   */\n      0x01\n        /* \"#utility.yul\":2842:2850   */\n      dup6\n        /* \"#utility.yul\":2838:2854   */\n      and\n        /* \"#utility.yul\":2835:3286   */\n      iszero\n      tag_94\n      jumpi\n        /* \"#utility.yul\":3267:3271   */\n      dup1\n        /* \"#utility.yul\":3260:3265   */\n      dup3\n        /* \"#utility.yul\":3256:3272   */\n      mul\n        /* \"#utility.yul\":3247:3272   */\n      swap2\n      pop\n        /* \"#utility.yul\":2835:3286   */\n    tag_94:\n        /* \"#utility.yul\":3317:3321   */\n      dup1\n        /* \"#utility.yul\":3311:3315   */\n      dup2\n        /* \"#utility.yul\":3307:3322   */\n      mul\n        /* \"#utility.yul\":3299:3322   */\n      swap1\n      pop\n        /* \"#utility.yul\":3347:3379   */\n      tag_95\n        /* \"#utility.yul\":3370:3378   */\n      dup6\n        /* \"#utility.yul\":3347:3379   */\n      tag_53\n      jump\t// in\n    tag_95:\n        /* \"#utility.yul\":3335:3379   */\n      swap5\n      pop\n        /* \"#utility.yul\":2677:3389   */\n      jump(tag_89)\n    tag_91:\n        /* \"#utility.yul\":2547:3395   */\n      swap5\n      pop\n      swap5\n      swap3\n      pop\n      pop\n      pop\n      jump\t// out\n        /* \"#utility.yul\":3401:4474   */\n    tag_55:\n        /* \"#utility.yul\":3455:3460   */\n      0x00\n        /* \"#utility.yul\":3646:3654   */\n      dup3\n        /* \"#utility.yul\":3636:3676   */\n      tag_97\n      jumpi\n        /* \"#utility.yul\":3667:3668   */\n      0x01\n        /* \"#utility.yul\":3658:3668   */\n      swap1\n      pop\n        /* \"#utility.yul\":3669:3674   */\n      jump(tag_96)\n        /* \"#utility.yul\":3636:3676   */\n    tag_97:\n        /* \"#utility.yul\":3695:3699   */\n      dup2\n        /* \"#utility.yul\":3685:3721   */\n      tag_98\n      jumpi\n        /* \"#utility.yul\":3712:3713   */\n      0x00\n        /* \"#utility.yul\":3703:3713   */\n      swap1\n      pop\n        /* \"#utility.yul\":3714:3719   */\n      jump(tag_96)\n        /* \"#utility.yul\":3685:3721   */\n    tag_98:\n        /* \"#utility.yul\":3781:3785   */\n      dup2\n        /* \"#utility.yul\":3829:3830   */\n      0x01\n        /* \"#utility.yul\":3824:3851   */\n      dup2\n      eq\n      tag_100\n      jumpi\n        /* \"#utility.yul\":3865:3866   */\n      0x02\n        /* \"#utility.yul\":3860:4051   */\n      dup2\n      eq\n      tag_101\n      jumpi\n        /* \"#utility.yul\":3774:4051   */\n      jump(tag_99)\n        /* \"#utility.yul\":3824:3851   */\n    tag_100:\n        /* \"#utility.yul\":3842:3843   */\n      0x01\n        /* \"#utility.yul\":3833:3843   */\n      swap2\n      pop\n        /* \"#utility.yul\":3844:3849   */\n      pop\n      jump(tag_96)\n        /* \"#utility.yul\":3860:4051   */\n    tag_101:\n        /* \"#utility.yul\":3905:3908   */\n      0xff\n        /* \"#utility.yul\":3895:3903   */\n      dup5\n        /* \"#utility.yul\":3892:3909   */\n      gt\n        /* \"#utility.yul\":3889:3932   */\n      iszero\n      tag_102\n      jumpi\n        /* \"#utility.yul\":3912:3930   */\n      tag_103\n      tag_51\n      jump\t// in\n    tag_103:\n        /* \"#utility.yul\":3889:3932   */\n    tag_102:\n        /* \"#utility.yul\":3961:3969   */\n      dup4\n        /* \"#utility.yul\":3958:3959   */\n      0x02\n        /* \"#utility.yul\":3954:3970   */\n      exp\n        /* \"#utility.yul\":3945:3970   */\n      swap2\n      pop\n        /* \"#utility.yul\":3996:3999   */\n      dup5\n        /* \"#utility.yul\":3989:3994   */\n      dup3\n        /* \"#utility.yul\":3986:4000   */\n      gt\n        /* \"#utility.yul\":3983:4023   */\n      iszero\n      tag_104\n      jumpi\n        /* \"#utility.yul\":4003:4021   */\n      tag_105\n      tag_51\n      jump\t// in\n    tag_105:\n        /* \"#utility.yul\":3983:4023   */\n    tag_104:\n        /* \"#utility.yul\":4036:4041   */\n      pop\n      jump(tag_96)\n        /* \"#utility.yul\":3774:4051   */\n    tag_99:\n      pop\n        /* \"#utility.yul\":4160:4162   */\n      0x20\n        /* \"#utility.yul\":4150:4158   */\n      dup4\n        /* \"#utility.yul\":4147:4163   */\n      lt\n        /* \"#utility.yul\":4141:4144   */\n      0x0133\n        /* \"#utility.yul\":4135:4139   */\n      dup4\n        /* \"#utility.yul\":4132:4145   */\n      lt\n        /* \"#utility.yul\":4128:4164   */\n      and\n        /* \"#utility.yul\":4110:4112   */\n      0x4e\n        /* \"#utility.yul\":4100:4108   */\n      dup5\n        /* \"#utility.yul\":4097:4113   */\n      lt\n        /* \"#utility.yul\":4092:4094   */\n      0x0b\n        /* \"#utility.yul\":4086:4090   */\n      dup5\n        /* \"#utility.yul\":4083:4095   */\n      lt\n        /* \"#utility.yul\":4079:4114   */\n      and\n        /* \"#utility.yul\":4063:4174   */\n      or\n        /* \"#utility.yul\":4060:4306   */\n      iszero\n      tag_106\n      jumpi\n        /* \"#utility.yul\":4216:4224   */\n      dup3\n        /* \"#utility.yul\":4210:4214   */\n      dup3\n        /* \"#utility.yul\":4206:4225   */\n      exp\n        /* \"#utility.yul\":4197:4225   */\n      swap1\n      pop\n        /* \"#utility.yul\":4251:4254   */\n      dup4\n        /* \"#utility.yul\":4244:4249   */\n      dup2\n        /* \"#utility.yul\":4241:4255   */\n      gt\n        /* \"#utility.yul\":4238:4278   */\n      iszero\n      tag_107\n      jumpi\n        /* \"#utility.yul\":4258:4276   */\n      tag_108\n      tag_51\n      jump\t// in\n    tag_108:\n        /* \"#utility.yul\":4238:4278   */\n    tag_107:\n        /* \"#utility.yul\":4291:4296   */\n      jump(tag_96)\n        /* \"#utility.yul\":4060:4306   */\n    tag_106:\n        /* \"#utility.yul\":4331:4373   */\n      tag_109\n        /* \"#utility.yul\":4369:4372   */\n      dup5\n        /* \"#utility.yul\":4359:4367   */\n      dup5\n        /* \"#utility.yul\":4353:4357   */\n      dup5\n        /* \"#utility.yul\":4350:4351   */\n      0x01\n        /* \"#utility.yul\":4331:4373   */\n      tag_54\n      jump\t// in\n    tag_109:\n        /* \"#utility.yul\":4316:4373   */\n      swap3\n      pop\n      swap1\n      pop\n        /* \"#utility.yul\":4405:4409   */\n      dup2\n        /* \"#utility.yul\":4400:4403   */\n      dup5\n        /* \"#utility.yul\":4396:4410   */\n      div\n        /* \"#utility.yul\":4389:4394   */\n      dup2\n        /* \"#utility.yul\":4386:4411   */\n      gt\n        /* \"#utility.yul\":4383:4434   */\n      iszero\n      tag_110\n      jumpi\n        /* \"#utility.yul\":4414:4432   */\n      tag_111\n      tag_51\n      jump\t// in\n    tag_111:\n        /* \"#utility.yul\":4383:4434   */\n    tag_110:\n        /* \"#utility.yul\":4463:4467   */\n      dup2\n        /* \"#utility.yul\":4456:4461   */\n      dup2\n        /* \"#utility.yul\":4452:4468   */\n      mul\n        /* \"#utility.yul\":4443:4468   */\n      swap1\n      pop\n        /* \"#utility.yul\":3401:4474   */\n    tag_96:\n      swap4\n      swap3\n      pop\n      pop\n      pop\n      jump\t// out\n        /* \"#utility.yul\":4480:4765   */\n    tag_24:\n        /* \"#utility.yul\":4540:4545   */\n      0x00\n        /* \"#utility.yul\":4564:4587   */\n      tag_113\n        /* \"#utility.yul\":4582:4586   */\n      dup3\n        /* \"#utility.yul\":4564:4587   */\n      tag_44\n      jump\t// in\n    tag_113:\n        /* \"#utility.yul\":4556:4587   */\n      swap2\n      pop\n        /* \"#utility.yul\":4608:4635   */\n      tag_114\n        /* \"#utility.yul\":4626:4634   */\n      dup4\n        /* \"#utility.yul\":4608:4635   */\n      tag_44\n      jump\t// in\n    tag_114:\n        /* \"#utility.yul\":4596:4635   */\n      swap3\n      pop\n        /* \"#utility.yul\":4654:4758   */\n      tag_115\n        /* \"#utility.yul\":4691:4757   */\n      0xffffffffffffffffffffffffffffffffffffffffffffffffffffffffffffffff\n        /* \"#utility.yul\":4681:4689   */\n      dup5\n        /* \"#utility.yul\":4675:4679   */\n      dup5\n        /* \"#utility.yul\":4654:4758   */\n      tag_55\n      jump\t// in\n    tag_115:\n        /* \"#utility.yul\":4645:4758   */\n      swap1\n      pop\n        /* \"#utility.yul\":4480:4765   */\n      swap3\n      swap2\n      pop\n      pop\n      jump\t// out\n        /* \"#utility.yul\":4771:4962   */\n    tag_31:\n        /* \"#utility.yul\":4811:4815   */\n      0x00\n        /* \"#utility.yul\":4831:4851   */\n      tag_117\n        /* \"#utility.yul\":4849:4850   */\n      dup3\n        /* \"#utility.yul\":4831:4851   */\n      tag_44\n      jump\t// in\n    tag_117:\n        /* \"#utility.yul\":4826:4851   */\n      swap2\n      pop\n        /* \"#utility.yul\":4865:4885   */\n      tag_118\n        /* \"#utility.yul\":4883:4884   */\n      dup4\n        /* \"#utility.yul\":4865:4885   */\n      tag_44\n      jump\t// in\n    tag_118:\n        /* \"#utility.yul\":4860:4885   */\n      swap3\n      pop\n        /* \"#utility.yul\":4904:4905   */\n      dup3\n        /* \"#utility.yul\":4901:4902   */\n      dup3\n        /* \"#utility.yul\":4898:4906   */\n      lt\n        /* \"#utility.yul\":4895:4929   */\n      iszero\n      tag_119\n      jumpi\n        /* \"#utility.yul\":4909:4927   */\n      tag_120\n      tag_51\n      jump\t// in\n    tag_120:\n        /* \"#utility.yul\":4895:4929   */\n    tag_119:\n        /* \"#utility.yul\":4954:4955   */\n      dup3\n        /* \"#utility.yul\":4951:4952   */\n      dup3\n        /* \"#utility.yul\":4947:4956   */\n      sub\n        /* \"#utility.yul\":4939:4956   */\n      swap1\n      pop\n        /* \"#utility.yul\":4771:4962   */\n      swap3\n      swap2\n      pop\n      pop\n      jump\t// out\n\n    auxdata: 0xa264697066735822122088fba09a573b9ea582015969206bb4c2bcde46cf5d9d4eb7b2990002bb1ee30e64736f6c634300080f0033\n}\n",
				"bytecode": {
					"linkReferences": {},
					"object": "60806040523480156200001157600080fd5b50604051620008c7380380620008c78339818101604052810190620000379190620000c5565b6012600181905550600154600a6200005091906200027a565b816200005d9190620002cb565b6000819055506000600260006101000a81548160ff021916908315150217905550506200032c565b600080fd5b6000819050919050565b6200009f816200008a565b8114620000ab57600080fd5b50565b600081519050620000bf8162000094565b92915050565b600060208284031215620000de57620000dd62000085565b5b6000620000ee84828501620000ae565b91505092915050565b7f4e487b7100000000000000000000000000000000000000000000000000000000600052601160045260246000fd5b60008160011c9050919050565b6000808291508390505b600185111562000185578086048111156200015d576200015c620000f7565b5b60018516156200016d5780820291505b80810290506200017d8562000126565b94506200013d565b94509492505050565b600082620001a0576001905062000273565b81620001b0576000905062000273565b8160018114620001c95760028114620001d4576200020a565b600191505062000273565b60ff841115620001e957620001e8620000f7565b5b8360020a915084821115620002035762000202620000f7565b5b5062000273565b5060208310610133831016604e8410600b8410161715620002445782820a9050838111156200023e576200023d620000f7565b5b62000273565b62000253848484600162000133565b925090508184048111156200026d576200026c620000f7565b5b81810290505b9392505050565b600062000287826200008a565b915062000294836200008a565b9250620002c37fffffffffffffffffffffffffffffffffffffffffffffffffffffffffffffffff84846200018e565b905092915050565b6000620002d8826200008a565b9150620002e5836200008a565b9250817fffffffffffffffffffffffffffffffffffffffffffffffffffffffffffffffff0483118215151615620003215762000320620000f7565b5b828202905092915050565b61058b806200033c6000396000f3fe608060405234801561001057600080fd5b50600436106100415760003560e01c80632c4e722e146100465780634e72d15f14610064578063ea0c9fa11461006e575b600080fd5b61004e61008a565b60405161005b919061022e565b60405180910390f35b61006c610090565b005b6100886004803603810190610083919061027a565b6100b3565b005b60005481565b600860076000546100a191906102e9565b6100ab9190610372565b600081905550565b600260009054906101000a900460ff16156100cd57600080fd5b6000600154600a6100de91906104d6565b836100e991906102e9565b90506000600154600a6100fc91906104d6565b8361010791906102e9565b9050600083836101179190610372565b90506000671158e460913d000090508181116101555781816101399190610521565b6000808282546101499190610521565b925050819055506101f2565b600060648761016491906102e9565b607d60005461017391906102e9565b61017d9190610372565b90506000606460508761019091906102e9565b61019a9190610372565b9050600081866101aa9190610521565b90506000600154600a6101bd91906104d6565b82856101c991906102e9565b6101d39190610372565b9050806000808282546101e69190610521565b92505081905550505050505b6001600260006101000a81548160ff021916908315150217905550505050505050565b6000819050919050565b61022881610215565b82525050565b6000602082019050610243600083018461021f565b92915050565b600080fd5b61025781610215565b811461026257600080fd5b50565b6000813590506102748161024e565b92915050565b6000806040838503121561029157610290610249565b5b600061029f85828601610265565b92505060206102b085828601610265565b9150509250929050565b7f4e487b7100000000000000000000000000000000000000000000000000000000600052601160045260246000fd5b60006102f482610215565b91506102ff83610215565b9250817fffffffffffffffffffffffffffffffffffffffffffffffffffffffffffffffff0483118215151615610338576103376102ba565b5b828202905092915050565b7f4e487b7100000000000000000000000000000000000000000000000000000000600052601260045260246000fd5b600061037d82610215565b915061038883610215565b92508261039857610397610343565b5b828204905092915050565b60008160011c9050919050565b6000808291508390505b60018511156103fa578086048111156103d6576103d56102ba565b5b60018516156103e55780820291505b80810290506103f3856103a3565b94506103ba565b94509492505050565b60008261041357600190506104cf565b8161042157600090506104cf565b8160018114610437576002811461044157610470565b60019150506104cf565b60ff841115610453576104526102ba565b5b8360020a91508482111561046a576104696102ba565b5b506104cf565b5060208310610133831016604e8410600b84101617156104a55782820a9050838111156104a05761049f6102ba565b5b6104cf565b6104b284848460016103b0565b925090508184048111156104c9576104c86102ba565b5b81810290505b9392505050565b60006104e182610215565b91506104ec83610215565b92506105197fffffffffffffffffffffffffffffffffffffffffffffffffffffffffffffffff8484610403565b905092915050565b600061052c82610215565b915061053783610215565b92508282101561054a576105496102ba565b5b82820390509291505056fea264697066735822122088fba09a573b9ea582015969206bb4c2bcde46cf5d9d4eb7b2990002bb1ee30e64736f6c634300080f0033",
					"opcodes": "PUSH1 0x80 PUSH1 0x40 MSTORE CALLVALUE DUP1 ISZERO PUSH3 0x11 JUMPI PUSH1 0x0 DUP1 REVERT JUMPDEST POP PUSH1 0x40 MLOAD PUSH3 0x8C7 CODESIZE SUB DUP1 PUSH3 0x8C7 DUP4 CODECOPY DUP2 DUP2 ADD PUSH1 0x40 MSTORE DUP2 ADD SWAP1 PUSH3 0x37 SWAP2 SWAP1 PUSH3 0xC5 JUMP JUMPDEST PUSH1 0x12 PUSH1 0x1 DUP2 SWAP1 SSTORE POP PUSH1 0x1 SLOAD PUSH1 0xA PUSH3 0x50 SWAP2 SWAP1 PUSH3 0x27A JUMP JUMPDEST DUP2 PUSH3 0x5D SWAP2 SWAP1 PUSH3 0x2CB JUMP JUMPDEST PUSH1 0x0 DUP2 SWAP1 SSTORE POP PUSH1 0x0 PUSH1 0x2 PUSH1 0x0 PUSH2 0x100 EXP DUP2 SLOAD DUP2 PUSH1 0xFF MUL NOT AND SWAP1 DUP4 ISZERO ISZERO MUL OR SWAP1 SSTORE POP POP PUSH3 0x32C JUMP JUMPDEST PUSH1 0x0 DUP1 REVERT JUMPDEST PUSH1 0x0 DUP2 SWAP1 POP SWAP2 SWAP1 POP JUMP JUMPDEST PUSH3 0x9F DUP2 PUSH3 0x8A JUMP JUMPDEST DUP2 EQ PUSH3 0xAB JUMPI PUSH1 0x0 DUP1 REVERT JUMPDEST POP JUMP JUMPDEST PUSH1 0x0 DUP2 MLOAD SWAP1 POP PUSH3 0xBF DUP2 PUSH3 0x94 JUMP JUMPDEST SWAP3 SWAP2 POP POP JUMP JUMPDEST PUSH1 0x0 PUSH1 0x20 DUP3 DUP5 SUB SLT ISZERO PUSH3 0xDE JUMPI PUSH3 0xDD PUSH3 0x85 JUMP JUMPDEST JUMPDEST PUSH1 0x0 PUSH3 0xEE DUP5 DUP3 DUP6 ADD PUSH3 0xAE JUMP JUMPDEST SWAP2 POP POP SWAP3 SWAP2 POP POP JUMP JUMPDEST PUSH32 0x4E487B7100000000000000000000000000000000000000000000000000000000 PUSH1 0x0 MSTORE PUSH1 0x11 PUSH1 0x4 MSTORE PUSH1 0x24 PUSH1 0x0 REVERT JUMPDEST PUSH1 0x0 DUP2 PUSH1 0x1 SHR SWAP1 POP SWAP2 SWAP1 POP JUMP JUMPDEST PUSH1 0x0 DUP1 DUP3 SWAP2 POP DUP4 SWAP1 POP JUMPDEST PUSH1 0x1 DUP6 GT ISZERO PUSH3 0x185 JUMPI DUP1 DUP7 DIV DUP2 GT ISZERO PUSH3 0x15D JUMPI PUSH3 0x15C PUSH3 0xF7 JUMP JUMPDEST JUMPDEST PUSH1 0x1 DUP6 AND ISZERO PUSH3 0x16D JUMPI DUP1 DUP3 MUL SWAP2 POP JUMPDEST DUP1 DUP2 MUL SWAP1 POP PUSH3 0x17D DUP6 PUSH3 0x126 JUMP JUMPDEST SWAP5 POP PUSH3 0x13D JUMP JUMPDEST SWAP5 POP SWAP5 SWAP3 POP POP POP JUMP JUMPDEST PUSH1 0x0 DUP3 PUSH3 0x1A0 JUMPI PUSH1 0x1 SWAP1 POP PUSH3 0x273 JUMP JUMPDEST DUP2 PUSH3 0x1B0 JUMPI PUSH1 0x0 SWAP1 POP PUSH3 0x273 JUMP JUMPDEST DUP2 PUSH1 0x1 DUP2 EQ PUSH3 0x1C9 JUMPI PUSH1 0x2 DUP2 EQ PUSH3 0x1D4 JUMPI PUSH3 0x20A JUMP JUMPDEST PUSH1 0x1 SWAP2 POP POP PUSH3 0x273 JUMP JUMPDEST PUSH1 0xFF DUP5 GT ISZERO PUSH3 0x1E9 JUMPI PUSH3 0x1E8 PUSH3 0xF7 JUMP JUMPDEST JUMPDEST DUP4 PUSH1 0x2 EXP SWAP2 POP DUP5 DUP3 GT ISZERO PUSH3 0x203 JUMPI PUSH3 0x202 PUSH3 0xF7 JUMP JUMPDEST JUMPDEST POP PUSH3 0x273 JUMP JUMPDEST POP PUSH1 0x20 DUP4 LT PUSH2 0x133 DUP4 LT AND PUSH1 0x4E DUP5 LT PUSH1 0xB DUP5 LT AND OR ISZERO PUSH3 0x244 JUMPI DUP3 DUP3 EXP SWAP1 POP DUP4 DUP2 GT ISZERO PUSH3 0x23E JUMPI PUSH3 0x23D PUSH3 0xF7 JUMP JUMPDEST JUMPDEST PUSH3 0x273 JUMP JUMPDEST PUSH3 0x253 DUP5 DUP5 DUP5 PUSH1 0x1 PUSH3 0x133 JUMP JUMPDEST SWAP3 POP SWAP1 POP DUP2 DUP5 DIV DUP2 GT ISZERO PUSH3 0x26D JUMPI PUSH3 0x26C PUSH3 0xF7 JUMP JUMPDEST JUMPDEST DUP2 DUP2 MUL SWAP1 POP JUMPDEST SWAP4 SWAP3 POP POP POP JUMP JUMPDEST PUSH1 0x0 PUSH3 0x287 DUP3 PUSH3 0x8A JUMP JUMPDEST SWAP2 POP PUSH3 0x294 DUP4 PUSH3 0x8A JUMP JUMPDEST SWAP3 POP PUSH3 0x2C3 PUSH32 0xFFFFFFFFFFFFFFFFFFFFFFFFFFFFFFFFFFFFFFFFFFFFFFFFFFFFFFFFFFFFFFFF DUP5 DUP5 PUSH3 0x18E JUMP JUMPDEST SWAP1 POP SWAP3 SWAP2 POP POP JUMP JUMPDEST PUSH1 0x0 PUSH3 0x2D8 DUP3 PUSH3 0x8A JUMP JUMPDEST SWAP2 POP PUSH3 0x2E5 DUP4 PUSH3 0x8A JUMP JUMPDEST SWAP3 POP DUP2 PUSH32 0xFFFFFFFFFFFFFFFFFFFFFFFFFFFFFFFFFFFFFFFFFFFFFFFFFFFFFFFFFFFFFFFF DIV DUP4 GT DUP3 ISZERO ISZERO AND ISZERO PUSH3 0x321 JUMPI PUSH3 0x320 PUSH3 0xF7 JUMP JUMPDEST JUMPDEST DUP3 DUP3 MUL SWAP1 POP SWAP3 SWAP2 POP POP JUMP JUMPDEST PUSH2 0x58B DUP1 PUSH3 0x33C PUSH1 0x0 CODECOPY PUSH1 0x0 RETURN INVALID PUSH1 0x80 PUSH1 0x40 MSTORE CALLVALUE DUP1 ISZERO PUSH2 0x10 JUMPI PUSH1 0x0 DUP1 REVERT JUMPDEST POP PUSH1 0x4 CALLDATASIZE LT PUSH2 0x41 JUMPI PUSH1 0x0 CALLDATALOAD PUSH1 0xE0 SHR DUP1 PUSH4 0x2C4E722E EQ PUSH2 0x46 JUMPI DUP1 PUSH4 0x4E72D15F EQ PUSH2 0x64 JUMPI DUP1 PUSH4 0xEA0C9FA1 EQ PUSH2 0x6E JUMPI JUMPDEST PUSH1 0x0 DUP1 REVERT JUMPDEST PUSH2 0x4E PUSH2 0x8A JUMP JUMPDEST PUSH1 0x40 MLOAD PUSH2 0x5B SWAP2 SWAP1 PUSH2 0x22E JUMP JUMPDEST PUSH1 0x40 MLOAD DUP1 SWAP2 SUB SWAP1 RETURN JUMPDEST PUSH2 0x6C PUSH2 0x90 JUMP JUMPDEST STOP JUMPDEST PUSH2 0x88 PUSH1 0x4 DUP1 CALLDATASIZE SUB DUP2 ADD SWAP1 PUSH2 0x83 SWAP2 SWAP1 PUSH2 0x27A JUMP JUMPDEST PUSH2 0xB3 JUMP JUMPDEST STOP JUMPDEST PUSH1 0x0 SLOAD DUP2 JUMP JUMPDEST PUSH1 0x8 PUSH1 0x7 PUSH1 0x0 SLOAD PUSH2 0xA1 SWAP2 SWAP1 PUSH2 0x2E9 JUMP JUMPDEST PUSH2 0xAB SWAP2 SWAP1 PUSH2 0x372 JUMP JUMPDEST PUSH1 0x0 DUP2 SWAP1 SSTORE POP JUMP JUMPDEST PUSH1 0x2 PUSH1 0x0 SWAP1 SLOAD SWAP1 PUSH2 0x100 EXP SWAP1 DIV PUSH1 0xFF AND ISZERO PUSH2 0xCD JUMPI PUSH1 0x0 DUP1 REVERT JUMPDEST PUSH1 0x0 PUSH1 0x1 SLOAD PUSH1 0xA PUSH2 0xDE SWAP2 SWAP1 PUSH2 0x4D6 JUMP JUMPDEST DUP4 PUSH2 0xE9 SWAP2 SWAP1 PUSH2 0x2E9 JUMP JUMPDEST SWAP1 POP PUSH1 0x0 PUSH1 0x1 SLOAD PUSH1 0xA PUSH2 0xFC SWAP2 SWAP1 PUSH2 0x4D6 JUMP JUMPDEST DUP4 PUSH2 0x107 SWAP2 SWAP1 PUSH2 0x2E9 JUMP JUMPDEST SWAP1 POP PUSH1 0x0 DUP4 DUP4 PUSH2 0x117 SWAP2 SWAP1 PUSH2 0x372 JUMP JUMPDEST SWAP1 POP PUSH1 0x0 PUSH8 0x1158E460913D0000 SWAP1 POP DUP2 DUP2 GT PUSH2 0x155 JUMPI DUP2 DUP2 PUSH2 0x139 SWAP2 SWAP1 PUSH2 0x521 JUMP JUMPDEST PUSH1 0x0 DUP1 DUP3 DUP3 SLOAD PUSH2 0x149 SWAP2 SWAP1 PUSH2 0x521 JUMP JUMPDEST SWAP3 POP POP DUP2 SWAP1 SSTORE POP PUSH2 0x1F2 JUMP JUMPDEST PUSH1 0x0 PUSH1 0x64 DUP8 PUSH2 0x164 SWAP2 SWAP1 PUSH2 0x2E9 JUMP JUMPDEST PUSH1 0x7D PUSH1 0x0 SLOAD PUSH2 0x173 SWAP2 SWAP1 PUSH2 0x2E9 JUMP JUMPDEST PUSH2 0x17D SWAP2 SWAP1 PUSH2 0x372 JUMP JUMPDEST SWAP1 POP PUSH1 0x0 PUSH1 0x64 PUSH1 0x50 DUP8 PUSH2 0x190 SWAP2 SWAP1 PUSH2 0x2E9 JUMP JUMPDEST PUSH2 0x19A SWAP2 SWAP1 PUSH2 0x372 JUMP JUMPDEST SWAP1 POP PUSH1 0x0 DUP2 DUP7 PUSH2 0x1AA SWAP2 SWAP1 PUSH2 0x521 JUMP JUMPDEST SWAP1 POP PUSH1 0x0 PUSH1 0x1 SLOAD PUSH1 0xA PUSH2 0x1BD SWAP2 SWAP1 PUSH2 0x4D6 JUMP JUMPDEST DUP3 DUP6 PUSH2 0x1C9 SWAP2 SWAP1 PUSH2 0x2E9 JUMP JUMPDEST PUSH2 0x1D3 SWAP2 SWAP1 PUSH2 0x372 JUMP JUMPDEST SWAP1 POP DUP1 PUSH1 0x0 DUP1 DUP3 DUP3 SLOAD PUSH2 0x1E6 SWAP2 SWAP1 PUSH2 0x521 JUMP JUMPDEST SWAP3 POP POP DUP2 SWAP1 SSTORE POP POP POP POP POP JUMPDEST PUSH1 0x1 PUSH1 0x2 PUSH1 0x0 PUSH2 0x100 EXP DUP2 SLOAD DUP2 PUSH1 0xFF MUL NOT AND SWAP1 DUP4 ISZERO ISZERO MUL OR SWAP1 SSTORE POP POP POP POP POP POP POP JUMP JUMPDEST PUSH1 0x0 DUP2 SWAP1 POP SWAP2 SWAP1 POP JUMP JUMPDEST PUSH2 0x228 DUP2 PUSH2 0x215 JUMP JUMPDEST DUP3 MSTORE POP POP JUMP JUMPDEST PUSH1 0x0 PUSH1 0x20 DUP3 ADD SWAP1 POP PUSH2 0x243 PUSH1 0x0 DUP4 ADD DUP5 PUSH2 0x21F JUMP JUMPDEST SWAP3 SWAP2 POP POP JUMP JUMPDEST PUSH1 0x0 DUP1 REVERT JUMPDEST PUSH2 0x257 DUP2 PUSH2 0x215 JUMP JUMPDEST DUP2 EQ PUSH2 0x262 JUMPI PUSH1 0x0 DUP1 REVERT JUMPDEST POP JUMP JUMPDEST PUSH1 0x0 DUP2 CALLDATALOAD SWAP1 POP PUSH2 0x274 DUP2 PUSH2 0x24E JUMP JUMPDEST SWAP3 SWAP2 POP POP JUMP JUMPDEST PUSH1 0x0 DUP1 PUSH1 0x40 DUP4 DUP6 SUB SLT ISZERO PUSH2 0x291 JUMPI PUSH2 0x290 PUSH2 0x249 JUMP JUMPDEST JUMPDEST PUSH1 0x0 PUSH2 0x29F DUP6 DUP3 DUP7 ADD PUSH2 0x265 JUMP JUMPDEST SWAP3 POP POP PUSH1 0x20 PUSH2 0x2B0 DUP6 DUP3 DUP7 ADD PUSH2 0x265 JUMP JUMPDEST SWAP2 POP POP SWAP3 POP SWAP3 SWAP1 POP JUMP JUMPDEST PUSH32 0x4E487B7100000000000000000000000000000000000000000000000000000000 PUSH1 0x0 MSTORE PUSH1 0x11 PUSH1 0x4 MSTORE PUSH1 0x24 PUSH1 0x0 REVERT JUMPDEST PUSH1 0x0 PUSH2 0x2F4 DUP3 PUSH2 0x215 JUMP JUMPDEST SWAP2 POP PUSH2 0x2FF DUP4 PUSH2 0x215 JUMP JUMPDEST SWAP3 POP DUP2 PUSH32 0xFFFFFFFFFFFFFFFFFFFFFFFFFFFFFFFFFFFFFFFFFFFFFFFFFFFFFFFFFFFFFFFF DIV DUP4 GT DUP3 ISZERO ISZERO AND ISZERO PUSH2 0x338 JUMPI PUSH2 0x337 PUSH2 0x2BA JUMP JUMPDEST JUMPDEST DUP3 DUP3 MUL SWAP1 POP SWAP3 SWAP2 POP POP JUMP JUMPDEST PUSH32 0x4E487B7100000000000000000000000000000000000000000000000000000000 PUSH1 0x0 MSTORE PUSH1 0x12 PUSH1 0x4 MSTORE PUSH1 0x24 PUSH1 0x0 REVERT JUMPDEST PUSH1 0x0 PUSH2 0x37D DUP3 PUSH2 0x215 JUMP JUMPDEST SWAP2 POP PUSH2 0x388 DUP4 PUSH2 0x215 JUMP JUMPDEST SWAP3 POP DUP3 PUSH2 0x398 JUMPI PUSH2 0x397 PUSH2 0x343 JUMP JUMPDEST JUMPDEST DUP3 DUP3 DIV SWAP1 POP SWAP3 SWAP2 POP POP JUMP JUMPDEST PUSH1 0x0 DUP2 PUSH1 0x1 SHR SWAP1 POP SWAP2 SWAP1 POP JUMP JUMPDEST PUSH1 0x0 DUP1 DUP3 SWAP2 POP DUP4 SWAP1 POP JUMPDEST PUSH1 0x1 DUP6 GT ISZERO PUSH2 0x3FA JUMPI DUP1 DUP7 DIV DUP2 GT ISZERO PUSH2 0x3D6 JUMPI PUSH2 0x3D5 PUSH2 0x2BA JUMP JUMPDEST JUMPDEST PUSH1 0x1 DUP6 AND ISZERO PUSH2 0x3E5 JUMPI DUP1 DUP3 MUL SWAP2 POP JUMPDEST DUP1 DUP2 MUL SWAP1 POP PUSH2 0x3F3 DUP6 PUSH2 0x3A3 JUMP JUMPDEST SWAP5 POP PUSH2 0x3BA JUMP JUMPDEST SWAP5 POP SWAP5 SWAP3 POP POP POP JUMP JUMPDEST PUSH1 0x0 DUP3 PUSH2 0x413 JUMPI PUSH1 0x1 SWAP1 POP PUSH2 0x4CF JUMP JUMPDEST DUP2 PUSH2 0x421 JUMPI PUSH1 0x0 SWAP1 POP PUSH2 0x4CF JUMP JUMPDEST DUP2 PUSH1 0x1 DUP2 EQ PUSH2 0x437 JUMPI PUSH1 0x2 DUP2 EQ PUSH2 0x441 JUMPI PUSH2 0x470 JUMP JUMPDEST PUSH1 0x1 SWAP2 POP POP PUSH2 0x4CF JUMP JUMPDEST PUSH1 0xFF DUP5 GT ISZERO PUSH2 0x453 JUMPI PUSH2 0x452 PUSH2 0x2BA JUMP JUMPDEST JUMPDEST DUP4 PUSH1 0x2 EXP SWAP2 POP DUP5 DUP3 GT ISZERO PUSH2 0x46A JUMPI PUSH2 0x469 PUSH2 0x2BA JUMP JUMPDEST JUMPDEST POP PUSH2 0x4CF JUMP JUMPDEST POP PUSH1 0x20 DUP4 LT PUSH2 0x133 DUP4 LT AND PUSH1 0x4E DUP5 LT PUSH1 0xB DUP5 LT AND OR ISZERO PUSH2 0x4A5 JUMPI DUP3 DUP3 EXP SWAP1 POP DUP4 DUP2 GT ISZERO PUSH2 0x4A0 JUMPI PUSH2 0x49F PUSH2 0x2BA JUMP JUMPDEST JUMPDEST PUSH2 0x4CF JUMP JUMPDEST PUSH2 0x4B2 DUP5 DUP5 DUP5 PUSH1 0x1 PUSH2 0x3B0 JUMP JUMPDEST SWAP3 POP SWAP1 POP DUP2 DUP5 DIV DUP2 GT ISZERO PUSH2 0x4C9 JUMPI PUSH2 0x4C8 PUSH2 0x2BA JUMP JUMPDEST JUMPDEST DUP2 DUP2 MUL SWAP1 POP JUMPDEST SWAP4 SWAP3 POP POP POP JUMP JUMPDEST PUSH1 0x0 PUSH2 0x4E1 DUP3 PUSH2 0x215 JUMP JUMPDEST SWAP2 POP PUSH2 0x4EC DUP4 PUSH2 0x215 JUMP JUMPDEST SWAP3 POP PUSH2 0x519 PUSH32 0xFFFFFFFFFFFFFFFFFFFFFFFFFFFFFFFFFFFFFFFFFFFFFFFFFFFFFFFFFFFFFFFF DUP5 DUP5 PUSH2 0x403 JUMP JUMPDEST SWAP1 POP SWAP3 SWAP2 POP POP JUMP JUMPDEST PUSH1 0x0 PUSH2 0x52C DUP3 PUSH2 0x215 JUMP JUMPDEST SWAP2 POP PUSH2 0x537 DUP4 PUSH2 0x215 JUMP JUMPDEST SWAP3 POP DUP3 DUP3 LT ISZERO PUSH2 0x54A JUMPI PUSH2 0x549 PUSH2 0x2BA JUMP JUMPDEST JUMPDEST DUP3 DUP3 SUB SWAP1 POP SWAP3 SWAP2 POP POP JUMP INVALID LOG2 PUSH5 0x6970667358 0x22 SLT KECCAK256 DUP9 0xFB LOG0 SWAP11 JUMPI EXTCODESIZE SWAP15 0xA5 DUP3 ADD MSIZE PUSH10 0x206BB4C2BCDE46CF5D9D 0x4E 0xB7 0xB2 SWAP10 STOP MUL 0xBB 0x1E 0xE3 0xE PUSH5 0x736F6C6343 STOP ADDMOD 0xF STOP CALLER "
				},
				"gasEstimates": {
					"creation": {
						"codeDepositCost": "283800",
						"executionCost": "infinite",
						"totalCost": "infinite"
					},
					"external": {
						"collInterest(uint256,uint256)": "infinite",
						"rate()": "2407",
						"reduction()": "infinite"
					}
				},
				"methodIdentifiers": {
					"collInterest(uint256,uint256)": "ea0c9fa1",
					"rate()": "2c4e722e",
					"reduction()": "4e72d15f"
				}
			},
			"storageLayout": {
				"storage": [
					{
						"astId": 3,
						"contract": "PFG/Interest.sol:Interest",
						"label": "rate",
						"offset": 0,
						"slot": "0",
						"type": "t_uint256"
					},
					{
						"astId": 5,
						"contract": "PFG/Interest.sol:Interest",
						"label": "dec",
						"offset": 0,
						"slot": "1",
						"type": "t_uint256"
					},
					{
						"astId": 7,
						"contract": "PFG/Interest.sol:Interest",
						"label": "executed",
						"offset": 0,
						"slot": "2",
						"type": "t_bool"
					}
				],
				"types": {
					"t_bool": {
						"encoding": "inplace",
						"label": "bool",
						"numberOfBytes": "1"
					},
					"t_uint256": {
						"encoding": "inplace",
						"label": "uint256",
						"numberOfBytes": "32"
					}
				}
			},
			"userdoc": {
				"kind": "user",
				"methods": {},
				"version": 1
			}
		}
	}
}