{
	"PFG/Verificador.sol": {
		"Verificacio": {
			"abi": [
				{
					"inputs": [
						{
							"internalType": "string",
							"name": "_filename",
							"type": "string"
						}
					],
					"stateMutability": "nonpayable",
					"type": "constructor"
				},
				{
					"anonymous": false,
					"inputs": [
						{
							"indexed": true,
							"internalType": "address",
							"name": "denegador",
							"type": "address"
						},
						{
							"indexed": false,
							"internalType": "string",
							"name": "asset",
							"type": "string"
						}
					],
					"name": "Denegation",
					"type": "event"
				},
				{
					"anonymous": false,
					"inputs": [
						{
							"indexed": true,
							"internalType": "address",
							"name": "propietari",
							"type": "address"
						},
						{
							"indexed": false,
							"internalType": "string",
							"name": "asset",
							"type": "string"
						}
					],
					"name": "OwnerSet",
					"type": "event"
				},
				{
					"anonymous": false,
					"inputs": [
						{
							"indexed": true,
							"internalType": "address",
							"name": "validador",
							"type": "address"
						},
						{
							"indexed": false,
							"internalType": "string",
							"name": "asset",
							"type": "string"
						}
					],
					"name": "Validation",
					"type": "event"
				},
				{
					"inputs": [],
					"name": "denegarDocument",
					"outputs": [],
					"stateMutability": "nonpayable",
					"type": "function"
				},
				{
					"inputs": [],
					"name": "getFilename",
					"outputs": [
						{
							"internalType": "string",
							"name": "",
							"type": "string"
						}
					],
					"stateMutability": "view",
					"type": "function"
				},
				{
					"inputs": [],
					"name": "getNumberOfDenegations",
					"outputs": [
						{
							"internalType": "uint256",
							"name": "",
							"type": "uint256"
						}
					],
					"stateMutability": "view",
					"type": "function"
				},
				{
					"inputs": [],
					"name": "getNumberOfValidations",
					"outputs": [
						{
							"internalType": "uint256",
							"name": "",
							"type": "uint256"
						}
					],
					"stateMutability": "view",
					"type": "function"
				},
				{
					"inputs": [],
					"name": "getOwner",
					"outputs": [
						{
							"internalType": "address",
							"name": "",
							"type": "address"
						}
					],
					"stateMutability": "view",
					"type": "function"
				},
				{
					"inputs": [
						{
							"internalType": "address",
							"name": "_user",
							"type": "address"
						}
					],
					"name": "haDenegat",
					"outputs": [
						{
							"internalType": "bool",
							"name": "",
							"type": "bool"
						}
					],
					"stateMutability": "view",
					"type": "function"
				},
				{
					"inputs": [
						{
							"internalType": "address",
							"name": "_user",
							"type": "address"
						}
					],
					"name": "haValidat",
					"outputs": [
						{
							"internalType": "bool",
							"name": "",
							"type": "bool"
						}
					],
					"stateMutability": "view",
					"type": "function"
				},
				{
					"inputs": [],
					"name": "validarDocument",
					"outputs": [],
					"stateMutability": "nonpayable",
					"type": "function"
				}
			],
			"devdoc": {
				"kind": "dev",
				"methods": {},
				"version": 1
			},
			"evm": {
				"assembly": "    /* \"PFG/Verificador.sol\":74:2579  contract Verificacio{\r... */\n  mstore(0x40, 0x80)\n    /* \"PFG/Verificador.sol\":749:907  constructor(string memory _filename) {\r... */\n  callvalue\n  dup1\n  iszero\n  tag_1\n  jumpi\n  0x00\n  dup1\n  revert\ntag_1:\n  pop\n  mload(0x40)\n  sub(codesize, bytecodeSize)\n  dup1\n  bytecodeSize\n  dup4\n  codecopy\n  dup2\n  dup2\n  add\n  0x40\n  mstore\n  dup2\n  add\n  swap1\n  tag_2\n  swap2\n  swap1\n  tag_3\n  jump\t// in\ntag_2:\n    /* \"PFG/Verificador.sol\":810:820  msg.sender */\n  caller\n    /* \"PFG/Verificador.sol\":797:807  propietari */\n  0x00\n  dup1\n    /* \"PFG/Verificador.sol\":797:820  propietari = msg.sender */\n  0x0100\n  exp\n  dup2\n  sload\n  dup2\n  0xffffffffffffffffffffffffffffffffffffffff\n  mul\n  not\n  and\n  swap1\n  dup4\n  0xffffffffffffffffffffffffffffffffffffffff\n  and\n  mul\n  or\n  swap1\n  sstore\n  pop\n    /* \"PFG/Verificador.sol\":842:851  _filename */\n  dup1\n    /* \"PFG/Verificador.sol\":831:839  filename */\n  0x01\n    /* \"PFG/Verificador.sol\":831:851  filename = _filename */\n  swap1\n  dup1\n  mload\n  swap1\n  0x20\n  add\n  swap1\n  tag_6\n  swap3\n  swap2\n  swap1\n  tag_7\n  jump\t// in\ntag_6:\n  pop\n    /* \"PFG/Verificador.sol\":878:888  propietari */\n  0x00\n  dup1\n  sload\n  swap1\n  0x0100\n  exp\n  swap1\n  div\n  0xffffffffffffffffffffffffffffffffffffffff\n  and\n    /* \"PFG/Verificador.sol\":869:899  OwnerSet(propietari, filename) */\n  0xffffffffffffffffffffffffffffffffffffffff\n  and\n  0x3d6aba6def46bd8784b0b6505c24d0aa59cd9316e6c5db593d3d8470797d7a3e\n    /* \"PFG/Verificador.sol\":890:898  filename */\n  0x01\n    /* \"PFG/Verificador.sol\":869:899  OwnerSet(propietari, filename) */\n  mload(0x40)\n  tag_8\n  swap2\n  swap1\n  tag_9\n  jump\t// in\ntag_8:\n  mload(0x40)\n  dup1\n  swap2\n  sub\n  swap1\n  log2\n    /* \"PFG/Verificador.sol\":749:907  constructor(string memory _filename) {\r... */\n  pop\n    /* \"PFG/Verificador.sol\":74:2579  contract Verificacio{\r... */\n  jump(tag_10)\ntag_7:\n  dup3\n  dup1\n  sload\n  tag_11\n  swap1\n  tag_12\n  jump\t// in\ntag_11:\n  swap1\n  0x00\n  mstore\n  keccak256(0x00, 0x20)\n  swap1\n  0x1f\n  add\n  0x20\n  swap1\n  div\n  dup2\n  add\n  swap3\n  dup3\n  tag_14\n  jumpi\n  0x00\n  dup6\n  sstore\n  jump(tag_13)\ntag_14:\n  dup3\n  0x1f\n  lt\n  tag_15\n  jumpi\n  dup1\n  mload\n  not(0xff)\n  and\n  dup4\n  dup1\n  add\n  or\n  dup6\n  sstore\n  jump(tag_13)\ntag_15:\n  dup3\n  dup1\n  add\n  0x01\n  add\n  dup6\n  sstore\n  dup3\n  iszero\n  tag_13\n  jumpi\n  swap2\n  dup3\n  add\ntag_16:\n  dup3\n  dup2\n  gt\n  iszero\n  tag_17\n  jumpi\n  dup3\n  mload\n  dup3\n  sstore\n  swap2\n  0x20\n  add\n  swap2\n  swap1\n  0x01\n  add\n  swap1\n  jump(tag_16)\ntag_17:\ntag_13:\n  pop\n  swap1\n  pop\n  tag_18\n  swap2\n  swap1\n  tag_19\n  jump\t// in\ntag_18:\n  pop\n  swap1\n  jump\t// out\ntag_19:\ntag_20:\n  dup1\n  dup3\n  gt\n  iszero\n  tag_21\n  jumpi\n  0x00\n  dup2\n  0x00\n  swap1\n  sstore\n  pop\n  0x01\n  add\n  jump(tag_20)\ntag_21:\n  pop\n  swap1\n  jump\t// out\n    /* \"#utility.yul\":7:428   */\ntag_23:\n    /* \"#utility.yul\":96:101   */\n  0x00\n    /* \"#utility.yul\":121:187   */\n  tag_25\n    /* \"#utility.yul\":137:186   */\n  tag_26\n    /* \"#utility.yul\":179:185   */\n  dup5\n    /* \"#utility.yul\":137:186   */\n  tag_27\n  jump\t// in\ntag_26:\n    /* \"#utility.yul\":121:187   */\n  tag_28\n  jump\t// in\ntag_25:\n    /* \"#utility.yul\":112:187   */\n  swap1\n  pop\n    /* \"#utility.yul\":210:216   */\n  dup3\n    /* \"#utility.yul\":203:208   */\n  dup2\n    /* \"#utility.yul\":196:217   */\n  mstore\n    /* \"#utility.yul\":248:252   */\n  0x20\n    /* \"#utility.yul\":241:246   */\n  dup2\n    /* \"#utility.yul\":237:253   */\n  add\n    /* \"#utility.yul\":286:289   */\n  dup5\n    /* \"#utility.yul\":277:283   */\n  dup5\n    /* \"#utility.yul\":272:275   */\n  dup5\n    /* \"#utility.yul\":268:284   */\n  add\n    /* \"#utility.yul\":265:290   */\n  gt\n    /* \"#utility.yul\":262:374   */\n  iszero\n  tag_29\n  jumpi\n    /* \"#utility.yul\":293:372   */\n  tag_30\n  tag_31\n  jump\t// in\ntag_30:\n    /* \"#utility.yul\":262:374   */\ntag_29:\n    /* \"#utility.yul\":383:422   */\n  tag_32\n    /* \"#utility.yul\":415:421   */\n  dup5\n    /* \"#utility.yul\":410:413   */\n  dup3\n    /* \"#utility.yul\":405:408   */\n  dup6\n    /* \"#utility.yul\":383:422   */\n  tag_33\n  jump\t// in\ntag_32:\n    /* \"#utility.yul\":102:428   */\n  pop\n    /* \"#utility.yul\":7:428   */\n  swap4\n  swap3\n  pop\n  pop\n  pop\n  jump\t// out\n    /* \"#utility.yul\":448:803   */\ntag_34:\n    /* \"#utility.yul\":515:520   */\n  0x00\n    /* \"#utility.yul\":564:567   */\n  dup3\n    /* \"#utility.yul\":557:561   */\n  0x1f\n    /* \"#utility.yul\":549:555   */\n  dup4\n    /* \"#utility.yul\":545:562   */\n  add\n    /* \"#utility.yul\":541:568   */\n  slt\n    /* \"#utility.yul\":531:653   */\n  tag_36\n  jumpi\n    /* \"#utility.yul\":572:651   */\n  tag_37\n  tag_38\n  jump\t// in\ntag_37:\n    /* \"#utility.yul\":531:653   */\ntag_36:\n    /* \"#utility.yul\":682:688   */\n  dup2\n    /* \"#utility.yul\":676:689   */\n  mload\n    /* \"#utility.yul\":707:797   */\n  tag_39\n    /* \"#utility.yul\":793:796   */\n  dup5\n    /* \"#utility.yul\":785:791   */\n  dup3\n    /* \"#utility.yul\":778:782   */\n  0x20\n    /* \"#utility.yul\":770:776   */\n  dup7\n    /* \"#utility.yul\":766:783   */\n  add\n    /* \"#utility.yul\":707:797   */\n  tag_23\n  jump\t// in\ntag_39:\n    /* \"#utility.yul\":698:797   */\n  swap2\n  pop\n    /* \"#utility.yul\":521:803   */\n  pop\n    /* \"#utility.yul\":448:803   */\n  swap3\n  swap2\n  pop\n  pop\n  jump\t// out\n    /* \"#utility.yul\":809:1333   */\ntag_3:\n    /* \"#utility.yul\":889:895   */\n  0x00\n    /* \"#utility.yul\":938:940   */\n  0x20\n    /* \"#utility.yul\":926:935   */\n  dup3\n    /* \"#utility.yul\":917:924   */\n  dup5\n    /* \"#utility.yul\":913:936   */\n  sub\n    /* \"#utility.yul\":909:941   */\n  slt\n    /* \"#utility.yul\":906:1025   */\n  iszero\n  tag_41\n  jumpi\n    /* \"#utility.yul\":944:1023   */\n  tag_42\n  tag_43\n  jump\t// in\ntag_42:\n    /* \"#utility.yul\":906:1025   */\ntag_41:\n    /* \"#utility.yul\":1085:1086   */\n  0x00\n    /* \"#utility.yul\":1074:1083   */\n  dup3\n    /* \"#utility.yul\":1070:1087   */\n  add\n    /* \"#utility.yul\":1064:1088   */\n  mload\n    /* \"#utility.yul\":1115:1133   */\n  0xffffffffffffffff\n    /* \"#utility.yul\":1107:1113   */\n  dup2\n    /* \"#utility.yul\":1104:1134   */\n  gt\n    /* \"#utility.yul\":1101:1218   */\n  iszero\n  tag_44\n  jumpi\n    /* \"#utility.yul\":1137:1216   */\n  tag_45\n  tag_46\n  jump\t// in\ntag_45:\n    /* \"#utility.yul\":1101:1218   */\ntag_44:\n    /* \"#utility.yul\":1242:1316   */\n  tag_47\n    /* \"#utility.yul\":1308:1315   */\n  dup5\n    /* \"#utility.yul\":1299:1305   */\n  dup3\n    /* \"#utility.yul\":1288:1297   */\n  dup6\n    /* \"#utility.yul\":1284:1306   */\n  add\n    /* \"#utility.yul\":1242:1316   */\n  tag_34\n  jump\t// in\ntag_47:\n    /* \"#utility.yul\":1232:1316   */\n  swap2\n  pop\n    /* \"#utility.yul\":1035:1326   */\n  pop\n    /* \"#utility.yul\":809:1333   */\n  swap3\n  swap2\n  pop\n  pop\n  jump\t// out\n    /* \"#utility.yul\":1363:2165   */\ntag_48:\n    /* \"#utility.yul\":1448:1451   */\n  0x00\n    /* \"#utility.yul\":1485:1490   */\n  dup2\n    /* \"#utility.yul\":1479:1491   */\n  sload\n    /* \"#utility.yul\":1514:1550   */\n  tag_50\n    /* \"#utility.yul\":1540:1549   */\n  dup2\n    /* \"#utility.yul\":1514:1550   */\n  tag_12\n  jump\t// in\ntag_50:\n    /* \"#utility.yul\":1566:1637   */\n  tag_51\n    /* \"#utility.yul\":1630:1636   */\n  dup2\n    /* \"#utility.yul\":1625:1628   */\n  dup7\n    /* \"#utility.yul\":1566:1637   */\n  tag_52\n  jump\t// in\ntag_51:\n    /* \"#utility.yul\":1559:1637   */\n  swap5\n  pop\n    /* \"#utility.yul\":1668:1669   */\n  0x01\n    /* \"#utility.yul\":1657:1666   */\n  dup3\n    /* \"#utility.yul\":1653:1670   */\n  and\n    /* \"#utility.yul\":1684:1685   */\n  0x00\n    /* \"#utility.yul\":1679:1814   */\n  dup2\n  eq\n  tag_54\n  jumpi\n    /* \"#utility.yul\":1828:1829   */\n  0x01\n    /* \"#utility.yul\":1823:2159   */\n  dup2\n  eq\n  tag_55\n  jumpi\n    /* \"#utility.yul\":1646:2159   */\n  jump(tag_53)\n    /* \"#utility.yul\":1679:1814   */\ntag_54:\n    /* \"#utility.yul\":1763:1767   */\n  0xff\n    /* \"#utility.yul\":1759:1768   */\n  not\n    /* \"#utility.yul\":1748:1757   */\n  dup4\n    /* \"#utility.yul\":1744:1769   */\n  and\n    /* \"#utility.yul\":1739:1742   */\n  dup7\n    /* \"#utility.yul\":1732:1770   */\n  mstore\n    /* \"#utility.yul\":1799:1803   */\n  0x20\n    /* \"#utility.yul\":1794:1797   */\n  dup7\n    /* \"#utility.yul\":1790:1804   */\n  add\n    /* \"#utility.yul\":1783:1804   */\n  swap4\n  pop\n    /* \"#utility.yul\":1679:1814   */\n  jump(tag_53)\n    /* \"#utility.yul\":1823:2159   */\ntag_55:\n    /* \"#utility.yul\":1890:1928   */\n  tag_56\n    /* \"#utility.yul\":1922:1927   */\n  dup6\n    /* \"#utility.yul\":1890:1928   */\n  tag_57\n  jump\t// in\ntag_56:\n    /* \"#utility.yul\":1950:1951   */\n  0x00\n    /* \"#utility.yul\":1964:2118   */\ntag_58:\n    /* \"#utility.yul\":1978:1984   */\n  dup4\n    /* \"#utility.yul\":1975:1976   */\n  dup2\n    /* \"#utility.yul\":1972:1985   */\n  lt\n    /* \"#utility.yul\":1964:2118   */\n  iszero\n  tag_60\n  jumpi\n    /* \"#utility.yul\":2052:2059   */\n  dup2\n    /* \"#utility.yul\":2046:2060   */\n  sload\n    /* \"#utility.yul\":2042:2043   */\n  dup2\n    /* \"#utility.yul\":2037:2040   */\n  dup10\n    /* \"#utility.yul\":2033:2044   */\n  add\n    /* \"#utility.yul\":2026:2061   */\n  mstore\n    /* \"#utility.yul\":2102:2103   */\n  0x01\n    /* \"#utility.yul\":2093:2100   */\n  dup3\n    /* \"#utility.yul\":2089:2104   */\n  add\n    /* \"#utility.yul\":2078:2104   */\n  swap2\n  pop\n    /* \"#utility.yul\":2000:2004   */\n  0x20\n    /* \"#utility.yul\":1997:1998   */\n  dup2\n    /* \"#utility.yul\":1993:2005   */\n  add\n    /* \"#utility.yul\":1988:2005   */\n  swap1\n  pop\n    /* \"#utility.yul\":1964:2118   */\n  jump(tag_58)\ntag_60:\n    /* \"#utility.yul\":2147:2148   */\n  dup1\n    /* \"#utility.yul\":2142:2145   */\n  dup9\n    /* \"#utility.yul\":2138:2149   */\n  add\n    /* \"#utility.yul\":2131:2149   */\n  swap6\n  pop\n    /* \"#utility.yul\":1830:2159   */\n  pop\n  pop\n    /* \"#utility.yul\":1646:2159   */\ntag_53:\n  pop\n    /* \"#utility.yul\":1452:2165   */\n  pop\n  pop\n    /* \"#utility.yul\":1363:2165   */\n  swap3\n  swap2\n  pop\n  pop\n  jump\t// out\n    /* \"#utility.yul\":2171:2478   */\ntag_9:\n    /* \"#utility.yul\":2281:2285   */\n  0x00\n    /* \"#utility.yul\":2319:2321   */\n  0x20\n    /* \"#utility.yul\":2308:2317   */\n  dup3\n    /* \"#utility.yul\":2304:2322   */\n  add\n    /* \"#utility.yul\":2296:2322   */\n  swap1\n  pop\n    /* \"#utility.yul\":2368:2377   */\n  dup2\n    /* \"#utility.yul\":2362:2366   */\n  dup2\n    /* \"#utility.yul\":2358:2378   */\n  sub\n    /* \"#utility.yul\":2354:2355   */\n  0x00\n    /* \"#utility.yul\":2343:2352   */\n  dup4\n    /* \"#utility.yul\":2339:2356   */\n  add\n    /* \"#utility.yul\":2332:2379   */\n  mstore\n    /* \"#utility.yul\":2396:2471   */\n  tag_62\n    /* \"#utility.yul\":2466:2470   */\n  dup2\n    /* \"#utility.yul\":2457:2463   */\n  dup5\n    /* \"#utility.yul\":2396:2471   */\n  tag_48\n  jump\t// in\ntag_62:\n    /* \"#utility.yul\":2388:2471   */\n  swap1\n  pop\n    /* \"#utility.yul\":2171:2478   */\n  swap3\n  swap2\n  pop\n  pop\n  jump\t// out\n    /* \"#utility.yul\":2484:2613   */\ntag_28:\n    /* \"#utility.yul\":2518:2524   */\n  0x00\n    /* \"#utility.yul\":2545:2565   */\n  tag_64\n  tag_65\n  jump\t// in\ntag_64:\n    /* \"#utility.yul\":2535:2565   */\n  swap1\n  pop\n    /* \"#utility.yul\":2574:2607   */\n  tag_66\n    /* \"#utility.yul\":2602:2606   */\n  dup3\n    /* \"#utility.yul\":2594:2600   */\n  dup3\n    /* \"#utility.yul\":2574:2607   */\n  tag_67\n  jump\t// in\ntag_66:\n    /* \"#utility.yul\":2484:2613   */\n  swap2\n  swap1\n  pop\n  jump\t// out\n    /* \"#utility.yul\":2619:2694   */\ntag_65:\n    /* \"#utility.yul\":2652:2658   */\n  0x00\n    /* \"#utility.yul\":2685:2687   */\n  0x40\n    /* \"#utility.yul\":2679:2688   */\n  mload\n    /* \"#utility.yul\":2669:2688   */\n  swap1\n  pop\n    /* \"#utility.yul\":2619:2694   */\n  swap1\n  jump\t// out\n    /* \"#utility.yul\":2700:3008   */\ntag_27:\n    /* \"#utility.yul\":2762:2766   */\n  0x00\n    /* \"#utility.yul\":2852:2870   */\n  0xffffffffffffffff\n    /* \"#utility.yul\":2844:2850   */\n  dup3\n    /* \"#utility.yul\":2841:2871   */\n  gt\n    /* \"#utility.yul\":2838:2894   */\n  iszero\n  tag_70\n  jumpi\n    /* \"#utility.yul\":2874:2892   */\n  tag_71\n  tag_72\n  jump\t// in\ntag_71:\n    /* \"#utility.yul\":2838:2894   */\ntag_70:\n    /* \"#utility.yul\":2912:2941   */\n  tag_73\n    /* \"#utility.yul\":2934:2940   */\n  dup3\n    /* \"#utility.yul\":2912:2941   */\n  tag_74\n  jump\t// in\ntag_73:\n    /* \"#utility.yul\":2904:2941   */\n  swap1\n  pop\n    /* \"#utility.yul\":2996:3000   */\n  0x20\n    /* \"#utility.yul\":2990:2994   */\n  dup2\n    /* \"#utility.yul\":2986:3001   */\n  add\n    /* \"#utility.yul\":2978:3001   */\n  swap1\n  pop\n    /* \"#utility.yul\":2700:3008   */\n  swap2\n  swap1\n  pop\n  jump\t// out\n    /* \"#utility.yul\":3014:3155   */\ntag_57:\n    /* \"#utility.yul\":3063:3067   */\n  0x00\n    /* \"#utility.yul\":3086:3089   */\n  dup2\n    /* \"#utility.yul\":3078:3089   */\n  swap1\n  pop\n    /* \"#utility.yul\":3109:3112   */\n  dup2\n    /* \"#utility.yul\":3106:3107   */\n  0x00\n    /* \"#utility.yul\":3099:3113   */\n  mstore\n    /* \"#utility.yul\":3143:3147   */\n  0x20\n    /* \"#utility.yul\":3140:3141   */\n  0x00\n    /* \"#utility.yul\":3130:3148   */\n  keccak256\n    /* \"#utility.yul\":3122:3148   */\n  swap1\n  pop\n    /* \"#utility.yul\":3014:3155   */\n  swap2\n  swap1\n  pop\n  jump\t// out\n    /* \"#utility.yul\":3161:3330   */\ntag_52:\n    /* \"#utility.yul\":3245:3256   */\n  0x00\n    /* \"#utility.yul\":3279:3285   */\n  dup3\n    /* \"#utility.yul\":3274:3277   */\n  dup3\n    /* \"#utility.yul\":3267:3286   */\n  mstore\n    /* \"#utility.yul\":3319:3323   */\n  0x20\n    /* \"#utility.yul\":3314:3317   */\n  dup3\n    /* \"#utility.yul\":3310:3324   */\n  add\n    /* \"#utility.yul\":3295:3324   */\n  swap1\n  pop\n    /* \"#utility.yul\":3161:3330   */\n  swap3\n  swap2\n  pop\n  pop\n  jump\t// out\n    /* \"#utility.yul\":3336:3643   */\ntag_33:\n    /* \"#utility.yul\":3404:3405   */\n  0x00\n    /* \"#utility.yul\":3414:3527   */\ntag_78:\n    /* \"#utility.yul\":3428:3434   */\n  dup4\n    /* \"#utility.yul\":3425:3426   */\n  dup2\n    /* \"#utility.yul\":3422:3435   */\n  lt\n    /* \"#utility.yul\":3414:3527   */\n  iszero\n  tag_80\n  jumpi\n    /* \"#utility.yul\":3513:3514   */\n  dup1\n    /* \"#utility.yul\":3508:3511   */\n  dup3\n    /* \"#utility.yul\":3504:3515   */\n  add\n    /* \"#utility.yul\":3498:3516   */\n  mload\n    /* \"#utility.yul\":3494:3495   */\n  dup2\n    /* \"#utility.yul\":3489:3492   */\n  dup5\n    /* \"#utility.yul\":3485:3496   */\n  add\n    /* \"#utility.yul\":3478:3517   */\n  mstore\n    /* \"#utility.yul\":3450:3452   */\n  0x20\n    /* \"#utility.yul\":3447:3448   */\n  dup2\n    /* \"#utility.yul\":3443:3453   */\n  add\n    /* \"#utility.yul\":3438:3453   */\n  swap1\n  pop\n    /* \"#utility.yul\":3414:3527   */\n  jump(tag_78)\ntag_80:\n    /* \"#utility.yul\":3545:3551   */\n  dup4\n    /* \"#utility.yul\":3542:3543   */\n  dup2\n    /* \"#utility.yul\":3539:3552   */\n  gt\n    /* \"#utility.yul\":3536:3637   */\n  iszero\n  tag_81\n  jumpi\n    /* \"#utility.yul\":3625:3626   */\n  0x00\n    /* \"#utility.yul\":3616:3622   */\n  dup5\n    /* \"#utility.yul\":3611:3614   */\n  dup5\n    /* \"#utility.yul\":3607:3623   */\n  add\n    /* \"#utility.yul\":3600:3627   */\n  mstore\n    /* \"#utility.yul\":3536:3637   */\ntag_81:\n    /* \"#utility.yul\":3385:3643   */\n  pop\n    /* \"#utility.yul\":3336:3643   */\n  pop\n  pop\n  pop\n  jump\t// out\n    /* \"#utility.yul\":3649:3969   */\ntag_12:\n    /* \"#utility.yul\":3693:3699   */\n  0x00\n    /* \"#utility.yul\":3730:3731   */\n  0x02\n    /* \"#utility.yul\":3724:3728   */\n  dup3\n    /* \"#utility.yul\":3720:3732   */\n  div\n    /* \"#utility.yul\":3710:3732   */\n  swap1\n  pop\n    /* \"#utility.yul\":3777:3778   */\n  0x01\n    /* \"#utility.yul\":3771:3775   */\n  dup3\n    /* \"#utility.yul\":3767:3779   */\n  and\n    /* \"#utility.yul\":3798:3816   */\n  dup1\n    /* \"#utility.yul\":3788:3869   */\n  tag_83\n  jumpi\n    /* \"#utility.yul\":3854:3858   */\n  0x7f\n    /* \"#utility.yul\":3846:3852   */\n  dup3\n    /* \"#utility.yul\":3842:3859   */\n  and\n    /* \"#utility.yul\":3832:3859   */\n  swap2\n  pop\n    /* \"#utility.yul\":3788:3869   */\ntag_83:\n    /* \"#utility.yul\":3916:3918   */\n  0x20\n    /* \"#utility.yul\":3908:3914   */\n  dup3\n    /* \"#utility.yul\":3905:3919   */\n  lt\n    /* \"#utility.yul\":3885:3903   */\n  dup2\n    /* \"#utility.yul\":3882:3920   */\n  eq\n    /* \"#utility.yul\":3879:3963   */\n  iszero\n  tag_84\n  jumpi\n    /* \"#utility.yul\":3935:3953   */\n  tag_85\n  tag_86\n  jump\t// in\ntag_85:\n    /* \"#utility.yul\":3879:3963   */\ntag_84:\n    /* \"#utility.yul\":3700:3969   */\n  pop\n    /* \"#utility.yul\":3649:3969   */\n  swap2\n  swap1\n  pop\n  jump\t// out\n    /* \"#utility.yul\":3975:4256   */\ntag_67:\n    /* \"#utility.yul\":4058:4085   */\n  tag_88\n    /* \"#utility.yul\":4080:4084   */\n  dup3\n    /* \"#utility.yul\":4058:4085   */\n  tag_74\n  jump\t// in\ntag_88:\n    /* \"#utility.yul\":4050:4056   */\n  dup2\n    /* \"#utility.yul\":4046:4086   */\n  add\n    /* \"#utility.yul\":4188:4194   */\n  dup2\n    /* \"#utility.yul\":4176:4186   */\n  dup2\n    /* \"#utility.yul\":4173:4195   */\n  lt\n    /* \"#utility.yul\":4152:4170   */\n  0xffffffffffffffff\n    /* \"#utility.yul\":4140:4150   */\n  dup3\n    /* \"#utility.yul\":4137:4171   */\n  gt\n    /* \"#utility.yul\":4134:4196   */\n  or\n    /* \"#utility.yul\":4131:4219   */\n  iszero\n  tag_89\n  jumpi\n    /* \"#utility.yul\":4199:4217   */\n  tag_90\n  tag_72\n  jump\t// in\ntag_90:\n    /* \"#utility.yul\":4131:4219   */\ntag_89:\n    /* \"#utility.yul\":4239:4249   */\n  dup1\n    /* \"#utility.yul\":4235:4237   */\n  0x40\n    /* \"#utility.yul\":4228:4250   */\n  mstore\n    /* \"#utility.yul\":4018:4256   */\n  pop\n    /* \"#utility.yul\":3975:4256   */\n  pop\n  pop\n  jump\t// out\n    /* \"#utility.yul\":4262:4442   */\ntag_86:\n    /* \"#utility.yul\":4310:4387   */\n  0x4e487b7100000000000000000000000000000000000000000000000000000000\n    /* \"#utility.yul\":4307:4308   */\n  0x00\n    /* \"#utility.yul\":4300:4388   */\n  mstore\n    /* \"#utility.yul\":4407:4411   */\n  0x22\n    /* \"#utility.yul\":4404:4405   */\n  0x04\n    /* \"#utility.yul\":4397:4412   */\n  mstore\n    /* \"#utility.yul\":4431:4435   */\n  0x24\n    /* \"#utility.yul\":4428:4429   */\n  0x00\n    /* \"#utility.yul\":4421:4436   */\n  revert\n    /* \"#utility.yul\":4448:4628   */\ntag_72:\n    /* \"#utility.yul\":4496:4573   */\n  0x4e487b7100000000000000000000000000000000000000000000000000000000\n    /* \"#utility.yul\":4493:4494   */\n  0x00\n    /* \"#utility.yul\":4486:4574   */\n  mstore\n    /* \"#utility.yul\":4593:4597   */\n  0x41\n    /* \"#utility.yul\":4590:4591   */\n  0x04\n    /* \"#utility.yul\":4583:4598   */\n  mstore\n    /* \"#utility.yul\":4617:4621   */\n  0x24\n    /* \"#utility.yul\":4614:4615   */\n  0x00\n    /* \"#utility.yul\":4607:4622   */\n  revert\n    /* \"#utility.yul\":4634:4751   */\ntag_38:\n    /* \"#utility.yul\":4743:4744   */\n  0x00\n    /* \"#utility.yul\":4740:4741   */\n  dup1\n    /* \"#utility.yul\":4733:4745   */\n  revert\n    /* \"#utility.yul\":4757:4874   */\ntag_31:\n    /* \"#utility.yul\":4866:4867   */\n  0x00\n    /* \"#utility.yul\":4863:4864   */\n  dup1\n    /* \"#utility.yul\":4856:4868   */\n  revert\n    /* \"#utility.yul\":4880:4997   */\ntag_46:\n    /* \"#utility.yul\":4989:4990   */\n  0x00\n    /* \"#utility.yul\":4986:4987   */\n  dup1\n    /* \"#utility.yul\":4979:4991   */\n  revert\n    /* \"#utility.yul\":5003:5120   */\ntag_43:\n    /* \"#utility.yul\":5112:5113   */\n  0x00\n    /* \"#utility.yul\":5109:5110   */\n  dup1\n    /* \"#utility.yul\":5102:5114   */\n  revert\n    /* \"#utility.yul\":5126:5228   */\ntag_74:\n    /* \"#utility.yul\":5167:5173   */\n  0x00\n    /* \"#utility.yul\":5218:5220   */\n  0x1f\n    /* \"#utility.yul\":5214:5221   */\n  not\n    /* \"#utility.yul\":5209:5211   */\n  0x1f\n    /* \"#utility.yul\":5202:5207   */\n  dup4\n    /* \"#utility.yul\":5198:5212   */\n  add\n    /* \"#utility.yul\":5194:5222   */\n  and\n    /* \"#utility.yul\":5184:5222   */\n  swap1\n  pop\n    /* \"#utility.yul\":5126:5228   */\n  swap2\n  swap1\n  pop\n  jump\t// out\n    /* \"PFG/Verificador.sol\":74:2579  contract Verificacio{\r... */\ntag_10:\n  dataSize(sub_0)\n  dup1\n  dataOffset(sub_0)\n  0x00\n  codecopy\n  0x00\n  return\nstop\n\nsub_0: assembly {\n        /* \"PFG/Verificador.sol\":74:2579  contract Verificacio{\r... */\n      mstore(0x40, 0x80)\n      callvalue\n      dup1\n      iszero\n      tag_1\n      jumpi\n      0x00\n      dup1\n      revert\n    tag_1:\n      pop\n      jumpi(tag_2, lt(calldatasize, 0x04))\n      shr(0xe0, calldataload(0x00))\n      dup1\n      0x893d20e8\n      gt\n      tag_11\n      jumpi\n      dup1\n      0x893d20e8\n      eq\n      tag_7\n      jumpi\n      dup1\n      0xb0010063\n      eq\n      tag_8\n      jumpi\n      dup1\n      0xb2d64bda\n      eq\n      tag_9\n      jumpi\n      dup1\n      0xcef2320c\n      eq\n      tag_10\n      jumpi\n      jump(tag_2)\n    tag_11:\n      dup1\n      0x2fc10f04\n      eq\n      tag_3\n      jumpi\n      dup1\n      0x34fda51a\n      eq\n      tag_4\n      jumpi\n      dup1\n      0x5dbc2be8\n      eq\n      tag_5\n      jumpi\n      dup1\n      0x7ae6d76a\n      eq\n      tag_6\n      jumpi\n    tag_2:\n      0x00\n      dup1\n      revert\n        /* \"PFG/Verificador.sol\":1359:1627  function denegarDocument() public {\r... */\n    tag_3:\n      tag_12\n      tag_13\n      jump\t// in\n    tag_12:\n      stop\n        /* \"PFG/Verificador.sol\":1805:1948  function haDenegat(address _user) public view returns(bool) {\r... */\n    tag_4:\n      tag_14\n      0x04\n      dup1\n      calldatasize\n      sub\n      dup2\n      add\n      swap1\n      tag_15\n      swap2\n      swap1\n      tag_16\n      jump\t// in\n    tag_15:\n      tag_17\n      jump\t// in\n    tag_14:\n      mload(0x40)\n      tag_18\n      swap2\n      swap1\n      tag_19\n      jump\t// in\n    tag_18:\n      mload(0x40)\n      dup1\n      swap2\n      sub\n      swap1\n      return\n        /* \"PFG/Verificador.sol\":1654:1797  function haValidat(address _user) public view returns(bool) {\r... */\n    tag_5:\n      tag_20\n      0x04\n      dup1\n      calldatasize\n      sub\n      dup2\n      add\n      swap1\n      tag_21\n      swap2\n      swap1\n      tag_16\n      jump\t// in\n    tag_21:\n      tag_22\n      jump\t// in\n    tag_20:\n      mload(0x40)\n      tag_23\n      swap2\n      swap1\n      tag_19\n      jump\t// in\n    tag_23:\n      mload(0x40)\n      dup1\n      swap2\n      sub\n      swap1\n      return\n        /* \"PFG/Verificador.sol\":2261:2367  function getNumberOfDenegations() public view returns(uint256) {\r... */\n    tag_6:\n      tag_24\n      tag_25\n      jump\t// in\n    tag_24:\n      mload(0x40)\n      tag_26\n      swap2\n      swap1\n      tag_27\n      jump\t// in\n    tag_26:\n      mload(0x40)\n      dup1\n      swap2\n      sub\n      swap1\n      return\n        /* \"PFG/Verificador.sol\":1956:2040  function getOwner() public view returns(address){\r... */\n    tag_7:\n      tag_28\n      tag_29\n      jump\t// in\n    tag_28:\n      mload(0x40)\n      tag_30\n      swap2\n      swap1\n      tag_31\n      jump\t// in\n    tag_30:\n      mload(0x40)\n      dup1\n      swap2\n      sub\n      swap1\n      return\n        /* \"PFG/Verificador.sol\":2147:2253  function getNumberOfValidations() public view returns(uint256) {\r... */\n    tag_8:\n      tag_32\n      tag_33\n      jump\t// in\n    tag_32:\n      mload(0x40)\n      tag_34\n      swap2\n      swap1\n      tag_27\n      jump\t// in\n    tag_34:\n      mload(0x40)\n      dup1\n      swap2\n      sub\n      swap1\n      return\n        /* \"PFG/Verificador.sol\":999:1267  function validarDocument() public {\r... */\n    tag_9:\n      tag_35\n      tag_36\n      jump\t// in\n    tag_35:\n      stop\n        /* \"PFG/Verificador.sol\":2048:2139  function getFilename() public view returns(string memory){\r... */\n    tag_10:\n      tag_37\n      tag_38\n      jump\t// in\n    tag_37:\n      mload(0x40)\n      tag_39\n      swap2\n      swap1\n      tag_40\n      jump\t// in\n    tag_39:\n      mload(0x40)\n      dup1\n      swap2\n      sub\n      swap1\n      return\n        /* \"PFG/Verificador.sol\":1359:1627  function denegarDocument() public {\r... */\n    tag_13:\n        /* \"PFG/Verificador.sol\":1426:1436  msg.sender */\n      caller\n        /* \"PFG/Verificador.sol\":1412:1436  propietari != msg.sender */\n      0xffffffffffffffffffffffffffffffffffffffff\n      and\n        /* \"PFG/Verificador.sol\":1412:1422  propietari */\n      0x00\n      dup1\n      sload\n      swap1\n      0x0100\n      exp\n      swap1\n      div\n      0xffffffffffffffffffffffffffffffffffffffff\n      and\n        /* \"PFG/Verificador.sol\":1412:1436  propietari != msg.sender */\n      0xffffffffffffffffffffffffffffffffffffffff\n      and\n      eq\n      iszero\n        /* \"PFG/Verificador.sol\":1404:1437  require(propietari != msg.sender) */\n      tag_42\n      jumpi\n      0x00\n      dup1\n      revert\n    tag_42:\n        /* \"PFG/Verificador.sol\":1483:1487  true */\n      0x01\n        /* \"PFG/Verificador.sol\":1456:1487  validacions[msg.sender] != true */\n      iszero\n      iszero\n        /* \"PFG/Verificador.sol\":1456:1467  validacions */\n      0x04\n        /* \"PFG/Verificador.sol\":1456:1479  validacions[msg.sender] */\n      0x00\n        /* \"PFG/Verificador.sol\":1468:1478  msg.sender */\n      caller\n        /* \"PFG/Verificador.sol\":1456:1479  validacions[msg.sender] */\n      0xffffffffffffffffffffffffffffffffffffffff\n      and\n      0xffffffffffffffffffffffffffffffffffffffff\n      and\n      dup2\n      mstore\n      0x20\n      add\n      swap1\n      dup2\n      mstore\n      0x20\n      add\n      0x00\n      keccak256\n      0x00\n      swap1\n      sload\n      swap1\n      0x0100\n      exp\n      swap1\n      div\n      0xff\n      and\n        /* \"PFG/Verificador.sol\":1456:1487  validacions[msg.sender] != true */\n      iszero\n      iszero\n      eq\n      iszero\n        /* \"PFG/Verificador.sol\":1448:1488  require(validacions[msg.sender] != true) */\n      tag_43\n      jumpi\n      0x00\n      dup1\n      revert\n    tag_43:\n        /* \"PFG/Verificador.sol\":1499:1509  denegadors */\n      0x03\n        /* \"PFG/Verificador.sol\":1515:1525  msg.sender */\n      caller\n        /* \"PFG/Verificador.sol\":1499:1526  denegadors.push(msg.sender) */\n      swap1\n      dup1\n      0x01\n      dup2\n      sload\n      add\n      dup1\n      dup3\n      sstore\n      dup1\n      swap2\n      pop\n      pop\n      0x01\n      swap1\n      sub\n      swap1\n      0x00\n      mstore\n      keccak256(0x00, 0x20)\n      add\n      0x00\n      swap1\n      swap2\n      swap1\n      swap2\n      swap1\n      swap2\n      0x0100\n      exp\n      dup2\n      sload\n      dup2\n      0xffffffffffffffffffffffffffffffffffffffff\n      mul\n      not\n      and\n      swap1\n      dup4\n      0xffffffffffffffffffffffffffffffffffffffff\n      and\n      mul\n      or\n      swap1\n      sstore\n      pop\n        /* \"PFG/Verificador.sol\":1563:1567  true */\n      0x01\n        /* \"PFG/Verificador.sol\":1537:1548  denegacions */\n      0x05\n        /* \"PFG/Verificador.sol\":1537:1560  denegacions[msg.sender] */\n      0x00\n        /* \"PFG/Verificador.sol\":1549:1559  msg.sender */\n      caller\n        /* \"PFG/Verificador.sol\":1537:1560  denegacions[msg.sender] */\n      0xffffffffffffffffffffffffffffffffffffffff\n      and\n      0xffffffffffffffffffffffffffffffffffffffff\n      and\n      dup2\n      mstore\n      0x20\n      add\n      swap1\n      dup2\n      mstore\n      0x20\n      add\n      0x00\n      keccak256\n      0x00\n        /* \"PFG/Verificador.sol\":1537:1567  denegacions[msg.sender] = true */\n      0x0100\n      exp\n      dup2\n      sload\n      dup2\n      0xff\n      mul\n      not\n      and\n      swap1\n      dup4\n      iszero\n      iszero\n      mul\n      or\n      swap1\n      sstore\n      pop\n        /* \"PFG/Verificador.sol\":1596:1606  msg.sender */\n      caller\n        /* \"PFG/Verificador.sol\":1585:1617  Denegation(msg.sender, filename) */\n      0xffffffffffffffffffffffffffffffffffffffff\n      and\n      0x9036bc06ad4a578f0132d89ba4adc07b9772275526730acc38d7e4b4c11872a3\n        /* \"PFG/Verificador.sol\":1608:1616  filename */\n      0x01\n        /* \"PFG/Verificador.sol\":1585:1617  Denegation(msg.sender, filename) */\n      mload(0x40)\n      tag_45\n      swap2\n      swap1\n      tag_46\n      jump\t// in\n    tag_45:\n      mload(0x40)\n      dup1\n      swap2\n      sub\n      swap1\n      log2\n        /* \"PFG/Verificador.sol\":1359:1627  function denegarDocument() public {\r... */\n      jump\t// out\n        /* \"PFG/Verificador.sol\":1805:1948  function haDenegat(address _user) public view returns(bool) {\r... */\n    tag_17:\n        /* \"PFG/Verificador.sol\":1859:1863  bool */\n      0x00\n        /* \"PFG/Verificador.sol\":1898:1903  _user */\n      dup2\n        /* \"PFG/Verificador.sol\":1884:1903  propietari != _user */\n      0xffffffffffffffffffffffffffffffffffffffff\n      and\n        /* \"PFG/Verificador.sol\":1884:1894  propietari */\n      0x00\n      dup1\n      sload\n      swap1\n      0x0100\n      exp\n      swap1\n      div\n      0xffffffffffffffffffffffffffffffffffffffff\n      and\n        /* \"PFG/Verificador.sol\":1884:1903  propietari != _user */\n      0xffffffffffffffffffffffffffffffffffffffff\n      and\n      eq\n      iszero\n        /* \"PFG/Verificador.sol\":1876:1904  require(propietari != _user) */\n      tag_48\n      jumpi\n      0x00\n      dup1\n      revert\n    tag_48:\n        /* \"PFG/Verificador.sol\":1922:1933  denegacions */\n      0x05\n        /* \"PFG/Verificador.sol\":1922:1940  denegacions[_user] */\n      0x00\n        /* \"PFG/Verificador.sol\":1934:1939  _user */\n      dup4\n        /* \"PFG/Verificador.sol\":1922:1940  denegacions[_user] */\n      0xffffffffffffffffffffffffffffffffffffffff\n      and\n      0xffffffffffffffffffffffffffffffffffffffff\n      and\n      dup2\n      mstore\n      0x20\n      add\n      swap1\n      dup2\n      mstore\n      0x20\n      add\n      0x00\n      keccak256\n      0x00\n      swap1\n      sload\n      swap1\n      0x0100\n      exp\n      swap1\n      div\n      0xff\n      and\n        /* \"PFG/Verificador.sol\":1915:1940  return denegacions[_user] */\n      swap1\n      pop\n        /* \"PFG/Verificador.sol\":1805:1948  function haDenegat(address _user) public view returns(bool) {\r... */\n      swap2\n      swap1\n      pop\n      jump\t// out\n        /* \"PFG/Verificador.sol\":1654:1797  function haValidat(address _user) public view returns(bool) {\r... */\n    tag_22:\n        /* \"PFG/Verificador.sol\":1708:1712  bool */\n      0x00\n        /* \"PFG/Verificador.sol\":1747:1752  _user */\n      dup2\n        /* \"PFG/Verificador.sol\":1733:1752  propietari != _user */\n      0xffffffffffffffffffffffffffffffffffffffff\n      and\n        /* \"PFG/Verificador.sol\":1733:1743  propietari */\n      0x00\n      dup1\n      sload\n      swap1\n      0x0100\n      exp\n      swap1\n      div\n      0xffffffffffffffffffffffffffffffffffffffff\n      and\n        /* \"PFG/Verificador.sol\":1733:1752  propietari != _user */\n      0xffffffffffffffffffffffffffffffffffffffff\n      and\n      eq\n      iszero\n        /* \"PFG/Verificador.sol\":1725:1753  require(propietari != _user) */\n      tag_50\n      jumpi\n      0x00\n      dup1\n      revert\n    tag_50:\n        /* \"PFG/Verificador.sol\":1771:1782  validacions */\n      0x04\n        /* \"PFG/Verificador.sol\":1771:1789  validacions[_user] */\n      0x00\n        /* \"PFG/Verificador.sol\":1783:1788  _user */\n      dup4\n        /* \"PFG/Verificador.sol\":1771:1789  validacions[_user] */\n      0xffffffffffffffffffffffffffffffffffffffff\n      and\n      0xffffffffffffffffffffffffffffffffffffffff\n      and\n      dup2\n      mstore\n      0x20\n      add\n      swap1\n      dup2\n      mstore\n      0x20\n      add\n      0x00\n      keccak256\n      0x00\n      swap1\n      sload\n      swap1\n      0x0100\n      exp\n      swap1\n      div\n      0xff\n      and\n        /* \"PFG/Verificador.sol\":1764:1789  return validacions[_user] */\n      swap1\n      pop\n        /* \"PFG/Verificador.sol\":1654:1797  function haValidat(address _user) public view returns(bool) {\r... */\n      swap2\n      swap1\n      pop\n      jump\t// out\n        /* \"PFG/Verificador.sol\":2261:2367  function getNumberOfDenegations() public view returns(uint256) {\r... */\n    tag_25:\n        /* \"PFG/Verificador.sol\":2315:2322  uint256 */\n      0x00\n        /* \"PFG/Verificador.sol\":2342:2352  denegadors */\n      0x03\n        /* \"PFG/Verificador.sol\":2342:2359  denegadors.length */\n      dup1\n      sload\n      swap1\n      pop\n        /* \"PFG/Verificador.sol\":2335:2359  return denegadors.length */\n      swap1\n      pop\n        /* \"PFG/Verificador.sol\":2261:2367  function getNumberOfDenegations() public view returns(uint256) {\r... */\n      swap1\n      jump\t// out\n        /* \"PFG/Verificador.sol\":1956:2040  function getOwner() public view returns(address){\r... */\n    tag_29:\n        /* \"PFG/Verificador.sol\":1996:2003  address */\n      0x00\n        /* \"PFG/Verificador.sol\":2022:2032  propietari */\n      dup1\n      0x00\n      swap1\n      sload\n      swap1\n      0x0100\n      exp\n      swap1\n      div\n      0xffffffffffffffffffffffffffffffffffffffff\n      and\n        /* \"PFG/Verificador.sol\":2015:2032  return propietari */\n      swap1\n      pop\n        /* \"PFG/Verificador.sol\":1956:2040  function getOwner() public view returns(address){\r... */\n      swap1\n      jump\t// out\n        /* \"PFG/Verificador.sol\":2147:2253  function getNumberOfValidations() public view returns(uint256) {\r... */\n    tag_33:\n        /* \"PFG/Verificador.sol\":2201:2208  uint256 */\n      0x00\n        /* \"PFG/Verificador.sol\":2228:2238  validadors */\n      0x02\n        /* \"PFG/Verificador.sol\":2228:2245  validadors.length */\n      dup1\n      sload\n      swap1\n      pop\n        /* \"PFG/Verificador.sol\":2221:2245  return validadors.length */\n      swap1\n      pop\n        /* \"PFG/Verificador.sol\":2147:2253  function getNumberOfValidations() public view returns(uint256) {\r... */\n      swap1\n      jump\t// out\n        /* \"PFG/Verificador.sol\":999:1267  function validarDocument() public {\r... */\n    tag_36:\n        /* \"PFG/Verificador.sol\":1066:1076  msg.sender */\n      caller\n        /* \"PFG/Verificador.sol\":1052:1076  propietari != msg.sender */\n      0xffffffffffffffffffffffffffffffffffffffff\n      and\n        /* \"PFG/Verificador.sol\":1052:1062  propietari */\n      0x00\n      dup1\n      sload\n      swap1\n      0x0100\n      exp\n      swap1\n      div\n      0xffffffffffffffffffffffffffffffffffffffff\n      and\n        /* \"PFG/Verificador.sol\":1052:1076  propietari != msg.sender */\n      0xffffffffffffffffffffffffffffffffffffffff\n      and\n      eq\n      iszero\n        /* \"PFG/Verificador.sol\":1044:1077  require(propietari != msg.sender) */\n      tag_55\n      jumpi\n      0x00\n      dup1\n      revert\n    tag_55:\n        /* \"PFG/Verificador.sol\":1123:1127  true */\n      0x01\n        /* \"PFG/Verificador.sol\":1096:1127  denegacions[msg.sender] != true */\n      iszero\n      iszero\n        /* \"PFG/Verificador.sol\":1096:1107  denegacions */\n      0x05\n        /* \"PFG/Verificador.sol\":1096:1119  denegacions[msg.sender] */\n      0x00\n        /* \"PFG/Verificador.sol\":1108:1118  msg.sender */\n      caller\n        /* \"PFG/Verificador.sol\":1096:1119  denegacions[msg.sender] */\n      0xffffffffffffffffffffffffffffffffffffffff\n      and\n      0xffffffffffffffffffffffffffffffffffffffff\n      and\n      dup2\n      mstore\n      0x20\n      add\n      swap1\n      dup2\n      mstore\n      0x20\n      add\n      0x00\n      keccak256\n      0x00\n      swap1\n      sload\n      swap1\n      0x0100\n      exp\n      swap1\n      div\n      0xff\n      and\n        /* \"PFG/Verificador.sol\":1096:1127  denegacions[msg.sender] != true */\n      iszero\n      iszero\n      eq\n      iszero\n        /* \"PFG/Verificador.sol\":1088:1128  require(denegacions[msg.sender] != true) */\n      tag_56\n      jumpi\n      0x00\n      dup1\n      revert\n    tag_56:\n        /* \"PFG/Verificador.sol\":1139:1149  validadors */\n      0x02\n        /* \"PFG/Verificador.sol\":1155:1165  msg.sender */\n      caller\n        /* \"PFG/Verificador.sol\":1139:1166  validadors.push(msg.sender) */\n      swap1\n      dup1\n      0x01\n      dup2\n      sload\n      add\n      dup1\n      dup3\n      sstore\n      dup1\n      swap2\n      pop\n      pop\n      0x01\n      swap1\n      sub\n      swap1\n      0x00\n      mstore\n      keccak256(0x00, 0x20)\n      add\n      0x00\n      swap1\n      swap2\n      swap1\n      swap2\n      swap1\n      swap2\n      0x0100\n      exp\n      dup2\n      sload\n      dup2\n      0xffffffffffffffffffffffffffffffffffffffff\n      mul\n      not\n      and\n      swap1\n      dup4\n      0xffffffffffffffffffffffffffffffffffffffff\n      and\n      mul\n      or\n      swap1\n      sstore\n      pop\n        /* \"PFG/Verificador.sol\":1203:1207  true */\n      0x01\n        /* \"PFG/Verificador.sol\":1177:1188  validacions */\n      0x04\n        /* \"PFG/Verificador.sol\":1177:1200  validacions[msg.sender] */\n      0x00\n        /* \"PFG/Verificador.sol\":1189:1199  msg.sender */\n      caller\n        /* \"PFG/Verificador.sol\":1177:1200  validacions[msg.sender] */\n      0xffffffffffffffffffffffffffffffffffffffff\n      and\n      0xffffffffffffffffffffffffffffffffffffffff\n      and\n      dup2\n      mstore\n      0x20\n      add\n      swap1\n      dup2\n      mstore\n      0x20\n      add\n      0x00\n      keccak256\n      0x00\n        /* \"PFG/Verificador.sol\":1177:1207  validacions[msg.sender] = true */\n      0x0100\n      exp\n      dup2\n      sload\n      dup2\n      0xff\n      mul\n      not\n      and\n      swap1\n      dup4\n      iszero\n      iszero\n      mul\n      or\n      swap1\n      sstore\n      pop\n        /* \"PFG/Verificador.sol\":1236:1246  msg.sender */\n      caller\n        /* \"PFG/Verificador.sol\":1225:1257  Validation(msg.sender, filename) */\n      0xffffffffffffffffffffffffffffffffffffffff\n      and\n      0x57d77eb32e87e8c65c7cec1df5b0e8a8d5c4eae1b40c7246e7668ed702dd247a\n        /* \"PFG/Verificador.sol\":1248:1256  filename */\n      0x01\n        /* \"PFG/Verificador.sol\":1225:1257  Validation(msg.sender, filename) */\n      mload(0x40)\n      tag_58\n      swap2\n      swap1\n      tag_46\n      jump\t// in\n    tag_58:\n      mload(0x40)\n      dup1\n      swap2\n      sub\n      swap1\n      log2\n        /* \"PFG/Verificador.sol\":999:1267  function validarDocument() public {\r... */\n      jump\t// out\n        /* \"PFG/Verificador.sol\":2048:2139  function getFilename() public view returns(string memory){\r... */\n    tag_38:\n        /* \"PFG/Verificador.sol\":2091:2104  string memory */\n      0x60\n        /* \"PFG/Verificador.sol\":2123:2131  filename */\n      0x01\n        /* \"PFG/Verificador.sol\":2116:2131  return filename */\n      dup1\n      sload\n      tag_60\n      swap1\n      tag_61\n      jump\t// in\n    tag_60:\n      dup1\n      0x1f\n      add\n      0x20\n      dup1\n      swap2\n      div\n      mul\n      0x20\n      add\n      mload(0x40)\n      swap1\n      dup2\n      add\n      0x40\n      mstore\n      dup1\n      swap3\n      swap2\n      swap1\n      dup2\n      dup2\n      mstore\n      0x20\n      add\n      dup3\n      dup1\n      sload\n      tag_62\n      swap1\n      tag_61\n      jump\t// in\n    tag_62:\n      dup1\n      iszero\n      tag_63\n      jumpi\n      dup1\n      0x1f\n      lt\n      tag_64\n      jumpi\n      0x0100\n      dup1\n      dup4\n      sload\n      div\n      mul\n      dup4\n      mstore\n      swap2\n      0x20\n      add\n      swap2\n      jump(tag_63)\n    tag_64:\n      dup3\n      add\n      swap2\n      swap1\n      0x00\n      mstore\n      keccak256(0x00, 0x20)\n      swap1\n    tag_65:\n      dup2\n      sload\n      dup2\n      mstore\n      swap1\n      0x01\n      add\n      swap1\n      0x20\n      add\n      dup1\n      dup4\n      gt\n      tag_65\n      jumpi\n      dup3\n      swap1\n      sub\n      0x1f\n      and\n      dup3\n      add\n      swap2\n    tag_63:\n      pop\n      pop\n      pop\n      pop\n      pop\n      swap1\n      pop\n        /* \"PFG/Verificador.sol\":2048:2139  function getFilename() public view returns(string memory){\r... */\n      swap1\n      jump\t// out\n        /* \"#utility.yul\":7:146   */\n    tag_67:\n        /* \"#utility.yul\":53:58   */\n      0x00\n        /* \"#utility.yul\":91:97   */\n      dup2\n        /* \"#utility.yul\":78:98   */\n      calldataload\n        /* \"#utility.yul\":69:98   */\n      swap1\n      pop\n        /* \"#utility.yul\":107:140   */\n      tag_69\n        /* \"#utility.yul\":134:139   */\n      dup2\n        /* \"#utility.yul\":107:140   */\n      tag_70\n      jump\t// in\n    tag_69:\n        /* \"#utility.yul\":7:146   */\n      swap3\n      swap2\n      pop\n      pop\n      jump\t// out\n        /* \"#utility.yul\":152:481   */\n    tag_16:\n        /* \"#utility.yul\":211:217   */\n      0x00\n        /* \"#utility.yul\":260:262   */\n      0x20\n        /* \"#utility.yul\":248:257   */\n      dup3\n        /* \"#utility.yul\":239:246   */\n      dup5\n        /* \"#utility.yul\":235:258   */\n      sub\n        /* \"#utility.yul\":231:263   */\n      slt\n        /* \"#utility.yul\":228:347   */\n      iszero\n      tag_72\n      jumpi\n        /* \"#utility.yul\":266:345   */\n      tag_73\n      tag_74\n      jump\t// in\n    tag_73:\n        /* \"#utility.yul\":228:347   */\n    tag_72:\n        /* \"#utility.yul\":386:387   */\n      0x00\n        /* \"#utility.yul\":411:464   */\n      tag_75\n        /* \"#utility.yul\":456:463   */\n      dup5\n        /* \"#utility.yul\":447:453   */\n      dup3\n        /* \"#utility.yul\":436:445   */\n      dup6\n        /* \"#utility.yul\":432:454   */\n      add\n        /* \"#utility.yul\":411:464   */\n      tag_67\n      jump\t// in\n    tag_75:\n        /* \"#utility.yul\":401:464   */\n      swap2\n      pop\n        /* \"#utility.yul\":357:474   */\n      pop\n        /* \"#utility.yul\":152:481   */\n      swap3\n      swap2\n      pop\n      pop\n      jump\t// out\n        /* \"#utility.yul\":487:605   */\n    tag_76:\n        /* \"#utility.yul\":574:598   */\n      tag_78\n        /* \"#utility.yul\":592:597   */\n      dup2\n        /* \"#utility.yul\":574:598   */\n      tag_79\n      jump\t// in\n    tag_78:\n        /* \"#utility.yul\":569:572   */\n      dup3\n        /* \"#utility.yul\":562:599   */\n      mstore\n        /* \"#utility.yul\":487:605   */\n      pop\n      pop\n      jump\t// out\n        /* \"#utility.yul\":611:720   */\n    tag_80:\n        /* \"#utility.yul\":692:713   */\n      tag_82\n        /* \"#utility.yul\":707:712   */\n      dup2\n        /* \"#utility.yul\":692:713   */\n      tag_83\n      jump\t// in\n    tag_82:\n        /* \"#utility.yul\":687:690   */\n      dup3\n        /* \"#utility.yul\":680:714   */\n      mstore\n        /* \"#utility.yul\":611:720   */\n      pop\n      pop\n      jump\t// out\n        /* \"#utility.yul\":726:1090   */\n    tag_84:\n        /* \"#utility.yul\":814:817   */\n      0x00\n        /* \"#utility.yul\":842:881   */\n      tag_86\n        /* \"#utility.yul\":875:880   */\n      dup3\n        /* \"#utility.yul\":842:881   */\n      tag_87\n      jump\t// in\n    tag_86:\n        /* \"#utility.yul\":897:968   */\n      tag_88\n        /* \"#utility.yul\":961:967   */\n      dup2\n        /* \"#utility.yul\":956:959   */\n      dup6\n        /* \"#utility.yul\":897:968   */\n      tag_89\n      jump\t// in\n    tag_88:\n        /* \"#utility.yul\":890:968   */\n      swap4\n      pop\n        /* \"#utility.yul\":977:1029   */\n      tag_90\n        /* \"#utility.yul\":1022:1028   */\n      dup2\n        /* \"#utility.yul\":1017:1020   */\n      dup6\n        /* \"#utility.yul\":1010:1014   */\n      0x20\n        /* \"#utility.yul\":1003:1008   */\n      dup7\n        /* \"#utility.yul\":999:1015   */\n      add\n        /* \"#utility.yul\":977:1029   */\n      tag_91\n      jump\t// in\n    tag_90:\n        /* \"#utility.yul\":1054:1083   */\n      tag_92\n        /* \"#utility.yul\":1076:1082   */\n      dup2\n        /* \"#utility.yul\":1054:1083   */\n      tag_93\n      jump\t// in\n    tag_92:\n        /* \"#utility.yul\":1049:1052   */\n      dup5\n        /* \"#utility.yul\":1045:1084   */\n      add\n        /* \"#utility.yul\":1038:1084   */\n      swap2\n      pop\n        /* \"#utility.yul\":818:1090   */\n      pop\n        /* \"#utility.yul\":726:1090   */\n      swap3\n      swap2\n      pop\n      pop\n      jump\t// out\n        /* \"#utility.yul\":1120:1922   */\n    tag_94:\n        /* \"#utility.yul\":1205:1208   */\n      0x00\n        /* \"#utility.yul\":1242:1247   */\n      dup2\n        /* \"#utility.yul\":1236:1248   */\n      sload\n        /* \"#utility.yul\":1271:1307   */\n      tag_96\n        /* \"#utility.yul\":1297:1306   */\n      dup2\n        /* \"#utility.yul\":1271:1307   */\n      tag_61\n      jump\t// in\n    tag_96:\n        /* \"#utility.yul\":1323:1394   */\n      tag_97\n        /* \"#utility.yul\":1387:1393   */\n      dup2\n        /* \"#utility.yul\":1382:1385   */\n      dup7\n        /* \"#utility.yul\":1323:1394   */\n      tag_89\n      jump\t// in\n    tag_97:\n        /* \"#utility.yul\":1316:1394   */\n      swap5\n      pop\n        /* \"#utility.yul\":1425:1426   */\n      0x01\n        /* \"#utility.yul\":1414:1423   */\n      dup3\n        /* \"#utility.yul\":1410:1427   */\n      and\n        /* \"#utility.yul\":1441:1442   */\n      0x00\n        /* \"#utility.yul\":1436:1571   */\n      dup2\n      eq\n      tag_99\n      jumpi\n        /* \"#utility.yul\":1585:1586   */\n      0x01\n        /* \"#utility.yul\":1580:1916   */\n      dup2\n      eq\n      tag_100\n      jumpi\n        /* \"#utility.yul\":1403:1916   */\n      jump(tag_98)\n        /* \"#utility.yul\":1436:1571   */\n    tag_99:\n        /* \"#utility.yul\":1520:1524   */\n      0xff\n        /* \"#utility.yul\":1516:1525   */\n      not\n        /* \"#utility.yul\":1505:1514   */\n      dup4\n        /* \"#utility.yul\":1501:1526   */\n      and\n        /* \"#utility.yul\":1496:1499   */\n      dup7\n        /* \"#utility.yul\":1489:1527   */\n      mstore\n        /* \"#utility.yul\":1556:1560   */\n      0x20\n        /* \"#utility.yul\":1551:1554   */\n      dup7\n        /* \"#utility.yul\":1547:1561   */\n      add\n        /* \"#utility.yul\":1540:1561   */\n      swap4\n      pop\n        /* \"#utility.yul\":1436:1571   */\n      jump(tag_98)\n        /* \"#utility.yul\":1580:1916   */\n    tag_100:\n        /* \"#utility.yul\":1647:1685   */\n      tag_101\n        /* \"#utility.yul\":1679:1684   */\n      dup6\n        /* \"#utility.yul\":1647:1685   */\n      tag_102\n      jump\t// in\n    tag_101:\n        /* \"#utility.yul\":1707:1708   */\n      0x00\n        /* \"#utility.yul\":1721:1875   */\n    tag_103:\n        /* \"#utility.yul\":1735:1741   */\n      dup4\n        /* \"#utility.yul\":1732:1733   */\n      dup2\n        /* \"#utility.yul\":1729:1742   */\n      lt\n        /* \"#utility.yul\":1721:1875   */\n      iszero\n      tag_105\n      jumpi\n        /* \"#utility.yul\":1809:1816   */\n      dup2\n        /* \"#utility.yul\":1803:1817   */\n      sload\n        /* \"#utility.yul\":1799:1800   */\n      dup2\n        /* \"#utility.yul\":1794:1797   */\n      dup10\n        /* \"#utility.yul\":1790:1801   */\n      add\n        /* \"#utility.yul\":1783:1818   */\n      mstore\n        /* \"#utility.yul\":1859:1860   */\n      0x01\n        /* \"#utility.yul\":1850:1857   */\n      dup3\n        /* \"#utility.yul\":1846:1861   */\n      add\n        /* \"#utility.yul\":1835:1861   */\n      swap2\n      pop\n        /* \"#utility.yul\":1757:1761   */\n      0x20\n        /* \"#utility.yul\":1754:1755   */\n      dup2\n        /* \"#utility.yul\":1750:1762   */\n      add\n        /* \"#utility.yul\":1745:1762   */\n      swap1\n      pop\n        /* \"#utility.yul\":1721:1875   */\n      jump(tag_103)\n    tag_105:\n        /* \"#utility.yul\":1904:1905   */\n      dup1\n        /* \"#utility.yul\":1899:1902   */\n      dup9\n        /* \"#utility.yul\":1895:1906   */\n      add\n        /* \"#utility.yul\":1888:1906   */\n      swap6\n      pop\n        /* \"#utility.yul\":1587:1916   */\n      pop\n      pop\n        /* \"#utility.yul\":1403:1916   */\n    tag_98:\n      pop\n        /* \"#utility.yul\":1209:1922   */\n      pop\n      pop\n        /* \"#utility.yul\":1120:1922   */\n      swap3\n      swap2\n      pop\n      pop\n      jump\t// out\n        /* \"#utility.yul\":1928:2046   */\n    tag_106:\n        /* \"#utility.yul\":2015:2039   */\n      tag_108\n        /* \"#utility.yul\":2033:2038   */\n      dup2\n        /* \"#utility.yul\":2015:2039   */\n      tag_109\n      jump\t// in\n    tag_108:\n        /* \"#utility.yul\":2010:2013   */\n      dup3\n        /* \"#utility.yul\":2003:2040   */\n      mstore\n        /* \"#utility.yul\":1928:2046   */\n      pop\n      pop\n      jump\t// out\n        /* \"#utility.yul\":2052:2274   */\n    tag_31:\n        /* \"#utility.yul\":2145:2149   */\n      0x00\n        /* \"#utility.yul\":2183:2185   */\n      0x20\n        /* \"#utility.yul\":2172:2181   */\n      dup3\n        /* \"#utility.yul\":2168:2186   */\n      add\n        /* \"#utility.yul\":2160:2186   */\n      swap1\n      pop\n        /* \"#utility.yul\":2196:2267   */\n      tag_111\n        /* \"#utility.yul\":2264:2265   */\n      0x00\n        /* \"#utility.yul\":2253:2262   */\n      dup4\n        /* \"#utility.yul\":2249:2266   */\n      add\n        /* \"#utility.yul\":2240:2246   */\n      dup5\n        /* \"#utility.yul\":2196:2267   */\n      tag_76\n      jump\t// in\n    tag_111:\n        /* \"#utility.yul\":2052:2274   */\n      swap3\n      swap2\n      pop\n      pop\n      jump\t// out\n        /* \"#utility.yul\":2280:2490   */\n    tag_19:\n        /* \"#utility.yul\":2367:2371   */\n      0x00\n        /* \"#utility.yul\":2405:2407   */\n      0x20\n        /* \"#utility.yul\":2394:2403   */\n      dup3\n        /* \"#utility.yul\":2390:2408   */\n      add\n        /* \"#utility.yul\":2382:2408   */\n      swap1\n      pop\n        /* \"#utility.yul\":2418:2483   */\n      tag_113\n        /* \"#utility.yul\":2480:2481   */\n      0x00\n        /* \"#utility.yul\":2469:2478   */\n      dup4\n        /* \"#utility.yul\":2465:2482   */\n      add\n        /* \"#utility.yul\":2456:2462   */\n      dup5\n        /* \"#utility.yul\":2418:2483   */\n      tag_80\n      jump\t// in\n    tag_113:\n        /* \"#utility.yul\":2280:2490   */\n      swap3\n      swap2\n      pop\n      pop\n      jump\t// out\n        /* \"#utility.yul\":2496:2809   */\n    tag_40:\n        /* \"#utility.yul\":2609:2613   */\n      0x00\n        /* \"#utility.yul\":2647:2649   */\n      0x20\n        /* \"#utility.yul\":2636:2645   */\n      dup3\n        /* \"#utility.yul\":2632:2650   */\n      add\n        /* \"#utility.yul\":2624:2650   */\n      swap1\n      pop\n        /* \"#utility.yul\":2696:2705   */\n      dup2\n        /* \"#utility.yul\":2690:2694   */\n      dup2\n        /* \"#utility.yul\":2686:2706   */\n      sub\n        /* \"#utility.yul\":2682:2683   */\n      0x00\n        /* \"#utility.yul\":2671:2680   */\n      dup4\n        /* \"#utility.yul\":2667:2684   */\n      add\n        /* \"#utility.yul\":2660:2707   */\n      mstore\n        /* \"#utility.yul\":2724:2802   */\n      tag_115\n        /* \"#utility.yul\":2797:2801   */\n      dup2\n        /* \"#utility.yul\":2788:2794   */\n      dup5\n        /* \"#utility.yul\":2724:2802   */\n      tag_84\n      jump\t// in\n    tag_115:\n        /* \"#utility.yul\":2716:2802   */\n      swap1\n      pop\n        /* \"#utility.yul\":2496:2809   */\n      swap3\n      swap2\n      pop\n      pop\n      jump\t// out\n        /* \"#utility.yul\":2815:3122   */\n    tag_46:\n        /* \"#utility.yul\":2925:2929   */\n      0x00\n        /* \"#utility.yul\":2963:2965   */\n      0x20\n        /* \"#utility.yul\":2952:2961   */\n      dup3\n        /* \"#utility.yul\":2948:2966   */\n      add\n        /* \"#utility.yul\":2940:2966   */\n      swap1\n      pop\n        /* \"#utility.yul\":3012:3021   */\n      dup2\n        /* \"#utility.yul\":3006:3010   */\n      dup2\n        /* \"#utility.yul\":3002:3022   */\n      sub\n        /* \"#utility.yul\":2998:2999   */\n      0x00\n        /* \"#utility.yul\":2987:2996   */\n      dup4\n        /* \"#utility.yul\":2983:3000   */\n      add\n        /* \"#utility.yul\":2976:3023   */\n      mstore\n        /* \"#utility.yul\":3040:3115   */\n      tag_117\n        /* \"#utility.yul\":3110:3114   */\n      dup2\n        /* \"#utility.yul\":3101:3107   */\n      dup5\n        /* \"#utility.yul\":3040:3115   */\n      tag_94\n      jump\t// in\n    tag_117:\n        /* \"#utility.yul\":3032:3115   */\n      swap1\n      pop\n        /* \"#utility.yul\":2815:3122   */\n      swap3\n      swap2\n      pop\n      pop\n      jump\t// out\n        /* \"#utility.yul\":3128:3350   */\n    tag_27:\n        /* \"#utility.yul\":3221:3225   */\n      0x00\n        /* \"#utility.yul\":3259:3261   */\n      0x20\n        /* \"#utility.yul\":3248:3257   */\n      dup3\n        /* \"#utility.yul\":3244:3262   */\n      add\n        /* \"#utility.yul\":3236:3262   */\n      swap1\n      pop\n        /* \"#utility.yul\":3272:3343   */\n      tag_119\n        /* \"#utility.yul\":3340:3341   */\n      0x00\n        /* \"#utility.yul\":3329:3338   */\n      dup4\n        /* \"#utility.yul\":3325:3342   */\n      add\n        /* \"#utility.yul\":3316:3322   */\n      dup5\n        /* \"#utility.yul\":3272:3343   */\n      tag_106\n      jump\t// in\n    tag_119:\n        /* \"#utility.yul\":3128:3350   */\n      swap3\n      swap2\n      pop\n      pop\n      jump\t// out\n        /* \"#utility.yul\":3437:3578   */\n    tag_102:\n        /* \"#utility.yul\":3486:3490   */\n      0x00\n        /* \"#utility.yul\":3509:3512   */\n      dup2\n        /* \"#utility.yul\":3501:3512   */\n      swap1\n      pop\n        /* \"#utility.yul\":3532:3535   */\n      dup2\n        /* \"#utility.yul\":3529:3530   */\n      0x00\n        /* \"#utility.yul\":3522:3536   */\n      mstore\n        /* \"#utility.yul\":3566:3570   */\n      0x20\n        /* \"#utility.yul\":3563:3564   */\n      0x00\n        /* \"#utility.yul\":3553:3571   */\n      keccak256\n        /* \"#utility.yul\":3545:3571   */\n      swap1\n      pop\n        /* \"#utility.yul\":3437:3578   */\n      swap2\n      swap1\n      pop\n      jump\t// out\n        /* \"#utility.yul\":3584:3683   */\n    tag_87:\n        /* \"#utility.yul\":3636:3642   */\n      0x00\n        /* \"#utility.yul\":3670:3675   */\n      dup2\n        /* \"#utility.yul\":3664:3676   */\n      mload\n        /* \"#utility.yul\":3654:3676   */\n      swap1\n      pop\n        /* \"#utility.yul\":3584:3683   */\n      swap2\n      swap1\n      pop\n      jump\t// out\n        /* \"#utility.yul\":3689:3858   */\n    tag_89:\n        /* \"#utility.yul\":3773:3784   */\n      0x00\n        /* \"#utility.yul\":3807:3813   */\n      dup3\n        /* \"#utility.yul\":3802:3805   */\n      dup3\n        /* \"#utility.yul\":3795:3814   */\n      mstore\n        /* \"#utility.yul\":3847:3851   */\n      0x20\n        /* \"#utility.yul\":3842:3845   */\n      dup3\n        /* \"#utility.yul\":3838:3852   */\n      add\n        /* \"#utility.yul\":3823:3852   */\n      swap1\n      pop\n        /* \"#utility.yul\":3689:3858   */\n      swap3\n      swap2\n      pop\n      pop\n      jump\t// out\n        /* \"#utility.yul\":3864:3960   */\n    tag_79:\n        /* \"#utility.yul\":3901:3908   */\n      0x00\n        /* \"#utility.yul\":3930:3954   */\n      tag_126\n        /* \"#utility.yul\":3948:3953   */\n      dup3\n        /* \"#utility.yul\":3930:3954   */\n      tag_127\n      jump\t// in\n    tag_126:\n        /* \"#utility.yul\":3919:3954   */\n      swap1\n      pop\n        /* \"#utility.yul\":3864:3960   */\n      swap2\n      swap1\n      pop\n      jump\t// out\n        /* \"#utility.yul\":3966:4056   */\n    tag_83:\n        /* \"#utility.yul\":4000:4007   */\n      0x00\n        /* \"#utility.yul\":4043:4048   */\n      dup2\n        /* \"#utility.yul\":4036:4049   */\n      iszero\n        /* \"#utility.yul\":4029:4050   */\n      iszero\n        /* \"#utility.yul\":4018:4050   */\n      swap1\n      pop\n        /* \"#utility.yul\":3966:4056   */\n      swap2\n      swap1\n      pop\n      jump\t// out\n        /* \"#utility.yul\":4062:4188   */\n    tag_127:\n        /* \"#utility.yul\":4099:4106   */\n      0x00\n        /* \"#utility.yul\":4139:4181   */\n      0xffffffffffffffffffffffffffffffffffffffff\n        /* \"#utility.yul\":4132:4137   */\n      dup3\n        /* \"#utility.yul\":4128:4182   */\n      and\n        /* \"#utility.yul\":4117:4182   */\n      swap1\n      pop\n        /* \"#utility.yul\":4062:4188   */\n      swap2\n      swap1\n      pop\n      jump\t// out\n        /* \"#utility.yul\":4194:4271   */\n    tag_109:\n        /* \"#utility.yul\":4231:4238   */\n      0x00\n        /* \"#utility.yul\":4260:4265   */\n      dup2\n        /* \"#utility.yul\":4249:4265   */\n      swap1\n      pop\n        /* \"#utility.yul\":4194:4271   */\n      swap2\n      swap1\n      pop\n      jump\t// out\n        /* \"#utility.yul\":4277:4584   */\n    tag_91:\n        /* \"#utility.yul\":4345:4346   */\n      0x00\n        /* \"#utility.yul\":4355:4468   */\n    tag_132:\n        /* \"#utility.yul\":4369:4375   */\n      dup4\n        /* \"#utility.yul\":4366:4367   */\n      dup2\n        /* \"#utility.yul\":4363:4376   */\n      lt\n        /* \"#utility.yul\":4355:4468   */\n      iszero\n      tag_134\n      jumpi\n        /* \"#utility.yul\":4454:4455   */\n      dup1\n        /* \"#utility.yul\":4449:4452   */\n      dup3\n        /* \"#utility.yul\":4445:4456   */\n      add\n        /* \"#utility.yul\":4439:4457   */\n      mload\n        /* \"#utility.yul\":4435:4436   */\n      dup2\n        /* \"#utility.yul\":4430:4433   */\n      dup5\n        /* \"#utility.yul\":4426:4437   */\n      add\n        /* \"#utility.yul\":4419:4458   */\n      mstore\n        /* \"#utility.yul\":4391:4393   */\n      0x20\n        /* \"#utility.yul\":4388:4389   */\n      dup2\n        /* \"#utility.yul\":4384:4394   */\n      add\n        /* \"#utility.yul\":4379:4394   */\n      swap1\n      pop\n        /* \"#utility.yul\":4355:4468   */\n      jump(tag_132)\n    tag_134:\n        /* \"#utility.yul\":4486:4492   */\n      dup4\n        /* \"#utility.yul\":4483:4484   */\n      dup2\n        /* \"#utility.yul\":4480:4493   */\n      gt\n        /* \"#utility.yul\":4477:4578   */\n      iszero\n      tag_135\n      jumpi\n        /* \"#utility.yul\":4566:4567   */\n      0x00\n        /* \"#utility.yul\":4557:4563   */\n      dup5\n        /* \"#utility.yul\":4552:4555   */\n      dup5\n        /* \"#utility.yul\":4548:4564   */\n      add\n        /* \"#utility.yul\":4541:4568   */\n      mstore\n        /* \"#utility.yul\":4477:4578   */\n    tag_135:\n        /* \"#utility.yul\":4326:4584   */\n      pop\n        /* \"#utility.yul\":4277:4584   */\n      pop\n      pop\n      pop\n      jump\t// out\n        /* \"#utility.yul\":4590:4910   */\n    tag_61:\n        /* \"#utility.yul\":4634:4640   */\n      0x00\n        /* \"#utility.yul\":4671:4672   */\n      0x02\n        /* \"#utility.yul\":4665:4669   */\n      dup3\n        /* \"#utility.yul\":4661:4673   */\n      div\n        /* \"#utility.yul\":4651:4673   */\n      swap1\n      pop\n        /* \"#utility.yul\":4718:4719   */\n      0x01\n        /* \"#utility.yul\":4712:4716   */\n      dup3\n        /* \"#utility.yul\":4708:4720   */\n      and\n        /* \"#utility.yul\":4739:4757   */\n      dup1\n        /* \"#utility.yul\":4729:4810   */\n      tag_137\n      jumpi\n        /* \"#utility.yul\":4795:4799   */\n      0x7f\n        /* \"#utility.yul\":4787:4793   */\n      dup3\n        /* \"#utility.yul\":4783:4800   */\n      and\n        /* \"#utility.yul\":4773:4800   */\n      swap2\n      pop\n        /* \"#utility.yul\":4729:4810   */\n    tag_137:\n        /* \"#utility.yul\":4857:4859   */\n      0x20\n        /* \"#utility.yul\":4849:4855   */\n      dup3\n        /* \"#utility.yul\":4846:4860   */\n      lt\n        /* \"#utility.yul\":4826:4844   */\n      dup2\n        /* \"#utility.yul\":4823:4861   */\n      eq\n        /* \"#utility.yul\":4820:4904   */\n      iszero\n      tag_138\n      jumpi\n        /* \"#utility.yul\":4876:4894   */\n      tag_139\n      tag_140\n      jump\t// in\n    tag_139:\n        /* \"#utility.yul\":4820:4904   */\n    tag_138:\n        /* \"#utility.yul\":4641:4910   */\n      pop\n        /* \"#utility.yul\":4590:4910   */\n      swap2\n      swap1\n      pop\n      jump\t// out\n        /* \"#utility.yul\":4916:5096   */\n    tag_140:\n        /* \"#utility.yul\":4964:5041   */\n      0x4e487b7100000000000000000000000000000000000000000000000000000000\n        /* \"#utility.yul\":4961:4962   */\n      0x00\n        /* \"#utility.yul\":4954:5042   */\n      mstore\n        /* \"#utility.yul\":5061:5065   */\n      0x22\n        /* \"#utility.yul\":5058:5059   */\n      0x04\n        /* \"#utility.yul\":5051:5066   */\n      mstore\n        /* \"#utility.yul\":5085:5089   */\n      0x24\n        /* \"#utility.yul\":5082:5083   */\n      0x00\n        /* \"#utility.yul\":5075:5090   */\n      revert\n        /* \"#utility.yul\":5225:5342   */\n    tag_74:\n        /* \"#utility.yul\":5334:5335   */\n      0x00\n        /* \"#utility.yul\":5331:5332   */\n      dup1\n        /* \"#utility.yul\":5324:5336   */\n      revert\n        /* \"#utility.yul\":5348:5450   */\n    tag_93:\n        /* \"#utility.yul\":5389:5395   */\n      0x00\n        /* \"#utility.yul\":5440:5442   */\n      0x1f\n        /* \"#utility.yul\":5436:5443   */\n      not\n        /* \"#utility.yul\":5431:5433   */\n      0x1f\n        /* \"#utility.yul\":5424:5429   */\n      dup4\n        /* \"#utility.yul\":5420:5434   */\n      add\n        /* \"#utility.yul\":5416:5444   */\n      and\n        /* \"#utility.yul\":5406:5444   */\n      swap1\n      pop\n        /* \"#utility.yul\":5348:5450   */\n      swap2\n      swap1\n      pop\n      jump\t// out\n        /* \"#utility.yul\":5456:5578   */\n    tag_70:\n        /* \"#utility.yul\":5529:5553   */\n      tag_147\n        /* \"#utility.yul\":5547:5552   */\n      dup2\n        /* \"#utility.yul\":5529:5553   */\n      tag_79\n      jump\t// in\n    tag_147:\n        /* \"#utility.yul\":5522:5527   */\n      dup2\n        /* \"#utility.yul\":5519:5554   */\n      eq\n        /* \"#utility.yul\":5509:5572   */\n      tag_148\n      jumpi\n        /* \"#utility.yul\":5568:5569   */\n      0x00\n        /* \"#utility.yul\":5565:5566   */\n      dup1\n        /* \"#utility.yul\":5558:5570   */\n      revert\n        /* \"#utility.yul\":5509:5572   */\n    tag_148:\n        /* \"#utility.yul\":5456:5578   */\n      pop\n      jump\t// out\n\n    auxdata: 0xa264697066735822122080e51463a0dae41615e538700f245cadef023addc91df4daf5e07c195abfdcec64736f6c63430008070033\n}\n",
				"bytecode": {
					"linkReferences": {},
					"object": "60806040523480156200001157600080fd5b5060405162000f5038038062000f50833981810160405281019062000037919062000236565b336000806101000a81548173ffffffffffffffffffffffffffffffffffffffff021916908373ffffffffffffffffffffffffffffffffffffffff16021790555080600190805190602001906200008f92919062000108565b5060008054906101000a900473ffffffffffffffffffffffffffffffffffffffff1673ffffffffffffffffffffffffffffffffffffffff167f3d6aba6def46bd8784b0b6505c24d0aa59cd9316e6c5db593d3d8470797d7a3e6001604051620000f9919062000313565b60405180910390a250620004e1565b8280546200011690620003f2565b90600052602060002090601f0160209004810192826200013a576000855562000186565b82601f106200015557805160ff191683800117855562000186565b8280016001018555821562000186579182015b828111156200018557825182559160200191906001019062000168565b5b50905062000195919062000199565b5090565b5b80821115620001b45760008160009055506001016200019a565b5090565b6000620001cf620001c98462000360565b62000337565b905082815260208101848484011115620001ee57620001ed620004c1565b5b620001fb848285620003bc565b509392505050565b600082601f8301126200021b576200021a620004bc565b5b81516200022d848260208601620001b8565b91505092915050565b6000602082840312156200024f576200024e620004cb565b5b600082015167ffffffffffffffff81111562000270576200026f620004c6565b5b6200027e8482850162000203565b91505092915050565b600081546200029681620003f2565b620002a28186620003ab565b94506001821660008114620002c05760018114620002d3576200030a565b60ff19831686526020860193506200030a565b620002de8562000396565b60005b838110156200030257815481890152600182019150602081019050620002e1565b808801955050505b50505092915050565b600060208201905081810360008301526200032f818462000287565b905092915050565b60006200034362000356565b905062000351828262000428565b919050565b6000604051905090565b600067ffffffffffffffff8211156200037e576200037d6200048d565b5b6200038982620004d0565b9050602081019050919050565b60008190508160005260206000209050919050565b600082825260208201905092915050565b60005b83811015620003dc578082015181840152602081019050620003bf565b83811115620003ec576000848401525b50505050565b600060028204905060018216806200040b57607f821691505b602082108114156200042257620004216200045e565b5b50919050565b6200043382620004d0565b810181811067ffffffffffffffff821117156200045557620004546200048d565b5b80604052505050565b7f4e487b7100000000000000000000000000000000000000000000000000000000600052602260045260246000fd5b7f4e487b7100000000000000000000000000000000000000000000000000000000600052604160045260246000fd5b600080fd5b600080fd5b600080fd5b600080fd5b6000601f19601f8301169050919050565b610a5f80620004f16000396000f3fe608060405234801561001057600080fd5b50600436106100885760003560e01c8063893d20e81161005b578063893d20e814610115578063b001006314610133578063b2d64bda14610151578063cef2320c1461015b57610088565b80632fc10f041461008d57806334fda51a146100975780635dbc2be8146100c75780637ae6d76a146100f7575b600080fd5b610095610179565b005b6100b160048036038101906100ac9190610747565b61033c565b6040516100be9190610875565b60405180910390f35b6100e160048036038101906100dc9190610747565b6103eb565b6040516100ee9190610875565b60405180910390f35b6100ff61049a565b60405161010c91906108d4565b60405180910390f35b61011d6104a7565b60405161012a919061085a565b60405180910390f35b61013b6104d0565b60405161014891906108d4565b60405180910390f35b6101596104dd565b005b6101636106a0565b6040516101709190610890565b60405180910390f35b3373ffffffffffffffffffffffffffffffffffffffff1660008054906101000a900473ffffffffffffffffffffffffffffffffffffffff1673ffffffffffffffffffffffffffffffffffffffff1614156101d257600080fd5b60011515600460003373ffffffffffffffffffffffffffffffffffffffff1673ffffffffffffffffffffffffffffffffffffffff16815260200190815260200160002060009054906101000a900460ff161515141561023057600080fd5b6003339080600181540180825580915050600190039060005260206000200160009091909190916101000a81548173ffffffffffffffffffffffffffffffffffffffff021916908373ffffffffffffffffffffffffffffffffffffffff1602179055506001600560003373ffffffffffffffffffffffffffffffffffffffff1673ffffffffffffffffffffffffffffffffffffffff16815260200190815260200160002060006101000a81548160ff0219169083151502179055503373ffffffffffffffffffffffffffffffffffffffff167f9036bc06ad4a578f0132d89ba4adc07b9772275526730acc38d7e4b4c11872a3600160405161033291906108b2565b60405180910390a2565b60008173ffffffffffffffffffffffffffffffffffffffff1660008054906101000a900473ffffffffffffffffffffffffffffffffffffffff1673ffffffffffffffffffffffffffffffffffffffff16141561039757600080fd5b600560008373ffffffffffffffffffffffffffffffffffffffff1673ffffffffffffffffffffffffffffffffffffffff16815260200190815260200160002060009054906101000a900460ff169050919050565b60008173ffffffffffffffffffffffffffffffffffffffff1660008054906101000a900473ffffffffffffffffffffffffffffffffffffffff1673ffffffffffffffffffffffffffffffffffffffff16141561044657600080fd5b600460008373ffffffffffffffffffffffffffffffffffffffff1673ffffffffffffffffffffffffffffffffffffffff16815260200190815260200160002060009054906101000a900460ff169050919050565b6000600380549050905090565b60008060009054906101000a900473ffffffffffffffffffffffffffffffffffffffff16905090565b6000600280549050905090565b3373ffffffffffffffffffffffffffffffffffffffff1660008054906101000a900473ffffffffffffffffffffffffffffffffffffffff1673ffffffffffffffffffffffffffffffffffffffff16141561053657600080fd5b60011515600560003373ffffffffffffffffffffffffffffffffffffffff1673ffffffffffffffffffffffffffffffffffffffff16815260200190815260200160002060009054906101000a900460ff161515141561059457600080fd5b6002339080600181540180825580915050600190039060005260206000200160009091909190916101000a81548173ffffffffffffffffffffffffffffffffffffffff021916908373ffffffffffffffffffffffffffffffffffffffff1602179055506001600460003373ffffffffffffffffffffffffffffffffffffffff1673ffffffffffffffffffffffffffffffffffffffff16815260200190815260200160002060006101000a81548160ff0219169083151502179055503373ffffffffffffffffffffffffffffffffffffffff167f57d77eb32e87e8c65c7cec1df5b0e8a8d5c4eae1b40c7246e7668ed702dd247a600160405161069691906108b2565b60405180910390a2565b6060600180546106af9061099b565b80601f01602080910402602001604051908101604052809291908181526020018280546106db9061099b565b80156107285780601f106106fd57610100808354040283529160200191610728565b820191906000526020600020905b81548152906001019060200180831161070b57829003601f168201915b5050505050905090565b60008135905061074181610a12565b92915050565b60006020828403121561075d5761075c6109fc565b5b600061076b84828501610732565b91505092915050565b61077d81610920565b82525050565b61078c81610932565b82525050565b600061079d82610904565b6107a7818561090f565b93506107b7818560208601610968565b6107c081610a01565b840191505092915050565b600081546107d88161099b565b6107e2818661090f565b945060018216600081146107fd576001811461080f57610842565b60ff1983168652602086019350610842565b610818856108ef565b60005b8381101561083a5781548189015260018201915060208101905061081b565b808801955050505b50505092915050565b6108548161095e565b82525050565b600060208201905061086f6000830184610774565b92915050565b600060208201905061088a6000830184610783565b92915050565b600060208201905081810360008301526108aa8184610792565b905092915050565b600060208201905081810360008301526108cc81846107cb565b905092915050565b60006020820190506108e9600083018461084b565b92915050565b60008190508160005260206000209050919050565b600081519050919050565b600082825260208201905092915050565b600061092b8261093e565b9050919050565b60008115159050919050565b600073ffffffffffffffffffffffffffffffffffffffff82169050919050565b6000819050919050565b60005b8381101561098657808201518184015260208101905061096b565b83811115610995576000848401525b50505050565b600060028204905060018216806109b357607f821691505b602082108114156109c7576109c66109cd565b5b50919050565b7f4e487b7100000000000000000000000000000000000000000000000000000000600052602260045260246000fd5b600080fd5b6000601f19601f8301169050919050565b610a1b81610920565b8114610a2657600080fd5b5056fea264697066735822122080e51463a0dae41615e538700f245cadef023addc91df4daf5e07c195abfdcec64736f6c63430008070033",
					"opcodes": "PUSH1 0x80 PUSH1 0x40 MSTORE CALLVALUE DUP1 ISZERO PUSH3 0x11 JUMPI PUSH1 0x0 DUP1 REVERT JUMPDEST POP PUSH1 0x40 MLOAD PUSH3 0xF50 CODESIZE SUB DUP1 PUSH3 0xF50 DUP4 CODECOPY DUP2 DUP2 ADD PUSH1 0x40 MSTORE DUP2 ADD SWAP1 PUSH3 0x37 SWAP2 SWAP1 PUSH3 0x236 JUMP JUMPDEST CALLER PUSH1 0x0 DUP1 PUSH2 0x100 EXP DUP2 SLOAD DUP2 PUSH20 0xFFFFFFFFFFFFFFFFFFFFFFFFFFFFFFFFFFFFFFFF MUL NOT AND SWAP1 DUP4 PUSH20 0xFFFFFFFFFFFFFFFFFFFFFFFFFFFFFFFFFFFFFFFF AND MUL OR SWAP1 SSTORE POP DUP1 PUSH1 0x1 SWAP1 DUP1 MLOAD SWAP1 PUSH1 0x20 ADD SWAP1 PUSH3 0x8F SWAP3 SWAP2 SWAP1 PUSH3 0x108 JUMP JUMPDEST POP PUSH1 0x0 DUP1 SLOAD SWAP1 PUSH2 0x100 EXP SWAP1 DIV PUSH20 0xFFFFFFFFFFFFFFFFFFFFFFFFFFFFFFFFFFFFFFFF AND PUSH20 0xFFFFFFFFFFFFFFFFFFFFFFFFFFFFFFFFFFFFFFFF AND PUSH32 0x3D6ABA6DEF46BD8784B0B6505C24D0AA59CD9316E6C5DB593D3D8470797D7A3E PUSH1 0x1 PUSH1 0x40 MLOAD PUSH3 0xF9 SWAP2 SWAP1 PUSH3 0x313 JUMP JUMPDEST PUSH1 0x40 MLOAD DUP1 SWAP2 SUB SWAP1 LOG2 POP PUSH3 0x4E1 JUMP JUMPDEST DUP3 DUP1 SLOAD PUSH3 0x116 SWAP1 PUSH3 0x3F2 JUMP JUMPDEST SWAP1 PUSH1 0x0 MSTORE PUSH1 0x20 PUSH1 0x0 KECCAK256 SWAP1 PUSH1 0x1F ADD PUSH1 0x20 SWAP1 DIV DUP2 ADD SWAP3 DUP3 PUSH3 0x13A JUMPI PUSH1 0x0 DUP6 SSTORE PUSH3 0x186 JUMP JUMPDEST DUP3 PUSH1 0x1F LT PUSH3 0x155 JUMPI DUP1 MLOAD PUSH1 0xFF NOT AND DUP4 DUP1 ADD OR DUP6 SSTORE PUSH3 0x186 JUMP JUMPDEST DUP3 DUP1 ADD PUSH1 0x1 ADD DUP6 SSTORE DUP3 ISZERO PUSH3 0x186 JUMPI SWAP2 DUP3 ADD JUMPDEST DUP3 DUP2 GT ISZERO PUSH3 0x185 JUMPI DUP3 MLOAD DUP3 SSTORE SWAP2 PUSH1 0x20 ADD SWAP2 SWAP1 PUSH1 0x1 ADD SWAP1 PUSH3 0x168 JUMP JUMPDEST JUMPDEST POP SWAP1 POP PUSH3 0x195 SWAP2 SWAP1 PUSH3 0x199 JUMP JUMPDEST POP SWAP1 JUMP JUMPDEST JUMPDEST DUP1 DUP3 GT ISZERO PUSH3 0x1B4 JUMPI PUSH1 0x0 DUP2 PUSH1 0x0 SWAP1 SSTORE POP PUSH1 0x1 ADD PUSH3 0x19A JUMP JUMPDEST POP SWAP1 JUMP JUMPDEST PUSH1 0x0 PUSH3 0x1CF PUSH3 0x1C9 DUP5 PUSH3 0x360 JUMP JUMPDEST PUSH3 0x337 JUMP JUMPDEST SWAP1 POP DUP3 DUP2 MSTORE PUSH1 0x20 DUP2 ADD DUP5 DUP5 DUP5 ADD GT ISZERO PUSH3 0x1EE JUMPI PUSH3 0x1ED PUSH3 0x4C1 JUMP JUMPDEST JUMPDEST PUSH3 0x1FB DUP5 DUP3 DUP6 PUSH3 0x3BC JUMP JUMPDEST POP SWAP4 SWAP3 POP POP POP JUMP JUMPDEST PUSH1 0x0 DUP3 PUSH1 0x1F DUP4 ADD SLT PUSH3 0x21B JUMPI PUSH3 0x21A PUSH3 0x4BC JUMP JUMPDEST JUMPDEST DUP2 MLOAD PUSH3 0x22D DUP5 DUP3 PUSH1 0x20 DUP7 ADD PUSH3 0x1B8 JUMP JUMPDEST SWAP2 POP POP SWAP3 SWAP2 POP POP JUMP JUMPDEST PUSH1 0x0 PUSH1 0x20 DUP3 DUP5 SUB SLT ISZERO PUSH3 0x24F JUMPI PUSH3 0x24E PUSH3 0x4CB JUMP JUMPDEST JUMPDEST PUSH1 0x0 DUP3 ADD MLOAD PUSH8 0xFFFFFFFFFFFFFFFF DUP2 GT ISZERO PUSH3 0x270 JUMPI PUSH3 0x26F PUSH3 0x4C6 JUMP JUMPDEST JUMPDEST PUSH3 0x27E DUP5 DUP3 DUP6 ADD PUSH3 0x203 JUMP JUMPDEST SWAP2 POP POP SWAP3 SWAP2 POP POP JUMP JUMPDEST PUSH1 0x0 DUP2 SLOAD PUSH3 0x296 DUP2 PUSH3 0x3F2 JUMP JUMPDEST PUSH3 0x2A2 DUP2 DUP7 PUSH3 0x3AB JUMP JUMPDEST SWAP5 POP PUSH1 0x1 DUP3 AND PUSH1 0x0 DUP2 EQ PUSH3 0x2C0 JUMPI PUSH1 0x1 DUP2 EQ PUSH3 0x2D3 JUMPI PUSH3 0x30A JUMP JUMPDEST PUSH1 0xFF NOT DUP4 AND DUP7 MSTORE PUSH1 0x20 DUP7 ADD SWAP4 POP PUSH3 0x30A JUMP JUMPDEST PUSH3 0x2DE DUP6 PUSH3 0x396 JUMP JUMPDEST PUSH1 0x0 JUMPDEST DUP4 DUP2 LT ISZERO PUSH3 0x302 JUMPI DUP2 SLOAD DUP2 DUP10 ADD MSTORE PUSH1 0x1 DUP3 ADD SWAP2 POP PUSH1 0x20 DUP2 ADD SWAP1 POP PUSH3 0x2E1 JUMP JUMPDEST DUP1 DUP9 ADD SWAP6 POP POP POP JUMPDEST POP POP POP SWAP3 SWAP2 POP POP JUMP JUMPDEST PUSH1 0x0 PUSH1 0x20 DUP3 ADD SWAP1 POP DUP2 DUP2 SUB PUSH1 0x0 DUP4 ADD MSTORE PUSH3 0x32F DUP2 DUP5 PUSH3 0x287 JUMP JUMPDEST SWAP1 POP SWAP3 SWAP2 POP POP JUMP JUMPDEST PUSH1 0x0 PUSH3 0x343 PUSH3 0x356 JUMP JUMPDEST SWAP1 POP PUSH3 0x351 DUP3 DUP3 PUSH3 0x428 JUMP JUMPDEST SWAP2 SWAP1 POP JUMP JUMPDEST PUSH1 0x0 PUSH1 0x40 MLOAD SWAP1 POP SWAP1 JUMP JUMPDEST PUSH1 0x0 PUSH8 0xFFFFFFFFFFFFFFFF DUP3 GT ISZERO PUSH3 0x37E JUMPI PUSH3 0x37D PUSH3 0x48D JUMP JUMPDEST JUMPDEST PUSH3 0x389 DUP3 PUSH3 0x4D0 JUMP JUMPDEST SWAP1 POP PUSH1 0x20 DUP2 ADD SWAP1 POP SWAP2 SWAP1 POP JUMP JUMPDEST PUSH1 0x0 DUP2 SWAP1 POP DUP2 PUSH1 0x0 MSTORE PUSH1 0x20 PUSH1 0x0 KECCAK256 SWAP1 POP SWAP2 SWAP1 POP JUMP JUMPDEST PUSH1 0x0 DUP3 DUP3 MSTORE PUSH1 0x20 DUP3 ADD SWAP1 POP SWAP3 SWAP2 POP POP JUMP JUMPDEST PUSH1 0x0 JUMPDEST DUP4 DUP2 LT ISZERO PUSH3 0x3DC JUMPI DUP1 DUP3 ADD MLOAD DUP2 DUP5 ADD MSTORE PUSH1 0x20 DUP2 ADD SWAP1 POP PUSH3 0x3BF JUMP JUMPDEST DUP4 DUP2 GT ISZERO PUSH3 0x3EC JUMPI PUSH1 0x0 DUP5 DUP5 ADD MSTORE JUMPDEST POP POP POP POP JUMP JUMPDEST PUSH1 0x0 PUSH1 0x2 DUP3 DIV SWAP1 POP PUSH1 0x1 DUP3 AND DUP1 PUSH3 0x40B JUMPI PUSH1 0x7F DUP3 AND SWAP2 POP JUMPDEST PUSH1 0x20 DUP3 LT DUP2 EQ ISZERO PUSH3 0x422 JUMPI PUSH3 0x421 PUSH3 0x45E JUMP JUMPDEST JUMPDEST POP SWAP2 SWAP1 POP JUMP JUMPDEST PUSH3 0x433 DUP3 PUSH3 0x4D0 JUMP JUMPDEST DUP2 ADD DUP2 DUP2 LT PUSH8 0xFFFFFFFFFFFFFFFF DUP3 GT OR ISZERO PUSH3 0x455 JUMPI PUSH3 0x454 PUSH3 0x48D JUMP JUMPDEST JUMPDEST DUP1 PUSH1 0x40 MSTORE POP POP POP JUMP JUMPDEST PUSH32 0x4E487B7100000000000000000000000000000000000000000000000000000000 PUSH1 0x0 MSTORE PUSH1 0x22 PUSH1 0x4 MSTORE PUSH1 0x24 PUSH1 0x0 REVERT JUMPDEST PUSH32 0x4E487B7100000000000000000000000000000000000000000000000000000000 PUSH1 0x0 MSTORE PUSH1 0x41 PUSH1 0x4 MSTORE PUSH1 0x24 PUSH1 0x0 REVERT JUMPDEST PUSH1 0x0 DUP1 REVERT JUMPDEST PUSH1 0x0 DUP1 REVERT JUMPDEST PUSH1 0x0 DUP1 REVERT JUMPDEST PUSH1 0x0 DUP1 REVERT JUMPDEST PUSH1 0x0 PUSH1 0x1F NOT PUSH1 0x1F DUP4 ADD AND SWAP1 POP SWAP2 SWAP1 POP JUMP JUMPDEST PUSH2 0xA5F DUP1 PUSH3 0x4F1 PUSH1 0x0 CODECOPY PUSH1 0x0 RETURN INVALID PUSH1 0x80 PUSH1 0x40 MSTORE CALLVALUE DUP1 ISZERO PUSH2 0x10 JUMPI PUSH1 0x0 DUP1 REVERT JUMPDEST POP PUSH1 0x4 CALLDATASIZE LT PUSH2 0x88 JUMPI PUSH1 0x0 CALLDATALOAD PUSH1 0xE0 SHR DUP1 PUSH4 0x893D20E8 GT PUSH2 0x5B JUMPI DUP1 PUSH4 0x893D20E8 EQ PUSH2 0x115 JUMPI DUP1 PUSH4 0xB0010063 EQ PUSH2 0x133 JUMPI DUP1 PUSH4 0xB2D64BDA EQ PUSH2 0x151 JUMPI DUP1 PUSH4 0xCEF2320C EQ PUSH2 0x15B JUMPI PUSH2 0x88 JUMP JUMPDEST DUP1 PUSH4 0x2FC10F04 EQ PUSH2 0x8D JUMPI DUP1 PUSH4 0x34FDA51A EQ PUSH2 0x97 JUMPI DUP1 PUSH4 0x5DBC2BE8 EQ PUSH2 0xC7 JUMPI DUP1 PUSH4 0x7AE6D76A EQ PUSH2 0xF7 JUMPI JUMPDEST PUSH1 0x0 DUP1 REVERT JUMPDEST PUSH2 0x95 PUSH2 0x179 JUMP JUMPDEST STOP JUMPDEST PUSH2 0xB1 PUSH1 0x4 DUP1 CALLDATASIZE SUB DUP2 ADD SWAP1 PUSH2 0xAC SWAP2 SWAP1 PUSH2 0x747 JUMP JUMPDEST PUSH2 0x33C JUMP JUMPDEST PUSH1 0x40 MLOAD PUSH2 0xBE SWAP2 SWAP1 PUSH2 0x875 JUMP JUMPDEST PUSH1 0x40 MLOAD DUP1 SWAP2 SUB SWAP1 RETURN JUMPDEST PUSH2 0xE1 PUSH1 0x4 DUP1 CALLDATASIZE SUB DUP2 ADD SWAP1 PUSH2 0xDC SWAP2 SWAP1 PUSH2 0x747 JUMP JUMPDEST PUSH2 0x3EB JUMP JUMPDEST PUSH1 0x40 MLOAD PUSH2 0xEE SWAP2 SWAP1 PUSH2 0x875 JUMP JUMPDEST PUSH1 0x40 MLOAD DUP1 SWAP2 SUB SWAP1 RETURN JUMPDEST PUSH2 0xFF PUSH2 0x49A JUMP JUMPDEST PUSH1 0x40 MLOAD PUSH2 0x10C SWAP2 SWAP1 PUSH2 0x8D4 JUMP JUMPDEST PUSH1 0x40 MLOAD DUP1 SWAP2 SUB SWAP1 RETURN JUMPDEST PUSH2 0x11D PUSH2 0x4A7 JUMP JUMPDEST PUSH1 0x40 MLOAD PUSH2 0x12A SWAP2 SWAP1 PUSH2 0x85A JUMP JUMPDEST PUSH1 0x40 MLOAD DUP1 SWAP2 SUB SWAP1 RETURN JUMPDEST PUSH2 0x13B PUSH2 0x4D0 JUMP JUMPDEST PUSH1 0x40 MLOAD PUSH2 0x148 SWAP2 SWAP1 PUSH2 0x8D4 JUMP JUMPDEST PUSH1 0x40 MLOAD DUP1 SWAP2 SUB SWAP1 RETURN JUMPDEST PUSH2 0x159 PUSH2 0x4DD JUMP JUMPDEST STOP JUMPDEST PUSH2 0x163 PUSH2 0x6A0 JUMP JUMPDEST PUSH1 0x40 MLOAD PUSH2 0x170 SWAP2 SWAP1 PUSH2 0x890 JUMP JUMPDEST PUSH1 0x40 MLOAD DUP1 SWAP2 SUB SWAP1 RETURN JUMPDEST CALLER PUSH20 0xFFFFFFFFFFFFFFFFFFFFFFFFFFFFFFFFFFFFFFFF AND PUSH1 0x0 DUP1 SLOAD SWAP1 PUSH2 0x100 EXP SWAP1 DIV PUSH20 0xFFFFFFFFFFFFFFFFFFFFFFFFFFFFFFFFFFFFFFFF AND PUSH20 0xFFFFFFFFFFFFFFFFFFFFFFFFFFFFFFFFFFFFFFFF AND EQ ISZERO PUSH2 0x1D2 JUMPI PUSH1 0x0 DUP1 REVERT JUMPDEST PUSH1 0x1 ISZERO ISZERO PUSH1 0x4 PUSH1 0x0 CALLER PUSH20 0xFFFFFFFFFFFFFFFFFFFFFFFFFFFFFFFFFFFFFFFF AND PUSH20 0xFFFFFFFFFFFFFFFFFFFFFFFFFFFFFFFFFFFFFFFF AND DUP2 MSTORE PUSH1 0x20 ADD SWAP1 DUP2 MSTORE PUSH1 0x20 ADD PUSH1 0x0 KECCAK256 PUSH1 0x0 SWAP1 SLOAD SWAP1 PUSH2 0x100 EXP SWAP1 DIV PUSH1 0xFF AND ISZERO ISZERO EQ ISZERO PUSH2 0x230 JUMPI PUSH1 0x0 DUP1 REVERT JUMPDEST PUSH1 0x3 CALLER SWAP1 DUP1 PUSH1 0x1 DUP2 SLOAD ADD DUP1 DUP3 SSTORE DUP1 SWAP2 POP POP PUSH1 0x1 SWAP1 SUB SWAP1 PUSH1 0x0 MSTORE PUSH1 0x20 PUSH1 0x0 KECCAK256 ADD PUSH1 0x0 SWAP1 SWAP2 SWAP1 SWAP2 SWAP1 SWAP2 PUSH2 0x100 EXP DUP2 SLOAD DUP2 PUSH20 0xFFFFFFFFFFFFFFFFFFFFFFFFFFFFFFFFFFFFFFFF MUL NOT AND SWAP1 DUP4 PUSH20 0xFFFFFFFFFFFFFFFFFFFFFFFFFFFFFFFFFFFFFFFF AND MUL OR SWAP1 SSTORE POP PUSH1 0x1 PUSH1 0x5 PUSH1 0x0 CALLER PUSH20 0xFFFFFFFFFFFFFFFFFFFFFFFFFFFFFFFFFFFFFFFF AND PUSH20 0xFFFFFFFFFFFFFFFFFFFFFFFFFFFFFFFFFFFFFFFF AND DUP2 MSTORE PUSH1 0x20 ADD SWAP1 DUP2 MSTORE PUSH1 0x20 ADD PUSH1 0x0 KECCAK256 PUSH1 0x0 PUSH2 0x100 EXP DUP2 SLOAD DUP2 PUSH1 0xFF MUL NOT AND SWAP1 DUP4 ISZERO ISZERO MUL OR SWAP1 SSTORE POP CALLER PUSH20 0xFFFFFFFFFFFFFFFFFFFFFFFFFFFFFFFFFFFFFFFF AND PUSH32 0x9036BC06AD4A578F0132D89BA4ADC07B9772275526730ACC38D7E4B4C11872A3 PUSH1 0x1 PUSH1 0x40 MLOAD PUSH2 0x332 SWAP2 SWAP1 PUSH2 0x8B2 JUMP JUMPDEST PUSH1 0x40 MLOAD DUP1 SWAP2 SUB SWAP1 LOG2 JUMP JUMPDEST PUSH1 0x0 DUP2 PUSH20 0xFFFFFFFFFFFFFFFFFFFFFFFFFFFFFFFFFFFFFFFF AND PUSH1 0x0 DUP1 SLOAD SWAP1 PUSH2 0x100 EXP SWAP1 DIV PUSH20 0xFFFFFFFFFFFFFFFFFFFFFFFFFFFFFFFFFFFFFFFF AND PUSH20 0xFFFFFFFFFFFFFFFFFFFFFFFFFFFFFFFFFFFFFFFF AND EQ ISZERO PUSH2 0x397 JUMPI PUSH1 0x0 DUP1 REVERT JUMPDEST PUSH1 0x5 PUSH1 0x0 DUP4 PUSH20 0xFFFFFFFFFFFFFFFFFFFFFFFFFFFFFFFFFFFFFFFF AND PUSH20 0xFFFFFFFFFFFFFFFFFFFFFFFFFFFFFFFFFFFFFFFF AND DUP2 MSTORE PUSH1 0x20 ADD SWAP1 DUP2 MSTORE PUSH1 0x20 ADD PUSH1 0x0 KECCAK256 PUSH1 0x0 SWAP1 SLOAD SWAP1 PUSH2 0x100 EXP SWAP1 DIV PUSH1 0xFF AND SWAP1 POP SWAP2 SWAP1 POP JUMP JUMPDEST PUSH1 0x0 DUP2 PUSH20 0xFFFFFFFFFFFFFFFFFFFFFFFFFFFFFFFFFFFFFFFF AND PUSH1 0x0 DUP1 SLOAD SWAP1 PUSH2 0x100 EXP SWAP1 DIV PUSH20 0xFFFFFFFFFFFFFFFFFFFFFFFFFFFFFFFFFFFFFFFF AND PUSH20 0xFFFFFFFFFFFFFFFFFFFFFFFFFFFFFFFFFFFFFFFF AND EQ ISZERO PUSH2 0x446 JUMPI PUSH1 0x0 DUP1 REVERT JUMPDEST PUSH1 0x4 PUSH1 0x0 DUP4 PUSH20 0xFFFFFFFFFFFFFFFFFFFFFFFFFFFFFFFFFFFFFFFF AND PUSH20 0xFFFFFFFFFFFFFFFFFFFFFFFFFFFFFFFFFFFFFFFF AND DUP2 MSTORE PUSH1 0x20 ADD SWAP1 DUP2 MSTORE PUSH1 0x20 ADD PUSH1 0x0 KECCAK256 PUSH1 0x0 SWAP1 SLOAD SWAP1 PUSH2 0x100 EXP SWAP1 DIV PUSH1 0xFF AND SWAP1 POP SWAP2 SWAP1 POP JUMP JUMPDEST PUSH1 0x0 PUSH1 0x3 DUP1 SLOAD SWAP1 POP SWAP1 POP SWAP1 JUMP JUMPDEST PUSH1 0x0 DUP1 PUSH1 0x0 SWAP1 SLOAD SWAP1 PUSH2 0x100 EXP SWAP1 DIV PUSH20 0xFFFFFFFFFFFFFFFFFFFFFFFFFFFFFFFFFFFFFFFF AND SWAP1 POP SWAP1 JUMP JUMPDEST PUSH1 0x0 PUSH1 0x2 DUP1 SLOAD SWAP1 POP SWAP1 POP SWAP1 JUMP JUMPDEST CALLER PUSH20 0xFFFFFFFFFFFFFFFFFFFFFFFFFFFFFFFFFFFFFFFF AND PUSH1 0x0 DUP1 SLOAD SWAP1 PUSH2 0x100 EXP SWAP1 DIV PUSH20 0xFFFFFFFFFFFFFFFFFFFFFFFFFFFFFFFFFFFFFFFF AND PUSH20 0xFFFFFFFFFFFFFFFFFFFFFFFFFFFFFFFFFFFFFFFF AND EQ ISZERO PUSH2 0x536 JUMPI PUSH1 0x0 DUP1 REVERT JUMPDEST PUSH1 0x1 ISZERO ISZERO PUSH1 0x5 PUSH1 0x0 CALLER PUSH20 0xFFFFFFFFFFFFFFFFFFFFFFFFFFFFFFFFFFFFFFFF AND PUSH20 0xFFFFFFFFFFFFFFFFFFFFFFFFFFFFFFFFFFFFFFFF AND DUP2 MSTORE PUSH1 0x20 ADD SWAP1 DUP2 MSTORE PUSH1 0x20 ADD PUSH1 0x0 KECCAK256 PUSH1 0x0 SWAP1 SLOAD SWAP1 PUSH2 0x100 EXP SWAP1 DIV PUSH1 0xFF AND ISZERO ISZERO EQ ISZERO PUSH2 0x594 JUMPI PUSH1 0x0 DUP1 REVERT JUMPDEST PUSH1 0x2 CALLER SWAP1 DUP1 PUSH1 0x1 DUP2 SLOAD ADD DUP1 DUP3 SSTORE DUP1 SWAP2 POP POP PUSH1 0x1 SWAP1 SUB SWAP1 PUSH1 0x0 MSTORE PUSH1 0x20 PUSH1 0x0 KECCAK256 ADD PUSH1 0x0 SWAP1 SWAP2 SWAP1 SWAP2 SWAP1 SWAP2 PUSH2 0x100 EXP DUP2 SLOAD DUP2 PUSH20 0xFFFFFFFFFFFFFFFFFFFFFFFFFFFFFFFFFFFFFFFF MUL NOT AND SWAP1 DUP4 PUSH20 0xFFFFFFFFFFFFFFFFFFFFFFFFFFFFFFFFFFFFFFFF AND MUL OR SWAP1 SSTORE POP PUSH1 0x1 PUSH1 0x4 PUSH1 0x0 CALLER PUSH20 0xFFFFFFFFFFFFFFFFFFFFFFFFFFFFFFFFFFFFFFFF AND PUSH20 0xFFFFFFFFFFFFFFFFFFFFFFFFFFFFFFFFFFFFFFFF AND DUP2 MSTORE PUSH1 0x20 ADD SWAP1 DUP2 MSTORE PUSH1 0x20 ADD PUSH1 0x0 KECCAK256 PUSH1 0x0 PUSH2 0x100 EXP DUP2 SLOAD DUP2 PUSH1 0xFF MUL NOT AND SWAP1 DUP4 ISZERO ISZERO MUL OR SWAP1 SSTORE POP CALLER PUSH20 0xFFFFFFFFFFFFFFFFFFFFFFFFFFFFFFFFFFFFFFFF AND PUSH32 0x57D77EB32E87E8C65C7CEC1DF5B0E8A8D5C4EAE1B40C7246E7668ED702DD247A PUSH1 0x1 PUSH1 0x40 MLOAD PUSH2 0x696 SWAP2 SWAP1 PUSH2 0x8B2 JUMP JUMPDEST PUSH1 0x40 MLOAD DUP1 SWAP2 SUB SWAP1 LOG2 JUMP JUMPDEST PUSH1 0x60 PUSH1 0x1 DUP1 SLOAD PUSH2 0x6AF SWAP1 PUSH2 0x99B JUMP JUMPDEST DUP1 PUSH1 0x1F ADD PUSH1 0x20 DUP1 SWAP2 DIV MUL PUSH1 0x20 ADD PUSH1 0x40 MLOAD SWAP1 DUP2 ADD PUSH1 0x40 MSTORE DUP1 SWAP3 SWAP2 SWAP1 DUP2 DUP2 MSTORE PUSH1 0x20 ADD DUP3 DUP1 SLOAD PUSH2 0x6DB SWAP1 PUSH2 0x99B JUMP JUMPDEST DUP1 ISZERO PUSH2 0x728 JUMPI DUP1 PUSH1 0x1F LT PUSH2 0x6FD JUMPI PUSH2 0x100 DUP1 DUP4 SLOAD DIV MUL DUP4 MSTORE SWAP2 PUSH1 0x20 ADD SWAP2 PUSH2 0x728 JUMP JUMPDEST DUP3 ADD SWAP2 SWAP1 PUSH1 0x0 MSTORE PUSH1 0x20 PUSH1 0x0 KECCAK256 SWAP1 JUMPDEST DUP2 SLOAD DUP2 MSTORE SWAP1 PUSH1 0x1 ADD SWAP1 PUSH1 0x20 ADD DUP1 DUP4 GT PUSH2 0x70B JUMPI DUP3 SWAP1 SUB PUSH1 0x1F AND DUP3 ADD SWAP2 JUMPDEST POP POP POP POP POP SWAP1 POP SWAP1 JUMP JUMPDEST PUSH1 0x0 DUP2 CALLDATALOAD SWAP1 POP PUSH2 0x741 DUP2 PUSH2 0xA12 JUMP JUMPDEST SWAP3 SWAP2 POP POP JUMP JUMPDEST PUSH1 0x0 PUSH1 0x20 DUP3 DUP5 SUB SLT ISZERO PUSH2 0x75D JUMPI PUSH2 0x75C PUSH2 0x9FC JUMP JUMPDEST JUMPDEST PUSH1 0x0 PUSH2 0x76B DUP5 DUP3 DUP6 ADD PUSH2 0x732 JUMP JUMPDEST SWAP2 POP POP SWAP3 SWAP2 POP POP JUMP JUMPDEST PUSH2 0x77D DUP2 PUSH2 0x920 JUMP JUMPDEST DUP3 MSTORE POP POP JUMP JUMPDEST PUSH2 0x78C DUP2 PUSH2 0x932 JUMP JUMPDEST DUP3 MSTORE POP POP JUMP JUMPDEST PUSH1 0x0 PUSH2 0x79D DUP3 PUSH2 0x904 JUMP JUMPDEST PUSH2 0x7A7 DUP2 DUP6 PUSH2 0x90F JUMP JUMPDEST SWAP4 POP PUSH2 0x7B7 DUP2 DUP6 PUSH1 0x20 DUP7 ADD PUSH2 0x968 JUMP JUMPDEST PUSH2 0x7C0 DUP2 PUSH2 0xA01 JUMP JUMPDEST DUP5 ADD SWAP2 POP POP SWAP3 SWAP2 POP POP JUMP JUMPDEST PUSH1 0x0 DUP2 SLOAD PUSH2 0x7D8 DUP2 PUSH2 0x99B JUMP JUMPDEST PUSH2 0x7E2 DUP2 DUP7 PUSH2 0x90F JUMP JUMPDEST SWAP5 POP PUSH1 0x1 DUP3 AND PUSH1 0x0 DUP2 EQ PUSH2 0x7FD JUMPI PUSH1 0x1 DUP2 EQ PUSH2 0x80F JUMPI PUSH2 0x842 JUMP JUMPDEST PUSH1 0xFF NOT DUP4 AND DUP7 MSTORE PUSH1 0x20 DUP7 ADD SWAP4 POP PUSH2 0x842 JUMP JUMPDEST PUSH2 0x818 DUP6 PUSH2 0x8EF JUMP JUMPDEST PUSH1 0x0 JUMPDEST DUP4 DUP2 LT ISZERO PUSH2 0x83A JUMPI DUP2 SLOAD DUP2 DUP10 ADD MSTORE PUSH1 0x1 DUP3 ADD SWAP2 POP PUSH1 0x20 DUP2 ADD SWAP1 POP PUSH2 0x81B JUMP JUMPDEST DUP1 DUP9 ADD SWAP6 POP POP POP JUMPDEST POP POP POP SWAP3 SWAP2 POP POP JUMP JUMPDEST PUSH2 0x854 DUP2 PUSH2 0x95E JUMP JUMPDEST DUP3 MSTORE POP POP JUMP JUMPDEST PUSH1 0x0 PUSH1 0x20 DUP3 ADD SWAP1 POP PUSH2 0x86F PUSH1 0x0 DUP4 ADD DUP5 PUSH2 0x774 JUMP JUMPDEST SWAP3 SWAP2 POP POP JUMP JUMPDEST PUSH1 0x0 PUSH1 0x20 DUP3 ADD SWAP1 POP PUSH2 0x88A PUSH1 0x0 DUP4 ADD DUP5 PUSH2 0x783 JUMP JUMPDEST SWAP3 SWAP2 POP POP JUMP JUMPDEST PUSH1 0x0 PUSH1 0x20 DUP3 ADD SWAP1 POP DUP2 DUP2 SUB PUSH1 0x0 DUP4 ADD MSTORE PUSH2 0x8AA DUP2 DUP5 PUSH2 0x792 JUMP JUMPDEST SWAP1 POP SWAP3 SWAP2 POP POP JUMP JUMPDEST PUSH1 0x0 PUSH1 0x20 DUP3 ADD SWAP1 POP DUP2 DUP2 SUB PUSH1 0x0 DUP4 ADD MSTORE PUSH2 0x8CC DUP2 DUP5 PUSH2 0x7CB JUMP JUMPDEST SWAP1 POP SWAP3 SWAP2 POP POP JUMP JUMPDEST PUSH1 0x0 PUSH1 0x20 DUP3 ADD SWAP1 POP PUSH2 0x8E9 PUSH1 0x0 DUP4 ADD DUP5 PUSH2 0x84B JUMP JUMPDEST SWAP3 SWAP2 POP POP JUMP JUMPDEST PUSH1 0x0 DUP2 SWAP1 POP DUP2 PUSH1 0x0 MSTORE PUSH1 0x20 PUSH1 0x0 KECCAK256 SWAP1 POP SWAP2 SWAP1 POP JUMP JUMPDEST PUSH1 0x0 DUP2 MLOAD SWAP1 POP SWAP2 SWAP1 POP JUMP JUMPDEST PUSH1 0x0 DUP3 DUP3 MSTORE PUSH1 0x20 DUP3 ADD SWAP1 POP SWAP3 SWAP2 POP POP JUMP JUMPDEST PUSH1 0x0 PUSH2 0x92B DUP3 PUSH2 0x93E JUMP JUMPDEST SWAP1 POP SWAP2 SWAP1 POP JUMP JUMPDEST PUSH1 0x0 DUP2 ISZERO ISZERO SWAP1 POP SWAP2 SWAP1 POP JUMP JUMPDEST PUSH1 0x0 PUSH20 0xFFFFFFFFFFFFFFFFFFFFFFFFFFFFFFFFFFFFFFFF DUP3 AND SWAP1 POP SWAP2 SWAP1 POP JUMP JUMPDEST PUSH1 0x0 DUP2 SWAP1 POP SWAP2 SWAP1 POP JUMP JUMPDEST PUSH1 0x0 JUMPDEST DUP4 DUP2 LT ISZERO PUSH2 0x986 JUMPI DUP1 DUP3 ADD MLOAD DUP2 DUP5 ADD MSTORE PUSH1 0x20 DUP2 ADD SWAP1 POP PUSH2 0x96B JUMP JUMPDEST DUP4 DUP2 GT ISZERO PUSH2 0x995 JUMPI PUSH1 0x0 DUP5 DUP5 ADD MSTORE JUMPDEST POP POP POP POP JUMP JUMPDEST PUSH1 0x0 PUSH1 0x2 DUP3 DIV SWAP1 POP PUSH1 0x1 DUP3 AND DUP1 PUSH2 0x9B3 JUMPI PUSH1 0x7F DUP3 AND SWAP2 POP JUMPDEST PUSH1 0x20 DUP3 LT DUP2 EQ ISZERO PUSH2 0x9C7 JUMPI PUSH2 0x9C6 PUSH2 0x9CD JUMP JUMPDEST JUMPDEST POP SWAP2 SWAP1 POP JUMP JUMPDEST PUSH32 0x4E487B7100000000000000000000000000000000000000000000000000000000 PUSH1 0x0 MSTORE PUSH1 0x22 PUSH1 0x4 MSTORE PUSH1 0x24 PUSH1 0x0 REVERT JUMPDEST PUSH1 0x0 DUP1 REVERT JUMPDEST PUSH1 0x0 PUSH1 0x1F NOT PUSH1 0x1F DUP4 ADD AND SWAP1 POP SWAP2 SWAP1 POP JUMP JUMPDEST PUSH2 0xA1B DUP2 PUSH2 0x920 JUMP JUMPDEST DUP2 EQ PUSH2 0xA26 JUMPI PUSH1 0x0 DUP1 REVERT JUMPDEST POP JUMP INVALID LOG2 PUSH5 0x6970667358 0x22 SLT KECCAK256 DUP1 0xE5 EQ PUSH4 0xA0DAE416 ISZERO 0xE5 CODESIZE PUSH17 0xF245CADEF023ADDC91DF4DAF5E07C195A 0xBF 0xDC 0xEC PUSH5 0x736F6C6343 STOP ADDMOD SMOD STOP CALLER "
				},
				"gasEstimates": {
					"creation": {
						"codeDepositCost": "531000",
						"executionCost": "infinite",
						"totalCost": "infinite"
					},
					"external": {
						"denegarDocument()": "infinite",
						"getFilename()": "infinite",
						"getNumberOfDenegations()": "2512",
						"getNumberOfValidations()": "2467",
						"getOwner()": "2522",
						"haDenegat(address)": "5077",
						"haValidat(address)": "5099",
						"validarDocument()": "infinite"
					}
				},
				"methodIdentifiers": {
					"denegarDocument()": "2fc10f04",
					"getFilename()": "cef2320c",
					"getNumberOfDenegations()": "7ae6d76a",
					"getNumberOfValidations()": "b0010063",
					"getOwner()": "893d20e8",
					"haDenegat(address)": "34fda51a",
					"haValidat(address)": "5dbc2be8",
					"validarDocument()": "b2d64bda"
				}
			},
			"storageLayout": {
				"storage": [
					{
						"astId": 3,
						"contract": "PFG/Verificador.sol:Verificacio",
						"label": "propietari",
						"offset": 0,
						"slot": "0",
						"type": "t_address"
					},
					{
						"astId": 5,
						"contract": "PFG/Verificador.sol:Verificacio",
						"label": "filename",
						"offset": 0,
						"slot": "1",
						"type": "t_string_storage"
					},
					{
						"astId": 8,
						"contract": "PFG/Verificador.sol:Verificacio",
						"label": "validadors",
						"offset": 0,
						"slot": "2",
						"type": "t_array(t_address)dyn_storage"
					},
					{
						"astId": 11,
						"contract": "PFG/Verificador.sol:Verificacio",
						"label": "denegadors",
						"offset": 0,
						"slot": "3",
						"type": "t_array(t_address)dyn_storage"
					},
					{
						"astId": 15,
						"contract": "PFG/Verificador.sol:Verificacio",
						"label": "validacions",
						"offset": 0,
						"slot": "4",
						"type": "t_mapping(t_address,t_bool)"
					},
					{
						"astId": 19,
						"contract": "PFG/Verificador.sol:Verificacio",
						"label": "denegacions",
						"offset": 0,
						"slot": "5",
						"type": "t_mapping(t_address,t_bool)"
					}
				],
				"types": {
					"t_address": {
						"encoding": "inplace",
						"label": "address",
						"numberOfBytes": "20"
					},
					"t_array(t_address)dyn_storage": {
						"base": "t_address",
						"encoding": "dynamic_array",
						"label": "address[]",
						"numberOfBytes": "32"
					},
					"t_bool": {
						"encoding": "inplace",
						"label": "bool",
						"numberOfBytes": "1"
					},
					"t_mapping(t_address,t_bool)": {
						"encoding": "mapping",
						"key": "t_address",
						"label": "mapping(address => bool)",
						"numberOfBytes": "32",
						"value": "t_bool"
					},
					"t_string_storage": {
						"encoding": "bytes",
						"label": "string",
						"numberOfBytes": "32"
					}
				}
			},
			"userdoc": {
				"kind": "user",
				"methods": {},
				"version": 1
			}
		}
	}
}