{
	"PFG/Interest.sol": {
		"Interest": {
			"abi": [
				{
					"inputs": [
						{
							"internalType": "uint256",
							"name": "_init",
							"type": "uint256"
						}
					],
					"stateMutability": "nonpayable",
					"type": "constructor"
				},
				{
					"inputs": [
						{
							"internalType": "uint256",
							"name": "val",
							"type": "uint256"
						},
						{
							"internalType": "uint256",
							"name": "col",
							"type": "uint256"
						}
					],
					"name": "adjustIntCol",
					"outputs": [],
					"stateMutability": "nonpayable",
					"type": "function"
				},
				{
					"inputs": [],
					"name": "adjustIntDoc",
					"outputs": [],
					"stateMutability": "nonpayable",
					"type": "function"
				},
				{
					"inputs": [],
					"name": "adjustIntVerify",
					"outputs": [],
					"stateMutability": "nonpayable",
					"type": "function"
				},
				{
					"inputs": [
						{
							"internalType": "uint256",
							"name": "amount",
							"type": "uint256"
						}
					],
					"name": "mul",
					"outputs": [
						{
							"internalType": "uint256",
							"name": "",
							"type": "uint256"
						}
					],
					"stateMutability": "view",
					"type": "function"
				},
				{
					"inputs": [],
					"name": "rate",
					"outputs": [
						{
							"internalType": "uint256",
							"name": "",
							"type": "uint256"
						}
					],
					"stateMutability": "view",
					"type": "function"
				}
			],
			"devdoc": {
				"kind": "dev",
				"methods": {},
				"version": 1
			},
			"evm": {
				"assembly": "    /* \"PFG/Interest.sol\":66:1484  contract Interest {... */\n  mstore(0x40, 0x80)\n    /* \"PFG/Interest.sol\":219:371  constructor(uint256 _init){... */\n  callvalue\n  dup1\n  iszero\n  tag_1\n  jumpi\n  0x00\n  dup1\n  revert\ntag_1:\n  pop\n  mload(0x40)\n  sub(codesize, bytecodeSize)\n  dup1\n  bytecodeSize\n  dup4\n  codecopy\n  dup2\n  dup2\n  add\n  0x40\n  mstore\n  dup2\n  add\n  swap1\n  tag_2\n  swap2\n  swap1\n  tag_3\n  jump\t// in\ntag_2:\n    /* \"PFG/Interest.sol\":262:264  18 */\n  0x12\n    /* \"PFG/Interest.sol\":256:259  dec */\n  0x01\n    /* \"PFG/Interest.sol\":256:264  dec = 18 */\n  dup2\n  swap1\n  sstore\n  pop\n    /* \"PFG/Interest.sol\":296:299  dec */\n  sload(0x01)\n    /* \"PFG/Interest.sol\":290:292  10 */\n  0x0a\n    /* \"PFG/Interest.sol\":290:299  10 ** dec */\n  tag_6\n  swap2\n  swap1\n  tag_7\n  jump\t// in\ntag_6:\n    /* \"PFG/Interest.sol\":282:287  _init */\n  dup2\n    /* \"PFG/Interest.sol\":282:299  _init * 10 ** dec */\n  tag_8\n  swap2\n  swap1\n  tag_9\n  jump\t// in\ntag_8:\n    /* \"PFG/Interest.sol\":275:279  rate */\n  0x00\n    /* \"PFG/Interest.sol\":275:299  rate = _init * 10 ** dec */\n  dup2\n  swap1\n  sstore\n  pop\n    /* \"PFG/Interest.sol\":327:332  false */\n  0x00\n    /* \"PFG/Interest.sol\":310:324  collateralOnce */\n  0x02\n  0x00\n    /* \"PFG/Interest.sol\":310:332  collateralOnce = false */\n  0x0100\n  exp\n  dup2\n  sload\n  dup2\n  0xff\n  mul\n  not\n  and\n  swap1\n  dup4\n  iszero\n  iszero\n  mul\n  or\n  swap1\n  sstore\n  pop\n    /* \"PFG/Interest.sol\":358:363  false */\n  0x00\n    /* \"PFG/Interest.sol\":343:355  verifiedOnce */\n  0x02\n  0x01\n    /* \"PFG/Interest.sol\":343:363  verifiedOnce = false */\n  0x0100\n  exp\n  dup2\n  sload\n  dup2\n  0xff\n  mul\n  not\n  and\n  swap1\n  dup4\n  iszero\n  iszero\n  mul\n  or\n  swap1\n  sstore\n  pop\n    /* \"PFG/Interest.sol\":219:371  constructor(uint256 _init){... */\n  pop\n    /* \"PFG/Interest.sol\":66:1484  contract Interest {... */\n  jump(tag_10)\n    /* \"#utility.yul\":88:205   */\ntag_12:\n    /* \"#utility.yul\":197:198   */\n  0x00\n    /* \"#utility.yul\":194:195   */\n  dup1\n    /* \"#utility.yul\":187:199   */\n  revert\n    /* \"#utility.yul\":334:411   */\ntag_14:\n    /* \"#utility.yul\":371:378   */\n  0x00\n    /* \"#utility.yul\":400:405   */\n  dup2\n    /* \"#utility.yul\":389:405   */\n  swap1\n  pop\n    /* \"#utility.yul\":334:411   */\n  swap2\n  swap1\n  pop\n  jump\t// out\n    /* \"#utility.yul\":417:539   */\ntag_15:\n    /* \"#utility.yul\":490:514   */\n  tag_27\n    /* \"#utility.yul\":508:513   */\n  dup2\n    /* \"#utility.yul\":490:514   */\n  tag_14\n  jump\t// in\ntag_27:\n    /* \"#utility.yul\":483:488   */\n  dup2\n    /* \"#utility.yul\":480:515   */\n  eq\n    /* \"#utility.yul\":470:533   */\n  tag_28\n  jumpi\n    /* \"#utility.yul\":529:530   */\n  0x00\n    /* \"#utility.yul\":526:527   */\n  dup1\n    /* \"#utility.yul\":519:531   */\n  revert\n    /* \"#utility.yul\":470:533   */\ntag_28:\n    /* \"#utility.yul\":417:539   */\n  pop\n  jump\t// out\n    /* \"#utility.yul\":545:688   */\ntag_16:\n    /* \"#utility.yul\":602:607   */\n  0x00\n    /* \"#utility.yul\":633:639   */\n  dup2\n    /* \"#utility.yul\":627:640   */\n  mload\n    /* \"#utility.yul\":618:640   */\n  swap1\n  pop\n    /* \"#utility.yul\":649:682   */\n  tag_30\n    /* \"#utility.yul\":676:681   */\n  dup2\n    /* \"#utility.yul\":649:682   */\n  tag_15\n  jump\t// in\ntag_30:\n    /* \"#utility.yul\":545:688   */\n  swap3\n  swap2\n  pop\n  pop\n  jump\t// out\n    /* \"#utility.yul\":694:1045   */\ntag_3:\n    /* \"#utility.yul\":764:770   */\n  0x00\n    /* \"#utility.yul\":813:815   */\n  0x20\n    /* \"#utility.yul\":801:810   */\n  dup3\n    /* \"#utility.yul\":792:799   */\n  dup5\n    /* \"#utility.yul\":788:811   */\n  sub\n    /* \"#utility.yul\":784:816   */\n  slt\n    /* \"#utility.yul\":781:900   */\n  iszero\n  tag_32\n  jumpi\n    /* \"#utility.yul\":819:898   */\n  tag_33\n  tag_12\n  jump\t// in\ntag_33:\n    /* \"#utility.yul\":781:900   */\ntag_32:\n    /* \"#utility.yul\":939:940   */\n  0x00\n    /* \"#utility.yul\":964:1028   */\n  tag_34\n    /* \"#utility.yul\":1020:1027   */\n  dup5\n    /* \"#utility.yul\":1011:1017   */\n  dup3\n    /* \"#utility.yul\":1000:1009   */\n  dup6\n    /* \"#utility.yul\":996:1018   */\n  add\n    /* \"#utility.yul\":964:1028   */\n  tag_16\n  jump\t// in\ntag_34:\n    /* \"#utility.yul\":954:1028   */\n  swap2\n  pop\n    /* \"#utility.yul\":910:1038   */\n  pop\n    /* \"#utility.yul\":694:1045   */\n  swap3\n  swap2\n  pop\n  pop\n  jump\t// out\n    /* \"#utility.yul\":1051:1231   */\ntag_17:\n    /* \"#utility.yul\":1099:1176   */\n  0x4e487b7100000000000000000000000000000000000000000000000000000000\n    /* \"#utility.yul\":1096:1097   */\n  0x00\n    /* \"#utility.yul\":1089:1177   */\n  mstore\n    /* \"#utility.yul\":1196:1200   */\n  0x11\n    /* \"#utility.yul\":1193:1194   */\n  0x04\n    /* \"#utility.yul\":1186:1201   */\n  mstore\n    /* \"#utility.yul\":1220:1224   */\n  0x24\n    /* \"#utility.yul\":1217:1218   */\n  0x00\n    /* \"#utility.yul\":1210:1225   */\n  revert\n    /* \"#utility.yul\":1237:1339   */\ntag_18:\n    /* \"#utility.yul\":1279:1287   */\n  0x00\n    /* \"#utility.yul\":1326:1331   */\n  dup2\n    /* \"#utility.yul\":1323:1324   */\n  0x01\n    /* \"#utility.yul\":1319:1332   */\n  shr\n    /* \"#utility.yul\":1298:1332   */\n  swap1\n  pop\n    /* \"#utility.yul\":1237:1339   */\n  swap2\n  swap1\n  pop\n  jump\t// out\n    /* \"#utility.yul\":1345:2193   */\ntag_19:\n    /* \"#utility.yul\":1406:1411   */\n  0x00\n    /* \"#utility.yul\":1413:1417   */\n  dup1\n    /* \"#utility.yul\":1437:1443   */\n  dup3\n    /* \"#utility.yul\":1428:1443   */\n  swap2\n  pop\n    /* \"#utility.yul\":1461:1466   */\n  dup4\n    /* \"#utility.yul\":1452:1466   */\n  swap1\n  pop\n    /* \"#utility.yul\":1475:2187   */\ntag_38:\n    /* \"#utility.yul\":1496:1497   */\n  0x01\n    /* \"#utility.yul\":1486:1494   */\n  dup6\n    /* \"#utility.yul\":1483:1498   */\n  gt\n    /* \"#utility.yul\":1475:2187   */\n  iszero\n  tag_40\n  jumpi\n    /* \"#utility.yul\":1591:1595   */\n  dup1\n    /* \"#utility.yul\":1586:1589   */\n  dup7\n    /* \"#utility.yul\":1582:1596   */\n  div\n    /* \"#utility.yul\":1576:1580   */\n  dup2\n    /* \"#utility.yul\":1573:1597   */\n  gt\n    /* \"#utility.yul\":1570:1620   */\n  iszero\n  tag_41\n  jumpi\n    /* \"#utility.yul\":1600:1618   */\n  tag_42\n  tag_17\n  jump\t// in\ntag_42:\n    /* \"#utility.yul\":1570:1620   */\ntag_41:\n    /* \"#utility.yul\":1650:1651   */\n  0x01\n    /* \"#utility.yul\":1640:1648   */\n  dup6\n    /* \"#utility.yul\":1636:1652   */\n  and\n    /* \"#utility.yul\":1633:2084   */\n  iszero\n  tag_43\n  jumpi\n    /* \"#utility.yul\":2065:2069   */\n  dup1\n    /* \"#utility.yul\":2058:2063   */\n  dup3\n    /* \"#utility.yul\":2054:2070   */\n  mul\n    /* \"#utility.yul\":2045:2070   */\n  swap2\n  pop\n    /* \"#utility.yul\":1633:2084   */\ntag_43:\n    /* \"#utility.yul\":2115:2119   */\n  dup1\n    /* \"#utility.yul\":2109:2113   */\n  dup2\n    /* \"#utility.yul\":2105:2120   */\n  mul\n    /* \"#utility.yul\":2097:2120   */\n  swap1\n  pop\n    /* \"#utility.yul\":2145:2177   */\n  tag_44\n    /* \"#utility.yul\":2168:2176   */\n  dup6\n    /* \"#utility.yul\":2145:2177   */\n  tag_18\n  jump\t// in\ntag_44:\n    /* \"#utility.yul\":2133:2177   */\n  swap5\n  pop\n    /* \"#utility.yul\":1475:2187   */\n  jump(tag_38)\ntag_40:\n    /* \"#utility.yul\":1345:2193   */\n  swap5\n  pop\n  swap5\n  swap3\n  pop\n  pop\n  pop\n  jump\t// out\n    /* \"#utility.yul\":2199:3272   */\ntag_20:\n    /* \"#utility.yul\":2253:2258   */\n  0x00\n    /* \"#utility.yul\":2444:2452   */\n  dup3\n    /* \"#utility.yul\":2434:2474   */\n  tag_46\n  jumpi\n    /* \"#utility.yul\":2465:2466   */\n  0x01\n    /* \"#utility.yul\":2456:2466   */\n  swap1\n  pop\n    /* \"#utility.yul\":2467:2472   */\n  jump(tag_45)\n    /* \"#utility.yul\":2434:2474   */\ntag_46:\n    /* \"#utility.yul\":2493:2497   */\n  dup2\n    /* \"#utility.yul\":2483:2519   */\n  tag_47\n  jumpi\n    /* \"#utility.yul\":2510:2511   */\n  0x00\n    /* \"#utility.yul\":2501:2511   */\n  swap1\n  pop\n    /* \"#utility.yul\":2512:2517   */\n  jump(tag_45)\n    /* \"#utility.yul\":2483:2519   */\ntag_47:\n    /* \"#utility.yul\":2579:2583   */\n  dup2\n    /* \"#utility.yul\":2627:2628   */\n  0x01\n    /* \"#utility.yul\":2622:2649   */\n  dup2\n  eq\n  tag_49\n  jumpi\n    /* \"#utility.yul\":2663:2664   */\n  0x02\n    /* \"#utility.yul\":2658:2849   */\n  dup2\n  eq\n  tag_50\n  jumpi\n    /* \"#utility.yul\":2572:2849   */\n  jump(tag_48)\n    /* \"#utility.yul\":2622:2649   */\ntag_49:\n    /* \"#utility.yul\":2640:2641   */\n  0x01\n    /* \"#utility.yul\":2631:2641   */\n  swap2\n  pop\n    /* \"#utility.yul\":2642:2647   */\n  pop\n  jump(tag_45)\n    /* \"#utility.yul\":2658:2849   */\ntag_50:\n    /* \"#utility.yul\":2703:2706   */\n  0xff\n    /* \"#utility.yul\":2693:2701   */\n  dup5\n    /* \"#utility.yul\":2690:2707   */\n  gt\n    /* \"#utility.yul\":2687:2730   */\n  iszero\n  tag_51\n  jumpi\n    /* \"#utility.yul\":2710:2728   */\n  tag_52\n  tag_17\n  jump\t// in\ntag_52:\n    /* \"#utility.yul\":2687:2730   */\ntag_51:\n    /* \"#utility.yul\":2759:2767   */\n  dup4\n    /* \"#utility.yul\":2756:2757   */\n  0x02\n    /* \"#utility.yul\":2752:2768   */\n  exp\n    /* \"#utility.yul\":2743:2768   */\n  swap2\n  pop\n    /* \"#utility.yul\":2794:2797   */\n  dup5\n    /* \"#utility.yul\":2787:2792   */\n  dup3\n    /* \"#utility.yul\":2784:2798   */\n  gt\n    /* \"#utility.yul\":2781:2821   */\n  iszero\n  tag_53\n  jumpi\n    /* \"#utility.yul\":2801:2819   */\n  tag_54\n  tag_17\n  jump\t// in\ntag_54:\n    /* \"#utility.yul\":2781:2821   */\ntag_53:\n    /* \"#utility.yul\":2834:2839   */\n  pop\n  jump(tag_45)\n    /* \"#utility.yul\":2572:2849   */\ntag_48:\n  pop\n    /* \"#utility.yul\":2958:2960   */\n  0x20\n    /* \"#utility.yul\":2948:2956   */\n  dup4\n    /* \"#utility.yul\":2945:2961   */\n  lt\n    /* \"#utility.yul\":2939:2942   */\n  0x0133\n    /* \"#utility.yul\":2933:2937   */\n  dup4\n    /* \"#utility.yul\":2930:2943   */\n  lt\n    /* \"#utility.yul\":2926:2962   */\n  and\n    /* \"#utility.yul\":2908:2910   */\n  0x4e\n    /* \"#utility.yul\":2898:2906   */\n  dup5\n    /* \"#utility.yul\":2895:2911   */\n  lt\n    /* \"#utility.yul\":2890:2892   */\n  0x0b\n    /* \"#utility.yul\":2884:2888   */\n  dup5\n    /* \"#utility.yul\":2881:2893   */\n  lt\n    /* \"#utility.yul\":2877:2912   */\n  and\n    /* \"#utility.yul\":2861:2972   */\n  or\n    /* \"#utility.yul\":2858:3104   */\n  iszero\n  tag_55\n  jumpi\n    /* \"#utility.yul\":3014:3022   */\n  dup3\n    /* \"#utility.yul\":3008:3012   */\n  dup3\n    /* \"#utility.yul\":3004:3023   */\n  exp\n    /* \"#utility.yul\":2995:3023   */\n  swap1\n  pop\n    /* \"#utility.yul\":3049:3052   */\n  dup4\n    /* \"#utility.yul\":3042:3047   */\n  dup2\n    /* \"#utility.yul\":3039:3053   */\n  gt\n    /* \"#utility.yul\":3036:3076   */\n  iszero\n  tag_56\n  jumpi\n    /* \"#utility.yul\":3056:3074   */\n  tag_57\n  tag_17\n  jump\t// in\ntag_57:\n    /* \"#utility.yul\":3036:3076   */\ntag_56:\n    /* \"#utility.yul\":3089:3094   */\n  jump(tag_45)\n    /* \"#utility.yul\":2858:3104   */\ntag_55:\n    /* \"#utility.yul\":3129:3171   */\n  tag_58\n    /* \"#utility.yul\":3167:3170   */\n  dup5\n    /* \"#utility.yul\":3157:3165   */\n  dup5\n    /* \"#utility.yul\":3151:3155   */\n  dup5\n    /* \"#utility.yul\":3148:3149   */\n  0x01\n    /* \"#utility.yul\":3129:3171   */\n  tag_19\n  jump\t// in\ntag_58:\n    /* \"#utility.yul\":3114:3171   */\n  swap3\n  pop\n  swap1\n  pop\n    /* \"#utility.yul\":3203:3207   */\n  dup2\n    /* \"#utility.yul\":3198:3201   */\n  dup5\n    /* \"#utility.yul\":3194:3208   */\n  div\n    /* \"#utility.yul\":3187:3192   */\n  dup2\n    /* \"#utility.yul\":3184:3209   */\n  gt\n    /* \"#utility.yul\":3181:3232   */\n  iszero\n  tag_59\n  jumpi\n    /* \"#utility.yul\":3212:3230   */\n  tag_60\n  tag_17\n  jump\t// in\ntag_60:\n    /* \"#utility.yul\":3181:3232   */\ntag_59:\n    /* \"#utility.yul\":3261:3265   */\n  dup2\n    /* \"#utility.yul\":3254:3259   */\n  dup2\n    /* \"#utility.yul\":3250:3266   */\n  mul\n    /* \"#utility.yul\":3241:3266   */\n  swap1\n  pop\n    /* \"#utility.yul\":2199:3272   */\ntag_45:\n  swap4\n  swap3\n  pop\n  pop\n  pop\n  jump\t// out\n    /* \"#utility.yul\":3278:3563   */\ntag_7:\n    /* \"#utility.yul\":3338:3343   */\n  0x00\n    /* \"#utility.yul\":3362:3385   */\n  tag_62\n    /* \"#utility.yul\":3380:3384   */\n  dup3\n    /* \"#utility.yul\":3362:3385   */\n  tag_14\n  jump\t// in\ntag_62:\n    /* \"#utility.yul\":3354:3385   */\n  swap2\n  pop\n    /* \"#utility.yul\":3406:3433   */\n  tag_63\n    /* \"#utility.yul\":3424:3432   */\n  dup4\n    /* \"#utility.yul\":3406:3433   */\n  tag_14\n  jump\t// in\ntag_63:\n    /* \"#utility.yul\":3394:3433   */\n  swap3\n  pop\n    /* \"#utility.yul\":3452:3556   */\n  tag_64\n    /* \"#utility.yul\":3489:3555   */\n  0xffffffffffffffffffffffffffffffffffffffffffffffffffffffffffffffff\n    /* \"#utility.yul\":3479:3487   */\n  dup5\n    /* \"#utility.yul\":3473:3477   */\n  dup5\n    /* \"#utility.yul\":3452:3556   */\n  tag_20\n  jump\t// in\ntag_64:\n    /* \"#utility.yul\":3443:3556   */\n  swap1\n  pop\n    /* \"#utility.yul\":3278:3563   */\n  swap3\n  swap2\n  pop\n  pop\n  jump\t// out\n    /* \"#utility.yul\":3569:3917   */\ntag_9:\n    /* \"#utility.yul\":3609:3616   */\n  0x00\n    /* \"#utility.yul\":3632:3652   */\n  tag_66\n    /* \"#utility.yul\":3650:3651   */\n  dup3\n    /* \"#utility.yul\":3632:3652   */\n  tag_14\n  jump\t// in\ntag_66:\n    /* \"#utility.yul\":3627:3652   */\n  swap2\n  pop\n    /* \"#utility.yul\":3666:3686   */\n  tag_67\n    /* \"#utility.yul\":3684:3685   */\n  dup4\n    /* \"#utility.yul\":3666:3686   */\n  tag_14\n  jump\t// in\ntag_67:\n    /* \"#utility.yul\":3661:3686   */\n  swap3\n  pop\n    /* \"#utility.yul\":3854:3855   */\n  dup2\n    /* \"#utility.yul\":3786:3852   */\n  0xffffffffffffffffffffffffffffffffffffffffffffffffffffffffffffffff\n    /* \"#utility.yul\":3782:3856   */\n  div\n    /* \"#utility.yul\":3779:3780   */\n  dup4\n    /* \"#utility.yul\":3776:3857   */\n  gt\n    /* \"#utility.yul\":3771:3772   */\n  dup3\n    /* \"#utility.yul\":3764:3773   */\n  iszero\n    /* \"#utility.yul\":3757:3774   */\n  iszero\n    /* \"#utility.yul\":3753:3858   */\n  and\n    /* \"#utility.yul\":3750:3881   */\n  iszero\n  tag_68\n  jumpi\n    /* \"#utility.yul\":3861:3879   */\n  tag_69\n  tag_17\n  jump\t// in\ntag_69:\n    /* \"#utility.yul\":3750:3881   */\ntag_68:\n    /* \"#utility.yul\":3909:3910   */\n  dup3\n    /* \"#utility.yul\":3906:3907   */\n  dup3\n    /* \"#utility.yul\":3902:3911   */\n  mul\n    /* \"#utility.yul\":3891:3911   */\n  swap1\n  pop\n    /* \"#utility.yul\":3569:3917   */\n  swap3\n  swap2\n  pop\n  pop\n  jump\t// out\n    /* \"PFG/Interest.sol\":66:1484  contract Interest {... */\ntag_10:\n  dataSize(sub_0)\n  dup1\n  dataOffset(sub_0)\n  0x00\n  codecopy\n  0x00\n  return\nstop\n\nsub_0: assembly {\n        /* \"PFG/Interest.sol\":66:1484  contract Interest {... */\n      mstore(0x40, 0x80)\n      callvalue\n      dup1\n      iszero\n      tag_1\n      jumpi\n      0x00\n      dup1\n      revert\n    tag_1:\n      pop\n      jumpi(tag_2, lt(calldatasize, 0x04))\n      shr(0xe0, calldataload(0x00))\n      dup1\n      0x131e2f18\n      eq\n      tag_3\n      jumpi\n      dup1\n      0x2c4e722e\n      eq\n      tag_4\n      jumpi\n      dup1\n      0x84c6e2c8\n      eq\n      tag_5\n      jumpi\n      dup1\n      0x9f8af9dd\n      eq\n      tag_6\n      jumpi\n      dup1\n      0xeffc1fe0\n      eq\n      tag_7\n      jumpi\n    tag_2:\n      0x00\n      dup1\n      revert\n        /* \"PFG/Interest.sol\":1346:1465  function mul(uint256 amount) public view returns(uint256){... */\n    tag_3:\n      tag_8\n      0x04\n      dup1\n      calldatasize\n      sub\n      dup2\n      add\n      swap1\n      tag_9\n      swap2\n      swap1\n      tag_10\n      jump\t// in\n    tag_9:\n      tag_11\n      jump\t// in\n    tag_8:\n      mload(0x40)\n      tag_12\n      swap2\n      swap1\n      tag_13\n      jump\t// in\n    tag_12:\n      mload(0x40)\n      dup1\n      swap2\n      sub\n      swap1\n      return\n        /* \"PFG/Interest.sol\":95:114  uint256 public rate */\n    tag_4:\n      tag_14\n      tag_15\n      jump\t// in\n    tag_14:\n      mload(0x40)\n      tag_16\n      swap2\n      swap1\n      tag_13\n      jump\t// in\n    tag_16:\n      mload(0x40)\n      dup1\n      swap2\n      sub\n      swap1\n      return\n        /* \"PFG/Interest.sol\":529:590  function adjustIntDoc() public {... */\n    tag_5:\n      tag_17\n      tag_18\n      jump\t// in\n    tag_17:\n      stop\n        /* \"PFG/Interest.sol\":598:1262  function adjustIntCol(uint256 val, uint256 col) public {... */\n    tag_6:\n      tag_19\n      0x04\n      dup1\n      calldatasize\n      sub\n      dup2\n      add\n      swap1\n      tag_20\n      swap2\n      swap1\n      tag_21\n      jump\t// in\n    tag_20:\n      tag_22\n      jump\t// in\n    tag_19:\n      stop\n        /* \"PFG/Interest.sol\":379:521  function adjustIntVerify() public {... */\n    tag_7:\n      tag_23\n      tag_24\n      jump\t// in\n    tag_23:\n      stop\n        /* \"PFG/Interest.sol\":1346:1465  function mul(uint256 amount) public view returns(uint256){... */\n    tag_11:\n        /* \"PFG/Interest.sol\":1395:1402  uint256 */\n      0x00\n        /* \"PFG/Interest.sol\":1452:1455  dec */\n      sload(0x01)\n        /* \"PFG/Interest.sol\":1447:1450  100 */\n      0x64\n        /* \"PFG/Interest.sol\":1441:1445  rate */\n      sload(0x00)\n        /* \"PFG/Interest.sol\":1432:1438  amount */\n      dup5\n        /* \"PFG/Interest.sol\":1432:1445  amount * rate */\n      tag_26\n      swap2\n      swap1\n      tag_27\n      jump\t// in\n    tag_26:\n        /* \"PFG/Interest.sol\":1431:1450  (amount * rate)/100 */\n      tag_28\n      swap2\n      swap1\n      tag_29\n      jump\t// in\n    tag_28:\n        /* \"PFG/Interest.sol\":1430:1455  ((amount * rate)/100)/dec */\n      tag_30\n      swap2\n      swap1\n      tag_29\n      jump\t// in\n    tag_30:\n        /* \"PFG/Interest.sol\":1421:1427  amount */\n      dup3\n        /* \"PFG/Interest.sol\":1421:1455  amount + ((amount * rate)/100)/dec */\n      tag_31\n      swap2\n      swap1\n      tag_32\n      jump\t// in\n    tag_31:\n        /* \"PFG/Interest.sol\":1414:1455  return amount + ((amount * rate)/100)/dec */\n      swap1\n      pop\n        /* \"PFG/Interest.sol\":1346:1465  function mul(uint256 amount) public view returns(uint256){... */\n      swap2\n      swap1\n      pop\n      jump\t// out\n        /* \"PFG/Interest.sol\":95:114  uint256 public rate */\n    tag_15:\n      sload(0x00)\n      dup2\n      jump\t// out\n        /* \"PFG/Interest.sol\":529:590  function adjustIntDoc() public {... */\n    tag_18:\n        /* \"PFG/Interest.sol\":571:582  reduction() */\n      tag_34\n        /* \"PFG/Interest.sol\":571:580  reduction */\n      tag_35\n        /* \"PFG/Interest.sol\":571:582  reduction() */\n      jump\t// in\n    tag_34:\n        /* \"PFG/Interest.sol\":529:590  function adjustIntDoc() public {... */\n      jump\t// out\n        /* \"PFG/Interest.sol\":598:1262  function adjustIntCol(uint256 val, uint256 col) public {... */\n    tag_22:\n        /* \"PFG/Interest.sol\":673:687  collateralOnce */\n      0x02\n      0x00\n      swap1\n      sload\n      swap1\n      0x0100\n      exp\n      swap1\n      div\n      0xff\n      and\n        /* \"PFG/Interest.sol\":672:687  !collateralOnce */\n      iszero\n        /* \"PFG/Interest.sol\":664:708  require(!collateralOnce, \"Already executed\") */\n      tag_37\n      jumpi\n      mload(0x40)\n      0x08c379a000000000000000000000000000000000000000000000000000000000\n      dup2\n      mstore\n      0x04\n      add\n      tag_38\n      swap1\n      tag_39\n      jump\t// in\n    tag_38:\n      mload(0x40)\n      dup1\n      swap2\n      sub\n      swap1\n      revert\n    tag_37:\n        /* \"PFG/Interest.sol\":719:735  uint256 valueDec */\n      0x00\n        /* \"PFG/Interest.sol\":751:754  dec */\n      sload(0x01)\n        /* \"PFG/Interest.sol\":745:747  10 */\n      0x0a\n        /* \"PFG/Interest.sol\":745:754  10 ** dec */\n      tag_40\n      swap2\n      swap1\n      tag_41\n      jump\t// in\n    tag_40:\n        /* \"PFG/Interest.sol\":739:742  val */\n      dup4\n        /* \"PFG/Interest.sol\":739:754  val * 10 ** dec */\n      tag_42\n      swap2\n      swap1\n      tag_27\n      jump\t// in\n    tag_42:\n        /* \"PFG/Interest.sol\":719:755  uint256 valueDec = (val * 10 ** dec) */\n      swap1\n      pop\n        /* \"PFG/Interest.sol\":766:780  uint256 colDec */\n      0x00\n        /* \"PFG/Interest.sol\":796:799  dec */\n      sload(0x01)\n        /* \"PFG/Interest.sol\":790:792  10 */\n      0x0a\n        /* \"PFG/Interest.sol\":790:799  10 ** dec */\n      tag_43\n      swap2\n      swap1\n      tag_41\n      jump\t// in\n    tag_43:\n        /* \"PFG/Interest.sol\":784:787  col */\n      dup4\n        /* \"PFG/Interest.sol\":784:799  col * 10 ** dec */\n      tag_44\n      swap2\n      swap1\n      tag_27\n      jump\t// in\n    tag_44:\n        /* \"PFG/Interest.sol\":766:800  uint256 colDec = (col * 10 ** dec) */\n      swap1\n      pop\n        /* \"PFG/Interest.sol\":811:828  uint256 actualRef */\n      0x00\n        /* \"PFG/Interest.sol\":840:843  col */\n      dup4\n        /* \"PFG/Interest.sol\":831:839  valueDec */\n      dup4\n        /* \"PFG/Interest.sol\":831:843  valueDec/col */\n      tag_45\n      swap2\n      swap1\n      tag_29\n      jump\t// in\n    tag_45:\n        /* \"PFG/Interest.sol\":811:843  uint256 actualRef = valueDec/col */\n      swap1\n      pop\n        /* \"PFG/Interest.sol\":854:865  uint256 ref */\n      0x00\n        /* \"PFG/Interest.sol\":868:887  1250000000000000000 */\n      0x1158e460913d0000\n        /* \"PFG/Interest.sol\":854:887  uint256 ref = 1250000000000000000 */\n      swap1\n      pop\n        /* \"PFG/Interest.sol\":911:920  actualRef */\n      dup2\n        /* \"PFG/Interest.sol\":904:907  ref */\n      dup2\n        /* \"PFG/Interest.sol\":904:920  ref <= actualRef */\n      gt\n        /* \"PFG/Interest.sol\":900:1221  if (ref <= actualRef){... */\n      tag_46\n      jumpi\n        /* \"PFG/Interest.sol\":955:958  ref */\n      dup1\n        /* \"PFG/Interest.sol\":945:954  actualRef */\n      dup3\n        /* \"PFG/Interest.sol\":945:958  actualRef-ref */\n      tag_47\n      swap2\n      swap1\n      tag_48\n      jump\t// in\n    tag_47:\n        /* \"PFG/Interest.sol\":936:940  rate */\n      0x00\n      dup1\n        /* \"PFG/Interest.sol\":936:959  rate += (actualRef-ref) */\n      dup3\n      dup3\n      sload\n      tag_49\n      swap2\n      swap1\n      tag_32\n      jump\t// in\n    tag_49:\n      swap3\n      pop\n      pop\n      dup2\n      swap1\n      sstore\n      pop\n        /* \"PFG/Interest.sol\":900:1221  if (ref <= actualRef){... */\n      jump(tag_50)\n    tag_46:\n        /* \"PFG/Interest.sol\":1000:1009  uint256 x */\n      0x00\n        /* \"PFG/Interest.sol\":1030:1033  100 */\n      0x64\n        /* \"PFG/Interest.sol\":1026:1029  val */\n      dup8\n        /* \"PFG/Interest.sol\":1026:1033  val*100 */\n      tag_51\n      swap2\n      swap1\n      tag_27\n      jump\t// in\n    tag_51:\n        /* \"PFG/Interest.sol\":1018:1021  125 */\n      0x7d\n        /* \"PFG/Interest.sol\":1013:1017  rate */\n      sload(0x00)\n        /* \"PFG/Interest.sol\":1013:1021  rate*125 */\n      tag_52\n      swap2\n      swap1\n      tag_27\n      jump\t// in\n    tag_52:\n        /* \"PFG/Interest.sol\":1012:1034  (rate*125) / (val*100) */\n      tag_53\n      swap2\n      swap1\n      tag_29\n      jump\t// in\n    tag_53:\n        /* \"PFG/Interest.sol\":1000:1034  uint256 x = (rate*125) / (val*100) */\n      swap1\n      pop\n        /* \"PFG/Interest.sol\":1049:1063  uint256 colRes */\n      0x00\n        /* \"PFG/Interest.sol\":1082:1085  100 */\n      0x64\n        /* \"PFG/Interest.sol\":1078:1080  80 */\n      0x50\n        /* \"PFG/Interest.sol\":1067:1075  valueDec */\n      dup8\n        /* \"PFG/Interest.sol\":1067:1080  valueDec * 80 */\n      tag_54\n      swap2\n      swap1\n      tag_27\n      jump\t// in\n    tag_54:\n        /* \"PFG/Interest.sol\":1066:1085  (valueDec * 80)/100 */\n      tag_55\n      swap2\n      swap1\n      tag_29\n      jump\t// in\n    tag_55:\n        /* \"PFG/Interest.sol\":1049:1085  uint256 colRes = (valueDec * 80)/100 */\n      swap1\n      pop\n        /* \"PFG/Interest.sol\":1100:1114  uint256 difCol */\n      0x00\n        /* \"PFG/Interest.sol\":1126:1132  colRes */\n      dup2\n        /* \"PFG/Interest.sol\":1117:1123  colDec */\n      dup7\n        /* \"PFG/Interest.sol\":1117:1132  colDec - colRes */\n      tag_56\n      swap2\n      swap1\n      tag_48\n      jump\t// in\n    tag_56:\n        /* \"PFG/Interest.sol\":1100:1132  uint256 difCol = colDec - colRes */\n      swap1\n      pop\n        /* \"PFG/Interest.sol\":1147:1158  uint256 res */\n      0x00\n        /* \"PFG/Interest.sol\":1179:1182  dec */\n      sload(0x01)\n        /* \"PFG/Interest.sol\":1175:1177  10 */\n      0x0a\n        /* \"PFG/Interest.sol\":1175:1182  10**dec */\n      tag_57\n      swap2\n      swap1\n      tag_41\n      jump\t// in\n    tag_57:\n        /* \"PFG/Interest.sol\":1166:1172  difCol */\n      dup3\n        /* \"PFG/Interest.sol\":1162:1163  x */\n      dup6\n        /* \"PFG/Interest.sol\":1162:1172  x * difCol */\n      tag_58\n      swap2\n      swap1\n      tag_27\n      jump\t// in\n    tag_58:\n        /* \"PFG/Interest.sol\":1161:1183  (x * difCol)/(10**dec) */\n      tag_59\n      swap2\n      swap1\n      tag_29\n      jump\t// in\n    tag_59:\n        /* \"PFG/Interest.sol\":1147:1183  uint256 res = (x * difCol)/(10**dec) */\n      swap1\n      pop\n        /* \"PFG/Interest.sol\":1206:1209  res */\n      dup1\n        /* \"PFG/Interest.sol\":1198:1202  rate */\n      0x00\n      dup1\n        /* \"PFG/Interest.sol\":1198:1209  rate -= res */\n      dup3\n      dup3\n      sload\n      tag_60\n      swap2\n      swap1\n      tag_48\n      jump\t// in\n    tag_60:\n      swap3\n      pop\n      pop\n      dup2\n      swap1\n      sstore\n      pop\n        /* \"PFG/Interest.sol\":985:1221  {... */\n      pop\n      pop\n      pop\n      pop\n        /* \"PFG/Interest.sol\":900:1221  if (ref <= actualRef){... */\n    tag_50:\n        /* \"PFG/Interest.sol\":1250:1254  true */\n      0x01\n        /* \"PFG/Interest.sol\":1233:1247  collateralOnce */\n      0x02\n      0x00\n        /* \"PFG/Interest.sol\":1233:1254  collateralOnce = true */\n      0x0100\n      exp\n      dup2\n      sload\n      dup2\n      0xff\n      mul\n      not\n      and\n      swap1\n      dup4\n      iszero\n      iszero\n      mul\n      or\n      swap1\n      sstore\n      pop\n        /* \"PFG/Interest.sol\":653:1262  {... */\n      pop\n      pop\n      pop\n      pop\n        /* \"PFG/Interest.sol\":598:1262  function adjustIntCol(uint256 val, uint256 col) public {... */\n      pop\n      pop\n      jump\t// out\n        /* \"PFG/Interest.sol\":379:521  function adjustIntVerify() public {... */\n    tag_24:\n        /* \"PFG/Interest.sol\":429:441  verifiedOnce */\n      0x02\n      0x01\n      swap1\n      sload\n      swap1\n      0x0100\n      exp\n      swap1\n      div\n      0xff\n      and\n        /* \"PFG/Interest.sol\":424:514  if (!verifiedOnce){... */\n      tag_62\n      jumpi\n        /* \"PFG/Interest.sol\":457:468  reduction() */\n      tag_63\n        /* \"PFG/Interest.sol\":457:466  reduction */\n      tag_35\n        /* \"PFG/Interest.sol\":457:468  reduction() */\n      jump\t// in\n    tag_63:\n        /* \"PFG/Interest.sol\":498:502  true */\n      0x01\n        /* \"PFG/Interest.sol\":483:495  verifiedOnce */\n      0x02\n      0x01\n        /* \"PFG/Interest.sol\":483:502  verifiedOnce = true */\n      0x0100\n      exp\n      dup2\n      sload\n      dup2\n      0xff\n      mul\n      not\n      and\n      swap1\n      dup4\n      iszero\n      iszero\n      mul\n      or\n      swap1\n      sstore\n      pop\n        /* \"PFG/Interest.sol\":424:514  if (!verifiedOnce){... */\n    tag_62:\n        /* \"PFG/Interest.sol\":379:521  function adjustIntVerify() public {... */\n      jump\t// out\n        /* \"PFG/Interest.sol\":1270:1338  function reduction() private {... */\n    tag_35:\n        /* \"PFG/Interest.sol\":1329:1330  8 */\n      0x08\n        /* \"PFG/Interest.sol\":1325:1326  7 */\n      0x07\n        /* \"PFG/Interest.sol\":1318:1322  rate */\n      sload(0x00)\n        /* \"PFG/Interest.sol\":1318:1326  rate * 7 */\n      tag_65\n      swap2\n      swap1\n      tag_27\n      jump\t// in\n    tag_65:\n        /* \"PFG/Interest.sol\":1317:1330  (rate * 7) /8 */\n      tag_66\n      swap2\n      swap1\n      tag_29\n      jump\t// in\n    tag_66:\n        /* \"PFG/Interest.sol\":1310:1314  rate */\n      0x00\n        /* \"PFG/Interest.sol\":1310:1330  rate = (rate * 7) /8 */\n      dup2\n      swap1\n      sstore\n      pop\n        /* \"PFG/Interest.sol\":1270:1338  function reduction() private {... */\n      jump\t// out\n        /* \"#utility.yul\":88:205   */\n    tag_68:\n        /* \"#utility.yul\":197:198   */\n      0x00\n        /* \"#utility.yul\":194:195   */\n      dup1\n        /* \"#utility.yul\":187:199   */\n      revert\n        /* \"#utility.yul\":334:411   */\n    tag_70:\n        /* \"#utility.yul\":371:378   */\n      0x00\n        /* \"#utility.yul\":400:405   */\n      dup2\n        /* \"#utility.yul\":389:405   */\n      swap1\n      pop\n        /* \"#utility.yul\":334:411   */\n      swap2\n      swap1\n      pop\n      jump\t// out\n        /* \"#utility.yul\":417:539   */\n    tag_71:\n        /* \"#utility.yul\":490:514   */\n      tag_88\n        /* \"#utility.yul\":508:513   */\n      dup2\n        /* \"#utility.yul\":490:514   */\n      tag_70\n      jump\t// in\n    tag_88:\n        /* \"#utility.yul\":483:488   */\n      dup2\n        /* \"#utility.yul\":480:515   */\n      eq\n        /* \"#utility.yul\":470:533   */\n      tag_89\n      jumpi\n        /* \"#utility.yul\":529:530   */\n      0x00\n        /* \"#utility.yul\":526:527   */\n      dup1\n        /* \"#utility.yul\":519:531   */\n      revert\n        /* \"#utility.yul\":470:533   */\n    tag_89:\n        /* \"#utility.yul\":417:539   */\n      pop\n      jump\t// out\n        /* \"#utility.yul\":545:684   */\n    tag_72:\n        /* \"#utility.yul\":591:596   */\n      0x00\n        /* \"#utility.yul\":629:635   */\n      dup2\n        /* \"#utility.yul\":616:636   */\n      calldataload\n        /* \"#utility.yul\":607:636   */\n      swap1\n      pop\n        /* \"#utility.yul\":645:678   */\n      tag_91\n        /* \"#utility.yul\":672:677   */\n      dup2\n        /* \"#utility.yul\":645:678   */\n      tag_71\n      jump\t// in\n    tag_91:\n        /* \"#utility.yul\":545:684   */\n      swap3\n      swap2\n      pop\n      pop\n      jump\t// out\n        /* \"#utility.yul\":690:1019   */\n    tag_10:\n        /* \"#utility.yul\":749:755   */\n      0x00\n        /* \"#utility.yul\":798:800   */\n      0x20\n        /* \"#utility.yul\":786:795   */\n      dup3\n        /* \"#utility.yul\":777:784   */\n      dup5\n        /* \"#utility.yul\":773:796   */\n      sub\n        /* \"#utility.yul\":769:801   */\n      slt\n        /* \"#utility.yul\":766:885   */\n      iszero\n      tag_93\n      jumpi\n        /* \"#utility.yul\":804:883   */\n      tag_94\n      tag_68\n      jump\t// in\n    tag_94:\n        /* \"#utility.yul\":766:885   */\n    tag_93:\n        /* \"#utility.yul\":924:925   */\n      0x00\n        /* \"#utility.yul\":949:1002   */\n      tag_95\n        /* \"#utility.yul\":994:1001   */\n      dup5\n        /* \"#utility.yul\":985:991   */\n      dup3\n        /* \"#utility.yul\":974:983   */\n      dup6\n        /* \"#utility.yul\":970:992   */\n      add\n        /* \"#utility.yul\":949:1002   */\n      tag_72\n      jump\t// in\n    tag_95:\n        /* \"#utility.yul\":939:1002   */\n      swap2\n      pop\n        /* \"#utility.yul\":895:1012   */\n      pop\n        /* \"#utility.yul\":690:1019   */\n      swap3\n      swap2\n      pop\n      pop\n      jump\t// out\n        /* \"#utility.yul\":1025:1143   */\n    tag_73:\n        /* \"#utility.yul\":1112:1136   */\n      tag_97\n        /* \"#utility.yul\":1130:1135   */\n      dup2\n        /* \"#utility.yul\":1112:1136   */\n      tag_70\n      jump\t// in\n    tag_97:\n        /* \"#utility.yul\":1107:1110   */\n      dup3\n        /* \"#utility.yul\":1100:1137   */\n      mstore\n        /* \"#utility.yul\":1025:1143   */\n      pop\n      pop\n      jump\t// out\n        /* \"#utility.yul\":1149:1371   */\n    tag_13:\n        /* \"#utility.yul\":1242:1246   */\n      0x00\n        /* \"#utility.yul\":1280:1282   */\n      0x20\n        /* \"#utility.yul\":1269:1278   */\n      dup3\n        /* \"#utility.yul\":1265:1283   */\n      add\n        /* \"#utility.yul\":1257:1283   */\n      swap1\n      pop\n        /* \"#utility.yul\":1293:1364   */\n      tag_99\n        /* \"#utility.yul\":1361:1362   */\n      0x00\n        /* \"#utility.yul\":1350:1359   */\n      dup4\n        /* \"#utility.yul\":1346:1363   */\n      add\n        /* \"#utility.yul\":1337:1343   */\n      dup5\n        /* \"#utility.yul\":1293:1364   */\n      tag_73\n      jump\t// in\n    tag_99:\n        /* \"#utility.yul\":1149:1371   */\n      swap3\n      swap2\n      pop\n      pop\n      jump\t// out\n        /* \"#utility.yul\":1377:1851   */\n    tag_21:\n        /* \"#utility.yul\":1445:1451   */\n      0x00\n        /* \"#utility.yul\":1453:1459   */\n      dup1\n        /* \"#utility.yul\":1502:1504   */\n      0x40\n        /* \"#utility.yul\":1490:1499   */\n      dup4\n        /* \"#utility.yul\":1481:1488   */\n      dup6\n        /* \"#utility.yul\":1477:1500   */\n      sub\n        /* \"#utility.yul\":1473:1505   */\n      slt\n        /* \"#utility.yul\":1470:1589   */\n      iszero\n      tag_101\n      jumpi\n        /* \"#utility.yul\":1508:1587   */\n      tag_102\n      tag_68\n      jump\t// in\n    tag_102:\n        /* \"#utility.yul\":1470:1589   */\n    tag_101:\n        /* \"#utility.yul\":1628:1629   */\n      0x00\n        /* \"#utility.yul\":1653:1706   */\n      tag_103\n        /* \"#utility.yul\":1698:1705   */\n      dup6\n        /* \"#utility.yul\":1689:1695   */\n      dup3\n        /* \"#utility.yul\":1678:1687   */\n      dup7\n        /* \"#utility.yul\":1674:1696   */\n      add\n        /* \"#utility.yul\":1653:1706   */\n      tag_72\n      jump\t// in\n    tag_103:\n        /* \"#utility.yul\":1643:1706   */\n      swap3\n      pop\n        /* \"#utility.yul\":1599:1716   */\n      pop\n        /* \"#utility.yul\":1755:1757   */\n      0x20\n        /* \"#utility.yul\":1781:1834   */\n      tag_104\n        /* \"#utility.yul\":1826:1833   */\n      dup6\n        /* \"#utility.yul\":1817:1823   */\n      dup3\n        /* \"#utility.yul\":1806:1815   */\n      dup7\n        /* \"#utility.yul\":1802:1824   */\n      add\n        /* \"#utility.yul\":1781:1834   */\n      tag_72\n      jump\t// in\n    tag_104:\n        /* \"#utility.yul\":1771:1834   */\n      swap2\n      pop\n        /* \"#utility.yul\":1726:1844   */\n      pop\n        /* \"#utility.yul\":1377:1851   */\n      swap3\n      pop\n      swap3\n      swap1\n      pop\n      jump\t// out\n        /* \"#utility.yul\":1857:2037   */\n    tag_74:\n        /* \"#utility.yul\":1905:1982   */\n      0x4e487b7100000000000000000000000000000000000000000000000000000000\n        /* \"#utility.yul\":1902:1903   */\n      0x00\n        /* \"#utility.yul\":1895:1983   */\n      mstore\n        /* \"#utility.yul\":2002:2006   */\n      0x11\n        /* \"#utility.yul\":1999:2000   */\n      0x04\n        /* \"#utility.yul\":1992:2007   */\n      mstore\n        /* \"#utility.yul\":2026:2030   */\n      0x24\n        /* \"#utility.yul\":2023:2024   */\n      0x00\n        /* \"#utility.yul\":2016:2031   */\n      revert\n        /* \"#utility.yul\":2043:2391   */\n    tag_27:\n        /* \"#utility.yul\":2083:2090   */\n      0x00\n        /* \"#utility.yul\":2106:2126   */\n      tag_107\n        /* \"#utility.yul\":2124:2125   */\n      dup3\n        /* \"#utility.yul\":2106:2126   */\n      tag_70\n      jump\t// in\n    tag_107:\n        /* \"#utility.yul\":2101:2126   */\n      swap2\n      pop\n        /* \"#utility.yul\":2140:2160   */\n      tag_108\n        /* \"#utility.yul\":2158:2159   */\n      dup4\n        /* \"#utility.yul\":2140:2160   */\n      tag_70\n      jump\t// in\n    tag_108:\n        /* \"#utility.yul\":2135:2160   */\n      swap3\n      pop\n        /* \"#utility.yul\":2328:2329   */\n      dup2\n        /* \"#utility.yul\":2260:2326   */\n      0xffffffffffffffffffffffffffffffffffffffffffffffffffffffffffffffff\n        /* \"#utility.yul\":2256:2330   */\n      div\n        /* \"#utility.yul\":2253:2254   */\n      dup4\n        /* \"#utility.yul\":2250:2331   */\n      gt\n        /* \"#utility.yul\":2245:2246   */\n      dup3\n        /* \"#utility.yul\":2238:2247   */\n      iszero\n        /* \"#utility.yul\":2231:2248   */\n      iszero\n        /* \"#utility.yul\":2227:2332   */\n      and\n        /* \"#utility.yul\":2224:2355   */\n      iszero\n      tag_109\n      jumpi\n        /* \"#utility.yul\":2335:2353   */\n      tag_110\n      tag_74\n      jump\t// in\n    tag_110:\n        /* \"#utility.yul\":2224:2355   */\n    tag_109:\n        /* \"#utility.yul\":2383:2384   */\n      dup3\n        /* \"#utility.yul\":2380:2381   */\n      dup3\n        /* \"#utility.yul\":2376:2385   */\n      mul\n        /* \"#utility.yul\":2365:2385   */\n      swap1\n      pop\n        /* \"#utility.yul\":2043:2391   */\n      swap3\n      swap2\n      pop\n      pop\n      jump\t// out\n        /* \"#utility.yul\":2397:2577   */\n    tag_75:\n        /* \"#utility.yul\":2445:2522   */\n      0x4e487b7100000000000000000000000000000000000000000000000000000000\n        /* \"#utility.yul\":2442:2443   */\n      0x00\n        /* \"#utility.yul\":2435:2523   */\n      mstore\n        /* \"#utility.yul\":2542:2546   */\n      0x12\n        /* \"#utility.yul\":2539:2540   */\n      0x04\n        /* \"#utility.yul\":2532:2547   */\n      mstore\n        /* \"#utility.yul\":2566:2570   */\n      0x24\n        /* \"#utility.yul\":2563:2564   */\n      0x00\n        /* \"#utility.yul\":2556:2571   */\n      revert\n        /* \"#utility.yul\":2583:2768   */\n    tag_29:\n        /* \"#utility.yul\":2623:2624   */\n      0x00\n        /* \"#utility.yul\":2640:2660   */\n      tag_113\n        /* \"#utility.yul\":2658:2659   */\n      dup3\n        /* \"#utility.yul\":2640:2660   */\n      tag_70\n      jump\t// in\n    tag_113:\n        /* \"#utility.yul\":2635:2660   */\n      swap2\n      pop\n        /* \"#utility.yul\":2674:2694   */\n      tag_114\n        /* \"#utility.yul\":2692:2693   */\n      dup4\n        /* \"#utility.yul\":2674:2694   */\n      tag_70\n      jump\t// in\n    tag_114:\n        /* \"#utility.yul\":2669:2694   */\n      swap3\n      pop\n        /* \"#utility.yul\":2713:2714   */\n      dup3\n        /* \"#utility.yul\":2703:2738   */\n      tag_115\n      jumpi\n        /* \"#utility.yul\":2718:2736   */\n      tag_116\n      tag_75\n      jump\t// in\n    tag_116:\n        /* \"#utility.yul\":2703:2738   */\n    tag_115:\n        /* \"#utility.yul\":2760:2761   */\n      dup3\n        /* \"#utility.yul\":2757:2758   */\n      dup3\n        /* \"#utility.yul\":2753:2762   */\n      div\n        /* \"#utility.yul\":2748:2762   */\n      swap1\n      pop\n        /* \"#utility.yul\":2583:2768   */\n      swap3\n      swap2\n      pop\n      pop\n      jump\t// out\n        /* \"#utility.yul\":2774:3079   */\n    tag_32:\n        /* \"#utility.yul\":2814:2817   */\n      0x00\n        /* \"#utility.yul\":2833:2853   */\n      tag_118\n        /* \"#utility.yul\":2851:2852   */\n      dup3\n        /* \"#utility.yul\":2833:2853   */\n      tag_70\n      jump\t// in\n    tag_118:\n        /* \"#utility.yul\":2828:2853   */\n      swap2\n      pop\n        /* \"#utility.yul\":2867:2887   */\n      tag_119\n        /* \"#utility.yul\":2885:2886   */\n      dup4\n        /* \"#utility.yul\":2867:2887   */\n      tag_70\n      jump\t// in\n    tag_119:\n        /* \"#utility.yul\":2862:2887   */\n      swap3\n      pop\n        /* \"#utility.yul\":3021:3022   */\n      dup3\n        /* \"#utility.yul\":2953:3019   */\n      0xffffffffffffffffffffffffffffffffffffffffffffffffffffffffffffffff\n        /* \"#utility.yul\":2949:3023   */\n      sub\n        /* \"#utility.yul\":2946:2947   */\n      dup3\n        /* \"#utility.yul\":2943:3024   */\n      gt\n        /* \"#utility.yul\":2940:3047   */\n      iszero\n      tag_120\n      jumpi\n        /* \"#utility.yul\":3027:3045   */\n      tag_121\n      tag_74\n      jump\t// in\n    tag_121:\n        /* \"#utility.yul\":2940:3047   */\n    tag_120:\n        /* \"#utility.yul\":3071:3072   */\n      dup3\n        /* \"#utility.yul\":3068:3069   */\n      dup3\n        /* \"#utility.yul\":3064:3073   */\n      add\n        /* \"#utility.yul\":3057:3073   */\n      swap1\n      pop\n        /* \"#utility.yul\":2774:3079   */\n      swap3\n      swap2\n      pop\n      pop\n      jump\t// out\n        /* \"#utility.yul\":3085:3254   */\n    tag_76:\n        /* \"#utility.yul\":3169:3180   */\n      0x00\n        /* \"#utility.yul\":3203:3209   */\n      dup3\n        /* \"#utility.yul\":3198:3201   */\n      dup3\n        /* \"#utility.yul\":3191:3210   */\n      mstore\n        /* \"#utility.yul\":3243:3247   */\n      0x20\n        /* \"#utility.yul\":3238:3241   */\n      dup3\n        /* \"#utility.yul\":3234:3248   */\n      add\n        /* \"#utility.yul\":3219:3248   */\n      swap1\n      pop\n        /* \"#utility.yul\":3085:3254   */\n      swap3\n      swap2\n      pop\n      pop\n      jump\t// out\n        /* \"#utility.yul\":3260:3426   */\n    tag_77:\n        /* \"#utility.yul\":3400:3418   */\n      0x416c726561647920657865637574656400000000000000000000000000000000\n        /* \"#utility.yul\":3396:3397   */\n      0x00\n        /* \"#utility.yul\":3388:3394   */\n      dup3\n        /* \"#utility.yul\":3384:3398   */\n      add\n        /* \"#utility.yul\":3377:3419   */\n      mstore\n        /* \"#utility.yul\":3260:3426   */\n      pop\n      jump\t// out\n        /* \"#utility.yul\":3432:3798   */\n    tag_78:\n        /* \"#utility.yul\":3574:3577   */\n      0x00\n        /* \"#utility.yul\":3595:3662   */\n      tag_125\n        /* \"#utility.yul\":3659:3661   */\n      0x10\n        /* \"#utility.yul\":3654:3657   */\n      dup4\n        /* \"#utility.yul\":3595:3662   */\n      tag_76\n      jump\t// in\n    tag_125:\n        /* \"#utility.yul\":3588:3662   */\n      swap2\n      pop\n        /* \"#utility.yul\":3671:3764   */\n      tag_126\n        /* \"#utility.yul\":3760:3763   */\n      dup3\n        /* \"#utility.yul\":3671:3764   */\n      tag_77\n      jump\t// in\n    tag_126:\n        /* \"#utility.yul\":3789:3791   */\n      0x20\n        /* \"#utility.yul\":3784:3787   */\n      dup3\n        /* \"#utility.yul\":3780:3792   */\n      add\n        /* \"#utility.yul\":3773:3792   */\n      swap1\n      pop\n        /* \"#utility.yul\":3432:3798   */\n      swap2\n      swap1\n      pop\n      jump\t// out\n        /* \"#utility.yul\":3804:4223   */\n    tag_39:\n        /* \"#utility.yul\":3970:3974   */\n      0x00\n        /* \"#utility.yul\":4008:4010   */\n      0x20\n        /* \"#utility.yul\":3997:4006   */\n      dup3\n        /* \"#utility.yul\":3993:4011   */\n      add\n        /* \"#utility.yul\":3985:4011   */\n      swap1\n      pop\n        /* \"#utility.yul\":4057:4066   */\n      dup2\n        /* \"#utility.yul\":4051:4055   */\n      dup2\n        /* \"#utility.yul\":4047:4067   */\n      sub\n        /* \"#utility.yul\":4043:4044   */\n      0x00\n        /* \"#utility.yul\":4032:4041   */\n      dup4\n        /* \"#utility.yul\":4028:4045   */\n      add\n        /* \"#utility.yul\":4021:4068   */\n      mstore\n        /* \"#utility.yul\":4085:4216   */\n      tag_128\n        /* \"#utility.yul\":4211:4215   */\n      dup2\n        /* \"#utility.yul\":4085:4216   */\n      tag_78\n      jump\t// in\n    tag_128:\n        /* \"#utility.yul\":4077:4216   */\n      swap1\n      pop\n        /* \"#utility.yul\":3804:4223   */\n      swap2\n      swap1\n      pop\n      jump\t// out\n        /* \"#utility.yul\":4229:4331   */\n    tag_79:\n        /* \"#utility.yul\":4271:4279   */\n      0x00\n        /* \"#utility.yul\":4318:4323   */\n      dup2\n        /* \"#utility.yul\":4315:4316   */\n      0x01\n        /* \"#utility.yul\":4311:4324   */\n      shr\n        /* \"#utility.yul\":4290:4324   */\n      swap1\n      pop\n        /* \"#utility.yul\":4229:4331   */\n      swap2\n      swap1\n      pop\n      jump\t// out\n        /* \"#utility.yul\":4337:5185   */\n    tag_80:\n        /* \"#utility.yul\":4398:4403   */\n      0x00\n        /* \"#utility.yul\":4405:4409   */\n      dup1\n        /* \"#utility.yul\":4429:4435   */\n      dup3\n        /* \"#utility.yul\":4420:4435   */\n      swap2\n      pop\n        /* \"#utility.yul\":4453:4458   */\n      dup4\n        /* \"#utility.yul\":4444:4458   */\n      swap1\n      pop\n        /* \"#utility.yul\":4467:5179   */\n    tag_131:\n        /* \"#utility.yul\":4488:4489   */\n      0x01\n        /* \"#utility.yul\":4478:4486   */\n      dup6\n        /* \"#utility.yul\":4475:4490   */\n      gt\n        /* \"#utility.yul\":4467:5179   */\n      iszero\n      tag_133\n      jumpi\n        /* \"#utility.yul\":4583:4587   */\n      dup1\n        /* \"#utility.yul\":4578:4581   */\n      dup7\n        /* \"#utility.yul\":4574:4588   */\n      div\n        /* \"#utility.yul\":4568:4572   */\n      dup2\n        /* \"#utility.yul\":4565:4589   */\n      gt\n        /* \"#utility.yul\":4562:4612   */\n      iszero\n      tag_134\n      jumpi\n        /* \"#utility.yul\":4592:4610   */\n      tag_135\n      tag_74\n      jump\t// in\n    tag_135:\n        /* \"#utility.yul\":4562:4612   */\n    tag_134:\n        /* \"#utility.yul\":4642:4643   */\n      0x01\n        /* \"#utility.yul\":4632:4640   */\n      dup6\n        /* \"#utility.yul\":4628:4644   */\n      and\n        /* \"#utility.yul\":4625:5076   */\n      iszero\n      tag_136\n      jumpi\n        /* \"#utility.yul\":5057:5061   */\n      dup1\n        /* \"#utility.yul\":5050:5055   */\n      dup3\n        /* \"#utility.yul\":5046:5062   */\n      mul\n        /* \"#utility.yul\":5037:5062   */\n      swap2\n      pop\n        /* \"#utility.yul\":4625:5076   */\n    tag_136:\n        /* \"#utility.yul\":5107:5111   */\n      dup1\n        /* \"#utility.yul\":5101:5105   */\n      dup2\n        /* \"#utility.yul\":5097:5112   */\n      mul\n        /* \"#utility.yul\":5089:5112   */\n      swap1\n      pop\n        /* \"#utility.yul\":5137:5169   */\n      tag_137\n        /* \"#utility.yul\":5160:5168   */\n      dup6\n        /* \"#utility.yul\":5137:5169   */\n      tag_79\n      jump\t// in\n    tag_137:\n        /* \"#utility.yul\":5125:5169   */\n      swap5\n      pop\n        /* \"#utility.yul\":4467:5179   */\n      jump(tag_131)\n    tag_133:\n        /* \"#utility.yul\":4337:5185   */\n      swap5\n      pop\n      swap5\n      swap3\n      pop\n      pop\n      pop\n      jump\t// out\n        /* \"#utility.yul\":5191:6264   */\n    tag_81:\n        /* \"#utility.yul\":5245:5250   */\n      0x00\n        /* \"#utility.yul\":5436:5444   */\n      dup3\n        /* \"#utility.yul\":5426:5466   */\n      tag_139\n      jumpi\n        /* \"#utility.yul\":5457:5458   */\n      0x01\n        /* \"#utility.yul\":5448:5458   */\n      swap1\n      pop\n        /* \"#utility.yul\":5459:5464   */\n      jump(tag_138)\n        /* \"#utility.yul\":5426:5466   */\n    tag_139:\n        /* \"#utility.yul\":5485:5489   */\n      dup2\n        /* \"#utility.yul\":5475:5511   */\n      tag_140\n      jumpi\n        /* \"#utility.yul\":5502:5503   */\n      0x00\n        /* \"#utility.yul\":5493:5503   */\n      swap1\n      pop\n        /* \"#utility.yul\":5504:5509   */\n      jump(tag_138)\n        /* \"#utility.yul\":5475:5511   */\n    tag_140:\n        /* \"#utility.yul\":5571:5575   */\n      dup2\n        /* \"#utility.yul\":5619:5620   */\n      0x01\n        /* \"#utility.yul\":5614:5641   */\n      dup2\n      eq\n      tag_142\n      jumpi\n        /* \"#utility.yul\":5655:5656   */\n      0x02\n        /* \"#utility.yul\":5650:5841   */\n      dup2\n      eq\n      tag_143\n      jumpi\n        /* \"#utility.yul\":5564:5841   */\n      jump(tag_141)\n        /* \"#utility.yul\":5614:5641   */\n    tag_142:\n        /* \"#utility.yul\":5632:5633   */\n      0x01\n        /* \"#utility.yul\":5623:5633   */\n      swap2\n      pop\n        /* \"#utility.yul\":5634:5639   */\n      pop\n      jump(tag_138)\n        /* \"#utility.yul\":5650:5841   */\n    tag_143:\n        /* \"#utility.yul\":5695:5698   */\n      0xff\n        /* \"#utility.yul\":5685:5693   */\n      dup5\n        /* \"#utility.yul\":5682:5699   */\n      gt\n        /* \"#utility.yul\":5679:5722   */\n      iszero\n      tag_144\n      jumpi\n        /* \"#utility.yul\":5702:5720   */\n      tag_145\n      tag_74\n      jump\t// in\n    tag_145:\n        /* \"#utility.yul\":5679:5722   */\n    tag_144:\n        /* \"#utility.yul\":5751:5759   */\n      dup4\n        /* \"#utility.yul\":5748:5749   */\n      0x02\n        /* \"#utility.yul\":5744:5760   */\n      exp\n        /* \"#utility.yul\":5735:5760   */\n      swap2\n      pop\n        /* \"#utility.yul\":5786:5789   */\n      dup5\n        /* \"#utility.yul\":5779:5784   */\n      dup3\n        /* \"#utility.yul\":5776:5790   */\n      gt\n        /* \"#utility.yul\":5773:5813   */\n      iszero\n      tag_146\n      jumpi\n        /* \"#utility.yul\":5793:5811   */\n      tag_147\n      tag_74\n      jump\t// in\n    tag_147:\n        /* \"#utility.yul\":5773:5813   */\n    tag_146:\n        /* \"#utility.yul\":5826:5831   */\n      pop\n      jump(tag_138)\n        /* \"#utility.yul\":5564:5841   */\n    tag_141:\n      pop\n        /* \"#utility.yul\":5950:5952   */\n      0x20\n        /* \"#utility.yul\":5940:5948   */\n      dup4\n        /* \"#utility.yul\":5937:5953   */\n      lt\n        /* \"#utility.yul\":5931:5934   */\n      0x0133\n        /* \"#utility.yul\":5925:5929   */\n      dup4\n        /* \"#utility.yul\":5922:5935   */\n      lt\n        /* \"#utility.yul\":5918:5954   */\n      and\n        /* \"#utility.yul\":5900:5902   */\n      0x4e\n        /* \"#utility.yul\":5890:5898   */\n      dup5\n        /* \"#utility.yul\":5887:5903   */\n      lt\n        /* \"#utility.yul\":5882:5884   */\n      0x0b\n        /* \"#utility.yul\":5876:5880   */\n      dup5\n        /* \"#utility.yul\":5873:5885   */\n      lt\n        /* \"#utility.yul\":5869:5904   */\n      and\n        /* \"#utility.yul\":5853:5964   */\n      or\n        /* \"#utility.yul\":5850:6096   */\n      iszero\n      tag_148\n      jumpi\n        /* \"#utility.yul\":6006:6014   */\n      dup3\n        /* \"#utility.yul\":6000:6004   */\n      dup3\n        /* \"#utility.yul\":5996:6015   */\n      exp\n        /* \"#utility.yul\":5987:6015   */\n      swap1\n      pop\n        /* \"#utility.yul\":6041:6044   */\n      dup4\n        /* \"#utility.yul\":6034:6039   */\n      dup2\n        /* \"#utility.yul\":6031:6045   */\n      gt\n        /* \"#utility.yul\":6028:6068   */\n      iszero\n      tag_149\n      jumpi\n        /* \"#utility.yul\":6048:6066   */\n      tag_150\n      tag_74\n      jump\t// in\n    tag_150:\n        /* \"#utility.yul\":6028:6068   */\n    tag_149:\n        /* \"#utility.yul\":6081:6086   */\n      jump(tag_138)\n        /* \"#utility.yul\":5850:6096   */\n    tag_148:\n        /* \"#utility.yul\":6121:6163   */\n      tag_151\n        /* \"#utility.yul\":6159:6162   */\n      dup5\n        /* \"#utility.yul\":6149:6157   */\n      dup5\n        /* \"#utility.yul\":6143:6147   */\n      dup5\n        /* \"#utility.yul\":6140:6141   */\n      0x01\n        /* \"#utility.yul\":6121:6163   */\n      tag_80\n      jump\t// in\n    tag_151:\n        /* \"#utility.yul\":6106:6163   */\n      swap3\n      pop\n      swap1\n      pop\n        /* \"#utility.yul\":6195:6199   */\n      dup2\n        /* \"#utility.yul\":6190:6193   */\n      dup5\n        /* \"#utility.yul\":6186:6200   */\n      div\n        /* \"#utility.yul\":6179:6184   */\n      dup2\n        /* \"#utility.yul\":6176:6201   */\n      gt\n        /* \"#utility.yul\":6173:6224   */\n      iszero\n      tag_152\n      jumpi\n        /* \"#utility.yul\":6204:6222   */\n      tag_153\n      tag_74\n      jump\t// in\n    tag_153:\n        /* \"#utility.yul\":6173:6224   */\n    tag_152:\n        /* \"#utility.yul\":6253:6257   */\n      dup2\n        /* \"#utility.yul\":6246:6251   */\n      dup2\n        /* \"#utility.yul\":6242:6258   */\n      mul\n        /* \"#utility.yul\":6233:6258   */\n      swap1\n      pop\n        /* \"#utility.yul\":5191:6264   */\n    tag_138:\n      swap4\n      swap3\n      pop\n      pop\n      pop\n      jump\t// out\n        /* \"#utility.yul\":6270:6555   */\n    tag_41:\n        /* \"#utility.yul\":6330:6335   */\n      0x00\n        /* \"#utility.yul\":6354:6377   */\n      tag_155\n        /* \"#utility.yul\":6372:6376   */\n      dup3\n        /* \"#utility.yul\":6354:6377   */\n      tag_70\n      jump\t// in\n    tag_155:\n        /* \"#utility.yul\":6346:6377   */\n      swap2\n      pop\n        /* \"#utility.yul\":6398:6425   */\n      tag_156\n        /* \"#utility.yul\":6416:6424   */\n      dup4\n        /* \"#utility.yul\":6398:6425   */\n      tag_70\n      jump\t// in\n    tag_156:\n        /* \"#utility.yul\":6386:6425   */\n      swap3\n      pop\n        /* \"#utility.yul\":6444:6548   */\n      tag_157\n        /* \"#utility.yul\":6481:6547   */\n      0xffffffffffffffffffffffffffffffffffffffffffffffffffffffffffffffff\n        /* \"#utility.yul\":6471:6479   */\n      dup5\n        /* \"#utility.yul\":6465:6469   */\n      dup5\n        /* \"#utility.yul\":6444:6548   */\n      tag_81\n      jump\t// in\n    tag_157:\n        /* \"#utility.yul\":6435:6548   */\n      swap1\n      pop\n        /* \"#utility.yul\":6270:6555   */\n      swap3\n      swap2\n      pop\n      pop\n      jump\t// out\n        /* \"#utility.yul\":6561:6752   */\n    tag_48:\n        /* \"#utility.yul\":6601:6605   */\n      0x00\n        /* \"#utility.yul\":6621:6641   */\n      tag_159\n        /* \"#utility.yul\":6639:6640   */\n      dup3\n        /* \"#utility.yul\":6621:6641   */\n      tag_70\n      jump\t// in\n    tag_159:\n        /* \"#utility.yul\":6616:6641   */\n      swap2\n      pop\n        /* \"#utility.yul\":6655:6675   */\n      tag_160\n        /* \"#utility.yul\":6673:6674   */\n      dup4\n        /* \"#utility.yul\":6655:6675   */\n      tag_70\n      jump\t// in\n    tag_160:\n        /* \"#utility.yul\":6650:6675   */\n      swap3\n      pop\n        /* \"#utility.yul\":6694:6695   */\n      dup3\n        /* \"#utility.yul\":6691:6692   */\n      dup3\n        /* \"#utility.yul\":6688:6696   */\n      lt\n        /* \"#utility.yul\":6685:6719   */\n      iszero\n      tag_161\n      jumpi\n        /* \"#utility.yul\":6699:6717   */\n      tag_162\n      tag_74\n      jump\t// in\n    tag_162:\n        /* \"#utility.yul\":6685:6719   */\n    tag_161:\n        /* \"#utility.yul\":6744:6745   */\n      dup3\n        /* \"#utility.yul\":6741:6742   */\n      dup3\n        /* \"#utility.yul\":6737:6746   */\n      sub\n        /* \"#utility.yul\":6729:6746   */\n      swap1\n      pop\n        /* \"#utility.yul\":6561:6752   */\n      swap3\n      swap2\n      pop\n      pop\n      jump\t// out\n\n    auxdata: 0xa2646970667358221220f90703ec3d536795c5fe9781d4db335dd8acd902a6fa77fbf76ace09448e831964736f6c634300080f0033\n}\n",
				"bytecode": {
					"linkReferences": {},
					"object": "60806040523480156200001157600080fd5b5060405162000ae738038062000ae78339818101604052810190620000379190620000e0565b6012600181905550600154600a62000050919062000295565b816200005d9190620002e6565b6000819055506000600260006101000a81548160ff0219169083151502179055506000600260016101000a81548160ff0219169083151502179055505062000347565b600080fd5b6000819050919050565b620000ba81620000a5565b8114620000c657600080fd5b50565b600081519050620000da81620000af565b92915050565b600060208284031215620000f957620000f8620000a0565b5b60006200010984828501620000c9565b91505092915050565b7f4e487b7100000000000000000000000000000000000000000000000000000000600052601160045260246000fd5b60008160011c9050919050565b6000808291508390505b6001851115620001a05780860481111562000178576200017762000112565b5b6001851615620001885780820291505b8081029050620001988562000141565b945062000158565b94509492505050565b600082620001bb57600190506200028e565b81620001cb57600090506200028e565b8160018114620001e45760028114620001ef5762000225565b60019150506200028e565b60ff84111562000204576200020362000112565b5b8360020a9150848211156200021e576200021d62000112565b5b506200028e565b5060208310610133831016604e8410600b84101617156200025f5782820a90508381111562000259576200025862000112565b5b6200028e565b6200026e84848460016200014e565b9250905081840481111562000288576200028762000112565b5b81810290505b9392505050565b6000620002a282620000a5565b9150620002af83620000a5565b9250620002de7fffffffffffffffffffffffffffffffffffffffffffffffffffffffffffffffff8484620001a9565b905092915050565b6000620002f382620000a5565b91506200030083620000a5565b9250817fffffffffffffffffffffffffffffffffffffffffffffffffffffffffffffffff04831182151516156200033c576200033b62000112565b5b828202905092915050565b61079080620003576000396000f3fe608060405234801561001057600080fd5b50600436106100575760003560e01c8063131e2f181461005c5780632c4e722e1461008c57806384c6e2c8146100aa5780639f8af9dd146100b4578063effc1fe0146100d0575b600080fd5b61007660048036038101906100719190610355565b6100da565b6040516100839190610391565b60405180910390f35b610094610115565b6040516100a19190610391565b60405180910390f35b6100b261011b565b005b6100ce60048036038101906100c991906103ac565b610125565b005b6100d86102bd565b005b60006001546064600054846100ef919061041b565b6100f991906104a4565b61010391906104a4565b8261010e91906104d5565b9050919050565b60005481565b6101236102f7565b565b600260009054906101000a900460ff1615610175576040517f08c379a000000000000000000000000000000000000000000000000000000000815260040161016c90610588565b60405180910390fd5b6000600154600a61018691906106db565b83610191919061041b565b90506000600154600a6101a491906106db565b836101af919061041b565b9050600083836101bf91906104a4565b90506000671158e460913d000090508181116101fd5780826101e19190610726565b6000808282546101f191906104d5565b9250508190555061029a565b600060648761020c919061041b565b607d60005461021b919061041b565b61022591906104a4565b905060006064605087610238919061041b565b61024291906104a4565b9050600081866102529190610726565b90506000600154600a61026591906106db565b8285610271919061041b565b61027b91906104a4565b90508060008082825461028e9190610726565b92505081905550505050505b6001600260006101000a81548160ff021916908315150217905550505050505050565b600260019054906101000a900460ff166102f5576102d96102f7565b6001600260016101000a81548160ff0219169083151502179055505b565b60086007600054610308919061041b565b61031291906104a4565b600081905550565b600080fd5b6000819050919050565b6103328161031f565b811461033d57600080fd5b50565b60008135905061034f81610329565b92915050565b60006020828403121561036b5761036a61031a565b5b600061037984828501610340565b91505092915050565b61038b8161031f565b82525050565b60006020820190506103a66000830184610382565b92915050565b600080604083850312156103c3576103c261031a565b5b60006103d185828601610340565b92505060206103e285828601610340565b9150509250929050565b7f4e487b7100000000000000000000000000000000000000000000000000000000600052601160045260246000fd5b60006104268261031f565b91506104318361031f565b9250817fffffffffffffffffffffffffffffffffffffffffffffffffffffffffffffffff048311821515161561046a576104696103ec565b5b828202905092915050565b7f4e487b7100000000000000000000000000000000000000000000000000000000600052601260045260246000fd5b60006104af8261031f565b91506104ba8361031f565b9250826104ca576104c9610475565b5b828204905092915050565b60006104e08261031f565b91506104eb8361031f565b9250827fffffffffffffffffffffffffffffffffffffffffffffffffffffffffffffffff038211156105205761051f6103ec565b5b828201905092915050565b600082825260208201905092915050565b7f416c726561647920657865637574656400000000000000000000000000000000600082015250565b600061057260108361052b565b915061057d8261053c565b602082019050919050565b600060208201905081810360008301526105a181610565565b9050919050565b60008160011c9050919050565b6000808291508390505b60018511156105ff578086048111156105db576105da6103ec565b5b60018516156105ea5780820291505b80810290506105f8856105a8565b94506105bf565b94509492505050565b60008261061857600190506106d4565b8161062657600090506106d4565b816001811461063c576002811461064657610675565b60019150506106d4565b60ff841115610658576106576103ec565b5b8360020a91508482111561066f5761066e6103ec565b5b506106d4565b5060208310610133831016604e8410600b84101617156106aa5782820a9050838111156106a5576106a46103ec565b5b6106d4565b6106b784848460016105b5565b925090508184048111156106ce576106cd6103ec565b5b81810290505b9392505050565b60006106e68261031f565b91506106f18361031f565b925061071e7fffffffffffffffffffffffffffffffffffffffffffffffffffffffffffffffff8484610608565b905092915050565b60006107318261031f565b915061073c8361031f565b92508282101561074f5761074e6103ec565b5b82820390509291505056fea2646970667358221220f90703ec3d536795c5fe9781d4db335dd8acd902a6fa77fbf76ace09448e831964736f6c634300080f0033",
					"opcodes": "PUSH1 0x80 PUSH1 0x40 MSTORE CALLVALUE DUP1 ISZERO PUSH3 0x11 JUMPI PUSH1 0x0 DUP1 REVERT JUMPDEST POP PUSH1 0x40 MLOAD PUSH3 0xAE7 CODESIZE SUB DUP1 PUSH3 0xAE7 DUP4 CODECOPY DUP2 DUP2 ADD PUSH1 0x40 MSTORE DUP2 ADD SWAP1 PUSH3 0x37 SWAP2 SWAP1 PUSH3 0xE0 JUMP JUMPDEST PUSH1 0x12 PUSH1 0x1 DUP2 SWAP1 SSTORE POP PUSH1 0x1 SLOAD PUSH1 0xA PUSH3 0x50 SWAP2 SWAP1 PUSH3 0x295 JUMP JUMPDEST DUP2 PUSH3 0x5D SWAP2 SWAP1 PUSH3 0x2E6 JUMP JUMPDEST PUSH1 0x0 DUP2 SWAP1 SSTORE POP PUSH1 0x0 PUSH1 0x2 PUSH1 0x0 PUSH2 0x100 EXP DUP2 SLOAD DUP2 PUSH1 0xFF MUL NOT AND SWAP1 DUP4 ISZERO ISZERO MUL OR SWAP1 SSTORE POP PUSH1 0x0 PUSH1 0x2 PUSH1 0x1 PUSH2 0x100 EXP DUP2 SLOAD DUP2 PUSH1 0xFF MUL NOT AND SWAP1 DUP4 ISZERO ISZERO MUL OR SWAP1 SSTORE POP POP PUSH3 0x347 JUMP JUMPDEST PUSH1 0x0 DUP1 REVERT JUMPDEST PUSH1 0x0 DUP2 SWAP1 POP SWAP2 SWAP1 POP JUMP JUMPDEST PUSH3 0xBA DUP2 PUSH3 0xA5 JUMP JUMPDEST DUP2 EQ PUSH3 0xC6 JUMPI PUSH1 0x0 DUP1 REVERT JUMPDEST POP JUMP JUMPDEST PUSH1 0x0 DUP2 MLOAD SWAP1 POP PUSH3 0xDA DUP2 PUSH3 0xAF JUMP JUMPDEST SWAP3 SWAP2 POP POP JUMP JUMPDEST PUSH1 0x0 PUSH1 0x20 DUP3 DUP5 SUB SLT ISZERO PUSH3 0xF9 JUMPI PUSH3 0xF8 PUSH3 0xA0 JUMP JUMPDEST JUMPDEST PUSH1 0x0 PUSH3 0x109 DUP5 DUP3 DUP6 ADD PUSH3 0xC9 JUMP JUMPDEST SWAP2 POP POP SWAP3 SWAP2 POP POP JUMP JUMPDEST PUSH32 0x4E487B7100000000000000000000000000000000000000000000000000000000 PUSH1 0x0 MSTORE PUSH1 0x11 PUSH1 0x4 MSTORE PUSH1 0x24 PUSH1 0x0 REVERT JUMPDEST PUSH1 0x0 DUP2 PUSH1 0x1 SHR SWAP1 POP SWAP2 SWAP1 POP JUMP JUMPDEST PUSH1 0x0 DUP1 DUP3 SWAP2 POP DUP4 SWAP1 POP JUMPDEST PUSH1 0x1 DUP6 GT ISZERO PUSH3 0x1A0 JUMPI DUP1 DUP7 DIV DUP2 GT ISZERO PUSH3 0x178 JUMPI PUSH3 0x177 PUSH3 0x112 JUMP JUMPDEST JUMPDEST PUSH1 0x1 DUP6 AND ISZERO PUSH3 0x188 JUMPI DUP1 DUP3 MUL SWAP2 POP JUMPDEST DUP1 DUP2 MUL SWAP1 POP PUSH3 0x198 DUP6 PUSH3 0x141 JUMP JUMPDEST SWAP5 POP PUSH3 0x158 JUMP JUMPDEST SWAP5 POP SWAP5 SWAP3 POP POP POP JUMP JUMPDEST PUSH1 0x0 DUP3 PUSH3 0x1BB JUMPI PUSH1 0x1 SWAP1 POP PUSH3 0x28E JUMP JUMPDEST DUP2 PUSH3 0x1CB JUMPI PUSH1 0x0 SWAP1 POP PUSH3 0x28E JUMP JUMPDEST DUP2 PUSH1 0x1 DUP2 EQ PUSH3 0x1E4 JUMPI PUSH1 0x2 DUP2 EQ PUSH3 0x1EF JUMPI PUSH3 0x225 JUMP JUMPDEST PUSH1 0x1 SWAP2 POP POP PUSH3 0x28E JUMP JUMPDEST PUSH1 0xFF DUP5 GT ISZERO PUSH3 0x204 JUMPI PUSH3 0x203 PUSH3 0x112 JUMP JUMPDEST JUMPDEST DUP4 PUSH1 0x2 EXP SWAP2 POP DUP5 DUP3 GT ISZERO PUSH3 0x21E JUMPI PUSH3 0x21D PUSH3 0x112 JUMP JUMPDEST JUMPDEST POP PUSH3 0x28E JUMP JUMPDEST POP PUSH1 0x20 DUP4 LT PUSH2 0x133 DUP4 LT AND PUSH1 0x4E DUP5 LT PUSH1 0xB DUP5 LT AND OR ISZERO PUSH3 0x25F JUMPI DUP3 DUP3 EXP SWAP1 POP DUP4 DUP2 GT ISZERO PUSH3 0x259 JUMPI PUSH3 0x258 PUSH3 0x112 JUMP JUMPDEST JUMPDEST PUSH3 0x28E JUMP JUMPDEST PUSH3 0x26E DUP5 DUP5 DUP5 PUSH1 0x1 PUSH3 0x14E JUMP JUMPDEST SWAP3 POP SWAP1 POP DUP2 DUP5 DIV DUP2 GT ISZERO PUSH3 0x288 JUMPI PUSH3 0x287 PUSH3 0x112 JUMP JUMPDEST JUMPDEST DUP2 DUP2 MUL SWAP1 POP JUMPDEST SWAP4 SWAP3 POP POP POP JUMP JUMPDEST PUSH1 0x0 PUSH3 0x2A2 DUP3 PUSH3 0xA5 JUMP JUMPDEST SWAP2 POP PUSH3 0x2AF DUP4 PUSH3 0xA5 JUMP JUMPDEST SWAP3 POP PUSH3 0x2DE PUSH32 0xFFFFFFFFFFFFFFFFFFFFFFFFFFFFFFFFFFFFFFFFFFFFFFFFFFFFFFFFFFFFFFFF DUP5 DUP5 PUSH3 0x1A9 JUMP JUMPDEST SWAP1 POP SWAP3 SWAP2 POP POP JUMP JUMPDEST PUSH1 0x0 PUSH3 0x2F3 DUP3 PUSH3 0xA5 JUMP JUMPDEST SWAP2 POP PUSH3 0x300 DUP4 PUSH3 0xA5 JUMP JUMPDEST SWAP3 POP DUP2 PUSH32 0xFFFFFFFFFFFFFFFFFFFFFFFFFFFFFFFFFFFFFFFFFFFFFFFFFFFFFFFFFFFFFFFF DIV DUP4 GT DUP3 ISZERO ISZERO AND ISZERO PUSH3 0x33C JUMPI PUSH3 0x33B PUSH3 0x112 JUMP JUMPDEST JUMPDEST DUP3 DUP3 MUL SWAP1 POP SWAP3 SWAP2 POP POP JUMP JUMPDEST PUSH2 0x790 DUP1 PUSH3 0x357 PUSH1 0x0 CODECOPY PUSH1 0x0 RETURN INVALID PUSH1 0x80 PUSH1 0x40 MSTORE CALLVALUE DUP1 ISZERO PUSH2 0x10 JUMPI PUSH1 0x0 DUP1 REVERT JUMPDEST POP PUSH1 0x4 CALLDATASIZE LT PUSH2 0x57 JUMPI PUSH1 0x0 CALLDATALOAD PUSH1 0xE0 SHR DUP1 PUSH4 0x131E2F18 EQ PUSH2 0x5C JUMPI DUP1 PUSH4 0x2C4E722E EQ PUSH2 0x8C JUMPI DUP1 PUSH4 0x84C6E2C8 EQ PUSH2 0xAA JUMPI DUP1 PUSH4 0x9F8AF9DD EQ PUSH2 0xB4 JUMPI DUP1 PUSH4 0xEFFC1FE0 EQ PUSH2 0xD0 JUMPI JUMPDEST PUSH1 0x0 DUP1 REVERT JUMPDEST PUSH2 0x76 PUSH1 0x4 DUP1 CALLDATASIZE SUB DUP2 ADD SWAP1 PUSH2 0x71 SWAP2 SWAP1 PUSH2 0x355 JUMP JUMPDEST PUSH2 0xDA JUMP JUMPDEST PUSH1 0x40 MLOAD PUSH2 0x83 SWAP2 SWAP1 PUSH2 0x391 JUMP JUMPDEST PUSH1 0x40 MLOAD DUP1 SWAP2 SUB SWAP1 RETURN JUMPDEST PUSH2 0x94 PUSH2 0x115 JUMP JUMPDEST PUSH1 0x40 MLOAD PUSH2 0xA1 SWAP2 SWAP1 PUSH2 0x391 JUMP JUMPDEST PUSH1 0x40 MLOAD DUP1 SWAP2 SUB SWAP1 RETURN JUMPDEST PUSH2 0xB2 PUSH2 0x11B JUMP JUMPDEST STOP JUMPDEST PUSH2 0xCE PUSH1 0x4 DUP1 CALLDATASIZE SUB DUP2 ADD SWAP1 PUSH2 0xC9 SWAP2 SWAP1 PUSH2 0x3AC JUMP JUMPDEST PUSH2 0x125 JUMP JUMPDEST STOP JUMPDEST PUSH2 0xD8 PUSH2 0x2BD JUMP JUMPDEST STOP JUMPDEST PUSH1 0x0 PUSH1 0x1 SLOAD PUSH1 0x64 PUSH1 0x0 SLOAD DUP5 PUSH2 0xEF SWAP2 SWAP1 PUSH2 0x41B JUMP JUMPDEST PUSH2 0xF9 SWAP2 SWAP1 PUSH2 0x4A4 JUMP JUMPDEST PUSH2 0x103 SWAP2 SWAP1 PUSH2 0x4A4 JUMP JUMPDEST DUP3 PUSH2 0x10E SWAP2 SWAP1 PUSH2 0x4D5 JUMP JUMPDEST SWAP1 POP SWAP2 SWAP1 POP JUMP JUMPDEST PUSH1 0x0 SLOAD DUP2 JUMP JUMPDEST PUSH2 0x123 PUSH2 0x2F7 JUMP JUMPDEST JUMP JUMPDEST PUSH1 0x2 PUSH1 0x0 SWAP1 SLOAD SWAP1 PUSH2 0x100 EXP SWAP1 DIV PUSH1 0xFF AND ISZERO PUSH2 0x175 JUMPI PUSH1 0x40 MLOAD PUSH32 0x8C379A000000000000000000000000000000000000000000000000000000000 DUP2 MSTORE PUSH1 0x4 ADD PUSH2 0x16C SWAP1 PUSH2 0x588 JUMP JUMPDEST PUSH1 0x40 MLOAD DUP1 SWAP2 SUB SWAP1 REVERT JUMPDEST PUSH1 0x0 PUSH1 0x1 SLOAD PUSH1 0xA PUSH2 0x186 SWAP2 SWAP1 PUSH2 0x6DB JUMP JUMPDEST DUP4 PUSH2 0x191 SWAP2 SWAP1 PUSH2 0x41B JUMP JUMPDEST SWAP1 POP PUSH1 0x0 PUSH1 0x1 SLOAD PUSH1 0xA PUSH2 0x1A4 SWAP2 SWAP1 PUSH2 0x6DB JUMP JUMPDEST DUP4 PUSH2 0x1AF SWAP2 SWAP1 PUSH2 0x41B JUMP JUMPDEST SWAP1 POP PUSH1 0x0 DUP4 DUP4 PUSH2 0x1BF SWAP2 SWAP1 PUSH2 0x4A4 JUMP JUMPDEST SWAP1 POP PUSH1 0x0 PUSH8 0x1158E460913D0000 SWAP1 POP DUP2 DUP2 GT PUSH2 0x1FD JUMPI DUP1 DUP3 PUSH2 0x1E1 SWAP2 SWAP1 PUSH2 0x726 JUMP JUMPDEST PUSH1 0x0 DUP1 DUP3 DUP3 SLOAD PUSH2 0x1F1 SWAP2 SWAP1 PUSH2 0x4D5 JUMP JUMPDEST SWAP3 POP POP DUP2 SWAP1 SSTORE POP PUSH2 0x29A JUMP JUMPDEST PUSH1 0x0 PUSH1 0x64 DUP8 PUSH2 0x20C SWAP2 SWAP1 PUSH2 0x41B JUMP JUMPDEST PUSH1 0x7D PUSH1 0x0 SLOAD PUSH2 0x21B SWAP2 SWAP1 PUSH2 0x41B JUMP JUMPDEST PUSH2 0x225 SWAP2 SWAP1 PUSH2 0x4A4 JUMP JUMPDEST SWAP1 POP PUSH1 0x0 PUSH1 0x64 PUSH1 0x50 DUP8 PUSH2 0x238 SWAP2 SWAP1 PUSH2 0x41B JUMP JUMPDEST PUSH2 0x242 SWAP2 SWAP1 PUSH2 0x4A4 JUMP JUMPDEST SWAP1 POP PUSH1 0x0 DUP2 DUP7 PUSH2 0x252 SWAP2 SWAP1 PUSH2 0x726 JUMP JUMPDEST SWAP1 POP PUSH1 0x0 PUSH1 0x1 SLOAD PUSH1 0xA PUSH2 0x265 SWAP2 SWAP1 PUSH2 0x6DB JUMP JUMPDEST DUP3 DUP6 PUSH2 0x271 SWAP2 SWAP1 PUSH2 0x41B JUMP JUMPDEST PUSH2 0x27B SWAP2 SWAP1 PUSH2 0x4A4 JUMP JUMPDEST SWAP1 POP DUP1 PUSH1 0x0 DUP1 DUP3 DUP3 SLOAD PUSH2 0x28E SWAP2 SWAP1 PUSH2 0x726 JUMP JUMPDEST SWAP3 POP POP DUP2 SWAP1 SSTORE POP POP POP POP POP JUMPDEST PUSH1 0x1 PUSH1 0x2 PUSH1 0x0 PUSH2 0x100 EXP DUP2 SLOAD DUP2 PUSH1 0xFF MUL NOT AND SWAP1 DUP4 ISZERO ISZERO MUL OR SWAP1 SSTORE POP POP POP POP POP POP POP JUMP JUMPDEST PUSH1 0x2 PUSH1 0x1 SWAP1 SLOAD SWAP1 PUSH2 0x100 EXP SWAP1 DIV PUSH1 0xFF AND PUSH2 0x2F5 JUMPI PUSH2 0x2D9 PUSH2 0x2F7 JUMP JUMPDEST PUSH1 0x1 PUSH1 0x2 PUSH1 0x1 PUSH2 0x100 EXP DUP2 SLOAD DUP2 PUSH1 0xFF MUL NOT AND SWAP1 DUP4 ISZERO ISZERO MUL OR SWAP1 SSTORE POP JUMPDEST JUMP JUMPDEST PUSH1 0x8 PUSH1 0x7 PUSH1 0x0 SLOAD PUSH2 0x308 SWAP2 SWAP1 PUSH2 0x41B JUMP JUMPDEST PUSH2 0x312 SWAP2 SWAP1 PUSH2 0x4A4 JUMP JUMPDEST PUSH1 0x0 DUP2 SWAP1 SSTORE POP JUMP JUMPDEST PUSH1 0x0 DUP1 REVERT JUMPDEST PUSH1 0x0 DUP2 SWAP1 POP SWAP2 SWAP1 POP JUMP JUMPDEST PUSH2 0x332 DUP2 PUSH2 0x31F JUMP JUMPDEST DUP2 EQ PUSH2 0x33D JUMPI PUSH1 0x0 DUP1 REVERT JUMPDEST POP JUMP JUMPDEST PUSH1 0x0 DUP2 CALLDATALOAD SWAP1 POP PUSH2 0x34F DUP2 PUSH2 0x329 JUMP JUMPDEST SWAP3 SWAP2 POP POP JUMP JUMPDEST PUSH1 0x0 PUSH1 0x20 DUP3 DUP5 SUB SLT ISZERO PUSH2 0x36B JUMPI PUSH2 0x36A PUSH2 0x31A JUMP JUMPDEST JUMPDEST PUSH1 0x0 PUSH2 0x379 DUP5 DUP3 DUP6 ADD PUSH2 0x340 JUMP JUMPDEST SWAP2 POP POP SWAP3 SWAP2 POP POP JUMP JUMPDEST PUSH2 0x38B DUP2 PUSH2 0x31F JUMP JUMPDEST DUP3 MSTORE POP POP JUMP JUMPDEST PUSH1 0x0 PUSH1 0x20 DUP3 ADD SWAP1 POP PUSH2 0x3A6 PUSH1 0x0 DUP4 ADD DUP5 PUSH2 0x382 JUMP JUMPDEST SWAP3 SWAP2 POP POP JUMP JUMPDEST PUSH1 0x0 DUP1 PUSH1 0x40 DUP4 DUP6 SUB SLT ISZERO PUSH2 0x3C3 JUMPI PUSH2 0x3C2 PUSH2 0x31A JUMP JUMPDEST JUMPDEST PUSH1 0x0 PUSH2 0x3D1 DUP6 DUP3 DUP7 ADD PUSH2 0x340 JUMP JUMPDEST SWAP3 POP POP PUSH1 0x20 PUSH2 0x3E2 DUP6 DUP3 DUP7 ADD PUSH2 0x340 JUMP JUMPDEST SWAP2 POP POP SWAP3 POP SWAP3 SWAP1 POP JUMP JUMPDEST PUSH32 0x4E487B7100000000000000000000000000000000000000000000000000000000 PUSH1 0x0 MSTORE PUSH1 0x11 PUSH1 0x4 MSTORE PUSH1 0x24 PUSH1 0x0 REVERT JUMPDEST PUSH1 0x0 PUSH2 0x426 DUP3 PUSH2 0x31F JUMP JUMPDEST SWAP2 POP PUSH2 0x431 DUP4 PUSH2 0x31F JUMP JUMPDEST SWAP3 POP DUP2 PUSH32 0xFFFFFFFFFFFFFFFFFFFFFFFFFFFFFFFFFFFFFFFFFFFFFFFFFFFFFFFFFFFFFFFF DIV DUP4 GT DUP3 ISZERO ISZERO AND ISZERO PUSH2 0x46A JUMPI PUSH2 0x469 PUSH2 0x3EC JUMP JUMPDEST JUMPDEST DUP3 DUP3 MUL SWAP1 POP SWAP3 SWAP2 POP POP JUMP JUMPDEST PUSH32 0x4E487B7100000000000000000000000000000000000000000000000000000000 PUSH1 0x0 MSTORE PUSH1 0x12 PUSH1 0x4 MSTORE PUSH1 0x24 PUSH1 0x0 REVERT JUMPDEST PUSH1 0x0 PUSH2 0x4AF DUP3 PUSH2 0x31F JUMP JUMPDEST SWAP2 POP PUSH2 0x4BA DUP4 PUSH2 0x31F JUMP JUMPDEST SWAP3 POP DUP3 PUSH2 0x4CA JUMPI PUSH2 0x4C9 PUSH2 0x475 JUMP JUMPDEST JUMPDEST DUP3 DUP3 DIV SWAP1 POP SWAP3 SWAP2 POP POP JUMP JUMPDEST PUSH1 0x0 PUSH2 0x4E0 DUP3 PUSH2 0x31F JUMP JUMPDEST SWAP2 POP PUSH2 0x4EB DUP4 PUSH2 0x31F JUMP JUMPDEST SWAP3 POP DUP3 PUSH32 0xFFFFFFFFFFFFFFFFFFFFFFFFFFFFFFFFFFFFFFFFFFFFFFFFFFFFFFFFFFFFFFFF SUB DUP3 GT ISZERO PUSH2 0x520 JUMPI PUSH2 0x51F PUSH2 0x3EC JUMP JUMPDEST JUMPDEST DUP3 DUP3 ADD SWAP1 POP SWAP3 SWAP2 POP POP JUMP JUMPDEST PUSH1 0x0 DUP3 DUP3 MSTORE PUSH1 0x20 DUP3 ADD SWAP1 POP SWAP3 SWAP2 POP POP JUMP JUMPDEST PUSH32 0x416C726561647920657865637574656400000000000000000000000000000000 PUSH1 0x0 DUP3 ADD MSTORE POP JUMP JUMPDEST PUSH1 0x0 PUSH2 0x572 PUSH1 0x10 DUP4 PUSH2 0x52B JUMP JUMPDEST SWAP2 POP PUSH2 0x57D DUP3 PUSH2 0x53C JUMP JUMPDEST PUSH1 0x20 DUP3 ADD SWAP1 POP SWAP2 SWAP1 POP JUMP JUMPDEST PUSH1 0x0 PUSH1 0x20 DUP3 ADD SWAP1 POP DUP2 DUP2 SUB PUSH1 0x0 DUP4 ADD MSTORE PUSH2 0x5A1 DUP2 PUSH2 0x565 JUMP JUMPDEST SWAP1 POP SWAP2 SWAP1 POP JUMP JUMPDEST PUSH1 0x0 DUP2 PUSH1 0x1 SHR SWAP1 POP SWAP2 SWAP1 POP JUMP JUMPDEST PUSH1 0x0 DUP1 DUP3 SWAP2 POP DUP4 SWAP1 POP JUMPDEST PUSH1 0x1 DUP6 GT ISZERO PUSH2 0x5FF JUMPI DUP1 DUP7 DIV DUP2 GT ISZERO PUSH2 0x5DB JUMPI PUSH2 0x5DA PUSH2 0x3EC JUMP JUMPDEST JUMPDEST PUSH1 0x1 DUP6 AND ISZERO PUSH2 0x5EA JUMPI DUP1 DUP3 MUL SWAP2 POP JUMPDEST DUP1 DUP2 MUL SWAP1 POP PUSH2 0x5F8 DUP6 PUSH2 0x5A8 JUMP JUMPDEST SWAP5 POP PUSH2 0x5BF JUMP JUMPDEST SWAP5 POP SWAP5 SWAP3 POP POP POP JUMP JUMPDEST PUSH1 0x0 DUP3 PUSH2 0x618 JUMPI PUSH1 0x1 SWAP1 POP PUSH2 0x6D4 JUMP JUMPDEST DUP2 PUSH2 0x626 JUMPI PUSH1 0x0 SWAP1 POP PUSH2 0x6D4 JUMP JUMPDEST DUP2 PUSH1 0x1 DUP2 EQ PUSH2 0x63C JUMPI PUSH1 0x2 DUP2 EQ PUSH2 0x646 JUMPI PUSH2 0x675 JUMP JUMPDEST PUSH1 0x1 SWAP2 POP POP PUSH2 0x6D4 JUMP JUMPDEST PUSH1 0xFF DUP5 GT ISZERO PUSH2 0x658 JUMPI PUSH2 0x657 PUSH2 0x3EC JUMP JUMPDEST JUMPDEST DUP4 PUSH1 0x2 EXP SWAP2 POP DUP5 DUP3 GT ISZERO PUSH2 0x66F JUMPI PUSH2 0x66E PUSH2 0x3EC JUMP JUMPDEST JUMPDEST POP PUSH2 0x6D4 JUMP JUMPDEST POP PUSH1 0x20 DUP4 LT PUSH2 0x133 DUP4 LT AND PUSH1 0x4E DUP5 LT PUSH1 0xB DUP5 LT AND OR ISZERO PUSH2 0x6AA JUMPI DUP3 DUP3 EXP SWAP1 POP DUP4 DUP2 GT ISZERO PUSH2 0x6A5 JUMPI PUSH2 0x6A4 PUSH2 0x3EC JUMP JUMPDEST JUMPDEST PUSH2 0x6D4 JUMP JUMPDEST PUSH2 0x6B7 DUP5 DUP5 DUP5 PUSH1 0x1 PUSH2 0x5B5 JUMP JUMPDEST SWAP3 POP SWAP1 POP DUP2 DUP5 DIV DUP2 GT ISZERO PUSH2 0x6CE JUMPI PUSH2 0x6CD PUSH2 0x3EC JUMP JUMPDEST JUMPDEST DUP2 DUP2 MUL SWAP1 POP JUMPDEST SWAP4 SWAP3 POP POP POP JUMP JUMPDEST PUSH1 0x0 PUSH2 0x6E6 DUP3 PUSH2 0x31F JUMP JUMPDEST SWAP2 POP PUSH2 0x6F1 DUP4 PUSH2 0x31F JUMP JUMPDEST SWAP3 POP PUSH2 0x71E PUSH32 0xFFFFFFFFFFFFFFFFFFFFFFFFFFFFFFFFFFFFFFFFFFFFFFFFFFFFFFFFFFFFFFFF DUP5 DUP5 PUSH2 0x608 JUMP JUMPDEST SWAP1 POP SWAP3 SWAP2 POP POP JUMP JUMPDEST PUSH1 0x0 PUSH2 0x731 DUP3 PUSH2 0x31F JUMP JUMPDEST SWAP2 POP PUSH2 0x73C DUP4 PUSH2 0x31F JUMP JUMPDEST SWAP3 POP DUP3 DUP3 LT ISZERO PUSH2 0x74F JUMPI PUSH2 0x74E PUSH2 0x3EC JUMP JUMPDEST JUMPDEST DUP3 DUP3 SUB SWAP1 POP SWAP3 SWAP2 POP POP JUMP INVALID LOG2 PUSH5 0x6970667358 0x22 SLT KECCAK256 0xF9 SMOD SUB 0xEC RETURNDATASIZE MSTORE8 PUSH8 0x95C5FE9781D4DB33 0x5D 0xD8 0xAC 0xD9 MUL 0xA6 STATICCALL PUSH24 0xFBF76ACE09448E831964736F6C634300080F003300000000 "
				},
				"gasEstimates": {
					"creation": {
						"codeDepositCost": "387200",
						"executionCost": "infinite",
						"totalCost": "infinite"
					},
					"external": {
						"adjustIntCol(uint256,uint256)": "infinite",
						"adjustIntDoc()": "infinite",
						"adjustIntVerify()": "infinite",
						"mul(uint256)": "infinite",
						"rate()": "2429"
					},
					"internal": {
						"reduction()": "infinite"
					}
				},
				"methodIdentifiers": {
					"adjustIntCol(uint256,uint256)": "9f8af9dd",
					"adjustIntDoc()": "84c6e2c8",
					"adjustIntVerify()": "effc1fe0",
					"mul(uint256)": "131e2f18",
					"rate()": "2c4e722e"
				}
			},
			"storageLayout": {
				"storage": [
					{
						"astId": 3,
						"contract": "PFG/Interest.sol:Interest",
						"label": "rate",
						"offset": 0,
						"slot": "0",
						"type": "t_uint256"
					},
					{
						"astId": 5,
						"contract": "PFG/Interest.sol:Interest",
						"label": "dec",
						"offset": 0,
						"slot": "1",
						"type": "t_uint256"
					},
					{
						"astId": 7,
						"contract": "PFG/Interest.sol:Interest",
						"label": "collateralOnce",
						"offset": 0,
						"slot": "2",
						"type": "t_bool"
					},
					{
						"astId": 9,
						"contract": "PFG/Interest.sol:Interest",
						"label": "verifiedOnce",
						"offset": 1,
						"slot": "2",
						"type": "t_bool"
					}
				],
				"types": {
					"t_bool": {
						"encoding": "inplace",
						"label": "bool",
						"numberOfBytes": "1"
					},
					"t_uint256": {
						"encoding": "inplace",
						"label": "uint256",
						"numberOfBytes": "32"
					}
				}
			},
			"userdoc": {
				"kind": "user",
				"methods": {},
				"version": 1
			}
		}
	}
}