{
	"PFG/AMM.sol": {
		"DEX": {
			"abi": [
				{
					"anonymous": false,
					"inputs": [
						{
							"indexed": false,
							"internalType": "uint256",
							"name": "_value",
							"type": "uint256"
						}
					],
					"name": "Deposit",
					"type": "event"
				},
				{
					"anonymous": false,
					"inputs": [
						{
							"indexed": false,
							"internalType": "uint256",
							"name": "_value",
							"type": "uint256"
						}
					],
					"name": "ETHSwapped",
					"type": "event"
				},
				{
					"anonymous": false,
					"inputs": [
						{
							"indexed": false,
							"internalType": "uint256",
							"name": "_value",
							"type": "uint256"
						}
					],
					"name": "Initialize",
					"type": "event"
				},
				{
					"anonymous": false,
					"inputs": [
						{
							"indexed": false,
							"internalType": "uint256",
							"name": "_value",
							"type": "uint256"
						}
					],
					"name": "TokensSwapped",
					"type": "event"
				},
				{
					"anonymous": false,
					"inputs": [
						{
							"indexed": false,
							"internalType": "uint256",
							"name": "_valueETH",
							"type": "uint256"
						},
						{
							"indexed": false,
							"internalType": "uint256",
							"name": "_valueToken",
							"type": "uint256"
						}
					],
					"name": "Withdraw",
					"type": "event"
				},
				{
					"inputs": [],
					"name": "deposit",
					"outputs": [],
					"stateMutability": "payable",
					"type": "function"
				},
				{
					"inputs": [
						{
							"internalType": "address",
							"name": "who",
							"type": "address"
						}
					],
					"name": "deposit",
					"outputs": [],
					"stateMutability": "payable",
					"type": "function"
				},
				{
					"inputs": [
						{
							"internalType": "uint256",
							"name": "token_amount",
							"type": "uint256"
						}
					],
					"name": "ercToEth",
					"outputs": [],
					"stateMutability": "nonpayable",
					"type": "function"
				},
				{
					"inputs": [],
					"name": "ethToErc",
					"outputs": [],
					"stateMutability": "payable",
					"type": "function"
				},
				{
					"inputs": [
						{
							"internalType": "address",
							"name": "who",
							"type": "address"
						}
					],
					"name": "ethToErc",
					"outputs": [],
					"stateMutability": "payable",
					"type": "function"
				},
				{
					"inputs": [],
					"name": "getBalance",
					"outputs": [
						{
							"internalType": "uint256",
							"name": "",
							"type": "uint256"
						}
					],
					"stateMutability": "view",
					"type": "function"
				},
				{
					"inputs": [],
					"name": "getTokenBalance",
					"outputs": [
						{
							"internalType": "uint256",
							"name": "",
							"type": "uint256"
						}
					],
					"stateMutability": "view",
					"type": "function"
				},
				{
					"inputs": [
						{
							"internalType": "address",
							"name": "token_address",
							"type": "address"
						},
						{
							"internalType": "uint256",
							"name": "token_amount",
							"type": "uint256"
						}
					],
					"name": "initialize",
					"outputs": [],
					"stateMutability": "payable",
					"type": "function"
				},
				{
					"inputs": [
						{
							"internalType": "address",
							"name": "",
							"type": "address"
						}
					],
					"name": "liquidity",
					"outputs": [
						{
							"internalType": "uint256",
							"name": "",
							"type": "uint256"
						}
					],
					"stateMutability": "view",
					"type": "function"
				},
				{
					"inputs": [
						{
							"internalType": "uint256",
							"name": "eth",
							"type": "uint256"
						}
					],
					"name": "liquidityAdded",
					"outputs": [
						{
							"internalType": "uint256",
							"name": "",
							"type": "uint256"
						},
						{
							"internalType": "uint256",
							"name": "",
							"type": "uint256"
						}
					],
					"stateMutability": "view",
					"type": "function"
				},
				{
					"inputs": [
						{
							"internalType": "uint256",
							"name": "token",
							"type": "uint256"
						}
					],
					"name": "liquiditySubstracted",
					"outputs": [
						{
							"internalType": "uint256",
							"name": "",
							"type": "uint256"
						},
						{
							"internalType": "uint256",
							"name": "",
							"type": "uint256"
						}
					],
					"stateMutability": "view",
					"type": "function"
				},
				{
					"inputs": [
						{
							"internalType": "uint256",
							"name": "eth",
							"type": "uint256"
						}
					],
					"name": "priceERC",
					"outputs": [
						{
							"internalType": "uint256",
							"name": "",
							"type": "uint256"
						}
					],
					"stateMutability": "view",
					"type": "function"
				},
				{
					"inputs": [
						{
							"internalType": "uint256",
							"name": "erc",
							"type": "uint256"
						}
					],
					"name": "priceETH",
					"outputs": [
						{
							"internalType": "uint256",
							"name": "",
							"type": "uint256"
						}
					],
					"stateMutability": "view",
					"type": "function"
				},
				{
					"inputs": [],
					"name": "total_liquidity",
					"outputs": [
						{
							"internalType": "uint256",
							"name": "",
							"type": "uint256"
						}
					],
					"stateMutability": "view",
					"type": "function"
				},
				{
					"inputs": [
						{
							"internalType": "uint256",
							"name": "value",
							"type": "uint256"
						},
						{
							"internalType": "address",
							"name": "who",
							"type": "address"
						}
					],
					"name": "withdraw",
					"outputs": [],
					"stateMutability": "nonpayable",
					"type": "function"
				},
				{
					"inputs": [
						{
							"internalType": "uint256",
							"name": "value",
							"type": "uint256"
						}
					],
					"name": "withdraw",
					"outputs": [],
					"stateMutability": "nonpayable",
					"type": "function"
				}
			],
			"devdoc": {
				"kind": "dev",
				"methods": {},
				"version": 1
			},
			"evm": {
				"assembly": "    /* \"PFG/AMM.sol\":133:6178  contract DEX {... */\n  mstore(0x40, 0x80)\n  callvalue\n  dup1\n  iszero\n  tag_1\n  jumpi\n  0x00\n  dup1\n  revert\ntag_1:\n  pop\n  dataSize(sub_0)\n  dup1\n  dataOffset(sub_0)\n  0x00\n  codecopy\n  0x00\n  return\nstop\n\nsub_0: assembly {\n        /* \"PFG/AMM.sol\":133:6178  contract DEX {... */\n      mstore(0x40, 0x80)\n      jumpi(tag_1, lt(calldatasize, 0x04))\n      shr(0xe0, calldataload(0x00))\n      dup1\n      0x7937c03d\n      gt\n      tag_18\n      jumpi\n      dup1\n      0xcd6dc687\n      gt\n      tag_19\n      jumpi\n      dup1\n      0xcd6dc687\n      eq\n      tag_14\n      jumpi\n      dup1\n      0xd0e30db0\n      eq\n      tag_15\n      jumpi\n      dup1\n      0xdebc674c\n      eq\n      tag_16\n      jumpi\n      dup1\n      0xf340fa01\n      eq\n      tag_17\n      jumpi\n      jump(tag_1)\n    tag_19:\n      dup1\n      0x7937c03d\n      eq\n      tag_10\n      jumpi\n      dup1\n      0x82b2e257\n      eq\n      tag_11\n      jumpi\n      dup1\n      0xa5b8b16f\n      eq\n      tag_12\n      jumpi\n      dup1\n      0xb8c876b1\n      eq\n      tag_13\n      jumpi\n      jump(tag_1)\n    tag_18:\n      dup1\n      0x31f3bd28\n      gt\n      tag_20\n      jumpi\n      dup1\n      0x31f3bd28\n      eq\n      tag_6\n      jumpi\n      dup1\n      0x5f244d4e\n      eq\n      tag_7\n      jumpi\n      dup1\n      0x67da263d\n      eq\n      tag_8\n      jumpi\n      dup1\n      0x72a9d124\n      eq\n      tag_9\n      jumpi\n      jump(tag_1)\n    tag_20:\n      dup1\n      0xf714ce\n      eq\n      tag_2\n      jumpi\n      dup1\n      0x12065fe0\n      eq\n      tag_3\n      jumpi\n      dup1\n      0x1eb928aa\n      eq\n      tag_4\n      jumpi\n      dup1\n      0x2e1a7d4d\n      eq\n      tag_5\n      jumpi\n    tag_1:\n      0x00\n      dup1\n      revert\n        /* \"PFG/AMM.sol\":5304:5908  function withdraw(uint256 value, address who) external {... */\n    tag_2:\n      callvalue\n      dup1\n      iszero\n      tag_21\n      jumpi\n      0x00\n      dup1\n      revert\n    tag_21:\n      pop\n      tag_22\n      0x04\n      dup1\n      calldatasize\n      sub\n      dup2\n      add\n      swap1\n      tag_23\n      swap2\n      swap1\n      tag_24\n      jump\t// in\n    tag_23:\n      tag_25\n      jump\t// in\n    tag_22:\n      stop\n        /* \"PFG/AMM.sol\":6062:6175  function getBalance() external view returns (uint256) {... */\n    tag_3:\n      callvalue\n      dup1\n      iszero\n      tag_26\n      jumpi\n      0x00\n      dup1\n      revert\n    tag_26:\n      pop\n      tag_27\n      tag_28\n      jump\t// in\n    tag_27:\n      mload(0x40)\n      tag_29\n      swap2\n      swap1\n      tag_30\n      jump\t// in\n    tag_29:\n      mload(0x40)\n      dup1\n      swap2\n      sub\n      swap1\n      return\n        /* \"PFG/AMM.sol\":4873:5290  function liquiditySubstracted(uint256 token) external view returns (uint256, uint256){... */\n    tag_4:\n      callvalue\n      dup1\n      iszero\n      tag_31\n      jumpi\n      0x00\n      dup1\n      revert\n    tag_31:\n      pop\n      tag_32\n      0x04\n      dup1\n      calldatasize\n      sub\n      dup2\n      add\n      swap1\n      tag_33\n      swap2\n      swap1\n      tag_34\n      jump\t// in\n    tag_33:\n      tag_35\n      jump\t// in\n    tag_32:\n      mload(0x40)\n      tag_36\n      swap3\n      swap2\n      swap1\n      tag_37\n      jump\t// in\n    tag_36:\n      mload(0x40)\n      dup1\n      swap2\n      sub\n      swap1\n      return\n        /* \"PFG/AMM.sol\":4249:4861  function withdraw(uint256 value) external {... */\n    tag_5:\n      callvalue\n      dup1\n      iszero\n      tag_38\n      jumpi\n      0x00\n      dup1\n      revert\n    tag_38:\n      pop\n      tag_39\n      0x04\n      dup1\n      calldatasize\n      sub\n      dup2\n      add\n      swap1\n      tag_40\n      swap2\n      swap1\n      tag_34\n      jump\t// in\n    tag_40:\n      tag_41\n      jump\t// in\n    tag_39:\n      stop\n        /* \"PFG/AMM.sol\":187:217  uint256 public total_liquidity */\n    tag_6:\n      callvalue\n      dup1\n      iszero\n      tag_42\n      jumpi\n      0x00\n      dup1\n      revert\n    tag_42:\n      pop\n      tag_43\n      tag_44\n      jump\t// in\n    tag_43:\n      mload(0x40)\n      tag_45\n      swap2\n      swap1\n      tag_30\n      jump\t// in\n    tag_45:\n      mload(0x40)\n      dup1\n      swap2\n      sub\n      swap1\n      return\n        /* \"PFG/AMM.sol\":3878:4237  function liquidityAdded(uint256 eth) external view returns (uint256, uint256){... */\n    tag_7:\n      callvalue\n      dup1\n      iszero\n      tag_46\n      jumpi\n      0x00\n      dup1\n      revert\n    tag_46:\n      pop\n      tag_47\n      0x04\n      dup1\n      calldatasize\n      sub\n      dup2\n      add\n      swap1\n      tag_48\n      swap2\n      swap1\n      tag_34\n      jump\t// in\n    tag_48:\n      tag_49\n      jump\t// in\n    tag_47:\n      mload(0x40)\n      tag_50\n      swap3\n      swap2\n      swap1\n      tag_37\n      jump\t// in\n    tag_50:\n      mload(0x40)\n      dup1\n      swap2\n      sub\n      swap1\n      return\n        /* \"PFG/AMM.sol\":1422:1598  function priceETH(uint256 erc) external view returns(uint256){... */\n    tag_8:\n      callvalue\n      dup1\n      iszero\n      tag_51\n      jumpi\n      0x00\n      dup1\n      revert\n    tag_51:\n      pop\n      tag_52\n      0x04\n      dup1\n      calldatasize\n      sub\n      dup2\n      add\n      swap1\n      tag_53\n      swap2\n      swap1\n      tag_34\n      jump\t// in\n    tag_53:\n      tag_54\n      jump\t// in\n    tag_52:\n      mload(0x40)\n      tag_55\n      swap2\n      swap1\n      tag_30\n      jump\t// in\n    tag_55:\n      mload(0x40)\n      dup1\n      swap2\n      sub\n      swap1\n      return\n        /* \"PFG/AMM.sol\":1226:1410  function priceERC(uint256 eth) external view returns(uint256){... */\n    tag_9:\n      callvalue\n      dup1\n      iszero\n      tag_56\n      jumpi\n      0x00\n      dup1\n      revert\n    tag_56:\n      pop\n      tag_57\n      0x04\n      dup1\n      calldatasize\n      sub\n      dup2\n      add\n      swap1\n      tag_58\n      swap2\n      swap1\n      tag_34\n      jump\t// in\n    tag_58:\n      tag_59\n      jump\t// in\n    tag_57:\n      mload(0x40)\n      tag_60\n      swap2\n      swap1\n      tag_30\n      jump\t// in\n    tag_60:\n      mload(0x40)\n      dup1\n      swap2\n      sub\n      swap1\n      return\n        /* \"PFG/AMM.sol\":1610:1930  function ethToErc() external payable {... */\n    tag_10:\n      tag_61\n      tag_62\n      jump\t// in\n    tag_61:\n      stop\n        /* \"PFG/AMM.sol\":5920:6050  function getTokenBalance() external view returns (uint256) {... */\n    tag_11:\n      callvalue\n      dup1\n      iszero\n      tag_63\n      jumpi\n      0x00\n      dup1\n      revert\n    tag_63:\n      pop\n      tag_64\n      tag_65\n      jump\t// in\n    tag_64:\n      mload(0x40)\n      tag_66\n      swap2\n      swap1\n      tag_30\n      jump\t// in\n    tag_66:\n      mload(0x40)\n      dup1\n      swap2\n      sub\n      swap1\n      return\n        /* \"PFG/AMM.sol\":1942:2266  function ethToErc(address who) external payable {... */\n    tag_12:\n      tag_67\n      0x04\n      dup1\n      calldatasize\n      sub\n      dup2\n      add\n      swap1\n      tag_68\n      swap2\n      swap1\n      tag_69\n      jump\t// in\n    tag_68:\n      tag_70\n      jump\t// in\n    tag_67:\n      stop\n        /* \"PFG/AMM.sol\":228:273  mapping (address => uint256) public liquidity */\n    tag_13:\n      callvalue\n      dup1\n      iszero\n      tag_71\n      jumpi\n      0x00\n      dup1\n      revert\n    tag_71:\n      pop\n      tag_72\n      0x04\n      dup1\n      calldatasize\n      sub\n      dup2\n      add\n      swap1\n      tag_73\n      swap2\n      swap1\n      tag_69\n      jump\t// in\n    tag_73:\n      tag_74\n      jump\t// in\n    tag_72:\n      mload(0x40)\n      tag_75\n      swap2\n      swap1\n      tag_30\n      jump\t// in\n    tag_75:\n      mload(0x40)\n      dup1\n      swap2\n      sub\n      swap1\n      return\n        /* \"PFG/AMM.sol\":530:988  function initialize(address token_address, uint256 token_amount) external payable {... */\n    tag_14:\n      tag_76\n      0x04\n      dup1\n      calldatasize\n      sub\n      dup2\n      add\n      swap1\n      tag_77\n      swap2\n      swap1\n      tag_78\n      jump\t// in\n    tag_77:\n      tag_79\n      jump\t// in\n    tag_76:\n      stop\n        /* \"PFG/AMM.sol\":2759:3308  function deposit() external payable {... */\n    tag_15:\n      tag_80\n      tag_81\n      jump\t// in\n    tag_80:\n      stop\n        /* \"PFG/AMM.sol\":2280:2747  function ercToEth(uint256 token_amount) external {... */\n    tag_16:\n      callvalue\n      dup1\n      iszero\n      tag_82\n      jumpi\n      0x00\n      dup1\n      revert\n    tag_82:\n      pop\n      tag_83\n      0x04\n      dup1\n      calldatasize\n      sub\n      dup2\n      add\n      swap1\n      tag_84\n      swap2\n      swap1\n      tag_34\n      jump\t// in\n    tag_84:\n      tag_85\n      jump\t// in\n    tag_83:\n      stop\n        /* \"PFG/AMM.sol\":3320:3866  function deposit(address who) external payable {... */\n    tag_17:\n      tag_86\n      0x04\n      dup1\n      calldatasize\n      sub\n      dup2\n      add\n      swap1\n      tag_87\n      swap2\n      swap1\n      tag_69\n      jump\t// in\n    tag_87:\n      tag_88\n      jump\t// in\n    tag_86:\n      stop\n        /* \"PFG/AMM.sol\":5304:5908  function withdraw(uint256 value, address who) external {... */\n    tag_25:\n        /* \"PFG/AMM.sol\":5378:5395  uint256 eth_value */\n      0x00\n        /* \"PFG/AMM.sol\":5432:5447  total_liquidity */\n      sload(0x01)\n        /* \"PFG/AMM.sol\":5407:5428  address(this).balance */\n      selfbalance\n        /* \"PFG/AMM.sol\":5399:5404  value */\n      dup5\n        /* \"PFG/AMM.sol\":5399:5428  value * address(this).balance */\n      tag_90\n      swap2\n      swap1\n      tag_91\n      jump\t// in\n    tag_90:\n        /* \"PFG/AMM.sol\":5398:5447  (value * address(this).balance) / total_liquidity */\n      tag_92\n      swap2\n      swap1\n      tag_93\n      jump\t// in\n    tag_92:\n        /* \"PFG/AMM.sol\":5378:5447  uint256 eth_value = (value * address(this).balance) / total_liquidity */\n      swap1\n      pop\n        /* \"PFG/AMM.sol\":5466:5485  uint256 token_value */\n      0x00\n        /* \"PFG/AMM.sol\":5534:5549  total_liquidity */\n      sload(0x01)\n        /* \"PFG/AMM.sol\":5497:5505  tokenERC */\n      0x00\n      dup1\n      sload\n      swap1\n      0x0100\n      exp\n      swap1\n      div\n      0xffffffffffffffffffffffffffffffffffffffff\n      and\n        /* \"PFG/AMM.sol\":5497:5515  tokenERC.balanceOf */\n      0xffffffffffffffffffffffffffffffffffffffff\n      and\n      0x70a08231\n        /* \"PFG/AMM.sol\":5524:5528  this */\n      address\n        /* \"PFG/AMM.sol\":5497:5530  tokenERC.balanceOf(address(this)) */\n      mload(0x40)\n      dup3\n      0xffffffff\n      and\n      0xe0\n      shl\n      dup2\n      mstore\n      0x04\n      add\n      tag_94\n      swap2\n      swap1\n      tag_95\n      jump\t// in\n    tag_94:\n      0x20\n      mload(0x40)\n      dup1\n      dup4\n      sub\n      dup2\n      dup7\n      gas\n      staticcall\n      iszero\n      dup1\n      iszero\n      tag_97\n      jumpi\n      returndatasize\n      0x00\n      dup1\n      returndatacopy\n      revert(0x00, returndatasize)\n    tag_97:\n      pop\n      pop\n      pop\n      pop\n      mload(0x40)\n      returndatasize\n      not(0x1f)\n      0x1f\n      dup3\n      add\n      and\n      dup3\n      add\n      dup1\n      0x40\n      mstore\n      pop\n      dup2\n      add\n      swap1\n      tag_98\n      swap2\n      swap1\n      tag_99\n      jump\t// in\n    tag_98:\n        /* \"PFG/AMM.sol\":5489:5494  value */\n      dup6\n        /* \"PFG/AMM.sol\":5489:5530  value * tokenERC.balanceOf(address(this)) */\n      tag_100\n      swap2\n      swap1\n      tag_91\n      jump\t// in\n    tag_100:\n        /* \"PFG/AMM.sol\":5488:5549  (value * tokenERC.balanceOf(address(this))) / total_liquidity */\n      tag_101\n      swap2\n      swap1\n      tag_93\n      jump\t// in\n    tag_101:\n        /* \"PFG/AMM.sol\":5466:5549  uint256 token_value = (value * tokenERC.balanceOf(address(this))) / total_liquidity */\n      swap1\n      pop\n        /* \"PFG/AMM.sol\":5588:5597  eth_value */\n      dup2\n        /* \"PFG/AMM.sol\":5570:5579  liquidity */\n      0x02\n        /* \"PFG/AMM.sol\":5570:5584  liquidity[who] */\n      0x00\n        /* \"PFG/AMM.sol\":5580:5583  who */\n      dup6\n        /* \"PFG/AMM.sol\":5570:5584  liquidity[who] */\n      0xffffffffffffffffffffffffffffffffffffffff\n      and\n      0xffffffffffffffffffffffffffffffffffffffff\n      and\n      dup2\n      mstore\n      0x20\n      add\n      swap1\n      dup2\n      mstore\n      0x20\n      add\n      0x00\n      keccak256\n      0x00\n        /* \"PFG/AMM.sol\":5570:5597  liquidity[who] -= eth_value */\n      dup3\n      dup3\n      sload\n      tag_102\n      swap2\n      swap1\n      tag_103\n      jump\t// in\n    tag_102:\n      swap3\n      pop\n      pop\n      dup2\n      swap1\n      sstore\n      pop\n        /* \"PFG/AMM.sol\":5635:5644  eth_value */\n      dup2\n        /* \"PFG/AMM.sol\":5616:5631  total_liquidity */\n      0x01\n      0x00\n        /* \"PFG/AMM.sol\":5616:5644  total_liquidity -= eth_value */\n      dup3\n      dup3\n      sload\n      tag_104\n      swap2\n      swap1\n      tag_103\n      jump\t// in\n    tag_104:\n      swap3\n      pop\n      pop\n      dup2\n      swap1\n      sstore\n      pop\n        /* \"PFG/AMM.sol\":5666:5678  bool success */\n      0x00\n        /* \"PFG/AMM.sol\":5684:5687  who */\n      dup4\n        /* \"PFG/AMM.sol\":5684:5692  who.call */\n      0xffffffffffffffffffffffffffffffffffffffff\n      and\n        /* \"PFG/AMM.sol\":5700:5709  eth_value */\n      dup4\n        /* \"PFG/AMM.sol\":5684:5714  who.call{value: eth_value}(\"\") */\n      mload(0x40)\n      tag_105\n      swap1\n      tag_106\n      jump\t// in\n    tag_105:\n      0x00\n      mload(0x40)\n      dup1\n      dup4\n      sub\n      dup2\n      dup6\n      dup8\n      gas\n      call\n      swap3\n      pop\n      pop\n      pop\n      returndatasize\n      dup1\n      0x00\n      dup2\n      eq\n      tag_109\n      jumpi\n      mload(0x40)\n      swap2\n      pop\n      and(add(returndatasize, 0x3f), not(0x1f))\n      dup3\n      add\n      0x40\n      mstore\n      returndatasize\n      dup3\n      mstore\n      returndatasize\n      0x00\n      0x20\n      dup5\n      add\n      returndatacopy\n      jump(tag_108)\n    tag_109:\n      0x60\n      swap2\n      pop\n    tag_108:\n      pop\n        /* \"PFG/AMM.sol\":5665:5714  (bool success, ) = who.call{value: eth_value}(\"\") */\n      pop\n      swap1\n      pop\n        /* \"PFG/AMM.sol\":5741:5748  success */\n      dup1\n        /* \"PFG/AMM.sol\":5733:5769  require(success, \"Transfer failed.\") */\n      tag_110\n      jumpi\n      mload(0x40)\n      0x08c379a000000000000000000000000000000000000000000000000000000000\n      dup2\n      mstore\n      0x04\n      add\n      tag_111\n      swap1\n      tag_112\n      jump\t// in\n    tag_111:\n      mload(0x40)\n      dup1\n      swap2\n      sub\n      swap1\n      revert\n    tag_110:\n        /* \"PFG/AMM.sol\":5802:5810  tokenERC */\n      0x00\n      dup1\n      sload\n      swap1\n      0x0100\n      exp\n      swap1\n      div\n      0xffffffffffffffffffffffffffffffffffffffff\n      and\n        /* \"PFG/AMM.sol\":5802:5819  tokenERC.transfer */\n      0xffffffffffffffffffffffffffffffffffffffff\n      and\n      0xa9059cbb\n        /* \"PFG/AMM.sol\":5820:5823  who */\n      dup6\n        /* \"PFG/AMM.sol\":5825:5836  token_value */\n      dup5\n        /* \"PFG/AMM.sol\":5802:5837  tokenERC.transfer(who, token_value) */\n      mload(0x40)\n      dup4\n      0xffffffff\n      and\n      0xe0\n      shl\n      dup2\n      mstore\n      0x04\n      add\n      tag_113\n      swap3\n      swap2\n      swap1\n      tag_114\n      jump\t// in\n    tag_113:\n      0x20\n      mload(0x40)\n      dup1\n      dup4\n      sub\n      dup2\n      0x00\n      dup8\n      gas\n      call\n      iszero\n      dup1\n      iszero\n      tag_116\n      jumpi\n      returndatasize\n      0x00\n      dup1\n      returndatacopy\n      revert(0x00, returndatasize)\n    tag_116:\n      pop\n      pop\n      pop\n      pop\n      mload(0x40)\n      returndatasize\n      not(0x1f)\n      0x1f\n      dup3\n      add\n      and\n      dup3\n      add\n      dup1\n      0x40\n      mstore\n      pop\n      dup2\n      add\n      swap1\n      tag_117\n      swap2\n      swap1\n      tag_118\n      jump\t// in\n    tag_117:\n        /* \"PFG/AMM.sol\":5794:5838  require(tokenERC.transfer(who, token_value)) */\n      tag_119\n      jumpi\n      0x00\n      dup1\n      revert\n    tag_119:\n        /* \"PFG/AMM.sol\":5864:5896  Withdraw(eth_value, token_value) */\n      0x56ca301a9219608c91e7bcee90e083c19671d2cdcc96752c7af291cee5f9c8c8\n        /* \"PFG/AMM.sol\":5873:5882  eth_value */\n      dup4\n        /* \"PFG/AMM.sol\":5884:5895  token_value */\n      dup4\n        /* \"PFG/AMM.sol\":5864:5896  Withdraw(eth_value, token_value) */\n      mload(0x40)\n      tag_120\n      swap3\n      swap2\n      swap1\n      tag_37\n      jump\t// in\n    tag_120:\n      mload(0x40)\n      dup1\n      swap2\n      sub\n      swap1\n      log1\n        /* \"PFG/AMM.sol\":5359:5908  {... */\n      pop\n      pop\n      pop\n        /* \"PFG/AMM.sol\":5304:5908  function withdraw(uint256 value, address who) external {... */\n      pop\n      pop\n      jump\t// out\n        /* \"PFG/AMM.sol\":6062:6175  function getBalance() external view returns (uint256) {... */\n    tag_28:\n        /* \"PFG/AMM.sol\":6107:6114  uint256 */\n      0x00\n        /* \"PFG/AMM.sol\":6142:6163  address(this).balance */\n      selfbalance\n        /* \"PFG/AMM.sol\":6135:6163  return address(this).balance */\n      swap1\n      pop\n        /* \"PFG/AMM.sol\":6062:6175  function getBalance() external view returns (uint256) {... */\n      swap1\n      jump\t// out\n        /* \"PFG/AMM.sol\":4873:5290  function liquiditySubstracted(uint256 token) external view returns (uint256, uint256){... */\n    tag_35:\n        /* \"PFG/AMM.sol\":4941:4948  uint256 */\n      0x00\n        /* \"PFG/AMM.sol\":4950:4957  uint256 */\n      dup1\n        /* \"PFG/AMM.sol\":4977:4994  uint256 eth_value */\n      0x00\n        /* \"PFG/AMM.sol\":5031:5046  total_liquidity */\n      sload(0x01)\n        /* \"PFG/AMM.sol\":5006:5027  address(this).balance */\n      selfbalance\n        /* \"PFG/AMM.sol\":4998:5003  token */\n      dup6\n        /* \"PFG/AMM.sol\":4998:5027  token * address(this).balance */\n      tag_123\n      swap2\n      swap1\n      tag_91\n      jump\t// in\n    tag_123:\n        /* \"PFG/AMM.sol\":4997:5046  (token * address(this).balance) / total_liquidity */\n      tag_124\n      swap2\n      swap1\n      tag_93\n      jump\t// in\n    tag_124:\n        /* \"PFG/AMM.sol\":4977:5046  uint256 eth_value = (token * address(this).balance) / total_liquidity */\n      swap1\n      pop\n        /* \"PFG/AMM.sol\":5065:5084  uint256 token_value */\n      0x00\n        /* \"PFG/AMM.sol\":5133:5148  total_liquidity */\n      sload(0x01)\n        /* \"PFG/AMM.sol\":5096:5104  tokenERC */\n      0x00\n      dup1\n      sload\n      swap1\n      0x0100\n      exp\n      swap1\n      div\n      0xffffffffffffffffffffffffffffffffffffffff\n      and\n        /* \"PFG/AMM.sol\":5096:5114  tokenERC.balanceOf */\n      0xffffffffffffffffffffffffffffffffffffffff\n      and\n      0x70a08231\n        /* \"PFG/AMM.sol\":5123:5127  this */\n      address\n        /* \"PFG/AMM.sol\":5096:5129  tokenERC.balanceOf(address(this)) */\n      mload(0x40)\n      dup3\n      0xffffffff\n      and\n      0xe0\n      shl\n      dup2\n      mstore\n      0x04\n      add\n      tag_125\n      swap2\n      swap1\n      tag_95\n      jump\t// in\n    tag_125:\n      0x20\n      mload(0x40)\n      dup1\n      dup4\n      sub\n      dup2\n      dup7\n      gas\n      staticcall\n      iszero\n      dup1\n      iszero\n      tag_127\n      jumpi\n      returndatasize\n      0x00\n      dup1\n      returndatacopy\n      revert(0x00, returndatasize)\n    tag_127:\n      pop\n      pop\n      pop\n      pop\n      mload(0x40)\n      returndatasize\n      not(0x1f)\n      0x1f\n      dup3\n      add\n      and\n      dup3\n      add\n      dup1\n      0x40\n      mstore\n      pop\n      dup2\n      add\n      swap1\n      tag_128\n      swap2\n      swap1\n      tag_99\n      jump\t// in\n    tag_128:\n        /* \"PFG/AMM.sol\":5088:5093  token */\n      dup7\n        /* \"PFG/AMM.sol\":5088:5129  token * tokenERC.balanceOf(address(this)) */\n      tag_129\n      swap2\n      swap1\n      tag_91\n      jump\t// in\n    tag_129:\n        /* \"PFG/AMM.sol\":5087:5148  (token * tokenERC.balanceOf(address(this))) / total_liquidity */\n      tag_130\n      swap2\n      swap1\n      tag_93\n      jump\t// in\n    tag_130:\n        /* \"PFG/AMM.sol\":5065:5148  uint256 token_value = (token * tokenERC.balanceOf(address(this))) / total_liquidity */\n      swap1\n      pop\n        /* \"PFG/AMM.sol\":5167:5181  uint256 liquid */\n      0x00\n        /* \"PFG/AMM.sol\":5202:5211  eth_value */\n      dup3\n        /* \"PFG/AMM.sol\":5184:5199  total_liquidity */\n      sload(0x01)\n        /* \"PFG/AMM.sol\":5184:5211  total_liquidity - eth_value */\n      tag_131\n      swap2\n      swap1\n      tag_103\n      jump\t// in\n    tag_131:\n        /* \"PFG/AMM.sol\":5167:5211  uint256 liquid = total_liquidity - eth_value */\n      swap1\n      pop\n        /* \"PFG/AMM.sol\":5256:5267  token_value */\n      dup2\n        /* \"PFG/AMM.sol\":5269:5275  liquid */\n      dup2\n        /* \"PFG/AMM.sol\":5248:5276  return (token_value, liquid) */\n      swap5\n      pop\n      swap5\n      pop\n      pop\n      pop\n      pop\n        /* \"PFG/AMM.sol\":4873:5290  function liquiditySubstracted(uint256 token) external view returns (uint256, uint256){... */\n      swap2\n      pop\n      swap2\n      jump\t// out\n        /* \"PFG/AMM.sol\":4249:4861  function withdraw(uint256 value) external {... */\n    tag_41:\n        /* \"PFG/AMM.sol\":4310:4327  uint256 eth_value */\n      0x00\n        /* \"PFG/AMM.sol\":4364:4379  total_liquidity */\n      sload(0x01)\n        /* \"PFG/AMM.sol\":4339:4360  address(this).balance */\n      selfbalance\n        /* \"PFG/AMM.sol\":4331:4336  value */\n      dup4\n        /* \"PFG/AMM.sol\":4331:4360  value * address(this).balance */\n      tag_133\n      swap2\n      swap1\n      tag_91\n      jump\t// in\n    tag_133:\n        /* \"PFG/AMM.sol\":4330:4379  (value * address(this).balance) / total_liquidity */\n      tag_134\n      swap2\n      swap1\n      tag_93\n      jump\t// in\n    tag_134:\n        /* \"PFG/AMM.sol\":4310:4379  uint256 eth_value = (value * address(this).balance) / total_liquidity */\n      swap1\n      pop\n        /* \"PFG/AMM.sol\":4398:4417  uint256 token_value */\n      0x00\n        /* \"PFG/AMM.sol\":4466:4481  total_liquidity */\n      sload(0x01)\n        /* \"PFG/AMM.sol\":4429:4437  tokenERC */\n      0x00\n      dup1\n      sload\n      swap1\n      0x0100\n      exp\n      swap1\n      div\n      0xffffffffffffffffffffffffffffffffffffffff\n      and\n        /* \"PFG/AMM.sol\":4429:4447  tokenERC.balanceOf */\n      0xffffffffffffffffffffffffffffffffffffffff\n      and\n      0x70a08231\n        /* \"PFG/AMM.sol\":4456:4460  this */\n      address\n        /* \"PFG/AMM.sol\":4429:4462  tokenERC.balanceOf(address(this)) */\n      mload(0x40)\n      dup3\n      0xffffffff\n      and\n      0xe0\n      shl\n      dup2\n      mstore\n      0x04\n      add\n      tag_135\n      swap2\n      swap1\n      tag_95\n      jump\t// in\n    tag_135:\n      0x20\n      mload(0x40)\n      dup1\n      dup4\n      sub\n      dup2\n      dup7\n      gas\n      staticcall\n      iszero\n      dup1\n      iszero\n      tag_137\n      jumpi\n      returndatasize\n      0x00\n      dup1\n      returndatacopy\n      revert(0x00, returndatasize)\n    tag_137:\n      pop\n      pop\n      pop\n      pop\n      mload(0x40)\n      returndatasize\n      not(0x1f)\n      0x1f\n      dup3\n      add\n      and\n      dup3\n      add\n      dup1\n      0x40\n      mstore\n      pop\n      dup2\n      add\n      swap1\n      tag_138\n      swap2\n      swap1\n      tag_99\n      jump\t// in\n    tag_138:\n        /* \"PFG/AMM.sol\":4421:4426  value */\n      dup5\n        /* \"PFG/AMM.sol\":4421:4462  value * tokenERC.balanceOf(address(this)) */\n      tag_139\n      swap2\n      swap1\n      tag_91\n      jump\t// in\n    tag_139:\n        /* \"PFG/AMM.sol\":4420:4481  (value * tokenERC.balanceOf(address(this))) / total_liquidity */\n      tag_140\n      swap2\n      swap1\n      tag_93\n      jump\t// in\n    tag_140:\n        /* \"PFG/AMM.sol\":4398:4481  uint256 token_value = (value * tokenERC.balanceOf(address(this))) / total_liquidity */\n      swap1\n      pop\n        /* \"PFG/AMM.sol\":4527:4536  eth_value */\n      dup2\n        /* \"PFG/AMM.sol\":4502:4511  liquidity */\n      0x02\n        /* \"PFG/AMM.sol\":4502:4523  liquidity[msg.sender] */\n      0x00\n        /* \"PFG/AMM.sol\":4512:4522  msg.sender */\n      caller\n        /* \"PFG/AMM.sol\":4502:4523  liquidity[msg.sender] */\n      0xffffffffffffffffffffffffffffffffffffffff\n      and\n      0xffffffffffffffffffffffffffffffffffffffff\n      and\n      dup2\n      mstore\n      0x20\n      add\n      swap1\n      dup2\n      mstore\n      0x20\n      add\n      0x00\n      keccak256\n      0x00\n        /* \"PFG/AMM.sol\":4502:4536  liquidity[msg.sender] -= eth_value */\n      dup3\n      dup3\n      sload\n      tag_141\n      swap2\n      swap1\n      tag_103\n      jump\t// in\n    tag_141:\n      swap3\n      pop\n      pop\n      dup2\n      swap1\n      sstore\n      pop\n        /* \"PFG/AMM.sol\":4574:4583  eth_value */\n      dup2\n        /* \"PFG/AMM.sol\":4555:4570  total_liquidity */\n      0x01\n      0x00\n        /* \"PFG/AMM.sol\":4555:4583  total_liquidity -= eth_value */\n      dup3\n      dup3\n      sload\n      tag_142\n      swap2\n      swap1\n      tag_103\n      jump\t// in\n    tag_142:\n      swap3\n      pop\n      pop\n      dup2\n      swap1\n      sstore\n      pop\n        /* \"PFG/AMM.sol\":4605:4617  bool success */\n      0x00\n        /* \"PFG/AMM.sol\":4623:4633  msg.sender */\n      caller\n        /* \"PFG/AMM.sol\":4623:4638  msg.sender.call */\n      0xffffffffffffffffffffffffffffffffffffffff\n      and\n        /* \"PFG/AMM.sol\":4646:4655  eth_value */\n      dup4\n        /* \"PFG/AMM.sol\":4623:4660  msg.sender.call{value: eth_value}(\"\") */\n      mload(0x40)\n      tag_143\n      swap1\n      tag_106\n      jump\t// in\n    tag_143:\n      0x00\n      mload(0x40)\n      dup1\n      dup4\n      sub\n      dup2\n      dup6\n      dup8\n      gas\n      call\n      swap3\n      pop\n      pop\n      pop\n      returndatasize\n      dup1\n      0x00\n      dup2\n      eq\n      tag_146\n      jumpi\n      mload(0x40)\n      swap2\n      pop\n      and(add(returndatasize, 0x3f), not(0x1f))\n      dup3\n      add\n      0x40\n      mstore\n      returndatasize\n      dup3\n      mstore\n      returndatasize\n      0x00\n      0x20\n      dup5\n      add\n      returndatacopy\n      jump(tag_145)\n    tag_146:\n      0x60\n      swap2\n      pop\n    tag_145:\n      pop\n        /* \"PFG/AMM.sol\":4604:4660  (bool success, ) = msg.sender.call{value: eth_value}(\"\") */\n      pop\n      swap1\n      pop\n        /* \"PFG/AMM.sol\":4687:4694  success */\n      dup1\n        /* \"PFG/AMM.sol\":4679:4715  require(success, \"Transfer failed.\") */\n      tag_147\n      jumpi\n      mload(0x40)\n      0x08c379a000000000000000000000000000000000000000000000000000000000\n      dup2\n      mstore\n      0x04\n      add\n      tag_148\n      swap1\n      tag_112\n      jump\t// in\n    tag_148:\n      mload(0x40)\n      dup1\n      swap2\n      sub\n      swap1\n      revert\n    tag_147:\n        /* \"PFG/AMM.sol\":4748:4756  tokenERC */\n      0x00\n      dup1\n      sload\n      swap1\n      0x0100\n      exp\n      swap1\n      div\n      0xffffffffffffffffffffffffffffffffffffffff\n      and\n        /* \"PFG/AMM.sol\":4748:4765  tokenERC.transfer */\n      0xffffffffffffffffffffffffffffffffffffffff\n      and\n      0xa9059cbb\n        /* \"PFG/AMM.sol\":4766:4776  msg.sender */\n      caller\n        /* \"PFG/AMM.sol\":4778:4789  token_value */\n      dup5\n        /* \"PFG/AMM.sol\":4748:4790  tokenERC.transfer(msg.sender, token_value) */\n      mload(0x40)\n      dup4\n      0xffffffff\n      and\n      0xe0\n      shl\n      dup2\n      mstore\n      0x04\n      add\n      tag_149\n      swap3\n      swap2\n      swap1\n      tag_114\n      jump\t// in\n    tag_149:\n      0x20\n      mload(0x40)\n      dup1\n      dup4\n      sub\n      dup2\n      0x00\n      dup8\n      gas\n      call\n      iszero\n      dup1\n      iszero\n      tag_151\n      jumpi\n      returndatasize\n      0x00\n      dup1\n      returndatacopy\n      revert(0x00, returndatasize)\n    tag_151:\n      pop\n      pop\n      pop\n      pop\n      mload(0x40)\n      returndatasize\n      not(0x1f)\n      0x1f\n      dup3\n      add\n      and\n      dup3\n      add\n      dup1\n      0x40\n      mstore\n      pop\n      dup2\n      add\n      swap1\n      tag_152\n      swap2\n      swap1\n      tag_118\n      jump\t// in\n    tag_152:\n        /* \"PFG/AMM.sol\":4740:4791  require(tokenERC.transfer(msg.sender, token_value)) */\n      tag_153\n      jumpi\n      0x00\n      dup1\n      revert\n    tag_153:\n        /* \"PFG/AMM.sol\":4817:4849  Withdraw(eth_value, token_value) */\n      0x56ca301a9219608c91e7bcee90e083c19671d2cdcc96752c7af291cee5f9c8c8\n        /* \"PFG/AMM.sol\":4826:4835  eth_value */\n      dup4\n        /* \"PFG/AMM.sol\":4837:4848  token_value */\n      dup4\n        /* \"PFG/AMM.sol\":4817:4849  Withdraw(eth_value, token_value) */\n      mload(0x40)\n      tag_154\n      swap3\n      swap2\n      swap1\n      tag_37\n      jump\t// in\n    tag_154:\n      mload(0x40)\n      dup1\n      swap2\n      sub\n      swap1\n      log1\n        /* \"PFG/AMM.sol\":4291:4861  {... */\n      pop\n      pop\n      pop\n        /* \"PFG/AMM.sol\":4249:4861  function withdraw(uint256 value) external {... */\n      pop\n      jump\t// out\n        /* \"PFG/AMM.sol\":187:217  uint256 public total_liquidity */\n    tag_44:\n      sload(0x01)\n      dup2\n      jump\t// out\n        /* \"PFG/AMM.sol\":3878:4237  function liquidityAdded(uint256 eth) external view returns (uint256, uint256){... */\n    tag_49:\n        /* \"PFG/AMM.sol\":3938:3945  uint256 */\n      0x00\n        /* \"PFG/AMM.sol\":3947:3954  uint256 */\n      dup1\n        /* \"PFG/AMM.sol\":3974:3994  uint256 token_amount */\n      0x00\n        /* \"PFG/AMM.sol\":4069:4070  1 */\n      0x01\n        /* \"PFG/AMM.sol\":4043:4064  address(this).balance */\n      selfbalance\n        /* \"PFG/AMM.sol\":4005:4013  tokenERC */\n      0x00\n      dup1\n      sload\n      swap1\n      0x0100\n      exp\n      swap1\n      div\n      0xffffffffffffffffffffffffffffffffffffffff\n      and\n        /* \"PFG/AMM.sol\":4005:4023  tokenERC.balanceOf */\n      0xffffffffffffffffffffffffffffffffffffffff\n      and\n      0x70a08231\n        /* \"PFG/AMM.sol\":4032:4036  this */\n      address\n        /* \"PFG/AMM.sol\":4005:4038  tokenERC.balanceOf(address(this)) */\n      mload(0x40)\n      dup3\n      0xffffffff\n      and\n      0xe0\n      shl\n      dup2\n      mstore\n      0x04\n      add\n      tag_156\n      swap2\n      swap1\n      tag_95\n      jump\t// in\n    tag_156:\n      0x20\n      mload(0x40)\n      dup1\n      dup4\n      sub\n      dup2\n      dup7\n      gas\n      staticcall\n      iszero\n      dup1\n      iszero\n      tag_158\n      jumpi\n      returndatasize\n      0x00\n      dup1\n      returndatacopy\n      revert(0x00, returndatasize)\n    tag_158:\n      pop\n      pop\n      pop\n      pop\n      mload(0x40)\n      returndatasize\n      not(0x1f)\n      0x1f\n      dup3\n      add\n      and\n      dup3\n      add\n      dup1\n      0x40\n      mstore\n      pop\n      dup2\n      add\n      swap1\n      tag_159\n      swap2\n      swap1\n      tag_99\n      jump\t// in\n    tag_159:\n        /* \"PFG/AMM.sol\":3999:4002  eth */\n      dup7\n        /* \"PFG/AMM.sol\":3999:4038  eth * tokenERC.balanceOf(address(this)) */\n      tag_160\n      swap2\n      swap1\n      tag_91\n      jump\t// in\n    tag_160:\n        /* \"PFG/AMM.sol\":3998:4065  (eth * tokenERC.balanceOf(address(this))) / (address(this).balance) */\n      tag_161\n      swap2\n      swap1\n      tag_93\n      jump\t// in\n    tag_161:\n        /* \"PFG/AMM.sol\":3997:4070  ((eth * tokenERC.balanceOf(address(this))) / (address(this).balance)) + 1 */\n      tag_162\n      swap2\n      swap1\n      tag_163\n      jump\t// in\n    tag_162:\n        /* \"PFG/AMM.sol\":3974:4070  uint256 token_amount = ((eth * tokenERC.balanceOf(address(this))) / (address(this).balance)) + 1 */\n      swap1\n      pop\n        /* \"PFG/AMM.sol\":4089:4112  uint256 liquidity_added */\n      0x00\n        /* \"PFG/AMM.sol\":4142:4163  address(this).balance */\n      selfbalance\n        /* \"PFG/AMM.sol\":4122:4137  total_liquidity */\n      sload(0x01)\n        /* \"PFG/AMM.sol\":4116:4119  eth */\n      dup7\n        /* \"PFG/AMM.sol\":4116:4137  eth * total_liquidity */\n      tag_164\n      swap2\n      swap1\n      tag_91\n      jump\t// in\n    tag_164:\n        /* \"PFG/AMM.sol\":4115:4164  (eth * total_liquidity) / (address(this).balance) */\n      tag_165\n      swap2\n      swap1\n      tag_93\n      jump\t// in\n    tag_165:\n        /* \"PFG/AMM.sol\":4089:4164  uint256 liquidity_added = (eth * total_liquidity) / (address(this).balance) */\n      swap1\n      pop\n        /* \"PFG/AMM.sol\":4193:4205  token_amount */\n      dup2\n        /* \"PFG/AMM.sol\":4207:4222  liquidity_added */\n      dup2\n        /* \"PFG/AMM.sol\":4185:4223  return (token_amount, liquidity_added) */\n      swap4\n      pop\n      swap4\n      pop\n      pop\n      pop\n        /* \"PFG/AMM.sol\":3878:4237  function liquidityAdded(uint256 eth) external view returns (uint256, uint256){... */\n      swap2\n      pop\n      swap2\n      jump\t// out\n        /* \"PFG/AMM.sol\":1422:1598  function priceETH(uint256 erc) external view returns(uint256){... */\n    tag_54:\n        /* \"PFG/AMM.sol\":1475:1482  uint256 */\n      0x00\n        /* \"PFG/AMM.sol\":1509:1586  calculatePrice(erc, tokenERC.balanceOf(address(this)), address(this).balance) */\n      tag_167\n        /* \"PFG/AMM.sol\":1524:1527  erc */\n      dup3\n        /* \"PFG/AMM.sol\":1529:1537  tokenERC */\n      0x00\n      dup1\n      sload\n      swap1\n      0x0100\n      exp\n      swap1\n      div\n      0xffffffffffffffffffffffffffffffffffffffff\n      and\n        /* \"PFG/AMM.sol\":1529:1547  tokenERC.balanceOf */\n      0xffffffffffffffffffffffffffffffffffffffff\n      and\n      0x70a08231\n        /* \"PFG/AMM.sol\":1556:1560  this */\n      address\n        /* \"PFG/AMM.sol\":1529:1562  tokenERC.balanceOf(address(this)) */\n      mload(0x40)\n      dup3\n      0xffffffff\n      and\n      0xe0\n      shl\n      dup2\n      mstore\n      0x04\n      add\n      tag_168\n      swap2\n      swap1\n      tag_95\n      jump\t// in\n    tag_168:\n      0x20\n      mload(0x40)\n      dup1\n      dup4\n      sub\n      dup2\n      dup7\n      gas\n      staticcall\n      iszero\n      dup1\n      iszero\n      tag_170\n      jumpi\n      returndatasize\n      0x00\n      dup1\n      returndatacopy\n      revert(0x00, returndatasize)\n    tag_170:\n      pop\n      pop\n      pop\n      pop\n      mload(0x40)\n      returndatasize\n      not(0x1f)\n      0x1f\n      dup3\n      add\n      and\n      dup3\n      add\n      dup1\n      0x40\n      mstore\n      pop\n      dup2\n      add\n      swap1\n      tag_171\n      swap2\n      swap1\n      tag_99\n      jump\t// in\n    tag_171:\n        /* \"PFG/AMM.sol\":1564:1585  address(this).balance */\n      selfbalance\n        /* \"PFG/AMM.sol\":1509:1523  calculatePrice */\n      tag_172\n        /* \"PFG/AMM.sol\":1509:1586  calculatePrice(erc, tokenERC.balanceOf(address(this)), address(this).balance) */\n      jump\t// in\n    tag_167:\n        /* \"PFG/AMM.sol\":1502:1586  return calculatePrice(erc, tokenERC.balanceOf(address(this)), address(this).balance) */\n      swap1\n      pop\n        /* \"PFG/AMM.sol\":1422:1598  function priceETH(uint256 erc) external view returns(uint256){... */\n      swap2\n      swap1\n      pop\n      jump\t// out\n        /* \"PFG/AMM.sol\":1226:1410  function priceERC(uint256 eth) external view returns(uint256){... */\n    tag_59:\n        /* \"PFG/AMM.sol\":1279:1286  uint256 */\n      0x00\n        /* \"PFG/AMM.sol\":1313:1398  calculatePrice(eth, (address(this).balance - eth), tokenERC.balanceOf(address(this))) */\n      tag_174\n        /* \"PFG/AMM.sol\":1328:1331  eth */\n      dup3\n        /* \"PFG/AMM.sol\":1358:1361  eth */\n      dup4\n        /* \"PFG/AMM.sol\":1334:1355  address(this).balance */\n      selfbalance\n        /* \"PFG/AMM.sol\":1334:1361  address(this).balance - eth */\n      tag_175\n      swap2\n      swap1\n      tag_103\n      jump\t// in\n    tag_175:\n        /* \"PFG/AMM.sol\":1364:1372  tokenERC */\n      0x00\n      dup1\n      sload\n      swap1\n      0x0100\n      exp\n      swap1\n      div\n      0xffffffffffffffffffffffffffffffffffffffff\n      and\n        /* \"PFG/AMM.sol\":1364:1382  tokenERC.balanceOf */\n      0xffffffffffffffffffffffffffffffffffffffff\n      and\n      0x70a08231\n        /* \"PFG/AMM.sol\":1391:1395  this */\n      address\n        /* \"PFG/AMM.sol\":1364:1397  tokenERC.balanceOf(address(this)) */\n      mload(0x40)\n      dup3\n      0xffffffff\n      and\n      0xe0\n      shl\n      dup2\n      mstore\n      0x04\n      add\n      tag_176\n      swap2\n      swap1\n      tag_95\n      jump\t// in\n    tag_176:\n      0x20\n      mload(0x40)\n      dup1\n      dup4\n      sub\n      dup2\n      dup7\n      gas\n      staticcall\n      iszero\n      dup1\n      iszero\n      tag_178\n      jumpi\n      returndatasize\n      0x00\n      dup1\n      returndatacopy\n      revert(0x00, returndatasize)\n    tag_178:\n      pop\n      pop\n      pop\n      pop\n      mload(0x40)\n      returndatasize\n      not(0x1f)\n      0x1f\n      dup3\n      add\n      and\n      dup3\n      add\n      dup1\n      0x40\n      mstore\n      pop\n      dup2\n      add\n      swap1\n      tag_179\n      swap2\n      swap1\n      tag_99\n      jump\t// in\n    tag_179:\n        /* \"PFG/AMM.sol\":1313:1327  calculatePrice */\n      tag_172\n        /* \"PFG/AMM.sol\":1313:1398  calculatePrice(eth, (address(this).balance - eth), tokenERC.balanceOf(address(this))) */\n      jump\t// in\n    tag_174:\n        /* \"PFG/AMM.sol\":1306:1398  return calculatePrice(eth, (address(this).balance - eth), tokenERC.balanceOf(address(this))) */\n      swap1\n      pop\n        /* \"PFG/AMM.sol\":1226:1410  function priceERC(uint256 eth) external view returns(uint256){... */\n      swap2\n      swap1\n      pop\n      jump\t// out\n        /* \"PFG/AMM.sol\":1610:1930  function ethToErc() external payable {... */\n    tag_62:\n        /* \"PFG/AMM.sol\":1666:1688  uint256 tokens_swapped */\n      0x00\n        /* \"PFG/AMM.sol\":1691:1788  calculatePrice(msg.value, (address(this).balance - msg.value), tokenERC.balanceOf(address(this))) */\n      tag_181\n        /* \"PFG/AMM.sol\":1706:1715  msg.value */\n      callvalue\n        /* \"PFG/AMM.sol\":1742:1751  msg.value */\n      callvalue\n        /* \"PFG/AMM.sol\":1718:1739  address(this).balance */\n      selfbalance\n        /* \"PFG/AMM.sol\":1718:1751  address(this).balance - msg.value */\n      tag_182\n      swap2\n      swap1\n      tag_103\n      jump\t// in\n    tag_182:\n        /* \"PFG/AMM.sol\":1754:1762  tokenERC */\n      0x00\n      dup1\n      sload\n      swap1\n      0x0100\n      exp\n      swap1\n      div\n      0xffffffffffffffffffffffffffffffffffffffff\n      and\n        /* \"PFG/AMM.sol\":1754:1772  tokenERC.balanceOf */\n      0xffffffffffffffffffffffffffffffffffffffff\n      and\n      0x70a08231\n        /* \"PFG/AMM.sol\":1781:1785  this */\n      address\n        /* \"PFG/AMM.sol\":1754:1787  tokenERC.balanceOf(address(this)) */\n      mload(0x40)\n      dup3\n      0xffffffff\n      and\n      0xe0\n      shl\n      dup2\n      mstore\n      0x04\n      add\n      tag_183\n      swap2\n      swap1\n      tag_95\n      jump\t// in\n    tag_183:\n      0x20\n      mload(0x40)\n      dup1\n      dup4\n      sub\n      dup2\n      dup7\n      gas\n      staticcall\n      iszero\n      dup1\n      iszero\n      tag_185\n      jumpi\n      returndatasize\n      0x00\n      dup1\n      returndatacopy\n      revert(0x00, returndatasize)\n    tag_185:\n      pop\n      pop\n      pop\n      pop\n      mload(0x40)\n      returndatasize\n      not(0x1f)\n      0x1f\n      dup3\n      add\n      and\n      dup3\n      add\n      dup1\n      0x40\n      mstore\n      pop\n      dup2\n      add\n      swap1\n      tag_186\n      swap2\n      swap1\n      tag_99\n      jump\t// in\n    tag_186:\n        /* \"PFG/AMM.sol\":1691:1705  calculatePrice */\n      tag_172\n        /* \"PFG/AMM.sol\":1691:1788  calculatePrice(msg.value, (address(this).balance - msg.value), tokenERC.balanceOf(address(this))) */\n      jump\t// in\n    tag_181:\n        /* \"PFG/AMM.sol\":1666:1788  uint256 tokens_swapped = calculatePrice(msg.value, (address(this).balance - msg.value), tokenERC.balanceOf(address(this))) */\n      swap1\n      pop\n        /* \"PFG/AMM.sol\":1817:1825  tokenERC */\n      0x00\n      dup1\n      sload\n      swap1\n      0x0100\n      exp\n      swap1\n      div\n      0xffffffffffffffffffffffffffffffffffffffff\n      and\n        /* \"PFG/AMM.sol\":1817:1834  tokenERC.transfer */\n      0xffffffffffffffffffffffffffffffffffffffff\n      and\n      0xa9059cbb\n        /* \"PFG/AMM.sol\":1835:1845  msg.sender */\n      caller\n        /* \"PFG/AMM.sol\":1847:1861  tokens_swapped */\n      dup4\n        /* \"PFG/AMM.sol\":1817:1862  tokenERC.transfer(msg.sender, tokens_swapped) */\n      mload(0x40)\n      dup4\n      0xffffffff\n      and\n      0xe0\n      shl\n      dup2\n      mstore\n      0x04\n      add\n      tag_187\n      swap3\n      swap2\n      swap1\n      tag_114\n      jump\t// in\n    tag_187:\n      0x20\n      mload(0x40)\n      dup1\n      dup4\n      sub\n      dup2\n      0x00\n      dup8\n      gas\n      call\n      iszero\n      dup1\n      iszero\n      tag_189\n      jumpi\n      returndatasize\n      0x00\n      dup1\n      returndatacopy\n      revert(0x00, returndatasize)\n    tag_189:\n      pop\n      pop\n      pop\n      pop\n      mload(0x40)\n      returndatasize\n      not(0x1f)\n      0x1f\n      dup3\n      add\n      and\n      dup3\n      add\n      dup1\n      0x40\n      mstore\n      pop\n      dup2\n      add\n      swap1\n      tag_190\n      swap2\n      swap1\n      tag_118\n      jump\t// in\n    tag_190:\n        /* \"PFG/AMM.sol\":1809:1863  require(tokenERC.transfer(msg.sender, tokens_swapped)) */\n      tag_191\n      jumpi\n      0x00\n      dup1\n      revert\n    tag_191:\n        /* \"PFG/AMM.sol\":1889:1918  TokensSwapped(tokens_swapped) */\n      0xdb04c7a6d4758fd55d738ebc67e7f3010ac922be00771ef29521a4090d1eb13f\n        /* \"PFG/AMM.sol\":1903:1917  tokens_swapped */\n      dup2\n        /* \"PFG/AMM.sol\":1889:1918  TokensSwapped(tokens_swapped) */\n      mload(0x40)\n      tag_192\n      swap2\n      swap1\n      tag_30\n      jump\t// in\n    tag_192:\n      mload(0x40)\n      dup1\n      swap2\n      sub\n      swap1\n      log1\n        /* \"PFG/AMM.sol\":1647:1930  {... */\n      pop\n        /* \"PFG/AMM.sol\":1610:1930  function ethToErc() external payable {... */\n      jump\t// out\n        /* \"PFG/AMM.sol\":5920:6050  function getTokenBalance() external view returns (uint256) {... */\n    tag_65:\n        /* \"PFG/AMM.sol\":5970:5977  uint256 */\n      0x00\n        /* \"PFG/AMM.sol\":6005:6013  tokenERC */\n      dup1\n      0x00\n      swap1\n      sload\n      swap1\n      0x0100\n      exp\n      swap1\n      div\n      0xffffffffffffffffffffffffffffffffffffffff\n      and\n        /* \"PFG/AMM.sol\":6005:6023  tokenERC.balanceOf */\n      0xffffffffffffffffffffffffffffffffffffffff\n      and\n      0x70a08231\n        /* \"PFG/AMM.sol\":6032:6036  this */\n      address\n        /* \"PFG/AMM.sol\":6005:6038  tokenERC.balanceOf(address(this)) */\n      mload(0x40)\n      dup3\n      0xffffffff\n      and\n      0xe0\n      shl\n      dup2\n      mstore\n      0x04\n      add\n      tag_194\n      swap2\n      swap1\n      tag_95\n      jump\t// in\n    tag_194:\n      0x20\n      mload(0x40)\n      dup1\n      dup4\n      sub\n      dup2\n      dup7\n      gas\n      staticcall\n      iszero\n      dup1\n      iszero\n      tag_196\n      jumpi\n      returndatasize\n      0x00\n      dup1\n      returndatacopy\n      revert(0x00, returndatasize)\n    tag_196:\n      pop\n      pop\n      pop\n      pop\n      mload(0x40)\n      returndatasize\n      not(0x1f)\n      0x1f\n      dup3\n      add\n      and\n      dup3\n      add\n      dup1\n      0x40\n      mstore\n      pop\n      dup2\n      add\n      swap1\n      tag_197\n      swap2\n      swap1\n      tag_99\n      jump\t// in\n    tag_197:\n        /* \"PFG/AMM.sol\":5998:6038  return tokenERC.balanceOf(address(this)) */\n      swap1\n      pop\n        /* \"PFG/AMM.sol\":5920:6050  function getTokenBalance() external view returns (uint256) {... */\n      swap1\n      jump\t// out\n        /* \"PFG/AMM.sol\":1942:2266  function ethToErc(address who) external payable {... */\n    tag_70:\n        /* \"PFG/AMM.sol\":2009:2031  uint256 tokens_swapped */\n      0x00\n        /* \"PFG/AMM.sol\":2034:2131  calculatePrice(msg.value, (address(this).balance - msg.value), tokenERC.balanceOf(address(this))) */\n      tag_199\n        /* \"PFG/AMM.sol\":2049:2058  msg.value */\n      callvalue\n        /* \"PFG/AMM.sol\":2085:2094  msg.value */\n      callvalue\n        /* \"PFG/AMM.sol\":2061:2082  address(this).balance */\n      selfbalance\n        /* \"PFG/AMM.sol\":2061:2094  address(this).balance - msg.value */\n      tag_200\n      swap2\n      swap1\n      tag_103\n      jump\t// in\n    tag_200:\n        /* \"PFG/AMM.sol\":2097:2105  tokenERC */\n      0x00\n      dup1\n      sload\n      swap1\n      0x0100\n      exp\n      swap1\n      div\n      0xffffffffffffffffffffffffffffffffffffffff\n      and\n        /* \"PFG/AMM.sol\":2097:2115  tokenERC.balanceOf */\n      0xffffffffffffffffffffffffffffffffffffffff\n      and\n      0x70a08231\n        /* \"PFG/AMM.sol\":2124:2128  this */\n      address\n        /* \"PFG/AMM.sol\":2097:2130  tokenERC.balanceOf(address(this)) */\n      mload(0x40)\n      dup3\n      0xffffffff\n      and\n      0xe0\n      shl\n      dup2\n      mstore\n      0x04\n      add\n      tag_201\n      swap2\n      swap1\n      tag_95\n      jump\t// in\n    tag_201:\n      0x20\n      mload(0x40)\n      dup1\n      dup4\n      sub\n      dup2\n      dup7\n      gas\n      staticcall\n      iszero\n      dup1\n      iszero\n      tag_203\n      jumpi\n      returndatasize\n      0x00\n      dup1\n      returndatacopy\n      revert(0x00, returndatasize)\n    tag_203:\n      pop\n      pop\n      pop\n      pop\n      mload(0x40)\n      returndatasize\n      not(0x1f)\n      0x1f\n      dup3\n      add\n      and\n      dup3\n      add\n      dup1\n      0x40\n      mstore\n      pop\n      dup2\n      add\n      swap1\n      tag_204\n      swap2\n      swap1\n      tag_99\n      jump\t// in\n    tag_204:\n        /* \"PFG/AMM.sol\":2034:2048  calculatePrice */\n      tag_172\n        /* \"PFG/AMM.sol\":2034:2131  calculatePrice(msg.value, (address(this).balance - msg.value), tokenERC.balanceOf(address(this))) */\n      jump\t// in\n    tag_199:\n        /* \"PFG/AMM.sol\":2009:2131  uint256 tokens_swapped = calculatePrice(msg.value, (address(this).balance - msg.value), tokenERC.balanceOf(address(this))) */\n      swap1\n      pop\n        /* \"PFG/AMM.sol\":2160:2168  tokenERC */\n      0x00\n      dup1\n      sload\n      swap1\n      0x0100\n      exp\n      swap1\n      div\n      0xffffffffffffffffffffffffffffffffffffffff\n      and\n        /* \"PFG/AMM.sol\":2160:2177  tokenERC.transfer */\n      0xffffffffffffffffffffffffffffffffffffffff\n      and\n      0xa9059cbb\n        /* \"PFG/AMM.sol\":2178:2181  who */\n      dup4\n        /* \"PFG/AMM.sol\":2183:2197  tokens_swapped */\n      dup4\n        /* \"PFG/AMM.sol\":2160:2198  tokenERC.transfer(who, tokens_swapped) */\n      mload(0x40)\n      dup4\n      0xffffffff\n      and\n      0xe0\n      shl\n      dup2\n      mstore\n      0x04\n      add\n      tag_205\n      swap3\n      swap2\n      swap1\n      tag_114\n      jump\t// in\n    tag_205:\n      0x20\n      mload(0x40)\n      dup1\n      dup4\n      sub\n      dup2\n      0x00\n      dup8\n      gas\n      call\n      iszero\n      dup1\n      iszero\n      tag_207\n      jumpi\n      returndatasize\n      0x00\n      dup1\n      returndatacopy\n      revert(0x00, returndatasize)\n    tag_207:\n      pop\n      pop\n      pop\n      pop\n      mload(0x40)\n      returndatasize\n      not(0x1f)\n      0x1f\n      dup3\n      add\n      and\n      dup3\n      add\n      dup1\n      0x40\n      mstore\n      pop\n      dup2\n      add\n      swap1\n      tag_208\n      swap2\n      swap1\n      tag_118\n      jump\t// in\n    tag_208:\n        /* \"PFG/AMM.sol\":2152:2199  require(tokenERC.transfer(who, tokens_swapped)) */\n      tag_209\n      jumpi\n      0x00\n      dup1\n      revert\n    tag_209:\n        /* \"PFG/AMM.sol\":2225:2254  TokensSwapped(tokens_swapped) */\n      0xdb04c7a6d4758fd55d738ebc67e7f3010ac922be00771ef29521a4090d1eb13f\n        /* \"PFG/AMM.sol\":2239:2253  tokens_swapped */\n      dup2\n        /* \"PFG/AMM.sol\":2225:2254  TokensSwapped(tokens_swapped) */\n      mload(0x40)\n      tag_210\n      swap2\n      swap1\n      tag_30\n      jump\t// in\n    tag_210:\n      mload(0x40)\n      dup1\n      swap2\n      sub\n      swap1\n      log1\n        /* \"PFG/AMM.sol\":1990:2266  {... */\n      pop\n        /* \"PFG/AMM.sol\":1942:2266  function ethToErc(address who) external payable {... */\n      pop\n      jump\t// out\n        /* \"PFG/AMM.sol\":228:273  mapping (address => uint256) public liquidity */\n    tag_74:\n      mstore(0x20, 0x02)\n      dup1\n      0x00\n      mstore\n      keccak256(0x00, 0x40)\n      0x00\n      swap2\n      pop\n      swap1\n      pop\n      sload\n      dup2\n      jump\t// out\n        /* \"PFG/AMM.sol\":530:988  function initialize(address token_address, uint256 token_amount) external payable {... */\n    tag_79:\n        /* \"PFG/AMM.sol\":658:659  0 */\n      0x00\n        /* \"PFG/AMM.sol\":639:654  total_liquidity */\n      sload(0x01)\n        /* \"PFG/AMM.sol\":639:659  total_liquidity == 0 */\n      eq\n        /* \"PFG/AMM.sol\":631:660  require(total_liquidity == 0) */\n      tag_212\n      jumpi\n      0x00\n      dup1\n      revert\n    tag_212:\n        /* \"PFG/AMM.sol\":699:712  token_address */\n      dup2\n        /* \"PFG/AMM.sol\":681:689  tokenERC */\n      0x00\n      dup1\n        /* \"PFG/AMM.sol\":681:713  tokenERC = IERC20(token_address) */\n      0x0100\n      exp\n      dup2\n      sload\n      dup2\n      0xffffffffffffffffffffffffffffffffffffffff\n      mul\n      not\n      and\n      swap1\n      dup4\n      0xffffffffffffffffffffffffffffffffffffffff\n      and\n      mul\n      or\n      swap1\n      sstore\n      pop\n        /* \"PFG/AMM.sol\":752:773  address(this).balance */\n      selfbalance\n        /* \"PFG/AMM.sol\":734:749  total_liquidity */\n      0x01\n        /* \"PFG/AMM.sol\":734:773  total_liquidity = address(this).balance */\n      dup2\n      swap1\n      sstore\n      pop\n        /* \"PFG/AMM.sol\":816:831  total_liquidity */\n      sload(0x01)\n        /* \"PFG/AMM.sol\":792:801  liquidity */\n      0x02\n        /* \"PFG/AMM.sol\":792:813  liquidity[msg.sender] */\n      0x00\n        /* \"PFG/AMM.sol\":802:812  msg.sender */\n      caller\n        /* \"PFG/AMM.sol\":792:813  liquidity[msg.sender] */\n      0xffffffffffffffffffffffffffffffffffffffff\n      and\n      0xffffffffffffffffffffffffffffffffffffffff\n      and\n      dup2\n      mstore\n      0x20\n      add\n      swap1\n      dup2\n      mstore\n      0x20\n      add\n      0x00\n      keccak256\n        /* \"PFG/AMM.sol\":792:831  liquidity[msg.sender] = total_liquidity */\n      dup2\n      swap1\n      sstore\n      pop\n        /* \"PFG/AMM.sol\":860:868  tokenERC */\n      0x00\n      dup1\n      sload\n      swap1\n      0x0100\n      exp\n      swap1\n      div\n      0xffffffffffffffffffffffffffffffffffffffff\n      and\n        /* \"PFG/AMM.sol\":860:881  tokenERC.transferFrom */\n      0xffffffffffffffffffffffffffffffffffffffff\n      and\n      0x23b872dd\n        /* \"PFG/AMM.sol\":882:892  msg.sender */\n      caller\n        /* \"PFG/AMM.sol\":902:906  this */\n      address\n        /* \"PFG/AMM.sol\":909:921  token_amount */\n      dup5\n        /* \"PFG/AMM.sol\":860:922  tokenERC.transferFrom(msg.sender, address(this), token_amount) */\n      mload(0x40)\n      dup5\n      0xffffffff\n      and\n      0xe0\n      shl\n      dup2\n      mstore\n      0x04\n      add\n      tag_213\n      swap4\n      swap3\n      swap2\n      swap1\n      tag_214\n      jump\t// in\n    tag_213:\n      0x20\n      mload(0x40)\n      dup1\n      dup4\n      sub\n      dup2\n      0x00\n      dup8\n      gas\n      call\n      iszero\n      dup1\n      iszero\n      tag_216\n      jumpi\n      returndatasize\n      0x00\n      dup1\n      returndatacopy\n      revert(0x00, returndatasize)\n    tag_216:\n      pop\n      pop\n      pop\n      pop\n      mload(0x40)\n      returndatasize\n      not(0x1f)\n      0x1f\n      dup3\n      add\n      and\n      dup3\n      add\n      dup1\n      0x40\n      mstore\n      pop\n      dup2\n      add\n      swap1\n      tag_217\n      swap2\n      swap1\n      tag_118\n      jump\t// in\n    tag_217:\n        /* \"PFG/AMM.sol\":852:923  require(tokenERC.transferFrom(msg.sender, address(this), token_amount)) */\n      tag_218\n      jumpi\n      0x00\n      dup1\n      revert\n    tag_218:\n        /* \"PFG/AMM.sol\":949:976  Initialize(total_liquidity) */\n      0xc43e48cf47e9fa186d0f4096c61d1fcb54159799f935a2aa32e5589688ee36e1\n        /* \"PFG/AMM.sol\":960:975  total_liquidity */\n      sload(0x01)\n        /* \"PFG/AMM.sol\":949:976  Initialize(total_liquidity) */\n      mload(0x40)\n      tag_219\n      swap2\n      swap1\n      tag_30\n      jump\t// in\n    tag_219:\n      mload(0x40)\n      dup1\n      swap2\n      sub\n      swap1\n      log1\n        /* \"PFG/AMM.sol\":530:988  function initialize(address token_address, uint256 token_amount) external payable {... */\n      pop\n      pop\n      jump\t// out\n        /* \"PFG/AMM.sol\":2759:3308  function deposit() external payable {... */\n    tag_81:\n        /* \"PFG/AMM.sol\":2814:2834  uint256 token_amount */\n      0x00\n        /* \"PFG/AMM.sol\":2927:2928  1 */\n      0x01\n        /* \"PFG/AMM.sol\":2913:2922  msg.value */\n      callvalue\n        /* \"PFG/AMM.sol\":2889:2910  address(this).balance */\n      selfbalance\n        /* \"PFG/AMM.sol\":2889:2922  address(this).balance - msg.value */\n      tag_221\n      swap2\n      swap1\n      tag_103\n      jump\t// in\n    tag_221:\n        /* \"PFG/AMM.sol\":2851:2859  tokenERC */\n      0x00\n      dup1\n      sload\n      swap1\n      0x0100\n      exp\n      swap1\n      div\n      0xffffffffffffffffffffffffffffffffffffffff\n      and\n        /* \"PFG/AMM.sol\":2851:2869  tokenERC.balanceOf */\n      0xffffffffffffffffffffffffffffffffffffffff\n      and\n      0x70a08231\n        /* \"PFG/AMM.sol\":2878:2882  this */\n      address\n        /* \"PFG/AMM.sol\":2851:2884  tokenERC.balanceOf(address(this)) */\n      mload(0x40)\n      dup3\n      0xffffffff\n      and\n      0xe0\n      shl\n      dup2\n      mstore\n      0x04\n      add\n      tag_222\n      swap2\n      swap1\n      tag_95\n      jump\t// in\n    tag_222:\n      0x20\n      mload(0x40)\n      dup1\n      dup4\n      sub\n      dup2\n      dup7\n      gas\n      staticcall\n      iszero\n      dup1\n      iszero\n      tag_224\n      jumpi\n      returndatasize\n      0x00\n      dup1\n      returndatacopy\n      revert(0x00, returndatasize)\n    tag_224:\n      pop\n      pop\n      pop\n      pop\n      mload(0x40)\n      returndatasize\n      not(0x1f)\n      0x1f\n      dup3\n      add\n      and\n      dup3\n      add\n      dup1\n      0x40\n      mstore\n      pop\n      dup2\n      add\n      swap1\n      tag_225\n      swap2\n      swap1\n      tag_99\n      jump\t// in\n    tag_225:\n        /* \"PFG/AMM.sol\":2839:2848  msg.value */\n      callvalue\n        /* \"PFG/AMM.sol\":2839:2884  msg.value * tokenERC.balanceOf(address(this)) */\n      tag_226\n      swap2\n      swap1\n      tag_91\n      jump\t// in\n    tag_226:\n        /* \"PFG/AMM.sol\":2838:2923  (msg.value * tokenERC.balanceOf(address(this))) / (address(this).balance - msg.value) */\n      tag_227\n      swap2\n      swap1\n      tag_93\n      jump\t// in\n    tag_227:\n        /* \"PFG/AMM.sol\":2837:2928  ((msg.value * tokenERC.balanceOf(address(this))) / (address(this).balance - msg.value)) + 1 */\n      tag_228\n      swap2\n      swap1\n      tag_163\n      jump\t// in\n    tag_228:\n        /* \"PFG/AMM.sol\":2814:2928  uint256 token_amount = ((msg.value * tokenERC.balanceOf(address(this))) / (address(this).balance - msg.value)) + 1 */\n      swap1\n      pop\n        /* \"PFG/AMM.sol\":2947:2970  uint256 liquidity_added */\n      0x00\n        /* \"PFG/AMM.sol\":3030:3039  msg.value */\n      callvalue\n        /* \"PFG/AMM.sol\":3006:3027  address(this).balance */\n      selfbalance\n        /* \"PFG/AMM.sol\":3006:3039  address(this).balance - msg.value */\n      tag_229\n      swap2\n      swap1\n      tag_103\n      jump\t// in\n    tag_229:\n        /* \"PFG/AMM.sol\":2986:3001  total_liquidity */\n      sload(0x01)\n        /* \"PFG/AMM.sol\":2974:2983  msg.value */\n      callvalue\n        /* \"PFG/AMM.sol\":2974:3001  msg.value * total_liquidity */\n      tag_230\n      swap2\n      swap1\n      tag_91\n      jump\t// in\n    tag_230:\n        /* \"PFG/AMM.sol\":2973:3040  (msg.value * total_liquidity) / (address(this).balance - msg.value) */\n      tag_231\n      swap2\n      swap1\n      tag_93\n      jump\t// in\n    tag_231:\n        /* \"PFG/AMM.sol\":2947:3040  uint256 liquidity_added = (msg.value * total_liquidity) / (address(this).balance - msg.value) */\n      swap1\n      pop\n        /* \"PFG/AMM.sol\":3086:3101  liquidity_added */\n      dup1\n        /* \"PFG/AMM.sol\":3061:3070  liquidity */\n      0x02\n        /* \"PFG/AMM.sol\":3061:3082  liquidity[msg.sender] */\n      0x00\n        /* \"PFG/AMM.sol\":3071:3081  msg.sender */\n      caller\n        /* \"PFG/AMM.sol\":3061:3082  liquidity[msg.sender] */\n      0xffffffffffffffffffffffffffffffffffffffff\n      and\n      0xffffffffffffffffffffffffffffffffffffffff\n      and\n      dup2\n      mstore\n      0x20\n      add\n      swap1\n      dup2\n      mstore\n      0x20\n      add\n      0x00\n      keccak256\n      0x00\n        /* \"PFG/AMM.sol\":3061:3101  liquidity[msg.sender] += liquidity_added */\n      dup3\n      dup3\n      sload\n      tag_232\n      swap2\n      swap1\n      tag_163\n      jump\t// in\n    tag_232:\n      swap3\n      pop\n      pop\n      dup2\n      swap1\n      sstore\n      pop\n        /* \"PFG/AMM.sol\":3139:3154  liquidity_added */\n      dup1\n        /* \"PFG/AMM.sol\":3120:3135  total_liquidity */\n      0x01\n      0x00\n        /* \"PFG/AMM.sol\":3120:3154  total_liquidity += liquidity_added */\n      dup3\n      dup3\n      sload\n      tag_233\n      swap2\n      swap1\n      tag_163\n      jump\t// in\n    tag_233:\n      swap3\n      pop\n      pop\n      dup2\n      swap1\n      sstore\n      pop\n        /* \"PFG/AMM.sol\":3183:3191  tokenERC */\n      0x00\n      dup1\n      sload\n      swap1\n      0x0100\n      exp\n      swap1\n      div\n      0xffffffffffffffffffffffffffffffffffffffff\n      and\n        /* \"PFG/AMM.sol\":3183:3204  tokenERC.transferFrom */\n      0xffffffffffffffffffffffffffffffffffffffff\n      and\n      0x23b872dd\n        /* \"PFG/AMM.sol\":3205:3215  msg.sender */\n      caller\n        /* \"PFG/AMM.sol\":3225:3229  this */\n      address\n        /* \"PFG/AMM.sol\":3232:3244  token_amount */\n      dup6\n        /* \"PFG/AMM.sol\":3183:3245  tokenERC.transferFrom(msg.sender, address(this), token_amount) */\n      mload(0x40)\n      dup5\n      0xffffffff\n      and\n      0xe0\n      shl\n      dup2\n      mstore\n      0x04\n      add\n      tag_234\n      swap4\n      swap3\n      swap2\n      swap1\n      tag_214\n      jump\t// in\n    tag_234:\n      0x20\n      mload(0x40)\n      dup1\n      dup4\n      sub\n      dup2\n      0x00\n      dup8\n      gas\n      call\n      iszero\n      dup1\n      iszero\n      tag_236\n      jumpi\n      returndatasize\n      0x00\n      dup1\n      returndatacopy\n      revert(0x00, returndatasize)\n    tag_236:\n      pop\n      pop\n      pop\n      pop\n      mload(0x40)\n      returndatasize\n      not(0x1f)\n      0x1f\n      dup3\n      add\n      and\n      dup3\n      add\n      dup1\n      0x40\n      mstore\n      pop\n      dup2\n      add\n      swap1\n      tag_237\n      swap2\n      swap1\n      tag_118\n      jump\t// in\n    tag_237:\n        /* \"PFG/AMM.sol\":3175:3246  require(tokenERC.transferFrom(msg.sender, address(this), token_amount)) */\n      tag_238\n      jumpi\n      0x00\n      dup1\n      revert\n    tag_238:\n        /* \"PFG/AMM.sol\":3272:3296  Deposit(liquidity_added) */\n      0x4d6ce1e535dbade1c23defba91e23b8f791ce5edc0cc320257a2b364e4e38426\n        /* \"PFG/AMM.sol\":3280:3295  liquidity_added */\n      dup2\n        /* \"PFG/AMM.sol\":3272:3296  Deposit(liquidity_added) */\n      mload(0x40)\n      tag_239\n      swap2\n      swap1\n      tag_30\n      jump\t// in\n    tag_239:\n      mload(0x40)\n      dup1\n      swap2\n      sub\n      swap1\n      log1\n        /* \"PFG/AMM.sol\":2795:3308  {... */\n      pop\n      pop\n        /* \"PFG/AMM.sol\":2759:3308  function deposit() external payable {... */\n      jump\t// out\n        /* \"PFG/AMM.sol\":2280:2747  function ercToEth(uint256 token_amount) external {... */\n    tag_85:\n        /* \"PFG/AMM.sol\":2348:2367  uint256 eth_swapped */\n      0x00\n        /* \"PFG/AMM.sol\":2370:2456  calculatePrice(token_amount, tokenERC.balanceOf(address(this)), address(this).balance) */\n      tag_241\n        /* \"PFG/AMM.sol\":2385:2397  token_amount */\n      dup3\n        /* \"PFG/AMM.sol\":2399:2407  tokenERC */\n      0x00\n      dup1\n      sload\n      swap1\n      0x0100\n      exp\n      swap1\n      div\n      0xffffffffffffffffffffffffffffffffffffffff\n      and\n        /* \"PFG/AMM.sol\":2399:2417  tokenERC.balanceOf */\n      0xffffffffffffffffffffffffffffffffffffffff\n      and\n      0x70a08231\n        /* \"PFG/AMM.sol\":2426:2430  this */\n      address\n        /* \"PFG/AMM.sol\":2399:2432  tokenERC.balanceOf(address(this)) */\n      mload(0x40)\n      dup3\n      0xffffffff\n      and\n      0xe0\n      shl\n      dup2\n      mstore\n      0x04\n      add\n      tag_242\n      swap2\n      swap1\n      tag_95\n      jump\t// in\n    tag_242:\n      0x20\n      mload(0x40)\n      dup1\n      dup4\n      sub\n      dup2\n      dup7\n      gas\n      staticcall\n      iszero\n      dup1\n      iszero\n      tag_244\n      jumpi\n      returndatasize\n      0x00\n      dup1\n      returndatacopy\n      revert(0x00, returndatasize)\n    tag_244:\n      pop\n      pop\n      pop\n      pop\n      mload(0x40)\n      returndatasize\n      not(0x1f)\n      0x1f\n      dup3\n      add\n      and\n      dup3\n      add\n      dup1\n      0x40\n      mstore\n      pop\n      dup2\n      add\n      swap1\n      tag_245\n      swap2\n      swap1\n      tag_99\n      jump\t// in\n    tag_245:\n        /* \"PFG/AMM.sol\":2434:2455  address(this).balance */\n      selfbalance\n        /* \"PFG/AMM.sol\":2370:2384  calculatePrice */\n      tag_172\n        /* \"PFG/AMM.sol\":2370:2456  calculatePrice(token_amount, tokenERC.balanceOf(address(this)), address(this).balance) */\n      jump\t// in\n    tag_241:\n        /* \"PFG/AMM.sol\":2348:2456  uint256 eth_swapped = calculatePrice(token_amount, tokenERC.balanceOf(address(this)), address(this).balance) */\n      swap1\n      pop\n        /* \"PFG/AMM.sol\":2478:2490  bool success */\n      0x00\n        /* \"PFG/AMM.sol\":2496:2506  msg.sender */\n      caller\n        /* \"PFG/AMM.sol\":2496:2511  msg.sender.call */\n      0xffffffffffffffffffffffffffffffffffffffff\n      and\n        /* \"PFG/AMM.sol\":2519:2530  eth_swapped */\n      dup3\n        /* \"PFG/AMM.sol\":2496:2535  msg.sender.call{value: eth_swapped}(\"\") */\n      mload(0x40)\n      tag_246\n      swap1\n      tag_106\n      jump\t// in\n    tag_246:\n      0x00\n      mload(0x40)\n      dup1\n      dup4\n      sub\n      dup2\n      dup6\n      dup8\n      gas\n      call\n      swap3\n      pop\n      pop\n      pop\n      returndatasize\n      dup1\n      0x00\n      dup2\n      eq\n      tag_249\n      jumpi\n      mload(0x40)\n      swap2\n      pop\n      and(add(returndatasize, 0x3f), not(0x1f))\n      dup3\n      add\n      0x40\n      mstore\n      returndatasize\n      dup3\n      mstore\n      returndatasize\n      0x00\n      0x20\n      dup5\n      add\n      returndatacopy\n      jump(tag_248)\n    tag_249:\n      0x60\n      swap2\n      pop\n    tag_248:\n      pop\n        /* \"PFG/AMM.sol\":2477:2535  (bool success, ) = msg.sender.call{value: eth_swapped}(\"\") */\n      pop\n      swap1\n      pop\n        /* \"PFG/AMM.sol\":2562:2569  success */\n      dup1\n        /* \"PFG/AMM.sol\":2554:2590  require(success, \"Transfer failed.\") */\n      tag_250\n      jumpi\n      mload(0x40)\n      0x08c379a000000000000000000000000000000000000000000000000000000000\n      dup2\n      mstore\n      0x04\n      add\n      tag_251\n      swap1\n      tag_112\n      jump\t// in\n    tag_251:\n      mload(0x40)\n      dup1\n      swap2\n      sub\n      swap1\n      revert\n    tag_250:\n        /* \"PFG/AMM.sol\":2623:2631  tokenERC */\n      0x00\n      dup1\n      sload\n      swap1\n      0x0100\n      exp\n      swap1\n      div\n      0xffffffffffffffffffffffffffffffffffffffff\n      and\n        /* \"PFG/AMM.sol\":2623:2644  tokenERC.transferFrom */\n      0xffffffffffffffffffffffffffffffffffffffff\n      and\n      0x23b872dd\n        /* \"PFG/AMM.sol\":2645:2655  msg.sender */\n      caller\n        /* \"PFG/AMM.sol\":2665:2669  this */\n      address\n        /* \"PFG/AMM.sol\":2672:2684  token_amount */\n      dup7\n        /* \"PFG/AMM.sol\":2623:2685  tokenERC.transferFrom(msg.sender, address(this), token_amount) */\n      mload(0x40)\n      dup5\n      0xffffffff\n      and\n      0xe0\n      shl\n      dup2\n      mstore\n      0x04\n      add\n      tag_252\n      swap4\n      swap3\n      swap2\n      swap1\n      tag_214\n      jump\t// in\n    tag_252:\n      0x20\n      mload(0x40)\n      dup1\n      dup4\n      sub\n      dup2\n      0x00\n      dup8\n      gas\n      call\n      iszero\n      dup1\n      iszero\n      tag_254\n      jumpi\n      returndatasize\n      0x00\n      dup1\n      returndatacopy\n      revert(0x00, returndatasize)\n    tag_254:\n      pop\n      pop\n      pop\n      pop\n      mload(0x40)\n      returndatasize\n      not(0x1f)\n      0x1f\n      dup3\n      add\n      and\n      dup3\n      add\n      dup1\n      0x40\n      mstore\n      pop\n      dup2\n      add\n      swap1\n      tag_255\n      swap2\n      swap1\n      tag_118\n      jump\t// in\n    tag_255:\n        /* \"PFG/AMM.sol\":2615:2686  require(tokenERC.transferFrom(msg.sender, address(this), token_amount)) */\n      tag_256\n      jumpi\n      0x00\n      dup1\n      revert\n    tag_256:\n        /* \"PFG/AMM.sol\":2712:2735  ETHSwapped(eth_swapped) */\n      0x4dbf3a71a7c7262f432c2cad7808225832255d07f7d8ab85117677c0b5c0a850\n        /* \"PFG/AMM.sol\":2723:2734  eth_swapped */\n      dup3\n        /* \"PFG/AMM.sol\":2712:2735  ETHSwapped(eth_swapped) */\n      mload(0x40)\n      tag_257\n      swap2\n      swap1\n      tag_30\n      jump\t// in\n    tag_257:\n      mload(0x40)\n      dup1\n      swap2\n      sub\n      swap1\n      log1\n        /* \"PFG/AMM.sol\":2329:2747  {... */\n      pop\n      pop\n        /* \"PFG/AMM.sol\":2280:2747  function ercToEth(uint256 token_amount) external {... */\n      pop\n      jump\t// out\n        /* \"PFG/AMM.sol\":3320:3866  function deposit(address who) external payable {... */\n    tag_88:\n        /* \"PFG/AMM.sol\":3386:3406  uint256 token_amount */\n      0x00\n        /* \"PFG/AMM.sol\":3499:3500  1 */\n      0x01\n        /* \"PFG/AMM.sol\":3485:3494  msg.value */\n      callvalue\n        /* \"PFG/AMM.sol\":3461:3482  address(this).balance */\n      selfbalance\n        /* \"PFG/AMM.sol\":3461:3494  address(this).balance - msg.value */\n      tag_259\n      swap2\n      swap1\n      tag_103\n      jump\t// in\n    tag_259:\n        /* \"PFG/AMM.sol\":3423:3431  tokenERC */\n      0x00\n      dup1\n      sload\n      swap1\n      0x0100\n      exp\n      swap1\n      div\n      0xffffffffffffffffffffffffffffffffffffffff\n      and\n        /* \"PFG/AMM.sol\":3423:3441  tokenERC.balanceOf */\n      0xffffffffffffffffffffffffffffffffffffffff\n      and\n      0x70a08231\n        /* \"PFG/AMM.sol\":3450:3454  this */\n      address\n        /* \"PFG/AMM.sol\":3423:3456  tokenERC.balanceOf(address(this)) */\n      mload(0x40)\n      dup3\n      0xffffffff\n      and\n      0xe0\n      shl\n      dup2\n      mstore\n      0x04\n      add\n      tag_260\n      swap2\n      swap1\n      tag_95\n      jump\t// in\n    tag_260:\n      0x20\n      mload(0x40)\n      dup1\n      dup4\n      sub\n      dup2\n      dup7\n      gas\n      staticcall\n      iszero\n      dup1\n      iszero\n      tag_262\n      jumpi\n      returndatasize\n      0x00\n      dup1\n      returndatacopy\n      revert(0x00, returndatasize)\n    tag_262:\n      pop\n      pop\n      pop\n      pop\n      mload(0x40)\n      returndatasize\n      not(0x1f)\n      0x1f\n      dup3\n      add\n      and\n      dup3\n      add\n      dup1\n      0x40\n      mstore\n      pop\n      dup2\n      add\n      swap1\n      tag_263\n      swap2\n      swap1\n      tag_99\n      jump\t// in\n    tag_263:\n        /* \"PFG/AMM.sol\":3411:3420  msg.value */\n      callvalue\n        /* \"PFG/AMM.sol\":3411:3456  msg.value * tokenERC.balanceOf(address(this)) */\n      tag_264\n      swap2\n      swap1\n      tag_91\n      jump\t// in\n    tag_264:\n        /* \"PFG/AMM.sol\":3410:3495  (msg.value * tokenERC.balanceOf(address(this))) / (address(this).balance - msg.value) */\n      tag_265\n      swap2\n      swap1\n      tag_93\n      jump\t// in\n    tag_265:\n        /* \"PFG/AMM.sol\":3409:3500  ((msg.value * tokenERC.balanceOf(address(this))) / (address(this).balance - msg.value)) + 1 */\n      tag_266\n      swap2\n      swap1\n      tag_163\n      jump\t// in\n    tag_266:\n        /* \"PFG/AMM.sol\":3386:3500  uint256 token_amount = ((msg.value * tokenERC.balanceOf(address(this))) / (address(this).balance - msg.value)) + 1 */\n      swap1\n      pop\n        /* \"PFG/AMM.sol\":3519:3542  uint256 liquidity_added */\n      0x00\n        /* \"PFG/AMM.sol\":3602:3611  msg.value */\n      callvalue\n        /* \"PFG/AMM.sol\":3578:3599  address(this).balance */\n      selfbalance\n        /* \"PFG/AMM.sol\":3578:3611  address(this).balance - msg.value */\n      tag_267\n      swap2\n      swap1\n      tag_103\n      jump\t// in\n    tag_267:\n        /* \"PFG/AMM.sol\":3558:3573  total_liquidity */\n      sload(0x01)\n        /* \"PFG/AMM.sol\":3546:3555  msg.value */\n      callvalue\n        /* \"PFG/AMM.sol\":3546:3573  msg.value * total_liquidity */\n      tag_268\n      swap2\n      swap1\n      tag_91\n      jump\t// in\n    tag_268:\n        /* \"PFG/AMM.sol\":3545:3612  (msg.value * total_liquidity) / (address(this).balance - msg.value) */\n      tag_269\n      swap2\n      swap1\n      tag_93\n      jump\t// in\n    tag_269:\n        /* \"PFG/AMM.sol\":3519:3612  uint256 liquidity_added = (msg.value * total_liquidity) / (address(this).balance - msg.value) */\n      swap1\n      pop\n        /* \"PFG/AMM.sol\":3651:3666  liquidity_added */\n      dup1\n        /* \"PFG/AMM.sol\":3633:3642  liquidity */\n      0x02\n        /* \"PFG/AMM.sol\":3633:3647  liquidity[who] */\n      0x00\n        /* \"PFG/AMM.sol\":3643:3646  who */\n      dup6\n        /* \"PFG/AMM.sol\":3633:3647  liquidity[who] */\n      0xffffffffffffffffffffffffffffffffffffffff\n      and\n      0xffffffffffffffffffffffffffffffffffffffff\n      and\n      dup2\n      mstore\n      0x20\n      add\n      swap1\n      dup2\n      mstore\n      0x20\n      add\n      0x00\n      keccak256\n      0x00\n        /* \"PFG/AMM.sol\":3633:3666  liquidity[who] += liquidity_added */\n      dup3\n      dup3\n      sload\n      tag_270\n      swap2\n      swap1\n      tag_163\n      jump\t// in\n    tag_270:\n      swap3\n      pop\n      pop\n      dup2\n      swap1\n      sstore\n      pop\n        /* \"PFG/AMM.sol\":3704:3719  liquidity_added */\n      dup1\n        /* \"PFG/AMM.sol\":3685:3700  total_liquidity */\n      0x01\n      0x00\n        /* \"PFG/AMM.sol\":3685:3719  total_liquidity += liquidity_added */\n      dup3\n      dup3\n      sload\n      tag_271\n      swap2\n      swap1\n      tag_163\n      jump\t// in\n    tag_271:\n      swap3\n      pop\n      pop\n      dup2\n      swap1\n      sstore\n      pop\n        /* \"PFG/AMM.sol\":3748:3756  tokenERC */\n      0x00\n      dup1\n      sload\n      swap1\n      0x0100\n      exp\n      swap1\n      div\n      0xffffffffffffffffffffffffffffffffffffffff\n      and\n        /* \"PFG/AMM.sol\":3748:3769  tokenERC.transferFrom */\n      0xffffffffffffffffffffffffffffffffffffffff\n      and\n      0x23b872dd\n        /* \"PFG/AMM.sol\":3770:3773  who */\n      dup5\n        /* \"PFG/AMM.sol\":3783:3787  this */\n      address\n        /* \"PFG/AMM.sol\":3790:3802  token_amount */\n      dup6\n        /* \"PFG/AMM.sol\":3748:3803  tokenERC.transferFrom(who, address(this), token_amount) */\n      mload(0x40)\n      dup5\n      0xffffffff\n      and\n      0xe0\n      shl\n      dup2\n      mstore\n      0x04\n      add\n      tag_272\n      swap4\n      swap3\n      swap2\n      swap1\n      tag_214\n      jump\t// in\n    tag_272:\n      0x20\n      mload(0x40)\n      dup1\n      dup4\n      sub\n      dup2\n      0x00\n      dup8\n      gas\n      call\n      iszero\n      dup1\n      iszero\n      tag_274\n      jumpi\n      returndatasize\n      0x00\n      dup1\n      returndatacopy\n      revert(0x00, returndatasize)\n    tag_274:\n      pop\n      pop\n      pop\n      pop\n      mload(0x40)\n      returndatasize\n      not(0x1f)\n      0x1f\n      dup3\n      add\n      and\n      dup3\n      add\n      dup1\n      0x40\n      mstore\n      pop\n      dup2\n      add\n      swap1\n      tag_275\n      swap2\n      swap1\n      tag_118\n      jump\t// in\n    tag_275:\n        /* \"PFG/AMM.sol\":3740:3804  require(tokenERC.transferFrom(who, address(this), token_amount)) */\n      tag_276\n      jumpi\n      0x00\n      dup1\n      revert\n    tag_276:\n        /* \"PFG/AMM.sol\":3830:3854  Deposit(liquidity_added) */\n      0x4d6ce1e535dbade1c23defba91e23b8f791ce5edc0cc320257a2b364e4e38426\n        /* \"PFG/AMM.sol\":3838:3853  liquidity_added */\n      dup2\n        /* \"PFG/AMM.sol\":3830:3854  Deposit(liquidity_added) */\n      mload(0x40)\n      tag_277\n      swap2\n      swap1\n      tag_30\n      jump\t// in\n    tag_277:\n      mload(0x40)\n      dup1\n      swap2\n      sub\n      swap1\n      log1\n        /* \"PFG/AMM.sol\":3367:3866  {... */\n      pop\n      pop\n        /* \"PFG/AMM.sol\":3320:3866  function deposit(address who) external payable {... */\n      pop\n      jump\t// out\n        /* \"PFG/AMM.sol\":1000:1212  function calculatePrice(uint256 input_value, uint256 input_pool, uint256 output_pool) internal pure returns (uint256) {... */\n    tag_172:\n        /* \"PFG/AMM.sol\":1109:1116  uint256 */\n      0x00\n        /* \"PFG/AMM.sol\":1188:1199  input_value */\n      dup4\n        /* \"PFG/AMM.sol\":1175:1185  input_pool */\n      dup4\n        /* \"PFG/AMM.sol\":1175:1199  input_pool + input_value */\n      tag_279\n      swap2\n      swap1\n      tag_163\n      jump\t// in\n    tag_279:\n        /* \"PFG/AMM.sol\":1159:1170  output_pool */\n      dup3\n        /* \"PFG/AMM.sol\":1145:1156  input_value */\n      dup6\n        /* \"PFG/AMM.sol\":1145:1170  input_value * output_pool */\n      tag_280\n      swap2\n      swap1\n      tag_91\n      jump\t// in\n    tag_280:\n        /* \"PFG/AMM.sol\":1144:1200  (input_value * output_pool) / (input_pool + input_value) */\n      tag_281\n      swap2\n      swap1\n      tag_93\n      jump\t// in\n    tag_281:\n        /* \"PFG/AMM.sol\":1137:1200  return (input_value * output_pool) / (input_pool + input_value) */\n      swap1\n      pop\n        /* \"PFG/AMM.sol\":1000:1212  function calculatePrice(uint256 input_value, uint256 input_pool, uint256 output_pool) internal pure returns (uint256) {... */\n      swap4\n      swap3\n      pop\n      pop\n      pop\n      jump\t// out\n        /* \"#utility.yul\":88:205   */\n    tag_283:\n        /* \"#utility.yul\":197:198   */\n      0x00\n        /* \"#utility.yul\":194:195   */\n      dup1\n        /* \"#utility.yul\":187:199   */\n      revert\n        /* \"#utility.yul\":334:411   */\n    tag_285:\n        /* \"#utility.yul\":371:378   */\n      0x00\n        /* \"#utility.yul\":400:405   */\n      dup2\n        /* \"#utility.yul\":389:405   */\n      swap1\n      pop\n        /* \"#utility.yul\":334:411   */\n      swap2\n      swap1\n      pop\n      jump\t// out\n        /* \"#utility.yul\":417:539   */\n    tag_286:\n        /* \"#utility.yul\":490:514   */\n      tag_312\n        /* \"#utility.yul\":508:513   */\n      dup2\n        /* \"#utility.yul\":490:514   */\n      tag_285\n      jump\t// in\n    tag_312:\n        /* \"#utility.yul\":483:488   */\n      dup2\n        /* \"#utility.yul\":480:515   */\n      eq\n        /* \"#utility.yul\":470:533   */\n      tag_313\n      jumpi\n        /* \"#utility.yul\":529:530   */\n      0x00\n        /* \"#utility.yul\":526:527   */\n      dup1\n        /* \"#utility.yul\":519:531   */\n      revert\n        /* \"#utility.yul\":470:533   */\n    tag_313:\n        /* \"#utility.yul\":417:539   */\n      pop\n      jump\t// out\n        /* \"#utility.yul\":545:684   */\n    tag_287:\n        /* \"#utility.yul\":591:596   */\n      0x00\n        /* \"#utility.yul\":629:635   */\n      dup2\n        /* \"#utility.yul\":616:636   */\n      calldataload\n        /* \"#utility.yul\":607:636   */\n      swap1\n      pop\n        /* \"#utility.yul\":645:678   */\n      tag_315\n        /* \"#utility.yul\":672:677   */\n      dup2\n        /* \"#utility.yul\":645:678   */\n      tag_286\n      jump\t// in\n    tag_315:\n        /* \"#utility.yul\":545:684   */\n      swap3\n      swap2\n      pop\n      pop\n      jump\t// out\n        /* \"#utility.yul\":690:816   */\n    tag_288:\n        /* \"#utility.yul\":727:734   */\n      0x00\n        /* \"#utility.yul\":767:809   */\n      0xffffffffffffffffffffffffffffffffffffffff\n        /* \"#utility.yul\":760:765   */\n      dup3\n        /* \"#utility.yul\":756:810   */\n      and\n        /* \"#utility.yul\":745:810   */\n      swap1\n      pop\n        /* \"#utility.yul\":690:816   */\n      swap2\n      swap1\n      pop\n      jump\t// out\n        /* \"#utility.yul\":822:918   */\n    tag_289:\n        /* \"#utility.yul\":859:866   */\n      0x00\n        /* \"#utility.yul\":888:912   */\n      tag_318\n        /* \"#utility.yul\":906:911   */\n      dup3\n        /* \"#utility.yul\":888:912   */\n      tag_288\n      jump\t// in\n    tag_318:\n        /* \"#utility.yul\":877:912   */\n      swap1\n      pop\n        /* \"#utility.yul\":822:918   */\n      swap2\n      swap1\n      pop\n      jump\t// out\n        /* \"#utility.yul\":924:1046   */\n    tag_290:\n        /* \"#utility.yul\":997:1021   */\n      tag_320\n        /* \"#utility.yul\":1015:1020   */\n      dup2\n        /* \"#utility.yul\":997:1021   */\n      tag_289\n      jump\t// in\n    tag_320:\n        /* \"#utility.yul\":990:995   */\n      dup2\n        /* \"#utility.yul\":987:1022   */\n      eq\n        /* \"#utility.yul\":977:1040   */\n      tag_321\n      jumpi\n        /* \"#utility.yul\":1036:1037   */\n      0x00\n        /* \"#utility.yul\":1033:1034   */\n      dup1\n        /* \"#utility.yul\":1026:1038   */\n      revert\n        /* \"#utility.yul\":977:1040   */\n    tag_321:\n        /* \"#utility.yul\":924:1046   */\n      pop\n      jump\t// out\n        /* \"#utility.yul\":1052:1191   */\n    tag_291:\n        /* \"#utility.yul\":1098:1103   */\n      0x00\n        /* \"#utility.yul\":1136:1142   */\n      dup2\n        /* \"#utility.yul\":1123:1143   */\n      calldataload\n        /* \"#utility.yul\":1114:1143   */\n      swap1\n      pop\n        /* \"#utility.yul\":1152:1185   */\n      tag_323\n        /* \"#utility.yul\":1179:1184   */\n      dup2\n        /* \"#utility.yul\":1152:1185   */\n      tag_290\n      jump\t// in\n    tag_323:\n        /* \"#utility.yul\":1052:1191   */\n      swap3\n      swap2\n      pop\n      pop\n      jump\t// out\n        /* \"#utility.yul\":1197:1671   */\n    tag_24:\n        /* \"#utility.yul\":1265:1271   */\n      0x00\n        /* \"#utility.yul\":1273:1279   */\n      dup1\n        /* \"#utility.yul\":1322:1324   */\n      0x40\n        /* \"#utility.yul\":1310:1319   */\n      dup4\n        /* \"#utility.yul\":1301:1308   */\n      dup6\n        /* \"#utility.yul\":1297:1320   */\n      sub\n        /* \"#utility.yul\":1293:1325   */\n      slt\n        /* \"#utility.yul\":1290:1409   */\n      iszero\n      tag_325\n      jumpi\n        /* \"#utility.yul\":1328:1407   */\n      tag_326\n      tag_283\n      jump\t// in\n    tag_326:\n        /* \"#utility.yul\":1290:1409   */\n    tag_325:\n        /* \"#utility.yul\":1448:1449   */\n      0x00\n        /* \"#utility.yul\":1473:1526   */\n      tag_327\n        /* \"#utility.yul\":1518:1525   */\n      dup6\n        /* \"#utility.yul\":1509:1515   */\n      dup3\n        /* \"#utility.yul\":1498:1507   */\n      dup7\n        /* \"#utility.yul\":1494:1516   */\n      add\n        /* \"#utility.yul\":1473:1526   */\n      tag_287\n      jump\t// in\n    tag_327:\n        /* \"#utility.yul\":1463:1526   */\n      swap3\n      pop\n        /* \"#utility.yul\":1419:1536   */\n      pop\n        /* \"#utility.yul\":1575:1577   */\n      0x20\n        /* \"#utility.yul\":1601:1654   */\n      tag_328\n        /* \"#utility.yul\":1646:1653   */\n      dup6\n        /* \"#utility.yul\":1637:1643   */\n      dup3\n        /* \"#utility.yul\":1626:1635   */\n      dup7\n        /* \"#utility.yul\":1622:1644   */\n      add\n        /* \"#utility.yul\":1601:1654   */\n      tag_291\n      jump\t// in\n    tag_328:\n        /* \"#utility.yul\":1591:1654   */\n      swap2\n      pop\n        /* \"#utility.yul\":1546:1664   */\n      pop\n        /* \"#utility.yul\":1197:1671   */\n      swap3\n      pop\n      swap3\n      swap1\n      pop\n      jump\t// out\n        /* \"#utility.yul\":1677:1795   */\n    tag_292:\n        /* \"#utility.yul\":1764:1788   */\n      tag_330\n        /* \"#utility.yul\":1782:1787   */\n      dup2\n        /* \"#utility.yul\":1764:1788   */\n      tag_285\n      jump\t// in\n    tag_330:\n        /* \"#utility.yul\":1759:1762   */\n      dup3\n        /* \"#utility.yul\":1752:1789   */\n      mstore\n        /* \"#utility.yul\":1677:1795   */\n      pop\n      pop\n      jump\t// out\n        /* \"#utility.yul\":1801:2023   */\n    tag_30:\n        /* \"#utility.yul\":1894:1898   */\n      0x00\n        /* \"#utility.yul\":1932:1934   */\n      0x20\n        /* \"#utility.yul\":1921:1930   */\n      dup3\n        /* \"#utility.yul\":1917:1935   */\n      add\n        /* \"#utility.yul\":1909:1935   */\n      swap1\n      pop\n        /* \"#utility.yul\":1945:2016   */\n      tag_332\n        /* \"#utility.yul\":2013:2014   */\n      0x00\n        /* \"#utility.yul\":2002:2011   */\n      dup4\n        /* \"#utility.yul\":1998:2015   */\n      add\n        /* \"#utility.yul\":1989:1995   */\n      dup5\n        /* \"#utility.yul\":1945:2016   */\n      tag_292\n      jump\t// in\n    tag_332:\n        /* \"#utility.yul\":1801:2023   */\n      swap3\n      swap2\n      pop\n      pop\n      jump\t// out\n        /* \"#utility.yul\":2029:2358   */\n    tag_34:\n        /* \"#utility.yul\":2088:2094   */\n      0x00\n        /* \"#utility.yul\":2137:2139   */\n      0x20\n        /* \"#utility.yul\":2125:2134   */\n      dup3\n        /* \"#utility.yul\":2116:2123   */\n      dup5\n        /* \"#utility.yul\":2112:2135   */\n      sub\n        /* \"#utility.yul\":2108:2140   */\n      slt\n        /* \"#utility.yul\":2105:2224   */\n      iszero\n      tag_334\n      jumpi\n        /* \"#utility.yul\":2143:2222   */\n      tag_335\n      tag_283\n      jump\t// in\n    tag_335:\n        /* \"#utility.yul\":2105:2224   */\n    tag_334:\n        /* \"#utility.yul\":2263:2264   */\n      0x00\n        /* \"#utility.yul\":2288:2341   */\n      tag_336\n        /* \"#utility.yul\":2333:2340   */\n      dup5\n        /* \"#utility.yul\":2324:2330   */\n      dup3\n        /* \"#utility.yul\":2313:2322   */\n      dup6\n        /* \"#utility.yul\":2309:2331   */\n      add\n        /* \"#utility.yul\":2288:2341   */\n      tag_287\n      jump\t// in\n    tag_336:\n        /* \"#utility.yul\":2278:2341   */\n      swap2\n      pop\n        /* \"#utility.yul\":2234:2351   */\n      pop\n        /* \"#utility.yul\":2029:2358   */\n      swap3\n      swap2\n      pop\n      pop\n      jump\t// out\n        /* \"#utility.yul\":2364:2696   */\n    tag_37:\n        /* \"#utility.yul\":2485:2489   */\n      0x00\n        /* \"#utility.yul\":2523:2525   */\n      0x40\n        /* \"#utility.yul\":2512:2521   */\n      dup3\n        /* \"#utility.yul\":2508:2526   */\n      add\n        /* \"#utility.yul\":2500:2526   */\n      swap1\n      pop\n        /* \"#utility.yul\":2536:2607   */\n      tag_338\n        /* \"#utility.yul\":2604:2605   */\n      0x00\n        /* \"#utility.yul\":2593:2602   */\n      dup4\n        /* \"#utility.yul\":2589:2606   */\n      add\n        /* \"#utility.yul\":2580:2586   */\n      dup6\n        /* \"#utility.yul\":2536:2607   */\n      tag_292\n      jump\t// in\n    tag_338:\n        /* \"#utility.yul\":2617:2689   */\n      tag_339\n        /* \"#utility.yul\":2685:2687   */\n      0x20\n        /* \"#utility.yul\":2674:2683   */\n      dup4\n        /* \"#utility.yul\":2670:2688   */\n      add\n        /* \"#utility.yul\":2661:2667   */\n      dup5\n        /* \"#utility.yul\":2617:2689   */\n      tag_292\n      jump\t// in\n    tag_339:\n        /* \"#utility.yul\":2364:2696   */\n      swap4\n      swap3\n      pop\n      pop\n      pop\n      jump\t// out\n        /* \"#utility.yul\":2702:3031   */\n    tag_69:\n        /* \"#utility.yul\":2761:2767   */\n      0x00\n        /* \"#utility.yul\":2810:2812   */\n      0x20\n        /* \"#utility.yul\":2798:2807   */\n      dup3\n        /* \"#utility.yul\":2789:2796   */\n      dup5\n        /* \"#utility.yul\":2785:2808   */\n      sub\n        /* \"#utility.yul\":2781:2813   */\n      slt\n        /* \"#utility.yul\":2778:2897   */\n      iszero\n      tag_341\n      jumpi\n        /* \"#utility.yul\":2816:2895   */\n      tag_342\n      tag_283\n      jump\t// in\n    tag_342:\n        /* \"#utility.yul\":2778:2897   */\n    tag_341:\n        /* \"#utility.yul\":2936:2937   */\n      0x00\n        /* \"#utility.yul\":2961:3014   */\n      tag_343\n        /* \"#utility.yul\":3006:3013   */\n      dup5\n        /* \"#utility.yul\":2997:3003   */\n      dup3\n        /* \"#utility.yul\":2986:2995   */\n      dup6\n        /* \"#utility.yul\":2982:3004   */\n      add\n        /* \"#utility.yul\":2961:3014   */\n      tag_291\n      jump\t// in\n    tag_343:\n        /* \"#utility.yul\":2951:3014   */\n      swap2\n      pop\n        /* \"#utility.yul\":2907:3024   */\n      pop\n        /* \"#utility.yul\":2702:3031   */\n      swap3\n      swap2\n      pop\n      pop\n      jump\t// out\n        /* \"#utility.yul\":3037:3511   */\n    tag_78:\n        /* \"#utility.yul\":3105:3111   */\n      0x00\n        /* \"#utility.yul\":3113:3119   */\n      dup1\n        /* \"#utility.yul\":3162:3164   */\n      0x40\n        /* \"#utility.yul\":3150:3159   */\n      dup4\n        /* \"#utility.yul\":3141:3148   */\n      dup6\n        /* \"#utility.yul\":3137:3160   */\n      sub\n        /* \"#utility.yul\":3133:3165   */\n      slt\n        /* \"#utility.yul\":3130:3249   */\n      iszero\n      tag_345\n      jumpi\n        /* \"#utility.yul\":3168:3247   */\n      tag_346\n      tag_283\n      jump\t// in\n    tag_346:\n        /* \"#utility.yul\":3130:3249   */\n    tag_345:\n        /* \"#utility.yul\":3288:3289   */\n      0x00\n        /* \"#utility.yul\":3313:3366   */\n      tag_347\n        /* \"#utility.yul\":3358:3365   */\n      dup6\n        /* \"#utility.yul\":3349:3355   */\n      dup3\n        /* \"#utility.yul\":3338:3347   */\n      dup7\n        /* \"#utility.yul\":3334:3356   */\n      add\n        /* \"#utility.yul\":3313:3366   */\n      tag_291\n      jump\t// in\n    tag_347:\n        /* \"#utility.yul\":3303:3366   */\n      swap3\n      pop\n        /* \"#utility.yul\":3259:3376   */\n      pop\n        /* \"#utility.yul\":3415:3417   */\n      0x20\n        /* \"#utility.yul\":3441:3494   */\n      tag_348\n        /* \"#utility.yul\":3486:3493   */\n      dup6\n        /* \"#utility.yul\":3477:3483   */\n      dup3\n        /* \"#utility.yul\":3466:3475   */\n      dup7\n        /* \"#utility.yul\":3462:3484   */\n      add\n        /* \"#utility.yul\":3441:3494   */\n      tag_287\n      jump\t// in\n    tag_348:\n        /* \"#utility.yul\":3431:3494   */\n      swap2\n      pop\n        /* \"#utility.yul\":3386:3504   */\n      pop\n        /* \"#utility.yul\":3037:3511   */\n      swap3\n      pop\n      swap3\n      swap1\n      pop\n      jump\t// out\n        /* \"#utility.yul\":3517:3697   */\n    tag_293:\n        /* \"#utility.yul\":3565:3642   */\n      0x4e487b7100000000000000000000000000000000000000000000000000000000\n        /* \"#utility.yul\":3562:3563   */\n      0x00\n        /* \"#utility.yul\":3555:3643   */\n      mstore\n        /* \"#utility.yul\":3662:3666   */\n      0x11\n        /* \"#utility.yul\":3659:3660   */\n      0x04\n        /* \"#utility.yul\":3652:3667   */\n      mstore\n        /* \"#utility.yul\":3686:3690   */\n      0x24\n        /* \"#utility.yul\":3683:3684   */\n      0x00\n        /* \"#utility.yul\":3676:3691   */\n      revert\n        /* \"#utility.yul\":3703:4051   */\n    tag_91:\n        /* \"#utility.yul\":3743:3750   */\n      0x00\n        /* \"#utility.yul\":3766:3786   */\n      tag_351\n        /* \"#utility.yul\":3784:3785   */\n      dup3\n        /* \"#utility.yul\":3766:3786   */\n      tag_285\n      jump\t// in\n    tag_351:\n        /* \"#utility.yul\":3761:3786   */\n      swap2\n      pop\n        /* \"#utility.yul\":3800:3820   */\n      tag_352\n        /* \"#utility.yul\":3818:3819   */\n      dup4\n        /* \"#utility.yul\":3800:3820   */\n      tag_285\n      jump\t// in\n    tag_352:\n        /* \"#utility.yul\":3795:3820   */\n      swap3\n      pop\n        /* \"#utility.yul\":3988:3989   */\n      dup2\n        /* \"#utility.yul\":3920:3986   */\n      0xffffffffffffffffffffffffffffffffffffffffffffffffffffffffffffffff\n        /* \"#utility.yul\":3916:3990   */\n      div\n        /* \"#utility.yul\":3913:3914   */\n      dup4\n        /* \"#utility.yul\":3910:3991   */\n      gt\n        /* \"#utility.yul\":3905:3906   */\n      dup3\n        /* \"#utility.yul\":3898:3907   */\n      iszero\n        /* \"#utility.yul\":3891:3908   */\n      iszero\n        /* \"#utility.yul\":3887:3992   */\n      and\n        /* \"#utility.yul\":3884:4015   */\n      iszero\n      tag_353\n      jumpi\n        /* \"#utility.yul\":3995:4013   */\n      tag_354\n      tag_293\n      jump\t// in\n    tag_354:\n        /* \"#utility.yul\":3884:4015   */\n    tag_353:\n        /* \"#utility.yul\":4043:4044   */\n      dup3\n        /* \"#utility.yul\":4040:4041   */\n      dup3\n        /* \"#utility.yul\":4036:4045   */\n      mul\n        /* \"#utility.yul\":4025:4045   */\n      swap1\n      pop\n        /* \"#utility.yul\":3703:4051   */\n      swap3\n      swap2\n      pop\n      pop\n      jump\t// out\n        /* \"#utility.yul\":4057:4237   */\n    tag_294:\n        /* \"#utility.yul\":4105:4182   */\n      0x4e487b7100000000000000000000000000000000000000000000000000000000\n        /* \"#utility.yul\":4102:4103   */\n      0x00\n        /* \"#utility.yul\":4095:4183   */\n      mstore\n        /* \"#utility.yul\":4202:4206   */\n      0x12\n        /* \"#utility.yul\":4199:4200   */\n      0x04\n        /* \"#utility.yul\":4192:4207   */\n      mstore\n        /* \"#utility.yul\":4226:4230   */\n      0x24\n        /* \"#utility.yul\":4223:4224   */\n      0x00\n        /* \"#utility.yul\":4216:4231   */\n      revert\n        /* \"#utility.yul\":4243:4428   */\n    tag_93:\n        /* \"#utility.yul\":4283:4284   */\n      0x00\n        /* \"#utility.yul\":4300:4320   */\n      tag_357\n        /* \"#utility.yul\":4318:4319   */\n      dup3\n        /* \"#utility.yul\":4300:4320   */\n      tag_285\n      jump\t// in\n    tag_357:\n        /* \"#utility.yul\":4295:4320   */\n      swap2\n      pop\n        /* \"#utility.yul\":4334:4354   */\n      tag_358\n        /* \"#utility.yul\":4352:4353   */\n      dup4\n        /* \"#utility.yul\":4334:4354   */\n      tag_285\n      jump\t// in\n    tag_358:\n        /* \"#utility.yul\":4329:4354   */\n      swap3\n      pop\n        /* \"#utility.yul\":4373:4374   */\n      dup3\n        /* \"#utility.yul\":4363:4398   */\n      tag_359\n      jumpi\n        /* \"#utility.yul\":4378:4396   */\n      tag_360\n      tag_294\n      jump\t// in\n    tag_360:\n        /* \"#utility.yul\":4363:4398   */\n    tag_359:\n        /* \"#utility.yul\":4420:4421   */\n      dup3\n        /* \"#utility.yul\":4417:4418   */\n      dup3\n        /* \"#utility.yul\":4413:4422   */\n      div\n        /* \"#utility.yul\":4408:4422   */\n      swap1\n      pop\n        /* \"#utility.yul\":4243:4428   */\n      swap3\n      swap2\n      pop\n      pop\n      jump\t// out\n        /* \"#utility.yul\":4434:4552   */\n    tag_295:\n        /* \"#utility.yul\":4521:4545   */\n      tag_362\n        /* \"#utility.yul\":4539:4544   */\n      dup2\n        /* \"#utility.yul\":4521:4545   */\n      tag_289\n      jump\t// in\n    tag_362:\n        /* \"#utility.yul\":4516:4519   */\n      dup3\n        /* \"#utility.yul\":4509:4546   */\n      mstore\n        /* \"#utility.yul\":4434:4552   */\n      pop\n      pop\n      jump\t// out\n        /* \"#utility.yul\":4558:4780   */\n    tag_95:\n        /* \"#utility.yul\":4651:4655   */\n      0x00\n        /* \"#utility.yul\":4689:4691   */\n      0x20\n        /* \"#utility.yul\":4678:4687   */\n      dup3\n        /* \"#utility.yul\":4674:4692   */\n      add\n        /* \"#utility.yul\":4666:4692   */\n      swap1\n      pop\n        /* \"#utility.yul\":4702:4773   */\n      tag_364\n        /* \"#utility.yul\":4770:4771   */\n      0x00\n        /* \"#utility.yul\":4759:4768   */\n      dup4\n        /* \"#utility.yul\":4755:4772   */\n      add\n        /* \"#utility.yul\":4746:4752   */\n      dup5\n        /* \"#utility.yul\":4702:4773   */\n      tag_295\n      jump\t// in\n    tag_364:\n        /* \"#utility.yul\":4558:4780   */\n      swap3\n      swap2\n      pop\n      pop\n      jump\t// out\n        /* \"#utility.yul\":4786:4929   */\n    tag_296:\n        /* \"#utility.yul\":4843:4848   */\n      0x00\n        /* \"#utility.yul\":4874:4880   */\n      dup2\n        /* \"#utility.yul\":4868:4881   */\n      mload\n        /* \"#utility.yul\":4859:4881   */\n      swap1\n      pop\n        /* \"#utility.yul\":4890:4923   */\n      tag_366\n        /* \"#utility.yul\":4917:4922   */\n      dup2\n        /* \"#utility.yul\":4890:4923   */\n      tag_286\n      jump\t// in\n    tag_366:\n        /* \"#utility.yul\":4786:4929   */\n      swap3\n      swap2\n      pop\n      pop\n      jump\t// out\n        /* \"#utility.yul\":4935:5286   */\n    tag_99:\n        /* \"#utility.yul\":5005:5011   */\n      0x00\n        /* \"#utility.yul\":5054:5056   */\n      0x20\n        /* \"#utility.yul\":5042:5051   */\n      dup3\n        /* \"#utility.yul\":5033:5040   */\n      dup5\n        /* \"#utility.yul\":5029:5052   */\n      sub\n        /* \"#utility.yul\":5025:5057   */\n      slt\n        /* \"#utility.yul\":5022:5141   */\n      iszero\n      tag_368\n      jumpi\n        /* \"#utility.yul\":5060:5139   */\n      tag_369\n      tag_283\n      jump\t// in\n    tag_369:\n        /* \"#utility.yul\":5022:5141   */\n    tag_368:\n        /* \"#utility.yul\":5180:5181   */\n      0x00\n        /* \"#utility.yul\":5205:5269   */\n      tag_370\n        /* \"#utility.yul\":5261:5268   */\n      dup5\n        /* \"#utility.yul\":5252:5258   */\n      dup3\n        /* \"#utility.yul\":5241:5250   */\n      dup6\n        /* \"#utility.yul\":5237:5259   */\n      add\n        /* \"#utility.yul\":5205:5269   */\n      tag_296\n      jump\t// in\n    tag_370:\n        /* \"#utility.yul\":5195:5269   */\n      swap2\n      pop\n        /* \"#utility.yul\":5151:5279   */\n      pop\n        /* \"#utility.yul\":4935:5286   */\n      swap3\n      swap2\n      pop\n      pop\n      jump\t// out\n        /* \"#utility.yul\":5292:5483   */\n    tag_103:\n        /* \"#utility.yul\":5332:5336   */\n      0x00\n        /* \"#utility.yul\":5352:5372   */\n      tag_372\n        /* \"#utility.yul\":5370:5371   */\n      dup3\n        /* \"#utility.yul\":5352:5372   */\n      tag_285\n      jump\t// in\n    tag_372:\n        /* \"#utility.yul\":5347:5372   */\n      swap2\n      pop\n        /* \"#utility.yul\":5386:5406   */\n      tag_373\n        /* \"#utility.yul\":5404:5405   */\n      dup4\n        /* \"#utility.yul\":5386:5406   */\n      tag_285\n      jump\t// in\n    tag_373:\n        /* \"#utility.yul\":5381:5406   */\n      swap3\n      pop\n        /* \"#utility.yul\":5425:5426   */\n      dup3\n        /* \"#utility.yul\":5422:5423   */\n      dup3\n        /* \"#utility.yul\":5419:5427   */\n      lt\n        /* \"#utility.yul\":5416:5450   */\n      iszero\n      tag_374\n      jumpi\n        /* \"#utility.yul\":5430:5448   */\n      tag_375\n      tag_293\n      jump\t// in\n    tag_375:\n        /* \"#utility.yul\":5416:5450   */\n    tag_374:\n        /* \"#utility.yul\":5475:5476   */\n      dup3\n        /* \"#utility.yul\":5472:5473   */\n      dup3\n        /* \"#utility.yul\":5468:5477   */\n      sub\n        /* \"#utility.yul\":5460:5477   */\n      swap1\n      pop\n        /* \"#utility.yul\":5292:5483   */\n      swap3\n      swap2\n      pop\n      pop\n      jump\t// out\n        /* \"#utility.yul\":5489:5636   */\n    tag_297:\n        /* \"#utility.yul\":5590:5601   */\n      0x00\n        /* \"#utility.yul\":5627:5630   */\n      dup2\n        /* \"#utility.yul\":5612:5630   */\n      swap1\n      pop\n        /* \"#utility.yul\":5489:5636   */\n      swap3\n      swap2\n      pop\n      pop\n      jump\t// out\n        /* \"#utility.yul\":5642:5756   */\n    tag_298:\n      pop\n      jump\t// out\n        /* \"#utility.yul\":5762:6160   */\n    tag_299:\n        /* \"#utility.yul\":5921:5924   */\n      0x00\n        /* \"#utility.yul\":5942:6025   */\n      tag_379\n        /* \"#utility.yul\":6023:6024   */\n      0x00\n        /* \"#utility.yul\":6018:6021   */\n      dup4\n        /* \"#utility.yul\":5942:6025   */\n      tag_297\n      jump\t// in\n    tag_379:\n        /* \"#utility.yul\":5935:6025   */\n      swap2\n      pop\n        /* \"#utility.yul\":6034:6127   */\n      tag_380\n        /* \"#utility.yul\":6123:6126   */\n      dup3\n        /* \"#utility.yul\":6034:6127   */\n      tag_298\n      jump\t// in\n    tag_380:\n        /* \"#utility.yul\":6152:6153   */\n      0x00\n        /* \"#utility.yul\":6147:6150   */\n      dup3\n        /* \"#utility.yul\":6143:6154   */\n      add\n        /* \"#utility.yul\":6136:6154   */\n      swap1\n      pop\n        /* \"#utility.yul\":5762:6160   */\n      swap2\n      swap1\n      pop\n      jump\t// out\n        /* \"#utility.yul\":6166:6545   */\n    tag_106:\n        /* \"#utility.yul\":6350:6353   */\n      0x00\n        /* \"#utility.yul\":6372:6519   */\n      tag_382\n        /* \"#utility.yul\":6515:6518   */\n      dup3\n        /* \"#utility.yul\":6372:6519   */\n      tag_299\n      jump\t// in\n    tag_382:\n        /* \"#utility.yul\":6365:6519   */\n      swap2\n      pop\n        /* \"#utility.yul\":6536:6539   */\n      dup2\n        /* \"#utility.yul\":6529:6539   */\n      swap1\n      pop\n        /* \"#utility.yul\":6166:6545   */\n      swap2\n      swap1\n      pop\n      jump\t// out\n        /* \"#utility.yul\":6551:6720   */\n    tag_300:\n        /* \"#utility.yul\":6635:6646   */\n      0x00\n        /* \"#utility.yul\":6669:6675   */\n      dup3\n        /* \"#utility.yul\":6664:6667   */\n      dup3\n        /* \"#utility.yul\":6657:6676   */\n      mstore\n        /* \"#utility.yul\":6709:6713   */\n      0x20\n        /* \"#utility.yul\":6704:6707   */\n      dup3\n        /* \"#utility.yul\":6700:6714   */\n      add\n        /* \"#utility.yul\":6685:6714   */\n      swap1\n      pop\n        /* \"#utility.yul\":6551:6720   */\n      swap3\n      swap2\n      pop\n      pop\n      jump\t// out\n        /* \"#utility.yul\":6726:6892   */\n    tag_301:\n        /* \"#utility.yul\":6866:6884   */\n      0x5472616e73666572206661696c65642e00000000000000000000000000000000\n        /* \"#utility.yul\":6862:6863   */\n      0x00\n        /* \"#utility.yul\":6854:6860   */\n      dup3\n        /* \"#utility.yul\":6850:6864   */\n      add\n        /* \"#utility.yul\":6843:6885   */\n      mstore\n        /* \"#utility.yul\":6726:6892   */\n      pop\n      jump\t// out\n        /* \"#utility.yul\":6898:7264   */\n    tag_302:\n        /* \"#utility.yul\":7040:7043   */\n      0x00\n        /* \"#utility.yul\":7061:7128   */\n      tag_386\n        /* \"#utility.yul\":7125:7127   */\n      0x10\n        /* \"#utility.yul\":7120:7123   */\n      dup4\n        /* \"#utility.yul\":7061:7128   */\n      tag_300\n      jump\t// in\n    tag_386:\n        /* \"#utility.yul\":7054:7128   */\n      swap2\n      pop\n        /* \"#utility.yul\":7137:7230   */\n      tag_387\n        /* \"#utility.yul\":7226:7229   */\n      dup3\n        /* \"#utility.yul\":7137:7230   */\n      tag_301\n      jump\t// in\n    tag_387:\n        /* \"#utility.yul\":7255:7257   */\n      0x20\n        /* \"#utility.yul\":7250:7253   */\n      dup3\n        /* \"#utility.yul\":7246:7258   */\n      add\n        /* \"#utility.yul\":7239:7258   */\n      swap1\n      pop\n        /* \"#utility.yul\":6898:7264   */\n      swap2\n      swap1\n      pop\n      jump\t// out\n        /* \"#utility.yul\":7270:7689   */\n    tag_112:\n        /* \"#utility.yul\":7436:7440   */\n      0x00\n        /* \"#utility.yul\":7474:7476   */\n      0x20\n        /* \"#utility.yul\":7463:7472   */\n      dup3\n        /* \"#utility.yul\":7459:7477   */\n      add\n        /* \"#utility.yul\":7451:7477   */\n      swap1\n      pop\n        /* \"#utility.yul\":7523:7532   */\n      dup2\n        /* \"#utility.yul\":7517:7521   */\n      dup2\n        /* \"#utility.yul\":7513:7533   */\n      sub\n        /* \"#utility.yul\":7509:7510   */\n      0x00\n        /* \"#utility.yul\":7498:7507   */\n      dup4\n        /* \"#utility.yul\":7494:7511   */\n      add\n        /* \"#utility.yul\":7487:7534   */\n      mstore\n        /* \"#utility.yul\":7551:7682   */\n      tag_389\n        /* \"#utility.yul\":7677:7681   */\n      dup2\n        /* \"#utility.yul\":7551:7682   */\n      tag_302\n      jump\t// in\n    tag_389:\n        /* \"#utility.yul\":7543:7682   */\n      swap1\n      pop\n        /* \"#utility.yul\":7270:7689   */\n      swap2\n      swap1\n      pop\n      jump\t// out\n        /* \"#utility.yul\":7695:8027   */\n    tag_114:\n        /* \"#utility.yul\":7816:7820   */\n      0x00\n        /* \"#utility.yul\":7854:7856   */\n      0x40\n        /* \"#utility.yul\":7843:7852   */\n      dup3\n        /* \"#utility.yul\":7839:7857   */\n      add\n        /* \"#utility.yul\":7831:7857   */\n      swap1\n      pop\n        /* \"#utility.yul\":7867:7938   */\n      tag_391\n        /* \"#utility.yul\":7935:7936   */\n      0x00\n        /* \"#utility.yul\":7924:7933   */\n      dup4\n        /* \"#utility.yul\":7920:7937   */\n      add\n        /* \"#utility.yul\":7911:7917   */\n      dup6\n        /* \"#utility.yul\":7867:7938   */\n      tag_295\n      jump\t// in\n    tag_391:\n        /* \"#utility.yul\":7948:8020   */\n      tag_392\n        /* \"#utility.yul\":8016:8018   */\n      0x20\n        /* \"#utility.yul\":8005:8014   */\n      dup4\n        /* \"#utility.yul\":8001:8019   */\n      add\n        /* \"#utility.yul\":7992:7998   */\n      dup5\n        /* \"#utility.yul\":7948:8020   */\n      tag_292\n      jump\t// in\n    tag_392:\n        /* \"#utility.yul\":7695:8027   */\n      swap4\n      swap3\n      pop\n      pop\n      pop\n      jump\t// out\n        /* \"#utility.yul\":8033:8123   */\n    tag_303:\n        /* \"#utility.yul\":8067:8074   */\n      0x00\n        /* \"#utility.yul\":8110:8115   */\n      dup2\n        /* \"#utility.yul\":8103:8116   */\n      iszero\n        /* \"#utility.yul\":8096:8117   */\n      iszero\n        /* \"#utility.yul\":8085:8117   */\n      swap1\n      pop\n        /* \"#utility.yul\":8033:8123   */\n      swap2\n      swap1\n      pop\n      jump\t// out\n        /* \"#utility.yul\":8129:8245   */\n    tag_304:\n        /* \"#utility.yul\":8199:8220   */\n      tag_395\n        /* \"#utility.yul\":8214:8219   */\n      dup2\n        /* \"#utility.yul\":8199:8220   */\n      tag_303\n      jump\t// in\n    tag_395:\n        /* \"#utility.yul\":8192:8197   */\n      dup2\n        /* \"#utility.yul\":8189:8221   */\n      eq\n        /* \"#utility.yul\":8179:8239   */\n      tag_396\n      jumpi\n        /* \"#utility.yul\":8235:8236   */\n      0x00\n        /* \"#utility.yul\":8232:8233   */\n      dup1\n        /* \"#utility.yul\":8225:8237   */\n      revert\n        /* \"#utility.yul\":8179:8239   */\n    tag_396:\n        /* \"#utility.yul\":8129:8245   */\n      pop\n      jump\t// out\n        /* \"#utility.yul\":8251:8388   */\n    tag_305:\n        /* \"#utility.yul\":8305:8310   */\n      0x00\n        /* \"#utility.yul\":8336:8342   */\n      dup2\n        /* \"#utility.yul\":8330:8343   */\n      mload\n        /* \"#utility.yul\":8321:8343   */\n      swap1\n      pop\n        /* \"#utility.yul\":8352:8382   */\n      tag_398\n        /* \"#utility.yul\":8376:8381   */\n      dup2\n        /* \"#utility.yul\":8352:8382   */\n      tag_304\n      jump\t// in\n    tag_398:\n        /* \"#utility.yul\":8251:8388   */\n      swap3\n      swap2\n      pop\n      pop\n      jump\t// out\n        /* \"#utility.yul\":8394:8739   */\n    tag_118:\n        /* \"#utility.yul\":8461:8467   */\n      0x00\n        /* \"#utility.yul\":8510:8512   */\n      0x20\n        /* \"#utility.yul\":8498:8507   */\n      dup3\n        /* \"#utility.yul\":8489:8496   */\n      dup5\n        /* \"#utility.yul\":8485:8508   */\n      sub\n        /* \"#utility.yul\":8481:8513   */\n      slt\n        /* \"#utility.yul\":8478:8597   */\n      iszero\n      tag_400\n      jumpi\n        /* \"#utility.yul\":8516:8595   */\n      tag_401\n      tag_283\n      jump\t// in\n    tag_401:\n        /* \"#utility.yul\":8478:8597   */\n    tag_400:\n        /* \"#utility.yul\":8636:8637   */\n      0x00\n        /* \"#utility.yul\":8661:8722   */\n      tag_402\n        /* \"#utility.yul\":8714:8721   */\n      dup5\n        /* \"#utility.yul\":8705:8711   */\n      dup3\n        /* \"#utility.yul\":8694:8703   */\n      dup6\n        /* \"#utility.yul\":8690:8712   */\n      add\n        /* \"#utility.yul\":8661:8722   */\n      tag_305\n      jump\t// in\n    tag_402:\n        /* \"#utility.yul\":8651:8722   */\n      swap2\n      pop\n        /* \"#utility.yul\":8607:8732   */\n      pop\n        /* \"#utility.yul\":8394:8739   */\n      swap3\n      swap2\n      pop\n      pop\n      jump\t// out\n        /* \"#utility.yul\":8745:9050   */\n    tag_163:\n        /* \"#utility.yul\":8785:8788   */\n      0x00\n        /* \"#utility.yul\":8804:8824   */\n      tag_404\n        /* \"#utility.yul\":8822:8823   */\n      dup3\n        /* \"#utility.yul\":8804:8824   */\n      tag_285\n      jump\t// in\n    tag_404:\n        /* \"#utility.yul\":8799:8824   */\n      swap2\n      pop\n        /* \"#utility.yul\":8838:8858   */\n      tag_405\n        /* \"#utility.yul\":8856:8857   */\n      dup4\n        /* \"#utility.yul\":8838:8858   */\n      tag_285\n      jump\t// in\n    tag_405:\n        /* \"#utility.yul\":8833:8858   */\n      swap3\n      pop\n        /* \"#utility.yul\":8992:8993   */\n      dup3\n        /* \"#utility.yul\":8924:8990   */\n      0xffffffffffffffffffffffffffffffffffffffffffffffffffffffffffffffff\n        /* \"#utility.yul\":8920:8994   */\n      sub\n        /* \"#utility.yul\":8917:8918   */\n      dup3\n        /* \"#utility.yul\":8914:8995   */\n      gt\n        /* \"#utility.yul\":8911:9018   */\n      iszero\n      tag_406\n      jumpi\n        /* \"#utility.yul\":8998:9016   */\n      tag_407\n      tag_293\n      jump\t// in\n    tag_407:\n        /* \"#utility.yul\":8911:9018   */\n    tag_406:\n        /* \"#utility.yul\":9042:9043   */\n      dup3\n        /* \"#utility.yul\":9039:9040   */\n      dup3\n        /* \"#utility.yul\":9035:9044   */\n      add\n        /* \"#utility.yul\":9028:9044   */\n      swap1\n      pop\n        /* \"#utility.yul\":8745:9050   */\n      swap3\n      swap2\n      pop\n      pop\n      jump\t// out\n        /* \"#utility.yul\":9056:9498   */\n    tag_214:\n        /* \"#utility.yul\":9205:9209   */\n      0x00\n        /* \"#utility.yul\":9243:9245   */\n      0x60\n        /* \"#utility.yul\":9232:9241   */\n      dup3\n        /* \"#utility.yul\":9228:9246   */\n      add\n        /* \"#utility.yul\":9220:9246   */\n      swap1\n      pop\n        /* \"#utility.yul\":9256:9327   */\n      tag_409\n        /* \"#utility.yul\":9324:9325   */\n      0x00\n        /* \"#utility.yul\":9313:9322   */\n      dup4\n        /* \"#utility.yul\":9309:9326   */\n      add\n        /* \"#utility.yul\":9300:9306   */\n      dup7\n        /* \"#utility.yul\":9256:9327   */\n      tag_295\n      jump\t// in\n    tag_409:\n        /* \"#utility.yul\":9337:9409   */\n      tag_410\n        /* \"#utility.yul\":9405:9407   */\n      0x20\n        /* \"#utility.yul\":9394:9403   */\n      dup4\n        /* \"#utility.yul\":9390:9408   */\n      add\n        /* \"#utility.yul\":9381:9387   */\n      dup6\n        /* \"#utility.yul\":9337:9409   */\n      tag_295\n      jump\t// in\n    tag_410:\n        /* \"#utility.yul\":9419:9491   */\n      tag_411\n        /* \"#utility.yul\":9487:9489   */\n      0x40\n        /* \"#utility.yul\":9476:9485   */\n      dup4\n        /* \"#utility.yul\":9472:9490   */\n      add\n        /* \"#utility.yul\":9463:9469   */\n      dup5\n        /* \"#utility.yul\":9419:9491   */\n      tag_292\n      jump\t// in\n    tag_411:\n        /* \"#utility.yul\":9056:9498   */\n      swap5\n      swap4\n      pop\n      pop\n      pop\n      pop\n      jump\t// out\n\n    auxdata: 0xa264697066735822122094ddd7bba938def409a79ee546279c73c1b71bc38c24baa2b4cd9f6f324ae00764736f6c634300080f0033\n}\n",
				"bytecode": {
					"linkReferences": {},
					"object": "608060405234801561001057600080fd5b50611e48806100206000396000f3fe6080604052600436106100f25760003560e01c80637937c03d1161008a578063cd6dc68711610059578063cd6dc68714610323578063d0e30db01461033f578063debc674c14610349578063f340fa0114610372576100f2565b80637937c03d1461029557806382b2e2571461029f578063a5b8b16f146102ca578063b8c876b1146102e6576100f2565b806331f3bd28116100c657806331f3bd28146101b25780635f244d4e146101dd57806367da263d1461021b57806372a9d12414610258576100f2565b8062f714ce146100f757806312065fe0146101205780631eb928aa1461014b5780632e1a7d4d14610189575b600080fd5b34801561010357600080fd5b5061011e6004803603810190610119919061197e565b61038e565b005b34801561012c57600080fd5b50610135610663565b60405161014291906119cd565b60405180910390f35b34801561015757600080fd5b50610172600480360381019061016d91906119e8565b61066b565b604051610180929190611a15565b60405180910390f35b34801561019557600080fd5b506101b060048036038101906101ab91906119e8565b610761565b005b3480156101be57600080fd5b506101c7610a35565b6040516101d491906119cd565b60405180910390f35b3480156101e957600080fd5b5061020460048036038101906101ff91906119e8565b610a3b565b604051610212929190611a15565b60405180910390f35b34801561022757600080fd5b50610242600480360381019061023d91906119e8565b610b28565b60405161024f91906119cd565b60405180910390f35b34801561026457600080fd5b5061027f600480360381019061027a91906119e8565b610bd5565b60405161028c91906119cd565b60405180910390f35b61029d610c8d565b005b3480156102ab57600080fd5b506102b4610e21565b6040516102c191906119cd565b60405180910390f35b6102e460048036038101906102df9190611a3e565b610ec3565b005b3480156102f257600080fd5b5061030d60048036038101906103089190611a3e565b611058565b60405161031a91906119cd565b60405180910390f35b61033d60048036038101906103389190611a6b565b611070565b005b6103476111f2565b005b34801561035557600080fd5b50610370600480360381019061036b91906119e8565b611438565b005b61038c60048036038101906103879190611a3e565b611671565b005b6000600154478461039f9190611ada565b6103a99190611b63565b9050600060015460008054906101000a900473ffffffffffffffffffffffffffffffffffffffff1673ffffffffffffffffffffffffffffffffffffffff166370a08231306040518263ffffffff1660e01b81526004016104099190611ba3565b602060405180830381865afa158015610426573d6000803e3d6000fd5b505050506040513d601f19601f8201168201806040525081019061044a9190611bd3565b856104559190611ada565b61045f9190611b63565b905081600260008573ffffffffffffffffffffffffffffffffffffffff1673ffffffffffffffffffffffffffffffffffffffff16815260200190815260200160002060008282546104b09190611c00565b9250508190555081600160008282546104c99190611c00565b9250508190555060008373ffffffffffffffffffffffffffffffffffffffff16836040516104f690611c65565b60006040518083038185875af1925050503d8060008114610533576040519150601f19603f3d011682016040523d82523d6000602084013e610538565b606091505b505090508061057c576040517f08c379a000000000000000000000000000000000000000000000000000000000815260040161057390611cd7565b60405180910390fd5b60008054906101000a900473ffffffffffffffffffffffffffffffffffffffff1673ffffffffffffffffffffffffffffffffffffffff1663a9059cbb85846040518363ffffffff1660e01b81526004016105d7929190611cf7565b6020604051808303816000875af11580156105f6573d6000803e3d6000fd5b505050506040513d601f19601f8201168201806040525081019061061a9190611d58565b61062357600080fd5b7f56ca301a9219608c91e7bcee90e083c19671d2cdcc96752c7af291cee5f9c8c88383604051610654929190611a15565b60405180910390a15050505050565b600047905090565b6000806000600154478561067f9190611ada565b6106899190611b63565b9050600060015460008054906101000a900473ffffffffffffffffffffffffffffffffffffffff1673ffffffffffffffffffffffffffffffffffffffff166370a08231306040518263ffffffff1660e01b81526004016106e99190611ba3565b602060405180830381865afa158015610706573d6000803e3d6000fd5b505050506040513d601f19601f8201168201806040525081019061072a9190611bd3565b866107359190611ada565b61073f9190611b63565b90506000826001546107519190611c00565b9050818194509450505050915091565b600060015447836107729190611ada565b61077c9190611b63565b9050600060015460008054906101000a900473ffffffffffffffffffffffffffffffffffffffff1673ffffffffffffffffffffffffffffffffffffffff166370a08231306040518263ffffffff1660e01b81526004016107dc9190611ba3565b602060405180830381865afa1580156107f9573d6000803e3d6000fd5b505050506040513d601f19601f8201168201806040525081019061081d9190611bd3565b846108289190611ada565b6108329190611b63565b905081600260003373ffffffffffffffffffffffffffffffffffffffff1673ffffffffffffffffffffffffffffffffffffffff16815260200190815260200160002060008282546108839190611c00565b92505081905550816001600082825461089c9190611c00565b9250508190555060003373ffffffffffffffffffffffffffffffffffffffff16836040516108c990611c65565b60006040518083038185875af1925050503d8060008114610906576040519150601f19603f3d011682016040523d82523d6000602084013e61090b565b606091505b505090508061094f576040517f08c379a000000000000000000000000000000000000000000000000000000000815260040161094690611cd7565b60405180910390fd5b60008054906101000a900473ffffffffffffffffffffffffffffffffffffffff1673ffffffffffffffffffffffffffffffffffffffff1663a9059cbb33846040518363ffffffff1660e01b81526004016109aa929190611cf7565b6020604051808303816000875af11580156109c9573d6000803e3d6000fd5b505050506040513d601f19601f820116820180604052508101906109ed9190611d58565b6109f657600080fd5b7f56ca301a9219608c91e7bcee90e083c19671d2cdcc96752c7af291cee5f9c8c88383604051610a27929190611a15565b60405180910390a150505050565b60015481565b600080600060014760008054906101000a900473ffffffffffffffffffffffffffffffffffffffff1673ffffffffffffffffffffffffffffffffffffffff166370a08231306040518263ffffffff1660e01b8152600401610a9c9190611ba3565b602060405180830381865afa158015610ab9573d6000803e3d6000fd5b505050506040513d601f19601f82011682018060405250810190610add9190611bd3565b86610ae89190611ada565b610af29190611b63565b610afc9190611d85565b905060004760015486610b0f9190611ada565b610b199190611b63565b90508181935093505050915091565b6000610bce8260008054906101000a900473ffffffffffffffffffffffffffffffffffffffff1673ffffffffffffffffffffffffffffffffffffffff166370a08231306040518263ffffffff1660e01b8152600401610b879190611ba3565b602060405180830381865afa158015610ba4573d6000803e3d6000fd5b505050506040513d601f19601f82011682018060405250810190610bc89190611bd3565b476118b8565b9050919050565b6000610c86828347610be79190611c00565b60008054906101000a900473ffffffffffffffffffffffffffffffffffffffff1673ffffffffffffffffffffffffffffffffffffffff166370a08231306040518263ffffffff1660e01b8152600401610c409190611ba3565b602060405180830381865afa158015610c5d573d6000803e3d6000fd5b505050506040513d601f19601f82011682018060405250810190610c819190611bd3565b6118b8565b9050919050565b6000610d3e343447610c9f9190611c00565b60008054906101000a900473ffffffffffffffffffffffffffffffffffffffff1673ffffffffffffffffffffffffffffffffffffffff166370a08231306040518263ffffffff1660e01b8152600401610cf89190611ba3565b602060405180830381865afa158015610d15573d6000803e3d6000fd5b505050506040513d601f19601f82011682018060405250810190610d399190611bd3565b6118b8565b905060008054906101000a900473ffffffffffffffffffffffffffffffffffffffff1673ffffffffffffffffffffffffffffffffffffffff1663a9059cbb33836040518363ffffffff1660e01b8152600401610d9b929190611cf7565b6020604051808303816000875af1158015610dba573d6000803e3d6000fd5b505050506040513d601f19601f82011682018060405250810190610dde9190611d58565b610de757600080fd5b7fdb04c7a6d4758fd55d738ebc67e7f3010ac922be00771ef29521a4090d1eb13f81604051610e1691906119cd565b60405180910390a150565b60008060009054906101000a900473ffffffffffffffffffffffffffffffffffffffff1673ffffffffffffffffffffffffffffffffffffffff166370a08231306040518263ffffffff1660e01b8152600401610e7d9190611ba3565b602060405180830381865afa158015610e9a573d6000803e3d6000fd5b505050506040513d601f19601f82011682018060405250810190610ebe9190611bd3565b905090565b6000610f74343447610ed59190611c00565b60008054906101000a900473ffffffffffffffffffffffffffffffffffffffff1673ffffffffffffffffffffffffffffffffffffffff166370a08231306040518263ffffffff1660e01b8152600401610f2e9190611ba3565b602060405180830381865afa158015610f4b573d6000803e3d6000fd5b505050506040513d601f19601f82011682018060405250810190610f6f9190611bd3565b6118b8565b905060008054906101000a900473ffffffffffffffffffffffffffffffffffffffff1673ffffffffffffffffffffffffffffffffffffffff1663a9059cbb83836040518363ffffffff1660e01b8152600401610fd1929190611cf7565b6020604051808303816000875af1158015610ff0573d6000803e3d6000fd5b505050506040513d601f19601f820116820180604052508101906110149190611d58565b61101d57600080fd5b7fdb04c7a6d4758fd55d738ebc67e7f3010ac922be00771ef29521a4090d1eb13f8160405161104c91906119cd565b60405180910390a15050565b60026020528060005260406000206000915090505481565b60006001541461107f57600080fd5b816000806101000a81548173ffffffffffffffffffffffffffffffffffffffff021916908373ffffffffffffffffffffffffffffffffffffffff16021790555047600181905550600154600260003373ffffffffffffffffffffffffffffffffffffffff1673ffffffffffffffffffffffffffffffffffffffff1681526020019081526020016000208190555060008054906101000a900473ffffffffffffffffffffffffffffffffffffffff1673ffffffffffffffffffffffffffffffffffffffff166323b872dd3330846040518463ffffffff1660e01b815260040161116993929190611ddb565b6020604051808303816000875af1158015611188573d6000803e3d6000fd5b505050506040513d601f19601f820116820180604052508101906111ac9190611d58565b6111b557600080fd5b7fc43e48cf47e9fa186d0f4096c61d1fcb54159799f935a2aa32e5589688ee36e16001546040516111e691906119cd565b60405180910390a15050565b6000600134476112029190611c00565b60008054906101000a900473ffffffffffffffffffffffffffffffffffffffff1673ffffffffffffffffffffffffffffffffffffffff166370a08231306040518263ffffffff1660e01b815260040161125b9190611ba3565b602060405180830381865afa158015611278573d6000803e3d6000fd5b505050506040513d601f19601f8201168201806040525081019061129c9190611bd3565b346112a79190611ada565b6112b19190611b63565b6112bb9190611d85565b9050600034476112cb9190611c00565b600154346112d99190611ada565b6112e39190611b63565b905080600260003373ffffffffffffffffffffffffffffffffffffffff1673ffffffffffffffffffffffffffffffffffffffff16815260200190815260200160002060008282546113349190611d85565b92505081905550806001600082825461134d9190611d85565b9250508190555060008054906101000a900473ffffffffffffffffffffffffffffffffffffffff1673ffffffffffffffffffffffffffffffffffffffff166323b872dd3330856040518463ffffffff1660e01b81526004016113b193929190611ddb565b6020604051808303816000875af11580156113d0573d6000803e3d6000fd5b505050506040513d601f19601f820116820180604052508101906113f49190611d58565b6113fd57600080fd5b7f4d6ce1e535dbade1c23defba91e23b8f791ce5edc0cc320257a2b364e4e384268160405161142c91906119cd565b60405180910390a15050565b60006114de8260008054906101000a900473ffffffffffffffffffffffffffffffffffffffff1673ffffffffffffffffffffffffffffffffffffffff166370a08231306040518263ffffffff1660e01b81526004016114979190611ba3565b602060405180830381865afa1580156114b4573d6000803e3d6000fd5b505050506040513d601f19601f820116820180604052508101906114d89190611bd3565b476118b8565b905060003373ffffffffffffffffffffffffffffffffffffffff168260405161150690611c65565b60006040518083038185875af1925050503d8060008114611543576040519150601f19603f3d011682016040523d82523d6000602084013e611548565b606091505b505090508061158c576040517f08c379a000000000000000000000000000000000000000000000000000000000815260040161158390611cd7565b60405180910390fd5b60008054906101000a900473ffffffffffffffffffffffffffffffffffffffff1673ffffffffffffffffffffffffffffffffffffffff166323b872dd3330866040518463ffffffff1660e01b81526004016115e993929190611ddb565b6020604051808303816000875af1158015611608573d6000803e3d6000fd5b505050506040513d601f19601f8201168201806040525081019061162c9190611d58565b61163557600080fd5b7f4dbf3a71a7c7262f432c2cad7808225832255d07f7d8ab85117677c0b5c0a8508260405161166491906119cd565b60405180910390a1505050565b6000600134476116819190611c00565b60008054906101000a900473ffffffffffffffffffffffffffffffffffffffff1673ffffffffffffffffffffffffffffffffffffffff166370a08231306040518263ffffffff1660e01b81526004016116da9190611ba3565b602060405180830381865afa1580156116f7573d6000803e3d6000fd5b505050506040513d601f19601f8201168201806040525081019061171b9190611bd3565b346117269190611ada565b6117309190611b63565b61173a9190611d85565b90506000344761174a9190611c00565b600154346117589190611ada565b6117629190611b63565b905080600260008573ffffffffffffffffffffffffffffffffffffffff1673ffffffffffffffffffffffffffffffffffffffff16815260200190815260200160002060008282546117b39190611d85565b9250508190555080600160008282546117cc9190611d85565b9250508190555060008054906101000a900473ffffffffffffffffffffffffffffffffffffffff1673ffffffffffffffffffffffffffffffffffffffff166323b872dd8430856040518463ffffffff1660e01b815260040161183093929190611ddb565b6020604051808303816000875af115801561184f573d6000803e3d6000fd5b505050506040513d601f19601f820116820180604052508101906118739190611d58565b61187c57600080fd5b7f4d6ce1e535dbade1c23defba91e23b8f791ce5edc0cc320257a2b364e4e38426816040516118ab91906119cd565b60405180910390a1505050565b600083836118c69190611d85565b82856118d29190611ada565b6118dc9190611b63565b90509392505050565b600080fd5b6000819050919050565b6118fd816118ea565b811461190857600080fd5b50565b60008135905061191a816118f4565b92915050565b600073ffffffffffffffffffffffffffffffffffffffff82169050919050565b600061194b82611920565b9050919050565b61195b81611940565b811461196657600080fd5b50565b60008135905061197881611952565b92915050565b60008060408385031215611995576119946118e5565b5b60006119a38582860161190b565b92505060206119b485828601611969565b9150509250929050565b6119c7816118ea565b82525050565b60006020820190506119e260008301846119be565b92915050565b6000602082840312156119fe576119fd6118e5565b5b6000611a0c8482850161190b565b91505092915050565b6000604082019050611a2a60008301856119be565b611a3760208301846119be565b9392505050565b600060208284031215611a5457611a536118e5565b5b6000611a6284828501611969565b91505092915050565b60008060408385031215611a8257611a816118e5565b5b6000611a9085828601611969565b9250506020611aa18582860161190b565b9150509250929050565b7f4e487b7100000000000000000000000000000000000000000000000000000000600052601160045260246000fd5b6000611ae5826118ea565b9150611af0836118ea565b9250817fffffffffffffffffffffffffffffffffffffffffffffffffffffffffffffffff0483118215151615611b2957611b28611aab565b5b828202905092915050565b7f4e487b7100000000000000000000000000000000000000000000000000000000600052601260045260246000fd5b6000611b6e826118ea565b9150611b79836118ea565b925082611b8957611b88611b34565b5b828204905092915050565b611b9d81611940565b82525050565b6000602082019050611bb86000830184611b94565b92915050565b600081519050611bcd816118f4565b92915050565b600060208284031215611be957611be86118e5565b5b6000611bf784828501611bbe565b91505092915050565b6000611c0b826118ea565b9150611c16836118ea565b925082821015611c2957611c28611aab565b5b828203905092915050565b600081905092915050565b50565b6000611c4f600083611c34565b9150611c5a82611c3f565b600082019050919050565b6000611c7082611c42565b9150819050919050565b600082825260208201905092915050565b7f5472616e73666572206661696c65642e00000000000000000000000000000000600082015250565b6000611cc1601083611c7a565b9150611ccc82611c8b565b602082019050919050565b60006020820190508181036000830152611cf081611cb4565b9050919050565b6000604082019050611d0c6000830185611b94565b611d1960208301846119be565b9392505050565b60008115159050919050565b611d3581611d20565b8114611d4057600080fd5b50565b600081519050611d5281611d2c565b92915050565b600060208284031215611d6e57611d6d6118e5565b5b6000611d7c84828501611d43565b91505092915050565b6000611d90826118ea565b9150611d9b836118ea565b9250827fffffffffffffffffffffffffffffffffffffffffffffffffffffffffffffffff03821115611dd057611dcf611aab565b5b828201905092915050565b6000606082019050611df06000830186611b94565b611dfd6020830185611b94565b611e0a60408301846119be565b94935050505056fea264697066735822122094ddd7bba938def409a79ee546279c73c1b71bc38c24baa2b4cd9f6f324ae00764736f6c634300080f0033",
					"opcodes": "PUSH1 0x80 PUSH1 0x40 MSTORE CALLVALUE DUP1 ISZERO PUSH2 0x10 JUMPI PUSH1 0x0 DUP1 REVERT JUMPDEST POP PUSH2 0x1E48 DUP1 PUSH2 0x20 PUSH1 0x0 CODECOPY PUSH1 0x0 RETURN INVALID PUSH1 0x80 PUSH1 0x40 MSTORE PUSH1 0x4 CALLDATASIZE LT PUSH2 0xF2 JUMPI PUSH1 0x0 CALLDATALOAD PUSH1 0xE0 SHR DUP1 PUSH4 0x7937C03D GT PUSH2 0x8A JUMPI DUP1 PUSH4 0xCD6DC687 GT PUSH2 0x59 JUMPI DUP1 PUSH4 0xCD6DC687 EQ PUSH2 0x323 JUMPI DUP1 PUSH4 0xD0E30DB0 EQ PUSH2 0x33F JUMPI DUP1 PUSH4 0xDEBC674C EQ PUSH2 0x349 JUMPI DUP1 PUSH4 0xF340FA01 EQ PUSH2 0x372 JUMPI PUSH2 0xF2 JUMP JUMPDEST DUP1 PUSH4 0x7937C03D EQ PUSH2 0x295 JUMPI DUP1 PUSH4 0x82B2E257 EQ PUSH2 0x29F JUMPI DUP1 PUSH4 0xA5B8B16F EQ PUSH2 0x2CA JUMPI DUP1 PUSH4 0xB8C876B1 EQ PUSH2 0x2E6 JUMPI PUSH2 0xF2 JUMP JUMPDEST DUP1 PUSH4 0x31F3BD28 GT PUSH2 0xC6 JUMPI DUP1 PUSH4 0x31F3BD28 EQ PUSH2 0x1B2 JUMPI DUP1 PUSH4 0x5F244D4E EQ PUSH2 0x1DD JUMPI DUP1 PUSH4 0x67DA263D EQ PUSH2 0x21B JUMPI DUP1 PUSH4 0x72A9D124 EQ PUSH2 0x258 JUMPI PUSH2 0xF2 JUMP JUMPDEST DUP1 PUSH3 0xF714CE EQ PUSH2 0xF7 JUMPI DUP1 PUSH4 0x12065FE0 EQ PUSH2 0x120 JUMPI DUP1 PUSH4 0x1EB928AA EQ PUSH2 0x14B JUMPI DUP1 PUSH4 0x2E1A7D4D EQ PUSH2 0x189 JUMPI JUMPDEST PUSH1 0x0 DUP1 REVERT JUMPDEST CALLVALUE DUP1 ISZERO PUSH2 0x103 JUMPI PUSH1 0x0 DUP1 REVERT JUMPDEST POP PUSH2 0x11E PUSH1 0x4 DUP1 CALLDATASIZE SUB DUP2 ADD SWAP1 PUSH2 0x119 SWAP2 SWAP1 PUSH2 0x197E JUMP JUMPDEST PUSH2 0x38E JUMP JUMPDEST STOP JUMPDEST CALLVALUE DUP1 ISZERO PUSH2 0x12C JUMPI PUSH1 0x0 DUP1 REVERT JUMPDEST POP PUSH2 0x135 PUSH2 0x663 JUMP JUMPDEST PUSH1 0x40 MLOAD PUSH2 0x142 SWAP2 SWAP1 PUSH2 0x19CD JUMP JUMPDEST PUSH1 0x40 MLOAD DUP1 SWAP2 SUB SWAP1 RETURN JUMPDEST CALLVALUE DUP1 ISZERO PUSH2 0x157 JUMPI PUSH1 0x0 DUP1 REVERT JUMPDEST POP PUSH2 0x172 PUSH1 0x4 DUP1 CALLDATASIZE SUB DUP2 ADD SWAP1 PUSH2 0x16D SWAP2 SWAP1 PUSH2 0x19E8 JUMP JUMPDEST PUSH2 0x66B JUMP JUMPDEST PUSH1 0x40 MLOAD PUSH2 0x180 SWAP3 SWAP2 SWAP1 PUSH2 0x1A15 JUMP JUMPDEST PUSH1 0x40 MLOAD DUP1 SWAP2 SUB SWAP1 RETURN JUMPDEST CALLVALUE DUP1 ISZERO PUSH2 0x195 JUMPI PUSH1 0x0 DUP1 REVERT JUMPDEST POP PUSH2 0x1B0 PUSH1 0x4 DUP1 CALLDATASIZE SUB DUP2 ADD SWAP1 PUSH2 0x1AB SWAP2 SWAP1 PUSH2 0x19E8 JUMP JUMPDEST PUSH2 0x761 JUMP JUMPDEST STOP JUMPDEST CALLVALUE DUP1 ISZERO PUSH2 0x1BE JUMPI PUSH1 0x0 DUP1 REVERT JUMPDEST POP PUSH2 0x1C7 PUSH2 0xA35 JUMP JUMPDEST PUSH1 0x40 MLOAD PUSH2 0x1D4 SWAP2 SWAP1 PUSH2 0x19CD JUMP JUMPDEST PUSH1 0x40 MLOAD DUP1 SWAP2 SUB SWAP1 RETURN JUMPDEST CALLVALUE DUP1 ISZERO PUSH2 0x1E9 JUMPI PUSH1 0x0 DUP1 REVERT JUMPDEST POP PUSH2 0x204 PUSH1 0x4 DUP1 CALLDATASIZE SUB DUP2 ADD SWAP1 PUSH2 0x1FF SWAP2 SWAP1 PUSH2 0x19E8 JUMP JUMPDEST PUSH2 0xA3B JUMP JUMPDEST PUSH1 0x40 MLOAD PUSH2 0x212 SWAP3 SWAP2 SWAP1 PUSH2 0x1A15 JUMP JUMPDEST PUSH1 0x40 MLOAD DUP1 SWAP2 SUB SWAP1 RETURN JUMPDEST CALLVALUE DUP1 ISZERO PUSH2 0x227 JUMPI PUSH1 0x0 DUP1 REVERT JUMPDEST POP PUSH2 0x242 PUSH1 0x4 DUP1 CALLDATASIZE SUB DUP2 ADD SWAP1 PUSH2 0x23D SWAP2 SWAP1 PUSH2 0x19E8 JUMP JUMPDEST PUSH2 0xB28 JUMP JUMPDEST PUSH1 0x40 MLOAD PUSH2 0x24F SWAP2 SWAP1 PUSH2 0x19CD JUMP JUMPDEST PUSH1 0x40 MLOAD DUP1 SWAP2 SUB SWAP1 RETURN JUMPDEST CALLVALUE DUP1 ISZERO PUSH2 0x264 JUMPI PUSH1 0x0 DUP1 REVERT JUMPDEST POP PUSH2 0x27F PUSH1 0x4 DUP1 CALLDATASIZE SUB DUP2 ADD SWAP1 PUSH2 0x27A SWAP2 SWAP1 PUSH2 0x19E8 JUMP JUMPDEST PUSH2 0xBD5 JUMP JUMPDEST PUSH1 0x40 MLOAD PUSH2 0x28C SWAP2 SWAP1 PUSH2 0x19CD JUMP JUMPDEST PUSH1 0x40 MLOAD DUP1 SWAP2 SUB SWAP1 RETURN JUMPDEST PUSH2 0x29D PUSH2 0xC8D JUMP JUMPDEST STOP JUMPDEST CALLVALUE DUP1 ISZERO PUSH2 0x2AB JUMPI PUSH1 0x0 DUP1 REVERT JUMPDEST POP PUSH2 0x2B4 PUSH2 0xE21 JUMP JUMPDEST PUSH1 0x40 MLOAD PUSH2 0x2C1 SWAP2 SWAP1 PUSH2 0x19CD JUMP JUMPDEST PUSH1 0x40 MLOAD DUP1 SWAP2 SUB SWAP1 RETURN JUMPDEST PUSH2 0x2E4 PUSH1 0x4 DUP1 CALLDATASIZE SUB DUP2 ADD SWAP1 PUSH2 0x2DF SWAP2 SWAP1 PUSH2 0x1A3E JUMP JUMPDEST PUSH2 0xEC3 JUMP JUMPDEST STOP JUMPDEST CALLVALUE DUP1 ISZERO PUSH2 0x2F2 JUMPI PUSH1 0x0 DUP1 REVERT JUMPDEST POP PUSH2 0x30D PUSH1 0x4 DUP1 CALLDATASIZE SUB DUP2 ADD SWAP1 PUSH2 0x308 SWAP2 SWAP1 PUSH2 0x1A3E JUMP JUMPDEST PUSH2 0x1058 JUMP JUMPDEST PUSH1 0x40 MLOAD PUSH2 0x31A SWAP2 SWAP1 PUSH2 0x19CD JUMP JUMPDEST PUSH1 0x40 MLOAD DUP1 SWAP2 SUB SWAP1 RETURN JUMPDEST PUSH2 0x33D PUSH1 0x4 DUP1 CALLDATASIZE SUB DUP2 ADD SWAP1 PUSH2 0x338 SWAP2 SWAP1 PUSH2 0x1A6B JUMP JUMPDEST PUSH2 0x1070 JUMP JUMPDEST STOP JUMPDEST PUSH2 0x347 PUSH2 0x11F2 JUMP JUMPDEST STOP JUMPDEST CALLVALUE DUP1 ISZERO PUSH2 0x355 JUMPI PUSH1 0x0 DUP1 REVERT JUMPDEST POP PUSH2 0x370 PUSH1 0x4 DUP1 CALLDATASIZE SUB DUP2 ADD SWAP1 PUSH2 0x36B SWAP2 SWAP1 PUSH2 0x19E8 JUMP JUMPDEST PUSH2 0x1438 JUMP JUMPDEST STOP JUMPDEST PUSH2 0x38C PUSH1 0x4 DUP1 CALLDATASIZE SUB DUP2 ADD SWAP1 PUSH2 0x387 SWAP2 SWAP1 PUSH2 0x1A3E JUMP JUMPDEST PUSH2 0x1671 JUMP JUMPDEST STOP JUMPDEST PUSH1 0x0 PUSH1 0x1 SLOAD SELFBALANCE DUP5 PUSH2 0x39F SWAP2 SWAP1 PUSH2 0x1ADA JUMP JUMPDEST PUSH2 0x3A9 SWAP2 SWAP1 PUSH2 0x1B63 JUMP JUMPDEST SWAP1 POP PUSH1 0x0 PUSH1 0x1 SLOAD PUSH1 0x0 DUP1 SLOAD SWAP1 PUSH2 0x100 EXP SWAP1 DIV PUSH20 0xFFFFFFFFFFFFFFFFFFFFFFFFFFFFFFFFFFFFFFFF AND PUSH20 0xFFFFFFFFFFFFFFFFFFFFFFFFFFFFFFFFFFFFFFFF AND PUSH4 0x70A08231 ADDRESS PUSH1 0x40 MLOAD DUP3 PUSH4 0xFFFFFFFF AND PUSH1 0xE0 SHL DUP2 MSTORE PUSH1 0x4 ADD PUSH2 0x409 SWAP2 SWAP1 PUSH2 0x1BA3 JUMP JUMPDEST PUSH1 0x20 PUSH1 0x40 MLOAD DUP1 DUP4 SUB DUP2 DUP7 GAS STATICCALL ISZERO DUP1 ISZERO PUSH2 0x426 JUMPI RETURNDATASIZE PUSH1 0x0 DUP1 RETURNDATACOPY RETURNDATASIZE PUSH1 0x0 REVERT JUMPDEST POP POP POP POP PUSH1 0x40 MLOAD RETURNDATASIZE PUSH1 0x1F NOT PUSH1 0x1F DUP3 ADD AND DUP3 ADD DUP1 PUSH1 0x40 MSTORE POP DUP2 ADD SWAP1 PUSH2 0x44A SWAP2 SWAP1 PUSH2 0x1BD3 JUMP JUMPDEST DUP6 PUSH2 0x455 SWAP2 SWAP1 PUSH2 0x1ADA JUMP JUMPDEST PUSH2 0x45F SWAP2 SWAP1 PUSH2 0x1B63 JUMP JUMPDEST SWAP1 POP DUP2 PUSH1 0x2 PUSH1 0x0 DUP6 PUSH20 0xFFFFFFFFFFFFFFFFFFFFFFFFFFFFFFFFFFFFFFFF AND PUSH20 0xFFFFFFFFFFFFFFFFFFFFFFFFFFFFFFFFFFFFFFFF AND DUP2 MSTORE PUSH1 0x20 ADD SWAP1 DUP2 MSTORE PUSH1 0x20 ADD PUSH1 0x0 KECCAK256 PUSH1 0x0 DUP3 DUP3 SLOAD PUSH2 0x4B0 SWAP2 SWAP1 PUSH2 0x1C00 JUMP JUMPDEST SWAP3 POP POP DUP2 SWAP1 SSTORE POP DUP2 PUSH1 0x1 PUSH1 0x0 DUP3 DUP3 SLOAD PUSH2 0x4C9 SWAP2 SWAP1 PUSH2 0x1C00 JUMP JUMPDEST SWAP3 POP POP DUP2 SWAP1 SSTORE POP PUSH1 0x0 DUP4 PUSH20 0xFFFFFFFFFFFFFFFFFFFFFFFFFFFFFFFFFFFFFFFF AND DUP4 PUSH1 0x40 MLOAD PUSH2 0x4F6 SWAP1 PUSH2 0x1C65 JUMP JUMPDEST PUSH1 0x0 PUSH1 0x40 MLOAD DUP1 DUP4 SUB DUP2 DUP6 DUP8 GAS CALL SWAP3 POP POP POP RETURNDATASIZE DUP1 PUSH1 0x0 DUP2 EQ PUSH2 0x533 JUMPI PUSH1 0x40 MLOAD SWAP2 POP PUSH1 0x1F NOT PUSH1 0x3F RETURNDATASIZE ADD AND DUP3 ADD PUSH1 0x40 MSTORE RETURNDATASIZE DUP3 MSTORE RETURNDATASIZE PUSH1 0x0 PUSH1 0x20 DUP5 ADD RETURNDATACOPY PUSH2 0x538 JUMP JUMPDEST PUSH1 0x60 SWAP2 POP JUMPDEST POP POP SWAP1 POP DUP1 PUSH2 0x57C JUMPI PUSH1 0x40 MLOAD PUSH32 0x8C379A000000000000000000000000000000000000000000000000000000000 DUP2 MSTORE PUSH1 0x4 ADD PUSH2 0x573 SWAP1 PUSH2 0x1CD7 JUMP JUMPDEST PUSH1 0x40 MLOAD DUP1 SWAP2 SUB SWAP1 REVERT JUMPDEST PUSH1 0x0 DUP1 SLOAD SWAP1 PUSH2 0x100 EXP SWAP1 DIV PUSH20 0xFFFFFFFFFFFFFFFFFFFFFFFFFFFFFFFFFFFFFFFF AND PUSH20 0xFFFFFFFFFFFFFFFFFFFFFFFFFFFFFFFFFFFFFFFF AND PUSH4 0xA9059CBB DUP6 DUP5 PUSH1 0x40 MLOAD DUP4 PUSH4 0xFFFFFFFF AND PUSH1 0xE0 SHL DUP2 MSTORE PUSH1 0x4 ADD PUSH2 0x5D7 SWAP3 SWAP2 SWAP1 PUSH2 0x1CF7 JUMP JUMPDEST PUSH1 0x20 PUSH1 0x40 MLOAD DUP1 DUP4 SUB DUP2 PUSH1 0x0 DUP8 GAS CALL ISZERO DUP1 ISZERO PUSH2 0x5F6 JUMPI RETURNDATASIZE PUSH1 0x0 DUP1 RETURNDATACOPY RETURNDATASIZE PUSH1 0x0 REVERT JUMPDEST POP POP POP POP PUSH1 0x40 MLOAD RETURNDATASIZE PUSH1 0x1F NOT PUSH1 0x1F DUP3 ADD AND DUP3 ADD DUP1 PUSH1 0x40 MSTORE POP DUP2 ADD SWAP1 PUSH2 0x61A SWAP2 SWAP1 PUSH2 0x1D58 JUMP JUMPDEST PUSH2 0x623 JUMPI PUSH1 0x0 DUP1 REVERT JUMPDEST PUSH32 0x56CA301A9219608C91E7BCEE90E083C19671D2CDCC96752C7AF291CEE5F9C8C8 DUP4 DUP4 PUSH1 0x40 MLOAD PUSH2 0x654 SWAP3 SWAP2 SWAP1 PUSH2 0x1A15 JUMP JUMPDEST PUSH1 0x40 MLOAD DUP1 SWAP2 SUB SWAP1 LOG1 POP POP POP POP POP JUMP JUMPDEST PUSH1 0x0 SELFBALANCE SWAP1 POP SWAP1 JUMP JUMPDEST PUSH1 0x0 DUP1 PUSH1 0x0 PUSH1 0x1 SLOAD SELFBALANCE DUP6 PUSH2 0x67F SWAP2 SWAP1 PUSH2 0x1ADA JUMP JUMPDEST PUSH2 0x689 SWAP2 SWAP1 PUSH2 0x1B63 JUMP JUMPDEST SWAP1 POP PUSH1 0x0 PUSH1 0x1 SLOAD PUSH1 0x0 DUP1 SLOAD SWAP1 PUSH2 0x100 EXP SWAP1 DIV PUSH20 0xFFFFFFFFFFFFFFFFFFFFFFFFFFFFFFFFFFFFFFFF AND PUSH20 0xFFFFFFFFFFFFFFFFFFFFFFFFFFFFFFFFFFFFFFFF AND PUSH4 0x70A08231 ADDRESS PUSH1 0x40 MLOAD DUP3 PUSH4 0xFFFFFFFF AND PUSH1 0xE0 SHL DUP2 MSTORE PUSH1 0x4 ADD PUSH2 0x6E9 SWAP2 SWAP1 PUSH2 0x1BA3 JUMP JUMPDEST PUSH1 0x20 PUSH1 0x40 MLOAD DUP1 DUP4 SUB DUP2 DUP7 GAS STATICCALL ISZERO DUP1 ISZERO PUSH2 0x706 JUMPI RETURNDATASIZE PUSH1 0x0 DUP1 RETURNDATACOPY RETURNDATASIZE PUSH1 0x0 REVERT JUMPDEST POP POP POP POP PUSH1 0x40 MLOAD RETURNDATASIZE PUSH1 0x1F NOT PUSH1 0x1F DUP3 ADD AND DUP3 ADD DUP1 PUSH1 0x40 MSTORE POP DUP2 ADD SWAP1 PUSH2 0x72A SWAP2 SWAP1 PUSH2 0x1BD3 JUMP JUMPDEST DUP7 PUSH2 0x735 SWAP2 SWAP1 PUSH2 0x1ADA JUMP JUMPDEST PUSH2 0x73F SWAP2 SWAP1 PUSH2 0x1B63 JUMP JUMPDEST SWAP1 POP PUSH1 0x0 DUP3 PUSH1 0x1 SLOAD PUSH2 0x751 SWAP2 SWAP1 PUSH2 0x1C00 JUMP JUMPDEST SWAP1 POP DUP2 DUP2 SWAP5 POP SWAP5 POP POP POP POP SWAP2 POP SWAP2 JUMP JUMPDEST PUSH1 0x0 PUSH1 0x1 SLOAD SELFBALANCE DUP4 PUSH2 0x772 SWAP2 SWAP1 PUSH2 0x1ADA JUMP JUMPDEST PUSH2 0x77C SWAP2 SWAP1 PUSH2 0x1B63 JUMP JUMPDEST SWAP1 POP PUSH1 0x0 PUSH1 0x1 SLOAD PUSH1 0x0 DUP1 SLOAD SWAP1 PUSH2 0x100 EXP SWAP1 DIV PUSH20 0xFFFFFFFFFFFFFFFFFFFFFFFFFFFFFFFFFFFFFFFF AND PUSH20 0xFFFFFFFFFFFFFFFFFFFFFFFFFFFFFFFFFFFFFFFF AND PUSH4 0x70A08231 ADDRESS PUSH1 0x40 MLOAD DUP3 PUSH4 0xFFFFFFFF AND PUSH1 0xE0 SHL DUP2 MSTORE PUSH1 0x4 ADD PUSH2 0x7DC SWAP2 SWAP1 PUSH2 0x1BA3 JUMP JUMPDEST PUSH1 0x20 PUSH1 0x40 MLOAD DUP1 DUP4 SUB DUP2 DUP7 GAS STATICCALL ISZERO DUP1 ISZERO PUSH2 0x7F9 JUMPI RETURNDATASIZE PUSH1 0x0 DUP1 RETURNDATACOPY RETURNDATASIZE PUSH1 0x0 REVERT JUMPDEST POP POP POP POP PUSH1 0x40 MLOAD RETURNDATASIZE PUSH1 0x1F NOT PUSH1 0x1F DUP3 ADD AND DUP3 ADD DUP1 PUSH1 0x40 MSTORE POP DUP2 ADD SWAP1 PUSH2 0x81D SWAP2 SWAP1 PUSH2 0x1BD3 JUMP JUMPDEST DUP5 PUSH2 0x828 SWAP2 SWAP1 PUSH2 0x1ADA JUMP JUMPDEST PUSH2 0x832 SWAP2 SWAP1 PUSH2 0x1B63 JUMP JUMPDEST SWAP1 POP DUP2 PUSH1 0x2 PUSH1 0x0 CALLER PUSH20 0xFFFFFFFFFFFFFFFFFFFFFFFFFFFFFFFFFFFFFFFF AND PUSH20 0xFFFFFFFFFFFFFFFFFFFFFFFFFFFFFFFFFFFFFFFF AND DUP2 MSTORE PUSH1 0x20 ADD SWAP1 DUP2 MSTORE PUSH1 0x20 ADD PUSH1 0x0 KECCAK256 PUSH1 0x0 DUP3 DUP3 SLOAD PUSH2 0x883 SWAP2 SWAP1 PUSH2 0x1C00 JUMP JUMPDEST SWAP3 POP POP DUP2 SWAP1 SSTORE POP DUP2 PUSH1 0x1 PUSH1 0x0 DUP3 DUP3 SLOAD PUSH2 0x89C SWAP2 SWAP1 PUSH2 0x1C00 JUMP JUMPDEST SWAP3 POP POP DUP2 SWAP1 SSTORE POP PUSH1 0x0 CALLER PUSH20 0xFFFFFFFFFFFFFFFFFFFFFFFFFFFFFFFFFFFFFFFF AND DUP4 PUSH1 0x40 MLOAD PUSH2 0x8C9 SWAP1 PUSH2 0x1C65 JUMP JUMPDEST PUSH1 0x0 PUSH1 0x40 MLOAD DUP1 DUP4 SUB DUP2 DUP6 DUP8 GAS CALL SWAP3 POP POP POP RETURNDATASIZE DUP1 PUSH1 0x0 DUP2 EQ PUSH2 0x906 JUMPI PUSH1 0x40 MLOAD SWAP2 POP PUSH1 0x1F NOT PUSH1 0x3F RETURNDATASIZE ADD AND DUP3 ADD PUSH1 0x40 MSTORE RETURNDATASIZE DUP3 MSTORE RETURNDATASIZE PUSH1 0x0 PUSH1 0x20 DUP5 ADD RETURNDATACOPY PUSH2 0x90B JUMP JUMPDEST PUSH1 0x60 SWAP2 POP JUMPDEST POP POP SWAP1 POP DUP1 PUSH2 0x94F JUMPI PUSH1 0x40 MLOAD PUSH32 0x8C379A000000000000000000000000000000000000000000000000000000000 DUP2 MSTORE PUSH1 0x4 ADD PUSH2 0x946 SWAP1 PUSH2 0x1CD7 JUMP JUMPDEST PUSH1 0x40 MLOAD DUP1 SWAP2 SUB SWAP1 REVERT JUMPDEST PUSH1 0x0 DUP1 SLOAD SWAP1 PUSH2 0x100 EXP SWAP1 DIV PUSH20 0xFFFFFFFFFFFFFFFFFFFFFFFFFFFFFFFFFFFFFFFF AND PUSH20 0xFFFFFFFFFFFFFFFFFFFFFFFFFFFFFFFFFFFFFFFF AND PUSH4 0xA9059CBB CALLER DUP5 PUSH1 0x40 MLOAD DUP4 PUSH4 0xFFFFFFFF AND PUSH1 0xE0 SHL DUP2 MSTORE PUSH1 0x4 ADD PUSH2 0x9AA SWAP3 SWAP2 SWAP1 PUSH2 0x1CF7 JUMP JUMPDEST PUSH1 0x20 PUSH1 0x40 MLOAD DUP1 DUP4 SUB DUP2 PUSH1 0x0 DUP8 GAS CALL ISZERO DUP1 ISZERO PUSH2 0x9C9 JUMPI RETURNDATASIZE PUSH1 0x0 DUP1 RETURNDATACOPY RETURNDATASIZE PUSH1 0x0 REVERT JUMPDEST POP POP POP POP PUSH1 0x40 MLOAD RETURNDATASIZE PUSH1 0x1F NOT PUSH1 0x1F DUP3 ADD AND DUP3 ADD DUP1 PUSH1 0x40 MSTORE POP DUP2 ADD SWAP1 PUSH2 0x9ED SWAP2 SWAP1 PUSH2 0x1D58 JUMP JUMPDEST PUSH2 0x9F6 JUMPI PUSH1 0x0 DUP1 REVERT JUMPDEST PUSH32 0x56CA301A9219608C91E7BCEE90E083C19671D2CDCC96752C7AF291CEE5F9C8C8 DUP4 DUP4 PUSH1 0x40 MLOAD PUSH2 0xA27 SWAP3 SWAP2 SWAP1 PUSH2 0x1A15 JUMP JUMPDEST PUSH1 0x40 MLOAD DUP1 SWAP2 SUB SWAP1 LOG1 POP POP POP POP JUMP JUMPDEST PUSH1 0x1 SLOAD DUP2 JUMP JUMPDEST PUSH1 0x0 DUP1 PUSH1 0x0 PUSH1 0x1 SELFBALANCE PUSH1 0x0 DUP1 SLOAD SWAP1 PUSH2 0x100 EXP SWAP1 DIV PUSH20 0xFFFFFFFFFFFFFFFFFFFFFFFFFFFFFFFFFFFFFFFF AND PUSH20 0xFFFFFFFFFFFFFFFFFFFFFFFFFFFFFFFFFFFFFFFF AND PUSH4 0x70A08231 ADDRESS PUSH1 0x40 MLOAD DUP3 PUSH4 0xFFFFFFFF AND PUSH1 0xE0 SHL DUP2 MSTORE PUSH1 0x4 ADD PUSH2 0xA9C SWAP2 SWAP1 PUSH2 0x1BA3 JUMP JUMPDEST PUSH1 0x20 PUSH1 0x40 MLOAD DUP1 DUP4 SUB DUP2 DUP7 GAS STATICCALL ISZERO DUP1 ISZERO PUSH2 0xAB9 JUMPI RETURNDATASIZE PUSH1 0x0 DUP1 RETURNDATACOPY RETURNDATASIZE PUSH1 0x0 REVERT JUMPDEST POP POP POP POP PUSH1 0x40 MLOAD RETURNDATASIZE PUSH1 0x1F NOT PUSH1 0x1F DUP3 ADD AND DUP3 ADD DUP1 PUSH1 0x40 MSTORE POP DUP2 ADD SWAP1 PUSH2 0xADD SWAP2 SWAP1 PUSH2 0x1BD3 JUMP JUMPDEST DUP7 PUSH2 0xAE8 SWAP2 SWAP1 PUSH2 0x1ADA JUMP JUMPDEST PUSH2 0xAF2 SWAP2 SWAP1 PUSH2 0x1B63 JUMP JUMPDEST PUSH2 0xAFC SWAP2 SWAP1 PUSH2 0x1D85 JUMP JUMPDEST SWAP1 POP PUSH1 0x0 SELFBALANCE PUSH1 0x1 SLOAD DUP7 PUSH2 0xB0F SWAP2 SWAP1 PUSH2 0x1ADA JUMP JUMPDEST PUSH2 0xB19 SWAP2 SWAP1 PUSH2 0x1B63 JUMP JUMPDEST SWAP1 POP DUP2 DUP2 SWAP4 POP SWAP4 POP POP POP SWAP2 POP SWAP2 JUMP JUMPDEST PUSH1 0x0 PUSH2 0xBCE DUP3 PUSH1 0x0 DUP1 SLOAD SWAP1 PUSH2 0x100 EXP SWAP1 DIV PUSH20 0xFFFFFFFFFFFFFFFFFFFFFFFFFFFFFFFFFFFFFFFF AND PUSH20 0xFFFFFFFFFFFFFFFFFFFFFFFFFFFFFFFFFFFFFFFF AND PUSH4 0x70A08231 ADDRESS PUSH1 0x40 MLOAD DUP3 PUSH4 0xFFFFFFFF AND PUSH1 0xE0 SHL DUP2 MSTORE PUSH1 0x4 ADD PUSH2 0xB87 SWAP2 SWAP1 PUSH2 0x1BA3 JUMP JUMPDEST PUSH1 0x20 PUSH1 0x40 MLOAD DUP1 DUP4 SUB DUP2 DUP7 GAS STATICCALL ISZERO DUP1 ISZERO PUSH2 0xBA4 JUMPI RETURNDATASIZE PUSH1 0x0 DUP1 RETURNDATACOPY RETURNDATASIZE PUSH1 0x0 REVERT JUMPDEST POP POP POP POP PUSH1 0x40 MLOAD RETURNDATASIZE PUSH1 0x1F NOT PUSH1 0x1F DUP3 ADD AND DUP3 ADD DUP1 PUSH1 0x40 MSTORE POP DUP2 ADD SWAP1 PUSH2 0xBC8 SWAP2 SWAP1 PUSH2 0x1BD3 JUMP JUMPDEST SELFBALANCE PUSH2 0x18B8 JUMP JUMPDEST SWAP1 POP SWAP2 SWAP1 POP JUMP JUMPDEST PUSH1 0x0 PUSH2 0xC86 DUP3 DUP4 SELFBALANCE PUSH2 0xBE7 SWAP2 SWAP1 PUSH2 0x1C00 JUMP JUMPDEST PUSH1 0x0 DUP1 SLOAD SWAP1 PUSH2 0x100 EXP SWAP1 DIV PUSH20 0xFFFFFFFFFFFFFFFFFFFFFFFFFFFFFFFFFFFFFFFF AND PUSH20 0xFFFFFFFFFFFFFFFFFFFFFFFFFFFFFFFFFFFFFFFF AND PUSH4 0x70A08231 ADDRESS PUSH1 0x40 MLOAD DUP3 PUSH4 0xFFFFFFFF AND PUSH1 0xE0 SHL DUP2 MSTORE PUSH1 0x4 ADD PUSH2 0xC40 SWAP2 SWAP1 PUSH2 0x1BA3 JUMP JUMPDEST PUSH1 0x20 PUSH1 0x40 MLOAD DUP1 DUP4 SUB DUP2 DUP7 GAS STATICCALL ISZERO DUP1 ISZERO PUSH2 0xC5D JUMPI RETURNDATASIZE PUSH1 0x0 DUP1 RETURNDATACOPY RETURNDATASIZE PUSH1 0x0 REVERT JUMPDEST POP POP POP POP PUSH1 0x40 MLOAD RETURNDATASIZE PUSH1 0x1F NOT PUSH1 0x1F DUP3 ADD AND DUP3 ADD DUP1 PUSH1 0x40 MSTORE POP DUP2 ADD SWAP1 PUSH2 0xC81 SWAP2 SWAP1 PUSH2 0x1BD3 JUMP JUMPDEST PUSH2 0x18B8 JUMP JUMPDEST SWAP1 POP SWAP2 SWAP1 POP JUMP JUMPDEST PUSH1 0x0 PUSH2 0xD3E CALLVALUE CALLVALUE SELFBALANCE PUSH2 0xC9F SWAP2 SWAP1 PUSH2 0x1C00 JUMP JUMPDEST PUSH1 0x0 DUP1 SLOAD SWAP1 PUSH2 0x100 EXP SWAP1 DIV PUSH20 0xFFFFFFFFFFFFFFFFFFFFFFFFFFFFFFFFFFFFFFFF AND PUSH20 0xFFFFFFFFFFFFFFFFFFFFFFFFFFFFFFFFFFFFFFFF AND PUSH4 0x70A08231 ADDRESS PUSH1 0x40 MLOAD DUP3 PUSH4 0xFFFFFFFF AND PUSH1 0xE0 SHL DUP2 MSTORE PUSH1 0x4 ADD PUSH2 0xCF8 SWAP2 SWAP1 PUSH2 0x1BA3 JUMP JUMPDEST PUSH1 0x20 PUSH1 0x40 MLOAD DUP1 DUP4 SUB DUP2 DUP7 GAS STATICCALL ISZERO DUP1 ISZERO PUSH2 0xD15 JUMPI RETURNDATASIZE PUSH1 0x0 DUP1 RETURNDATACOPY RETURNDATASIZE PUSH1 0x0 REVERT JUMPDEST POP POP POP POP PUSH1 0x40 MLOAD RETURNDATASIZE PUSH1 0x1F NOT PUSH1 0x1F DUP3 ADD AND DUP3 ADD DUP1 PUSH1 0x40 MSTORE POP DUP2 ADD SWAP1 PUSH2 0xD39 SWAP2 SWAP1 PUSH2 0x1BD3 JUMP JUMPDEST PUSH2 0x18B8 JUMP JUMPDEST SWAP1 POP PUSH1 0x0 DUP1 SLOAD SWAP1 PUSH2 0x100 EXP SWAP1 DIV PUSH20 0xFFFFFFFFFFFFFFFFFFFFFFFFFFFFFFFFFFFFFFFF AND PUSH20 0xFFFFFFFFFFFFFFFFFFFFFFFFFFFFFFFFFFFFFFFF AND PUSH4 0xA9059CBB CALLER DUP4 PUSH1 0x40 MLOAD DUP4 PUSH4 0xFFFFFFFF AND PUSH1 0xE0 SHL DUP2 MSTORE PUSH1 0x4 ADD PUSH2 0xD9B SWAP3 SWAP2 SWAP1 PUSH2 0x1CF7 JUMP JUMPDEST PUSH1 0x20 PUSH1 0x40 MLOAD DUP1 DUP4 SUB DUP2 PUSH1 0x0 DUP8 GAS CALL ISZERO DUP1 ISZERO PUSH2 0xDBA JUMPI RETURNDATASIZE PUSH1 0x0 DUP1 RETURNDATACOPY RETURNDATASIZE PUSH1 0x0 REVERT JUMPDEST POP POP POP POP PUSH1 0x40 MLOAD RETURNDATASIZE PUSH1 0x1F NOT PUSH1 0x1F DUP3 ADD AND DUP3 ADD DUP1 PUSH1 0x40 MSTORE POP DUP2 ADD SWAP1 PUSH2 0xDDE SWAP2 SWAP1 PUSH2 0x1D58 JUMP JUMPDEST PUSH2 0xDE7 JUMPI PUSH1 0x0 DUP1 REVERT JUMPDEST PUSH32 0xDB04C7A6D4758FD55D738EBC67E7F3010AC922BE00771EF29521A4090D1EB13F DUP2 PUSH1 0x40 MLOAD PUSH2 0xE16 SWAP2 SWAP1 PUSH2 0x19CD JUMP JUMPDEST PUSH1 0x40 MLOAD DUP1 SWAP2 SUB SWAP1 LOG1 POP JUMP JUMPDEST PUSH1 0x0 DUP1 PUSH1 0x0 SWAP1 SLOAD SWAP1 PUSH2 0x100 EXP SWAP1 DIV PUSH20 0xFFFFFFFFFFFFFFFFFFFFFFFFFFFFFFFFFFFFFFFF AND PUSH20 0xFFFFFFFFFFFFFFFFFFFFFFFFFFFFFFFFFFFFFFFF AND PUSH4 0x70A08231 ADDRESS PUSH1 0x40 MLOAD DUP3 PUSH4 0xFFFFFFFF AND PUSH1 0xE0 SHL DUP2 MSTORE PUSH1 0x4 ADD PUSH2 0xE7D SWAP2 SWAP1 PUSH2 0x1BA3 JUMP JUMPDEST PUSH1 0x20 PUSH1 0x40 MLOAD DUP1 DUP4 SUB DUP2 DUP7 GAS STATICCALL ISZERO DUP1 ISZERO PUSH2 0xE9A JUMPI RETURNDATASIZE PUSH1 0x0 DUP1 RETURNDATACOPY RETURNDATASIZE PUSH1 0x0 REVERT JUMPDEST POP POP POP POP PUSH1 0x40 MLOAD RETURNDATASIZE PUSH1 0x1F NOT PUSH1 0x1F DUP3 ADD AND DUP3 ADD DUP1 PUSH1 0x40 MSTORE POP DUP2 ADD SWAP1 PUSH2 0xEBE SWAP2 SWAP1 PUSH2 0x1BD3 JUMP JUMPDEST SWAP1 POP SWAP1 JUMP JUMPDEST PUSH1 0x0 PUSH2 0xF74 CALLVALUE CALLVALUE SELFBALANCE PUSH2 0xED5 SWAP2 SWAP1 PUSH2 0x1C00 JUMP JUMPDEST PUSH1 0x0 DUP1 SLOAD SWAP1 PUSH2 0x100 EXP SWAP1 DIV PUSH20 0xFFFFFFFFFFFFFFFFFFFFFFFFFFFFFFFFFFFFFFFF AND PUSH20 0xFFFFFFFFFFFFFFFFFFFFFFFFFFFFFFFFFFFFFFFF AND PUSH4 0x70A08231 ADDRESS PUSH1 0x40 MLOAD DUP3 PUSH4 0xFFFFFFFF AND PUSH1 0xE0 SHL DUP2 MSTORE PUSH1 0x4 ADD PUSH2 0xF2E SWAP2 SWAP1 PUSH2 0x1BA3 JUMP JUMPDEST PUSH1 0x20 PUSH1 0x40 MLOAD DUP1 DUP4 SUB DUP2 DUP7 GAS STATICCALL ISZERO DUP1 ISZERO PUSH2 0xF4B JUMPI RETURNDATASIZE PUSH1 0x0 DUP1 RETURNDATACOPY RETURNDATASIZE PUSH1 0x0 REVERT JUMPDEST POP POP POP POP PUSH1 0x40 MLOAD RETURNDATASIZE PUSH1 0x1F NOT PUSH1 0x1F DUP3 ADD AND DUP3 ADD DUP1 PUSH1 0x40 MSTORE POP DUP2 ADD SWAP1 PUSH2 0xF6F SWAP2 SWAP1 PUSH2 0x1BD3 JUMP JUMPDEST PUSH2 0x18B8 JUMP JUMPDEST SWAP1 POP PUSH1 0x0 DUP1 SLOAD SWAP1 PUSH2 0x100 EXP SWAP1 DIV PUSH20 0xFFFFFFFFFFFFFFFFFFFFFFFFFFFFFFFFFFFFFFFF AND PUSH20 0xFFFFFFFFFFFFFFFFFFFFFFFFFFFFFFFFFFFFFFFF AND PUSH4 0xA9059CBB DUP4 DUP4 PUSH1 0x40 MLOAD DUP4 PUSH4 0xFFFFFFFF AND PUSH1 0xE0 SHL DUP2 MSTORE PUSH1 0x4 ADD PUSH2 0xFD1 SWAP3 SWAP2 SWAP1 PUSH2 0x1CF7 JUMP JUMPDEST PUSH1 0x20 PUSH1 0x40 MLOAD DUP1 DUP4 SUB DUP2 PUSH1 0x0 DUP8 GAS CALL ISZERO DUP1 ISZERO PUSH2 0xFF0 JUMPI RETURNDATASIZE PUSH1 0x0 DUP1 RETURNDATACOPY RETURNDATASIZE PUSH1 0x0 REVERT JUMPDEST POP POP POP POP PUSH1 0x40 MLOAD RETURNDATASIZE PUSH1 0x1F NOT PUSH1 0x1F DUP3 ADD AND DUP3 ADD DUP1 PUSH1 0x40 MSTORE POP DUP2 ADD SWAP1 PUSH2 0x1014 SWAP2 SWAP1 PUSH2 0x1D58 JUMP JUMPDEST PUSH2 0x101D JUMPI PUSH1 0x0 DUP1 REVERT JUMPDEST PUSH32 0xDB04C7A6D4758FD55D738EBC67E7F3010AC922BE00771EF29521A4090D1EB13F DUP2 PUSH1 0x40 MLOAD PUSH2 0x104C SWAP2 SWAP1 PUSH2 0x19CD JUMP JUMPDEST PUSH1 0x40 MLOAD DUP1 SWAP2 SUB SWAP1 LOG1 POP POP JUMP JUMPDEST PUSH1 0x2 PUSH1 0x20 MSTORE DUP1 PUSH1 0x0 MSTORE PUSH1 0x40 PUSH1 0x0 KECCAK256 PUSH1 0x0 SWAP2 POP SWAP1 POP SLOAD DUP2 JUMP JUMPDEST PUSH1 0x0 PUSH1 0x1 SLOAD EQ PUSH2 0x107F JUMPI PUSH1 0x0 DUP1 REVERT JUMPDEST DUP2 PUSH1 0x0 DUP1 PUSH2 0x100 EXP DUP2 SLOAD DUP2 PUSH20 0xFFFFFFFFFFFFFFFFFFFFFFFFFFFFFFFFFFFFFFFF MUL NOT AND SWAP1 DUP4 PUSH20 0xFFFFFFFFFFFFFFFFFFFFFFFFFFFFFFFFFFFFFFFF AND MUL OR SWAP1 SSTORE POP SELFBALANCE PUSH1 0x1 DUP2 SWAP1 SSTORE POP PUSH1 0x1 SLOAD PUSH1 0x2 PUSH1 0x0 CALLER PUSH20 0xFFFFFFFFFFFFFFFFFFFFFFFFFFFFFFFFFFFFFFFF AND PUSH20 0xFFFFFFFFFFFFFFFFFFFFFFFFFFFFFFFFFFFFFFFF AND DUP2 MSTORE PUSH1 0x20 ADD SWAP1 DUP2 MSTORE PUSH1 0x20 ADD PUSH1 0x0 KECCAK256 DUP2 SWAP1 SSTORE POP PUSH1 0x0 DUP1 SLOAD SWAP1 PUSH2 0x100 EXP SWAP1 DIV PUSH20 0xFFFFFFFFFFFFFFFFFFFFFFFFFFFFFFFFFFFFFFFF AND PUSH20 0xFFFFFFFFFFFFFFFFFFFFFFFFFFFFFFFFFFFFFFFF AND PUSH4 0x23B872DD CALLER ADDRESS DUP5 PUSH1 0x40 MLOAD DUP5 PUSH4 0xFFFFFFFF AND PUSH1 0xE0 SHL DUP2 MSTORE PUSH1 0x4 ADD PUSH2 0x1169 SWAP4 SWAP3 SWAP2 SWAP1 PUSH2 0x1DDB JUMP JUMPDEST PUSH1 0x20 PUSH1 0x40 MLOAD DUP1 DUP4 SUB DUP2 PUSH1 0x0 DUP8 GAS CALL ISZERO DUP1 ISZERO PUSH2 0x1188 JUMPI RETURNDATASIZE PUSH1 0x0 DUP1 RETURNDATACOPY RETURNDATASIZE PUSH1 0x0 REVERT JUMPDEST POP POP POP POP PUSH1 0x40 MLOAD RETURNDATASIZE PUSH1 0x1F NOT PUSH1 0x1F DUP3 ADD AND DUP3 ADD DUP1 PUSH1 0x40 MSTORE POP DUP2 ADD SWAP1 PUSH2 0x11AC SWAP2 SWAP1 PUSH2 0x1D58 JUMP JUMPDEST PUSH2 0x11B5 JUMPI PUSH1 0x0 DUP1 REVERT JUMPDEST PUSH32 0xC43E48CF47E9FA186D0F4096C61D1FCB54159799F935A2AA32E5589688EE36E1 PUSH1 0x1 SLOAD PUSH1 0x40 MLOAD PUSH2 0x11E6 SWAP2 SWAP1 PUSH2 0x19CD JUMP JUMPDEST PUSH1 0x40 MLOAD DUP1 SWAP2 SUB SWAP1 LOG1 POP POP JUMP JUMPDEST PUSH1 0x0 PUSH1 0x1 CALLVALUE SELFBALANCE PUSH2 0x1202 SWAP2 SWAP1 PUSH2 0x1C00 JUMP JUMPDEST PUSH1 0x0 DUP1 SLOAD SWAP1 PUSH2 0x100 EXP SWAP1 DIV PUSH20 0xFFFFFFFFFFFFFFFFFFFFFFFFFFFFFFFFFFFFFFFF AND PUSH20 0xFFFFFFFFFFFFFFFFFFFFFFFFFFFFFFFFFFFFFFFF AND PUSH4 0x70A08231 ADDRESS PUSH1 0x40 MLOAD DUP3 PUSH4 0xFFFFFFFF AND PUSH1 0xE0 SHL DUP2 MSTORE PUSH1 0x4 ADD PUSH2 0x125B SWAP2 SWAP1 PUSH2 0x1BA3 JUMP JUMPDEST PUSH1 0x20 PUSH1 0x40 MLOAD DUP1 DUP4 SUB DUP2 DUP7 GAS STATICCALL ISZERO DUP1 ISZERO PUSH2 0x1278 JUMPI RETURNDATASIZE PUSH1 0x0 DUP1 RETURNDATACOPY RETURNDATASIZE PUSH1 0x0 REVERT JUMPDEST POP POP POP POP PUSH1 0x40 MLOAD RETURNDATASIZE PUSH1 0x1F NOT PUSH1 0x1F DUP3 ADD AND DUP3 ADD DUP1 PUSH1 0x40 MSTORE POP DUP2 ADD SWAP1 PUSH2 0x129C SWAP2 SWAP1 PUSH2 0x1BD3 JUMP JUMPDEST CALLVALUE PUSH2 0x12A7 SWAP2 SWAP1 PUSH2 0x1ADA JUMP JUMPDEST PUSH2 0x12B1 SWAP2 SWAP1 PUSH2 0x1B63 JUMP JUMPDEST PUSH2 0x12BB SWAP2 SWAP1 PUSH2 0x1D85 JUMP JUMPDEST SWAP1 POP PUSH1 0x0 CALLVALUE SELFBALANCE PUSH2 0x12CB SWAP2 SWAP1 PUSH2 0x1C00 JUMP JUMPDEST PUSH1 0x1 SLOAD CALLVALUE PUSH2 0x12D9 SWAP2 SWAP1 PUSH2 0x1ADA JUMP JUMPDEST PUSH2 0x12E3 SWAP2 SWAP1 PUSH2 0x1B63 JUMP JUMPDEST SWAP1 POP DUP1 PUSH1 0x2 PUSH1 0x0 CALLER PUSH20 0xFFFFFFFFFFFFFFFFFFFFFFFFFFFFFFFFFFFFFFFF AND PUSH20 0xFFFFFFFFFFFFFFFFFFFFFFFFFFFFFFFFFFFFFFFF AND DUP2 MSTORE PUSH1 0x20 ADD SWAP1 DUP2 MSTORE PUSH1 0x20 ADD PUSH1 0x0 KECCAK256 PUSH1 0x0 DUP3 DUP3 SLOAD PUSH2 0x1334 SWAP2 SWAP1 PUSH2 0x1D85 JUMP JUMPDEST SWAP3 POP POP DUP2 SWAP1 SSTORE POP DUP1 PUSH1 0x1 PUSH1 0x0 DUP3 DUP3 SLOAD PUSH2 0x134D SWAP2 SWAP1 PUSH2 0x1D85 JUMP JUMPDEST SWAP3 POP POP DUP2 SWAP1 SSTORE POP PUSH1 0x0 DUP1 SLOAD SWAP1 PUSH2 0x100 EXP SWAP1 DIV PUSH20 0xFFFFFFFFFFFFFFFFFFFFFFFFFFFFFFFFFFFFFFFF AND PUSH20 0xFFFFFFFFFFFFFFFFFFFFFFFFFFFFFFFFFFFFFFFF AND PUSH4 0x23B872DD CALLER ADDRESS DUP6 PUSH1 0x40 MLOAD DUP5 PUSH4 0xFFFFFFFF AND PUSH1 0xE0 SHL DUP2 MSTORE PUSH1 0x4 ADD PUSH2 0x13B1 SWAP4 SWAP3 SWAP2 SWAP1 PUSH2 0x1DDB JUMP JUMPDEST PUSH1 0x20 PUSH1 0x40 MLOAD DUP1 DUP4 SUB DUP2 PUSH1 0x0 DUP8 GAS CALL ISZERO DUP1 ISZERO PUSH2 0x13D0 JUMPI RETURNDATASIZE PUSH1 0x0 DUP1 RETURNDATACOPY RETURNDATASIZE PUSH1 0x0 REVERT JUMPDEST POP POP POP POP PUSH1 0x40 MLOAD RETURNDATASIZE PUSH1 0x1F NOT PUSH1 0x1F DUP3 ADD AND DUP3 ADD DUP1 PUSH1 0x40 MSTORE POP DUP2 ADD SWAP1 PUSH2 0x13F4 SWAP2 SWAP1 PUSH2 0x1D58 JUMP JUMPDEST PUSH2 0x13FD JUMPI PUSH1 0x0 DUP1 REVERT JUMPDEST PUSH32 0x4D6CE1E535DBADE1C23DEFBA91E23B8F791CE5EDC0CC320257A2B364E4E38426 DUP2 PUSH1 0x40 MLOAD PUSH2 0x142C SWAP2 SWAP1 PUSH2 0x19CD JUMP JUMPDEST PUSH1 0x40 MLOAD DUP1 SWAP2 SUB SWAP1 LOG1 POP POP JUMP JUMPDEST PUSH1 0x0 PUSH2 0x14DE DUP3 PUSH1 0x0 DUP1 SLOAD SWAP1 PUSH2 0x100 EXP SWAP1 DIV PUSH20 0xFFFFFFFFFFFFFFFFFFFFFFFFFFFFFFFFFFFFFFFF AND PUSH20 0xFFFFFFFFFFFFFFFFFFFFFFFFFFFFFFFFFFFFFFFF AND PUSH4 0x70A08231 ADDRESS PUSH1 0x40 MLOAD DUP3 PUSH4 0xFFFFFFFF AND PUSH1 0xE0 SHL DUP2 MSTORE PUSH1 0x4 ADD PUSH2 0x1497 SWAP2 SWAP1 PUSH2 0x1BA3 JUMP JUMPDEST PUSH1 0x20 PUSH1 0x40 MLOAD DUP1 DUP4 SUB DUP2 DUP7 GAS STATICCALL ISZERO DUP1 ISZERO PUSH2 0x14B4 JUMPI RETURNDATASIZE PUSH1 0x0 DUP1 RETURNDATACOPY RETURNDATASIZE PUSH1 0x0 REVERT JUMPDEST POP POP POP POP PUSH1 0x40 MLOAD RETURNDATASIZE PUSH1 0x1F NOT PUSH1 0x1F DUP3 ADD AND DUP3 ADD DUP1 PUSH1 0x40 MSTORE POP DUP2 ADD SWAP1 PUSH2 0x14D8 SWAP2 SWAP1 PUSH2 0x1BD3 JUMP JUMPDEST SELFBALANCE PUSH2 0x18B8 JUMP JUMPDEST SWAP1 POP PUSH1 0x0 CALLER PUSH20 0xFFFFFFFFFFFFFFFFFFFFFFFFFFFFFFFFFFFFFFFF AND DUP3 PUSH1 0x40 MLOAD PUSH2 0x1506 SWAP1 PUSH2 0x1C65 JUMP JUMPDEST PUSH1 0x0 PUSH1 0x40 MLOAD DUP1 DUP4 SUB DUP2 DUP6 DUP8 GAS CALL SWAP3 POP POP POP RETURNDATASIZE DUP1 PUSH1 0x0 DUP2 EQ PUSH2 0x1543 JUMPI PUSH1 0x40 MLOAD SWAP2 POP PUSH1 0x1F NOT PUSH1 0x3F RETURNDATASIZE ADD AND DUP3 ADD PUSH1 0x40 MSTORE RETURNDATASIZE DUP3 MSTORE RETURNDATASIZE PUSH1 0x0 PUSH1 0x20 DUP5 ADD RETURNDATACOPY PUSH2 0x1548 JUMP JUMPDEST PUSH1 0x60 SWAP2 POP JUMPDEST POP POP SWAP1 POP DUP1 PUSH2 0x158C JUMPI PUSH1 0x40 MLOAD PUSH32 0x8C379A000000000000000000000000000000000000000000000000000000000 DUP2 MSTORE PUSH1 0x4 ADD PUSH2 0x1583 SWAP1 PUSH2 0x1CD7 JUMP JUMPDEST PUSH1 0x40 MLOAD DUP1 SWAP2 SUB SWAP1 REVERT JUMPDEST PUSH1 0x0 DUP1 SLOAD SWAP1 PUSH2 0x100 EXP SWAP1 DIV PUSH20 0xFFFFFFFFFFFFFFFFFFFFFFFFFFFFFFFFFFFFFFFF AND PUSH20 0xFFFFFFFFFFFFFFFFFFFFFFFFFFFFFFFFFFFFFFFF AND PUSH4 0x23B872DD CALLER ADDRESS DUP7 PUSH1 0x40 MLOAD DUP5 PUSH4 0xFFFFFFFF AND PUSH1 0xE0 SHL DUP2 MSTORE PUSH1 0x4 ADD PUSH2 0x15E9 SWAP4 SWAP3 SWAP2 SWAP1 PUSH2 0x1DDB JUMP JUMPDEST PUSH1 0x20 PUSH1 0x40 MLOAD DUP1 DUP4 SUB DUP2 PUSH1 0x0 DUP8 GAS CALL ISZERO DUP1 ISZERO PUSH2 0x1608 JUMPI RETURNDATASIZE PUSH1 0x0 DUP1 RETURNDATACOPY RETURNDATASIZE PUSH1 0x0 REVERT JUMPDEST POP POP POP POP PUSH1 0x40 MLOAD RETURNDATASIZE PUSH1 0x1F NOT PUSH1 0x1F DUP3 ADD AND DUP3 ADD DUP1 PUSH1 0x40 MSTORE POP DUP2 ADD SWAP1 PUSH2 0x162C SWAP2 SWAP1 PUSH2 0x1D58 JUMP JUMPDEST PUSH2 0x1635 JUMPI PUSH1 0x0 DUP1 REVERT JUMPDEST PUSH32 0x4DBF3A71A7C7262F432C2CAD7808225832255D07F7D8AB85117677C0B5C0A850 DUP3 PUSH1 0x40 MLOAD PUSH2 0x1664 SWAP2 SWAP1 PUSH2 0x19CD JUMP JUMPDEST PUSH1 0x40 MLOAD DUP1 SWAP2 SUB SWAP1 LOG1 POP POP POP JUMP JUMPDEST PUSH1 0x0 PUSH1 0x1 CALLVALUE SELFBALANCE PUSH2 0x1681 SWAP2 SWAP1 PUSH2 0x1C00 JUMP JUMPDEST PUSH1 0x0 DUP1 SLOAD SWAP1 PUSH2 0x100 EXP SWAP1 DIV PUSH20 0xFFFFFFFFFFFFFFFFFFFFFFFFFFFFFFFFFFFFFFFF AND PUSH20 0xFFFFFFFFFFFFFFFFFFFFFFFFFFFFFFFFFFFFFFFF AND PUSH4 0x70A08231 ADDRESS PUSH1 0x40 MLOAD DUP3 PUSH4 0xFFFFFFFF AND PUSH1 0xE0 SHL DUP2 MSTORE PUSH1 0x4 ADD PUSH2 0x16DA SWAP2 SWAP1 PUSH2 0x1BA3 JUMP JUMPDEST PUSH1 0x20 PUSH1 0x40 MLOAD DUP1 DUP4 SUB DUP2 DUP7 GAS STATICCALL ISZERO DUP1 ISZERO PUSH2 0x16F7 JUMPI RETURNDATASIZE PUSH1 0x0 DUP1 RETURNDATACOPY RETURNDATASIZE PUSH1 0x0 REVERT JUMPDEST POP POP POP POP PUSH1 0x40 MLOAD RETURNDATASIZE PUSH1 0x1F NOT PUSH1 0x1F DUP3 ADD AND DUP3 ADD DUP1 PUSH1 0x40 MSTORE POP DUP2 ADD SWAP1 PUSH2 0x171B SWAP2 SWAP1 PUSH2 0x1BD3 JUMP JUMPDEST CALLVALUE PUSH2 0x1726 SWAP2 SWAP1 PUSH2 0x1ADA JUMP JUMPDEST PUSH2 0x1730 SWAP2 SWAP1 PUSH2 0x1B63 JUMP JUMPDEST PUSH2 0x173A SWAP2 SWAP1 PUSH2 0x1D85 JUMP JUMPDEST SWAP1 POP PUSH1 0x0 CALLVALUE SELFBALANCE PUSH2 0x174A SWAP2 SWAP1 PUSH2 0x1C00 JUMP JUMPDEST PUSH1 0x1 SLOAD CALLVALUE PUSH2 0x1758 SWAP2 SWAP1 PUSH2 0x1ADA JUMP JUMPDEST PUSH2 0x1762 SWAP2 SWAP1 PUSH2 0x1B63 JUMP JUMPDEST SWAP1 POP DUP1 PUSH1 0x2 PUSH1 0x0 DUP6 PUSH20 0xFFFFFFFFFFFFFFFFFFFFFFFFFFFFFFFFFFFFFFFF AND PUSH20 0xFFFFFFFFFFFFFFFFFFFFFFFFFFFFFFFFFFFFFFFF AND DUP2 MSTORE PUSH1 0x20 ADD SWAP1 DUP2 MSTORE PUSH1 0x20 ADD PUSH1 0x0 KECCAK256 PUSH1 0x0 DUP3 DUP3 SLOAD PUSH2 0x17B3 SWAP2 SWAP1 PUSH2 0x1D85 JUMP JUMPDEST SWAP3 POP POP DUP2 SWAP1 SSTORE POP DUP1 PUSH1 0x1 PUSH1 0x0 DUP3 DUP3 SLOAD PUSH2 0x17CC SWAP2 SWAP1 PUSH2 0x1D85 JUMP JUMPDEST SWAP3 POP POP DUP2 SWAP1 SSTORE POP PUSH1 0x0 DUP1 SLOAD SWAP1 PUSH2 0x100 EXP SWAP1 DIV PUSH20 0xFFFFFFFFFFFFFFFFFFFFFFFFFFFFFFFFFFFFFFFF AND PUSH20 0xFFFFFFFFFFFFFFFFFFFFFFFFFFFFFFFFFFFFFFFF AND PUSH4 0x23B872DD DUP5 ADDRESS DUP6 PUSH1 0x40 MLOAD DUP5 PUSH4 0xFFFFFFFF AND PUSH1 0xE0 SHL DUP2 MSTORE PUSH1 0x4 ADD PUSH2 0x1830 SWAP4 SWAP3 SWAP2 SWAP1 PUSH2 0x1DDB JUMP JUMPDEST PUSH1 0x20 PUSH1 0x40 MLOAD DUP1 DUP4 SUB DUP2 PUSH1 0x0 DUP8 GAS CALL ISZERO DUP1 ISZERO PUSH2 0x184F JUMPI RETURNDATASIZE PUSH1 0x0 DUP1 RETURNDATACOPY RETURNDATASIZE PUSH1 0x0 REVERT JUMPDEST POP POP POP POP PUSH1 0x40 MLOAD RETURNDATASIZE PUSH1 0x1F NOT PUSH1 0x1F DUP3 ADD AND DUP3 ADD DUP1 PUSH1 0x40 MSTORE POP DUP2 ADD SWAP1 PUSH2 0x1873 SWAP2 SWAP1 PUSH2 0x1D58 JUMP JUMPDEST PUSH2 0x187C JUMPI PUSH1 0x0 DUP1 REVERT JUMPDEST PUSH32 0x4D6CE1E535DBADE1C23DEFBA91E23B8F791CE5EDC0CC320257A2B364E4E38426 DUP2 PUSH1 0x40 MLOAD PUSH2 0x18AB SWAP2 SWAP1 PUSH2 0x19CD JUMP JUMPDEST PUSH1 0x40 MLOAD DUP1 SWAP2 SUB SWAP1 LOG1 POP POP POP JUMP JUMPDEST PUSH1 0x0 DUP4 DUP4 PUSH2 0x18C6 SWAP2 SWAP1 PUSH2 0x1D85 JUMP JUMPDEST DUP3 DUP6 PUSH2 0x18D2 SWAP2 SWAP1 PUSH2 0x1ADA JUMP JUMPDEST PUSH2 0x18DC SWAP2 SWAP1 PUSH2 0x1B63 JUMP JUMPDEST SWAP1 POP SWAP4 SWAP3 POP POP POP JUMP JUMPDEST PUSH1 0x0 DUP1 REVERT JUMPDEST PUSH1 0x0 DUP2 SWAP1 POP SWAP2 SWAP1 POP JUMP JUMPDEST PUSH2 0x18FD DUP2 PUSH2 0x18EA JUMP JUMPDEST DUP2 EQ PUSH2 0x1908 JUMPI PUSH1 0x0 DUP1 REVERT JUMPDEST POP JUMP JUMPDEST PUSH1 0x0 DUP2 CALLDATALOAD SWAP1 POP PUSH2 0x191A DUP2 PUSH2 0x18F4 JUMP JUMPDEST SWAP3 SWAP2 POP POP JUMP JUMPDEST PUSH1 0x0 PUSH20 0xFFFFFFFFFFFFFFFFFFFFFFFFFFFFFFFFFFFFFFFF DUP3 AND SWAP1 POP SWAP2 SWAP1 POP JUMP JUMPDEST PUSH1 0x0 PUSH2 0x194B DUP3 PUSH2 0x1920 JUMP JUMPDEST SWAP1 POP SWAP2 SWAP1 POP JUMP JUMPDEST PUSH2 0x195B DUP2 PUSH2 0x1940 JUMP JUMPDEST DUP2 EQ PUSH2 0x1966 JUMPI PUSH1 0x0 DUP1 REVERT JUMPDEST POP JUMP JUMPDEST PUSH1 0x0 DUP2 CALLDATALOAD SWAP1 POP PUSH2 0x1978 DUP2 PUSH2 0x1952 JUMP JUMPDEST SWAP3 SWAP2 POP POP JUMP JUMPDEST PUSH1 0x0 DUP1 PUSH1 0x40 DUP4 DUP6 SUB SLT ISZERO PUSH2 0x1995 JUMPI PUSH2 0x1994 PUSH2 0x18E5 JUMP JUMPDEST JUMPDEST PUSH1 0x0 PUSH2 0x19A3 DUP6 DUP3 DUP7 ADD PUSH2 0x190B JUMP JUMPDEST SWAP3 POP POP PUSH1 0x20 PUSH2 0x19B4 DUP6 DUP3 DUP7 ADD PUSH2 0x1969 JUMP JUMPDEST SWAP2 POP POP SWAP3 POP SWAP3 SWAP1 POP JUMP JUMPDEST PUSH2 0x19C7 DUP2 PUSH2 0x18EA JUMP JUMPDEST DUP3 MSTORE POP POP JUMP JUMPDEST PUSH1 0x0 PUSH1 0x20 DUP3 ADD SWAP1 POP PUSH2 0x19E2 PUSH1 0x0 DUP4 ADD DUP5 PUSH2 0x19BE JUMP JUMPDEST SWAP3 SWAP2 POP POP JUMP JUMPDEST PUSH1 0x0 PUSH1 0x20 DUP3 DUP5 SUB SLT ISZERO PUSH2 0x19FE JUMPI PUSH2 0x19FD PUSH2 0x18E5 JUMP JUMPDEST JUMPDEST PUSH1 0x0 PUSH2 0x1A0C DUP5 DUP3 DUP6 ADD PUSH2 0x190B JUMP JUMPDEST SWAP2 POP POP SWAP3 SWAP2 POP POP JUMP JUMPDEST PUSH1 0x0 PUSH1 0x40 DUP3 ADD SWAP1 POP PUSH2 0x1A2A PUSH1 0x0 DUP4 ADD DUP6 PUSH2 0x19BE JUMP JUMPDEST PUSH2 0x1A37 PUSH1 0x20 DUP4 ADD DUP5 PUSH2 0x19BE JUMP JUMPDEST SWAP4 SWAP3 POP POP POP JUMP JUMPDEST PUSH1 0x0 PUSH1 0x20 DUP3 DUP5 SUB SLT ISZERO PUSH2 0x1A54 JUMPI PUSH2 0x1A53 PUSH2 0x18E5 JUMP JUMPDEST JUMPDEST PUSH1 0x0 PUSH2 0x1A62 DUP5 DUP3 DUP6 ADD PUSH2 0x1969 JUMP JUMPDEST SWAP2 POP POP SWAP3 SWAP2 POP POP JUMP JUMPDEST PUSH1 0x0 DUP1 PUSH1 0x40 DUP4 DUP6 SUB SLT ISZERO PUSH2 0x1A82 JUMPI PUSH2 0x1A81 PUSH2 0x18E5 JUMP JUMPDEST JUMPDEST PUSH1 0x0 PUSH2 0x1A90 DUP6 DUP3 DUP7 ADD PUSH2 0x1969 JUMP JUMPDEST SWAP3 POP POP PUSH1 0x20 PUSH2 0x1AA1 DUP6 DUP3 DUP7 ADD PUSH2 0x190B JUMP JUMPDEST SWAP2 POP POP SWAP3 POP SWAP3 SWAP1 POP JUMP JUMPDEST PUSH32 0x4E487B7100000000000000000000000000000000000000000000000000000000 PUSH1 0x0 MSTORE PUSH1 0x11 PUSH1 0x4 MSTORE PUSH1 0x24 PUSH1 0x0 REVERT JUMPDEST PUSH1 0x0 PUSH2 0x1AE5 DUP3 PUSH2 0x18EA JUMP JUMPDEST SWAP2 POP PUSH2 0x1AF0 DUP4 PUSH2 0x18EA JUMP JUMPDEST SWAP3 POP DUP2 PUSH32 0xFFFFFFFFFFFFFFFFFFFFFFFFFFFFFFFFFFFFFFFFFFFFFFFFFFFFFFFFFFFFFFFF DIV DUP4 GT DUP3 ISZERO ISZERO AND ISZERO PUSH2 0x1B29 JUMPI PUSH2 0x1B28 PUSH2 0x1AAB JUMP JUMPDEST JUMPDEST DUP3 DUP3 MUL SWAP1 POP SWAP3 SWAP2 POP POP JUMP JUMPDEST PUSH32 0x4E487B7100000000000000000000000000000000000000000000000000000000 PUSH1 0x0 MSTORE PUSH1 0x12 PUSH1 0x4 MSTORE PUSH1 0x24 PUSH1 0x0 REVERT JUMPDEST PUSH1 0x0 PUSH2 0x1B6E DUP3 PUSH2 0x18EA JUMP JUMPDEST SWAP2 POP PUSH2 0x1B79 DUP4 PUSH2 0x18EA JUMP JUMPDEST SWAP3 POP DUP3 PUSH2 0x1B89 JUMPI PUSH2 0x1B88 PUSH2 0x1B34 JUMP JUMPDEST JUMPDEST DUP3 DUP3 DIV SWAP1 POP SWAP3 SWAP2 POP POP JUMP JUMPDEST PUSH2 0x1B9D DUP2 PUSH2 0x1940 JUMP JUMPDEST DUP3 MSTORE POP POP JUMP JUMPDEST PUSH1 0x0 PUSH1 0x20 DUP3 ADD SWAP1 POP PUSH2 0x1BB8 PUSH1 0x0 DUP4 ADD DUP5 PUSH2 0x1B94 JUMP JUMPDEST SWAP3 SWAP2 POP POP JUMP JUMPDEST PUSH1 0x0 DUP2 MLOAD SWAP1 POP PUSH2 0x1BCD DUP2 PUSH2 0x18F4 JUMP JUMPDEST SWAP3 SWAP2 POP POP JUMP JUMPDEST PUSH1 0x0 PUSH1 0x20 DUP3 DUP5 SUB SLT ISZERO PUSH2 0x1BE9 JUMPI PUSH2 0x1BE8 PUSH2 0x18E5 JUMP JUMPDEST JUMPDEST PUSH1 0x0 PUSH2 0x1BF7 DUP5 DUP3 DUP6 ADD PUSH2 0x1BBE JUMP JUMPDEST SWAP2 POP POP SWAP3 SWAP2 POP POP JUMP JUMPDEST PUSH1 0x0 PUSH2 0x1C0B DUP3 PUSH2 0x18EA JUMP JUMPDEST SWAP2 POP PUSH2 0x1C16 DUP4 PUSH2 0x18EA JUMP JUMPDEST SWAP3 POP DUP3 DUP3 LT ISZERO PUSH2 0x1C29 JUMPI PUSH2 0x1C28 PUSH2 0x1AAB JUMP JUMPDEST JUMPDEST DUP3 DUP3 SUB SWAP1 POP SWAP3 SWAP2 POP POP JUMP JUMPDEST PUSH1 0x0 DUP2 SWAP1 POP SWAP3 SWAP2 POP POP JUMP JUMPDEST POP JUMP JUMPDEST PUSH1 0x0 PUSH2 0x1C4F PUSH1 0x0 DUP4 PUSH2 0x1C34 JUMP JUMPDEST SWAP2 POP PUSH2 0x1C5A DUP3 PUSH2 0x1C3F JUMP JUMPDEST PUSH1 0x0 DUP3 ADD SWAP1 POP SWAP2 SWAP1 POP JUMP JUMPDEST PUSH1 0x0 PUSH2 0x1C70 DUP3 PUSH2 0x1C42 JUMP JUMPDEST SWAP2 POP DUP2 SWAP1 POP SWAP2 SWAP1 POP JUMP JUMPDEST PUSH1 0x0 DUP3 DUP3 MSTORE PUSH1 0x20 DUP3 ADD SWAP1 POP SWAP3 SWAP2 POP POP JUMP JUMPDEST PUSH32 0x5472616E73666572206661696C65642E00000000000000000000000000000000 PUSH1 0x0 DUP3 ADD MSTORE POP JUMP JUMPDEST PUSH1 0x0 PUSH2 0x1CC1 PUSH1 0x10 DUP4 PUSH2 0x1C7A JUMP JUMPDEST SWAP2 POP PUSH2 0x1CCC DUP3 PUSH2 0x1C8B JUMP JUMPDEST PUSH1 0x20 DUP3 ADD SWAP1 POP SWAP2 SWAP1 POP JUMP JUMPDEST PUSH1 0x0 PUSH1 0x20 DUP3 ADD SWAP1 POP DUP2 DUP2 SUB PUSH1 0x0 DUP4 ADD MSTORE PUSH2 0x1CF0 DUP2 PUSH2 0x1CB4 JUMP JUMPDEST SWAP1 POP SWAP2 SWAP1 POP JUMP JUMPDEST PUSH1 0x0 PUSH1 0x40 DUP3 ADD SWAP1 POP PUSH2 0x1D0C PUSH1 0x0 DUP4 ADD DUP6 PUSH2 0x1B94 JUMP JUMPDEST PUSH2 0x1D19 PUSH1 0x20 DUP4 ADD DUP5 PUSH2 0x19BE JUMP JUMPDEST SWAP4 SWAP3 POP POP POP JUMP JUMPDEST PUSH1 0x0 DUP2 ISZERO ISZERO SWAP1 POP SWAP2 SWAP1 POP JUMP JUMPDEST PUSH2 0x1D35 DUP2 PUSH2 0x1D20 JUMP JUMPDEST DUP2 EQ PUSH2 0x1D40 JUMPI PUSH1 0x0 DUP1 REVERT JUMPDEST POP JUMP JUMPDEST PUSH1 0x0 DUP2 MLOAD SWAP1 POP PUSH2 0x1D52 DUP2 PUSH2 0x1D2C JUMP JUMPDEST SWAP3 SWAP2 POP POP JUMP JUMPDEST PUSH1 0x0 PUSH1 0x20 DUP3 DUP5 SUB SLT ISZERO PUSH2 0x1D6E JUMPI PUSH2 0x1D6D PUSH2 0x18E5 JUMP JUMPDEST JUMPDEST PUSH1 0x0 PUSH2 0x1D7C DUP5 DUP3 DUP6 ADD PUSH2 0x1D43 JUMP JUMPDEST SWAP2 POP POP SWAP3 SWAP2 POP POP JUMP JUMPDEST PUSH1 0x0 PUSH2 0x1D90 DUP3 PUSH2 0x18EA JUMP JUMPDEST SWAP2 POP PUSH2 0x1D9B DUP4 PUSH2 0x18EA JUMP JUMPDEST SWAP3 POP DUP3 PUSH32 0xFFFFFFFFFFFFFFFFFFFFFFFFFFFFFFFFFFFFFFFFFFFFFFFFFFFFFFFFFFFFFFFF SUB DUP3 GT ISZERO PUSH2 0x1DD0 JUMPI PUSH2 0x1DCF PUSH2 0x1AAB JUMP JUMPDEST JUMPDEST DUP3 DUP3 ADD SWAP1 POP SWAP3 SWAP2 POP POP JUMP JUMPDEST PUSH1 0x0 PUSH1 0x60 DUP3 ADD SWAP1 POP PUSH2 0x1DF0 PUSH1 0x0 DUP4 ADD DUP7 PUSH2 0x1B94 JUMP JUMPDEST PUSH2 0x1DFD PUSH1 0x20 DUP4 ADD DUP6 PUSH2 0x1B94 JUMP JUMPDEST PUSH2 0x1E0A PUSH1 0x40 DUP4 ADD DUP5 PUSH2 0x19BE JUMP JUMPDEST SWAP5 SWAP4 POP POP POP POP JUMP INVALID LOG2 PUSH5 0x6970667358 0x22 SLT KECCAK256 SWAP5 0xDD 0xD7 0xBB 0xA9 CODESIZE 0xDE DELEGATECALL MULMOD 0xA7 SWAP15 0xE5 CHAINID 0x27 SWAP13 PUSH20 0xC1B71BC38C24BAA2B4CD9F6F324AE00764736F6C PUSH4 0x4300080F STOP CALLER "
				},
				"gasEstimates": {
					"creation": {
						"codeDepositCost": "1550400",
						"executionCost": "1624",
						"totalCost": "1552024"
					},
					"external": {
						"deposit()": "infinite",
						"deposit(address)": "infinite",
						"ercToEth(uint256)": "infinite",
						"ethToErc()": "infinite",
						"ethToErc(address)": "infinite",
						"getBalance()": "385",
						"getTokenBalance()": "infinite",
						"initialize(address,uint256)": "infinite",
						"liquidity(address)": "2903",
						"liquidityAdded(uint256)": "infinite",
						"liquiditySubstracted(uint256)": "infinite",
						"priceERC(uint256)": "infinite",
						"priceETH(uint256)": "infinite",
						"total_liquidity()": "2452",
						"withdraw(uint256)": "infinite",
						"withdraw(uint256,address)": "infinite"
					},
					"internal": {
						"calculatePrice(uint256,uint256,uint256)": "infinite"
					}
				},
				"methodIdentifiers": {
					"deposit()": "d0e30db0",
					"deposit(address)": "f340fa01",
					"ercToEth(uint256)": "debc674c",
					"ethToErc()": "7937c03d",
					"ethToErc(address)": "a5b8b16f",
					"getBalance()": "12065fe0",
					"getTokenBalance()": "82b2e257",
					"initialize(address,uint256)": "cd6dc687",
					"liquidity(address)": "b8c876b1",
					"liquidityAdded(uint256)": "5f244d4e",
					"liquiditySubstracted(uint256)": "1eb928aa",
					"priceERC(uint256)": "72a9d124",
					"priceETH(uint256)": "67da263d",
					"total_liquidity()": "31f3bd28",
					"withdraw(uint256)": "2e1a7d4d",
					"withdraw(uint256,address)": "00f714ce"
				}
			},
			"storageLayout": {
				"storage": [
					{
						"astId": 716,
						"contract": "PFG/AMM.sol:DEX",
						"label": "tokenERC",
						"offset": 0,
						"slot": "0",
						"type": "t_contract(IERC20)663"
					},
					{
						"astId": 718,
						"contract": "PFG/AMM.sol:DEX",
						"label": "total_liquidity",
						"offset": 0,
						"slot": "1",
						"type": "t_uint256"
					},
					{
						"astId": 722,
						"contract": "PFG/AMM.sol:DEX",
						"label": "liquidity",
						"offset": 0,
						"slot": "2",
						"type": "t_mapping(t_address,t_uint256)"
					}
				],
				"types": {
					"t_address": {
						"encoding": "inplace",
						"label": "address",
						"numberOfBytes": "20"
					},
					"t_contract(IERC20)663": {
						"encoding": "inplace",
						"label": "contract IERC20",
						"numberOfBytes": "20"
					},
					"t_mapping(t_address,t_uint256)": {
						"encoding": "mapping",
						"key": "t_address",
						"label": "mapping(address => uint256)",
						"numberOfBytes": "32",
						"value": "t_uint256"
					},
					"t_uint256": {
						"encoding": "inplace",
						"label": "uint256",
						"numberOfBytes": "32"
					}
				}
			},
			"userdoc": {
				"kind": "user",
				"methods": {},
				"version": 1
			}
		}
	}
}