{
	"PFG/AMM.sol": {
		"DEX": {
			"abi": [
				{
					"anonymous": false,
					"inputs": [
						{
							"indexed": false,
							"internalType": "uint256",
							"name": "_value",
							"type": "uint256"
						}
					],
					"name": "Deposit",
					"type": "event"
				},
				{
					"anonymous": false,
					"inputs": [
						{
							"indexed": false,
							"internalType": "uint256",
							"name": "_value",
							"type": "uint256"
						}
					],
					"name": "ETHSwapped",
					"type": "event"
				},
				{
					"anonymous": false,
					"inputs": [
						{
							"indexed": false,
							"internalType": "uint256",
							"name": "_value",
							"type": "uint256"
						}
					],
					"name": "Initialize",
					"type": "event"
				},
				{
					"anonymous": false,
					"inputs": [
						{
							"indexed": false,
							"internalType": "uint256",
							"name": "_value",
							"type": "uint256"
						}
					],
					"name": "TokensSwapped",
					"type": "event"
				},
				{
					"anonymous": false,
					"inputs": [
						{
							"indexed": false,
							"internalType": "uint256",
							"name": "_valueETH",
							"type": "uint256"
						},
						{
							"indexed": false,
							"internalType": "uint256",
							"name": "_valueToken",
							"type": "uint256"
						}
					],
					"name": "Withdraw",
					"type": "event"
				},
				{
					"inputs": [],
					"name": "deposit",
					"outputs": [],
					"stateMutability": "payable",
					"type": "function"
				},
				{
					"inputs": [
						{
							"internalType": "uint256",
							"name": "token_amount",
							"type": "uint256"
						}
					],
					"name": "ercToEth",
					"outputs": [],
					"stateMutability": "nonpayable",
					"type": "function"
				},
				{
					"inputs": [],
					"name": "ethToErc",
					"outputs": [],
					"stateMutability": "payable",
					"type": "function"
				},
				{
					"inputs": [],
					"name": "getBalance",
					"outputs": [
						{
							"internalType": "uint256",
							"name": "",
							"type": "uint256"
						}
					],
					"stateMutability": "view",
					"type": "function"
				},
				{
					"inputs": [],
					"name": "getTokenBalance",
					"outputs": [
						{
							"internalType": "uint256",
							"name": "",
							"type": "uint256"
						}
					],
					"stateMutability": "view",
					"type": "function"
				},
				{
					"inputs": [
						{
							"internalType": "address",
							"name": "token_address",
							"type": "address"
						},
						{
							"internalType": "uint256",
							"name": "token_amount",
							"type": "uint256"
						}
					],
					"name": "initialize",
					"outputs": [],
					"stateMutability": "payable",
					"type": "function"
				},
				{
					"inputs": [
						{
							"internalType": "address",
							"name": "",
							"type": "address"
						}
					],
					"name": "liquidity",
					"outputs": [
						{
							"internalType": "uint256",
							"name": "",
							"type": "uint256"
						}
					],
					"stateMutability": "view",
					"type": "function"
				},
				{
					"inputs": [],
					"name": "total_liquidity",
					"outputs": [
						{
							"internalType": "uint256",
							"name": "",
							"type": "uint256"
						}
					],
					"stateMutability": "view",
					"type": "function"
				},
				{
					"inputs": [
						{
							"internalType": "uint256",
							"name": "value",
							"type": "uint256"
						}
					],
					"name": "withdraw",
					"outputs": [],
					"stateMutability": "nonpayable",
					"type": "function"
				}
			],
			"devdoc": {
				"kind": "dev",
				"methods": {},
				"version": 1
			},
			"evm": {
				"assembly": "    /* \"PFG/AMM.sol\":190:3264  contract DEX {\r... */\n  mstore(0x40, 0x80)\n  callvalue\n  dup1\n  iszero\n  tag_1\n  jumpi\n  0x00\n  dup1\n  revert\ntag_1:\n  pop\n  dataSize(sub_0)\n  dup1\n  dataOffset(sub_0)\n  0x00\n  codecopy\n  0x00\n  return\nstop\n\nsub_0: assembly {\n        /* \"PFG/AMM.sol\":190:3264  contract DEX {\r... */\n      mstore(0x40, 0x80)\n      jumpi(tag_1, lt(calldatasize, 0x04))\n      shr(0xe0, calldataload(0x00))\n      dup1\n      0x82b2e257\n      gt\n      tag_11\n      jumpi\n      dup1\n      0x82b2e257\n      eq\n      tag_6\n      jumpi\n      dup1\n      0xb8c876b1\n      eq\n      tag_7\n      jumpi\n      dup1\n      0xcd6dc687\n      eq\n      tag_8\n      jumpi\n      dup1\n      0xd0e30db0\n      eq\n      tag_9\n      jumpi\n      dup1\n      0xdebc674c\n      eq\n      tag_10\n      jumpi\n      jump(tag_1)\n    tag_11:\n      dup1\n      0x12065fe0\n      eq\n      tag_2\n      jumpi\n      dup1\n      0x2e1a7d4d\n      eq\n      tag_3\n      jumpi\n      dup1\n      0x31f3bd28\n      eq\n      tag_4\n      jumpi\n      dup1\n      0x7937c03d\n      eq\n      tag_5\n      jumpi\n    tag_1:\n      0x00\n      dup1\n      revert\n        /* \"PFG/AMM.sol\":3166:3261  function getBalance() external view returns (uint256) {\r... */\n    tag_2:\n      callvalue\n      dup1\n      iszero\n      tag_12\n      jumpi\n      0x00\n      dup1\n      revert\n    tag_12:\n      pop\n      tag_13\n      tag_14\n      jump\t// in\n    tag_13:\n      mload(0x40)\n      tag_15\n      swap2\n      swap1\n      tag_16\n      jump\t// in\n    tag_15:\n      mload(0x40)\n      dup1\n      swap2\n      sub\n      swap1\n      return\n        /* \"PFG/AMM.sol\":2477:3042  function withdraw(uint256 value) external {\r... */\n    tag_3:\n      callvalue\n      dup1\n      iszero\n      tag_17\n      jumpi\n      0x00\n      dup1\n      revert\n    tag_17:\n      pop\n      tag_18\n      0x04\n      dup1\n      calldatasize\n      sub\n      dup2\n      add\n      swap1\n      tag_19\n      swap2\n      swap1\n      tag_20\n      jump\t// in\n    tag_19:\n      tag_21\n      jump\t// in\n    tag_18:\n      stop\n        /* \"PFG/AMM.sol\":234:264  uint256 public total_liquidity */\n    tag_4:\n      callvalue\n      dup1\n      iszero\n      tag_22\n      jumpi\n      0x00\n      dup1\n      revert\n    tag_22:\n      pop\n      tag_23\n      tag_24\n      jump\t// in\n    tag_23:\n      mload(0x40)\n      tag_25\n      swap2\n      swap1\n      tag_16\n      jump\t// in\n    tag_25:\n      mload(0x40)\n      dup1\n      swap2\n      sub\n      swap1\n      return\n        /* \"PFG/AMM.sol\":1200:1505  function ethToErc() external payable {\r... */\n    tag_5:\n      tag_26\n      tag_27\n      jump\t// in\n    tag_26:\n      stop\n        /* \"PFG/AMM.sol\":3048:3160  function getTokenBalance() external view returns (uint256) {\r... */\n    tag_6:\n      callvalue\n      dup1\n      iszero\n      tag_28\n      jumpi\n      0x00\n      dup1\n      revert\n    tag_28:\n      pop\n      tag_29\n      tag_30\n      jump\t// in\n    tag_29:\n      mload(0x40)\n      tag_31\n      swap2\n      swap1\n      tag_16\n      jump\t// in\n    tag_31:\n      mload(0x40)\n      dup1\n      swap2\n      sub\n      swap1\n      return\n        /* \"PFG/AMM.sol\":271:316  mapping (address => uint256) public liquidity */\n    tag_7:\n      callvalue\n      dup1\n      iszero\n      tag_32\n      jumpi\n      0x00\n      dup1\n      revert\n    tag_32:\n      pop\n      tag_33\n      0x04\n      dup1\n      calldatasize\n      sub\n      dup2\n      add\n      swap1\n      tag_34\n      swap2\n      swap1\n      tag_35\n      jump\t// in\n    tag_34:\n      tag_36\n      jump\t// in\n    tag_33:\n      mload(0x40)\n      tag_37\n      swap2\n      swap1\n      tag_16\n      jump\t// in\n    tag_37:\n      mload(0x40)\n      dup1\n      swap2\n      sub\n      swap1\n      return\n        /* \"PFG/AMM.sol\":550:963  function initialize(address token_address, uint256 token_amount) external payable {\r... */\n    tag_8:\n      tag_38\n      0x04\n      dup1\n      calldatasize\n      sub\n      dup2\n      add\n      swap1\n      tag_39\n      swap2\n      swap1\n      tag_40\n      jump\t// in\n    tag_39:\n      tag_41\n      jump\t// in\n    tag_38:\n      stop\n        /* \"PFG/AMM.sol\":1953:2471  function deposit() external payable {\r... */\n    tag_9:\n      tag_42\n      tag_43\n      jump\t// in\n    tag_42:\n      stop\n        /* \"PFG/AMM.sol\":1511:1947  function ercToEth(uint256 token_amount) external {\r... */\n    tag_10:\n      callvalue\n      dup1\n      iszero\n      tag_44\n      jumpi\n      0x00\n      dup1\n      revert\n    tag_44:\n      pop\n      tag_45\n      0x04\n      dup1\n      calldatasize\n      sub\n      dup2\n      add\n      swap1\n      tag_46\n      swap2\n      swap1\n      tag_20\n      jump\t// in\n    tag_46:\n      tag_47\n      jump\t// in\n    tag_45:\n      stop\n        /* \"PFG/AMM.sol\":3166:3261  function getBalance() external view returns (uint256) {\r... */\n    tag_14:\n        /* \"PFG/AMM.sol\":3211:3218  uint256 */\n      0x00\n        /* \"PFG/AMM.sol\":3235:3256  address(this).balance */\n      selfbalance\n        /* \"PFG/AMM.sol\":3228:3256  return address(this).balance */\n      swap1\n      pop\n        /* \"PFG/AMM.sol\":3166:3261  function getBalance() external view returns (uint256) {\r... */\n      swap1\n      jump\t// out\n        /* \"PFG/AMM.sol\":2477:3042  function withdraw(uint256 value) external {\r... */\n    tag_21:\n        /* \"PFG/AMM.sol\":2530:2547  uint256 eth_value */\n      0x00\n        /* \"PFG/AMM.sol\":2584:2599  total_liquidity */\n      sload(0x01)\n        /* \"PFG/AMM.sol\":2559:2580  address(this).balance */\n      selfbalance\n        /* \"PFG/AMM.sol\":2551:2556  value */\n      dup4\n        /* \"PFG/AMM.sol\":2551:2580  value * address(this).balance */\n      tag_50\n      swap2\n      swap1\n      tag_51\n      jump\t// in\n    tag_50:\n        /* \"PFG/AMM.sol\":2550:2599  (value * address(this).balance) / total_liquidity */\n      tag_52\n      swap2\n      swap1\n      tag_53\n      jump\t// in\n    tag_52:\n        /* \"PFG/AMM.sol\":2530:2599  uint256 eth_value = (value * address(this).balance) / total_liquidity */\n      swap1\n      pop\n        /* \"PFG/AMM.sol\":2610:2629  uint256 token_value */\n      0x00\n        /* \"PFG/AMM.sol\":2678:2693  total_liquidity */\n      sload(0x01)\n        /* \"PFG/AMM.sol\":2641:2649  tokenERC */\n      0x00\n      dup1\n      sload\n      swap1\n      0x0100\n      exp\n      swap1\n      div\n      0xffffffffffffffffffffffffffffffffffffffff\n      and\n        /* \"PFG/AMM.sol\":2641:2659  tokenERC.balanceOf */\n      0xffffffffffffffffffffffffffffffffffffffff\n      and\n      0x70a08231\n        /* \"PFG/AMM.sol\":2668:2672  this */\n      address\n        /* \"PFG/AMM.sol\":2641:2674  tokenERC.balanceOf(address(this)) */\n      mload(0x40)\n      dup3\n      0xffffffff\n      and\n      0xe0\n      shl\n      dup2\n      mstore\n      0x04\n      add\n      tag_54\n      swap2\n      swap1\n      tag_55\n      jump\t// in\n    tag_54:\n      0x20\n      mload(0x40)\n      dup1\n      dup4\n      sub\n      dup2\n      dup7\n      dup1\n      extcodesize\n      iszero\n      dup1\n      iszero\n      tag_56\n      jumpi\n      0x00\n      dup1\n      revert\n    tag_56:\n      pop\n      gas\n      staticcall\n      iszero\n      dup1\n      iszero\n      tag_58\n      jumpi\n      returndatasize\n      0x00\n      dup1\n      returndatacopy\n      revert(0x00, returndatasize)\n    tag_58:\n      pop\n      pop\n      pop\n      pop\n      mload(0x40)\n      returndatasize\n      not(0x1f)\n      0x1f\n      dup3\n      add\n      and\n      dup3\n      add\n      dup1\n      0x40\n      mstore\n      pop\n      dup2\n      add\n      swap1\n      tag_59\n      swap2\n      swap1\n      tag_60\n      jump\t// in\n    tag_59:\n        /* \"PFG/AMM.sol\":2633:2638  value */\n      dup5\n        /* \"PFG/AMM.sol\":2633:2674  value * tokenERC.balanceOf(address(this)) */\n      tag_61\n      swap2\n      swap1\n      tag_51\n      jump\t// in\n    tag_61:\n        /* \"PFG/AMM.sol\":2632:2693  (value * tokenERC.balanceOf(address(this))) / total_liquidity */\n      tag_62\n      swap2\n      swap1\n      tag_53\n      jump\t// in\n    tag_62:\n        /* \"PFG/AMM.sol\":2610:2693  uint256 token_value = (value * tokenERC.balanceOf(address(this))) / total_liquidity */\n      swap1\n      pop\n        /* \"PFG/AMM.sol\":2739:2748  eth_value */\n      dup2\n        /* \"PFG/AMM.sol\":2714:2723  liquidity */\n      0x02\n        /* \"PFG/AMM.sol\":2714:2735  liquidity[msg.sender] */\n      0x00\n        /* \"PFG/AMM.sol\":2724:2734  msg.sender */\n      caller\n        /* \"PFG/AMM.sol\":2714:2735  liquidity[msg.sender] */\n      0xffffffffffffffffffffffffffffffffffffffff\n      and\n      0xffffffffffffffffffffffffffffffffffffffff\n      and\n      dup2\n      mstore\n      0x20\n      add\n      swap1\n      dup2\n      mstore\n      0x20\n      add\n      0x00\n      keccak256\n      0x00\n        /* \"PFG/AMM.sol\":2714:2748  liquidity[msg.sender] -= eth_value */\n      dup3\n      dup3\n      sload\n      tag_63\n      swap2\n      swap1\n      tag_64\n      jump\t// in\n    tag_63:\n      swap3\n      pop\n      pop\n      dup2\n      swap1\n      sstore\n      pop\n        /* \"PFG/AMM.sol\":2778:2787  eth_value */\n      dup2\n        /* \"PFG/AMM.sol\":2759:2774  total_liquidity */\n      0x01\n      0x00\n        /* \"PFG/AMM.sol\":2759:2787  total_liquidity -= eth_value */\n      dup3\n      dup3\n      sload\n      tag_65\n      swap2\n      swap1\n      tag_64\n      jump\t// in\n    tag_65:\n      swap3\n      pop\n      pop\n      dup2\n      swap1\n      sstore\n      pop\n        /* \"PFG/AMM.sol\":2809:2821  bool success */\n      0x00\n        /* \"PFG/AMM.sol\":2827:2837  msg.sender */\n      caller\n        /* \"PFG/AMM.sol\":2827:2842  msg.sender.call */\n      0xffffffffffffffffffffffffffffffffffffffff\n      and\n        /* \"PFG/AMM.sol\":2850:2859  eth_value */\n      dup4\n        /* \"PFG/AMM.sol\":2827:2864  msg.sender.call{value: eth_value}(\"\") */\n      mload(0x40)\n      tag_66\n      swap1\n      tag_67\n      jump\t// in\n    tag_66:\n      0x00\n      mload(0x40)\n      dup1\n      dup4\n      sub\n      dup2\n      dup6\n      dup8\n      gas\n      call\n      swap3\n      pop\n      pop\n      pop\n      returndatasize\n      dup1\n      0x00\n      dup2\n      eq\n      tag_70\n      jumpi\n      mload(0x40)\n      swap2\n      pop\n      and(add(returndatasize, 0x3f), not(0x1f))\n      dup3\n      add\n      0x40\n      mstore\n      returndatasize\n      dup3\n      mstore\n      returndatasize\n      0x00\n      0x20\n      dup5\n      add\n      returndatacopy\n      jump(tag_69)\n    tag_70:\n      0x60\n      swap2\n      pop\n    tag_69:\n      pop\n        /* \"PFG/AMM.sol\":2808:2864  (bool success, ) = msg.sender.call{value: eth_value}(\"\") */\n      pop\n      swap1\n      pop\n        /* \"PFG/AMM.sol\":2883:2890  success */\n      dup1\n        /* \"PFG/AMM.sol\":2875:2911  require(success, \"Transfer failed.\") */\n      tag_71\n      jumpi\n      mload(0x40)\n      0x08c379a000000000000000000000000000000000000000000000000000000000\n      dup2\n      mstore\n      0x04\n      add\n      tag_72\n      swap1\n      tag_73\n      jump\t// in\n    tag_72:\n      mload(0x40)\n      dup1\n      swap2\n      sub\n      swap1\n      revert\n    tag_71:\n        /* \"PFG/AMM.sol\":2936:2944  tokenERC */\n      0x00\n      dup1\n      sload\n      swap1\n      0x0100\n      exp\n      swap1\n      div\n      0xffffffffffffffffffffffffffffffffffffffff\n      and\n        /* \"PFG/AMM.sol\":2936:2953  tokenERC.transfer */\n      0xffffffffffffffffffffffffffffffffffffffff\n      and\n      0xa9059cbb\n        /* \"PFG/AMM.sol\":2954:2964  msg.sender */\n      caller\n        /* \"PFG/AMM.sol\":2966:2977  token_value */\n      dup5\n        /* \"PFG/AMM.sol\":2936:2978  tokenERC.transfer(msg.sender, token_value) */\n      mload(0x40)\n      dup4\n      0xffffffff\n      and\n      0xe0\n      shl\n      dup2\n      mstore\n      0x04\n      add\n      tag_74\n      swap3\n      swap2\n      swap1\n      tag_75\n      jump\t// in\n    tag_74:\n      0x20\n      mload(0x40)\n      dup1\n      dup4\n      sub\n      dup2\n      0x00\n      dup8\n      dup1\n      extcodesize\n      iszero\n      dup1\n      iszero\n      tag_76\n      jumpi\n      0x00\n      dup1\n      revert\n    tag_76:\n      pop\n      gas\n      call\n      iszero\n      dup1\n      iszero\n      tag_78\n      jumpi\n      returndatasize\n      0x00\n      dup1\n      returndatacopy\n      revert(0x00, returndatasize)\n    tag_78:\n      pop\n      pop\n      pop\n      pop\n      mload(0x40)\n      returndatasize\n      not(0x1f)\n      0x1f\n      dup3\n      add\n      and\n      dup3\n      add\n      dup1\n      0x40\n      mstore\n      pop\n      dup2\n      add\n      swap1\n      tag_79\n      swap2\n      swap1\n      tag_80\n      jump\t// in\n    tag_79:\n        /* \"PFG/AMM.sol\":2928:2979  require(tokenERC.transfer(msg.sender, token_value)) */\n      tag_81\n      jumpi\n      0x00\n      dup1\n      revert\n    tag_81:\n        /* \"PFG/AMM.sol\":3005:3037  Withdraw(eth_value, token_value) */\n      0x56ca301a9219608c91e7bcee90e083c19671d2cdcc96752c7af291cee5f9c8c8\n        /* \"PFG/AMM.sol\":3014:3023  eth_value */\n      dup4\n        /* \"PFG/AMM.sol\":3025:3036  token_value */\n      dup4\n        /* \"PFG/AMM.sol\":3005:3037  Withdraw(eth_value, token_value) */\n      mload(0x40)\n      tag_82\n      swap3\n      swap2\n      swap1\n      tag_83\n      jump\t// in\n    tag_82:\n      mload(0x40)\n      dup1\n      swap2\n      sub\n      swap1\n      log1\n        /* \"PFG/AMM.sol\":2519:3042  {\r... */\n      pop\n      pop\n      pop\n        /* \"PFG/AMM.sol\":2477:3042  function withdraw(uint256 value) external {\r... */\n      pop\n      jump\t// out\n        /* \"PFG/AMM.sol\":234:264  uint256 public total_liquidity */\n    tag_24:\n      sload(0x01)\n      dup2\n      jump\t// out\n        /* \"PFG/AMM.sol\":1200:1505  function ethToErc() external payable {\r... */\n    tag_27:\n        /* \"PFG/AMM.sol\":1248:1270  uint256 tokens_swapped */\n      0x00\n        /* \"PFG/AMM.sol\":1273:1370  calculatePrice(msg.value, (address(this).balance - msg.value), tokenERC.balanceOf(address(this))) */\n      tag_85\n        /* \"PFG/AMM.sol\":1288:1297  msg.value */\n      callvalue\n        /* \"PFG/AMM.sol\":1324:1333  msg.value */\n      callvalue\n        /* \"PFG/AMM.sol\":1300:1321  address(this).balance */\n      selfbalance\n        /* \"PFG/AMM.sol\":1300:1333  address(this).balance - msg.value */\n      tag_86\n      swap2\n      swap1\n      tag_64\n      jump\t// in\n    tag_86:\n        /* \"PFG/AMM.sol\":1336:1344  tokenERC */\n      0x00\n      dup1\n      sload\n      swap1\n      0x0100\n      exp\n      swap1\n      div\n      0xffffffffffffffffffffffffffffffffffffffff\n      and\n        /* \"PFG/AMM.sol\":1336:1354  tokenERC.balanceOf */\n      0xffffffffffffffffffffffffffffffffffffffff\n      and\n      0x70a08231\n        /* \"PFG/AMM.sol\":1363:1367  this */\n      address\n        /* \"PFG/AMM.sol\":1336:1369  tokenERC.balanceOf(address(this)) */\n      mload(0x40)\n      dup3\n      0xffffffff\n      and\n      0xe0\n      shl\n      dup2\n      mstore\n      0x04\n      add\n      tag_87\n      swap2\n      swap1\n      tag_55\n      jump\t// in\n    tag_87:\n      0x20\n      mload(0x40)\n      dup1\n      dup4\n      sub\n      dup2\n      dup7\n      dup1\n      extcodesize\n      iszero\n      dup1\n      iszero\n      tag_88\n      jumpi\n      0x00\n      dup1\n      revert\n    tag_88:\n      pop\n      gas\n      staticcall\n      iszero\n      dup1\n      iszero\n      tag_90\n      jumpi\n      returndatasize\n      0x00\n      dup1\n      returndatacopy\n      revert(0x00, returndatasize)\n    tag_90:\n      pop\n      pop\n      pop\n      pop\n      mload(0x40)\n      returndatasize\n      not(0x1f)\n      0x1f\n      dup3\n      add\n      and\n      dup3\n      add\n      dup1\n      0x40\n      mstore\n      pop\n      dup2\n      add\n      swap1\n      tag_91\n      swap2\n      swap1\n      tag_60\n      jump\t// in\n    tag_91:\n        /* \"PFG/AMM.sol\":1273:1287  calculatePrice */\n      tag_92\n        /* \"PFG/AMM.sol\":1273:1370  calculatePrice(msg.value, (address(this).balance - msg.value), tokenERC.balanceOf(address(this))) */\n      jump\t// in\n    tag_85:\n        /* \"PFG/AMM.sol\":1248:1370  uint256 tokens_swapped = calculatePrice(msg.value, (address(this).balance - msg.value), tokenERC.balanceOf(address(this))) */\n      swap1\n      pop\n        /* \"PFG/AMM.sol\":1399:1407  tokenERC */\n      0x00\n      dup1\n      sload\n      swap1\n      0x0100\n      exp\n      swap1\n      div\n      0xffffffffffffffffffffffffffffffffffffffff\n      and\n        /* \"PFG/AMM.sol\":1399:1416  tokenERC.transfer */\n      0xffffffffffffffffffffffffffffffffffffffff\n      and\n      0xa9059cbb\n        /* \"PFG/AMM.sol\":1417:1427  msg.sender */\n      caller\n        /* \"PFG/AMM.sol\":1429:1443  tokens_swapped */\n      dup4\n        /* \"PFG/AMM.sol\":1399:1444  tokenERC.transfer(msg.sender, tokens_swapped) */\n      mload(0x40)\n      dup4\n      0xffffffff\n      and\n      0xe0\n      shl\n      dup2\n      mstore\n      0x04\n      add\n      tag_93\n      swap3\n      swap2\n      swap1\n      tag_75\n      jump\t// in\n    tag_93:\n      0x20\n      mload(0x40)\n      dup1\n      dup4\n      sub\n      dup2\n      0x00\n      dup8\n      dup1\n      extcodesize\n      iszero\n      dup1\n      iszero\n      tag_94\n      jumpi\n      0x00\n      dup1\n      revert\n    tag_94:\n      pop\n      gas\n      call\n      iszero\n      dup1\n      iszero\n      tag_96\n      jumpi\n      returndatasize\n      0x00\n      dup1\n      returndatacopy\n      revert(0x00, returndatasize)\n    tag_96:\n      pop\n      pop\n      pop\n      pop\n      mload(0x40)\n      returndatasize\n      not(0x1f)\n      0x1f\n      dup3\n      add\n      and\n      dup3\n      add\n      dup1\n      0x40\n      mstore\n      pop\n      dup2\n      add\n      swap1\n      tag_97\n      swap2\n      swap1\n      tag_80\n      jump\t// in\n    tag_97:\n        /* \"PFG/AMM.sol\":1391:1445  require(tokenERC.transfer(msg.sender, tokens_swapped)) */\n      tag_98\n      jumpi\n      0x00\n      dup1\n      revert\n    tag_98:\n        /* \"PFG/AMM.sol\":1471:1500  TokensSwapped(tokens_swapped) */\n      0xdb04c7a6d4758fd55d738ebc67e7f3010ac922be00771ef29521a4090d1eb13f\n        /* \"PFG/AMM.sol\":1485:1499  tokens_swapped */\n      dup2\n        /* \"PFG/AMM.sol\":1471:1500  TokensSwapped(tokens_swapped) */\n      mload(0x40)\n      tag_99\n      swap2\n      swap1\n      tag_16\n      jump\t// in\n    tag_99:\n      mload(0x40)\n      dup1\n      swap2\n      sub\n      swap1\n      log1\n        /* \"PFG/AMM.sol\":1237:1505  {\r... */\n      pop\n        /* \"PFG/AMM.sol\":1200:1505  function ethToErc() external payable {\r... */\n      jump\t// out\n        /* \"PFG/AMM.sol\":3048:3160  function getTokenBalance() external view returns (uint256) {\r... */\n    tag_30:\n        /* \"PFG/AMM.sol\":3098:3105  uint256 */\n      0x00\n        /* \"PFG/AMM.sol\":3122:3130  tokenERC */\n      dup1\n      0x00\n      swap1\n      sload\n      swap1\n      0x0100\n      exp\n      swap1\n      div\n      0xffffffffffffffffffffffffffffffffffffffff\n      and\n        /* \"PFG/AMM.sol\":3122:3140  tokenERC.balanceOf */\n      0xffffffffffffffffffffffffffffffffffffffff\n      and\n      0x70a08231\n        /* \"PFG/AMM.sol\":3149:3153  this */\n      address\n        /* \"PFG/AMM.sol\":3122:3155  tokenERC.balanceOf(address(this)) */\n      mload(0x40)\n      dup3\n      0xffffffff\n      and\n      0xe0\n      shl\n      dup2\n      mstore\n      0x04\n      add\n      tag_101\n      swap2\n      swap1\n      tag_55\n      jump\t// in\n    tag_101:\n      0x20\n      mload(0x40)\n      dup1\n      dup4\n      sub\n      dup2\n      dup7\n      dup1\n      extcodesize\n      iszero\n      dup1\n      iszero\n      tag_102\n      jumpi\n      0x00\n      dup1\n      revert\n    tag_102:\n      pop\n      gas\n      staticcall\n      iszero\n      dup1\n      iszero\n      tag_104\n      jumpi\n      returndatasize\n      0x00\n      dup1\n      returndatacopy\n      revert(0x00, returndatasize)\n    tag_104:\n      pop\n      pop\n      pop\n      pop\n      mload(0x40)\n      returndatasize\n      not(0x1f)\n      0x1f\n      dup3\n      add\n      and\n      dup3\n      add\n      dup1\n      0x40\n      mstore\n      pop\n      dup2\n      add\n      swap1\n      tag_105\n      swap2\n      swap1\n      tag_60\n      jump\t// in\n    tag_105:\n        /* \"PFG/AMM.sol\":3115:3155  return tokenERC.balanceOf(address(this)) */\n      swap1\n      pop\n        /* \"PFG/AMM.sol\":3048:3160  function getTokenBalance() external view returns (uint256) {\r... */\n      swap1\n      jump\t// out\n        /* \"PFG/AMM.sol\":271:316  mapping (address => uint256) public liquidity */\n    tag_36:\n      mstore(0x20, 0x02)\n      dup1\n      0x00\n      mstore\n      keccak256(0x00, 0x40)\n      0x00\n      swap2\n      pop\n      swap1\n      pop\n      sload\n      dup2\n      jump\t// out\n        /* \"PFG/AMM.sol\":550:963  function initialize(address token_address, uint256 token_amount) external payable {\r... */\n    tag_41:\n        /* \"PFG/AMM.sol\":667:668  0 */\n      0x00\n        /* \"PFG/AMM.sol\":648:663  total_liquidity */\n      sload(0x01)\n        /* \"PFG/AMM.sol\":648:668  total_liquidity == 0 */\n      eq\n        /* \"PFG/AMM.sol\":640:669  require(total_liquidity == 0) */\n      tag_107\n      jumpi\n      0x00\n      dup1\n      revert\n    tag_107:\n        /* \"PFG/AMM.sol\":702:715  token_address */\n      dup2\n        /* \"PFG/AMM.sol\":684:692  tokenERC */\n      0x00\n      dup1\n        /* \"PFG/AMM.sol\":684:716  tokenERC = IERC20(token_address) */\n      0x0100\n      exp\n      dup2\n      sload\n      dup2\n      0xffffffffffffffffffffffffffffffffffffffff\n      mul\n      not\n      and\n      swap1\n      dup4\n      0xffffffffffffffffffffffffffffffffffffffff\n      and\n      mul\n      or\n      swap1\n      sstore\n      pop\n        /* \"PFG/AMM.sol\":742:763  address(this).balance */\n      selfbalance\n        /* \"PFG/AMM.sol\":724:739  total_liquidity */\n      0x01\n        /* \"PFG/AMM.sol\":724:763  total_liquidity = address(this).balance */\n      dup2\n      swap1\n      sstore\n      pop\n        /* \"PFG/AMM.sol\":798:813  total_liquidity */\n      sload(0x01)\n        /* \"PFG/AMM.sol\":774:783  liquidity */\n      0x02\n        /* \"PFG/AMM.sol\":774:795  liquidity[msg.sender] */\n      0x00\n        /* \"PFG/AMM.sol\":784:794  msg.sender */\n      caller\n        /* \"PFG/AMM.sol\":774:795  liquidity[msg.sender] */\n      0xffffffffffffffffffffffffffffffffffffffff\n      and\n      0xffffffffffffffffffffffffffffffffffffffff\n      and\n      dup2\n      mstore\n      0x20\n      add\n      swap1\n      dup2\n      mstore\n      0x20\n      add\n      0x00\n      keccak256\n        /* \"PFG/AMM.sol\":774:813  liquidity[msg.sender] = total_liquidity */\n      dup2\n      swap1\n      sstore\n      pop\n        /* \"PFG/AMM.sol\":842:850  tokenERC */\n      0x00\n      dup1\n      sload\n      swap1\n      0x0100\n      exp\n      swap1\n      div\n      0xffffffffffffffffffffffffffffffffffffffff\n      and\n        /* \"PFG/AMM.sol\":842:863  tokenERC.transferFrom */\n      0xffffffffffffffffffffffffffffffffffffffff\n      and\n      0x23b872dd\n        /* \"PFG/AMM.sol\":864:874  msg.sender */\n      caller\n        /* \"PFG/AMM.sol\":884:888  this */\n      address\n        /* \"PFG/AMM.sol\":891:903  token_amount */\n      dup5\n        /* \"PFG/AMM.sol\":842:904  tokenERC.transferFrom(msg.sender, address(this), token_amount) */\n      mload(0x40)\n      dup5\n      0xffffffff\n      and\n      0xe0\n      shl\n      dup2\n      mstore\n      0x04\n      add\n      tag_108\n      swap4\n      swap3\n      swap2\n      swap1\n      tag_109\n      jump\t// in\n    tag_108:\n      0x20\n      mload(0x40)\n      dup1\n      dup4\n      sub\n      dup2\n      0x00\n      dup8\n      dup1\n      extcodesize\n      iszero\n      dup1\n      iszero\n      tag_110\n      jumpi\n      0x00\n      dup1\n      revert\n    tag_110:\n      pop\n      gas\n      call\n      iszero\n      dup1\n      iszero\n      tag_112\n      jumpi\n      returndatasize\n      0x00\n      dup1\n      returndatacopy\n      revert(0x00, returndatasize)\n    tag_112:\n      pop\n      pop\n      pop\n      pop\n      mload(0x40)\n      returndatasize\n      not(0x1f)\n      0x1f\n      dup3\n      add\n      and\n      dup3\n      add\n      dup1\n      0x40\n      mstore\n      pop\n      dup2\n      add\n      swap1\n      tag_113\n      swap2\n      swap1\n      tag_80\n      jump\t// in\n    tag_113:\n        /* \"PFG/AMM.sol\":834:905  require(tokenERC.transferFrom(msg.sender, address(this), token_amount)) */\n      tag_114\n      jumpi\n      0x00\n      dup1\n      revert\n    tag_114:\n        /* \"PFG/AMM.sol\":931:958  Initialize(total_liquidity) */\n      0xc43e48cf47e9fa186d0f4096c61d1fcb54159799f935a2aa32e5589688ee36e1\n        /* \"PFG/AMM.sol\":942:957  total_liquidity */\n      sload(0x01)\n        /* \"PFG/AMM.sol\":931:958  Initialize(total_liquidity) */\n      mload(0x40)\n      tag_115\n      swap2\n      swap1\n      tag_16\n      jump\t// in\n    tag_115:\n      mload(0x40)\n      dup1\n      swap2\n      sub\n      swap1\n      log1\n        /* \"PFG/AMM.sol\":550:963  function initialize(address token_address, uint256 token_amount) external payable {\r... */\n      pop\n      pop\n      jump\t// out\n        /* \"PFG/AMM.sol\":1953:2471  function deposit() external payable {\r... */\n    tag_43:\n        /* \"PFG/AMM.sol\":2000:2020  uint256 token_amount */\n      0x00\n        /* \"PFG/AMM.sol\":2113:2114  1 */\n      0x01\n        /* \"PFG/AMM.sol\":2099:2108  msg.value */\n      callvalue\n        /* \"PFG/AMM.sol\":2075:2096  address(this).balance */\n      selfbalance\n        /* \"PFG/AMM.sol\":2075:2108  address(this).balance - msg.value */\n      tag_117\n      swap2\n      swap1\n      tag_64\n      jump\t// in\n    tag_117:\n        /* \"PFG/AMM.sol\":2037:2045  tokenERC */\n      0x00\n      dup1\n      sload\n      swap1\n      0x0100\n      exp\n      swap1\n      div\n      0xffffffffffffffffffffffffffffffffffffffff\n      and\n        /* \"PFG/AMM.sol\":2037:2055  tokenERC.balanceOf */\n      0xffffffffffffffffffffffffffffffffffffffff\n      and\n      0x70a08231\n        /* \"PFG/AMM.sol\":2064:2068  this */\n      address\n        /* \"PFG/AMM.sol\":2037:2070  tokenERC.balanceOf(address(this)) */\n      mload(0x40)\n      dup3\n      0xffffffff\n      and\n      0xe0\n      shl\n      dup2\n      mstore\n      0x04\n      add\n      tag_118\n      swap2\n      swap1\n      tag_55\n      jump\t// in\n    tag_118:\n      0x20\n      mload(0x40)\n      dup1\n      dup4\n      sub\n      dup2\n      dup7\n      dup1\n      extcodesize\n      iszero\n      dup1\n      iszero\n      tag_119\n      jumpi\n      0x00\n      dup1\n      revert\n    tag_119:\n      pop\n      gas\n      staticcall\n      iszero\n      dup1\n      iszero\n      tag_121\n      jumpi\n      returndatasize\n      0x00\n      dup1\n      returndatacopy\n      revert(0x00, returndatasize)\n    tag_121:\n      pop\n      pop\n      pop\n      pop\n      mload(0x40)\n      returndatasize\n      not(0x1f)\n      0x1f\n      dup3\n      add\n      and\n      dup3\n      add\n      dup1\n      0x40\n      mstore\n      pop\n      dup2\n      add\n      swap1\n      tag_122\n      swap2\n      swap1\n      tag_60\n      jump\t// in\n    tag_122:\n        /* \"PFG/AMM.sol\":2025:2034  msg.value */\n      callvalue\n        /* \"PFG/AMM.sol\":2025:2070  msg.value * tokenERC.balanceOf(address(this)) */\n      tag_123\n      swap2\n      swap1\n      tag_51\n      jump\t// in\n    tag_123:\n        /* \"PFG/AMM.sol\":2024:2109  (msg.value * tokenERC.balanceOf(address(this))) / (address(this).balance - msg.value) */\n      tag_124\n      swap2\n      swap1\n      tag_53\n      jump\t// in\n    tag_124:\n        /* \"PFG/AMM.sol\":2023:2114  ((msg.value * tokenERC.balanceOf(address(this))) / (address(this).balance - msg.value)) + 1 */\n      tag_125\n      swap2\n      swap1\n      tag_126\n      jump\t// in\n    tag_125:\n        /* \"PFG/AMM.sol\":2000:2114  uint256 token_amount = ((msg.value * tokenERC.balanceOf(address(this))) / (address(this).balance - msg.value)) + 1 */\n      swap1\n      pop\n        /* \"PFG/AMM.sol\":2125:2148  uint256 liquidity_added */\n      0x00\n        /* \"PFG/AMM.sol\":2208:2217  msg.value */\n      callvalue\n        /* \"PFG/AMM.sol\":2184:2205  address(this).balance */\n      selfbalance\n        /* \"PFG/AMM.sol\":2184:2217  address(this).balance - msg.value */\n      tag_127\n      swap2\n      swap1\n      tag_64\n      jump\t// in\n    tag_127:\n        /* \"PFG/AMM.sol\":2164:2179  total_liquidity */\n      sload(0x01)\n        /* \"PFG/AMM.sol\":2152:2161  msg.value */\n      callvalue\n        /* \"PFG/AMM.sol\":2152:2179  msg.value * total_liquidity */\n      tag_128\n      swap2\n      swap1\n      tag_51\n      jump\t// in\n    tag_128:\n        /* \"PFG/AMM.sol\":2151:2218  (msg.value * total_liquidity) / (address(this).balance - msg.value) */\n      tag_129\n      swap2\n      swap1\n      tag_53\n      jump\t// in\n    tag_129:\n        /* \"PFG/AMM.sol\":2125:2218  uint256 liquidity_added = (msg.value * total_liquidity) / (address(this).balance - msg.value) */\n      swap1\n      pop\n        /* \"PFG/AMM.sol\":2264:2279  liquidity_added */\n      dup1\n        /* \"PFG/AMM.sol\":2239:2248  liquidity */\n      0x02\n        /* \"PFG/AMM.sol\":2239:2260  liquidity[msg.sender] */\n      0x00\n        /* \"PFG/AMM.sol\":2249:2259  msg.sender */\n      caller\n        /* \"PFG/AMM.sol\":2239:2260  liquidity[msg.sender] */\n      0xffffffffffffffffffffffffffffffffffffffff\n      and\n      0xffffffffffffffffffffffffffffffffffffffff\n      and\n      dup2\n      mstore\n      0x20\n      add\n      swap1\n      dup2\n      mstore\n      0x20\n      add\n      0x00\n      keccak256\n      0x00\n        /* \"PFG/AMM.sol\":2239:2279  liquidity[msg.sender] += liquidity_added */\n      dup3\n      dup3\n      sload\n      tag_130\n      swap2\n      swap1\n      tag_126\n      jump\t// in\n    tag_130:\n      swap3\n      pop\n      pop\n      dup2\n      swap1\n      sstore\n      pop\n        /* \"PFG/AMM.sol\":2309:2324  liquidity_added */\n      dup1\n        /* \"PFG/AMM.sol\":2290:2305  total_liquidity */\n      0x01\n      0x00\n        /* \"PFG/AMM.sol\":2290:2324  total_liquidity += liquidity_added */\n      dup3\n      dup3\n      sload\n      tag_131\n      swap2\n      swap1\n      tag_126\n      jump\t// in\n    tag_131:\n      swap3\n      pop\n      pop\n      dup2\n      swap1\n      sstore\n      pop\n        /* \"PFG/AMM.sol\":2353:2361  tokenERC */\n      0x00\n      dup1\n      sload\n      swap1\n      0x0100\n      exp\n      swap1\n      div\n      0xffffffffffffffffffffffffffffffffffffffff\n      and\n        /* \"PFG/AMM.sol\":2353:2374  tokenERC.transferFrom */\n      0xffffffffffffffffffffffffffffffffffffffff\n      and\n      0x23b872dd\n        /* \"PFG/AMM.sol\":2375:2385  msg.sender */\n      caller\n        /* \"PFG/AMM.sol\":2395:2399  this */\n      address\n        /* \"PFG/AMM.sol\":2402:2414  token_amount */\n      dup6\n        /* \"PFG/AMM.sol\":2353:2415  tokenERC.transferFrom(msg.sender, address(this), token_amount) */\n      mload(0x40)\n      dup5\n      0xffffffff\n      and\n      0xe0\n      shl\n      dup2\n      mstore\n      0x04\n      add\n      tag_132\n      swap4\n      swap3\n      swap2\n      swap1\n      tag_109\n      jump\t// in\n    tag_132:\n      0x20\n      mload(0x40)\n      dup1\n      dup4\n      sub\n      dup2\n      0x00\n      dup8\n      dup1\n      extcodesize\n      iszero\n      dup1\n      iszero\n      tag_133\n      jumpi\n      0x00\n      dup1\n      revert\n    tag_133:\n      pop\n      gas\n      call\n      iszero\n      dup1\n      iszero\n      tag_135\n      jumpi\n      returndatasize\n      0x00\n      dup1\n      returndatacopy\n      revert(0x00, returndatasize)\n    tag_135:\n      pop\n      pop\n      pop\n      pop\n      mload(0x40)\n      returndatasize\n      not(0x1f)\n      0x1f\n      dup3\n      add\n      and\n      dup3\n      add\n      dup1\n      0x40\n      mstore\n      pop\n      dup2\n      add\n      swap1\n      tag_136\n      swap2\n      swap1\n      tag_80\n      jump\t// in\n    tag_136:\n        /* \"PFG/AMM.sol\":2345:2416  require(tokenERC.transferFrom(msg.sender, address(this), token_amount)) */\n      tag_137\n      jumpi\n      0x00\n      dup1\n      revert\n    tag_137:\n        /* \"PFG/AMM.sol\":2442:2466  Deposit(liquidity_added) */\n      0x4d6ce1e535dbade1c23defba91e23b8f791ce5edc0cc320257a2b364e4e38426\n        /* \"PFG/AMM.sol\":2450:2465  liquidity_added */\n      dup2\n        /* \"PFG/AMM.sol\":2442:2466  Deposit(liquidity_added) */\n      mload(0x40)\n      tag_138\n      swap2\n      swap1\n      tag_16\n      jump\t// in\n    tag_138:\n      mload(0x40)\n      dup1\n      swap2\n      sub\n      swap1\n      log1\n        /* \"PFG/AMM.sol\":1989:2471  {\r... */\n      pop\n      pop\n        /* \"PFG/AMM.sol\":1953:2471  function deposit() external payable {\r... */\n      jump\t// out\n        /* \"PFG/AMM.sol\":1511:1947  function ercToEth(uint256 token_amount) external {\r... */\n    tag_47:\n        /* \"PFG/AMM.sol\":1571:1590  uint256 eth_swapped */\n      0x00\n        /* \"PFG/AMM.sol\":1593:1679  calculatePrice(token_amount, tokenERC.balanceOf(address(this)), address(this).balance) */\n      tag_140\n        /* \"PFG/AMM.sol\":1608:1620  token_amount */\n      dup3\n        /* \"PFG/AMM.sol\":1622:1630  tokenERC */\n      0x00\n      dup1\n      sload\n      swap1\n      0x0100\n      exp\n      swap1\n      div\n      0xffffffffffffffffffffffffffffffffffffffff\n      and\n        /* \"PFG/AMM.sol\":1622:1640  tokenERC.balanceOf */\n      0xffffffffffffffffffffffffffffffffffffffff\n      and\n      0x70a08231\n        /* \"PFG/AMM.sol\":1649:1653  this */\n      address\n        /* \"PFG/AMM.sol\":1622:1655  tokenERC.balanceOf(address(this)) */\n      mload(0x40)\n      dup3\n      0xffffffff\n      and\n      0xe0\n      shl\n      dup2\n      mstore\n      0x04\n      add\n      tag_141\n      swap2\n      swap1\n      tag_55\n      jump\t// in\n    tag_141:\n      0x20\n      mload(0x40)\n      dup1\n      dup4\n      sub\n      dup2\n      dup7\n      dup1\n      extcodesize\n      iszero\n      dup1\n      iszero\n      tag_142\n      jumpi\n      0x00\n      dup1\n      revert\n    tag_142:\n      pop\n      gas\n      staticcall\n      iszero\n      dup1\n      iszero\n      tag_144\n      jumpi\n      returndatasize\n      0x00\n      dup1\n      returndatacopy\n      revert(0x00, returndatasize)\n    tag_144:\n      pop\n      pop\n      pop\n      pop\n      mload(0x40)\n      returndatasize\n      not(0x1f)\n      0x1f\n      dup3\n      add\n      and\n      dup3\n      add\n      dup1\n      0x40\n      mstore\n      pop\n      dup2\n      add\n      swap1\n      tag_145\n      swap2\n      swap1\n      tag_60\n      jump\t// in\n    tag_145:\n        /* \"PFG/AMM.sol\":1657:1678  address(this).balance */\n      selfbalance\n        /* \"PFG/AMM.sol\":1593:1607  calculatePrice */\n      tag_92\n        /* \"PFG/AMM.sol\":1593:1679  calculatePrice(token_amount, tokenERC.balanceOf(address(this)), address(this).balance) */\n      jump\t// in\n    tag_140:\n        /* \"PFG/AMM.sol\":1571:1679  uint256 eth_swapped = calculatePrice(token_amount, tokenERC.balanceOf(address(this)), address(this).balance) */\n      swap1\n      pop\n        /* \"PFG/AMM.sol\":1701:1713  bool success */\n      0x00\n        /* \"PFG/AMM.sol\":1719:1729  msg.sender */\n      caller\n        /* \"PFG/AMM.sol\":1719:1734  msg.sender.call */\n      0xffffffffffffffffffffffffffffffffffffffff\n      and\n        /* \"PFG/AMM.sol\":1742:1753  eth_swapped */\n      dup3\n        /* \"PFG/AMM.sol\":1719:1758  msg.sender.call{value: eth_swapped}(\"\") */\n      mload(0x40)\n      tag_146\n      swap1\n      tag_67\n      jump\t// in\n    tag_146:\n      0x00\n      mload(0x40)\n      dup1\n      dup4\n      sub\n      dup2\n      dup6\n      dup8\n      gas\n      call\n      swap3\n      pop\n      pop\n      pop\n      returndatasize\n      dup1\n      0x00\n      dup2\n      eq\n      tag_149\n      jumpi\n      mload(0x40)\n      swap2\n      pop\n      and(add(returndatasize, 0x3f), not(0x1f))\n      dup3\n      add\n      0x40\n      mstore\n      returndatasize\n      dup3\n      mstore\n      returndatasize\n      0x00\n      0x20\n      dup5\n      add\n      returndatacopy\n      jump(tag_148)\n    tag_149:\n      0x60\n      swap2\n      pop\n    tag_148:\n      pop\n        /* \"PFG/AMM.sol\":1700:1758  (bool success, ) = msg.sender.call{value: eth_swapped}(\"\") */\n      pop\n      swap1\n      pop\n        /* \"PFG/AMM.sol\":1777:1784  success */\n      dup1\n        /* \"PFG/AMM.sol\":1769:1805  require(success, \"Transfer failed.\") */\n      tag_150\n      jumpi\n      mload(0x40)\n      0x08c379a000000000000000000000000000000000000000000000000000000000\n      dup2\n      mstore\n      0x04\n      add\n      tag_151\n      swap1\n      tag_73\n      jump\t// in\n    tag_151:\n      mload(0x40)\n      dup1\n      swap2\n      sub\n      swap1\n      revert\n    tag_150:\n        /* \"PFG/AMM.sol\":1830:1838  tokenERC */\n      0x00\n      dup1\n      sload\n      swap1\n      0x0100\n      exp\n      swap1\n      div\n      0xffffffffffffffffffffffffffffffffffffffff\n      and\n        /* \"PFG/AMM.sol\":1830:1851  tokenERC.transferFrom */\n      0xffffffffffffffffffffffffffffffffffffffff\n      and\n      0x23b872dd\n        /* \"PFG/AMM.sol\":1852:1862  msg.sender */\n      caller\n        /* \"PFG/AMM.sol\":1872:1876  this */\n      address\n        /* \"PFG/AMM.sol\":1879:1891  token_amount */\n      dup7\n        /* \"PFG/AMM.sol\":1830:1892  tokenERC.transferFrom(msg.sender, address(this), token_amount) */\n      mload(0x40)\n      dup5\n      0xffffffff\n      and\n      0xe0\n      shl\n      dup2\n      mstore\n      0x04\n      add\n      tag_152\n      swap4\n      swap3\n      swap2\n      swap1\n      tag_109\n      jump\t// in\n    tag_152:\n      0x20\n      mload(0x40)\n      dup1\n      dup4\n      sub\n      dup2\n      0x00\n      dup8\n      dup1\n      extcodesize\n      iszero\n      dup1\n      iszero\n      tag_153\n      jumpi\n      0x00\n      dup1\n      revert\n    tag_153:\n      pop\n      gas\n      call\n      iszero\n      dup1\n      iszero\n      tag_155\n      jumpi\n      returndatasize\n      0x00\n      dup1\n      returndatacopy\n      revert(0x00, returndatasize)\n    tag_155:\n      pop\n      pop\n      pop\n      pop\n      mload(0x40)\n      returndatasize\n      not(0x1f)\n      0x1f\n      dup3\n      add\n      and\n      dup3\n      add\n      dup1\n      0x40\n      mstore\n      pop\n      dup2\n      add\n      swap1\n      tag_156\n      swap2\n      swap1\n      tag_80\n      jump\t// in\n    tag_156:\n        /* \"PFG/AMM.sol\":1822:1893  require(tokenERC.transferFrom(msg.sender, address(this), token_amount)) */\n      tag_157\n      jumpi\n      0x00\n      dup1\n      revert\n    tag_157:\n        /* \"PFG/AMM.sol\":1919:1942  ETHSwapped(eth_swapped) */\n      0x4dbf3a71a7c7262f432c2cad7808225832255d07f7d8ab85117677c0b5c0a850\n        /* \"PFG/AMM.sol\":1930:1941  eth_swapped */\n      dup3\n        /* \"PFG/AMM.sol\":1919:1942  ETHSwapped(eth_swapped) */\n      mload(0x40)\n      tag_158\n      swap2\n      swap1\n      tag_16\n      jump\t// in\n    tag_158:\n      mload(0x40)\n      dup1\n      swap2\n      sub\n      swap1\n      log1\n        /* \"PFG/AMM.sol\":1560:1947  {\r... */\n      pop\n      pop\n        /* \"PFG/AMM.sol\":1511:1947  function ercToEth(uint256 token_amount) external {\r... */\n      pop\n      jump\t// out\n        /* \"PFG/AMM.sol\":969:1194  function calculatePrice(uint256 input_value, uint256 input_pool, uint256 output_pool) internal pure returns (uint256) {\r... */\n    tag_92:\n        /* \"PFG/AMM.sol\":1078:1085  uint256 */\n      0x00\n        /* \"PFG/AMM.sol\":1173:1184  input_value */\n      dup4\n        /* \"PFG/AMM.sol\":1167:1170  995 */\n      0x03e3\n        /* \"PFG/AMM.sol\":1167:1184  995 * input_value */\n      tag_160\n      swap2\n      swap1\n      tag_51\n      jump\t// in\n    tag_160:\n        /* \"PFG/AMM.sol\":1152:1162  input_pool */\n      dup4\n        /* \"PFG/AMM.sol\":1145:1149  1000 */\n      0x03e8\n        /* \"PFG/AMM.sol\":1145:1162  1000 * input_pool */\n      tag_161\n      swap2\n      swap1\n      tag_51\n      jump\t// in\n    tag_161:\n        /* \"PFG/AMM.sol\":1144:1185  (1000 * input_pool) + (995 * input_value) */\n      tag_162\n      swap2\n      swap1\n      tag_126\n      jump\t// in\n    tag_162:\n        /* \"PFG/AMM.sol\":1128:1139  output_pool */\n      dup3\n        /* \"PFG/AMM.sol\":1113:1124  input_value */\n      dup6\n        /* \"PFG/AMM.sol\":1107:1110  995 */\n      0x03e3\n        /* \"PFG/AMM.sol\":1107:1124  995 * input_value */\n      tag_163\n      swap2\n      swap1\n      tag_51\n      jump\t// in\n    tag_163:\n        /* \"PFG/AMM.sol\":1106:1139  (995 * input_value) * output_pool */\n      tag_164\n      swap2\n      swap1\n      tag_51\n      jump\t// in\n    tag_164:\n        /* \"PFG/AMM.sol\":1105:1186  ((995 * input_value) * output_pool) / ((1000 * input_pool) + (995 * input_value)) */\n      tag_165\n      swap2\n      swap1\n      tag_53\n      jump\t// in\n    tag_165:\n        /* \"PFG/AMM.sol\":1098:1186  return ((995 * input_value) * output_pool) / ((1000 * input_pool) + (995 * input_value)) */\n      swap1\n      pop\n        /* \"PFG/AMM.sol\":969:1194  function calculatePrice(uint256 input_value, uint256 input_pool, uint256 output_pool) internal pure returns (uint256) {\r... */\n      swap4\n      swap3\n      pop\n      pop\n      pop\n      jump\t// out\n        /* \"#utility.yul\":7:146   */\n    tag_167:\n        /* \"#utility.yul\":53:58   */\n      0x00\n        /* \"#utility.yul\":91:97   */\n      dup2\n        /* \"#utility.yul\":78:98   */\n      calldataload\n        /* \"#utility.yul\":69:98   */\n      swap1\n      pop\n        /* \"#utility.yul\":107:140   */\n      tag_169\n        /* \"#utility.yul\":134:139   */\n      dup2\n        /* \"#utility.yul\":107:140   */\n      tag_170\n      jump\t// in\n    tag_169:\n        /* \"#utility.yul\":7:146   */\n      swap3\n      swap2\n      pop\n      pop\n      jump\t// out\n        /* \"#utility.yul\":152:289   */\n    tag_171:\n        /* \"#utility.yul\":206:211   */\n      0x00\n        /* \"#utility.yul\":237:243   */\n      dup2\n        /* \"#utility.yul\":231:244   */\n      mload\n        /* \"#utility.yul\":222:244   */\n      swap1\n      pop\n        /* \"#utility.yul\":253:283   */\n      tag_173\n        /* \"#utility.yul\":277:282   */\n      dup2\n        /* \"#utility.yul\":253:283   */\n      tag_174\n      jump\t// in\n    tag_173:\n        /* \"#utility.yul\":152:289   */\n      swap3\n      swap2\n      pop\n      pop\n      jump\t// out\n        /* \"#utility.yul\":295:434   */\n    tag_175:\n        /* \"#utility.yul\":341:346   */\n      0x00\n        /* \"#utility.yul\":379:385   */\n      dup2\n        /* \"#utility.yul\":366:386   */\n      calldataload\n        /* \"#utility.yul\":357:386   */\n      swap1\n      pop\n        /* \"#utility.yul\":395:428   */\n      tag_177\n        /* \"#utility.yul\":422:427   */\n      dup2\n        /* \"#utility.yul\":395:428   */\n      tag_178\n      jump\t// in\n    tag_177:\n        /* \"#utility.yul\":295:434   */\n      swap3\n      swap2\n      pop\n      pop\n      jump\t// out\n        /* \"#utility.yul\":440:583   */\n    tag_179:\n        /* \"#utility.yul\":497:502   */\n      0x00\n        /* \"#utility.yul\":528:534   */\n      dup2\n        /* \"#utility.yul\":522:535   */\n      mload\n        /* \"#utility.yul\":513:535   */\n      swap1\n      pop\n        /* \"#utility.yul\":544:577   */\n      tag_181\n        /* \"#utility.yul\":571:576   */\n      dup2\n        /* \"#utility.yul\":544:577   */\n      tag_178\n      jump\t// in\n    tag_181:\n        /* \"#utility.yul\":440:583   */\n      swap3\n      swap2\n      pop\n      pop\n      jump\t// out\n        /* \"#utility.yul\":589:918   */\n    tag_35:\n        /* \"#utility.yul\":648:654   */\n      0x00\n        /* \"#utility.yul\":697:699   */\n      0x20\n        /* \"#utility.yul\":685:694   */\n      dup3\n        /* \"#utility.yul\":676:683   */\n      dup5\n        /* \"#utility.yul\":672:695   */\n      sub\n        /* \"#utility.yul\":668:700   */\n      slt\n        /* \"#utility.yul\":665:784   */\n      iszero\n      tag_183\n      jumpi\n        /* \"#utility.yul\":703:782   */\n      tag_184\n      tag_185\n      jump\t// in\n    tag_184:\n        /* \"#utility.yul\":665:784   */\n    tag_183:\n        /* \"#utility.yul\":823:824   */\n      0x00\n        /* \"#utility.yul\":848:901   */\n      tag_186\n        /* \"#utility.yul\":893:900   */\n      dup5\n        /* \"#utility.yul\":884:890   */\n      dup3\n        /* \"#utility.yul\":873:882   */\n      dup6\n        /* \"#utility.yul\":869:891   */\n      add\n        /* \"#utility.yul\":848:901   */\n      tag_167\n      jump\t// in\n    tag_186:\n        /* \"#utility.yul\":838:901   */\n      swap2\n      pop\n        /* \"#utility.yul\":794:911   */\n      pop\n        /* \"#utility.yul\":589:918   */\n      swap3\n      swap2\n      pop\n      pop\n      jump\t// out\n        /* \"#utility.yul\":924:1398   */\n    tag_40:\n        /* \"#utility.yul\":992:998   */\n      0x00\n        /* \"#utility.yul\":1000:1006   */\n      dup1\n        /* \"#utility.yul\":1049:1051   */\n      0x40\n        /* \"#utility.yul\":1037:1046   */\n      dup4\n        /* \"#utility.yul\":1028:1035   */\n      dup6\n        /* \"#utility.yul\":1024:1047   */\n      sub\n        /* \"#utility.yul\":1020:1052   */\n      slt\n        /* \"#utility.yul\":1017:1136   */\n      iszero\n      tag_188\n      jumpi\n        /* \"#utility.yul\":1055:1134   */\n      tag_189\n      tag_185\n      jump\t// in\n    tag_189:\n        /* \"#utility.yul\":1017:1136   */\n    tag_188:\n        /* \"#utility.yul\":1175:1176   */\n      0x00\n        /* \"#utility.yul\":1200:1253   */\n      tag_190\n        /* \"#utility.yul\":1245:1252   */\n      dup6\n        /* \"#utility.yul\":1236:1242   */\n      dup3\n        /* \"#utility.yul\":1225:1234   */\n      dup7\n        /* \"#utility.yul\":1221:1243   */\n      add\n        /* \"#utility.yul\":1200:1253   */\n      tag_167\n      jump\t// in\n    tag_190:\n        /* \"#utility.yul\":1190:1253   */\n      swap3\n      pop\n        /* \"#utility.yul\":1146:1263   */\n      pop\n        /* \"#utility.yul\":1302:1304   */\n      0x20\n        /* \"#utility.yul\":1328:1381   */\n      tag_191\n        /* \"#utility.yul\":1373:1380   */\n      dup6\n        /* \"#utility.yul\":1364:1370   */\n      dup3\n        /* \"#utility.yul\":1353:1362   */\n      dup7\n        /* \"#utility.yul\":1349:1371   */\n      add\n        /* \"#utility.yul\":1328:1381   */\n      tag_175\n      jump\t// in\n    tag_191:\n        /* \"#utility.yul\":1318:1381   */\n      swap2\n      pop\n        /* \"#utility.yul\":1273:1391   */\n      pop\n        /* \"#utility.yul\":924:1398   */\n      swap3\n      pop\n      swap3\n      swap1\n      pop\n      jump\t// out\n        /* \"#utility.yul\":1404:1749   */\n    tag_80:\n        /* \"#utility.yul\":1471:1477   */\n      0x00\n        /* \"#utility.yul\":1520:1522   */\n      0x20\n        /* \"#utility.yul\":1508:1517   */\n      dup3\n        /* \"#utility.yul\":1499:1506   */\n      dup5\n        /* \"#utility.yul\":1495:1518   */\n      sub\n        /* \"#utility.yul\":1491:1523   */\n      slt\n        /* \"#utility.yul\":1488:1607   */\n      iszero\n      tag_193\n      jumpi\n        /* \"#utility.yul\":1526:1605   */\n      tag_194\n      tag_185\n      jump\t// in\n    tag_194:\n        /* \"#utility.yul\":1488:1607   */\n    tag_193:\n        /* \"#utility.yul\":1646:1647   */\n      0x00\n        /* \"#utility.yul\":1671:1732   */\n      tag_195\n        /* \"#utility.yul\":1724:1731   */\n      dup5\n        /* \"#utility.yul\":1715:1721   */\n      dup3\n        /* \"#utility.yul\":1704:1713   */\n      dup6\n        /* \"#utility.yul\":1700:1722   */\n      add\n        /* \"#utility.yul\":1671:1732   */\n      tag_171\n      jump\t// in\n    tag_195:\n        /* \"#utility.yul\":1661:1732   */\n      swap2\n      pop\n        /* \"#utility.yul\":1617:1742   */\n      pop\n        /* \"#utility.yul\":1404:1749   */\n      swap3\n      swap2\n      pop\n      pop\n      jump\t// out\n        /* \"#utility.yul\":1755:2084   */\n    tag_20:\n        /* \"#utility.yul\":1814:1820   */\n      0x00\n        /* \"#utility.yul\":1863:1865   */\n      0x20\n        /* \"#utility.yul\":1851:1860   */\n      dup3\n        /* \"#utility.yul\":1842:1849   */\n      dup5\n        /* \"#utility.yul\":1838:1861   */\n      sub\n        /* \"#utility.yul\":1834:1866   */\n      slt\n        /* \"#utility.yul\":1831:1950   */\n      iszero\n      tag_197\n      jumpi\n        /* \"#utility.yul\":1869:1948   */\n      tag_198\n      tag_185\n      jump\t// in\n    tag_198:\n        /* \"#utility.yul\":1831:1950   */\n    tag_197:\n        /* \"#utility.yul\":1989:1990   */\n      0x00\n        /* \"#utility.yul\":2014:2067   */\n      tag_199\n        /* \"#utility.yul\":2059:2066   */\n      dup5\n        /* \"#utility.yul\":2050:2056   */\n      dup3\n        /* \"#utility.yul\":2039:2048   */\n      dup6\n        /* \"#utility.yul\":2035:2057   */\n      add\n        /* \"#utility.yul\":2014:2067   */\n      tag_175\n      jump\t// in\n    tag_199:\n        /* \"#utility.yul\":2004:2067   */\n      swap2\n      pop\n        /* \"#utility.yul\":1960:2077   */\n      pop\n        /* \"#utility.yul\":1755:2084   */\n      swap3\n      swap2\n      pop\n      pop\n      jump\t// out\n        /* \"#utility.yul\":2090:2441   */\n    tag_60:\n        /* \"#utility.yul\":2160:2166   */\n      0x00\n        /* \"#utility.yul\":2209:2211   */\n      0x20\n        /* \"#utility.yul\":2197:2206   */\n      dup3\n        /* \"#utility.yul\":2188:2195   */\n      dup5\n        /* \"#utility.yul\":2184:2207   */\n      sub\n        /* \"#utility.yul\":2180:2212   */\n      slt\n        /* \"#utility.yul\":2177:2296   */\n      iszero\n      tag_201\n      jumpi\n        /* \"#utility.yul\":2215:2294   */\n      tag_202\n      tag_185\n      jump\t// in\n    tag_202:\n        /* \"#utility.yul\":2177:2296   */\n    tag_201:\n        /* \"#utility.yul\":2335:2336   */\n      0x00\n        /* \"#utility.yul\":2360:2424   */\n      tag_203\n        /* \"#utility.yul\":2416:2423   */\n      dup5\n        /* \"#utility.yul\":2407:2413   */\n      dup3\n        /* \"#utility.yul\":2396:2405   */\n      dup6\n        /* \"#utility.yul\":2392:2414   */\n      add\n        /* \"#utility.yul\":2360:2424   */\n      tag_179\n      jump\t// in\n    tag_203:\n        /* \"#utility.yul\":2350:2424   */\n      swap2\n      pop\n        /* \"#utility.yul\":2306:2434   */\n      pop\n        /* \"#utility.yul\":2090:2441   */\n      swap3\n      swap2\n      pop\n      pop\n      jump\t// out\n        /* \"#utility.yul\":2447:2565   */\n    tag_204:\n        /* \"#utility.yul\":2534:2558   */\n      tag_206\n        /* \"#utility.yul\":2552:2557   */\n      dup2\n        /* \"#utility.yul\":2534:2558   */\n      tag_207\n      jump\t// in\n    tag_206:\n        /* \"#utility.yul\":2529:2532   */\n      dup3\n        /* \"#utility.yul\":2522:2559   */\n      mstore\n        /* \"#utility.yul\":2447:2565   */\n      pop\n      pop\n      jump\t// out\n        /* \"#utility.yul\":2571:2969   */\n    tag_208:\n        /* \"#utility.yul\":2730:2733   */\n      0x00\n        /* \"#utility.yul\":2751:2834   */\n      tag_210\n        /* \"#utility.yul\":2832:2833   */\n      0x00\n        /* \"#utility.yul\":2827:2830   */\n      dup4\n        /* \"#utility.yul\":2751:2834   */\n      tag_211\n      jump\t// in\n    tag_210:\n        /* \"#utility.yul\":2744:2834   */\n      swap2\n      pop\n        /* \"#utility.yul\":2843:2936   */\n      tag_212\n        /* \"#utility.yul\":2932:2935   */\n      dup3\n        /* \"#utility.yul\":2843:2936   */\n      tag_213\n      jump\t// in\n    tag_212:\n        /* \"#utility.yul\":2961:2962   */\n      0x00\n        /* \"#utility.yul\":2956:2959   */\n      dup3\n        /* \"#utility.yul\":2952:2963   */\n      add\n        /* \"#utility.yul\":2945:2963   */\n      swap1\n      pop\n        /* \"#utility.yul\":2571:2969   */\n      swap2\n      swap1\n      pop\n      jump\t// out\n        /* \"#utility.yul\":2975:3341   */\n    tag_214:\n        /* \"#utility.yul\":3117:3120   */\n      0x00\n        /* \"#utility.yul\":3138:3205   */\n      tag_216\n        /* \"#utility.yul\":3202:3204   */\n      0x10\n        /* \"#utility.yul\":3197:3200   */\n      dup4\n        /* \"#utility.yul\":3138:3205   */\n      tag_217\n      jump\t// in\n    tag_216:\n        /* \"#utility.yul\":3131:3205   */\n      swap2\n      pop\n        /* \"#utility.yul\":3214:3307   */\n      tag_218\n        /* \"#utility.yul\":3303:3306   */\n      dup3\n        /* \"#utility.yul\":3214:3307   */\n      tag_219\n      jump\t// in\n    tag_218:\n        /* \"#utility.yul\":3332:3334   */\n      0x20\n        /* \"#utility.yul\":3327:3330   */\n      dup3\n        /* \"#utility.yul\":3323:3335   */\n      add\n        /* \"#utility.yul\":3316:3335   */\n      swap1\n      pop\n        /* \"#utility.yul\":2975:3341   */\n      swap2\n      swap1\n      pop\n      jump\t// out\n        /* \"#utility.yul\":3347:3465   */\n    tag_220:\n        /* \"#utility.yul\":3434:3458   */\n      tag_222\n        /* \"#utility.yul\":3452:3457   */\n      dup2\n        /* \"#utility.yul\":3434:3458   */\n      tag_223\n      jump\t// in\n    tag_222:\n        /* \"#utility.yul\":3429:3432   */\n      dup3\n        /* \"#utility.yul\":3422:3459   */\n      mstore\n        /* \"#utility.yul\":3347:3465   */\n      pop\n      pop\n      jump\t// out\n        /* \"#utility.yul\":3471:3850   */\n    tag_67:\n        /* \"#utility.yul\":3655:3658   */\n      0x00\n        /* \"#utility.yul\":3677:3824   */\n      tag_225\n        /* \"#utility.yul\":3820:3823   */\n      dup3\n        /* \"#utility.yul\":3677:3824   */\n      tag_208\n      jump\t// in\n    tag_225:\n        /* \"#utility.yul\":3670:3824   */\n      swap2\n      pop\n        /* \"#utility.yul\":3841:3844   */\n      dup2\n        /* \"#utility.yul\":3834:3844   */\n      swap1\n      pop\n        /* \"#utility.yul\":3471:3850   */\n      swap2\n      swap1\n      pop\n      jump\t// out\n        /* \"#utility.yul\":3856:4078   */\n    tag_55:\n        /* \"#utility.yul\":3949:3953   */\n      0x00\n        /* \"#utility.yul\":3987:3989   */\n      0x20\n        /* \"#utility.yul\":3976:3985   */\n      dup3\n        /* \"#utility.yul\":3972:3990   */\n      add\n        /* \"#utility.yul\":3964:3990   */\n      swap1\n      pop\n        /* \"#utility.yul\":4000:4071   */\n      tag_227\n        /* \"#utility.yul\":4068:4069   */\n      0x00\n        /* \"#utility.yul\":4057:4066   */\n      dup4\n        /* \"#utility.yul\":4053:4070   */\n      add\n        /* \"#utility.yul\":4044:4050   */\n      dup5\n        /* \"#utility.yul\":4000:4071   */\n      tag_204\n      jump\t// in\n    tag_227:\n        /* \"#utility.yul\":3856:4078   */\n      swap3\n      swap2\n      pop\n      pop\n      jump\t// out\n        /* \"#utility.yul\":4084:4526   */\n    tag_109:\n        /* \"#utility.yul\":4233:4237   */\n      0x00\n        /* \"#utility.yul\":4271:4273   */\n      0x60\n        /* \"#utility.yul\":4260:4269   */\n      dup3\n        /* \"#utility.yul\":4256:4274   */\n      add\n        /* \"#utility.yul\":4248:4274   */\n      swap1\n      pop\n        /* \"#utility.yul\":4284:4355   */\n      tag_229\n        /* \"#utility.yul\":4352:4353   */\n      0x00\n        /* \"#utility.yul\":4341:4350   */\n      dup4\n        /* \"#utility.yul\":4337:4354   */\n      add\n        /* \"#utility.yul\":4328:4334   */\n      dup7\n        /* \"#utility.yul\":4284:4355   */\n      tag_204\n      jump\t// in\n    tag_229:\n        /* \"#utility.yul\":4365:4437   */\n      tag_230\n        /* \"#utility.yul\":4433:4435   */\n      0x20\n        /* \"#utility.yul\":4422:4431   */\n      dup4\n        /* \"#utility.yul\":4418:4436   */\n      add\n        /* \"#utility.yul\":4409:4415   */\n      dup6\n        /* \"#utility.yul\":4365:4437   */\n      tag_204\n      jump\t// in\n    tag_230:\n        /* \"#utility.yul\":4447:4519   */\n      tag_231\n        /* \"#utility.yul\":4515:4517   */\n      0x40\n        /* \"#utility.yul\":4504:4513   */\n      dup4\n        /* \"#utility.yul\":4500:4518   */\n      add\n        /* \"#utility.yul\":4491:4497   */\n      dup5\n        /* \"#utility.yul\":4447:4519   */\n      tag_220\n      jump\t// in\n    tag_231:\n        /* \"#utility.yul\":4084:4526   */\n      swap5\n      swap4\n      pop\n      pop\n      pop\n      pop\n      jump\t// out\n        /* \"#utility.yul\":4532:4864   */\n    tag_75:\n        /* \"#utility.yul\":4653:4657   */\n      0x00\n        /* \"#utility.yul\":4691:4693   */\n      0x40\n        /* \"#utility.yul\":4680:4689   */\n      dup3\n        /* \"#utility.yul\":4676:4694   */\n      add\n        /* \"#utility.yul\":4668:4694   */\n      swap1\n      pop\n        /* \"#utility.yul\":4704:4775   */\n      tag_233\n        /* \"#utility.yul\":4772:4773   */\n      0x00\n        /* \"#utility.yul\":4761:4770   */\n      dup4\n        /* \"#utility.yul\":4757:4774   */\n      add\n        /* \"#utility.yul\":4748:4754   */\n      dup6\n        /* \"#utility.yul\":4704:4775   */\n      tag_204\n      jump\t// in\n    tag_233:\n        /* \"#utility.yul\":4785:4857   */\n      tag_234\n        /* \"#utility.yul\":4853:4855   */\n      0x20\n        /* \"#utility.yul\":4842:4851   */\n      dup4\n        /* \"#utility.yul\":4838:4856   */\n      add\n        /* \"#utility.yul\":4829:4835   */\n      dup5\n        /* \"#utility.yul\":4785:4857   */\n      tag_220\n      jump\t// in\n    tag_234:\n        /* \"#utility.yul\":4532:4864   */\n      swap4\n      swap3\n      pop\n      pop\n      pop\n      jump\t// out\n        /* \"#utility.yul\":4870:5289   */\n    tag_73:\n        /* \"#utility.yul\":5036:5040   */\n      0x00\n        /* \"#utility.yul\":5074:5076   */\n      0x20\n        /* \"#utility.yul\":5063:5072   */\n      dup3\n        /* \"#utility.yul\":5059:5077   */\n      add\n        /* \"#utility.yul\":5051:5077   */\n      swap1\n      pop\n        /* \"#utility.yul\":5123:5132   */\n      dup2\n        /* \"#utility.yul\":5117:5121   */\n      dup2\n        /* \"#utility.yul\":5113:5133   */\n      sub\n        /* \"#utility.yul\":5109:5110   */\n      0x00\n        /* \"#utility.yul\":5098:5107   */\n      dup4\n        /* \"#utility.yul\":5094:5111   */\n      add\n        /* \"#utility.yul\":5087:5134   */\n      mstore\n        /* \"#utility.yul\":5151:5282   */\n      tag_236\n        /* \"#utility.yul\":5277:5281   */\n      dup2\n        /* \"#utility.yul\":5151:5282   */\n      tag_214\n      jump\t// in\n    tag_236:\n        /* \"#utility.yul\":5143:5282   */\n      swap1\n      pop\n        /* \"#utility.yul\":4870:5289   */\n      swap2\n      swap1\n      pop\n      jump\t// out\n        /* \"#utility.yul\":5295:5517   */\n    tag_16:\n        /* \"#utility.yul\":5388:5392   */\n      0x00\n        /* \"#utility.yul\":5426:5428   */\n      0x20\n        /* \"#utility.yul\":5415:5424   */\n      dup3\n        /* \"#utility.yul\":5411:5429   */\n      add\n        /* \"#utility.yul\":5403:5429   */\n      swap1\n      pop\n        /* \"#utility.yul\":5439:5510   */\n      tag_238\n        /* \"#utility.yul\":5507:5508   */\n      0x00\n        /* \"#utility.yul\":5496:5505   */\n      dup4\n        /* \"#utility.yul\":5492:5509   */\n      add\n        /* \"#utility.yul\":5483:5489   */\n      dup5\n        /* \"#utility.yul\":5439:5510   */\n      tag_220\n      jump\t// in\n    tag_238:\n        /* \"#utility.yul\":5295:5517   */\n      swap3\n      swap2\n      pop\n      pop\n      jump\t// out\n        /* \"#utility.yul\":5523:5855   */\n    tag_83:\n        /* \"#utility.yul\":5644:5648   */\n      0x00\n        /* \"#utility.yul\":5682:5684   */\n      0x40\n        /* \"#utility.yul\":5671:5680   */\n      dup3\n        /* \"#utility.yul\":5667:5685   */\n      add\n        /* \"#utility.yul\":5659:5685   */\n      swap1\n      pop\n        /* \"#utility.yul\":5695:5766   */\n      tag_240\n        /* \"#utility.yul\":5763:5764   */\n      0x00\n        /* \"#utility.yul\":5752:5761   */\n      dup4\n        /* \"#utility.yul\":5748:5765   */\n      add\n        /* \"#utility.yul\":5739:5745   */\n      dup6\n        /* \"#utility.yul\":5695:5766   */\n      tag_220\n      jump\t// in\n    tag_240:\n        /* \"#utility.yul\":5776:5848   */\n      tag_241\n        /* \"#utility.yul\":5844:5846   */\n      0x20\n        /* \"#utility.yul\":5833:5842   */\n      dup4\n        /* \"#utility.yul\":5829:5847   */\n      add\n        /* \"#utility.yul\":5820:5826   */\n      dup5\n        /* \"#utility.yul\":5776:5848   */\n      tag_220\n      jump\t// in\n    tag_241:\n        /* \"#utility.yul\":5523:5855   */\n      swap4\n      swap3\n      pop\n      pop\n      pop\n      jump\t// out\n        /* \"#utility.yul\":5942:6089   */\n    tag_211:\n        /* \"#utility.yul\":6043:6054   */\n      0x00\n        /* \"#utility.yul\":6080:6083   */\n      dup2\n        /* \"#utility.yul\":6065:6083   */\n      swap1\n      pop\n        /* \"#utility.yul\":5942:6089   */\n      swap3\n      swap2\n      pop\n      pop\n      jump\t// out\n        /* \"#utility.yul\":6095:6264   */\n    tag_217:\n        /* \"#utility.yul\":6179:6190   */\n      0x00\n        /* \"#utility.yul\":6213:6219   */\n      dup3\n        /* \"#utility.yul\":6208:6211   */\n      dup3\n        /* \"#utility.yul\":6201:6220   */\n      mstore\n        /* \"#utility.yul\":6253:6257   */\n      0x20\n        /* \"#utility.yul\":6248:6251   */\n      dup3\n        /* \"#utility.yul\":6244:6258   */\n      add\n        /* \"#utility.yul\":6229:6258   */\n      swap1\n      pop\n        /* \"#utility.yul\":6095:6264   */\n      swap3\n      swap2\n      pop\n      pop\n      jump\t// out\n        /* \"#utility.yul\":6270:6575   */\n    tag_126:\n        /* \"#utility.yul\":6310:6313   */\n      0x00\n        /* \"#utility.yul\":6329:6349   */\n      tag_247\n        /* \"#utility.yul\":6347:6348   */\n      dup3\n        /* \"#utility.yul\":6329:6349   */\n      tag_223\n      jump\t// in\n    tag_247:\n        /* \"#utility.yul\":6324:6349   */\n      swap2\n      pop\n        /* \"#utility.yul\":6363:6383   */\n      tag_248\n        /* \"#utility.yul\":6381:6382   */\n      dup4\n        /* \"#utility.yul\":6363:6383   */\n      tag_223\n      jump\t// in\n    tag_248:\n        /* \"#utility.yul\":6358:6383   */\n      swap3\n      pop\n        /* \"#utility.yul\":6517:6518   */\n      dup3\n        /* \"#utility.yul\":6449:6515   */\n      0xffffffffffffffffffffffffffffffffffffffffffffffffffffffffffffffff\n        /* \"#utility.yul\":6445:6519   */\n      sub\n        /* \"#utility.yul\":6442:6443   */\n      dup3\n        /* \"#utility.yul\":6439:6520   */\n      gt\n        /* \"#utility.yul\":6436:6543   */\n      iszero\n      tag_249\n      jumpi\n        /* \"#utility.yul\":6523:6541   */\n      tag_250\n      tag_251\n      jump\t// in\n    tag_250:\n        /* \"#utility.yul\":6436:6543   */\n    tag_249:\n        /* \"#utility.yul\":6567:6568   */\n      dup3\n        /* \"#utility.yul\":6564:6565   */\n      dup3\n        /* \"#utility.yul\":6560:6569   */\n      add\n        /* \"#utility.yul\":6553:6569   */\n      swap1\n      pop\n        /* \"#utility.yul\":6270:6575   */\n      swap3\n      swap2\n      pop\n      pop\n      jump\t// out\n        /* \"#utility.yul\":6581:6766   */\n    tag_53:\n        /* \"#utility.yul\":6621:6622   */\n      0x00\n        /* \"#utility.yul\":6638:6658   */\n      tag_253\n        /* \"#utility.yul\":6656:6657   */\n      dup3\n        /* \"#utility.yul\":6638:6658   */\n      tag_223\n      jump\t// in\n    tag_253:\n        /* \"#utility.yul\":6633:6658   */\n      swap2\n      pop\n        /* \"#utility.yul\":6672:6692   */\n      tag_254\n        /* \"#utility.yul\":6690:6691   */\n      dup4\n        /* \"#utility.yul\":6672:6692   */\n      tag_223\n      jump\t// in\n    tag_254:\n        /* \"#utility.yul\":6667:6692   */\n      swap3\n      pop\n        /* \"#utility.yul\":6711:6712   */\n      dup3\n        /* \"#utility.yul\":6701:6736   */\n      tag_255\n      jumpi\n        /* \"#utility.yul\":6716:6734   */\n      tag_256\n      tag_257\n      jump\t// in\n    tag_256:\n        /* \"#utility.yul\":6701:6736   */\n    tag_255:\n        /* \"#utility.yul\":6758:6759   */\n      dup3\n        /* \"#utility.yul\":6755:6756   */\n      dup3\n        /* \"#utility.yul\":6751:6760   */\n      div\n        /* \"#utility.yul\":6746:6760   */\n      swap1\n      pop\n        /* \"#utility.yul\":6581:6766   */\n      swap3\n      swap2\n      pop\n      pop\n      jump\t// out\n        /* \"#utility.yul\":6772:7120   */\n    tag_51:\n        /* \"#utility.yul\":6812:6819   */\n      0x00\n        /* \"#utility.yul\":6835:6855   */\n      tag_259\n        /* \"#utility.yul\":6853:6854   */\n      dup3\n        /* \"#utility.yul\":6835:6855   */\n      tag_223\n      jump\t// in\n    tag_259:\n        /* \"#utility.yul\":6830:6855   */\n      swap2\n      pop\n        /* \"#utility.yul\":6869:6889   */\n      tag_260\n        /* \"#utility.yul\":6887:6888   */\n      dup4\n        /* \"#utility.yul\":6869:6889   */\n      tag_223\n      jump\t// in\n    tag_260:\n        /* \"#utility.yul\":6864:6889   */\n      swap3\n      pop\n        /* \"#utility.yul\":7057:7058   */\n      dup2\n        /* \"#utility.yul\":6989:7055   */\n      0xffffffffffffffffffffffffffffffffffffffffffffffffffffffffffffffff\n        /* \"#utility.yul\":6985:7059   */\n      div\n        /* \"#utility.yul\":6982:6983   */\n      dup4\n        /* \"#utility.yul\":6979:7060   */\n      gt\n        /* \"#utility.yul\":6974:6975   */\n      dup3\n        /* \"#utility.yul\":6967:6976   */\n      iszero\n        /* \"#utility.yul\":6960:6977   */\n      iszero\n        /* \"#utility.yul\":6956:7061   */\n      and\n        /* \"#utility.yul\":6953:7084   */\n      iszero\n      tag_261\n      jumpi\n        /* \"#utility.yul\":7064:7082   */\n      tag_262\n      tag_251\n      jump\t// in\n    tag_262:\n        /* \"#utility.yul\":6953:7084   */\n    tag_261:\n        /* \"#utility.yul\":7112:7113   */\n      dup3\n        /* \"#utility.yul\":7109:7110   */\n      dup3\n        /* \"#utility.yul\":7105:7114   */\n      mul\n        /* \"#utility.yul\":7094:7114   */\n      swap1\n      pop\n        /* \"#utility.yul\":6772:7120   */\n      swap3\n      swap2\n      pop\n      pop\n      jump\t// out\n        /* \"#utility.yul\":7126:7317   */\n    tag_64:\n        /* \"#utility.yul\":7166:7170   */\n      0x00\n        /* \"#utility.yul\":7186:7206   */\n      tag_264\n        /* \"#utility.yul\":7204:7205   */\n      dup3\n        /* \"#utility.yul\":7186:7206   */\n      tag_223\n      jump\t// in\n    tag_264:\n        /* \"#utility.yul\":7181:7206   */\n      swap2\n      pop\n        /* \"#utility.yul\":7220:7240   */\n      tag_265\n        /* \"#utility.yul\":7238:7239   */\n      dup4\n        /* \"#utility.yul\":7220:7240   */\n      tag_223\n      jump\t// in\n    tag_265:\n        /* \"#utility.yul\":7215:7240   */\n      swap3\n      pop\n        /* \"#utility.yul\":7259:7260   */\n      dup3\n        /* \"#utility.yul\":7256:7257   */\n      dup3\n        /* \"#utility.yul\":7253:7261   */\n      lt\n        /* \"#utility.yul\":7250:7284   */\n      iszero\n      tag_266\n      jumpi\n        /* \"#utility.yul\":7264:7282   */\n      tag_267\n      tag_251\n      jump\t// in\n    tag_267:\n        /* \"#utility.yul\":7250:7284   */\n    tag_266:\n        /* \"#utility.yul\":7309:7310   */\n      dup3\n        /* \"#utility.yul\":7306:7307   */\n      dup3\n        /* \"#utility.yul\":7302:7311   */\n      sub\n        /* \"#utility.yul\":7294:7311   */\n      swap1\n      pop\n        /* \"#utility.yul\":7126:7317   */\n      swap3\n      swap2\n      pop\n      pop\n      jump\t// out\n        /* \"#utility.yul\":7323:7419   */\n    tag_207:\n        /* \"#utility.yul\":7360:7367   */\n      0x00\n        /* \"#utility.yul\":7389:7413   */\n      tag_269\n        /* \"#utility.yul\":7407:7412   */\n      dup3\n        /* \"#utility.yul\":7389:7413   */\n      tag_270\n      jump\t// in\n    tag_269:\n        /* \"#utility.yul\":7378:7413   */\n      swap1\n      pop\n        /* \"#utility.yul\":7323:7419   */\n      swap2\n      swap1\n      pop\n      jump\t// out\n        /* \"#utility.yul\":7425:7515   */\n    tag_271:\n        /* \"#utility.yul\":7459:7466   */\n      0x00\n        /* \"#utility.yul\":7502:7507   */\n      dup2\n        /* \"#utility.yul\":7495:7508   */\n      iszero\n        /* \"#utility.yul\":7488:7509   */\n      iszero\n        /* \"#utility.yul\":7477:7509   */\n      swap1\n      pop\n        /* \"#utility.yul\":7425:7515   */\n      swap2\n      swap1\n      pop\n      jump\t// out\n        /* \"#utility.yul\":7521:7647   */\n    tag_270:\n        /* \"#utility.yul\":7558:7565   */\n      0x00\n        /* \"#utility.yul\":7598:7640   */\n      0xffffffffffffffffffffffffffffffffffffffff\n        /* \"#utility.yul\":7591:7596   */\n      dup3\n        /* \"#utility.yul\":7587:7641   */\n      and\n        /* \"#utility.yul\":7576:7641   */\n      swap1\n      pop\n        /* \"#utility.yul\":7521:7647   */\n      swap2\n      swap1\n      pop\n      jump\t// out\n        /* \"#utility.yul\":7653:7730   */\n    tag_223:\n        /* \"#utility.yul\":7690:7697   */\n      0x00\n        /* \"#utility.yul\":7719:7724   */\n      dup2\n        /* \"#utility.yul\":7708:7724   */\n      swap1\n      pop\n        /* \"#utility.yul\":7653:7730   */\n      swap2\n      swap1\n      pop\n      jump\t// out\n        /* \"#utility.yul\":7736:7916   */\n    tag_251:\n        /* \"#utility.yul\":7784:7861   */\n      0x4e487b7100000000000000000000000000000000000000000000000000000000\n        /* \"#utility.yul\":7781:7782   */\n      0x00\n        /* \"#utility.yul\":7774:7862   */\n      mstore\n        /* \"#utility.yul\":7881:7885   */\n      0x11\n        /* \"#utility.yul\":7878:7879   */\n      0x04\n        /* \"#utility.yul\":7871:7886   */\n      mstore\n        /* \"#utility.yul\":7905:7909   */\n      0x24\n        /* \"#utility.yul\":7902:7903   */\n      0x00\n        /* \"#utility.yul\":7895:7910   */\n      revert\n        /* \"#utility.yul\":7922:8102   */\n    tag_257:\n        /* \"#utility.yul\":7970:8047   */\n      0x4e487b7100000000000000000000000000000000000000000000000000000000\n        /* \"#utility.yul\":7967:7968   */\n      0x00\n        /* \"#utility.yul\":7960:8048   */\n      mstore\n        /* \"#utility.yul\":8067:8071   */\n      0x12\n        /* \"#utility.yul\":8064:8065   */\n      0x04\n        /* \"#utility.yul\":8057:8072   */\n      mstore\n        /* \"#utility.yul\":8091:8095   */\n      0x24\n        /* \"#utility.yul\":8088:8089   */\n      0x00\n        /* \"#utility.yul\":8081:8096   */\n      revert\n        /* \"#utility.yul\":8231:8348   */\n    tag_185:\n        /* \"#utility.yul\":8340:8341   */\n      0x00\n        /* \"#utility.yul\":8337:8338   */\n      dup1\n        /* \"#utility.yul\":8330:8342   */\n      revert\n        /* \"#utility.yul\":8354:8468   */\n    tag_213:\n      pop\n      jump\t// out\n        /* \"#utility.yul\":8474:8640   */\n    tag_219:\n        /* \"#utility.yul\":8614:8632   */\n      0x5472616e73666572206661696c65642e00000000000000000000000000000000\n        /* \"#utility.yul\":8610:8611   */\n      0x00\n        /* \"#utility.yul\":8602:8608   */\n      dup3\n        /* \"#utility.yul\":8598:8612   */\n      add\n        /* \"#utility.yul\":8591:8633   */\n      mstore\n        /* \"#utility.yul\":8474:8640   */\n      pop\n      jump\t// out\n        /* \"#utility.yul\":8646:8768   */\n    tag_170:\n        /* \"#utility.yul\":8719:8743   */\n      tag_283\n        /* \"#utility.yul\":8737:8742   */\n      dup2\n        /* \"#utility.yul\":8719:8743   */\n      tag_207\n      jump\t// in\n    tag_283:\n        /* \"#utility.yul\":8712:8717   */\n      dup2\n        /* \"#utility.yul\":8709:8744   */\n      eq\n        /* \"#utility.yul\":8699:8762   */\n      tag_284\n      jumpi\n        /* \"#utility.yul\":8758:8759   */\n      0x00\n        /* \"#utility.yul\":8755:8756   */\n      dup1\n        /* \"#utility.yul\":8748:8760   */\n      revert\n        /* \"#utility.yul\":8699:8762   */\n    tag_284:\n        /* \"#utility.yul\":8646:8768   */\n      pop\n      jump\t// out\n        /* \"#utility.yul\":8774:8890   */\n    tag_174:\n        /* \"#utility.yul\":8844:8865   */\n      tag_286\n        /* \"#utility.yul\":8859:8864   */\n      dup2\n        /* \"#utility.yul\":8844:8865   */\n      tag_271\n      jump\t// in\n    tag_286:\n        /* \"#utility.yul\":8837:8842   */\n      dup2\n        /* \"#utility.yul\":8834:8866   */\n      eq\n        /* \"#utility.yul\":8824:8884   */\n      tag_287\n      jumpi\n        /* \"#utility.yul\":8880:8881   */\n      0x00\n        /* \"#utility.yul\":8877:8878   */\n      dup1\n        /* \"#utility.yul\":8870:8882   */\n      revert\n        /* \"#utility.yul\":8824:8884   */\n    tag_287:\n        /* \"#utility.yul\":8774:8890   */\n      pop\n      jump\t// out\n        /* \"#utility.yul\":8896:9018   */\n    tag_178:\n        /* \"#utility.yul\":8969:8993   */\n      tag_289\n        /* \"#utility.yul\":8987:8992   */\n      dup2\n        /* \"#utility.yul\":8969:8993   */\n      tag_223\n      jump\t// in\n    tag_289:\n        /* \"#utility.yul\":8962:8967   */\n      dup2\n        /* \"#utility.yul\":8959:8994   */\n      eq\n        /* \"#utility.yul\":8949:9012   */\n      tag_290\n      jumpi\n        /* \"#utility.yul\":9008:9009   */\n      0x00\n        /* \"#utility.yul\":9005:9006   */\n      dup1\n        /* \"#utility.yul\":8998:9010   */\n      revert\n        /* \"#utility.yul\":8949:9012   */\n    tag_290:\n        /* \"#utility.yul\":8896:9018   */\n      pop\n      jump\t// out\n\n    auxdata: 0xa2646970667358221220ba5275c0d8891f9f12988eb5144dacc0653b96db6a7406443ba0db0e104461fb64736f6c63430008070033\n}\n",
				"bytecode": {
					"linkReferences": {},
					"object": "608060405234801561001057600080fd5b50611309806100206000396000f3fe6080604052600436106100865760003560e01c806382b2e2571161005957806382b2e25714610114578063b8c876b11461013f578063cd6dc6871461017c578063d0e30db014610198578063debc674c146101a257610086565b806312065fe01461008b5780632e1a7d4d146100b657806331f3bd28146100df5780637937c03d1461010a575b600080fd5b34801561009757600080fd5b506100a06101cb565b6040516100ad9190611042565b60405180910390f35b3480156100c257600080fd5b506100dd60048036038101906100d89190610ed4565b6101d3565b005b3480156100eb57600080fd5b506100f46104c5565b6040516101019190611042565b60405180910390f35b6101126104cb565b005b34801561012057600080fd5b5061012961067d565b6040516101369190611042565b60405180910390f35b34801561014b57600080fd5b5061016660048036038101906101619190610e3a565b61072e565b6040516101739190611042565b60405180910390f35b61019660048036038101906101919190610e67565b610746565b005b6101a06108d7565b005b3480156101ae57600080fd5b506101c960048036038101906101c49190610ed4565b610b3b565b005b600047905090565b600060015447836101e49190611129565b6101ee91906110f8565b9050600060015460008054906101000a900473ffffffffffffffffffffffffffffffffffffffff1673ffffffffffffffffffffffffffffffffffffffff166370a08231306040518263ffffffff1660e01b815260040161024e9190610fa7565b60206040518083038186803b15801561026657600080fd5b505afa15801561027a573d6000803e3d6000fd5b505050506040513d601f19601f8201168201806040525081019061029e9190610f01565b846102a99190611129565b6102b391906110f8565b905081600260003373ffffffffffffffffffffffffffffffffffffffff1673ffffffffffffffffffffffffffffffffffffffff16815260200190815260200160002060008282546103049190611183565b92505081905550816001600082825461031d9190611183565b9250508190555060003373ffffffffffffffffffffffffffffffffffffffff168360405161034a90610f92565b60006040518083038185875af1925050503d8060008114610387576040519150601f19603f3d011682016040523d82523d6000602084013e61038c565b606091505b50509050806103d0576040517f08c379a00000000000000000000000000000000000000000000000000000000081526004016103c790611022565b60405180910390fd5b60008054906101000a900473ffffffffffffffffffffffffffffffffffffffff1673ffffffffffffffffffffffffffffffffffffffff1663a9059cbb33846040518363ffffffff1660e01b815260040161042b929190610ff9565b602060405180830381600087803b15801561044557600080fd5b505af1158015610459573d6000803e3d6000fd5b505050506040513d601f19601f8201168201806040525081019061047d9190610ea7565b61048657600080fd5b7f56ca301a9219608c91e7bcee90e083c19671d2cdcc96752c7af291cee5f9c8c883836040516104b792919061105d565b60405180910390a150505050565b60015481565b600061058b3434476104dd9190611183565b60008054906101000a900473ffffffffffffffffffffffffffffffffffffffff1673ffffffffffffffffffffffffffffffffffffffff166370a08231306040518263ffffffff1660e01b81526004016105369190610fa7565b60206040518083038186803b15801561054e57600080fd5b505afa158015610562573d6000803e3d6000fd5b505050506040513d601f19601f820116820180604052508101906105869190610f01565b610d92565b905060008054906101000a900473ffffffffffffffffffffffffffffffffffffffff1673ffffffffffffffffffffffffffffffffffffffff1663a9059cbb33836040518363ffffffff1660e01b81526004016105e8929190610ff9565b602060405180830381600087803b15801561060257600080fd5b505af1158015610616573d6000803e3d6000fd5b505050506040513d601f19601f8201168201806040525081019061063a9190610ea7565b61064357600080fd5b7fdb04c7a6d4758fd55d738ebc67e7f3010ac922be00771ef29521a4090d1eb13f816040516106729190611042565b60405180910390a150565b60008060009054906101000a900473ffffffffffffffffffffffffffffffffffffffff1673ffffffffffffffffffffffffffffffffffffffff166370a08231306040518263ffffffff1660e01b81526004016106d99190610fa7565b60206040518083038186803b1580156106f157600080fd5b505afa158015610705573d6000803e3d6000fd5b505050506040513d601f19601f820116820180604052508101906107299190610f01565b905090565b60026020528060005260406000206000915090505481565b60006001541461075557600080fd5b816000806101000a81548173ffffffffffffffffffffffffffffffffffffffff021916908373ffffffffffffffffffffffffffffffffffffffff16021790555047600181905550600154600260003373ffffffffffffffffffffffffffffffffffffffff1673ffffffffffffffffffffffffffffffffffffffff1681526020019081526020016000208190555060008054906101000a900473ffffffffffffffffffffffffffffffffffffffff1673ffffffffffffffffffffffffffffffffffffffff166323b872dd3330846040518463ffffffff1660e01b815260040161083f93929190610fc2565b602060405180830381600087803b15801561085957600080fd5b505af115801561086d573d6000803e3d6000fd5b505050506040513d601f19601f820116820180604052508101906108919190610ea7565b61089a57600080fd5b7fc43e48cf47e9fa186d0f4096c61d1fcb54159799f935a2aa32e5589688ee36e16001546040516108cb9190611042565b60405180910390a15050565b6000600134476108e79190611183565b60008054906101000a900473ffffffffffffffffffffffffffffffffffffffff1673ffffffffffffffffffffffffffffffffffffffff166370a08231306040518263ffffffff1660e01b81526004016109409190610fa7565b60206040518083038186803b15801561095857600080fd5b505afa15801561096c573d6000803e3d6000fd5b505050506040513d601f19601f820116820180604052508101906109909190610f01565b3461099b9190611129565b6109a591906110f8565b6109af91906110a2565b9050600034476109bf9190611183565b600154346109cd9190611129565b6109d791906110f8565b905080600260003373ffffffffffffffffffffffffffffffffffffffff1673ffffffffffffffffffffffffffffffffffffffff1681526020019081526020016000206000828254610a2891906110a2565b925050819055508060016000828254610a4191906110a2565b9250508190555060008054906101000a900473ffffffffffffffffffffffffffffffffffffffff1673ffffffffffffffffffffffffffffffffffffffff166323b872dd3330856040518463ffffffff1660e01b8152600401610aa593929190610fc2565b602060405180830381600087803b158015610abf57600080fd5b505af1158015610ad3573d6000803e3d6000fd5b505050506040513d601f19601f82011682018060405250810190610af79190610ea7565b610b0057600080fd5b7f4d6ce1e535dbade1c23defba91e23b8f791ce5edc0cc320257a2b364e4e3842681604051610b2f9190611042565b60405180910390a15050565b6000610bf08260008054906101000a900473ffffffffffffffffffffffffffffffffffffffff1673ffffffffffffffffffffffffffffffffffffffff166370a08231306040518263ffffffff1660e01b8152600401610b9a9190610fa7565b60206040518083038186803b158015610bb257600080fd5b505afa158015610bc6573d6000803e3d6000fd5b505050506040513d601f19601f82011682018060405250810190610bea9190610f01565b47610d92565b905060003373ffffffffffffffffffffffffffffffffffffffff1682604051610c1890610f92565b60006040518083038185875af1925050503d8060008114610c55576040519150601f19603f3d011682016040523d82523d6000602084013e610c5a565b606091505b5050905080610c9e576040517f08c379a0000000000000000000000000000000000000000000000000000000008152600401610c9590611022565b60405180910390fd5b60008054906101000a900473ffffffffffffffffffffffffffffffffffffffff1673ffffffffffffffffffffffffffffffffffffffff166323b872dd3330866040518463ffffffff1660e01b8152600401610cfb93929190610fc2565b602060405180830381600087803b158015610d1557600080fd5b505af1158015610d29573d6000803e3d6000fd5b505050506040513d601f19601f82011682018060405250810190610d4d9190610ea7565b610d5657600080fd5b7f4dbf3a71a7c7262f432c2cad7808225832255d07f7d8ab85117677c0b5c0a85082604051610d859190611042565b60405180910390a1505050565b6000836103e3610da29190611129565b836103e8610db09190611129565b610dba91906110a2565b82856103e3610dc99190611129565b610dd39190611129565b610ddd91906110f8565b90509392505050565b600081359050610df58161128e565b92915050565b600081519050610e0a816112a5565b92915050565b600081359050610e1f816112bc565b92915050565b600081519050610e34816112bc565b92915050565b600060208284031215610e5057610e4f61125d565b5b6000610e5e84828501610de6565b91505092915050565b60008060408385031215610e7e57610e7d61125d565b5b6000610e8c85828601610de6565b9250506020610e9d85828601610e10565b9150509250929050565b600060208284031215610ebd57610ebc61125d565b5b6000610ecb84828501610dfb565b91505092915050565b600060208284031215610eea57610ee961125d565b5b6000610ef884828501610e10565b91505092915050565b600060208284031215610f1757610f1661125d565b5b6000610f2584828501610e25565b91505092915050565b610f37816111b7565b82525050565b6000610f4a600083611086565b9150610f5582611262565b600082019050919050565b6000610f6d601083611091565b9150610f7882611265565b602082019050919050565b610f8c816111f5565b82525050565b6000610f9d82610f3d565b9150819050919050565b6000602082019050610fbc6000830184610f2e565b92915050565b6000606082019050610fd76000830186610f2e565b610fe46020830185610f2e565b610ff16040830184610f83565b949350505050565b600060408201905061100e6000830185610f2e565b61101b6020830184610f83565b9392505050565b6000602082019050818103600083015261103b81610f60565b9050919050565b60006020820190506110576000830184610f83565b92915050565b60006040820190506110726000830185610f83565b61107f6020830184610f83565b9392505050565b600081905092915050565b600082825260208201905092915050565b60006110ad826111f5565b91506110b8836111f5565b9250827fffffffffffffffffffffffffffffffffffffffffffffffffffffffffffffffff038211156110ed576110ec6111ff565b5b828201905092915050565b6000611103826111f5565b915061110e836111f5565b92508261111e5761111d61122e565b5b828204905092915050565b6000611134826111f5565b915061113f836111f5565b9250817fffffffffffffffffffffffffffffffffffffffffffffffffffffffffffffffff0483118215151615611178576111776111ff565b5b828202905092915050565b600061118e826111f5565b9150611199836111f5565b9250828210156111ac576111ab6111ff565b5b828203905092915050565b60006111c2826111d5565b9050919050565b60008115159050919050565b600073ffffffffffffffffffffffffffffffffffffffff82169050919050565b6000819050919050565b7f4e487b7100000000000000000000000000000000000000000000000000000000600052601160045260246000fd5b7f4e487b7100000000000000000000000000000000000000000000000000000000600052601260045260246000fd5b600080fd5b50565b7f5472616e73666572206661696c65642e00000000000000000000000000000000600082015250565b611297816111b7565b81146112a257600080fd5b50565b6112ae816111c9565b81146112b957600080fd5b50565b6112c5816111f5565b81146112d057600080fd5b5056fea2646970667358221220ba5275c0d8891f9f12988eb5144dacc0653b96db6a7406443ba0db0e104461fb64736f6c63430008070033",
					"opcodes": "PUSH1 0x80 PUSH1 0x40 MSTORE CALLVALUE DUP1 ISZERO PUSH2 0x10 JUMPI PUSH1 0x0 DUP1 REVERT JUMPDEST POP PUSH2 0x1309 DUP1 PUSH2 0x20 PUSH1 0x0 CODECOPY PUSH1 0x0 RETURN INVALID PUSH1 0x80 PUSH1 0x40 MSTORE PUSH1 0x4 CALLDATASIZE LT PUSH2 0x86 JUMPI PUSH1 0x0 CALLDATALOAD PUSH1 0xE0 SHR DUP1 PUSH4 0x82B2E257 GT PUSH2 0x59 JUMPI DUP1 PUSH4 0x82B2E257 EQ PUSH2 0x114 JUMPI DUP1 PUSH4 0xB8C876B1 EQ PUSH2 0x13F JUMPI DUP1 PUSH4 0xCD6DC687 EQ PUSH2 0x17C JUMPI DUP1 PUSH4 0xD0E30DB0 EQ PUSH2 0x198 JUMPI DUP1 PUSH4 0xDEBC674C EQ PUSH2 0x1A2 JUMPI PUSH2 0x86 JUMP JUMPDEST DUP1 PUSH4 0x12065FE0 EQ PUSH2 0x8B JUMPI DUP1 PUSH4 0x2E1A7D4D EQ PUSH2 0xB6 JUMPI DUP1 PUSH4 0x31F3BD28 EQ PUSH2 0xDF JUMPI DUP1 PUSH4 0x7937C03D EQ PUSH2 0x10A JUMPI JUMPDEST PUSH1 0x0 DUP1 REVERT JUMPDEST CALLVALUE DUP1 ISZERO PUSH2 0x97 JUMPI PUSH1 0x0 DUP1 REVERT JUMPDEST POP PUSH2 0xA0 PUSH2 0x1CB JUMP JUMPDEST PUSH1 0x40 MLOAD PUSH2 0xAD SWAP2 SWAP1 PUSH2 0x1042 JUMP JUMPDEST PUSH1 0x40 MLOAD DUP1 SWAP2 SUB SWAP1 RETURN JUMPDEST CALLVALUE DUP1 ISZERO PUSH2 0xC2 JUMPI PUSH1 0x0 DUP1 REVERT JUMPDEST POP PUSH2 0xDD PUSH1 0x4 DUP1 CALLDATASIZE SUB DUP2 ADD SWAP1 PUSH2 0xD8 SWAP2 SWAP1 PUSH2 0xED4 JUMP JUMPDEST PUSH2 0x1D3 JUMP JUMPDEST STOP JUMPDEST CALLVALUE DUP1 ISZERO PUSH2 0xEB JUMPI PUSH1 0x0 DUP1 REVERT JUMPDEST POP PUSH2 0xF4 PUSH2 0x4C5 JUMP JUMPDEST PUSH1 0x40 MLOAD PUSH2 0x101 SWAP2 SWAP1 PUSH2 0x1042 JUMP JUMPDEST PUSH1 0x40 MLOAD DUP1 SWAP2 SUB SWAP1 RETURN JUMPDEST PUSH2 0x112 PUSH2 0x4CB JUMP JUMPDEST STOP JUMPDEST CALLVALUE DUP1 ISZERO PUSH2 0x120 JUMPI PUSH1 0x0 DUP1 REVERT JUMPDEST POP PUSH2 0x129 PUSH2 0x67D JUMP JUMPDEST PUSH1 0x40 MLOAD PUSH2 0x136 SWAP2 SWAP1 PUSH2 0x1042 JUMP JUMPDEST PUSH1 0x40 MLOAD DUP1 SWAP2 SUB SWAP1 RETURN JUMPDEST CALLVALUE DUP1 ISZERO PUSH2 0x14B JUMPI PUSH1 0x0 DUP1 REVERT JUMPDEST POP PUSH2 0x166 PUSH1 0x4 DUP1 CALLDATASIZE SUB DUP2 ADD SWAP1 PUSH2 0x161 SWAP2 SWAP1 PUSH2 0xE3A JUMP JUMPDEST PUSH2 0x72E JUMP JUMPDEST PUSH1 0x40 MLOAD PUSH2 0x173 SWAP2 SWAP1 PUSH2 0x1042 JUMP JUMPDEST PUSH1 0x40 MLOAD DUP1 SWAP2 SUB SWAP1 RETURN JUMPDEST PUSH2 0x196 PUSH1 0x4 DUP1 CALLDATASIZE SUB DUP2 ADD SWAP1 PUSH2 0x191 SWAP2 SWAP1 PUSH2 0xE67 JUMP JUMPDEST PUSH2 0x746 JUMP JUMPDEST STOP JUMPDEST PUSH2 0x1A0 PUSH2 0x8D7 JUMP JUMPDEST STOP JUMPDEST CALLVALUE DUP1 ISZERO PUSH2 0x1AE JUMPI PUSH1 0x0 DUP1 REVERT JUMPDEST POP PUSH2 0x1C9 PUSH1 0x4 DUP1 CALLDATASIZE SUB DUP2 ADD SWAP1 PUSH2 0x1C4 SWAP2 SWAP1 PUSH2 0xED4 JUMP JUMPDEST PUSH2 0xB3B JUMP JUMPDEST STOP JUMPDEST PUSH1 0x0 SELFBALANCE SWAP1 POP SWAP1 JUMP JUMPDEST PUSH1 0x0 PUSH1 0x1 SLOAD SELFBALANCE DUP4 PUSH2 0x1E4 SWAP2 SWAP1 PUSH2 0x1129 JUMP JUMPDEST PUSH2 0x1EE SWAP2 SWAP1 PUSH2 0x10F8 JUMP JUMPDEST SWAP1 POP PUSH1 0x0 PUSH1 0x1 SLOAD PUSH1 0x0 DUP1 SLOAD SWAP1 PUSH2 0x100 EXP SWAP1 DIV PUSH20 0xFFFFFFFFFFFFFFFFFFFFFFFFFFFFFFFFFFFFFFFF AND PUSH20 0xFFFFFFFFFFFFFFFFFFFFFFFFFFFFFFFFFFFFFFFF AND PUSH4 0x70A08231 ADDRESS PUSH1 0x40 MLOAD DUP3 PUSH4 0xFFFFFFFF AND PUSH1 0xE0 SHL DUP2 MSTORE PUSH1 0x4 ADD PUSH2 0x24E SWAP2 SWAP1 PUSH2 0xFA7 JUMP JUMPDEST PUSH1 0x20 PUSH1 0x40 MLOAD DUP1 DUP4 SUB DUP2 DUP7 DUP1 EXTCODESIZE ISZERO DUP1 ISZERO PUSH2 0x266 JUMPI PUSH1 0x0 DUP1 REVERT JUMPDEST POP GAS STATICCALL ISZERO DUP1 ISZERO PUSH2 0x27A JUMPI RETURNDATASIZE PUSH1 0x0 DUP1 RETURNDATACOPY RETURNDATASIZE PUSH1 0x0 REVERT JUMPDEST POP POP POP POP PUSH1 0x40 MLOAD RETURNDATASIZE PUSH1 0x1F NOT PUSH1 0x1F DUP3 ADD AND DUP3 ADD DUP1 PUSH1 0x40 MSTORE POP DUP2 ADD SWAP1 PUSH2 0x29E SWAP2 SWAP1 PUSH2 0xF01 JUMP JUMPDEST DUP5 PUSH2 0x2A9 SWAP2 SWAP1 PUSH2 0x1129 JUMP JUMPDEST PUSH2 0x2B3 SWAP2 SWAP1 PUSH2 0x10F8 JUMP JUMPDEST SWAP1 POP DUP2 PUSH1 0x2 PUSH1 0x0 CALLER PUSH20 0xFFFFFFFFFFFFFFFFFFFFFFFFFFFFFFFFFFFFFFFF AND PUSH20 0xFFFFFFFFFFFFFFFFFFFFFFFFFFFFFFFFFFFFFFFF AND DUP2 MSTORE PUSH1 0x20 ADD SWAP1 DUP2 MSTORE PUSH1 0x20 ADD PUSH1 0x0 KECCAK256 PUSH1 0x0 DUP3 DUP3 SLOAD PUSH2 0x304 SWAP2 SWAP1 PUSH2 0x1183 JUMP JUMPDEST SWAP3 POP POP DUP2 SWAP1 SSTORE POP DUP2 PUSH1 0x1 PUSH1 0x0 DUP3 DUP3 SLOAD PUSH2 0x31D SWAP2 SWAP1 PUSH2 0x1183 JUMP JUMPDEST SWAP3 POP POP DUP2 SWAP1 SSTORE POP PUSH1 0x0 CALLER PUSH20 0xFFFFFFFFFFFFFFFFFFFFFFFFFFFFFFFFFFFFFFFF AND DUP4 PUSH1 0x40 MLOAD PUSH2 0x34A SWAP1 PUSH2 0xF92 JUMP JUMPDEST PUSH1 0x0 PUSH1 0x40 MLOAD DUP1 DUP4 SUB DUP2 DUP6 DUP8 GAS CALL SWAP3 POP POP POP RETURNDATASIZE DUP1 PUSH1 0x0 DUP2 EQ PUSH2 0x387 JUMPI PUSH1 0x40 MLOAD SWAP2 POP PUSH1 0x1F NOT PUSH1 0x3F RETURNDATASIZE ADD AND DUP3 ADD PUSH1 0x40 MSTORE RETURNDATASIZE DUP3 MSTORE RETURNDATASIZE PUSH1 0x0 PUSH1 0x20 DUP5 ADD RETURNDATACOPY PUSH2 0x38C JUMP JUMPDEST PUSH1 0x60 SWAP2 POP JUMPDEST POP POP SWAP1 POP DUP1 PUSH2 0x3D0 JUMPI PUSH1 0x40 MLOAD PUSH32 0x8C379A000000000000000000000000000000000000000000000000000000000 DUP2 MSTORE PUSH1 0x4 ADD PUSH2 0x3C7 SWAP1 PUSH2 0x1022 JUMP JUMPDEST PUSH1 0x40 MLOAD DUP1 SWAP2 SUB SWAP1 REVERT JUMPDEST PUSH1 0x0 DUP1 SLOAD SWAP1 PUSH2 0x100 EXP SWAP1 DIV PUSH20 0xFFFFFFFFFFFFFFFFFFFFFFFFFFFFFFFFFFFFFFFF AND PUSH20 0xFFFFFFFFFFFFFFFFFFFFFFFFFFFFFFFFFFFFFFFF AND PUSH4 0xA9059CBB CALLER DUP5 PUSH1 0x40 MLOAD DUP4 PUSH4 0xFFFFFFFF AND PUSH1 0xE0 SHL DUP2 MSTORE PUSH1 0x4 ADD PUSH2 0x42B SWAP3 SWAP2 SWAP1 PUSH2 0xFF9 JUMP JUMPDEST PUSH1 0x20 PUSH1 0x40 MLOAD DUP1 DUP4 SUB DUP2 PUSH1 0x0 DUP8 DUP1 EXTCODESIZE ISZERO DUP1 ISZERO PUSH2 0x445 JUMPI PUSH1 0x0 DUP1 REVERT JUMPDEST POP GAS CALL ISZERO DUP1 ISZERO PUSH2 0x459 JUMPI RETURNDATASIZE PUSH1 0x0 DUP1 RETURNDATACOPY RETURNDATASIZE PUSH1 0x0 REVERT JUMPDEST POP POP POP POP PUSH1 0x40 MLOAD RETURNDATASIZE PUSH1 0x1F NOT PUSH1 0x1F DUP3 ADD AND DUP3 ADD DUP1 PUSH1 0x40 MSTORE POP DUP2 ADD SWAP1 PUSH2 0x47D SWAP2 SWAP1 PUSH2 0xEA7 JUMP JUMPDEST PUSH2 0x486 JUMPI PUSH1 0x0 DUP1 REVERT JUMPDEST PUSH32 0x56CA301A9219608C91E7BCEE90E083C19671D2CDCC96752C7AF291CEE5F9C8C8 DUP4 DUP4 PUSH1 0x40 MLOAD PUSH2 0x4B7 SWAP3 SWAP2 SWAP1 PUSH2 0x105D JUMP JUMPDEST PUSH1 0x40 MLOAD DUP1 SWAP2 SUB SWAP1 LOG1 POP POP POP POP JUMP JUMPDEST PUSH1 0x1 SLOAD DUP2 JUMP JUMPDEST PUSH1 0x0 PUSH2 0x58B CALLVALUE CALLVALUE SELFBALANCE PUSH2 0x4DD SWAP2 SWAP1 PUSH2 0x1183 JUMP JUMPDEST PUSH1 0x0 DUP1 SLOAD SWAP1 PUSH2 0x100 EXP SWAP1 DIV PUSH20 0xFFFFFFFFFFFFFFFFFFFFFFFFFFFFFFFFFFFFFFFF AND PUSH20 0xFFFFFFFFFFFFFFFFFFFFFFFFFFFFFFFFFFFFFFFF AND PUSH4 0x70A08231 ADDRESS PUSH1 0x40 MLOAD DUP3 PUSH4 0xFFFFFFFF AND PUSH1 0xE0 SHL DUP2 MSTORE PUSH1 0x4 ADD PUSH2 0x536 SWAP2 SWAP1 PUSH2 0xFA7 JUMP JUMPDEST PUSH1 0x20 PUSH1 0x40 MLOAD DUP1 DUP4 SUB DUP2 DUP7 DUP1 EXTCODESIZE ISZERO DUP1 ISZERO PUSH2 0x54E JUMPI PUSH1 0x0 DUP1 REVERT JUMPDEST POP GAS STATICCALL ISZERO DUP1 ISZERO PUSH2 0x562 JUMPI RETURNDATASIZE PUSH1 0x0 DUP1 RETURNDATACOPY RETURNDATASIZE PUSH1 0x0 REVERT JUMPDEST POP POP POP POP PUSH1 0x40 MLOAD RETURNDATASIZE PUSH1 0x1F NOT PUSH1 0x1F DUP3 ADD AND DUP3 ADD DUP1 PUSH1 0x40 MSTORE POP DUP2 ADD SWAP1 PUSH2 0x586 SWAP2 SWAP1 PUSH2 0xF01 JUMP JUMPDEST PUSH2 0xD92 JUMP JUMPDEST SWAP1 POP PUSH1 0x0 DUP1 SLOAD SWAP1 PUSH2 0x100 EXP SWAP1 DIV PUSH20 0xFFFFFFFFFFFFFFFFFFFFFFFFFFFFFFFFFFFFFFFF AND PUSH20 0xFFFFFFFFFFFFFFFFFFFFFFFFFFFFFFFFFFFFFFFF AND PUSH4 0xA9059CBB CALLER DUP4 PUSH1 0x40 MLOAD DUP4 PUSH4 0xFFFFFFFF AND PUSH1 0xE0 SHL DUP2 MSTORE PUSH1 0x4 ADD PUSH2 0x5E8 SWAP3 SWAP2 SWAP1 PUSH2 0xFF9 JUMP JUMPDEST PUSH1 0x20 PUSH1 0x40 MLOAD DUP1 DUP4 SUB DUP2 PUSH1 0x0 DUP8 DUP1 EXTCODESIZE ISZERO DUP1 ISZERO PUSH2 0x602 JUMPI PUSH1 0x0 DUP1 REVERT JUMPDEST POP GAS CALL ISZERO DUP1 ISZERO PUSH2 0x616 JUMPI RETURNDATASIZE PUSH1 0x0 DUP1 RETURNDATACOPY RETURNDATASIZE PUSH1 0x0 REVERT JUMPDEST POP POP POP POP PUSH1 0x40 MLOAD RETURNDATASIZE PUSH1 0x1F NOT PUSH1 0x1F DUP3 ADD AND DUP3 ADD DUP1 PUSH1 0x40 MSTORE POP DUP2 ADD SWAP1 PUSH2 0x63A SWAP2 SWAP1 PUSH2 0xEA7 JUMP JUMPDEST PUSH2 0x643 JUMPI PUSH1 0x0 DUP1 REVERT JUMPDEST PUSH32 0xDB04C7A6D4758FD55D738EBC67E7F3010AC922BE00771EF29521A4090D1EB13F DUP2 PUSH1 0x40 MLOAD PUSH2 0x672 SWAP2 SWAP1 PUSH2 0x1042 JUMP JUMPDEST PUSH1 0x40 MLOAD DUP1 SWAP2 SUB SWAP1 LOG1 POP JUMP JUMPDEST PUSH1 0x0 DUP1 PUSH1 0x0 SWAP1 SLOAD SWAP1 PUSH2 0x100 EXP SWAP1 DIV PUSH20 0xFFFFFFFFFFFFFFFFFFFFFFFFFFFFFFFFFFFFFFFF AND PUSH20 0xFFFFFFFFFFFFFFFFFFFFFFFFFFFFFFFFFFFFFFFF AND PUSH4 0x70A08231 ADDRESS PUSH1 0x40 MLOAD DUP3 PUSH4 0xFFFFFFFF AND PUSH1 0xE0 SHL DUP2 MSTORE PUSH1 0x4 ADD PUSH2 0x6D9 SWAP2 SWAP1 PUSH2 0xFA7 JUMP JUMPDEST PUSH1 0x20 PUSH1 0x40 MLOAD DUP1 DUP4 SUB DUP2 DUP7 DUP1 EXTCODESIZE ISZERO DUP1 ISZERO PUSH2 0x6F1 JUMPI PUSH1 0x0 DUP1 REVERT JUMPDEST POP GAS STATICCALL ISZERO DUP1 ISZERO PUSH2 0x705 JUMPI RETURNDATASIZE PUSH1 0x0 DUP1 RETURNDATACOPY RETURNDATASIZE PUSH1 0x0 REVERT JUMPDEST POP POP POP POP PUSH1 0x40 MLOAD RETURNDATASIZE PUSH1 0x1F NOT PUSH1 0x1F DUP3 ADD AND DUP3 ADD DUP1 PUSH1 0x40 MSTORE POP DUP2 ADD SWAP1 PUSH2 0x729 SWAP2 SWAP1 PUSH2 0xF01 JUMP JUMPDEST SWAP1 POP SWAP1 JUMP JUMPDEST PUSH1 0x2 PUSH1 0x20 MSTORE DUP1 PUSH1 0x0 MSTORE PUSH1 0x40 PUSH1 0x0 KECCAK256 PUSH1 0x0 SWAP2 POP SWAP1 POP SLOAD DUP2 JUMP JUMPDEST PUSH1 0x0 PUSH1 0x1 SLOAD EQ PUSH2 0x755 JUMPI PUSH1 0x0 DUP1 REVERT JUMPDEST DUP2 PUSH1 0x0 DUP1 PUSH2 0x100 EXP DUP2 SLOAD DUP2 PUSH20 0xFFFFFFFFFFFFFFFFFFFFFFFFFFFFFFFFFFFFFFFF MUL NOT AND SWAP1 DUP4 PUSH20 0xFFFFFFFFFFFFFFFFFFFFFFFFFFFFFFFFFFFFFFFF AND MUL OR SWAP1 SSTORE POP SELFBALANCE PUSH1 0x1 DUP2 SWAP1 SSTORE POP PUSH1 0x1 SLOAD PUSH1 0x2 PUSH1 0x0 CALLER PUSH20 0xFFFFFFFFFFFFFFFFFFFFFFFFFFFFFFFFFFFFFFFF AND PUSH20 0xFFFFFFFFFFFFFFFFFFFFFFFFFFFFFFFFFFFFFFFF AND DUP2 MSTORE PUSH1 0x20 ADD SWAP1 DUP2 MSTORE PUSH1 0x20 ADD PUSH1 0x0 KECCAK256 DUP2 SWAP1 SSTORE POP PUSH1 0x0 DUP1 SLOAD SWAP1 PUSH2 0x100 EXP SWAP1 DIV PUSH20 0xFFFFFFFFFFFFFFFFFFFFFFFFFFFFFFFFFFFFFFFF AND PUSH20 0xFFFFFFFFFFFFFFFFFFFFFFFFFFFFFFFFFFFFFFFF AND PUSH4 0x23B872DD CALLER ADDRESS DUP5 PUSH1 0x40 MLOAD DUP5 PUSH4 0xFFFFFFFF AND PUSH1 0xE0 SHL DUP2 MSTORE PUSH1 0x4 ADD PUSH2 0x83F SWAP4 SWAP3 SWAP2 SWAP1 PUSH2 0xFC2 JUMP JUMPDEST PUSH1 0x20 PUSH1 0x40 MLOAD DUP1 DUP4 SUB DUP2 PUSH1 0x0 DUP8 DUP1 EXTCODESIZE ISZERO DUP1 ISZERO PUSH2 0x859 JUMPI PUSH1 0x0 DUP1 REVERT JUMPDEST POP GAS CALL ISZERO DUP1 ISZERO PUSH2 0x86D JUMPI RETURNDATASIZE PUSH1 0x0 DUP1 RETURNDATACOPY RETURNDATASIZE PUSH1 0x0 REVERT JUMPDEST POP POP POP POP PUSH1 0x40 MLOAD RETURNDATASIZE PUSH1 0x1F NOT PUSH1 0x1F DUP3 ADD AND DUP3 ADD DUP1 PUSH1 0x40 MSTORE POP DUP2 ADD SWAP1 PUSH2 0x891 SWAP2 SWAP1 PUSH2 0xEA7 JUMP JUMPDEST PUSH2 0x89A JUMPI PUSH1 0x0 DUP1 REVERT JUMPDEST PUSH32 0xC43E48CF47E9FA186D0F4096C61D1FCB54159799F935A2AA32E5589688EE36E1 PUSH1 0x1 SLOAD PUSH1 0x40 MLOAD PUSH2 0x8CB SWAP2 SWAP1 PUSH2 0x1042 JUMP JUMPDEST PUSH1 0x40 MLOAD DUP1 SWAP2 SUB SWAP1 LOG1 POP POP JUMP JUMPDEST PUSH1 0x0 PUSH1 0x1 CALLVALUE SELFBALANCE PUSH2 0x8E7 SWAP2 SWAP1 PUSH2 0x1183 JUMP JUMPDEST PUSH1 0x0 DUP1 SLOAD SWAP1 PUSH2 0x100 EXP SWAP1 DIV PUSH20 0xFFFFFFFFFFFFFFFFFFFFFFFFFFFFFFFFFFFFFFFF AND PUSH20 0xFFFFFFFFFFFFFFFFFFFFFFFFFFFFFFFFFFFFFFFF AND PUSH4 0x70A08231 ADDRESS PUSH1 0x40 MLOAD DUP3 PUSH4 0xFFFFFFFF AND PUSH1 0xE0 SHL DUP2 MSTORE PUSH1 0x4 ADD PUSH2 0x940 SWAP2 SWAP1 PUSH2 0xFA7 JUMP JUMPDEST PUSH1 0x20 PUSH1 0x40 MLOAD DUP1 DUP4 SUB DUP2 DUP7 DUP1 EXTCODESIZE ISZERO DUP1 ISZERO PUSH2 0x958 JUMPI PUSH1 0x0 DUP1 REVERT JUMPDEST POP GAS STATICCALL ISZERO DUP1 ISZERO PUSH2 0x96C JUMPI RETURNDATASIZE PUSH1 0x0 DUP1 RETURNDATACOPY RETURNDATASIZE PUSH1 0x0 REVERT JUMPDEST POP POP POP POP PUSH1 0x40 MLOAD RETURNDATASIZE PUSH1 0x1F NOT PUSH1 0x1F DUP3 ADD AND DUP3 ADD DUP1 PUSH1 0x40 MSTORE POP DUP2 ADD SWAP1 PUSH2 0x990 SWAP2 SWAP1 PUSH2 0xF01 JUMP JUMPDEST CALLVALUE PUSH2 0x99B SWAP2 SWAP1 PUSH2 0x1129 JUMP JUMPDEST PUSH2 0x9A5 SWAP2 SWAP1 PUSH2 0x10F8 JUMP JUMPDEST PUSH2 0x9AF SWAP2 SWAP1 PUSH2 0x10A2 JUMP JUMPDEST SWAP1 POP PUSH1 0x0 CALLVALUE SELFBALANCE PUSH2 0x9BF SWAP2 SWAP1 PUSH2 0x1183 JUMP JUMPDEST PUSH1 0x1 SLOAD CALLVALUE PUSH2 0x9CD SWAP2 SWAP1 PUSH2 0x1129 JUMP JUMPDEST PUSH2 0x9D7 SWAP2 SWAP1 PUSH2 0x10F8 JUMP JUMPDEST SWAP1 POP DUP1 PUSH1 0x2 PUSH1 0x0 CALLER PUSH20 0xFFFFFFFFFFFFFFFFFFFFFFFFFFFFFFFFFFFFFFFF AND PUSH20 0xFFFFFFFFFFFFFFFFFFFFFFFFFFFFFFFFFFFFFFFF AND DUP2 MSTORE PUSH1 0x20 ADD SWAP1 DUP2 MSTORE PUSH1 0x20 ADD PUSH1 0x0 KECCAK256 PUSH1 0x0 DUP3 DUP3 SLOAD PUSH2 0xA28 SWAP2 SWAP1 PUSH2 0x10A2 JUMP JUMPDEST SWAP3 POP POP DUP2 SWAP1 SSTORE POP DUP1 PUSH1 0x1 PUSH1 0x0 DUP3 DUP3 SLOAD PUSH2 0xA41 SWAP2 SWAP1 PUSH2 0x10A2 JUMP JUMPDEST SWAP3 POP POP DUP2 SWAP1 SSTORE POP PUSH1 0x0 DUP1 SLOAD SWAP1 PUSH2 0x100 EXP SWAP1 DIV PUSH20 0xFFFFFFFFFFFFFFFFFFFFFFFFFFFFFFFFFFFFFFFF AND PUSH20 0xFFFFFFFFFFFFFFFFFFFFFFFFFFFFFFFFFFFFFFFF AND PUSH4 0x23B872DD CALLER ADDRESS DUP6 PUSH1 0x40 MLOAD DUP5 PUSH4 0xFFFFFFFF AND PUSH1 0xE0 SHL DUP2 MSTORE PUSH1 0x4 ADD PUSH2 0xAA5 SWAP4 SWAP3 SWAP2 SWAP1 PUSH2 0xFC2 JUMP JUMPDEST PUSH1 0x20 PUSH1 0x40 MLOAD DUP1 DUP4 SUB DUP2 PUSH1 0x0 DUP8 DUP1 EXTCODESIZE ISZERO DUP1 ISZERO PUSH2 0xABF JUMPI PUSH1 0x0 DUP1 REVERT JUMPDEST POP GAS CALL ISZERO DUP1 ISZERO PUSH2 0xAD3 JUMPI RETURNDATASIZE PUSH1 0x0 DUP1 RETURNDATACOPY RETURNDATASIZE PUSH1 0x0 REVERT JUMPDEST POP POP POP POP PUSH1 0x40 MLOAD RETURNDATASIZE PUSH1 0x1F NOT PUSH1 0x1F DUP3 ADD AND DUP3 ADD DUP1 PUSH1 0x40 MSTORE POP DUP2 ADD SWAP1 PUSH2 0xAF7 SWAP2 SWAP1 PUSH2 0xEA7 JUMP JUMPDEST PUSH2 0xB00 JUMPI PUSH1 0x0 DUP1 REVERT JUMPDEST PUSH32 0x4D6CE1E535DBADE1C23DEFBA91E23B8F791CE5EDC0CC320257A2B364E4E38426 DUP2 PUSH1 0x40 MLOAD PUSH2 0xB2F SWAP2 SWAP1 PUSH2 0x1042 JUMP JUMPDEST PUSH1 0x40 MLOAD DUP1 SWAP2 SUB SWAP1 LOG1 POP POP JUMP JUMPDEST PUSH1 0x0 PUSH2 0xBF0 DUP3 PUSH1 0x0 DUP1 SLOAD SWAP1 PUSH2 0x100 EXP SWAP1 DIV PUSH20 0xFFFFFFFFFFFFFFFFFFFFFFFFFFFFFFFFFFFFFFFF AND PUSH20 0xFFFFFFFFFFFFFFFFFFFFFFFFFFFFFFFFFFFFFFFF AND PUSH4 0x70A08231 ADDRESS PUSH1 0x40 MLOAD DUP3 PUSH4 0xFFFFFFFF AND PUSH1 0xE0 SHL DUP2 MSTORE PUSH1 0x4 ADD PUSH2 0xB9A SWAP2 SWAP1 PUSH2 0xFA7 JUMP JUMPDEST PUSH1 0x20 PUSH1 0x40 MLOAD DUP1 DUP4 SUB DUP2 DUP7 DUP1 EXTCODESIZE ISZERO DUP1 ISZERO PUSH2 0xBB2 JUMPI PUSH1 0x0 DUP1 REVERT JUMPDEST POP GAS STATICCALL ISZERO DUP1 ISZERO PUSH2 0xBC6 JUMPI RETURNDATASIZE PUSH1 0x0 DUP1 RETURNDATACOPY RETURNDATASIZE PUSH1 0x0 REVERT JUMPDEST POP POP POP POP PUSH1 0x40 MLOAD RETURNDATASIZE PUSH1 0x1F NOT PUSH1 0x1F DUP3 ADD AND DUP3 ADD DUP1 PUSH1 0x40 MSTORE POP DUP2 ADD SWAP1 PUSH2 0xBEA SWAP2 SWAP1 PUSH2 0xF01 JUMP JUMPDEST SELFBALANCE PUSH2 0xD92 JUMP JUMPDEST SWAP1 POP PUSH1 0x0 CALLER PUSH20 0xFFFFFFFFFFFFFFFFFFFFFFFFFFFFFFFFFFFFFFFF AND DUP3 PUSH1 0x40 MLOAD PUSH2 0xC18 SWAP1 PUSH2 0xF92 JUMP JUMPDEST PUSH1 0x0 PUSH1 0x40 MLOAD DUP1 DUP4 SUB DUP2 DUP6 DUP8 GAS CALL SWAP3 POP POP POP RETURNDATASIZE DUP1 PUSH1 0x0 DUP2 EQ PUSH2 0xC55 JUMPI PUSH1 0x40 MLOAD SWAP2 POP PUSH1 0x1F NOT PUSH1 0x3F RETURNDATASIZE ADD AND DUP3 ADD PUSH1 0x40 MSTORE RETURNDATASIZE DUP3 MSTORE RETURNDATASIZE PUSH1 0x0 PUSH1 0x20 DUP5 ADD RETURNDATACOPY PUSH2 0xC5A JUMP JUMPDEST PUSH1 0x60 SWAP2 POP JUMPDEST POP POP SWAP1 POP DUP1 PUSH2 0xC9E JUMPI PUSH1 0x40 MLOAD PUSH32 0x8C379A000000000000000000000000000000000000000000000000000000000 DUP2 MSTORE PUSH1 0x4 ADD PUSH2 0xC95 SWAP1 PUSH2 0x1022 JUMP JUMPDEST PUSH1 0x40 MLOAD DUP1 SWAP2 SUB SWAP1 REVERT JUMPDEST PUSH1 0x0 DUP1 SLOAD SWAP1 PUSH2 0x100 EXP SWAP1 DIV PUSH20 0xFFFFFFFFFFFFFFFFFFFFFFFFFFFFFFFFFFFFFFFF AND PUSH20 0xFFFFFFFFFFFFFFFFFFFFFFFFFFFFFFFFFFFFFFFF AND PUSH4 0x23B872DD CALLER ADDRESS DUP7 PUSH1 0x40 MLOAD DUP5 PUSH4 0xFFFFFFFF AND PUSH1 0xE0 SHL DUP2 MSTORE PUSH1 0x4 ADD PUSH2 0xCFB SWAP4 SWAP3 SWAP2 SWAP1 PUSH2 0xFC2 JUMP JUMPDEST PUSH1 0x20 PUSH1 0x40 MLOAD DUP1 DUP4 SUB DUP2 PUSH1 0x0 DUP8 DUP1 EXTCODESIZE ISZERO DUP1 ISZERO PUSH2 0xD15 JUMPI PUSH1 0x0 DUP1 REVERT JUMPDEST POP GAS CALL ISZERO DUP1 ISZERO PUSH2 0xD29 JUMPI RETURNDATASIZE PUSH1 0x0 DUP1 RETURNDATACOPY RETURNDATASIZE PUSH1 0x0 REVERT JUMPDEST POP POP POP POP PUSH1 0x40 MLOAD RETURNDATASIZE PUSH1 0x1F NOT PUSH1 0x1F DUP3 ADD AND DUP3 ADD DUP1 PUSH1 0x40 MSTORE POP DUP2 ADD SWAP1 PUSH2 0xD4D SWAP2 SWAP1 PUSH2 0xEA7 JUMP JUMPDEST PUSH2 0xD56 JUMPI PUSH1 0x0 DUP1 REVERT JUMPDEST PUSH32 0x4DBF3A71A7C7262F432C2CAD7808225832255D07F7D8AB85117677C0B5C0A850 DUP3 PUSH1 0x40 MLOAD PUSH2 0xD85 SWAP2 SWAP1 PUSH2 0x1042 JUMP JUMPDEST PUSH1 0x40 MLOAD DUP1 SWAP2 SUB SWAP1 LOG1 POP POP POP JUMP JUMPDEST PUSH1 0x0 DUP4 PUSH2 0x3E3 PUSH2 0xDA2 SWAP2 SWAP1 PUSH2 0x1129 JUMP JUMPDEST DUP4 PUSH2 0x3E8 PUSH2 0xDB0 SWAP2 SWAP1 PUSH2 0x1129 JUMP JUMPDEST PUSH2 0xDBA SWAP2 SWAP1 PUSH2 0x10A2 JUMP JUMPDEST DUP3 DUP6 PUSH2 0x3E3 PUSH2 0xDC9 SWAP2 SWAP1 PUSH2 0x1129 JUMP JUMPDEST PUSH2 0xDD3 SWAP2 SWAP1 PUSH2 0x1129 JUMP JUMPDEST PUSH2 0xDDD SWAP2 SWAP1 PUSH2 0x10F8 JUMP JUMPDEST SWAP1 POP SWAP4 SWAP3 POP POP POP JUMP JUMPDEST PUSH1 0x0 DUP2 CALLDATALOAD SWAP1 POP PUSH2 0xDF5 DUP2 PUSH2 0x128E JUMP JUMPDEST SWAP3 SWAP2 POP POP JUMP JUMPDEST PUSH1 0x0 DUP2 MLOAD SWAP1 POP PUSH2 0xE0A DUP2 PUSH2 0x12A5 JUMP JUMPDEST SWAP3 SWAP2 POP POP JUMP JUMPDEST PUSH1 0x0 DUP2 CALLDATALOAD SWAP1 POP PUSH2 0xE1F DUP2 PUSH2 0x12BC JUMP JUMPDEST SWAP3 SWAP2 POP POP JUMP JUMPDEST PUSH1 0x0 DUP2 MLOAD SWAP1 POP PUSH2 0xE34 DUP2 PUSH2 0x12BC JUMP JUMPDEST SWAP3 SWAP2 POP POP JUMP JUMPDEST PUSH1 0x0 PUSH1 0x20 DUP3 DUP5 SUB SLT ISZERO PUSH2 0xE50 JUMPI PUSH2 0xE4F PUSH2 0x125D JUMP JUMPDEST JUMPDEST PUSH1 0x0 PUSH2 0xE5E DUP5 DUP3 DUP6 ADD PUSH2 0xDE6 JUMP JUMPDEST SWAP2 POP POP SWAP3 SWAP2 POP POP JUMP JUMPDEST PUSH1 0x0 DUP1 PUSH1 0x40 DUP4 DUP6 SUB SLT ISZERO PUSH2 0xE7E JUMPI PUSH2 0xE7D PUSH2 0x125D JUMP JUMPDEST JUMPDEST PUSH1 0x0 PUSH2 0xE8C DUP6 DUP3 DUP7 ADD PUSH2 0xDE6 JUMP JUMPDEST SWAP3 POP POP PUSH1 0x20 PUSH2 0xE9D DUP6 DUP3 DUP7 ADD PUSH2 0xE10 JUMP JUMPDEST SWAP2 POP POP SWAP3 POP SWAP3 SWAP1 POP JUMP JUMPDEST PUSH1 0x0 PUSH1 0x20 DUP3 DUP5 SUB SLT ISZERO PUSH2 0xEBD JUMPI PUSH2 0xEBC PUSH2 0x125D JUMP JUMPDEST JUMPDEST PUSH1 0x0 PUSH2 0xECB DUP5 DUP3 DUP6 ADD PUSH2 0xDFB JUMP JUMPDEST SWAP2 POP POP SWAP3 SWAP2 POP POP JUMP JUMPDEST PUSH1 0x0 PUSH1 0x20 DUP3 DUP5 SUB SLT ISZERO PUSH2 0xEEA JUMPI PUSH2 0xEE9 PUSH2 0x125D JUMP JUMPDEST JUMPDEST PUSH1 0x0 PUSH2 0xEF8 DUP5 DUP3 DUP6 ADD PUSH2 0xE10 JUMP JUMPDEST SWAP2 POP POP SWAP3 SWAP2 POP POP JUMP JUMPDEST PUSH1 0x0 PUSH1 0x20 DUP3 DUP5 SUB SLT ISZERO PUSH2 0xF17 JUMPI PUSH2 0xF16 PUSH2 0x125D JUMP JUMPDEST JUMPDEST PUSH1 0x0 PUSH2 0xF25 DUP5 DUP3 DUP6 ADD PUSH2 0xE25 JUMP JUMPDEST SWAP2 POP POP SWAP3 SWAP2 POP POP JUMP JUMPDEST PUSH2 0xF37 DUP2 PUSH2 0x11B7 JUMP JUMPDEST DUP3 MSTORE POP POP JUMP JUMPDEST PUSH1 0x0 PUSH2 0xF4A PUSH1 0x0 DUP4 PUSH2 0x1086 JUMP JUMPDEST SWAP2 POP PUSH2 0xF55 DUP3 PUSH2 0x1262 JUMP JUMPDEST PUSH1 0x0 DUP3 ADD SWAP1 POP SWAP2 SWAP1 POP JUMP JUMPDEST PUSH1 0x0 PUSH2 0xF6D PUSH1 0x10 DUP4 PUSH2 0x1091 JUMP JUMPDEST SWAP2 POP PUSH2 0xF78 DUP3 PUSH2 0x1265 JUMP JUMPDEST PUSH1 0x20 DUP3 ADD SWAP1 POP SWAP2 SWAP1 POP JUMP JUMPDEST PUSH2 0xF8C DUP2 PUSH2 0x11F5 JUMP JUMPDEST DUP3 MSTORE POP POP JUMP JUMPDEST PUSH1 0x0 PUSH2 0xF9D DUP3 PUSH2 0xF3D JUMP JUMPDEST SWAP2 POP DUP2 SWAP1 POP SWAP2 SWAP1 POP JUMP JUMPDEST PUSH1 0x0 PUSH1 0x20 DUP3 ADD SWAP1 POP PUSH2 0xFBC PUSH1 0x0 DUP4 ADD DUP5 PUSH2 0xF2E JUMP JUMPDEST SWAP3 SWAP2 POP POP JUMP JUMPDEST PUSH1 0x0 PUSH1 0x60 DUP3 ADD SWAP1 POP PUSH2 0xFD7 PUSH1 0x0 DUP4 ADD DUP7 PUSH2 0xF2E JUMP JUMPDEST PUSH2 0xFE4 PUSH1 0x20 DUP4 ADD DUP6 PUSH2 0xF2E JUMP JUMPDEST PUSH2 0xFF1 PUSH1 0x40 DUP4 ADD DUP5 PUSH2 0xF83 JUMP JUMPDEST SWAP5 SWAP4 POP POP POP POP JUMP JUMPDEST PUSH1 0x0 PUSH1 0x40 DUP3 ADD SWAP1 POP PUSH2 0x100E PUSH1 0x0 DUP4 ADD DUP6 PUSH2 0xF2E JUMP JUMPDEST PUSH2 0x101B PUSH1 0x20 DUP4 ADD DUP5 PUSH2 0xF83 JUMP JUMPDEST SWAP4 SWAP3 POP POP POP JUMP JUMPDEST PUSH1 0x0 PUSH1 0x20 DUP3 ADD SWAP1 POP DUP2 DUP2 SUB PUSH1 0x0 DUP4 ADD MSTORE PUSH2 0x103B DUP2 PUSH2 0xF60 JUMP JUMPDEST SWAP1 POP SWAP2 SWAP1 POP JUMP JUMPDEST PUSH1 0x0 PUSH1 0x20 DUP3 ADD SWAP1 POP PUSH2 0x1057 PUSH1 0x0 DUP4 ADD DUP5 PUSH2 0xF83 JUMP JUMPDEST SWAP3 SWAP2 POP POP JUMP JUMPDEST PUSH1 0x0 PUSH1 0x40 DUP3 ADD SWAP1 POP PUSH2 0x1072 PUSH1 0x0 DUP4 ADD DUP6 PUSH2 0xF83 JUMP JUMPDEST PUSH2 0x107F PUSH1 0x20 DUP4 ADD DUP5 PUSH2 0xF83 JUMP JUMPDEST SWAP4 SWAP3 POP POP POP JUMP JUMPDEST PUSH1 0x0 DUP2 SWAP1 POP SWAP3 SWAP2 POP POP JUMP JUMPDEST PUSH1 0x0 DUP3 DUP3 MSTORE PUSH1 0x20 DUP3 ADD SWAP1 POP SWAP3 SWAP2 POP POP JUMP JUMPDEST PUSH1 0x0 PUSH2 0x10AD DUP3 PUSH2 0x11F5 JUMP JUMPDEST SWAP2 POP PUSH2 0x10B8 DUP4 PUSH2 0x11F5 JUMP JUMPDEST SWAP3 POP DUP3 PUSH32 0xFFFFFFFFFFFFFFFFFFFFFFFFFFFFFFFFFFFFFFFFFFFFFFFFFFFFFFFFFFFFFFFF SUB DUP3 GT ISZERO PUSH2 0x10ED JUMPI PUSH2 0x10EC PUSH2 0x11FF JUMP JUMPDEST JUMPDEST DUP3 DUP3 ADD SWAP1 POP SWAP3 SWAP2 POP POP JUMP JUMPDEST PUSH1 0x0 PUSH2 0x1103 DUP3 PUSH2 0x11F5 JUMP JUMPDEST SWAP2 POP PUSH2 0x110E DUP4 PUSH2 0x11F5 JUMP JUMPDEST SWAP3 POP DUP3 PUSH2 0x111E JUMPI PUSH2 0x111D PUSH2 0x122E JUMP JUMPDEST JUMPDEST DUP3 DUP3 DIV SWAP1 POP SWAP3 SWAP2 POP POP JUMP JUMPDEST PUSH1 0x0 PUSH2 0x1134 DUP3 PUSH2 0x11F5 JUMP JUMPDEST SWAP2 POP PUSH2 0x113F DUP4 PUSH2 0x11F5 JUMP JUMPDEST SWAP3 POP DUP2 PUSH32 0xFFFFFFFFFFFFFFFFFFFFFFFFFFFFFFFFFFFFFFFFFFFFFFFFFFFFFFFFFFFFFFFF DIV DUP4 GT DUP3 ISZERO ISZERO AND ISZERO PUSH2 0x1178 JUMPI PUSH2 0x1177 PUSH2 0x11FF JUMP JUMPDEST JUMPDEST DUP3 DUP3 MUL SWAP1 POP SWAP3 SWAP2 POP POP JUMP JUMPDEST PUSH1 0x0 PUSH2 0x118E DUP3 PUSH2 0x11F5 JUMP JUMPDEST SWAP2 POP PUSH2 0x1199 DUP4 PUSH2 0x11F5 JUMP JUMPDEST SWAP3 POP DUP3 DUP3 LT ISZERO PUSH2 0x11AC JUMPI PUSH2 0x11AB PUSH2 0x11FF JUMP JUMPDEST JUMPDEST DUP3 DUP3 SUB SWAP1 POP SWAP3 SWAP2 POP POP JUMP JUMPDEST PUSH1 0x0 PUSH2 0x11C2 DUP3 PUSH2 0x11D5 JUMP JUMPDEST SWAP1 POP SWAP2 SWAP1 POP JUMP JUMPDEST PUSH1 0x0 DUP2 ISZERO ISZERO SWAP1 POP SWAP2 SWAP1 POP JUMP JUMPDEST PUSH1 0x0 PUSH20 0xFFFFFFFFFFFFFFFFFFFFFFFFFFFFFFFFFFFFFFFF DUP3 AND SWAP1 POP SWAP2 SWAP1 POP JUMP JUMPDEST PUSH1 0x0 DUP2 SWAP1 POP SWAP2 SWAP1 POP JUMP JUMPDEST PUSH32 0x4E487B7100000000000000000000000000000000000000000000000000000000 PUSH1 0x0 MSTORE PUSH1 0x11 PUSH1 0x4 MSTORE PUSH1 0x24 PUSH1 0x0 REVERT JUMPDEST PUSH32 0x4E487B7100000000000000000000000000000000000000000000000000000000 PUSH1 0x0 MSTORE PUSH1 0x12 PUSH1 0x4 MSTORE PUSH1 0x24 PUSH1 0x0 REVERT JUMPDEST PUSH1 0x0 DUP1 REVERT JUMPDEST POP JUMP JUMPDEST PUSH32 0x5472616E73666572206661696C65642E00000000000000000000000000000000 PUSH1 0x0 DUP3 ADD MSTORE POP JUMP JUMPDEST PUSH2 0x1297 DUP2 PUSH2 0x11B7 JUMP JUMPDEST DUP2 EQ PUSH2 0x12A2 JUMPI PUSH1 0x0 DUP1 REVERT JUMPDEST POP JUMP JUMPDEST PUSH2 0x12AE DUP2 PUSH2 0x11C9 JUMP JUMPDEST DUP2 EQ PUSH2 0x12B9 JUMPI PUSH1 0x0 DUP1 REVERT JUMPDEST POP JUMP JUMPDEST PUSH2 0x12C5 DUP2 PUSH2 0x11F5 JUMP JUMPDEST DUP2 EQ PUSH2 0x12D0 JUMPI PUSH1 0x0 DUP1 REVERT JUMPDEST POP JUMP INVALID LOG2 PUSH5 0x6970667358 0x22 SLT KECCAK256 0xBA MSTORE PUSH22 0xC0D8891F9F12988EB5144DACC0653B96DB6A7406443B LOG0 0xDB 0xE LT DIFFICULTY PUSH2 0xFB64 PUSH20 0x6F6C634300080700330000000000000000000000 "
				},
				"gasEstimates": {
					"creation": {
						"codeDepositCost": "974600",
						"executionCost": "1014",
						"totalCost": "975614"
					},
					"external": {
						"deposit()": "infinite",
						"ercToEth(uint256)": "infinite",
						"ethToErc()": "infinite",
						"getBalance()": "340",
						"getTokenBalance()": "infinite",
						"initialize(address,uint256)": "infinite",
						"liquidity(address)": "2836",
						"total_liquidity()": "2474",
						"withdraw(uint256)": "infinite"
					},
					"internal": {
						"calculatePrice(uint256,uint256,uint256)": "infinite"
					}
				},
				"methodIdentifiers": {
					"deposit()": "d0e30db0",
					"ercToEth(uint256)": "debc674c",
					"ethToErc()": "7937c03d",
					"getBalance()": "12065fe0",
					"getTokenBalance()": "82b2e257",
					"initialize(address,uint256)": "cd6dc687",
					"liquidity(address)": "b8c876b1",
					"total_liquidity()": "31f3bd28",
					"withdraw(uint256)": "2e1a7d4d"
				}
			},
			"storageLayout": {
				"storage": [
					{
						"astId": 718,
						"contract": "PFG/AMM.sol:DEX",
						"label": "tokenERC",
						"offset": 0,
						"slot": "0",
						"type": "t_contract(IERC20)663"
					},
					{
						"astId": 720,
						"contract": "PFG/AMM.sol:DEX",
						"label": "total_liquidity",
						"offset": 0,
						"slot": "1",
						"type": "t_uint256"
					},
					{
						"astId": 724,
						"contract": "PFG/AMM.sol:DEX",
						"label": "liquidity",
						"offset": 0,
						"slot": "2",
						"type": "t_mapping(t_address,t_uint256)"
					}
				],
				"types": {
					"t_address": {
						"encoding": "inplace",
						"label": "address",
						"numberOfBytes": "20"
					},
					"t_contract(IERC20)663": {
						"encoding": "inplace",
						"label": "contract IERC20",
						"numberOfBytes": "20"
					},
					"t_mapping(t_address,t_uint256)": {
						"encoding": "mapping",
						"key": "t_address",
						"label": "mapping(address => uint256)",
						"numberOfBytes": "32",
						"value": "t_uint256"
					},
					"t_uint256": {
						"encoding": "inplace",
						"label": "uint256",
						"numberOfBytes": "32"
					}
				}
			},
			"userdoc": {
				"kind": "user",
				"methods": {},
				"version": 1
			}
		}
	}
}