{
	"PFG/Verificador.sol": {
		"Verificacio": {
			"abi": [
				{
					"inputs": [
						{
							"internalType": "string",
							"name": "_filename",
							"type": "string"
						},
						{
							"internalType": "address",
							"name": "_propietari",
							"type": "address"
						}
					],
					"stateMutability": "nonpayable",
					"type": "constructor"
				},
				{
					"anonymous": false,
					"inputs": [
						{
							"indexed": true,
							"internalType": "address",
							"name": "denegador",
							"type": "address"
						},
						{
							"indexed": false,
							"internalType": "string",
							"name": "asset",
							"type": "string"
						}
					],
					"name": "Denegation",
					"type": "event"
				},
				{
					"anonymous": false,
					"inputs": [
						{
							"indexed": true,
							"internalType": "address",
							"name": "propietari",
							"type": "address"
						},
						{
							"indexed": false,
							"internalType": "string",
							"name": "asset",
							"type": "string"
						}
					],
					"name": "OwnerSet",
					"type": "event"
				},
				{
					"anonymous": false,
					"inputs": [
						{
							"indexed": true,
							"internalType": "address",
							"name": "validador",
							"type": "address"
						},
						{
							"indexed": false,
							"internalType": "string",
							"name": "asset",
							"type": "string"
						}
					],
					"name": "Validation",
					"type": "event"
				},
				{
					"inputs": [],
					"name": "denegate",
					"outputs": [],
					"stateMutability": "nonpayable",
					"type": "function"
				},
				{
					"inputs": [
						{
							"internalType": "address",
							"name": "denegador",
							"type": "address"
						}
					],
					"name": "denegate",
					"outputs": [],
					"stateMutability": "nonpayable",
					"type": "function"
				},
				{
					"inputs": [],
					"name": "getFilename",
					"outputs": [
						{
							"internalType": "string",
							"name": "",
							"type": "string"
						}
					],
					"stateMutability": "view",
					"type": "function"
				},
				{
					"inputs": [],
					"name": "getOwner",
					"outputs": [
						{
							"internalType": "address",
							"name": "",
							"type": "address"
						}
					],
					"stateMutability": "view",
					"type": "function"
				},
				{
					"inputs": [
						{
							"internalType": "address",
							"name": "_user",
							"type": "address"
						}
					],
					"name": "hasDenied",
					"outputs": [
						{
							"internalType": "bool",
							"name": "",
							"type": "bool"
						}
					],
					"stateMutability": "view",
					"type": "function"
				},
				{
					"inputs": [
						{
							"internalType": "address",
							"name": "_user",
							"type": "address"
						}
					],
					"name": "hasValidated",
					"outputs": [
						{
							"internalType": "bool",
							"name": "",
							"type": "bool"
						}
					],
					"stateMutability": "view",
					"type": "function"
				},
				{
					"inputs": [],
					"name": "nDenegations",
					"outputs": [
						{
							"internalType": "uint256",
							"name": "",
							"type": "uint256"
						}
					],
					"stateMutability": "view",
					"type": "function"
				},
				{
					"inputs": [],
					"name": "nValidations",
					"outputs": [
						{
							"internalType": "uint256",
							"name": "",
							"type": "uint256"
						}
					],
					"stateMutability": "view",
					"type": "function"
				},
				{
					"inputs": [],
					"name": "propietari",
					"outputs": [
						{
							"internalType": "address",
							"name": "",
							"type": "address"
						}
					],
					"stateMutability": "view",
					"type": "function"
				},
				{
					"inputs": [
						{
							"internalType": "address",
							"name": "validador",
							"type": "address"
						}
					],
					"name": "validate",
					"outputs": [],
					"stateMutability": "nonpayable",
					"type": "function"
				},
				{
					"inputs": [],
					"name": "validate",
					"outputs": [],
					"stateMutability": "nonpayable",
					"type": "function"
				}
			],
			"devdoc": {
				"kind": "dev",
				"methods": {},
				"version": 1
			},
			"evm": {
				"assembly": "    /* \"PFG/Verificador.sol\":74:3629  contract Verificacio{\r... */\n  mstore(0x40, 0x80)\n    /* \"PFG/Verificador.sol\":744:924  constructor(string memory _filename, address _propietari) {\r... */\n  callvalue\n  dup1\n  iszero\n  tag_1\n  jumpi\n  0x00\n  dup1\n  revert\ntag_1:\n  pop\n  mload(0x40)\n  sub(codesize, bytecodeSize)\n  dup1\n  bytecodeSize\n  dup4\n  codecopy\n  dup2\n  dup2\n  add\n  0x40\n  mstore\n  dup2\n  add\n  swap1\n  tag_2\n  swap2\n  swap1\n  tag_3\n  jump\t// in\ntag_2:\n    /* \"PFG/Verificador.sol\":826:837  _propietari */\n  dup1\n    /* \"PFG/Verificador.sol\":813:823  propietari */\n  0x00\n  dup1\n    /* \"PFG/Verificador.sol\":813:837  propietari = _propietari */\n  0x0100\n  exp\n  dup2\n  sload\n  dup2\n  0xffffffffffffffffffffffffffffffffffffffff\n  mul\n  not\n  and\n  swap1\n  dup4\n  0xffffffffffffffffffffffffffffffffffffffff\n  and\n  mul\n  or\n  swap1\n  sstore\n  pop\n    /* \"PFG/Verificador.sol\":859:868  _filename */\n  dup2\n    /* \"PFG/Verificador.sol\":848:856  filename */\n  0x01\n    /* \"PFG/Verificador.sol\":848:868  filename = _filename */\n  swap1\n  dup1\n  mload\n  swap1\n  0x20\n  add\n  swap1\n  tag_6\n  swap3\n  swap2\n  swap1\n  tag_7\n  jump\t// in\ntag_6:\n  pop\n    /* \"PFG/Verificador.sol\":895:905  propietari */\n  0x00\n  dup1\n  sload\n  swap1\n  0x0100\n  exp\n  swap1\n  div\n  0xffffffffffffffffffffffffffffffffffffffff\n  and\n    /* \"PFG/Verificador.sol\":886:916  OwnerSet(propietari, filename) */\n  0xffffffffffffffffffffffffffffffffffffffff\n  and\n  0x3d6aba6def46bd8784b0b6505c24d0aa59cd9316e6c5db593d3d8470797d7a3e\n    /* \"PFG/Verificador.sol\":907:915  filename */\n  0x01\n    /* \"PFG/Verificador.sol\":886:916  OwnerSet(propietari, filename) */\n  mload(0x40)\n  tag_8\n  swap2\n  swap1\n  tag_9\n  jump\t// in\ntag_8:\n  mload(0x40)\n  dup1\n  swap2\n  sub\n  swap1\n  log2\n    /* \"PFG/Verificador.sol\":744:924  constructor(string memory _filename, address _propietari) {\r... */\n  pop\n  pop\n    /* \"PFG/Verificador.sol\":74:3629  contract Verificacio{\r... */\n  jump(tag_10)\ntag_7:\n  dup3\n  dup1\n  sload\n  tag_11\n  swap1\n  tag_12\n  jump\t// in\ntag_11:\n  swap1\n  0x00\n  mstore\n  keccak256(0x00, 0x20)\n  swap1\n  0x1f\n  add\n  0x20\n  swap1\n  div\n  dup2\n  add\n  swap3\n  dup3\n  tag_14\n  jumpi\n  0x00\n  dup6\n  sstore\n  jump(tag_13)\ntag_14:\n  dup3\n  0x1f\n  lt\n  tag_15\n  jumpi\n  dup1\n  mload\n  not(0xff)\n  and\n  dup4\n  dup1\n  add\n  or\n  dup6\n  sstore\n  jump(tag_13)\ntag_15:\n  dup3\n  dup1\n  add\n  0x01\n  add\n  dup6\n  sstore\n  dup3\n  iszero\n  tag_13\n  jumpi\n  swap2\n  dup3\n  add\ntag_16:\n  dup3\n  dup2\n  gt\n  iszero\n  tag_17\n  jumpi\n  dup3\n  mload\n  dup3\n  sstore\n  swap2\n  0x20\n  add\n  swap2\n  swap1\n  0x01\n  add\n  swap1\n  jump(tag_16)\ntag_17:\ntag_13:\n  pop\n  swap1\n  pop\n  tag_18\n  swap2\n  swap1\n  tag_19\n  jump\t// in\ntag_18:\n  pop\n  swap1\n  jump\t// out\ntag_19:\ntag_20:\n  dup1\n  dup3\n  gt\n  iszero\n  tag_21\n  jumpi\n  0x00\n  dup2\n  0x00\n  swap1\n  sstore\n  pop\n  0x01\n  add\n  jump(tag_20)\ntag_21:\n  pop\n  swap1\n  jump\t// out\n    /* \"#utility.yul\":7:428   */\ntag_23:\n    /* \"#utility.yul\":96:101   */\n  0x00\n    /* \"#utility.yul\":121:187   */\n  tag_25\n    /* \"#utility.yul\":137:186   */\n  tag_26\n    /* \"#utility.yul\":179:185   */\n  dup5\n    /* \"#utility.yul\":137:186   */\n  tag_27\n  jump\t// in\ntag_26:\n    /* \"#utility.yul\":121:187   */\n  tag_28\n  jump\t// in\ntag_25:\n    /* \"#utility.yul\":112:187   */\n  swap1\n  pop\n    /* \"#utility.yul\":210:216   */\n  dup3\n    /* \"#utility.yul\":203:208   */\n  dup2\n    /* \"#utility.yul\":196:217   */\n  mstore\n    /* \"#utility.yul\":248:252   */\n  0x20\n    /* \"#utility.yul\":241:246   */\n  dup2\n    /* \"#utility.yul\":237:253   */\n  add\n    /* \"#utility.yul\":286:289   */\n  dup5\n    /* \"#utility.yul\":277:283   */\n  dup5\n    /* \"#utility.yul\":272:275   */\n  dup5\n    /* \"#utility.yul\":268:284   */\n  add\n    /* \"#utility.yul\":265:290   */\n  gt\n    /* \"#utility.yul\":262:374   */\n  iszero\n  tag_29\n  jumpi\n    /* \"#utility.yul\":293:372   */\n  tag_30\n  tag_31\n  jump\t// in\ntag_30:\n    /* \"#utility.yul\":262:374   */\ntag_29:\n    /* \"#utility.yul\":383:422   */\n  tag_32\n    /* \"#utility.yul\":415:421   */\n  dup5\n    /* \"#utility.yul\":410:413   */\n  dup3\n    /* \"#utility.yul\":405:408   */\n  dup6\n    /* \"#utility.yul\":383:422   */\n  tag_33\n  jump\t// in\ntag_32:\n    /* \"#utility.yul\":102:428   */\n  pop\n    /* \"#utility.yul\":7:428   */\n  swap4\n  swap3\n  pop\n  pop\n  pop\n  jump\t// out\n    /* \"#utility.yul\":434:577   */\ntag_34:\n    /* \"#utility.yul\":491:496   */\n  0x00\n    /* \"#utility.yul\":522:528   */\n  dup2\n    /* \"#utility.yul\":516:529   */\n  mload\n    /* \"#utility.yul\":507:529   */\n  swap1\n  pop\n    /* \"#utility.yul\":538:571   */\n  tag_36\n    /* \"#utility.yul\":565:570   */\n  dup2\n    /* \"#utility.yul\":538:571   */\n  tag_37\n  jump\t// in\ntag_36:\n    /* \"#utility.yul\":434:577   */\n  swap3\n  swap2\n  pop\n  pop\n  jump\t// out\n    /* \"#utility.yul\":597:952   */\ntag_38:\n    /* \"#utility.yul\":664:669   */\n  0x00\n    /* \"#utility.yul\":713:716   */\n  dup3\n    /* \"#utility.yul\":706:710   */\n  0x1f\n    /* \"#utility.yul\":698:704   */\n  dup4\n    /* \"#utility.yul\":694:711   */\n  add\n    /* \"#utility.yul\":690:717   */\n  slt\n    /* \"#utility.yul\":680:802   */\n  tag_40\n  jumpi\n    /* \"#utility.yul\":721:800   */\n  tag_41\n  tag_42\n  jump\t// in\ntag_41:\n    /* \"#utility.yul\":680:802   */\ntag_40:\n    /* \"#utility.yul\":831:837   */\n  dup2\n    /* \"#utility.yul\":825:838   */\n  mload\n    /* \"#utility.yul\":856:946   */\n  tag_43\n    /* \"#utility.yul\":942:945   */\n  dup5\n    /* \"#utility.yul\":934:940   */\n  dup3\n    /* \"#utility.yul\":927:931   */\n  0x20\n    /* \"#utility.yul\":919:925   */\n  dup7\n    /* \"#utility.yul\":915:932   */\n  add\n    /* \"#utility.yul\":856:946   */\n  tag_23\n  jump\t// in\ntag_43:\n    /* \"#utility.yul\":847:946   */\n  swap2\n  pop\n    /* \"#utility.yul\":670:952   */\n  pop\n    /* \"#utility.yul\":597:952   */\n  swap3\n  swap2\n  pop\n  pop\n  jump\t// out\n    /* \"#utility.yul\":958:1638   */\ntag_3:\n    /* \"#utility.yul\":1047:1053   */\n  0x00\n    /* \"#utility.yul\":1055:1061   */\n  dup1\n    /* \"#utility.yul\":1104:1106   */\n  0x40\n    /* \"#utility.yul\":1092:1101   */\n  dup4\n    /* \"#utility.yul\":1083:1090   */\n  dup6\n    /* \"#utility.yul\":1079:1102   */\n  sub\n    /* \"#utility.yul\":1075:1107   */\n  slt\n    /* \"#utility.yul\":1072:1191   */\n  iszero\n  tag_45\n  jumpi\n    /* \"#utility.yul\":1110:1189   */\n  tag_46\n  tag_47\n  jump\t// in\ntag_46:\n    /* \"#utility.yul\":1072:1191   */\ntag_45:\n    /* \"#utility.yul\":1251:1252   */\n  0x00\n    /* \"#utility.yul\":1240:1249   */\n  dup4\n    /* \"#utility.yul\":1236:1253   */\n  add\n    /* \"#utility.yul\":1230:1254   */\n  mload\n    /* \"#utility.yul\":1281:1299   */\n  0xffffffffffffffff\n    /* \"#utility.yul\":1273:1279   */\n  dup2\n    /* \"#utility.yul\":1270:1300   */\n  gt\n    /* \"#utility.yul\":1267:1384   */\n  iszero\n  tag_48\n  jumpi\n    /* \"#utility.yul\":1303:1382   */\n  tag_49\n  tag_50\n  jump\t// in\ntag_49:\n    /* \"#utility.yul\":1267:1384   */\ntag_48:\n    /* \"#utility.yul\":1408:1482   */\n  tag_51\n    /* \"#utility.yul\":1474:1481   */\n  dup6\n    /* \"#utility.yul\":1465:1471   */\n  dup3\n    /* \"#utility.yul\":1454:1463   */\n  dup7\n    /* \"#utility.yul\":1450:1472   */\n  add\n    /* \"#utility.yul\":1408:1482   */\n  tag_38\n  jump\t// in\ntag_51:\n    /* \"#utility.yul\":1398:1482   */\n  swap3\n  pop\n    /* \"#utility.yul\":1201:1492   */\n  pop\n    /* \"#utility.yul\":1531:1533   */\n  0x20\n    /* \"#utility.yul\":1557:1621   */\n  tag_52\n    /* \"#utility.yul\":1613:1620   */\n  dup6\n    /* \"#utility.yul\":1604:1610   */\n  dup3\n    /* \"#utility.yul\":1593:1602   */\n  dup7\n    /* \"#utility.yul\":1589:1611   */\n  add\n    /* \"#utility.yul\":1557:1621   */\n  tag_34\n  jump\t// in\ntag_52:\n    /* \"#utility.yul\":1547:1621   */\n  swap2\n  pop\n    /* \"#utility.yul\":1502:1631   */\n  pop\n    /* \"#utility.yul\":958:1638   */\n  swap3\n  pop\n  swap3\n  swap1\n  pop\n  jump\t// out\n    /* \"#utility.yul\":1668:2470   */\ntag_53:\n    /* \"#utility.yul\":1753:1756   */\n  0x00\n    /* \"#utility.yul\":1790:1795   */\n  dup2\n    /* \"#utility.yul\":1784:1796   */\n  sload\n    /* \"#utility.yul\":1819:1855   */\n  tag_55\n    /* \"#utility.yul\":1845:1854   */\n  dup2\n    /* \"#utility.yul\":1819:1855   */\n  tag_12\n  jump\t// in\ntag_55:\n    /* \"#utility.yul\":1871:1942   */\n  tag_56\n    /* \"#utility.yul\":1935:1941   */\n  dup2\n    /* \"#utility.yul\":1930:1933   */\n  dup7\n    /* \"#utility.yul\":1871:1942   */\n  tag_57\n  jump\t// in\ntag_56:\n    /* \"#utility.yul\":1864:1942   */\n  swap5\n  pop\n    /* \"#utility.yul\":1973:1974   */\n  0x01\n    /* \"#utility.yul\":1962:1971   */\n  dup3\n    /* \"#utility.yul\":1958:1975   */\n  and\n    /* \"#utility.yul\":1989:1990   */\n  0x00\n    /* \"#utility.yul\":1984:2119   */\n  dup2\n  eq\n  tag_59\n  jumpi\n    /* \"#utility.yul\":2133:2134   */\n  0x01\n    /* \"#utility.yul\":2128:2464   */\n  dup2\n  eq\n  tag_60\n  jumpi\n    /* \"#utility.yul\":1951:2464   */\n  jump(tag_58)\n    /* \"#utility.yul\":1984:2119   */\ntag_59:\n    /* \"#utility.yul\":2068:2072   */\n  0xff\n    /* \"#utility.yul\":2064:2073   */\n  not\n    /* \"#utility.yul\":2053:2062   */\n  dup4\n    /* \"#utility.yul\":2049:2074   */\n  and\n    /* \"#utility.yul\":2044:2047   */\n  dup7\n    /* \"#utility.yul\":2037:2075   */\n  mstore\n    /* \"#utility.yul\":2104:2108   */\n  0x20\n    /* \"#utility.yul\":2099:2102   */\n  dup7\n    /* \"#utility.yul\":2095:2109   */\n  add\n    /* \"#utility.yul\":2088:2109   */\n  swap4\n  pop\n    /* \"#utility.yul\":1984:2119   */\n  jump(tag_58)\n    /* \"#utility.yul\":2128:2464   */\ntag_60:\n    /* \"#utility.yul\":2195:2233   */\n  tag_61\n    /* \"#utility.yul\":2227:2232   */\n  dup6\n    /* \"#utility.yul\":2195:2233   */\n  tag_62\n  jump\t// in\ntag_61:\n    /* \"#utility.yul\":2255:2256   */\n  0x00\n    /* \"#utility.yul\":2269:2423   */\ntag_63:\n    /* \"#utility.yul\":2283:2289   */\n  dup4\n    /* \"#utility.yul\":2280:2281   */\n  dup2\n    /* \"#utility.yul\":2277:2290   */\n  lt\n    /* \"#utility.yul\":2269:2423   */\n  iszero\n  tag_65\n  jumpi\n    /* \"#utility.yul\":2357:2364   */\n  dup2\n    /* \"#utility.yul\":2351:2365   */\n  sload\n    /* \"#utility.yul\":2347:2348   */\n  dup2\n    /* \"#utility.yul\":2342:2345   */\n  dup10\n    /* \"#utility.yul\":2338:2349   */\n  add\n    /* \"#utility.yul\":2331:2366   */\n  mstore\n    /* \"#utility.yul\":2407:2408   */\n  0x01\n    /* \"#utility.yul\":2398:2405   */\n  dup3\n    /* \"#utility.yul\":2394:2409   */\n  add\n    /* \"#utility.yul\":2383:2409   */\n  swap2\n  pop\n    /* \"#utility.yul\":2305:2309   */\n  0x20\n    /* \"#utility.yul\":2302:2303   */\n  dup2\n    /* \"#utility.yul\":2298:2310   */\n  add\n    /* \"#utility.yul\":2293:2310   */\n  swap1\n  pop\n    /* \"#utility.yul\":2269:2423   */\n  jump(tag_63)\ntag_65:\n    /* \"#utility.yul\":2452:2453   */\n  dup1\n    /* \"#utility.yul\":2447:2450   */\n  dup9\n    /* \"#utility.yul\":2443:2454   */\n  add\n    /* \"#utility.yul\":2436:2454   */\n  swap6\n  pop\n    /* \"#utility.yul\":2135:2464   */\n  pop\n  pop\n    /* \"#utility.yul\":1951:2464   */\ntag_58:\n  pop\n    /* \"#utility.yul\":1757:2470   */\n  pop\n  pop\n    /* \"#utility.yul\":1668:2470   */\n  swap3\n  swap2\n  pop\n  pop\n  jump\t// out\n    /* \"#utility.yul\":2476:2783   */\ntag_9:\n    /* \"#utility.yul\":2586:2590   */\n  0x00\n    /* \"#utility.yul\":2624:2626   */\n  0x20\n    /* \"#utility.yul\":2613:2622   */\n  dup3\n    /* \"#utility.yul\":2609:2627   */\n  add\n    /* \"#utility.yul\":2601:2627   */\n  swap1\n  pop\n    /* \"#utility.yul\":2673:2682   */\n  dup2\n    /* \"#utility.yul\":2667:2671   */\n  dup2\n    /* \"#utility.yul\":2663:2683   */\n  sub\n    /* \"#utility.yul\":2659:2660   */\n  0x00\n    /* \"#utility.yul\":2648:2657   */\n  dup4\n    /* \"#utility.yul\":2644:2661   */\n  add\n    /* \"#utility.yul\":2637:2684   */\n  mstore\n    /* \"#utility.yul\":2701:2776   */\n  tag_67\n    /* \"#utility.yul\":2771:2775   */\n  dup2\n    /* \"#utility.yul\":2762:2768   */\n  dup5\n    /* \"#utility.yul\":2701:2776   */\n  tag_53\n  jump\t// in\ntag_67:\n    /* \"#utility.yul\":2693:2776   */\n  swap1\n  pop\n    /* \"#utility.yul\":2476:2783   */\n  swap3\n  swap2\n  pop\n  pop\n  jump\t// out\n    /* \"#utility.yul\":2789:2918   */\ntag_28:\n    /* \"#utility.yul\":2823:2829   */\n  0x00\n    /* \"#utility.yul\":2850:2870   */\n  tag_69\n  tag_70\n  jump\t// in\ntag_69:\n    /* \"#utility.yul\":2840:2870   */\n  swap1\n  pop\n    /* \"#utility.yul\":2879:2912   */\n  tag_71\n    /* \"#utility.yul\":2907:2911   */\n  dup3\n    /* \"#utility.yul\":2899:2905   */\n  dup3\n    /* \"#utility.yul\":2879:2912   */\n  tag_72\n  jump\t// in\ntag_71:\n    /* \"#utility.yul\":2789:2918   */\n  swap2\n  swap1\n  pop\n  jump\t// out\n    /* \"#utility.yul\":2924:2999   */\ntag_70:\n    /* \"#utility.yul\":2957:2963   */\n  0x00\n    /* \"#utility.yul\":2990:2992   */\n  0x40\n    /* \"#utility.yul\":2984:2993   */\n  mload\n    /* \"#utility.yul\":2974:2993   */\n  swap1\n  pop\n    /* \"#utility.yul\":2924:2999   */\n  swap1\n  jump\t// out\n    /* \"#utility.yul\":3005:3313   */\ntag_27:\n    /* \"#utility.yul\":3067:3071   */\n  0x00\n    /* \"#utility.yul\":3157:3175   */\n  0xffffffffffffffff\n    /* \"#utility.yul\":3149:3155   */\n  dup3\n    /* \"#utility.yul\":3146:3176   */\n  gt\n    /* \"#utility.yul\":3143:3199   */\n  iszero\n  tag_75\n  jumpi\n    /* \"#utility.yul\":3179:3197   */\n  tag_76\n  tag_77\n  jump\t// in\ntag_76:\n    /* \"#utility.yul\":3143:3199   */\ntag_75:\n    /* \"#utility.yul\":3217:3246   */\n  tag_78\n    /* \"#utility.yul\":3239:3245   */\n  dup3\n    /* \"#utility.yul\":3217:3246   */\n  tag_79\n  jump\t// in\ntag_78:\n    /* \"#utility.yul\":3209:3246   */\n  swap1\n  pop\n    /* \"#utility.yul\":3301:3305   */\n  0x20\n    /* \"#utility.yul\":3295:3299   */\n  dup2\n    /* \"#utility.yul\":3291:3306   */\n  add\n    /* \"#utility.yul\":3283:3306   */\n  swap1\n  pop\n    /* \"#utility.yul\":3005:3313   */\n  swap2\n  swap1\n  pop\n  jump\t// out\n    /* \"#utility.yul\":3319:3460   */\ntag_62:\n    /* \"#utility.yul\":3368:3372   */\n  0x00\n    /* \"#utility.yul\":3391:3394   */\n  dup2\n    /* \"#utility.yul\":3383:3394   */\n  swap1\n  pop\n    /* \"#utility.yul\":3414:3417   */\n  dup2\n    /* \"#utility.yul\":3411:3412   */\n  0x00\n    /* \"#utility.yul\":3404:3418   */\n  mstore\n    /* \"#utility.yul\":3448:3452   */\n  0x20\n    /* \"#utility.yul\":3445:3446   */\n  0x00\n    /* \"#utility.yul\":3435:3453   */\n  keccak256\n    /* \"#utility.yul\":3427:3453   */\n  swap1\n  pop\n    /* \"#utility.yul\":3319:3460   */\n  swap2\n  swap1\n  pop\n  jump\t// out\n    /* \"#utility.yul\":3466:3635   */\ntag_57:\n    /* \"#utility.yul\":3550:3561   */\n  0x00\n    /* \"#utility.yul\":3584:3590   */\n  dup3\n    /* \"#utility.yul\":3579:3582   */\n  dup3\n    /* \"#utility.yul\":3572:3591   */\n  mstore\n    /* \"#utility.yul\":3624:3628   */\n  0x20\n    /* \"#utility.yul\":3619:3622   */\n  dup3\n    /* \"#utility.yul\":3615:3629   */\n  add\n    /* \"#utility.yul\":3600:3629   */\n  swap1\n  pop\n    /* \"#utility.yul\":3466:3635   */\n  swap3\n  swap2\n  pop\n  pop\n  jump\t// out\n    /* \"#utility.yul\":3641:3737   */\ntag_82:\n    /* \"#utility.yul\":3678:3685   */\n  0x00\n    /* \"#utility.yul\":3707:3731   */\n  tag_84\n    /* \"#utility.yul\":3725:3730   */\n  dup3\n    /* \"#utility.yul\":3707:3731   */\n  tag_85\n  jump\t// in\ntag_84:\n    /* \"#utility.yul\":3696:3731   */\n  swap1\n  pop\n    /* \"#utility.yul\":3641:3737   */\n  swap2\n  swap1\n  pop\n  jump\t// out\n    /* \"#utility.yul\":3743:3869   */\ntag_85:\n    /* \"#utility.yul\":3780:3787   */\n  0x00\n    /* \"#utility.yul\":3820:3862   */\n  0xffffffffffffffffffffffffffffffffffffffff\n    /* \"#utility.yul\":3813:3818   */\n  dup3\n    /* \"#utility.yul\":3809:3863   */\n  and\n    /* \"#utility.yul\":3798:3863   */\n  swap1\n  pop\n    /* \"#utility.yul\":3743:3869   */\n  swap2\n  swap1\n  pop\n  jump\t// out\n    /* \"#utility.yul\":3875:4182   */\ntag_33:\n    /* \"#utility.yul\":3943:3944   */\n  0x00\n    /* \"#utility.yul\":3953:4066   */\ntag_88:\n    /* \"#utility.yul\":3967:3973   */\n  dup4\n    /* \"#utility.yul\":3964:3965   */\n  dup2\n    /* \"#utility.yul\":3961:3974   */\n  lt\n    /* \"#utility.yul\":3953:4066   */\n  iszero\n  tag_90\n  jumpi\n    /* \"#utility.yul\":4052:4053   */\n  dup1\n    /* \"#utility.yul\":4047:4050   */\n  dup3\n    /* \"#utility.yul\":4043:4054   */\n  add\n    /* \"#utility.yul\":4037:4055   */\n  mload\n    /* \"#utility.yul\":4033:4034   */\n  dup2\n    /* \"#utility.yul\":4028:4031   */\n  dup5\n    /* \"#utility.yul\":4024:4035   */\n  add\n    /* \"#utility.yul\":4017:4056   */\n  mstore\n    /* \"#utility.yul\":3989:3991   */\n  0x20\n    /* \"#utility.yul\":3986:3987   */\n  dup2\n    /* \"#utility.yul\":3982:3992   */\n  add\n    /* \"#utility.yul\":3977:3992   */\n  swap1\n  pop\n    /* \"#utility.yul\":3953:4066   */\n  jump(tag_88)\ntag_90:\n    /* \"#utility.yul\":4084:4090   */\n  dup4\n    /* \"#utility.yul\":4081:4082   */\n  dup2\n    /* \"#utility.yul\":4078:4091   */\n  gt\n    /* \"#utility.yul\":4075:4176   */\n  iszero\n  tag_91\n  jumpi\n    /* \"#utility.yul\":4164:4165   */\n  0x00\n    /* \"#utility.yul\":4155:4161   */\n  dup5\n    /* \"#utility.yul\":4150:4153   */\n  dup5\n    /* \"#utility.yul\":4146:4162   */\n  add\n    /* \"#utility.yul\":4139:4166   */\n  mstore\n    /* \"#utility.yul\":4075:4176   */\ntag_91:\n    /* \"#utility.yul\":3924:4182   */\n  pop\n    /* \"#utility.yul\":3875:4182   */\n  pop\n  pop\n  pop\n  jump\t// out\n    /* \"#utility.yul\":4188:4508   */\ntag_12:\n    /* \"#utility.yul\":4232:4238   */\n  0x00\n    /* \"#utility.yul\":4269:4270   */\n  0x02\n    /* \"#utility.yul\":4263:4267   */\n  dup3\n    /* \"#utility.yul\":4259:4271   */\n  div\n    /* \"#utility.yul\":4249:4271   */\n  swap1\n  pop\n    /* \"#utility.yul\":4316:4317   */\n  0x01\n    /* \"#utility.yul\":4310:4314   */\n  dup3\n    /* \"#utility.yul\":4306:4318   */\n  and\n    /* \"#utility.yul\":4337:4355   */\n  dup1\n    /* \"#utility.yul\":4327:4408   */\n  tag_93\n  jumpi\n    /* \"#utility.yul\":4393:4397   */\n  0x7f\n    /* \"#utility.yul\":4385:4391   */\n  dup3\n    /* \"#utility.yul\":4381:4398   */\n  and\n    /* \"#utility.yul\":4371:4398   */\n  swap2\n  pop\n    /* \"#utility.yul\":4327:4408   */\ntag_93:\n    /* \"#utility.yul\":4455:4457   */\n  0x20\n    /* \"#utility.yul\":4447:4453   */\n  dup3\n    /* \"#utility.yul\":4444:4458   */\n  lt\n    /* \"#utility.yul\":4424:4442   */\n  dup2\n    /* \"#utility.yul\":4421:4459   */\n  eq\n    /* \"#utility.yul\":4418:4502   */\n  iszero\n  tag_94\n  jumpi\n    /* \"#utility.yul\":4474:4492   */\n  tag_95\n  tag_96\n  jump\t// in\ntag_95:\n    /* \"#utility.yul\":4418:4502   */\ntag_94:\n    /* \"#utility.yul\":4239:4508   */\n  pop\n    /* \"#utility.yul\":4188:4508   */\n  swap2\n  swap1\n  pop\n  jump\t// out\n    /* \"#utility.yul\":4514:4795   */\ntag_72:\n    /* \"#utility.yul\":4597:4624   */\n  tag_98\n    /* \"#utility.yul\":4619:4623   */\n  dup3\n    /* \"#utility.yul\":4597:4624   */\n  tag_79\n  jump\t// in\ntag_98:\n    /* \"#utility.yul\":4589:4595   */\n  dup2\n    /* \"#utility.yul\":4585:4625   */\n  add\n    /* \"#utility.yul\":4727:4733   */\n  dup2\n    /* \"#utility.yul\":4715:4725   */\n  dup2\n    /* \"#utility.yul\":4712:4734   */\n  lt\n    /* \"#utility.yul\":4691:4709   */\n  0xffffffffffffffff\n    /* \"#utility.yul\":4679:4689   */\n  dup3\n    /* \"#utility.yul\":4676:4710   */\n  gt\n    /* \"#utility.yul\":4673:4735   */\n  or\n    /* \"#utility.yul\":4670:4758   */\n  iszero\n  tag_99\n  jumpi\n    /* \"#utility.yul\":4738:4756   */\n  tag_100\n  tag_77\n  jump\t// in\ntag_100:\n    /* \"#utility.yul\":4670:4758   */\ntag_99:\n    /* \"#utility.yul\":4778:4788   */\n  dup1\n    /* \"#utility.yul\":4774:4776   */\n  0x40\n    /* \"#utility.yul\":4767:4789   */\n  mstore\n    /* \"#utility.yul\":4557:4795   */\n  pop\n    /* \"#utility.yul\":4514:4795   */\n  pop\n  pop\n  jump\t// out\n    /* \"#utility.yul\":4801:4981   */\ntag_96:\n    /* \"#utility.yul\":4849:4926   */\n  0x4e487b7100000000000000000000000000000000000000000000000000000000\n    /* \"#utility.yul\":4846:4847   */\n  0x00\n    /* \"#utility.yul\":4839:4927   */\n  mstore\n    /* \"#utility.yul\":4946:4950   */\n  0x22\n    /* \"#utility.yul\":4943:4944   */\n  0x04\n    /* \"#utility.yul\":4936:4951   */\n  mstore\n    /* \"#utility.yul\":4970:4974   */\n  0x24\n    /* \"#utility.yul\":4967:4968   */\n  0x00\n    /* \"#utility.yul\":4960:4975   */\n  revert\n    /* \"#utility.yul\":4987:5167   */\ntag_77:\n    /* \"#utility.yul\":5035:5112   */\n  0x4e487b7100000000000000000000000000000000000000000000000000000000\n    /* \"#utility.yul\":5032:5033   */\n  0x00\n    /* \"#utility.yul\":5025:5113   */\n  mstore\n    /* \"#utility.yul\":5132:5136   */\n  0x41\n    /* \"#utility.yul\":5129:5130   */\n  0x04\n    /* \"#utility.yul\":5122:5137   */\n  mstore\n    /* \"#utility.yul\":5156:5160   */\n  0x24\n    /* \"#utility.yul\":5153:5154   */\n  0x00\n    /* \"#utility.yul\":5146:5161   */\n  revert\n    /* \"#utility.yul\":5173:5290   */\ntag_42:\n    /* \"#utility.yul\":5282:5283   */\n  0x00\n    /* \"#utility.yul\":5279:5280   */\n  dup1\n    /* \"#utility.yul\":5272:5284   */\n  revert\n    /* \"#utility.yul\":5296:5413   */\ntag_31:\n    /* \"#utility.yul\":5405:5406   */\n  0x00\n    /* \"#utility.yul\":5402:5403   */\n  dup1\n    /* \"#utility.yul\":5395:5407   */\n  revert\n    /* \"#utility.yul\":5419:5536   */\ntag_50:\n    /* \"#utility.yul\":5528:5529   */\n  0x00\n    /* \"#utility.yul\":5525:5526   */\n  dup1\n    /* \"#utility.yul\":5518:5530   */\n  revert\n    /* \"#utility.yul\":5542:5659   */\ntag_47:\n    /* \"#utility.yul\":5651:5652   */\n  0x00\n    /* \"#utility.yul\":5648:5649   */\n  dup1\n    /* \"#utility.yul\":5641:5653   */\n  revert\n    /* \"#utility.yul\":5665:5767   */\ntag_79:\n    /* \"#utility.yul\":5706:5712   */\n  0x00\n    /* \"#utility.yul\":5757:5759   */\n  0x1f\n    /* \"#utility.yul\":5753:5760   */\n  not\n    /* \"#utility.yul\":5748:5750   */\n  0x1f\n    /* \"#utility.yul\":5741:5746   */\n  dup4\n    /* \"#utility.yul\":5737:5751   */\n  add\n    /* \"#utility.yul\":5733:5761   */\n  and\n    /* \"#utility.yul\":5723:5761   */\n  swap1\n  pop\n    /* \"#utility.yul\":5665:5767   */\n  swap2\n  swap1\n  pop\n  jump\t// out\n    /* \"#utility.yul\":5773:5895   */\ntag_37:\n    /* \"#utility.yul\":5846:5870   */\n  tag_109\n    /* \"#utility.yul\":5864:5869   */\n  dup2\n    /* \"#utility.yul\":5846:5870   */\n  tag_82\n  jump\t// in\ntag_109:\n    /* \"#utility.yul\":5839:5844   */\n  dup2\n    /* \"#utility.yul\":5836:5871   */\n  eq\n    /* \"#utility.yul\":5826:5889   */\n  tag_110\n  jumpi\n    /* \"#utility.yul\":5885:5886   */\n  0x00\n    /* \"#utility.yul\":5882:5883   */\n  dup1\n    /* \"#utility.yul\":5875:5887   */\n  revert\n    /* \"#utility.yul\":5826:5889   */\ntag_110:\n    /* \"#utility.yul\":5773:5895   */\n  pop\n  jump\t// out\n    /* \"PFG/Verificador.sol\":74:3629  contract Verificacio{\r... */\ntag_10:\n  dataSize(sub_0)\n  dup1\n  dataOffset(sub_0)\n  0x00\n  codecopy\n  0x00\n  return\nstop\n\nsub_0: assembly {\n        /* \"PFG/Verificador.sol\":74:3629  contract Verificacio{\r... */\n      mstore(0x40, 0x80)\n      callvalue\n      dup1\n      iszero\n      tag_1\n      jumpi\n      0x00\n      dup1\n      revert\n    tag_1:\n      pop\n      jumpi(tag_2, lt(calldatasize, 0x04))\n      shr(0xe0, calldataload(0x00))\n      dup1\n      0x6901f668\n      gt\n      tag_14\n      jumpi\n      dup1\n      0x6901f668\n      eq\n      tag_8\n      jumpi\n      dup1\n      0x893d20e8\n      eq\n      tag_9\n      jumpi\n      dup1\n      0x990ec12b\n      eq\n      tag_10\n      jumpi\n      dup1\n      0xb794cc2f\n      eq\n      tag_11\n      jumpi\n      dup1\n      0xc4374575\n      eq\n      tag_12\n      jumpi\n      dup1\n      0xcef2320c\n      eq\n      tag_13\n      jumpi\n      jump(tag_2)\n    tag_14:\n      dup1\n      0x034c92c6\n      eq\n      tag_3\n      jumpi\n      dup1\n      0x207c64fb\n      eq\n      tag_4\n      jumpi\n      dup1\n      0x5836e0b5\n      eq\n      tag_5\n      jumpi\n      dup1\n      0x58fe7a34\n      eq\n      tag_6\n      jumpi\n      dup1\n      0x5d8ab6e7\n      eq\n      tag_7\n      jumpi\n    tag_2:\n      0x00\n      dup1\n      revert\n        /* \"PFG/Verificador.sol\":193:218  address public propietari */\n    tag_3:\n      tag_15\n      tag_16\n      jump\t// in\n    tag_15:\n      mload(0x40)\n      tag_17\n      swap2\n      swap1\n      tag_18\n      jump\t// in\n    tag_17:\n      mload(0x40)\n      dup1\n      swap2\n      sub\n      swap1\n      return\n        /* \"PFG/Verificador.sol\":1424:1835  function validate(address validador) public {\r... */\n    tag_4:\n      tag_19\n      0x04\n      dup1\n      calldatasize\n      sub\n      dup2\n      add\n      swap1\n      tag_20\n      swap2\n      swap1\n      tag_21\n      jump\t// in\n    tag_20:\n      tag_22\n      jump\t// in\n    tag_19:\n      stop\n        /* \"PFG/Verificador.sol\":1927:2327  function denegate() public {\r... */\n    tag_5:\n      tag_23\n      tag_24\n      jump\t// in\n    tag_23:\n      stop\n        /* \"PFG/Verificador.sol\":2335:2746  function denegate(address denegador) public {\r... */\n    tag_6:\n      tag_25\n      0x04\n      dup1\n      calldatasize\n      sub\n      dup2\n      add\n      swap1\n      tag_26\n      swap2\n      swap1\n      tag_21\n      jump\t// in\n    tag_26:\n      tag_27\n      jump\t// in\n    tag_25:\n      stop\n        /* \"PFG/Verificador.sol\":3375:3471  function nDenegations() public view returns(uint256) {\r... */\n    tag_7:\n      tag_28\n      tag_29\n      jump\t// in\n    tag_28:\n      mload(0x40)\n      tag_30\n      swap2\n      swap1\n      tag_31\n      jump\t// in\n    tag_30:\n      mload(0x40)\n      dup1\n      swap2\n      sub\n      swap1\n      return\n        /* \"PFG/Verificador.sol\":1016:1416  function validate() public {\r... */\n    tag_8:\n      tag_32\n      tag_33\n      jump\t// in\n    tag_32:\n      stop\n        /* \"PFG/Verificador.sol\":3078:3164  function getOwner() external view returns(address){\r... */\n    tag_9:\n      tag_34\n      tag_35\n      jump\t// in\n    tag_34:\n      mload(0x40)\n      tag_36\n      swap2\n      swap1\n      tag_18\n      jump\t// in\n    tag_36:\n      mload(0x40)\n      dup1\n      swap2\n      sub\n      swap1\n      return\n        /* \"PFG/Verificador.sol\":3271:3367  function nValidations() public view returns(uint256) {\r... */\n    tag_10:\n      tag_37\n      tag_38\n      jump\t// in\n    tag_37:\n      mload(0x40)\n      tag_39\n      swap2\n      swap1\n      tag_31\n      jump\t// in\n    tag_39:\n      mload(0x40)\n      dup1\n      swap2\n      sub\n      swap1\n      return\n        /* \"PFG/Verificador.sol\":2927:3070  function hasDenied(address _user) public view returns(bool) {\r... */\n    tag_11:\n      tag_40\n      0x04\n      dup1\n      calldatasize\n      sub\n      dup2\n      add\n      swap1\n      tag_41\n      swap2\n      swap1\n      tag_21\n      jump\t// in\n    tag_41:\n      tag_42\n      jump\t// in\n    tag_40:\n      mload(0x40)\n      tag_43\n      swap2\n      swap1\n      tag_44\n      jump\t// in\n    tag_43:\n      mload(0x40)\n      dup1\n      swap2\n      sub\n      swap1\n      return\n        /* \"PFG/Verificador.sol\":2773:2919  function hasValidated(address _user) public view returns(bool) {\r... */\n    tag_12:\n      tag_45\n      0x04\n      dup1\n      calldatasize\n      sub\n      dup2\n      add\n      swap1\n      tag_46\n      swap2\n      swap1\n      tag_21\n      jump\t// in\n    tag_46:\n      tag_47\n      jump\t// in\n    tag_45:\n      mload(0x40)\n      tag_48\n      swap2\n      swap1\n      tag_44\n      jump\t// in\n    tag_48:\n      mload(0x40)\n      dup1\n      swap2\n      sub\n      swap1\n      return\n        /* \"PFG/Verificador.sol\":3172:3263  function getFilename() public view returns(string memory){\r... */\n    tag_13:\n      tag_49\n      tag_50\n      jump\t// in\n    tag_49:\n      mload(0x40)\n      tag_51\n      swap2\n      swap1\n      tag_52\n      jump\t// in\n    tag_51:\n      mload(0x40)\n      dup1\n      swap2\n      sub\n      swap1\n      return\n        /* \"PFG/Verificador.sol\":193:218  address public propietari */\n    tag_16:\n      0x00\n      dup1\n      sload\n      swap1\n      0x0100\n      exp\n      swap1\n      div\n      0xffffffffffffffffffffffffffffffffffffffff\n      and\n      dup2\n      jump\t// out\n        /* \"PFG/Verificador.sol\":1424:1835  function validate(address validador) public {\r... */\n    tag_22:\n        /* \"PFG/Verificador.sol\":1501:1510  validador */\n      dup1\n        /* \"PFG/Verificador.sol\":1487:1510  propietari != validador */\n      0xffffffffffffffffffffffffffffffffffffffff\n      and\n        /* \"PFG/Verificador.sol\":1487:1497  propietari */\n      0x00\n      dup1\n      sload\n      swap1\n      0x0100\n      exp\n      swap1\n      div\n      0xffffffffffffffffffffffffffffffffffffffff\n      and\n        /* \"PFG/Verificador.sol\":1487:1510  propietari != validador */\n      0xffffffffffffffffffffffffffffffffffffffff\n      and\n      eq\n      iszero\n        /* \"PFG/Verificador.sol\":1479:1556  require(propietari != validador, \"El propietari no pot validar el seu asset\") */\n      tag_54\n      jumpi\n      mload(0x40)\n      0x08c379a000000000000000000000000000000000000000000000000000000000\n      dup2\n      mstore\n      0x04\n      add\n      tag_55\n      swap1\n      tag_56\n      jump\t// in\n    tag_55:\n      mload(0x40)\n      dup1\n      swap2\n      sub\n      swap1\n      revert\n    tag_54:\n        /* \"PFG/Verificador.sol\":1576:1587  validacions */\n      0x04\n        /* \"PFG/Verificador.sol\":1576:1598  validacions[validador] */\n      0x00\n        /* \"PFG/Verificador.sol\":1588:1597  validador */\n      dup3\n        /* \"PFG/Verificador.sol\":1576:1598  validacions[validador] */\n      0xffffffffffffffffffffffffffffffffffffffff\n      and\n      0xffffffffffffffffffffffffffffffffffffffff\n      and\n      dup2\n      mstore\n      0x20\n      add\n      swap1\n      dup2\n      mstore\n      0x20\n      add\n      0x00\n      keccak256\n      0x00\n      swap1\n      sload\n      swap1\n      0x0100\n      exp\n      swap1\n      div\n      0xff\n      and\n        /* \"PFG/Verificador.sol\":1575:1598  !validacions[validador] */\n      iszero\n        /* \"PFG/Verificador.sol\":1567:1620  require(!validacions[validador], \"Validador repetit\") */\n      tag_57\n      jumpi\n      mload(0x40)\n      0x08c379a000000000000000000000000000000000000000000000000000000000\n      dup2\n      mstore\n      0x04\n      add\n      tag_58\n      swap1\n      tag_59\n      jump\t// in\n    tag_58:\n      mload(0x40)\n      dup1\n      swap2\n      sub\n      swap1\n      revert\n    tag_57:\n        /* \"PFG/Verificador.sol\":1640:1651  denegacions */\n      0x05\n        /* \"PFG/Verificador.sol\":1640:1662  denegacions[validador] */\n      0x00\n        /* \"PFG/Verificador.sol\":1652:1661  validador */\n      dup3\n        /* \"PFG/Verificador.sol\":1640:1662  denegacions[validador] */\n      0xffffffffffffffffffffffffffffffffffffffff\n      and\n      0xffffffffffffffffffffffffffffffffffffffff\n      and\n      dup2\n      mstore\n      0x20\n      add\n      swap1\n      dup2\n      mstore\n      0x20\n      add\n      0x00\n      keccak256\n      0x00\n      swap1\n      sload\n      swap1\n      0x0100\n      exp\n      swap1\n      div\n      0xff\n      and\n        /* \"PFG/Verificador.sol\":1639:1662  !denegacions[validador] */\n      iszero\n        /* \"PFG/Verificador.sol\":1631:1699  require(!denegacions[validador], \"No pots validar i denegar alhora\") */\n      tag_60\n      jumpi\n      mload(0x40)\n      0x08c379a000000000000000000000000000000000000000000000000000000000\n      dup2\n      mstore\n      0x04\n      add\n      tag_61\n      swap1\n      tag_62\n      jump\t// in\n    tag_61:\n      mload(0x40)\n      dup1\n      swap2\n      sub\n      swap1\n      revert\n    tag_60:\n        /* \"PFG/Verificador.sol\":1710:1720  validadors */\n      0x02\n        /* \"PFG/Verificador.sol\":1726:1735  validador */\n      dup2\n        /* \"PFG/Verificador.sol\":1710:1736  validadors.push(validador) */\n      swap1\n      dup1\n      0x01\n      dup2\n      sload\n      add\n      dup1\n      dup3\n      sstore\n      dup1\n      swap2\n      pop\n      pop\n      0x01\n      swap1\n      sub\n      swap1\n      0x00\n      mstore\n      keccak256(0x00, 0x20)\n      add\n      0x00\n      swap1\n      swap2\n      swap1\n      swap2\n      swap1\n      swap2\n      0x0100\n      exp\n      dup2\n      sload\n      dup2\n      0xffffffffffffffffffffffffffffffffffffffff\n      mul\n      not\n      and\n      swap1\n      dup4\n      0xffffffffffffffffffffffffffffffffffffffff\n      and\n      mul\n      or\n      swap1\n      sstore\n      pop\n        /* \"PFG/Verificador.sol\":1772:1776  true */\n      0x01\n        /* \"PFG/Verificador.sol\":1747:1758  validacions */\n      0x04\n        /* \"PFG/Verificador.sol\":1747:1769  validacions[validador] */\n      0x00\n        /* \"PFG/Verificador.sol\":1759:1768  validador */\n      dup4\n        /* \"PFG/Verificador.sol\":1747:1769  validacions[validador] */\n      0xffffffffffffffffffffffffffffffffffffffff\n      and\n      0xffffffffffffffffffffffffffffffffffffffff\n      and\n      dup2\n      mstore\n      0x20\n      add\n      swap1\n      dup2\n      mstore\n      0x20\n      add\n      0x00\n      keccak256\n      0x00\n        /* \"PFG/Verificador.sol\":1747:1776  validacions[validador] = true */\n      0x0100\n      exp\n      dup2\n      sload\n      dup2\n      0xff\n      mul\n      not\n      and\n      swap1\n      dup4\n      iszero\n      iszero\n      mul\n      or\n      swap1\n      sstore\n      pop\n        /* \"PFG/Verificador.sol\":1805:1814  validador */\n      dup1\n        /* \"PFG/Verificador.sol\":1794:1825  Validation(validador, filename) */\n      0xffffffffffffffffffffffffffffffffffffffff\n      and\n      0x57d77eb32e87e8c65c7cec1df5b0e8a8d5c4eae1b40c7246e7668ed702dd247a\n        /* \"PFG/Verificador.sol\":1816:1824  filename */\n      0x01\n        /* \"PFG/Verificador.sol\":1794:1825  Validation(validador, filename) */\n      mload(0x40)\n      tag_64\n      swap2\n      swap1\n      tag_65\n      jump\t// in\n    tag_64:\n      mload(0x40)\n      dup1\n      swap2\n      sub\n      swap1\n      log2\n        /* \"PFG/Verificador.sol\":1424:1835  function validate(address validador) public {\r... */\n      pop\n      jump\t// out\n        /* \"PFG/Verificador.sol\":1927:2327  function denegate() public {\r... */\n    tag_24:\n        /* \"PFG/Verificador.sol\":1987:1997  msg.sender */\n      caller\n        /* \"PFG/Verificador.sol\":1973:1997  propietari != msg.sender */\n      0xffffffffffffffffffffffffffffffffffffffff\n      and\n        /* \"PFG/Verificador.sol\":1973:1983  propietari */\n      0x00\n      dup1\n      sload\n      swap1\n      0x0100\n      exp\n      swap1\n      div\n      0xffffffffffffffffffffffffffffffffffffffff\n      and\n        /* \"PFG/Verificador.sol\":1973:1997  propietari != msg.sender */\n      0xffffffffffffffffffffffffffffffffffffffff\n      and\n      eq\n      iszero\n        /* \"PFG/Verificador.sol\":1965:2043  require(propietari != msg.sender, \"El propietari no pot validar el seu asset\") */\n      tag_67\n      jumpi\n      mload(0x40)\n      0x08c379a000000000000000000000000000000000000000000000000000000000\n      dup2\n      mstore\n      0x04\n      add\n      tag_68\n      swap1\n      tag_56\n      jump\t// in\n    tag_68:\n      mload(0x40)\n      dup1\n      swap2\n      sub\n      swap1\n      revert\n    tag_67:\n        /* \"PFG/Verificador.sol\":2063:2074  denegacions */\n      0x05\n        /* \"PFG/Verificador.sol\":2063:2086  denegacions[msg.sender] */\n      0x00\n        /* \"PFG/Verificador.sol\":2075:2085  msg.sender */\n      caller\n        /* \"PFG/Verificador.sol\":2063:2086  denegacions[msg.sender] */\n      0xffffffffffffffffffffffffffffffffffffffff\n      and\n      0xffffffffffffffffffffffffffffffffffffffff\n      and\n      dup2\n      mstore\n      0x20\n      add\n      swap1\n      dup2\n      mstore\n      0x20\n      add\n      0x00\n      keccak256\n      0x00\n      swap1\n      sload\n      swap1\n      0x0100\n      exp\n      swap1\n      div\n      0xff\n      and\n        /* \"PFG/Verificador.sol\":2062:2086  !denegacions[msg.sender] */\n      iszero\n        /* \"PFG/Verificador.sol\":2054:2108  require(!denegacions[msg.sender], \"Denegador repetit\") */\n      tag_69\n      jumpi\n      mload(0x40)\n      0x08c379a000000000000000000000000000000000000000000000000000000000\n      dup2\n      mstore\n      0x04\n      add\n      tag_70\n      swap1\n      tag_71\n      jump\t// in\n    tag_70:\n      mload(0x40)\n      dup1\n      swap2\n      sub\n      swap1\n      revert\n    tag_69:\n        /* \"PFG/Verificador.sol\":2128:2139  validacions */\n      0x04\n        /* \"PFG/Verificador.sol\":2128:2151  validacions[msg.sender] */\n      0x00\n        /* \"PFG/Verificador.sol\":2140:2150  msg.sender */\n      caller\n        /* \"PFG/Verificador.sol\":2128:2151  validacions[msg.sender] */\n      0xffffffffffffffffffffffffffffffffffffffff\n      and\n      0xffffffffffffffffffffffffffffffffffffffff\n      and\n      dup2\n      mstore\n      0x20\n      add\n      swap1\n      dup2\n      mstore\n      0x20\n      add\n      0x00\n      keccak256\n      0x00\n      swap1\n      sload\n      swap1\n      0x0100\n      exp\n      swap1\n      div\n      0xff\n      and\n        /* \"PFG/Verificador.sol\":2127:2151  !validacions[msg.sender] */\n      iszero\n        /* \"PFG/Verificador.sol\":2119:2188  require(!validacions[msg.sender], \"No pots validar i denegar alhora\") */\n      tag_72\n      jumpi\n      mload(0x40)\n      0x08c379a000000000000000000000000000000000000000000000000000000000\n      dup2\n      mstore\n      0x04\n      add\n      tag_73\n      swap1\n      tag_62\n      jump\t// in\n    tag_73:\n      mload(0x40)\n      dup1\n      swap2\n      sub\n      swap1\n      revert\n    tag_72:\n        /* \"PFG/Verificador.sol\":2199:2209  denegadors */\n      0x03\n        /* \"PFG/Verificador.sol\":2215:2225  msg.sender */\n      caller\n        /* \"PFG/Verificador.sol\":2199:2226  denegadors.push(msg.sender) */\n      swap1\n      dup1\n      0x01\n      dup2\n      sload\n      add\n      dup1\n      dup3\n      sstore\n      dup1\n      swap2\n      pop\n      pop\n      0x01\n      swap1\n      sub\n      swap1\n      0x00\n      mstore\n      keccak256(0x00, 0x20)\n      add\n      0x00\n      swap1\n      swap2\n      swap1\n      swap2\n      swap1\n      swap2\n      0x0100\n      exp\n      dup2\n      sload\n      dup2\n      0xffffffffffffffffffffffffffffffffffffffff\n      mul\n      not\n      and\n      swap1\n      dup4\n      0xffffffffffffffffffffffffffffffffffffffff\n      and\n      mul\n      or\n      swap1\n      sstore\n      pop\n        /* \"PFG/Verificador.sol\":2263:2267  true */\n      0x01\n        /* \"PFG/Verificador.sol\":2237:2248  denegacions */\n      0x05\n        /* \"PFG/Verificador.sol\":2237:2260  denegacions[msg.sender] */\n      0x00\n        /* \"PFG/Verificador.sol\":2249:2259  msg.sender */\n      caller\n        /* \"PFG/Verificador.sol\":2237:2260  denegacions[msg.sender] */\n      0xffffffffffffffffffffffffffffffffffffffff\n      and\n      0xffffffffffffffffffffffffffffffffffffffff\n      and\n      dup2\n      mstore\n      0x20\n      add\n      swap1\n      dup2\n      mstore\n      0x20\n      add\n      0x00\n      keccak256\n      0x00\n        /* \"PFG/Verificador.sol\":2237:2267  denegacions[msg.sender] = true */\n      0x0100\n      exp\n      dup2\n      sload\n      dup2\n      0xff\n      mul\n      not\n      and\n      swap1\n      dup4\n      iszero\n      iszero\n      mul\n      or\n      swap1\n      sstore\n      pop\n        /* \"PFG/Verificador.sol\":2296:2306  msg.sender */\n      caller\n        /* \"PFG/Verificador.sol\":2285:2317  Denegation(msg.sender, filename) */\n      0xffffffffffffffffffffffffffffffffffffffff\n      and\n      0x9036bc06ad4a578f0132d89ba4adc07b9772275526730acc38d7e4b4c11872a3\n        /* \"PFG/Verificador.sol\":2308:2316  filename */\n      0x01\n        /* \"PFG/Verificador.sol\":2285:2317  Denegation(msg.sender, filename) */\n      mload(0x40)\n      tag_75\n      swap2\n      swap1\n      tag_65\n      jump\t// in\n    tag_75:\n      mload(0x40)\n      dup1\n      swap2\n      sub\n      swap1\n      log2\n        /* \"PFG/Verificador.sol\":1927:2327  function denegate() public {\r... */\n      jump\t// out\n        /* \"PFG/Verificador.sol\":2335:2746  function denegate(address denegador) public {\r... */\n    tag_27:\n        /* \"PFG/Verificador.sol\":2412:2421  denegador */\n      dup1\n        /* \"PFG/Verificador.sol\":2398:2421  propietari != denegador */\n      0xffffffffffffffffffffffffffffffffffffffff\n      and\n        /* \"PFG/Verificador.sol\":2398:2408  propietari */\n      0x00\n      dup1\n      sload\n      swap1\n      0x0100\n      exp\n      swap1\n      div\n      0xffffffffffffffffffffffffffffffffffffffff\n      and\n        /* \"PFG/Verificador.sol\":2398:2421  propietari != denegador */\n      0xffffffffffffffffffffffffffffffffffffffff\n      and\n      eq\n      iszero\n        /* \"PFG/Verificador.sol\":2390:2467  require(propietari != denegador, \"El propietari no pot validar el seu asset\") */\n      tag_77\n      jumpi\n      mload(0x40)\n      0x08c379a000000000000000000000000000000000000000000000000000000000\n      dup2\n      mstore\n      0x04\n      add\n      tag_78\n      swap1\n      tag_56\n      jump\t// in\n    tag_78:\n      mload(0x40)\n      dup1\n      swap2\n      sub\n      swap1\n      revert\n    tag_77:\n        /* \"PFG/Verificador.sol\":2487:2498  denegacions */\n      0x05\n        /* \"PFG/Verificador.sol\":2487:2509  denegacions[denegador] */\n      0x00\n        /* \"PFG/Verificador.sol\":2499:2508  denegador */\n      dup3\n        /* \"PFG/Verificador.sol\":2487:2509  denegacions[denegador] */\n      0xffffffffffffffffffffffffffffffffffffffff\n      and\n      0xffffffffffffffffffffffffffffffffffffffff\n      and\n      dup2\n      mstore\n      0x20\n      add\n      swap1\n      dup2\n      mstore\n      0x20\n      add\n      0x00\n      keccak256\n      0x00\n      swap1\n      sload\n      swap1\n      0x0100\n      exp\n      swap1\n      div\n      0xff\n      and\n        /* \"PFG/Verificador.sol\":2486:2509  !denegacions[denegador] */\n      iszero\n        /* \"PFG/Verificador.sol\":2478:2531  require(!denegacions[denegador], \"Denegador repetit\") */\n      tag_79\n      jumpi\n      mload(0x40)\n      0x08c379a000000000000000000000000000000000000000000000000000000000\n      dup2\n      mstore\n      0x04\n      add\n      tag_80\n      swap1\n      tag_71\n      jump\t// in\n    tag_80:\n      mload(0x40)\n      dup1\n      swap2\n      sub\n      swap1\n      revert\n    tag_79:\n        /* \"PFG/Verificador.sol\":2551:2562  validacions */\n      0x04\n        /* \"PFG/Verificador.sol\":2551:2573  validacions[denegador] */\n      0x00\n        /* \"PFG/Verificador.sol\":2563:2572  denegador */\n      dup3\n        /* \"PFG/Verificador.sol\":2551:2573  validacions[denegador] */\n      0xffffffffffffffffffffffffffffffffffffffff\n      and\n      0xffffffffffffffffffffffffffffffffffffffff\n      and\n      dup2\n      mstore\n      0x20\n      add\n      swap1\n      dup2\n      mstore\n      0x20\n      add\n      0x00\n      keccak256\n      0x00\n      swap1\n      sload\n      swap1\n      0x0100\n      exp\n      swap1\n      div\n      0xff\n      and\n        /* \"PFG/Verificador.sol\":2550:2573  !validacions[denegador] */\n      iszero\n        /* \"PFG/Verificador.sol\":2542:2610  require(!validacions[denegador], \"No pots validar i denegar alhora\") */\n      tag_81\n      jumpi\n      mload(0x40)\n      0x08c379a000000000000000000000000000000000000000000000000000000000\n      dup2\n      mstore\n      0x04\n      add\n      tag_82\n      swap1\n      tag_62\n      jump\t// in\n    tag_82:\n      mload(0x40)\n      dup1\n      swap2\n      sub\n      swap1\n      revert\n    tag_81:\n        /* \"PFG/Verificador.sol\":2621:2631  denegadors */\n      0x03\n        /* \"PFG/Verificador.sol\":2637:2646  denegador */\n      dup2\n        /* \"PFG/Verificador.sol\":2621:2647  denegadors.push(denegador) */\n      swap1\n      dup1\n      0x01\n      dup2\n      sload\n      add\n      dup1\n      dup3\n      sstore\n      dup1\n      swap2\n      pop\n      pop\n      0x01\n      swap1\n      sub\n      swap1\n      0x00\n      mstore\n      keccak256(0x00, 0x20)\n      add\n      0x00\n      swap1\n      swap2\n      swap1\n      swap2\n      swap1\n      swap2\n      0x0100\n      exp\n      dup2\n      sload\n      dup2\n      0xffffffffffffffffffffffffffffffffffffffff\n      mul\n      not\n      and\n      swap1\n      dup4\n      0xffffffffffffffffffffffffffffffffffffffff\n      and\n      mul\n      or\n      swap1\n      sstore\n      pop\n        /* \"PFG/Verificador.sol\":2683:2687  true */\n      0x01\n        /* \"PFG/Verificador.sol\":2658:2669  denegacions */\n      0x05\n        /* \"PFG/Verificador.sol\":2658:2680  denegacions[denegador] */\n      0x00\n        /* \"PFG/Verificador.sol\":2670:2679  denegador */\n      dup4\n        /* \"PFG/Verificador.sol\":2658:2680  denegacions[denegador] */\n      0xffffffffffffffffffffffffffffffffffffffff\n      and\n      0xffffffffffffffffffffffffffffffffffffffff\n      and\n      dup2\n      mstore\n      0x20\n      add\n      swap1\n      dup2\n      mstore\n      0x20\n      add\n      0x00\n      keccak256\n      0x00\n        /* \"PFG/Verificador.sol\":2658:2687  denegacions[denegador] = true */\n      0x0100\n      exp\n      dup2\n      sload\n      dup2\n      0xff\n      mul\n      not\n      and\n      swap1\n      dup4\n      iszero\n      iszero\n      mul\n      or\n      swap1\n      sstore\n      pop\n        /* \"PFG/Verificador.sol\":2716:2725  denegador */\n      dup1\n        /* \"PFG/Verificador.sol\":2705:2736  Denegation(denegador, filename) */\n      0xffffffffffffffffffffffffffffffffffffffff\n      and\n      0x9036bc06ad4a578f0132d89ba4adc07b9772275526730acc38d7e4b4c11872a3\n        /* \"PFG/Verificador.sol\":2727:2735  filename */\n      0x01\n        /* \"PFG/Verificador.sol\":2705:2736  Denegation(denegador, filename) */\n      mload(0x40)\n      tag_84\n      swap2\n      swap1\n      tag_65\n      jump\t// in\n    tag_84:\n      mload(0x40)\n      dup1\n      swap2\n      sub\n      swap1\n      log2\n        /* \"PFG/Verificador.sol\":2335:2746  function denegate(address denegador) public {\r... */\n      pop\n      jump\t// out\n        /* \"PFG/Verificador.sol\":3375:3471  function nDenegations() public view returns(uint256) {\r... */\n    tag_29:\n        /* \"PFG/Verificador.sol\":3419:3426  uint256 */\n      0x00\n        /* \"PFG/Verificador.sol\":3446:3456  denegadors */\n      0x03\n        /* \"PFG/Verificador.sol\":3446:3463  denegadors.length */\n      dup1\n      sload\n      swap1\n      pop\n        /* \"PFG/Verificador.sol\":3439:3463  return denegadors.length */\n      swap1\n      pop\n        /* \"PFG/Verificador.sol\":3375:3471  function nDenegations() public view returns(uint256) {\r... */\n      swap1\n      jump\t// out\n        /* \"PFG/Verificador.sol\":1016:1416  function validate() public {\r... */\n    tag_33:\n        /* \"PFG/Verificador.sol\":1076:1086  msg.sender */\n      caller\n        /* \"PFG/Verificador.sol\":1062:1086  propietari != msg.sender */\n      0xffffffffffffffffffffffffffffffffffffffff\n      and\n        /* \"PFG/Verificador.sol\":1062:1072  propietari */\n      0x00\n      dup1\n      sload\n      swap1\n      0x0100\n      exp\n      swap1\n      div\n      0xffffffffffffffffffffffffffffffffffffffff\n      and\n        /* \"PFG/Verificador.sol\":1062:1086  propietari != msg.sender */\n      0xffffffffffffffffffffffffffffffffffffffff\n      and\n      eq\n      iszero\n        /* \"PFG/Verificador.sol\":1054:1132  require(propietari != msg.sender, \"El propietari no pot validar el seu asset\") */\n      tag_87\n      jumpi\n      mload(0x40)\n      0x08c379a000000000000000000000000000000000000000000000000000000000\n      dup2\n      mstore\n      0x04\n      add\n      tag_88\n      swap1\n      tag_56\n      jump\t// in\n    tag_88:\n      mload(0x40)\n      dup1\n      swap2\n      sub\n      swap1\n      revert\n    tag_87:\n        /* \"PFG/Verificador.sol\":1152:1163  validacions */\n      0x04\n        /* \"PFG/Verificador.sol\":1152:1175  validacions[msg.sender] */\n      0x00\n        /* \"PFG/Verificador.sol\":1164:1174  msg.sender */\n      caller\n        /* \"PFG/Verificador.sol\":1152:1175  validacions[msg.sender] */\n      0xffffffffffffffffffffffffffffffffffffffff\n      and\n      0xffffffffffffffffffffffffffffffffffffffff\n      and\n      dup2\n      mstore\n      0x20\n      add\n      swap1\n      dup2\n      mstore\n      0x20\n      add\n      0x00\n      keccak256\n      0x00\n      swap1\n      sload\n      swap1\n      0x0100\n      exp\n      swap1\n      div\n      0xff\n      and\n        /* \"PFG/Verificador.sol\":1151:1175  !validacions[msg.sender] */\n      iszero\n        /* \"PFG/Verificador.sol\":1143:1197  require(!validacions[msg.sender], \"Validador repetit\") */\n      tag_89\n      jumpi\n      mload(0x40)\n      0x08c379a000000000000000000000000000000000000000000000000000000000\n      dup2\n      mstore\n      0x04\n      add\n      tag_90\n      swap1\n      tag_59\n      jump\t// in\n    tag_90:\n      mload(0x40)\n      dup1\n      swap2\n      sub\n      swap1\n      revert\n    tag_89:\n        /* \"PFG/Verificador.sol\":1217:1228  denegacions */\n      0x05\n        /* \"PFG/Verificador.sol\":1217:1240  denegacions[msg.sender] */\n      0x00\n        /* \"PFG/Verificador.sol\":1229:1239  msg.sender */\n      caller\n        /* \"PFG/Verificador.sol\":1217:1240  denegacions[msg.sender] */\n      0xffffffffffffffffffffffffffffffffffffffff\n      and\n      0xffffffffffffffffffffffffffffffffffffffff\n      and\n      dup2\n      mstore\n      0x20\n      add\n      swap1\n      dup2\n      mstore\n      0x20\n      add\n      0x00\n      keccak256\n      0x00\n      swap1\n      sload\n      swap1\n      0x0100\n      exp\n      swap1\n      div\n      0xff\n      and\n        /* \"PFG/Verificador.sol\":1216:1240  !denegacions[msg.sender] */\n      iszero\n        /* \"PFG/Verificador.sol\":1208:1277  require(!denegacions[msg.sender], \"No pots validar i denegar alhora\") */\n      tag_91\n      jumpi\n      mload(0x40)\n      0x08c379a000000000000000000000000000000000000000000000000000000000\n      dup2\n      mstore\n      0x04\n      add\n      tag_92\n      swap1\n      tag_62\n      jump\t// in\n    tag_92:\n      mload(0x40)\n      dup1\n      swap2\n      sub\n      swap1\n      revert\n    tag_91:\n        /* \"PFG/Verificador.sol\":1288:1298  validadors */\n      0x02\n        /* \"PFG/Verificador.sol\":1304:1314  msg.sender */\n      caller\n        /* \"PFG/Verificador.sol\":1288:1315  validadors.push(msg.sender) */\n      swap1\n      dup1\n      0x01\n      dup2\n      sload\n      add\n      dup1\n      dup3\n      sstore\n      dup1\n      swap2\n      pop\n      pop\n      0x01\n      swap1\n      sub\n      swap1\n      0x00\n      mstore\n      keccak256(0x00, 0x20)\n      add\n      0x00\n      swap1\n      swap2\n      swap1\n      swap2\n      swap1\n      swap2\n      0x0100\n      exp\n      dup2\n      sload\n      dup2\n      0xffffffffffffffffffffffffffffffffffffffff\n      mul\n      not\n      and\n      swap1\n      dup4\n      0xffffffffffffffffffffffffffffffffffffffff\n      and\n      mul\n      or\n      swap1\n      sstore\n      pop\n        /* \"PFG/Verificador.sol\":1352:1356  true */\n      0x01\n        /* \"PFG/Verificador.sol\":1326:1337  validacions */\n      0x04\n        /* \"PFG/Verificador.sol\":1326:1349  validacions[msg.sender] */\n      0x00\n        /* \"PFG/Verificador.sol\":1338:1348  msg.sender */\n      caller\n        /* \"PFG/Verificador.sol\":1326:1349  validacions[msg.sender] */\n      0xffffffffffffffffffffffffffffffffffffffff\n      and\n      0xffffffffffffffffffffffffffffffffffffffff\n      and\n      dup2\n      mstore\n      0x20\n      add\n      swap1\n      dup2\n      mstore\n      0x20\n      add\n      0x00\n      keccak256\n      0x00\n        /* \"PFG/Verificador.sol\":1326:1356  validacions[msg.sender] = true */\n      0x0100\n      exp\n      dup2\n      sload\n      dup2\n      0xff\n      mul\n      not\n      and\n      swap1\n      dup4\n      iszero\n      iszero\n      mul\n      or\n      swap1\n      sstore\n      pop\n        /* \"PFG/Verificador.sol\":1385:1395  msg.sender */\n      caller\n        /* \"PFG/Verificador.sol\":1374:1406  Validation(msg.sender, filename) */\n      0xffffffffffffffffffffffffffffffffffffffff\n      and\n      0x57d77eb32e87e8c65c7cec1df5b0e8a8d5c4eae1b40c7246e7668ed702dd247a\n        /* \"PFG/Verificador.sol\":1397:1405  filename */\n      0x01\n        /* \"PFG/Verificador.sol\":1374:1406  Validation(msg.sender, filename) */\n      mload(0x40)\n      tag_94\n      swap2\n      swap1\n      tag_65\n      jump\t// in\n    tag_94:\n      mload(0x40)\n      dup1\n      swap2\n      sub\n      swap1\n      log2\n        /* \"PFG/Verificador.sol\":1016:1416  function validate() public {\r... */\n      jump\t// out\n        /* \"PFG/Verificador.sol\":3078:3164  function getOwner() external view returns(address){\r... */\n    tag_35:\n        /* \"PFG/Verificador.sol\":3120:3127  address */\n      0x00\n        /* \"PFG/Verificador.sol\":3146:3156  propietari */\n      dup1\n      0x00\n      swap1\n      sload\n      swap1\n      0x0100\n      exp\n      swap1\n      div\n      0xffffffffffffffffffffffffffffffffffffffff\n      and\n        /* \"PFG/Verificador.sol\":3139:3156  return propietari */\n      swap1\n      pop\n        /* \"PFG/Verificador.sol\":3078:3164  function getOwner() external view returns(address){\r... */\n      swap1\n      jump\t// out\n        /* \"PFG/Verificador.sol\":3271:3367  function nValidations() public view returns(uint256) {\r... */\n    tag_38:\n        /* \"PFG/Verificador.sol\":3315:3322  uint256 */\n      0x00\n        /* \"PFG/Verificador.sol\":3342:3352  validadors */\n      0x02\n        /* \"PFG/Verificador.sol\":3342:3359  validadors.length */\n      dup1\n      sload\n      swap1\n      pop\n        /* \"PFG/Verificador.sol\":3335:3359  return validadors.length */\n      swap1\n      pop\n        /* \"PFG/Verificador.sol\":3271:3367  function nValidations() public view returns(uint256) {\r... */\n      swap1\n      jump\t// out\n        /* \"PFG/Verificador.sol\":2927:3070  function hasDenied(address _user) public view returns(bool) {\r... */\n    tag_42:\n        /* \"PFG/Verificador.sol\":2981:2985  bool */\n      0x00\n        /* \"PFG/Verificador.sol\":3020:3025  _user */\n      dup2\n        /* \"PFG/Verificador.sol\":3006:3025  propietari != _user */\n      0xffffffffffffffffffffffffffffffffffffffff\n      and\n        /* \"PFG/Verificador.sol\":3006:3016  propietari */\n      0x00\n      dup1\n      sload\n      swap1\n      0x0100\n      exp\n      swap1\n      div\n      0xffffffffffffffffffffffffffffffffffffffff\n      and\n        /* \"PFG/Verificador.sol\":3006:3025  propietari != _user */\n      0xffffffffffffffffffffffffffffffffffffffff\n      and\n      eq\n      iszero\n        /* \"PFG/Verificador.sol\":2998:3026  require(propietari != _user) */\n      tag_98\n      jumpi\n      0x00\n      dup1\n      revert\n    tag_98:\n        /* \"PFG/Verificador.sol\":3044:3055  denegacions */\n      0x05\n        /* \"PFG/Verificador.sol\":3044:3062  denegacions[_user] */\n      0x00\n        /* \"PFG/Verificador.sol\":3056:3061  _user */\n      dup4\n        /* \"PFG/Verificador.sol\":3044:3062  denegacions[_user] */\n      0xffffffffffffffffffffffffffffffffffffffff\n      and\n      0xffffffffffffffffffffffffffffffffffffffff\n      and\n      dup2\n      mstore\n      0x20\n      add\n      swap1\n      dup2\n      mstore\n      0x20\n      add\n      0x00\n      keccak256\n      0x00\n      swap1\n      sload\n      swap1\n      0x0100\n      exp\n      swap1\n      div\n      0xff\n      and\n        /* \"PFG/Verificador.sol\":3037:3062  return denegacions[_user] */\n      swap1\n      pop\n        /* \"PFG/Verificador.sol\":2927:3070  function hasDenied(address _user) public view returns(bool) {\r... */\n      swap2\n      swap1\n      pop\n      jump\t// out\n        /* \"PFG/Verificador.sol\":2773:2919  function hasValidated(address _user) public view returns(bool) {\r... */\n    tag_47:\n        /* \"PFG/Verificador.sol\":2830:2834  bool */\n      0x00\n        /* \"PFG/Verificador.sol\":2869:2874  _user */\n      dup2\n        /* \"PFG/Verificador.sol\":2855:2874  propietari != _user */\n      0xffffffffffffffffffffffffffffffffffffffff\n      and\n        /* \"PFG/Verificador.sol\":2855:2865  propietari */\n      0x00\n      dup1\n      sload\n      swap1\n      0x0100\n      exp\n      swap1\n      div\n      0xffffffffffffffffffffffffffffffffffffffff\n      and\n        /* \"PFG/Verificador.sol\":2855:2874  propietari != _user */\n      0xffffffffffffffffffffffffffffffffffffffff\n      and\n      eq\n      iszero\n        /* \"PFG/Verificador.sol\":2847:2875  require(propietari != _user) */\n      tag_100\n      jumpi\n      0x00\n      dup1\n      revert\n    tag_100:\n        /* \"PFG/Verificador.sol\":2893:2904  validacions */\n      0x04\n        /* \"PFG/Verificador.sol\":2893:2911  validacions[_user] */\n      0x00\n        /* \"PFG/Verificador.sol\":2905:2910  _user */\n      dup4\n        /* \"PFG/Verificador.sol\":2893:2911  validacions[_user] */\n      0xffffffffffffffffffffffffffffffffffffffff\n      and\n      0xffffffffffffffffffffffffffffffffffffffff\n      and\n      dup2\n      mstore\n      0x20\n      add\n      swap1\n      dup2\n      mstore\n      0x20\n      add\n      0x00\n      keccak256\n      0x00\n      swap1\n      sload\n      swap1\n      0x0100\n      exp\n      swap1\n      div\n      0xff\n      and\n        /* \"PFG/Verificador.sol\":2886:2911  return validacions[_user] */\n      swap1\n      pop\n        /* \"PFG/Verificador.sol\":2773:2919  function hasValidated(address _user) public view returns(bool) {\r... */\n      swap2\n      swap1\n      pop\n      jump\t// out\n        /* \"PFG/Verificador.sol\":3172:3263  function getFilename() public view returns(string memory){\r... */\n    tag_50:\n        /* \"PFG/Verificador.sol\":3215:3228  string memory */\n      0x60\n        /* \"PFG/Verificador.sol\":3247:3255  filename */\n      0x01\n        /* \"PFG/Verificador.sol\":3240:3255  return filename */\n      dup1\n      sload\n      tag_102\n      swap1\n      tag_103\n      jump\t// in\n    tag_102:\n      dup1\n      0x1f\n      add\n      0x20\n      dup1\n      swap2\n      div\n      mul\n      0x20\n      add\n      mload(0x40)\n      swap1\n      dup2\n      add\n      0x40\n      mstore\n      dup1\n      swap3\n      swap2\n      swap1\n      dup2\n      dup2\n      mstore\n      0x20\n      add\n      dup3\n      dup1\n      sload\n      tag_104\n      swap1\n      tag_103\n      jump\t// in\n    tag_104:\n      dup1\n      iszero\n      tag_105\n      jumpi\n      dup1\n      0x1f\n      lt\n      tag_106\n      jumpi\n      0x0100\n      dup1\n      dup4\n      sload\n      div\n      mul\n      dup4\n      mstore\n      swap2\n      0x20\n      add\n      swap2\n      jump(tag_105)\n    tag_106:\n      dup3\n      add\n      swap2\n      swap1\n      0x00\n      mstore\n      keccak256(0x00, 0x20)\n      swap1\n    tag_107:\n      dup2\n      sload\n      dup2\n      mstore\n      swap1\n      0x01\n      add\n      swap1\n      0x20\n      add\n      dup1\n      dup4\n      gt\n      tag_107\n      jumpi\n      dup3\n      swap1\n      sub\n      0x1f\n      and\n      dup3\n      add\n      swap2\n    tag_105:\n      pop\n      pop\n      pop\n      pop\n      pop\n      swap1\n      pop\n        /* \"PFG/Verificador.sol\":3172:3263  function getFilename() public view returns(string memory){\r... */\n      swap1\n      jump\t// out\n        /* \"#utility.yul\":7:146   */\n    tag_109:\n        /* \"#utility.yul\":53:58   */\n      0x00\n        /* \"#utility.yul\":91:97   */\n      dup2\n        /* \"#utility.yul\":78:98   */\n      calldataload\n        /* \"#utility.yul\":69:98   */\n      swap1\n      pop\n        /* \"#utility.yul\":107:140   */\n      tag_111\n        /* \"#utility.yul\":134:139   */\n      dup2\n        /* \"#utility.yul\":107:140   */\n      tag_112\n      jump\t// in\n    tag_111:\n        /* \"#utility.yul\":7:146   */\n      swap3\n      swap2\n      pop\n      pop\n      jump\t// out\n        /* \"#utility.yul\":152:481   */\n    tag_21:\n        /* \"#utility.yul\":211:217   */\n      0x00\n        /* \"#utility.yul\":260:262   */\n      0x20\n        /* \"#utility.yul\":248:257   */\n      dup3\n        /* \"#utility.yul\":239:246   */\n      dup5\n        /* \"#utility.yul\":235:258   */\n      sub\n        /* \"#utility.yul\":231:263   */\n      slt\n        /* \"#utility.yul\":228:347   */\n      iszero\n      tag_114\n      jumpi\n        /* \"#utility.yul\":266:345   */\n      tag_115\n      tag_116\n      jump\t// in\n    tag_115:\n        /* \"#utility.yul\":228:347   */\n    tag_114:\n        /* \"#utility.yul\":386:387   */\n      0x00\n        /* \"#utility.yul\":411:464   */\n      tag_117\n        /* \"#utility.yul\":456:463   */\n      dup5\n        /* \"#utility.yul\":447:453   */\n      dup3\n        /* \"#utility.yul\":436:445   */\n      dup6\n        /* \"#utility.yul\":432:454   */\n      add\n        /* \"#utility.yul\":411:464   */\n      tag_109\n      jump\t// in\n    tag_117:\n        /* \"#utility.yul\":401:464   */\n      swap2\n      pop\n        /* \"#utility.yul\":357:474   */\n      pop\n        /* \"#utility.yul\":152:481   */\n      swap3\n      swap2\n      pop\n      pop\n      jump\t// out\n        /* \"#utility.yul\":487:605   */\n    tag_118:\n        /* \"#utility.yul\":574:598   */\n      tag_120\n        /* \"#utility.yul\":592:597   */\n      dup2\n        /* \"#utility.yul\":574:598   */\n      tag_121\n      jump\t// in\n    tag_120:\n        /* \"#utility.yul\":569:572   */\n      dup3\n        /* \"#utility.yul\":562:599   */\n      mstore\n        /* \"#utility.yul\":487:605   */\n      pop\n      pop\n      jump\t// out\n        /* \"#utility.yul\":611:720   */\n    tag_122:\n        /* \"#utility.yul\":692:713   */\n      tag_124\n        /* \"#utility.yul\":707:712   */\n      dup2\n        /* \"#utility.yul\":692:713   */\n      tag_125\n      jump\t// in\n    tag_124:\n        /* \"#utility.yul\":687:690   */\n      dup3\n        /* \"#utility.yul\":680:714   */\n      mstore\n        /* \"#utility.yul\":611:720   */\n      pop\n      pop\n      jump\t// out\n        /* \"#utility.yul\":726:1090   */\n    tag_126:\n        /* \"#utility.yul\":814:817   */\n      0x00\n        /* \"#utility.yul\":842:881   */\n      tag_128\n        /* \"#utility.yul\":875:880   */\n      dup3\n        /* \"#utility.yul\":842:881   */\n      tag_129\n      jump\t// in\n    tag_128:\n        /* \"#utility.yul\":897:968   */\n      tag_130\n        /* \"#utility.yul\":961:967   */\n      dup2\n        /* \"#utility.yul\":956:959   */\n      dup6\n        /* \"#utility.yul\":897:968   */\n      tag_131\n      jump\t// in\n    tag_130:\n        /* \"#utility.yul\":890:968   */\n      swap4\n      pop\n        /* \"#utility.yul\":977:1029   */\n      tag_132\n        /* \"#utility.yul\":1022:1028   */\n      dup2\n        /* \"#utility.yul\":1017:1020   */\n      dup6\n        /* \"#utility.yul\":1010:1014   */\n      0x20\n        /* \"#utility.yul\":1003:1008   */\n      dup7\n        /* \"#utility.yul\":999:1015   */\n      add\n        /* \"#utility.yul\":977:1029   */\n      tag_133\n      jump\t// in\n    tag_132:\n        /* \"#utility.yul\":1054:1083   */\n      tag_134\n        /* \"#utility.yul\":1076:1082   */\n      dup2\n        /* \"#utility.yul\":1054:1083   */\n      tag_135\n      jump\t// in\n    tag_134:\n        /* \"#utility.yul\":1049:1052   */\n      dup5\n        /* \"#utility.yul\":1045:1084   */\n      add\n        /* \"#utility.yul\":1038:1084   */\n      swap2\n      pop\n        /* \"#utility.yul\":818:1090   */\n      pop\n        /* \"#utility.yul\":726:1090   */\n      swap3\n      swap2\n      pop\n      pop\n      jump\t// out\n        /* \"#utility.yul\":1120:1922   */\n    tag_136:\n        /* \"#utility.yul\":1205:1208   */\n      0x00\n        /* \"#utility.yul\":1242:1247   */\n      dup2\n        /* \"#utility.yul\":1236:1248   */\n      sload\n        /* \"#utility.yul\":1271:1307   */\n      tag_138\n        /* \"#utility.yul\":1297:1306   */\n      dup2\n        /* \"#utility.yul\":1271:1307   */\n      tag_103\n      jump\t// in\n    tag_138:\n        /* \"#utility.yul\":1323:1394   */\n      tag_139\n        /* \"#utility.yul\":1387:1393   */\n      dup2\n        /* \"#utility.yul\":1382:1385   */\n      dup7\n        /* \"#utility.yul\":1323:1394   */\n      tag_131\n      jump\t// in\n    tag_139:\n        /* \"#utility.yul\":1316:1394   */\n      swap5\n      pop\n        /* \"#utility.yul\":1425:1426   */\n      0x01\n        /* \"#utility.yul\":1414:1423   */\n      dup3\n        /* \"#utility.yul\":1410:1427   */\n      and\n        /* \"#utility.yul\":1441:1442   */\n      0x00\n        /* \"#utility.yul\":1436:1571   */\n      dup2\n      eq\n      tag_141\n      jumpi\n        /* \"#utility.yul\":1585:1586   */\n      0x01\n        /* \"#utility.yul\":1580:1916   */\n      dup2\n      eq\n      tag_142\n      jumpi\n        /* \"#utility.yul\":1403:1916   */\n      jump(tag_140)\n        /* \"#utility.yul\":1436:1571   */\n    tag_141:\n        /* \"#utility.yul\":1520:1524   */\n      0xff\n        /* \"#utility.yul\":1516:1525   */\n      not\n        /* \"#utility.yul\":1505:1514   */\n      dup4\n        /* \"#utility.yul\":1501:1526   */\n      and\n        /* \"#utility.yul\":1496:1499   */\n      dup7\n        /* \"#utility.yul\":1489:1527   */\n      mstore\n        /* \"#utility.yul\":1556:1560   */\n      0x20\n        /* \"#utility.yul\":1551:1554   */\n      dup7\n        /* \"#utility.yul\":1547:1561   */\n      add\n        /* \"#utility.yul\":1540:1561   */\n      swap4\n      pop\n        /* \"#utility.yul\":1436:1571   */\n      jump(tag_140)\n        /* \"#utility.yul\":1580:1916   */\n    tag_142:\n        /* \"#utility.yul\":1647:1685   */\n      tag_143\n        /* \"#utility.yul\":1679:1684   */\n      dup6\n        /* \"#utility.yul\":1647:1685   */\n      tag_144\n      jump\t// in\n    tag_143:\n        /* \"#utility.yul\":1707:1708   */\n      0x00\n        /* \"#utility.yul\":1721:1875   */\n    tag_145:\n        /* \"#utility.yul\":1735:1741   */\n      dup4\n        /* \"#utility.yul\":1732:1733   */\n      dup2\n        /* \"#utility.yul\":1729:1742   */\n      lt\n        /* \"#utility.yul\":1721:1875   */\n      iszero\n      tag_147\n      jumpi\n        /* \"#utility.yul\":1809:1816   */\n      dup2\n        /* \"#utility.yul\":1803:1817   */\n      sload\n        /* \"#utility.yul\":1799:1800   */\n      dup2\n        /* \"#utility.yul\":1794:1797   */\n      dup10\n        /* \"#utility.yul\":1790:1801   */\n      add\n        /* \"#utility.yul\":1783:1818   */\n      mstore\n        /* \"#utility.yul\":1859:1860   */\n      0x01\n        /* \"#utility.yul\":1850:1857   */\n      dup3\n        /* \"#utility.yul\":1846:1861   */\n      add\n        /* \"#utility.yul\":1835:1861   */\n      swap2\n      pop\n        /* \"#utility.yul\":1757:1761   */\n      0x20\n        /* \"#utility.yul\":1754:1755   */\n      dup2\n        /* \"#utility.yul\":1750:1762   */\n      add\n        /* \"#utility.yul\":1745:1762   */\n      swap1\n      pop\n        /* \"#utility.yul\":1721:1875   */\n      jump(tag_145)\n    tag_147:\n        /* \"#utility.yul\":1904:1905   */\n      dup1\n        /* \"#utility.yul\":1899:1902   */\n      dup9\n        /* \"#utility.yul\":1895:1906   */\n      add\n        /* \"#utility.yul\":1888:1906   */\n      swap6\n      pop\n        /* \"#utility.yul\":1587:1916   */\n      pop\n      pop\n        /* \"#utility.yul\":1403:1916   */\n    tag_140:\n      pop\n        /* \"#utility.yul\":1209:1922   */\n      pop\n      pop\n        /* \"#utility.yul\":1120:1922   */\n      swap3\n      swap2\n      pop\n      pop\n      jump\t// out\n        /* \"#utility.yul\":1928:2294   */\n    tag_148:\n        /* \"#utility.yul\":2070:2073   */\n      0x00\n        /* \"#utility.yul\":2091:2158   */\n      tag_150\n        /* \"#utility.yul\":2155:2157   */\n      0x20\n        /* \"#utility.yul\":2150:2153   */\n      dup4\n        /* \"#utility.yul\":2091:2158   */\n      tag_131\n      jump\t// in\n    tag_150:\n        /* \"#utility.yul\":2084:2158   */\n      swap2\n      pop\n        /* \"#utility.yul\":2167:2260   */\n      tag_151\n        /* \"#utility.yul\":2256:2259   */\n      dup3\n        /* \"#utility.yul\":2167:2260   */\n      tag_152\n      jump\t// in\n    tag_151:\n        /* \"#utility.yul\":2285:2287   */\n      0x20\n        /* \"#utility.yul\":2280:2283   */\n      dup3\n        /* \"#utility.yul\":2276:2288   */\n      add\n        /* \"#utility.yul\":2269:2288   */\n      swap1\n      pop\n        /* \"#utility.yul\":1928:2294   */\n      swap2\n      swap1\n      pop\n      jump\t// out\n        /* \"#utility.yul\":2300:2666   */\n    tag_153:\n        /* \"#utility.yul\":2442:2445   */\n      0x00\n        /* \"#utility.yul\":2463:2530   */\n      tag_155\n        /* \"#utility.yul\":2527:2529   */\n      0x29\n        /* \"#utility.yul\":2522:2525   */\n      dup4\n        /* \"#utility.yul\":2463:2530   */\n      tag_131\n      jump\t// in\n    tag_155:\n        /* \"#utility.yul\":2456:2530   */\n      swap2\n      pop\n        /* \"#utility.yul\":2539:2632   */\n      tag_156\n        /* \"#utility.yul\":2628:2631   */\n      dup3\n        /* \"#utility.yul\":2539:2632   */\n      tag_157\n      jump\t// in\n    tag_156:\n        /* \"#utility.yul\":2657:2659   */\n      0x40\n        /* \"#utility.yul\":2652:2655   */\n      dup3\n        /* \"#utility.yul\":2648:2660   */\n      add\n        /* \"#utility.yul\":2641:2660   */\n      swap1\n      pop\n        /* \"#utility.yul\":2300:2666   */\n      swap2\n      swap1\n      pop\n      jump\t// out\n        /* \"#utility.yul\":2672:3038   */\n    tag_158:\n        /* \"#utility.yul\":2814:2817   */\n      0x00\n        /* \"#utility.yul\":2835:2902   */\n      tag_160\n        /* \"#utility.yul\":2899:2901   */\n      0x11\n        /* \"#utility.yul\":2894:2897   */\n      dup4\n        /* \"#utility.yul\":2835:2902   */\n      tag_131\n      jump\t// in\n    tag_160:\n        /* \"#utility.yul\":2828:2902   */\n      swap2\n      pop\n        /* \"#utility.yul\":2911:3004   */\n      tag_161\n        /* \"#utility.yul\":3000:3003   */\n      dup3\n        /* \"#utility.yul\":2911:3004   */\n      tag_162\n      jump\t// in\n    tag_161:\n        /* \"#utility.yul\":3029:3031   */\n      0x20\n        /* \"#utility.yul\":3024:3027   */\n      dup3\n        /* \"#utility.yul\":3020:3032   */\n      add\n        /* \"#utility.yul\":3013:3032   */\n      swap1\n      pop\n        /* \"#utility.yul\":2672:3038   */\n      swap2\n      swap1\n      pop\n      jump\t// out\n        /* \"#utility.yul\":3044:3410   */\n    tag_163:\n        /* \"#utility.yul\":3186:3189   */\n      0x00\n        /* \"#utility.yul\":3207:3274   */\n      tag_165\n        /* \"#utility.yul\":3271:3273   */\n      0x11\n        /* \"#utility.yul\":3266:3269   */\n      dup4\n        /* \"#utility.yul\":3207:3274   */\n      tag_131\n      jump\t// in\n    tag_165:\n        /* \"#utility.yul\":3200:3274   */\n      swap2\n      pop\n        /* \"#utility.yul\":3283:3376   */\n      tag_166\n        /* \"#utility.yul\":3372:3375   */\n      dup3\n        /* \"#utility.yul\":3283:3376   */\n      tag_167\n      jump\t// in\n    tag_166:\n        /* \"#utility.yul\":3401:3403   */\n      0x20\n        /* \"#utility.yul\":3396:3399   */\n      dup3\n        /* \"#utility.yul\":3392:3404   */\n      add\n        /* \"#utility.yul\":3385:3404   */\n      swap1\n      pop\n        /* \"#utility.yul\":3044:3410   */\n      swap2\n      swap1\n      pop\n      jump\t// out\n        /* \"#utility.yul\":3416:3534   */\n    tag_168:\n        /* \"#utility.yul\":3503:3527   */\n      tag_170\n        /* \"#utility.yul\":3521:3526   */\n      dup2\n        /* \"#utility.yul\":3503:3527   */\n      tag_171\n      jump\t// in\n    tag_170:\n        /* \"#utility.yul\":3498:3501   */\n      dup3\n        /* \"#utility.yul\":3491:3528   */\n      mstore\n        /* \"#utility.yul\":3416:3534   */\n      pop\n      pop\n      jump\t// out\n        /* \"#utility.yul\":3540:3762   */\n    tag_18:\n        /* \"#utility.yul\":3633:3637   */\n      0x00\n        /* \"#utility.yul\":3671:3673   */\n      0x20\n        /* \"#utility.yul\":3660:3669   */\n      dup3\n        /* \"#utility.yul\":3656:3674   */\n      add\n        /* \"#utility.yul\":3648:3674   */\n      swap1\n      pop\n        /* \"#utility.yul\":3684:3755   */\n      tag_173\n        /* \"#utility.yul\":3752:3753   */\n      0x00\n        /* \"#utility.yul\":3741:3750   */\n      dup4\n        /* \"#utility.yul\":3737:3754   */\n      add\n        /* \"#utility.yul\":3728:3734   */\n      dup5\n        /* \"#utility.yul\":3684:3755   */\n      tag_118\n      jump\t// in\n    tag_173:\n        /* \"#utility.yul\":3540:3762   */\n      swap3\n      swap2\n      pop\n      pop\n      jump\t// out\n        /* \"#utility.yul\":3768:3978   */\n    tag_44:\n        /* \"#utility.yul\":3855:3859   */\n      0x00\n        /* \"#utility.yul\":3893:3895   */\n      0x20\n        /* \"#utility.yul\":3882:3891   */\n      dup3\n        /* \"#utility.yul\":3878:3896   */\n      add\n        /* \"#utility.yul\":3870:3896   */\n      swap1\n      pop\n        /* \"#utility.yul\":3906:3971   */\n      tag_175\n        /* \"#utility.yul\":3968:3969   */\n      0x00\n        /* \"#utility.yul\":3957:3966   */\n      dup4\n        /* \"#utility.yul\":3953:3970   */\n      add\n        /* \"#utility.yul\":3944:3950   */\n      dup5\n        /* \"#utility.yul\":3906:3971   */\n      tag_122\n      jump\t// in\n    tag_175:\n        /* \"#utility.yul\":3768:3978   */\n      swap3\n      swap2\n      pop\n      pop\n      jump\t// out\n        /* \"#utility.yul\":3984:4297   */\n    tag_52:\n        /* \"#utility.yul\":4097:4101   */\n      0x00\n        /* \"#utility.yul\":4135:4137   */\n      0x20\n        /* \"#utility.yul\":4124:4133   */\n      dup3\n        /* \"#utility.yul\":4120:4138   */\n      add\n        /* \"#utility.yul\":4112:4138   */\n      swap1\n      pop\n        /* \"#utility.yul\":4184:4193   */\n      dup2\n        /* \"#utility.yul\":4178:4182   */\n      dup2\n        /* \"#utility.yul\":4174:4194   */\n      sub\n        /* \"#utility.yul\":4170:4171   */\n      0x00\n        /* \"#utility.yul\":4159:4168   */\n      dup4\n        /* \"#utility.yul\":4155:4172   */\n      add\n        /* \"#utility.yul\":4148:4195   */\n      mstore\n        /* \"#utility.yul\":4212:4290   */\n      tag_177\n        /* \"#utility.yul\":4285:4289   */\n      dup2\n        /* \"#utility.yul\":4276:4282   */\n      dup5\n        /* \"#utility.yul\":4212:4290   */\n      tag_126\n      jump\t// in\n    tag_177:\n        /* \"#utility.yul\":4204:4290   */\n      swap1\n      pop\n        /* \"#utility.yul\":3984:4297   */\n      swap3\n      swap2\n      pop\n      pop\n      jump\t// out\n        /* \"#utility.yul\":4303:4610   */\n    tag_65:\n        /* \"#utility.yul\":4413:4417   */\n      0x00\n        /* \"#utility.yul\":4451:4453   */\n      0x20\n        /* \"#utility.yul\":4440:4449   */\n      dup3\n        /* \"#utility.yul\":4436:4454   */\n      add\n        /* \"#utility.yul\":4428:4454   */\n      swap1\n      pop\n        /* \"#utility.yul\":4500:4509   */\n      dup2\n        /* \"#utility.yul\":4494:4498   */\n      dup2\n        /* \"#utility.yul\":4490:4510   */\n      sub\n        /* \"#utility.yul\":4486:4487   */\n      0x00\n        /* \"#utility.yul\":4475:4484   */\n      dup4\n        /* \"#utility.yul\":4471:4488   */\n      add\n        /* \"#utility.yul\":4464:4511   */\n      mstore\n        /* \"#utility.yul\":4528:4603   */\n      tag_179\n        /* \"#utility.yul\":4598:4602   */\n      dup2\n        /* \"#utility.yul\":4589:4595   */\n      dup5\n        /* \"#utility.yul\":4528:4603   */\n      tag_136\n      jump\t// in\n    tag_179:\n        /* \"#utility.yul\":4520:4603   */\n      swap1\n      pop\n        /* \"#utility.yul\":4303:4610   */\n      swap3\n      swap2\n      pop\n      pop\n      jump\t// out\n        /* \"#utility.yul\":4616:5035   */\n    tag_62:\n        /* \"#utility.yul\":4782:4786   */\n      0x00\n        /* \"#utility.yul\":4820:4822   */\n      0x20\n        /* \"#utility.yul\":4809:4818   */\n      dup3\n        /* \"#utility.yul\":4805:4823   */\n      add\n        /* \"#utility.yul\":4797:4823   */\n      swap1\n      pop\n        /* \"#utility.yul\":4869:4878   */\n      dup2\n        /* \"#utility.yul\":4863:4867   */\n      dup2\n        /* \"#utility.yul\":4859:4879   */\n      sub\n        /* \"#utility.yul\":4855:4856   */\n      0x00\n        /* \"#utility.yul\":4844:4853   */\n      dup4\n        /* \"#utility.yul\":4840:4857   */\n      add\n        /* \"#utility.yul\":4833:4880   */\n      mstore\n        /* \"#utility.yul\":4897:5028   */\n      tag_181\n        /* \"#utility.yul\":5023:5027   */\n      dup2\n        /* \"#utility.yul\":4897:5028   */\n      tag_148\n      jump\t// in\n    tag_181:\n        /* \"#utility.yul\":4889:5028   */\n      swap1\n      pop\n        /* \"#utility.yul\":4616:5035   */\n      swap2\n      swap1\n      pop\n      jump\t// out\n        /* \"#utility.yul\":5041:5460   */\n    tag_56:\n        /* \"#utility.yul\":5207:5211   */\n      0x00\n        /* \"#utility.yul\":5245:5247   */\n      0x20\n        /* \"#utility.yul\":5234:5243   */\n      dup3\n        /* \"#utility.yul\":5230:5248   */\n      add\n        /* \"#utility.yul\":5222:5248   */\n      swap1\n      pop\n        /* \"#utility.yul\":5294:5303   */\n      dup2\n        /* \"#utility.yul\":5288:5292   */\n      dup2\n        /* \"#utility.yul\":5284:5304   */\n      sub\n        /* \"#utility.yul\":5280:5281   */\n      0x00\n        /* \"#utility.yul\":5269:5278   */\n      dup4\n        /* \"#utility.yul\":5265:5282   */\n      add\n        /* \"#utility.yul\":5258:5305   */\n      mstore\n        /* \"#utility.yul\":5322:5453   */\n      tag_183\n        /* \"#utility.yul\":5448:5452   */\n      dup2\n        /* \"#utility.yul\":5322:5453   */\n      tag_153\n      jump\t// in\n    tag_183:\n        /* \"#utility.yul\":5314:5453   */\n      swap1\n      pop\n        /* \"#utility.yul\":5041:5460   */\n      swap2\n      swap1\n      pop\n      jump\t// out\n        /* \"#utility.yul\":5466:5885   */\n    tag_59:\n        /* \"#utility.yul\":5632:5636   */\n      0x00\n        /* \"#utility.yul\":5670:5672   */\n      0x20\n        /* \"#utility.yul\":5659:5668   */\n      dup3\n        /* \"#utility.yul\":5655:5673   */\n      add\n        /* \"#utility.yul\":5647:5673   */\n      swap1\n      pop\n        /* \"#utility.yul\":5719:5728   */\n      dup2\n        /* \"#utility.yul\":5713:5717   */\n      dup2\n        /* \"#utility.yul\":5709:5729   */\n      sub\n        /* \"#utility.yul\":5705:5706   */\n      0x00\n        /* \"#utility.yul\":5694:5703   */\n      dup4\n        /* \"#utility.yul\":5690:5707   */\n      add\n        /* \"#utility.yul\":5683:5730   */\n      mstore\n        /* \"#utility.yul\":5747:5878   */\n      tag_185\n        /* \"#utility.yul\":5873:5877   */\n      dup2\n        /* \"#utility.yul\":5747:5878   */\n      tag_158\n      jump\t// in\n    tag_185:\n        /* \"#utility.yul\":5739:5878   */\n      swap1\n      pop\n        /* \"#utility.yul\":5466:5885   */\n      swap2\n      swap1\n      pop\n      jump\t// out\n        /* \"#utility.yul\":5891:6310   */\n    tag_71:\n        /* \"#utility.yul\":6057:6061   */\n      0x00\n        /* \"#utility.yul\":6095:6097   */\n      0x20\n        /* \"#utility.yul\":6084:6093   */\n      dup3\n        /* \"#utility.yul\":6080:6098   */\n      add\n        /* \"#utility.yul\":6072:6098   */\n      swap1\n      pop\n        /* \"#utility.yul\":6144:6153   */\n      dup2\n        /* \"#utility.yul\":6138:6142   */\n      dup2\n        /* \"#utility.yul\":6134:6154   */\n      sub\n        /* \"#utility.yul\":6130:6131   */\n      0x00\n        /* \"#utility.yul\":6119:6128   */\n      dup4\n        /* \"#utility.yul\":6115:6132   */\n      add\n        /* \"#utility.yul\":6108:6155   */\n      mstore\n        /* \"#utility.yul\":6172:6303   */\n      tag_187\n        /* \"#utility.yul\":6298:6302   */\n      dup2\n        /* \"#utility.yul\":6172:6303   */\n      tag_163\n      jump\t// in\n    tag_187:\n        /* \"#utility.yul\":6164:6303   */\n      swap1\n      pop\n        /* \"#utility.yul\":5891:6310   */\n      swap2\n      swap1\n      pop\n      jump\t// out\n        /* \"#utility.yul\":6316:6538   */\n    tag_31:\n        /* \"#utility.yul\":6409:6413   */\n      0x00\n        /* \"#utility.yul\":6447:6449   */\n      0x20\n        /* \"#utility.yul\":6436:6445   */\n      dup3\n        /* \"#utility.yul\":6432:6450   */\n      add\n        /* \"#utility.yul\":6424:6450   */\n      swap1\n      pop\n        /* \"#utility.yul\":6460:6531   */\n      tag_189\n        /* \"#utility.yul\":6528:6529   */\n      0x00\n        /* \"#utility.yul\":6517:6526   */\n      dup4\n        /* \"#utility.yul\":6513:6530   */\n      add\n        /* \"#utility.yul\":6504:6510   */\n      dup5\n        /* \"#utility.yul\":6460:6531   */\n      tag_168\n      jump\t// in\n    tag_189:\n        /* \"#utility.yul\":6316:6538   */\n      swap3\n      swap2\n      pop\n      pop\n      jump\t// out\n        /* \"#utility.yul\":6625:6766   */\n    tag_144:\n        /* \"#utility.yul\":6674:6678   */\n      0x00\n        /* \"#utility.yul\":6697:6700   */\n      dup2\n        /* \"#utility.yul\":6689:6700   */\n      swap1\n      pop\n        /* \"#utility.yul\":6720:6723   */\n      dup2\n        /* \"#utility.yul\":6717:6718   */\n      0x00\n        /* \"#utility.yul\":6710:6724   */\n      mstore\n        /* \"#utility.yul\":6754:6758   */\n      0x20\n        /* \"#utility.yul\":6751:6752   */\n      0x00\n        /* \"#utility.yul\":6741:6759   */\n      keccak256\n        /* \"#utility.yul\":6733:6759   */\n      swap1\n      pop\n        /* \"#utility.yul\":6625:6766   */\n      swap2\n      swap1\n      pop\n      jump\t// out\n        /* \"#utility.yul\":6772:6871   */\n    tag_129:\n        /* \"#utility.yul\":6824:6830   */\n      0x00\n        /* \"#utility.yul\":6858:6863   */\n      dup2\n        /* \"#utility.yul\":6852:6864   */\n      mload\n        /* \"#utility.yul\":6842:6864   */\n      swap1\n      pop\n        /* \"#utility.yul\":6772:6871   */\n      swap2\n      swap1\n      pop\n      jump\t// out\n        /* \"#utility.yul\":6877:7046   */\n    tag_131:\n        /* \"#utility.yul\":6961:6972   */\n      0x00\n        /* \"#utility.yul\":6995:7001   */\n      dup3\n        /* \"#utility.yul\":6990:6993   */\n      dup3\n        /* \"#utility.yul\":6983:7002   */\n      mstore\n        /* \"#utility.yul\":7035:7039   */\n      0x20\n        /* \"#utility.yul\":7030:7033   */\n      dup3\n        /* \"#utility.yul\":7026:7040   */\n      add\n        /* \"#utility.yul\":7011:7040   */\n      swap1\n      pop\n        /* \"#utility.yul\":6877:7046   */\n      swap3\n      swap2\n      pop\n      pop\n      jump\t// out\n        /* \"#utility.yul\":7052:7148   */\n    tag_121:\n        /* \"#utility.yul\":7089:7096   */\n      0x00\n        /* \"#utility.yul\":7118:7142   */\n      tag_196\n        /* \"#utility.yul\":7136:7141   */\n      dup3\n        /* \"#utility.yul\":7118:7142   */\n      tag_197\n      jump\t// in\n    tag_196:\n        /* \"#utility.yul\":7107:7142   */\n      swap1\n      pop\n        /* \"#utility.yul\":7052:7148   */\n      swap2\n      swap1\n      pop\n      jump\t// out\n        /* \"#utility.yul\":7154:7244   */\n    tag_125:\n        /* \"#utility.yul\":7188:7195   */\n      0x00\n        /* \"#utility.yul\":7231:7236   */\n      dup2\n        /* \"#utility.yul\":7224:7237   */\n      iszero\n        /* \"#utility.yul\":7217:7238   */\n      iszero\n        /* \"#utility.yul\":7206:7238   */\n      swap1\n      pop\n        /* \"#utility.yul\":7154:7244   */\n      swap2\n      swap1\n      pop\n      jump\t// out\n        /* \"#utility.yul\":7250:7376   */\n    tag_197:\n        /* \"#utility.yul\":7287:7294   */\n      0x00\n        /* \"#utility.yul\":7327:7369   */\n      0xffffffffffffffffffffffffffffffffffffffff\n        /* \"#utility.yul\":7320:7325   */\n      dup3\n        /* \"#utility.yul\":7316:7370   */\n      and\n        /* \"#utility.yul\":7305:7370   */\n      swap1\n      pop\n        /* \"#utility.yul\":7250:7376   */\n      swap2\n      swap1\n      pop\n      jump\t// out\n        /* \"#utility.yul\":7382:7459   */\n    tag_171:\n        /* \"#utility.yul\":7419:7426   */\n      0x00\n        /* \"#utility.yul\":7448:7453   */\n      dup2\n        /* \"#utility.yul\":7437:7453   */\n      swap1\n      pop\n        /* \"#utility.yul\":7382:7459   */\n      swap2\n      swap1\n      pop\n      jump\t// out\n        /* \"#utility.yul\":7465:7772   */\n    tag_133:\n        /* \"#utility.yul\":7533:7534   */\n      0x00\n        /* \"#utility.yul\":7543:7656   */\n    tag_202:\n        /* \"#utility.yul\":7557:7563   */\n      dup4\n        /* \"#utility.yul\":7554:7555   */\n      dup2\n        /* \"#utility.yul\":7551:7564   */\n      lt\n        /* \"#utility.yul\":7543:7656   */\n      iszero\n      tag_204\n      jumpi\n        /* \"#utility.yul\":7642:7643   */\n      dup1\n        /* \"#utility.yul\":7637:7640   */\n      dup3\n        /* \"#utility.yul\":7633:7644   */\n      add\n        /* \"#utility.yul\":7627:7645   */\n      mload\n        /* \"#utility.yul\":7623:7624   */\n      dup2\n        /* \"#utility.yul\":7618:7621   */\n      dup5\n        /* \"#utility.yul\":7614:7625   */\n      add\n        /* \"#utility.yul\":7607:7646   */\n      mstore\n        /* \"#utility.yul\":7579:7581   */\n      0x20\n        /* \"#utility.yul\":7576:7577   */\n      dup2\n        /* \"#utility.yul\":7572:7582   */\n      add\n        /* \"#utility.yul\":7567:7582   */\n      swap1\n      pop\n        /* \"#utility.yul\":7543:7656   */\n      jump(tag_202)\n    tag_204:\n        /* \"#utility.yul\":7674:7680   */\n      dup4\n        /* \"#utility.yul\":7671:7672   */\n      dup2\n        /* \"#utility.yul\":7668:7681   */\n      gt\n        /* \"#utility.yul\":7665:7766   */\n      iszero\n      tag_205\n      jumpi\n        /* \"#utility.yul\":7754:7755   */\n      0x00\n        /* \"#utility.yul\":7745:7751   */\n      dup5\n        /* \"#utility.yul\":7740:7743   */\n      dup5\n        /* \"#utility.yul\":7736:7752   */\n      add\n        /* \"#utility.yul\":7729:7756   */\n      mstore\n        /* \"#utility.yul\":7665:7766   */\n    tag_205:\n        /* \"#utility.yul\":7514:7772   */\n      pop\n        /* \"#utility.yul\":7465:7772   */\n      pop\n      pop\n      pop\n      jump\t// out\n        /* \"#utility.yul\":7778:8098   */\n    tag_103:\n        /* \"#utility.yul\":7822:7828   */\n      0x00\n        /* \"#utility.yul\":7859:7860   */\n      0x02\n        /* \"#utility.yul\":7853:7857   */\n      dup3\n        /* \"#utility.yul\":7849:7861   */\n      div\n        /* \"#utility.yul\":7839:7861   */\n      swap1\n      pop\n        /* \"#utility.yul\":7906:7907   */\n      0x01\n        /* \"#utility.yul\":7900:7904   */\n      dup3\n        /* \"#utility.yul\":7896:7908   */\n      and\n        /* \"#utility.yul\":7927:7945   */\n      dup1\n        /* \"#utility.yul\":7917:7998   */\n      tag_207\n      jumpi\n        /* \"#utility.yul\":7983:7987   */\n      0x7f\n        /* \"#utility.yul\":7975:7981   */\n      dup3\n        /* \"#utility.yul\":7971:7988   */\n      and\n        /* \"#utility.yul\":7961:7988   */\n      swap2\n      pop\n        /* \"#utility.yul\":7917:7998   */\n    tag_207:\n        /* \"#utility.yul\":8045:8047   */\n      0x20\n        /* \"#utility.yul\":8037:8043   */\n      dup3\n        /* \"#utility.yul\":8034:8048   */\n      lt\n        /* \"#utility.yul\":8014:8032   */\n      dup2\n        /* \"#utility.yul\":8011:8049   */\n      eq\n        /* \"#utility.yul\":8008:8092   */\n      iszero\n      tag_208\n      jumpi\n        /* \"#utility.yul\":8064:8082   */\n      tag_209\n      tag_210\n      jump\t// in\n    tag_209:\n        /* \"#utility.yul\":8008:8092   */\n    tag_208:\n        /* \"#utility.yul\":7829:8098   */\n      pop\n        /* \"#utility.yul\":7778:8098   */\n      swap2\n      swap1\n      pop\n      jump\t// out\n        /* \"#utility.yul\":8104:8284   */\n    tag_210:\n        /* \"#utility.yul\":8152:8229   */\n      0x4e487b7100000000000000000000000000000000000000000000000000000000\n        /* \"#utility.yul\":8149:8150   */\n      0x00\n        /* \"#utility.yul\":8142:8230   */\n      mstore\n        /* \"#utility.yul\":8249:8253   */\n      0x22\n        /* \"#utility.yul\":8246:8247   */\n      0x04\n        /* \"#utility.yul\":8239:8254   */\n      mstore\n        /* \"#utility.yul\":8273:8277   */\n      0x24\n        /* \"#utility.yul\":8270:8271   */\n      0x00\n        /* \"#utility.yul\":8263:8278   */\n      revert\n        /* \"#utility.yul\":8413:8530   */\n    tag_116:\n        /* \"#utility.yul\":8522:8523   */\n      0x00\n        /* \"#utility.yul\":8519:8520   */\n      dup1\n        /* \"#utility.yul\":8512:8524   */\n      revert\n        /* \"#utility.yul\":8536:8638   */\n    tag_135:\n        /* \"#utility.yul\":8577:8583   */\n      0x00\n        /* \"#utility.yul\":8628:8630   */\n      0x1f\n        /* \"#utility.yul\":8624:8631   */\n      not\n        /* \"#utility.yul\":8619:8621   */\n      0x1f\n        /* \"#utility.yul\":8612:8617   */\n      dup4\n        /* \"#utility.yul\":8608:8622   */\n      add\n        /* \"#utility.yul\":8604:8632   */\n      and\n        /* \"#utility.yul\":8594:8632   */\n      swap1\n      pop\n        /* \"#utility.yul\":8536:8638   */\n      swap2\n      swap1\n      pop\n      jump\t// out\n        /* \"#utility.yul\":8644:8826   */\n    tag_152:\n        /* \"#utility.yul\":8784:8818   */\n      0x4e6f20706f74732076616c6964617220692064656e6567617220616c686f7261\n        /* \"#utility.yul\":8780:8781   */\n      0x00\n        /* \"#utility.yul\":8772:8778   */\n      dup3\n        /* \"#utility.yul\":8768:8782   */\n      add\n        /* \"#utility.yul\":8761:8819   */\n      mstore\n        /* \"#utility.yul\":8644:8826   */\n      pop\n      jump\t// out\n        /* \"#utility.yul\":8832:9060   */\n    tag_157:\n        /* \"#utility.yul\":8972:9006   */\n      0x456c2070726f70696574617269206e6f20706f742076616c6964617220656c20\n        /* \"#utility.yul\":8968:8969   */\n      0x00\n        /* \"#utility.yul\":8960:8966   */\n      dup3\n        /* \"#utility.yul\":8956:8970   */\n      add\n        /* \"#utility.yul\":8949:9007   */\n      mstore\n        /* \"#utility.yul\":9041:9052   */\n      0x7365752061737365740000000000000000000000000000000000000000000000\n        /* \"#utility.yul\":9036:9038   */\n      0x20\n        /* \"#utility.yul\":9028:9034   */\n      dup3\n        /* \"#utility.yul\":9024:9039   */\n      add\n        /* \"#utility.yul\":9017:9053   */\n      mstore\n        /* \"#utility.yul\":8832:9060   */\n      pop\n      jump\t// out\n        /* \"#utility.yul\":9066:9233   */\n    tag_162:\n        /* \"#utility.yul\":9206:9225   */\n      0x56616c696461646f722072657065746974000000000000000000000000000000\n        /* \"#utility.yul\":9202:9203   */\n      0x00\n        /* \"#utility.yul\":9194:9200   */\n      dup3\n        /* \"#utility.yul\":9190:9204   */\n      add\n        /* \"#utility.yul\":9183:9226   */\n      mstore\n        /* \"#utility.yul\":9066:9233   */\n      pop\n      jump\t// out\n        /* \"#utility.yul\":9239:9406   */\n    tag_167:\n        /* \"#utility.yul\":9379:9398   */\n      0x44656e656761646f722072657065746974000000000000000000000000000000\n        /* \"#utility.yul\":9375:9376   */\n      0x00\n        /* \"#utility.yul\":9367:9373   */\n      dup3\n        /* \"#utility.yul\":9363:9377   */\n      add\n        /* \"#utility.yul\":9356:9399   */\n      mstore\n        /* \"#utility.yul\":9239:9406   */\n      pop\n      jump\t// out\n        /* \"#utility.yul\":9412:9534   */\n    tag_112:\n        /* \"#utility.yul\":9485:9509   */\n      tag_221\n        /* \"#utility.yul\":9503:9508   */\n      dup2\n        /* \"#utility.yul\":9485:9509   */\n      tag_121\n      jump\t// in\n    tag_221:\n        /* \"#utility.yul\":9478:9483   */\n      dup2\n        /* \"#utility.yul\":9475:9510   */\n      eq\n        /* \"#utility.yul\":9465:9528   */\n      tag_222\n      jumpi\n        /* \"#utility.yul\":9524:9525   */\n      0x00\n        /* \"#utility.yul\":9521:9522   */\n      dup1\n        /* \"#utility.yul\":9514:9526   */\n      revert\n        /* \"#utility.yul\":9465:9528   */\n    tag_222:\n        /* \"#utility.yul\":9412:9534   */\n      pop\n      jump\t// out\n\n    auxdata: 0xa264697066735822122072192f316ecbb2d1a46d4731bb3cc3dbc6775c628c8e14625126a99a0ae7988764736f6c63430008070033\n}\n",
				"bytecode": {
					"linkReferences": {},
					"object": "60806040523480156200001157600080fd5b506040516200198c3803806200198c83398181016040528101906200003791906200024e565b806000806101000a81548173ffffffffffffffffffffffffffffffffffffffff021916908373ffffffffffffffffffffffffffffffffffffffff16021790555081600190805190602001906200008f92919062000109565b5060008054906101000a900473ffffffffffffffffffffffffffffffffffffffff1673ffffffffffffffffffffffffffffffffffffffff167f3d6aba6def46bd8784b0b6505c24d0aa59cd9316e6c5db593d3d8470797d7a3e6001604051620000f9919062000340565b60405180910390a250506200055c565b828054620001179062000453565b90600052602060002090601f0160209004810192826200013b576000855562000187565b82601f106200015657805160ff191683800117855562000187565b8280016001018555821562000187579182015b828111156200018657825182559160200191906001019062000169565b5b5090506200019691906200019a565b5090565b5b80821115620001b55760008160009055506001016200019b565b5090565b6000620001d0620001ca846200038d565b62000364565b905082815260208101848484011115620001ef57620001ee62000522565b5b620001fc8482856200041d565b509392505050565b600081519050620002158162000542565b92915050565b600082601f8301126200023357620002326200051d565b5b815162000245848260208601620001b9565b91505092915050565b600080604083850312156200026857620002676200052c565b5b600083015167ffffffffffffffff81111562000289576200028862000527565b5b62000297858286016200021b565b9250506020620002aa8582860162000204565b9150509250929050565b60008154620002c38162000453565b620002cf8186620003d8565b94506001821660008114620002ed5760018114620003005762000337565b60ff198316865260208601935062000337565b6200030b85620003c3565b60005b838110156200032f578154818901526001820191506020810190506200030e565b808801955050505b50505092915050565b600060208201905081810360008301526200035c8184620002b4565b905092915050565b60006200037062000383565b90506200037e828262000489565b919050565b6000604051905090565b600067ffffffffffffffff821115620003ab57620003aa620004ee565b5b620003b68262000531565b9050602081019050919050565b60008190508160005260206000209050919050565b600082825260208201905092915050565b6000620003f682620003fd565b9050919050565b600073ffffffffffffffffffffffffffffffffffffffff82169050919050565b60005b838110156200043d57808201518184015260208101905062000420565b838111156200044d576000848401525b50505050565b600060028204905060018216806200046c57607f821691505b60208210811415620004835762000482620004bf565b5b50919050565b620004948262000531565b810181811067ffffffffffffffff82111715620004b657620004b5620004ee565b5b80604052505050565b7f4e487b7100000000000000000000000000000000000000000000000000000000600052602260045260246000fd5b7f4e487b7100000000000000000000000000000000000000000000000000000000600052604160045260246000fd5b600080fd5b600080fd5b600080fd5b600080fd5b6000601f19601f8301169050919050565b6200054d81620003e9565b81146200055957600080fd5b50565b611420806200056c6000396000f3fe608060405234801561001057600080fd5b50600436106100a95760003560e01c80636901f668116100715780636901f6681461012c578063893d20e814610136578063990ec12b14610154578063b794cc2f14610172578063c4374575146101a2578063cef2320c146101d2576100a9565b8063034c92c6146100ae578063207c64fb146100cc5780635836e0b5146100e857806358fe7a34146100f25780635d8ab6e71461010e575b600080fd5b6100b66101f0565b6040516100c391906110d1565b60405180910390f35b6100e660048036038101906100e19190610f32565b610214565b005b6100f06104ca565b005b61010c60048036038101906101079190610f32565b61077f565b005b610116610a35565b60405161012391906111cb565b60405180910390f35b610134610a42565b005b61013e610cf7565b60405161014b91906110d1565b60405180910390f35b61015c610d20565b60405161016991906111cb565b60405180910390f35b61018c60048036038101906101879190610f32565b610d2d565b60405161019991906110ec565b60405180910390f35b6101bc60048036038101906101b79190610f32565b610ddc565b6040516101c991906110ec565b60405180910390f35b6101da610e8b565b6040516101e79190611107565b60405180910390f35b60008054906101000a900473ffffffffffffffffffffffffffffffffffffffff1681565b8073ffffffffffffffffffffffffffffffffffffffff1660008054906101000a900473ffffffffffffffffffffffffffffffffffffffff1673ffffffffffffffffffffffffffffffffffffffff1614156102a3576040517f08c379a000000000000000000000000000000000000000000000000000000000815260040161029a9061116b565b60405180910390fd5b600460008273ffffffffffffffffffffffffffffffffffffffff1673ffffffffffffffffffffffffffffffffffffffff16815260200190815260200160002060009054906101000a900460ff1615610330576040517f08c379a00000000000000000000000000000000000000000000000000000000081526004016103279061118b565b60405180910390fd5b600560008273ffffffffffffffffffffffffffffffffffffffff1673ffffffffffffffffffffffffffffffffffffffff16815260200190815260200160002060009054906101000a900460ff16156103bd576040517f08c379a00000000000000000000000000000000000000000000000000000000081526004016103b49061114b565b60405180910390fd5b6002819080600181540180825580915050600190039060005260206000200160009091909190916101000a81548173ffffffffffffffffffffffffffffffffffffffff021916908373ffffffffffffffffffffffffffffffffffffffff1602179055506001600460008373ffffffffffffffffffffffffffffffffffffffff1673ffffffffffffffffffffffffffffffffffffffff16815260200190815260200160002060006101000a81548160ff0219169083151502179055508073ffffffffffffffffffffffffffffffffffffffff167f57d77eb32e87e8c65c7cec1df5b0e8a8d5c4eae1b40c7246e7668ed702dd247a60016040516104bf9190611129565b60405180910390a250565b3373ffffffffffffffffffffffffffffffffffffffff1660008054906101000a900473ffffffffffffffffffffffffffffffffffffffff1673ffffffffffffffffffffffffffffffffffffffff161415610559576040517f08c379a00000000000000000000000000000000000000000000000000000000081526004016105509061116b565b60405180910390fd5b600560003373ffffffffffffffffffffffffffffffffffffffff1673ffffffffffffffffffffffffffffffffffffffff16815260200190815260200160002060009054906101000a900460ff16156105e6576040517f08c379a00000000000000000000000000000000000000000000000000000000081526004016105dd906111ab565b60405180910390fd5b600460003373ffffffffffffffffffffffffffffffffffffffff1673ffffffffffffffffffffffffffffffffffffffff16815260200190815260200160002060009054906101000a900460ff1615610673576040517f08c379a000000000000000000000000000000000000000000000000000000000815260040161066a9061114b565b60405180910390fd5b6003339080600181540180825580915050600190039060005260206000200160009091909190916101000a81548173ffffffffffffffffffffffffffffffffffffffff021916908373ffffffffffffffffffffffffffffffffffffffff1602179055506001600560003373ffffffffffffffffffffffffffffffffffffffff1673ffffffffffffffffffffffffffffffffffffffff16815260200190815260200160002060006101000a81548160ff0219169083151502179055503373ffffffffffffffffffffffffffffffffffffffff167f9036bc06ad4a578f0132d89ba4adc07b9772275526730acc38d7e4b4c11872a360016040516107759190611129565b60405180910390a2565b8073ffffffffffffffffffffffffffffffffffffffff1660008054906101000a900473ffffffffffffffffffffffffffffffffffffffff1673ffffffffffffffffffffffffffffffffffffffff16141561080e576040517f08c379a00000000000000000000000000000000000000000000000000000000081526004016108059061116b565b60405180910390fd5b600560008273ffffffffffffffffffffffffffffffffffffffff1673ffffffffffffffffffffffffffffffffffffffff16815260200190815260200160002060009054906101000a900460ff161561089b576040517f08c379a0000000000000000000000000000000000000000000000000000000008152600401610892906111ab565b60405180910390fd5b600460008273ffffffffffffffffffffffffffffffffffffffff1673ffffffffffffffffffffffffffffffffffffffff16815260200190815260200160002060009054906101000a900460ff1615610928576040517f08c379a000000000000000000000000000000000000000000000000000000000815260040161091f9061114b565b60405180910390fd5b6003819080600181540180825580915050600190039060005260206000200160009091909190916101000a81548173ffffffffffffffffffffffffffffffffffffffff021916908373ffffffffffffffffffffffffffffffffffffffff1602179055506001600560008373ffffffffffffffffffffffffffffffffffffffff1673ffffffffffffffffffffffffffffffffffffffff16815260200190815260200160002060006101000a81548160ff0219169083151502179055508073ffffffffffffffffffffffffffffffffffffffff167f9036bc06ad4a578f0132d89ba4adc07b9772275526730acc38d7e4b4c11872a36001604051610a2a9190611129565b60405180910390a250565b6000600380549050905090565b3373ffffffffffffffffffffffffffffffffffffffff1660008054906101000a900473ffffffffffffffffffffffffffffffffffffffff1673ffffffffffffffffffffffffffffffffffffffff161415610ad1576040517f08c379a0000000000000000000000000000000000000000000000000000000008152600401610ac89061116b565b60405180910390fd5b600460003373ffffffffffffffffffffffffffffffffffffffff1673ffffffffffffffffffffffffffffffffffffffff16815260200190815260200160002060009054906101000a900460ff1615610b5e576040517f08c379a0000000000000000000000000000000000000000000000000000000008152600401610b559061118b565b60405180910390fd5b600560003373ffffffffffffffffffffffffffffffffffffffff1673ffffffffffffffffffffffffffffffffffffffff16815260200190815260200160002060009054906101000a900460ff1615610beb576040517f08c379a0000000000000000000000000000000000000000000000000000000008152600401610be29061114b565b60405180910390fd5b6002339080600181540180825580915050600190039060005260206000200160009091909190916101000a81548173ffffffffffffffffffffffffffffffffffffffff021916908373ffffffffffffffffffffffffffffffffffffffff1602179055506001600460003373ffffffffffffffffffffffffffffffffffffffff1673ffffffffffffffffffffffffffffffffffffffff16815260200190815260200160002060006101000a81548160ff0219169083151502179055503373ffffffffffffffffffffffffffffffffffffffff167f57d77eb32e87e8c65c7cec1df5b0e8a8d5c4eae1b40c7246e7668ed702dd247a6001604051610ced9190611129565b60405180910390a2565b60008060009054906101000a900473ffffffffffffffffffffffffffffffffffffffff16905090565b6000600280549050905090565b60008173ffffffffffffffffffffffffffffffffffffffff1660008054906101000a900473ffffffffffffffffffffffffffffffffffffffff1673ffffffffffffffffffffffffffffffffffffffff161415610d8857600080fd5b600560008373ffffffffffffffffffffffffffffffffffffffff1673ffffffffffffffffffffffffffffffffffffffff16815260200190815260200160002060009054906101000a900460ff169050919050565b60008173ffffffffffffffffffffffffffffffffffffffff1660008054906101000a900473ffffffffffffffffffffffffffffffffffffffff1673ffffffffffffffffffffffffffffffffffffffff161415610e3757600080fd5b600460008373ffffffffffffffffffffffffffffffffffffffff1673ffffffffffffffffffffffffffffffffffffffff16815260200190815260200160002060009054906101000a900460ff169050919050565b606060018054610e9a90611292565b80601f0160208091040260200160405190810160405280929190818152602001828054610ec690611292565b8015610f135780601f10610ee857610100808354040283529160200191610f13565b820191906000526020600020905b815481529060010190602001808311610ef657829003601f168201915b5050505050905090565b600081359050610f2c816113d3565b92915050565b600060208284031215610f4857610f476112f3565b5b6000610f5684828501610f1d565b91505092915050565b610f6881611217565b82525050565b610f7781611229565b82525050565b6000610f88826111fb565b610f928185611206565b9350610fa281856020860161125f565b610fab816112f8565b840191505092915050565b60008154610fc381611292565b610fcd8186611206565b94506001821660008114610fe85760018114610ffa5761102d565b60ff198316865260208601935061102d565b611003856111e6565b60005b8381101561102557815481890152600182019150602081019050611006565b808801955050505b50505092915050565b6000611043602083611206565b915061104e82611309565b602082019050919050565b6000611066602983611206565b915061107182611332565b604082019050919050565b6000611089601183611206565b915061109482611381565b602082019050919050565b60006110ac601183611206565b91506110b7826113aa565b602082019050919050565b6110cb81611255565b82525050565b60006020820190506110e66000830184610f5f565b92915050565b60006020820190506111016000830184610f6e565b92915050565b600060208201905081810360008301526111218184610f7d565b905092915050565b600060208201905081810360008301526111438184610fb6565b905092915050565b6000602082019050818103600083015261116481611036565b9050919050565b6000602082019050818103600083015261118481611059565b9050919050565b600060208201905081810360008301526111a48161107c565b9050919050565b600060208201905081810360008301526111c48161109f565b9050919050565b60006020820190506111e060008301846110c2565b92915050565b60008190508160005260206000209050919050565b600081519050919050565b600082825260208201905092915050565b600061122282611235565b9050919050565b60008115159050919050565b600073ffffffffffffffffffffffffffffffffffffffff82169050919050565b6000819050919050565b60005b8381101561127d578082015181840152602081019050611262565b8381111561128c576000848401525b50505050565b600060028204905060018216806112aa57607f821691505b602082108114156112be576112bd6112c4565b5b50919050565b7f4e487b7100000000000000000000000000000000000000000000000000000000600052602260045260246000fd5b600080fd5b6000601f19601f8301169050919050565b7f4e6f20706f74732076616c6964617220692064656e6567617220616c686f7261600082015250565b7f456c2070726f70696574617269206e6f20706f742076616c6964617220656c2060008201527f7365752061737365740000000000000000000000000000000000000000000000602082015250565b7f56616c696461646f722072657065746974000000000000000000000000000000600082015250565b7f44656e656761646f722072657065746974000000000000000000000000000000600082015250565b6113dc81611217565b81146113e757600080fd5b5056fea264697066735822122072192f316ecbb2d1a46d4731bb3cc3dbc6775c628c8e14625126a99a0ae7988764736f6c63430008070033",
					"opcodes": "PUSH1 0x80 PUSH1 0x40 MSTORE CALLVALUE DUP1 ISZERO PUSH3 0x11 JUMPI PUSH1 0x0 DUP1 REVERT JUMPDEST POP PUSH1 0x40 MLOAD PUSH3 0x198C CODESIZE SUB DUP1 PUSH3 0x198C DUP4 CODECOPY DUP2 DUP2 ADD PUSH1 0x40 MSTORE DUP2 ADD SWAP1 PUSH3 0x37 SWAP2 SWAP1 PUSH3 0x24E JUMP JUMPDEST DUP1 PUSH1 0x0 DUP1 PUSH2 0x100 EXP DUP2 SLOAD DUP2 PUSH20 0xFFFFFFFFFFFFFFFFFFFFFFFFFFFFFFFFFFFFFFFF MUL NOT AND SWAP1 DUP4 PUSH20 0xFFFFFFFFFFFFFFFFFFFFFFFFFFFFFFFFFFFFFFFF AND MUL OR SWAP1 SSTORE POP DUP2 PUSH1 0x1 SWAP1 DUP1 MLOAD SWAP1 PUSH1 0x20 ADD SWAP1 PUSH3 0x8F SWAP3 SWAP2 SWAP1 PUSH3 0x109 JUMP JUMPDEST POP PUSH1 0x0 DUP1 SLOAD SWAP1 PUSH2 0x100 EXP SWAP1 DIV PUSH20 0xFFFFFFFFFFFFFFFFFFFFFFFFFFFFFFFFFFFFFFFF AND PUSH20 0xFFFFFFFFFFFFFFFFFFFFFFFFFFFFFFFFFFFFFFFF AND PUSH32 0x3D6ABA6DEF46BD8784B0B6505C24D0AA59CD9316E6C5DB593D3D8470797D7A3E PUSH1 0x1 PUSH1 0x40 MLOAD PUSH3 0xF9 SWAP2 SWAP1 PUSH3 0x340 JUMP JUMPDEST PUSH1 0x40 MLOAD DUP1 SWAP2 SUB SWAP1 LOG2 POP POP PUSH3 0x55C JUMP JUMPDEST DUP3 DUP1 SLOAD PUSH3 0x117 SWAP1 PUSH3 0x453 JUMP JUMPDEST SWAP1 PUSH1 0x0 MSTORE PUSH1 0x20 PUSH1 0x0 KECCAK256 SWAP1 PUSH1 0x1F ADD PUSH1 0x20 SWAP1 DIV DUP2 ADD SWAP3 DUP3 PUSH3 0x13B JUMPI PUSH1 0x0 DUP6 SSTORE PUSH3 0x187 JUMP JUMPDEST DUP3 PUSH1 0x1F LT PUSH3 0x156 JUMPI DUP1 MLOAD PUSH1 0xFF NOT AND DUP4 DUP1 ADD OR DUP6 SSTORE PUSH3 0x187 JUMP JUMPDEST DUP3 DUP1 ADD PUSH1 0x1 ADD DUP6 SSTORE DUP3 ISZERO PUSH3 0x187 JUMPI SWAP2 DUP3 ADD JUMPDEST DUP3 DUP2 GT ISZERO PUSH3 0x186 JUMPI DUP3 MLOAD DUP3 SSTORE SWAP2 PUSH1 0x20 ADD SWAP2 SWAP1 PUSH1 0x1 ADD SWAP1 PUSH3 0x169 JUMP JUMPDEST JUMPDEST POP SWAP1 POP PUSH3 0x196 SWAP2 SWAP1 PUSH3 0x19A JUMP JUMPDEST POP SWAP1 JUMP JUMPDEST JUMPDEST DUP1 DUP3 GT ISZERO PUSH3 0x1B5 JUMPI PUSH1 0x0 DUP2 PUSH1 0x0 SWAP1 SSTORE POP PUSH1 0x1 ADD PUSH3 0x19B JUMP JUMPDEST POP SWAP1 JUMP JUMPDEST PUSH1 0x0 PUSH3 0x1D0 PUSH3 0x1CA DUP5 PUSH3 0x38D JUMP JUMPDEST PUSH3 0x364 JUMP JUMPDEST SWAP1 POP DUP3 DUP2 MSTORE PUSH1 0x20 DUP2 ADD DUP5 DUP5 DUP5 ADD GT ISZERO PUSH3 0x1EF JUMPI PUSH3 0x1EE PUSH3 0x522 JUMP JUMPDEST JUMPDEST PUSH3 0x1FC DUP5 DUP3 DUP6 PUSH3 0x41D JUMP JUMPDEST POP SWAP4 SWAP3 POP POP POP JUMP JUMPDEST PUSH1 0x0 DUP2 MLOAD SWAP1 POP PUSH3 0x215 DUP2 PUSH3 0x542 JUMP JUMPDEST SWAP3 SWAP2 POP POP JUMP JUMPDEST PUSH1 0x0 DUP3 PUSH1 0x1F DUP4 ADD SLT PUSH3 0x233 JUMPI PUSH3 0x232 PUSH3 0x51D JUMP JUMPDEST JUMPDEST DUP2 MLOAD PUSH3 0x245 DUP5 DUP3 PUSH1 0x20 DUP7 ADD PUSH3 0x1B9 JUMP JUMPDEST SWAP2 POP POP SWAP3 SWAP2 POP POP JUMP JUMPDEST PUSH1 0x0 DUP1 PUSH1 0x40 DUP4 DUP6 SUB SLT ISZERO PUSH3 0x268 JUMPI PUSH3 0x267 PUSH3 0x52C JUMP JUMPDEST JUMPDEST PUSH1 0x0 DUP4 ADD MLOAD PUSH8 0xFFFFFFFFFFFFFFFF DUP2 GT ISZERO PUSH3 0x289 JUMPI PUSH3 0x288 PUSH3 0x527 JUMP JUMPDEST JUMPDEST PUSH3 0x297 DUP6 DUP3 DUP7 ADD PUSH3 0x21B JUMP JUMPDEST SWAP3 POP POP PUSH1 0x20 PUSH3 0x2AA DUP6 DUP3 DUP7 ADD PUSH3 0x204 JUMP JUMPDEST SWAP2 POP POP SWAP3 POP SWAP3 SWAP1 POP JUMP JUMPDEST PUSH1 0x0 DUP2 SLOAD PUSH3 0x2C3 DUP2 PUSH3 0x453 JUMP JUMPDEST PUSH3 0x2CF DUP2 DUP7 PUSH3 0x3D8 JUMP JUMPDEST SWAP5 POP PUSH1 0x1 DUP3 AND PUSH1 0x0 DUP2 EQ PUSH3 0x2ED JUMPI PUSH1 0x1 DUP2 EQ PUSH3 0x300 JUMPI PUSH3 0x337 JUMP JUMPDEST PUSH1 0xFF NOT DUP4 AND DUP7 MSTORE PUSH1 0x20 DUP7 ADD SWAP4 POP PUSH3 0x337 JUMP JUMPDEST PUSH3 0x30B DUP6 PUSH3 0x3C3 JUMP JUMPDEST PUSH1 0x0 JUMPDEST DUP4 DUP2 LT ISZERO PUSH3 0x32F JUMPI DUP2 SLOAD DUP2 DUP10 ADD MSTORE PUSH1 0x1 DUP3 ADD SWAP2 POP PUSH1 0x20 DUP2 ADD SWAP1 POP PUSH3 0x30E JUMP JUMPDEST DUP1 DUP9 ADD SWAP6 POP POP POP JUMPDEST POP POP POP SWAP3 SWAP2 POP POP JUMP JUMPDEST PUSH1 0x0 PUSH1 0x20 DUP3 ADD SWAP1 POP DUP2 DUP2 SUB PUSH1 0x0 DUP4 ADD MSTORE PUSH3 0x35C DUP2 DUP5 PUSH3 0x2B4 JUMP JUMPDEST SWAP1 POP SWAP3 SWAP2 POP POP JUMP JUMPDEST PUSH1 0x0 PUSH3 0x370 PUSH3 0x383 JUMP JUMPDEST SWAP1 POP PUSH3 0x37E DUP3 DUP3 PUSH3 0x489 JUMP JUMPDEST SWAP2 SWAP1 POP JUMP JUMPDEST PUSH1 0x0 PUSH1 0x40 MLOAD SWAP1 POP SWAP1 JUMP JUMPDEST PUSH1 0x0 PUSH8 0xFFFFFFFFFFFFFFFF DUP3 GT ISZERO PUSH3 0x3AB JUMPI PUSH3 0x3AA PUSH3 0x4EE JUMP JUMPDEST JUMPDEST PUSH3 0x3B6 DUP3 PUSH3 0x531 JUMP JUMPDEST SWAP1 POP PUSH1 0x20 DUP2 ADD SWAP1 POP SWAP2 SWAP1 POP JUMP JUMPDEST PUSH1 0x0 DUP2 SWAP1 POP DUP2 PUSH1 0x0 MSTORE PUSH1 0x20 PUSH1 0x0 KECCAK256 SWAP1 POP SWAP2 SWAP1 POP JUMP JUMPDEST PUSH1 0x0 DUP3 DUP3 MSTORE PUSH1 0x20 DUP3 ADD SWAP1 POP SWAP3 SWAP2 POP POP JUMP JUMPDEST PUSH1 0x0 PUSH3 0x3F6 DUP3 PUSH3 0x3FD JUMP JUMPDEST SWAP1 POP SWAP2 SWAP1 POP JUMP JUMPDEST PUSH1 0x0 PUSH20 0xFFFFFFFFFFFFFFFFFFFFFFFFFFFFFFFFFFFFFFFF DUP3 AND SWAP1 POP SWAP2 SWAP1 POP JUMP JUMPDEST PUSH1 0x0 JUMPDEST DUP4 DUP2 LT ISZERO PUSH3 0x43D JUMPI DUP1 DUP3 ADD MLOAD DUP2 DUP5 ADD MSTORE PUSH1 0x20 DUP2 ADD SWAP1 POP PUSH3 0x420 JUMP JUMPDEST DUP4 DUP2 GT ISZERO PUSH3 0x44D JUMPI PUSH1 0x0 DUP5 DUP5 ADD MSTORE JUMPDEST POP POP POP POP JUMP JUMPDEST PUSH1 0x0 PUSH1 0x2 DUP3 DIV SWAP1 POP PUSH1 0x1 DUP3 AND DUP1 PUSH3 0x46C JUMPI PUSH1 0x7F DUP3 AND SWAP2 POP JUMPDEST PUSH1 0x20 DUP3 LT DUP2 EQ ISZERO PUSH3 0x483 JUMPI PUSH3 0x482 PUSH3 0x4BF JUMP JUMPDEST JUMPDEST POP SWAP2 SWAP1 POP JUMP JUMPDEST PUSH3 0x494 DUP3 PUSH3 0x531 JUMP JUMPDEST DUP2 ADD DUP2 DUP2 LT PUSH8 0xFFFFFFFFFFFFFFFF DUP3 GT OR ISZERO PUSH3 0x4B6 JUMPI PUSH3 0x4B5 PUSH3 0x4EE JUMP JUMPDEST JUMPDEST DUP1 PUSH1 0x40 MSTORE POP POP POP JUMP JUMPDEST PUSH32 0x4E487B7100000000000000000000000000000000000000000000000000000000 PUSH1 0x0 MSTORE PUSH1 0x22 PUSH1 0x4 MSTORE PUSH1 0x24 PUSH1 0x0 REVERT JUMPDEST PUSH32 0x4E487B7100000000000000000000000000000000000000000000000000000000 PUSH1 0x0 MSTORE PUSH1 0x41 PUSH1 0x4 MSTORE PUSH1 0x24 PUSH1 0x0 REVERT JUMPDEST PUSH1 0x0 DUP1 REVERT JUMPDEST PUSH1 0x0 DUP1 REVERT JUMPDEST PUSH1 0x0 DUP1 REVERT JUMPDEST PUSH1 0x0 DUP1 REVERT JUMPDEST PUSH1 0x0 PUSH1 0x1F NOT PUSH1 0x1F DUP4 ADD AND SWAP1 POP SWAP2 SWAP1 POP JUMP JUMPDEST PUSH3 0x54D DUP2 PUSH3 0x3E9 JUMP JUMPDEST DUP2 EQ PUSH3 0x559 JUMPI PUSH1 0x0 DUP1 REVERT JUMPDEST POP JUMP JUMPDEST PUSH2 0x1420 DUP1 PUSH3 0x56C PUSH1 0x0 CODECOPY PUSH1 0x0 RETURN INVALID PUSH1 0x80 PUSH1 0x40 MSTORE CALLVALUE DUP1 ISZERO PUSH2 0x10 JUMPI PUSH1 0x0 DUP1 REVERT JUMPDEST POP PUSH1 0x4 CALLDATASIZE LT PUSH2 0xA9 JUMPI PUSH1 0x0 CALLDATALOAD PUSH1 0xE0 SHR DUP1 PUSH4 0x6901F668 GT PUSH2 0x71 JUMPI DUP1 PUSH4 0x6901F668 EQ PUSH2 0x12C JUMPI DUP1 PUSH4 0x893D20E8 EQ PUSH2 0x136 JUMPI DUP1 PUSH4 0x990EC12B EQ PUSH2 0x154 JUMPI DUP1 PUSH4 0xB794CC2F EQ PUSH2 0x172 JUMPI DUP1 PUSH4 0xC4374575 EQ PUSH2 0x1A2 JUMPI DUP1 PUSH4 0xCEF2320C EQ PUSH2 0x1D2 JUMPI PUSH2 0xA9 JUMP JUMPDEST DUP1 PUSH4 0x34C92C6 EQ PUSH2 0xAE JUMPI DUP1 PUSH4 0x207C64FB EQ PUSH2 0xCC JUMPI DUP1 PUSH4 0x5836E0B5 EQ PUSH2 0xE8 JUMPI DUP1 PUSH4 0x58FE7A34 EQ PUSH2 0xF2 JUMPI DUP1 PUSH4 0x5D8AB6E7 EQ PUSH2 0x10E JUMPI JUMPDEST PUSH1 0x0 DUP1 REVERT JUMPDEST PUSH2 0xB6 PUSH2 0x1F0 JUMP JUMPDEST PUSH1 0x40 MLOAD PUSH2 0xC3 SWAP2 SWAP1 PUSH2 0x10D1 JUMP JUMPDEST PUSH1 0x40 MLOAD DUP1 SWAP2 SUB SWAP1 RETURN JUMPDEST PUSH2 0xE6 PUSH1 0x4 DUP1 CALLDATASIZE SUB DUP2 ADD SWAP1 PUSH2 0xE1 SWAP2 SWAP1 PUSH2 0xF32 JUMP JUMPDEST PUSH2 0x214 JUMP JUMPDEST STOP JUMPDEST PUSH2 0xF0 PUSH2 0x4CA JUMP JUMPDEST STOP JUMPDEST PUSH2 0x10C PUSH1 0x4 DUP1 CALLDATASIZE SUB DUP2 ADD SWAP1 PUSH2 0x107 SWAP2 SWAP1 PUSH2 0xF32 JUMP JUMPDEST PUSH2 0x77F JUMP JUMPDEST STOP JUMPDEST PUSH2 0x116 PUSH2 0xA35 JUMP JUMPDEST PUSH1 0x40 MLOAD PUSH2 0x123 SWAP2 SWAP1 PUSH2 0x11CB JUMP JUMPDEST PUSH1 0x40 MLOAD DUP1 SWAP2 SUB SWAP1 RETURN JUMPDEST PUSH2 0x134 PUSH2 0xA42 JUMP JUMPDEST STOP JUMPDEST PUSH2 0x13E PUSH2 0xCF7 JUMP JUMPDEST PUSH1 0x40 MLOAD PUSH2 0x14B SWAP2 SWAP1 PUSH2 0x10D1 JUMP JUMPDEST PUSH1 0x40 MLOAD DUP1 SWAP2 SUB SWAP1 RETURN JUMPDEST PUSH2 0x15C PUSH2 0xD20 JUMP JUMPDEST PUSH1 0x40 MLOAD PUSH2 0x169 SWAP2 SWAP1 PUSH2 0x11CB JUMP JUMPDEST PUSH1 0x40 MLOAD DUP1 SWAP2 SUB SWAP1 RETURN JUMPDEST PUSH2 0x18C PUSH1 0x4 DUP1 CALLDATASIZE SUB DUP2 ADD SWAP1 PUSH2 0x187 SWAP2 SWAP1 PUSH2 0xF32 JUMP JUMPDEST PUSH2 0xD2D JUMP JUMPDEST PUSH1 0x40 MLOAD PUSH2 0x199 SWAP2 SWAP1 PUSH2 0x10EC JUMP JUMPDEST PUSH1 0x40 MLOAD DUP1 SWAP2 SUB SWAP1 RETURN JUMPDEST PUSH2 0x1BC PUSH1 0x4 DUP1 CALLDATASIZE SUB DUP2 ADD SWAP1 PUSH2 0x1B7 SWAP2 SWAP1 PUSH2 0xF32 JUMP JUMPDEST PUSH2 0xDDC JUMP JUMPDEST PUSH1 0x40 MLOAD PUSH2 0x1C9 SWAP2 SWAP1 PUSH2 0x10EC JUMP JUMPDEST PUSH1 0x40 MLOAD DUP1 SWAP2 SUB SWAP1 RETURN JUMPDEST PUSH2 0x1DA PUSH2 0xE8B JUMP JUMPDEST PUSH1 0x40 MLOAD PUSH2 0x1E7 SWAP2 SWAP1 PUSH2 0x1107 JUMP JUMPDEST PUSH1 0x40 MLOAD DUP1 SWAP2 SUB SWAP1 RETURN JUMPDEST PUSH1 0x0 DUP1 SLOAD SWAP1 PUSH2 0x100 EXP SWAP1 DIV PUSH20 0xFFFFFFFFFFFFFFFFFFFFFFFFFFFFFFFFFFFFFFFF AND DUP2 JUMP JUMPDEST DUP1 PUSH20 0xFFFFFFFFFFFFFFFFFFFFFFFFFFFFFFFFFFFFFFFF AND PUSH1 0x0 DUP1 SLOAD SWAP1 PUSH2 0x100 EXP SWAP1 DIV PUSH20 0xFFFFFFFFFFFFFFFFFFFFFFFFFFFFFFFFFFFFFFFF AND PUSH20 0xFFFFFFFFFFFFFFFFFFFFFFFFFFFFFFFFFFFFFFFF AND EQ ISZERO PUSH2 0x2A3 JUMPI PUSH1 0x40 MLOAD PUSH32 0x8C379A000000000000000000000000000000000000000000000000000000000 DUP2 MSTORE PUSH1 0x4 ADD PUSH2 0x29A SWAP1 PUSH2 0x116B JUMP JUMPDEST PUSH1 0x40 MLOAD DUP1 SWAP2 SUB SWAP1 REVERT JUMPDEST PUSH1 0x4 PUSH1 0x0 DUP3 PUSH20 0xFFFFFFFFFFFFFFFFFFFFFFFFFFFFFFFFFFFFFFFF AND PUSH20 0xFFFFFFFFFFFFFFFFFFFFFFFFFFFFFFFFFFFFFFFF AND DUP2 MSTORE PUSH1 0x20 ADD SWAP1 DUP2 MSTORE PUSH1 0x20 ADD PUSH1 0x0 KECCAK256 PUSH1 0x0 SWAP1 SLOAD SWAP1 PUSH2 0x100 EXP SWAP1 DIV PUSH1 0xFF AND ISZERO PUSH2 0x330 JUMPI PUSH1 0x40 MLOAD PUSH32 0x8C379A000000000000000000000000000000000000000000000000000000000 DUP2 MSTORE PUSH1 0x4 ADD PUSH2 0x327 SWAP1 PUSH2 0x118B JUMP JUMPDEST PUSH1 0x40 MLOAD DUP1 SWAP2 SUB SWAP1 REVERT JUMPDEST PUSH1 0x5 PUSH1 0x0 DUP3 PUSH20 0xFFFFFFFFFFFFFFFFFFFFFFFFFFFFFFFFFFFFFFFF AND PUSH20 0xFFFFFFFFFFFFFFFFFFFFFFFFFFFFFFFFFFFFFFFF AND DUP2 MSTORE PUSH1 0x20 ADD SWAP1 DUP2 MSTORE PUSH1 0x20 ADD PUSH1 0x0 KECCAK256 PUSH1 0x0 SWAP1 SLOAD SWAP1 PUSH2 0x100 EXP SWAP1 DIV PUSH1 0xFF AND ISZERO PUSH2 0x3BD JUMPI PUSH1 0x40 MLOAD PUSH32 0x8C379A000000000000000000000000000000000000000000000000000000000 DUP2 MSTORE PUSH1 0x4 ADD PUSH2 0x3B4 SWAP1 PUSH2 0x114B JUMP JUMPDEST PUSH1 0x40 MLOAD DUP1 SWAP2 SUB SWAP1 REVERT JUMPDEST PUSH1 0x2 DUP2 SWAP1 DUP1 PUSH1 0x1 DUP2 SLOAD ADD DUP1 DUP3 SSTORE DUP1 SWAP2 POP POP PUSH1 0x1 SWAP1 SUB SWAP1 PUSH1 0x0 MSTORE PUSH1 0x20 PUSH1 0x0 KECCAK256 ADD PUSH1 0x0 SWAP1 SWAP2 SWAP1 SWAP2 SWAP1 SWAP2 PUSH2 0x100 EXP DUP2 SLOAD DUP2 PUSH20 0xFFFFFFFFFFFFFFFFFFFFFFFFFFFFFFFFFFFFFFFF MUL NOT AND SWAP1 DUP4 PUSH20 0xFFFFFFFFFFFFFFFFFFFFFFFFFFFFFFFFFFFFFFFF AND MUL OR SWAP1 SSTORE POP PUSH1 0x1 PUSH1 0x4 PUSH1 0x0 DUP4 PUSH20 0xFFFFFFFFFFFFFFFFFFFFFFFFFFFFFFFFFFFFFFFF AND PUSH20 0xFFFFFFFFFFFFFFFFFFFFFFFFFFFFFFFFFFFFFFFF AND DUP2 MSTORE PUSH1 0x20 ADD SWAP1 DUP2 MSTORE PUSH1 0x20 ADD PUSH1 0x0 KECCAK256 PUSH1 0x0 PUSH2 0x100 EXP DUP2 SLOAD DUP2 PUSH1 0xFF MUL NOT AND SWAP1 DUP4 ISZERO ISZERO MUL OR SWAP1 SSTORE POP DUP1 PUSH20 0xFFFFFFFFFFFFFFFFFFFFFFFFFFFFFFFFFFFFFFFF AND PUSH32 0x57D77EB32E87E8C65C7CEC1DF5B0E8A8D5C4EAE1B40C7246E7668ED702DD247A PUSH1 0x1 PUSH1 0x40 MLOAD PUSH2 0x4BF SWAP2 SWAP1 PUSH2 0x1129 JUMP JUMPDEST PUSH1 0x40 MLOAD DUP1 SWAP2 SUB SWAP1 LOG2 POP JUMP JUMPDEST CALLER PUSH20 0xFFFFFFFFFFFFFFFFFFFFFFFFFFFFFFFFFFFFFFFF AND PUSH1 0x0 DUP1 SLOAD SWAP1 PUSH2 0x100 EXP SWAP1 DIV PUSH20 0xFFFFFFFFFFFFFFFFFFFFFFFFFFFFFFFFFFFFFFFF AND PUSH20 0xFFFFFFFFFFFFFFFFFFFFFFFFFFFFFFFFFFFFFFFF AND EQ ISZERO PUSH2 0x559 JUMPI PUSH1 0x40 MLOAD PUSH32 0x8C379A000000000000000000000000000000000000000000000000000000000 DUP2 MSTORE PUSH1 0x4 ADD PUSH2 0x550 SWAP1 PUSH2 0x116B JUMP JUMPDEST PUSH1 0x40 MLOAD DUP1 SWAP2 SUB SWAP1 REVERT JUMPDEST PUSH1 0x5 PUSH1 0x0 CALLER PUSH20 0xFFFFFFFFFFFFFFFFFFFFFFFFFFFFFFFFFFFFFFFF AND PUSH20 0xFFFFFFFFFFFFFFFFFFFFFFFFFFFFFFFFFFFFFFFF AND DUP2 MSTORE PUSH1 0x20 ADD SWAP1 DUP2 MSTORE PUSH1 0x20 ADD PUSH1 0x0 KECCAK256 PUSH1 0x0 SWAP1 SLOAD SWAP1 PUSH2 0x100 EXP SWAP1 DIV PUSH1 0xFF AND ISZERO PUSH2 0x5E6 JUMPI PUSH1 0x40 MLOAD PUSH32 0x8C379A000000000000000000000000000000000000000000000000000000000 DUP2 MSTORE PUSH1 0x4 ADD PUSH2 0x5DD SWAP1 PUSH2 0x11AB JUMP JUMPDEST PUSH1 0x40 MLOAD DUP1 SWAP2 SUB SWAP1 REVERT JUMPDEST PUSH1 0x4 PUSH1 0x0 CALLER PUSH20 0xFFFFFFFFFFFFFFFFFFFFFFFFFFFFFFFFFFFFFFFF AND PUSH20 0xFFFFFFFFFFFFFFFFFFFFFFFFFFFFFFFFFFFFFFFF AND DUP2 MSTORE PUSH1 0x20 ADD SWAP1 DUP2 MSTORE PUSH1 0x20 ADD PUSH1 0x0 KECCAK256 PUSH1 0x0 SWAP1 SLOAD SWAP1 PUSH2 0x100 EXP SWAP1 DIV PUSH1 0xFF AND ISZERO PUSH2 0x673 JUMPI PUSH1 0x40 MLOAD PUSH32 0x8C379A000000000000000000000000000000000000000000000000000000000 DUP2 MSTORE PUSH1 0x4 ADD PUSH2 0x66A SWAP1 PUSH2 0x114B JUMP JUMPDEST PUSH1 0x40 MLOAD DUP1 SWAP2 SUB SWAP1 REVERT JUMPDEST PUSH1 0x3 CALLER SWAP1 DUP1 PUSH1 0x1 DUP2 SLOAD ADD DUP1 DUP3 SSTORE DUP1 SWAP2 POP POP PUSH1 0x1 SWAP1 SUB SWAP1 PUSH1 0x0 MSTORE PUSH1 0x20 PUSH1 0x0 KECCAK256 ADD PUSH1 0x0 SWAP1 SWAP2 SWAP1 SWAP2 SWAP1 SWAP2 PUSH2 0x100 EXP DUP2 SLOAD DUP2 PUSH20 0xFFFFFFFFFFFFFFFFFFFFFFFFFFFFFFFFFFFFFFFF MUL NOT AND SWAP1 DUP4 PUSH20 0xFFFFFFFFFFFFFFFFFFFFFFFFFFFFFFFFFFFFFFFF AND MUL OR SWAP1 SSTORE POP PUSH1 0x1 PUSH1 0x5 PUSH1 0x0 CALLER PUSH20 0xFFFFFFFFFFFFFFFFFFFFFFFFFFFFFFFFFFFFFFFF AND PUSH20 0xFFFFFFFFFFFFFFFFFFFFFFFFFFFFFFFFFFFFFFFF AND DUP2 MSTORE PUSH1 0x20 ADD SWAP1 DUP2 MSTORE PUSH1 0x20 ADD PUSH1 0x0 KECCAK256 PUSH1 0x0 PUSH2 0x100 EXP DUP2 SLOAD DUP2 PUSH1 0xFF MUL NOT AND SWAP1 DUP4 ISZERO ISZERO MUL OR SWAP1 SSTORE POP CALLER PUSH20 0xFFFFFFFFFFFFFFFFFFFFFFFFFFFFFFFFFFFFFFFF AND PUSH32 0x9036BC06AD4A578F0132D89BA4ADC07B9772275526730ACC38D7E4B4C11872A3 PUSH1 0x1 PUSH1 0x40 MLOAD PUSH2 0x775 SWAP2 SWAP1 PUSH2 0x1129 JUMP JUMPDEST PUSH1 0x40 MLOAD DUP1 SWAP2 SUB SWAP1 LOG2 JUMP JUMPDEST DUP1 PUSH20 0xFFFFFFFFFFFFFFFFFFFFFFFFFFFFFFFFFFFFFFFF AND PUSH1 0x0 DUP1 SLOAD SWAP1 PUSH2 0x100 EXP SWAP1 DIV PUSH20 0xFFFFFFFFFFFFFFFFFFFFFFFFFFFFFFFFFFFFFFFF AND PUSH20 0xFFFFFFFFFFFFFFFFFFFFFFFFFFFFFFFFFFFFFFFF AND EQ ISZERO PUSH2 0x80E JUMPI PUSH1 0x40 MLOAD PUSH32 0x8C379A000000000000000000000000000000000000000000000000000000000 DUP2 MSTORE PUSH1 0x4 ADD PUSH2 0x805 SWAP1 PUSH2 0x116B JUMP JUMPDEST PUSH1 0x40 MLOAD DUP1 SWAP2 SUB SWAP1 REVERT JUMPDEST PUSH1 0x5 PUSH1 0x0 DUP3 PUSH20 0xFFFFFFFFFFFFFFFFFFFFFFFFFFFFFFFFFFFFFFFF AND PUSH20 0xFFFFFFFFFFFFFFFFFFFFFFFFFFFFFFFFFFFFFFFF AND DUP2 MSTORE PUSH1 0x20 ADD SWAP1 DUP2 MSTORE PUSH1 0x20 ADD PUSH1 0x0 KECCAK256 PUSH1 0x0 SWAP1 SLOAD SWAP1 PUSH2 0x100 EXP SWAP1 DIV PUSH1 0xFF AND ISZERO PUSH2 0x89B JUMPI PUSH1 0x40 MLOAD PUSH32 0x8C379A000000000000000000000000000000000000000000000000000000000 DUP2 MSTORE PUSH1 0x4 ADD PUSH2 0x892 SWAP1 PUSH2 0x11AB JUMP JUMPDEST PUSH1 0x40 MLOAD DUP1 SWAP2 SUB SWAP1 REVERT JUMPDEST PUSH1 0x4 PUSH1 0x0 DUP3 PUSH20 0xFFFFFFFFFFFFFFFFFFFFFFFFFFFFFFFFFFFFFFFF AND PUSH20 0xFFFFFFFFFFFFFFFFFFFFFFFFFFFFFFFFFFFFFFFF AND DUP2 MSTORE PUSH1 0x20 ADD SWAP1 DUP2 MSTORE PUSH1 0x20 ADD PUSH1 0x0 KECCAK256 PUSH1 0x0 SWAP1 SLOAD SWAP1 PUSH2 0x100 EXP SWAP1 DIV PUSH1 0xFF AND ISZERO PUSH2 0x928 JUMPI PUSH1 0x40 MLOAD PUSH32 0x8C379A000000000000000000000000000000000000000000000000000000000 DUP2 MSTORE PUSH1 0x4 ADD PUSH2 0x91F SWAP1 PUSH2 0x114B JUMP JUMPDEST PUSH1 0x40 MLOAD DUP1 SWAP2 SUB SWAP1 REVERT JUMPDEST PUSH1 0x3 DUP2 SWAP1 DUP1 PUSH1 0x1 DUP2 SLOAD ADD DUP1 DUP3 SSTORE DUP1 SWAP2 POP POP PUSH1 0x1 SWAP1 SUB SWAP1 PUSH1 0x0 MSTORE PUSH1 0x20 PUSH1 0x0 KECCAK256 ADD PUSH1 0x0 SWAP1 SWAP2 SWAP1 SWAP2 SWAP1 SWAP2 PUSH2 0x100 EXP DUP2 SLOAD DUP2 PUSH20 0xFFFFFFFFFFFFFFFFFFFFFFFFFFFFFFFFFFFFFFFF MUL NOT AND SWAP1 DUP4 PUSH20 0xFFFFFFFFFFFFFFFFFFFFFFFFFFFFFFFFFFFFFFFF AND MUL OR SWAP1 SSTORE POP PUSH1 0x1 PUSH1 0x5 PUSH1 0x0 DUP4 PUSH20 0xFFFFFFFFFFFFFFFFFFFFFFFFFFFFFFFFFFFFFFFF AND PUSH20 0xFFFFFFFFFFFFFFFFFFFFFFFFFFFFFFFFFFFFFFFF AND DUP2 MSTORE PUSH1 0x20 ADD SWAP1 DUP2 MSTORE PUSH1 0x20 ADD PUSH1 0x0 KECCAK256 PUSH1 0x0 PUSH2 0x100 EXP DUP2 SLOAD DUP2 PUSH1 0xFF MUL NOT AND SWAP1 DUP4 ISZERO ISZERO MUL OR SWAP1 SSTORE POP DUP1 PUSH20 0xFFFFFFFFFFFFFFFFFFFFFFFFFFFFFFFFFFFFFFFF AND PUSH32 0x9036BC06AD4A578F0132D89BA4ADC07B9772275526730ACC38D7E4B4C11872A3 PUSH1 0x1 PUSH1 0x40 MLOAD PUSH2 0xA2A SWAP2 SWAP1 PUSH2 0x1129 JUMP JUMPDEST PUSH1 0x40 MLOAD DUP1 SWAP2 SUB SWAP1 LOG2 POP JUMP JUMPDEST PUSH1 0x0 PUSH1 0x3 DUP1 SLOAD SWAP1 POP SWAP1 POP SWAP1 JUMP JUMPDEST CALLER PUSH20 0xFFFFFFFFFFFFFFFFFFFFFFFFFFFFFFFFFFFFFFFF AND PUSH1 0x0 DUP1 SLOAD SWAP1 PUSH2 0x100 EXP SWAP1 DIV PUSH20 0xFFFFFFFFFFFFFFFFFFFFFFFFFFFFFFFFFFFFFFFF AND PUSH20 0xFFFFFFFFFFFFFFFFFFFFFFFFFFFFFFFFFFFFFFFF AND EQ ISZERO PUSH2 0xAD1 JUMPI PUSH1 0x40 MLOAD PUSH32 0x8C379A000000000000000000000000000000000000000000000000000000000 DUP2 MSTORE PUSH1 0x4 ADD PUSH2 0xAC8 SWAP1 PUSH2 0x116B JUMP JUMPDEST PUSH1 0x40 MLOAD DUP1 SWAP2 SUB SWAP1 REVERT JUMPDEST PUSH1 0x4 PUSH1 0x0 CALLER PUSH20 0xFFFFFFFFFFFFFFFFFFFFFFFFFFFFFFFFFFFFFFFF AND PUSH20 0xFFFFFFFFFFFFFFFFFFFFFFFFFFFFFFFFFFFFFFFF AND DUP2 MSTORE PUSH1 0x20 ADD SWAP1 DUP2 MSTORE PUSH1 0x20 ADD PUSH1 0x0 KECCAK256 PUSH1 0x0 SWAP1 SLOAD SWAP1 PUSH2 0x100 EXP SWAP1 DIV PUSH1 0xFF AND ISZERO PUSH2 0xB5E JUMPI PUSH1 0x40 MLOAD PUSH32 0x8C379A000000000000000000000000000000000000000000000000000000000 DUP2 MSTORE PUSH1 0x4 ADD PUSH2 0xB55 SWAP1 PUSH2 0x118B JUMP JUMPDEST PUSH1 0x40 MLOAD DUP1 SWAP2 SUB SWAP1 REVERT JUMPDEST PUSH1 0x5 PUSH1 0x0 CALLER PUSH20 0xFFFFFFFFFFFFFFFFFFFFFFFFFFFFFFFFFFFFFFFF AND PUSH20 0xFFFFFFFFFFFFFFFFFFFFFFFFFFFFFFFFFFFFFFFF AND DUP2 MSTORE PUSH1 0x20 ADD SWAP1 DUP2 MSTORE PUSH1 0x20 ADD PUSH1 0x0 KECCAK256 PUSH1 0x0 SWAP1 SLOAD SWAP1 PUSH2 0x100 EXP SWAP1 DIV PUSH1 0xFF AND ISZERO PUSH2 0xBEB JUMPI PUSH1 0x40 MLOAD PUSH32 0x8C379A000000000000000000000000000000000000000000000000000000000 DUP2 MSTORE PUSH1 0x4 ADD PUSH2 0xBE2 SWAP1 PUSH2 0x114B JUMP JUMPDEST PUSH1 0x40 MLOAD DUP1 SWAP2 SUB SWAP1 REVERT JUMPDEST PUSH1 0x2 CALLER SWAP1 DUP1 PUSH1 0x1 DUP2 SLOAD ADD DUP1 DUP3 SSTORE DUP1 SWAP2 POP POP PUSH1 0x1 SWAP1 SUB SWAP1 PUSH1 0x0 MSTORE PUSH1 0x20 PUSH1 0x0 KECCAK256 ADD PUSH1 0x0 SWAP1 SWAP2 SWAP1 SWAP2 SWAP1 SWAP2 PUSH2 0x100 EXP DUP2 SLOAD DUP2 PUSH20 0xFFFFFFFFFFFFFFFFFFFFFFFFFFFFFFFFFFFFFFFF MUL NOT AND SWAP1 DUP4 PUSH20 0xFFFFFFFFFFFFFFFFFFFFFFFFFFFFFFFFFFFFFFFF AND MUL OR SWAP1 SSTORE POP PUSH1 0x1 PUSH1 0x4 PUSH1 0x0 CALLER PUSH20 0xFFFFFFFFFFFFFFFFFFFFFFFFFFFFFFFFFFFFFFFF AND PUSH20 0xFFFFFFFFFFFFFFFFFFFFFFFFFFFFFFFFFFFFFFFF AND DUP2 MSTORE PUSH1 0x20 ADD SWAP1 DUP2 MSTORE PUSH1 0x20 ADD PUSH1 0x0 KECCAK256 PUSH1 0x0 PUSH2 0x100 EXP DUP2 SLOAD DUP2 PUSH1 0xFF MUL NOT AND SWAP1 DUP4 ISZERO ISZERO MUL OR SWAP1 SSTORE POP CALLER PUSH20 0xFFFFFFFFFFFFFFFFFFFFFFFFFFFFFFFFFFFFFFFF AND PUSH32 0x57D77EB32E87E8C65C7CEC1DF5B0E8A8D5C4EAE1B40C7246E7668ED702DD247A PUSH1 0x1 PUSH1 0x40 MLOAD PUSH2 0xCED SWAP2 SWAP1 PUSH2 0x1129 JUMP JUMPDEST PUSH1 0x40 MLOAD DUP1 SWAP2 SUB SWAP1 LOG2 JUMP JUMPDEST PUSH1 0x0 DUP1 PUSH1 0x0 SWAP1 SLOAD SWAP1 PUSH2 0x100 EXP SWAP1 DIV PUSH20 0xFFFFFFFFFFFFFFFFFFFFFFFFFFFFFFFFFFFFFFFF AND SWAP1 POP SWAP1 JUMP JUMPDEST PUSH1 0x0 PUSH1 0x2 DUP1 SLOAD SWAP1 POP SWAP1 POP SWAP1 JUMP JUMPDEST PUSH1 0x0 DUP2 PUSH20 0xFFFFFFFFFFFFFFFFFFFFFFFFFFFFFFFFFFFFFFFF AND PUSH1 0x0 DUP1 SLOAD SWAP1 PUSH2 0x100 EXP SWAP1 DIV PUSH20 0xFFFFFFFFFFFFFFFFFFFFFFFFFFFFFFFFFFFFFFFF AND PUSH20 0xFFFFFFFFFFFFFFFFFFFFFFFFFFFFFFFFFFFFFFFF AND EQ ISZERO PUSH2 0xD88 JUMPI PUSH1 0x0 DUP1 REVERT JUMPDEST PUSH1 0x5 PUSH1 0x0 DUP4 PUSH20 0xFFFFFFFFFFFFFFFFFFFFFFFFFFFFFFFFFFFFFFFF AND PUSH20 0xFFFFFFFFFFFFFFFFFFFFFFFFFFFFFFFFFFFFFFFF AND DUP2 MSTORE PUSH1 0x20 ADD SWAP1 DUP2 MSTORE PUSH1 0x20 ADD PUSH1 0x0 KECCAK256 PUSH1 0x0 SWAP1 SLOAD SWAP1 PUSH2 0x100 EXP SWAP1 DIV PUSH1 0xFF AND SWAP1 POP SWAP2 SWAP1 POP JUMP JUMPDEST PUSH1 0x0 DUP2 PUSH20 0xFFFFFFFFFFFFFFFFFFFFFFFFFFFFFFFFFFFFFFFF AND PUSH1 0x0 DUP1 SLOAD SWAP1 PUSH2 0x100 EXP SWAP1 DIV PUSH20 0xFFFFFFFFFFFFFFFFFFFFFFFFFFFFFFFFFFFFFFFF AND PUSH20 0xFFFFFFFFFFFFFFFFFFFFFFFFFFFFFFFFFFFFFFFF AND EQ ISZERO PUSH2 0xE37 JUMPI PUSH1 0x0 DUP1 REVERT JUMPDEST PUSH1 0x4 PUSH1 0x0 DUP4 PUSH20 0xFFFFFFFFFFFFFFFFFFFFFFFFFFFFFFFFFFFFFFFF AND PUSH20 0xFFFFFFFFFFFFFFFFFFFFFFFFFFFFFFFFFFFFFFFF AND DUP2 MSTORE PUSH1 0x20 ADD SWAP1 DUP2 MSTORE PUSH1 0x20 ADD PUSH1 0x0 KECCAK256 PUSH1 0x0 SWAP1 SLOAD SWAP1 PUSH2 0x100 EXP SWAP1 DIV PUSH1 0xFF AND SWAP1 POP SWAP2 SWAP1 POP JUMP JUMPDEST PUSH1 0x60 PUSH1 0x1 DUP1 SLOAD PUSH2 0xE9A SWAP1 PUSH2 0x1292 JUMP JUMPDEST DUP1 PUSH1 0x1F ADD PUSH1 0x20 DUP1 SWAP2 DIV MUL PUSH1 0x20 ADD PUSH1 0x40 MLOAD SWAP1 DUP2 ADD PUSH1 0x40 MSTORE DUP1 SWAP3 SWAP2 SWAP1 DUP2 DUP2 MSTORE PUSH1 0x20 ADD DUP3 DUP1 SLOAD PUSH2 0xEC6 SWAP1 PUSH2 0x1292 JUMP JUMPDEST DUP1 ISZERO PUSH2 0xF13 JUMPI DUP1 PUSH1 0x1F LT PUSH2 0xEE8 JUMPI PUSH2 0x100 DUP1 DUP4 SLOAD DIV MUL DUP4 MSTORE SWAP2 PUSH1 0x20 ADD SWAP2 PUSH2 0xF13 JUMP JUMPDEST DUP3 ADD SWAP2 SWAP1 PUSH1 0x0 MSTORE PUSH1 0x20 PUSH1 0x0 KECCAK256 SWAP1 JUMPDEST DUP2 SLOAD DUP2 MSTORE SWAP1 PUSH1 0x1 ADD SWAP1 PUSH1 0x20 ADD DUP1 DUP4 GT PUSH2 0xEF6 JUMPI DUP3 SWAP1 SUB PUSH1 0x1F AND DUP3 ADD SWAP2 JUMPDEST POP POP POP POP POP SWAP1 POP SWAP1 JUMP JUMPDEST PUSH1 0x0 DUP2 CALLDATALOAD SWAP1 POP PUSH2 0xF2C DUP2 PUSH2 0x13D3 JUMP JUMPDEST SWAP3 SWAP2 POP POP JUMP JUMPDEST PUSH1 0x0 PUSH1 0x20 DUP3 DUP5 SUB SLT ISZERO PUSH2 0xF48 JUMPI PUSH2 0xF47 PUSH2 0x12F3 JUMP JUMPDEST JUMPDEST PUSH1 0x0 PUSH2 0xF56 DUP5 DUP3 DUP6 ADD PUSH2 0xF1D JUMP JUMPDEST SWAP2 POP POP SWAP3 SWAP2 POP POP JUMP JUMPDEST PUSH2 0xF68 DUP2 PUSH2 0x1217 JUMP JUMPDEST DUP3 MSTORE POP POP JUMP JUMPDEST PUSH2 0xF77 DUP2 PUSH2 0x1229 JUMP JUMPDEST DUP3 MSTORE POP POP JUMP JUMPDEST PUSH1 0x0 PUSH2 0xF88 DUP3 PUSH2 0x11FB JUMP JUMPDEST PUSH2 0xF92 DUP2 DUP6 PUSH2 0x1206 JUMP JUMPDEST SWAP4 POP PUSH2 0xFA2 DUP2 DUP6 PUSH1 0x20 DUP7 ADD PUSH2 0x125F JUMP JUMPDEST PUSH2 0xFAB DUP2 PUSH2 0x12F8 JUMP JUMPDEST DUP5 ADD SWAP2 POP POP SWAP3 SWAP2 POP POP JUMP JUMPDEST PUSH1 0x0 DUP2 SLOAD PUSH2 0xFC3 DUP2 PUSH2 0x1292 JUMP JUMPDEST PUSH2 0xFCD DUP2 DUP7 PUSH2 0x1206 JUMP JUMPDEST SWAP5 POP PUSH1 0x1 DUP3 AND PUSH1 0x0 DUP2 EQ PUSH2 0xFE8 JUMPI PUSH1 0x1 DUP2 EQ PUSH2 0xFFA JUMPI PUSH2 0x102D JUMP JUMPDEST PUSH1 0xFF NOT DUP4 AND DUP7 MSTORE PUSH1 0x20 DUP7 ADD SWAP4 POP PUSH2 0x102D JUMP JUMPDEST PUSH2 0x1003 DUP6 PUSH2 0x11E6 JUMP JUMPDEST PUSH1 0x0 JUMPDEST DUP4 DUP2 LT ISZERO PUSH2 0x1025 JUMPI DUP2 SLOAD DUP2 DUP10 ADD MSTORE PUSH1 0x1 DUP3 ADD SWAP2 POP PUSH1 0x20 DUP2 ADD SWAP1 POP PUSH2 0x1006 JUMP JUMPDEST DUP1 DUP9 ADD SWAP6 POP POP POP JUMPDEST POP POP POP SWAP3 SWAP2 POP POP JUMP JUMPDEST PUSH1 0x0 PUSH2 0x1043 PUSH1 0x20 DUP4 PUSH2 0x1206 JUMP JUMPDEST SWAP2 POP PUSH2 0x104E DUP3 PUSH2 0x1309 JUMP JUMPDEST PUSH1 0x20 DUP3 ADD SWAP1 POP SWAP2 SWAP1 POP JUMP JUMPDEST PUSH1 0x0 PUSH2 0x1066 PUSH1 0x29 DUP4 PUSH2 0x1206 JUMP JUMPDEST SWAP2 POP PUSH2 0x1071 DUP3 PUSH2 0x1332 JUMP JUMPDEST PUSH1 0x40 DUP3 ADD SWAP1 POP SWAP2 SWAP1 POP JUMP JUMPDEST PUSH1 0x0 PUSH2 0x1089 PUSH1 0x11 DUP4 PUSH2 0x1206 JUMP JUMPDEST SWAP2 POP PUSH2 0x1094 DUP3 PUSH2 0x1381 JUMP JUMPDEST PUSH1 0x20 DUP3 ADD SWAP1 POP SWAP2 SWAP1 POP JUMP JUMPDEST PUSH1 0x0 PUSH2 0x10AC PUSH1 0x11 DUP4 PUSH2 0x1206 JUMP JUMPDEST SWAP2 POP PUSH2 0x10B7 DUP3 PUSH2 0x13AA JUMP JUMPDEST PUSH1 0x20 DUP3 ADD SWAP1 POP SWAP2 SWAP1 POP JUMP JUMPDEST PUSH2 0x10CB DUP2 PUSH2 0x1255 JUMP JUMPDEST DUP3 MSTORE POP POP JUMP JUMPDEST PUSH1 0x0 PUSH1 0x20 DUP3 ADD SWAP1 POP PUSH2 0x10E6 PUSH1 0x0 DUP4 ADD DUP5 PUSH2 0xF5F JUMP JUMPDEST SWAP3 SWAP2 POP POP JUMP JUMPDEST PUSH1 0x0 PUSH1 0x20 DUP3 ADD SWAP1 POP PUSH2 0x1101 PUSH1 0x0 DUP4 ADD DUP5 PUSH2 0xF6E JUMP JUMPDEST SWAP3 SWAP2 POP POP JUMP JUMPDEST PUSH1 0x0 PUSH1 0x20 DUP3 ADD SWAP1 POP DUP2 DUP2 SUB PUSH1 0x0 DUP4 ADD MSTORE PUSH2 0x1121 DUP2 DUP5 PUSH2 0xF7D JUMP JUMPDEST SWAP1 POP SWAP3 SWAP2 POP POP JUMP JUMPDEST PUSH1 0x0 PUSH1 0x20 DUP3 ADD SWAP1 POP DUP2 DUP2 SUB PUSH1 0x0 DUP4 ADD MSTORE PUSH2 0x1143 DUP2 DUP5 PUSH2 0xFB6 JUMP JUMPDEST SWAP1 POP SWAP3 SWAP2 POP POP JUMP JUMPDEST PUSH1 0x0 PUSH1 0x20 DUP3 ADD SWAP1 POP DUP2 DUP2 SUB PUSH1 0x0 DUP4 ADD MSTORE PUSH2 0x1164 DUP2 PUSH2 0x1036 JUMP JUMPDEST SWAP1 POP SWAP2 SWAP1 POP JUMP JUMPDEST PUSH1 0x0 PUSH1 0x20 DUP3 ADD SWAP1 POP DUP2 DUP2 SUB PUSH1 0x0 DUP4 ADD MSTORE PUSH2 0x1184 DUP2 PUSH2 0x1059 JUMP JUMPDEST SWAP1 POP SWAP2 SWAP1 POP JUMP JUMPDEST PUSH1 0x0 PUSH1 0x20 DUP3 ADD SWAP1 POP DUP2 DUP2 SUB PUSH1 0x0 DUP4 ADD MSTORE PUSH2 0x11A4 DUP2 PUSH2 0x107C JUMP JUMPDEST SWAP1 POP SWAP2 SWAP1 POP JUMP JUMPDEST PUSH1 0x0 PUSH1 0x20 DUP3 ADD SWAP1 POP DUP2 DUP2 SUB PUSH1 0x0 DUP4 ADD MSTORE PUSH2 0x11C4 DUP2 PUSH2 0x109F JUMP JUMPDEST SWAP1 POP SWAP2 SWAP1 POP JUMP JUMPDEST PUSH1 0x0 PUSH1 0x20 DUP3 ADD SWAP1 POP PUSH2 0x11E0 PUSH1 0x0 DUP4 ADD DUP5 PUSH2 0x10C2 JUMP JUMPDEST SWAP3 SWAP2 POP POP JUMP JUMPDEST PUSH1 0x0 DUP2 SWAP1 POP DUP2 PUSH1 0x0 MSTORE PUSH1 0x20 PUSH1 0x0 KECCAK256 SWAP1 POP SWAP2 SWAP1 POP JUMP JUMPDEST PUSH1 0x0 DUP2 MLOAD SWAP1 POP SWAP2 SWAP1 POP JUMP JUMPDEST PUSH1 0x0 DUP3 DUP3 MSTORE PUSH1 0x20 DUP3 ADD SWAP1 POP SWAP3 SWAP2 POP POP JUMP JUMPDEST PUSH1 0x0 PUSH2 0x1222 DUP3 PUSH2 0x1235 JUMP JUMPDEST SWAP1 POP SWAP2 SWAP1 POP JUMP JUMPDEST PUSH1 0x0 DUP2 ISZERO ISZERO SWAP1 POP SWAP2 SWAP1 POP JUMP JUMPDEST PUSH1 0x0 PUSH20 0xFFFFFFFFFFFFFFFFFFFFFFFFFFFFFFFFFFFFFFFF DUP3 AND SWAP1 POP SWAP2 SWAP1 POP JUMP JUMPDEST PUSH1 0x0 DUP2 SWAP1 POP SWAP2 SWAP1 POP JUMP JUMPDEST PUSH1 0x0 JUMPDEST DUP4 DUP2 LT ISZERO PUSH2 0x127D JUMPI DUP1 DUP3 ADD MLOAD DUP2 DUP5 ADD MSTORE PUSH1 0x20 DUP2 ADD SWAP1 POP PUSH2 0x1262 JUMP JUMPDEST DUP4 DUP2 GT ISZERO PUSH2 0x128C JUMPI PUSH1 0x0 DUP5 DUP5 ADD MSTORE JUMPDEST POP POP POP POP JUMP JUMPDEST PUSH1 0x0 PUSH1 0x2 DUP3 DIV SWAP1 POP PUSH1 0x1 DUP3 AND DUP1 PUSH2 0x12AA JUMPI PUSH1 0x7F DUP3 AND SWAP2 POP JUMPDEST PUSH1 0x20 DUP3 LT DUP2 EQ ISZERO PUSH2 0x12BE JUMPI PUSH2 0x12BD PUSH2 0x12C4 JUMP JUMPDEST JUMPDEST POP SWAP2 SWAP1 POP JUMP JUMPDEST PUSH32 0x4E487B7100000000000000000000000000000000000000000000000000000000 PUSH1 0x0 MSTORE PUSH1 0x22 PUSH1 0x4 MSTORE PUSH1 0x24 PUSH1 0x0 REVERT JUMPDEST PUSH1 0x0 DUP1 REVERT JUMPDEST PUSH1 0x0 PUSH1 0x1F NOT PUSH1 0x1F DUP4 ADD AND SWAP1 POP SWAP2 SWAP1 POP JUMP JUMPDEST PUSH32 0x4E6F20706F74732076616C6964617220692064656E6567617220616C686F7261 PUSH1 0x0 DUP3 ADD MSTORE POP JUMP JUMPDEST PUSH32 0x456C2070726F70696574617269206E6F20706F742076616C6964617220656C20 PUSH1 0x0 DUP3 ADD MSTORE PUSH32 0x7365752061737365740000000000000000000000000000000000000000000000 PUSH1 0x20 DUP3 ADD MSTORE POP JUMP JUMPDEST PUSH32 0x56616C696461646F722072657065746974000000000000000000000000000000 PUSH1 0x0 DUP3 ADD MSTORE POP JUMP JUMPDEST PUSH32 0x44656E656761646F722072657065746974000000000000000000000000000000 PUSH1 0x0 DUP3 ADD MSTORE POP JUMP JUMPDEST PUSH2 0x13DC DUP2 PUSH2 0x1217 JUMP JUMPDEST DUP2 EQ PUSH2 0x13E7 JUMPI PUSH1 0x0 DUP1 REVERT JUMPDEST POP JUMP INVALID LOG2 PUSH5 0x6970667358 0x22 SLT KECCAK256 PUSH19 0x192F316ECBB2D1A46D4731BB3CC3DBC6775C62 DUP13 DUP15 EQ PUSH3 0x5126A9 SWAP11 EXP 0xE7 SWAP9 DUP8 PUSH5 0x736F6C6343 STOP ADDMOD SMOD STOP CALLER "
				},
				"gasEstimates": {
					"creation": {
						"codeDepositCost": "1030400",
						"executionCost": "infinite",
						"totalCost": "infinite"
					},
					"external": {
						"denegate()": "infinite",
						"denegate(address)": "infinite",
						"getFilename()": "infinite",
						"getOwner()": "2544",
						"hasDenied(address)": "5120",
						"hasValidated(address)": "5142",
						"nDenegations()": "2534",
						"nValidations()": "2489",
						"propietari()": "2512",
						"validate()": "infinite",
						"validate(address)": "infinite"
					}
				},
				"methodIdentifiers": {
					"denegate()": "5836e0b5",
					"denegate(address)": "58fe7a34",
					"getFilename()": "cef2320c",
					"getOwner()": "893d20e8",
					"hasDenied(address)": "b794cc2f",
					"hasValidated(address)": "c4374575",
					"nDenegations()": "5d8ab6e7",
					"nValidations()": "990ec12b",
					"propietari()": "034c92c6",
					"validate()": "6901f668",
					"validate(address)": "207c64fb"
				}
			},
			"storageLayout": {
				"storage": [
					{
						"astId": 3,
						"contract": "PFG/Verificador.sol:Verificacio",
						"label": "propietari",
						"offset": 0,
						"slot": "0",
						"type": "t_address"
					},
					{
						"astId": 5,
						"contract": "PFG/Verificador.sol:Verificacio",
						"label": "filename",
						"offset": 0,
						"slot": "1",
						"type": "t_string_storage"
					},
					{
						"astId": 8,
						"contract": "PFG/Verificador.sol:Verificacio",
						"label": "validadors",
						"offset": 0,
						"slot": "2",
						"type": "t_array(t_address)dyn_storage"
					},
					{
						"astId": 11,
						"contract": "PFG/Verificador.sol:Verificacio",
						"label": "denegadors",
						"offset": 0,
						"slot": "3",
						"type": "t_array(t_address)dyn_storage"
					},
					{
						"astId": 15,
						"contract": "PFG/Verificador.sol:Verificacio",
						"label": "validacions",
						"offset": 0,
						"slot": "4",
						"type": "t_mapping(t_address,t_bool)"
					},
					{
						"astId": 19,
						"contract": "PFG/Verificador.sol:Verificacio",
						"label": "denegacions",
						"offset": 0,
						"slot": "5",
						"type": "t_mapping(t_address,t_bool)"
					}
				],
				"types": {
					"t_address": {
						"encoding": "inplace",
						"label": "address",
						"numberOfBytes": "20"
					},
					"t_array(t_address)dyn_storage": {
						"base": "t_address",
						"encoding": "dynamic_array",
						"label": "address[]",
						"numberOfBytes": "32"
					},
					"t_bool": {
						"encoding": "inplace",
						"label": "bool",
						"numberOfBytes": "1"
					},
					"t_mapping(t_address,t_bool)": {
						"encoding": "mapping",
						"key": "t_address",
						"label": "mapping(address => bool)",
						"numberOfBytes": "32",
						"value": "t_bool"
					},
					"t_string_storage": {
						"encoding": "bytes",
						"label": "string",
						"numberOfBytes": "32"
					}
				}
			},
			"userdoc": {
				"kind": "user",
				"methods": {},
				"version": 1
			}
		}
	}
}