{
	"PFG/Verificador.sol": {
		"Verificacio": {
			"abi": [
				{
					"inputs": [
						{
							"internalType": "string",
							"name": "_filename",
							"type": "string"
						}
					],
					"stateMutability": "nonpayable",
					"type": "constructor"
				},
				{
					"anonymous": false,
					"inputs": [
						{
							"indexed": true,
							"internalType": "address",
							"name": "denegador",
							"type": "address"
						},
						{
							"indexed": false,
							"internalType": "string",
							"name": "asset",
							"type": "string"
						}
					],
					"name": "Denegation",
					"type": "event"
				},
				{
					"anonymous": false,
					"inputs": [
						{
							"indexed": true,
							"internalType": "address",
							"name": "propietari",
							"type": "address"
						},
						{
							"indexed": false,
							"internalType": "string",
							"name": "asset",
							"type": "string"
						}
					],
					"name": "OwnerSet",
					"type": "event"
				},
				{
					"anonymous": false,
					"inputs": [
						{
							"indexed": true,
							"internalType": "address",
							"name": "validador",
							"type": "address"
						},
						{
							"indexed": false,
							"internalType": "string",
							"name": "asset",
							"type": "string"
						}
					],
					"name": "Validation",
					"type": "event"
				},
				{
					"inputs": [],
					"name": "denegate",
					"outputs": [],
					"stateMutability": "nonpayable",
					"type": "function"
				},
				{
					"inputs": [
						{
							"internalType": "address",
							"name": "denegador",
							"type": "address"
						}
					],
					"name": "denegate",
					"outputs": [],
					"stateMutability": "nonpayable",
					"type": "function"
				},
				{
					"inputs": [],
					"name": "getFilename",
					"outputs": [
						{
							"internalType": "string",
							"name": "",
							"type": "string"
						}
					],
					"stateMutability": "view",
					"type": "function"
				},
				{
					"inputs": [],
					"name": "getOwner",
					"outputs": [
						{
							"internalType": "address",
							"name": "",
							"type": "address"
						}
					],
					"stateMutability": "view",
					"type": "function"
				},
				{
					"inputs": [
						{
							"internalType": "address",
							"name": "_user",
							"type": "address"
						}
					],
					"name": "hasDenied",
					"outputs": [
						{
							"internalType": "bool",
							"name": "",
							"type": "bool"
						}
					],
					"stateMutability": "view",
					"type": "function"
				},
				{
					"inputs": [
						{
							"internalType": "address",
							"name": "_user",
							"type": "address"
						}
					],
					"name": "hasValidated",
					"outputs": [
						{
							"internalType": "bool",
							"name": "",
							"type": "bool"
						}
					],
					"stateMutability": "view",
					"type": "function"
				},
				{
					"inputs": [],
					"name": "nDenegations",
					"outputs": [
						{
							"internalType": "uint256",
							"name": "",
							"type": "uint256"
						}
					],
					"stateMutability": "view",
					"type": "function"
				},
				{
					"inputs": [],
					"name": "nValidations",
					"outputs": [
						{
							"internalType": "uint256",
							"name": "",
							"type": "uint256"
						}
					],
					"stateMutability": "view",
					"type": "function"
				},
				{
					"inputs": [
						{
							"internalType": "address",
							"name": "validador",
							"type": "address"
						}
					],
					"name": "validate",
					"outputs": [],
					"stateMutability": "nonpayable",
					"type": "function"
				},
				{
					"inputs": [],
					"name": "validate",
					"outputs": [],
					"stateMutability": "nonpayable",
					"type": "function"
				}
			],
			"devdoc": {
				"kind": "dev",
				"methods": {},
				"version": 1
			},
			"evm": {
				"assembly": "    /* \"PFG/Verificador.sol\":74:3612  contract Verificacio{\r... */\n  mstore(0x40, 0x80)\n    /* \"PFG/Verificador.sol\":749:907  constructor(string memory _filename) {\r... */\n  callvalue\n  dup1\n  iszero\n  tag_1\n  jumpi\n  0x00\n  dup1\n  revert\ntag_1:\n  pop\n  mload(0x40)\n  sub(codesize, bytecodeSize)\n  dup1\n  bytecodeSize\n  dup4\n  codecopy\n  dup2\n  dup2\n  add\n  0x40\n  mstore\n  dup2\n  add\n  swap1\n  tag_2\n  swap2\n  swap1\n  tag_3\n  jump\t// in\ntag_2:\n    /* \"PFG/Verificador.sol\":810:820  msg.sender */\n  caller\n    /* \"PFG/Verificador.sol\":797:807  propietari */\n  0x00\n  dup1\n    /* \"PFG/Verificador.sol\":797:820  propietari = msg.sender */\n  0x0100\n  exp\n  dup2\n  sload\n  dup2\n  0xffffffffffffffffffffffffffffffffffffffff\n  mul\n  not\n  and\n  swap1\n  dup4\n  0xffffffffffffffffffffffffffffffffffffffff\n  and\n  mul\n  or\n  swap1\n  sstore\n  pop\n    /* \"PFG/Verificador.sol\":842:851  _filename */\n  dup1\n    /* \"PFG/Verificador.sol\":831:839  filename */\n  0x01\n    /* \"PFG/Verificador.sol\":831:851  filename = _filename */\n  swap1\n  dup1\n  mload\n  swap1\n  0x20\n  add\n  swap1\n  tag_6\n  swap3\n  swap2\n  swap1\n  tag_7\n  jump\t// in\ntag_6:\n  pop\n    /* \"PFG/Verificador.sol\":878:888  propietari */\n  0x00\n  dup1\n  sload\n  swap1\n  0x0100\n  exp\n  swap1\n  div\n  0xffffffffffffffffffffffffffffffffffffffff\n  and\n    /* \"PFG/Verificador.sol\":869:899  OwnerSet(propietari, filename) */\n  0xffffffffffffffffffffffffffffffffffffffff\n  and\n  0x3d6aba6def46bd8784b0b6505c24d0aa59cd9316e6c5db593d3d8470797d7a3e\n    /* \"PFG/Verificador.sol\":890:898  filename */\n  0x01\n    /* \"PFG/Verificador.sol\":869:899  OwnerSet(propietari, filename) */\n  mload(0x40)\n  tag_8\n  swap2\n  swap1\n  tag_9\n  jump\t// in\ntag_8:\n  mload(0x40)\n  dup1\n  swap2\n  sub\n  swap1\n  log2\n    /* \"PFG/Verificador.sol\":749:907  constructor(string memory _filename) {\r... */\n  pop\n    /* \"PFG/Verificador.sol\":74:3612  contract Verificacio{\r... */\n  jump(tag_10)\ntag_7:\n  dup3\n  dup1\n  sload\n  tag_11\n  swap1\n  tag_12\n  jump\t// in\ntag_11:\n  swap1\n  0x00\n  mstore\n  keccak256(0x00, 0x20)\n  swap1\n  0x1f\n  add\n  0x20\n  swap1\n  div\n  dup2\n  add\n  swap3\n  dup3\n  tag_14\n  jumpi\n  0x00\n  dup6\n  sstore\n  jump(tag_13)\ntag_14:\n  dup3\n  0x1f\n  lt\n  tag_15\n  jumpi\n  dup1\n  mload\n  not(0xff)\n  and\n  dup4\n  dup1\n  add\n  or\n  dup6\n  sstore\n  jump(tag_13)\ntag_15:\n  dup3\n  dup1\n  add\n  0x01\n  add\n  dup6\n  sstore\n  dup3\n  iszero\n  tag_13\n  jumpi\n  swap2\n  dup3\n  add\ntag_16:\n  dup3\n  dup2\n  gt\n  iszero\n  tag_17\n  jumpi\n  dup3\n  mload\n  dup3\n  sstore\n  swap2\n  0x20\n  add\n  swap2\n  swap1\n  0x01\n  add\n  swap1\n  jump(tag_16)\ntag_17:\ntag_13:\n  pop\n  swap1\n  pop\n  tag_18\n  swap2\n  swap1\n  tag_19\n  jump\t// in\ntag_18:\n  pop\n  swap1\n  jump\t// out\ntag_19:\ntag_20:\n  dup1\n  dup3\n  gt\n  iszero\n  tag_21\n  jumpi\n  0x00\n  dup2\n  0x00\n  swap1\n  sstore\n  pop\n  0x01\n  add\n  jump(tag_20)\ntag_21:\n  pop\n  swap1\n  jump\t// out\n    /* \"#utility.yul\":7:428   */\ntag_23:\n    /* \"#utility.yul\":96:101   */\n  0x00\n    /* \"#utility.yul\":121:187   */\n  tag_25\n    /* \"#utility.yul\":137:186   */\n  tag_26\n    /* \"#utility.yul\":179:185   */\n  dup5\n    /* \"#utility.yul\":137:186   */\n  tag_27\n  jump\t// in\ntag_26:\n    /* \"#utility.yul\":121:187   */\n  tag_28\n  jump\t// in\ntag_25:\n    /* \"#utility.yul\":112:187   */\n  swap1\n  pop\n    /* \"#utility.yul\":210:216   */\n  dup3\n    /* \"#utility.yul\":203:208   */\n  dup2\n    /* \"#utility.yul\":196:217   */\n  mstore\n    /* \"#utility.yul\":248:252   */\n  0x20\n    /* \"#utility.yul\":241:246   */\n  dup2\n    /* \"#utility.yul\":237:253   */\n  add\n    /* \"#utility.yul\":286:289   */\n  dup5\n    /* \"#utility.yul\":277:283   */\n  dup5\n    /* \"#utility.yul\":272:275   */\n  dup5\n    /* \"#utility.yul\":268:284   */\n  add\n    /* \"#utility.yul\":265:290   */\n  gt\n    /* \"#utility.yul\":262:374   */\n  iszero\n  tag_29\n  jumpi\n    /* \"#utility.yul\":293:372   */\n  tag_30\n  tag_31\n  jump\t// in\ntag_30:\n    /* \"#utility.yul\":262:374   */\ntag_29:\n    /* \"#utility.yul\":383:422   */\n  tag_32\n    /* \"#utility.yul\":415:421   */\n  dup5\n    /* \"#utility.yul\":410:413   */\n  dup3\n    /* \"#utility.yul\":405:408   */\n  dup6\n    /* \"#utility.yul\":383:422   */\n  tag_33\n  jump\t// in\ntag_32:\n    /* \"#utility.yul\":102:428   */\n  pop\n    /* \"#utility.yul\":7:428   */\n  swap4\n  swap3\n  pop\n  pop\n  pop\n  jump\t// out\n    /* \"#utility.yul\":448:803   */\ntag_34:\n    /* \"#utility.yul\":515:520   */\n  0x00\n    /* \"#utility.yul\":564:567   */\n  dup3\n    /* \"#utility.yul\":557:561   */\n  0x1f\n    /* \"#utility.yul\":549:555   */\n  dup4\n    /* \"#utility.yul\":545:562   */\n  add\n    /* \"#utility.yul\":541:568   */\n  slt\n    /* \"#utility.yul\":531:653   */\n  tag_36\n  jumpi\n    /* \"#utility.yul\":572:651   */\n  tag_37\n  tag_38\n  jump\t// in\ntag_37:\n    /* \"#utility.yul\":531:653   */\ntag_36:\n    /* \"#utility.yul\":682:688   */\n  dup2\n    /* \"#utility.yul\":676:689   */\n  mload\n    /* \"#utility.yul\":707:797   */\n  tag_39\n    /* \"#utility.yul\":793:796   */\n  dup5\n    /* \"#utility.yul\":785:791   */\n  dup3\n    /* \"#utility.yul\":778:782   */\n  0x20\n    /* \"#utility.yul\":770:776   */\n  dup7\n    /* \"#utility.yul\":766:783   */\n  add\n    /* \"#utility.yul\":707:797   */\n  tag_23\n  jump\t// in\ntag_39:\n    /* \"#utility.yul\":698:797   */\n  swap2\n  pop\n    /* \"#utility.yul\":521:803   */\n  pop\n    /* \"#utility.yul\":448:803   */\n  swap3\n  swap2\n  pop\n  pop\n  jump\t// out\n    /* \"#utility.yul\":809:1333   */\ntag_3:\n    /* \"#utility.yul\":889:895   */\n  0x00\n    /* \"#utility.yul\":938:940   */\n  0x20\n    /* \"#utility.yul\":926:935   */\n  dup3\n    /* \"#utility.yul\":917:924   */\n  dup5\n    /* \"#utility.yul\":913:936   */\n  sub\n    /* \"#utility.yul\":909:941   */\n  slt\n    /* \"#utility.yul\":906:1025   */\n  iszero\n  tag_41\n  jumpi\n    /* \"#utility.yul\":944:1023   */\n  tag_42\n  tag_43\n  jump\t// in\ntag_42:\n    /* \"#utility.yul\":906:1025   */\ntag_41:\n    /* \"#utility.yul\":1085:1086   */\n  0x00\n    /* \"#utility.yul\":1074:1083   */\n  dup3\n    /* \"#utility.yul\":1070:1087   */\n  add\n    /* \"#utility.yul\":1064:1088   */\n  mload\n    /* \"#utility.yul\":1115:1133   */\n  0xffffffffffffffff\n    /* \"#utility.yul\":1107:1113   */\n  dup2\n    /* \"#utility.yul\":1104:1134   */\n  gt\n    /* \"#utility.yul\":1101:1218   */\n  iszero\n  tag_44\n  jumpi\n    /* \"#utility.yul\":1137:1216   */\n  tag_45\n  tag_46\n  jump\t// in\ntag_45:\n    /* \"#utility.yul\":1101:1218   */\ntag_44:\n    /* \"#utility.yul\":1242:1316   */\n  tag_47\n    /* \"#utility.yul\":1308:1315   */\n  dup5\n    /* \"#utility.yul\":1299:1305   */\n  dup3\n    /* \"#utility.yul\":1288:1297   */\n  dup6\n    /* \"#utility.yul\":1284:1306   */\n  add\n    /* \"#utility.yul\":1242:1316   */\n  tag_34\n  jump\t// in\ntag_47:\n    /* \"#utility.yul\":1232:1316   */\n  swap2\n  pop\n    /* \"#utility.yul\":1035:1326   */\n  pop\n    /* \"#utility.yul\":809:1333   */\n  swap3\n  swap2\n  pop\n  pop\n  jump\t// out\n    /* \"#utility.yul\":1363:2165   */\ntag_48:\n    /* \"#utility.yul\":1448:1451   */\n  0x00\n    /* \"#utility.yul\":1485:1490   */\n  dup2\n    /* \"#utility.yul\":1479:1491   */\n  sload\n    /* \"#utility.yul\":1514:1550   */\n  tag_50\n    /* \"#utility.yul\":1540:1549   */\n  dup2\n    /* \"#utility.yul\":1514:1550   */\n  tag_12\n  jump\t// in\ntag_50:\n    /* \"#utility.yul\":1566:1637   */\n  tag_51\n    /* \"#utility.yul\":1630:1636   */\n  dup2\n    /* \"#utility.yul\":1625:1628   */\n  dup7\n    /* \"#utility.yul\":1566:1637   */\n  tag_52\n  jump\t// in\ntag_51:\n    /* \"#utility.yul\":1559:1637   */\n  swap5\n  pop\n    /* \"#utility.yul\":1668:1669   */\n  0x01\n    /* \"#utility.yul\":1657:1666   */\n  dup3\n    /* \"#utility.yul\":1653:1670   */\n  and\n    /* \"#utility.yul\":1684:1685   */\n  0x00\n    /* \"#utility.yul\":1679:1814   */\n  dup2\n  eq\n  tag_54\n  jumpi\n    /* \"#utility.yul\":1828:1829   */\n  0x01\n    /* \"#utility.yul\":1823:2159   */\n  dup2\n  eq\n  tag_55\n  jumpi\n    /* \"#utility.yul\":1646:2159   */\n  jump(tag_53)\n    /* \"#utility.yul\":1679:1814   */\ntag_54:\n    /* \"#utility.yul\":1763:1767   */\n  0xff\n    /* \"#utility.yul\":1759:1768   */\n  not\n    /* \"#utility.yul\":1748:1757   */\n  dup4\n    /* \"#utility.yul\":1744:1769   */\n  and\n    /* \"#utility.yul\":1739:1742   */\n  dup7\n    /* \"#utility.yul\":1732:1770   */\n  mstore\n    /* \"#utility.yul\":1799:1803   */\n  0x20\n    /* \"#utility.yul\":1794:1797   */\n  dup7\n    /* \"#utility.yul\":1790:1804   */\n  add\n    /* \"#utility.yul\":1783:1804   */\n  swap4\n  pop\n    /* \"#utility.yul\":1679:1814   */\n  jump(tag_53)\n    /* \"#utility.yul\":1823:2159   */\ntag_55:\n    /* \"#utility.yul\":1890:1928   */\n  tag_56\n    /* \"#utility.yul\":1922:1927   */\n  dup6\n    /* \"#utility.yul\":1890:1928   */\n  tag_57\n  jump\t// in\ntag_56:\n    /* \"#utility.yul\":1950:1951   */\n  0x00\n    /* \"#utility.yul\":1964:2118   */\ntag_58:\n    /* \"#utility.yul\":1978:1984   */\n  dup4\n    /* \"#utility.yul\":1975:1976   */\n  dup2\n    /* \"#utility.yul\":1972:1985   */\n  lt\n    /* \"#utility.yul\":1964:2118   */\n  iszero\n  tag_60\n  jumpi\n    /* \"#utility.yul\":2052:2059   */\n  dup2\n    /* \"#utility.yul\":2046:2060   */\n  sload\n    /* \"#utility.yul\":2042:2043   */\n  dup2\n    /* \"#utility.yul\":2037:2040   */\n  dup10\n    /* \"#utility.yul\":2033:2044   */\n  add\n    /* \"#utility.yul\":2026:2061   */\n  mstore\n    /* \"#utility.yul\":2102:2103   */\n  0x01\n    /* \"#utility.yul\":2093:2100   */\n  dup3\n    /* \"#utility.yul\":2089:2104   */\n  add\n    /* \"#utility.yul\":2078:2104   */\n  swap2\n  pop\n    /* \"#utility.yul\":2000:2004   */\n  0x20\n    /* \"#utility.yul\":1997:1998   */\n  dup2\n    /* \"#utility.yul\":1993:2005   */\n  add\n    /* \"#utility.yul\":1988:2005   */\n  swap1\n  pop\n    /* \"#utility.yul\":1964:2118   */\n  jump(tag_58)\ntag_60:\n    /* \"#utility.yul\":2147:2148   */\n  dup1\n    /* \"#utility.yul\":2142:2145   */\n  dup9\n    /* \"#utility.yul\":2138:2149   */\n  add\n    /* \"#utility.yul\":2131:2149   */\n  swap6\n  pop\n    /* \"#utility.yul\":1830:2159   */\n  pop\n  pop\n    /* \"#utility.yul\":1646:2159   */\ntag_53:\n  pop\n    /* \"#utility.yul\":1452:2165   */\n  pop\n  pop\n    /* \"#utility.yul\":1363:2165   */\n  swap3\n  swap2\n  pop\n  pop\n  jump\t// out\n    /* \"#utility.yul\":2171:2478   */\ntag_9:\n    /* \"#utility.yul\":2281:2285   */\n  0x00\n    /* \"#utility.yul\":2319:2321   */\n  0x20\n    /* \"#utility.yul\":2308:2317   */\n  dup3\n    /* \"#utility.yul\":2304:2322   */\n  add\n    /* \"#utility.yul\":2296:2322   */\n  swap1\n  pop\n    /* \"#utility.yul\":2368:2377   */\n  dup2\n    /* \"#utility.yul\":2362:2366   */\n  dup2\n    /* \"#utility.yul\":2358:2378   */\n  sub\n    /* \"#utility.yul\":2354:2355   */\n  0x00\n    /* \"#utility.yul\":2343:2352   */\n  dup4\n    /* \"#utility.yul\":2339:2356   */\n  add\n    /* \"#utility.yul\":2332:2379   */\n  mstore\n    /* \"#utility.yul\":2396:2471   */\n  tag_62\n    /* \"#utility.yul\":2466:2470   */\n  dup2\n    /* \"#utility.yul\":2457:2463   */\n  dup5\n    /* \"#utility.yul\":2396:2471   */\n  tag_48\n  jump\t// in\ntag_62:\n    /* \"#utility.yul\":2388:2471   */\n  swap1\n  pop\n    /* \"#utility.yul\":2171:2478   */\n  swap3\n  swap2\n  pop\n  pop\n  jump\t// out\n    /* \"#utility.yul\":2484:2613   */\ntag_28:\n    /* \"#utility.yul\":2518:2524   */\n  0x00\n    /* \"#utility.yul\":2545:2565   */\n  tag_64\n  tag_65\n  jump\t// in\ntag_64:\n    /* \"#utility.yul\":2535:2565   */\n  swap1\n  pop\n    /* \"#utility.yul\":2574:2607   */\n  tag_66\n    /* \"#utility.yul\":2602:2606   */\n  dup3\n    /* \"#utility.yul\":2594:2600   */\n  dup3\n    /* \"#utility.yul\":2574:2607   */\n  tag_67\n  jump\t// in\ntag_66:\n    /* \"#utility.yul\":2484:2613   */\n  swap2\n  swap1\n  pop\n  jump\t// out\n    /* \"#utility.yul\":2619:2694   */\ntag_65:\n    /* \"#utility.yul\":2652:2658   */\n  0x00\n    /* \"#utility.yul\":2685:2687   */\n  0x40\n    /* \"#utility.yul\":2679:2688   */\n  mload\n    /* \"#utility.yul\":2669:2688   */\n  swap1\n  pop\n    /* \"#utility.yul\":2619:2694   */\n  swap1\n  jump\t// out\n    /* \"#utility.yul\":2700:3008   */\ntag_27:\n    /* \"#utility.yul\":2762:2766   */\n  0x00\n    /* \"#utility.yul\":2852:2870   */\n  0xffffffffffffffff\n    /* \"#utility.yul\":2844:2850   */\n  dup3\n    /* \"#utility.yul\":2841:2871   */\n  gt\n    /* \"#utility.yul\":2838:2894   */\n  iszero\n  tag_70\n  jumpi\n    /* \"#utility.yul\":2874:2892   */\n  tag_71\n  tag_72\n  jump\t// in\ntag_71:\n    /* \"#utility.yul\":2838:2894   */\ntag_70:\n    /* \"#utility.yul\":2912:2941   */\n  tag_73\n    /* \"#utility.yul\":2934:2940   */\n  dup3\n    /* \"#utility.yul\":2912:2941   */\n  tag_74\n  jump\t// in\ntag_73:\n    /* \"#utility.yul\":2904:2941   */\n  swap1\n  pop\n    /* \"#utility.yul\":2996:3000   */\n  0x20\n    /* \"#utility.yul\":2990:2994   */\n  dup2\n    /* \"#utility.yul\":2986:3001   */\n  add\n    /* \"#utility.yul\":2978:3001   */\n  swap1\n  pop\n    /* \"#utility.yul\":2700:3008   */\n  swap2\n  swap1\n  pop\n  jump\t// out\n    /* \"#utility.yul\":3014:3155   */\ntag_57:\n    /* \"#utility.yul\":3063:3067   */\n  0x00\n    /* \"#utility.yul\":3086:3089   */\n  dup2\n    /* \"#utility.yul\":3078:3089   */\n  swap1\n  pop\n    /* \"#utility.yul\":3109:3112   */\n  dup2\n    /* \"#utility.yul\":3106:3107   */\n  0x00\n    /* \"#utility.yul\":3099:3113   */\n  mstore\n    /* \"#utility.yul\":3143:3147   */\n  0x20\n    /* \"#utility.yul\":3140:3141   */\n  0x00\n    /* \"#utility.yul\":3130:3148   */\n  keccak256\n    /* \"#utility.yul\":3122:3148   */\n  swap1\n  pop\n    /* \"#utility.yul\":3014:3155   */\n  swap2\n  swap1\n  pop\n  jump\t// out\n    /* \"#utility.yul\":3161:3330   */\ntag_52:\n    /* \"#utility.yul\":3245:3256   */\n  0x00\n    /* \"#utility.yul\":3279:3285   */\n  dup3\n    /* \"#utility.yul\":3274:3277   */\n  dup3\n    /* \"#utility.yul\":3267:3286   */\n  mstore\n    /* \"#utility.yul\":3319:3323   */\n  0x20\n    /* \"#utility.yul\":3314:3317   */\n  dup3\n    /* \"#utility.yul\":3310:3324   */\n  add\n    /* \"#utility.yul\":3295:3324   */\n  swap1\n  pop\n    /* \"#utility.yul\":3161:3330   */\n  swap3\n  swap2\n  pop\n  pop\n  jump\t// out\n    /* \"#utility.yul\":3336:3643   */\ntag_33:\n    /* \"#utility.yul\":3404:3405   */\n  0x00\n    /* \"#utility.yul\":3414:3527   */\ntag_78:\n    /* \"#utility.yul\":3428:3434   */\n  dup4\n    /* \"#utility.yul\":3425:3426   */\n  dup2\n    /* \"#utility.yul\":3422:3435   */\n  lt\n    /* \"#utility.yul\":3414:3527   */\n  iszero\n  tag_80\n  jumpi\n    /* \"#utility.yul\":3513:3514   */\n  dup1\n    /* \"#utility.yul\":3508:3511   */\n  dup3\n    /* \"#utility.yul\":3504:3515   */\n  add\n    /* \"#utility.yul\":3498:3516   */\n  mload\n    /* \"#utility.yul\":3494:3495   */\n  dup2\n    /* \"#utility.yul\":3489:3492   */\n  dup5\n    /* \"#utility.yul\":3485:3496   */\n  add\n    /* \"#utility.yul\":3478:3517   */\n  mstore\n    /* \"#utility.yul\":3450:3452   */\n  0x20\n    /* \"#utility.yul\":3447:3448   */\n  dup2\n    /* \"#utility.yul\":3443:3453   */\n  add\n    /* \"#utility.yul\":3438:3453   */\n  swap1\n  pop\n    /* \"#utility.yul\":3414:3527   */\n  jump(tag_78)\ntag_80:\n    /* \"#utility.yul\":3545:3551   */\n  dup4\n    /* \"#utility.yul\":3542:3543   */\n  dup2\n    /* \"#utility.yul\":3539:3552   */\n  gt\n    /* \"#utility.yul\":3536:3637   */\n  iszero\n  tag_81\n  jumpi\n    /* \"#utility.yul\":3625:3626   */\n  0x00\n    /* \"#utility.yul\":3616:3622   */\n  dup5\n    /* \"#utility.yul\":3611:3614   */\n  dup5\n    /* \"#utility.yul\":3607:3623   */\n  add\n    /* \"#utility.yul\":3600:3627   */\n  mstore\n    /* \"#utility.yul\":3536:3637   */\ntag_81:\n    /* \"#utility.yul\":3385:3643   */\n  pop\n    /* \"#utility.yul\":3336:3643   */\n  pop\n  pop\n  pop\n  jump\t// out\n    /* \"#utility.yul\":3649:3969   */\ntag_12:\n    /* \"#utility.yul\":3693:3699   */\n  0x00\n    /* \"#utility.yul\":3730:3731   */\n  0x02\n    /* \"#utility.yul\":3724:3728   */\n  dup3\n    /* \"#utility.yul\":3720:3732   */\n  div\n    /* \"#utility.yul\":3710:3732   */\n  swap1\n  pop\n    /* \"#utility.yul\":3777:3778   */\n  0x01\n    /* \"#utility.yul\":3771:3775   */\n  dup3\n    /* \"#utility.yul\":3767:3779   */\n  and\n    /* \"#utility.yul\":3798:3816   */\n  dup1\n    /* \"#utility.yul\":3788:3869   */\n  tag_83\n  jumpi\n    /* \"#utility.yul\":3854:3858   */\n  0x7f\n    /* \"#utility.yul\":3846:3852   */\n  dup3\n    /* \"#utility.yul\":3842:3859   */\n  and\n    /* \"#utility.yul\":3832:3859   */\n  swap2\n  pop\n    /* \"#utility.yul\":3788:3869   */\ntag_83:\n    /* \"#utility.yul\":3916:3918   */\n  0x20\n    /* \"#utility.yul\":3908:3914   */\n  dup3\n    /* \"#utility.yul\":3905:3919   */\n  lt\n    /* \"#utility.yul\":3885:3903   */\n  dup2\n    /* \"#utility.yul\":3882:3920   */\n  eq\n    /* \"#utility.yul\":3879:3963   */\n  iszero\n  tag_84\n  jumpi\n    /* \"#utility.yul\":3935:3953   */\n  tag_85\n  tag_86\n  jump\t// in\ntag_85:\n    /* \"#utility.yul\":3879:3963   */\ntag_84:\n    /* \"#utility.yul\":3700:3969   */\n  pop\n    /* \"#utility.yul\":3649:3969   */\n  swap2\n  swap1\n  pop\n  jump\t// out\n    /* \"#utility.yul\":3975:4256   */\ntag_67:\n    /* \"#utility.yul\":4058:4085   */\n  tag_88\n    /* \"#utility.yul\":4080:4084   */\n  dup3\n    /* \"#utility.yul\":4058:4085   */\n  tag_74\n  jump\t// in\ntag_88:\n    /* \"#utility.yul\":4050:4056   */\n  dup2\n    /* \"#utility.yul\":4046:4086   */\n  add\n    /* \"#utility.yul\":4188:4194   */\n  dup2\n    /* \"#utility.yul\":4176:4186   */\n  dup2\n    /* \"#utility.yul\":4173:4195   */\n  lt\n    /* \"#utility.yul\":4152:4170   */\n  0xffffffffffffffff\n    /* \"#utility.yul\":4140:4150   */\n  dup3\n    /* \"#utility.yul\":4137:4171   */\n  gt\n    /* \"#utility.yul\":4134:4196   */\n  or\n    /* \"#utility.yul\":4131:4219   */\n  iszero\n  tag_89\n  jumpi\n    /* \"#utility.yul\":4199:4217   */\n  tag_90\n  tag_72\n  jump\t// in\ntag_90:\n    /* \"#utility.yul\":4131:4219   */\ntag_89:\n    /* \"#utility.yul\":4239:4249   */\n  dup1\n    /* \"#utility.yul\":4235:4237   */\n  0x40\n    /* \"#utility.yul\":4228:4250   */\n  mstore\n    /* \"#utility.yul\":4018:4256   */\n  pop\n    /* \"#utility.yul\":3975:4256   */\n  pop\n  pop\n  jump\t// out\n    /* \"#utility.yul\":4262:4442   */\ntag_86:\n    /* \"#utility.yul\":4310:4387   */\n  0x4e487b7100000000000000000000000000000000000000000000000000000000\n    /* \"#utility.yul\":4307:4308   */\n  0x00\n    /* \"#utility.yul\":4300:4388   */\n  mstore\n    /* \"#utility.yul\":4407:4411   */\n  0x22\n    /* \"#utility.yul\":4404:4405   */\n  0x04\n    /* \"#utility.yul\":4397:4412   */\n  mstore\n    /* \"#utility.yul\":4431:4435   */\n  0x24\n    /* \"#utility.yul\":4428:4429   */\n  0x00\n    /* \"#utility.yul\":4421:4436   */\n  revert\n    /* \"#utility.yul\":4448:4628   */\ntag_72:\n    /* \"#utility.yul\":4496:4573   */\n  0x4e487b7100000000000000000000000000000000000000000000000000000000\n    /* \"#utility.yul\":4493:4494   */\n  0x00\n    /* \"#utility.yul\":4486:4574   */\n  mstore\n    /* \"#utility.yul\":4593:4597   */\n  0x41\n    /* \"#utility.yul\":4590:4591   */\n  0x04\n    /* \"#utility.yul\":4583:4598   */\n  mstore\n    /* \"#utility.yul\":4617:4621   */\n  0x24\n    /* \"#utility.yul\":4614:4615   */\n  0x00\n    /* \"#utility.yul\":4607:4622   */\n  revert\n    /* \"#utility.yul\":4634:4751   */\ntag_38:\n    /* \"#utility.yul\":4743:4744   */\n  0x00\n    /* \"#utility.yul\":4740:4741   */\n  dup1\n    /* \"#utility.yul\":4733:4745   */\n  revert\n    /* \"#utility.yul\":4757:4874   */\ntag_31:\n    /* \"#utility.yul\":4866:4867   */\n  0x00\n    /* \"#utility.yul\":4863:4864   */\n  dup1\n    /* \"#utility.yul\":4856:4868   */\n  revert\n    /* \"#utility.yul\":4880:4997   */\ntag_46:\n    /* \"#utility.yul\":4989:4990   */\n  0x00\n    /* \"#utility.yul\":4986:4987   */\n  dup1\n    /* \"#utility.yul\":4979:4991   */\n  revert\n    /* \"#utility.yul\":5003:5120   */\ntag_43:\n    /* \"#utility.yul\":5112:5113   */\n  0x00\n    /* \"#utility.yul\":5109:5110   */\n  dup1\n    /* \"#utility.yul\":5102:5114   */\n  revert\n    /* \"#utility.yul\":5126:5228   */\ntag_74:\n    /* \"#utility.yul\":5167:5173   */\n  0x00\n    /* \"#utility.yul\":5218:5220   */\n  0x1f\n    /* \"#utility.yul\":5214:5221   */\n  not\n    /* \"#utility.yul\":5209:5211   */\n  0x1f\n    /* \"#utility.yul\":5202:5207   */\n  dup4\n    /* \"#utility.yul\":5198:5212   */\n  add\n    /* \"#utility.yul\":5194:5222   */\n  and\n    /* \"#utility.yul\":5184:5222   */\n  swap1\n  pop\n    /* \"#utility.yul\":5126:5228   */\n  swap2\n  swap1\n  pop\n  jump\t// out\n    /* \"PFG/Verificador.sol\":74:3612  contract Verificacio{\r... */\ntag_10:\n  dataSize(sub_0)\n  dup1\n  dataOffset(sub_0)\n  0x00\n  codecopy\n  0x00\n  return\nstop\n\nsub_0: assembly {\n        /* \"PFG/Verificador.sol\":74:3612  contract Verificacio{\r... */\n      mstore(0x40, 0x80)\n      callvalue\n      dup1\n      iszero\n      tag_1\n      jumpi\n      0x00\n      dup1\n      revert\n    tag_1:\n      pop\n      jumpi(tag_2, lt(calldatasize, 0x04))\n      shr(0xe0, calldataload(0x00))\n      dup1\n      0x893d20e8\n      gt\n      tag_13\n      jumpi\n      dup1\n      0x893d20e8\n      eq\n      tag_8\n      jumpi\n      dup1\n      0x990ec12b\n      eq\n      tag_9\n      jumpi\n      dup1\n      0xb794cc2f\n      eq\n      tag_10\n      jumpi\n      dup1\n      0xc4374575\n      eq\n      tag_11\n      jumpi\n      dup1\n      0xcef2320c\n      eq\n      tag_12\n      jumpi\n      jump(tag_2)\n    tag_13:\n      dup1\n      0x207c64fb\n      eq\n      tag_3\n      jumpi\n      dup1\n      0x5836e0b5\n      eq\n      tag_4\n      jumpi\n      dup1\n      0x58fe7a34\n      eq\n      tag_5\n      jumpi\n      dup1\n      0x5d8ab6e7\n      eq\n      tag_6\n      jumpi\n      dup1\n      0x6901f668\n      eq\n      tag_7\n      jumpi\n    tag_2:\n      0x00\n      dup1\n      revert\n        /* \"PFG/Verificador.sol\":1407:1818  function validate(address validador) public {\r... */\n    tag_3:\n      tag_14\n      0x04\n      dup1\n      calldatasize\n      sub\n      dup2\n      add\n      swap1\n      tag_15\n      swap2\n      swap1\n      tag_16\n      jump\t// in\n    tag_15:\n      tag_17\n      jump\t// in\n    tag_14:\n      stop\n        /* \"PFG/Verificador.sol\":1910:2310  function denegate() public {\r... */\n    tag_4:\n      tag_18\n      tag_19\n      jump\t// in\n    tag_18:\n      stop\n        /* \"PFG/Verificador.sol\":2318:2729  function denegate(address denegador) public {\r... */\n    tag_5:\n      tag_20\n      0x04\n      dup1\n      calldatasize\n      sub\n      dup2\n      add\n      swap1\n      tag_21\n      swap2\n      swap1\n      tag_16\n      jump\t// in\n    tag_21:\n      tag_22\n      jump\t// in\n    tag_20:\n      stop\n        /* \"PFG/Verificador.sol\":3356:3452  function nDenegations() public view returns(uint256) {\r... */\n    tag_6:\n      tag_23\n      tag_24\n      jump\t// in\n    tag_23:\n      mload(0x40)\n      tag_25\n      swap2\n      swap1\n      tag_26\n      jump\t// in\n    tag_25:\n      mload(0x40)\n      dup1\n      swap2\n      sub\n      swap1\n      return\n        /* \"PFG/Verificador.sol\":999:1399  function validate() public {\r... */\n    tag_7:\n      tag_27\n      tag_28\n      jump\t// in\n    tag_27:\n      stop\n        /* \"PFG/Verificador.sol\":3061:3145  function getOwner() public view returns(address){\r... */\n    tag_8:\n      tag_29\n      tag_30\n      jump\t// in\n    tag_29:\n      mload(0x40)\n      tag_31\n      swap2\n      swap1\n      tag_32\n      jump\t// in\n    tag_31:\n      mload(0x40)\n      dup1\n      swap2\n      sub\n      swap1\n      return\n        /* \"PFG/Verificador.sol\":3252:3348  function nValidations() public view returns(uint256) {\r... */\n    tag_9:\n      tag_33\n      tag_34\n      jump\t// in\n    tag_33:\n      mload(0x40)\n      tag_35\n      swap2\n      swap1\n      tag_26\n      jump\t// in\n    tag_35:\n      mload(0x40)\n      dup1\n      swap2\n      sub\n      swap1\n      return\n        /* \"PFG/Verificador.sol\":2910:3053  function hasDenied(address _user) public view returns(bool) {\r... */\n    tag_10:\n      tag_36\n      0x04\n      dup1\n      calldatasize\n      sub\n      dup2\n      add\n      swap1\n      tag_37\n      swap2\n      swap1\n      tag_16\n      jump\t// in\n    tag_37:\n      tag_38\n      jump\t// in\n    tag_36:\n      mload(0x40)\n      tag_39\n      swap2\n      swap1\n      tag_40\n      jump\t// in\n    tag_39:\n      mload(0x40)\n      dup1\n      swap2\n      sub\n      swap1\n      return\n        /* \"PFG/Verificador.sol\":2756:2902  function hasValidated(address _user) public view returns(bool) {\r... */\n    tag_11:\n      tag_41\n      0x04\n      dup1\n      calldatasize\n      sub\n      dup2\n      add\n      swap1\n      tag_42\n      swap2\n      swap1\n      tag_16\n      jump\t// in\n    tag_42:\n      tag_43\n      jump\t// in\n    tag_41:\n      mload(0x40)\n      tag_44\n      swap2\n      swap1\n      tag_40\n      jump\t// in\n    tag_44:\n      mload(0x40)\n      dup1\n      swap2\n      sub\n      swap1\n      return\n        /* \"PFG/Verificador.sol\":3153:3244  function getFilename() public view returns(string memory){\r... */\n    tag_12:\n      tag_45\n      tag_46\n      jump\t// in\n    tag_45:\n      mload(0x40)\n      tag_47\n      swap2\n      swap1\n      tag_48\n      jump\t// in\n    tag_47:\n      mload(0x40)\n      dup1\n      swap2\n      sub\n      swap1\n      return\n        /* \"PFG/Verificador.sol\":1407:1818  function validate(address validador) public {\r... */\n    tag_17:\n        /* \"PFG/Verificador.sol\":1484:1493  validador */\n      dup1\n        /* \"PFG/Verificador.sol\":1470:1493  propietari != validador */\n      0xffffffffffffffffffffffffffffffffffffffff\n      and\n        /* \"PFG/Verificador.sol\":1470:1480  propietari */\n      0x00\n      dup1\n      sload\n      swap1\n      0x0100\n      exp\n      swap1\n      div\n      0xffffffffffffffffffffffffffffffffffffffff\n      and\n        /* \"PFG/Verificador.sol\":1470:1493  propietari != validador */\n      0xffffffffffffffffffffffffffffffffffffffff\n      and\n      eq\n      iszero\n        /* \"PFG/Verificador.sol\":1462:1539  require(propietari != validador, \"El propietari no pot validar el seu asset\") */\n      tag_50\n      jumpi\n      mload(0x40)\n      0x08c379a000000000000000000000000000000000000000000000000000000000\n      dup2\n      mstore\n      0x04\n      add\n      tag_51\n      swap1\n      tag_52\n      jump\t// in\n    tag_51:\n      mload(0x40)\n      dup1\n      swap2\n      sub\n      swap1\n      revert\n    tag_50:\n        /* \"PFG/Verificador.sol\":1559:1570  validacions */\n      0x04\n        /* \"PFG/Verificador.sol\":1559:1581  validacions[validador] */\n      0x00\n        /* \"PFG/Verificador.sol\":1571:1580  validador */\n      dup3\n        /* \"PFG/Verificador.sol\":1559:1581  validacions[validador] */\n      0xffffffffffffffffffffffffffffffffffffffff\n      and\n      0xffffffffffffffffffffffffffffffffffffffff\n      and\n      dup2\n      mstore\n      0x20\n      add\n      swap1\n      dup2\n      mstore\n      0x20\n      add\n      0x00\n      keccak256\n      0x00\n      swap1\n      sload\n      swap1\n      0x0100\n      exp\n      swap1\n      div\n      0xff\n      and\n        /* \"PFG/Verificador.sol\":1558:1581  !validacions[validador] */\n      iszero\n        /* \"PFG/Verificador.sol\":1550:1603  require(!validacions[validador], \"Validador repetit\") */\n      tag_53\n      jumpi\n      mload(0x40)\n      0x08c379a000000000000000000000000000000000000000000000000000000000\n      dup2\n      mstore\n      0x04\n      add\n      tag_54\n      swap1\n      tag_55\n      jump\t// in\n    tag_54:\n      mload(0x40)\n      dup1\n      swap2\n      sub\n      swap1\n      revert\n    tag_53:\n        /* \"PFG/Verificador.sol\":1623:1634  denegacions */\n      0x05\n        /* \"PFG/Verificador.sol\":1623:1645  denegacions[validador] */\n      0x00\n        /* \"PFG/Verificador.sol\":1635:1644  validador */\n      dup3\n        /* \"PFG/Verificador.sol\":1623:1645  denegacions[validador] */\n      0xffffffffffffffffffffffffffffffffffffffff\n      and\n      0xffffffffffffffffffffffffffffffffffffffff\n      and\n      dup2\n      mstore\n      0x20\n      add\n      swap1\n      dup2\n      mstore\n      0x20\n      add\n      0x00\n      keccak256\n      0x00\n      swap1\n      sload\n      swap1\n      0x0100\n      exp\n      swap1\n      div\n      0xff\n      and\n        /* \"PFG/Verificador.sol\":1622:1645  !denegacions[validador] */\n      iszero\n        /* \"PFG/Verificador.sol\":1614:1682  require(!denegacions[validador], \"No pots validar i denegar alhora\") */\n      tag_56\n      jumpi\n      mload(0x40)\n      0x08c379a000000000000000000000000000000000000000000000000000000000\n      dup2\n      mstore\n      0x04\n      add\n      tag_57\n      swap1\n      tag_58\n      jump\t// in\n    tag_57:\n      mload(0x40)\n      dup1\n      swap2\n      sub\n      swap1\n      revert\n    tag_56:\n        /* \"PFG/Verificador.sol\":1693:1703  validadors */\n      0x02\n        /* \"PFG/Verificador.sol\":1709:1718  validador */\n      dup2\n        /* \"PFG/Verificador.sol\":1693:1719  validadors.push(validador) */\n      swap1\n      dup1\n      0x01\n      dup2\n      sload\n      add\n      dup1\n      dup3\n      sstore\n      dup1\n      swap2\n      pop\n      pop\n      0x01\n      swap1\n      sub\n      swap1\n      0x00\n      mstore\n      keccak256(0x00, 0x20)\n      add\n      0x00\n      swap1\n      swap2\n      swap1\n      swap2\n      swap1\n      swap2\n      0x0100\n      exp\n      dup2\n      sload\n      dup2\n      0xffffffffffffffffffffffffffffffffffffffff\n      mul\n      not\n      and\n      swap1\n      dup4\n      0xffffffffffffffffffffffffffffffffffffffff\n      and\n      mul\n      or\n      swap1\n      sstore\n      pop\n        /* \"PFG/Verificador.sol\":1755:1759  true */\n      0x01\n        /* \"PFG/Verificador.sol\":1730:1741  validacions */\n      0x04\n        /* \"PFG/Verificador.sol\":1730:1752  validacions[validador] */\n      0x00\n        /* \"PFG/Verificador.sol\":1742:1751  validador */\n      dup4\n        /* \"PFG/Verificador.sol\":1730:1752  validacions[validador] */\n      0xffffffffffffffffffffffffffffffffffffffff\n      and\n      0xffffffffffffffffffffffffffffffffffffffff\n      and\n      dup2\n      mstore\n      0x20\n      add\n      swap1\n      dup2\n      mstore\n      0x20\n      add\n      0x00\n      keccak256\n      0x00\n        /* \"PFG/Verificador.sol\":1730:1759  validacions[validador] = true */\n      0x0100\n      exp\n      dup2\n      sload\n      dup2\n      0xff\n      mul\n      not\n      and\n      swap1\n      dup4\n      iszero\n      iszero\n      mul\n      or\n      swap1\n      sstore\n      pop\n        /* \"PFG/Verificador.sol\":1788:1797  validador */\n      dup1\n        /* \"PFG/Verificador.sol\":1777:1808  Validation(validador, filename) */\n      0xffffffffffffffffffffffffffffffffffffffff\n      and\n      0x57d77eb32e87e8c65c7cec1df5b0e8a8d5c4eae1b40c7246e7668ed702dd247a\n        /* \"PFG/Verificador.sol\":1799:1807  filename */\n      0x01\n        /* \"PFG/Verificador.sol\":1777:1808  Validation(validador, filename) */\n      mload(0x40)\n      tag_60\n      swap2\n      swap1\n      tag_61\n      jump\t// in\n    tag_60:\n      mload(0x40)\n      dup1\n      swap2\n      sub\n      swap1\n      log2\n        /* \"PFG/Verificador.sol\":1407:1818  function validate(address validador) public {\r... */\n      pop\n      jump\t// out\n        /* \"PFG/Verificador.sol\":1910:2310  function denegate() public {\r... */\n    tag_19:\n        /* \"PFG/Verificador.sol\":1970:1980  msg.sender */\n      caller\n        /* \"PFG/Verificador.sol\":1956:1980  propietari != msg.sender */\n      0xffffffffffffffffffffffffffffffffffffffff\n      and\n        /* \"PFG/Verificador.sol\":1956:1966  propietari */\n      0x00\n      dup1\n      sload\n      swap1\n      0x0100\n      exp\n      swap1\n      div\n      0xffffffffffffffffffffffffffffffffffffffff\n      and\n        /* \"PFG/Verificador.sol\":1956:1980  propietari != msg.sender */\n      0xffffffffffffffffffffffffffffffffffffffff\n      and\n      eq\n      iszero\n        /* \"PFG/Verificador.sol\":1948:2026  require(propietari != msg.sender, \"El propietari no pot validar el seu asset\") */\n      tag_63\n      jumpi\n      mload(0x40)\n      0x08c379a000000000000000000000000000000000000000000000000000000000\n      dup2\n      mstore\n      0x04\n      add\n      tag_64\n      swap1\n      tag_52\n      jump\t// in\n    tag_64:\n      mload(0x40)\n      dup1\n      swap2\n      sub\n      swap1\n      revert\n    tag_63:\n        /* \"PFG/Verificador.sol\":2046:2057  denegacions */\n      0x05\n        /* \"PFG/Verificador.sol\":2046:2069  denegacions[msg.sender] */\n      0x00\n        /* \"PFG/Verificador.sol\":2058:2068  msg.sender */\n      caller\n        /* \"PFG/Verificador.sol\":2046:2069  denegacions[msg.sender] */\n      0xffffffffffffffffffffffffffffffffffffffff\n      and\n      0xffffffffffffffffffffffffffffffffffffffff\n      and\n      dup2\n      mstore\n      0x20\n      add\n      swap1\n      dup2\n      mstore\n      0x20\n      add\n      0x00\n      keccak256\n      0x00\n      swap1\n      sload\n      swap1\n      0x0100\n      exp\n      swap1\n      div\n      0xff\n      and\n        /* \"PFG/Verificador.sol\":2045:2069  !denegacions[msg.sender] */\n      iszero\n        /* \"PFG/Verificador.sol\":2037:2091  require(!denegacions[msg.sender], \"Denegador repetit\") */\n      tag_65\n      jumpi\n      mload(0x40)\n      0x08c379a000000000000000000000000000000000000000000000000000000000\n      dup2\n      mstore\n      0x04\n      add\n      tag_66\n      swap1\n      tag_67\n      jump\t// in\n    tag_66:\n      mload(0x40)\n      dup1\n      swap2\n      sub\n      swap1\n      revert\n    tag_65:\n        /* \"PFG/Verificador.sol\":2111:2122  validacions */\n      0x04\n        /* \"PFG/Verificador.sol\":2111:2134  validacions[msg.sender] */\n      0x00\n        /* \"PFG/Verificador.sol\":2123:2133  msg.sender */\n      caller\n        /* \"PFG/Verificador.sol\":2111:2134  validacions[msg.sender] */\n      0xffffffffffffffffffffffffffffffffffffffff\n      and\n      0xffffffffffffffffffffffffffffffffffffffff\n      and\n      dup2\n      mstore\n      0x20\n      add\n      swap1\n      dup2\n      mstore\n      0x20\n      add\n      0x00\n      keccak256\n      0x00\n      swap1\n      sload\n      swap1\n      0x0100\n      exp\n      swap1\n      div\n      0xff\n      and\n        /* \"PFG/Verificador.sol\":2110:2134  !validacions[msg.sender] */\n      iszero\n        /* \"PFG/Verificador.sol\":2102:2171  require(!validacions[msg.sender], \"No pots validar i denegar alhora\") */\n      tag_68\n      jumpi\n      mload(0x40)\n      0x08c379a000000000000000000000000000000000000000000000000000000000\n      dup2\n      mstore\n      0x04\n      add\n      tag_69\n      swap1\n      tag_58\n      jump\t// in\n    tag_69:\n      mload(0x40)\n      dup1\n      swap2\n      sub\n      swap1\n      revert\n    tag_68:\n        /* \"PFG/Verificador.sol\":2182:2192  denegadors */\n      0x03\n        /* \"PFG/Verificador.sol\":2198:2208  msg.sender */\n      caller\n        /* \"PFG/Verificador.sol\":2182:2209  denegadors.push(msg.sender) */\n      swap1\n      dup1\n      0x01\n      dup2\n      sload\n      add\n      dup1\n      dup3\n      sstore\n      dup1\n      swap2\n      pop\n      pop\n      0x01\n      swap1\n      sub\n      swap1\n      0x00\n      mstore\n      keccak256(0x00, 0x20)\n      add\n      0x00\n      swap1\n      swap2\n      swap1\n      swap2\n      swap1\n      swap2\n      0x0100\n      exp\n      dup2\n      sload\n      dup2\n      0xffffffffffffffffffffffffffffffffffffffff\n      mul\n      not\n      and\n      swap1\n      dup4\n      0xffffffffffffffffffffffffffffffffffffffff\n      and\n      mul\n      or\n      swap1\n      sstore\n      pop\n        /* \"PFG/Verificador.sol\":2246:2250  true */\n      0x01\n        /* \"PFG/Verificador.sol\":2220:2231  denegacions */\n      0x05\n        /* \"PFG/Verificador.sol\":2220:2243  denegacions[msg.sender] */\n      0x00\n        /* \"PFG/Verificador.sol\":2232:2242  msg.sender */\n      caller\n        /* \"PFG/Verificador.sol\":2220:2243  denegacions[msg.sender] */\n      0xffffffffffffffffffffffffffffffffffffffff\n      and\n      0xffffffffffffffffffffffffffffffffffffffff\n      and\n      dup2\n      mstore\n      0x20\n      add\n      swap1\n      dup2\n      mstore\n      0x20\n      add\n      0x00\n      keccak256\n      0x00\n        /* \"PFG/Verificador.sol\":2220:2250  denegacions[msg.sender] = true */\n      0x0100\n      exp\n      dup2\n      sload\n      dup2\n      0xff\n      mul\n      not\n      and\n      swap1\n      dup4\n      iszero\n      iszero\n      mul\n      or\n      swap1\n      sstore\n      pop\n        /* \"PFG/Verificador.sol\":2279:2289  msg.sender */\n      caller\n        /* \"PFG/Verificador.sol\":2268:2300  Denegation(msg.sender, filename) */\n      0xffffffffffffffffffffffffffffffffffffffff\n      and\n      0x9036bc06ad4a578f0132d89ba4adc07b9772275526730acc38d7e4b4c11872a3\n        /* \"PFG/Verificador.sol\":2291:2299  filename */\n      0x01\n        /* \"PFG/Verificador.sol\":2268:2300  Denegation(msg.sender, filename) */\n      mload(0x40)\n      tag_71\n      swap2\n      swap1\n      tag_61\n      jump\t// in\n    tag_71:\n      mload(0x40)\n      dup1\n      swap2\n      sub\n      swap1\n      log2\n        /* \"PFG/Verificador.sol\":1910:2310  function denegate() public {\r... */\n      jump\t// out\n        /* \"PFG/Verificador.sol\":2318:2729  function denegate(address denegador) public {\r... */\n    tag_22:\n        /* \"PFG/Verificador.sol\":2395:2404  denegador */\n      dup1\n        /* \"PFG/Verificador.sol\":2381:2404  propietari != denegador */\n      0xffffffffffffffffffffffffffffffffffffffff\n      and\n        /* \"PFG/Verificador.sol\":2381:2391  propietari */\n      0x00\n      dup1\n      sload\n      swap1\n      0x0100\n      exp\n      swap1\n      div\n      0xffffffffffffffffffffffffffffffffffffffff\n      and\n        /* \"PFG/Verificador.sol\":2381:2404  propietari != denegador */\n      0xffffffffffffffffffffffffffffffffffffffff\n      and\n      eq\n      iszero\n        /* \"PFG/Verificador.sol\":2373:2450  require(propietari != denegador, \"El propietari no pot validar el seu asset\") */\n      tag_73\n      jumpi\n      mload(0x40)\n      0x08c379a000000000000000000000000000000000000000000000000000000000\n      dup2\n      mstore\n      0x04\n      add\n      tag_74\n      swap1\n      tag_52\n      jump\t// in\n    tag_74:\n      mload(0x40)\n      dup1\n      swap2\n      sub\n      swap1\n      revert\n    tag_73:\n        /* \"PFG/Verificador.sol\":2470:2481  denegacions */\n      0x05\n        /* \"PFG/Verificador.sol\":2470:2492  denegacions[denegador] */\n      0x00\n        /* \"PFG/Verificador.sol\":2482:2491  denegador */\n      dup3\n        /* \"PFG/Verificador.sol\":2470:2492  denegacions[denegador] */\n      0xffffffffffffffffffffffffffffffffffffffff\n      and\n      0xffffffffffffffffffffffffffffffffffffffff\n      and\n      dup2\n      mstore\n      0x20\n      add\n      swap1\n      dup2\n      mstore\n      0x20\n      add\n      0x00\n      keccak256\n      0x00\n      swap1\n      sload\n      swap1\n      0x0100\n      exp\n      swap1\n      div\n      0xff\n      and\n        /* \"PFG/Verificador.sol\":2469:2492  !denegacions[denegador] */\n      iszero\n        /* \"PFG/Verificador.sol\":2461:2514  require(!denegacions[denegador], \"Denegador repetit\") */\n      tag_75\n      jumpi\n      mload(0x40)\n      0x08c379a000000000000000000000000000000000000000000000000000000000\n      dup2\n      mstore\n      0x04\n      add\n      tag_76\n      swap1\n      tag_67\n      jump\t// in\n    tag_76:\n      mload(0x40)\n      dup1\n      swap2\n      sub\n      swap1\n      revert\n    tag_75:\n        /* \"PFG/Verificador.sol\":2534:2545  validacions */\n      0x04\n        /* \"PFG/Verificador.sol\":2534:2556  validacions[denegador] */\n      0x00\n        /* \"PFG/Verificador.sol\":2546:2555  denegador */\n      dup3\n        /* \"PFG/Verificador.sol\":2534:2556  validacions[denegador] */\n      0xffffffffffffffffffffffffffffffffffffffff\n      and\n      0xffffffffffffffffffffffffffffffffffffffff\n      and\n      dup2\n      mstore\n      0x20\n      add\n      swap1\n      dup2\n      mstore\n      0x20\n      add\n      0x00\n      keccak256\n      0x00\n      swap1\n      sload\n      swap1\n      0x0100\n      exp\n      swap1\n      div\n      0xff\n      and\n        /* \"PFG/Verificador.sol\":2533:2556  !validacions[denegador] */\n      iszero\n        /* \"PFG/Verificador.sol\":2525:2593  require(!validacions[denegador], \"No pots validar i denegar alhora\") */\n      tag_77\n      jumpi\n      mload(0x40)\n      0x08c379a000000000000000000000000000000000000000000000000000000000\n      dup2\n      mstore\n      0x04\n      add\n      tag_78\n      swap1\n      tag_58\n      jump\t// in\n    tag_78:\n      mload(0x40)\n      dup1\n      swap2\n      sub\n      swap1\n      revert\n    tag_77:\n        /* \"PFG/Verificador.sol\":2604:2614  denegadors */\n      0x03\n        /* \"PFG/Verificador.sol\":2620:2629  denegador */\n      dup2\n        /* \"PFG/Verificador.sol\":2604:2630  denegadors.push(denegador) */\n      swap1\n      dup1\n      0x01\n      dup2\n      sload\n      add\n      dup1\n      dup3\n      sstore\n      dup1\n      swap2\n      pop\n      pop\n      0x01\n      swap1\n      sub\n      swap1\n      0x00\n      mstore\n      keccak256(0x00, 0x20)\n      add\n      0x00\n      swap1\n      swap2\n      swap1\n      swap2\n      swap1\n      swap2\n      0x0100\n      exp\n      dup2\n      sload\n      dup2\n      0xffffffffffffffffffffffffffffffffffffffff\n      mul\n      not\n      and\n      swap1\n      dup4\n      0xffffffffffffffffffffffffffffffffffffffff\n      and\n      mul\n      or\n      swap1\n      sstore\n      pop\n        /* \"PFG/Verificador.sol\":2666:2670  true */\n      0x01\n        /* \"PFG/Verificador.sol\":2641:2652  denegacions */\n      0x05\n        /* \"PFG/Verificador.sol\":2641:2663  denegacions[denegador] */\n      0x00\n        /* \"PFG/Verificador.sol\":2653:2662  denegador */\n      dup4\n        /* \"PFG/Verificador.sol\":2641:2663  denegacions[denegador] */\n      0xffffffffffffffffffffffffffffffffffffffff\n      and\n      0xffffffffffffffffffffffffffffffffffffffff\n      and\n      dup2\n      mstore\n      0x20\n      add\n      swap1\n      dup2\n      mstore\n      0x20\n      add\n      0x00\n      keccak256\n      0x00\n        /* \"PFG/Verificador.sol\":2641:2670  denegacions[denegador] = true */\n      0x0100\n      exp\n      dup2\n      sload\n      dup2\n      0xff\n      mul\n      not\n      and\n      swap1\n      dup4\n      iszero\n      iszero\n      mul\n      or\n      swap1\n      sstore\n      pop\n        /* \"PFG/Verificador.sol\":2699:2708  denegador */\n      dup1\n        /* \"PFG/Verificador.sol\":2688:2719  Denegation(denegador, filename) */\n      0xffffffffffffffffffffffffffffffffffffffff\n      and\n      0x9036bc06ad4a578f0132d89ba4adc07b9772275526730acc38d7e4b4c11872a3\n        /* \"PFG/Verificador.sol\":2710:2718  filename */\n      0x01\n        /* \"PFG/Verificador.sol\":2688:2719  Denegation(denegador, filename) */\n      mload(0x40)\n      tag_80\n      swap2\n      swap1\n      tag_61\n      jump\t// in\n    tag_80:\n      mload(0x40)\n      dup1\n      swap2\n      sub\n      swap1\n      log2\n        /* \"PFG/Verificador.sol\":2318:2729  function denegate(address denegador) public {\r... */\n      pop\n      jump\t// out\n        /* \"PFG/Verificador.sol\":3356:3452  function nDenegations() public view returns(uint256) {\r... */\n    tag_24:\n        /* \"PFG/Verificador.sol\":3400:3407  uint256 */\n      0x00\n        /* \"PFG/Verificador.sol\":3427:3437  denegadors */\n      0x03\n        /* \"PFG/Verificador.sol\":3427:3444  denegadors.length */\n      dup1\n      sload\n      swap1\n      pop\n        /* \"PFG/Verificador.sol\":3420:3444  return denegadors.length */\n      swap1\n      pop\n        /* \"PFG/Verificador.sol\":3356:3452  function nDenegations() public view returns(uint256) {\r... */\n      swap1\n      jump\t// out\n        /* \"PFG/Verificador.sol\":999:1399  function validate() public {\r... */\n    tag_28:\n        /* \"PFG/Verificador.sol\":1059:1069  msg.sender */\n      caller\n        /* \"PFG/Verificador.sol\":1045:1069  propietari != msg.sender */\n      0xffffffffffffffffffffffffffffffffffffffff\n      and\n        /* \"PFG/Verificador.sol\":1045:1055  propietari */\n      0x00\n      dup1\n      sload\n      swap1\n      0x0100\n      exp\n      swap1\n      div\n      0xffffffffffffffffffffffffffffffffffffffff\n      and\n        /* \"PFG/Verificador.sol\":1045:1069  propietari != msg.sender */\n      0xffffffffffffffffffffffffffffffffffffffff\n      and\n      eq\n      iszero\n        /* \"PFG/Verificador.sol\":1037:1115  require(propietari != msg.sender, \"El propietari no pot validar el seu asset\") */\n      tag_83\n      jumpi\n      mload(0x40)\n      0x08c379a000000000000000000000000000000000000000000000000000000000\n      dup2\n      mstore\n      0x04\n      add\n      tag_84\n      swap1\n      tag_52\n      jump\t// in\n    tag_84:\n      mload(0x40)\n      dup1\n      swap2\n      sub\n      swap1\n      revert\n    tag_83:\n        /* \"PFG/Verificador.sol\":1135:1146  validacions */\n      0x04\n        /* \"PFG/Verificador.sol\":1135:1158  validacions[msg.sender] */\n      0x00\n        /* \"PFG/Verificador.sol\":1147:1157  msg.sender */\n      caller\n        /* \"PFG/Verificador.sol\":1135:1158  validacions[msg.sender] */\n      0xffffffffffffffffffffffffffffffffffffffff\n      and\n      0xffffffffffffffffffffffffffffffffffffffff\n      and\n      dup2\n      mstore\n      0x20\n      add\n      swap1\n      dup2\n      mstore\n      0x20\n      add\n      0x00\n      keccak256\n      0x00\n      swap1\n      sload\n      swap1\n      0x0100\n      exp\n      swap1\n      div\n      0xff\n      and\n        /* \"PFG/Verificador.sol\":1134:1158  !validacions[msg.sender] */\n      iszero\n        /* \"PFG/Verificador.sol\":1126:1180  require(!validacions[msg.sender], \"Validador repetit\") */\n      tag_85\n      jumpi\n      mload(0x40)\n      0x08c379a000000000000000000000000000000000000000000000000000000000\n      dup2\n      mstore\n      0x04\n      add\n      tag_86\n      swap1\n      tag_55\n      jump\t// in\n    tag_86:\n      mload(0x40)\n      dup1\n      swap2\n      sub\n      swap1\n      revert\n    tag_85:\n        /* \"PFG/Verificador.sol\":1200:1211  denegacions */\n      0x05\n        /* \"PFG/Verificador.sol\":1200:1223  denegacions[msg.sender] */\n      0x00\n        /* \"PFG/Verificador.sol\":1212:1222  msg.sender */\n      caller\n        /* \"PFG/Verificador.sol\":1200:1223  denegacions[msg.sender] */\n      0xffffffffffffffffffffffffffffffffffffffff\n      and\n      0xffffffffffffffffffffffffffffffffffffffff\n      and\n      dup2\n      mstore\n      0x20\n      add\n      swap1\n      dup2\n      mstore\n      0x20\n      add\n      0x00\n      keccak256\n      0x00\n      swap1\n      sload\n      swap1\n      0x0100\n      exp\n      swap1\n      div\n      0xff\n      and\n        /* \"PFG/Verificador.sol\":1199:1223  !denegacions[msg.sender] */\n      iszero\n        /* \"PFG/Verificador.sol\":1191:1260  require(!denegacions[msg.sender], \"No pots validar i denegar alhora\") */\n      tag_87\n      jumpi\n      mload(0x40)\n      0x08c379a000000000000000000000000000000000000000000000000000000000\n      dup2\n      mstore\n      0x04\n      add\n      tag_88\n      swap1\n      tag_58\n      jump\t// in\n    tag_88:\n      mload(0x40)\n      dup1\n      swap2\n      sub\n      swap1\n      revert\n    tag_87:\n        /* \"PFG/Verificador.sol\":1271:1281  validadors */\n      0x02\n        /* \"PFG/Verificador.sol\":1287:1297  msg.sender */\n      caller\n        /* \"PFG/Verificador.sol\":1271:1298  validadors.push(msg.sender) */\n      swap1\n      dup1\n      0x01\n      dup2\n      sload\n      add\n      dup1\n      dup3\n      sstore\n      dup1\n      swap2\n      pop\n      pop\n      0x01\n      swap1\n      sub\n      swap1\n      0x00\n      mstore\n      keccak256(0x00, 0x20)\n      add\n      0x00\n      swap1\n      swap2\n      swap1\n      swap2\n      swap1\n      swap2\n      0x0100\n      exp\n      dup2\n      sload\n      dup2\n      0xffffffffffffffffffffffffffffffffffffffff\n      mul\n      not\n      and\n      swap1\n      dup4\n      0xffffffffffffffffffffffffffffffffffffffff\n      and\n      mul\n      or\n      swap1\n      sstore\n      pop\n        /* \"PFG/Verificador.sol\":1335:1339  true */\n      0x01\n        /* \"PFG/Verificador.sol\":1309:1320  validacions */\n      0x04\n        /* \"PFG/Verificador.sol\":1309:1332  validacions[msg.sender] */\n      0x00\n        /* \"PFG/Verificador.sol\":1321:1331  msg.sender */\n      caller\n        /* \"PFG/Verificador.sol\":1309:1332  validacions[msg.sender] */\n      0xffffffffffffffffffffffffffffffffffffffff\n      and\n      0xffffffffffffffffffffffffffffffffffffffff\n      and\n      dup2\n      mstore\n      0x20\n      add\n      swap1\n      dup2\n      mstore\n      0x20\n      add\n      0x00\n      keccak256\n      0x00\n        /* \"PFG/Verificador.sol\":1309:1339  validacions[msg.sender] = true */\n      0x0100\n      exp\n      dup2\n      sload\n      dup2\n      0xff\n      mul\n      not\n      and\n      swap1\n      dup4\n      iszero\n      iszero\n      mul\n      or\n      swap1\n      sstore\n      pop\n        /* \"PFG/Verificador.sol\":1368:1378  msg.sender */\n      caller\n        /* \"PFG/Verificador.sol\":1357:1389  Validation(msg.sender, filename) */\n      0xffffffffffffffffffffffffffffffffffffffff\n      and\n      0x57d77eb32e87e8c65c7cec1df5b0e8a8d5c4eae1b40c7246e7668ed702dd247a\n        /* \"PFG/Verificador.sol\":1380:1388  filename */\n      0x01\n        /* \"PFG/Verificador.sol\":1357:1389  Validation(msg.sender, filename) */\n      mload(0x40)\n      tag_90\n      swap2\n      swap1\n      tag_61\n      jump\t// in\n    tag_90:\n      mload(0x40)\n      dup1\n      swap2\n      sub\n      swap1\n      log2\n        /* \"PFG/Verificador.sol\":999:1399  function validate() public {\r... */\n      jump\t// out\n        /* \"PFG/Verificador.sol\":3061:3145  function getOwner() public view returns(address){\r... */\n    tag_30:\n        /* \"PFG/Verificador.sol\":3101:3108  address */\n      0x00\n        /* \"PFG/Verificador.sol\":3127:3137  propietari */\n      dup1\n      0x00\n      swap1\n      sload\n      swap1\n      0x0100\n      exp\n      swap1\n      div\n      0xffffffffffffffffffffffffffffffffffffffff\n      and\n        /* \"PFG/Verificador.sol\":3120:3137  return propietari */\n      swap1\n      pop\n        /* \"PFG/Verificador.sol\":3061:3145  function getOwner() public view returns(address){\r... */\n      swap1\n      jump\t// out\n        /* \"PFG/Verificador.sol\":3252:3348  function nValidations() public view returns(uint256) {\r... */\n    tag_34:\n        /* \"PFG/Verificador.sol\":3296:3303  uint256 */\n      0x00\n        /* \"PFG/Verificador.sol\":3323:3333  validadors */\n      0x02\n        /* \"PFG/Verificador.sol\":3323:3340  validadors.length */\n      dup1\n      sload\n      swap1\n      pop\n        /* \"PFG/Verificador.sol\":3316:3340  return validadors.length */\n      swap1\n      pop\n        /* \"PFG/Verificador.sol\":3252:3348  function nValidations() public view returns(uint256) {\r... */\n      swap1\n      jump\t// out\n        /* \"PFG/Verificador.sol\":2910:3053  function hasDenied(address _user) public view returns(bool) {\r... */\n    tag_38:\n        /* \"PFG/Verificador.sol\":2964:2968  bool */\n      0x00\n        /* \"PFG/Verificador.sol\":3003:3008  _user */\n      dup2\n        /* \"PFG/Verificador.sol\":2989:3008  propietari != _user */\n      0xffffffffffffffffffffffffffffffffffffffff\n      and\n        /* \"PFG/Verificador.sol\":2989:2999  propietari */\n      0x00\n      dup1\n      sload\n      swap1\n      0x0100\n      exp\n      swap1\n      div\n      0xffffffffffffffffffffffffffffffffffffffff\n      and\n        /* \"PFG/Verificador.sol\":2989:3008  propietari != _user */\n      0xffffffffffffffffffffffffffffffffffffffff\n      and\n      eq\n      iszero\n        /* \"PFG/Verificador.sol\":2981:3009  require(propietari != _user) */\n      tag_94\n      jumpi\n      0x00\n      dup1\n      revert\n    tag_94:\n        /* \"PFG/Verificador.sol\":3027:3038  denegacions */\n      0x05\n        /* \"PFG/Verificador.sol\":3027:3045  denegacions[_user] */\n      0x00\n        /* \"PFG/Verificador.sol\":3039:3044  _user */\n      dup4\n        /* \"PFG/Verificador.sol\":3027:3045  denegacions[_user] */\n      0xffffffffffffffffffffffffffffffffffffffff\n      and\n      0xffffffffffffffffffffffffffffffffffffffff\n      and\n      dup2\n      mstore\n      0x20\n      add\n      swap1\n      dup2\n      mstore\n      0x20\n      add\n      0x00\n      keccak256\n      0x00\n      swap1\n      sload\n      swap1\n      0x0100\n      exp\n      swap1\n      div\n      0xff\n      and\n        /* \"PFG/Verificador.sol\":3020:3045  return denegacions[_user] */\n      swap1\n      pop\n        /* \"PFG/Verificador.sol\":2910:3053  function hasDenied(address _user) public view returns(bool) {\r... */\n      swap2\n      swap1\n      pop\n      jump\t// out\n        /* \"PFG/Verificador.sol\":2756:2902  function hasValidated(address _user) public view returns(bool) {\r... */\n    tag_43:\n        /* \"PFG/Verificador.sol\":2813:2817  bool */\n      0x00\n        /* \"PFG/Verificador.sol\":2852:2857  _user */\n      dup2\n        /* \"PFG/Verificador.sol\":2838:2857  propietari != _user */\n      0xffffffffffffffffffffffffffffffffffffffff\n      and\n        /* \"PFG/Verificador.sol\":2838:2848  propietari */\n      0x00\n      dup1\n      sload\n      swap1\n      0x0100\n      exp\n      swap1\n      div\n      0xffffffffffffffffffffffffffffffffffffffff\n      and\n        /* \"PFG/Verificador.sol\":2838:2857  propietari != _user */\n      0xffffffffffffffffffffffffffffffffffffffff\n      and\n      eq\n      iszero\n        /* \"PFG/Verificador.sol\":2830:2858  require(propietari != _user) */\n      tag_96\n      jumpi\n      0x00\n      dup1\n      revert\n    tag_96:\n        /* \"PFG/Verificador.sol\":2876:2887  validacions */\n      0x04\n        /* \"PFG/Verificador.sol\":2876:2894  validacions[_user] */\n      0x00\n        /* \"PFG/Verificador.sol\":2888:2893  _user */\n      dup4\n        /* \"PFG/Verificador.sol\":2876:2894  validacions[_user] */\n      0xffffffffffffffffffffffffffffffffffffffff\n      and\n      0xffffffffffffffffffffffffffffffffffffffff\n      and\n      dup2\n      mstore\n      0x20\n      add\n      swap1\n      dup2\n      mstore\n      0x20\n      add\n      0x00\n      keccak256\n      0x00\n      swap1\n      sload\n      swap1\n      0x0100\n      exp\n      swap1\n      div\n      0xff\n      and\n        /* \"PFG/Verificador.sol\":2869:2894  return validacions[_user] */\n      swap1\n      pop\n        /* \"PFG/Verificador.sol\":2756:2902  function hasValidated(address _user) public view returns(bool) {\r... */\n      swap2\n      swap1\n      pop\n      jump\t// out\n        /* \"PFG/Verificador.sol\":3153:3244  function getFilename() public view returns(string memory){\r... */\n    tag_46:\n        /* \"PFG/Verificador.sol\":3196:3209  string memory */\n      0x60\n        /* \"PFG/Verificador.sol\":3228:3236  filename */\n      0x01\n        /* \"PFG/Verificador.sol\":3221:3236  return filename */\n      dup1\n      sload\n      tag_98\n      swap1\n      tag_99\n      jump\t// in\n    tag_98:\n      dup1\n      0x1f\n      add\n      0x20\n      dup1\n      swap2\n      div\n      mul\n      0x20\n      add\n      mload(0x40)\n      swap1\n      dup2\n      add\n      0x40\n      mstore\n      dup1\n      swap3\n      swap2\n      swap1\n      dup2\n      dup2\n      mstore\n      0x20\n      add\n      dup3\n      dup1\n      sload\n      tag_100\n      swap1\n      tag_99\n      jump\t// in\n    tag_100:\n      dup1\n      iszero\n      tag_101\n      jumpi\n      dup1\n      0x1f\n      lt\n      tag_102\n      jumpi\n      0x0100\n      dup1\n      dup4\n      sload\n      div\n      mul\n      dup4\n      mstore\n      swap2\n      0x20\n      add\n      swap2\n      jump(tag_101)\n    tag_102:\n      dup3\n      add\n      swap2\n      swap1\n      0x00\n      mstore\n      keccak256(0x00, 0x20)\n      swap1\n    tag_103:\n      dup2\n      sload\n      dup2\n      mstore\n      swap1\n      0x01\n      add\n      swap1\n      0x20\n      add\n      dup1\n      dup4\n      gt\n      tag_103\n      jumpi\n      dup3\n      swap1\n      sub\n      0x1f\n      and\n      dup3\n      add\n      swap2\n    tag_101:\n      pop\n      pop\n      pop\n      pop\n      pop\n      swap1\n      pop\n        /* \"PFG/Verificador.sol\":3153:3244  function getFilename() public view returns(string memory){\r... */\n      swap1\n      jump\t// out\n        /* \"#utility.yul\":7:146   */\n    tag_105:\n        /* \"#utility.yul\":53:58   */\n      0x00\n        /* \"#utility.yul\":91:97   */\n      dup2\n        /* \"#utility.yul\":78:98   */\n      calldataload\n        /* \"#utility.yul\":69:98   */\n      swap1\n      pop\n        /* \"#utility.yul\":107:140   */\n      tag_107\n        /* \"#utility.yul\":134:139   */\n      dup2\n        /* \"#utility.yul\":107:140   */\n      tag_108\n      jump\t// in\n    tag_107:\n        /* \"#utility.yul\":7:146   */\n      swap3\n      swap2\n      pop\n      pop\n      jump\t// out\n        /* \"#utility.yul\":152:481   */\n    tag_16:\n        /* \"#utility.yul\":211:217   */\n      0x00\n        /* \"#utility.yul\":260:262   */\n      0x20\n        /* \"#utility.yul\":248:257   */\n      dup3\n        /* \"#utility.yul\":239:246   */\n      dup5\n        /* \"#utility.yul\":235:258   */\n      sub\n        /* \"#utility.yul\":231:263   */\n      slt\n        /* \"#utility.yul\":228:347   */\n      iszero\n      tag_110\n      jumpi\n        /* \"#utility.yul\":266:345   */\n      tag_111\n      tag_112\n      jump\t// in\n    tag_111:\n        /* \"#utility.yul\":228:347   */\n    tag_110:\n        /* \"#utility.yul\":386:387   */\n      0x00\n        /* \"#utility.yul\":411:464   */\n      tag_113\n        /* \"#utility.yul\":456:463   */\n      dup5\n        /* \"#utility.yul\":447:453   */\n      dup3\n        /* \"#utility.yul\":436:445   */\n      dup6\n        /* \"#utility.yul\":432:454   */\n      add\n        /* \"#utility.yul\":411:464   */\n      tag_105\n      jump\t// in\n    tag_113:\n        /* \"#utility.yul\":401:464   */\n      swap2\n      pop\n        /* \"#utility.yul\":357:474   */\n      pop\n        /* \"#utility.yul\":152:481   */\n      swap3\n      swap2\n      pop\n      pop\n      jump\t// out\n        /* \"#utility.yul\":487:605   */\n    tag_114:\n        /* \"#utility.yul\":574:598   */\n      tag_116\n        /* \"#utility.yul\":592:597   */\n      dup2\n        /* \"#utility.yul\":574:598   */\n      tag_117\n      jump\t// in\n    tag_116:\n        /* \"#utility.yul\":569:572   */\n      dup3\n        /* \"#utility.yul\":562:599   */\n      mstore\n        /* \"#utility.yul\":487:605   */\n      pop\n      pop\n      jump\t// out\n        /* \"#utility.yul\":611:720   */\n    tag_118:\n        /* \"#utility.yul\":692:713   */\n      tag_120\n        /* \"#utility.yul\":707:712   */\n      dup2\n        /* \"#utility.yul\":692:713   */\n      tag_121\n      jump\t// in\n    tag_120:\n        /* \"#utility.yul\":687:690   */\n      dup3\n        /* \"#utility.yul\":680:714   */\n      mstore\n        /* \"#utility.yul\":611:720   */\n      pop\n      pop\n      jump\t// out\n        /* \"#utility.yul\":726:1090   */\n    tag_122:\n        /* \"#utility.yul\":814:817   */\n      0x00\n        /* \"#utility.yul\":842:881   */\n      tag_124\n        /* \"#utility.yul\":875:880   */\n      dup3\n        /* \"#utility.yul\":842:881   */\n      tag_125\n      jump\t// in\n    tag_124:\n        /* \"#utility.yul\":897:968   */\n      tag_126\n        /* \"#utility.yul\":961:967   */\n      dup2\n        /* \"#utility.yul\":956:959   */\n      dup6\n        /* \"#utility.yul\":897:968   */\n      tag_127\n      jump\t// in\n    tag_126:\n        /* \"#utility.yul\":890:968   */\n      swap4\n      pop\n        /* \"#utility.yul\":977:1029   */\n      tag_128\n        /* \"#utility.yul\":1022:1028   */\n      dup2\n        /* \"#utility.yul\":1017:1020   */\n      dup6\n        /* \"#utility.yul\":1010:1014   */\n      0x20\n        /* \"#utility.yul\":1003:1008   */\n      dup7\n        /* \"#utility.yul\":999:1015   */\n      add\n        /* \"#utility.yul\":977:1029   */\n      tag_129\n      jump\t// in\n    tag_128:\n        /* \"#utility.yul\":1054:1083   */\n      tag_130\n        /* \"#utility.yul\":1076:1082   */\n      dup2\n        /* \"#utility.yul\":1054:1083   */\n      tag_131\n      jump\t// in\n    tag_130:\n        /* \"#utility.yul\":1049:1052   */\n      dup5\n        /* \"#utility.yul\":1045:1084   */\n      add\n        /* \"#utility.yul\":1038:1084   */\n      swap2\n      pop\n        /* \"#utility.yul\":818:1090   */\n      pop\n        /* \"#utility.yul\":726:1090   */\n      swap3\n      swap2\n      pop\n      pop\n      jump\t// out\n        /* \"#utility.yul\":1120:1922   */\n    tag_132:\n        /* \"#utility.yul\":1205:1208   */\n      0x00\n        /* \"#utility.yul\":1242:1247   */\n      dup2\n        /* \"#utility.yul\":1236:1248   */\n      sload\n        /* \"#utility.yul\":1271:1307   */\n      tag_134\n        /* \"#utility.yul\":1297:1306   */\n      dup2\n        /* \"#utility.yul\":1271:1307   */\n      tag_99\n      jump\t// in\n    tag_134:\n        /* \"#utility.yul\":1323:1394   */\n      tag_135\n        /* \"#utility.yul\":1387:1393   */\n      dup2\n        /* \"#utility.yul\":1382:1385   */\n      dup7\n        /* \"#utility.yul\":1323:1394   */\n      tag_127\n      jump\t// in\n    tag_135:\n        /* \"#utility.yul\":1316:1394   */\n      swap5\n      pop\n        /* \"#utility.yul\":1425:1426   */\n      0x01\n        /* \"#utility.yul\":1414:1423   */\n      dup3\n        /* \"#utility.yul\":1410:1427   */\n      and\n        /* \"#utility.yul\":1441:1442   */\n      0x00\n        /* \"#utility.yul\":1436:1571   */\n      dup2\n      eq\n      tag_137\n      jumpi\n        /* \"#utility.yul\":1585:1586   */\n      0x01\n        /* \"#utility.yul\":1580:1916   */\n      dup2\n      eq\n      tag_138\n      jumpi\n        /* \"#utility.yul\":1403:1916   */\n      jump(tag_136)\n        /* \"#utility.yul\":1436:1571   */\n    tag_137:\n        /* \"#utility.yul\":1520:1524   */\n      0xff\n        /* \"#utility.yul\":1516:1525   */\n      not\n        /* \"#utility.yul\":1505:1514   */\n      dup4\n        /* \"#utility.yul\":1501:1526   */\n      and\n        /* \"#utility.yul\":1496:1499   */\n      dup7\n        /* \"#utility.yul\":1489:1527   */\n      mstore\n        /* \"#utility.yul\":1556:1560   */\n      0x20\n        /* \"#utility.yul\":1551:1554   */\n      dup7\n        /* \"#utility.yul\":1547:1561   */\n      add\n        /* \"#utility.yul\":1540:1561   */\n      swap4\n      pop\n        /* \"#utility.yul\":1436:1571   */\n      jump(tag_136)\n        /* \"#utility.yul\":1580:1916   */\n    tag_138:\n        /* \"#utility.yul\":1647:1685   */\n      tag_139\n        /* \"#utility.yul\":1679:1684   */\n      dup6\n        /* \"#utility.yul\":1647:1685   */\n      tag_140\n      jump\t// in\n    tag_139:\n        /* \"#utility.yul\":1707:1708   */\n      0x00\n        /* \"#utility.yul\":1721:1875   */\n    tag_141:\n        /* \"#utility.yul\":1735:1741   */\n      dup4\n        /* \"#utility.yul\":1732:1733   */\n      dup2\n        /* \"#utility.yul\":1729:1742   */\n      lt\n        /* \"#utility.yul\":1721:1875   */\n      iszero\n      tag_143\n      jumpi\n        /* \"#utility.yul\":1809:1816   */\n      dup2\n        /* \"#utility.yul\":1803:1817   */\n      sload\n        /* \"#utility.yul\":1799:1800   */\n      dup2\n        /* \"#utility.yul\":1794:1797   */\n      dup10\n        /* \"#utility.yul\":1790:1801   */\n      add\n        /* \"#utility.yul\":1783:1818   */\n      mstore\n        /* \"#utility.yul\":1859:1860   */\n      0x01\n        /* \"#utility.yul\":1850:1857   */\n      dup3\n        /* \"#utility.yul\":1846:1861   */\n      add\n        /* \"#utility.yul\":1835:1861   */\n      swap2\n      pop\n        /* \"#utility.yul\":1757:1761   */\n      0x20\n        /* \"#utility.yul\":1754:1755   */\n      dup2\n        /* \"#utility.yul\":1750:1762   */\n      add\n        /* \"#utility.yul\":1745:1762   */\n      swap1\n      pop\n        /* \"#utility.yul\":1721:1875   */\n      jump(tag_141)\n    tag_143:\n        /* \"#utility.yul\":1904:1905   */\n      dup1\n        /* \"#utility.yul\":1899:1902   */\n      dup9\n        /* \"#utility.yul\":1895:1906   */\n      add\n        /* \"#utility.yul\":1888:1906   */\n      swap6\n      pop\n        /* \"#utility.yul\":1587:1916   */\n      pop\n      pop\n        /* \"#utility.yul\":1403:1916   */\n    tag_136:\n      pop\n        /* \"#utility.yul\":1209:1922   */\n      pop\n      pop\n        /* \"#utility.yul\":1120:1922   */\n      swap3\n      swap2\n      pop\n      pop\n      jump\t// out\n        /* \"#utility.yul\":1928:2294   */\n    tag_144:\n        /* \"#utility.yul\":2070:2073   */\n      0x00\n        /* \"#utility.yul\":2091:2158   */\n      tag_146\n        /* \"#utility.yul\":2155:2157   */\n      0x20\n        /* \"#utility.yul\":2150:2153   */\n      dup4\n        /* \"#utility.yul\":2091:2158   */\n      tag_127\n      jump\t// in\n    tag_146:\n        /* \"#utility.yul\":2084:2158   */\n      swap2\n      pop\n        /* \"#utility.yul\":2167:2260   */\n      tag_147\n        /* \"#utility.yul\":2256:2259   */\n      dup3\n        /* \"#utility.yul\":2167:2260   */\n      tag_148\n      jump\t// in\n    tag_147:\n        /* \"#utility.yul\":2285:2287   */\n      0x20\n        /* \"#utility.yul\":2280:2283   */\n      dup3\n        /* \"#utility.yul\":2276:2288   */\n      add\n        /* \"#utility.yul\":2269:2288   */\n      swap1\n      pop\n        /* \"#utility.yul\":1928:2294   */\n      swap2\n      swap1\n      pop\n      jump\t// out\n        /* \"#utility.yul\":2300:2666   */\n    tag_149:\n        /* \"#utility.yul\":2442:2445   */\n      0x00\n        /* \"#utility.yul\":2463:2530   */\n      tag_151\n        /* \"#utility.yul\":2527:2529   */\n      0x29\n        /* \"#utility.yul\":2522:2525   */\n      dup4\n        /* \"#utility.yul\":2463:2530   */\n      tag_127\n      jump\t// in\n    tag_151:\n        /* \"#utility.yul\":2456:2530   */\n      swap2\n      pop\n        /* \"#utility.yul\":2539:2632   */\n      tag_152\n        /* \"#utility.yul\":2628:2631   */\n      dup3\n        /* \"#utility.yul\":2539:2632   */\n      tag_153\n      jump\t// in\n    tag_152:\n        /* \"#utility.yul\":2657:2659   */\n      0x40\n        /* \"#utility.yul\":2652:2655   */\n      dup3\n        /* \"#utility.yul\":2648:2660   */\n      add\n        /* \"#utility.yul\":2641:2660   */\n      swap1\n      pop\n        /* \"#utility.yul\":2300:2666   */\n      swap2\n      swap1\n      pop\n      jump\t// out\n        /* \"#utility.yul\":2672:3038   */\n    tag_154:\n        /* \"#utility.yul\":2814:2817   */\n      0x00\n        /* \"#utility.yul\":2835:2902   */\n      tag_156\n        /* \"#utility.yul\":2899:2901   */\n      0x11\n        /* \"#utility.yul\":2894:2897   */\n      dup4\n        /* \"#utility.yul\":2835:2902   */\n      tag_127\n      jump\t// in\n    tag_156:\n        /* \"#utility.yul\":2828:2902   */\n      swap2\n      pop\n        /* \"#utility.yul\":2911:3004   */\n      tag_157\n        /* \"#utility.yul\":3000:3003   */\n      dup3\n        /* \"#utility.yul\":2911:3004   */\n      tag_158\n      jump\t// in\n    tag_157:\n        /* \"#utility.yul\":3029:3031   */\n      0x20\n        /* \"#utility.yul\":3024:3027   */\n      dup3\n        /* \"#utility.yul\":3020:3032   */\n      add\n        /* \"#utility.yul\":3013:3032   */\n      swap1\n      pop\n        /* \"#utility.yul\":2672:3038   */\n      swap2\n      swap1\n      pop\n      jump\t// out\n        /* \"#utility.yul\":3044:3410   */\n    tag_159:\n        /* \"#utility.yul\":3186:3189   */\n      0x00\n        /* \"#utility.yul\":3207:3274   */\n      tag_161\n        /* \"#utility.yul\":3271:3273   */\n      0x11\n        /* \"#utility.yul\":3266:3269   */\n      dup4\n        /* \"#utility.yul\":3207:3274   */\n      tag_127\n      jump\t// in\n    tag_161:\n        /* \"#utility.yul\":3200:3274   */\n      swap2\n      pop\n        /* \"#utility.yul\":3283:3376   */\n      tag_162\n        /* \"#utility.yul\":3372:3375   */\n      dup3\n        /* \"#utility.yul\":3283:3376   */\n      tag_163\n      jump\t// in\n    tag_162:\n        /* \"#utility.yul\":3401:3403   */\n      0x20\n        /* \"#utility.yul\":3396:3399   */\n      dup3\n        /* \"#utility.yul\":3392:3404   */\n      add\n        /* \"#utility.yul\":3385:3404   */\n      swap1\n      pop\n        /* \"#utility.yul\":3044:3410   */\n      swap2\n      swap1\n      pop\n      jump\t// out\n        /* \"#utility.yul\":3416:3534   */\n    tag_164:\n        /* \"#utility.yul\":3503:3527   */\n      tag_166\n        /* \"#utility.yul\":3521:3526   */\n      dup2\n        /* \"#utility.yul\":3503:3527   */\n      tag_167\n      jump\t// in\n    tag_166:\n        /* \"#utility.yul\":3498:3501   */\n      dup3\n        /* \"#utility.yul\":3491:3528   */\n      mstore\n        /* \"#utility.yul\":3416:3534   */\n      pop\n      pop\n      jump\t// out\n        /* \"#utility.yul\":3540:3762   */\n    tag_32:\n        /* \"#utility.yul\":3633:3637   */\n      0x00\n        /* \"#utility.yul\":3671:3673   */\n      0x20\n        /* \"#utility.yul\":3660:3669   */\n      dup3\n        /* \"#utility.yul\":3656:3674   */\n      add\n        /* \"#utility.yul\":3648:3674   */\n      swap1\n      pop\n        /* \"#utility.yul\":3684:3755   */\n      tag_169\n        /* \"#utility.yul\":3752:3753   */\n      0x00\n        /* \"#utility.yul\":3741:3750   */\n      dup4\n        /* \"#utility.yul\":3737:3754   */\n      add\n        /* \"#utility.yul\":3728:3734   */\n      dup5\n        /* \"#utility.yul\":3684:3755   */\n      tag_114\n      jump\t// in\n    tag_169:\n        /* \"#utility.yul\":3540:3762   */\n      swap3\n      swap2\n      pop\n      pop\n      jump\t// out\n        /* \"#utility.yul\":3768:3978   */\n    tag_40:\n        /* \"#utility.yul\":3855:3859   */\n      0x00\n        /* \"#utility.yul\":3893:3895   */\n      0x20\n        /* \"#utility.yul\":3882:3891   */\n      dup3\n        /* \"#utility.yul\":3878:3896   */\n      add\n        /* \"#utility.yul\":3870:3896   */\n      swap1\n      pop\n        /* \"#utility.yul\":3906:3971   */\n      tag_171\n        /* \"#utility.yul\":3968:3969   */\n      0x00\n        /* \"#utility.yul\":3957:3966   */\n      dup4\n        /* \"#utility.yul\":3953:3970   */\n      add\n        /* \"#utility.yul\":3944:3950   */\n      dup5\n        /* \"#utility.yul\":3906:3971   */\n      tag_118\n      jump\t// in\n    tag_171:\n        /* \"#utility.yul\":3768:3978   */\n      swap3\n      swap2\n      pop\n      pop\n      jump\t// out\n        /* \"#utility.yul\":3984:4297   */\n    tag_48:\n        /* \"#utility.yul\":4097:4101   */\n      0x00\n        /* \"#utility.yul\":4135:4137   */\n      0x20\n        /* \"#utility.yul\":4124:4133   */\n      dup3\n        /* \"#utility.yul\":4120:4138   */\n      add\n        /* \"#utility.yul\":4112:4138   */\n      swap1\n      pop\n        /* \"#utility.yul\":4184:4193   */\n      dup2\n        /* \"#utility.yul\":4178:4182   */\n      dup2\n        /* \"#utility.yul\":4174:4194   */\n      sub\n        /* \"#utility.yul\":4170:4171   */\n      0x00\n        /* \"#utility.yul\":4159:4168   */\n      dup4\n        /* \"#utility.yul\":4155:4172   */\n      add\n        /* \"#utility.yul\":4148:4195   */\n      mstore\n        /* \"#utility.yul\":4212:4290   */\n      tag_173\n        /* \"#utility.yul\":4285:4289   */\n      dup2\n        /* \"#utility.yul\":4276:4282   */\n      dup5\n        /* \"#utility.yul\":4212:4290   */\n      tag_122\n      jump\t// in\n    tag_173:\n        /* \"#utility.yul\":4204:4290   */\n      swap1\n      pop\n        /* \"#utility.yul\":3984:4297   */\n      swap3\n      swap2\n      pop\n      pop\n      jump\t// out\n        /* \"#utility.yul\":4303:4610   */\n    tag_61:\n        /* \"#utility.yul\":4413:4417   */\n      0x00\n        /* \"#utility.yul\":4451:4453   */\n      0x20\n        /* \"#utility.yul\":4440:4449   */\n      dup3\n        /* \"#utility.yul\":4436:4454   */\n      add\n        /* \"#utility.yul\":4428:4454   */\n      swap1\n      pop\n        /* \"#utility.yul\":4500:4509   */\n      dup2\n        /* \"#utility.yul\":4494:4498   */\n      dup2\n        /* \"#utility.yul\":4490:4510   */\n      sub\n        /* \"#utility.yul\":4486:4487   */\n      0x00\n        /* \"#utility.yul\":4475:4484   */\n      dup4\n        /* \"#utility.yul\":4471:4488   */\n      add\n        /* \"#utility.yul\":4464:4511   */\n      mstore\n        /* \"#utility.yul\":4528:4603   */\n      tag_175\n        /* \"#utility.yul\":4598:4602   */\n      dup2\n        /* \"#utility.yul\":4589:4595   */\n      dup5\n        /* \"#utility.yul\":4528:4603   */\n      tag_132\n      jump\t// in\n    tag_175:\n        /* \"#utility.yul\":4520:4603   */\n      swap1\n      pop\n        /* \"#utility.yul\":4303:4610   */\n      swap3\n      swap2\n      pop\n      pop\n      jump\t// out\n        /* \"#utility.yul\":4616:5035   */\n    tag_58:\n        /* \"#utility.yul\":4782:4786   */\n      0x00\n        /* \"#utility.yul\":4820:4822   */\n      0x20\n        /* \"#utility.yul\":4809:4818   */\n      dup3\n        /* \"#utility.yul\":4805:4823   */\n      add\n        /* \"#utility.yul\":4797:4823   */\n      swap1\n      pop\n        /* \"#utility.yul\":4869:4878   */\n      dup2\n        /* \"#utility.yul\":4863:4867   */\n      dup2\n        /* \"#utility.yul\":4859:4879   */\n      sub\n        /* \"#utility.yul\":4855:4856   */\n      0x00\n        /* \"#utility.yul\":4844:4853   */\n      dup4\n        /* \"#utility.yul\":4840:4857   */\n      add\n        /* \"#utility.yul\":4833:4880   */\n      mstore\n        /* \"#utility.yul\":4897:5028   */\n      tag_177\n        /* \"#utility.yul\":5023:5027   */\n      dup2\n        /* \"#utility.yul\":4897:5028   */\n      tag_144\n      jump\t// in\n    tag_177:\n        /* \"#utility.yul\":4889:5028   */\n      swap1\n      pop\n        /* \"#utility.yul\":4616:5035   */\n      swap2\n      swap1\n      pop\n      jump\t// out\n        /* \"#utility.yul\":5041:5460   */\n    tag_52:\n        /* \"#utility.yul\":5207:5211   */\n      0x00\n        /* \"#utility.yul\":5245:5247   */\n      0x20\n        /* \"#utility.yul\":5234:5243   */\n      dup3\n        /* \"#utility.yul\":5230:5248   */\n      add\n        /* \"#utility.yul\":5222:5248   */\n      swap1\n      pop\n        /* \"#utility.yul\":5294:5303   */\n      dup2\n        /* \"#utility.yul\":5288:5292   */\n      dup2\n        /* \"#utility.yul\":5284:5304   */\n      sub\n        /* \"#utility.yul\":5280:5281   */\n      0x00\n        /* \"#utility.yul\":5269:5278   */\n      dup4\n        /* \"#utility.yul\":5265:5282   */\n      add\n        /* \"#utility.yul\":5258:5305   */\n      mstore\n        /* \"#utility.yul\":5322:5453   */\n      tag_179\n        /* \"#utility.yul\":5448:5452   */\n      dup2\n        /* \"#utility.yul\":5322:5453   */\n      tag_149\n      jump\t// in\n    tag_179:\n        /* \"#utility.yul\":5314:5453   */\n      swap1\n      pop\n        /* \"#utility.yul\":5041:5460   */\n      swap2\n      swap1\n      pop\n      jump\t// out\n        /* \"#utility.yul\":5466:5885   */\n    tag_55:\n        /* \"#utility.yul\":5632:5636   */\n      0x00\n        /* \"#utility.yul\":5670:5672   */\n      0x20\n        /* \"#utility.yul\":5659:5668   */\n      dup3\n        /* \"#utility.yul\":5655:5673   */\n      add\n        /* \"#utility.yul\":5647:5673   */\n      swap1\n      pop\n        /* \"#utility.yul\":5719:5728   */\n      dup2\n        /* \"#utility.yul\":5713:5717   */\n      dup2\n        /* \"#utility.yul\":5709:5729   */\n      sub\n        /* \"#utility.yul\":5705:5706   */\n      0x00\n        /* \"#utility.yul\":5694:5703   */\n      dup4\n        /* \"#utility.yul\":5690:5707   */\n      add\n        /* \"#utility.yul\":5683:5730   */\n      mstore\n        /* \"#utility.yul\":5747:5878   */\n      tag_181\n        /* \"#utility.yul\":5873:5877   */\n      dup2\n        /* \"#utility.yul\":5747:5878   */\n      tag_154\n      jump\t// in\n    tag_181:\n        /* \"#utility.yul\":5739:5878   */\n      swap1\n      pop\n        /* \"#utility.yul\":5466:5885   */\n      swap2\n      swap1\n      pop\n      jump\t// out\n        /* \"#utility.yul\":5891:6310   */\n    tag_67:\n        /* \"#utility.yul\":6057:6061   */\n      0x00\n        /* \"#utility.yul\":6095:6097   */\n      0x20\n        /* \"#utility.yul\":6084:6093   */\n      dup3\n        /* \"#utility.yul\":6080:6098   */\n      add\n        /* \"#utility.yul\":6072:6098   */\n      swap1\n      pop\n        /* \"#utility.yul\":6144:6153   */\n      dup2\n        /* \"#utility.yul\":6138:6142   */\n      dup2\n        /* \"#utility.yul\":6134:6154   */\n      sub\n        /* \"#utility.yul\":6130:6131   */\n      0x00\n        /* \"#utility.yul\":6119:6128   */\n      dup4\n        /* \"#utility.yul\":6115:6132   */\n      add\n        /* \"#utility.yul\":6108:6155   */\n      mstore\n        /* \"#utility.yul\":6172:6303   */\n      tag_183\n        /* \"#utility.yul\":6298:6302   */\n      dup2\n        /* \"#utility.yul\":6172:6303   */\n      tag_159\n      jump\t// in\n    tag_183:\n        /* \"#utility.yul\":6164:6303   */\n      swap1\n      pop\n        /* \"#utility.yul\":5891:6310   */\n      swap2\n      swap1\n      pop\n      jump\t// out\n        /* \"#utility.yul\":6316:6538   */\n    tag_26:\n        /* \"#utility.yul\":6409:6413   */\n      0x00\n        /* \"#utility.yul\":6447:6449   */\n      0x20\n        /* \"#utility.yul\":6436:6445   */\n      dup3\n        /* \"#utility.yul\":6432:6450   */\n      add\n        /* \"#utility.yul\":6424:6450   */\n      swap1\n      pop\n        /* \"#utility.yul\":6460:6531   */\n      tag_185\n        /* \"#utility.yul\":6528:6529   */\n      0x00\n        /* \"#utility.yul\":6517:6526   */\n      dup4\n        /* \"#utility.yul\":6513:6530   */\n      add\n        /* \"#utility.yul\":6504:6510   */\n      dup5\n        /* \"#utility.yul\":6460:6531   */\n      tag_164\n      jump\t// in\n    tag_185:\n        /* \"#utility.yul\":6316:6538   */\n      swap3\n      swap2\n      pop\n      pop\n      jump\t// out\n        /* \"#utility.yul\":6625:6766   */\n    tag_140:\n        /* \"#utility.yul\":6674:6678   */\n      0x00\n        /* \"#utility.yul\":6697:6700   */\n      dup2\n        /* \"#utility.yul\":6689:6700   */\n      swap1\n      pop\n        /* \"#utility.yul\":6720:6723   */\n      dup2\n        /* \"#utility.yul\":6717:6718   */\n      0x00\n        /* \"#utility.yul\":6710:6724   */\n      mstore\n        /* \"#utility.yul\":6754:6758   */\n      0x20\n        /* \"#utility.yul\":6751:6752   */\n      0x00\n        /* \"#utility.yul\":6741:6759   */\n      keccak256\n        /* \"#utility.yul\":6733:6759   */\n      swap1\n      pop\n        /* \"#utility.yul\":6625:6766   */\n      swap2\n      swap1\n      pop\n      jump\t// out\n        /* \"#utility.yul\":6772:6871   */\n    tag_125:\n        /* \"#utility.yul\":6824:6830   */\n      0x00\n        /* \"#utility.yul\":6858:6863   */\n      dup2\n        /* \"#utility.yul\":6852:6864   */\n      mload\n        /* \"#utility.yul\":6842:6864   */\n      swap1\n      pop\n        /* \"#utility.yul\":6772:6871   */\n      swap2\n      swap1\n      pop\n      jump\t// out\n        /* \"#utility.yul\":6877:7046   */\n    tag_127:\n        /* \"#utility.yul\":6961:6972   */\n      0x00\n        /* \"#utility.yul\":6995:7001   */\n      dup3\n        /* \"#utility.yul\":6990:6993   */\n      dup3\n        /* \"#utility.yul\":6983:7002   */\n      mstore\n        /* \"#utility.yul\":7035:7039   */\n      0x20\n        /* \"#utility.yul\":7030:7033   */\n      dup3\n        /* \"#utility.yul\":7026:7040   */\n      add\n        /* \"#utility.yul\":7011:7040   */\n      swap1\n      pop\n        /* \"#utility.yul\":6877:7046   */\n      swap3\n      swap2\n      pop\n      pop\n      jump\t// out\n        /* \"#utility.yul\":7052:7148   */\n    tag_117:\n        /* \"#utility.yul\":7089:7096   */\n      0x00\n        /* \"#utility.yul\":7118:7142   */\n      tag_192\n        /* \"#utility.yul\":7136:7141   */\n      dup3\n        /* \"#utility.yul\":7118:7142   */\n      tag_193\n      jump\t// in\n    tag_192:\n        /* \"#utility.yul\":7107:7142   */\n      swap1\n      pop\n        /* \"#utility.yul\":7052:7148   */\n      swap2\n      swap1\n      pop\n      jump\t// out\n        /* \"#utility.yul\":7154:7244   */\n    tag_121:\n        /* \"#utility.yul\":7188:7195   */\n      0x00\n        /* \"#utility.yul\":7231:7236   */\n      dup2\n        /* \"#utility.yul\":7224:7237   */\n      iszero\n        /* \"#utility.yul\":7217:7238   */\n      iszero\n        /* \"#utility.yul\":7206:7238   */\n      swap1\n      pop\n        /* \"#utility.yul\":7154:7244   */\n      swap2\n      swap1\n      pop\n      jump\t// out\n        /* \"#utility.yul\":7250:7376   */\n    tag_193:\n        /* \"#utility.yul\":7287:7294   */\n      0x00\n        /* \"#utility.yul\":7327:7369   */\n      0xffffffffffffffffffffffffffffffffffffffff\n        /* \"#utility.yul\":7320:7325   */\n      dup3\n        /* \"#utility.yul\":7316:7370   */\n      and\n        /* \"#utility.yul\":7305:7370   */\n      swap1\n      pop\n        /* \"#utility.yul\":7250:7376   */\n      swap2\n      swap1\n      pop\n      jump\t// out\n        /* \"#utility.yul\":7382:7459   */\n    tag_167:\n        /* \"#utility.yul\":7419:7426   */\n      0x00\n        /* \"#utility.yul\":7448:7453   */\n      dup2\n        /* \"#utility.yul\":7437:7453   */\n      swap1\n      pop\n        /* \"#utility.yul\":7382:7459   */\n      swap2\n      swap1\n      pop\n      jump\t// out\n        /* \"#utility.yul\":7465:7772   */\n    tag_129:\n        /* \"#utility.yul\":7533:7534   */\n      0x00\n        /* \"#utility.yul\":7543:7656   */\n    tag_198:\n        /* \"#utility.yul\":7557:7563   */\n      dup4\n        /* \"#utility.yul\":7554:7555   */\n      dup2\n        /* \"#utility.yul\":7551:7564   */\n      lt\n        /* \"#utility.yul\":7543:7656   */\n      iszero\n      tag_200\n      jumpi\n        /* \"#utility.yul\":7642:7643   */\n      dup1\n        /* \"#utility.yul\":7637:7640   */\n      dup3\n        /* \"#utility.yul\":7633:7644   */\n      add\n        /* \"#utility.yul\":7627:7645   */\n      mload\n        /* \"#utility.yul\":7623:7624   */\n      dup2\n        /* \"#utility.yul\":7618:7621   */\n      dup5\n        /* \"#utility.yul\":7614:7625   */\n      add\n        /* \"#utility.yul\":7607:7646   */\n      mstore\n        /* \"#utility.yul\":7579:7581   */\n      0x20\n        /* \"#utility.yul\":7576:7577   */\n      dup2\n        /* \"#utility.yul\":7572:7582   */\n      add\n        /* \"#utility.yul\":7567:7582   */\n      swap1\n      pop\n        /* \"#utility.yul\":7543:7656   */\n      jump(tag_198)\n    tag_200:\n        /* \"#utility.yul\":7674:7680   */\n      dup4\n        /* \"#utility.yul\":7671:7672   */\n      dup2\n        /* \"#utility.yul\":7668:7681   */\n      gt\n        /* \"#utility.yul\":7665:7766   */\n      iszero\n      tag_201\n      jumpi\n        /* \"#utility.yul\":7754:7755   */\n      0x00\n        /* \"#utility.yul\":7745:7751   */\n      dup5\n        /* \"#utility.yul\":7740:7743   */\n      dup5\n        /* \"#utility.yul\":7736:7752   */\n      add\n        /* \"#utility.yul\":7729:7756   */\n      mstore\n        /* \"#utility.yul\":7665:7766   */\n    tag_201:\n        /* \"#utility.yul\":7514:7772   */\n      pop\n        /* \"#utility.yul\":7465:7772   */\n      pop\n      pop\n      pop\n      jump\t// out\n        /* \"#utility.yul\":7778:8098   */\n    tag_99:\n        /* \"#utility.yul\":7822:7828   */\n      0x00\n        /* \"#utility.yul\":7859:7860   */\n      0x02\n        /* \"#utility.yul\":7853:7857   */\n      dup3\n        /* \"#utility.yul\":7849:7861   */\n      div\n        /* \"#utility.yul\":7839:7861   */\n      swap1\n      pop\n        /* \"#utility.yul\":7906:7907   */\n      0x01\n        /* \"#utility.yul\":7900:7904   */\n      dup3\n        /* \"#utility.yul\":7896:7908   */\n      and\n        /* \"#utility.yul\":7927:7945   */\n      dup1\n        /* \"#utility.yul\":7917:7998   */\n      tag_203\n      jumpi\n        /* \"#utility.yul\":7983:7987   */\n      0x7f\n        /* \"#utility.yul\":7975:7981   */\n      dup3\n        /* \"#utility.yul\":7971:7988   */\n      and\n        /* \"#utility.yul\":7961:7988   */\n      swap2\n      pop\n        /* \"#utility.yul\":7917:7998   */\n    tag_203:\n        /* \"#utility.yul\":8045:8047   */\n      0x20\n        /* \"#utility.yul\":8037:8043   */\n      dup3\n        /* \"#utility.yul\":8034:8048   */\n      lt\n        /* \"#utility.yul\":8014:8032   */\n      dup2\n        /* \"#utility.yul\":8011:8049   */\n      eq\n        /* \"#utility.yul\":8008:8092   */\n      iszero\n      tag_204\n      jumpi\n        /* \"#utility.yul\":8064:8082   */\n      tag_205\n      tag_206\n      jump\t// in\n    tag_205:\n        /* \"#utility.yul\":8008:8092   */\n    tag_204:\n        /* \"#utility.yul\":7829:8098   */\n      pop\n        /* \"#utility.yul\":7778:8098   */\n      swap2\n      swap1\n      pop\n      jump\t// out\n        /* \"#utility.yul\":8104:8284   */\n    tag_206:\n        /* \"#utility.yul\":8152:8229   */\n      0x4e487b7100000000000000000000000000000000000000000000000000000000\n        /* \"#utility.yul\":8149:8150   */\n      0x00\n        /* \"#utility.yul\":8142:8230   */\n      mstore\n        /* \"#utility.yul\":8249:8253   */\n      0x22\n        /* \"#utility.yul\":8246:8247   */\n      0x04\n        /* \"#utility.yul\":8239:8254   */\n      mstore\n        /* \"#utility.yul\":8273:8277   */\n      0x24\n        /* \"#utility.yul\":8270:8271   */\n      0x00\n        /* \"#utility.yul\":8263:8278   */\n      revert\n        /* \"#utility.yul\":8413:8530   */\n    tag_112:\n        /* \"#utility.yul\":8522:8523   */\n      0x00\n        /* \"#utility.yul\":8519:8520   */\n      dup1\n        /* \"#utility.yul\":8512:8524   */\n      revert\n        /* \"#utility.yul\":8536:8638   */\n    tag_131:\n        /* \"#utility.yul\":8577:8583   */\n      0x00\n        /* \"#utility.yul\":8628:8630   */\n      0x1f\n        /* \"#utility.yul\":8624:8631   */\n      not\n        /* \"#utility.yul\":8619:8621   */\n      0x1f\n        /* \"#utility.yul\":8612:8617   */\n      dup4\n        /* \"#utility.yul\":8608:8622   */\n      add\n        /* \"#utility.yul\":8604:8632   */\n      and\n        /* \"#utility.yul\":8594:8632   */\n      swap1\n      pop\n        /* \"#utility.yul\":8536:8638   */\n      swap2\n      swap1\n      pop\n      jump\t// out\n        /* \"#utility.yul\":8644:8826   */\n    tag_148:\n        /* \"#utility.yul\":8784:8818   */\n      0x4e6f20706f74732076616c6964617220692064656e6567617220616c686f7261\n        /* \"#utility.yul\":8780:8781   */\n      0x00\n        /* \"#utility.yul\":8772:8778   */\n      dup3\n        /* \"#utility.yul\":8768:8782   */\n      add\n        /* \"#utility.yul\":8761:8819   */\n      mstore\n        /* \"#utility.yul\":8644:8826   */\n      pop\n      jump\t// out\n        /* \"#utility.yul\":8832:9060   */\n    tag_153:\n        /* \"#utility.yul\":8972:9006   */\n      0x456c2070726f70696574617269206e6f20706f742076616c6964617220656c20\n        /* \"#utility.yul\":8968:8969   */\n      0x00\n        /* \"#utility.yul\":8960:8966   */\n      dup3\n        /* \"#utility.yul\":8956:8970   */\n      add\n        /* \"#utility.yul\":8949:9007   */\n      mstore\n        /* \"#utility.yul\":9041:9052   */\n      0x7365752061737365740000000000000000000000000000000000000000000000\n        /* \"#utility.yul\":9036:9038   */\n      0x20\n        /* \"#utility.yul\":9028:9034   */\n      dup3\n        /* \"#utility.yul\":9024:9039   */\n      add\n        /* \"#utility.yul\":9017:9053   */\n      mstore\n        /* \"#utility.yul\":8832:9060   */\n      pop\n      jump\t// out\n        /* \"#utility.yul\":9066:9233   */\n    tag_158:\n        /* \"#utility.yul\":9206:9225   */\n      0x56616c696461646f722072657065746974000000000000000000000000000000\n        /* \"#utility.yul\":9202:9203   */\n      0x00\n        /* \"#utility.yul\":9194:9200   */\n      dup3\n        /* \"#utility.yul\":9190:9204   */\n      add\n        /* \"#utility.yul\":9183:9226   */\n      mstore\n        /* \"#utility.yul\":9066:9233   */\n      pop\n      jump\t// out\n        /* \"#utility.yul\":9239:9406   */\n    tag_163:\n        /* \"#utility.yul\":9379:9398   */\n      0x44656e656761646f722072657065746974000000000000000000000000000000\n        /* \"#utility.yul\":9375:9376   */\n      0x00\n        /* \"#utility.yul\":9367:9373   */\n      dup3\n        /* \"#utility.yul\":9363:9377   */\n      add\n        /* \"#utility.yul\":9356:9399   */\n      mstore\n        /* \"#utility.yul\":9239:9406   */\n      pop\n      jump\t// out\n        /* \"#utility.yul\":9412:9534   */\n    tag_108:\n        /* \"#utility.yul\":9485:9509   */\n      tag_217\n        /* \"#utility.yul\":9503:9508   */\n      dup2\n        /* \"#utility.yul\":9485:9509   */\n      tag_117\n      jump\t// in\n    tag_217:\n        /* \"#utility.yul\":9478:9483   */\n      dup2\n        /* \"#utility.yul\":9475:9510   */\n      eq\n        /* \"#utility.yul\":9465:9528   */\n      tag_218\n      jumpi\n        /* \"#utility.yul\":9524:9525   */\n      0x00\n        /* \"#utility.yul\":9521:9522   */\n      dup1\n        /* \"#utility.yul\":9514:9526   */\n      revert\n        /* \"#utility.yul\":9465:9528   */\n    tag_218:\n        /* \"#utility.yul\":9412:9534   */\n      pop\n      jump\t// out\n\n    auxdata: 0xa26469706673582212202453edbcb8e9f96e9e3ecc5e341b0dc6e451086013682bdc6ca35b027ec12d0364736f6c63430008070033\n}\n",
				"bytecode": {
					"linkReferences": {},
					"object": "60806040523480156200001157600080fd5b50604051620018c4380380620018c4833981810160405281019062000037919062000236565b336000806101000a81548173ffffffffffffffffffffffffffffffffffffffff021916908373ffffffffffffffffffffffffffffffffffffffff16021790555080600190805190602001906200008f92919062000108565b5060008054906101000a900473ffffffffffffffffffffffffffffffffffffffff1673ffffffffffffffffffffffffffffffffffffffff167f3d6aba6def46bd8784b0b6505c24d0aa59cd9316e6c5db593d3d8470797d7a3e6001604051620000f9919062000313565b60405180910390a250620004e1565b8280546200011690620003f2565b90600052602060002090601f0160209004810192826200013a576000855562000186565b82601f106200015557805160ff191683800117855562000186565b8280016001018555821562000186579182015b828111156200018557825182559160200191906001019062000168565b5b50905062000195919062000199565b5090565b5b80821115620001b45760008160009055506001016200019a565b5090565b6000620001cf620001c98462000360565b62000337565b905082815260208101848484011115620001ee57620001ed620004c1565b5b620001fb848285620003bc565b509392505050565b600082601f8301126200021b576200021a620004bc565b5b81516200022d848260208601620001b8565b91505092915050565b6000602082840312156200024f576200024e620004cb565b5b600082015167ffffffffffffffff81111562000270576200026f620004c6565b5b6200027e8482850162000203565b91505092915050565b600081546200029681620003f2565b620002a28186620003ab565b94506001821660008114620002c05760018114620002d3576200030a565b60ff19831686526020860193506200030a565b620002de8562000396565b60005b838110156200030257815481890152600182019150602081019050620002e1565b808801955050505b50505092915050565b600060208201905081810360008301526200032f818462000287565b905092915050565b60006200034362000356565b905062000351828262000428565b919050565b6000604051905090565b600067ffffffffffffffff8211156200037e576200037d6200048d565b5b6200038982620004d0565b9050602081019050919050565b60008190508160005260206000209050919050565b600082825260208201905092915050565b60005b83811015620003dc578082015181840152602081019050620003bf565b83811115620003ec576000848401525b50505050565b600060028204905060018216806200040b57607f821691505b602082108114156200042257620004216200045e565b5b50919050565b6200043382620004d0565b810181811067ffffffffffffffff821117156200045557620004546200048d565b5b80604052505050565b7f4e487b7100000000000000000000000000000000000000000000000000000000600052602260045260246000fd5b7f4e487b7100000000000000000000000000000000000000000000000000000000600052604160045260246000fd5b600080fd5b600080fd5b600080fd5b600080fd5b6000601f19601f8301169050919050565b6113d380620004f16000396000f3fe608060405234801561001057600080fd5b506004361061009e5760003560e01c8063893d20e811610066578063893d20e81461010d578063990ec12b1461012b578063b794cc2f14610149578063c437457514610179578063cef2320c146101a95761009e565b8063207c64fb146100a35780635836e0b5146100bf57806358fe7a34146100c95780635d8ab6e7146100e55780636901f66814610103575b600080fd5b6100bd60048036038101906100b89190610ee5565b6101c7565b005b6100c761047d565b005b6100e360048036038101906100de9190610ee5565b610732565b005b6100ed6109e8565b6040516100fa919061117e565b60405180910390f35b61010b6109f5565b005b610115610caa565b6040516101229190611084565b60405180910390f35b610133610cd3565b604051610140919061117e565b60405180910390f35b610163600480360381019061015e9190610ee5565b610ce0565b604051610170919061109f565b60405180910390f35b610193600480360381019061018e9190610ee5565b610d8f565b6040516101a0919061109f565b60405180910390f35b6101b1610e3e565b6040516101be91906110ba565b60405180910390f35b8073ffffffffffffffffffffffffffffffffffffffff1660008054906101000a900473ffffffffffffffffffffffffffffffffffffffff1673ffffffffffffffffffffffffffffffffffffffff161415610256576040517f08c379a000000000000000000000000000000000000000000000000000000000815260040161024d9061111e565b60405180910390fd5b600460008273ffffffffffffffffffffffffffffffffffffffff1673ffffffffffffffffffffffffffffffffffffffff16815260200190815260200160002060009054906101000a900460ff16156102e3576040517f08c379a00000000000000000000000000000000000000000000000000000000081526004016102da9061113e565b60405180910390fd5b600560008273ffffffffffffffffffffffffffffffffffffffff1673ffffffffffffffffffffffffffffffffffffffff16815260200190815260200160002060009054906101000a900460ff1615610370576040517f08c379a0000000000000000000000000000000000000000000000000000000008152600401610367906110fe565b60405180910390fd5b6002819080600181540180825580915050600190039060005260206000200160009091909190916101000a81548173ffffffffffffffffffffffffffffffffffffffff021916908373ffffffffffffffffffffffffffffffffffffffff1602179055506001600460008373ffffffffffffffffffffffffffffffffffffffff1673ffffffffffffffffffffffffffffffffffffffff16815260200190815260200160002060006101000a81548160ff0219169083151502179055508073ffffffffffffffffffffffffffffffffffffffff167f57d77eb32e87e8c65c7cec1df5b0e8a8d5c4eae1b40c7246e7668ed702dd247a600160405161047291906110dc565b60405180910390a250565b3373ffffffffffffffffffffffffffffffffffffffff1660008054906101000a900473ffffffffffffffffffffffffffffffffffffffff1673ffffffffffffffffffffffffffffffffffffffff16141561050c576040517f08c379a00000000000000000000000000000000000000000000000000000000081526004016105039061111e565b60405180910390fd5b600560003373ffffffffffffffffffffffffffffffffffffffff1673ffffffffffffffffffffffffffffffffffffffff16815260200190815260200160002060009054906101000a900460ff1615610599576040517f08c379a00000000000000000000000000000000000000000000000000000000081526004016105909061115e565b60405180910390fd5b600460003373ffffffffffffffffffffffffffffffffffffffff1673ffffffffffffffffffffffffffffffffffffffff16815260200190815260200160002060009054906101000a900460ff1615610626576040517f08c379a000000000000000000000000000000000000000000000000000000000815260040161061d906110fe565b60405180910390fd5b6003339080600181540180825580915050600190039060005260206000200160009091909190916101000a81548173ffffffffffffffffffffffffffffffffffffffff021916908373ffffffffffffffffffffffffffffffffffffffff1602179055506001600560003373ffffffffffffffffffffffffffffffffffffffff1673ffffffffffffffffffffffffffffffffffffffff16815260200190815260200160002060006101000a81548160ff0219169083151502179055503373ffffffffffffffffffffffffffffffffffffffff167f9036bc06ad4a578f0132d89ba4adc07b9772275526730acc38d7e4b4c11872a3600160405161072891906110dc565b60405180910390a2565b8073ffffffffffffffffffffffffffffffffffffffff1660008054906101000a900473ffffffffffffffffffffffffffffffffffffffff1673ffffffffffffffffffffffffffffffffffffffff1614156107c1576040517f08c379a00000000000000000000000000000000000000000000000000000000081526004016107b89061111e565b60405180910390fd5b600560008273ffffffffffffffffffffffffffffffffffffffff1673ffffffffffffffffffffffffffffffffffffffff16815260200190815260200160002060009054906101000a900460ff161561084e576040517f08c379a00000000000000000000000000000000000000000000000000000000081526004016108459061115e565b60405180910390fd5b600460008273ffffffffffffffffffffffffffffffffffffffff1673ffffffffffffffffffffffffffffffffffffffff16815260200190815260200160002060009054906101000a900460ff16156108db576040517f08c379a00000000000000000000000000000000000000000000000000000000081526004016108d2906110fe565b60405180910390fd5b6003819080600181540180825580915050600190039060005260206000200160009091909190916101000a81548173ffffffffffffffffffffffffffffffffffffffff021916908373ffffffffffffffffffffffffffffffffffffffff1602179055506001600560008373ffffffffffffffffffffffffffffffffffffffff1673ffffffffffffffffffffffffffffffffffffffff16815260200190815260200160002060006101000a81548160ff0219169083151502179055508073ffffffffffffffffffffffffffffffffffffffff167f9036bc06ad4a578f0132d89ba4adc07b9772275526730acc38d7e4b4c11872a360016040516109dd91906110dc565b60405180910390a250565b6000600380549050905090565b3373ffffffffffffffffffffffffffffffffffffffff1660008054906101000a900473ffffffffffffffffffffffffffffffffffffffff1673ffffffffffffffffffffffffffffffffffffffff161415610a84576040517f08c379a0000000000000000000000000000000000000000000000000000000008152600401610a7b9061111e565b60405180910390fd5b600460003373ffffffffffffffffffffffffffffffffffffffff1673ffffffffffffffffffffffffffffffffffffffff16815260200190815260200160002060009054906101000a900460ff1615610b11576040517f08c379a0000000000000000000000000000000000000000000000000000000008152600401610b089061113e565b60405180910390fd5b600560003373ffffffffffffffffffffffffffffffffffffffff1673ffffffffffffffffffffffffffffffffffffffff16815260200190815260200160002060009054906101000a900460ff1615610b9e576040517f08c379a0000000000000000000000000000000000000000000000000000000008152600401610b95906110fe565b60405180910390fd5b6002339080600181540180825580915050600190039060005260206000200160009091909190916101000a81548173ffffffffffffffffffffffffffffffffffffffff021916908373ffffffffffffffffffffffffffffffffffffffff1602179055506001600460003373ffffffffffffffffffffffffffffffffffffffff1673ffffffffffffffffffffffffffffffffffffffff16815260200190815260200160002060006101000a81548160ff0219169083151502179055503373ffffffffffffffffffffffffffffffffffffffff167f57d77eb32e87e8c65c7cec1df5b0e8a8d5c4eae1b40c7246e7668ed702dd247a6001604051610ca091906110dc565b60405180910390a2565b60008060009054906101000a900473ffffffffffffffffffffffffffffffffffffffff16905090565b6000600280549050905090565b60008173ffffffffffffffffffffffffffffffffffffffff1660008054906101000a900473ffffffffffffffffffffffffffffffffffffffff1673ffffffffffffffffffffffffffffffffffffffff161415610d3b57600080fd5b600560008373ffffffffffffffffffffffffffffffffffffffff1673ffffffffffffffffffffffffffffffffffffffff16815260200190815260200160002060009054906101000a900460ff169050919050565b60008173ffffffffffffffffffffffffffffffffffffffff1660008054906101000a900473ffffffffffffffffffffffffffffffffffffffff1673ffffffffffffffffffffffffffffffffffffffff161415610dea57600080fd5b600460008373ffffffffffffffffffffffffffffffffffffffff1673ffffffffffffffffffffffffffffffffffffffff16815260200190815260200160002060009054906101000a900460ff169050919050565b606060018054610e4d90611245565b80601f0160208091040260200160405190810160405280929190818152602001828054610e7990611245565b8015610ec65780601f10610e9b57610100808354040283529160200191610ec6565b820191906000526020600020905b815481529060010190602001808311610ea957829003601f168201915b5050505050905090565b600081359050610edf81611386565b92915050565b600060208284031215610efb57610efa6112a6565b5b6000610f0984828501610ed0565b91505092915050565b610f1b816111ca565b82525050565b610f2a816111dc565b82525050565b6000610f3b826111ae565b610f4581856111b9565b9350610f55818560208601611212565b610f5e816112ab565b840191505092915050565b60008154610f7681611245565b610f8081866111b9565b94506001821660008114610f9b5760018114610fad57610fe0565b60ff1983168652602086019350610fe0565b610fb685611199565b60005b83811015610fd857815481890152600182019150602081019050610fb9565b808801955050505b50505092915050565b6000610ff66020836111b9565b9150611001826112bc565b602082019050919050565b60006110196029836111b9565b9150611024826112e5565b604082019050919050565b600061103c6011836111b9565b915061104782611334565b602082019050919050565b600061105f6011836111b9565b915061106a8261135d565b602082019050919050565b61107e81611208565b82525050565b60006020820190506110996000830184610f12565b92915050565b60006020820190506110b46000830184610f21565b92915050565b600060208201905081810360008301526110d48184610f30565b905092915050565b600060208201905081810360008301526110f68184610f69565b905092915050565b6000602082019050818103600083015261111781610fe9565b9050919050565b600060208201905081810360008301526111378161100c565b9050919050565b600060208201905081810360008301526111578161102f565b9050919050565b6000602082019050818103600083015261117781611052565b9050919050565b60006020820190506111936000830184611075565b92915050565b60008190508160005260206000209050919050565b600081519050919050565b600082825260208201905092915050565b60006111d5826111e8565b9050919050565b60008115159050919050565b600073ffffffffffffffffffffffffffffffffffffffff82169050919050565b6000819050919050565b60005b83811015611230578082015181840152602081019050611215565b8381111561123f576000848401525b50505050565b6000600282049050600182168061125d57607f821691505b6020821081141561127157611270611277565b5b50919050565b7f4e487b7100000000000000000000000000000000000000000000000000000000600052602260045260246000fd5b600080fd5b6000601f19601f8301169050919050565b7f4e6f20706f74732076616c6964617220692064656e6567617220616c686f7261600082015250565b7f456c2070726f70696574617269206e6f20706f742076616c6964617220656c2060008201527f7365752061737365740000000000000000000000000000000000000000000000602082015250565b7f56616c696461646f722072657065746974000000000000000000000000000000600082015250565b7f44656e656761646f722072657065746974000000000000000000000000000000600082015250565b61138f816111ca565b811461139a57600080fd5b5056fea26469706673582212202453edbcb8e9f96e9e3ecc5e341b0dc6e451086013682bdc6ca35b027ec12d0364736f6c63430008070033",
					"opcodes": "PUSH1 0x80 PUSH1 0x40 MSTORE CALLVALUE DUP1 ISZERO PUSH3 0x11 JUMPI PUSH1 0x0 DUP1 REVERT JUMPDEST POP PUSH1 0x40 MLOAD PUSH3 0x18C4 CODESIZE SUB DUP1 PUSH3 0x18C4 DUP4 CODECOPY DUP2 DUP2 ADD PUSH1 0x40 MSTORE DUP2 ADD SWAP1 PUSH3 0x37 SWAP2 SWAP1 PUSH3 0x236 JUMP JUMPDEST CALLER PUSH1 0x0 DUP1 PUSH2 0x100 EXP DUP2 SLOAD DUP2 PUSH20 0xFFFFFFFFFFFFFFFFFFFFFFFFFFFFFFFFFFFFFFFF MUL NOT AND SWAP1 DUP4 PUSH20 0xFFFFFFFFFFFFFFFFFFFFFFFFFFFFFFFFFFFFFFFF AND MUL OR SWAP1 SSTORE POP DUP1 PUSH1 0x1 SWAP1 DUP1 MLOAD SWAP1 PUSH1 0x20 ADD SWAP1 PUSH3 0x8F SWAP3 SWAP2 SWAP1 PUSH3 0x108 JUMP JUMPDEST POP PUSH1 0x0 DUP1 SLOAD SWAP1 PUSH2 0x100 EXP SWAP1 DIV PUSH20 0xFFFFFFFFFFFFFFFFFFFFFFFFFFFFFFFFFFFFFFFF AND PUSH20 0xFFFFFFFFFFFFFFFFFFFFFFFFFFFFFFFFFFFFFFFF AND PUSH32 0x3D6ABA6DEF46BD8784B0B6505C24D0AA59CD9316E6C5DB593D3D8470797D7A3E PUSH1 0x1 PUSH1 0x40 MLOAD PUSH3 0xF9 SWAP2 SWAP1 PUSH3 0x313 JUMP JUMPDEST PUSH1 0x40 MLOAD DUP1 SWAP2 SUB SWAP1 LOG2 POP PUSH3 0x4E1 JUMP JUMPDEST DUP3 DUP1 SLOAD PUSH3 0x116 SWAP1 PUSH3 0x3F2 JUMP JUMPDEST SWAP1 PUSH1 0x0 MSTORE PUSH1 0x20 PUSH1 0x0 KECCAK256 SWAP1 PUSH1 0x1F ADD PUSH1 0x20 SWAP1 DIV DUP2 ADD SWAP3 DUP3 PUSH3 0x13A JUMPI PUSH1 0x0 DUP6 SSTORE PUSH3 0x186 JUMP JUMPDEST DUP3 PUSH1 0x1F LT PUSH3 0x155 JUMPI DUP1 MLOAD PUSH1 0xFF NOT AND DUP4 DUP1 ADD OR DUP6 SSTORE PUSH3 0x186 JUMP JUMPDEST DUP3 DUP1 ADD PUSH1 0x1 ADD DUP6 SSTORE DUP3 ISZERO PUSH3 0x186 JUMPI SWAP2 DUP3 ADD JUMPDEST DUP3 DUP2 GT ISZERO PUSH3 0x185 JUMPI DUP3 MLOAD DUP3 SSTORE SWAP2 PUSH1 0x20 ADD SWAP2 SWAP1 PUSH1 0x1 ADD SWAP1 PUSH3 0x168 JUMP JUMPDEST JUMPDEST POP SWAP1 POP PUSH3 0x195 SWAP2 SWAP1 PUSH3 0x199 JUMP JUMPDEST POP SWAP1 JUMP JUMPDEST JUMPDEST DUP1 DUP3 GT ISZERO PUSH3 0x1B4 JUMPI PUSH1 0x0 DUP2 PUSH1 0x0 SWAP1 SSTORE POP PUSH1 0x1 ADD PUSH3 0x19A JUMP JUMPDEST POP SWAP1 JUMP JUMPDEST PUSH1 0x0 PUSH3 0x1CF PUSH3 0x1C9 DUP5 PUSH3 0x360 JUMP JUMPDEST PUSH3 0x337 JUMP JUMPDEST SWAP1 POP DUP3 DUP2 MSTORE PUSH1 0x20 DUP2 ADD DUP5 DUP5 DUP5 ADD GT ISZERO PUSH3 0x1EE JUMPI PUSH3 0x1ED PUSH3 0x4C1 JUMP JUMPDEST JUMPDEST PUSH3 0x1FB DUP5 DUP3 DUP6 PUSH3 0x3BC JUMP JUMPDEST POP SWAP4 SWAP3 POP POP POP JUMP JUMPDEST PUSH1 0x0 DUP3 PUSH1 0x1F DUP4 ADD SLT PUSH3 0x21B JUMPI PUSH3 0x21A PUSH3 0x4BC JUMP JUMPDEST JUMPDEST DUP2 MLOAD PUSH3 0x22D DUP5 DUP3 PUSH1 0x20 DUP7 ADD PUSH3 0x1B8 JUMP JUMPDEST SWAP2 POP POP SWAP3 SWAP2 POP POP JUMP JUMPDEST PUSH1 0x0 PUSH1 0x20 DUP3 DUP5 SUB SLT ISZERO PUSH3 0x24F JUMPI PUSH3 0x24E PUSH3 0x4CB JUMP JUMPDEST JUMPDEST PUSH1 0x0 DUP3 ADD MLOAD PUSH8 0xFFFFFFFFFFFFFFFF DUP2 GT ISZERO PUSH3 0x270 JUMPI PUSH3 0x26F PUSH3 0x4C6 JUMP JUMPDEST JUMPDEST PUSH3 0x27E DUP5 DUP3 DUP6 ADD PUSH3 0x203 JUMP JUMPDEST SWAP2 POP POP SWAP3 SWAP2 POP POP JUMP JUMPDEST PUSH1 0x0 DUP2 SLOAD PUSH3 0x296 DUP2 PUSH3 0x3F2 JUMP JUMPDEST PUSH3 0x2A2 DUP2 DUP7 PUSH3 0x3AB JUMP JUMPDEST SWAP5 POP PUSH1 0x1 DUP3 AND PUSH1 0x0 DUP2 EQ PUSH3 0x2C0 JUMPI PUSH1 0x1 DUP2 EQ PUSH3 0x2D3 JUMPI PUSH3 0x30A JUMP JUMPDEST PUSH1 0xFF NOT DUP4 AND DUP7 MSTORE PUSH1 0x20 DUP7 ADD SWAP4 POP PUSH3 0x30A JUMP JUMPDEST PUSH3 0x2DE DUP6 PUSH3 0x396 JUMP JUMPDEST PUSH1 0x0 JUMPDEST DUP4 DUP2 LT ISZERO PUSH3 0x302 JUMPI DUP2 SLOAD DUP2 DUP10 ADD MSTORE PUSH1 0x1 DUP3 ADD SWAP2 POP PUSH1 0x20 DUP2 ADD SWAP1 POP PUSH3 0x2E1 JUMP JUMPDEST DUP1 DUP9 ADD SWAP6 POP POP POP JUMPDEST POP POP POP SWAP3 SWAP2 POP POP JUMP JUMPDEST PUSH1 0x0 PUSH1 0x20 DUP3 ADD SWAP1 POP DUP2 DUP2 SUB PUSH1 0x0 DUP4 ADD MSTORE PUSH3 0x32F DUP2 DUP5 PUSH3 0x287 JUMP JUMPDEST SWAP1 POP SWAP3 SWAP2 POP POP JUMP JUMPDEST PUSH1 0x0 PUSH3 0x343 PUSH3 0x356 JUMP JUMPDEST SWAP1 POP PUSH3 0x351 DUP3 DUP3 PUSH3 0x428 JUMP JUMPDEST SWAP2 SWAP1 POP JUMP JUMPDEST PUSH1 0x0 PUSH1 0x40 MLOAD SWAP1 POP SWAP1 JUMP JUMPDEST PUSH1 0x0 PUSH8 0xFFFFFFFFFFFFFFFF DUP3 GT ISZERO PUSH3 0x37E JUMPI PUSH3 0x37D PUSH3 0x48D JUMP JUMPDEST JUMPDEST PUSH3 0x389 DUP3 PUSH3 0x4D0 JUMP JUMPDEST SWAP1 POP PUSH1 0x20 DUP2 ADD SWAP1 POP SWAP2 SWAP1 POP JUMP JUMPDEST PUSH1 0x0 DUP2 SWAP1 POP DUP2 PUSH1 0x0 MSTORE PUSH1 0x20 PUSH1 0x0 KECCAK256 SWAP1 POP SWAP2 SWAP1 POP JUMP JUMPDEST PUSH1 0x0 DUP3 DUP3 MSTORE PUSH1 0x20 DUP3 ADD SWAP1 POP SWAP3 SWAP2 POP POP JUMP JUMPDEST PUSH1 0x0 JUMPDEST DUP4 DUP2 LT ISZERO PUSH3 0x3DC JUMPI DUP1 DUP3 ADD MLOAD DUP2 DUP5 ADD MSTORE PUSH1 0x20 DUP2 ADD SWAP1 POP PUSH3 0x3BF JUMP JUMPDEST DUP4 DUP2 GT ISZERO PUSH3 0x3EC JUMPI PUSH1 0x0 DUP5 DUP5 ADD MSTORE JUMPDEST POP POP POP POP JUMP JUMPDEST PUSH1 0x0 PUSH1 0x2 DUP3 DIV SWAP1 POP PUSH1 0x1 DUP3 AND DUP1 PUSH3 0x40B JUMPI PUSH1 0x7F DUP3 AND SWAP2 POP JUMPDEST PUSH1 0x20 DUP3 LT DUP2 EQ ISZERO PUSH3 0x422 JUMPI PUSH3 0x421 PUSH3 0x45E JUMP JUMPDEST JUMPDEST POP SWAP2 SWAP1 POP JUMP JUMPDEST PUSH3 0x433 DUP3 PUSH3 0x4D0 JUMP JUMPDEST DUP2 ADD DUP2 DUP2 LT PUSH8 0xFFFFFFFFFFFFFFFF DUP3 GT OR ISZERO PUSH3 0x455 JUMPI PUSH3 0x454 PUSH3 0x48D JUMP JUMPDEST JUMPDEST DUP1 PUSH1 0x40 MSTORE POP POP POP JUMP JUMPDEST PUSH32 0x4E487B7100000000000000000000000000000000000000000000000000000000 PUSH1 0x0 MSTORE PUSH1 0x22 PUSH1 0x4 MSTORE PUSH1 0x24 PUSH1 0x0 REVERT JUMPDEST PUSH32 0x4E487B7100000000000000000000000000000000000000000000000000000000 PUSH1 0x0 MSTORE PUSH1 0x41 PUSH1 0x4 MSTORE PUSH1 0x24 PUSH1 0x0 REVERT JUMPDEST PUSH1 0x0 DUP1 REVERT JUMPDEST PUSH1 0x0 DUP1 REVERT JUMPDEST PUSH1 0x0 DUP1 REVERT JUMPDEST PUSH1 0x0 DUP1 REVERT JUMPDEST PUSH1 0x0 PUSH1 0x1F NOT PUSH1 0x1F DUP4 ADD AND SWAP1 POP SWAP2 SWAP1 POP JUMP JUMPDEST PUSH2 0x13D3 DUP1 PUSH3 0x4F1 PUSH1 0x0 CODECOPY PUSH1 0x0 RETURN INVALID PUSH1 0x80 PUSH1 0x40 MSTORE CALLVALUE DUP1 ISZERO PUSH2 0x10 JUMPI PUSH1 0x0 DUP1 REVERT JUMPDEST POP PUSH1 0x4 CALLDATASIZE LT PUSH2 0x9E JUMPI PUSH1 0x0 CALLDATALOAD PUSH1 0xE0 SHR DUP1 PUSH4 0x893D20E8 GT PUSH2 0x66 JUMPI DUP1 PUSH4 0x893D20E8 EQ PUSH2 0x10D JUMPI DUP1 PUSH4 0x990EC12B EQ PUSH2 0x12B JUMPI DUP1 PUSH4 0xB794CC2F EQ PUSH2 0x149 JUMPI DUP1 PUSH4 0xC4374575 EQ PUSH2 0x179 JUMPI DUP1 PUSH4 0xCEF2320C EQ PUSH2 0x1A9 JUMPI PUSH2 0x9E JUMP JUMPDEST DUP1 PUSH4 0x207C64FB EQ PUSH2 0xA3 JUMPI DUP1 PUSH4 0x5836E0B5 EQ PUSH2 0xBF JUMPI DUP1 PUSH4 0x58FE7A34 EQ PUSH2 0xC9 JUMPI DUP1 PUSH4 0x5D8AB6E7 EQ PUSH2 0xE5 JUMPI DUP1 PUSH4 0x6901F668 EQ PUSH2 0x103 JUMPI JUMPDEST PUSH1 0x0 DUP1 REVERT JUMPDEST PUSH2 0xBD PUSH1 0x4 DUP1 CALLDATASIZE SUB DUP2 ADD SWAP1 PUSH2 0xB8 SWAP2 SWAP1 PUSH2 0xEE5 JUMP JUMPDEST PUSH2 0x1C7 JUMP JUMPDEST STOP JUMPDEST PUSH2 0xC7 PUSH2 0x47D JUMP JUMPDEST STOP JUMPDEST PUSH2 0xE3 PUSH1 0x4 DUP1 CALLDATASIZE SUB DUP2 ADD SWAP1 PUSH2 0xDE SWAP2 SWAP1 PUSH2 0xEE5 JUMP JUMPDEST PUSH2 0x732 JUMP JUMPDEST STOP JUMPDEST PUSH2 0xED PUSH2 0x9E8 JUMP JUMPDEST PUSH1 0x40 MLOAD PUSH2 0xFA SWAP2 SWAP1 PUSH2 0x117E JUMP JUMPDEST PUSH1 0x40 MLOAD DUP1 SWAP2 SUB SWAP1 RETURN JUMPDEST PUSH2 0x10B PUSH2 0x9F5 JUMP JUMPDEST STOP JUMPDEST PUSH2 0x115 PUSH2 0xCAA JUMP JUMPDEST PUSH1 0x40 MLOAD PUSH2 0x122 SWAP2 SWAP1 PUSH2 0x1084 JUMP JUMPDEST PUSH1 0x40 MLOAD DUP1 SWAP2 SUB SWAP1 RETURN JUMPDEST PUSH2 0x133 PUSH2 0xCD3 JUMP JUMPDEST PUSH1 0x40 MLOAD PUSH2 0x140 SWAP2 SWAP1 PUSH2 0x117E JUMP JUMPDEST PUSH1 0x40 MLOAD DUP1 SWAP2 SUB SWAP1 RETURN JUMPDEST PUSH2 0x163 PUSH1 0x4 DUP1 CALLDATASIZE SUB DUP2 ADD SWAP1 PUSH2 0x15E SWAP2 SWAP1 PUSH2 0xEE5 JUMP JUMPDEST PUSH2 0xCE0 JUMP JUMPDEST PUSH1 0x40 MLOAD PUSH2 0x170 SWAP2 SWAP1 PUSH2 0x109F JUMP JUMPDEST PUSH1 0x40 MLOAD DUP1 SWAP2 SUB SWAP1 RETURN JUMPDEST PUSH2 0x193 PUSH1 0x4 DUP1 CALLDATASIZE SUB DUP2 ADD SWAP1 PUSH2 0x18E SWAP2 SWAP1 PUSH2 0xEE5 JUMP JUMPDEST PUSH2 0xD8F JUMP JUMPDEST PUSH1 0x40 MLOAD PUSH2 0x1A0 SWAP2 SWAP1 PUSH2 0x109F JUMP JUMPDEST PUSH1 0x40 MLOAD DUP1 SWAP2 SUB SWAP1 RETURN JUMPDEST PUSH2 0x1B1 PUSH2 0xE3E JUMP JUMPDEST PUSH1 0x40 MLOAD PUSH2 0x1BE SWAP2 SWAP1 PUSH2 0x10BA JUMP JUMPDEST PUSH1 0x40 MLOAD DUP1 SWAP2 SUB SWAP1 RETURN JUMPDEST DUP1 PUSH20 0xFFFFFFFFFFFFFFFFFFFFFFFFFFFFFFFFFFFFFFFF AND PUSH1 0x0 DUP1 SLOAD SWAP1 PUSH2 0x100 EXP SWAP1 DIV PUSH20 0xFFFFFFFFFFFFFFFFFFFFFFFFFFFFFFFFFFFFFFFF AND PUSH20 0xFFFFFFFFFFFFFFFFFFFFFFFFFFFFFFFFFFFFFFFF AND EQ ISZERO PUSH2 0x256 JUMPI PUSH1 0x40 MLOAD PUSH32 0x8C379A000000000000000000000000000000000000000000000000000000000 DUP2 MSTORE PUSH1 0x4 ADD PUSH2 0x24D SWAP1 PUSH2 0x111E JUMP JUMPDEST PUSH1 0x40 MLOAD DUP1 SWAP2 SUB SWAP1 REVERT JUMPDEST PUSH1 0x4 PUSH1 0x0 DUP3 PUSH20 0xFFFFFFFFFFFFFFFFFFFFFFFFFFFFFFFFFFFFFFFF AND PUSH20 0xFFFFFFFFFFFFFFFFFFFFFFFFFFFFFFFFFFFFFFFF AND DUP2 MSTORE PUSH1 0x20 ADD SWAP1 DUP2 MSTORE PUSH1 0x20 ADD PUSH1 0x0 KECCAK256 PUSH1 0x0 SWAP1 SLOAD SWAP1 PUSH2 0x100 EXP SWAP1 DIV PUSH1 0xFF AND ISZERO PUSH2 0x2E3 JUMPI PUSH1 0x40 MLOAD PUSH32 0x8C379A000000000000000000000000000000000000000000000000000000000 DUP2 MSTORE PUSH1 0x4 ADD PUSH2 0x2DA SWAP1 PUSH2 0x113E JUMP JUMPDEST PUSH1 0x40 MLOAD DUP1 SWAP2 SUB SWAP1 REVERT JUMPDEST PUSH1 0x5 PUSH1 0x0 DUP3 PUSH20 0xFFFFFFFFFFFFFFFFFFFFFFFFFFFFFFFFFFFFFFFF AND PUSH20 0xFFFFFFFFFFFFFFFFFFFFFFFFFFFFFFFFFFFFFFFF AND DUP2 MSTORE PUSH1 0x20 ADD SWAP1 DUP2 MSTORE PUSH1 0x20 ADD PUSH1 0x0 KECCAK256 PUSH1 0x0 SWAP1 SLOAD SWAP1 PUSH2 0x100 EXP SWAP1 DIV PUSH1 0xFF AND ISZERO PUSH2 0x370 JUMPI PUSH1 0x40 MLOAD PUSH32 0x8C379A000000000000000000000000000000000000000000000000000000000 DUP2 MSTORE PUSH1 0x4 ADD PUSH2 0x367 SWAP1 PUSH2 0x10FE JUMP JUMPDEST PUSH1 0x40 MLOAD DUP1 SWAP2 SUB SWAP1 REVERT JUMPDEST PUSH1 0x2 DUP2 SWAP1 DUP1 PUSH1 0x1 DUP2 SLOAD ADD DUP1 DUP3 SSTORE DUP1 SWAP2 POP POP PUSH1 0x1 SWAP1 SUB SWAP1 PUSH1 0x0 MSTORE PUSH1 0x20 PUSH1 0x0 KECCAK256 ADD PUSH1 0x0 SWAP1 SWAP2 SWAP1 SWAP2 SWAP1 SWAP2 PUSH2 0x100 EXP DUP2 SLOAD DUP2 PUSH20 0xFFFFFFFFFFFFFFFFFFFFFFFFFFFFFFFFFFFFFFFF MUL NOT AND SWAP1 DUP4 PUSH20 0xFFFFFFFFFFFFFFFFFFFFFFFFFFFFFFFFFFFFFFFF AND MUL OR SWAP1 SSTORE POP PUSH1 0x1 PUSH1 0x4 PUSH1 0x0 DUP4 PUSH20 0xFFFFFFFFFFFFFFFFFFFFFFFFFFFFFFFFFFFFFFFF AND PUSH20 0xFFFFFFFFFFFFFFFFFFFFFFFFFFFFFFFFFFFFFFFF AND DUP2 MSTORE PUSH1 0x20 ADD SWAP1 DUP2 MSTORE PUSH1 0x20 ADD PUSH1 0x0 KECCAK256 PUSH1 0x0 PUSH2 0x100 EXP DUP2 SLOAD DUP2 PUSH1 0xFF MUL NOT AND SWAP1 DUP4 ISZERO ISZERO MUL OR SWAP1 SSTORE POP DUP1 PUSH20 0xFFFFFFFFFFFFFFFFFFFFFFFFFFFFFFFFFFFFFFFF AND PUSH32 0x57D77EB32E87E8C65C7CEC1DF5B0E8A8D5C4EAE1B40C7246E7668ED702DD247A PUSH1 0x1 PUSH1 0x40 MLOAD PUSH2 0x472 SWAP2 SWAP1 PUSH2 0x10DC JUMP JUMPDEST PUSH1 0x40 MLOAD DUP1 SWAP2 SUB SWAP1 LOG2 POP JUMP JUMPDEST CALLER PUSH20 0xFFFFFFFFFFFFFFFFFFFFFFFFFFFFFFFFFFFFFFFF AND PUSH1 0x0 DUP1 SLOAD SWAP1 PUSH2 0x100 EXP SWAP1 DIV PUSH20 0xFFFFFFFFFFFFFFFFFFFFFFFFFFFFFFFFFFFFFFFF AND PUSH20 0xFFFFFFFFFFFFFFFFFFFFFFFFFFFFFFFFFFFFFFFF AND EQ ISZERO PUSH2 0x50C JUMPI PUSH1 0x40 MLOAD PUSH32 0x8C379A000000000000000000000000000000000000000000000000000000000 DUP2 MSTORE PUSH1 0x4 ADD PUSH2 0x503 SWAP1 PUSH2 0x111E JUMP JUMPDEST PUSH1 0x40 MLOAD DUP1 SWAP2 SUB SWAP1 REVERT JUMPDEST PUSH1 0x5 PUSH1 0x0 CALLER PUSH20 0xFFFFFFFFFFFFFFFFFFFFFFFFFFFFFFFFFFFFFFFF AND PUSH20 0xFFFFFFFFFFFFFFFFFFFFFFFFFFFFFFFFFFFFFFFF AND DUP2 MSTORE PUSH1 0x20 ADD SWAP1 DUP2 MSTORE PUSH1 0x20 ADD PUSH1 0x0 KECCAK256 PUSH1 0x0 SWAP1 SLOAD SWAP1 PUSH2 0x100 EXP SWAP1 DIV PUSH1 0xFF AND ISZERO PUSH2 0x599 JUMPI PUSH1 0x40 MLOAD PUSH32 0x8C379A000000000000000000000000000000000000000000000000000000000 DUP2 MSTORE PUSH1 0x4 ADD PUSH2 0x590 SWAP1 PUSH2 0x115E JUMP JUMPDEST PUSH1 0x40 MLOAD DUP1 SWAP2 SUB SWAP1 REVERT JUMPDEST PUSH1 0x4 PUSH1 0x0 CALLER PUSH20 0xFFFFFFFFFFFFFFFFFFFFFFFFFFFFFFFFFFFFFFFF AND PUSH20 0xFFFFFFFFFFFFFFFFFFFFFFFFFFFFFFFFFFFFFFFF AND DUP2 MSTORE PUSH1 0x20 ADD SWAP1 DUP2 MSTORE PUSH1 0x20 ADD PUSH1 0x0 KECCAK256 PUSH1 0x0 SWAP1 SLOAD SWAP1 PUSH2 0x100 EXP SWAP1 DIV PUSH1 0xFF AND ISZERO PUSH2 0x626 JUMPI PUSH1 0x40 MLOAD PUSH32 0x8C379A000000000000000000000000000000000000000000000000000000000 DUP2 MSTORE PUSH1 0x4 ADD PUSH2 0x61D SWAP1 PUSH2 0x10FE JUMP JUMPDEST PUSH1 0x40 MLOAD DUP1 SWAP2 SUB SWAP1 REVERT JUMPDEST PUSH1 0x3 CALLER SWAP1 DUP1 PUSH1 0x1 DUP2 SLOAD ADD DUP1 DUP3 SSTORE DUP1 SWAP2 POP POP PUSH1 0x1 SWAP1 SUB SWAP1 PUSH1 0x0 MSTORE PUSH1 0x20 PUSH1 0x0 KECCAK256 ADD PUSH1 0x0 SWAP1 SWAP2 SWAP1 SWAP2 SWAP1 SWAP2 PUSH2 0x100 EXP DUP2 SLOAD DUP2 PUSH20 0xFFFFFFFFFFFFFFFFFFFFFFFFFFFFFFFFFFFFFFFF MUL NOT AND SWAP1 DUP4 PUSH20 0xFFFFFFFFFFFFFFFFFFFFFFFFFFFFFFFFFFFFFFFF AND MUL OR SWAP1 SSTORE POP PUSH1 0x1 PUSH1 0x5 PUSH1 0x0 CALLER PUSH20 0xFFFFFFFFFFFFFFFFFFFFFFFFFFFFFFFFFFFFFFFF AND PUSH20 0xFFFFFFFFFFFFFFFFFFFFFFFFFFFFFFFFFFFFFFFF AND DUP2 MSTORE PUSH1 0x20 ADD SWAP1 DUP2 MSTORE PUSH1 0x20 ADD PUSH1 0x0 KECCAK256 PUSH1 0x0 PUSH2 0x100 EXP DUP2 SLOAD DUP2 PUSH1 0xFF MUL NOT AND SWAP1 DUP4 ISZERO ISZERO MUL OR SWAP1 SSTORE POP CALLER PUSH20 0xFFFFFFFFFFFFFFFFFFFFFFFFFFFFFFFFFFFFFFFF AND PUSH32 0x9036BC06AD4A578F0132D89BA4ADC07B9772275526730ACC38D7E4B4C11872A3 PUSH1 0x1 PUSH1 0x40 MLOAD PUSH2 0x728 SWAP2 SWAP1 PUSH2 0x10DC JUMP JUMPDEST PUSH1 0x40 MLOAD DUP1 SWAP2 SUB SWAP1 LOG2 JUMP JUMPDEST DUP1 PUSH20 0xFFFFFFFFFFFFFFFFFFFFFFFFFFFFFFFFFFFFFFFF AND PUSH1 0x0 DUP1 SLOAD SWAP1 PUSH2 0x100 EXP SWAP1 DIV PUSH20 0xFFFFFFFFFFFFFFFFFFFFFFFFFFFFFFFFFFFFFFFF AND PUSH20 0xFFFFFFFFFFFFFFFFFFFFFFFFFFFFFFFFFFFFFFFF AND EQ ISZERO PUSH2 0x7C1 JUMPI PUSH1 0x40 MLOAD PUSH32 0x8C379A000000000000000000000000000000000000000000000000000000000 DUP2 MSTORE PUSH1 0x4 ADD PUSH2 0x7B8 SWAP1 PUSH2 0x111E JUMP JUMPDEST PUSH1 0x40 MLOAD DUP1 SWAP2 SUB SWAP1 REVERT JUMPDEST PUSH1 0x5 PUSH1 0x0 DUP3 PUSH20 0xFFFFFFFFFFFFFFFFFFFFFFFFFFFFFFFFFFFFFFFF AND PUSH20 0xFFFFFFFFFFFFFFFFFFFFFFFFFFFFFFFFFFFFFFFF AND DUP2 MSTORE PUSH1 0x20 ADD SWAP1 DUP2 MSTORE PUSH1 0x20 ADD PUSH1 0x0 KECCAK256 PUSH1 0x0 SWAP1 SLOAD SWAP1 PUSH2 0x100 EXP SWAP1 DIV PUSH1 0xFF AND ISZERO PUSH2 0x84E JUMPI PUSH1 0x40 MLOAD PUSH32 0x8C379A000000000000000000000000000000000000000000000000000000000 DUP2 MSTORE PUSH1 0x4 ADD PUSH2 0x845 SWAP1 PUSH2 0x115E JUMP JUMPDEST PUSH1 0x40 MLOAD DUP1 SWAP2 SUB SWAP1 REVERT JUMPDEST PUSH1 0x4 PUSH1 0x0 DUP3 PUSH20 0xFFFFFFFFFFFFFFFFFFFFFFFFFFFFFFFFFFFFFFFF AND PUSH20 0xFFFFFFFFFFFFFFFFFFFFFFFFFFFFFFFFFFFFFFFF AND DUP2 MSTORE PUSH1 0x20 ADD SWAP1 DUP2 MSTORE PUSH1 0x20 ADD PUSH1 0x0 KECCAK256 PUSH1 0x0 SWAP1 SLOAD SWAP1 PUSH2 0x100 EXP SWAP1 DIV PUSH1 0xFF AND ISZERO PUSH2 0x8DB JUMPI PUSH1 0x40 MLOAD PUSH32 0x8C379A000000000000000000000000000000000000000000000000000000000 DUP2 MSTORE PUSH1 0x4 ADD PUSH2 0x8D2 SWAP1 PUSH2 0x10FE JUMP JUMPDEST PUSH1 0x40 MLOAD DUP1 SWAP2 SUB SWAP1 REVERT JUMPDEST PUSH1 0x3 DUP2 SWAP1 DUP1 PUSH1 0x1 DUP2 SLOAD ADD DUP1 DUP3 SSTORE DUP1 SWAP2 POP POP PUSH1 0x1 SWAP1 SUB SWAP1 PUSH1 0x0 MSTORE PUSH1 0x20 PUSH1 0x0 KECCAK256 ADD PUSH1 0x0 SWAP1 SWAP2 SWAP1 SWAP2 SWAP1 SWAP2 PUSH2 0x100 EXP DUP2 SLOAD DUP2 PUSH20 0xFFFFFFFFFFFFFFFFFFFFFFFFFFFFFFFFFFFFFFFF MUL NOT AND SWAP1 DUP4 PUSH20 0xFFFFFFFFFFFFFFFFFFFFFFFFFFFFFFFFFFFFFFFF AND MUL OR SWAP1 SSTORE POP PUSH1 0x1 PUSH1 0x5 PUSH1 0x0 DUP4 PUSH20 0xFFFFFFFFFFFFFFFFFFFFFFFFFFFFFFFFFFFFFFFF AND PUSH20 0xFFFFFFFFFFFFFFFFFFFFFFFFFFFFFFFFFFFFFFFF AND DUP2 MSTORE PUSH1 0x20 ADD SWAP1 DUP2 MSTORE PUSH1 0x20 ADD PUSH1 0x0 KECCAK256 PUSH1 0x0 PUSH2 0x100 EXP DUP2 SLOAD DUP2 PUSH1 0xFF MUL NOT AND SWAP1 DUP4 ISZERO ISZERO MUL OR SWAP1 SSTORE POP DUP1 PUSH20 0xFFFFFFFFFFFFFFFFFFFFFFFFFFFFFFFFFFFFFFFF AND PUSH32 0x9036BC06AD4A578F0132D89BA4ADC07B9772275526730ACC38D7E4B4C11872A3 PUSH1 0x1 PUSH1 0x40 MLOAD PUSH2 0x9DD SWAP2 SWAP1 PUSH2 0x10DC JUMP JUMPDEST PUSH1 0x40 MLOAD DUP1 SWAP2 SUB SWAP1 LOG2 POP JUMP JUMPDEST PUSH1 0x0 PUSH1 0x3 DUP1 SLOAD SWAP1 POP SWAP1 POP SWAP1 JUMP JUMPDEST CALLER PUSH20 0xFFFFFFFFFFFFFFFFFFFFFFFFFFFFFFFFFFFFFFFF AND PUSH1 0x0 DUP1 SLOAD SWAP1 PUSH2 0x100 EXP SWAP1 DIV PUSH20 0xFFFFFFFFFFFFFFFFFFFFFFFFFFFFFFFFFFFFFFFF AND PUSH20 0xFFFFFFFFFFFFFFFFFFFFFFFFFFFFFFFFFFFFFFFF AND EQ ISZERO PUSH2 0xA84 JUMPI PUSH1 0x40 MLOAD PUSH32 0x8C379A000000000000000000000000000000000000000000000000000000000 DUP2 MSTORE PUSH1 0x4 ADD PUSH2 0xA7B SWAP1 PUSH2 0x111E JUMP JUMPDEST PUSH1 0x40 MLOAD DUP1 SWAP2 SUB SWAP1 REVERT JUMPDEST PUSH1 0x4 PUSH1 0x0 CALLER PUSH20 0xFFFFFFFFFFFFFFFFFFFFFFFFFFFFFFFFFFFFFFFF AND PUSH20 0xFFFFFFFFFFFFFFFFFFFFFFFFFFFFFFFFFFFFFFFF AND DUP2 MSTORE PUSH1 0x20 ADD SWAP1 DUP2 MSTORE PUSH1 0x20 ADD PUSH1 0x0 KECCAK256 PUSH1 0x0 SWAP1 SLOAD SWAP1 PUSH2 0x100 EXP SWAP1 DIV PUSH1 0xFF AND ISZERO PUSH2 0xB11 JUMPI PUSH1 0x40 MLOAD PUSH32 0x8C379A000000000000000000000000000000000000000000000000000000000 DUP2 MSTORE PUSH1 0x4 ADD PUSH2 0xB08 SWAP1 PUSH2 0x113E JUMP JUMPDEST PUSH1 0x40 MLOAD DUP1 SWAP2 SUB SWAP1 REVERT JUMPDEST PUSH1 0x5 PUSH1 0x0 CALLER PUSH20 0xFFFFFFFFFFFFFFFFFFFFFFFFFFFFFFFFFFFFFFFF AND PUSH20 0xFFFFFFFFFFFFFFFFFFFFFFFFFFFFFFFFFFFFFFFF AND DUP2 MSTORE PUSH1 0x20 ADD SWAP1 DUP2 MSTORE PUSH1 0x20 ADD PUSH1 0x0 KECCAK256 PUSH1 0x0 SWAP1 SLOAD SWAP1 PUSH2 0x100 EXP SWAP1 DIV PUSH1 0xFF AND ISZERO PUSH2 0xB9E JUMPI PUSH1 0x40 MLOAD PUSH32 0x8C379A000000000000000000000000000000000000000000000000000000000 DUP2 MSTORE PUSH1 0x4 ADD PUSH2 0xB95 SWAP1 PUSH2 0x10FE JUMP JUMPDEST PUSH1 0x40 MLOAD DUP1 SWAP2 SUB SWAP1 REVERT JUMPDEST PUSH1 0x2 CALLER SWAP1 DUP1 PUSH1 0x1 DUP2 SLOAD ADD DUP1 DUP3 SSTORE DUP1 SWAP2 POP POP PUSH1 0x1 SWAP1 SUB SWAP1 PUSH1 0x0 MSTORE PUSH1 0x20 PUSH1 0x0 KECCAK256 ADD PUSH1 0x0 SWAP1 SWAP2 SWAP1 SWAP2 SWAP1 SWAP2 PUSH2 0x100 EXP DUP2 SLOAD DUP2 PUSH20 0xFFFFFFFFFFFFFFFFFFFFFFFFFFFFFFFFFFFFFFFF MUL NOT AND SWAP1 DUP4 PUSH20 0xFFFFFFFFFFFFFFFFFFFFFFFFFFFFFFFFFFFFFFFF AND MUL OR SWAP1 SSTORE POP PUSH1 0x1 PUSH1 0x4 PUSH1 0x0 CALLER PUSH20 0xFFFFFFFFFFFFFFFFFFFFFFFFFFFFFFFFFFFFFFFF AND PUSH20 0xFFFFFFFFFFFFFFFFFFFFFFFFFFFFFFFFFFFFFFFF AND DUP2 MSTORE PUSH1 0x20 ADD SWAP1 DUP2 MSTORE PUSH1 0x20 ADD PUSH1 0x0 KECCAK256 PUSH1 0x0 PUSH2 0x100 EXP DUP2 SLOAD DUP2 PUSH1 0xFF MUL NOT AND SWAP1 DUP4 ISZERO ISZERO MUL OR SWAP1 SSTORE POP CALLER PUSH20 0xFFFFFFFFFFFFFFFFFFFFFFFFFFFFFFFFFFFFFFFF AND PUSH32 0x57D77EB32E87E8C65C7CEC1DF5B0E8A8D5C4EAE1B40C7246E7668ED702DD247A PUSH1 0x1 PUSH1 0x40 MLOAD PUSH2 0xCA0 SWAP2 SWAP1 PUSH2 0x10DC JUMP JUMPDEST PUSH1 0x40 MLOAD DUP1 SWAP2 SUB SWAP1 LOG2 JUMP JUMPDEST PUSH1 0x0 DUP1 PUSH1 0x0 SWAP1 SLOAD SWAP1 PUSH2 0x100 EXP SWAP1 DIV PUSH20 0xFFFFFFFFFFFFFFFFFFFFFFFFFFFFFFFFFFFFFFFF AND SWAP1 POP SWAP1 JUMP JUMPDEST PUSH1 0x0 PUSH1 0x2 DUP1 SLOAD SWAP1 POP SWAP1 POP SWAP1 JUMP JUMPDEST PUSH1 0x0 DUP2 PUSH20 0xFFFFFFFFFFFFFFFFFFFFFFFFFFFFFFFFFFFFFFFF AND PUSH1 0x0 DUP1 SLOAD SWAP1 PUSH2 0x100 EXP SWAP1 DIV PUSH20 0xFFFFFFFFFFFFFFFFFFFFFFFFFFFFFFFFFFFFFFFF AND PUSH20 0xFFFFFFFFFFFFFFFFFFFFFFFFFFFFFFFFFFFFFFFF AND EQ ISZERO PUSH2 0xD3B JUMPI PUSH1 0x0 DUP1 REVERT JUMPDEST PUSH1 0x5 PUSH1 0x0 DUP4 PUSH20 0xFFFFFFFFFFFFFFFFFFFFFFFFFFFFFFFFFFFFFFFF AND PUSH20 0xFFFFFFFFFFFFFFFFFFFFFFFFFFFFFFFFFFFFFFFF AND DUP2 MSTORE PUSH1 0x20 ADD SWAP1 DUP2 MSTORE PUSH1 0x20 ADD PUSH1 0x0 KECCAK256 PUSH1 0x0 SWAP1 SLOAD SWAP1 PUSH2 0x100 EXP SWAP1 DIV PUSH1 0xFF AND SWAP1 POP SWAP2 SWAP1 POP JUMP JUMPDEST PUSH1 0x0 DUP2 PUSH20 0xFFFFFFFFFFFFFFFFFFFFFFFFFFFFFFFFFFFFFFFF AND PUSH1 0x0 DUP1 SLOAD SWAP1 PUSH2 0x100 EXP SWAP1 DIV PUSH20 0xFFFFFFFFFFFFFFFFFFFFFFFFFFFFFFFFFFFFFFFF AND PUSH20 0xFFFFFFFFFFFFFFFFFFFFFFFFFFFFFFFFFFFFFFFF AND EQ ISZERO PUSH2 0xDEA JUMPI PUSH1 0x0 DUP1 REVERT JUMPDEST PUSH1 0x4 PUSH1 0x0 DUP4 PUSH20 0xFFFFFFFFFFFFFFFFFFFFFFFFFFFFFFFFFFFFFFFF AND PUSH20 0xFFFFFFFFFFFFFFFFFFFFFFFFFFFFFFFFFFFFFFFF AND DUP2 MSTORE PUSH1 0x20 ADD SWAP1 DUP2 MSTORE PUSH1 0x20 ADD PUSH1 0x0 KECCAK256 PUSH1 0x0 SWAP1 SLOAD SWAP1 PUSH2 0x100 EXP SWAP1 DIV PUSH1 0xFF AND SWAP1 POP SWAP2 SWAP1 POP JUMP JUMPDEST PUSH1 0x60 PUSH1 0x1 DUP1 SLOAD PUSH2 0xE4D SWAP1 PUSH2 0x1245 JUMP JUMPDEST DUP1 PUSH1 0x1F ADD PUSH1 0x20 DUP1 SWAP2 DIV MUL PUSH1 0x20 ADD PUSH1 0x40 MLOAD SWAP1 DUP2 ADD PUSH1 0x40 MSTORE DUP1 SWAP3 SWAP2 SWAP1 DUP2 DUP2 MSTORE PUSH1 0x20 ADD DUP3 DUP1 SLOAD PUSH2 0xE79 SWAP1 PUSH2 0x1245 JUMP JUMPDEST DUP1 ISZERO PUSH2 0xEC6 JUMPI DUP1 PUSH1 0x1F LT PUSH2 0xE9B JUMPI PUSH2 0x100 DUP1 DUP4 SLOAD DIV MUL DUP4 MSTORE SWAP2 PUSH1 0x20 ADD SWAP2 PUSH2 0xEC6 JUMP JUMPDEST DUP3 ADD SWAP2 SWAP1 PUSH1 0x0 MSTORE PUSH1 0x20 PUSH1 0x0 KECCAK256 SWAP1 JUMPDEST DUP2 SLOAD DUP2 MSTORE SWAP1 PUSH1 0x1 ADD SWAP1 PUSH1 0x20 ADD DUP1 DUP4 GT PUSH2 0xEA9 JUMPI DUP3 SWAP1 SUB PUSH1 0x1F AND DUP3 ADD SWAP2 JUMPDEST POP POP POP POP POP SWAP1 POP SWAP1 JUMP JUMPDEST PUSH1 0x0 DUP2 CALLDATALOAD SWAP1 POP PUSH2 0xEDF DUP2 PUSH2 0x1386 JUMP JUMPDEST SWAP3 SWAP2 POP POP JUMP JUMPDEST PUSH1 0x0 PUSH1 0x20 DUP3 DUP5 SUB SLT ISZERO PUSH2 0xEFB JUMPI PUSH2 0xEFA PUSH2 0x12A6 JUMP JUMPDEST JUMPDEST PUSH1 0x0 PUSH2 0xF09 DUP5 DUP3 DUP6 ADD PUSH2 0xED0 JUMP JUMPDEST SWAP2 POP POP SWAP3 SWAP2 POP POP JUMP JUMPDEST PUSH2 0xF1B DUP2 PUSH2 0x11CA JUMP JUMPDEST DUP3 MSTORE POP POP JUMP JUMPDEST PUSH2 0xF2A DUP2 PUSH2 0x11DC JUMP JUMPDEST DUP3 MSTORE POP POP JUMP JUMPDEST PUSH1 0x0 PUSH2 0xF3B DUP3 PUSH2 0x11AE JUMP JUMPDEST PUSH2 0xF45 DUP2 DUP6 PUSH2 0x11B9 JUMP JUMPDEST SWAP4 POP PUSH2 0xF55 DUP2 DUP6 PUSH1 0x20 DUP7 ADD PUSH2 0x1212 JUMP JUMPDEST PUSH2 0xF5E DUP2 PUSH2 0x12AB JUMP JUMPDEST DUP5 ADD SWAP2 POP POP SWAP3 SWAP2 POP POP JUMP JUMPDEST PUSH1 0x0 DUP2 SLOAD PUSH2 0xF76 DUP2 PUSH2 0x1245 JUMP JUMPDEST PUSH2 0xF80 DUP2 DUP7 PUSH2 0x11B9 JUMP JUMPDEST SWAP5 POP PUSH1 0x1 DUP3 AND PUSH1 0x0 DUP2 EQ PUSH2 0xF9B JUMPI PUSH1 0x1 DUP2 EQ PUSH2 0xFAD JUMPI PUSH2 0xFE0 JUMP JUMPDEST PUSH1 0xFF NOT DUP4 AND DUP7 MSTORE PUSH1 0x20 DUP7 ADD SWAP4 POP PUSH2 0xFE0 JUMP JUMPDEST PUSH2 0xFB6 DUP6 PUSH2 0x1199 JUMP JUMPDEST PUSH1 0x0 JUMPDEST DUP4 DUP2 LT ISZERO PUSH2 0xFD8 JUMPI DUP2 SLOAD DUP2 DUP10 ADD MSTORE PUSH1 0x1 DUP3 ADD SWAP2 POP PUSH1 0x20 DUP2 ADD SWAP1 POP PUSH2 0xFB9 JUMP JUMPDEST DUP1 DUP9 ADD SWAP6 POP POP POP JUMPDEST POP POP POP SWAP3 SWAP2 POP POP JUMP JUMPDEST PUSH1 0x0 PUSH2 0xFF6 PUSH1 0x20 DUP4 PUSH2 0x11B9 JUMP JUMPDEST SWAP2 POP PUSH2 0x1001 DUP3 PUSH2 0x12BC JUMP JUMPDEST PUSH1 0x20 DUP3 ADD SWAP1 POP SWAP2 SWAP1 POP JUMP JUMPDEST PUSH1 0x0 PUSH2 0x1019 PUSH1 0x29 DUP4 PUSH2 0x11B9 JUMP JUMPDEST SWAP2 POP PUSH2 0x1024 DUP3 PUSH2 0x12E5 JUMP JUMPDEST PUSH1 0x40 DUP3 ADD SWAP1 POP SWAP2 SWAP1 POP JUMP JUMPDEST PUSH1 0x0 PUSH2 0x103C PUSH1 0x11 DUP4 PUSH2 0x11B9 JUMP JUMPDEST SWAP2 POP PUSH2 0x1047 DUP3 PUSH2 0x1334 JUMP JUMPDEST PUSH1 0x20 DUP3 ADD SWAP1 POP SWAP2 SWAP1 POP JUMP JUMPDEST PUSH1 0x0 PUSH2 0x105F PUSH1 0x11 DUP4 PUSH2 0x11B9 JUMP JUMPDEST SWAP2 POP PUSH2 0x106A DUP3 PUSH2 0x135D JUMP JUMPDEST PUSH1 0x20 DUP3 ADD SWAP1 POP SWAP2 SWAP1 POP JUMP JUMPDEST PUSH2 0x107E DUP2 PUSH2 0x1208 JUMP JUMPDEST DUP3 MSTORE POP POP JUMP JUMPDEST PUSH1 0x0 PUSH1 0x20 DUP3 ADD SWAP1 POP PUSH2 0x1099 PUSH1 0x0 DUP4 ADD DUP5 PUSH2 0xF12 JUMP JUMPDEST SWAP3 SWAP2 POP POP JUMP JUMPDEST PUSH1 0x0 PUSH1 0x20 DUP3 ADD SWAP1 POP PUSH2 0x10B4 PUSH1 0x0 DUP4 ADD DUP5 PUSH2 0xF21 JUMP JUMPDEST SWAP3 SWAP2 POP POP JUMP JUMPDEST PUSH1 0x0 PUSH1 0x20 DUP3 ADD SWAP1 POP DUP2 DUP2 SUB PUSH1 0x0 DUP4 ADD MSTORE PUSH2 0x10D4 DUP2 DUP5 PUSH2 0xF30 JUMP JUMPDEST SWAP1 POP SWAP3 SWAP2 POP POP JUMP JUMPDEST PUSH1 0x0 PUSH1 0x20 DUP3 ADD SWAP1 POP DUP2 DUP2 SUB PUSH1 0x0 DUP4 ADD MSTORE PUSH2 0x10F6 DUP2 DUP5 PUSH2 0xF69 JUMP JUMPDEST SWAP1 POP SWAP3 SWAP2 POP POP JUMP JUMPDEST PUSH1 0x0 PUSH1 0x20 DUP3 ADD SWAP1 POP DUP2 DUP2 SUB PUSH1 0x0 DUP4 ADD MSTORE PUSH2 0x1117 DUP2 PUSH2 0xFE9 JUMP JUMPDEST SWAP1 POP SWAP2 SWAP1 POP JUMP JUMPDEST PUSH1 0x0 PUSH1 0x20 DUP3 ADD SWAP1 POP DUP2 DUP2 SUB PUSH1 0x0 DUP4 ADD MSTORE PUSH2 0x1137 DUP2 PUSH2 0x100C JUMP JUMPDEST SWAP1 POP SWAP2 SWAP1 POP JUMP JUMPDEST PUSH1 0x0 PUSH1 0x20 DUP3 ADD SWAP1 POP DUP2 DUP2 SUB PUSH1 0x0 DUP4 ADD MSTORE PUSH2 0x1157 DUP2 PUSH2 0x102F JUMP JUMPDEST SWAP1 POP SWAP2 SWAP1 POP JUMP JUMPDEST PUSH1 0x0 PUSH1 0x20 DUP3 ADD SWAP1 POP DUP2 DUP2 SUB PUSH1 0x0 DUP4 ADD MSTORE PUSH2 0x1177 DUP2 PUSH2 0x1052 JUMP JUMPDEST SWAP1 POP SWAP2 SWAP1 POP JUMP JUMPDEST PUSH1 0x0 PUSH1 0x20 DUP3 ADD SWAP1 POP PUSH2 0x1193 PUSH1 0x0 DUP4 ADD DUP5 PUSH2 0x1075 JUMP JUMPDEST SWAP3 SWAP2 POP POP JUMP JUMPDEST PUSH1 0x0 DUP2 SWAP1 POP DUP2 PUSH1 0x0 MSTORE PUSH1 0x20 PUSH1 0x0 KECCAK256 SWAP1 POP SWAP2 SWAP1 POP JUMP JUMPDEST PUSH1 0x0 DUP2 MLOAD SWAP1 POP SWAP2 SWAP1 POP JUMP JUMPDEST PUSH1 0x0 DUP3 DUP3 MSTORE PUSH1 0x20 DUP3 ADD SWAP1 POP SWAP3 SWAP2 POP POP JUMP JUMPDEST PUSH1 0x0 PUSH2 0x11D5 DUP3 PUSH2 0x11E8 JUMP JUMPDEST SWAP1 POP SWAP2 SWAP1 POP JUMP JUMPDEST PUSH1 0x0 DUP2 ISZERO ISZERO SWAP1 POP SWAP2 SWAP1 POP JUMP JUMPDEST PUSH1 0x0 PUSH20 0xFFFFFFFFFFFFFFFFFFFFFFFFFFFFFFFFFFFFFFFF DUP3 AND SWAP1 POP SWAP2 SWAP1 POP JUMP JUMPDEST PUSH1 0x0 DUP2 SWAP1 POP SWAP2 SWAP1 POP JUMP JUMPDEST PUSH1 0x0 JUMPDEST DUP4 DUP2 LT ISZERO PUSH2 0x1230 JUMPI DUP1 DUP3 ADD MLOAD DUP2 DUP5 ADD MSTORE PUSH1 0x20 DUP2 ADD SWAP1 POP PUSH2 0x1215 JUMP JUMPDEST DUP4 DUP2 GT ISZERO PUSH2 0x123F JUMPI PUSH1 0x0 DUP5 DUP5 ADD MSTORE JUMPDEST POP POP POP POP JUMP JUMPDEST PUSH1 0x0 PUSH1 0x2 DUP3 DIV SWAP1 POP PUSH1 0x1 DUP3 AND DUP1 PUSH2 0x125D JUMPI PUSH1 0x7F DUP3 AND SWAP2 POP JUMPDEST PUSH1 0x20 DUP3 LT DUP2 EQ ISZERO PUSH2 0x1271 JUMPI PUSH2 0x1270 PUSH2 0x1277 JUMP JUMPDEST JUMPDEST POP SWAP2 SWAP1 POP JUMP JUMPDEST PUSH32 0x4E487B7100000000000000000000000000000000000000000000000000000000 PUSH1 0x0 MSTORE PUSH1 0x22 PUSH1 0x4 MSTORE PUSH1 0x24 PUSH1 0x0 REVERT JUMPDEST PUSH1 0x0 DUP1 REVERT JUMPDEST PUSH1 0x0 PUSH1 0x1F NOT PUSH1 0x1F DUP4 ADD AND SWAP1 POP SWAP2 SWAP1 POP JUMP JUMPDEST PUSH32 0x4E6F20706F74732076616C6964617220692064656E6567617220616C686F7261 PUSH1 0x0 DUP3 ADD MSTORE POP JUMP JUMPDEST PUSH32 0x456C2070726F70696574617269206E6F20706F742076616C6964617220656C20 PUSH1 0x0 DUP3 ADD MSTORE PUSH32 0x7365752061737365740000000000000000000000000000000000000000000000 PUSH1 0x20 DUP3 ADD MSTORE POP JUMP JUMPDEST PUSH32 0x56616C696461646F722072657065746974000000000000000000000000000000 PUSH1 0x0 DUP3 ADD MSTORE POP JUMP JUMPDEST PUSH32 0x44656E656761646F722072657065746974000000000000000000000000000000 PUSH1 0x0 DUP3 ADD MSTORE POP JUMP JUMPDEST PUSH2 0x138F DUP2 PUSH2 0x11CA JUMP JUMPDEST DUP2 EQ PUSH2 0x139A JUMPI PUSH1 0x0 DUP1 REVERT JUMPDEST POP JUMP INVALID LOG2 PUSH5 0x6970667358 0x22 SLT KECCAK256 0x24 MSTORE8 0xED 0xBC 0xB8 0xE9 0xF9 PUSH15 0x9E3ECC5E341B0DC6E451086013682B 0xDC PUSH13 0xA35B027EC12D0364736F6C6343 STOP ADDMOD SMOD STOP CALLER "
				},
				"gasEstimates": {
					"creation": {
						"codeDepositCost": "1015000",
						"executionCost": "infinite",
						"totalCost": "infinite"
					},
					"external": {
						"denegate()": "infinite",
						"denegate(address)": "infinite",
						"getFilename()": "infinite",
						"getOwner()": "2522",
						"hasDenied(address)": "5098",
						"hasValidated(address)": "5120",
						"nDenegations()": "2512",
						"nValidations()": "2467",
						"validate()": "infinite",
						"validate(address)": "infinite"
					}
				},
				"methodIdentifiers": {
					"denegate()": "5836e0b5",
					"denegate(address)": "58fe7a34",
					"getFilename()": "cef2320c",
					"getOwner()": "893d20e8",
					"hasDenied(address)": "b794cc2f",
					"hasValidated(address)": "c4374575",
					"nDenegations()": "5d8ab6e7",
					"nValidations()": "990ec12b",
					"validate()": "6901f668",
					"validate(address)": "207c64fb"
				}
			},
			"storageLayout": {
				"storage": [
					{
						"astId": 3,
						"contract": "PFG/Verificador.sol:Verificacio",
						"label": "propietari",
						"offset": 0,
						"slot": "0",
						"type": "t_address"
					},
					{
						"astId": 5,
						"contract": "PFG/Verificador.sol:Verificacio",
						"label": "filename",
						"offset": 0,
						"slot": "1",
						"type": "t_string_storage"
					},
					{
						"astId": 8,
						"contract": "PFG/Verificador.sol:Verificacio",
						"label": "validadors",
						"offset": 0,
						"slot": "2",
						"type": "t_array(t_address)dyn_storage"
					},
					{
						"astId": 11,
						"contract": "PFG/Verificador.sol:Verificacio",
						"label": "denegadors",
						"offset": 0,
						"slot": "3",
						"type": "t_array(t_address)dyn_storage"
					},
					{
						"astId": 15,
						"contract": "PFG/Verificador.sol:Verificacio",
						"label": "validacions",
						"offset": 0,
						"slot": "4",
						"type": "t_mapping(t_address,t_bool)"
					},
					{
						"astId": 19,
						"contract": "PFG/Verificador.sol:Verificacio",
						"label": "denegacions",
						"offset": 0,
						"slot": "5",
						"type": "t_mapping(t_address,t_bool)"
					}
				],
				"types": {
					"t_address": {
						"encoding": "inplace",
						"label": "address",
						"numberOfBytes": "20"
					},
					"t_array(t_address)dyn_storage": {
						"base": "t_address",
						"encoding": "dynamic_array",
						"label": "address[]",
						"numberOfBytes": "32"
					},
					"t_bool": {
						"encoding": "inplace",
						"label": "bool",
						"numberOfBytes": "1"
					},
					"t_mapping(t_address,t_bool)": {
						"encoding": "mapping",
						"key": "t_address",
						"label": "mapping(address => bool)",
						"numberOfBytes": "32",
						"value": "t_bool"
					},
					"t_string_storage": {
						"encoding": "bytes",
						"label": "string",
						"numberOfBytes": "32"
					}
				}
			},
			"userdoc": {
				"kind": "user",
				"methods": {},
				"version": 1
			}
		}
	}
}