{
	"PFG/AMM.sol": {
		"DEX": {
			"abi": [
				{
					"anonymous": false,
					"inputs": [
						{
							"indexed": false,
							"internalType": "uint256",
							"name": "_value",
							"type": "uint256"
						}
					],
					"name": "Deposit",
					"type": "event"
				},
				{
					"anonymous": false,
					"inputs": [
						{
							"indexed": false,
							"internalType": "uint256",
							"name": "_value",
							"type": "uint256"
						}
					],
					"name": "ETHSwapped",
					"type": "event"
				},
				{
					"anonymous": false,
					"inputs": [
						{
							"indexed": false,
							"internalType": "uint256",
							"name": "_value",
							"type": "uint256"
						}
					],
					"name": "Initialize",
					"type": "event"
				},
				{
					"anonymous": false,
					"inputs": [
						{
							"indexed": false,
							"internalType": "uint256",
							"name": "_value",
							"type": "uint256"
						}
					],
					"name": "TokensSwapped",
					"type": "event"
				},
				{
					"anonymous": false,
					"inputs": [
						{
							"indexed": false,
							"internalType": "uint256",
							"name": "_valueETH",
							"type": "uint256"
						},
						{
							"indexed": false,
							"internalType": "uint256",
							"name": "_valueToken",
							"type": "uint256"
						}
					],
					"name": "Withdraw",
					"type": "event"
				},
				{
					"inputs": [],
					"name": "deposit",
					"outputs": [],
					"stateMutability": "payable",
					"type": "function"
				},
				{
					"inputs": [
						{
							"internalType": "address",
							"name": "who",
							"type": "address"
						}
					],
					"name": "deposit",
					"outputs": [],
					"stateMutability": "payable",
					"type": "function"
				},
				{
					"inputs": [
						{
							"internalType": "uint256",
							"name": "token_amount",
							"type": "uint256"
						}
					],
					"name": "ercToEth",
					"outputs": [],
					"stateMutability": "nonpayable",
					"type": "function"
				},
				{
					"inputs": [
						{
							"internalType": "uint256",
							"name": "token_amount",
							"type": "uint256"
						},
						{
							"internalType": "address",
							"name": "who",
							"type": "address"
						}
					],
					"name": "ercToEth",
					"outputs": [],
					"stateMutability": "nonpayable",
					"type": "function"
				},
				{
					"inputs": [],
					"name": "ethToErc",
					"outputs": [],
					"stateMutability": "payable",
					"type": "function"
				},
				{
					"inputs": [
						{
							"internalType": "address",
							"name": "who",
							"type": "address"
						}
					],
					"name": "ethToErc",
					"outputs": [],
					"stateMutability": "payable",
					"type": "function"
				},
				{
					"inputs": [],
					"name": "getBalance",
					"outputs": [
						{
							"internalType": "uint256",
							"name": "",
							"type": "uint256"
						}
					],
					"stateMutability": "view",
					"type": "function"
				},
				{
					"inputs": [],
					"name": "getTokenBalance",
					"outputs": [
						{
							"internalType": "uint256",
							"name": "",
							"type": "uint256"
						}
					],
					"stateMutability": "view",
					"type": "function"
				},
				{
					"inputs": [
						{
							"internalType": "address",
							"name": "token_address",
							"type": "address"
						},
						{
							"internalType": "uint256",
							"name": "token_amount",
							"type": "uint256"
						}
					],
					"name": "initialize",
					"outputs": [],
					"stateMutability": "payable",
					"type": "function"
				},
				{
					"inputs": [
						{
							"internalType": "address",
							"name": "",
							"type": "address"
						}
					],
					"name": "liquidity",
					"outputs": [
						{
							"internalType": "uint256",
							"name": "",
							"type": "uint256"
						}
					],
					"stateMutability": "view",
					"type": "function"
				},
				{
					"inputs": [
						{
							"internalType": "uint256",
							"name": "eth",
							"type": "uint256"
						}
					],
					"name": "liquidityAdded",
					"outputs": [
						{
							"internalType": "uint256",
							"name": "",
							"type": "uint256"
						},
						{
							"internalType": "uint256",
							"name": "",
							"type": "uint256"
						}
					],
					"stateMutability": "view",
					"type": "function"
				},
				{
					"inputs": [
						{
							"internalType": "uint256",
							"name": "value",
							"type": "uint256"
						}
					],
					"name": "liquiditySubstracted",
					"outputs": [
						{
							"internalType": "uint256",
							"name": "",
							"type": "uint256"
						},
						{
							"internalType": "uint256",
							"name": "",
							"type": "uint256"
						}
					],
					"stateMutability": "view",
					"type": "function"
				},
				{
					"inputs": [
						{
							"internalType": "uint256",
							"name": "value",
							"type": "uint256"
						}
					],
					"name": "liquidityTaken",
					"outputs": [
						{
							"internalType": "uint256",
							"name": "",
							"type": "uint256"
						},
						{
							"internalType": "uint256",
							"name": "",
							"type": "uint256"
						}
					],
					"stateMutability": "view",
					"type": "function"
				},
				{
					"inputs": [
						{
							"internalType": "uint256",
							"name": "eth",
							"type": "uint256"
						}
					],
					"name": "priceERC",
					"outputs": [
						{
							"internalType": "uint256",
							"name": "",
							"type": "uint256"
						}
					],
					"stateMutability": "view",
					"type": "function"
				},
				{
					"inputs": [
						{
							"internalType": "uint256",
							"name": "erc",
							"type": "uint256"
						}
					],
					"name": "priceETH",
					"outputs": [
						{
							"internalType": "uint256",
							"name": "",
							"type": "uint256"
						}
					],
					"stateMutability": "view",
					"type": "function"
				},
				{
					"inputs": [
						{
							"internalType": "uint256",
							"name": "value",
							"type": "uint256"
						},
						{
							"internalType": "address",
							"name": "who",
							"type": "address"
						}
					],
					"name": "take",
					"outputs": [],
					"stateMutability": "nonpayable",
					"type": "function"
				},
				{
					"inputs": [],
					"name": "total_liquidity",
					"outputs": [
						{
							"internalType": "uint256",
							"name": "",
							"type": "uint256"
						}
					],
					"stateMutability": "view",
					"type": "function"
				},
				{
					"inputs": [
						{
							"internalType": "uint256",
							"name": "value",
							"type": "uint256"
						},
						{
							"internalType": "address",
							"name": "who",
							"type": "address"
						}
					],
					"name": "withdraw",
					"outputs": [],
					"stateMutability": "nonpayable",
					"type": "function"
				},
				{
					"inputs": [
						{
							"internalType": "uint256",
							"name": "value",
							"type": "uint256"
						}
					],
					"name": "withdraw",
					"outputs": [],
					"stateMutability": "nonpayable",
					"type": "function"
				}
			],
			"devdoc": {
				"kind": "dev",
				"methods": {},
				"version": 1
			},
			"evm": {
				"assembly": "    /* \"PFG/AMM.sol\":133:7387  contract DEX {... */\n  mstore(0x40, 0x80)\n  callvalue\n  dup1\n  iszero\n  tag_1\n  jumpi\n  0x00\n  dup1\n  revert\ntag_1:\n  pop\n  dataSize(sub_0)\n  dup1\n  dataOffset(sub_0)\n  0x00\n  codecopy\n  0x00\n  return\nstop\n\nsub_0: assembly {\n        /* \"PFG/AMM.sol\":133:7387  contract DEX {... */\n      mstore(0x40, 0x80)\n      jumpi(tag_1, lt(calldatasize, 0x04))\n      shr(0xe0, calldataload(0x00))\n      dup1\n      0x7937c03d\n      gt\n      tag_21\n      jumpi\n      dup1\n      0xcd6dc687\n      gt\n      tag_22\n      jumpi\n      dup1\n      0xcd6dc687\n      eq\n      tag_16\n      jumpi\n      dup1\n      0xd0e30db0\n      eq\n      tag_17\n      jumpi\n      dup1\n      0xdebc674c\n      eq\n      tag_18\n      jumpi\n      dup1\n      0xe2415984\n      eq\n      tag_19\n      jumpi\n      dup1\n      0xf340fa01\n      eq\n      tag_20\n      jumpi\n      jump(tag_1)\n    tag_22:\n      dup1\n      0x7937c03d\n      eq\n      tag_11\n      jumpi\n      dup1\n      0x82b2e257\n      eq\n      tag_12\n      jumpi\n      dup1\n      0xa5b8b16f\n      eq\n      tag_13\n      jumpi\n      dup1\n      0xa88ebf52\n      eq\n      tag_14\n      jumpi\n      dup1\n      0xb8c876b1\n      eq\n      tag_15\n      jumpi\n      jump(tag_1)\n    tag_21:\n      dup1\n      0x31f3bd28\n      gt\n      tag_23\n      jumpi\n      dup1\n      0x31f3bd28\n      eq\n      tag_6\n      jumpi\n      dup1\n      0x5f244d4e\n      eq\n      tag_7\n      jumpi\n      dup1\n      0x67da263d\n      eq\n      tag_8\n      jumpi\n      dup1\n      0x72a9d124\n      eq\n      tag_9\n      jumpi\n      dup1\n      0x732c3297\n      eq\n      tag_10\n      jumpi\n      jump(tag_1)\n    tag_23:\n      dup1\n      0xf714ce\n      eq\n      tag_2\n      jumpi\n      dup1\n      0x12065fe0\n      eq\n      tag_3\n      jumpi\n      dup1\n      0x1eb928aa\n      eq\n      tag_4\n      jumpi\n      dup1\n      0x2e1a7d4d\n      eq\n      tag_5\n      jumpi\n    tag_1:\n      0x00\n      dup1\n      revert\n        /* \"PFG/AMM.sol\":5353:5957  function withdraw(uint256 value, address who) external {... */\n    tag_2:\n      callvalue\n      dup1\n      iszero\n      tag_24\n      jumpi\n      0x00\n      dup1\n      revert\n    tag_24:\n      pop\n      tag_25\n      0x04\n      dup1\n      calldatasize\n      sub\n      dup2\n      add\n      swap1\n      tag_26\n      swap2\n      swap1\n      tag_27\n      jump\t// in\n    tag_26:\n      tag_28\n      jump\t// in\n    tag_25:\n      stop\n        /* \"PFG/AMM.sol\":7271:7384  function getBalance() external view returns (uint256) {... */\n    tag_3:\n      callvalue\n      dup1\n      iszero\n      tag_29\n      jumpi\n      0x00\n      dup1\n      revert\n    tag_29:\n      pop\n      tag_30\n      tag_31\n      jump\t// in\n    tag_30:\n      mload(0x40)\n      tag_32\n      swap2\n      swap1\n      tag_33\n      jump\t// in\n    tag_32:\n      mload(0x40)\n      dup1\n      swap2\n      sub\n      swap1\n      return\n        /* \"PFG/AMM.sol\":5969:6326  function liquiditySubstracted(uint256 value) external view returns (uint256, uint256){... */\n    tag_4:\n      callvalue\n      dup1\n      iszero\n      tag_34\n      jumpi\n      0x00\n      dup1\n      revert\n    tag_34:\n      pop\n      tag_35\n      0x04\n      dup1\n      calldatasize\n      sub\n      dup2\n      add\n      swap1\n      tag_36\n      swap2\n      swap1\n      tag_37\n      jump\t// in\n    tag_36:\n      tag_38\n      jump\t// in\n    tag_35:\n      mload(0x40)\n      tag_39\n      swap3\n      swap2\n      swap1\n      tag_40\n      jump\t// in\n    tag_39:\n      mload(0x40)\n      dup1\n      swap2\n      sub\n      swap1\n      return\n        /* \"PFG/AMM.sol\":4727:5339  function withdraw(uint256 value) external {... */\n    tag_5:\n      callvalue\n      dup1\n      iszero\n      tag_41\n      jumpi\n      0x00\n      dup1\n      revert\n    tag_41:\n      pop\n      tag_42\n      0x04\n      dup1\n      calldatasize\n      sub\n      dup2\n      add\n      swap1\n      tag_43\n      swap2\n      swap1\n      tag_37\n      jump\t// in\n    tag_43:\n      tag_44\n      jump\t// in\n    tag_42:\n      stop\n        /* \"PFG/AMM.sol\":187:217  uint256 public total_liquidity */\n    tag_6:\n      callvalue\n      dup1\n      iszero\n      tag_45\n      jumpi\n      0x00\n      dup1\n      revert\n    tag_45:\n      pop\n      tag_46\n      tag_47\n      jump\t// in\n    tag_46:\n      mload(0x40)\n      tag_48\n      swap2\n      swap1\n      tag_33\n      jump\t// in\n    tag_48:\n      mload(0x40)\n      dup1\n      swap2\n      sub\n      swap1\n      return\n        /* \"PFG/AMM.sol\":4356:4715  function liquidityAdded(uint256 eth) external view returns (uint256, uint256){... */\n    tag_7:\n      callvalue\n      dup1\n      iszero\n      tag_49\n      jumpi\n      0x00\n      dup1\n      revert\n    tag_49:\n      pop\n      tag_50\n      0x04\n      dup1\n      calldatasize\n      sub\n      dup2\n      add\n      swap1\n      tag_51\n      swap2\n      swap1\n      tag_37\n      jump\t// in\n    tag_51:\n      tag_52\n      jump\t// in\n    tag_50:\n      mload(0x40)\n      tag_53\n      swap3\n      swap2\n      swap1\n      tag_40\n      jump\t// in\n    tag_53:\n      mload(0x40)\n      dup1\n      swap2\n      sub\n      swap1\n      return\n        /* \"PFG/AMM.sol\":1422:1598  function priceETH(uint256 erc) external view returns(uint256){... */\n    tag_8:\n      callvalue\n      dup1\n      iszero\n      tag_54\n      jumpi\n      0x00\n      dup1\n      revert\n    tag_54:\n      pop\n      tag_55\n      0x04\n      dup1\n      calldatasize\n      sub\n      dup2\n      add\n      swap1\n      tag_56\n      swap2\n      swap1\n      tag_37\n      jump\t// in\n    tag_56:\n      tag_57\n      jump\t// in\n    tag_55:\n      mload(0x40)\n      tag_58\n      swap2\n      swap1\n      tag_33\n      jump\t// in\n    tag_58:\n      mload(0x40)\n      dup1\n      swap2\n      sub\n      swap1\n      return\n        /* \"PFG/AMM.sol\":1226:1410  function priceERC(uint256 eth) external view returns(uint256){... */\n    tag_9:\n      callvalue\n      dup1\n      iszero\n      tag_59\n      jumpi\n      0x00\n      dup1\n      revert\n    tag_59:\n      pop\n      tag_60\n      0x04\n      dup1\n      calldatasize\n      sub\n      dup2\n      add\n      swap1\n      tag_61\n      swap2\n      swap1\n      tag_37\n      jump\t// in\n    tag_61:\n      tag_62\n      jump\t// in\n    tag_60:\n      mload(0x40)\n      tag_63\n      swap2\n      swap1\n      tag_33\n      jump\t// in\n    tag_63:\n      mload(0x40)\n      dup1\n      swap2\n      sub\n      swap1\n      return\n        /* \"PFG/AMM.sol\":6338:6840  function take(uint256 value, address who) external {... */\n    tag_10:\n      callvalue\n      dup1\n      iszero\n      tag_64\n      jumpi\n      0x00\n      dup1\n      revert\n    tag_64:\n      pop\n      tag_65\n      0x04\n      dup1\n      calldatasize\n      sub\n      dup2\n      add\n      swap1\n      tag_66\n      swap2\n      swap1\n      tag_27\n      jump\t// in\n    tag_66:\n      tag_67\n      jump\t// in\n    tag_65:\n      stop\n        /* \"PFG/AMM.sol\":1610:1930  function ethToErc() external payable {... */\n    tag_11:\n      tag_68\n      tag_69\n      jump\t// in\n    tag_68:\n      stop\n        /* \"PFG/AMM.sol\":7129:7259  function getTokenBalance() external view returns (uint256) {... */\n    tag_12:\n      callvalue\n      dup1\n      iszero\n      tag_70\n      jumpi\n      0x00\n      dup1\n      revert\n    tag_70:\n      pop\n      tag_71\n      tag_72\n      jump\t// in\n    tag_71:\n      mload(0x40)\n      tag_73\n      swap2\n      swap1\n      tag_33\n      jump\t// in\n    tag_73:\n      mload(0x40)\n      dup1\n      swap2\n      sub\n      swap1\n      return\n        /* \"PFG/AMM.sol\":1942:2266  function ethToErc(address who) external payable {... */\n    tag_13:\n      tag_74\n      0x04\n      dup1\n      calldatasize\n      sub\n      dup2\n      add\n      swap1\n      tag_75\n      swap2\n      swap1\n      tag_76\n      jump\t// in\n    tag_75:\n      tag_77\n      jump\t// in\n    tag_74:\n      stop\n        /* \"PFG/AMM.sol\":6852:7117  function liquidityTaken(uint256 value) external view returns (uint256, uint256){... */\n    tag_14:\n      callvalue\n      dup1\n      iszero\n      tag_78\n      jumpi\n      0x00\n      dup1\n      revert\n    tag_78:\n      pop\n      tag_79\n      0x04\n      dup1\n      calldatasize\n      sub\n      dup2\n      add\n      swap1\n      tag_80\n      swap2\n      swap1\n      tag_37\n      jump\t// in\n    tag_80:\n      tag_81\n      jump\t// in\n    tag_79:\n      mload(0x40)\n      tag_82\n      swap3\n      swap2\n      swap1\n      tag_40\n      jump\t// in\n    tag_82:\n      mload(0x40)\n      dup1\n      swap2\n      sub\n      swap1\n      return\n        /* \"PFG/AMM.sol\":228:273  mapping (address => uint256) public liquidity */\n    tag_15:\n      callvalue\n      dup1\n      iszero\n      tag_83\n      jumpi\n      0x00\n      dup1\n      revert\n    tag_83:\n      pop\n      tag_84\n      0x04\n      dup1\n      calldatasize\n      sub\n      dup2\n      add\n      swap1\n      tag_85\n      swap2\n      swap1\n      tag_76\n      jump\t// in\n    tag_85:\n      tag_86\n      jump\t// in\n    tag_84:\n      mload(0x40)\n      tag_87\n      swap2\n      swap1\n      tag_33\n      jump\t// in\n    tag_87:\n      mload(0x40)\n      dup1\n      swap2\n      sub\n      swap1\n      return\n        /* \"PFG/AMM.sol\":530:988  function initialize(address token_address, uint256 token_amount) external payable {... */\n    tag_16:\n      tag_88\n      0x04\n      dup1\n      calldatasize\n      sub\n      dup2\n      add\n      swap1\n      tag_89\n      swap2\n      swap1\n      tag_90\n      jump\t// in\n    tag_89:\n      tag_91\n      jump\t// in\n    tag_88:\n      stop\n        /* \"PFG/AMM.sol\":3237:3786  function deposit() external payable {... */\n    tag_17:\n      tag_92\n      tag_93\n      jump\t// in\n    tag_92:\n      stop\n        /* \"PFG/AMM.sol\":2280:2747  function ercToEth(uint256 token_amount) external {... */\n    tag_18:\n      callvalue\n      dup1\n      iszero\n      tag_94\n      jumpi\n      0x00\n      dup1\n      revert\n    tag_94:\n      pop\n      tag_95\n      0x04\n      dup1\n      calldatasize\n      sub\n      dup2\n      add\n      swap1\n      tag_96\n      swap2\n      swap1\n      tag_37\n      jump\t// in\n    tag_96:\n      tag_97\n      jump\t// in\n    tag_95:\n      stop\n        /* \"PFG/AMM.sol\":2759:3225  function ercToEth(uint256 token_amount, address who) external {... */\n    tag_19:\n      callvalue\n      dup1\n      iszero\n      tag_98\n      jumpi\n      0x00\n      dup1\n      revert\n    tag_98:\n      pop\n      tag_99\n      0x04\n      dup1\n      calldatasize\n      sub\n      dup2\n      add\n      swap1\n      tag_100\n      swap2\n      swap1\n      tag_27\n      jump\t// in\n    tag_100:\n      tag_101\n      jump\t// in\n    tag_99:\n      stop\n        /* \"PFG/AMM.sol\":3798:4344  function deposit(address who) external payable {... */\n    tag_20:\n      tag_102\n      0x04\n      dup1\n      calldatasize\n      sub\n      dup2\n      add\n      swap1\n      tag_103\n      swap2\n      swap1\n      tag_76\n      jump\t// in\n    tag_103:\n      tag_104\n      jump\t// in\n    tag_102:\n      stop\n        /* \"PFG/AMM.sol\":5353:5957  function withdraw(uint256 value, address who) external {... */\n    tag_28:\n        /* \"PFG/AMM.sol\":5427:5444  uint256 eth_value */\n      0x00\n        /* \"PFG/AMM.sol\":5481:5496  total_liquidity */\n      sload(0x01)\n        /* \"PFG/AMM.sol\":5456:5477  address(this).balance */\n      selfbalance\n        /* \"PFG/AMM.sol\":5448:5453  value */\n      dup5\n        /* \"PFG/AMM.sol\":5448:5477  value * address(this).balance */\n      tag_106\n      swap2\n      swap1\n      tag_107\n      jump\t// in\n    tag_106:\n        /* \"PFG/AMM.sol\":5447:5496  (value * address(this).balance) / total_liquidity */\n      tag_108\n      swap2\n      swap1\n      tag_109\n      jump\t// in\n    tag_108:\n        /* \"PFG/AMM.sol\":5427:5496  uint256 eth_value = (value * address(this).balance) / total_liquidity */\n      swap1\n      pop\n        /* \"PFG/AMM.sol\":5515:5534  uint256 token_value */\n      0x00\n        /* \"PFG/AMM.sol\":5583:5598  total_liquidity */\n      sload(0x01)\n        /* \"PFG/AMM.sol\":5546:5554  tokenERC */\n      0x00\n      dup1\n      sload\n      swap1\n      0x0100\n      exp\n      swap1\n      div\n      0xffffffffffffffffffffffffffffffffffffffff\n      and\n        /* \"PFG/AMM.sol\":5546:5564  tokenERC.balanceOf */\n      0xffffffffffffffffffffffffffffffffffffffff\n      and\n      0x70a08231\n        /* \"PFG/AMM.sol\":5573:5577  this */\n      address\n        /* \"PFG/AMM.sol\":5546:5579  tokenERC.balanceOf(address(this)) */\n      mload(0x40)\n      dup3\n      0xffffffff\n      and\n      0xe0\n      shl\n      dup2\n      mstore\n      0x04\n      add\n      tag_110\n      swap2\n      swap1\n      tag_111\n      jump\t// in\n    tag_110:\n      0x20\n      mload(0x40)\n      dup1\n      dup4\n      sub\n      dup2\n      dup7\n      gas\n      staticcall\n      iszero\n      dup1\n      iszero\n      tag_113\n      jumpi\n      returndatasize\n      0x00\n      dup1\n      returndatacopy\n      revert(0x00, returndatasize)\n    tag_113:\n      pop\n      pop\n      pop\n      pop\n      mload(0x40)\n      returndatasize\n      not(0x1f)\n      0x1f\n      dup3\n      add\n      and\n      dup3\n      add\n      dup1\n      0x40\n      mstore\n      pop\n      dup2\n      add\n      swap1\n      tag_114\n      swap2\n      swap1\n      tag_115\n      jump\t// in\n    tag_114:\n        /* \"PFG/AMM.sol\":5538:5543  value */\n      dup6\n        /* \"PFG/AMM.sol\":5538:5579  value * tokenERC.balanceOf(address(this)) */\n      tag_116\n      swap2\n      swap1\n      tag_107\n      jump\t// in\n    tag_116:\n        /* \"PFG/AMM.sol\":5537:5598  (value * tokenERC.balanceOf(address(this))) / total_liquidity */\n      tag_117\n      swap2\n      swap1\n      tag_109\n      jump\t// in\n    tag_117:\n        /* \"PFG/AMM.sol\":5515:5598  uint256 token_value = (value * tokenERC.balanceOf(address(this))) / total_liquidity */\n      swap1\n      pop\n        /* \"PFG/AMM.sol\":5637:5646  eth_value */\n      dup2\n        /* \"PFG/AMM.sol\":5619:5628  liquidity */\n      0x02\n        /* \"PFG/AMM.sol\":5619:5633  liquidity[who] */\n      0x00\n        /* \"PFG/AMM.sol\":5629:5632  who */\n      dup6\n        /* \"PFG/AMM.sol\":5619:5633  liquidity[who] */\n      0xffffffffffffffffffffffffffffffffffffffff\n      and\n      0xffffffffffffffffffffffffffffffffffffffff\n      and\n      dup2\n      mstore\n      0x20\n      add\n      swap1\n      dup2\n      mstore\n      0x20\n      add\n      0x00\n      keccak256\n      0x00\n        /* \"PFG/AMM.sol\":5619:5646  liquidity[who] -= eth_value */\n      dup3\n      dup3\n      sload\n      tag_118\n      swap2\n      swap1\n      tag_119\n      jump\t// in\n    tag_118:\n      swap3\n      pop\n      pop\n      dup2\n      swap1\n      sstore\n      pop\n        /* \"PFG/AMM.sol\":5684:5693  eth_value */\n      dup2\n        /* \"PFG/AMM.sol\":5665:5680  total_liquidity */\n      0x01\n      0x00\n        /* \"PFG/AMM.sol\":5665:5693  total_liquidity -= eth_value */\n      dup3\n      dup3\n      sload\n      tag_120\n      swap2\n      swap1\n      tag_119\n      jump\t// in\n    tag_120:\n      swap3\n      pop\n      pop\n      dup2\n      swap1\n      sstore\n      pop\n        /* \"PFG/AMM.sol\":5715:5727  bool success */\n      0x00\n        /* \"PFG/AMM.sol\":5733:5736  who */\n      dup4\n        /* \"PFG/AMM.sol\":5733:5741  who.call */\n      0xffffffffffffffffffffffffffffffffffffffff\n      and\n        /* \"PFG/AMM.sol\":5749:5758  eth_value */\n      dup4\n        /* \"PFG/AMM.sol\":5733:5763  who.call{value: eth_value}(\"\") */\n      mload(0x40)\n      tag_121\n      swap1\n      tag_122\n      jump\t// in\n    tag_121:\n      0x00\n      mload(0x40)\n      dup1\n      dup4\n      sub\n      dup2\n      dup6\n      dup8\n      gas\n      call\n      swap3\n      pop\n      pop\n      pop\n      returndatasize\n      dup1\n      0x00\n      dup2\n      eq\n      tag_125\n      jumpi\n      mload(0x40)\n      swap2\n      pop\n      and(add(returndatasize, 0x3f), not(0x1f))\n      dup3\n      add\n      0x40\n      mstore\n      returndatasize\n      dup3\n      mstore\n      returndatasize\n      0x00\n      0x20\n      dup5\n      add\n      returndatacopy\n      jump(tag_124)\n    tag_125:\n      0x60\n      swap2\n      pop\n    tag_124:\n      pop\n        /* \"PFG/AMM.sol\":5714:5763  (bool success, ) = who.call{value: eth_value}(\"\") */\n      pop\n      swap1\n      pop\n        /* \"PFG/AMM.sol\":5790:5797  success */\n      dup1\n        /* \"PFG/AMM.sol\":5782:5818  require(success, \"Transfer failed.\") */\n      tag_126\n      jumpi\n      mload(0x40)\n      0x08c379a000000000000000000000000000000000000000000000000000000000\n      dup2\n      mstore\n      0x04\n      add\n      tag_127\n      swap1\n      tag_128\n      jump\t// in\n    tag_127:\n      mload(0x40)\n      dup1\n      swap2\n      sub\n      swap1\n      revert\n    tag_126:\n        /* \"PFG/AMM.sol\":5851:5859  tokenERC */\n      0x00\n      dup1\n      sload\n      swap1\n      0x0100\n      exp\n      swap1\n      div\n      0xffffffffffffffffffffffffffffffffffffffff\n      and\n        /* \"PFG/AMM.sol\":5851:5868  tokenERC.transfer */\n      0xffffffffffffffffffffffffffffffffffffffff\n      and\n      0xa9059cbb\n        /* \"PFG/AMM.sol\":5869:5872  who */\n      dup6\n        /* \"PFG/AMM.sol\":5874:5885  token_value */\n      dup5\n        /* \"PFG/AMM.sol\":5851:5886  tokenERC.transfer(who, token_value) */\n      mload(0x40)\n      dup4\n      0xffffffff\n      and\n      0xe0\n      shl\n      dup2\n      mstore\n      0x04\n      add\n      tag_129\n      swap3\n      swap2\n      swap1\n      tag_130\n      jump\t// in\n    tag_129:\n      0x20\n      mload(0x40)\n      dup1\n      dup4\n      sub\n      dup2\n      0x00\n      dup8\n      gas\n      call\n      iszero\n      dup1\n      iszero\n      tag_132\n      jumpi\n      returndatasize\n      0x00\n      dup1\n      returndatacopy\n      revert(0x00, returndatasize)\n    tag_132:\n      pop\n      pop\n      pop\n      pop\n      mload(0x40)\n      returndatasize\n      not(0x1f)\n      0x1f\n      dup3\n      add\n      and\n      dup3\n      add\n      dup1\n      0x40\n      mstore\n      pop\n      dup2\n      add\n      swap1\n      tag_133\n      swap2\n      swap1\n      tag_134\n      jump\t// in\n    tag_133:\n        /* \"PFG/AMM.sol\":5843:5887  require(tokenERC.transfer(who, token_value)) */\n      tag_135\n      jumpi\n      0x00\n      dup1\n      revert\n    tag_135:\n        /* \"PFG/AMM.sol\":5913:5945  Withdraw(eth_value, token_value) */\n      0x56ca301a9219608c91e7bcee90e083c19671d2cdcc96752c7af291cee5f9c8c8\n        /* \"PFG/AMM.sol\":5922:5931  eth_value */\n      dup4\n        /* \"PFG/AMM.sol\":5933:5944  token_value */\n      dup4\n        /* \"PFG/AMM.sol\":5913:5945  Withdraw(eth_value, token_value) */\n      mload(0x40)\n      tag_136\n      swap3\n      swap2\n      swap1\n      tag_40\n      jump\t// in\n    tag_136:\n      mload(0x40)\n      dup1\n      swap2\n      sub\n      swap1\n      log1\n        /* \"PFG/AMM.sol\":5408:5957  {... */\n      pop\n      pop\n      pop\n        /* \"PFG/AMM.sol\":5353:5957  function withdraw(uint256 value, address who) external {... */\n      pop\n      pop\n      jump\t// out\n        /* \"PFG/AMM.sol\":7271:7384  function getBalance() external view returns (uint256) {... */\n    tag_31:\n        /* \"PFG/AMM.sol\":7316:7323  uint256 */\n      0x00\n        /* \"PFG/AMM.sol\":7351:7372  address(this).balance */\n      selfbalance\n        /* \"PFG/AMM.sol\":7344:7372  return address(this).balance */\n      swap1\n      pop\n        /* \"PFG/AMM.sol\":7271:7384  function getBalance() external view returns (uint256) {... */\n      swap1\n      jump\t// out\n        /* \"PFG/AMM.sol\":5969:6326  function liquiditySubstracted(uint256 value) external view returns (uint256, uint256){... */\n    tag_38:\n        /* \"PFG/AMM.sol\":6037:6044  uint256 */\n      0x00\n        /* \"PFG/AMM.sol\":6046:6053  uint256 */\n      dup1\n        /* \"PFG/AMM.sol\":6073:6090  uint256 eth_value */\n      0x00\n        /* \"PFG/AMM.sol\":6127:6142  total_liquidity */\n      sload(0x01)\n        /* \"PFG/AMM.sol\":6102:6123  address(this).balance */\n      selfbalance\n        /* \"PFG/AMM.sol\":6094:6099  value */\n      dup6\n        /* \"PFG/AMM.sol\":6094:6123  value * address(this).balance */\n      tag_139\n      swap2\n      swap1\n      tag_107\n      jump\t// in\n    tag_139:\n        /* \"PFG/AMM.sol\":6093:6142  (value * address(this).balance) / total_liquidity */\n      tag_140\n      swap2\n      swap1\n      tag_109\n      jump\t// in\n    tag_140:\n        /* \"PFG/AMM.sol\":6073:6142  uint256 eth_value = (value * address(this).balance) / total_liquidity */\n      swap1\n      pop\n        /* \"PFG/AMM.sol\":6161:6180  uint256 token_value */\n      0x00\n        /* \"PFG/AMM.sol\":6229:6244  total_liquidity */\n      sload(0x01)\n        /* \"PFG/AMM.sol\":6192:6200  tokenERC */\n      0x00\n      dup1\n      sload\n      swap1\n      0x0100\n      exp\n      swap1\n      div\n      0xffffffffffffffffffffffffffffffffffffffff\n      and\n        /* \"PFG/AMM.sol\":6192:6210  tokenERC.balanceOf */\n      0xffffffffffffffffffffffffffffffffffffffff\n      and\n      0x70a08231\n        /* \"PFG/AMM.sol\":6219:6223  this */\n      address\n        /* \"PFG/AMM.sol\":6192:6225  tokenERC.balanceOf(address(this)) */\n      mload(0x40)\n      dup3\n      0xffffffff\n      and\n      0xe0\n      shl\n      dup2\n      mstore\n      0x04\n      add\n      tag_141\n      swap2\n      swap1\n      tag_111\n      jump\t// in\n    tag_141:\n      0x20\n      mload(0x40)\n      dup1\n      dup4\n      sub\n      dup2\n      dup7\n      gas\n      staticcall\n      iszero\n      dup1\n      iszero\n      tag_143\n      jumpi\n      returndatasize\n      0x00\n      dup1\n      returndatacopy\n      revert(0x00, returndatasize)\n    tag_143:\n      pop\n      pop\n      pop\n      pop\n      mload(0x40)\n      returndatasize\n      not(0x1f)\n      0x1f\n      dup3\n      add\n      and\n      dup3\n      add\n      dup1\n      0x40\n      mstore\n      pop\n      dup2\n      add\n      swap1\n      tag_144\n      swap2\n      swap1\n      tag_115\n      jump\t// in\n    tag_144:\n        /* \"PFG/AMM.sol\":6184:6189  value */\n      dup7\n        /* \"PFG/AMM.sol\":6184:6225  value * tokenERC.balanceOf(address(this)) */\n      tag_145\n      swap2\n      swap1\n      tag_107\n      jump\t// in\n    tag_145:\n        /* \"PFG/AMM.sol\":6183:6244  (value * tokenERC.balanceOf(address(this))) / total_liquidity */\n      tag_146\n      swap2\n      swap1\n      tag_109\n      jump\t// in\n    tag_146:\n        /* \"PFG/AMM.sol\":6161:6244  uint256 token_value = (value * tokenERC.balanceOf(address(this))) / total_liquidity */\n      swap1\n      pop\n        /* \"PFG/AMM.sol\":6289:6298  eth_value */\n      dup2\n        /* \"PFG/AMM.sol\":6300:6311  token_value */\n      dup2\n        /* \"PFG/AMM.sol\":6281:6312  return (eth_value, token_value) */\n      swap4\n      pop\n      swap4\n      pop\n      pop\n      pop\n        /* \"PFG/AMM.sol\":5969:6326  function liquiditySubstracted(uint256 value) external view returns (uint256, uint256){... */\n      swap2\n      pop\n      swap2\n      jump\t// out\n        /* \"PFG/AMM.sol\":4727:5339  function withdraw(uint256 value) external {... */\n    tag_44:\n        /* \"PFG/AMM.sol\":4788:4805  uint256 eth_value */\n      0x00\n        /* \"PFG/AMM.sol\":4842:4857  total_liquidity */\n      sload(0x01)\n        /* \"PFG/AMM.sol\":4817:4838  address(this).balance */\n      selfbalance\n        /* \"PFG/AMM.sol\":4809:4814  value */\n      dup4\n        /* \"PFG/AMM.sol\":4809:4838  value * address(this).balance */\n      tag_148\n      swap2\n      swap1\n      tag_107\n      jump\t// in\n    tag_148:\n        /* \"PFG/AMM.sol\":4808:4857  (value * address(this).balance) / total_liquidity */\n      tag_149\n      swap2\n      swap1\n      tag_109\n      jump\t// in\n    tag_149:\n        /* \"PFG/AMM.sol\":4788:4857  uint256 eth_value = (value * address(this).balance) / total_liquidity */\n      swap1\n      pop\n        /* \"PFG/AMM.sol\":4876:4895  uint256 token_value */\n      0x00\n        /* \"PFG/AMM.sol\":4944:4959  total_liquidity */\n      sload(0x01)\n        /* \"PFG/AMM.sol\":4907:4915  tokenERC */\n      0x00\n      dup1\n      sload\n      swap1\n      0x0100\n      exp\n      swap1\n      div\n      0xffffffffffffffffffffffffffffffffffffffff\n      and\n        /* \"PFG/AMM.sol\":4907:4925  tokenERC.balanceOf */\n      0xffffffffffffffffffffffffffffffffffffffff\n      and\n      0x70a08231\n        /* \"PFG/AMM.sol\":4934:4938  this */\n      address\n        /* \"PFG/AMM.sol\":4907:4940  tokenERC.balanceOf(address(this)) */\n      mload(0x40)\n      dup3\n      0xffffffff\n      and\n      0xe0\n      shl\n      dup2\n      mstore\n      0x04\n      add\n      tag_150\n      swap2\n      swap1\n      tag_111\n      jump\t// in\n    tag_150:\n      0x20\n      mload(0x40)\n      dup1\n      dup4\n      sub\n      dup2\n      dup7\n      gas\n      staticcall\n      iszero\n      dup1\n      iszero\n      tag_152\n      jumpi\n      returndatasize\n      0x00\n      dup1\n      returndatacopy\n      revert(0x00, returndatasize)\n    tag_152:\n      pop\n      pop\n      pop\n      pop\n      mload(0x40)\n      returndatasize\n      not(0x1f)\n      0x1f\n      dup3\n      add\n      and\n      dup3\n      add\n      dup1\n      0x40\n      mstore\n      pop\n      dup2\n      add\n      swap1\n      tag_153\n      swap2\n      swap1\n      tag_115\n      jump\t// in\n    tag_153:\n        /* \"PFG/AMM.sol\":4899:4904  value */\n      dup5\n        /* \"PFG/AMM.sol\":4899:4940  value * tokenERC.balanceOf(address(this)) */\n      tag_154\n      swap2\n      swap1\n      tag_107\n      jump\t// in\n    tag_154:\n        /* \"PFG/AMM.sol\":4898:4959  (value * tokenERC.balanceOf(address(this))) / total_liquidity */\n      tag_155\n      swap2\n      swap1\n      tag_109\n      jump\t// in\n    tag_155:\n        /* \"PFG/AMM.sol\":4876:4959  uint256 token_value = (value * tokenERC.balanceOf(address(this))) / total_liquidity */\n      swap1\n      pop\n        /* \"PFG/AMM.sol\":5005:5014  eth_value */\n      dup2\n        /* \"PFG/AMM.sol\":4980:4989  liquidity */\n      0x02\n        /* \"PFG/AMM.sol\":4980:5001  liquidity[msg.sender] */\n      0x00\n        /* \"PFG/AMM.sol\":4990:5000  msg.sender */\n      caller\n        /* \"PFG/AMM.sol\":4980:5001  liquidity[msg.sender] */\n      0xffffffffffffffffffffffffffffffffffffffff\n      and\n      0xffffffffffffffffffffffffffffffffffffffff\n      and\n      dup2\n      mstore\n      0x20\n      add\n      swap1\n      dup2\n      mstore\n      0x20\n      add\n      0x00\n      keccak256\n      0x00\n        /* \"PFG/AMM.sol\":4980:5014  liquidity[msg.sender] -= eth_value */\n      dup3\n      dup3\n      sload\n      tag_156\n      swap2\n      swap1\n      tag_119\n      jump\t// in\n    tag_156:\n      swap3\n      pop\n      pop\n      dup2\n      swap1\n      sstore\n      pop\n        /* \"PFG/AMM.sol\":5052:5061  eth_value */\n      dup2\n        /* \"PFG/AMM.sol\":5033:5048  total_liquidity */\n      0x01\n      0x00\n        /* \"PFG/AMM.sol\":5033:5061  total_liquidity -= eth_value */\n      dup3\n      dup3\n      sload\n      tag_157\n      swap2\n      swap1\n      tag_119\n      jump\t// in\n    tag_157:\n      swap3\n      pop\n      pop\n      dup2\n      swap1\n      sstore\n      pop\n        /* \"PFG/AMM.sol\":5083:5095  bool success */\n      0x00\n        /* \"PFG/AMM.sol\":5101:5111  msg.sender */\n      caller\n        /* \"PFG/AMM.sol\":5101:5116  msg.sender.call */\n      0xffffffffffffffffffffffffffffffffffffffff\n      and\n        /* \"PFG/AMM.sol\":5124:5133  eth_value */\n      dup4\n        /* \"PFG/AMM.sol\":5101:5138  msg.sender.call{value: eth_value}(\"\") */\n      mload(0x40)\n      tag_158\n      swap1\n      tag_122\n      jump\t// in\n    tag_158:\n      0x00\n      mload(0x40)\n      dup1\n      dup4\n      sub\n      dup2\n      dup6\n      dup8\n      gas\n      call\n      swap3\n      pop\n      pop\n      pop\n      returndatasize\n      dup1\n      0x00\n      dup2\n      eq\n      tag_161\n      jumpi\n      mload(0x40)\n      swap2\n      pop\n      and(add(returndatasize, 0x3f), not(0x1f))\n      dup3\n      add\n      0x40\n      mstore\n      returndatasize\n      dup3\n      mstore\n      returndatasize\n      0x00\n      0x20\n      dup5\n      add\n      returndatacopy\n      jump(tag_160)\n    tag_161:\n      0x60\n      swap2\n      pop\n    tag_160:\n      pop\n        /* \"PFG/AMM.sol\":5082:5138  (bool success, ) = msg.sender.call{value: eth_value}(\"\") */\n      pop\n      swap1\n      pop\n        /* \"PFG/AMM.sol\":5165:5172  success */\n      dup1\n        /* \"PFG/AMM.sol\":5157:5193  require(success, \"Transfer failed.\") */\n      tag_162\n      jumpi\n      mload(0x40)\n      0x08c379a000000000000000000000000000000000000000000000000000000000\n      dup2\n      mstore\n      0x04\n      add\n      tag_163\n      swap1\n      tag_128\n      jump\t// in\n    tag_163:\n      mload(0x40)\n      dup1\n      swap2\n      sub\n      swap1\n      revert\n    tag_162:\n        /* \"PFG/AMM.sol\":5226:5234  tokenERC */\n      0x00\n      dup1\n      sload\n      swap1\n      0x0100\n      exp\n      swap1\n      div\n      0xffffffffffffffffffffffffffffffffffffffff\n      and\n        /* \"PFG/AMM.sol\":5226:5243  tokenERC.transfer */\n      0xffffffffffffffffffffffffffffffffffffffff\n      and\n      0xa9059cbb\n        /* \"PFG/AMM.sol\":5244:5254  msg.sender */\n      caller\n        /* \"PFG/AMM.sol\":5256:5267  token_value */\n      dup5\n        /* \"PFG/AMM.sol\":5226:5268  tokenERC.transfer(msg.sender, token_value) */\n      mload(0x40)\n      dup4\n      0xffffffff\n      and\n      0xe0\n      shl\n      dup2\n      mstore\n      0x04\n      add\n      tag_164\n      swap3\n      swap2\n      swap1\n      tag_130\n      jump\t// in\n    tag_164:\n      0x20\n      mload(0x40)\n      dup1\n      dup4\n      sub\n      dup2\n      0x00\n      dup8\n      gas\n      call\n      iszero\n      dup1\n      iszero\n      tag_166\n      jumpi\n      returndatasize\n      0x00\n      dup1\n      returndatacopy\n      revert(0x00, returndatasize)\n    tag_166:\n      pop\n      pop\n      pop\n      pop\n      mload(0x40)\n      returndatasize\n      not(0x1f)\n      0x1f\n      dup3\n      add\n      and\n      dup3\n      add\n      dup1\n      0x40\n      mstore\n      pop\n      dup2\n      add\n      swap1\n      tag_167\n      swap2\n      swap1\n      tag_134\n      jump\t// in\n    tag_167:\n        /* \"PFG/AMM.sol\":5218:5269  require(tokenERC.transfer(msg.sender, token_value)) */\n      tag_168\n      jumpi\n      0x00\n      dup1\n      revert\n    tag_168:\n        /* \"PFG/AMM.sol\":5295:5327  Withdraw(eth_value, token_value) */\n      0x56ca301a9219608c91e7bcee90e083c19671d2cdcc96752c7af291cee5f9c8c8\n        /* \"PFG/AMM.sol\":5304:5313  eth_value */\n      dup4\n        /* \"PFG/AMM.sol\":5315:5326  token_value */\n      dup4\n        /* \"PFG/AMM.sol\":5295:5327  Withdraw(eth_value, token_value) */\n      mload(0x40)\n      tag_169\n      swap3\n      swap2\n      swap1\n      tag_40\n      jump\t// in\n    tag_169:\n      mload(0x40)\n      dup1\n      swap2\n      sub\n      swap1\n      log1\n        /* \"PFG/AMM.sol\":4769:5339  {... */\n      pop\n      pop\n      pop\n        /* \"PFG/AMM.sol\":4727:5339  function withdraw(uint256 value) external {... */\n      pop\n      jump\t// out\n        /* \"PFG/AMM.sol\":187:217  uint256 public total_liquidity */\n    tag_47:\n      sload(0x01)\n      dup2\n      jump\t// out\n        /* \"PFG/AMM.sol\":4356:4715  function liquidityAdded(uint256 eth) external view returns (uint256, uint256){... */\n    tag_52:\n        /* \"PFG/AMM.sol\":4416:4423  uint256 */\n      0x00\n        /* \"PFG/AMM.sol\":4425:4432  uint256 */\n      dup1\n        /* \"PFG/AMM.sol\":4452:4472  uint256 token_amount */\n      0x00\n        /* \"PFG/AMM.sol\":4547:4548  1 */\n      0x01\n        /* \"PFG/AMM.sol\":4521:4542  address(this).balance */\n      selfbalance\n        /* \"PFG/AMM.sol\":4483:4491  tokenERC */\n      0x00\n      dup1\n      sload\n      swap1\n      0x0100\n      exp\n      swap1\n      div\n      0xffffffffffffffffffffffffffffffffffffffff\n      and\n        /* \"PFG/AMM.sol\":4483:4501  tokenERC.balanceOf */\n      0xffffffffffffffffffffffffffffffffffffffff\n      and\n      0x70a08231\n        /* \"PFG/AMM.sol\":4510:4514  this */\n      address\n        /* \"PFG/AMM.sol\":4483:4516  tokenERC.balanceOf(address(this)) */\n      mload(0x40)\n      dup3\n      0xffffffff\n      and\n      0xe0\n      shl\n      dup2\n      mstore\n      0x04\n      add\n      tag_171\n      swap2\n      swap1\n      tag_111\n      jump\t// in\n    tag_171:\n      0x20\n      mload(0x40)\n      dup1\n      dup4\n      sub\n      dup2\n      dup7\n      gas\n      staticcall\n      iszero\n      dup1\n      iszero\n      tag_173\n      jumpi\n      returndatasize\n      0x00\n      dup1\n      returndatacopy\n      revert(0x00, returndatasize)\n    tag_173:\n      pop\n      pop\n      pop\n      pop\n      mload(0x40)\n      returndatasize\n      not(0x1f)\n      0x1f\n      dup3\n      add\n      and\n      dup3\n      add\n      dup1\n      0x40\n      mstore\n      pop\n      dup2\n      add\n      swap1\n      tag_174\n      swap2\n      swap1\n      tag_115\n      jump\t// in\n    tag_174:\n        /* \"PFG/AMM.sol\":4477:4480  eth */\n      dup7\n        /* \"PFG/AMM.sol\":4477:4516  eth * tokenERC.balanceOf(address(this)) */\n      tag_175\n      swap2\n      swap1\n      tag_107\n      jump\t// in\n    tag_175:\n        /* \"PFG/AMM.sol\":4476:4543  (eth * tokenERC.balanceOf(address(this))) / (address(this).balance) */\n      tag_176\n      swap2\n      swap1\n      tag_109\n      jump\t// in\n    tag_176:\n        /* \"PFG/AMM.sol\":4475:4548  ((eth * tokenERC.balanceOf(address(this))) / (address(this).balance)) + 1 */\n      tag_177\n      swap2\n      swap1\n      tag_178\n      jump\t// in\n    tag_177:\n        /* \"PFG/AMM.sol\":4452:4548  uint256 token_amount = ((eth * tokenERC.balanceOf(address(this))) / (address(this).balance)) + 1 */\n      swap1\n      pop\n        /* \"PFG/AMM.sol\":4567:4590  uint256 liquidity_added */\n      0x00\n        /* \"PFG/AMM.sol\":4620:4641  address(this).balance */\n      selfbalance\n        /* \"PFG/AMM.sol\":4600:4615  total_liquidity */\n      sload(0x01)\n        /* \"PFG/AMM.sol\":4594:4597  eth */\n      dup7\n        /* \"PFG/AMM.sol\":4594:4615  eth * total_liquidity */\n      tag_179\n      swap2\n      swap1\n      tag_107\n      jump\t// in\n    tag_179:\n        /* \"PFG/AMM.sol\":4593:4642  (eth * total_liquidity) / (address(this).balance) */\n      tag_180\n      swap2\n      swap1\n      tag_109\n      jump\t// in\n    tag_180:\n        /* \"PFG/AMM.sol\":4567:4642  uint256 liquidity_added = (eth * total_liquidity) / (address(this).balance) */\n      swap1\n      pop\n        /* \"PFG/AMM.sol\":4671:4683  token_amount */\n      dup2\n        /* \"PFG/AMM.sol\":4685:4700  liquidity_added */\n      dup2\n        /* \"PFG/AMM.sol\":4663:4701  return (token_amount, liquidity_added) */\n      swap4\n      pop\n      swap4\n      pop\n      pop\n      pop\n        /* \"PFG/AMM.sol\":4356:4715  function liquidityAdded(uint256 eth) external view returns (uint256, uint256){... */\n      swap2\n      pop\n      swap2\n      jump\t// out\n        /* \"PFG/AMM.sol\":1422:1598  function priceETH(uint256 erc) external view returns(uint256){... */\n    tag_57:\n        /* \"PFG/AMM.sol\":1475:1482  uint256 */\n      0x00\n        /* \"PFG/AMM.sol\":1509:1586  calculatePrice(erc, tokenERC.balanceOf(address(this)), address(this).balance) */\n      tag_182\n        /* \"PFG/AMM.sol\":1524:1527  erc */\n      dup3\n        /* \"PFG/AMM.sol\":1529:1537  tokenERC */\n      0x00\n      dup1\n      sload\n      swap1\n      0x0100\n      exp\n      swap1\n      div\n      0xffffffffffffffffffffffffffffffffffffffff\n      and\n        /* \"PFG/AMM.sol\":1529:1547  tokenERC.balanceOf */\n      0xffffffffffffffffffffffffffffffffffffffff\n      and\n      0x70a08231\n        /* \"PFG/AMM.sol\":1556:1560  this */\n      address\n        /* \"PFG/AMM.sol\":1529:1562  tokenERC.balanceOf(address(this)) */\n      mload(0x40)\n      dup3\n      0xffffffff\n      and\n      0xe0\n      shl\n      dup2\n      mstore\n      0x04\n      add\n      tag_183\n      swap2\n      swap1\n      tag_111\n      jump\t// in\n    tag_183:\n      0x20\n      mload(0x40)\n      dup1\n      dup4\n      sub\n      dup2\n      dup7\n      gas\n      staticcall\n      iszero\n      dup1\n      iszero\n      tag_185\n      jumpi\n      returndatasize\n      0x00\n      dup1\n      returndatacopy\n      revert(0x00, returndatasize)\n    tag_185:\n      pop\n      pop\n      pop\n      pop\n      mload(0x40)\n      returndatasize\n      not(0x1f)\n      0x1f\n      dup3\n      add\n      and\n      dup3\n      add\n      dup1\n      0x40\n      mstore\n      pop\n      dup2\n      add\n      swap1\n      tag_186\n      swap2\n      swap1\n      tag_115\n      jump\t// in\n    tag_186:\n        /* \"PFG/AMM.sol\":1564:1585  address(this).balance */\n      selfbalance\n        /* \"PFG/AMM.sol\":1509:1523  calculatePrice */\n      tag_187\n        /* \"PFG/AMM.sol\":1509:1586  calculatePrice(erc, tokenERC.balanceOf(address(this)), address(this).balance) */\n      jump\t// in\n    tag_182:\n        /* \"PFG/AMM.sol\":1502:1586  return calculatePrice(erc, tokenERC.balanceOf(address(this)), address(this).balance) */\n      swap1\n      pop\n        /* \"PFG/AMM.sol\":1422:1598  function priceETH(uint256 erc) external view returns(uint256){... */\n      swap2\n      swap1\n      pop\n      jump\t// out\n        /* \"PFG/AMM.sol\":1226:1410  function priceERC(uint256 eth) external view returns(uint256){... */\n    tag_62:\n        /* \"PFG/AMM.sol\":1279:1286  uint256 */\n      0x00\n        /* \"PFG/AMM.sol\":1313:1398  calculatePrice(eth, (address(this).balance - eth), tokenERC.balanceOf(address(this))) */\n      tag_189\n        /* \"PFG/AMM.sol\":1328:1331  eth */\n      dup3\n        /* \"PFG/AMM.sol\":1358:1361  eth */\n      dup4\n        /* \"PFG/AMM.sol\":1334:1355  address(this).balance */\n      selfbalance\n        /* \"PFG/AMM.sol\":1334:1361  address(this).balance - eth */\n      tag_190\n      swap2\n      swap1\n      tag_119\n      jump\t// in\n    tag_190:\n        /* \"PFG/AMM.sol\":1364:1372  tokenERC */\n      0x00\n      dup1\n      sload\n      swap1\n      0x0100\n      exp\n      swap1\n      div\n      0xffffffffffffffffffffffffffffffffffffffff\n      and\n        /* \"PFG/AMM.sol\":1364:1382  tokenERC.balanceOf */\n      0xffffffffffffffffffffffffffffffffffffffff\n      and\n      0x70a08231\n        /* \"PFG/AMM.sol\":1391:1395  this */\n      address\n        /* \"PFG/AMM.sol\":1364:1397  tokenERC.balanceOf(address(this)) */\n      mload(0x40)\n      dup3\n      0xffffffff\n      and\n      0xe0\n      shl\n      dup2\n      mstore\n      0x04\n      add\n      tag_191\n      swap2\n      swap1\n      tag_111\n      jump\t// in\n    tag_191:\n      0x20\n      mload(0x40)\n      dup1\n      dup4\n      sub\n      dup2\n      dup7\n      gas\n      staticcall\n      iszero\n      dup1\n      iszero\n      tag_193\n      jumpi\n      returndatasize\n      0x00\n      dup1\n      returndatacopy\n      revert(0x00, returndatasize)\n    tag_193:\n      pop\n      pop\n      pop\n      pop\n      mload(0x40)\n      returndatasize\n      not(0x1f)\n      0x1f\n      dup3\n      add\n      and\n      dup3\n      add\n      dup1\n      0x40\n      mstore\n      pop\n      dup2\n      add\n      swap1\n      tag_194\n      swap2\n      swap1\n      tag_115\n      jump\t// in\n    tag_194:\n        /* \"PFG/AMM.sol\":1313:1327  calculatePrice */\n      tag_187\n        /* \"PFG/AMM.sol\":1313:1398  calculatePrice(eth, (address(this).balance - eth), tokenERC.balanceOf(address(this))) */\n      jump\t// in\n    tag_189:\n        /* \"PFG/AMM.sol\":1306:1398  return calculatePrice(eth, (address(this).balance - eth), tokenERC.balanceOf(address(this))) */\n      swap1\n      pop\n        /* \"PFG/AMM.sol\":1226:1410  function priceERC(uint256 eth) external view returns(uint256){... */\n      swap2\n      swap1\n      pop\n      jump\t// out\n        /* \"PFG/AMM.sol\":6338:6840  function take(uint256 value, address who) external {... */\n    tag_67:\n        /* \"PFG/AMM.sol\":6408:6427  uint256 token_value */\n      0x00\n        /* \"PFG/AMM.sol\":6476:6497  address(this).balance */\n      selfbalance\n        /* \"PFG/AMM.sol\":6439:6447  tokenERC */\n      0x00\n      dup1\n      sload\n      swap1\n      0x0100\n      exp\n      swap1\n      div\n      0xffffffffffffffffffffffffffffffffffffffff\n      and\n        /* \"PFG/AMM.sol\":6439:6457  tokenERC.balanceOf */\n      0xffffffffffffffffffffffffffffffffffffffff\n      and\n      0x70a08231\n        /* \"PFG/AMM.sol\":6466:6470  this */\n      address\n        /* \"PFG/AMM.sol\":6439:6472  tokenERC.balanceOf(address(this)) */\n      mload(0x40)\n      dup3\n      0xffffffff\n      and\n      0xe0\n      shl\n      dup2\n      mstore\n      0x04\n      add\n      tag_196\n      swap2\n      swap1\n      tag_111\n      jump\t// in\n    tag_196:\n      0x20\n      mload(0x40)\n      dup1\n      dup4\n      sub\n      dup2\n      dup7\n      gas\n      staticcall\n      iszero\n      dup1\n      iszero\n      tag_198\n      jumpi\n      returndatasize\n      0x00\n      dup1\n      returndatacopy\n      revert(0x00, returndatasize)\n    tag_198:\n      pop\n      pop\n      pop\n      pop\n      mload(0x40)\n      returndatasize\n      not(0x1f)\n      0x1f\n      dup3\n      add\n      and\n      dup3\n      add\n      dup1\n      0x40\n      mstore\n      pop\n      dup2\n      add\n      swap1\n      tag_199\n      swap2\n      swap1\n      tag_115\n      jump\t// in\n    tag_199:\n        /* \"PFG/AMM.sol\":6431:6436  value */\n      dup5\n        /* \"PFG/AMM.sol\":6431:6472  value * tokenERC.balanceOf(address(this)) */\n      tag_200\n      swap2\n      swap1\n      tag_107\n      jump\t// in\n    tag_200:\n        /* \"PFG/AMM.sol\":6430:6497  (value * tokenERC.balanceOf(address(this))) / address(this).balance */\n      tag_201\n      swap2\n      swap1\n      tag_109\n      jump\t// in\n    tag_201:\n        /* \"PFG/AMM.sol\":6408:6497  uint256 token_value = (value * tokenERC.balanceOf(address(this))) / address(this).balance */\n      swap1\n      pop\n        /* \"PFG/AMM.sol\":6536:6541  value */\n      dup3\n        /* \"PFG/AMM.sol\":6518:6527  liquidity */\n      0x02\n        /* \"PFG/AMM.sol\":6518:6532  liquidity[who] */\n      0x00\n        /* \"PFG/AMM.sol\":6528:6531  who */\n      dup5\n        /* \"PFG/AMM.sol\":6518:6532  liquidity[who] */\n      0xffffffffffffffffffffffffffffffffffffffff\n      and\n      0xffffffffffffffffffffffffffffffffffffffff\n      and\n      dup2\n      mstore\n      0x20\n      add\n      swap1\n      dup2\n      mstore\n      0x20\n      add\n      0x00\n      keccak256\n      0x00\n        /* \"PFG/AMM.sol\":6518:6541  liquidity[who] -= value */\n      dup3\n      dup3\n      sload\n      tag_202\n      swap2\n      swap1\n      tag_119\n      jump\t// in\n    tag_202:\n      swap3\n      pop\n      pop\n      dup2\n      swap1\n      sstore\n      pop\n        /* \"PFG/AMM.sol\":6579:6584  value */\n      dup3\n        /* \"PFG/AMM.sol\":6560:6575  total_liquidity */\n      0x01\n      0x00\n        /* \"PFG/AMM.sol\":6560:6584  total_liquidity -= value */\n      dup3\n      dup3\n      sload\n      tag_203\n      swap2\n      swap1\n      tag_119\n      jump\t// in\n    tag_203:\n      swap3\n      pop\n      pop\n      dup2\n      swap1\n      sstore\n      pop\n        /* \"PFG/AMM.sol\":6606:6618  bool success */\n      0x00\n        /* \"PFG/AMM.sol\":6624:6627  who */\n      dup3\n        /* \"PFG/AMM.sol\":6624:6632  who.call */\n      0xffffffffffffffffffffffffffffffffffffffff\n      and\n        /* \"PFG/AMM.sol\":6640:6645  value */\n      dup5\n        /* \"PFG/AMM.sol\":6624:6650  who.call{value: value}(\"\") */\n      mload(0x40)\n      tag_204\n      swap1\n      tag_122\n      jump\t// in\n    tag_204:\n      0x00\n      mload(0x40)\n      dup1\n      dup4\n      sub\n      dup2\n      dup6\n      dup8\n      gas\n      call\n      swap3\n      pop\n      pop\n      pop\n      returndatasize\n      dup1\n      0x00\n      dup2\n      eq\n      tag_207\n      jumpi\n      mload(0x40)\n      swap2\n      pop\n      and(add(returndatasize, 0x3f), not(0x1f))\n      dup3\n      add\n      0x40\n      mstore\n      returndatasize\n      dup3\n      mstore\n      returndatasize\n      0x00\n      0x20\n      dup5\n      add\n      returndatacopy\n      jump(tag_206)\n    tag_207:\n      0x60\n      swap2\n      pop\n    tag_206:\n      pop\n        /* \"PFG/AMM.sol\":6605:6650  (bool success, ) = who.call{value: value}(\"\") */\n      pop\n      swap1\n      pop\n        /* \"PFG/AMM.sol\":6677:6684  success */\n      dup1\n        /* \"PFG/AMM.sol\":6669:6705  require(success, \"Transfer failed.\") */\n      tag_208\n      jumpi\n      mload(0x40)\n      0x08c379a000000000000000000000000000000000000000000000000000000000\n      dup2\n      mstore\n      0x04\n      add\n      tag_209\n      swap1\n      tag_128\n      jump\t// in\n    tag_209:\n      mload(0x40)\n      dup1\n      swap2\n      sub\n      swap1\n      revert\n    tag_208:\n        /* \"PFG/AMM.sol\":6738:6746  tokenERC */\n      0x00\n      dup1\n      sload\n      swap1\n      0x0100\n      exp\n      swap1\n      div\n      0xffffffffffffffffffffffffffffffffffffffff\n      and\n        /* \"PFG/AMM.sol\":6738:6755  tokenERC.transfer */\n      0xffffffffffffffffffffffffffffffffffffffff\n      and\n      0xa9059cbb\n        /* \"PFG/AMM.sol\":6756:6759  who */\n      dup5\n        /* \"PFG/AMM.sol\":6761:6772  token_value */\n      dup5\n        /* \"PFG/AMM.sol\":6738:6773  tokenERC.transfer(who, token_value) */\n      mload(0x40)\n      dup4\n      0xffffffff\n      and\n      0xe0\n      shl\n      dup2\n      mstore\n      0x04\n      add\n      tag_210\n      swap3\n      swap2\n      swap1\n      tag_130\n      jump\t// in\n    tag_210:\n      0x20\n      mload(0x40)\n      dup1\n      dup4\n      sub\n      dup2\n      0x00\n      dup8\n      gas\n      call\n      iszero\n      dup1\n      iszero\n      tag_212\n      jumpi\n      returndatasize\n      0x00\n      dup1\n      returndatacopy\n      revert(0x00, returndatasize)\n    tag_212:\n      pop\n      pop\n      pop\n      pop\n      mload(0x40)\n      returndatasize\n      not(0x1f)\n      0x1f\n      dup3\n      add\n      and\n      dup3\n      add\n      dup1\n      0x40\n      mstore\n      pop\n      dup2\n      add\n      swap1\n      tag_213\n      swap2\n      swap1\n      tag_134\n      jump\t// in\n    tag_213:\n        /* \"PFG/AMM.sol\":6730:6774  require(tokenERC.transfer(who, token_value)) */\n      tag_214\n      jumpi\n      0x00\n      dup1\n      revert\n    tag_214:\n        /* \"PFG/AMM.sol\":6800:6828  Withdraw(value, token_value) */\n      0x56ca301a9219608c91e7bcee90e083c19671d2cdcc96752c7af291cee5f9c8c8\n        /* \"PFG/AMM.sol\":6809:6814  value */\n      dup5\n        /* \"PFG/AMM.sol\":6816:6827  token_value */\n      dup4\n        /* \"PFG/AMM.sol\":6800:6828  Withdraw(value, token_value) */\n      mload(0x40)\n      tag_215\n      swap3\n      swap2\n      swap1\n      tag_40\n      jump\t// in\n    tag_215:\n      mload(0x40)\n      dup1\n      swap2\n      sub\n      swap1\n      log1\n        /* \"PFG/AMM.sol\":6389:6840  {... */\n      pop\n      pop\n        /* \"PFG/AMM.sol\":6338:6840  function take(uint256 value, address who) external {... */\n      pop\n      pop\n      jump\t// out\n        /* \"PFG/AMM.sol\":1610:1930  function ethToErc() external payable {... */\n    tag_69:\n        /* \"PFG/AMM.sol\":1666:1688  uint256 tokens_swapped */\n      0x00\n        /* \"PFG/AMM.sol\":1691:1788  calculatePrice(msg.value, (address(this).balance - msg.value), tokenERC.balanceOf(address(this))) */\n      tag_217\n        /* \"PFG/AMM.sol\":1706:1715  msg.value */\n      callvalue\n        /* \"PFG/AMM.sol\":1742:1751  msg.value */\n      callvalue\n        /* \"PFG/AMM.sol\":1718:1739  address(this).balance */\n      selfbalance\n        /* \"PFG/AMM.sol\":1718:1751  address(this).balance - msg.value */\n      tag_218\n      swap2\n      swap1\n      tag_119\n      jump\t// in\n    tag_218:\n        /* \"PFG/AMM.sol\":1754:1762  tokenERC */\n      0x00\n      dup1\n      sload\n      swap1\n      0x0100\n      exp\n      swap1\n      div\n      0xffffffffffffffffffffffffffffffffffffffff\n      and\n        /* \"PFG/AMM.sol\":1754:1772  tokenERC.balanceOf */\n      0xffffffffffffffffffffffffffffffffffffffff\n      and\n      0x70a08231\n        /* \"PFG/AMM.sol\":1781:1785  this */\n      address\n        /* \"PFG/AMM.sol\":1754:1787  tokenERC.balanceOf(address(this)) */\n      mload(0x40)\n      dup3\n      0xffffffff\n      and\n      0xe0\n      shl\n      dup2\n      mstore\n      0x04\n      add\n      tag_219\n      swap2\n      swap1\n      tag_111\n      jump\t// in\n    tag_219:\n      0x20\n      mload(0x40)\n      dup1\n      dup4\n      sub\n      dup2\n      dup7\n      gas\n      staticcall\n      iszero\n      dup1\n      iszero\n      tag_221\n      jumpi\n      returndatasize\n      0x00\n      dup1\n      returndatacopy\n      revert(0x00, returndatasize)\n    tag_221:\n      pop\n      pop\n      pop\n      pop\n      mload(0x40)\n      returndatasize\n      not(0x1f)\n      0x1f\n      dup3\n      add\n      and\n      dup3\n      add\n      dup1\n      0x40\n      mstore\n      pop\n      dup2\n      add\n      swap1\n      tag_222\n      swap2\n      swap1\n      tag_115\n      jump\t// in\n    tag_222:\n        /* \"PFG/AMM.sol\":1691:1705  calculatePrice */\n      tag_187\n        /* \"PFG/AMM.sol\":1691:1788  calculatePrice(msg.value, (address(this).balance - msg.value), tokenERC.balanceOf(address(this))) */\n      jump\t// in\n    tag_217:\n        /* \"PFG/AMM.sol\":1666:1788  uint256 tokens_swapped = calculatePrice(msg.value, (address(this).balance - msg.value), tokenERC.balanceOf(address(this))) */\n      swap1\n      pop\n        /* \"PFG/AMM.sol\":1817:1825  tokenERC */\n      0x00\n      dup1\n      sload\n      swap1\n      0x0100\n      exp\n      swap1\n      div\n      0xffffffffffffffffffffffffffffffffffffffff\n      and\n        /* \"PFG/AMM.sol\":1817:1834  tokenERC.transfer */\n      0xffffffffffffffffffffffffffffffffffffffff\n      and\n      0xa9059cbb\n        /* \"PFG/AMM.sol\":1835:1845  msg.sender */\n      caller\n        /* \"PFG/AMM.sol\":1847:1861  tokens_swapped */\n      dup4\n        /* \"PFG/AMM.sol\":1817:1862  tokenERC.transfer(msg.sender, tokens_swapped) */\n      mload(0x40)\n      dup4\n      0xffffffff\n      and\n      0xe0\n      shl\n      dup2\n      mstore\n      0x04\n      add\n      tag_223\n      swap3\n      swap2\n      swap1\n      tag_130\n      jump\t// in\n    tag_223:\n      0x20\n      mload(0x40)\n      dup1\n      dup4\n      sub\n      dup2\n      0x00\n      dup8\n      gas\n      call\n      iszero\n      dup1\n      iszero\n      tag_225\n      jumpi\n      returndatasize\n      0x00\n      dup1\n      returndatacopy\n      revert(0x00, returndatasize)\n    tag_225:\n      pop\n      pop\n      pop\n      pop\n      mload(0x40)\n      returndatasize\n      not(0x1f)\n      0x1f\n      dup3\n      add\n      and\n      dup3\n      add\n      dup1\n      0x40\n      mstore\n      pop\n      dup2\n      add\n      swap1\n      tag_226\n      swap2\n      swap1\n      tag_134\n      jump\t// in\n    tag_226:\n        /* \"PFG/AMM.sol\":1809:1863  require(tokenERC.transfer(msg.sender, tokens_swapped)) */\n      tag_227\n      jumpi\n      0x00\n      dup1\n      revert\n    tag_227:\n        /* \"PFG/AMM.sol\":1889:1918  TokensSwapped(tokens_swapped) */\n      0xdb04c7a6d4758fd55d738ebc67e7f3010ac922be00771ef29521a4090d1eb13f\n        /* \"PFG/AMM.sol\":1903:1917  tokens_swapped */\n      dup2\n        /* \"PFG/AMM.sol\":1889:1918  TokensSwapped(tokens_swapped) */\n      mload(0x40)\n      tag_228\n      swap2\n      swap1\n      tag_33\n      jump\t// in\n    tag_228:\n      mload(0x40)\n      dup1\n      swap2\n      sub\n      swap1\n      log1\n        /* \"PFG/AMM.sol\":1647:1930  {... */\n      pop\n        /* \"PFG/AMM.sol\":1610:1930  function ethToErc() external payable {... */\n      jump\t// out\n        /* \"PFG/AMM.sol\":7129:7259  function getTokenBalance() external view returns (uint256) {... */\n    tag_72:\n        /* \"PFG/AMM.sol\":7179:7186  uint256 */\n      0x00\n        /* \"PFG/AMM.sol\":7214:7222  tokenERC */\n      dup1\n      0x00\n      swap1\n      sload\n      swap1\n      0x0100\n      exp\n      swap1\n      div\n      0xffffffffffffffffffffffffffffffffffffffff\n      and\n        /* \"PFG/AMM.sol\":7214:7232  tokenERC.balanceOf */\n      0xffffffffffffffffffffffffffffffffffffffff\n      and\n      0x70a08231\n        /* \"PFG/AMM.sol\":7241:7245  this */\n      address\n        /* \"PFG/AMM.sol\":7214:7247  tokenERC.balanceOf(address(this)) */\n      mload(0x40)\n      dup3\n      0xffffffff\n      and\n      0xe0\n      shl\n      dup2\n      mstore\n      0x04\n      add\n      tag_230\n      swap2\n      swap1\n      tag_111\n      jump\t// in\n    tag_230:\n      0x20\n      mload(0x40)\n      dup1\n      dup4\n      sub\n      dup2\n      dup7\n      gas\n      staticcall\n      iszero\n      dup1\n      iszero\n      tag_232\n      jumpi\n      returndatasize\n      0x00\n      dup1\n      returndatacopy\n      revert(0x00, returndatasize)\n    tag_232:\n      pop\n      pop\n      pop\n      pop\n      mload(0x40)\n      returndatasize\n      not(0x1f)\n      0x1f\n      dup3\n      add\n      and\n      dup3\n      add\n      dup1\n      0x40\n      mstore\n      pop\n      dup2\n      add\n      swap1\n      tag_233\n      swap2\n      swap1\n      tag_115\n      jump\t// in\n    tag_233:\n        /* \"PFG/AMM.sol\":7207:7247  return tokenERC.balanceOf(address(this)) */\n      swap1\n      pop\n        /* \"PFG/AMM.sol\":7129:7259  function getTokenBalance() external view returns (uint256) {... */\n      swap1\n      jump\t// out\n        /* \"PFG/AMM.sol\":1942:2266  function ethToErc(address who) external payable {... */\n    tag_77:\n        /* \"PFG/AMM.sol\":2009:2031  uint256 tokens_swapped */\n      0x00\n        /* \"PFG/AMM.sol\":2034:2131  calculatePrice(msg.value, (address(this).balance - msg.value), tokenERC.balanceOf(address(this))) */\n      tag_235\n        /* \"PFG/AMM.sol\":2049:2058  msg.value */\n      callvalue\n        /* \"PFG/AMM.sol\":2085:2094  msg.value */\n      callvalue\n        /* \"PFG/AMM.sol\":2061:2082  address(this).balance */\n      selfbalance\n        /* \"PFG/AMM.sol\":2061:2094  address(this).balance - msg.value */\n      tag_236\n      swap2\n      swap1\n      tag_119\n      jump\t// in\n    tag_236:\n        /* \"PFG/AMM.sol\":2097:2105  tokenERC */\n      0x00\n      dup1\n      sload\n      swap1\n      0x0100\n      exp\n      swap1\n      div\n      0xffffffffffffffffffffffffffffffffffffffff\n      and\n        /* \"PFG/AMM.sol\":2097:2115  tokenERC.balanceOf */\n      0xffffffffffffffffffffffffffffffffffffffff\n      and\n      0x70a08231\n        /* \"PFG/AMM.sol\":2124:2128  this */\n      address\n        /* \"PFG/AMM.sol\":2097:2130  tokenERC.balanceOf(address(this)) */\n      mload(0x40)\n      dup3\n      0xffffffff\n      and\n      0xe0\n      shl\n      dup2\n      mstore\n      0x04\n      add\n      tag_237\n      swap2\n      swap1\n      tag_111\n      jump\t// in\n    tag_237:\n      0x20\n      mload(0x40)\n      dup1\n      dup4\n      sub\n      dup2\n      dup7\n      gas\n      staticcall\n      iszero\n      dup1\n      iszero\n      tag_239\n      jumpi\n      returndatasize\n      0x00\n      dup1\n      returndatacopy\n      revert(0x00, returndatasize)\n    tag_239:\n      pop\n      pop\n      pop\n      pop\n      mload(0x40)\n      returndatasize\n      not(0x1f)\n      0x1f\n      dup3\n      add\n      and\n      dup3\n      add\n      dup1\n      0x40\n      mstore\n      pop\n      dup2\n      add\n      swap1\n      tag_240\n      swap2\n      swap1\n      tag_115\n      jump\t// in\n    tag_240:\n        /* \"PFG/AMM.sol\":2034:2048  calculatePrice */\n      tag_187\n        /* \"PFG/AMM.sol\":2034:2131  calculatePrice(msg.value, (address(this).balance - msg.value), tokenERC.balanceOf(address(this))) */\n      jump\t// in\n    tag_235:\n        /* \"PFG/AMM.sol\":2009:2131  uint256 tokens_swapped = calculatePrice(msg.value, (address(this).balance - msg.value), tokenERC.balanceOf(address(this))) */\n      swap1\n      pop\n        /* \"PFG/AMM.sol\":2160:2168  tokenERC */\n      0x00\n      dup1\n      sload\n      swap1\n      0x0100\n      exp\n      swap1\n      div\n      0xffffffffffffffffffffffffffffffffffffffff\n      and\n        /* \"PFG/AMM.sol\":2160:2177  tokenERC.transfer */\n      0xffffffffffffffffffffffffffffffffffffffff\n      and\n      0xa9059cbb\n        /* \"PFG/AMM.sol\":2178:2181  who */\n      dup4\n        /* \"PFG/AMM.sol\":2183:2197  tokens_swapped */\n      dup4\n        /* \"PFG/AMM.sol\":2160:2198  tokenERC.transfer(who, tokens_swapped) */\n      mload(0x40)\n      dup4\n      0xffffffff\n      and\n      0xe0\n      shl\n      dup2\n      mstore\n      0x04\n      add\n      tag_241\n      swap3\n      swap2\n      swap1\n      tag_130\n      jump\t// in\n    tag_241:\n      0x20\n      mload(0x40)\n      dup1\n      dup4\n      sub\n      dup2\n      0x00\n      dup8\n      gas\n      call\n      iszero\n      dup1\n      iszero\n      tag_243\n      jumpi\n      returndatasize\n      0x00\n      dup1\n      returndatacopy\n      revert(0x00, returndatasize)\n    tag_243:\n      pop\n      pop\n      pop\n      pop\n      mload(0x40)\n      returndatasize\n      not(0x1f)\n      0x1f\n      dup3\n      add\n      and\n      dup3\n      add\n      dup1\n      0x40\n      mstore\n      pop\n      dup2\n      add\n      swap1\n      tag_244\n      swap2\n      swap1\n      tag_134\n      jump\t// in\n    tag_244:\n        /* \"PFG/AMM.sol\":2152:2199  require(tokenERC.transfer(who, tokens_swapped)) */\n      tag_245\n      jumpi\n      0x00\n      dup1\n      revert\n    tag_245:\n        /* \"PFG/AMM.sol\":2225:2254  TokensSwapped(tokens_swapped) */\n      0xdb04c7a6d4758fd55d738ebc67e7f3010ac922be00771ef29521a4090d1eb13f\n        /* \"PFG/AMM.sol\":2239:2253  tokens_swapped */\n      dup2\n        /* \"PFG/AMM.sol\":2225:2254  TokensSwapped(tokens_swapped) */\n      mload(0x40)\n      tag_246\n      swap2\n      swap1\n      tag_33\n      jump\t// in\n    tag_246:\n      mload(0x40)\n      dup1\n      swap2\n      sub\n      swap1\n      log1\n        /* \"PFG/AMM.sol\":1990:2266  {... */\n      pop\n        /* \"PFG/AMM.sol\":1942:2266  function ethToErc(address who) external payable {... */\n      pop\n      jump\t// out\n        /* \"PFG/AMM.sol\":6852:7117  function liquidityTaken(uint256 value) external view returns (uint256, uint256){... */\n    tag_81:\n        /* \"PFG/AMM.sol\":6914:6921  uint256 */\n      0x00\n        /* \"PFG/AMM.sol\":6923:6930  uint256 */\n      dup1\n        /* \"PFG/AMM.sol\":6950:6969  uint256 token_value */\n      0x00\n        /* \"PFG/AMM.sol\":7018:7039  address(this).balance */\n      selfbalance\n        /* \"PFG/AMM.sol\":6981:6989  tokenERC */\n      0x00\n      dup1\n      sload\n      swap1\n      0x0100\n      exp\n      swap1\n      div\n      0xffffffffffffffffffffffffffffffffffffffff\n      and\n        /* \"PFG/AMM.sol\":6981:6999  tokenERC.balanceOf */\n      0xffffffffffffffffffffffffffffffffffffffff\n      and\n      0x70a08231\n        /* \"PFG/AMM.sol\":7008:7012  this */\n      address\n        /* \"PFG/AMM.sol\":6981:7014  tokenERC.balanceOf(address(this)) */\n      mload(0x40)\n      dup3\n      0xffffffff\n      and\n      0xe0\n      shl\n      dup2\n      mstore\n      0x04\n      add\n      tag_248\n      swap2\n      swap1\n      tag_111\n      jump\t// in\n    tag_248:\n      0x20\n      mload(0x40)\n      dup1\n      dup4\n      sub\n      dup2\n      dup7\n      gas\n      staticcall\n      iszero\n      dup1\n      iszero\n      tag_250\n      jumpi\n      returndatasize\n      0x00\n      dup1\n      returndatacopy\n      revert(0x00, returndatasize)\n    tag_250:\n      pop\n      pop\n      pop\n      pop\n      mload(0x40)\n      returndatasize\n      not(0x1f)\n      0x1f\n      dup3\n      add\n      and\n      dup3\n      add\n      dup1\n      0x40\n      mstore\n      pop\n      dup2\n      add\n      swap1\n      tag_251\n      swap2\n      swap1\n      tag_115\n      jump\t// in\n    tag_251:\n        /* \"PFG/AMM.sol\":6973:6978  value */\n      dup6\n        /* \"PFG/AMM.sol\":6973:7014  value * tokenERC.balanceOf(address(this)) */\n      tag_252\n      swap2\n      swap1\n      tag_107\n      jump\t// in\n    tag_252:\n        /* \"PFG/AMM.sol\":6972:7039  (value * tokenERC.balanceOf(address(this))) / address(this).balance */\n      tag_253\n      swap2\n      swap1\n      tag_109\n      jump\t// in\n    tag_253:\n        /* \"PFG/AMM.sol\":6950:7039  uint256 token_value = (value * tokenERC.balanceOf(address(this))) / address(this).balance */\n      swap1\n      pop\n        /* \"PFG/AMM.sol\":7084:7089  value */\n      dup4\n        /* \"PFG/AMM.sol\":7091:7102  token_value */\n      dup2\n        /* \"PFG/AMM.sol\":7076:7103  return (value, token_value) */\n      swap3\n      pop\n      swap3\n      pop\n      pop\n        /* \"PFG/AMM.sol\":6852:7117  function liquidityTaken(uint256 value) external view returns (uint256, uint256){... */\n      swap2\n      pop\n      swap2\n      jump\t// out\n        /* \"PFG/AMM.sol\":228:273  mapping (address => uint256) public liquidity */\n    tag_86:\n      mstore(0x20, 0x02)\n      dup1\n      0x00\n      mstore\n      keccak256(0x00, 0x40)\n      0x00\n      swap2\n      pop\n      swap1\n      pop\n      sload\n      dup2\n      jump\t// out\n        /* \"PFG/AMM.sol\":530:988  function initialize(address token_address, uint256 token_amount) external payable {... */\n    tag_91:\n        /* \"PFG/AMM.sol\":658:659  0 */\n      0x00\n        /* \"PFG/AMM.sol\":639:654  total_liquidity */\n      sload(0x01)\n        /* \"PFG/AMM.sol\":639:659  total_liquidity == 0 */\n      eq\n        /* \"PFG/AMM.sol\":631:660  require(total_liquidity == 0) */\n      tag_255\n      jumpi\n      0x00\n      dup1\n      revert\n    tag_255:\n        /* \"PFG/AMM.sol\":699:712  token_address */\n      dup2\n        /* \"PFG/AMM.sol\":681:689  tokenERC */\n      0x00\n      dup1\n        /* \"PFG/AMM.sol\":681:713  tokenERC = IERC20(token_address) */\n      0x0100\n      exp\n      dup2\n      sload\n      dup2\n      0xffffffffffffffffffffffffffffffffffffffff\n      mul\n      not\n      and\n      swap1\n      dup4\n      0xffffffffffffffffffffffffffffffffffffffff\n      and\n      mul\n      or\n      swap1\n      sstore\n      pop\n        /* \"PFG/AMM.sol\":752:773  address(this).balance */\n      selfbalance\n        /* \"PFG/AMM.sol\":734:749  total_liquidity */\n      0x01\n        /* \"PFG/AMM.sol\":734:773  total_liquidity = address(this).balance */\n      dup2\n      swap1\n      sstore\n      pop\n        /* \"PFG/AMM.sol\":816:831  total_liquidity */\n      sload(0x01)\n        /* \"PFG/AMM.sol\":792:801  liquidity */\n      0x02\n        /* \"PFG/AMM.sol\":792:813  liquidity[msg.sender] */\n      0x00\n        /* \"PFG/AMM.sol\":802:812  msg.sender */\n      caller\n        /* \"PFG/AMM.sol\":792:813  liquidity[msg.sender] */\n      0xffffffffffffffffffffffffffffffffffffffff\n      and\n      0xffffffffffffffffffffffffffffffffffffffff\n      and\n      dup2\n      mstore\n      0x20\n      add\n      swap1\n      dup2\n      mstore\n      0x20\n      add\n      0x00\n      keccak256\n        /* \"PFG/AMM.sol\":792:831  liquidity[msg.sender] = total_liquidity */\n      dup2\n      swap1\n      sstore\n      pop\n        /* \"PFG/AMM.sol\":860:868  tokenERC */\n      0x00\n      dup1\n      sload\n      swap1\n      0x0100\n      exp\n      swap1\n      div\n      0xffffffffffffffffffffffffffffffffffffffff\n      and\n        /* \"PFG/AMM.sol\":860:881  tokenERC.transferFrom */\n      0xffffffffffffffffffffffffffffffffffffffff\n      and\n      0x23b872dd\n        /* \"PFG/AMM.sol\":882:892  msg.sender */\n      caller\n        /* \"PFG/AMM.sol\":902:906  this */\n      address\n        /* \"PFG/AMM.sol\":909:921  token_amount */\n      dup5\n        /* \"PFG/AMM.sol\":860:922  tokenERC.transferFrom(msg.sender, address(this), token_amount) */\n      mload(0x40)\n      dup5\n      0xffffffff\n      and\n      0xe0\n      shl\n      dup2\n      mstore\n      0x04\n      add\n      tag_256\n      swap4\n      swap3\n      swap2\n      swap1\n      tag_257\n      jump\t// in\n    tag_256:\n      0x20\n      mload(0x40)\n      dup1\n      dup4\n      sub\n      dup2\n      0x00\n      dup8\n      gas\n      call\n      iszero\n      dup1\n      iszero\n      tag_259\n      jumpi\n      returndatasize\n      0x00\n      dup1\n      returndatacopy\n      revert(0x00, returndatasize)\n    tag_259:\n      pop\n      pop\n      pop\n      pop\n      mload(0x40)\n      returndatasize\n      not(0x1f)\n      0x1f\n      dup3\n      add\n      and\n      dup3\n      add\n      dup1\n      0x40\n      mstore\n      pop\n      dup2\n      add\n      swap1\n      tag_260\n      swap2\n      swap1\n      tag_134\n      jump\t// in\n    tag_260:\n        /* \"PFG/AMM.sol\":852:923  require(tokenERC.transferFrom(msg.sender, address(this), token_amount)) */\n      tag_261\n      jumpi\n      0x00\n      dup1\n      revert\n    tag_261:\n        /* \"PFG/AMM.sol\":949:976  Initialize(total_liquidity) */\n      0xc43e48cf47e9fa186d0f4096c61d1fcb54159799f935a2aa32e5589688ee36e1\n        /* \"PFG/AMM.sol\":960:975  total_liquidity */\n      sload(0x01)\n        /* \"PFG/AMM.sol\":949:976  Initialize(total_liquidity) */\n      mload(0x40)\n      tag_262\n      swap2\n      swap1\n      tag_33\n      jump\t// in\n    tag_262:\n      mload(0x40)\n      dup1\n      swap2\n      sub\n      swap1\n      log1\n        /* \"PFG/AMM.sol\":530:988  function initialize(address token_address, uint256 token_amount) external payable {... */\n      pop\n      pop\n      jump\t// out\n        /* \"PFG/AMM.sol\":3237:3786  function deposit() external payable {... */\n    tag_93:\n        /* \"PFG/AMM.sol\":3292:3312  uint256 token_amount */\n      0x00\n        /* \"PFG/AMM.sol\":3405:3406  1 */\n      0x01\n        /* \"PFG/AMM.sol\":3391:3400  msg.value */\n      callvalue\n        /* \"PFG/AMM.sol\":3367:3388  address(this).balance */\n      selfbalance\n        /* \"PFG/AMM.sol\":3367:3400  address(this).balance - msg.value */\n      tag_264\n      swap2\n      swap1\n      tag_119\n      jump\t// in\n    tag_264:\n        /* \"PFG/AMM.sol\":3329:3337  tokenERC */\n      0x00\n      dup1\n      sload\n      swap1\n      0x0100\n      exp\n      swap1\n      div\n      0xffffffffffffffffffffffffffffffffffffffff\n      and\n        /* \"PFG/AMM.sol\":3329:3347  tokenERC.balanceOf */\n      0xffffffffffffffffffffffffffffffffffffffff\n      and\n      0x70a08231\n        /* \"PFG/AMM.sol\":3356:3360  this */\n      address\n        /* \"PFG/AMM.sol\":3329:3362  tokenERC.balanceOf(address(this)) */\n      mload(0x40)\n      dup3\n      0xffffffff\n      and\n      0xe0\n      shl\n      dup2\n      mstore\n      0x04\n      add\n      tag_265\n      swap2\n      swap1\n      tag_111\n      jump\t// in\n    tag_265:\n      0x20\n      mload(0x40)\n      dup1\n      dup4\n      sub\n      dup2\n      dup7\n      gas\n      staticcall\n      iszero\n      dup1\n      iszero\n      tag_267\n      jumpi\n      returndatasize\n      0x00\n      dup1\n      returndatacopy\n      revert(0x00, returndatasize)\n    tag_267:\n      pop\n      pop\n      pop\n      pop\n      mload(0x40)\n      returndatasize\n      not(0x1f)\n      0x1f\n      dup3\n      add\n      and\n      dup3\n      add\n      dup1\n      0x40\n      mstore\n      pop\n      dup2\n      add\n      swap1\n      tag_268\n      swap2\n      swap1\n      tag_115\n      jump\t// in\n    tag_268:\n        /* \"PFG/AMM.sol\":3317:3326  msg.value */\n      callvalue\n        /* \"PFG/AMM.sol\":3317:3362  msg.value * tokenERC.balanceOf(address(this)) */\n      tag_269\n      swap2\n      swap1\n      tag_107\n      jump\t// in\n    tag_269:\n        /* \"PFG/AMM.sol\":3316:3401  (msg.value * tokenERC.balanceOf(address(this))) / (address(this).balance - msg.value) */\n      tag_270\n      swap2\n      swap1\n      tag_109\n      jump\t// in\n    tag_270:\n        /* \"PFG/AMM.sol\":3315:3406  ((msg.value * tokenERC.balanceOf(address(this))) / (address(this).balance - msg.value)) + 1 */\n      tag_271\n      swap2\n      swap1\n      tag_178\n      jump\t// in\n    tag_271:\n        /* \"PFG/AMM.sol\":3292:3406  uint256 token_amount = ((msg.value * tokenERC.balanceOf(address(this))) / (address(this).balance - msg.value)) + 1 */\n      swap1\n      pop\n        /* \"PFG/AMM.sol\":3425:3448  uint256 liquidity_added */\n      0x00\n        /* \"PFG/AMM.sol\":3508:3517  msg.value */\n      callvalue\n        /* \"PFG/AMM.sol\":3484:3505  address(this).balance */\n      selfbalance\n        /* \"PFG/AMM.sol\":3484:3517  address(this).balance - msg.value */\n      tag_272\n      swap2\n      swap1\n      tag_119\n      jump\t// in\n    tag_272:\n        /* \"PFG/AMM.sol\":3464:3479  total_liquidity */\n      sload(0x01)\n        /* \"PFG/AMM.sol\":3452:3461  msg.value */\n      callvalue\n        /* \"PFG/AMM.sol\":3452:3479  msg.value * total_liquidity */\n      tag_273\n      swap2\n      swap1\n      tag_107\n      jump\t// in\n    tag_273:\n        /* \"PFG/AMM.sol\":3451:3518  (msg.value * total_liquidity) / (address(this).balance - msg.value) */\n      tag_274\n      swap2\n      swap1\n      tag_109\n      jump\t// in\n    tag_274:\n        /* \"PFG/AMM.sol\":3425:3518  uint256 liquidity_added = (msg.value * total_liquidity) / (address(this).balance - msg.value) */\n      swap1\n      pop\n        /* \"PFG/AMM.sol\":3564:3579  liquidity_added */\n      dup1\n        /* \"PFG/AMM.sol\":3539:3548  liquidity */\n      0x02\n        /* \"PFG/AMM.sol\":3539:3560  liquidity[msg.sender] */\n      0x00\n        /* \"PFG/AMM.sol\":3549:3559  msg.sender */\n      caller\n        /* \"PFG/AMM.sol\":3539:3560  liquidity[msg.sender] */\n      0xffffffffffffffffffffffffffffffffffffffff\n      and\n      0xffffffffffffffffffffffffffffffffffffffff\n      and\n      dup2\n      mstore\n      0x20\n      add\n      swap1\n      dup2\n      mstore\n      0x20\n      add\n      0x00\n      keccak256\n      0x00\n        /* \"PFG/AMM.sol\":3539:3579  liquidity[msg.sender] += liquidity_added */\n      dup3\n      dup3\n      sload\n      tag_275\n      swap2\n      swap1\n      tag_178\n      jump\t// in\n    tag_275:\n      swap3\n      pop\n      pop\n      dup2\n      swap1\n      sstore\n      pop\n        /* \"PFG/AMM.sol\":3617:3632  liquidity_added */\n      dup1\n        /* \"PFG/AMM.sol\":3598:3613  total_liquidity */\n      0x01\n      0x00\n        /* \"PFG/AMM.sol\":3598:3632  total_liquidity += liquidity_added */\n      dup3\n      dup3\n      sload\n      tag_276\n      swap2\n      swap1\n      tag_178\n      jump\t// in\n    tag_276:\n      swap3\n      pop\n      pop\n      dup2\n      swap1\n      sstore\n      pop\n        /* \"PFG/AMM.sol\":3661:3669  tokenERC */\n      0x00\n      dup1\n      sload\n      swap1\n      0x0100\n      exp\n      swap1\n      div\n      0xffffffffffffffffffffffffffffffffffffffff\n      and\n        /* \"PFG/AMM.sol\":3661:3682  tokenERC.transferFrom */\n      0xffffffffffffffffffffffffffffffffffffffff\n      and\n      0x23b872dd\n        /* \"PFG/AMM.sol\":3683:3693  msg.sender */\n      caller\n        /* \"PFG/AMM.sol\":3703:3707  this */\n      address\n        /* \"PFG/AMM.sol\":3710:3722  token_amount */\n      dup6\n        /* \"PFG/AMM.sol\":3661:3723  tokenERC.transferFrom(msg.sender, address(this), token_amount) */\n      mload(0x40)\n      dup5\n      0xffffffff\n      and\n      0xe0\n      shl\n      dup2\n      mstore\n      0x04\n      add\n      tag_277\n      swap4\n      swap3\n      swap2\n      swap1\n      tag_257\n      jump\t// in\n    tag_277:\n      0x20\n      mload(0x40)\n      dup1\n      dup4\n      sub\n      dup2\n      0x00\n      dup8\n      gas\n      call\n      iszero\n      dup1\n      iszero\n      tag_279\n      jumpi\n      returndatasize\n      0x00\n      dup1\n      returndatacopy\n      revert(0x00, returndatasize)\n    tag_279:\n      pop\n      pop\n      pop\n      pop\n      mload(0x40)\n      returndatasize\n      not(0x1f)\n      0x1f\n      dup3\n      add\n      and\n      dup3\n      add\n      dup1\n      0x40\n      mstore\n      pop\n      dup2\n      add\n      swap1\n      tag_280\n      swap2\n      swap1\n      tag_134\n      jump\t// in\n    tag_280:\n        /* \"PFG/AMM.sol\":3653:3724  require(tokenERC.transferFrom(msg.sender, address(this), token_amount)) */\n      tag_281\n      jumpi\n      0x00\n      dup1\n      revert\n    tag_281:\n        /* \"PFG/AMM.sol\":3750:3774  Deposit(liquidity_added) */\n      0x4d6ce1e535dbade1c23defba91e23b8f791ce5edc0cc320257a2b364e4e38426\n        /* \"PFG/AMM.sol\":3758:3773  liquidity_added */\n      dup2\n        /* \"PFG/AMM.sol\":3750:3774  Deposit(liquidity_added) */\n      mload(0x40)\n      tag_282\n      swap2\n      swap1\n      tag_33\n      jump\t// in\n    tag_282:\n      mload(0x40)\n      dup1\n      swap2\n      sub\n      swap1\n      log1\n        /* \"PFG/AMM.sol\":3273:3786  {... */\n      pop\n      pop\n        /* \"PFG/AMM.sol\":3237:3786  function deposit() external payable {... */\n      jump\t// out\n        /* \"PFG/AMM.sol\":2280:2747  function ercToEth(uint256 token_amount) external {... */\n    tag_97:\n        /* \"PFG/AMM.sol\":2348:2367  uint256 eth_swapped */\n      0x00\n        /* \"PFG/AMM.sol\":2370:2456  calculatePrice(token_amount, tokenERC.balanceOf(address(this)), address(this).balance) */\n      tag_284\n        /* \"PFG/AMM.sol\":2385:2397  token_amount */\n      dup3\n        /* \"PFG/AMM.sol\":2399:2407  tokenERC */\n      0x00\n      dup1\n      sload\n      swap1\n      0x0100\n      exp\n      swap1\n      div\n      0xffffffffffffffffffffffffffffffffffffffff\n      and\n        /* \"PFG/AMM.sol\":2399:2417  tokenERC.balanceOf */\n      0xffffffffffffffffffffffffffffffffffffffff\n      and\n      0x70a08231\n        /* \"PFG/AMM.sol\":2426:2430  this */\n      address\n        /* \"PFG/AMM.sol\":2399:2432  tokenERC.balanceOf(address(this)) */\n      mload(0x40)\n      dup3\n      0xffffffff\n      and\n      0xe0\n      shl\n      dup2\n      mstore\n      0x04\n      add\n      tag_285\n      swap2\n      swap1\n      tag_111\n      jump\t// in\n    tag_285:\n      0x20\n      mload(0x40)\n      dup1\n      dup4\n      sub\n      dup2\n      dup7\n      gas\n      staticcall\n      iszero\n      dup1\n      iszero\n      tag_287\n      jumpi\n      returndatasize\n      0x00\n      dup1\n      returndatacopy\n      revert(0x00, returndatasize)\n    tag_287:\n      pop\n      pop\n      pop\n      pop\n      mload(0x40)\n      returndatasize\n      not(0x1f)\n      0x1f\n      dup3\n      add\n      and\n      dup3\n      add\n      dup1\n      0x40\n      mstore\n      pop\n      dup2\n      add\n      swap1\n      tag_288\n      swap2\n      swap1\n      tag_115\n      jump\t// in\n    tag_288:\n        /* \"PFG/AMM.sol\":2434:2455  address(this).balance */\n      selfbalance\n        /* \"PFG/AMM.sol\":2370:2384  calculatePrice */\n      tag_187\n        /* \"PFG/AMM.sol\":2370:2456  calculatePrice(token_amount, tokenERC.balanceOf(address(this)), address(this).balance) */\n      jump\t// in\n    tag_284:\n        /* \"PFG/AMM.sol\":2348:2456  uint256 eth_swapped = calculatePrice(token_amount, tokenERC.balanceOf(address(this)), address(this).balance) */\n      swap1\n      pop\n        /* \"PFG/AMM.sol\":2478:2490  bool success */\n      0x00\n        /* \"PFG/AMM.sol\":2496:2506  msg.sender */\n      caller\n        /* \"PFG/AMM.sol\":2496:2511  msg.sender.call */\n      0xffffffffffffffffffffffffffffffffffffffff\n      and\n        /* \"PFG/AMM.sol\":2519:2530  eth_swapped */\n      dup3\n        /* \"PFG/AMM.sol\":2496:2535  msg.sender.call{value: eth_swapped}(\"\") */\n      mload(0x40)\n      tag_289\n      swap1\n      tag_122\n      jump\t// in\n    tag_289:\n      0x00\n      mload(0x40)\n      dup1\n      dup4\n      sub\n      dup2\n      dup6\n      dup8\n      gas\n      call\n      swap3\n      pop\n      pop\n      pop\n      returndatasize\n      dup1\n      0x00\n      dup2\n      eq\n      tag_292\n      jumpi\n      mload(0x40)\n      swap2\n      pop\n      and(add(returndatasize, 0x3f), not(0x1f))\n      dup3\n      add\n      0x40\n      mstore\n      returndatasize\n      dup3\n      mstore\n      returndatasize\n      0x00\n      0x20\n      dup5\n      add\n      returndatacopy\n      jump(tag_291)\n    tag_292:\n      0x60\n      swap2\n      pop\n    tag_291:\n      pop\n        /* \"PFG/AMM.sol\":2477:2535  (bool success, ) = msg.sender.call{value: eth_swapped}(\"\") */\n      pop\n      swap1\n      pop\n        /* \"PFG/AMM.sol\":2562:2569  success */\n      dup1\n        /* \"PFG/AMM.sol\":2554:2590  require(success, \"Transfer failed.\") */\n      tag_293\n      jumpi\n      mload(0x40)\n      0x08c379a000000000000000000000000000000000000000000000000000000000\n      dup2\n      mstore\n      0x04\n      add\n      tag_294\n      swap1\n      tag_128\n      jump\t// in\n    tag_294:\n      mload(0x40)\n      dup1\n      swap2\n      sub\n      swap1\n      revert\n    tag_293:\n        /* \"PFG/AMM.sol\":2623:2631  tokenERC */\n      0x00\n      dup1\n      sload\n      swap1\n      0x0100\n      exp\n      swap1\n      div\n      0xffffffffffffffffffffffffffffffffffffffff\n      and\n        /* \"PFG/AMM.sol\":2623:2644  tokenERC.transferFrom */\n      0xffffffffffffffffffffffffffffffffffffffff\n      and\n      0x23b872dd\n        /* \"PFG/AMM.sol\":2645:2655  msg.sender */\n      caller\n        /* \"PFG/AMM.sol\":2665:2669  this */\n      address\n        /* \"PFG/AMM.sol\":2672:2684  token_amount */\n      dup7\n        /* \"PFG/AMM.sol\":2623:2685  tokenERC.transferFrom(msg.sender, address(this), token_amount) */\n      mload(0x40)\n      dup5\n      0xffffffff\n      and\n      0xe0\n      shl\n      dup2\n      mstore\n      0x04\n      add\n      tag_295\n      swap4\n      swap3\n      swap2\n      swap1\n      tag_257\n      jump\t// in\n    tag_295:\n      0x20\n      mload(0x40)\n      dup1\n      dup4\n      sub\n      dup2\n      0x00\n      dup8\n      gas\n      call\n      iszero\n      dup1\n      iszero\n      tag_297\n      jumpi\n      returndatasize\n      0x00\n      dup1\n      returndatacopy\n      revert(0x00, returndatasize)\n    tag_297:\n      pop\n      pop\n      pop\n      pop\n      mload(0x40)\n      returndatasize\n      not(0x1f)\n      0x1f\n      dup3\n      add\n      and\n      dup3\n      add\n      dup1\n      0x40\n      mstore\n      pop\n      dup2\n      add\n      swap1\n      tag_298\n      swap2\n      swap1\n      tag_134\n      jump\t// in\n    tag_298:\n        /* \"PFG/AMM.sol\":2615:2686  require(tokenERC.transferFrom(msg.sender, address(this), token_amount)) */\n      tag_299\n      jumpi\n      0x00\n      dup1\n      revert\n    tag_299:\n        /* \"PFG/AMM.sol\":2712:2735  ETHSwapped(eth_swapped) */\n      0x4dbf3a71a7c7262f432c2cad7808225832255d07f7d8ab85117677c0b5c0a850\n        /* \"PFG/AMM.sol\":2723:2734  eth_swapped */\n      dup3\n        /* \"PFG/AMM.sol\":2712:2735  ETHSwapped(eth_swapped) */\n      mload(0x40)\n      tag_300\n      swap2\n      swap1\n      tag_33\n      jump\t// in\n    tag_300:\n      mload(0x40)\n      dup1\n      swap2\n      sub\n      swap1\n      log1\n        /* \"PFG/AMM.sol\":2329:2747  {... */\n      pop\n      pop\n        /* \"PFG/AMM.sol\":2280:2747  function ercToEth(uint256 token_amount) external {... */\n      pop\n      jump\t// out\n        /* \"PFG/AMM.sol\":2759:3225  function ercToEth(uint256 token_amount, address who) external {... */\n    tag_101:\n        /* \"PFG/AMM.sol\":2840:2859  uint256 eth_swapped */\n      0x00\n        /* \"PFG/AMM.sol\":2862:2948  calculatePrice(token_amount, tokenERC.balanceOf(address(this)), address(this).balance) */\n      tag_302\n        /* \"PFG/AMM.sol\":2877:2889  token_amount */\n      dup4\n        /* \"PFG/AMM.sol\":2891:2899  tokenERC */\n      0x00\n      dup1\n      sload\n      swap1\n      0x0100\n      exp\n      swap1\n      div\n      0xffffffffffffffffffffffffffffffffffffffff\n      and\n        /* \"PFG/AMM.sol\":2891:2909  tokenERC.balanceOf */\n      0xffffffffffffffffffffffffffffffffffffffff\n      and\n      0x70a08231\n        /* \"PFG/AMM.sol\":2918:2922  this */\n      address\n        /* \"PFG/AMM.sol\":2891:2924  tokenERC.balanceOf(address(this)) */\n      mload(0x40)\n      dup3\n      0xffffffff\n      and\n      0xe0\n      shl\n      dup2\n      mstore\n      0x04\n      add\n      tag_303\n      swap2\n      swap1\n      tag_111\n      jump\t// in\n    tag_303:\n      0x20\n      mload(0x40)\n      dup1\n      dup4\n      sub\n      dup2\n      dup7\n      gas\n      staticcall\n      iszero\n      dup1\n      iszero\n      tag_305\n      jumpi\n      returndatasize\n      0x00\n      dup1\n      returndatacopy\n      revert(0x00, returndatasize)\n    tag_305:\n      pop\n      pop\n      pop\n      pop\n      mload(0x40)\n      returndatasize\n      not(0x1f)\n      0x1f\n      dup3\n      add\n      and\n      dup3\n      add\n      dup1\n      0x40\n      mstore\n      pop\n      dup2\n      add\n      swap1\n      tag_306\n      swap2\n      swap1\n      tag_115\n      jump\t// in\n    tag_306:\n        /* \"PFG/AMM.sol\":2926:2947  address(this).balance */\n      selfbalance\n        /* \"PFG/AMM.sol\":2862:2876  calculatePrice */\n      tag_187\n        /* \"PFG/AMM.sol\":2862:2948  calculatePrice(token_amount, tokenERC.balanceOf(address(this)), address(this).balance) */\n      jump\t// in\n    tag_302:\n        /* \"PFG/AMM.sol\":2840:2948  uint256 eth_swapped = calculatePrice(token_amount, tokenERC.balanceOf(address(this)), address(this).balance) */\n      swap1\n      pop\n        /* \"PFG/AMM.sol\":2970:2982  bool success */\n      0x00\n        /* \"PFG/AMM.sol\":2988:2991  who */\n      dup3\n        /* \"PFG/AMM.sol\":2988:2996  who.call */\n      0xffffffffffffffffffffffffffffffffffffffff\n      and\n        /* \"PFG/AMM.sol\":3004:3015  eth_swapped */\n      dup3\n        /* \"PFG/AMM.sol\":2988:3020  who.call{value: eth_swapped}(\"\") */\n      mload(0x40)\n      tag_307\n      swap1\n      tag_122\n      jump\t// in\n    tag_307:\n      0x00\n      mload(0x40)\n      dup1\n      dup4\n      sub\n      dup2\n      dup6\n      dup8\n      gas\n      call\n      swap3\n      pop\n      pop\n      pop\n      returndatasize\n      dup1\n      0x00\n      dup2\n      eq\n      tag_310\n      jumpi\n      mload(0x40)\n      swap2\n      pop\n      and(add(returndatasize, 0x3f), not(0x1f))\n      dup3\n      add\n      0x40\n      mstore\n      returndatasize\n      dup3\n      mstore\n      returndatasize\n      0x00\n      0x20\n      dup5\n      add\n      returndatacopy\n      jump(tag_309)\n    tag_310:\n      0x60\n      swap2\n      pop\n    tag_309:\n      pop\n        /* \"PFG/AMM.sol\":2969:3020  (bool success, ) = who.call{value: eth_swapped}(\"\") */\n      pop\n      swap1\n      pop\n        /* \"PFG/AMM.sol\":3047:3054  success */\n      dup1\n        /* \"PFG/AMM.sol\":3039:3075  require(success, \"Transfer failed.\") */\n      tag_311\n      jumpi\n      mload(0x40)\n      0x08c379a000000000000000000000000000000000000000000000000000000000\n      dup2\n      mstore\n      0x04\n      add\n      tag_312\n      swap1\n      tag_128\n      jump\t// in\n    tag_312:\n      mload(0x40)\n      dup1\n      swap2\n      sub\n      swap1\n      revert\n    tag_311:\n        /* \"PFG/AMM.sol\":3108:3116  tokenERC */\n      0x00\n      dup1\n      sload\n      swap1\n      0x0100\n      exp\n      swap1\n      div\n      0xffffffffffffffffffffffffffffffffffffffff\n      and\n        /* \"PFG/AMM.sol\":3108:3129  tokenERC.transferFrom */\n      0xffffffffffffffffffffffffffffffffffffffff\n      and\n      0x23b872dd\n        /* \"PFG/AMM.sol\":3130:3133  who */\n      dup5\n        /* \"PFG/AMM.sol\":3143:3147  this */\n      address\n        /* \"PFG/AMM.sol\":3150:3162  token_amount */\n      dup8\n        /* \"PFG/AMM.sol\":3108:3163  tokenERC.transferFrom(who, address(this), token_amount) */\n      mload(0x40)\n      dup5\n      0xffffffff\n      and\n      0xe0\n      shl\n      dup2\n      mstore\n      0x04\n      add\n      tag_313\n      swap4\n      swap3\n      swap2\n      swap1\n      tag_257\n      jump\t// in\n    tag_313:\n      0x20\n      mload(0x40)\n      dup1\n      dup4\n      sub\n      dup2\n      0x00\n      dup8\n      gas\n      call\n      iszero\n      dup1\n      iszero\n      tag_315\n      jumpi\n      returndatasize\n      0x00\n      dup1\n      returndatacopy\n      revert(0x00, returndatasize)\n    tag_315:\n      pop\n      pop\n      pop\n      pop\n      mload(0x40)\n      returndatasize\n      not(0x1f)\n      0x1f\n      dup3\n      add\n      and\n      dup3\n      add\n      dup1\n      0x40\n      mstore\n      pop\n      dup2\n      add\n      swap1\n      tag_316\n      swap2\n      swap1\n      tag_134\n      jump\t// in\n    tag_316:\n        /* \"PFG/AMM.sol\":3100:3164  require(tokenERC.transferFrom(who, address(this), token_amount)) */\n      tag_317\n      jumpi\n      0x00\n      dup1\n      revert\n    tag_317:\n        /* \"PFG/AMM.sol\":3190:3213  ETHSwapped(eth_swapped) */\n      0x4dbf3a71a7c7262f432c2cad7808225832255d07f7d8ab85117677c0b5c0a850\n        /* \"PFG/AMM.sol\":3201:3212  eth_swapped */\n      dup3\n        /* \"PFG/AMM.sol\":3190:3213  ETHSwapped(eth_swapped) */\n      mload(0x40)\n      tag_318\n      swap2\n      swap1\n      tag_33\n      jump\t// in\n    tag_318:\n      mload(0x40)\n      dup1\n      swap2\n      sub\n      swap1\n      log1\n        /* \"PFG/AMM.sol\":2821:3225  {... */\n      pop\n      pop\n        /* \"PFG/AMM.sol\":2759:3225  function ercToEth(uint256 token_amount, address who) external {... */\n      pop\n      pop\n      jump\t// out\n        /* \"PFG/AMM.sol\":3798:4344  function deposit(address who) external payable {... */\n    tag_104:\n        /* \"PFG/AMM.sol\":3864:3884  uint256 token_amount */\n      0x00\n        /* \"PFG/AMM.sol\":3977:3978  1 */\n      0x01\n        /* \"PFG/AMM.sol\":3963:3972  msg.value */\n      callvalue\n        /* \"PFG/AMM.sol\":3939:3960  address(this).balance */\n      selfbalance\n        /* \"PFG/AMM.sol\":3939:3972  address(this).balance - msg.value */\n      tag_320\n      swap2\n      swap1\n      tag_119\n      jump\t// in\n    tag_320:\n        /* \"PFG/AMM.sol\":3901:3909  tokenERC */\n      0x00\n      dup1\n      sload\n      swap1\n      0x0100\n      exp\n      swap1\n      div\n      0xffffffffffffffffffffffffffffffffffffffff\n      and\n        /* \"PFG/AMM.sol\":3901:3919  tokenERC.balanceOf */\n      0xffffffffffffffffffffffffffffffffffffffff\n      and\n      0x70a08231\n        /* \"PFG/AMM.sol\":3928:3932  this */\n      address\n        /* \"PFG/AMM.sol\":3901:3934  tokenERC.balanceOf(address(this)) */\n      mload(0x40)\n      dup3\n      0xffffffff\n      and\n      0xe0\n      shl\n      dup2\n      mstore\n      0x04\n      add\n      tag_321\n      swap2\n      swap1\n      tag_111\n      jump\t// in\n    tag_321:\n      0x20\n      mload(0x40)\n      dup1\n      dup4\n      sub\n      dup2\n      dup7\n      gas\n      staticcall\n      iszero\n      dup1\n      iszero\n      tag_323\n      jumpi\n      returndatasize\n      0x00\n      dup1\n      returndatacopy\n      revert(0x00, returndatasize)\n    tag_323:\n      pop\n      pop\n      pop\n      pop\n      mload(0x40)\n      returndatasize\n      not(0x1f)\n      0x1f\n      dup3\n      add\n      and\n      dup3\n      add\n      dup1\n      0x40\n      mstore\n      pop\n      dup2\n      add\n      swap1\n      tag_324\n      swap2\n      swap1\n      tag_115\n      jump\t// in\n    tag_324:\n        /* \"PFG/AMM.sol\":3889:3898  msg.value */\n      callvalue\n        /* \"PFG/AMM.sol\":3889:3934  msg.value * tokenERC.balanceOf(address(this)) */\n      tag_325\n      swap2\n      swap1\n      tag_107\n      jump\t// in\n    tag_325:\n        /* \"PFG/AMM.sol\":3888:3973  (msg.value * tokenERC.balanceOf(address(this))) / (address(this).balance - msg.value) */\n      tag_326\n      swap2\n      swap1\n      tag_109\n      jump\t// in\n    tag_326:\n        /* \"PFG/AMM.sol\":3887:3978  ((msg.value * tokenERC.balanceOf(address(this))) / (address(this).balance - msg.value)) + 1 */\n      tag_327\n      swap2\n      swap1\n      tag_178\n      jump\t// in\n    tag_327:\n        /* \"PFG/AMM.sol\":3864:3978  uint256 token_amount = ((msg.value * tokenERC.balanceOf(address(this))) / (address(this).balance - msg.value)) + 1 */\n      swap1\n      pop\n        /* \"PFG/AMM.sol\":3997:4020  uint256 liquidity_added */\n      0x00\n        /* \"PFG/AMM.sol\":4080:4089  msg.value */\n      callvalue\n        /* \"PFG/AMM.sol\":4056:4077  address(this).balance */\n      selfbalance\n        /* \"PFG/AMM.sol\":4056:4089  address(this).balance - msg.value */\n      tag_328\n      swap2\n      swap1\n      tag_119\n      jump\t// in\n    tag_328:\n        /* \"PFG/AMM.sol\":4036:4051  total_liquidity */\n      sload(0x01)\n        /* \"PFG/AMM.sol\":4024:4033  msg.value */\n      callvalue\n        /* \"PFG/AMM.sol\":4024:4051  msg.value * total_liquidity */\n      tag_329\n      swap2\n      swap1\n      tag_107\n      jump\t// in\n    tag_329:\n        /* \"PFG/AMM.sol\":4023:4090  (msg.value * total_liquidity) / (address(this).balance - msg.value) */\n      tag_330\n      swap2\n      swap1\n      tag_109\n      jump\t// in\n    tag_330:\n        /* \"PFG/AMM.sol\":3997:4090  uint256 liquidity_added = (msg.value * total_liquidity) / (address(this).balance - msg.value) */\n      swap1\n      pop\n        /* \"PFG/AMM.sol\":4129:4144  liquidity_added */\n      dup1\n        /* \"PFG/AMM.sol\":4111:4120  liquidity */\n      0x02\n        /* \"PFG/AMM.sol\":4111:4125  liquidity[who] */\n      0x00\n        /* \"PFG/AMM.sol\":4121:4124  who */\n      dup6\n        /* \"PFG/AMM.sol\":4111:4125  liquidity[who] */\n      0xffffffffffffffffffffffffffffffffffffffff\n      and\n      0xffffffffffffffffffffffffffffffffffffffff\n      and\n      dup2\n      mstore\n      0x20\n      add\n      swap1\n      dup2\n      mstore\n      0x20\n      add\n      0x00\n      keccak256\n      0x00\n        /* \"PFG/AMM.sol\":4111:4144  liquidity[who] += liquidity_added */\n      dup3\n      dup3\n      sload\n      tag_331\n      swap2\n      swap1\n      tag_178\n      jump\t// in\n    tag_331:\n      swap3\n      pop\n      pop\n      dup2\n      swap1\n      sstore\n      pop\n        /* \"PFG/AMM.sol\":4182:4197  liquidity_added */\n      dup1\n        /* \"PFG/AMM.sol\":4163:4178  total_liquidity */\n      0x01\n      0x00\n        /* \"PFG/AMM.sol\":4163:4197  total_liquidity += liquidity_added */\n      dup3\n      dup3\n      sload\n      tag_332\n      swap2\n      swap1\n      tag_178\n      jump\t// in\n    tag_332:\n      swap3\n      pop\n      pop\n      dup2\n      swap1\n      sstore\n      pop\n        /* \"PFG/AMM.sol\":4226:4234  tokenERC */\n      0x00\n      dup1\n      sload\n      swap1\n      0x0100\n      exp\n      swap1\n      div\n      0xffffffffffffffffffffffffffffffffffffffff\n      and\n        /* \"PFG/AMM.sol\":4226:4247  tokenERC.transferFrom */\n      0xffffffffffffffffffffffffffffffffffffffff\n      and\n      0x23b872dd\n        /* \"PFG/AMM.sol\":4248:4251  who */\n      dup5\n        /* \"PFG/AMM.sol\":4261:4265  this */\n      address\n        /* \"PFG/AMM.sol\":4268:4280  token_amount */\n      dup6\n        /* \"PFG/AMM.sol\":4226:4281  tokenERC.transferFrom(who, address(this), token_amount) */\n      mload(0x40)\n      dup5\n      0xffffffff\n      and\n      0xe0\n      shl\n      dup2\n      mstore\n      0x04\n      add\n      tag_333\n      swap4\n      swap3\n      swap2\n      swap1\n      tag_257\n      jump\t// in\n    tag_333:\n      0x20\n      mload(0x40)\n      dup1\n      dup4\n      sub\n      dup2\n      0x00\n      dup8\n      gas\n      call\n      iszero\n      dup1\n      iszero\n      tag_335\n      jumpi\n      returndatasize\n      0x00\n      dup1\n      returndatacopy\n      revert(0x00, returndatasize)\n    tag_335:\n      pop\n      pop\n      pop\n      pop\n      mload(0x40)\n      returndatasize\n      not(0x1f)\n      0x1f\n      dup3\n      add\n      and\n      dup3\n      add\n      dup1\n      0x40\n      mstore\n      pop\n      dup2\n      add\n      swap1\n      tag_336\n      swap2\n      swap1\n      tag_134\n      jump\t// in\n    tag_336:\n        /* \"PFG/AMM.sol\":4218:4282  require(tokenERC.transferFrom(who, address(this), token_amount)) */\n      tag_337\n      jumpi\n      0x00\n      dup1\n      revert\n    tag_337:\n        /* \"PFG/AMM.sol\":4308:4332  Deposit(liquidity_added) */\n      0x4d6ce1e535dbade1c23defba91e23b8f791ce5edc0cc320257a2b364e4e38426\n        /* \"PFG/AMM.sol\":4316:4331  liquidity_added */\n      dup2\n        /* \"PFG/AMM.sol\":4308:4332  Deposit(liquidity_added) */\n      mload(0x40)\n      tag_338\n      swap2\n      swap1\n      tag_33\n      jump\t// in\n    tag_338:\n      mload(0x40)\n      dup1\n      swap2\n      sub\n      swap1\n      log1\n        /* \"PFG/AMM.sol\":3845:4344  {... */\n      pop\n      pop\n        /* \"PFG/AMM.sol\":3798:4344  function deposit(address who) external payable {... */\n      pop\n      jump\t// out\n        /* \"PFG/AMM.sol\":1000:1212  function calculatePrice(uint256 input_value, uint256 input_pool, uint256 output_pool) internal pure returns (uint256) {... */\n    tag_187:\n        /* \"PFG/AMM.sol\":1109:1116  uint256 */\n      0x00\n        /* \"PFG/AMM.sol\":1188:1199  input_value */\n      dup4\n        /* \"PFG/AMM.sol\":1175:1185  input_pool */\n      dup4\n        /* \"PFG/AMM.sol\":1175:1199  input_pool + input_value */\n      tag_340\n      swap2\n      swap1\n      tag_178\n      jump\t// in\n    tag_340:\n        /* \"PFG/AMM.sol\":1159:1170  output_pool */\n      dup3\n        /* \"PFG/AMM.sol\":1145:1156  input_value */\n      dup6\n        /* \"PFG/AMM.sol\":1145:1170  input_value * output_pool */\n      tag_341\n      swap2\n      swap1\n      tag_107\n      jump\t// in\n    tag_341:\n        /* \"PFG/AMM.sol\":1144:1200  (input_value * output_pool) / (input_pool + input_value) */\n      tag_342\n      swap2\n      swap1\n      tag_109\n      jump\t// in\n    tag_342:\n        /* \"PFG/AMM.sol\":1137:1200  return (input_value * output_pool) / (input_pool + input_value) */\n      swap1\n      pop\n        /* \"PFG/AMM.sol\":1000:1212  function calculatePrice(uint256 input_value, uint256 input_pool, uint256 output_pool) internal pure returns (uint256) {... */\n      swap4\n      swap3\n      pop\n      pop\n      pop\n      jump\t// out\n        /* \"#utility.yul\":88:205   */\n    tag_344:\n        /* \"#utility.yul\":197:198   */\n      0x00\n        /* \"#utility.yul\":194:195   */\n      dup1\n        /* \"#utility.yul\":187:199   */\n      revert\n        /* \"#utility.yul\":334:411   */\n    tag_346:\n        /* \"#utility.yul\":371:378   */\n      0x00\n        /* \"#utility.yul\":400:405   */\n      dup2\n        /* \"#utility.yul\":389:405   */\n      swap1\n      pop\n        /* \"#utility.yul\":334:411   */\n      swap2\n      swap1\n      pop\n      jump\t// out\n        /* \"#utility.yul\":417:539   */\n    tag_347:\n        /* \"#utility.yul\":490:514   */\n      tag_373\n        /* \"#utility.yul\":508:513   */\n      dup2\n        /* \"#utility.yul\":490:514   */\n      tag_346\n      jump\t// in\n    tag_373:\n        /* \"#utility.yul\":483:488   */\n      dup2\n        /* \"#utility.yul\":480:515   */\n      eq\n        /* \"#utility.yul\":470:533   */\n      tag_374\n      jumpi\n        /* \"#utility.yul\":529:530   */\n      0x00\n        /* \"#utility.yul\":526:527   */\n      dup1\n        /* \"#utility.yul\":519:531   */\n      revert\n        /* \"#utility.yul\":470:533   */\n    tag_374:\n        /* \"#utility.yul\":417:539   */\n      pop\n      jump\t// out\n        /* \"#utility.yul\":545:684   */\n    tag_348:\n        /* \"#utility.yul\":591:596   */\n      0x00\n        /* \"#utility.yul\":629:635   */\n      dup2\n        /* \"#utility.yul\":616:636   */\n      calldataload\n        /* \"#utility.yul\":607:636   */\n      swap1\n      pop\n        /* \"#utility.yul\":645:678   */\n      tag_376\n        /* \"#utility.yul\":672:677   */\n      dup2\n        /* \"#utility.yul\":645:678   */\n      tag_347\n      jump\t// in\n    tag_376:\n        /* \"#utility.yul\":545:684   */\n      swap3\n      swap2\n      pop\n      pop\n      jump\t// out\n        /* \"#utility.yul\":690:816   */\n    tag_349:\n        /* \"#utility.yul\":727:734   */\n      0x00\n        /* \"#utility.yul\":767:809   */\n      0xffffffffffffffffffffffffffffffffffffffff\n        /* \"#utility.yul\":760:765   */\n      dup3\n        /* \"#utility.yul\":756:810   */\n      and\n        /* \"#utility.yul\":745:810   */\n      swap1\n      pop\n        /* \"#utility.yul\":690:816   */\n      swap2\n      swap1\n      pop\n      jump\t// out\n        /* \"#utility.yul\":822:918   */\n    tag_350:\n        /* \"#utility.yul\":859:866   */\n      0x00\n        /* \"#utility.yul\":888:912   */\n      tag_379\n        /* \"#utility.yul\":906:911   */\n      dup3\n        /* \"#utility.yul\":888:912   */\n      tag_349\n      jump\t// in\n    tag_379:\n        /* \"#utility.yul\":877:912   */\n      swap1\n      pop\n        /* \"#utility.yul\":822:918   */\n      swap2\n      swap1\n      pop\n      jump\t// out\n        /* \"#utility.yul\":924:1046   */\n    tag_351:\n        /* \"#utility.yul\":997:1021   */\n      tag_381\n        /* \"#utility.yul\":1015:1020   */\n      dup2\n        /* \"#utility.yul\":997:1021   */\n      tag_350\n      jump\t// in\n    tag_381:\n        /* \"#utility.yul\":990:995   */\n      dup2\n        /* \"#utility.yul\":987:1022   */\n      eq\n        /* \"#utility.yul\":977:1040   */\n      tag_382\n      jumpi\n        /* \"#utility.yul\":1036:1037   */\n      0x00\n        /* \"#utility.yul\":1033:1034   */\n      dup1\n        /* \"#utility.yul\":1026:1038   */\n      revert\n        /* \"#utility.yul\":977:1040   */\n    tag_382:\n        /* \"#utility.yul\":924:1046   */\n      pop\n      jump\t// out\n        /* \"#utility.yul\":1052:1191   */\n    tag_352:\n        /* \"#utility.yul\":1098:1103   */\n      0x00\n        /* \"#utility.yul\":1136:1142   */\n      dup2\n        /* \"#utility.yul\":1123:1143   */\n      calldataload\n        /* \"#utility.yul\":1114:1143   */\n      swap1\n      pop\n        /* \"#utility.yul\":1152:1185   */\n      tag_384\n        /* \"#utility.yul\":1179:1184   */\n      dup2\n        /* \"#utility.yul\":1152:1185   */\n      tag_351\n      jump\t// in\n    tag_384:\n        /* \"#utility.yul\":1052:1191   */\n      swap3\n      swap2\n      pop\n      pop\n      jump\t// out\n        /* \"#utility.yul\":1197:1671   */\n    tag_27:\n        /* \"#utility.yul\":1265:1271   */\n      0x00\n        /* \"#utility.yul\":1273:1279   */\n      dup1\n        /* \"#utility.yul\":1322:1324   */\n      0x40\n        /* \"#utility.yul\":1310:1319   */\n      dup4\n        /* \"#utility.yul\":1301:1308   */\n      dup6\n        /* \"#utility.yul\":1297:1320   */\n      sub\n        /* \"#utility.yul\":1293:1325   */\n      slt\n        /* \"#utility.yul\":1290:1409   */\n      iszero\n      tag_386\n      jumpi\n        /* \"#utility.yul\":1328:1407   */\n      tag_387\n      tag_344\n      jump\t// in\n    tag_387:\n        /* \"#utility.yul\":1290:1409   */\n    tag_386:\n        /* \"#utility.yul\":1448:1449   */\n      0x00\n        /* \"#utility.yul\":1473:1526   */\n      tag_388\n        /* \"#utility.yul\":1518:1525   */\n      dup6\n        /* \"#utility.yul\":1509:1515   */\n      dup3\n        /* \"#utility.yul\":1498:1507   */\n      dup7\n        /* \"#utility.yul\":1494:1516   */\n      add\n        /* \"#utility.yul\":1473:1526   */\n      tag_348\n      jump\t// in\n    tag_388:\n        /* \"#utility.yul\":1463:1526   */\n      swap3\n      pop\n        /* \"#utility.yul\":1419:1536   */\n      pop\n        /* \"#utility.yul\":1575:1577   */\n      0x20\n        /* \"#utility.yul\":1601:1654   */\n      tag_389\n        /* \"#utility.yul\":1646:1653   */\n      dup6\n        /* \"#utility.yul\":1637:1643   */\n      dup3\n        /* \"#utility.yul\":1626:1635   */\n      dup7\n        /* \"#utility.yul\":1622:1644   */\n      add\n        /* \"#utility.yul\":1601:1654   */\n      tag_352\n      jump\t// in\n    tag_389:\n        /* \"#utility.yul\":1591:1654   */\n      swap2\n      pop\n        /* \"#utility.yul\":1546:1664   */\n      pop\n        /* \"#utility.yul\":1197:1671   */\n      swap3\n      pop\n      swap3\n      swap1\n      pop\n      jump\t// out\n        /* \"#utility.yul\":1677:1795   */\n    tag_353:\n        /* \"#utility.yul\":1764:1788   */\n      tag_391\n        /* \"#utility.yul\":1782:1787   */\n      dup2\n        /* \"#utility.yul\":1764:1788   */\n      tag_346\n      jump\t// in\n    tag_391:\n        /* \"#utility.yul\":1759:1762   */\n      dup3\n        /* \"#utility.yul\":1752:1789   */\n      mstore\n        /* \"#utility.yul\":1677:1795   */\n      pop\n      pop\n      jump\t// out\n        /* \"#utility.yul\":1801:2023   */\n    tag_33:\n        /* \"#utility.yul\":1894:1898   */\n      0x00\n        /* \"#utility.yul\":1932:1934   */\n      0x20\n        /* \"#utility.yul\":1921:1930   */\n      dup3\n        /* \"#utility.yul\":1917:1935   */\n      add\n        /* \"#utility.yul\":1909:1935   */\n      swap1\n      pop\n        /* \"#utility.yul\":1945:2016   */\n      tag_393\n        /* \"#utility.yul\":2013:2014   */\n      0x00\n        /* \"#utility.yul\":2002:2011   */\n      dup4\n        /* \"#utility.yul\":1998:2015   */\n      add\n        /* \"#utility.yul\":1989:1995   */\n      dup5\n        /* \"#utility.yul\":1945:2016   */\n      tag_353\n      jump\t// in\n    tag_393:\n        /* \"#utility.yul\":1801:2023   */\n      swap3\n      swap2\n      pop\n      pop\n      jump\t// out\n        /* \"#utility.yul\":2029:2358   */\n    tag_37:\n        /* \"#utility.yul\":2088:2094   */\n      0x00\n        /* \"#utility.yul\":2137:2139   */\n      0x20\n        /* \"#utility.yul\":2125:2134   */\n      dup3\n        /* \"#utility.yul\":2116:2123   */\n      dup5\n        /* \"#utility.yul\":2112:2135   */\n      sub\n        /* \"#utility.yul\":2108:2140   */\n      slt\n        /* \"#utility.yul\":2105:2224   */\n      iszero\n      tag_395\n      jumpi\n        /* \"#utility.yul\":2143:2222   */\n      tag_396\n      tag_344\n      jump\t// in\n    tag_396:\n        /* \"#utility.yul\":2105:2224   */\n    tag_395:\n        /* \"#utility.yul\":2263:2264   */\n      0x00\n        /* \"#utility.yul\":2288:2341   */\n      tag_397\n        /* \"#utility.yul\":2333:2340   */\n      dup5\n        /* \"#utility.yul\":2324:2330   */\n      dup3\n        /* \"#utility.yul\":2313:2322   */\n      dup6\n        /* \"#utility.yul\":2309:2331   */\n      add\n        /* \"#utility.yul\":2288:2341   */\n      tag_348\n      jump\t// in\n    tag_397:\n        /* \"#utility.yul\":2278:2341   */\n      swap2\n      pop\n        /* \"#utility.yul\":2234:2351   */\n      pop\n        /* \"#utility.yul\":2029:2358   */\n      swap3\n      swap2\n      pop\n      pop\n      jump\t// out\n        /* \"#utility.yul\":2364:2696   */\n    tag_40:\n        /* \"#utility.yul\":2485:2489   */\n      0x00\n        /* \"#utility.yul\":2523:2525   */\n      0x40\n        /* \"#utility.yul\":2512:2521   */\n      dup3\n        /* \"#utility.yul\":2508:2526   */\n      add\n        /* \"#utility.yul\":2500:2526   */\n      swap1\n      pop\n        /* \"#utility.yul\":2536:2607   */\n      tag_399\n        /* \"#utility.yul\":2604:2605   */\n      0x00\n        /* \"#utility.yul\":2593:2602   */\n      dup4\n        /* \"#utility.yul\":2589:2606   */\n      add\n        /* \"#utility.yul\":2580:2586   */\n      dup6\n        /* \"#utility.yul\":2536:2607   */\n      tag_353\n      jump\t// in\n    tag_399:\n        /* \"#utility.yul\":2617:2689   */\n      tag_400\n        /* \"#utility.yul\":2685:2687   */\n      0x20\n        /* \"#utility.yul\":2674:2683   */\n      dup4\n        /* \"#utility.yul\":2670:2688   */\n      add\n        /* \"#utility.yul\":2661:2667   */\n      dup5\n        /* \"#utility.yul\":2617:2689   */\n      tag_353\n      jump\t// in\n    tag_400:\n        /* \"#utility.yul\":2364:2696   */\n      swap4\n      swap3\n      pop\n      pop\n      pop\n      jump\t// out\n        /* \"#utility.yul\":2702:3031   */\n    tag_76:\n        /* \"#utility.yul\":2761:2767   */\n      0x00\n        /* \"#utility.yul\":2810:2812   */\n      0x20\n        /* \"#utility.yul\":2798:2807   */\n      dup3\n        /* \"#utility.yul\":2789:2796   */\n      dup5\n        /* \"#utility.yul\":2785:2808   */\n      sub\n        /* \"#utility.yul\":2781:2813   */\n      slt\n        /* \"#utility.yul\":2778:2897   */\n      iszero\n      tag_402\n      jumpi\n        /* \"#utility.yul\":2816:2895   */\n      tag_403\n      tag_344\n      jump\t// in\n    tag_403:\n        /* \"#utility.yul\":2778:2897   */\n    tag_402:\n        /* \"#utility.yul\":2936:2937   */\n      0x00\n        /* \"#utility.yul\":2961:3014   */\n      tag_404\n        /* \"#utility.yul\":3006:3013   */\n      dup5\n        /* \"#utility.yul\":2997:3003   */\n      dup3\n        /* \"#utility.yul\":2986:2995   */\n      dup6\n        /* \"#utility.yul\":2982:3004   */\n      add\n        /* \"#utility.yul\":2961:3014   */\n      tag_352\n      jump\t// in\n    tag_404:\n        /* \"#utility.yul\":2951:3014   */\n      swap2\n      pop\n        /* \"#utility.yul\":2907:3024   */\n      pop\n        /* \"#utility.yul\":2702:3031   */\n      swap3\n      swap2\n      pop\n      pop\n      jump\t// out\n        /* \"#utility.yul\":3037:3511   */\n    tag_90:\n        /* \"#utility.yul\":3105:3111   */\n      0x00\n        /* \"#utility.yul\":3113:3119   */\n      dup1\n        /* \"#utility.yul\":3162:3164   */\n      0x40\n        /* \"#utility.yul\":3150:3159   */\n      dup4\n        /* \"#utility.yul\":3141:3148   */\n      dup6\n        /* \"#utility.yul\":3137:3160   */\n      sub\n        /* \"#utility.yul\":3133:3165   */\n      slt\n        /* \"#utility.yul\":3130:3249   */\n      iszero\n      tag_406\n      jumpi\n        /* \"#utility.yul\":3168:3247   */\n      tag_407\n      tag_344\n      jump\t// in\n    tag_407:\n        /* \"#utility.yul\":3130:3249   */\n    tag_406:\n        /* \"#utility.yul\":3288:3289   */\n      0x00\n        /* \"#utility.yul\":3313:3366   */\n      tag_408\n        /* \"#utility.yul\":3358:3365   */\n      dup6\n        /* \"#utility.yul\":3349:3355   */\n      dup3\n        /* \"#utility.yul\":3338:3347   */\n      dup7\n        /* \"#utility.yul\":3334:3356   */\n      add\n        /* \"#utility.yul\":3313:3366   */\n      tag_352\n      jump\t// in\n    tag_408:\n        /* \"#utility.yul\":3303:3366   */\n      swap3\n      pop\n        /* \"#utility.yul\":3259:3376   */\n      pop\n        /* \"#utility.yul\":3415:3417   */\n      0x20\n        /* \"#utility.yul\":3441:3494   */\n      tag_409\n        /* \"#utility.yul\":3486:3493   */\n      dup6\n        /* \"#utility.yul\":3477:3483   */\n      dup3\n        /* \"#utility.yul\":3466:3475   */\n      dup7\n        /* \"#utility.yul\":3462:3484   */\n      add\n        /* \"#utility.yul\":3441:3494   */\n      tag_348\n      jump\t// in\n    tag_409:\n        /* \"#utility.yul\":3431:3494   */\n      swap2\n      pop\n        /* \"#utility.yul\":3386:3504   */\n      pop\n        /* \"#utility.yul\":3037:3511   */\n      swap3\n      pop\n      swap3\n      swap1\n      pop\n      jump\t// out\n        /* \"#utility.yul\":3517:3697   */\n    tag_354:\n        /* \"#utility.yul\":3565:3642   */\n      0x4e487b7100000000000000000000000000000000000000000000000000000000\n        /* \"#utility.yul\":3562:3563   */\n      0x00\n        /* \"#utility.yul\":3555:3643   */\n      mstore\n        /* \"#utility.yul\":3662:3666   */\n      0x11\n        /* \"#utility.yul\":3659:3660   */\n      0x04\n        /* \"#utility.yul\":3652:3667   */\n      mstore\n        /* \"#utility.yul\":3686:3690   */\n      0x24\n        /* \"#utility.yul\":3683:3684   */\n      0x00\n        /* \"#utility.yul\":3676:3691   */\n      revert\n        /* \"#utility.yul\":3703:4051   */\n    tag_107:\n        /* \"#utility.yul\":3743:3750   */\n      0x00\n        /* \"#utility.yul\":3766:3786   */\n      tag_412\n        /* \"#utility.yul\":3784:3785   */\n      dup3\n        /* \"#utility.yul\":3766:3786   */\n      tag_346\n      jump\t// in\n    tag_412:\n        /* \"#utility.yul\":3761:3786   */\n      swap2\n      pop\n        /* \"#utility.yul\":3800:3820   */\n      tag_413\n        /* \"#utility.yul\":3818:3819   */\n      dup4\n        /* \"#utility.yul\":3800:3820   */\n      tag_346\n      jump\t// in\n    tag_413:\n        /* \"#utility.yul\":3795:3820   */\n      swap3\n      pop\n        /* \"#utility.yul\":3988:3989   */\n      dup2\n        /* \"#utility.yul\":3920:3986   */\n      0xffffffffffffffffffffffffffffffffffffffffffffffffffffffffffffffff\n        /* \"#utility.yul\":3916:3990   */\n      div\n        /* \"#utility.yul\":3913:3914   */\n      dup4\n        /* \"#utility.yul\":3910:3991   */\n      gt\n        /* \"#utility.yul\":3905:3906   */\n      dup3\n        /* \"#utility.yul\":3898:3907   */\n      iszero\n        /* \"#utility.yul\":3891:3908   */\n      iszero\n        /* \"#utility.yul\":3887:3992   */\n      and\n        /* \"#utility.yul\":3884:4015   */\n      iszero\n      tag_414\n      jumpi\n        /* \"#utility.yul\":3995:4013   */\n      tag_415\n      tag_354\n      jump\t// in\n    tag_415:\n        /* \"#utility.yul\":3884:4015   */\n    tag_414:\n        /* \"#utility.yul\":4043:4044   */\n      dup3\n        /* \"#utility.yul\":4040:4041   */\n      dup3\n        /* \"#utility.yul\":4036:4045   */\n      mul\n        /* \"#utility.yul\":4025:4045   */\n      swap1\n      pop\n        /* \"#utility.yul\":3703:4051   */\n      swap3\n      swap2\n      pop\n      pop\n      jump\t// out\n        /* \"#utility.yul\":4057:4237   */\n    tag_355:\n        /* \"#utility.yul\":4105:4182   */\n      0x4e487b7100000000000000000000000000000000000000000000000000000000\n        /* \"#utility.yul\":4102:4103   */\n      0x00\n        /* \"#utility.yul\":4095:4183   */\n      mstore\n        /* \"#utility.yul\":4202:4206   */\n      0x12\n        /* \"#utility.yul\":4199:4200   */\n      0x04\n        /* \"#utility.yul\":4192:4207   */\n      mstore\n        /* \"#utility.yul\":4226:4230   */\n      0x24\n        /* \"#utility.yul\":4223:4224   */\n      0x00\n        /* \"#utility.yul\":4216:4231   */\n      revert\n        /* \"#utility.yul\":4243:4428   */\n    tag_109:\n        /* \"#utility.yul\":4283:4284   */\n      0x00\n        /* \"#utility.yul\":4300:4320   */\n      tag_418\n        /* \"#utility.yul\":4318:4319   */\n      dup3\n        /* \"#utility.yul\":4300:4320   */\n      tag_346\n      jump\t// in\n    tag_418:\n        /* \"#utility.yul\":4295:4320   */\n      swap2\n      pop\n        /* \"#utility.yul\":4334:4354   */\n      tag_419\n        /* \"#utility.yul\":4352:4353   */\n      dup4\n        /* \"#utility.yul\":4334:4354   */\n      tag_346\n      jump\t// in\n    tag_419:\n        /* \"#utility.yul\":4329:4354   */\n      swap3\n      pop\n        /* \"#utility.yul\":4373:4374   */\n      dup3\n        /* \"#utility.yul\":4363:4398   */\n      tag_420\n      jumpi\n        /* \"#utility.yul\":4378:4396   */\n      tag_421\n      tag_355\n      jump\t// in\n    tag_421:\n        /* \"#utility.yul\":4363:4398   */\n    tag_420:\n        /* \"#utility.yul\":4420:4421   */\n      dup3\n        /* \"#utility.yul\":4417:4418   */\n      dup3\n        /* \"#utility.yul\":4413:4422   */\n      div\n        /* \"#utility.yul\":4408:4422   */\n      swap1\n      pop\n        /* \"#utility.yul\":4243:4428   */\n      swap3\n      swap2\n      pop\n      pop\n      jump\t// out\n        /* \"#utility.yul\":4434:4552   */\n    tag_356:\n        /* \"#utility.yul\":4521:4545   */\n      tag_423\n        /* \"#utility.yul\":4539:4544   */\n      dup2\n        /* \"#utility.yul\":4521:4545   */\n      tag_350\n      jump\t// in\n    tag_423:\n        /* \"#utility.yul\":4516:4519   */\n      dup3\n        /* \"#utility.yul\":4509:4546   */\n      mstore\n        /* \"#utility.yul\":4434:4552   */\n      pop\n      pop\n      jump\t// out\n        /* \"#utility.yul\":4558:4780   */\n    tag_111:\n        /* \"#utility.yul\":4651:4655   */\n      0x00\n        /* \"#utility.yul\":4689:4691   */\n      0x20\n        /* \"#utility.yul\":4678:4687   */\n      dup3\n        /* \"#utility.yul\":4674:4692   */\n      add\n        /* \"#utility.yul\":4666:4692   */\n      swap1\n      pop\n        /* \"#utility.yul\":4702:4773   */\n      tag_425\n        /* \"#utility.yul\":4770:4771   */\n      0x00\n        /* \"#utility.yul\":4759:4768   */\n      dup4\n        /* \"#utility.yul\":4755:4772   */\n      add\n        /* \"#utility.yul\":4746:4752   */\n      dup5\n        /* \"#utility.yul\":4702:4773   */\n      tag_356\n      jump\t// in\n    tag_425:\n        /* \"#utility.yul\":4558:4780   */\n      swap3\n      swap2\n      pop\n      pop\n      jump\t// out\n        /* \"#utility.yul\":4786:4929   */\n    tag_357:\n        /* \"#utility.yul\":4843:4848   */\n      0x00\n        /* \"#utility.yul\":4874:4880   */\n      dup2\n        /* \"#utility.yul\":4868:4881   */\n      mload\n        /* \"#utility.yul\":4859:4881   */\n      swap1\n      pop\n        /* \"#utility.yul\":4890:4923   */\n      tag_427\n        /* \"#utility.yul\":4917:4922   */\n      dup2\n        /* \"#utility.yul\":4890:4923   */\n      tag_347\n      jump\t// in\n    tag_427:\n        /* \"#utility.yul\":4786:4929   */\n      swap3\n      swap2\n      pop\n      pop\n      jump\t// out\n        /* \"#utility.yul\":4935:5286   */\n    tag_115:\n        /* \"#utility.yul\":5005:5011   */\n      0x00\n        /* \"#utility.yul\":5054:5056   */\n      0x20\n        /* \"#utility.yul\":5042:5051   */\n      dup3\n        /* \"#utility.yul\":5033:5040   */\n      dup5\n        /* \"#utility.yul\":5029:5052   */\n      sub\n        /* \"#utility.yul\":5025:5057   */\n      slt\n        /* \"#utility.yul\":5022:5141   */\n      iszero\n      tag_429\n      jumpi\n        /* \"#utility.yul\":5060:5139   */\n      tag_430\n      tag_344\n      jump\t// in\n    tag_430:\n        /* \"#utility.yul\":5022:5141   */\n    tag_429:\n        /* \"#utility.yul\":5180:5181   */\n      0x00\n        /* \"#utility.yul\":5205:5269   */\n      tag_431\n        /* \"#utility.yul\":5261:5268   */\n      dup5\n        /* \"#utility.yul\":5252:5258   */\n      dup3\n        /* \"#utility.yul\":5241:5250   */\n      dup6\n        /* \"#utility.yul\":5237:5259   */\n      add\n        /* \"#utility.yul\":5205:5269   */\n      tag_357\n      jump\t// in\n    tag_431:\n        /* \"#utility.yul\":5195:5269   */\n      swap2\n      pop\n        /* \"#utility.yul\":5151:5279   */\n      pop\n        /* \"#utility.yul\":4935:5286   */\n      swap3\n      swap2\n      pop\n      pop\n      jump\t// out\n        /* \"#utility.yul\":5292:5483   */\n    tag_119:\n        /* \"#utility.yul\":5332:5336   */\n      0x00\n        /* \"#utility.yul\":5352:5372   */\n      tag_433\n        /* \"#utility.yul\":5370:5371   */\n      dup3\n        /* \"#utility.yul\":5352:5372   */\n      tag_346\n      jump\t// in\n    tag_433:\n        /* \"#utility.yul\":5347:5372   */\n      swap2\n      pop\n        /* \"#utility.yul\":5386:5406   */\n      tag_434\n        /* \"#utility.yul\":5404:5405   */\n      dup4\n        /* \"#utility.yul\":5386:5406   */\n      tag_346\n      jump\t// in\n    tag_434:\n        /* \"#utility.yul\":5381:5406   */\n      swap3\n      pop\n        /* \"#utility.yul\":5425:5426   */\n      dup3\n        /* \"#utility.yul\":5422:5423   */\n      dup3\n        /* \"#utility.yul\":5419:5427   */\n      lt\n        /* \"#utility.yul\":5416:5450   */\n      iszero\n      tag_435\n      jumpi\n        /* \"#utility.yul\":5430:5448   */\n      tag_436\n      tag_354\n      jump\t// in\n    tag_436:\n        /* \"#utility.yul\":5416:5450   */\n    tag_435:\n        /* \"#utility.yul\":5475:5476   */\n      dup3\n        /* \"#utility.yul\":5472:5473   */\n      dup3\n        /* \"#utility.yul\":5468:5477   */\n      sub\n        /* \"#utility.yul\":5460:5477   */\n      swap1\n      pop\n        /* \"#utility.yul\":5292:5483   */\n      swap3\n      swap2\n      pop\n      pop\n      jump\t// out\n        /* \"#utility.yul\":5489:5636   */\n    tag_358:\n        /* \"#utility.yul\":5590:5601   */\n      0x00\n        /* \"#utility.yul\":5627:5630   */\n      dup2\n        /* \"#utility.yul\":5612:5630   */\n      swap1\n      pop\n        /* \"#utility.yul\":5489:5636   */\n      swap3\n      swap2\n      pop\n      pop\n      jump\t// out\n        /* \"#utility.yul\":5642:5756   */\n    tag_359:\n      pop\n      jump\t// out\n        /* \"#utility.yul\":5762:6160   */\n    tag_360:\n        /* \"#utility.yul\":5921:5924   */\n      0x00\n        /* \"#utility.yul\":5942:6025   */\n      tag_440\n        /* \"#utility.yul\":6023:6024   */\n      0x00\n        /* \"#utility.yul\":6018:6021   */\n      dup4\n        /* \"#utility.yul\":5942:6025   */\n      tag_358\n      jump\t// in\n    tag_440:\n        /* \"#utility.yul\":5935:6025   */\n      swap2\n      pop\n        /* \"#utility.yul\":6034:6127   */\n      tag_441\n        /* \"#utility.yul\":6123:6126   */\n      dup3\n        /* \"#utility.yul\":6034:6127   */\n      tag_359\n      jump\t// in\n    tag_441:\n        /* \"#utility.yul\":6152:6153   */\n      0x00\n        /* \"#utility.yul\":6147:6150   */\n      dup3\n        /* \"#utility.yul\":6143:6154   */\n      add\n        /* \"#utility.yul\":6136:6154   */\n      swap1\n      pop\n        /* \"#utility.yul\":5762:6160   */\n      swap2\n      swap1\n      pop\n      jump\t// out\n        /* \"#utility.yul\":6166:6545   */\n    tag_122:\n        /* \"#utility.yul\":6350:6353   */\n      0x00\n        /* \"#utility.yul\":6372:6519   */\n      tag_443\n        /* \"#utility.yul\":6515:6518   */\n      dup3\n        /* \"#utility.yul\":6372:6519   */\n      tag_360\n      jump\t// in\n    tag_443:\n        /* \"#utility.yul\":6365:6519   */\n      swap2\n      pop\n        /* \"#utility.yul\":6536:6539   */\n      dup2\n        /* \"#utility.yul\":6529:6539   */\n      swap1\n      pop\n        /* \"#utility.yul\":6166:6545   */\n      swap2\n      swap1\n      pop\n      jump\t// out\n        /* \"#utility.yul\":6551:6720   */\n    tag_361:\n        /* \"#utility.yul\":6635:6646   */\n      0x00\n        /* \"#utility.yul\":6669:6675   */\n      dup3\n        /* \"#utility.yul\":6664:6667   */\n      dup3\n        /* \"#utility.yul\":6657:6676   */\n      mstore\n        /* \"#utility.yul\":6709:6713   */\n      0x20\n        /* \"#utility.yul\":6704:6707   */\n      dup3\n        /* \"#utility.yul\":6700:6714   */\n      add\n        /* \"#utility.yul\":6685:6714   */\n      swap1\n      pop\n        /* \"#utility.yul\":6551:6720   */\n      swap3\n      swap2\n      pop\n      pop\n      jump\t// out\n        /* \"#utility.yul\":6726:6892   */\n    tag_362:\n        /* \"#utility.yul\":6866:6884   */\n      0x5472616e73666572206661696c65642e00000000000000000000000000000000\n        /* \"#utility.yul\":6862:6863   */\n      0x00\n        /* \"#utility.yul\":6854:6860   */\n      dup3\n        /* \"#utility.yul\":6850:6864   */\n      add\n        /* \"#utility.yul\":6843:6885   */\n      mstore\n        /* \"#utility.yul\":6726:6892   */\n      pop\n      jump\t// out\n        /* \"#utility.yul\":6898:7264   */\n    tag_363:\n        /* \"#utility.yul\":7040:7043   */\n      0x00\n        /* \"#utility.yul\":7061:7128   */\n      tag_447\n        /* \"#utility.yul\":7125:7127   */\n      0x10\n        /* \"#utility.yul\":7120:7123   */\n      dup4\n        /* \"#utility.yul\":7061:7128   */\n      tag_361\n      jump\t// in\n    tag_447:\n        /* \"#utility.yul\":7054:7128   */\n      swap2\n      pop\n        /* \"#utility.yul\":7137:7230   */\n      tag_448\n        /* \"#utility.yul\":7226:7229   */\n      dup3\n        /* \"#utility.yul\":7137:7230   */\n      tag_362\n      jump\t// in\n    tag_448:\n        /* \"#utility.yul\":7255:7257   */\n      0x20\n        /* \"#utility.yul\":7250:7253   */\n      dup3\n        /* \"#utility.yul\":7246:7258   */\n      add\n        /* \"#utility.yul\":7239:7258   */\n      swap1\n      pop\n        /* \"#utility.yul\":6898:7264   */\n      swap2\n      swap1\n      pop\n      jump\t// out\n        /* \"#utility.yul\":7270:7689   */\n    tag_128:\n        /* \"#utility.yul\":7436:7440   */\n      0x00\n        /* \"#utility.yul\":7474:7476   */\n      0x20\n        /* \"#utility.yul\":7463:7472   */\n      dup3\n        /* \"#utility.yul\":7459:7477   */\n      add\n        /* \"#utility.yul\":7451:7477   */\n      swap1\n      pop\n        /* \"#utility.yul\":7523:7532   */\n      dup2\n        /* \"#utility.yul\":7517:7521   */\n      dup2\n        /* \"#utility.yul\":7513:7533   */\n      sub\n        /* \"#utility.yul\":7509:7510   */\n      0x00\n        /* \"#utility.yul\":7498:7507   */\n      dup4\n        /* \"#utility.yul\":7494:7511   */\n      add\n        /* \"#utility.yul\":7487:7534   */\n      mstore\n        /* \"#utility.yul\":7551:7682   */\n      tag_450\n        /* \"#utility.yul\":7677:7681   */\n      dup2\n        /* \"#utility.yul\":7551:7682   */\n      tag_363\n      jump\t// in\n    tag_450:\n        /* \"#utility.yul\":7543:7682   */\n      swap1\n      pop\n        /* \"#utility.yul\":7270:7689   */\n      swap2\n      swap1\n      pop\n      jump\t// out\n        /* \"#utility.yul\":7695:8027   */\n    tag_130:\n        /* \"#utility.yul\":7816:7820   */\n      0x00\n        /* \"#utility.yul\":7854:7856   */\n      0x40\n        /* \"#utility.yul\":7843:7852   */\n      dup3\n        /* \"#utility.yul\":7839:7857   */\n      add\n        /* \"#utility.yul\":7831:7857   */\n      swap1\n      pop\n        /* \"#utility.yul\":7867:7938   */\n      tag_452\n        /* \"#utility.yul\":7935:7936   */\n      0x00\n        /* \"#utility.yul\":7924:7933   */\n      dup4\n        /* \"#utility.yul\":7920:7937   */\n      add\n        /* \"#utility.yul\":7911:7917   */\n      dup6\n        /* \"#utility.yul\":7867:7938   */\n      tag_356\n      jump\t// in\n    tag_452:\n        /* \"#utility.yul\":7948:8020   */\n      tag_453\n        /* \"#utility.yul\":8016:8018   */\n      0x20\n        /* \"#utility.yul\":8005:8014   */\n      dup4\n        /* \"#utility.yul\":8001:8019   */\n      add\n        /* \"#utility.yul\":7992:7998   */\n      dup5\n        /* \"#utility.yul\":7948:8020   */\n      tag_353\n      jump\t// in\n    tag_453:\n        /* \"#utility.yul\":7695:8027   */\n      swap4\n      swap3\n      pop\n      pop\n      pop\n      jump\t// out\n        /* \"#utility.yul\":8033:8123   */\n    tag_364:\n        /* \"#utility.yul\":8067:8074   */\n      0x00\n        /* \"#utility.yul\":8110:8115   */\n      dup2\n        /* \"#utility.yul\":8103:8116   */\n      iszero\n        /* \"#utility.yul\":8096:8117   */\n      iszero\n        /* \"#utility.yul\":8085:8117   */\n      swap1\n      pop\n        /* \"#utility.yul\":8033:8123   */\n      swap2\n      swap1\n      pop\n      jump\t// out\n        /* \"#utility.yul\":8129:8245   */\n    tag_365:\n        /* \"#utility.yul\":8199:8220   */\n      tag_456\n        /* \"#utility.yul\":8214:8219   */\n      dup2\n        /* \"#utility.yul\":8199:8220   */\n      tag_364\n      jump\t// in\n    tag_456:\n        /* \"#utility.yul\":8192:8197   */\n      dup2\n        /* \"#utility.yul\":8189:8221   */\n      eq\n        /* \"#utility.yul\":8179:8239   */\n      tag_457\n      jumpi\n        /* \"#utility.yul\":8235:8236   */\n      0x00\n        /* \"#utility.yul\":8232:8233   */\n      dup1\n        /* \"#utility.yul\":8225:8237   */\n      revert\n        /* \"#utility.yul\":8179:8239   */\n    tag_457:\n        /* \"#utility.yul\":8129:8245   */\n      pop\n      jump\t// out\n        /* \"#utility.yul\":8251:8388   */\n    tag_366:\n        /* \"#utility.yul\":8305:8310   */\n      0x00\n        /* \"#utility.yul\":8336:8342   */\n      dup2\n        /* \"#utility.yul\":8330:8343   */\n      mload\n        /* \"#utility.yul\":8321:8343   */\n      swap1\n      pop\n        /* \"#utility.yul\":8352:8382   */\n      tag_459\n        /* \"#utility.yul\":8376:8381   */\n      dup2\n        /* \"#utility.yul\":8352:8382   */\n      tag_365\n      jump\t// in\n    tag_459:\n        /* \"#utility.yul\":8251:8388   */\n      swap3\n      swap2\n      pop\n      pop\n      jump\t// out\n        /* \"#utility.yul\":8394:8739   */\n    tag_134:\n        /* \"#utility.yul\":8461:8467   */\n      0x00\n        /* \"#utility.yul\":8510:8512   */\n      0x20\n        /* \"#utility.yul\":8498:8507   */\n      dup3\n        /* \"#utility.yul\":8489:8496   */\n      dup5\n        /* \"#utility.yul\":8485:8508   */\n      sub\n        /* \"#utility.yul\":8481:8513   */\n      slt\n        /* \"#utility.yul\":8478:8597   */\n      iszero\n      tag_461\n      jumpi\n        /* \"#utility.yul\":8516:8595   */\n      tag_462\n      tag_344\n      jump\t// in\n    tag_462:\n        /* \"#utility.yul\":8478:8597   */\n    tag_461:\n        /* \"#utility.yul\":8636:8637   */\n      0x00\n        /* \"#utility.yul\":8661:8722   */\n      tag_463\n        /* \"#utility.yul\":8714:8721   */\n      dup5\n        /* \"#utility.yul\":8705:8711   */\n      dup3\n        /* \"#utility.yul\":8694:8703   */\n      dup6\n        /* \"#utility.yul\":8690:8712   */\n      add\n        /* \"#utility.yul\":8661:8722   */\n      tag_366\n      jump\t// in\n    tag_463:\n        /* \"#utility.yul\":8651:8722   */\n      swap2\n      pop\n        /* \"#utility.yul\":8607:8732   */\n      pop\n        /* \"#utility.yul\":8394:8739   */\n      swap3\n      swap2\n      pop\n      pop\n      jump\t// out\n        /* \"#utility.yul\":8745:9050   */\n    tag_178:\n        /* \"#utility.yul\":8785:8788   */\n      0x00\n        /* \"#utility.yul\":8804:8824   */\n      tag_465\n        /* \"#utility.yul\":8822:8823   */\n      dup3\n        /* \"#utility.yul\":8804:8824   */\n      tag_346\n      jump\t// in\n    tag_465:\n        /* \"#utility.yul\":8799:8824   */\n      swap2\n      pop\n        /* \"#utility.yul\":8838:8858   */\n      tag_466\n        /* \"#utility.yul\":8856:8857   */\n      dup4\n        /* \"#utility.yul\":8838:8858   */\n      tag_346\n      jump\t// in\n    tag_466:\n        /* \"#utility.yul\":8833:8858   */\n      swap3\n      pop\n        /* \"#utility.yul\":8992:8993   */\n      dup3\n        /* \"#utility.yul\":8924:8990   */\n      0xffffffffffffffffffffffffffffffffffffffffffffffffffffffffffffffff\n        /* \"#utility.yul\":8920:8994   */\n      sub\n        /* \"#utility.yul\":8917:8918   */\n      dup3\n        /* \"#utility.yul\":8914:8995   */\n      gt\n        /* \"#utility.yul\":8911:9018   */\n      iszero\n      tag_467\n      jumpi\n        /* \"#utility.yul\":8998:9016   */\n      tag_468\n      tag_354\n      jump\t// in\n    tag_468:\n        /* \"#utility.yul\":8911:9018   */\n    tag_467:\n        /* \"#utility.yul\":9042:9043   */\n      dup3\n        /* \"#utility.yul\":9039:9040   */\n      dup3\n        /* \"#utility.yul\":9035:9044   */\n      add\n        /* \"#utility.yul\":9028:9044   */\n      swap1\n      pop\n        /* \"#utility.yul\":8745:9050   */\n      swap3\n      swap2\n      pop\n      pop\n      jump\t// out\n        /* \"#utility.yul\":9056:9498   */\n    tag_257:\n        /* \"#utility.yul\":9205:9209   */\n      0x00\n        /* \"#utility.yul\":9243:9245   */\n      0x60\n        /* \"#utility.yul\":9232:9241   */\n      dup3\n        /* \"#utility.yul\":9228:9246   */\n      add\n        /* \"#utility.yul\":9220:9246   */\n      swap1\n      pop\n        /* \"#utility.yul\":9256:9327   */\n      tag_470\n        /* \"#utility.yul\":9324:9325   */\n      0x00\n        /* \"#utility.yul\":9313:9322   */\n      dup4\n        /* \"#utility.yul\":9309:9326   */\n      add\n        /* \"#utility.yul\":9300:9306   */\n      dup7\n        /* \"#utility.yul\":9256:9327   */\n      tag_356\n      jump\t// in\n    tag_470:\n        /* \"#utility.yul\":9337:9409   */\n      tag_471\n        /* \"#utility.yul\":9405:9407   */\n      0x20\n        /* \"#utility.yul\":9394:9403   */\n      dup4\n        /* \"#utility.yul\":9390:9408   */\n      add\n        /* \"#utility.yul\":9381:9387   */\n      dup6\n        /* \"#utility.yul\":9337:9409   */\n      tag_356\n      jump\t// in\n    tag_471:\n        /* \"#utility.yul\":9419:9491   */\n      tag_472\n        /* \"#utility.yul\":9487:9489   */\n      0x40\n        /* \"#utility.yul\":9476:9485   */\n      dup4\n        /* \"#utility.yul\":9472:9490   */\n      add\n        /* \"#utility.yul\":9463:9469   */\n      dup5\n        /* \"#utility.yul\":9419:9491   */\n      tag_353\n      jump\t// in\n    tag_472:\n        /* \"#utility.yul\":9056:9498   */\n      swap5\n      swap4\n      pop\n      pop\n      pop\n      pop\n      jump\t// out\n\n    auxdata: 0xa2646970667358221220b4ddc46574d81c6f87569a788be4996260133f543641d7c714bda5fead254b5264736f6c634300080f0033\n}\n",
				"bytecode": {
					"linkReferences": {},
					"object": "608060405234801561001057600080fd5b50612498806100206000396000f3fe6080604052600436106101135760003560e01c80637937c03d116100a0578063cd6dc68711610064578063cd6dc687146103ab578063d0e30db0146103c7578063debc674c146103d1578063e2415984146103fa578063f340fa011461042357610113565b80637937c03d146102df57806382b2e257146102e9578063a5b8b16f14610314578063a88ebf5214610330578063b8c876b11461036e57610113565b806331f3bd28116100e757806331f3bd28146101d35780635f244d4e146101fe57806367da263d1461023c57806372a9d12414610279578063732c3297146102b657610113565b8062f714ce1461011857806312065fe0146101415780631eb928aa1461016c5780632e1a7d4d146101aa575b600080fd5b34801561012457600080fd5b5061013f600480360381019061013a9190611fce565b61043f565b005b34801561014d57600080fd5b50610156610714565b604051610163919061201d565b60405180910390f35b34801561017857600080fd5b50610193600480360381019061018e9190612038565b61071c565b6040516101a1929190612065565b60405180910390f35b3480156101b657600080fd5b506101d160048036038101906101cc9190612038565b6107ff565b005b3480156101df57600080fd5b506101e8610ad3565b6040516101f5919061201d565b60405180910390f35b34801561020a57600080fd5b5061022560048036038101906102209190612038565b610ad9565b604051610233929190612065565b60405180910390f35b34801561024857600080fd5b50610263600480360381019061025e9190612038565b610bc6565b604051610270919061201d565b60405180910390f35b34801561028557600080fd5b506102a0600480360381019061029b9190612038565b610c73565b6040516102ad919061201d565b60405180910390f35b3480156102c257600080fd5b506102dd60048036038101906102d89190611fce565b610d2b565b005b6102e7610fe0565b005b3480156102f557600080fd5b506102fe611174565b60405161030b919061201d565b60405180910390f35b61032e6004803603810190610329919061208e565b611216565b005b34801561033c57600080fd5b5061035760048036038101906103529190612038565b6113ab565b604051610365929190612065565b60405180910390f35b34801561037a57600080fd5b506103956004803603810190610390919061208e565b61146e565b6040516103a2919061201d565b60405180910390f35b6103c560048036038101906103c091906120bb565b611486565b005b6103cf611608565b005b3480156103dd57600080fd5b506103f860048036038101906103f39190612038565b61184e565b005b34801561040657600080fd5b50610421600480360381019061041c9190611fce565b611a87565b005b61043d6004803603810190610438919061208e565b611cc1565b005b60006001544784610450919061212a565b61045a91906121b3565b9050600060015460008054906101000a900473ffffffffffffffffffffffffffffffffffffffff1673ffffffffffffffffffffffffffffffffffffffff166370a08231306040518263ffffffff1660e01b81526004016104ba91906121f3565b602060405180830381865afa1580156104d7573d6000803e3d6000fd5b505050506040513d601f19601f820116820180604052508101906104fb9190612223565b85610506919061212a565b61051091906121b3565b905081600260008573ffffffffffffffffffffffffffffffffffffffff1673ffffffffffffffffffffffffffffffffffffffff16815260200190815260200160002060008282546105619190612250565b92505081905550816001600082825461057a9190612250565b9250508190555060008373ffffffffffffffffffffffffffffffffffffffff16836040516105a7906122b5565b60006040518083038185875af1925050503d80600081146105e4576040519150601f19603f3d011682016040523d82523d6000602084013e6105e9565b606091505b505090508061062d576040517f08c379a000000000000000000000000000000000000000000000000000000000815260040161062490612327565b60405180910390fd5b60008054906101000a900473ffffffffffffffffffffffffffffffffffffffff1673ffffffffffffffffffffffffffffffffffffffff1663a9059cbb85846040518363ffffffff1660e01b8152600401610688929190612347565b6020604051808303816000875af11580156106a7573d6000803e3d6000fd5b505050506040513d601f19601f820116820180604052508101906106cb91906123a8565b6106d457600080fd5b7f56ca301a9219608c91e7bcee90e083c19671d2cdcc96752c7af291cee5f9c8c88383604051610705929190612065565b60405180910390a15050505050565b600047905090565b60008060006001544785610730919061212a565b61073a91906121b3565b9050600060015460008054906101000a900473ffffffffffffffffffffffffffffffffffffffff1673ffffffffffffffffffffffffffffffffffffffff166370a08231306040518263ffffffff1660e01b815260040161079a91906121f3565b602060405180830381865afa1580156107b7573d6000803e3d6000fd5b505050506040513d601f19601f820116820180604052508101906107db9190612223565b866107e6919061212a565b6107f091906121b3565b90508181935093505050915091565b60006001544783610810919061212a565b61081a91906121b3565b9050600060015460008054906101000a900473ffffffffffffffffffffffffffffffffffffffff1673ffffffffffffffffffffffffffffffffffffffff166370a08231306040518263ffffffff1660e01b815260040161087a91906121f3565b602060405180830381865afa158015610897573d6000803e3d6000fd5b505050506040513d601f19601f820116820180604052508101906108bb9190612223565b846108c6919061212a565b6108d091906121b3565b905081600260003373ffffffffffffffffffffffffffffffffffffffff1673ffffffffffffffffffffffffffffffffffffffff16815260200190815260200160002060008282546109219190612250565b92505081905550816001600082825461093a9190612250565b9250508190555060003373ffffffffffffffffffffffffffffffffffffffff1683604051610967906122b5565b60006040518083038185875af1925050503d80600081146109a4576040519150601f19603f3d011682016040523d82523d6000602084013e6109a9565b606091505b50509050806109ed576040517f08c379a00000000000000000000000000000000000000000000000000000000081526004016109e490612327565b60405180910390fd5b60008054906101000a900473ffffffffffffffffffffffffffffffffffffffff1673ffffffffffffffffffffffffffffffffffffffff1663a9059cbb33846040518363ffffffff1660e01b8152600401610a48929190612347565b6020604051808303816000875af1158015610a67573d6000803e3d6000fd5b505050506040513d601f19601f82011682018060405250810190610a8b91906123a8565b610a9457600080fd5b7f56ca301a9219608c91e7bcee90e083c19671d2cdcc96752c7af291cee5f9c8c88383604051610ac5929190612065565b60405180910390a150505050565b60015481565b600080600060014760008054906101000a900473ffffffffffffffffffffffffffffffffffffffff1673ffffffffffffffffffffffffffffffffffffffff166370a08231306040518263ffffffff1660e01b8152600401610b3a91906121f3565b602060405180830381865afa158015610b57573d6000803e3d6000fd5b505050506040513d601f19601f82011682018060405250810190610b7b9190612223565b86610b86919061212a565b610b9091906121b3565b610b9a91906123d5565b905060004760015486610bad919061212a565b610bb791906121b3565b90508181935093505050915091565b6000610c6c8260008054906101000a900473ffffffffffffffffffffffffffffffffffffffff1673ffffffffffffffffffffffffffffffffffffffff166370a08231306040518263ffffffff1660e01b8152600401610c2591906121f3565b602060405180830381865afa158015610c42573d6000803e3d6000fd5b505050506040513d601f19601f82011682018060405250810190610c669190612223565b47611f08565b9050919050565b6000610d24828347610c859190612250565b60008054906101000a900473ffffffffffffffffffffffffffffffffffffffff1673ffffffffffffffffffffffffffffffffffffffff166370a08231306040518263ffffffff1660e01b8152600401610cde91906121f3565b602060405180830381865afa158015610cfb573d6000803e3d6000fd5b505050506040513d601f19601f82011682018060405250810190610d1f9190612223565b611f08565b9050919050565b60004760008054906101000a900473ffffffffffffffffffffffffffffffffffffffff1673ffffffffffffffffffffffffffffffffffffffff166370a08231306040518263ffffffff1660e01b8152600401610d8791906121f3565b602060405180830381865afa158015610da4573d6000803e3d6000fd5b505050506040513d601f19601f82011682018060405250810190610dc89190612223565b84610dd3919061212a565b610ddd91906121b3565b905082600260008473ffffffffffffffffffffffffffffffffffffffff1673ffffffffffffffffffffffffffffffffffffffff1681526020019081526020016000206000828254610e2e9190612250565b925050819055508260016000828254610e479190612250565b9250508190555060008273ffffffffffffffffffffffffffffffffffffffff1684604051610e74906122b5565b60006040518083038185875af1925050503d8060008114610eb1576040519150601f19603f3d011682016040523d82523d6000602084013e610eb6565b606091505b5050905080610efa576040517f08c379a0000000000000000000000000000000000000000000000000000000008152600401610ef190612327565b60405180910390fd5b60008054906101000a900473ffffffffffffffffffffffffffffffffffffffff1673ffffffffffffffffffffffffffffffffffffffff1663a9059cbb84846040518363ffffffff1660e01b8152600401610f55929190612347565b6020604051808303816000875af1158015610f74573d6000803e3d6000fd5b505050506040513d601f19601f82011682018060405250810190610f9891906123a8565b610fa157600080fd5b7f56ca301a9219608c91e7bcee90e083c19671d2cdcc96752c7af291cee5f9c8c88483604051610fd2929190612065565b60405180910390a150505050565b6000611091343447610ff29190612250565b60008054906101000a900473ffffffffffffffffffffffffffffffffffffffff1673ffffffffffffffffffffffffffffffffffffffff166370a08231306040518263ffffffff1660e01b815260040161104b91906121f3565b602060405180830381865afa158015611068573d6000803e3d6000fd5b505050506040513d601f19601f8201168201806040525081019061108c9190612223565b611f08565b905060008054906101000a900473ffffffffffffffffffffffffffffffffffffffff1673ffffffffffffffffffffffffffffffffffffffff1663a9059cbb33836040518363ffffffff1660e01b81526004016110ee929190612347565b6020604051808303816000875af115801561110d573d6000803e3d6000fd5b505050506040513d601f19601f8201168201806040525081019061113191906123a8565b61113a57600080fd5b7fdb04c7a6d4758fd55d738ebc67e7f3010ac922be00771ef29521a4090d1eb13f81604051611169919061201d565b60405180910390a150565b60008060009054906101000a900473ffffffffffffffffffffffffffffffffffffffff1673ffffffffffffffffffffffffffffffffffffffff166370a08231306040518263ffffffff1660e01b81526004016111d091906121f3565b602060405180830381865afa1580156111ed573d6000803e3d6000fd5b505050506040513d601f19601f820116820180604052508101906112119190612223565b905090565b60006112c73434476112289190612250565b60008054906101000a900473ffffffffffffffffffffffffffffffffffffffff1673ffffffffffffffffffffffffffffffffffffffff166370a08231306040518263ffffffff1660e01b815260040161128191906121f3565b602060405180830381865afa15801561129e573d6000803e3d6000fd5b505050506040513d601f19601f820116820180604052508101906112c29190612223565b611f08565b905060008054906101000a900473ffffffffffffffffffffffffffffffffffffffff1673ffffffffffffffffffffffffffffffffffffffff1663a9059cbb83836040518363ffffffff1660e01b8152600401611324929190612347565b6020604051808303816000875af1158015611343573d6000803e3d6000fd5b505050506040513d601f19601f8201168201806040525081019061136791906123a8565b61137057600080fd5b7fdb04c7a6d4758fd55d738ebc67e7f3010ac922be00771ef29521a4090d1eb13f8160405161139f919061201d565b60405180910390a15050565b60008060004760008054906101000a900473ffffffffffffffffffffffffffffffffffffffff1673ffffffffffffffffffffffffffffffffffffffff166370a08231306040518263ffffffff1660e01b815260040161140a91906121f3565b602060405180830381865afa158015611427573d6000803e3d6000fd5b505050506040513d601f19601f8201168201806040525081019061144b9190612223565b85611456919061212a565b61146091906121b3565b905083819250925050915091565b60026020528060005260406000206000915090505481565b60006001541461149557600080fd5b816000806101000a81548173ffffffffffffffffffffffffffffffffffffffff021916908373ffffffffffffffffffffffffffffffffffffffff16021790555047600181905550600154600260003373ffffffffffffffffffffffffffffffffffffffff1673ffffffffffffffffffffffffffffffffffffffff1681526020019081526020016000208190555060008054906101000a900473ffffffffffffffffffffffffffffffffffffffff1673ffffffffffffffffffffffffffffffffffffffff166323b872dd3330846040518463ffffffff1660e01b815260040161157f9392919061242b565b6020604051808303816000875af115801561159e573d6000803e3d6000fd5b505050506040513d601f19601f820116820180604052508101906115c291906123a8565b6115cb57600080fd5b7fc43e48cf47e9fa186d0f4096c61d1fcb54159799f935a2aa32e5589688ee36e16001546040516115fc919061201d565b60405180910390a15050565b6000600134476116189190612250565b60008054906101000a900473ffffffffffffffffffffffffffffffffffffffff1673ffffffffffffffffffffffffffffffffffffffff166370a08231306040518263ffffffff1660e01b815260040161167191906121f3565b602060405180830381865afa15801561168e573d6000803e3d6000fd5b505050506040513d601f19601f820116820180604052508101906116b29190612223565b346116bd919061212a565b6116c791906121b3565b6116d191906123d5565b9050600034476116e19190612250565b600154346116ef919061212a565b6116f991906121b3565b905080600260003373ffffffffffffffffffffffffffffffffffffffff1673ffffffffffffffffffffffffffffffffffffffff168152602001908152602001600020600082825461174a91906123d5565b92505081905550806001600082825461176391906123d5565b9250508190555060008054906101000a900473ffffffffffffffffffffffffffffffffffffffff1673ffffffffffffffffffffffffffffffffffffffff166323b872dd3330856040518463ffffffff1660e01b81526004016117c79392919061242b565b6020604051808303816000875af11580156117e6573d6000803e3d6000fd5b505050506040513d601f19601f8201168201806040525081019061180a91906123a8565b61181357600080fd5b7f4d6ce1e535dbade1c23defba91e23b8f791ce5edc0cc320257a2b364e4e3842681604051611842919061201d565b60405180910390a15050565b60006118f48260008054906101000a900473ffffffffffffffffffffffffffffffffffffffff1673ffffffffffffffffffffffffffffffffffffffff166370a08231306040518263ffffffff1660e01b81526004016118ad91906121f3565b602060405180830381865afa1580156118ca573d6000803e3d6000fd5b505050506040513d601f19601f820116820180604052508101906118ee9190612223565b47611f08565b905060003373ffffffffffffffffffffffffffffffffffffffff168260405161191c906122b5565b60006040518083038185875af1925050503d8060008114611959576040519150601f19603f3d011682016040523d82523d6000602084013e61195e565b606091505b50509050806119a2576040517f08c379a000000000000000000000000000000000000000000000000000000000815260040161199990612327565b60405180910390fd5b60008054906101000a900473ffffffffffffffffffffffffffffffffffffffff1673ffffffffffffffffffffffffffffffffffffffff166323b872dd3330866040518463ffffffff1660e01b81526004016119ff9392919061242b565b6020604051808303816000875af1158015611a1e573d6000803e3d6000fd5b505050506040513d601f19601f82011682018060405250810190611a4291906123a8565b611a4b57600080fd5b7f4dbf3a71a7c7262f432c2cad7808225832255d07f7d8ab85117677c0b5c0a85082604051611a7a919061201d565b60405180910390a1505050565b6000611b2d8360008054906101000a900473ffffffffffffffffffffffffffffffffffffffff1673ffffffffffffffffffffffffffffffffffffffff166370a08231306040518263ffffffff1660e01b8152600401611ae691906121f3565b602060405180830381865afa158015611b03573d6000803e3d6000fd5b505050506040513d601f19601f82011682018060405250810190611b279190612223565b47611f08565b905060008273ffffffffffffffffffffffffffffffffffffffff1682604051611b55906122b5565b60006040518083038185875af1925050503d8060008114611b92576040519150601f19603f3d011682016040523d82523d6000602084013e611b97565b606091505b5050905080611bdb576040517f08c379a0000000000000000000000000000000000000000000000000000000008152600401611bd290612327565b60405180910390fd5b60008054906101000a900473ffffffffffffffffffffffffffffffffffffffff1673ffffffffffffffffffffffffffffffffffffffff166323b872dd8430876040518463ffffffff1660e01b8152600401611c389392919061242b565b6020604051808303816000875af1158015611c57573d6000803e3d6000fd5b505050506040513d601f19601f82011682018060405250810190611c7b91906123a8565b611c8457600080fd5b7f4dbf3a71a7c7262f432c2cad7808225832255d07f7d8ab85117677c0b5c0a85082604051611cb3919061201d565b60405180910390a150505050565b600060013447611cd19190612250565b60008054906101000a900473ffffffffffffffffffffffffffffffffffffffff1673ffffffffffffffffffffffffffffffffffffffff166370a08231306040518263ffffffff1660e01b8152600401611d2a91906121f3565b602060405180830381865afa158015611d47573d6000803e3d6000fd5b505050506040513d601f19601f82011682018060405250810190611d6b9190612223565b34611d76919061212a565b611d8091906121b3565b611d8a91906123d5565b905060003447611d9a9190612250565b60015434611da8919061212a565b611db291906121b3565b905080600260008573ffffffffffffffffffffffffffffffffffffffff1673ffffffffffffffffffffffffffffffffffffffff1681526020019081526020016000206000828254611e0391906123d5565b925050819055508060016000828254611e1c91906123d5565b9250508190555060008054906101000a900473ffffffffffffffffffffffffffffffffffffffff1673ffffffffffffffffffffffffffffffffffffffff166323b872dd8430856040518463ffffffff1660e01b8152600401611e809392919061242b565b6020604051808303816000875af1158015611e9f573d6000803e3d6000fd5b505050506040513d601f19601f82011682018060405250810190611ec391906123a8565b611ecc57600080fd5b7f4d6ce1e535dbade1c23defba91e23b8f791ce5edc0cc320257a2b364e4e3842681604051611efb919061201d565b60405180910390a1505050565b60008383611f1691906123d5565b8285611f22919061212a565b611f2c91906121b3565b90509392505050565b600080fd5b6000819050919050565b611f4d81611f3a565b8114611f5857600080fd5b50565b600081359050611f6a81611f44565b92915050565b600073ffffffffffffffffffffffffffffffffffffffff82169050919050565b6000611f9b82611f70565b9050919050565b611fab81611f90565b8114611fb657600080fd5b50565b600081359050611fc881611fa2565b92915050565b60008060408385031215611fe557611fe4611f35565b5b6000611ff385828601611f5b565b925050602061200485828601611fb9565b9150509250929050565b61201781611f3a565b82525050565b6000602082019050612032600083018461200e565b92915050565b60006020828403121561204e5761204d611f35565b5b600061205c84828501611f5b565b91505092915050565b600060408201905061207a600083018561200e565b612087602083018461200e565b9392505050565b6000602082840312156120a4576120a3611f35565b5b60006120b284828501611fb9565b91505092915050565b600080604083850312156120d2576120d1611f35565b5b60006120e085828601611fb9565b92505060206120f185828601611f5b565b9150509250929050565b7f4e487b7100000000000000000000000000000000000000000000000000000000600052601160045260246000fd5b600061213582611f3a565b915061214083611f3a565b9250817fffffffffffffffffffffffffffffffffffffffffffffffffffffffffffffffff0483118215151615612179576121786120fb565b5b828202905092915050565b7f4e487b7100000000000000000000000000000000000000000000000000000000600052601260045260246000fd5b60006121be82611f3a565b91506121c983611f3a565b9250826121d9576121d8612184565b5b828204905092915050565b6121ed81611f90565b82525050565b600060208201905061220860008301846121e4565b92915050565b60008151905061221d81611f44565b92915050565b60006020828403121561223957612238611f35565b5b60006122478482850161220e565b91505092915050565b600061225b82611f3a565b915061226683611f3a565b925082821015612279576122786120fb565b5b828203905092915050565b600081905092915050565b50565b600061229f600083612284565b91506122aa8261228f565b600082019050919050565b60006122c082612292565b9150819050919050565b600082825260208201905092915050565b7f5472616e73666572206661696c65642e00000000000000000000000000000000600082015250565b60006123116010836122ca565b915061231c826122db565b602082019050919050565b6000602082019050818103600083015261234081612304565b9050919050565b600060408201905061235c60008301856121e4565b612369602083018461200e565b9392505050565b60008115159050919050565b61238581612370565b811461239057600080fd5b50565b6000815190506123a28161237c565b92915050565b6000602082840312156123be576123bd611f35565b5b60006123cc84828501612393565b91505092915050565b60006123e082611f3a565b91506123eb83611f3a565b9250827fffffffffffffffffffffffffffffffffffffffffffffffffffffffffffffffff038211156124205761241f6120fb565b5b828201905092915050565b600060608201905061244060008301866121e4565b61244d60208301856121e4565b61245a604083018461200e565b94935050505056fea2646970667358221220b4ddc46574d81c6f87569a788be4996260133f543641d7c714bda5fead254b5264736f6c634300080f0033",
					"opcodes": "PUSH1 0x80 PUSH1 0x40 MSTORE CALLVALUE DUP1 ISZERO PUSH2 0x10 JUMPI PUSH1 0x0 DUP1 REVERT JUMPDEST POP PUSH2 0x2498 DUP1 PUSH2 0x20 PUSH1 0x0 CODECOPY PUSH1 0x0 RETURN INVALID PUSH1 0x80 PUSH1 0x40 MSTORE PUSH1 0x4 CALLDATASIZE LT PUSH2 0x113 JUMPI PUSH1 0x0 CALLDATALOAD PUSH1 0xE0 SHR DUP1 PUSH4 0x7937C03D GT PUSH2 0xA0 JUMPI DUP1 PUSH4 0xCD6DC687 GT PUSH2 0x64 JUMPI DUP1 PUSH4 0xCD6DC687 EQ PUSH2 0x3AB JUMPI DUP1 PUSH4 0xD0E30DB0 EQ PUSH2 0x3C7 JUMPI DUP1 PUSH4 0xDEBC674C EQ PUSH2 0x3D1 JUMPI DUP1 PUSH4 0xE2415984 EQ PUSH2 0x3FA JUMPI DUP1 PUSH4 0xF340FA01 EQ PUSH2 0x423 JUMPI PUSH2 0x113 JUMP JUMPDEST DUP1 PUSH4 0x7937C03D EQ PUSH2 0x2DF JUMPI DUP1 PUSH4 0x82B2E257 EQ PUSH2 0x2E9 JUMPI DUP1 PUSH4 0xA5B8B16F EQ PUSH2 0x314 JUMPI DUP1 PUSH4 0xA88EBF52 EQ PUSH2 0x330 JUMPI DUP1 PUSH4 0xB8C876B1 EQ PUSH2 0x36E JUMPI PUSH2 0x113 JUMP JUMPDEST DUP1 PUSH4 0x31F3BD28 GT PUSH2 0xE7 JUMPI DUP1 PUSH4 0x31F3BD28 EQ PUSH2 0x1D3 JUMPI DUP1 PUSH4 0x5F244D4E EQ PUSH2 0x1FE JUMPI DUP1 PUSH4 0x67DA263D EQ PUSH2 0x23C JUMPI DUP1 PUSH4 0x72A9D124 EQ PUSH2 0x279 JUMPI DUP1 PUSH4 0x732C3297 EQ PUSH2 0x2B6 JUMPI PUSH2 0x113 JUMP JUMPDEST DUP1 PUSH3 0xF714CE EQ PUSH2 0x118 JUMPI DUP1 PUSH4 0x12065FE0 EQ PUSH2 0x141 JUMPI DUP1 PUSH4 0x1EB928AA EQ PUSH2 0x16C JUMPI DUP1 PUSH4 0x2E1A7D4D EQ PUSH2 0x1AA JUMPI JUMPDEST PUSH1 0x0 DUP1 REVERT JUMPDEST CALLVALUE DUP1 ISZERO PUSH2 0x124 JUMPI PUSH1 0x0 DUP1 REVERT JUMPDEST POP PUSH2 0x13F PUSH1 0x4 DUP1 CALLDATASIZE SUB DUP2 ADD SWAP1 PUSH2 0x13A SWAP2 SWAP1 PUSH2 0x1FCE JUMP JUMPDEST PUSH2 0x43F JUMP JUMPDEST STOP JUMPDEST CALLVALUE DUP1 ISZERO PUSH2 0x14D JUMPI PUSH1 0x0 DUP1 REVERT JUMPDEST POP PUSH2 0x156 PUSH2 0x714 JUMP JUMPDEST PUSH1 0x40 MLOAD PUSH2 0x163 SWAP2 SWAP1 PUSH2 0x201D JUMP JUMPDEST PUSH1 0x40 MLOAD DUP1 SWAP2 SUB SWAP1 RETURN JUMPDEST CALLVALUE DUP1 ISZERO PUSH2 0x178 JUMPI PUSH1 0x0 DUP1 REVERT JUMPDEST POP PUSH2 0x193 PUSH1 0x4 DUP1 CALLDATASIZE SUB DUP2 ADD SWAP1 PUSH2 0x18E SWAP2 SWAP1 PUSH2 0x2038 JUMP JUMPDEST PUSH2 0x71C JUMP JUMPDEST PUSH1 0x40 MLOAD PUSH2 0x1A1 SWAP3 SWAP2 SWAP1 PUSH2 0x2065 JUMP JUMPDEST PUSH1 0x40 MLOAD DUP1 SWAP2 SUB SWAP1 RETURN JUMPDEST CALLVALUE DUP1 ISZERO PUSH2 0x1B6 JUMPI PUSH1 0x0 DUP1 REVERT JUMPDEST POP PUSH2 0x1D1 PUSH1 0x4 DUP1 CALLDATASIZE SUB DUP2 ADD SWAP1 PUSH2 0x1CC SWAP2 SWAP1 PUSH2 0x2038 JUMP JUMPDEST PUSH2 0x7FF JUMP JUMPDEST STOP JUMPDEST CALLVALUE DUP1 ISZERO PUSH2 0x1DF JUMPI PUSH1 0x0 DUP1 REVERT JUMPDEST POP PUSH2 0x1E8 PUSH2 0xAD3 JUMP JUMPDEST PUSH1 0x40 MLOAD PUSH2 0x1F5 SWAP2 SWAP1 PUSH2 0x201D JUMP JUMPDEST PUSH1 0x40 MLOAD DUP1 SWAP2 SUB SWAP1 RETURN JUMPDEST CALLVALUE DUP1 ISZERO PUSH2 0x20A JUMPI PUSH1 0x0 DUP1 REVERT JUMPDEST POP PUSH2 0x225 PUSH1 0x4 DUP1 CALLDATASIZE SUB DUP2 ADD SWAP1 PUSH2 0x220 SWAP2 SWAP1 PUSH2 0x2038 JUMP JUMPDEST PUSH2 0xAD9 JUMP JUMPDEST PUSH1 0x40 MLOAD PUSH2 0x233 SWAP3 SWAP2 SWAP1 PUSH2 0x2065 JUMP JUMPDEST PUSH1 0x40 MLOAD DUP1 SWAP2 SUB SWAP1 RETURN JUMPDEST CALLVALUE DUP1 ISZERO PUSH2 0x248 JUMPI PUSH1 0x0 DUP1 REVERT JUMPDEST POP PUSH2 0x263 PUSH1 0x4 DUP1 CALLDATASIZE SUB DUP2 ADD SWAP1 PUSH2 0x25E SWAP2 SWAP1 PUSH2 0x2038 JUMP JUMPDEST PUSH2 0xBC6 JUMP JUMPDEST PUSH1 0x40 MLOAD PUSH2 0x270 SWAP2 SWAP1 PUSH2 0x201D JUMP JUMPDEST PUSH1 0x40 MLOAD DUP1 SWAP2 SUB SWAP1 RETURN JUMPDEST CALLVALUE DUP1 ISZERO PUSH2 0x285 JUMPI PUSH1 0x0 DUP1 REVERT JUMPDEST POP PUSH2 0x2A0 PUSH1 0x4 DUP1 CALLDATASIZE SUB DUP2 ADD SWAP1 PUSH2 0x29B SWAP2 SWAP1 PUSH2 0x2038 JUMP JUMPDEST PUSH2 0xC73 JUMP JUMPDEST PUSH1 0x40 MLOAD PUSH2 0x2AD SWAP2 SWAP1 PUSH2 0x201D JUMP JUMPDEST PUSH1 0x40 MLOAD DUP1 SWAP2 SUB SWAP1 RETURN JUMPDEST CALLVALUE DUP1 ISZERO PUSH2 0x2C2 JUMPI PUSH1 0x0 DUP1 REVERT JUMPDEST POP PUSH2 0x2DD PUSH1 0x4 DUP1 CALLDATASIZE SUB DUP2 ADD SWAP1 PUSH2 0x2D8 SWAP2 SWAP1 PUSH2 0x1FCE JUMP JUMPDEST PUSH2 0xD2B JUMP JUMPDEST STOP JUMPDEST PUSH2 0x2E7 PUSH2 0xFE0 JUMP JUMPDEST STOP JUMPDEST CALLVALUE DUP1 ISZERO PUSH2 0x2F5 JUMPI PUSH1 0x0 DUP1 REVERT JUMPDEST POP PUSH2 0x2FE PUSH2 0x1174 JUMP JUMPDEST PUSH1 0x40 MLOAD PUSH2 0x30B SWAP2 SWAP1 PUSH2 0x201D JUMP JUMPDEST PUSH1 0x40 MLOAD DUP1 SWAP2 SUB SWAP1 RETURN JUMPDEST PUSH2 0x32E PUSH1 0x4 DUP1 CALLDATASIZE SUB DUP2 ADD SWAP1 PUSH2 0x329 SWAP2 SWAP1 PUSH2 0x208E JUMP JUMPDEST PUSH2 0x1216 JUMP JUMPDEST STOP JUMPDEST CALLVALUE DUP1 ISZERO PUSH2 0x33C JUMPI PUSH1 0x0 DUP1 REVERT JUMPDEST POP PUSH2 0x357 PUSH1 0x4 DUP1 CALLDATASIZE SUB DUP2 ADD SWAP1 PUSH2 0x352 SWAP2 SWAP1 PUSH2 0x2038 JUMP JUMPDEST PUSH2 0x13AB JUMP JUMPDEST PUSH1 0x40 MLOAD PUSH2 0x365 SWAP3 SWAP2 SWAP1 PUSH2 0x2065 JUMP JUMPDEST PUSH1 0x40 MLOAD DUP1 SWAP2 SUB SWAP1 RETURN JUMPDEST CALLVALUE DUP1 ISZERO PUSH2 0x37A JUMPI PUSH1 0x0 DUP1 REVERT JUMPDEST POP PUSH2 0x395 PUSH1 0x4 DUP1 CALLDATASIZE SUB DUP2 ADD SWAP1 PUSH2 0x390 SWAP2 SWAP1 PUSH2 0x208E JUMP JUMPDEST PUSH2 0x146E JUMP JUMPDEST PUSH1 0x40 MLOAD PUSH2 0x3A2 SWAP2 SWAP1 PUSH2 0x201D JUMP JUMPDEST PUSH1 0x40 MLOAD DUP1 SWAP2 SUB SWAP1 RETURN JUMPDEST PUSH2 0x3C5 PUSH1 0x4 DUP1 CALLDATASIZE SUB DUP2 ADD SWAP1 PUSH2 0x3C0 SWAP2 SWAP1 PUSH2 0x20BB JUMP JUMPDEST PUSH2 0x1486 JUMP JUMPDEST STOP JUMPDEST PUSH2 0x3CF PUSH2 0x1608 JUMP JUMPDEST STOP JUMPDEST CALLVALUE DUP1 ISZERO PUSH2 0x3DD JUMPI PUSH1 0x0 DUP1 REVERT JUMPDEST POP PUSH2 0x3F8 PUSH1 0x4 DUP1 CALLDATASIZE SUB DUP2 ADD SWAP1 PUSH2 0x3F3 SWAP2 SWAP1 PUSH2 0x2038 JUMP JUMPDEST PUSH2 0x184E JUMP JUMPDEST STOP JUMPDEST CALLVALUE DUP1 ISZERO PUSH2 0x406 JUMPI PUSH1 0x0 DUP1 REVERT JUMPDEST POP PUSH2 0x421 PUSH1 0x4 DUP1 CALLDATASIZE SUB DUP2 ADD SWAP1 PUSH2 0x41C SWAP2 SWAP1 PUSH2 0x1FCE JUMP JUMPDEST PUSH2 0x1A87 JUMP JUMPDEST STOP JUMPDEST PUSH2 0x43D PUSH1 0x4 DUP1 CALLDATASIZE SUB DUP2 ADD SWAP1 PUSH2 0x438 SWAP2 SWAP1 PUSH2 0x208E JUMP JUMPDEST PUSH2 0x1CC1 JUMP JUMPDEST STOP JUMPDEST PUSH1 0x0 PUSH1 0x1 SLOAD SELFBALANCE DUP5 PUSH2 0x450 SWAP2 SWAP1 PUSH2 0x212A JUMP JUMPDEST PUSH2 0x45A SWAP2 SWAP1 PUSH2 0x21B3 JUMP JUMPDEST SWAP1 POP PUSH1 0x0 PUSH1 0x1 SLOAD PUSH1 0x0 DUP1 SLOAD SWAP1 PUSH2 0x100 EXP SWAP1 DIV PUSH20 0xFFFFFFFFFFFFFFFFFFFFFFFFFFFFFFFFFFFFFFFF AND PUSH20 0xFFFFFFFFFFFFFFFFFFFFFFFFFFFFFFFFFFFFFFFF AND PUSH4 0x70A08231 ADDRESS PUSH1 0x40 MLOAD DUP3 PUSH4 0xFFFFFFFF AND PUSH1 0xE0 SHL DUP2 MSTORE PUSH1 0x4 ADD PUSH2 0x4BA SWAP2 SWAP1 PUSH2 0x21F3 JUMP JUMPDEST PUSH1 0x20 PUSH1 0x40 MLOAD DUP1 DUP4 SUB DUP2 DUP7 GAS STATICCALL ISZERO DUP1 ISZERO PUSH2 0x4D7 JUMPI RETURNDATASIZE PUSH1 0x0 DUP1 RETURNDATACOPY RETURNDATASIZE PUSH1 0x0 REVERT JUMPDEST POP POP POP POP PUSH1 0x40 MLOAD RETURNDATASIZE PUSH1 0x1F NOT PUSH1 0x1F DUP3 ADD AND DUP3 ADD DUP1 PUSH1 0x40 MSTORE POP DUP2 ADD SWAP1 PUSH2 0x4FB SWAP2 SWAP1 PUSH2 0x2223 JUMP JUMPDEST DUP6 PUSH2 0x506 SWAP2 SWAP1 PUSH2 0x212A JUMP JUMPDEST PUSH2 0x510 SWAP2 SWAP1 PUSH2 0x21B3 JUMP JUMPDEST SWAP1 POP DUP2 PUSH1 0x2 PUSH1 0x0 DUP6 PUSH20 0xFFFFFFFFFFFFFFFFFFFFFFFFFFFFFFFFFFFFFFFF AND PUSH20 0xFFFFFFFFFFFFFFFFFFFFFFFFFFFFFFFFFFFFFFFF AND DUP2 MSTORE PUSH1 0x20 ADD SWAP1 DUP2 MSTORE PUSH1 0x20 ADD PUSH1 0x0 KECCAK256 PUSH1 0x0 DUP3 DUP3 SLOAD PUSH2 0x561 SWAP2 SWAP1 PUSH2 0x2250 JUMP JUMPDEST SWAP3 POP POP DUP2 SWAP1 SSTORE POP DUP2 PUSH1 0x1 PUSH1 0x0 DUP3 DUP3 SLOAD PUSH2 0x57A SWAP2 SWAP1 PUSH2 0x2250 JUMP JUMPDEST SWAP3 POP POP DUP2 SWAP1 SSTORE POP PUSH1 0x0 DUP4 PUSH20 0xFFFFFFFFFFFFFFFFFFFFFFFFFFFFFFFFFFFFFFFF AND DUP4 PUSH1 0x40 MLOAD PUSH2 0x5A7 SWAP1 PUSH2 0x22B5 JUMP JUMPDEST PUSH1 0x0 PUSH1 0x40 MLOAD DUP1 DUP4 SUB DUP2 DUP6 DUP8 GAS CALL SWAP3 POP POP POP RETURNDATASIZE DUP1 PUSH1 0x0 DUP2 EQ PUSH2 0x5E4 JUMPI PUSH1 0x40 MLOAD SWAP2 POP PUSH1 0x1F NOT PUSH1 0x3F RETURNDATASIZE ADD AND DUP3 ADD PUSH1 0x40 MSTORE RETURNDATASIZE DUP3 MSTORE RETURNDATASIZE PUSH1 0x0 PUSH1 0x20 DUP5 ADD RETURNDATACOPY PUSH2 0x5E9 JUMP JUMPDEST PUSH1 0x60 SWAP2 POP JUMPDEST POP POP SWAP1 POP DUP1 PUSH2 0x62D JUMPI PUSH1 0x40 MLOAD PUSH32 0x8C379A000000000000000000000000000000000000000000000000000000000 DUP2 MSTORE PUSH1 0x4 ADD PUSH2 0x624 SWAP1 PUSH2 0x2327 JUMP JUMPDEST PUSH1 0x40 MLOAD DUP1 SWAP2 SUB SWAP1 REVERT JUMPDEST PUSH1 0x0 DUP1 SLOAD SWAP1 PUSH2 0x100 EXP SWAP1 DIV PUSH20 0xFFFFFFFFFFFFFFFFFFFFFFFFFFFFFFFFFFFFFFFF AND PUSH20 0xFFFFFFFFFFFFFFFFFFFFFFFFFFFFFFFFFFFFFFFF AND PUSH4 0xA9059CBB DUP6 DUP5 PUSH1 0x40 MLOAD DUP4 PUSH4 0xFFFFFFFF AND PUSH1 0xE0 SHL DUP2 MSTORE PUSH1 0x4 ADD PUSH2 0x688 SWAP3 SWAP2 SWAP1 PUSH2 0x2347 JUMP JUMPDEST PUSH1 0x20 PUSH1 0x40 MLOAD DUP1 DUP4 SUB DUP2 PUSH1 0x0 DUP8 GAS CALL ISZERO DUP1 ISZERO PUSH2 0x6A7 JUMPI RETURNDATASIZE PUSH1 0x0 DUP1 RETURNDATACOPY RETURNDATASIZE PUSH1 0x0 REVERT JUMPDEST POP POP POP POP PUSH1 0x40 MLOAD RETURNDATASIZE PUSH1 0x1F NOT PUSH1 0x1F DUP3 ADD AND DUP3 ADD DUP1 PUSH1 0x40 MSTORE POP DUP2 ADD SWAP1 PUSH2 0x6CB SWAP2 SWAP1 PUSH2 0x23A8 JUMP JUMPDEST PUSH2 0x6D4 JUMPI PUSH1 0x0 DUP1 REVERT JUMPDEST PUSH32 0x56CA301A9219608C91E7BCEE90E083C19671D2CDCC96752C7AF291CEE5F9C8C8 DUP4 DUP4 PUSH1 0x40 MLOAD PUSH2 0x705 SWAP3 SWAP2 SWAP1 PUSH2 0x2065 JUMP JUMPDEST PUSH1 0x40 MLOAD DUP1 SWAP2 SUB SWAP1 LOG1 POP POP POP POP POP JUMP JUMPDEST PUSH1 0x0 SELFBALANCE SWAP1 POP SWAP1 JUMP JUMPDEST PUSH1 0x0 DUP1 PUSH1 0x0 PUSH1 0x1 SLOAD SELFBALANCE DUP6 PUSH2 0x730 SWAP2 SWAP1 PUSH2 0x212A JUMP JUMPDEST PUSH2 0x73A SWAP2 SWAP1 PUSH2 0x21B3 JUMP JUMPDEST SWAP1 POP PUSH1 0x0 PUSH1 0x1 SLOAD PUSH1 0x0 DUP1 SLOAD SWAP1 PUSH2 0x100 EXP SWAP1 DIV PUSH20 0xFFFFFFFFFFFFFFFFFFFFFFFFFFFFFFFFFFFFFFFF AND PUSH20 0xFFFFFFFFFFFFFFFFFFFFFFFFFFFFFFFFFFFFFFFF AND PUSH4 0x70A08231 ADDRESS PUSH1 0x40 MLOAD DUP3 PUSH4 0xFFFFFFFF AND PUSH1 0xE0 SHL DUP2 MSTORE PUSH1 0x4 ADD PUSH2 0x79A SWAP2 SWAP1 PUSH2 0x21F3 JUMP JUMPDEST PUSH1 0x20 PUSH1 0x40 MLOAD DUP1 DUP4 SUB DUP2 DUP7 GAS STATICCALL ISZERO DUP1 ISZERO PUSH2 0x7B7 JUMPI RETURNDATASIZE PUSH1 0x0 DUP1 RETURNDATACOPY RETURNDATASIZE PUSH1 0x0 REVERT JUMPDEST POP POP POP POP PUSH1 0x40 MLOAD RETURNDATASIZE PUSH1 0x1F NOT PUSH1 0x1F DUP3 ADD AND DUP3 ADD DUP1 PUSH1 0x40 MSTORE POP DUP2 ADD SWAP1 PUSH2 0x7DB SWAP2 SWAP1 PUSH2 0x2223 JUMP JUMPDEST DUP7 PUSH2 0x7E6 SWAP2 SWAP1 PUSH2 0x212A JUMP JUMPDEST PUSH2 0x7F0 SWAP2 SWAP1 PUSH2 0x21B3 JUMP JUMPDEST SWAP1 POP DUP2 DUP2 SWAP4 POP SWAP4 POP POP POP SWAP2 POP SWAP2 JUMP JUMPDEST PUSH1 0x0 PUSH1 0x1 SLOAD SELFBALANCE DUP4 PUSH2 0x810 SWAP2 SWAP1 PUSH2 0x212A JUMP JUMPDEST PUSH2 0x81A SWAP2 SWAP1 PUSH2 0x21B3 JUMP JUMPDEST SWAP1 POP PUSH1 0x0 PUSH1 0x1 SLOAD PUSH1 0x0 DUP1 SLOAD SWAP1 PUSH2 0x100 EXP SWAP1 DIV PUSH20 0xFFFFFFFFFFFFFFFFFFFFFFFFFFFFFFFFFFFFFFFF AND PUSH20 0xFFFFFFFFFFFFFFFFFFFFFFFFFFFFFFFFFFFFFFFF AND PUSH4 0x70A08231 ADDRESS PUSH1 0x40 MLOAD DUP3 PUSH4 0xFFFFFFFF AND PUSH1 0xE0 SHL DUP2 MSTORE PUSH1 0x4 ADD PUSH2 0x87A SWAP2 SWAP1 PUSH2 0x21F3 JUMP JUMPDEST PUSH1 0x20 PUSH1 0x40 MLOAD DUP1 DUP4 SUB DUP2 DUP7 GAS STATICCALL ISZERO DUP1 ISZERO PUSH2 0x897 JUMPI RETURNDATASIZE PUSH1 0x0 DUP1 RETURNDATACOPY RETURNDATASIZE PUSH1 0x0 REVERT JUMPDEST POP POP POP POP PUSH1 0x40 MLOAD RETURNDATASIZE PUSH1 0x1F NOT PUSH1 0x1F DUP3 ADD AND DUP3 ADD DUP1 PUSH1 0x40 MSTORE POP DUP2 ADD SWAP1 PUSH2 0x8BB SWAP2 SWAP1 PUSH2 0x2223 JUMP JUMPDEST DUP5 PUSH2 0x8C6 SWAP2 SWAP1 PUSH2 0x212A JUMP JUMPDEST PUSH2 0x8D0 SWAP2 SWAP1 PUSH2 0x21B3 JUMP JUMPDEST SWAP1 POP DUP2 PUSH1 0x2 PUSH1 0x0 CALLER PUSH20 0xFFFFFFFFFFFFFFFFFFFFFFFFFFFFFFFFFFFFFFFF AND PUSH20 0xFFFFFFFFFFFFFFFFFFFFFFFFFFFFFFFFFFFFFFFF AND DUP2 MSTORE PUSH1 0x20 ADD SWAP1 DUP2 MSTORE PUSH1 0x20 ADD PUSH1 0x0 KECCAK256 PUSH1 0x0 DUP3 DUP3 SLOAD PUSH2 0x921 SWAP2 SWAP1 PUSH2 0x2250 JUMP JUMPDEST SWAP3 POP POP DUP2 SWAP1 SSTORE POP DUP2 PUSH1 0x1 PUSH1 0x0 DUP3 DUP3 SLOAD PUSH2 0x93A SWAP2 SWAP1 PUSH2 0x2250 JUMP JUMPDEST SWAP3 POP POP DUP2 SWAP1 SSTORE POP PUSH1 0x0 CALLER PUSH20 0xFFFFFFFFFFFFFFFFFFFFFFFFFFFFFFFFFFFFFFFF AND DUP4 PUSH1 0x40 MLOAD PUSH2 0x967 SWAP1 PUSH2 0x22B5 JUMP JUMPDEST PUSH1 0x0 PUSH1 0x40 MLOAD DUP1 DUP4 SUB DUP2 DUP6 DUP8 GAS CALL SWAP3 POP POP POP RETURNDATASIZE DUP1 PUSH1 0x0 DUP2 EQ PUSH2 0x9A4 JUMPI PUSH1 0x40 MLOAD SWAP2 POP PUSH1 0x1F NOT PUSH1 0x3F RETURNDATASIZE ADD AND DUP3 ADD PUSH1 0x40 MSTORE RETURNDATASIZE DUP3 MSTORE RETURNDATASIZE PUSH1 0x0 PUSH1 0x20 DUP5 ADD RETURNDATACOPY PUSH2 0x9A9 JUMP JUMPDEST PUSH1 0x60 SWAP2 POP JUMPDEST POP POP SWAP1 POP DUP1 PUSH2 0x9ED JUMPI PUSH1 0x40 MLOAD PUSH32 0x8C379A000000000000000000000000000000000000000000000000000000000 DUP2 MSTORE PUSH1 0x4 ADD PUSH2 0x9E4 SWAP1 PUSH2 0x2327 JUMP JUMPDEST PUSH1 0x40 MLOAD DUP1 SWAP2 SUB SWAP1 REVERT JUMPDEST PUSH1 0x0 DUP1 SLOAD SWAP1 PUSH2 0x100 EXP SWAP1 DIV PUSH20 0xFFFFFFFFFFFFFFFFFFFFFFFFFFFFFFFFFFFFFFFF AND PUSH20 0xFFFFFFFFFFFFFFFFFFFFFFFFFFFFFFFFFFFFFFFF AND PUSH4 0xA9059CBB CALLER DUP5 PUSH1 0x40 MLOAD DUP4 PUSH4 0xFFFFFFFF AND PUSH1 0xE0 SHL DUP2 MSTORE PUSH1 0x4 ADD PUSH2 0xA48 SWAP3 SWAP2 SWAP1 PUSH2 0x2347 JUMP JUMPDEST PUSH1 0x20 PUSH1 0x40 MLOAD DUP1 DUP4 SUB DUP2 PUSH1 0x0 DUP8 GAS CALL ISZERO DUP1 ISZERO PUSH2 0xA67 JUMPI RETURNDATASIZE PUSH1 0x0 DUP1 RETURNDATACOPY RETURNDATASIZE PUSH1 0x0 REVERT JUMPDEST POP POP POP POP PUSH1 0x40 MLOAD RETURNDATASIZE PUSH1 0x1F NOT PUSH1 0x1F DUP3 ADD AND DUP3 ADD DUP1 PUSH1 0x40 MSTORE POP DUP2 ADD SWAP1 PUSH2 0xA8B SWAP2 SWAP1 PUSH2 0x23A8 JUMP JUMPDEST PUSH2 0xA94 JUMPI PUSH1 0x0 DUP1 REVERT JUMPDEST PUSH32 0x56CA301A9219608C91E7BCEE90E083C19671D2CDCC96752C7AF291CEE5F9C8C8 DUP4 DUP4 PUSH1 0x40 MLOAD PUSH2 0xAC5 SWAP3 SWAP2 SWAP1 PUSH2 0x2065 JUMP JUMPDEST PUSH1 0x40 MLOAD DUP1 SWAP2 SUB SWAP1 LOG1 POP POP POP POP JUMP JUMPDEST PUSH1 0x1 SLOAD DUP2 JUMP JUMPDEST PUSH1 0x0 DUP1 PUSH1 0x0 PUSH1 0x1 SELFBALANCE PUSH1 0x0 DUP1 SLOAD SWAP1 PUSH2 0x100 EXP SWAP1 DIV PUSH20 0xFFFFFFFFFFFFFFFFFFFFFFFFFFFFFFFFFFFFFFFF AND PUSH20 0xFFFFFFFFFFFFFFFFFFFFFFFFFFFFFFFFFFFFFFFF AND PUSH4 0x70A08231 ADDRESS PUSH1 0x40 MLOAD DUP3 PUSH4 0xFFFFFFFF AND PUSH1 0xE0 SHL DUP2 MSTORE PUSH1 0x4 ADD PUSH2 0xB3A SWAP2 SWAP1 PUSH2 0x21F3 JUMP JUMPDEST PUSH1 0x20 PUSH1 0x40 MLOAD DUP1 DUP4 SUB DUP2 DUP7 GAS STATICCALL ISZERO DUP1 ISZERO PUSH2 0xB57 JUMPI RETURNDATASIZE PUSH1 0x0 DUP1 RETURNDATACOPY RETURNDATASIZE PUSH1 0x0 REVERT JUMPDEST POP POP POP POP PUSH1 0x40 MLOAD RETURNDATASIZE PUSH1 0x1F NOT PUSH1 0x1F DUP3 ADD AND DUP3 ADD DUP1 PUSH1 0x40 MSTORE POP DUP2 ADD SWAP1 PUSH2 0xB7B SWAP2 SWAP1 PUSH2 0x2223 JUMP JUMPDEST DUP7 PUSH2 0xB86 SWAP2 SWAP1 PUSH2 0x212A JUMP JUMPDEST PUSH2 0xB90 SWAP2 SWAP1 PUSH2 0x21B3 JUMP JUMPDEST PUSH2 0xB9A SWAP2 SWAP1 PUSH2 0x23D5 JUMP JUMPDEST SWAP1 POP PUSH1 0x0 SELFBALANCE PUSH1 0x1 SLOAD DUP7 PUSH2 0xBAD SWAP2 SWAP1 PUSH2 0x212A JUMP JUMPDEST PUSH2 0xBB7 SWAP2 SWAP1 PUSH2 0x21B3 JUMP JUMPDEST SWAP1 POP DUP2 DUP2 SWAP4 POP SWAP4 POP POP POP SWAP2 POP SWAP2 JUMP JUMPDEST PUSH1 0x0 PUSH2 0xC6C DUP3 PUSH1 0x0 DUP1 SLOAD SWAP1 PUSH2 0x100 EXP SWAP1 DIV PUSH20 0xFFFFFFFFFFFFFFFFFFFFFFFFFFFFFFFFFFFFFFFF AND PUSH20 0xFFFFFFFFFFFFFFFFFFFFFFFFFFFFFFFFFFFFFFFF AND PUSH4 0x70A08231 ADDRESS PUSH1 0x40 MLOAD DUP3 PUSH4 0xFFFFFFFF AND PUSH1 0xE0 SHL DUP2 MSTORE PUSH1 0x4 ADD PUSH2 0xC25 SWAP2 SWAP1 PUSH2 0x21F3 JUMP JUMPDEST PUSH1 0x20 PUSH1 0x40 MLOAD DUP1 DUP4 SUB DUP2 DUP7 GAS STATICCALL ISZERO DUP1 ISZERO PUSH2 0xC42 JUMPI RETURNDATASIZE PUSH1 0x0 DUP1 RETURNDATACOPY RETURNDATASIZE PUSH1 0x0 REVERT JUMPDEST POP POP POP POP PUSH1 0x40 MLOAD RETURNDATASIZE PUSH1 0x1F NOT PUSH1 0x1F DUP3 ADD AND DUP3 ADD DUP1 PUSH1 0x40 MSTORE POP DUP2 ADD SWAP1 PUSH2 0xC66 SWAP2 SWAP1 PUSH2 0x2223 JUMP JUMPDEST SELFBALANCE PUSH2 0x1F08 JUMP JUMPDEST SWAP1 POP SWAP2 SWAP1 POP JUMP JUMPDEST PUSH1 0x0 PUSH2 0xD24 DUP3 DUP4 SELFBALANCE PUSH2 0xC85 SWAP2 SWAP1 PUSH2 0x2250 JUMP JUMPDEST PUSH1 0x0 DUP1 SLOAD SWAP1 PUSH2 0x100 EXP SWAP1 DIV PUSH20 0xFFFFFFFFFFFFFFFFFFFFFFFFFFFFFFFFFFFFFFFF AND PUSH20 0xFFFFFFFFFFFFFFFFFFFFFFFFFFFFFFFFFFFFFFFF AND PUSH4 0x70A08231 ADDRESS PUSH1 0x40 MLOAD DUP3 PUSH4 0xFFFFFFFF AND PUSH1 0xE0 SHL DUP2 MSTORE PUSH1 0x4 ADD PUSH2 0xCDE SWAP2 SWAP1 PUSH2 0x21F3 JUMP JUMPDEST PUSH1 0x20 PUSH1 0x40 MLOAD DUP1 DUP4 SUB DUP2 DUP7 GAS STATICCALL ISZERO DUP1 ISZERO PUSH2 0xCFB JUMPI RETURNDATASIZE PUSH1 0x0 DUP1 RETURNDATACOPY RETURNDATASIZE PUSH1 0x0 REVERT JUMPDEST POP POP POP POP PUSH1 0x40 MLOAD RETURNDATASIZE PUSH1 0x1F NOT PUSH1 0x1F DUP3 ADD AND DUP3 ADD DUP1 PUSH1 0x40 MSTORE POP DUP2 ADD SWAP1 PUSH2 0xD1F SWAP2 SWAP1 PUSH2 0x2223 JUMP JUMPDEST PUSH2 0x1F08 JUMP JUMPDEST SWAP1 POP SWAP2 SWAP1 POP JUMP JUMPDEST PUSH1 0x0 SELFBALANCE PUSH1 0x0 DUP1 SLOAD SWAP1 PUSH2 0x100 EXP SWAP1 DIV PUSH20 0xFFFFFFFFFFFFFFFFFFFFFFFFFFFFFFFFFFFFFFFF AND PUSH20 0xFFFFFFFFFFFFFFFFFFFFFFFFFFFFFFFFFFFFFFFF AND PUSH4 0x70A08231 ADDRESS PUSH1 0x40 MLOAD DUP3 PUSH4 0xFFFFFFFF AND PUSH1 0xE0 SHL DUP2 MSTORE PUSH1 0x4 ADD PUSH2 0xD87 SWAP2 SWAP1 PUSH2 0x21F3 JUMP JUMPDEST PUSH1 0x20 PUSH1 0x40 MLOAD DUP1 DUP4 SUB DUP2 DUP7 GAS STATICCALL ISZERO DUP1 ISZERO PUSH2 0xDA4 JUMPI RETURNDATASIZE PUSH1 0x0 DUP1 RETURNDATACOPY RETURNDATASIZE PUSH1 0x0 REVERT JUMPDEST POP POP POP POP PUSH1 0x40 MLOAD RETURNDATASIZE PUSH1 0x1F NOT PUSH1 0x1F DUP3 ADD AND DUP3 ADD DUP1 PUSH1 0x40 MSTORE POP DUP2 ADD SWAP1 PUSH2 0xDC8 SWAP2 SWAP1 PUSH2 0x2223 JUMP JUMPDEST DUP5 PUSH2 0xDD3 SWAP2 SWAP1 PUSH2 0x212A JUMP JUMPDEST PUSH2 0xDDD SWAP2 SWAP1 PUSH2 0x21B3 JUMP JUMPDEST SWAP1 POP DUP3 PUSH1 0x2 PUSH1 0x0 DUP5 PUSH20 0xFFFFFFFFFFFFFFFFFFFFFFFFFFFFFFFFFFFFFFFF AND PUSH20 0xFFFFFFFFFFFFFFFFFFFFFFFFFFFFFFFFFFFFFFFF AND DUP2 MSTORE PUSH1 0x20 ADD SWAP1 DUP2 MSTORE PUSH1 0x20 ADD PUSH1 0x0 KECCAK256 PUSH1 0x0 DUP3 DUP3 SLOAD PUSH2 0xE2E SWAP2 SWAP1 PUSH2 0x2250 JUMP JUMPDEST SWAP3 POP POP DUP2 SWAP1 SSTORE POP DUP3 PUSH1 0x1 PUSH1 0x0 DUP3 DUP3 SLOAD PUSH2 0xE47 SWAP2 SWAP1 PUSH2 0x2250 JUMP JUMPDEST SWAP3 POP POP DUP2 SWAP1 SSTORE POP PUSH1 0x0 DUP3 PUSH20 0xFFFFFFFFFFFFFFFFFFFFFFFFFFFFFFFFFFFFFFFF AND DUP5 PUSH1 0x40 MLOAD PUSH2 0xE74 SWAP1 PUSH2 0x22B5 JUMP JUMPDEST PUSH1 0x0 PUSH1 0x40 MLOAD DUP1 DUP4 SUB DUP2 DUP6 DUP8 GAS CALL SWAP3 POP POP POP RETURNDATASIZE DUP1 PUSH1 0x0 DUP2 EQ PUSH2 0xEB1 JUMPI PUSH1 0x40 MLOAD SWAP2 POP PUSH1 0x1F NOT PUSH1 0x3F RETURNDATASIZE ADD AND DUP3 ADD PUSH1 0x40 MSTORE RETURNDATASIZE DUP3 MSTORE RETURNDATASIZE PUSH1 0x0 PUSH1 0x20 DUP5 ADD RETURNDATACOPY PUSH2 0xEB6 JUMP JUMPDEST PUSH1 0x60 SWAP2 POP JUMPDEST POP POP SWAP1 POP DUP1 PUSH2 0xEFA JUMPI PUSH1 0x40 MLOAD PUSH32 0x8C379A000000000000000000000000000000000000000000000000000000000 DUP2 MSTORE PUSH1 0x4 ADD PUSH2 0xEF1 SWAP1 PUSH2 0x2327 JUMP JUMPDEST PUSH1 0x40 MLOAD DUP1 SWAP2 SUB SWAP1 REVERT JUMPDEST PUSH1 0x0 DUP1 SLOAD SWAP1 PUSH2 0x100 EXP SWAP1 DIV PUSH20 0xFFFFFFFFFFFFFFFFFFFFFFFFFFFFFFFFFFFFFFFF AND PUSH20 0xFFFFFFFFFFFFFFFFFFFFFFFFFFFFFFFFFFFFFFFF AND PUSH4 0xA9059CBB DUP5 DUP5 PUSH1 0x40 MLOAD DUP4 PUSH4 0xFFFFFFFF AND PUSH1 0xE0 SHL DUP2 MSTORE PUSH1 0x4 ADD PUSH2 0xF55 SWAP3 SWAP2 SWAP1 PUSH2 0x2347 JUMP JUMPDEST PUSH1 0x20 PUSH1 0x40 MLOAD DUP1 DUP4 SUB DUP2 PUSH1 0x0 DUP8 GAS CALL ISZERO DUP1 ISZERO PUSH2 0xF74 JUMPI RETURNDATASIZE PUSH1 0x0 DUP1 RETURNDATACOPY RETURNDATASIZE PUSH1 0x0 REVERT JUMPDEST POP POP POP POP PUSH1 0x40 MLOAD RETURNDATASIZE PUSH1 0x1F NOT PUSH1 0x1F DUP3 ADD AND DUP3 ADD DUP1 PUSH1 0x40 MSTORE POP DUP2 ADD SWAP1 PUSH2 0xF98 SWAP2 SWAP1 PUSH2 0x23A8 JUMP JUMPDEST PUSH2 0xFA1 JUMPI PUSH1 0x0 DUP1 REVERT JUMPDEST PUSH32 0x56CA301A9219608C91E7BCEE90E083C19671D2CDCC96752C7AF291CEE5F9C8C8 DUP5 DUP4 PUSH1 0x40 MLOAD PUSH2 0xFD2 SWAP3 SWAP2 SWAP1 PUSH2 0x2065 JUMP JUMPDEST PUSH1 0x40 MLOAD DUP1 SWAP2 SUB SWAP1 LOG1 POP POP POP POP JUMP JUMPDEST PUSH1 0x0 PUSH2 0x1091 CALLVALUE CALLVALUE SELFBALANCE PUSH2 0xFF2 SWAP2 SWAP1 PUSH2 0x2250 JUMP JUMPDEST PUSH1 0x0 DUP1 SLOAD SWAP1 PUSH2 0x100 EXP SWAP1 DIV PUSH20 0xFFFFFFFFFFFFFFFFFFFFFFFFFFFFFFFFFFFFFFFF AND PUSH20 0xFFFFFFFFFFFFFFFFFFFFFFFFFFFFFFFFFFFFFFFF AND PUSH4 0x70A08231 ADDRESS PUSH1 0x40 MLOAD DUP3 PUSH4 0xFFFFFFFF AND PUSH1 0xE0 SHL DUP2 MSTORE PUSH1 0x4 ADD PUSH2 0x104B SWAP2 SWAP1 PUSH2 0x21F3 JUMP JUMPDEST PUSH1 0x20 PUSH1 0x40 MLOAD DUP1 DUP4 SUB DUP2 DUP7 GAS STATICCALL ISZERO DUP1 ISZERO PUSH2 0x1068 JUMPI RETURNDATASIZE PUSH1 0x0 DUP1 RETURNDATACOPY RETURNDATASIZE PUSH1 0x0 REVERT JUMPDEST POP POP POP POP PUSH1 0x40 MLOAD RETURNDATASIZE PUSH1 0x1F NOT PUSH1 0x1F DUP3 ADD AND DUP3 ADD DUP1 PUSH1 0x40 MSTORE POP DUP2 ADD SWAP1 PUSH2 0x108C SWAP2 SWAP1 PUSH2 0x2223 JUMP JUMPDEST PUSH2 0x1F08 JUMP JUMPDEST SWAP1 POP PUSH1 0x0 DUP1 SLOAD SWAP1 PUSH2 0x100 EXP SWAP1 DIV PUSH20 0xFFFFFFFFFFFFFFFFFFFFFFFFFFFFFFFFFFFFFFFF AND PUSH20 0xFFFFFFFFFFFFFFFFFFFFFFFFFFFFFFFFFFFFFFFF AND PUSH4 0xA9059CBB CALLER DUP4 PUSH1 0x40 MLOAD DUP4 PUSH4 0xFFFFFFFF AND PUSH1 0xE0 SHL DUP2 MSTORE PUSH1 0x4 ADD PUSH2 0x10EE SWAP3 SWAP2 SWAP1 PUSH2 0x2347 JUMP JUMPDEST PUSH1 0x20 PUSH1 0x40 MLOAD DUP1 DUP4 SUB DUP2 PUSH1 0x0 DUP8 GAS CALL ISZERO DUP1 ISZERO PUSH2 0x110D JUMPI RETURNDATASIZE PUSH1 0x0 DUP1 RETURNDATACOPY RETURNDATASIZE PUSH1 0x0 REVERT JUMPDEST POP POP POP POP PUSH1 0x40 MLOAD RETURNDATASIZE PUSH1 0x1F NOT PUSH1 0x1F DUP3 ADD AND DUP3 ADD DUP1 PUSH1 0x40 MSTORE POP DUP2 ADD SWAP1 PUSH2 0x1131 SWAP2 SWAP1 PUSH2 0x23A8 JUMP JUMPDEST PUSH2 0x113A JUMPI PUSH1 0x0 DUP1 REVERT JUMPDEST PUSH32 0xDB04C7A6D4758FD55D738EBC67E7F3010AC922BE00771EF29521A4090D1EB13F DUP2 PUSH1 0x40 MLOAD PUSH2 0x1169 SWAP2 SWAP1 PUSH2 0x201D JUMP JUMPDEST PUSH1 0x40 MLOAD DUP1 SWAP2 SUB SWAP1 LOG1 POP JUMP JUMPDEST PUSH1 0x0 DUP1 PUSH1 0x0 SWAP1 SLOAD SWAP1 PUSH2 0x100 EXP SWAP1 DIV PUSH20 0xFFFFFFFFFFFFFFFFFFFFFFFFFFFFFFFFFFFFFFFF AND PUSH20 0xFFFFFFFFFFFFFFFFFFFFFFFFFFFFFFFFFFFFFFFF AND PUSH4 0x70A08231 ADDRESS PUSH1 0x40 MLOAD DUP3 PUSH4 0xFFFFFFFF AND PUSH1 0xE0 SHL DUP2 MSTORE PUSH1 0x4 ADD PUSH2 0x11D0 SWAP2 SWAP1 PUSH2 0x21F3 JUMP JUMPDEST PUSH1 0x20 PUSH1 0x40 MLOAD DUP1 DUP4 SUB DUP2 DUP7 GAS STATICCALL ISZERO DUP1 ISZERO PUSH2 0x11ED JUMPI RETURNDATASIZE PUSH1 0x0 DUP1 RETURNDATACOPY RETURNDATASIZE PUSH1 0x0 REVERT JUMPDEST POP POP POP POP PUSH1 0x40 MLOAD RETURNDATASIZE PUSH1 0x1F NOT PUSH1 0x1F DUP3 ADD AND DUP3 ADD DUP1 PUSH1 0x40 MSTORE POP DUP2 ADD SWAP1 PUSH2 0x1211 SWAP2 SWAP1 PUSH2 0x2223 JUMP JUMPDEST SWAP1 POP SWAP1 JUMP JUMPDEST PUSH1 0x0 PUSH2 0x12C7 CALLVALUE CALLVALUE SELFBALANCE PUSH2 0x1228 SWAP2 SWAP1 PUSH2 0x2250 JUMP JUMPDEST PUSH1 0x0 DUP1 SLOAD SWAP1 PUSH2 0x100 EXP SWAP1 DIV PUSH20 0xFFFFFFFFFFFFFFFFFFFFFFFFFFFFFFFFFFFFFFFF AND PUSH20 0xFFFFFFFFFFFFFFFFFFFFFFFFFFFFFFFFFFFFFFFF AND PUSH4 0x70A08231 ADDRESS PUSH1 0x40 MLOAD DUP3 PUSH4 0xFFFFFFFF AND PUSH1 0xE0 SHL DUP2 MSTORE PUSH1 0x4 ADD PUSH2 0x1281 SWAP2 SWAP1 PUSH2 0x21F3 JUMP JUMPDEST PUSH1 0x20 PUSH1 0x40 MLOAD DUP1 DUP4 SUB DUP2 DUP7 GAS STATICCALL ISZERO DUP1 ISZERO PUSH2 0x129E JUMPI RETURNDATASIZE PUSH1 0x0 DUP1 RETURNDATACOPY RETURNDATASIZE PUSH1 0x0 REVERT JUMPDEST POP POP POP POP PUSH1 0x40 MLOAD RETURNDATASIZE PUSH1 0x1F NOT PUSH1 0x1F DUP3 ADD AND DUP3 ADD DUP1 PUSH1 0x40 MSTORE POP DUP2 ADD SWAP1 PUSH2 0x12C2 SWAP2 SWAP1 PUSH2 0x2223 JUMP JUMPDEST PUSH2 0x1F08 JUMP JUMPDEST SWAP1 POP PUSH1 0x0 DUP1 SLOAD SWAP1 PUSH2 0x100 EXP SWAP1 DIV PUSH20 0xFFFFFFFFFFFFFFFFFFFFFFFFFFFFFFFFFFFFFFFF AND PUSH20 0xFFFFFFFFFFFFFFFFFFFFFFFFFFFFFFFFFFFFFFFF AND PUSH4 0xA9059CBB DUP4 DUP4 PUSH1 0x40 MLOAD DUP4 PUSH4 0xFFFFFFFF AND PUSH1 0xE0 SHL DUP2 MSTORE PUSH1 0x4 ADD PUSH2 0x1324 SWAP3 SWAP2 SWAP1 PUSH2 0x2347 JUMP JUMPDEST PUSH1 0x20 PUSH1 0x40 MLOAD DUP1 DUP4 SUB DUP2 PUSH1 0x0 DUP8 GAS CALL ISZERO DUP1 ISZERO PUSH2 0x1343 JUMPI RETURNDATASIZE PUSH1 0x0 DUP1 RETURNDATACOPY RETURNDATASIZE PUSH1 0x0 REVERT JUMPDEST POP POP POP POP PUSH1 0x40 MLOAD RETURNDATASIZE PUSH1 0x1F NOT PUSH1 0x1F DUP3 ADD AND DUP3 ADD DUP1 PUSH1 0x40 MSTORE POP DUP2 ADD SWAP1 PUSH2 0x1367 SWAP2 SWAP1 PUSH2 0x23A8 JUMP JUMPDEST PUSH2 0x1370 JUMPI PUSH1 0x0 DUP1 REVERT JUMPDEST PUSH32 0xDB04C7A6D4758FD55D738EBC67E7F3010AC922BE00771EF29521A4090D1EB13F DUP2 PUSH1 0x40 MLOAD PUSH2 0x139F SWAP2 SWAP1 PUSH2 0x201D JUMP JUMPDEST PUSH1 0x40 MLOAD DUP1 SWAP2 SUB SWAP1 LOG1 POP POP JUMP JUMPDEST PUSH1 0x0 DUP1 PUSH1 0x0 SELFBALANCE PUSH1 0x0 DUP1 SLOAD SWAP1 PUSH2 0x100 EXP SWAP1 DIV PUSH20 0xFFFFFFFFFFFFFFFFFFFFFFFFFFFFFFFFFFFFFFFF AND PUSH20 0xFFFFFFFFFFFFFFFFFFFFFFFFFFFFFFFFFFFFFFFF AND PUSH4 0x70A08231 ADDRESS PUSH1 0x40 MLOAD DUP3 PUSH4 0xFFFFFFFF AND PUSH1 0xE0 SHL DUP2 MSTORE PUSH1 0x4 ADD PUSH2 0x140A SWAP2 SWAP1 PUSH2 0x21F3 JUMP JUMPDEST PUSH1 0x20 PUSH1 0x40 MLOAD DUP1 DUP4 SUB DUP2 DUP7 GAS STATICCALL ISZERO DUP1 ISZERO PUSH2 0x1427 JUMPI RETURNDATASIZE PUSH1 0x0 DUP1 RETURNDATACOPY RETURNDATASIZE PUSH1 0x0 REVERT JUMPDEST POP POP POP POP PUSH1 0x40 MLOAD RETURNDATASIZE PUSH1 0x1F NOT PUSH1 0x1F DUP3 ADD AND DUP3 ADD DUP1 PUSH1 0x40 MSTORE POP DUP2 ADD SWAP1 PUSH2 0x144B SWAP2 SWAP1 PUSH2 0x2223 JUMP JUMPDEST DUP6 PUSH2 0x1456 SWAP2 SWAP1 PUSH2 0x212A JUMP JUMPDEST PUSH2 0x1460 SWAP2 SWAP1 PUSH2 0x21B3 JUMP JUMPDEST SWAP1 POP DUP4 DUP2 SWAP3 POP SWAP3 POP POP SWAP2 POP SWAP2 JUMP JUMPDEST PUSH1 0x2 PUSH1 0x20 MSTORE DUP1 PUSH1 0x0 MSTORE PUSH1 0x40 PUSH1 0x0 KECCAK256 PUSH1 0x0 SWAP2 POP SWAP1 POP SLOAD DUP2 JUMP JUMPDEST PUSH1 0x0 PUSH1 0x1 SLOAD EQ PUSH2 0x1495 JUMPI PUSH1 0x0 DUP1 REVERT JUMPDEST DUP2 PUSH1 0x0 DUP1 PUSH2 0x100 EXP DUP2 SLOAD DUP2 PUSH20 0xFFFFFFFFFFFFFFFFFFFFFFFFFFFFFFFFFFFFFFFF MUL NOT AND SWAP1 DUP4 PUSH20 0xFFFFFFFFFFFFFFFFFFFFFFFFFFFFFFFFFFFFFFFF AND MUL OR SWAP1 SSTORE POP SELFBALANCE PUSH1 0x1 DUP2 SWAP1 SSTORE POP PUSH1 0x1 SLOAD PUSH1 0x2 PUSH1 0x0 CALLER PUSH20 0xFFFFFFFFFFFFFFFFFFFFFFFFFFFFFFFFFFFFFFFF AND PUSH20 0xFFFFFFFFFFFFFFFFFFFFFFFFFFFFFFFFFFFFFFFF AND DUP2 MSTORE PUSH1 0x20 ADD SWAP1 DUP2 MSTORE PUSH1 0x20 ADD PUSH1 0x0 KECCAK256 DUP2 SWAP1 SSTORE POP PUSH1 0x0 DUP1 SLOAD SWAP1 PUSH2 0x100 EXP SWAP1 DIV PUSH20 0xFFFFFFFFFFFFFFFFFFFFFFFFFFFFFFFFFFFFFFFF AND PUSH20 0xFFFFFFFFFFFFFFFFFFFFFFFFFFFFFFFFFFFFFFFF AND PUSH4 0x23B872DD CALLER ADDRESS DUP5 PUSH1 0x40 MLOAD DUP5 PUSH4 0xFFFFFFFF AND PUSH1 0xE0 SHL DUP2 MSTORE PUSH1 0x4 ADD PUSH2 0x157F SWAP4 SWAP3 SWAP2 SWAP1 PUSH2 0x242B JUMP JUMPDEST PUSH1 0x20 PUSH1 0x40 MLOAD DUP1 DUP4 SUB DUP2 PUSH1 0x0 DUP8 GAS CALL ISZERO DUP1 ISZERO PUSH2 0x159E JUMPI RETURNDATASIZE PUSH1 0x0 DUP1 RETURNDATACOPY RETURNDATASIZE PUSH1 0x0 REVERT JUMPDEST POP POP POP POP PUSH1 0x40 MLOAD RETURNDATASIZE PUSH1 0x1F NOT PUSH1 0x1F DUP3 ADD AND DUP3 ADD DUP1 PUSH1 0x40 MSTORE POP DUP2 ADD SWAP1 PUSH2 0x15C2 SWAP2 SWAP1 PUSH2 0x23A8 JUMP JUMPDEST PUSH2 0x15CB JUMPI PUSH1 0x0 DUP1 REVERT JUMPDEST PUSH32 0xC43E48CF47E9FA186D0F4096C61D1FCB54159799F935A2AA32E5589688EE36E1 PUSH1 0x1 SLOAD PUSH1 0x40 MLOAD PUSH2 0x15FC SWAP2 SWAP1 PUSH2 0x201D JUMP JUMPDEST PUSH1 0x40 MLOAD DUP1 SWAP2 SUB SWAP1 LOG1 POP POP JUMP JUMPDEST PUSH1 0x0 PUSH1 0x1 CALLVALUE SELFBALANCE PUSH2 0x1618 SWAP2 SWAP1 PUSH2 0x2250 JUMP JUMPDEST PUSH1 0x0 DUP1 SLOAD SWAP1 PUSH2 0x100 EXP SWAP1 DIV PUSH20 0xFFFFFFFFFFFFFFFFFFFFFFFFFFFFFFFFFFFFFFFF AND PUSH20 0xFFFFFFFFFFFFFFFFFFFFFFFFFFFFFFFFFFFFFFFF AND PUSH4 0x70A08231 ADDRESS PUSH1 0x40 MLOAD DUP3 PUSH4 0xFFFFFFFF AND PUSH1 0xE0 SHL DUP2 MSTORE PUSH1 0x4 ADD PUSH2 0x1671 SWAP2 SWAP1 PUSH2 0x21F3 JUMP JUMPDEST PUSH1 0x20 PUSH1 0x40 MLOAD DUP1 DUP4 SUB DUP2 DUP7 GAS STATICCALL ISZERO DUP1 ISZERO PUSH2 0x168E JUMPI RETURNDATASIZE PUSH1 0x0 DUP1 RETURNDATACOPY RETURNDATASIZE PUSH1 0x0 REVERT JUMPDEST POP POP POP POP PUSH1 0x40 MLOAD RETURNDATASIZE PUSH1 0x1F NOT PUSH1 0x1F DUP3 ADD AND DUP3 ADD DUP1 PUSH1 0x40 MSTORE POP DUP2 ADD SWAP1 PUSH2 0x16B2 SWAP2 SWAP1 PUSH2 0x2223 JUMP JUMPDEST CALLVALUE PUSH2 0x16BD SWAP2 SWAP1 PUSH2 0x212A JUMP JUMPDEST PUSH2 0x16C7 SWAP2 SWAP1 PUSH2 0x21B3 JUMP JUMPDEST PUSH2 0x16D1 SWAP2 SWAP1 PUSH2 0x23D5 JUMP JUMPDEST SWAP1 POP PUSH1 0x0 CALLVALUE SELFBALANCE PUSH2 0x16E1 SWAP2 SWAP1 PUSH2 0x2250 JUMP JUMPDEST PUSH1 0x1 SLOAD CALLVALUE PUSH2 0x16EF SWAP2 SWAP1 PUSH2 0x212A JUMP JUMPDEST PUSH2 0x16F9 SWAP2 SWAP1 PUSH2 0x21B3 JUMP JUMPDEST SWAP1 POP DUP1 PUSH1 0x2 PUSH1 0x0 CALLER PUSH20 0xFFFFFFFFFFFFFFFFFFFFFFFFFFFFFFFFFFFFFFFF AND PUSH20 0xFFFFFFFFFFFFFFFFFFFFFFFFFFFFFFFFFFFFFFFF AND DUP2 MSTORE PUSH1 0x20 ADD SWAP1 DUP2 MSTORE PUSH1 0x20 ADD PUSH1 0x0 KECCAK256 PUSH1 0x0 DUP3 DUP3 SLOAD PUSH2 0x174A SWAP2 SWAP1 PUSH2 0x23D5 JUMP JUMPDEST SWAP3 POP POP DUP2 SWAP1 SSTORE POP DUP1 PUSH1 0x1 PUSH1 0x0 DUP3 DUP3 SLOAD PUSH2 0x1763 SWAP2 SWAP1 PUSH2 0x23D5 JUMP JUMPDEST SWAP3 POP POP DUP2 SWAP1 SSTORE POP PUSH1 0x0 DUP1 SLOAD SWAP1 PUSH2 0x100 EXP SWAP1 DIV PUSH20 0xFFFFFFFFFFFFFFFFFFFFFFFFFFFFFFFFFFFFFFFF AND PUSH20 0xFFFFFFFFFFFFFFFFFFFFFFFFFFFFFFFFFFFFFFFF AND PUSH4 0x23B872DD CALLER ADDRESS DUP6 PUSH1 0x40 MLOAD DUP5 PUSH4 0xFFFFFFFF AND PUSH1 0xE0 SHL DUP2 MSTORE PUSH1 0x4 ADD PUSH2 0x17C7 SWAP4 SWAP3 SWAP2 SWAP1 PUSH2 0x242B JUMP JUMPDEST PUSH1 0x20 PUSH1 0x40 MLOAD DUP1 DUP4 SUB DUP2 PUSH1 0x0 DUP8 GAS CALL ISZERO DUP1 ISZERO PUSH2 0x17E6 JUMPI RETURNDATASIZE PUSH1 0x0 DUP1 RETURNDATACOPY RETURNDATASIZE PUSH1 0x0 REVERT JUMPDEST POP POP POP POP PUSH1 0x40 MLOAD RETURNDATASIZE PUSH1 0x1F NOT PUSH1 0x1F DUP3 ADD AND DUP3 ADD DUP1 PUSH1 0x40 MSTORE POP DUP2 ADD SWAP1 PUSH2 0x180A SWAP2 SWAP1 PUSH2 0x23A8 JUMP JUMPDEST PUSH2 0x1813 JUMPI PUSH1 0x0 DUP1 REVERT JUMPDEST PUSH32 0x4D6CE1E535DBADE1C23DEFBA91E23B8F791CE5EDC0CC320257A2B364E4E38426 DUP2 PUSH1 0x40 MLOAD PUSH2 0x1842 SWAP2 SWAP1 PUSH2 0x201D JUMP JUMPDEST PUSH1 0x40 MLOAD DUP1 SWAP2 SUB SWAP1 LOG1 POP POP JUMP JUMPDEST PUSH1 0x0 PUSH2 0x18F4 DUP3 PUSH1 0x0 DUP1 SLOAD SWAP1 PUSH2 0x100 EXP SWAP1 DIV PUSH20 0xFFFFFFFFFFFFFFFFFFFFFFFFFFFFFFFFFFFFFFFF AND PUSH20 0xFFFFFFFFFFFFFFFFFFFFFFFFFFFFFFFFFFFFFFFF AND PUSH4 0x70A08231 ADDRESS PUSH1 0x40 MLOAD DUP3 PUSH4 0xFFFFFFFF AND PUSH1 0xE0 SHL DUP2 MSTORE PUSH1 0x4 ADD PUSH2 0x18AD SWAP2 SWAP1 PUSH2 0x21F3 JUMP JUMPDEST PUSH1 0x20 PUSH1 0x40 MLOAD DUP1 DUP4 SUB DUP2 DUP7 GAS STATICCALL ISZERO DUP1 ISZERO PUSH2 0x18CA JUMPI RETURNDATASIZE PUSH1 0x0 DUP1 RETURNDATACOPY RETURNDATASIZE PUSH1 0x0 REVERT JUMPDEST POP POP POP POP PUSH1 0x40 MLOAD RETURNDATASIZE PUSH1 0x1F NOT PUSH1 0x1F DUP3 ADD AND DUP3 ADD DUP1 PUSH1 0x40 MSTORE POP DUP2 ADD SWAP1 PUSH2 0x18EE SWAP2 SWAP1 PUSH2 0x2223 JUMP JUMPDEST SELFBALANCE PUSH2 0x1F08 JUMP JUMPDEST SWAP1 POP PUSH1 0x0 CALLER PUSH20 0xFFFFFFFFFFFFFFFFFFFFFFFFFFFFFFFFFFFFFFFF AND DUP3 PUSH1 0x40 MLOAD PUSH2 0x191C SWAP1 PUSH2 0x22B5 JUMP JUMPDEST PUSH1 0x0 PUSH1 0x40 MLOAD DUP1 DUP4 SUB DUP2 DUP6 DUP8 GAS CALL SWAP3 POP POP POP RETURNDATASIZE DUP1 PUSH1 0x0 DUP2 EQ PUSH2 0x1959 JUMPI PUSH1 0x40 MLOAD SWAP2 POP PUSH1 0x1F NOT PUSH1 0x3F RETURNDATASIZE ADD AND DUP3 ADD PUSH1 0x40 MSTORE RETURNDATASIZE DUP3 MSTORE RETURNDATASIZE PUSH1 0x0 PUSH1 0x20 DUP5 ADD RETURNDATACOPY PUSH2 0x195E JUMP JUMPDEST PUSH1 0x60 SWAP2 POP JUMPDEST POP POP SWAP1 POP DUP1 PUSH2 0x19A2 JUMPI PUSH1 0x40 MLOAD PUSH32 0x8C379A000000000000000000000000000000000000000000000000000000000 DUP2 MSTORE PUSH1 0x4 ADD PUSH2 0x1999 SWAP1 PUSH2 0x2327 JUMP JUMPDEST PUSH1 0x40 MLOAD DUP1 SWAP2 SUB SWAP1 REVERT JUMPDEST PUSH1 0x0 DUP1 SLOAD SWAP1 PUSH2 0x100 EXP SWAP1 DIV PUSH20 0xFFFFFFFFFFFFFFFFFFFFFFFFFFFFFFFFFFFFFFFF AND PUSH20 0xFFFFFFFFFFFFFFFFFFFFFFFFFFFFFFFFFFFFFFFF AND PUSH4 0x23B872DD CALLER ADDRESS DUP7 PUSH1 0x40 MLOAD DUP5 PUSH4 0xFFFFFFFF AND PUSH1 0xE0 SHL DUP2 MSTORE PUSH1 0x4 ADD PUSH2 0x19FF SWAP4 SWAP3 SWAP2 SWAP1 PUSH2 0x242B JUMP JUMPDEST PUSH1 0x20 PUSH1 0x40 MLOAD DUP1 DUP4 SUB DUP2 PUSH1 0x0 DUP8 GAS CALL ISZERO DUP1 ISZERO PUSH2 0x1A1E JUMPI RETURNDATASIZE PUSH1 0x0 DUP1 RETURNDATACOPY RETURNDATASIZE PUSH1 0x0 REVERT JUMPDEST POP POP POP POP PUSH1 0x40 MLOAD RETURNDATASIZE PUSH1 0x1F NOT PUSH1 0x1F DUP3 ADD AND DUP3 ADD DUP1 PUSH1 0x40 MSTORE POP DUP2 ADD SWAP1 PUSH2 0x1A42 SWAP2 SWAP1 PUSH2 0x23A8 JUMP JUMPDEST PUSH2 0x1A4B JUMPI PUSH1 0x0 DUP1 REVERT JUMPDEST PUSH32 0x4DBF3A71A7C7262F432C2CAD7808225832255D07F7D8AB85117677C0B5C0A850 DUP3 PUSH1 0x40 MLOAD PUSH2 0x1A7A SWAP2 SWAP1 PUSH2 0x201D JUMP JUMPDEST PUSH1 0x40 MLOAD DUP1 SWAP2 SUB SWAP1 LOG1 POP POP POP JUMP JUMPDEST PUSH1 0x0 PUSH2 0x1B2D DUP4 PUSH1 0x0 DUP1 SLOAD SWAP1 PUSH2 0x100 EXP SWAP1 DIV PUSH20 0xFFFFFFFFFFFFFFFFFFFFFFFFFFFFFFFFFFFFFFFF AND PUSH20 0xFFFFFFFFFFFFFFFFFFFFFFFFFFFFFFFFFFFFFFFF AND PUSH4 0x70A08231 ADDRESS PUSH1 0x40 MLOAD DUP3 PUSH4 0xFFFFFFFF AND PUSH1 0xE0 SHL DUP2 MSTORE PUSH1 0x4 ADD PUSH2 0x1AE6 SWAP2 SWAP1 PUSH2 0x21F3 JUMP JUMPDEST PUSH1 0x20 PUSH1 0x40 MLOAD DUP1 DUP4 SUB DUP2 DUP7 GAS STATICCALL ISZERO DUP1 ISZERO PUSH2 0x1B03 JUMPI RETURNDATASIZE PUSH1 0x0 DUP1 RETURNDATACOPY RETURNDATASIZE PUSH1 0x0 REVERT JUMPDEST POP POP POP POP PUSH1 0x40 MLOAD RETURNDATASIZE PUSH1 0x1F NOT PUSH1 0x1F DUP3 ADD AND DUP3 ADD DUP1 PUSH1 0x40 MSTORE POP DUP2 ADD SWAP1 PUSH2 0x1B27 SWAP2 SWAP1 PUSH2 0x2223 JUMP JUMPDEST SELFBALANCE PUSH2 0x1F08 JUMP JUMPDEST SWAP1 POP PUSH1 0x0 DUP3 PUSH20 0xFFFFFFFFFFFFFFFFFFFFFFFFFFFFFFFFFFFFFFFF AND DUP3 PUSH1 0x40 MLOAD PUSH2 0x1B55 SWAP1 PUSH2 0x22B5 JUMP JUMPDEST PUSH1 0x0 PUSH1 0x40 MLOAD DUP1 DUP4 SUB DUP2 DUP6 DUP8 GAS CALL SWAP3 POP POP POP RETURNDATASIZE DUP1 PUSH1 0x0 DUP2 EQ PUSH2 0x1B92 JUMPI PUSH1 0x40 MLOAD SWAP2 POP PUSH1 0x1F NOT PUSH1 0x3F RETURNDATASIZE ADD AND DUP3 ADD PUSH1 0x40 MSTORE RETURNDATASIZE DUP3 MSTORE RETURNDATASIZE PUSH1 0x0 PUSH1 0x20 DUP5 ADD RETURNDATACOPY PUSH2 0x1B97 JUMP JUMPDEST PUSH1 0x60 SWAP2 POP JUMPDEST POP POP SWAP1 POP DUP1 PUSH2 0x1BDB JUMPI PUSH1 0x40 MLOAD PUSH32 0x8C379A000000000000000000000000000000000000000000000000000000000 DUP2 MSTORE PUSH1 0x4 ADD PUSH2 0x1BD2 SWAP1 PUSH2 0x2327 JUMP JUMPDEST PUSH1 0x40 MLOAD DUP1 SWAP2 SUB SWAP1 REVERT JUMPDEST PUSH1 0x0 DUP1 SLOAD SWAP1 PUSH2 0x100 EXP SWAP1 DIV PUSH20 0xFFFFFFFFFFFFFFFFFFFFFFFFFFFFFFFFFFFFFFFF AND PUSH20 0xFFFFFFFFFFFFFFFFFFFFFFFFFFFFFFFFFFFFFFFF AND PUSH4 0x23B872DD DUP5 ADDRESS DUP8 PUSH1 0x40 MLOAD DUP5 PUSH4 0xFFFFFFFF AND PUSH1 0xE0 SHL DUP2 MSTORE PUSH1 0x4 ADD PUSH2 0x1C38 SWAP4 SWAP3 SWAP2 SWAP1 PUSH2 0x242B JUMP JUMPDEST PUSH1 0x20 PUSH1 0x40 MLOAD DUP1 DUP4 SUB DUP2 PUSH1 0x0 DUP8 GAS CALL ISZERO DUP1 ISZERO PUSH2 0x1C57 JUMPI RETURNDATASIZE PUSH1 0x0 DUP1 RETURNDATACOPY RETURNDATASIZE PUSH1 0x0 REVERT JUMPDEST POP POP POP POP PUSH1 0x40 MLOAD RETURNDATASIZE PUSH1 0x1F NOT PUSH1 0x1F DUP3 ADD AND DUP3 ADD DUP1 PUSH1 0x40 MSTORE POP DUP2 ADD SWAP1 PUSH2 0x1C7B SWAP2 SWAP1 PUSH2 0x23A8 JUMP JUMPDEST PUSH2 0x1C84 JUMPI PUSH1 0x0 DUP1 REVERT JUMPDEST PUSH32 0x4DBF3A71A7C7262F432C2CAD7808225832255D07F7D8AB85117677C0B5C0A850 DUP3 PUSH1 0x40 MLOAD PUSH2 0x1CB3 SWAP2 SWAP1 PUSH2 0x201D JUMP JUMPDEST PUSH1 0x40 MLOAD DUP1 SWAP2 SUB SWAP1 LOG1 POP POP POP POP JUMP JUMPDEST PUSH1 0x0 PUSH1 0x1 CALLVALUE SELFBALANCE PUSH2 0x1CD1 SWAP2 SWAP1 PUSH2 0x2250 JUMP JUMPDEST PUSH1 0x0 DUP1 SLOAD SWAP1 PUSH2 0x100 EXP SWAP1 DIV PUSH20 0xFFFFFFFFFFFFFFFFFFFFFFFFFFFFFFFFFFFFFFFF AND PUSH20 0xFFFFFFFFFFFFFFFFFFFFFFFFFFFFFFFFFFFFFFFF AND PUSH4 0x70A08231 ADDRESS PUSH1 0x40 MLOAD DUP3 PUSH4 0xFFFFFFFF AND PUSH1 0xE0 SHL DUP2 MSTORE PUSH1 0x4 ADD PUSH2 0x1D2A SWAP2 SWAP1 PUSH2 0x21F3 JUMP JUMPDEST PUSH1 0x20 PUSH1 0x40 MLOAD DUP1 DUP4 SUB DUP2 DUP7 GAS STATICCALL ISZERO DUP1 ISZERO PUSH2 0x1D47 JUMPI RETURNDATASIZE PUSH1 0x0 DUP1 RETURNDATACOPY RETURNDATASIZE PUSH1 0x0 REVERT JUMPDEST POP POP POP POP PUSH1 0x40 MLOAD RETURNDATASIZE PUSH1 0x1F NOT PUSH1 0x1F DUP3 ADD AND DUP3 ADD DUP1 PUSH1 0x40 MSTORE POP DUP2 ADD SWAP1 PUSH2 0x1D6B SWAP2 SWAP1 PUSH2 0x2223 JUMP JUMPDEST CALLVALUE PUSH2 0x1D76 SWAP2 SWAP1 PUSH2 0x212A JUMP JUMPDEST PUSH2 0x1D80 SWAP2 SWAP1 PUSH2 0x21B3 JUMP JUMPDEST PUSH2 0x1D8A SWAP2 SWAP1 PUSH2 0x23D5 JUMP JUMPDEST SWAP1 POP PUSH1 0x0 CALLVALUE SELFBALANCE PUSH2 0x1D9A SWAP2 SWAP1 PUSH2 0x2250 JUMP JUMPDEST PUSH1 0x1 SLOAD CALLVALUE PUSH2 0x1DA8 SWAP2 SWAP1 PUSH2 0x212A JUMP JUMPDEST PUSH2 0x1DB2 SWAP2 SWAP1 PUSH2 0x21B3 JUMP JUMPDEST SWAP1 POP DUP1 PUSH1 0x2 PUSH1 0x0 DUP6 PUSH20 0xFFFFFFFFFFFFFFFFFFFFFFFFFFFFFFFFFFFFFFFF AND PUSH20 0xFFFFFFFFFFFFFFFFFFFFFFFFFFFFFFFFFFFFFFFF AND DUP2 MSTORE PUSH1 0x20 ADD SWAP1 DUP2 MSTORE PUSH1 0x20 ADD PUSH1 0x0 KECCAK256 PUSH1 0x0 DUP3 DUP3 SLOAD PUSH2 0x1E03 SWAP2 SWAP1 PUSH2 0x23D5 JUMP JUMPDEST SWAP3 POP POP DUP2 SWAP1 SSTORE POP DUP1 PUSH1 0x1 PUSH1 0x0 DUP3 DUP3 SLOAD PUSH2 0x1E1C SWAP2 SWAP1 PUSH2 0x23D5 JUMP JUMPDEST SWAP3 POP POP DUP2 SWAP1 SSTORE POP PUSH1 0x0 DUP1 SLOAD SWAP1 PUSH2 0x100 EXP SWAP1 DIV PUSH20 0xFFFFFFFFFFFFFFFFFFFFFFFFFFFFFFFFFFFFFFFF AND PUSH20 0xFFFFFFFFFFFFFFFFFFFFFFFFFFFFFFFFFFFFFFFF AND PUSH4 0x23B872DD DUP5 ADDRESS DUP6 PUSH1 0x40 MLOAD DUP5 PUSH4 0xFFFFFFFF AND PUSH1 0xE0 SHL DUP2 MSTORE PUSH1 0x4 ADD PUSH2 0x1E80 SWAP4 SWAP3 SWAP2 SWAP1 PUSH2 0x242B JUMP JUMPDEST PUSH1 0x20 PUSH1 0x40 MLOAD DUP1 DUP4 SUB DUP2 PUSH1 0x0 DUP8 GAS CALL ISZERO DUP1 ISZERO PUSH2 0x1E9F JUMPI RETURNDATASIZE PUSH1 0x0 DUP1 RETURNDATACOPY RETURNDATASIZE PUSH1 0x0 REVERT JUMPDEST POP POP POP POP PUSH1 0x40 MLOAD RETURNDATASIZE PUSH1 0x1F NOT PUSH1 0x1F DUP3 ADD AND DUP3 ADD DUP1 PUSH1 0x40 MSTORE POP DUP2 ADD SWAP1 PUSH2 0x1EC3 SWAP2 SWAP1 PUSH2 0x23A8 JUMP JUMPDEST PUSH2 0x1ECC JUMPI PUSH1 0x0 DUP1 REVERT JUMPDEST PUSH32 0x4D6CE1E535DBADE1C23DEFBA91E23B8F791CE5EDC0CC320257A2B364E4E38426 DUP2 PUSH1 0x40 MLOAD PUSH2 0x1EFB SWAP2 SWAP1 PUSH2 0x201D JUMP JUMPDEST PUSH1 0x40 MLOAD DUP1 SWAP2 SUB SWAP1 LOG1 POP POP POP JUMP JUMPDEST PUSH1 0x0 DUP4 DUP4 PUSH2 0x1F16 SWAP2 SWAP1 PUSH2 0x23D5 JUMP JUMPDEST DUP3 DUP6 PUSH2 0x1F22 SWAP2 SWAP1 PUSH2 0x212A JUMP JUMPDEST PUSH2 0x1F2C SWAP2 SWAP1 PUSH2 0x21B3 JUMP JUMPDEST SWAP1 POP SWAP4 SWAP3 POP POP POP JUMP JUMPDEST PUSH1 0x0 DUP1 REVERT JUMPDEST PUSH1 0x0 DUP2 SWAP1 POP SWAP2 SWAP1 POP JUMP JUMPDEST PUSH2 0x1F4D DUP2 PUSH2 0x1F3A JUMP JUMPDEST DUP2 EQ PUSH2 0x1F58 JUMPI PUSH1 0x0 DUP1 REVERT JUMPDEST POP JUMP JUMPDEST PUSH1 0x0 DUP2 CALLDATALOAD SWAP1 POP PUSH2 0x1F6A DUP2 PUSH2 0x1F44 JUMP JUMPDEST SWAP3 SWAP2 POP POP JUMP JUMPDEST PUSH1 0x0 PUSH20 0xFFFFFFFFFFFFFFFFFFFFFFFFFFFFFFFFFFFFFFFF DUP3 AND SWAP1 POP SWAP2 SWAP1 POP JUMP JUMPDEST PUSH1 0x0 PUSH2 0x1F9B DUP3 PUSH2 0x1F70 JUMP JUMPDEST SWAP1 POP SWAP2 SWAP1 POP JUMP JUMPDEST PUSH2 0x1FAB DUP2 PUSH2 0x1F90 JUMP JUMPDEST DUP2 EQ PUSH2 0x1FB6 JUMPI PUSH1 0x0 DUP1 REVERT JUMPDEST POP JUMP JUMPDEST PUSH1 0x0 DUP2 CALLDATALOAD SWAP1 POP PUSH2 0x1FC8 DUP2 PUSH2 0x1FA2 JUMP JUMPDEST SWAP3 SWAP2 POP POP JUMP JUMPDEST PUSH1 0x0 DUP1 PUSH1 0x40 DUP4 DUP6 SUB SLT ISZERO PUSH2 0x1FE5 JUMPI PUSH2 0x1FE4 PUSH2 0x1F35 JUMP JUMPDEST JUMPDEST PUSH1 0x0 PUSH2 0x1FF3 DUP6 DUP3 DUP7 ADD PUSH2 0x1F5B JUMP JUMPDEST SWAP3 POP POP PUSH1 0x20 PUSH2 0x2004 DUP6 DUP3 DUP7 ADD PUSH2 0x1FB9 JUMP JUMPDEST SWAP2 POP POP SWAP3 POP SWAP3 SWAP1 POP JUMP JUMPDEST PUSH2 0x2017 DUP2 PUSH2 0x1F3A JUMP JUMPDEST DUP3 MSTORE POP POP JUMP JUMPDEST PUSH1 0x0 PUSH1 0x20 DUP3 ADD SWAP1 POP PUSH2 0x2032 PUSH1 0x0 DUP4 ADD DUP5 PUSH2 0x200E JUMP JUMPDEST SWAP3 SWAP2 POP POP JUMP JUMPDEST PUSH1 0x0 PUSH1 0x20 DUP3 DUP5 SUB SLT ISZERO PUSH2 0x204E JUMPI PUSH2 0x204D PUSH2 0x1F35 JUMP JUMPDEST JUMPDEST PUSH1 0x0 PUSH2 0x205C DUP5 DUP3 DUP6 ADD PUSH2 0x1F5B JUMP JUMPDEST SWAP2 POP POP SWAP3 SWAP2 POP POP JUMP JUMPDEST PUSH1 0x0 PUSH1 0x40 DUP3 ADD SWAP1 POP PUSH2 0x207A PUSH1 0x0 DUP4 ADD DUP6 PUSH2 0x200E JUMP JUMPDEST PUSH2 0x2087 PUSH1 0x20 DUP4 ADD DUP5 PUSH2 0x200E JUMP JUMPDEST SWAP4 SWAP3 POP POP POP JUMP JUMPDEST PUSH1 0x0 PUSH1 0x20 DUP3 DUP5 SUB SLT ISZERO PUSH2 0x20A4 JUMPI PUSH2 0x20A3 PUSH2 0x1F35 JUMP JUMPDEST JUMPDEST PUSH1 0x0 PUSH2 0x20B2 DUP5 DUP3 DUP6 ADD PUSH2 0x1FB9 JUMP JUMPDEST SWAP2 POP POP SWAP3 SWAP2 POP POP JUMP JUMPDEST PUSH1 0x0 DUP1 PUSH1 0x40 DUP4 DUP6 SUB SLT ISZERO PUSH2 0x20D2 JUMPI PUSH2 0x20D1 PUSH2 0x1F35 JUMP JUMPDEST JUMPDEST PUSH1 0x0 PUSH2 0x20E0 DUP6 DUP3 DUP7 ADD PUSH2 0x1FB9 JUMP JUMPDEST SWAP3 POP POP PUSH1 0x20 PUSH2 0x20F1 DUP6 DUP3 DUP7 ADD PUSH2 0x1F5B JUMP JUMPDEST SWAP2 POP POP SWAP3 POP SWAP3 SWAP1 POP JUMP JUMPDEST PUSH32 0x4E487B7100000000000000000000000000000000000000000000000000000000 PUSH1 0x0 MSTORE PUSH1 0x11 PUSH1 0x4 MSTORE PUSH1 0x24 PUSH1 0x0 REVERT JUMPDEST PUSH1 0x0 PUSH2 0x2135 DUP3 PUSH2 0x1F3A JUMP JUMPDEST SWAP2 POP PUSH2 0x2140 DUP4 PUSH2 0x1F3A JUMP JUMPDEST SWAP3 POP DUP2 PUSH32 0xFFFFFFFFFFFFFFFFFFFFFFFFFFFFFFFFFFFFFFFFFFFFFFFFFFFFFFFFFFFFFFFF DIV DUP4 GT DUP3 ISZERO ISZERO AND ISZERO PUSH2 0x2179 JUMPI PUSH2 0x2178 PUSH2 0x20FB JUMP JUMPDEST JUMPDEST DUP3 DUP3 MUL SWAP1 POP SWAP3 SWAP2 POP POP JUMP JUMPDEST PUSH32 0x4E487B7100000000000000000000000000000000000000000000000000000000 PUSH1 0x0 MSTORE PUSH1 0x12 PUSH1 0x4 MSTORE PUSH1 0x24 PUSH1 0x0 REVERT JUMPDEST PUSH1 0x0 PUSH2 0x21BE DUP3 PUSH2 0x1F3A JUMP JUMPDEST SWAP2 POP PUSH2 0x21C9 DUP4 PUSH2 0x1F3A JUMP JUMPDEST SWAP3 POP DUP3 PUSH2 0x21D9 JUMPI PUSH2 0x21D8 PUSH2 0x2184 JUMP JUMPDEST JUMPDEST DUP3 DUP3 DIV SWAP1 POP SWAP3 SWAP2 POP POP JUMP JUMPDEST PUSH2 0x21ED DUP2 PUSH2 0x1F90 JUMP JUMPDEST DUP3 MSTORE POP POP JUMP JUMPDEST PUSH1 0x0 PUSH1 0x20 DUP3 ADD SWAP1 POP PUSH2 0x2208 PUSH1 0x0 DUP4 ADD DUP5 PUSH2 0x21E4 JUMP JUMPDEST SWAP3 SWAP2 POP POP JUMP JUMPDEST PUSH1 0x0 DUP2 MLOAD SWAP1 POP PUSH2 0x221D DUP2 PUSH2 0x1F44 JUMP JUMPDEST SWAP3 SWAP2 POP POP JUMP JUMPDEST PUSH1 0x0 PUSH1 0x20 DUP3 DUP5 SUB SLT ISZERO PUSH2 0x2239 JUMPI PUSH2 0x2238 PUSH2 0x1F35 JUMP JUMPDEST JUMPDEST PUSH1 0x0 PUSH2 0x2247 DUP5 DUP3 DUP6 ADD PUSH2 0x220E JUMP JUMPDEST SWAP2 POP POP SWAP3 SWAP2 POP POP JUMP JUMPDEST PUSH1 0x0 PUSH2 0x225B DUP3 PUSH2 0x1F3A JUMP JUMPDEST SWAP2 POP PUSH2 0x2266 DUP4 PUSH2 0x1F3A JUMP JUMPDEST SWAP3 POP DUP3 DUP3 LT ISZERO PUSH2 0x2279 JUMPI PUSH2 0x2278 PUSH2 0x20FB JUMP JUMPDEST JUMPDEST DUP3 DUP3 SUB SWAP1 POP SWAP3 SWAP2 POP POP JUMP JUMPDEST PUSH1 0x0 DUP2 SWAP1 POP SWAP3 SWAP2 POP POP JUMP JUMPDEST POP JUMP JUMPDEST PUSH1 0x0 PUSH2 0x229F PUSH1 0x0 DUP4 PUSH2 0x2284 JUMP JUMPDEST SWAP2 POP PUSH2 0x22AA DUP3 PUSH2 0x228F JUMP JUMPDEST PUSH1 0x0 DUP3 ADD SWAP1 POP SWAP2 SWAP1 POP JUMP JUMPDEST PUSH1 0x0 PUSH2 0x22C0 DUP3 PUSH2 0x2292 JUMP JUMPDEST SWAP2 POP DUP2 SWAP1 POP SWAP2 SWAP1 POP JUMP JUMPDEST PUSH1 0x0 DUP3 DUP3 MSTORE PUSH1 0x20 DUP3 ADD SWAP1 POP SWAP3 SWAP2 POP POP JUMP JUMPDEST PUSH32 0x5472616E73666572206661696C65642E00000000000000000000000000000000 PUSH1 0x0 DUP3 ADD MSTORE POP JUMP JUMPDEST PUSH1 0x0 PUSH2 0x2311 PUSH1 0x10 DUP4 PUSH2 0x22CA JUMP JUMPDEST SWAP2 POP PUSH2 0x231C DUP3 PUSH2 0x22DB JUMP JUMPDEST PUSH1 0x20 DUP3 ADD SWAP1 POP SWAP2 SWAP1 POP JUMP JUMPDEST PUSH1 0x0 PUSH1 0x20 DUP3 ADD SWAP1 POP DUP2 DUP2 SUB PUSH1 0x0 DUP4 ADD MSTORE PUSH2 0x2340 DUP2 PUSH2 0x2304 JUMP JUMPDEST SWAP1 POP SWAP2 SWAP1 POP JUMP JUMPDEST PUSH1 0x0 PUSH1 0x40 DUP3 ADD SWAP1 POP PUSH2 0x235C PUSH1 0x0 DUP4 ADD DUP6 PUSH2 0x21E4 JUMP JUMPDEST PUSH2 0x2369 PUSH1 0x20 DUP4 ADD DUP5 PUSH2 0x200E JUMP JUMPDEST SWAP4 SWAP3 POP POP POP JUMP JUMPDEST PUSH1 0x0 DUP2 ISZERO ISZERO SWAP1 POP SWAP2 SWAP1 POP JUMP JUMPDEST PUSH2 0x2385 DUP2 PUSH2 0x2370 JUMP JUMPDEST DUP2 EQ PUSH2 0x2390 JUMPI PUSH1 0x0 DUP1 REVERT JUMPDEST POP JUMP JUMPDEST PUSH1 0x0 DUP2 MLOAD SWAP1 POP PUSH2 0x23A2 DUP2 PUSH2 0x237C JUMP JUMPDEST SWAP3 SWAP2 POP POP JUMP JUMPDEST PUSH1 0x0 PUSH1 0x20 DUP3 DUP5 SUB SLT ISZERO PUSH2 0x23BE JUMPI PUSH2 0x23BD PUSH2 0x1F35 JUMP JUMPDEST JUMPDEST PUSH1 0x0 PUSH2 0x23CC DUP5 DUP3 DUP6 ADD PUSH2 0x2393 JUMP JUMPDEST SWAP2 POP POP SWAP3 SWAP2 POP POP JUMP JUMPDEST PUSH1 0x0 PUSH2 0x23E0 DUP3 PUSH2 0x1F3A JUMP JUMPDEST SWAP2 POP PUSH2 0x23EB DUP4 PUSH2 0x1F3A JUMP JUMPDEST SWAP3 POP DUP3 PUSH32 0xFFFFFFFFFFFFFFFFFFFFFFFFFFFFFFFFFFFFFFFFFFFFFFFFFFFFFFFFFFFFFFFF SUB DUP3 GT ISZERO PUSH2 0x2420 JUMPI PUSH2 0x241F PUSH2 0x20FB JUMP JUMPDEST JUMPDEST DUP3 DUP3 ADD SWAP1 POP SWAP3 SWAP2 POP POP JUMP JUMPDEST PUSH1 0x0 PUSH1 0x60 DUP3 ADD SWAP1 POP PUSH2 0x2440 PUSH1 0x0 DUP4 ADD DUP7 PUSH2 0x21E4 JUMP JUMPDEST PUSH2 0x244D PUSH1 0x20 DUP4 ADD DUP6 PUSH2 0x21E4 JUMP JUMPDEST PUSH2 0x245A PUSH1 0x40 DUP4 ADD DUP5 PUSH2 0x200E JUMP JUMPDEST SWAP5 SWAP4 POP POP POP POP JUMP INVALID LOG2 PUSH5 0x6970667358 0x22 SLT KECCAK256 0xB4 0xDD 0xC4 PUSH6 0x74D81C6F8756 SWAP11 PUSH25 0x8BE4996260133F543641D7C714BDA5FEAD254B5264736F6C63 NUMBER STOP ADDMOD 0xF STOP CALLER "
				},
				"gasEstimates": {
					"creation": {
						"codeDepositCost": "1873600",
						"executionCost": "1976",
						"totalCost": "1875576"
					},
					"external": {
						"deposit()": "infinite",
						"deposit(address)": "infinite",
						"ercToEth(uint256)": "infinite",
						"ercToEth(uint256,address)": "infinite",
						"ethToErc()": "infinite",
						"ethToErc(address)": "infinite",
						"getBalance()": "385",
						"getTokenBalance()": "infinite",
						"initialize(address,uint256)": "infinite",
						"liquidity(address)": "2925",
						"liquidityAdded(uint256)": "infinite",
						"liquiditySubstracted(uint256)": "infinite",
						"liquidityTaken(uint256)": "infinite",
						"priceERC(uint256)": "infinite",
						"priceETH(uint256)": "infinite",
						"take(uint256,address)": "infinite",
						"total_liquidity()": "2452",
						"withdraw(uint256)": "infinite",
						"withdraw(uint256,address)": "infinite"
					},
					"internal": {
						"calculatePrice(uint256,uint256,uint256)": "infinite"
					}
				},
				"methodIdentifiers": {
					"deposit()": "d0e30db0",
					"deposit(address)": "f340fa01",
					"ercToEth(uint256)": "debc674c",
					"ercToEth(uint256,address)": "e2415984",
					"ethToErc()": "7937c03d",
					"ethToErc(address)": "a5b8b16f",
					"getBalance()": "12065fe0",
					"getTokenBalance()": "82b2e257",
					"initialize(address,uint256)": "cd6dc687",
					"liquidity(address)": "b8c876b1",
					"liquidityAdded(uint256)": "5f244d4e",
					"liquiditySubstracted(uint256)": "1eb928aa",
					"liquidityTaken(uint256)": "a88ebf52",
					"priceERC(uint256)": "72a9d124",
					"priceETH(uint256)": "67da263d",
					"take(uint256,address)": "732c3297",
					"total_liquidity()": "31f3bd28",
					"withdraw(uint256)": "2e1a7d4d",
					"withdraw(uint256,address)": "00f714ce"
				}
			},
			"storageLayout": {
				"storage": [
					{
						"astId": 716,
						"contract": "PFG/AMM.sol:DEX",
						"label": "tokenERC",
						"offset": 0,
						"slot": "0",
						"type": "t_contract(IERC20)663"
					},
					{
						"astId": 718,
						"contract": "PFG/AMM.sol:DEX",
						"label": "total_liquidity",
						"offset": 0,
						"slot": "1",
						"type": "t_uint256"
					},
					{
						"astId": 722,
						"contract": "PFG/AMM.sol:DEX",
						"label": "liquidity",
						"offset": 0,
						"slot": "2",
						"type": "t_mapping(t_address,t_uint256)"
					}
				],
				"types": {
					"t_address": {
						"encoding": "inplace",
						"label": "address",
						"numberOfBytes": "20"
					},
					"t_contract(IERC20)663": {
						"encoding": "inplace",
						"label": "contract IERC20",
						"numberOfBytes": "20"
					},
					"t_mapping(t_address,t_uint256)": {
						"encoding": "mapping",
						"key": "t_address",
						"label": "mapping(address => uint256)",
						"numberOfBytes": "32",
						"value": "t_uint256"
					},
					"t_uint256": {
						"encoding": "inplace",
						"label": "uint256",
						"numberOfBytes": "32"
					}
				}
			},
			"userdoc": {
				"kind": "user",
				"methods": {},
				"version": 1
			}
		}
	}
}