{
	"PFG/AMM.sol": {
		"DEX": {
			"abi": [
				{
					"inputs": [],
					"stateMutability": "nonpayable",
					"type": "constructor"
				},
				{
					"anonymous": false,
					"inputs": [
						{
							"indexed": false,
							"internalType": "uint256",
							"name": "_value",
							"type": "uint256"
						}
					],
					"name": "Deposit",
					"type": "event"
				},
				{
					"anonymous": false,
					"inputs": [
						{
							"indexed": false,
							"internalType": "uint256",
							"name": "_value",
							"type": "uint256"
						}
					],
					"name": "ETHSwapped",
					"type": "event"
				},
				{
					"anonymous": false,
					"inputs": [
						{
							"indexed": false,
							"internalType": "uint256",
							"name": "_value",
							"type": "uint256"
						}
					],
					"name": "Initialize",
					"type": "event"
				},
				{
					"anonymous": false,
					"inputs": [
						{
							"indexed": false,
							"internalType": "uint256",
							"name": "_value",
							"type": "uint256"
						}
					],
					"name": "TokensSwapped",
					"type": "event"
				},
				{
					"anonymous": false,
					"inputs": [
						{
							"indexed": false,
							"internalType": "uint256",
							"name": "_valueETH",
							"type": "uint256"
						},
						{
							"indexed": false,
							"internalType": "uint256",
							"name": "_valueToken",
							"type": "uint256"
						}
					],
					"name": "Withdraw",
					"type": "event"
				},
				{
					"inputs": [],
					"name": "deposit",
					"outputs": [],
					"stateMutability": "payable",
					"type": "function"
				},
				{
					"inputs": [],
					"name": "distributeFee",
					"outputs": [],
					"stateMutability": "nonpayable",
					"type": "function"
				},
				{
					"inputs": [
						{
							"internalType": "uint256",
							"name": "token_amount",
							"type": "uint256"
						}
					],
					"name": "ercToEth",
					"outputs": [],
					"stateMutability": "nonpayable",
					"type": "function"
				},
				{
					"inputs": [],
					"name": "ethToErc",
					"outputs": [],
					"stateMutability": "payable",
					"type": "function"
				},
				{
					"inputs": [],
					"name": "eth_received",
					"outputs": [
						{
							"internalType": "uint256",
							"name": "",
							"type": "uint256"
						}
					],
					"stateMutability": "view",
					"type": "function"
				},
				{
					"inputs": [],
					"name": "fee",
					"outputs": [
						{
							"internalType": "uint256",
							"name": "",
							"type": "uint256"
						}
					],
					"stateMutability": "view",
					"type": "function"
				},
				{
					"inputs": [],
					"name": "getBalance",
					"outputs": [
						{
							"internalType": "uint256",
							"name": "",
							"type": "uint256"
						}
					],
					"stateMutability": "view",
					"type": "function"
				},
				{
					"inputs": [],
					"name": "getTokenBalance",
					"outputs": [
						{
							"internalType": "uint256",
							"name": "",
							"type": "uint256"
						}
					],
					"stateMutability": "view",
					"type": "function"
				},
				{
					"inputs": [
						{
							"internalType": "address",
							"name": "token_address",
							"type": "address"
						},
						{
							"internalType": "uint256",
							"name": "token_amount",
							"type": "uint256"
						}
					],
					"name": "initialize",
					"outputs": [],
					"stateMutability": "payable",
					"type": "function"
				},
				{
					"inputs": [
						{
							"internalType": "address",
							"name": "who",
							"type": "address"
						}
					],
					"name": "invested",
					"outputs": [
						{
							"internalType": "uint256",
							"name": "",
							"type": "uint256"
						}
					],
					"stateMutability": "view",
					"type": "function"
				},
				{
					"inputs": [
						{
							"internalType": "address",
							"name": "",
							"type": "address"
						}
					],
					"name": "investors",
					"outputs": [
						{
							"internalType": "uint256",
							"name": "",
							"type": "uint256"
						}
					],
					"stateMutability": "view",
					"type": "function"
				},
				{
					"inputs": [],
					"name": "liq_added",
					"outputs": [
						{
							"internalType": "uint256",
							"name": "",
							"type": "uint256"
						}
					],
					"stateMutability": "view",
					"type": "function"
				},
				{
					"inputs": [
						{
							"internalType": "address",
							"name": "",
							"type": "address"
						}
					],
					"name": "liquidity",
					"outputs": [
						{
							"internalType": "uint256",
							"name": "",
							"type": "uint256"
						}
					],
					"stateMutability": "view",
					"type": "function"
				},
				{
					"inputs": [
						{
							"internalType": "uint256",
							"name": "eth",
							"type": "uint256"
						}
					],
					"name": "liquidityAdded",
					"outputs": [
						{
							"internalType": "uint256",
							"name": "",
							"type": "uint256"
						},
						{
							"internalType": "uint256",
							"name": "",
							"type": "uint256"
						}
					],
					"stateMutability": "view",
					"type": "function"
				},
				{
					"inputs": [
						{
							"internalType": "uint256",
							"name": "value",
							"type": "uint256"
						}
					],
					"name": "liquiditySubstracted",
					"outputs": [
						{
							"internalType": "uint256",
							"name": "",
							"type": "uint256"
						},
						{
							"internalType": "uint256",
							"name": "",
							"type": "uint256"
						}
					],
					"stateMutability": "view",
					"type": "function"
				},
				{
					"inputs": [
						{
							"internalType": "uint256",
							"name": "eth",
							"type": "uint256"
						}
					],
					"name": "priceERC",
					"outputs": [
						{
							"internalType": "uint256",
							"name": "",
							"type": "uint256"
						}
					],
					"stateMutability": "view",
					"type": "function"
				},
				{
					"inputs": [
						{
							"internalType": "uint256",
							"name": "erc",
							"type": "uint256"
						}
					],
					"name": "priceETH",
					"outputs": [
						{
							"internalType": "uint256",
							"name": "",
							"type": "uint256"
						}
					],
					"stateMutability": "view",
					"type": "function"
				},
				{
					"inputs": [],
					"name": "tokens_received",
					"outputs": [
						{
							"internalType": "uint256",
							"name": "",
							"type": "uint256"
						}
					],
					"stateMutability": "view",
					"type": "function"
				},
				{
					"inputs": [],
					"name": "total_liquidity",
					"outputs": [
						{
							"internalType": "uint256",
							"name": "",
							"type": "uint256"
						}
					],
					"stateMutability": "view",
					"type": "function"
				},
				{
					"inputs": [
						{
							"internalType": "uint256",
							"name": "value",
							"type": "uint256"
						}
					],
					"name": "withdraw",
					"outputs": [],
					"stateMutability": "nonpayable",
					"type": "function"
				}
			],
			"devdoc": {
				"kind": "dev",
				"methods": {},
				"version": 1
			},
			"evm": {
				"assembly": "    /* \"PFG/AMM.sol\":133:5799  contract DEX {... */\n  mstore(0x40, 0x80)\n    /* \"PFG/AMM.sol\":891:955  constructor(){... */\n  callvalue\n  dup1\n  iszero\n  tag_1\n  jumpi\n  0x00\n  dup1\n  revert\ntag_1:\n  pop\n    /* \"PFG/AMM.sol\":934:943  tx.origin */\n  origin\n    /* \"PFG/AMM.sol\":923:931  deployer */\n  0x02\n  0x00\n    /* \"PFG/AMM.sol\":923:943  deployer = tx.origin */\n  0x0100\n  exp\n  dup2\n  sload\n  dup2\n  0xffffffffffffffffffffffffffffffffffffffff\n  mul\n  not\n  and\n  swap1\n  dup4\n  0xffffffffffffffffffffffffffffffffffffffff\n  and\n  mul\n  or\n  swap1\n  sstore\n  pop\n    /* \"PFG/AMM.sol\":133:5799  contract DEX {... */\n  dataSize(sub_0)\n  dup1\n  dataOffset(sub_0)\n  0x00\n  codecopy\n  0x00\n  return\nstop\n\nsub_0: assembly {\n        /* \"PFG/AMM.sol\":133:5799  contract DEX {... */\n      mstore(0x40, 0x80)\n      jumpi(tag_1, lt(calldatasize, 0x04))\n      shr(0xe0, calldataload(0x00))\n      dup1\n      0x72a9d124\n      gt\n      tag_22\n      jumpi\n      dup1\n      0xb8c876b1\n      gt\n      tag_23\n      jumpi\n      dup1\n      0xb8c876b1\n      eq\n      tag_17\n      jumpi\n      dup1\n      0xcd6dc687\n      eq\n      tag_18\n      jumpi\n      dup1\n      0xd0e30db0\n      eq\n      tag_19\n      jumpi\n      dup1\n      0xddca3f43\n      eq\n      tag_20\n      jumpi\n      dup1\n      0xdebc674c\n      eq\n      tag_21\n      jumpi\n      jump(tag_1)\n    tag_23:\n      dup1\n      0x72a9d124\n      eq\n      tag_12\n      jumpi\n      dup1\n      0x74942c0f\n      eq\n      tag_13\n      jumpi\n      dup1\n      0x7937c03d\n      eq\n      tag_14\n      jumpi\n      dup1\n      0x82b2e257\n      eq\n      tag_15\n      jumpi\n      dup1\n      0x8666107c\n      eq\n      tag_16\n      jumpi\n      jump(tag_1)\n    tag_22:\n      dup1\n      0x5f244d4e\n      gt\n      tag_24\n      jumpi\n      dup1\n      0x5f244d4e\n      eq\n      tag_7\n      jumpi\n      dup1\n      0x66b3f6bf\n      eq\n      tag_8\n      jumpi\n      dup1\n      0x67da263d\n      eq\n      tag_9\n      jumpi\n      dup1\n      0x6f7bc9be\n      eq\n      tag_10\n      jumpi\n      dup1\n      0x707e7e87\n      eq\n      tag_11\n      jumpi\n      jump(tag_1)\n    tag_24:\n      dup1\n      0x12065fe0\n      eq\n      tag_2\n      jumpi\n      dup1\n      0x1eb928aa\n      eq\n      tag_3\n      jumpi\n      dup1\n      0x26c4e60d\n      eq\n      tag_4\n      jumpi\n      dup1\n      0x2e1a7d4d\n      eq\n      tag_5\n      jumpi\n      dup1\n      0x31f3bd28\n      eq\n      tag_6\n      jumpi\n    tag_1:\n      0x00\n      dup1\n      revert\n        /* \"PFG/AMM.sol\":5322:5435  function getBalance() external view returns (uint256) {... */\n    tag_2:\n      callvalue\n      dup1\n      iszero\n      tag_25\n      jumpi\n      0x00\n      dup1\n      revert\n    tag_25:\n      pop\n      tag_26\n      tag_27\n      jump\t// in\n    tag_26:\n      mload(0x40)\n      tag_28\n      swap2\n      swap1\n      tag_29\n      jump\t// in\n    tag_28:\n      mload(0x40)\n      dup1\n      swap2\n      sub\n      swap1\n      return\n        /* \"PFG/AMM.sol\":4811:5168  function liquiditySubstracted(uint256 value) external view returns (uint256, uint256){... */\n    tag_3:\n      callvalue\n      dup1\n      iszero\n      tag_30\n      jumpi\n      0x00\n      dup1\n      revert\n    tag_30:\n      pop\n      tag_31\n      0x04\n      dup1\n      calldatasize\n      sub\n      dup2\n      add\n      swap1\n      tag_32\n      swap2\n      swap1\n      tag_33\n      jump\t// in\n    tag_32:\n      tag_34\n      jump\t// in\n    tag_31:\n      mload(0x40)\n      tag_35\n      swap3\n      swap2\n      swap1\n      tag_36\n      jump\t// in\n    tag_35:\n      mload(0x40)\n      dup1\n      swap2\n      sub\n      swap1\n      return\n        /* \"PFG/AMM.sol\":5447:5668  function distributeFee() public{... */\n    tag_4:\n      callvalue\n      dup1\n      iszero\n      tag_37\n      jumpi\n      0x00\n      dup1\n      revert\n    tag_37:\n      pop\n      tag_38\n      tag_39\n      jump\t// in\n    tag_38:\n      stop\n        /* \"PFG/AMM.sol\":4097:4799  function withdraw(uint256 value) external {... */\n    tag_5:\n      callvalue\n      dup1\n      iszero\n      tag_40\n      jumpi\n      0x00\n      dup1\n      revert\n    tag_40:\n      pop\n      tag_41\n      0x04\n      dup1\n      calldatasize\n      sub\n      dup2\n      add\n      swap1\n      tag_42\n      swap2\n      swap1\n      tag_33\n      jump\t// in\n    tag_42:\n      tag_43\n      jump\t// in\n    tag_41:\n      stop\n        /* \"PFG/AMM.sol\":187:217  uint256 public total_liquidity */\n    tag_6:\n      callvalue\n      dup1\n      iszero\n      tag_44\n      jumpi\n      0x00\n      dup1\n      revert\n    tag_44:\n      pop\n      tag_45\n      tag_46\n      jump\t// in\n    tag_45:\n      mload(0x40)\n      tag_47\n      swap2\n      swap1\n      tag_29\n      jump\t// in\n    tag_47:\n      mload(0x40)\n      dup1\n      swap2\n      sub\n      swap1\n      return\n        /* \"PFG/AMM.sol\":3728:4083  function liquidityAdded(uint256 eth) external view returns (uint256, uint256){... */\n    tag_7:\n      callvalue\n      dup1\n      iszero\n      tag_48\n      jumpi\n      0x00\n      dup1\n      revert\n    tag_48:\n      pop\n      tag_49\n      0x04\n      dup1\n      calldatasize\n      sub\n      dup2\n      add\n      swap1\n      tag_50\n      swap2\n      swap1\n      tag_33\n      jump\t// in\n    tag_50:\n      tag_51\n      jump\t// in\n    tag_49:\n      mload(0x40)\n      tag_52\n      swap3\n      swap2\n      swap1\n      tag_36\n      jump\t// in\n    tag_52:\n      mload(0x40)\n      dup1\n      swap2\n      sub\n      swap1\n      return\n        /* \"PFG/AMM.sol\":5680:5794  function invested(address who) external view returns (uint256){... */\n    tag_8:\n      callvalue\n      dup1\n      iszero\n      tag_53\n      jumpi\n      0x00\n      dup1\n      revert\n    tag_53:\n      pop\n      tag_54\n      0x04\n      dup1\n      calldatasize\n      sub\n      dup2\n      add\n      swap1\n      tag_55\n      swap2\n      swap1\n      tag_56\n      jump\t// in\n    tag_55:\n      tag_57\n      jump\t// in\n    tag_54:\n      mload(0x40)\n      tag_58\n      swap2\n      swap1\n      tag_29\n      jump\t// in\n    tag_58:\n      mload(0x40)\n      dup1\n      swap2\n      sub\n      swap1\n      return\n        /* \"PFG/AMM.sol\":1901:2077  function priceETH(uint256 erc) external view returns(uint256){... */\n    tag_9:\n      callvalue\n      dup1\n      iszero\n      tag_59\n      jumpi\n      0x00\n      dup1\n      revert\n    tag_59:\n      pop\n      tag_60\n      0x04\n      dup1\n      calldatasize\n      sub\n      dup2\n      add\n      swap1\n      tag_61\n      swap2\n      swap1\n      tag_33\n      jump\t// in\n    tag_61:\n      tag_62\n      jump\t// in\n    tag_60:\n      mload(0x40)\n      tag_63\n      swap2\n      swap1\n      tag_29\n      jump\t// in\n    tag_63:\n      mload(0x40)\n      dup1\n      swap2\n      sub\n      swap1\n      return\n        /* \"PFG/AMM.sol\":363:407  mapping(address => uint256) public investors */\n    tag_10:\n      callvalue\n      dup1\n      iszero\n      tag_64\n      jumpi\n      0x00\n      dup1\n      revert\n    tag_64:\n      pop\n      tag_65\n      0x04\n      dup1\n      calldatasize\n      sub\n      dup2\n      add\n      swap1\n      tag_66\n      swap2\n      swap1\n      tag_56\n      jump\t// in\n    tag_66:\n      tag_67\n      jump\t// in\n    tag_65:\n      mload(0x40)\n      tag_68\n      swap2\n      swap1\n      tag_29\n      jump\t// in\n    tag_68:\n      mload(0x40)\n      dup1\n      swap2\n      sub\n      swap1\n      return\n        /* \"PFG/AMM.sol\":854:878  uint256 public liq_added */\n    tag_11:\n      callvalue\n      dup1\n      iszero\n      tag_69\n      jumpi\n      0x00\n      dup1\n      revert\n    tag_69:\n      pop\n      tag_70\n      tag_71\n      jump\t// in\n    tag_70:\n      mload(0x40)\n      tag_72\n      swap2\n      swap1\n      tag_29\n      jump\t// in\n    tag_72:\n      mload(0x40)\n      dup1\n      swap2\n      sub\n      swap1\n      return\n        /* \"PFG/AMM.sol\":1705:1889  function priceERC(uint256 eth) external view returns(uint256){... */\n    tag_12:\n      callvalue\n      dup1\n      iszero\n      tag_73\n      jumpi\n      0x00\n      dup1\n      revert\n    tag_73:\n      pop\n      tag_74\n      0x04\n      dup1\n      calldatasize\n      sub\n      dup2\n      add\n      swap1\n      tag_75\n      swap2\n      swap1\n      tag_33\n      jump\t// in\n    tag_75:\n      tag_76\n      jump\t// in\n    tag_74:\n      mload(0x40)\n      tag_77\n      swap2\n      swap1\n      tag_29\n      jump\t// in\n    tag_77:\n      mload(0x40)\n      dup1\n      swap2\n      sub\n      swap1\n      return\n        /* \"PFG/AMM.sol\":775:805  uint256 public tokens_received */\n    tag_13:\n      callvalue\n      dup1\n      iszero\n      tag_78\n      jumpi\n      0x00\n      dup1\n      revert\n    tag_78:\n      pop\n      tag_79\n      tag_80\n      jump\t// in\n    tag_79:\n      mload(0x40)\n      tag_81\n      swap2\n      swap1\n      tag_29\n      jump\t// in\n    tag_81:\n      mload(0x40)\n      dup1\n      swap2\n      sub\n      swap1\n      return\n        /* \"PFG/AMM.sol\":2089:2552  function ethToErc() external payable {... */\n    tag_14:\n      tag_82\n      tag_83\n      jump\t// in\n    tag_82:\n      stop\n        /* \"PFG/AMM.sol\":5180:5310  function getTokenBalance() external view returns (uint256) {... */\n    tag_15:\n      callvalue\n      dup1\n      iszero\n      tag_84\n      jumpi\n      0x00\n      dup1\n      revert\n    tag_84:\n      pop\n      tag_85\n      tag_86\n      jump\t// in\n    tag_85:\n      mload(0x40)\n      tag_87\n      swap2\n      swap1\n      tag_29\n      jump\t// in\n    tag_87:\n      mload(0x40)\n      dup1\n      swap2\n      sub\n      swap1\n      return\n        /* \"PFG/AMM.sol\":816:843  uint256 public eth_received */\n    tag_16:\n      callvalue\n      dup1\n      iszero\n      tag_88\n      jumpi\n      0x00\n      dup1\n      revert\n    tag_88:\n      pop\n      tag_89\n      tag_90\n      jump\t// in\n    tag_89:\n      mload(0x40)\n      tag_91\n      swap2\n      swap1\n      tag_29\n      jump\t// in\n    tag_91:\n      mload(0x40)\n      dup1\n      swap2\n      sub\n      swap1\n      return\n        /* \"PFG/AMM.sol\":444:489  mapping (address => uint256) public liquidity */\n    tag_17:\n      callvalue\n      dup1\n      iszero\n      tag_92\n      jumpi\n      0x00\n      dup1\n      revert\n    tag_92:\n      pop\n      tag_93\n      0x04\n      dup1\n      calldatasize\n      sub\n      dup2\n      add\n      swap1\n      tag_94\n      swap2\n      swap1\n      tag_56\n      jump\t// in\n    tag_94:\n      tag_95\n      jump\t// in\n    tag_93:\n      mload(0x40)\n      tag_96\n      swap2\n      swap1\n      tag_29\n      jump\t// in\n    tag_96:\n      mload(0x40)\n      dup1\n      swap2\n      sub\n      swap1\n      return\n        /* \"PFG/AMM.sol\":967:1467  function initialize(address token_address, uint256 token_amount) external payable {... */\n    tag_18:\n      tag_97\n      0x04\n      dup1\n      calldatasize\n      sub\n      dup2\n      add\n      swap1\n      tag_98\n      swap2\n      swap1\n      tag_99\n      jump\t// in\n    tag_98:\n      tag_100\n      jump\t// in\n    tag_97:\n      stop\n        /* \"PFG/AMM.sol\":3125:3716  function deposit() external payable {... */\n    tag_19:\n      tag_101\n      tag_102\n      jump\t// in\n    tag_101:\n      stop\n        /* \"PFG/AMM.sol\":311:329  uint256 public fee */\n    tag_20:\n      callvalue\n      dup1\n      iszero\n      tag_103\n      jumpi\n      0x00\n      dup1\n      revert\n    tag_103:\n      pop\n      tag_104\n      tag_105\n      jump\t// in\n    tag_104:\n      mload(0x40)\n      tag_106\n      swap2\n      swap1\n      tag_29\n      jump\t// in\n    tag_106:\n      mload(0x40)\n      dup1\n      swap2\n      sub\n      swap1\n      return\n        /* \"PFG/AMM.sol\":2566:3113  function ercToEth(uint256 token_amount) external {... */\n    tag_21:\n      callvalue\n      dup1\n      iszero\n      tag_107\n      jumpi\n      0x00\n      dup1\n      revert\n    tag_107:\n      pop\n      tag_108\n      0x04\n      dup1\n      calldatasize\n      sub\n      dup2\n      add\n      swap1\n      tag_109\n      swap2\n      swap1\n      tag_33\n      jump\t// in\n    tag_109:\n      tag_110\n      jump\t// in\n    tag_108:\n      stop\n        /* \"PFG/AMM.sol\":5322:5435  function getBalance() external view returns (uint256) {... */\n    tag_27:\n        /* \"PFG/AMM.sol\":5367:5374  uint256 */\n      0x00\n        /* \"PFG/AMM.sol\":5402:5423  address(this).balance */\n      selfbalance\n        /* \"PFG/AMM.sol\":5395:5423  return address(this).balance */\n      swap1\n      pop\n        /* \"PFG/AMM.sol\":5322:5435  function getBalance() external view returns (uint256) {... */\n      swap1\n      jump\t// out\n        /* \"PFG/AMM.sol\":4811:5168  function liquiditySubstracted(uint256 value) external view returns (uint256, uint256){... */\n    tag_34:\n        /* \"PFG/AMM.sol\":4879:4886  uint256 */\n      0x00\n        /* \"PFG/AMM.sol\":4888:4895  uint256 */\n      dup1\n        /* \"PFG/AMM.sol\":4915:4932  uint256 eth_value */\n      0x00\n        /* \"PFG/AMM.sol\":4969:4984  total_liquidity */\n      sload(0x01)\n        /* \"PFG/AMM.sol\":4944:4965  address(this).balance */\n      selfbalance\n        /* \"PFG/AMM.sol\":4936:4941  value */\n      dup6\n        /* \"PFG/AMM.sol\":4936:4965  value * address(this).balance */\n      tag_113\n      swap2\n      swap1\n      tag_114\n      jump\t// in\n    tag_113:\n        /* \"PFG/AMM.sol\":4935:4984  (value * address(this).balance) / total_liquidity */\n      tag_115\n      swap2\n      swap1\n      tag_116\n      jump\t// in\n    tag_115:\n        /* \"PFG/AMM.sol\":4915:4984  uint256 eth_value = (value * address(this).balance) / total_liquidity */\n      swap1\n      pop\n        /* \"PFG/AMM.sol\":5003:5022  uint256 token_value */\n      0x00\n        /* \"PFG/AMM.sol\":5071:5086  total_liquidity */\n      sload(0x01)\n        /* \"PFG/AMM.sol\":5034:5042  tokenERC */\n      0x00\n      dup1\n      sload\n      swap1\n      0x0100\n      exp\n      swap1\n      div\n      0xffffffffffffffffffffffffffffffffffffffff\n      and\n        /* \"PFG/AMM.sol\":5034:5052  tokenERC.balanceOf */\n      0xffffffffffffffffffffffffffffffffffffffff\n      and\n      0x70a08231\n        /* \"PFG/AMM.sol\":5061:5065  this */\n      address\n        /* \"PFG/AMM.sol\":5034:5067  tokenERC.balanceOf(address(this)) */\n      mload(0x40)\n      dup3\n      0xffffffff\n      and\n      0xe0\n      shl\n      dup2\n      mstore\n      0x04\n      add\n      tag_117\n      swap2\n      swap1\n      tag_118\n      jump\t// in\n    tag_117:\n      0x20\n      mload(0x40)\n      dup1\n      dup4\n      sub\n      dup2\n      dup7\n      gas\n      staticcall\n      iszero\n      dup1\n      iszero\n      tag_120\n      jumpi\n      returndatasize\n      0x00\n      dup1\n      returndatacopy\n      revert(0x00, returndatasize)\n    tag_120:\n      pop\n      pop\n      pop\n      pop\n      mload(0x40)\n      returndatasize\n      not(0x1f)\n      0x1f\n      dup3\n      add\n      and\n      dup3\n      add\n      dup1\n      0x40\n      mstore\n      pop\n      dup2\n      add\n      swap1\n      tag_121\n      swap2\n      swap1\n      tag_122\n      jump\t// in\n    tag_121:\n        /* \"PFG/AMM.sol\":5026:5031  value */\n      dup7\n        /* \"PFG/AMM.sol\":5026:5067  value * tokenERC.balanceOf(address(this)) */\n      tag_123\n      swap2\n      swap1\n      tag_114\n      jump\t// in\n    tag_123:\n        /* \"PFG/AMM.sol\":5025:5086  (value * tokenERC.balanceOf(address(this))) / total_liquidity */\n      tag_124\n      swap2\n      swap1\n      tag_116\n      jump\t// in\n    tag_124:\n        /* \"PFG/AMM.sol\":5003:5086  uint256 token_value = (value * tokenERC.balanceOf(address(this))) / total_liquidity */\n      swap1\n      pop\n        /* \"PFG/AMM.sol\":5131:5140  eth_value */\n      dup2\n        /* \"PFG/AMM.sol\":5142:5153  token_value */\n      dup2\n        /* \"PFG/AMM.sol\":5123:5154  return (eth_value, token_value) */\n      swap4\n      pop\n      swap4\n      pop\n      pop\n      pop\n        /* \"PFG/AMM.sol\":4811:5168  function liquiditySubstracted(uint256 value) external view returns (uint256, uint256){... */\n      swap2\n      pop\n      swap2\n      jump\t// out\n        /* \"PFG/AMM.sol\":5447:5668  function distributeFee() public{... */\n    tag_39:\n        /* \"PFG/AMM.sol\":5497:5511  uint256 profit */\n      0x00\n        /* \"PFG/AMM.sol\":5526:5530  1000 */\n      0x03e8\n        /* \"PFG/AMM.sol\":5521:5522  3 */\n      0x03\n        /* \"PFG/AMM.sol\":5515:5518  fee */\n      dup1\n      sload\n        /* \"PFG/AMM.sol\":5515:5522  fee * 3 */\n      tag_126\n      swap2\n      swap1\n      tag_114\n      jump\t// in\n    tag_126:\n        /* \"PFG/AMM.sol\":5514:5530  (fee * 3) / 1000 */\n      tag_127\n      swap2\n      swap1\n      tag_116\n      jump\t// in\n    tag_127:\n        /* \"PFG/AMM.sol\":5497:5530  uint256 profit = (fee * 3) / 1000 */\n      swap1\n      pop\n        /* \"PFG/AMM.sol\":5550:5562  bool success */\n      0x00\n        /* \"PFG/AMM.sol\":5568:5577  tx.origin */\n      origin\n        /* \"PFG/AMM.sol\":5568:5582  tx.origin.call */\n      0xffffffffffffffffffffffffffffffffffffffff\n      and\n        /* \"PFG/AMM.sol\":5590:5596  profit */\n      dup3\n        /* \"PFG/AMM.sol\":5568:5601  tx.origin.call{value: profit}(\"\") */\n      mload(0x40)\n      tag_128\n      swap1\n      tag_129\n      jump\t// in\n    tag_128:\n      0x00\n      mload(0x40)\n      dup1\n      dup4\n      sub\n      dup2\n      dup6\n      dup8\n      gas\n      call\n      swap3\n      pop\n      pop\n      pop\n      returndatasize\n      dup1\n      0x00\n      dup2\n      eq\n      tag_132\n      jumpi\n      mload(0x40)\n      swap2\n      pop\n      and(add(returndatasize, 0x3f), not(0x1f))\n      dup3\n      add\n      0x40\n      mstore\n      returndatasize\n      dup3\n      mstore\n      returndatasize\n      0x00\n      0x20\n      dup5\n      add\n      returndatacopy\n      jump(tag_131)\n    tag_132:\n      0x60\n      swap2\n      pop\n    tag_131:\n      pop\n        /* \"PFG/AMM.sol\":5549:5601  (bool success, ) = tx.origin.call{value: profit}(\"\") */\n      pop\n      swap1\n      pop\n        /* \"PFG/AMM.sol\":5628:5635  success */\n      dup1\n        /* \"PFG/AMM.sol\":5620:5656  require(success, \"Transfer failed.\") */\n      tag_133\n      jumpi\n      mload(0x40)\n      0x08c379a000000000000000000000000000000000000000000000000000000000\n      dup2\n      mstore\n      0x04\n      add\n      tag_134\n      swap1\n      tag_135\n      jump\t// in\n    tag_134:\n      mload(0x40)\n      dup1\n      swap2\n      sub\n      swap1\n      revert\n    tag_133:\n        /* \"PFG/AMM.sol\":5478:5668  {... */\n      pop\n      pop\n        /* \"PFG/AMM.sol\":5447:5668  function distributeFee() public{... */\n      jump\t// out\n        /* \"PFG/AMM.sol\":4097:4799  function withdraw(uint256 value) external {... */\n    tag_43:\n        /* \"PFG/AMM.sol\":4158:4175  uint256 eth_value */\n      0x00\n        /* \"PFG/AMM.sol\":4212:4227  total_liquidity */\n      sload(0x01)\n        /* \"PFG/AMM.sol\":4187:4208  address(this).balance */\n      selfbalance\n        /* \"PFG/AMM.sol\":4179:4184  value */\n      dup4\n        /* \"PFG/AMM.sol\":4179:4208  value * address(this).balance */\n      tag_137\n      swap2\n      swap1\n      tag_114\n      jump\t// in\n    tag_137:\n        /* \"PFG/AMM.sol\":4178:4227  (value * address(this).balance) / total_liquidity */\n      tag_138\n      swap2\n      swap1\n      tag_116\n      jump\t// in\n    tag_138:\n        /* \"PFG/AMM.sol\":4158:4227  uint256 eth_value = (value * address(this).balance) / total_liquidity */\n      swap1\n      pop\n        /* \"PFG/AMM.sol\":4246:4265  uint256 token_value */\n      0x00\n        /* \"PFG/AMM.sol\":4314:4329  total_liquidity */\n      sload(0x01)\n        /* \"PFG/AMM.sol\":4277:4285  tokenERC */\n      0x00\n      dup1\n      sload\n      swap1\n      0x0100\n      exp\n      swap1\n      div\n      0xffffffffffffffffffffffffffffffffffffffff\n      and\n        /* \"PFG/AMM.sol\":4277:4295  tokenERC.balanceOf */\n      0xffffffffffffffffffffffffffffffffffffffff\n      and\n      0x70a08231\n        /* \"PFG/AMM.sol\":4304:4308  this */\n      address\n        /* \"PFG/AMM.sol\":4277:4310  tokenERC.balanceOf(address(this)) */\n      mload(0x40)\n      dup3\n      0xffffffff\n      and\n      0xe0\n      shl\n      dup2\n      mstore\n      0x04\n      add\n      tag_139\n      swap2\n      swap1\n      tag_118\n      jump\t// in\n    tag_139:\n      0x20\n      mload(0x40)\n      dup1\n      dup4\n      sub\n      dup2\n      dup7\n      gas\n      staticcall\n      iszero\n      dup1\n      iszero\n      tag_141\n      jumpi\n      returndatasize\n      0x00\n      dup1\n      returndatacopy\n      revert(0x00, returndatasize)\n    tag_141:\n      pop\n      pop\n      pop\n      pop\n      mload(0x40)\n      returndatasize\n      not(0x1f)\n      0x1f\n      dup3\n      add\n      and\n      dup3\n      add\n      dup1\n      0x40\n      mstore\n      pop\n      dup2\n      add\n      swap1\n      tag_142\n      swap2\n      swap1\n      tag_122\n      jump\t// in\n    tag_142:\n        /* \"PFG/AMM.sol\":4269:4274  value */\n      dup5\n        /* \"PFG/AMM.sol\":4269:4310  value * tokenERC.balanceOf(address(this)) */\n      tag_143\n      swap2\n      swap1\n      tag_114\n      jump\t// in\n    tag_143:\n        /* \"PFG/AMM.sol\":4268:4329  (value * tokenERC.balanceOf(address(this))) / total_liquidity */\n      tag_144\n      swap2\n      swap1\n      tag_116\n      jump\t// in\n    tag_144:\n        /* \"PFG/AMM.sol\":4246:4329  uint256 token_value = (value * tokenERC.balanceOf(address(this))) / total_liquidity */\n      swap1\n      pop\n        /* \"PFG/AMM.sol\":4374:4383  eth_value */\n      dup2\n        /* \"PFG/AMM.sol\":4350:4359  liquidity */\n      0x05\n        /* \"PFG/AMM.sol\":4350:4370  liquidity[tx.origin] */\n      0x00\n        /* \"PFG/AMM.sol\":4360:4369  tx.origin */\n      origin\n        /* \"PFG/AMM.sol\":4350:4370  liquidity[tx.origin] */\n      0xffffffffffffffffffffffffffffffffffffffff\n      and\n      0xffffffffffffffffffffffffffffffffffffffff\n      and\n      dup2\n      mstore\n      0x20\n      add\n      swap1\n      dup2\n      mstore\n      0x20\n      add\n      0x00\n      keccak256\n      0x00\n        /* \"PFG/AMM.sol\":4350:4383  liquidity[tx.origin] -= eth_value */\n      dup3\n      dup3\n      sload\n      tag_145\n      swap2\n      swap1\n      tag_146\n      jump\t// in\n    tag_145:\n      swap3\n      pop\n      pop\n      dup2\n      swap1\n      sstore\n      pop\n        /* \"PFG/AMM.sol\":4423:4432  eth_value */\n      dup2\n        /* \"PFG/AMM.sol\":4404:4419  total_liquidity */\n      0x01\n      0x00\n        /* \"PFG/AMM.sol\":4404:4432  total_liquidity -= eth_value */\n      dup3\n      dup3\n      sload\n      tag_147\n      swap2\n      swap1\n      tag_146\n      jump\t// in\n    tag_147:\n      swap3\n      pop\n      pop\n      dup2\n      swap1\n      sstore\n      pop\n        /* \"PFG/AMM.sol\":4454:4466  bool success */\n      0x00\n        /* \"PFG/AMM.sol\":4472:4481  tx.origin */\n      origin\n        /* \"PFG/AMM.sol\":4472:4486  tx.origin.call */\n      0xffffffffffffffffffffffffffffffffffffffff\n      and\n        /* \"PFG/AMM.sol\":4494:4503  eth_value */\n      dup4\n        /* \"PFG/AMM.sol\":4472:4508  tx.origin.call{value: eth_value}(\"\") */\n      mload(0x40)\n      tag_148\n      swap1\n      tag_129\n      jump\t// in\n    tag_148:\n      0x00\n      mload(0x40)\n      dup1\n      dup4\n      sub\n      dup2\n      dup6\n      dup8\n      gas\n      call\n      swap3\n      pop\n      pop\n      pop\n      returndatasize\n      dup1\n      0x00\n      dup2\n      eq\n      tag_151\n      jumpi\n      mload(0x40)\n      swap2\n      pop\n      and(add(returndatasize, 0x3f), not(0x1f))\n      dup3\n      add\n      0x40\n      mstore\n      returndatasize\n      dup3\n      mstore\n      returndatasize\n      0x00\n      0x20\n      dup5\n      add\n      returndatacopy\n      jump(tag_150)\n    tag_151:\n      0x60\n      swap2\n      pop\n    tag_150:\n      pop\n        /* \"PFG/AMM.sol\":4453:4508  (bool success, ) = tx.origin.call{value: eth_value}(\"\") */\n      pop\n      swap1\n      pop\n        /* \"PFG/AMM.sol\":4535:4542  success */\n      dup1\n        /* \"PFG/AMM.sol\":4527:4563  require(success, \"Transfer failed.\") */\n      tag_152\n      jumpi\n      mload(0x40)\n      0x08c379a000000000000000000000000000000000000000000000000000000000\n      dup2\n      mstore\n      0x04\n      add\n      tag_153\n      swap1\n      tag_135\n      jump\t// in\n    tag_153:\n      mload(0x40)\n      dup1\n      swap2\n      sub\n      swap1\n      revert\n    tag_152:\n        /* \"PFG/AMM.sol\":4596:4604  tokenERC */\n      0x00\n      dup1\n      sload\n      swap1\n      0x0100\n      exp\n      swap1\n      div\n      0xffffffffffffffffffffffffffffffffffffffff\n      and\n        /* \"PFG/AMM.sol\":4596:4613  tokenERC.transfer */\n      0xffffffffffffffffffffffffffffffffffffffff\n      and\n      0xa9059cbb\n        /* \"PFG/AMM.sol\":4614:4623  tx.origin */\n      origin\n        /* \"PFG/AMM.sol\":4625:4636  token_value */\n      dup5\n        /* \"PFG/AMM.sol\":4596:4637  tokenERC.transfer(tx.origin, token_value) */\n      mload(0x40)\n      dup4\n      0xffffffff\n      and\n      0xe0\n      shl\n      dup2\n      mstore\n      0x04\n      add\n      tag_154\n      swap3\n      swap2\n      swap1\n      tag_155\n      jump\t// in\n    tag_154:\n      0x20\n      mload(0x40)\n      dup1\n      dup4\n      sub\n      dup2\n      0x00\n      dup8\n      gas\n      call\n      iszero\n      dup1\n      iszero\n      tag_157\n      jumpi\n      returndatasize\n      0x00\n      dup1\n      returndatacopy\n      revert(0x00, returndatasize)\n    tag_157:\n      pop\n      pop\n      pop\n      pop\n      mload(0x40)\n      returndatasize\n      not(0x1f)\n      0x1f\n      dup3\n      add\n      and\n      dup3\n      add\n      dup1\n      0x40\n      mstore\n      pop\n      dup2\n      add\n      swap1\n      tag_158\n      swap2\n      swap1\n      tag_159\n      jump\t// in\n    tag_158:\n        /* \"PFG/AMM.sol\":4588:4638  require(tokenERC.transfer(tx.origin, token_value)) */\n      tag_160\n      jumpi\n      0x00\n      dup1\n      revert\n    tag_160:\n        /* \"PFG/AMM.sol\":4664:4696  Withdraw(eth_value, token_value) */\n      0x56ca301a9219608c91e7bcee90e083c19671d2cdcc96752c7af291cee5f9c8c8\n        /* \"PFG/AMM.sol\":4673:4682  eth_value */\n      dup4\n        /* \"PFG/AMM.sol\":4684:4695  token_value */\n      dup4\n        /* \"PFG/AMM.sol\":4664:4696  Withdraw(eth_value, token_value) */\n      mload(0x40)\n      tag_161\n      swap3\n      swap2\n      swap1\n      tag_36\n      jump\t// in\n    tag_161:\n      mload(0x40)\n      dup1\n      swap2\n      sub\n      swap1\n      log1\n        /* \"PFG/AMM.sol\":4730:4739  eth_value */\n      dup3\n        /* \"PFG/AMM.sol\":4715:4727  eth_received */\n      0x07\n        /* \"PFG/AMM.sol\":4715:4739  eth_received = eth_value */\n      dup2\n      swap1\n      sstore\n      pop\n        /* \"PFG/AMM.sol\":4776:4787  token_value */\n      dup2\n        /* \"PFG/AMM.sol\":4758:4773  tokens_received */\n      0x06\n        /* \"PFG/AMM.sol\":4758:4787  tokens_received = token_value */\n      dup2\n      swap1\n      sstore\n      pop\n        /* \"PFG/AMM.sol\":4139:4799  {... */\n      pop\n      pop\n      pop\n        /* \"PFG/AMM.sol\":4097:4799  function withdraw(uint256 value) external {... */\n      pop\n      jump\t// out\n        /* \"PFG/AMM.sol\":187:217  uint256 public total_liquidity */\n    tag_46:\n      sload(0x01)\n      dup2\n      jump\t// out\n        /* \"PFG/AMM.sol\":3728:4083  function liquidityAdded(uint256 eth) external view returns (uint256, uint256){... */\n    tag_51:\n        /* \"PFG/AMM.sol\":3788:3795  uint256 */\n      0x00\n        /* \"PFG/AMM.sol\":3797:3804  uint256 */\n      dup1\n        /* \"PFG/AMM.sol\":3824:3844  uint256 token_amount */\n      0x00\n        /* \"PFG/AMM.sol\":3893:3914  address(this).balance */\n      selfbalance\n        /* \"PFG/AMM.sol\":3855:3863  tokenERC */\n      0x00\n      dup1\n      sload\n      swap1\n      0x0100\n      exp\n      swap1\n      div\n      0xffffffffffffffffffffffffffffffffffffffff\n      and\n        /* \"PFG/AMM.sol\":3855:3873  tokenERC.balanceOf */\n      0xffffffffffffffffffffffffffffffffffffffff\n      and\n      0x70a08231\n        /* \"PFG/AMM.sol\":3882:3886  this */\n      address\n        /* \"PFG/AMM.sol\":3855:3888  tokenERC.balanceOf(address(this)) */\n      mload(0x40)\n      dup3\n      0xffffffff\n      and\n      0xe0\n      shl\n      dup2\n      mstore\n      0x04\n      add\n      tag_163\n      swap2\n      swap1\n      tag_118\n      jump\t// in\n    tag_163:\n      0x20\n      mload(0x40)\n      dup1\n      dup4\n      sub\n      dup2\n      dup7\n      gas\n      staticcall\n      iszero\n      dup1\n      iszero\n      tag_165\n      jumpi\n      returndatasize\n      0x00\n      dup1\n      returndatacopy\n      revert(0x00, returndatasize)\n    tag_165:\n      pop\n      pop\n      pop\n      pop\n      mload(0x40)\n      returndatasize\n      not(0x1f)\n      0x1f\n      dup3\n      add\n      and\n      dup3\n      add\n      dup1\n      0x40\n      mstore\n      pop\n      dup2\n      add\n      swap1\n      tag_166\n      swap2\n      swap1\n      tag_122\n      jump\t// in\n    tag_166:\n        /* \"PFG/AMM.sol\":3849:3852  eth */\n      dup6\n        /* \"PFG/AMM.sol\":3849:3888  eth * tokenERC.balanceOf(address(this)) */\n      tag_167\n      swap2\n      swap1\n      tag_114\n      jump\t// in\n    tag_167:\n        /* \"PFG/AMM.sol\":3848:3915  (eth * tokenERC.balanceOf(address(this))) / (address(this).balance) */\n      tag_168\n      swap2\n      swap1\n      tag_116\n      jump\t// in\n    tag_168:\n        /* \"PFG/AMM.sol\":3824:3916  uint256 token_amount = ((eth * tokenERC.balanceOf(address(this))) / (address(this).balance)) */\n      swap1\n      pop\n        /* \"PFG/AMM.sol\":3935:3958  uint256 liquidity_added */\n      0x00\n        /* \"PFG/AMM.sol\":3988:4009  address(this).balance */\n      selfbalance\n        /* \"PFG/AMM.sol\":3968:3983  total_liquidity */\n      sload(0x01)\n        /* \"PFG/AMM.sol\":3962:3965  eth */\n      dup7\n        /* \"PFG/AMM.sol\":3962:3983  eth * total_liquidity */\n      tag_169\n      swap2\n      swap1\n      tag_114\n      jump\t// in\n    tag_169:\n        /* \"PFG/AMM.sol\":3961:4010  (eth * total_liquidity) / (address(this).balance) */\n      tag_170\n      swap2\n      swap1\n      tag_116\n      jump\t// in\n    tag_170:\n        /* \"PFG/AMM.sol\":3935:4010  uint256 liquidity_added = (eth * total_liquidity) / (address(this).balance) */\n      swap1\n      pop\n        /* \"PFG/AMM.sol\":4039:4051  token_amount */\n      dup2\n        /* \"PFG/AMM.sol\":4053:4068  liquidity_added */\n      dup2\n        /* \"PFG/AMM.sol\":4031:4069  return (token_amount, liquidity_added) */\n      swap4\n      pop\n      swap4\n      pop\n      pop\n      pop\n        /* \"PFG/AMM.sol\":3728:4083  function liquidityAdded(uint256 eth) external view returns (uint256, uint256){... */\n      swap2\n      pop\n      swap2\n      jump\t// out\n        /* \"PFG/AMM.sol\":5680:5794  function invested(address who) external view returns (uint256){... */\n    tag_57:\n        /* \"PFG/AMM.sol\":5734:5741  uint256 */\n      0x00\n        /* \"PFG/AMM.sol\":5768:5777  investors */\n      0x04\n        /* \"PFG/AMM.sol\":5768:5782  investors[who] */\n      0x00\n        /* \"PFG/AMM.sol\":5778:5781  who */\n      dup4\n        /* \"PFG/AMM.sol\":5768:5782  investors[who] */\n      0xffffffffffffffffffffffffffffffffffffffff\n      and\n      0xffffffffffffffffffffffffffffffffffffffff\n      and\n      dup2\n      mstore\n      0x20\n      add\n      swap1\n      dup2\n      mstore\n      0x20\n      add\n      0x00\n      keccak256\n      sload\n        /* \"PFG/AMM.sol\":5761:5782  return investors[who] */\n      swap1\n      pop\n        /* \"PFG/AMM.sol\":5680:5794  function invested(address who) external view returns (uint256){... */\n      swap2\n      swap1\n      pop\n      jump\t// out\n        /* \"PFG/AMM.sol\":1901:2077  function priceETH(uint256 erc) external view returns(uint256){... */\n    tag_62:\n        /* \"PFG/AMM.sol\":1954:1961  uint256 */\n      0x00\n        /* \"PFG/AMM.sol\":1988:2065  calculatePrice(erc, tokenERC.balanceOf(address(this)), address(this).balance) */\n      tag_173\n        /* \"PFG/AMM.sol\":2003:2006  erc */\n      dup3\n        /* \"PFG/AMM.sol\":2008:2016  tokenERC */\n      0x00\n      dup1\n      sload\n      swap1\n      0x0100\n      exp\n      swap1\n      div\n      0xffffffffffffffffffffffffffffffffffffffff\n      and\n        /* \"PFG/AMM.sol\":2008:2026  tokenERC.balanceOf */\n      0xffffffffffffffffffffffffffffffffffffffff\n      and\n      0x70a08231\n        /* \"PFG/AMM.sol\":2035:2039  this */\n      address\n        /* \"PFG/AMM.sol\":2008:2041  tokenERC.balanceOf(address(this)) */\n      mload(0x40)\n      dup3\n      0xffffffff\n      and\n      0xe0\n      shl\n      dup2\n      mstore\n      0x04\n      add\n      tag_174\n      swap2\n      swap1\n      tag_118\n      jump\t// in\n    tag_174:\n      0x20\n      mload(0x40)\n      dup1\n      dup4\n      sub\n      dup2\n      dup7\n      gas\n      staticcall\n      iszero\n      dup1\n      iszero\n      tag_176\n      jumpi\n      returndatasize\n      0x00\n      dup1\n      returndatacopy\n      revert(0x00, returndatasize)\n    tag_176:\n      pop\n      pop\n      pop\n      pop\n      mload(0x40)\n      returndatasize\n      not(0x1f)\n      0x1f\n      dup3\n      add\n      and\n      dup3\n      add\n      dup1\n      0x40\n      mstore\n      pop\n      dup2\n      add\n      swap1\n      tag_177\n      swap2\n      swap1\n      tag_122\n      jump\t// in\n    tag_177:\n        /* \"PFG/AMM.sol\":2043:2064  address(this).balance */\n      selfbalance\n        /* \"PFG/AMM.sol\":1988:2002  calculatePrice */\n      tag_178\n        /* \"PFG/AMM.sol\":1988:2065  calculatePrice(erc, tokenERC.balanceOf(address(this)), address(this).balance) */\n      jump\t// in\n    tag_173:\n        /* \"PFG/AMM.sol\":1981:2065  return calculatePrice(erc, tokenERC.balanceOf(address(this)), address(this).balance) */\n      swap1\n      pop\n        /* \"PFG/AMM.sol\":1901:2077  function priceETH(uint256 erc) external view returns(uint256){... */\n      swap2\n      swap1\n      pop\n      jump\t// out\n        /* \"PFG/AMM.sol\":363:407  mapping(address => uint256) public investors */\n    tag_67:\n      mstore(0x20, 0x04)\n      dup1\n      0x00\n      mstore\n      keccak256(0x00, 0x40)\n      0x00\n      swap2\n      pop\n      swap1\n      pop\n      sload\n      dup2\n      jump\t// out\n        /* \"PFG/AMM.sol\":854:878  uint256 public liq_added */\n    tag_71:\n      sload(0x08)\n      dup2\n      jump\t// out\n        /* \"PFG/AMM.sol\":1705:1889  function priceERC(uint256 eth) external view returns(uint256){... */\n    tag_76:\n        /* \"PFG/AMM.sol\":1758:1765  uint256 */\n      0x00\n        /* \"PFG/AMM.sol\":1792:1877  calculatePrice(eth, (address(this).balance - eth), tokenERC.balanceOf(address(this))) */\n      tag_180\n        /* \"PFG/AMM.sol\":1807:1810  eth */\n      dup3\n        /* \"PFG/AMM.sol\":1837:1840  eth */\n      dup4\n        /* \"PFG/AMM.sol\":1813:1834  address(this).balance */\n      selfbalance\n        /* \"PFG/AMM.sol\":1813:1840  address(this).balance - eth */\n      tag_181\n      swap2\n      swap1\n      tag_146\n      jump\t// in\n    tag_181:\n        /* \"PFG/AMM.sol\":1843:1851  tokenERC */\n      0x00\n      dup1\n      sload\n      swap1\n      0x0100\n      exp\n      swap1\n      div\n      0xffffffffffffffffffffffffffffffffffffffff\n      and\n        /* \"PFG/AMM.sol\":1843:1861  tokenERC.balanceOf */\n      0xffffffffffffffffffffffffffffffffffffffff\n      and\n      0x70a08231\n        /* \"PFG/AMM.sol\":1870:1874  this */\n      address\n        /* \"PFG/AMM.sol\":1843:1876  tokenERC.balanceOf(address(this)) */\n      mload(0x40)\n      dup3\n      0xffffffff\n      and\n      0xe0\n      shl\n      dup2\n      mstore\n      0x04\n      add\n      tag_182\n      swap2\n      swap1\n      tag_118\n      jump\t// in\n    tag_182:\n      0x20\n      mload(0x40)\n      dup1\n      dup4\n      sub\n      dup2\n      dup7\n      gas\n      staticcall\n      iszero\n      dup1\n      iszero\n      tag_184\n      jumpi\n      returndatasize\n      0x00\n      dup1\n      returndatacopy\n      revert(0x00, returndatasize)\n    tag_184:\n      pop\n      pop\n      pop\n      pop\n      mload(0x40)\n      returndatasize\n      not(0x1f)\n      0x1f\n      dup3\n      add\n      and\n      dup3\n      add\n      dup1\n      0x40\n      mstore\n      pop\n      dup2\n      add\n      swap1\n      tag_185\n      swap2\n      swap1\n      tag_122\n      jump\t// in\n    tag_185:\n        /* \"PFG/AMM.sol\":1792:1806  calculatePrice */\n      tag_178\n        /* \"PFG/AMM.sol\":1792:1877  calculatePrice(eth, (address(this).balance - eth), tokenERC.balanceOf(address(this))) */\n      jump\t// in\n    tag_180:\n        /* \"PFG/AMM.sol\":1785:1877  return calculatePrice(eth, (address(this).balance - eth), tokenERC.balanceOf(address(this))) */\n      swap1\n      pop\n        /* \"PFG/AMM.sol\":1705:1889  function priceERC(uint256 eth) external view returns(uint256){... */\n      swap2\n      swap1\n      pop\n      jump\t// out\n        /* \"PFG/AMM.sol\":775:805  uint256 public tokens_received */\n    tag_80:\n      sload(0x06)\n      dup2\n      jump\t// out\n        /* \"PFG/AMM.sol\":2089:2552  function ethToErc() external payable {... */\n    tag_83:\n        /* \"PFG/AMM.sol\":2145:2167  uint256 tokens_swapped */\n      0x00\n        /* \"PFG/AMM.sol\":2170:2267  calculatePrice(msg.value, (address(this).balance - msg.value), tokenERC.balanceOf(address(this))) */\n      tag_187\n        /* \"PFG/AMM.sol\":2185:2194  msg.value */\n      callvalue\n        /* \"PFG/AMM.sol\":2221:2230  msg.value */\n      callvalue\n        /* \"PFG/AMM.sol\":2197:2218  address(this).balance */\n      selfbalance\n        /* \"PFG/AMM.sol\":2197:2230  address(this).balance - msg.value */\n      tag_188\n      swap2\n      swap1\n      tag_146\n      jump\t// in\n    tag_188:\n        /* \"PFG/AMM.sol\":2233:2241  tokenERC */\n      0x00\n      dup1\n      sload\n      swap1\n      0x0100\n      exp\n      swap1\n      div\n      0xffffffffffffffffffffffffffffffffffffffff\n      and\n        /* \"PFG/AMM.sol\":2233:2251  tokenERC.balanceOf */\n      0xffffffffffffffffffffffffffffffffffffffff\n      and\n      0x70a08231\n        /* \"PFG/AMM.sol\":2260:2264  this */\n      address\n        /* \"PFG/AMM.sol\":2233:2266  tokenERC.balanceOf(address(this)) */\n      mload(0x40)\n      dup3\n      0xffffffff\n      and\n      0xe0\n      shl\n      dup2\n      mstore\n      0x04\n      add\n      tag_189\n      swap2\n      swap1\n      tag_118\n      jump\t// in\n    tag_189:\n      0x20\n      mload(0x40)\n      dup1\n      dup4\n      sub\n      dup2\n      dup7\n      gas\n      staticcall\n      iszero\n      dup1\n      iszero\n      tag_191\n      jumpi\n      returndatasize\n      0x00\n      dup1\n      returndatacopy\n      revert(0x00, returndatasize)\n    tag_191:\n      pop\n      pop\n      pop\n      pop\n      mload(0x40)\n      returndatasize\n      not(0x1f)\n      0x1f\n      dup3\n      add\n      and\n      dup3\n      add\n      dup1\n      0x40\n      mstore\n      pop\n      dup2\n      add\n      swap1\n      tag_192\n      swap2\n      swap1\n      tag_122\n      jump\t// in\n    tag_192:\n        /* \"PFG/AMM.sol\":2170:2184  calculatePrice */\n      tag_178\n        /* \"PFG/AMM.sol\":2170:2267  calculatePrice(msg.value, (address(this).balance - msg.value), tokenERC.balanceOf(address(this))) */\n      jump\t// in\n    tag_187:\n        /* \"PFG/AMM.sol\":2145:2267  uint256 tokens_swapped = calculatePrice(msg.value, (address(this).balance - msg.value), tokenERC.balanceOf(address(this))) */\n      swap1\n      pop\n        /* \"PFG/AMM.sol\":2296:2304  tokenERC */\n      0x00\n      dup1\n      sload\n      swap1\n      0x0100\n      exp\n      swap1\n      div\n      0xffffffffffffffffffffffffffffffffffffffff\n      and\n        /* \"PFG/AMM.sol\":2296:2313  tokenERC.transfer */\n      0xffffffffffffffffffffffffffffffffffffffff\n      and\n      0xa9059cbb\n        /* \"PFG/AMM.sol\":2314:2323  tx.origin */\n      origin\n        /* \"PFG/AMM.sol\":2325:2339  tokens_swapped */\n      dup4\n        /* \"PFG/AMM.sol\":2296:2340  tokenERC.transfer(tx.origin, tokens_swapped) */\n      mload(0x40)\n      dup4\n      0xffffffff\n      and\n      0xe0\n      shl\n      dup2\n      mstore\n      0x04\n      add\n      tag_193\n      swap3\n      swap2\n      swap1\n      tag_155\n      jump\t// in\n    tag_193:\n      0x20\n      mload(0x40)\n      dup1\n      dup4\n      sub\n      dup2\n      0x00\n      dup8\n      gas\n      call\n      iszero\n      dup1\n      iszero\n      tag_195\n      jumpi\n      returndatasize\n      0x00\n      dup1\n      returndatacopy\n      revert(0x00, returndatasize)\n    tag_195:\n      pop\n      pop\n      pop\n      pop\n      mload(0x40)\n      returndatasize\n      not(0x1f)\n      0x1f\n      dup3\n      add\n      and\n      dup3\n      add\n      dup1\n      0x40\n      mstore\n      pop\n      dup2\n      add\n      swap1\n      tag_196\n      swap2\n      swap1\n      tag_159\n      jump\t// in\n    tag_196:\n        /* \"PFG/AMM.sol\":2288:2341  require(tokenERC.transfer(tx.origin, tokens_swapped)) */\n      tag_197\n      jumpi\n      0x00\n      dup1\n      revert\n    tag_197:\n        /* \"PFG/AMM.sol\":2369:2378  msg.value */\n      callvalue\n        /* \"PFG/AMM.sol\":2362:2365  fee */\n      0x03\n      0x00\n        /* \"PFG/AMM.sol\":2362:2378  fee += msg.value */\n      dup3\n      dup3\n      sload\n      tag_198\n      swap2\n      swap1\n      tag_199\n      jump\t// in\n    tag_198:\n      swap3\n      pop\n      pop\n      dup2\n      swap1\n      sstore\n      pop\n        /* \"PFG/AMM.sol\":2421:2430  msg.value */\n      callvalue\n        /* \"PFG/AMM.sol\":2397:2406  investors */\n      0x04\n        /* \"PFG/AMM.sol\":2397:2417  investors[tx.origin] */\n      0x00\n        /* \"PFG/AMM.sol\":2407:2416  tx.origin */\n      origin\n        /* \"PFG/AMM.sol\":2397:2417  investors[tx.origin] */\n      0xffffffffffffffffffffffffffffffffffffffff\n      and\n      0xffffffffffffffffffffffffffffffffffffffff\n      and\n      dup2\n      mstore\n      0x20\n      add\n      swap1\n      dup2\n      mstore\n      0x20\n      add\n      0x00\n      keccak256\n      0x00\n        /* \"PFG/AMM.sol\":2397:2430  investors[tx.origin] += msg.value */\n      dup3\n      dup3\n      sload\n      tag_200\n      swap2\n      swap1\n      tag_199\n      jump\t// in\n    tag_200:\n      swap3\n      pop\n      pop\n      dup2\n      swap1\n      sstore\n      pop\n        /* \"PFG/AMM.sol\":2469:2483  tokens_swapped */\n      dup1\n        /* \"PFG/AMM.sol\":2451:2466  tokens_received */\n      0x06\n        /* \"PFG/AMM.sol\":2451:2483  tokens_received = tokens_swapped */\n      dup2\n      swap1\n      sstore\n      pop\n        /* \"PFG/AMM.sol\":2509:2538  TokensSwapped(tokens_swapped) */\n      0xdb04c7a6d4758fd55d738ebc67e7f3010ac922be00771ef29521a4090d1eb13f\n        /* \"PFG/AMM.sol\":2523:2537  tokens_swapped */\n      dup2\n        /* \"PFG/AMM.sol\":2509:2538  TokensSwapped(tokens_swapped) */\n      mload(0x40)\n      tag_201\n      swap2\n      swap1\n      tag_29\n      jump\t// in\n    tag_201:\n      mload(0x40)\n      dup1\n      swap2\n      sub\n      swap1\n      log1\n        /* \"PFG/AMM.sol\":2126:2552  {... */\n      pop\n        /* \"PFG/AMM.sol\":2089:2552  function ethToErc() external payable {... */\n      jump\t// out\n        /* \"PFG/AMM.sol\":5180:5310  function getTokenBalance() external view returns (uint256) {... */\n    tag_86:\n        /* \"PFG/AMM.sol\":5230:5237  uint256 */\n      0x00\n        /* \"PFG/AMM.sol\":5265:5273  tokenERC */\n      dup1\n      0x00\n      swap1\n      sload\n      swap1\n      0x0100\n      exp\n      swap1\n      div\n      0xffffffffffffffffffffffffffffffffffffffff\n      and\n        /* \"PFG/AMM.sol\":5265:5283  tokenERC.balanceOf */\n      0xffffffffffffffffffffffffffffffffffffffff\n      and\n      0x70a08231\n        /* \"PFG/AMM.sol\":5292:5296  this */\n      address\n        /* \"PFG/AMM.sol\":5265:5298  tokenERC.balanceOf(address(this)) */\n      mload(0x40)\n      dup3\n      0xffffffff\n      and\n      0xe0\n      shl\n      dup2\n      mstore\n      0x04\n      add\n      tag_203\n      swap2\n      swap1\n      tag_118\n      jump\t// in\n    tag_203:\n      0x20\n      mload(0x40)\n      dup1\n      dup4\n      sub\n      dup2\n      dup7\n      gas\n      staticcall\n      iszero\n      dup1\n      iszero\n      tag_205\n      jumpi\n      returndatasize\n      0x00\n      dup1\n      returndatacopy\n      revert(0x00, returndatasize)\n    tag_205:\n      pop\n      pop\n      pop\n      pop\n      mload(0x40)\n      returndatasize\n      not(0x1f)\n      0x1f\n      dup3\n      add\n      and\n      dup3\n      add\n      dup1\n      0x40\n      mstore\n      pop\n      dup2\n      add\n      swap1\n      tag_206\n      swap2\n      swap1\n      tag_122\n      jump\t// in\n    tag_206:\n        /* \"PFG/AMM.sol\":5258:5298  return tokenERC.balanceOf(address(this)) */\n      swap1\n      pop\n        /* \"PFG/AMM.sol\":5180:5310  function getTokenBalance() external view returns (uint256) {... */\n      swap1\n      jump\t// out\n        /* \"PFG/AMM.sol\":816:843  uint256 public eth_received */\n    tag_90:\n      sload(0x07)\n      dup2\n      jump\t// out\n        /* \"PFG/AMM.sol\":444:489  mapping (address => uint256) public liquidity */\n    tag_95:\n      mstore(0x20, 0x05)\n      dup1\n      0x00\n      mstore\n      keccak256(0x00, 0x40)\n      0x00\n      swap2\n      pop\n      swap1\n      pop\n      sload\n      dup2\n      jump\t// out\n        /* \"PFG/AMM.sol\":967:1467  function initialize(address token_address, uint256 token_amount) external payable {... */\n    tag_100:\n        /* \"PFG/AMM.sol\":1095:1096  0 */\n      0x00\n        /* \"PFG/AMM.sol\":1076:1091  total_liquidity */\n      sload(0x01)\n        /* \"PFG/AMM.sol\":1076:1096  total_liquidity == 0 */\n      eq\n        /* \"PFG/AMM.sol\":1068:1097  require(total_liquidity == 0) */\n      tag_208\n      jumpi\n      0x00\n      dup1\n      revert\n    tag_208:\n        /* \"PFG/AMM.sol\":1140:1141  0 */\n      0x00\n        /* \"PFG/AMM.sol\":1134:1137  fee */\n      0x03\n        /* \"PFG/AMM.sol\":1134:1141  fee = 0 */\n      dup2\n      swap1\n      sstore\n      pop\n        /* \"PFG/AMM.sol\":1178:1191  token_address */\n      dup2\n        /* \"PFG/AMM.sol\":1160:1168  tokenERC */\n      0x00\n      dup1\n        /* \"PFG/AMM.sol\":1160:1192  tokenERC = IERC20(token_address) */\n      0x0100\n      exp\n      dup2\n      sload\n      dup2\n      0xffffffffffffffffffffffffffffffffffffffff\n      mul\n      not\n      and\n      swap1\n      dup4\n      0xffffffffffffffffffffffffffffffffffffffff\n      and\n      mul\n      or\n      swap1\n      sstore\n      pop\n        /* \"PFG/AMM.sol\":1231:1252  address(this).balance */\n      selfbalance\n        /* \"PFG/AMM.sol\":1213:1228  total_liquidity */\n      0x01\n        /* \"PFG/AMM.sol\":1213:1252  total_liquidity = address(this).balance */\n      dup2\n      swap1\n      sstore\n      pop\n        /* \"PFG/AMM.sol\":1295:1310  total_liquidity */\n      sload(0x01)\n        /* \"PFG/AMM.sol\":1271:1280  liquidity */\n      0x05\n        /* \"PFG/AMM.sol\":1271:1292  liquidity[msg.sender] */\n      0x00\n        /* \"PFG/AMM.sol\":1281:1291  msg.sender */\n      caller\n        /* \"PFG/AMM.sol\":1271:1292  liquidity[msg.sender] */\n      0xffffffffffffffffffffffffffffffffffffffff\n      and\n      0xffffffffffffffffffffffffffffffffffffffff\n      and\n      dup2\n      mstore\n      0x20\n      add\n      swap1\n      dup2\n      mstore\n      0x20\n      add\n      0x00\n      keccak256\n        /* \"PFG/AMM.sol\":1271:1310  liquidity[msg.sender] = total_liquidity */\n      dup2\n      swap1\n      sstore\n      pop\n        /* \"PFG/AMM.sol\":1339:1347  tokenERC */\n      0x00\n      dup1\n      sload\n      swap1\n      0x0100\n      exp\n      swap1\n      div\n      0xffffffffffffffffffffffffffffffffffffffff\n      and\n        /* \"PFG/AMM.sol\":1339:1360  tokenERC.transferFrom */\n      0xffffffffffffffffffffffffffffffffffffffff\n      and\n      0x23b872dd\n        /* \"PFG/AMM.sol\":1361:1371  msg.sender */\n      caller\n        /* \"PFG/AMM.sol\":1381:1385  this */\n      address\n        /* \"PFG/AMM.sol\":1388:1400  token_amount */\n      dup5\n        /* \"PFG/AMM.sol\":1339:1401  tokenERC.transferFrom(msg.sender, address(this), token_amount) */\n      mload(0x40)\n      dup5\n      0xffffffff\n      and\n      0xe0\n      shl\n      dup2\n      mstore\n      0x04\n      add\n      tag_209\n      swap4\n      swap3\n      swap2\n      swap1\n      tag_210\n      jump\t// in\n    tag_209:\n      0x20\n      mload(0x40)\n      dup1\n      dup4\n      sub\n      dup2\n      0x00\n      dup8\n      gas\n      call\n      iszero\n      dup1\n      iszero\n      tag_212\n      jumpi\n      returndatasize\n      0x00\n      dup1\n      returndatacopy\n      revert(0x00, returndatasize)\n    tag_212:\n      pop\n      pop\n      pop\n      pop\n      mload(0x40)\n      returndatasize\n      not(0x1f)\n      0x1f\n      dup3\n      add\n      and\n      dup3\n      add\n      dup1\n      0x40\n      mstore\n      pop\n      dup2\n      add\n      swap1\n      tag_213\n      swap2\n      swap1\n      tag_159\n      jump\t// in\n    tag_213:\n        /* \"PFG/AMM.sol\":1331:1402  require(tokenERC.transferFrom(msg.sender, address(this), token_amount)) */\n      tag_214\n      jumpi\n      0x00\n      dup1\n      revert\n    tag_214:\n        /* \"PFG/AMM.sol\":1428:1455  Initialize(total_liquidity) */\n      0xc43e48cf47e9fa186d0f4096c61d1fcb54159799f935a2aa32e5589688ee36e1\n        /* \"PFG/AMM.sol\":1439:1454  total_liquidity */\n      sload(0x01)\n        /* \"PFG/AMM.sol\":1428:1455  Initialize(total_liquidity) */\n      mload(0x40)\n      tag_215\n      swap2\n      swap1\n      tag_29\n      jump\t// in\n    tag_215:\n      mload(0x40)\n      dup1\n      swap2\n      sub\n      swap1\n      log1\n        /* \"PFG/AMM.sol\":967:1467  function initialize(address token_address, uint256 token_amount) external payable {... */\n      pop\n      pop\n      jump\t// out\n        /* \"PFG/AMM.sol\":3125:3716  function deposit() external payable {... */\n    tag_102:\n        /* \"PFG/AMM.sol\":3180:3200  uint256 token_amount */\n      0x00\n        /* \"PFG/AMM.sol\":3279:3288  msg.value */\n      callvalue\n        /* \"PFG/AMM.sol\":3255:3276  address(this).balance */\n      selfbalance\n        /* \"PFG/AMM.sol\":3255:3288  address(this).balance - msg.value */\n      tag_217\n      swap2\n      swap1\n      tag_146\n      jump\t// in\n    tag_217:\n        /* \"PFG/AMM.sol\":3217:3225  tokenERC */\n      0x00\n      dup1\n      sload\n      swap1\n      0x0100\n      exp\n      swap1\n      div\n      0xffffffffffffffffffffffffffffffffffffffff\n      and\n        /* \"PFG/AMM.sol\":3217:3235  tokenERC.balanceOf */\n      0xffffffffffffffffffffffffffffffffffffffff\n      and\n      0x70a08231\n        /* \"PFG/AMM.sol\":3244:3248  this */\n      address\n        /* \"PFG/AMM.sol\":3217:3250  tokenERC.balanceOf(address(this)) */\n      mload(0x40)\n      dup3\n      0xffffffff\n      and\n      0xe0\n      shl\n      dup2\n      mstore\n      0x04\n      add\n      tag_218\n      swap2\n      swap1\n      tag_118\n      jump\t// in\n    tag_218:\n      0x20\n      mload(0x40)\n      dup1\n      dup4\n      sub\n      dup2\n      dup7\n      gas\n      staticcall\n      iszero\n      dup1\n      iszero\n      tag_220\n      jumpi\n      returndatasize\n      0x00\n      dup1\n      returndatacopy\n      revert(0x00, returndatasize)\n    tag_220:\n      pop\n      pop\n      pop\n      pop\n      mload(0x40)\n      returndatasize\n      not(0x1f)\n      0x1f\n      dup3\n      add\n      and\n      dup3\n      add\n      dup1\n      0x40\n      mstore\n      pop\n      dup2\n      add\n      swap1\n      tag_221\n      swap2\n      swap1\n      tag_122\n      jump\t// in\n    tag_221:\n        /* \"PFG/AMM.sol\":3205:3214  msg.value */\n      callvalue\n        /* \"PFG/AMM.sol\":3205:3250  msg.value * tokenERC.balanceOf(address(this)) */\n      tag_222\n      swap2\n      swap1\n      tag_114\n      jump\t// in\n    tag_222:\n        /* \"PFG/AMM.sol\":3204:3289  (msg.value * tokenERC.balanceOf(address(this))) / (address(this).balance - msg.value) */\n      tag_223\n      swap2\n      swap1\n      tag_116\n      jump\t// in\n    tag_223:\n        /* \"PFG/AMM.sol\":3180:3290  uint256 token_amount = ((msg.value * tokenERC.balanceOf(address(this))) / (address(this).balance - msg.value)) */\n      swap1\n      pop\n        /* \"PFG/AMM.sol\":3309:3332  uint256 liquidity_added */\n      0x00\n        /* \"PFG/AMM.sol\":3392:3401  msg.value */\n      callvalue\n        /* \"PFG/AMM.sol\":3368:3389  address(this).balance */\n      selfbalance\n        /* \"PFG/AMM.sol\":3368:3401  address(this).balance - msg.value */\n      tag_224\n      swap2\n      swap1\n      tag_146\n      jump\t// in\n    tag_224:\n        /* \"PFG/AMM.sol\":3348:3363  total_liquidity */\n      sload(0x01)\n        /* \"PFG/AMM.sol\":3336:3345  msg.value */\n      callvalue\n        /* \"PFG/AMM.sol\":3336:3363  msg.value * total_liquidity */\n      tag_225\n      swap2\n      swap1\n      tag_114\n      jump\t// in\n    tag_225:\n        /* \"PFG/AMM.sol\":3335:3402  (msg.value * total_liquidity) / (address(this).balance - msg.value) */\n      tag_226\n      swap2\n      swap1\n      tag_116\n      jump\t// in\n    tag_226:\n        /* \"PFG/AMM.sol\":3309:3402  uint256 liquidity_added = (msg.value * total_liquidity) / (address(this).balance - msg.value) */\n      swap1\n      pop\n        /* \"PFG/AMM.sol\":3447:3462  liquidity_added */\n      dup1\n        /* \"PFG/AMM.sol\":3423:3432  liquidity */\n      0x05\n        /* \"PFG/AMM.sol\":3423:3443  liquidity[tx.origin] */\n      0x00\n        /* \"PFG/AMM.sol\":3433:3442  tx.origin */\n      origin\n        /* \"PFG/AMM.sol\":3423:3443  liquidity[tx.origin] */\n      0xffffffffffffffffffffffffffffffffffffffff\n      and\n      0xffffffffffffffffffffffffffffffffffffffff\n      and\n      dup2\n      mstore\n      0x20\n      add\n      swap1\n      dup2\n      mstore\n      0x20\n      add\n      0x00\n      keccak256\n      0x00\n        /* \"PFG/AMM.sol\":3423:3462  liquidity[tx.origin] += liquidity_added */\n      dup3\n      dup3\n      sload\n      tag_227\n      swap2\n      swap1\n      tag_199\n      jump\t// in\n    tag_227:\n      swap3\n      pop\n      pop\n      dup2\n      swap1\n      sstore\n      pop\n        /* \"PFG/AMM.sol\":3502:3517  liquidity_added */\n      dup1\n        /* \"PFG/AMM.sol\":3483:3498  total_liquidity */\n      0x01\n      0x00\n        /* \"PFG/AMM.sol\":3483:3517  total_liquidity += liquidity_added */\n      dup3\n      dup3\n      sload\n      tag_228\n      swap2\n      swap1\n      tag_199\n      jump\t// in\n    tag_228:\n      swap3\n      pop\n      pop\n      dup2\n      swap1\n      sstore\n      pop\n        /* \"PFG/AMM.sol\":3546:3554  tokenERC */\n      0x00\n      dup1\n      sload\n      swap1\n      0x0100\n      exp\n      swap1\n      div\n      0xffffffffffffffffffffffffffffffffffffffff\n      and\n        /* \"PFG/AMM.sol\":3546:3567  tokenERC.transferFrom */\n      0xffffffffffffffffffffffffffffffffffffffff\n      and\n      0x23b872dd\n        /* \"PFG/AMM.sol\":3568:3577  tx.origin */\n      origin\n        /* \"PFG/AMM.sol\":3587:3591  this */\n      address\n        /* \"PFG/AMM.sol\":3594:3606  token_amount */\n      dup6\n        /* \"PFG/AMM.sol\":3546:3607  tokenERC.transferFrom(tx.origin, address(this), token_amount) */\n      mload(0x40)\n      dup5\n      0xffffffff\n      and\n      0xe0\n      shl\n      dup2\n      mstore\n      0x04\n      add\n      tag_229\n      swap4\n      swap3\n      swap2\n      swap1\n      tag_210\n      jump\t// in\n    tag_229:\n      0x20\n      mload(0x40)\n      dup1\n      dup4\n      sub\n      dup2\n      0x00\n      dup8\n      gas\n      call\n      iszero\n      dup1\n      iszero\n      tag_231\n      jumpi\n      returndatasize\n      0x00\n      dup1\n      returndatacopy\n      revert(0x00, returndatasize)\n    tag_231:\n      pop\n      pop\n      pop\n      pop\n      mload(0x40)\n      returndatasize\n      not(0x1f)\n      0x1f\n      dup3\n      add\n      and\n      dup3\n      add\n      dup1\n      0x40\n      mstore\n      pop\n      dup2\n      add\n      swap1\n      tag_232\n      swap2\n      swap1\n      tag_159\n      jump\t// in\n    tag_232:\n        /* \"PFG/AMM.sol\":3538:3608  require(tokenERC.transferFrom(tx.origin, address(this), token_amount)) */\n      tag_233\n      jumpi\n      0x00\n      dup1\n      revert\n    tag_233:\n        /* \"PFG/AMM.sol\":3634:3658  Deposit(liquidity_added) */\n      0x4d6ce1e535dbade1c23defba91e23b8f791ce5edc0cc320257a2b364e4e38426\n        /* \"PFG/AMM.sol\":3642:3657  liquidity_added */\n      dup2\n        /* \"PFG/AMM.sol\":3634:3658  Deposit(liquidity_added) */\n      mload(0x40)\n      tag_234\n      swap2\n      swap1\n      tag_29\n      jump\t// in\n    tag_234:\n      mload(0x40)\n      dup1\n      swap2\n      sub\n      swap1\n      log1\n        /* \"PFG/AMM.sol\":3689:3704  liquidity_added */\n      dup1\n        /* \"PFG/AMM.sol\":3677:3686  liq_added */\n      0x08\n        /* \"PFG/AMM.sol\":3677:3704  liq_added = liquidity_added */\n      dup2\n      swap1\n      sstore\n      pop\n        /* \"PFG/AMM.sol\":3161:3716  {... */\n      pop\n      pop\n        /* \"PFG/AMM.sol\":3125:3716  function deposit() external payable {... */\n      jump\t// out\n        /* \"PFG/AMM.sol\":311:329  uint256 public fee */\n    tag_105:\n      sload(0x03)\n      dup2\n      jump\t// out\n        /* \"PFG/AMM.sol\":2566:3113  function ercToEth(uint256 token_amount) external {... */\n    tag_110:\n        /* \"PFG/AMM.sol\":2634:2653  uint256 eth_swapped */\n      0x00\n        /* \"PFG/AMM.sol\":2656:2742  calculatePrice(token_amount, tokenERC.balanceOf(address(this)), address(this).balance) */\n      tag_236\n        /* \"PFG/AMM.sol\":2671:2683  token_amount */\n      dup3\n        /* \"PFG/AMM.sol\":2685:2693  tokenERC */\n      0x00\n      dup1\n      sload\n      swap1\n      0x0100\n      exp\n      swap1\n      div\n      0xffffffffffffffffffffffffffffffffffffffff\n      and\n        /* \"PFG/AMM.sol\":2685:2703  tokenERC.balanceOf */\n      0xffffffffffffffffffffffffffffffffffffffff\n      and\n      0x70a08231\n        /* \"PFG/AMM.sol\":2712:2716  this */\n      address\n        /* \"PFG/AMM.sol\":2685:2718  tokenERC.balanceOf(address(this)) */\n      mload(0x40)\n      dup3\n      0xffffffff\n      and\n      0xe0\n      shl\n      dup2\n      mstore\n      0x04\n      add\n      tag_237\n      swap2\n      swap1\n      tag_118\n      jump\t// in\n    tag_237:\n      0x20\n      mload(0x40)\n      dup1\n      dup4\n      sub\n      dup2\n      dup7\n      gas\n      staticcall\n      iszero\n      dup1\n      iszero\n      tag_239\n      jumpi\n      returndatasize\n      0x00\n      dup1\n      returndatacopy\n      revert(0x00, returndatasize)\n    tag_239:\n      pop\n      pop\n      pop\n      pop\n      mload(0x40)\n      returndatasize\n      not(0x1f)\n      0x1f\n      dup3\n      add\n      and\n      dup3\n      add\n      dup1\n      0x40\n      mstore\n      pop\n      dup2\n      add\n      swap1\n      tag_240\n      swap2\n      swap1\n      tag_122\n      jump\t// in\n    tag_240:\n        /* \"PFG/AMM.sol\":2720:2741  address(this).balance */\n      selfbalance\n        /* \"PFG/AMM.sol\":2656:2670  calculatePrice */\n      tag_178\n        /* \"PFG/AMM.sol\":2656:2742  calculatePrice(token_amount, tokenERC.balanceOf(address(this)), address(this).balance) */\n      jump\t// in\n    tag_236:\n        /* \"PFG/AMM.sol\":2634:2742  uint256 eth_swapped = calculatePrice(token_amount, tokenERC.balanceOf(address(this)), address(this).balance) */\n      swap1\n      pop\n        /* \"PFG/AMM.sol\":2764:2776  bool success */\n      0x00\n        /* \"PFG/AMM.sol\":2782:2791  tx.origin */\n      origin\n        /* \"PFG/AMM.sol\":2782:2796  tx.origin.call */\n      0xffffffffffffffffffffffffffffffffffffffff\n      and\n        /* \"PFG/AMM.sol\":2804:2815  eth_swapped */\n      dup3\n        /* \"PFG/AMM.sol\":2782:2820  tx.origin.call{value: eth_swapped}(\"\") */\n      mload(0x40)\n      tag_241\n      swap1\n      tag_129\n      jump\t// in\n    tag_241:\n      0x00\n      mload(0x40)\n      dup1\n      dup4\n      sub\n      dup2\n      dup6\n      dup8\n      gas\n      call\n      swap3\n      pop\n      pop\n      pop\n      returndatasize\n      dup1\n      0x00\n      dup2\n      eq\n      tag_244\n      jumpi\n      mload(0x40)\n      swap2\n      pop\n      and(add(returndatasize, 0x3f), not(0x1f))\n      dup3\n      add\n      0x40\n      mstore\n      returndatasize\n      dup3\n      mstore\n      returndatasize\n      0x00\n      0x20\n      dup5\n      add\n      returndatacopy\n      jump(tag_243)\n    tag_244:\n      0x60\n      swap2\n      pop\n    tag_243:\n      pop\n        /* \"PFG/AMM.sol\":2763:2820  (bool success, ) = tx.origin.call{value: eth_swapped}(\"\") */\n      pop\n      swap1\n      pop\n        /* \"PFG/AMM.sol\":2847:2854  success */\n      dup1\n        /* \"PFG/AMM.sol\":2839:2875  require(success, \"Transfer failed.\") */\n      tag_245\n      jumpi\n      mload(0x40)\n      0x08c379a000000000000000000000000000000000000000000000000000000000\n      dup2\n      mstore\n      0x04\n      add\n      tag_246\n      swap1\n      tag_135\n      jump\t// in\n    tag_246:\n      mload(0x40)\n      dup1\n      swap2\n      sub\n      swap1\n      revert\n    tag_245:\n        /* \"PFG/AMM.sol\":2908:2916  tokenERC */\n      0x00\n      dup1\n      sload\n      swap1\n      0x0100\n      exp\n      swap1\n      div\n      0xffffffffffffffffffffffffffffffffffffffff\n      and\n        /* \"PFG/AMM.sol\":2908:2929  tokenERC.transferFrom */\n      0xffffffffffffffffffffffffffffffffffffffff\n      and\n      0x23b872dd\n        /* \"PFG/AMM.sol\":2930:2939  tx.origin */\n      origin\n        /* \"PFG/AMM.sol\":2949:2953  this */\n      address\n        /* \"PFG/AMM.sol\":2956:2968  token_amount */\n      dup7\n        /* \"PFG/AMM.sol\":2908:2969  tokenERC.transferFrom(tx.origin, address(this), token_amount) */\n      mload(0x40)\n      dup5\n      0xffffffff\n      and\n      0xe0\n      shl\n      dup2\n      mstore\n      0x04\n      add\n      tag_247\n      swap4\n      swap3\n      swap2\n      swap1\n      tag_210\n      jump\t// in\n    tag_247:\n      0x20\n      mload(0x40)\n      dup1\n      dup4\n      sub\n      dup2\n      0x00\n      dup8\n      gas\n      call\n      iszero\n      dup1\n      iszero\n      tag_249\n      jumpi\n      returndatasize\n      0x00\n      dup1\n      returndatacopy\n      revert(0x00, returndatasize)\n    tag_249:\n      pop\n      pop\n      pop\n      pop\n      mload(0x40)\n      returndatasize\n      not(0x1f)\n      0x1f\n      dup3\n      add\n      and\n      dup3\n      add\n      dup1\n      0x40\n      mstore\n      pop\n      dup2\n      add\n      swap1\n      tag_250\n      swap2\n      swap1\n      tag_159\n      jump\t// in\n    tag_250:\n        /* \"PFG/AMM.sol\":2900:2970  require(tokenERC.transferFrom(tx.origin, address(this), token_amount)) */\n      tag_251\n      jumpi\n      0x00\n      dup1\n      revert\n    tag_251:\n        /* \"PFG/AMM.sol\":2998:3009  eth_swapped */\n      dup2\n        /* \"PFG/AMM.sol\":2991:2994  fee */\n      0x03\n      0x00\n        /* \"PFG/AMM.sol\":2991:3009  fee += eth_swapped */\n      dup3\n      dup3\n      sload\n      tag_252\n      swap2\n      swap1\n      tag_199\n      jump\t// in\n    tag_252:\n      swap3\n      pop\n      pop\n      dup2\n      swap1\n      sstore\n      pop\n        /* \"PFG/AMM.sol\":3033:3056  ETHSwapped(eth_swapped) */\n      0x4dbf3a71a7c7262f432c2cad7808225832255d07f7d8ab85117677c0b5c0a850\n        /* \"PFG/AMM.sol\":3044:3055  eth_swapped */\n      dup3\n        /* \"PFG/AMM.sol\":3033:3056  ETHSwapped(eth_swapped) */\n      mload(0x40)\n      tag_253\n      swap2\n      swap1\n      tag_29\n      jump\t// in\n    tag_253:\n      mload(0x40)\n      dup1\n      swap2\n      sub\n      swap1\n      log1\n        /* \"PFG/AMM.sol\":3090:3101  eth_swapped */\n      dup2\n        /* \"PFG/AMM.sol\":3075:3087  eth_received */\n      0x07\n        /* \"PFG/AMM.sol\":3075:3101  eth_received = eth_swapped */\n      dup2\n      swap1\n      sstore\n      pop\n        /* \"PFG/AMM.sol\":2615:3113  {... */\n      pop\n      pop\n        /* \"PFG/AMM.sol\":2566:3113  function ercToEth(uint256 token_amount) external {... */\n      pop\n      jump\t// out\n        /* \"PFG/AMM.sol\":1479:1691  function calculatePrice(uint256 input_value, uint256 input_pool, uint256 output_pool) internal pure returns (uint256) {... */\n    tag_178:\n        /* \"PFG/AMM.sol\":1588:1595  uint256 */\n      0x00\n        /* \"PFG/AMM.sol\":1667:1678  input_value */\n      dup4\n        /* \"PFG/AMM.sol\":1654:1664  input_pool */\n      dup4\n        /* \"PFG/AMM.sol\":1654:1678  input_pool + input_value */\n      tag_255\n      swap2\n      swap1\n      tag_199\n      jump\t// in\n    tag_255:\n        /* \"PFG/AMM.sol\":1638:1649  output_pool */\n      dup3\n        /* \"PFG/AMM.sol\":1624:1635  input_value */\n      dup6\n        /* \"PFG/AMM.sol\":1624:1649  input_value * output_pool */\n      tag_256\n      swap2\n      swap1\n      tag_114\n      jump\t// in\n    tag_256:\n        /* \"PFG/AMM.sol\":1623:1679  (input_value * output_pool) / (input_pool + input_value) */\n      tag_257\n      swap2\n      swap1\n      tag_116\n      jump\t// in\n    tag_257:\n        /* \"PFG/AMM.sol\":1616:1679  return (input_value * output_pool) / (input_pool + input_value) */\n      swap1\n      pop\n        /* \"PFG/AMM.sol\":1479:1691  function calculatePrice(uint256 input_value, uint256 input_pool, uint256 output_pool) internal pure returns (uint256) {... */\n      swap4\n      swap3\n      pop\n      pop\n      pop\n      jump\t// out\n        /* \"#utility.yul\":7:84   */\n    tag_258:\n        /* \"#utility.yul\":44:51   */\n      0x00\n        /* \"#utility.yul\":73:78   */\n      dup2\n        /* \"#utility.yul\":62:78   */\n      swap1\n      pop\n        /* \"#utility.yul\":7:84   */\n      swap2\n      swap1\n      pop\n      jump\t// out\n        /* \"#utility.yul\":90:208   */\n    tag_259:\n        /* \"#utility.yul\":177:201   */\n      tag_285\n        /* \"#utility.yul\":195:200   */\n      dup2\n        /* \"#utility.yul\":177:201   */\n      tag_258\n      jump\t// in\n    tag_285:\n        /* \"#utility.yul\":172:175   */\n      dup3\n        /* \"#utility.yul\":165:202   */\n      mstore\n        /* \"#utility.yul\":90:208   */\n      pop\n      pop\n      jump\t// out\n        /* \"#utility.yul\":214:436   */\n    tag_29:\n        /* \"#utility.yul\":307:311   */\n      0x00\n        /* \"#utility.yul\":345:347   */\n      0x20\n        /* \"#utility.yul\":334:343   */\n      dup3\n        /* \"#utility.yul\":330:348   */\n      add\n        /* \"#utility.yul\":322:348   */\n      swap1\n      pop\n        /* \"#utility.yul\":358:429   */\n      tag_287\n        /* \"#utility.yul\":426:427   */\n      0x00\n        /* \"#utility.yul\":415:424   */\n      dup4\n        /* \"#utility.yul\":411:428   */\n      add\n        /* \"#utility.yul\":402:408   */\n      dup5\n        /* \"#utility.yul\":358:429   */\n      tag_259\n      jump\t// in\n    tag_287:\n        /* \"#utility.yul\":214:436   */\n      swap3\n      swap2\n      pop\n      pop\n      jump\t// out\n        /* \"#utility.yul\":523:640   */\n    tag_261:\n        /* \"#utility.yul\":632:633   */\n      0x00\n        /* \"#utility.yul\":629:630   */\n      dup1\n        /* \"#utility.yul\":622:634   */\n      revert\n        /* \"#utility.yul\":769:891   */\n    tag_263:\n        /* \"#utility.yul\":842:866   */\n      tag_292\n        /* \"#utility.yul\":860:865   */\n      dup2\n        /* \"#utility.yul\":842:866   */\n      tag_258\n      jump\t// in\n    tag_292:\n        /* \"#utility.yul\":835:840   */\n      dup2\n        /* \"#utility.yul\":832:867   */\n      eq\n        /* \"#utility.yul\":822:885   */\n      tag_293\n      jumpi\n        /* \"#utility.yul\":881:882   */\n      0x00\n        /* \"#utility.yul\":878:879   */\n      dup1\n        /* \"#utility.yul\":871:883   */\n      revert\n        /* \"#utility.yul\":822:885   */\n    tag_293:\n        /* \"#utility.yul\":769:891   */\n      pop\n      jump\t// out\n        /* \"#utility.yul\":897:1036   */\n    tag_264:\n        /* \"#utility.yul\":943:948   */\n      0x00\n        /* \"#utility.yul\":981:987   */\n      dup2\n        /* \"#utility.yul\":968:988   */\n      calldataload\n        /* \"#utility.yul\":959:988   */\n      swap1\n      pop\n        /* \"#utility.yul\":997:1030   */\n      tag_295\n        /* \"#utility.yul\":1024:1029   */\n      dup2\n        /* \"#utility.yul\":997:1030   */\n      tag_263\n      jump\t// in\n    tag_295:\n        /* \"#utility.yul\":897:1036   */\n      swap3\n      swap2\n      pop\n      pop\n      jump\t// out\n        /* \"#utility.yul\":1042:1371   */\n    tag_33:\n        /* \"#utility.yul\":1101:1107   */\n      0x00\n        /* \"#utility.yul\":1150:1152   */\n      0x20\n        /* \"#utility.yul\":1138:1147   */\n      dup3\n        /* \"#utility.yul\":1129:1136   */\n      dup5\n        /* \"#utility.yul\":1125:1148   */\n      sub\n        /* \"#utility.yul\":1121:1153   */\n      slt\n        /* \"#utility.yul\":1118:1237   */\n      iszero\n      tag_297\n      jumpi\n        /* \"#utility.yul\":1156:1235   */\n      tag_298\n      tag_261\n      jump\t// in\n    tag_298:\n        /* \"#utility.yul\":1118:1237   */\n    tag_297:\n        /* \"#utility.yul\":1276:1277   */\n      0x00\n        /* \"#utility.yul\":1301:1354   */\n      tag_299\n        /* \"#utility.yul\":1346:1353   */\n      dup5\n        /* \"#utility.yul\":1337:1343   */\n      dup3\n        /* \"#utility.yul\":1326:1335   */\n      dup6\n        /* \"#utility.yul\":1322:1344   */\n      add\n        /* \"#utility.yul\":1301:1354   */\n      tag_264\n      jump\t// in\n    tag_299:\n        /* \"#utility.yul\":1291:1354   */\n      swap2\n      pop\n        /* \"#utility.yul\":1247:1364   */\n      pop\n        /* \"#utility.yul\":1042:1371   */\n      swap3\n      swap2\n      pop\n      pop\n      jump\t// out\n        /* \"#utility.yul\":1377:1709   */\n    tag_36:\n        /* \"#utility.yul\":1498:1502   */\n      0x00\n        /* \"#utility.yul\":1536:1538   */\n      0x40\n        /* \"#utility.yul\":1525:1534   */\n      dup3\n        /* \"#utility.yul\":1521:1539   */\n      add\n        /* \"#utility.yul\":1513:1539   */\n      swap1\n      pop\n        /* \"#utility.yul\":1549:1620   */\n      tag_301\n        /* \"#utility.yul\":1617:1618   */\n      0x00\n        /* \"#utility.yul\":1606:1615   */\n      dup4\n        /* \"#utility.yul\":1602:1619   */\n      add\n        /* \"#utility.yul\":1593:1599   */\n      dup6\n        /* \"#utility.yul\":1549:1620   */\n      tag_259\n      jump\t// in\n    tag_301:\n        /* \"#utility.yul\":1630:1702   */\n      tag_302\n        /* \"#utility.yul\":1698:1700   */\n      0x20\n        /* \"#utility.yul\":1687:1696   */\n      dup4\n        /* \"#utility.yul\":1683:1701   */\n      add\n        /* \"#utility.yul\":1674:1680   */\n      dup5\n        /* \"#utility.yul\":1630:1702   */\n      tag_259\n      jump\t// in\n    tag_302:\n        /* \"#utility.yul\":1377:1709   */\n      swap4\n      swap3\n      pop\n      pop\n      pop\n      jump\t// out\n        /* \"#utility.yul\":1715:1841   */\n    tag_265:\n        /* \"#utility.yul\":1752:1759   */\n      0x00\n        /* \"#utility.yul\":1792:1834   */\n      0xffffffffffffffffffffffffffffffffffffffff\n        /* \"#utility.yul\":1785:1790   */\n      dup3\n        /* \"#utility.yul\":1781:1835   */\n      and\n        /* \"#utility.yul\":1770:1835   */\n      swap1\n      pop\n        /* \"#utility.yul\":1715:1841   */\n      swap2\n      swap1\n      pop\n      jump\t// out\n        /* \"#utility.yul\":1847:1943   */\n    tag_266:\n        /* \"#utility.yul\":1884:1891   */\n      0x00\n        /* \"#utility.yul\":1913:1937   */\n      tag_305\n        /* \"#utility.yul\":1931:1936   */\n      dup3\n        /* \"#utility.yul\":1913:1937   */\n      tag_265\n      jump\t// in\n    tag_305:\n        /* \"#utility.yul\":1902:1937   */\n      swap1\n      pop\n        /* \"#utility.yul\":1847:1943   */\n      swap2\n      swap1\n      pop\n      jump\t// out\n        /* \"#utility.yul\":1949:2071   */\n    tag_267:\n        /* \"#utility.yul\":2022:2046   */\n      tag_307\n        /* \"#utility.yul\":2040:2045   */\n      dup2\n        /* \"#utility.yul\":2022:2046   */\n      tag_266\n      jump\t// in\n    tag_307:\n        /* \"#utility.yul\":2015:2020   */\n      dup2\n        /* \"#utility.yul\":2012:2047   */\n      eq\n        /* \"#utility.yul\":2002:2065   */\n      tag_308\n      jumpi\n        /* \"#utility.yul\":2061:2062   */\n      0x00\n        /* \"#utility.yul\":2058:2059   */\n      dup1\n        /* \"#utility.yul\":2051:2063   */\n      revert\n        /* \"#utility.yul\":2002:2065   */\n    tag_308:\n        /* \"#utility.yul\":1949:2071   */\n      pop\n      jump\t// out\n        /* \"#utility.yul\":2077:2216   */\n    tag_268:\n        /* \"#utility.yul\":2123:2128   */\n      0x00\n        /* \"#utility.yul\":2161:2167   */\n      dup2\n        /* \"#utility.yul\":2148:2168   */\n      calldataload\n        /* \"#utility.yul\":2139:2168   */\n      swap1\n      pop\n        /* \"#utility.yul\":2177:2210   */\n      tag_310\n        /* \"#utility.yul\":2204:2209   */\n      dup2\n        /* \"#utility.yul\":2177:2210   */\n      tag_267\n      jump\t// in\n    tag_310:\n        /* \"#utility.yul\":2077:2216   */\n      swap3\n      swap2\n      pop\n      pop\n      jump\t// out\n        /* \"#utility.yul\":2222:2551   */\n    tag_56:\n        /* \"#utility.yul\":2281:2287   */\n      0x00\n        /* \"#utility.yul\":2330:2332   */\n      0x20\n        /* \"#utility.yul\":2318:2327   */\n      dup3\n        /* \"#utility.yul\":2309:2316   */\n      dup5\n        /* \"#utility.yul\":2305:2328   */\n      sub\n        /* \"#utility.yul\":2301:2333   */\n      slt\n        /* \"#utility.yul\":2298:2417   */\n      iszero\n      tag_312\n      jumpi\n        /* \"#utility.yul\":2336:2415   */\n      tag_313\n      tag_261\n      jump\t// in\n    tag_313:\n        /* \"#utility.yul\":2298:2417   */\n    tag_312:\n        /* \"#utility.yul\":2456:2457   */\n      0x00\n        /* \"#utility.yul\":2481:2534   */\n      tag_314\n        /* \"#utility.yul\":2526:2533   */\n      dup5\n        /* \"#utility.yul\":2517:2523   */\n      dup3\n        /* \"#utility.yul\":2506:2515   */\n      dup6\n        /* \"#utility.yul\":2502:2524   */\n      add\n        /* \"#utility.yul\":2481:2534   */\n      tag_268\n      jump\t// in\n    tag_314:\n        /* \"#utility.yul\":2471:2534   */\n      swap2\n      pop\n        /* \"#utility.yul\":2427:2544   */\n      pop\n        /* \"#utility.yul\":2222:2551   */\n      swap3\n      swap2\n      pop\n      pop\n      jump\t// out\n        /* \"#utility.yul\":2557:3031   */\n    tag_99:\n        /* \"#utility.yul\":2625:2631   */\n      0x00\n        /* \"#utility.yul\":2633:2639   */\n      dup1\n        /* \"#utility.yul\":2682:2684   */\n      0x40\n        /* \"#utility.yul\":2670:2679   */\n      dup4\n        /* \"#utility.yul\":2661:2668   */\n      dup6\n        /* \"#utility.yul\":2657:2680   */\n      sub\n        /* \"#utility.yul\":2653:2685   */\n      slt\n        /* \"#utility.yul\":2650:2769   */\n      iszero\n      tag_316\n      jumpi\n        /* \"#utility.yul\":2688:2767   */\n      tag_317\n      tag_261\n      jump\t// in\n    tag_317:\n        /* \"#utility.yul\":2650:2769   */\n    tag_316:\n        /* \"#utility.yul\":2808:2809   */\n      0x00\n        /* \"#utility.yul\":2833:2886   */\n      tag_318\n        /* \"#utility.yul\":2878:2885   */\n      dup6\n        /* \"#utility.yul\":2869:2875   */\n      dup3\n        /* \"#utility.yul\":2858:2867   */\n      dup7\n        /* \"#utility.yul\":2854:2876   */\n      add\n        /* \"#utility.yul\":2833:2886   */\n      tag_268\n      jump\t// in\n    tag_318:\n        /* \"#utility.yul\":2823:2886   */\n      swap3\n      pop\n        /* \"#utility.yul\":2779:2896   */\n      pop\n        /* \"#utility.yul\":2935:2937   */\n      0x20\n        /* \"#utility.yul\":2961:3014   */\n      tag_319\n        /* \"#utility.yul\":3006:3013   */\n      dup6\n        /* \"#utility.yul\":2997:3003   */\n      dup3\n        /* \"#utility.yul\":2986:2995   */\n      dup7\n        /* \"#utility.yul\":2982:3004   */\n      add\n        /* \"#utility.yul\":2961:3014   */\n      tag_264\n      jump\t// in\n    tag_319:\n        /* \"#utility.yul\":2951:3014   */\n      swap2\n      pop\n        /* \"#utility.yul\":2906:3024   */\n      pop\n        /* \"#utility.yul\":2557:3031   */\n      swap3\n      pop\n      swap3\n      swap1\n      pop\n      jump\t// out\n        /* \"#utility.yul\":3037:3217   */\n    tag_269:\n        /* \"#utility.yul\":3085:3162   */\n      0x4e487b7100000000000000000000000000000000000000000000000000000000\n        /* \"#utility.yul\":3082:3083   */\n      0x00\n        /* \"#utility.yul\":3075:3163   */\n      mstore\n        /* \"#utility.yul\":3182:3186   */\n      0x11\n        /* \"#utility.yul\":3179:3180   */\n      0x04\n        /* \"#utility.yul\":3172:3187   */\n      mstore\n        /* \"#utility.yul\":3206:3210   */\n      0x24\n        /* \"#utility.yul\":3203:3204   */\n      0x00\n        /* \"#utility.yul\":3196:3211   */\n      revert\n        /* \"#utility.yul\":3223:3571   */\n    tag_114:\n        /* \"#utility.yul\":3263:3270   */\n      0x00\n        /* \"#utility.yul\":3286:3306   */\n      tag_322\n        /* \"#utility.yul\":3304:3305   */\n      dup3\n        /* \"#utility.yul\":3286:3306   */\n      tag_258\n      jump\t// in\n    tag_322:\n        /* \"#utility.yul\":3281:3306   */\n      swap2\n      pop\n        /* \"#utility.yul\":3320:3340   */\n      tag_323\n        /* \"#utility.yul\":3338:3339   */\n      dup4\n        /* \"#utility.yul\":3320:3340   */\n      tag_258\n      jump\t// in\n    tag_323:\n        /* \"#utility.yul\":3315:3340   */\n      swap3\n      pop\n        /* \"#utility.yul\":3508:3509   */\n      dup2\n        /* \"#utility.yul\":3440:3506   */\n      0xffffffffffffffffffffffffffffffffffffffffffffffffffffffffffffffff\n        /* \"#utility.yul\":3436:3510   */\n      div\n        /* \"#utility.yul\":3433:3434   */\n      dup4\n        /* \"#utility.yul\":3430:3511   */\n      gt\n        /* \"#utility.yul\":3425:3426   */\n      dup3\n        /* \"#utility.yul\":3418:3427   */\n      iszero\n        /* \"#utility.yul\":3411:3428   */\n      iszero\n        /* \"#utility.yul\":3407:3512   */\n      and\n        /* \"#utility.yul\":3404:3535   */\n      iszero\n      tag_324\n      jumpi\n        /* \"#utility.yul\":3515:3533   */\n      tag_325\n      tag_269\n      jump\t// in\n    tag_325:\n        /* \"#utility.yul\":3404:3535   */\n    tag_324:\n        /* \"#utility.yul\":3563:3564   */\n      dup3\n        /* \"#utility.yul\":3560:3561   */\n      dup3\n        /* \"#utility.yul\":3556:3565   */\n      mul\n        /* \"#utility.yul\":3545:3565   */\n      swap1\n      pop\n        /* \"#utility.yul\":3223:3571   */\n      swap3\n      swap2\n      pop\n      pop\n      jump\t// out\n        /* \"#utility.yul\":3577:3757   */\n    tag_270:\n        /* \"#utility.yul\":3625:3702   */\n      0x4e487b7100000000000000000000000000000000000000000000000000000000\n        /* \"#utility.yul\":3622:3623   */\n      0x00\n        /* \"#utility.yul\":3615:3703   */\n      mstore\n        /* \"#utility.yul\":3722:3726   */\n      0x12\n        /* \"#utility.yul\":3719:3720   */\n      0x04\n        /* \"#utility.yul\":3712:3727   */\n      mstore\n        /* \"#utility.yul\":3746:3750   */\n      0x24\n        /* \"#utility.yul\":3743:3744   */\n      0x00\n        /* \"#utility.yul\":3736:3751   */\n      revert\n        /* \"#utility.yul\":3763:3948   */\n    tag_116:\n        /* \"#utility.yul\":3803:3804   */\n      0x00\n        /* \"#utility.yul\":3820:3840   */\n      tag_328\n        /* \"#utility.yul\":3838:3839   */\n      dup3\n        /* \"#utility.yul\":3820:3840   */\n      tag_258\n      jump\t// in\n    tag_328:\n        /* \"#utility.yul\":3815:3840   */\n      swap2\n      pop\n        /* \"#utility.yul\":3854:3874   */\n      tag_329\n        /* \"#utility.yul\":3872:3873   */\n      dup4\n        /* \"#utility.yul\":3854:3874   */\n      tag_258\n      jump\t// in\n    tag_329:\n        /* \"#utility.yul\":3849:3874   */\n      swap3\n      pop\n        /* \"#utility.yul\":3893:3894   */\n      dup3\n        /* \"#utility.yul\":3883:3918   */\n      tag_330\n      jumpi\n        /* \"#utility.yul\":3898:3916   */\n      tag_331\n      tag_270\n      jump\t// in\n    tag_331:\n        /* \"#utility.yul\":3883:3918   */\n    tag_330:\n        /* \"#utility.yul\":3940:3941   */\n      dup3\n        /* \"#utility.yul\":3937:3938   */\n      dup3\n        /* \"#utility.yul\":3933:3942   */\n      div\n        /* \"#utility.yul\":3928:3942   */\n      swap1\n      pop\n        /* \"#utility.yul\":3763:3948   */\n      swap3\n      swap2\n      pop\n      pop\n      jump\t// out\n        /* \"#utility.yul\":3954:4072   */\n    tag_271:\n        /* \"#utility.yul\":4041:4065   */\n      tag_333\n        /* \"#utility.yul\":4059:4064   */\n      dup2\n        /* \"#utility.yul\":4041:4065   */\n      tag_266\n      jump\t// in\n    tag_333:\n        /* \"#utility.yul\":4036:4039   */\n      dup3\n        /* \"#utility.yul\":4029:4066   */\n      mstore\n        /* \"#utility.yul\":3954:4072   */\n      pop\n      pop\n      jump\t// out\n        /* \"#utility.yul\":4078:4300   */\n    tag_118:\n        /* \"#utility.yul\":4171:4175   */\n      0x00\n        /* \"#utility.yul\":4209:4211   */\n      0x20\n        /* \"#utility.yul\":4198:4207   */\n      dup3\n        /* \"#utility.yul\":4194:4212   */\n      add\n        /* \"#utility.yul\":4186:4212   */\n      swap1\n      pop\n        /* \"#utility.yul\":4222:4293   */\n      tag_335\n        /* \"#utility.yul\":4290:4291   */\n      0x00\n        /* \"#utility.yul\":4279:4288   */\n      dup4\n        /* \"#utility.yul\":4275:4292   */\n      add\n        /* \"#utility.yul\":4266:4272   */\n      dup5\n        /* \"#utility.yul\":4222:4293   */\n      tag_271\n      jump\t// in\n    tag_335:\n        /* \"#utility.yul\":4078:4300   */\n      swap3\n      swap2\n      pop\n      pop\n      jump\t// out\n        /* \"#utility.yul\":4306:4449   */\n    tag_272:\n        /* \"#utility.yul\":4363:4368   */\n      0x00\n        /* \"#utility.yul\":4394:4400   */\n      dup2\n        /* \"#utility.yul\":4388:4401   */\n      mload\n        /* \"#utility.yul\":4379:4401   */\n      swap1\n      pop\n        /* \"#utility.yul\":4410:4443   */\n      tag_337\n        /* \"#utility.yul\":4437:4442   */\n      dup2\n        /* \"#utility.yul\":4410:4443   */\n      tag_263\n      jump\t// in\n    tag_337:\n        /* \"#utility.yul\":4306:4449   */\n      swap3\n      swap2\n      pop\n      pop\n      jump\t// out\n        /* \"#utility.yul\":4455:4806   */\n    tag_122:\n        /* \"#utility.yul\":4525:4531   */\n      0x00\n        /* \"#utility.yul\":4574:4576   */\n      0x20\n        /* \"#utility.yul\":4562:4571   */\n      dup3\n        /* \"#utility.yul\":4553:4560   */\n      dup5\n        /* \"#utility.yul\":4549:4572   */\n      sub\n        /* \"#utility.yul\":4545:4577   */\n      slt\n        /* \"#utility.yul\":4542:4661   */\n      iszero\n      tag_339\n      jumpi\n        /* \"#utility.yul\":4580:4659   */\n      tag_340\n      tag_261\n      jump\t// in\n    tag_340:\n        /* \"#utility.yul\":4542:4661   */\n    tag_339:\n        /* \"#utility.yul\":4700:4701   */\n      0x00\n        /* \"#utility.yul\":4725:4789   */\n      tag_341\n        /* \"#utility.yul\":4781:4788   */\n      dup5\n        /* \"#utility.yul\":4772:4778   */\n      dup3\n        /* \"#utility.yul\":4761:4770   */\n      dup6\n        /* \"#utility.yul\":4757:4779   */\n      add\n        /* \"#utility.yul\":4725:4789   */\n      tag_272\n      jump\t// in\n    tag_341:\n        /* \"#utility.yul\":4715:4789   */\n      swap2\n      pop\n        /* \"#utility.yul\":4671:4799   */\n      pop\n        /* \"#utility.yul\":4455:4806   */\n      swap3\n      swap2\n      pop\n      pop\n      jump\t// out\n        /* \"#utility.yul\":4812:4959   */\n    tag_273:\n        /* \"#utility.yul\":4913:4924   */\n      0x00\n        /* \"#utility.yul\":4950:4953   */\n      dup2\n        /* \"#utility.yul\":4935:4953   */\n      swap1\n      pop\n        /* \"#utility.yul\":4812:4959   */\n      swap3\n      swap2\n      pop\n      pop\n      jump\t// out\n        /* \"#utility.yul\":4965:5079   */\n    tag_274:\n      pop\n      jump\t// out\n        /* \"#utility.yul\":5085:5483   */\n    tag_275:\n        /* \"#utility.yul\":5244:5247   */\n      0x00\n        /* \"#utility.yul\":5265:5348   */\n      tag_345\n        /* \"#utility.yul\":5346:5347   */\n      0x00\n        /* \"#utility.yul\":5341:5344   */\n      dup4\n        /* \"#utility.yul\":5265:5348   */\n      tag_273\n      jump\t// in\n    tag_345:\n        /* \"#utility.yul\":5258:5348   */\n      swap2\n      pop\n        /* \"#utility.yul\":5357:5450   */\n      tag_346\n        /* \"#utility.yul\":5446:5449   */\n      dup3\n        /* \"#utility.yul\":5357:5450   */\n      tag_274\n      jump\t// in\n    tag_346:\n        /* \"#utility.yul\":5475:5476   */\n      0x00\n        /* \"#utility.yul\":5470:5473   */\n      dup3\n        /* \"#utility.yul\":5466:5477   */\n      add\n        /* \"#utility.yul\":5459:5477   */\n      swap1\n      pop\n        /* \"#utility.yul\":5085:5483   */\n      swap2\n      swap1\n      pop\n      jump\t// out\n        /* \"#utility.yul\":5489:5868   */\n    tag_129:\n        /* \"#utility.yul\":5673:5676   */\n      0x00\n        /* \"#utility.yul\":5695:5842   */\n      tag_348\n        /* \"#utility.yul\":5838:5841   */\n      dup3\n        /* \"#utility.yul\":5695:5842   */\n      tag_275\n      jump\t// in\n    tag_348:\n        /* \"#utility.yul\":5688:5842   */\n      swap2\n      pop\n        /* \"#utility.yul\":5859:5862   */\n      dup2\n        /* \"#utility.yul\":5852:5862   */\n      swap1\n      pop\n        /* \"#utility.yul\":5489:5868   */\n      swap2\n      swap1\n      pop\n      jump\t// out\n        /* \"#utility.yul\":5874:6043   */\n    tag_276:\n        /* \"#utility.yul\":5958:5969   */\n      0x00\n        /* \"#utility.yul\":5992:5998   */\n      dup3\n        /* \"#utility.yul\":5987:5990   */\n      dup3\n        /* \"#utility.yul\":5980:5999   */\n      mstore\n        /* \"#utility.yul\":6032:6036   */\n      0x20\n        /* \"#utility.yul\":6027:6030   */\n      dup3\n        /* \"#utility.yul\":6023:6037   */\n      add\n        /* \"#utility.yul\":6008:6037   */\n      swap1\n      pop\n        /* \"#utility.yul\":5874:6043   */\n      swap3\n      swap2\n      pop\n      pop\n      jump\t// out\n        /* \"#utility.yul\":6049:6215   */\n    tag_277:\n        /* \"#utility.yul\":6189:6207   */\n      0x5472616e73666572206661696c65642e00000000000000000000000000000000\n        /* \"#utility.yul\":6185:6186   */\n      0x00\n        /* \"#utility.yul\":6177:6183   */\n      dup3\n        /* \"#utility.yul\":6173:6187   */\n      add\n        /* \"#utility.yul\":6166:6208   */\n      mstore\n        /* \"#utility.yul\":6049:6215   */\n      pop\n      jump\t// out\n        /* \"#utility.yul\":6221:6587   */\n    tag_278:\n        /* \"#utility.yul\":6363:6366   */\n      0x00\n        /* \"#utility.yul\":6384:6451   */\n      tag_352\n        /* \"#utility.yul\":6448:6450   */\n      0x10\n        /* \"#utility.yul\":6443:6446   */\n      dup4\n        /* \"#utility.yul\":6384:6451   */\n      tag_276\n      jump\t// in\n    tag_352:\n        /* \"#utility.yul\":6377:6451   */\n      swap2\n      pop\n        /* \"#utility.yul\":6460:6553   */\n      tag_353\n        /* \"#utility.yul\":6549:6552   */\n      dup3\n        /* \"#utility.yul\":6460:6553   */\n      tag_277\n      jump\t// in\n    tag_353:\n        /* \"#utility.yul\":6578:6580   */\n      0x20\n        /* \"#utility.yul\":6573:6576   */\n      dup3\n        /* \"#utility.yul\":6569:6581   */\n      add\n        /* \"#utility.yul\":6562:6581   */\n      swap1\n      pop\n        /* \"#utility.yul\":6221:6587   */\n      swap2\n      swap1\n      pop\n      jump\t// out\n        /* \"#utility.yul\":6593:7012   */\n    tag_135:\n        /* \"#utility.yul\":6759:6763   */\n      0x00\n        /* \"#utility.yul\":6797:6799   */\n      0x20\n        /* \"#utility.yul\":6786:6795   */\n      dup3\n        /* \"#utility.yul\":6782:6800   */\n      add\n        /* \"#utility.yul\":6774:6800   */\n      swap1\n      pop\n        /* \"#utility.yul\":6846:6855   */\n      dup2\n        /* \"#utility.yul\":6840:6844   */\n      dup2\n        /* \"#utility.yul\":6836:6856   */\n      sub\n        /* \"#utility.yul\":6832:6833   */\n      0x00\n        /* \"#utility.yul\":6821:6830   */\n      dup4\n        /* \"#utility.yul\":6817:6834   */\n      add\n        /* \"#utility.yul\":6810:6857   */\n      mstore\n        /* \"#utility.yul\":6874:7005   */\n      tag_355\n        /* \"#utility.yul\":7000:7004   */\n      dup2\n        /* \"#utility.yul\":6874:7005   */\n      tag_278\n      jump\t// in\n    tag_355:\n        /* \"#utility.yul\":6866:7005   */\n      swap1\n      pop\n        /* \"#utility.yul\":6593:7012   */\n      swap2\n      swap1\n      pop\n      jump\t// out\n        /* \"#utility.yul\":7018:7209   */\n    tag_146:\n        /* \"#utility.yul\":7058:7062   */\n      0x00\n        /* \"#utility.yul\":7078:7098   */\n      tag_357\n        /* \"#utility.yul\":7096:7097   */\n      dup3\n        /* \"#utility.yul\":7078:7098   */\n      tag_258\n      jump\t// in\n    tag_357:\n        /* \"#utility.yul\":7073:7098   */\n      swap2\n      pop\n        /* \"#utility.yul\":7112:7132   */\n      tag_358\n        /* \"#utility.yul\":7130:7131   */\n      dup4\n        /* \"#utility.yul\":7112:7132   */\n      tag_258\n      jump\t// in\n    tag_358:\n        /* \"#utility.yul\":7107:7132   */\n      swap3\n      pop\n        /* \"#utility.yul\":7151:7152   */\n      dup3\n        /* \"#utility.yul\":7148:7149   */\n      dup3\n        /* \"#utility.yul\":7145:7153   */\n      lt\n        /* \"#utility.yul\":7142:7176   */\n      iszero\n      tag_359\n      jumpi\n        /* \"#utility.yul\":7156:7174   */\n      tag_360\n      tag_269\n      jump\t// in\n    tag_360:\n        /* \"#utility.yul\":7142:7176   */\n    tag_359:\n        /* \"#utility.yul\":7201:7202   */\n      dup3\n        /* \"#utility.yul\":7198:7199   */\n      dup3\n        /* \"#utility.yul\":7194:7203   */\n      sub\n        /* \"#utility.yul\":7186:7203   */\n      swap1\n      pop\n        /* \"#utility.yul\":7018:7209   */\n      swap3\n      swap2\n      pop\n      pop\n      jump\t// out\n        /* \"#utility.yul\":7215:7547   */\n    tag_155:\n        /* \"#utility.yul\":7336:7340   */\n      0x00\n        /* \"#utility.yul\":7374:7376   */\n      0x40\n        /* \"#utility.yul\":7363:7372   */\n      dup3\n        /* \"#utility.yul\":7359:7377   */\n      add\n        /* \"#utility.yul\":7351:7377   */\n      swap1\n      pop\n        /* \"#utility.yul\":7387:7458   */\n      tag_362\n        /* \"#utility.yul\":7455:7456   */\n      0x00\n        /* \"#utility.yul\":7444:7453   */\n      dup4\n        /* \"#utility.yul\":7440:7457   */\n      add\n        /* \"#utility.yul\":7431:7437   */\n      dup6\n        /* \"#utility.yul\":7387:7458   */\n      tag_271\n      jump\t// in\n    tag_362:\n        /* \"#utility.yul\":7468:7540   */\n      tag_363\n        /* \"#utility.yul\":7536:7538   */\n      0x20\n        /* \"#utility.yul\":7525:7534   */\n      dup4\n        /* \"#utility.yul\":7521:7539   */\n      add\n        /* \"#utility.yul\":7512:7518   */\n      dup5\n        /* \"#utility.yul\":7468:7540   */\n      tag_259\n      jump\t// in\n    tag_363:\n        /* \"#utility.yul\":7215:7547   */\n      swap4\n      swap3\n      pop\n      pop\n      pop\n      jump\t// out\n        /* \"#utility.yul\":7553:7643   */\n    tag_279:\n        /* \"#utility.yul\":7587:7594   */\n      0x00\n        /* \"#utility.yul\":7630:7635   */\n      dup2\n        /* \"#utility.yul\":7623:7636   */\n      iszero\n        /* \"#utility.yul\":7616:7637   */\n      iszero\n        /* \"#utility.yul\":7605:7637   */\n      swap1\n      pop\n        /* \"#utility.yul\":7553:7643   */\n      swap2\n      swap1\n      pop\n      jump\t// out\n        /* \"#utility.yul\":7649:7765   */\n    tag_280:\n        /* \"#utility.yul\":7719:7740   */\n      tag_366\n        /* \"#utility.yul\":7734:7739   */\n      dup2\n        /* \"#utility.yul\":7719:7740   */\n      tag_279\n      jump\t// in\n    tag_366:\n        /* \"#utility.yul\":7712:7717   */\n      dup2\n        /* \"#utility.yul\":7709:7741   */\n      eq\n        /* \"#utility.yul\":7699:7759   */\n      tag_367\n      jumpi\n        /* \"#utility.yul\":7755:7756   */\n      0x00\n        /* \"#utility.yul\":7752:7753   */\n      dup1\n        /* \"#utility.yul\":7745:7757   */\n      revert\n        /* \"#utility.yul\":7699:7759   */\n    tag_367:\n        /* \"#utility.yul\":7649:7765   */\n      pop\n      jump\t// out\n        /* \"#utility.yul\":7771:7908   */\n    tag_281:\n        /* \"#utility.yul\":7825:7830   */\n      0x00\n        /* \"#utility.yul\":7856:7862   */\n      dup2\n        /* \"#utility.yul\":7850:7863   */\n      mload\n        /* \"#utility.yul\":7841:7863   */\n      swap1\n      pop\n        /* \"#utility.yul\":7872:7902   */\n      tag_369\n        /* \"#utility.yul\":7896:7901   */\n      dup2\n        /* \"#utility.yul\":7872:7902   */\n      tag_280\n      jump\t// in\n    tag_369:\n        /* \"#utility.yul\":7771:7908   */\n      swap3\n      swap2\n      pop\n      pop\n      jump\t// out\n        /* \"#utility.yul\":7914:8259   */\n    tag_159:\n        /* \"#utility.yul\":7981:7987   */\n      0x00\n        /* \"#utility.yul\":8030:8032   */\n      0x20\n        /* \"#utility.yul\":8018:8027   */\n      dup3\n        /* \"#utility.yul\":8009:8016   */\n      dup5\n        /* \"#utility.yul\":8005:8028   */\n      sub\n        /* \"#utility.yul\":8001:8033   */\n      slt\n        /* \"#utility.yul\":7998:8117   */\n      iszero\n      tag_371\n      jumpi\n        /* \"#utility.yul\":8036:8115   */\n      tag_372\n      tag_261\n      jump\t// in\n    tag_372:\n        /* \"#utility.yul\":7998:8117   */\n    tag_371:\n        /* \"#utility.yul\":8156:8157   */\n      0x00\n        /* \"#utility.yul\":8181:8242   */\n      tag_373\n        /* \"#utility.yul\":8234:8241   */\n      dup5\n        /* \"#utility.yul\":8225:8231   */\n      dup3\n        /* \"#utility.yul\":8214:8223   */\n      dup6\n        /* \"#utility.yul\":8210:8232   */\n      add\n        /* \"#utility.yul\":8181:8242   */\n      tag_281\n      jump\t// in\n    tag_373:\n        /* \"#utility.yul\":8171:8242   */\n      swap2\n      pop\n        /* \"#utility.yul\":8127:8252   */\n      pop\n        /* \"#utility.yul\":7914:8259   */\n      swap3\n      swap2\n      pop\n      pop\n      jump\t// out\n        /* \"#utility.yul\":8265:8570   */\n    tag_199:\n        /* \"#utility.yul\":8305:8308   */\n      0x00\n        /* \"#utility.yul\":8324:8344   */\n      tag_375\n        /* \"#utility.yul\":8342:8343   */\n      dup3\n        /* \"#utility.yul\":8324:8344   */\n      tag_258\n      jump\t// in\n    tag_375:\n        /* \"#utility.yul\":8319:8344   */\n      swap2\n      pop\n        /* \"#utility.yul\":8358:8378   */\n      tag_376\n        /* \"#utility.yul\":8376:8377   */\n      dup4\n        /* \"#utility.yul\":8358:8378   */\n      tag_258\n      jump\t// in\n    tag_376:\n        /* \"#utility.yul\":8353:8378   */\n      swap3\n      pop\n        /* \"#utility.yul\":8512:8513   */\n      dup3\n        /* \"#utility.yul\":8444:8510   */\n      0xffffffffffffffffffffffffffffffffffffffffffffffffffffffffffffffff\n        /* \"#utility.yul\":8440:8514   */\n      sub\n        /* \"#utility.yul\":8437:8438   */\n      dup3\n        /* \"#utility.yul\":8434:8515   */\n      gt\n        /* \"#utility.yul\":8431:8538   */\n      iszero\n      tag_377\n      jumpi\n        /* \"#utility.yul\":8518:8536   */\n      tag_378\n      tag_269\n      jump\t// in\n    tag_378:\n        /* \"#utility.yul\":8431:8538   */\n    tag_377:\n        /* \"#utility.yul\":8562:8563   */\n      dup3\n        /* \"#utility.yul\":8559:8560   */\n      dup3\n        /* \"#utility.yul\":8555:8564   */\n      add\n        /* \"#utility.yul\":8548:8564   */\n      swap1\n      pop\n        /* \"#utility.yul\":8265:8570   */\n      swap3\n      swap2\n      pop\n      pop\n      jump\t// out\n        /* \"#utility.yul\":8576:9018   */\n    tag_210:\n        /* \"#utility.yul\":8725:8729   */\n      0x00\n        /* \"#utility.yul\":8763:8765   */\n      0x60\n        /* \"#utility.yul\":8752:8761   */\n      dup3\n        /* \"#utility.yul\":8748:8766   */\n      add\n        /* \"#utility.yul\":8740:8766   */\n      swap1\n      pop\n        /* \"#utility.yul\":8776:8847   */\n      tag_380\n        /* \"#utility.yul\":8844:8845   */\n      0x00\n        /* \"#utility.yul\":8833:8842   */\n      dup4\n        /* \"#utility.yul\":8829:8846   */\n      add\n        /* \"#utility.yul\":8820:8826   */\n      dup7\n        /* \"#utility.yul\":8776:8847   */\n      tag_271\n      jump\t// in\n    tag_380:\n        /* \"#utility.yul\":8857:8929   */\n      tag_381\n        /* \"#utility.yul\":8925:8927   */\n      0x20\n        /* \"#utility.yul\":8914:8923   */\n      dup4\n        /* \"#utility.yul\":8910:8928   */\n      add\n        /* \"#utility.yul\":8901:8907   */\n      dup6\n        /* \"#utility.yul\":8857:8929   */\n      tag_271\n      jump\t// in\n    tag_381:\n        /* \"#utility.yul\":8939:9011   */\n      tag_382\n        /* \"#utility.yul\":9007:9009   */\n      0x40\n        /* \"#utility.yul\":8996:9005   */\n      dup4\n        /* \"#utility.yul\":8992:9010   */\n      add\n        /* \"#utility.yul\":8983:8989   */\n      dup5\n        /* \"#utility.yul\":8939:9011   */\n      tag_259\n      jump\t// in\n    tag_382:\n        /* \"#utility.yul\":8576:9018   */\n      swap5\n      swap4\n      pop\n      pop\n      pop\n      pop\n      jump\t// out\n\n    auxdata: 0xa2646970667358221220cb46a359ff517cb70f9fdb8fbf7ccdcf7ceb0517f11beedbe7215e5b2999358764736f6c634300080f0033\n}\n",
				"bytecode": {
					"linkReferences": {},
					"object": "608060405234801561001057600080fd5b5032600260006101000a81548173ffffffffffffffffffffffffffffffffffffffff021916908373ffffffffffffffffffffffffffffffffffffffff160217905550611a30806100616000396000f3fe60806040526004361061011f5760003560e01c806372a9d124116100a0578063b8c876b111610064578063b8c876b1146103e0578063cd6dc6871461041d578063d0e30db014610439578063ddca3f4314610443578063debc674c1461046e5761011f565b806372a9d1241461031857806374942c0f146103555780637937c03d1461038057806382b2e2571461038a5780638666107c146103b55761011f565b80635f244d4e116100e75780635f244d4e146101f857806366b3f6bf1461023657806367da263d146102735780636f7bc9be146102b0578063707e7e87146102ed5761011f565b806312065fe0146101245780631eb928aa1461014f57806326c4e60d1461018d5780632e1a7d4d146101a457806331f3bd28146101cd575b600080fd5b34801561013057600080fd5b50610139610497565b6040516101469190611526565b60405180910390f35b34801561015b57600080fd5b5061017660048036038101906101719190611572565b61049f565b60405161018492919061159f565b60405180910390f35b34801561019957600080fd5b506101a2610582565b005b3480156101b057600080fd5b506101cb60048036038101906101c69190611572565b610651565b005b3480156101d957600080fd5b506101e2610933565b6040516101ef9190611526565b60405180910390f35b34801561020457600080fd5b5061021f600480360381019061021a9190611572565b610939565b60405161022d92919061159f565b60405180910390f35b34801561024257600080fd5b5061025d60048036038101906102589190611626565b610a1a565b60405161026a9190611526565b60405180910390f35b34801561027f57600080fd5b5061029a60048036038101906102959190611572565b610a63565b6040516102a79190611526565b60405180910390f35b3480156102bc57600080fd5b506102d760048036038101906102d29190611626565b610b10565b6040516102e49190611526565b60405180910390f35b3480156102f957600080fd5b50610302610b28565b60405161030f9190611526565b60405180910390f35b34801561032457600080fd5b5061033f600480360381019061033a9190611572565b610b2e565b60405161034c9190611526565b60405180910390f35b34801561036157600080fd5b5061036a610be6565b6040516103779190611526565b60405180910390f35b610388610bec565b005b34801561039657600080fd5b5061039f610df6565b6040516103ac9190611526565b60405180910390f35b3480156103c157600080fd5b506103ca610e98565b6040516103d79190611526565b60405180910390f35b3480156103ec57600080fd5b5061040760048036038101906104029190611626565b610e9e565b6040516104149190611526565b60405180910390f35b61043760048036038101906104329190611653565b610eb6565b005b610441611040565b005b34801561044f57600080fd5b50610458611281565b6040516104659190611526565b60405180910390f35b34801561047a57600080fd5b5061049560048036038101906104909190611572565b611287565b005b600047905090565b600080600060015447856104b391906116c2565b6104bd919061174b565b9050600060015460008054906101000a900473ffffffffffffffffffffffffffffffffffffffff1673ffffffffffffffffffffffffffffffffffffffff166370a08231306040518263ffffffff1660e01b815260040161051d919061178b565b602060405180830381865afa15801561053a573d6000803e3d6000fd5b505050506040513d601f19601f8201168201806040525081019061055e91906117bb565b8661056991906116c2565b610573919061174b565b90508181935093505050915091565b60006103e86003805461059591906116c2565b61059f919061174b565b905060003273ffffffffffffffffffffffffffffffffffffffff16826040516105c790611819565b60006040518083038185875af1925050503d8060008114610604576040519150601f19603f3d011682016040523d82523d6000602084013e610609565b606091505b505090508061064d576040517f08c379a00000000000000000000000000000000000000000000000000000000081526004016106449061188b565b60405180910390fd5b5050565b6000600154478361066291906116c2565b61066c919061174b565b9050600060015460008054906101000a900473ffffffffffffffffffffffffffffffffffffffff1673ffffffffffffffffffffffffffffffffffffffff166370a08231306040518263ffffffff1660e01b81526004016106cc919061178b565b602060405180830381865afa1580156106e9573d6000803e3d6000fd5b505050506040513d601f19601f8201168201806040525081019061070d91906117bb565b8461071891906116c2565b610722919061174b565b905081600560003273ffffffffffffffffffffffffffffffffffffffff1673ffffffffffffffffffffffffffffffffffffffff168152602001908152602001600020600082825461077391906118ab565b92505081905550816001600082825461078c91906118ab565b9250508190555060003273ffffffffffffffffffffffffffffffffffffffff16836040516107b990611819565b60006040518083038185875af1925050503d80600081146107f6576040519150601f19603f3d011682016040523d82523d6000602084013e6107fb565b606091505b505090508061083f576040517f08c379a00000000000000000000000000000000000000000000000000000000081526004016108369061188b565b60405180910390fd5b60008054906101000a900473ffffffffffffffffffffffffffffffffffffffff1673ffffffffffffffffffffffffffffffffffffffff1663a9059cbb32846040518363ffffffff1660e01b815260040161089a9291906118df565b6020604051808303816000875af11580156108b9573d6000803e3d6000fd5b505050506040513d601f19601f820116820180604052508101906108dd9190611940565b6108e657600080fd5b7f56ca301a9219608c91e7bcee90e083c19671d2cdcc96752c7af291cee5f9c8c8838360405161091792919061159f565b60405180910390a1826007819055508160068190555050505050565b60015481565b60008060004760008054906101000a900473ffffffffffffffffffffffffffffffffffffffff1673ffffffffffffffffffffffffffffffffffffffff166370a08231306040518263ffffffff1660e01b8152600401610998919061178b565b602060405180830381865afa1580156109b5573d6000803e3d6000fd5b505050506040513d601f19601f820116820180604052508101906109d991906117bb565b856109e491906116c2565b6109ee919061174b565b905060004760015486610a0191906116c2565b610a0b919061174b565b90508181935093505050915091565b6000600460008373ffffffffffffffffffffffffffffffffffffffff1673ffffffffffffffffffffffffffffffffffffffff168152602001908152602001600020549050919050565b6000610b098260008054906101000a900473ffffffffffffffffffffffffffffffffffffffff1673ffffffffffffffffffffffffffffffffffffffff166370a08231306040518263ffffffff1660e01b8152600401610ac2919061178b565b602060405180830381865afa158015610adf573d6000803e3d6000fd5b505050506040513d601f19601f82011682018060405250810190610b0391906117bb565b476114e0565b9050919050565b60046020528060005260406000206000915090505481565b60085481565b6000610bdf828347610b4091906118ab565b60008054906101000a900473ffffffffffffffffffffffffffffffffffffffff1673ffffffffffffffffffffffffffffffffffffffff166370a08231306040518263ffffffff1660e01b8152600401610b99919061178b565b602060405180830381865afa158015610bb6573d6000803e3d6000fd5b505050506040513d601f19601f82011682018060405250810190610bda91906117bb565b6114e0565b9050919050565b60065481565b6000610c9d343447610bfe91906118ab565b60008054906101000a900473ffffffffffffffffffffffffffffffffffffffff1673ffffffffffffffffffffffffffffffffffffffff166370a08231306040518263ffffffff1660e01b8152600401610c57919061178b565b602060405180830381865afa158015610c74573d6000803e3d6000fd5b505050506040513d601f19601f82011682018060405250810190610c9891906117bb565b6114e0565b905060008054906101000a900473ffffffffffffffffffffffffffffffffffffffff1673ffffffffffffffffffffffffffffffffffffffff1663a9059cbb32836040518363ffffffff1660e01b8152600401610cfa9291906118df565b6020604051808303816000875af1158015610d19573d6000803e3d6000fd5b505050506040513d601f19601f82011682018060405250810190610d3d9190611940565b610d4657600080fd5b3460036000828254610d58919061196d565b9250508190555034600460003273ffffffffffffffffffffffffffffffffffffffff1673ffffffffffffffffffffffffffffffffffffffff1681526020019081526020016000206000828254610dae919061196d565b92505081905550806006819055507fdb04c7a6d4758fd55d738ebc67e7f3010ac922be00771ef29521a4090d1eb13f81604051610deb9190611526565b60405180910390a150565b60008060009054906101000a900473ffffffffffffffffffffffffffffffffffffffff1673ffffffffffffffffffffffffffffffffffffffff166370a08231306040518263ffffffff1660e01b8152600401610e52919061178b565b602060405180830381865afa158015610e6f573d6000803e3d6000fd5b505050506040513d601f19601f82011682018060405250810190610e9391906117bb565b905090565b60075481565b60056020528060005260406000206000915090505481565b600060015414610ec557600080fd5b6000600381905550816000806101000a81548173ffffffffffffffffffffffffffffffffffffffff021916908373ffffffffffffffffffffffffffffffffffffffff16021790555047600181905550600154600560003373ffffffffffffffffffffffffffffffffffffffff1673ffffffffffffffffffffffffffffffffffffffff1681526020019081526020016000208190555060008054906101000a900473ffffffffffffffffffffffffffffffffffffffff1673ffffffffffffffffffffffffffffffffffffffff166323b872dd3330846040518463ffffffff1660e01b8152600401610fb7939291906119c3565b6020604051808303816000875af1158015610fd6573d6000803e3d6000fd5b505050506040513d601f19601f82011682018060405250810190610ffa9190611940565b61100357600080fd5b7fc43e48cf47e9fa186d0f4096c61d1fcb54159799f935a2aa32e5589688ee36e16001546040516110349190611526565b60405180910390a15050565b6000344761104e91906118ab565b60008054906101000a900473ffffffffffffffffffffffffffffffffffffffff1673ffffffffffffffffffffffffffffffffffffffff166370a08231306040518263ffffffff1660e01b81526004016110a7919061178b565b602060405180830381865afa1580156110c4573d6000803e3d6000fd5b505050506040513d601f19601f820116820180604052508101906110e891906117bb565b346110f391906116c2565b6110fd919061174b565b90506000344761110d91906118ab565b6001543461111b91906116c2565b611125919061174b565b905080600560003273ffffffffffffffffffffffffffffffffffffffff1673ffffffffffffffffffffffffffffffffffffffff1681526020019081526020016000206000828254611176919061196d565b92505081905550806001600082825461118f919061196d565b9250508190555060008054906101000a900473ffffffffffffffffffffffffffffffffffffffff1673ffffffffffffffffffffffffffffffffffffffff166323b872dd3230856040518463ffffffff1660e01b81526004016111f3939291906119c3565b6020604051808303816000875af1158015611212573d6000803e3d6000fd5b505050506040513d601f19601f820116820180604052508101906112369190611940565b61123f57600080fd5b7f4d6ce1e535dbade1c23defba91e23b8f791ce5edc0cc320257a2b364e4e384268160405161126e9190611526565b60405180910390a1806008819055505050565b60035481565b600061132d8260008054906101000a900473ffffffffffffffffffffffffffffffffffffffff1673ffffffffffffffffffffffffffffffffffffffff166370a08231306040518263ffffffff1660e01b81526004016112e6919061178b565b602060405180830381865afa158015611303573d6000803e3d6000fd5b505050506040513d601f19601f8201168201806040525081019061132791906117bb565b476114e0565b905060003273ffffffffffffffffffffffffffffffffffffffff168260405161135590611819565b60006040518083038185875af1925050503d8060008114611392576040519150601f19603f3d011682016040523d82523d6000602084013e611397565b606091505b50509050806113db576040517f08c379a00000000000000000000000000000000000000000000000000000000081526004016113d29061188b565b60405180910390fd5b60008054906101000a900473ffffffffffffffffffffffffffffffffffffffff1673ffffffffffffffffffffffffffffffffffffffff166323b872dd3230866040518463ffffffff1660e01b8152600401611438939291906119c3565b6020604051808303816000875af1158015611457573d6000803e3d6000fd5b505050506040513d601f19601f8201168201806040525081019061147b9190611940565b61148457600080fd5b8160036000828254611496919061196d565b925050819055507f4dbf3a71a7c7262f432c2cad7808225832255d07f7d8ab85117677c0b5c0a850826040516114cc9190611526565b60405180910390a181600781905550505050565b600083836114ee919061196d565b82856114fa91906116c2565b611504919061174b565b90509392505050565b6000819050919050565b6115208161150d565b82525050565b600060208201905061153b6000830184611517565b92915050565b600080fd5b61154f8161150d565b811461155a57600080fd5b50565b60008135905061156c81611546565b92915050565b60006020828403121561158857611587611541565b5b60006115968482850161155d565b91505092915050565b60006040820190506115b46000830185611517565b6115c16020830184611517565b9392505050565b600073ffffffffffffffffffffffffffffffffffffffff82169050919050565b60006115f3826115c8565b9050919050565b611603816115e8565b811461160e57600080fd5b50565b600081359050611620816115fa565b92915050565b60006020828403121561163c5761163b611541565b5b600061164a84828501611611565b91505092915050565b6000806040838503121561166a57611669611541565b5b600061167885828601611611565b92505060206116898582860161155d565b9150509250929050565b7f4e487b7100000000000000000000000000000000000000000000000000000000600052601160045260246000fd5b60006116cd8261150d565b91506116d88361150d565b9250817fffffffffffffffffffffffffffffffffffffffffffffffffffffffffffffffff048311821515161561171157611710611693565b5b828202905092915050565b7f4e487b7100000000000000000000000000000000000000000000000000000000600052601260045260246000fd5b60006117568261150d565b91506117618361150d565b9250826117715761177061171c565b5b828204905092915050565b611785816115e8565b82525050565b60006020820190506117a0600083018461177c565b92915050565b6000815190506117b581611546565b92915050565b6000602082840312156117d1576117d0611541565b5b60006117df848285016117a6565b91505092915050565b600081905092915050565b50565b60006118036000836117e8565b915061180e826117f3565b600082019050919050565b6000611824826117f6565b9150819050919050565b600082825260208201905092915050565b7f5472616e73666572206661696c65642e00000000000000000000000000000000600082015250565b600061187560108361182e565b91506118808261183f565b602082019050919050565b600060208201905081810360008301526118a481611868565b9050919050565b60006118b68261150d565b91506118c18361150d565b9250828210156118d4576118d3611693565b5b828203905092915050565b60006040820190506118f4600083018561177c565b6119016020830184611517565b9392505050565b60008115159050919050565b61191d81611908565b811461192857600080fd5b50565b60008151905061193a81611914565b92915050565b60006020828403121561195657611955611541565b5b60006119648482850161192b565b91505092915050565b60006119788261150d565b91506119838361150d565b9250827fffffffffffffffffffffffffffffffffffffffffffffffffffffffffffffffff038211156119b8576119b7611693565b5b828201905092915050565b60006060820190506119d8600083018661177c565b6119e5602083018561177c565b6119f26040830184611517565b94935050505056fea2646970667358221220cb46a359ff517cb70f9fdb8fbf7ccdcf7ceb0517f11beedbe7215e5b2999358764736f6c634300080f0033",
					"opcodes": "PUSH1 0x80 PUSH1 0x40 MSTORE CALLVALUE DUP1 ISZERO PUSH2 0x10 JUMPI PUSH1 0x0 DUP1 REVERT JUMPDEST POP ORIGIN PUSH1 0x2 PUSH1 0x0 PUSH2 0x100 EXP DUP2 SLOAD DUP2 PUSH20 0xFFFFFFFFFFFFFFFFFFFFFFFFFFFFFFFFFFFFFFFF MUL NOT AND SWAP1 DUP4 PUSH20 0xFFFFFFFFFFFFFFFFFFFFFFFFFFFFFFFFFFFFFFFF AND MUL OR SWAP1 SSTORE POP PUSH2 0x1A30 DUP1 PUSH2 0x61 PUSH1 0x0 CODECOPY PUSH1 0x0 RETURN INVALID PUSH1 0x80 PUSH1 0x40 MSTORE PUSH1 0x4 CALLDATASIZE LT PUSH2 0x11F JUMPI PUSH1 0x0 CALLDATALOAD PUSH1 0xE0 SHR DUP1 PUSH4 0x72A9D124 GT PUSH2 0xA0 JUMPI DUP1 PUSH4 0xB8C876B1 GT PUSH2 0x64 JUMPI DUP1 PUSH4 0xB8C876B1 EQ PUSH2 0x3E0 JUMPI DUP1 PUSH4 0xCD6DC687 EQ PUSH2 0x41D JUMPI DUP1 PUSH4 0xD0E30DB0 EQ PUSH2 0x439 JUMPI DUP1 PUSH4 0xDDCA3F43 EQ PUSH2 0x443 JUMPI DUP1 PUSH4 0xDEBC674C EQ PUSH2 0x46E JUMPI PUSH2 0x11F JUMP JUMPDEST DUP1 PUSH4 0x72A9D124 EQ PUSH2 0x318 JUMPI DUP1 PUSH4 0x74942C0F EQ PUSH2 0x355 JUMPI DUP1 PUSH4 0x7937C03D EQ PUSH2 0x380 JUMPI DUP1 PUSH4 0x82B2E257 EQ PUSH2 0x38A JUMPI DUP1 PUSH4 0x8666107C EQ PUSH2 0x3B5 JUMPI PUSH2 0x11F JUMP JUMPDEST DUP1 PUSH4 0x5F244D4E GT PUSH2 0xE7 JUMPI DUP1 PUSH4 0x5F244D4E EQ PUSH2 0x1F8 JUMPI DUP1 PUSH4 0x66B3F6BF EQ PUSH2 0x236 JUMPI DUP1 PUSH4 0x67DA263D EQ PUSH2 0x273 JUMPI DUP1 PUSH4 0x6F7BC9BE EQ PUSH2 0x2B0 JUMPI DUP1 PUSH4 0x707E7E87 EQ PUSH2 0x2ED JUMPI PUSH2 0x11F JUMP JUMPDEST DUP1 PUSH4 0x12065FE0 EQ PUSH2 0x124 JUMPI DUP1 PUSH4 0x1EB928AA EQ PUSH2 0x14F JUMPI DUP1 PUSH4 0x26C4E60D EQ PUSH2 0x18D JUMPI DUP1 PUSH4 0x2E1A7D4D EQ PUSH2 0x1A4 JUMPI DUP1 PUSH4 0x31F3BD28 EQ PUSH2 0x1CD JUMPI JUMPDEST PUSH1 0x0 DUP1 REVERT JUMPDEST CALLVALUE DUP1 ISZERO PUSH2 0x130 JUMPI PUSH1 0x0 DUP1 REVERT JUMPDEST POP PUSH2 0x139 PUSH2 0x497 JUMP JUMPDEST PUSH1 0x40 MLOAD PUSH2 0x146 SWAP2 SWAP1 PUSH2 0x1526 JUMP JUMPDEST PUSH1 0x40 MLOAD DUP1 SWAP2 SUB SWAP1 RETURN JUMPDEST CALLVALUE DUP1 ISZERO PUSH2 0x15B JUMPI PUSH1 0x0 DUP1 REVERT JUMPDEST POP PUSH2 0x176 PUSH1 0x4 DUP1 CALLDATASIZE SUB DUP2 ADD SWAP1 PUSH2 0x171 SWAP2 SWAP1 PUSH2 0x1572 JUMP JUMPDEST PUSH2 0x49F JUMP JUMPDEST PUSH1 0x40 MLOAD PUSH2 0x184 SWAP3 SWAP2 SWAP1 PUSH2 0x159F JUMP JUMPDEST PUSH1 0x40 MLOAD DUP1 SWAP2 SUB SWAP1 RETURN JUMPDEST CALLVALUE DUP1 ISZERO PUSH2 0x199 JUMPI PUSH1 0x0 DUP1 REVERT JUMPDEST POP PUSH2 0x1A2 PUSH2 0x582 JUMP JUMPDEST STOP JUMPDEST CALLVALUE DUP1 ISZERO PUSH2 0x1B0 JUMPI PUSH1 0x0 DUP1 REVERT JUMPDEST POP PUSH2 0x1CB PUSH1 0x4 DUP1 CALLDATASIZE SUB DUP2 ADD SWAP1 PUSH2 0x1C6 SWAP2 SWAP1 PUSH2 0x1572 JUMP JUMPDEST PUSH2 0x651 JUMP JUMPDEST STOP JUMPDEST CALLVALUE DUP1 ISZERO PUSH2 0x1D9 JUMPI PUSH1 0x0 DUP1 REVERT JUMPDEST POP PUSH2 0x1E2 PUSH2 0x933 JUMP JUMPDEST PUSH1 0x40 MLOAD PUSH2 0x1EF SWAP2 SWAP1 PUSH2 0x1526 JUMP JUMPDEST PUSH1 0x40 MLOAD DUP1 SWAP2 SUB SWAP1 RETURN JUMPDEST CALLVALUE DUP1 ISZERO PUSH2 0x204 JUMPI PUSH1 0x0 DUP1 REVERT JUMPDEST POP PUSH2 0x21F PUSH1 0x4 DUP1 CALLDATASIZE SUB DUP2 ADD SWAP1 PUSH2 0x21A SWAP2 SWAP1 PUSH2 0x1572 JUMP JUMPDEST PUSH2 0x939 JUMP JUMPDEST PUSH1 0x40 MLOAD PUSH2 0x22D SWAP3 SWAP2 SWAP1 PUSH2 0x159F JUMP JUMPDEST PUSH1 0x40 MLOAD DUP1 SWAP2 SUB SWAP1 RETURN JUMPDEST CALLVALUE DUP1 ISZERO PUSH2 0x242 JUMPI PUSH1 0x0 DUP1 REVERT JUMPDEST POP PUSH2 0x25D PUSH1 0x4 DUP1 CALLDATASIZE SUB DUP2 ADD SWAP1 PUSH2 0x258 SWAP2 SWAP1 PUSH2 0x1626 JUMP JUMPDEST PUSH2 0xA1A JUMP JUMPDEST PUSH1 0x40 MLOAD PUSH2 0x26A SWAP2 SWAP1 PUSH2 0x1526 JUMP JUMPDEST PUSH1 0x40 MLOAD DUP1 SWAP2 SUB SWAP1 RETURN JUMPDEST CALLVALUE DUP1 ISZERO PUSH2 0x27F JUMPI PUSH1 0x0 DUP1 REVERT JUMPDEST POP PUSH2 0x29A PUSH1 0x4 DUP1 CALLDATASIZE SUB DUP2 ADD SWAP1 PUSH2 0x295 SWAP2 SWAP1 PUSH2 0x1572 JUMP JUMPDEST PUSH2 0xA63 JUMP JUMPDEST PUSH1 0x40 MLOAD PUSH2 0x2A7 SWAP2 SWAP1 PUSH2 0x1526 JUMP JUMPDEST PUSH1 0x40 MLOAD DUP1 SWAP2 SUB SWAP1 RETURN JUMPDEST CALLVALUE DUP1 ISZERO PUSH2 0x2BC JUMPI PUSH1 0x0 DUP1 REVERT JUMPDEST POP PUSH2 0x2D7 PUSH1 0x4 DUP1 CALLDATASIZE SUB DUP2 ADD SWAP1 PUSH2 0x2D2 SWAP2 SWAP1 PUSH2 0x1626 JUMP JUMPDEST PUSH2 0xB10 JUMP JUMPDEST PUSH1 0x40 MLOAD PUSH2 0x2E4 SWAP2 SWAP1 PUSH2 0x1526 JUMP JUMPDEST PUSH1 0x40 MLOAD DUP1 SWAP2 SUB SWAP1 RETURN JUMPDEST CALLVALUE DUP1 ISZERO PUSH2 0x2F9 JUMPI PUSH1 0x0 DUP1 REVERT JUMPDEST POP PUSH2 0x302 PUSH2 0xB28 JUMP JUMPDEST PUSH1 0x40 MLOAD PUSH2 0x30F SWAP2 SWAP1 PUSH2 0x1526 JUMP JUMPDEST PUSH1 0x40 MLOAD DUP1 SWAP2 SUB SWAP1 RETURN JUMPDEST CALLVALUE DUP1 ISZERO PUSH2 0x324 JUMPI PUSH1 0x0 DUP1 REVERT JUMPDEST POP PUSH2 0x33F PUSH1 0x4 DUP1 CALLDATASIZE SUB DUP2 ADD SWAP1 PUSH2 0x33A SWAP2 SWAP1 PUSH2 0x1572 JUMP JUMPDEST PUSH2 0xB2E JUMP JUMPDEST PUSH1 0x40 MLOAD PUSH2 0x34C SWAP2 SWAP1 PUSH2 0x1526 JUMP JUMPDEST PUSH1 0x40 MLOAD DUP1 SWAP2 SUB SWAP1 RETURN JUMPDEST CALLVALUE DUP1 ISZERO PUSH2 0x361 JUMPI PUSH1 0x0 DUP1 REVERT JUMPDEST POP PUSH2 0x36A PUSH2 0xBE6 JUMP JUMPDEST PUSH1 0x40 MLOAD PUSH2 0x377 SWAP2 SWAP1 PUSH2 0x1526 JUMP JUMPDEST PUSH1 0x40 MLOAD DUP1 SWAP2 SUB SWAP1 RETURN JUMPDEST PUSH2 0x388 PUSH2 0xBEC JUMP JUMPDEST STOP JUMPDEST CALLVALUE DUP1 ISZERO PUSH2 0x396 JUMPI PUSH1 0x0 DUP1 REVERT JUMPDEST POP PUSH2 0x39F PUSH2 0xDF6 JUMP JUMPDEST PUSH1 0x40 MLOAD PUSH2 0x3AC SWAP2 SWAP1 PUSH2 0x1526 JUMP JUMPDEST PUSH1 0x40 MLOAD DUP1 SWAP2 SUB SWAP1 RETURN JUMPDEST CALLVALUE DUP1 ISZERO PUSH2 0x3C1 JUMPI PUSH1 0x0 DUP1 REVERT JUMPDEST POP PUSH2 0x3CA PUSH2 0xE98 JUMP JUMPDEST PUSH1 0x40 MLOAD PUSH2 0x3D7 SWAP2 SWAP1 PUSH2 0x1526 JUMP JUMPDEST PUSH1 0x40 MLOAD DUP1 SWAP2 SUB SWAP1 RETURN JUMPDEST CALLVALUE DUP1 ISZERO PUSH2 0x3EC JUMPI PUSH1 0x0 DUP1 REVERT JUMPDEST POP PUSH2 0x407 PUSH1 0x4 DUP1 CALLDATASIZE SUB DUP2 ADD SWAP1 PUSH2 0x402 SWAP2 SWAP1 PUSH2 0x1626 JUMP JUMPDEST PUSH2 0xE9E JUMP JUMPDEST PUSH1 0x40 MLOAD PUSH2 0x414 SWAP2 SWAP1 PUSH2 0x1526 JUMP JUMPDEST PUSH1 0x40 MLOAD DUP1 SWAP2 SUB SWAP1 RETURN JUMPDEST PUSH2 0x437 PUSH1 0x4 DUP1 CALLDATASIZE SUB DUP2 ADD SWAP1 PUSH2 0x432 SWAP2 SWAP1 PUSH2 0x1653 JUMP JUMPDEST PUSH2 0xEB6 JUMP JUMPDEST STOP JUMPDEST PUSH2 0x441 PUSH2 0x1040 JUMP JUMPDEST STOP JUMPDEST CALLVALUE DUP1 ISZERO PUSH2 0x44F JUMPI PUSH1 0x0 DUP1 REVERT JUMPDEST POP PUSH2 0x458 PUSH2 0x1281 JUMP JUMPDEST PUSH1 0x40 MLOAD PUSH2 0x465 SWAP2 SWAP1 PUSH2 0x1526 JUMP JUMPDEST PUSH1 0x40 MLOAD DUP1 SWAP2 SUB SWAP1 RETURN JUMPDEST CALLVALUE DUP1 ISZERO PUSH2 0x47A JUMPI PUSH1 0x0 DUP1 REVERT JUMPDEST POP PUSH2 0x495 PUSH1 0x4 DUP1 CALLDATASIZE SUB DUP2 ADD SWAP1 PUSH2 0x490 SWAP2 SWAP1 PUSH2 0x1572 JUMP JUMPDEST PUSH2 0x1287 JUMP JUMPDEST STOP JUMPDEST PUSH1 0x0 SELFBALANCE SWAP1 POP SWAP1 JUMP JUMPDEST PUSH1 0x0 DUP1 PUSH1 0x0 PUSH1 0x1 SLOAD SELFBALANCE DUP6 PUSH2 0x4B3 SWAP2 SWAP1 PUSH2 0x16C2 JUMP JUMPDEST PUSH2 0x4BD SWAP2 SWAP1 PUSH2 0x174B JUMP JUMPDEST SWAP1 POP PUSH1 0x0 PUSH1 0x1 SLOAD PUSH1 0x0 DUP1 SLOAD SWAP1 PUSH2 0x100 EXP SWAP1 DIV PUSH20 0xFFFFFFFFFFFFFFFFFFFFFFFFFFFFFFFFFFFFFFFF AND PUSH20 0xFFFFFFFFFFFFFFFFFFFFFFFFFFFFFFFFFFFFFFFF AND PUSH4 0x70A08231 ADDRESS PUSH1 0x40 MLOAD DUP3 PUSH4 0xFFFFFFFF AND PUSH1 0xE0 SHL DUP2 MSTORE PUSH1 0x4 ADD PUSH2 0x51D SWAP2 SWAP1 PUSH2 0x178B JUMP JUMPDEST PUSH1 0x20 PUSH1 0x40 MLOAD DUP1 DUP4 SUB DUP2 DUP7 GAS STATICCALL ISZERO DUP1 ISZERO PUSH2 0x53A JUMPI RETURNDATASIZE PUSH1 0x0 DUP1 RETURNDATACOPY RETURNDATASIZE PUSH1 0x0 REVERT JUMPDEST POP POP POP POP PUSH1 0x40 MLOAD RETURNDATASIZE PUSH1 0x1F NOT PUSH1 0x1F DUP3 ADD AND DUP3 ADD DUP1 PUSH1 0x40 MSTORE POP DUP2 ADD SWAP1 PUSH2 0x55E SWAP2 SWAP1 PUSH2 0x17BB JUMP JUMPDEST DUP7 PUSH2 0x569 SWAP2 SWAP1 PUSH2 0x16C2 JUMP JUMPDEST PUSH2 0x573 SWAP2 SWAP1 PUSH2 0x174B JUMP JUMPDEST SWAP1 POP DUP2 DUP2 SWAP4 POP SWAP4 POP POP POP SWAP2 POP SWAP2 JUMP JUMPDEST PUSH1 0x0 PUSH2 0x3E8 PUSH1 0x3 DUP1 SLOAD PUSH2 0x595 SWAP2 SWAP1 PUSH2 0x16C2 JUMP JUMPDEST PUSH2 0x59F SWAP2 SWAP1 PUSH2 0x174B JUMP JUMPDEST SWAP1 POP PUSH1 0x0 ORIGIN PUSH20 0xFFFFFFFFFFFFFFFFFFFFFFFFFFFFFFFFFFFFFFFF AND DUP3 PUSH1 0x40 MLOAD PUSH2 0x5C7 SWAP1 PUSH2 0x1819 JUMP JUMPDEST PUSH1 0x0 PUSH1 0x40 MLOAD DUP1 DUP4 SUB DUP2 DUP6 DUP8 GAS CALL SWAP3 POP POP POP RETURNDATASIZE DUP1 PUSH1 0x0 DUP2 EQ PUSH2 0x604 JUMPI PUSH1 0x40 MLOAD SWAP2 POP PUSH1 0x1F NOT PUSH1 0x3F RETURNDATASIZE ADD AND DUP3 ADD PUSH1 0x40 MSTORE RETURNDATASIZE DUP3 MSTORE RETURNDATASIZE PUSH1 0x0 PUSH1 0x20 DUP5 ADD RETURNDATACOPY PUSH2 0x609 JUMP JUMPDEST PUSH1 0x60 SWAP2 POP JUMPDEST POP POP SWAP1 POP DUP1 PUSH2 0x64D JUMPI PUSH1 0x40 MLOAD PUSH32 0x8C379A000000000000000000000000000000000000000000000000000000000 DUP2 MSTORE PUSH1 0x4 ADD PUSH2 0x644 SWAP1 PUSH2 0x188B JUMP JUMPDEST PUSH1 0x40 MLOAD DUP1 SWAP2 SUB SWAP1 REVERT JUMPDEST POP POP JUMP JUMPDEST PUSH1 0x0 PUSH1 0x1 SLOAD SELFBALANCE DUP4 PUSH2 0x662 SWAP2 SWAP1 PUSH2 0x16C2 JUMP JUMPDEST PUSH2 0x66C SWAP2 SWAP1 PUSH2 0x174B JUMP JUMPDEST SWAP1 POP PUSH1 0x0 PUSH1 0x1 SLOAD PUSH1 0x0 DUP1 SLOAD SWAP1 PUSH2 0x100 EXP SWAP1 DIV PUSH20 0xFFFFFFFFFFFFFFFFFFFFFFFFFFFFFFFFFFFFFFFF AND PUSH20 0xFFFFFFFFFFFFFFFFFFFFFFFFFFFFFFFFFFFFFFFF AND PUSH4 0x70A08231 ADDRESS PUSH1 0x40 MLOAD DUP3 PUSH4 0xFFFFFFFF AND PUSH1 0xE0 SHL DUP2 MSTORE PUSH1 0x4 ADD PUSH2 0x6CC SWAP2 SWAP1 PUSH2 0x178B JUMP JUMPDEST PUSH1 0x20 PUSH1 0x40 MLOAD DUP1 DUP4 SUB DUP2 DUP7 GAS STATICCALL ISZERO DUP1 ISZERO PUSH2 0x6E9 JUMPI RETURNDATASIZE PUSH1 0x0 DUP1 RETURNDATACOPY RETURNDATASIZE PUSH1 0x0 REVERT JUMPDEST POP POP POP POP PUSH1 0x40 MLOAD RETURNDATASIZE PUSH1 0x1F NOT PUSH1 0x1F DUP3 ADD AND DUP3 ADD DUP1 PUSH1 0x40 MSTORE POP DUP2 ADD SWAP1 PUSH2 0x70D SWAP2 SWAP1 PUSH2 0x17BB JUMP JUMPDEST DUP5 PUSH2 0x718 SWAP2 SWAP1 PUSH2 0x16C2 JUMP JUMPDEST PUSH2 0x722 SWAP2 SWAP1 PUSH2 0x174B JUMP JUMPDEST SWAP1 POP DUP2 PUSH1 0x5 PUSH1 0x0 ORIGIN PUSH20 0xFFFFFFFFFFFFFFFFFFFFFFFFFFFFFFFFFFFFFFFF AND PUSH20 0xFFFFFFFFFFFFFFFFFFFFFFFFFFFFFFFFFFFFFFFF AND DUP2 MSTORE PUSH1 0x20 ADD SWAP1 DUP2 MSTORE PUSH1 0x20 ADD PUSH1 0x0 KECCAK256 PUSH1 0x0 DUP3 DUP3 SLOAD PUSH2 0x773 SWAP2 SWAP1 PUSH2 0x18AB JUMP JUMPDEST SWAP3 POP POP DUP2 SWAP1 SSTORE POP DUP2 PUSH1 0x1 PUSH1 0x0 DUP3 DUP3 SLOAD PUSH2 0x78C SWAP2 SWAP1 PUSH2 0x18AB JUMP JUMPDEST SWAP3 POP POP DUP2 SWAP1 SSTORE POP PUSH1 0x0 ORIGIN PUSH20 0xFFFFFFFFFFFFFFFFFFFFFFFFFFFFFFFFFFFFFFFF AND DUP4 PUSH1 0x40 MLOAD PUSH2 0x7B9 SWAP1 PUSH2 0x1819 JUMP JUMPDEST PUSH1 0x0 PUSH1 0x40 MLOAD DUP1 DUP4 SUB DUP2 DUP6 DUP8 GAS CALL SWAP3 POP POP POP RETURNDATASIZE DUP1 PUSH1 0x0 DUP2 EQ PUSH2 0x7F6 JUMPI PUSH1 0x40 MLOAD SWAP2 POP PUSH1 0x1F NOT PUSH1 0x3F RETURNDATASIZE ADD AND DUP3 ADD PUSH1 0x40 MSTORE RETURNDATASIZE DUP3 MSTORE RETURNDATASIZE PUSH1 0x0 PUSH1 0x20 DUP5 ADD RETURNDATACOPY PUSH2 0x7FB JUMP JUMPDEST PUSH1 0x60 SWAP2 POP JUMPDEST POP POP SWAP1 POP DUP1 PUSH2 0x83F JUMPI PUSH1 0x40 MLOAD PUSH32 0x8C379A000000000000000000000000000000000000000000000000000000000 DUP2 MSTORE PUSH1 0x4 ADD PUSH2 0x836 SWAP1 PUSH2 0x188B JUMP JUMPDEST PUSH1 0x40 MLOAD DUP1 SWAP2 SUB SWAP1 REVERT JUMPDEST PUSH1 0x0 DUP1 SLOAD SWAP1 PUSH2 0x100 EXP SWAP1 DIV PUSH20 0xFFFFFFFFFFFFFFFFFFFFFFFFFFFFFFFFFFFFFFFF AND PUSH20 0xFFFFFFFFFFFFFFFFFFFFFFFFFFFFFFFFFFFFFFFF AND PUSH4 0xA9059CBB ORIGIN DUP5 PUSH1 0x40 MLOAD DUP4 PUSH4 0xFFFFFFFF AND PUSH1 0xE0 SHL DUP2 MSTORE PUSH1 0x4 ADD PUSH2 0x89A SWAP3 SWAP2 SWAP1 PUSH2 0x18DF JUMP JUMPDEST PUSH1 0x20 PUSH1 0x40 MLOAD DUP1 DUP4 SUB DUP2 PUSH1 0x0 DUP8 GAS CALL ISZERO DUP1 ISZERO PUSH2 0x8B9 JUMPI RETURNDATASIZE PUSH1 0x0 DUP1 RETURNDATACOPY RETURNDATASIZE PUSH1 0x0 REVERT JUMPDEST POP POP POP POP PUSH1 0x40 MLOAD RETURNDATASIZE PUSH1 0x1F NOT PUSH1 0x1F DUP3 ADD AND DUP3 ADD DUP1 PUSH1 0x40 MSTORE POP DUP2 ADD SWAP1 PUSH2 0x8DD SWAP2 SWAP1 PUSH2 0x1940 JUMP JUMPDEST PUSH2 0x8E6 JUMPI PUSH1 0x0 DUP1 REVERT JUMPDEST PUSH32 0x56CA301A9219608C91E7BCEE90E083C19671D2CDCC96752C7AF291CEE5F9C8C8 DUP4 DUP4 PUSH1 0x40 MLOAD PUSH2 0x917 SWAP3 SWAP2 SWAP1 PUSH2 0x159F JUMP JUMPDEST PUSH1 0x40 MLOAD DUP1 SWAP2 SUB SWAP1 LOG1 DUP3 PUSH1 0x7 DUP2 SWAP1 SSTORE POP DUP2 PUSH1 0x6 DUP2 SWAP1 SSTORE POP POP POP POP POP JUMP JUMPDEST PUSH1 0x1 SLOAD DUP2 JUMP JUMPDEST PUSH1 0x0 DUP1 PUSH1 0x0 SELFBALANCE PUSH1 0x0 DUP1 SLOAD SWAP1 PUSH2 0x100 EXP SWAP1 DIV PUSH20 0xFFFFFFFFFFFFFFFFFFFFFFFFFFFFFFFFFFFFFFFF AND PUSH20 0xFFFFFFFFFFFFFFFFFFFFFFFFFFFFFFFFFFFFFFFF AND PUSH4 0x70A08231 ADDRESS PUSH1 0x40 MLOAD DUP3 PUSH4 0xFFFFFFFF AND PUSH1 0xE0 SHL DUP2 MSTORE PUSH1 0x4 ADD PUSH2 0x998 SWAP2 SWAP1 PUSH2 0x178B JUMP JUMPDEST PUSH1 0x20 PUSH1 0x40 MLOAD DUP1 DUP4 SUB DUP2 DUP7 GAS STATICCALL ISZERO DUP1 ISZERO PUSH2 0x9B5 JUMPI RETURNDATASIZE PUSH1 0x0 DUP1 RETURNDATACOPY RETURNDATASIZE PUSH1 0x0 REVERT JUMPDEST POP POP POP POP PUSH1 0x40 MLOAD RETURNDATASIZE PUSH1 0x1F NOT PUSH1 0x1F DUP3 ADD AND DUP3 ADD DUP1 PUSH1 0x40 MSTORE POP DUP2 ADD SWAP1 PUSH2 0x9D9 SWAP2 SWAP1 PUSH2 0x17BB JUMP JUMPDEST DUP6 PUSH2 0x9E4 SWAP2 SWAP1 PUSH2 0x16C2 JUMP JUMPDEST PUSH2 0x9EE SWAP2 SWAP1 PUSH2 0x174B JUMP JUMPDEST SWAP1 POP PUSH1 0x0 SELFBALANCE PUSH1 0x1 SLOAD DUP7 PUSH2 0xA01 SWAP2 SWAP1 PUSH2 0x16C2 JUMP JUMPDEST PUSH2 0xA0B SWAP2 SWAP1 PUSH2 0x174B JUMP JUMPDEST SWAP1 POP DUP2 DUP2 SWAP4 POP SWAP4 POP POP POP SWAP2 POP SWAP2 JUMP JUMPDEST PUSH1 0x0 PUSH1 0x4 PUSH1 0x0 DUP4 PUSH20 0xFFFFFFFFFFFFFFFFFFFFFFFFFFFFFFFFFFFFFFFF AND PUSH20 0xFFFFFFFFFFFFFFFFFFFFFFFFFFFFFFFFFFFFFFFF AND DUP2 MSTORE PUSH1 0x20 ADD SWAP1 DUP2 MSTORE PUSH1 0x20 ADD PUSH1 0x0 KECCAK256 SLOAD SWAP1 POP SWAP2 SWAP1 POP JUMP JUMPDEST PUSH1 0x0 PUSH2 0xB09 DUP3 PUSH1 0x0 DUP1 SLOAD SWAP1 PUSH2 0x100 EXP SWAP1 DIV PUSH20 0xFFFFFFFFFFFFFFFFFFFFFFFFFFFFFFFFFFFFFFFF AND PUSH20 0xFFFFFFFFFFFFFFFFFFFFFFFFFFFFFFFFFFFFFFFF AND PUSH4 0x70A08231 ADDRESS PUSH1 0x40 MLOAD DUP3 PUSH4 0xFFFFFFFF AND PUSH1 0xE0 SHL DUP2 MSTORE PUSH1 0x4 ADD PUSH2 0xAC2 SWAP2 SWAP1 PUSH2 0x178B JUMP JUMPDEST PUSH1 0x20 PUSH1 0x40 MLOAD DUP1 DUP4 SUB DUP2 DUP7 GAS STATICCALL ISZERO DUP1 ISZERO PUSH2 0xADF JUMPI RETURNDATASIZE PUSH1 0x0 DUP1 RETURNDATACOPY RETURNDATASIZE PUSH1 0x0 REVERT JUMPDEST POP POP POP POP PUSH1 0x40 MLOAD RETURNDATASIZE PUSH1 0x1F NOT PUSH1 0x1F DUP3 ADD AND DUP3 ADD DUP1 PUSH1 0x40 MSTORE POP DUP2 ADD SWAP1 PUSH2 0xB03 SWAP2 SWAP1 PUSH2 0x17BB JUMP JUMPDEST SELFBALANCE PUSH2 0x14E0 JUMP JUMPDEST SWAP1 POP SWAP2 SWAP1 POP JUMP JUMPDEST PUSH1 0x4 PUSH1 0x20 MSTORE DUP1 PUSH1 0x0 MSTORE PUSH1 0x40 PUSH1 0x0 KECCAK256 PUSH1 0x0 SWAP2 POP SWAP1 POP SLOAD DUP2 JUMP JUMPDEST PUSH1 0x8 SLOAD DUP2 JUMP JUMPDEST PUSH1 0x0 PUSH2 0xBDF DUP3 DUP4 SELFBALANCE PUSH2 0xB40 SWAP2 SWAP1 PUSH2 0x18AB JUMP JUMPDEST PUSH1 0x0 DUP1 SLOAD SWAP1 PUSH2 0x100 EXP SWAP1 DIV PUSH20 0xFFFFFFFFFFFFFFFFFFFFFFFFFFFFFFFFFFFFFFFF AND PUSH20 0xFFFFFFFFFFFFFFFFFFFFFFFFFFFFFFFFFFFFFFFF AND PUSH4 0x70A08231 ADDRESS PUSH1 0x40 MLOAD DUP3 PUSH4 0xFFFFFFFF AND PUSH1 0xE0 SHL DUP2 MSTORE PUSH1 0x4 ADD PUSH2 0xB99 SWAP2 SWAP1 PUSH2 0x178B JUMP JUMPDEST PUSH1 0x20 PUSH1 0x40 MLOAD DUP1 DUP4 SUB DUP2 DUP7 GAS STATICCALL ISZERO DUP1 ISZERO PUSH2 0xBB6 JUMPI RETURNDATASIZE PUSH1 0x0 DUP1 RETURNDATACOPY RETURNDATASIZE PUSH1 0x0 REVERT JUMPDEST POP POP POP POP PUSH1 0x40 MLOAD RETURNDATASIZE PUSH1 0x1F NOT PUSH1 0x1F DUP3 ADD AND DUP3 ADD DUP1 PUSH1 0x40 MSTORE POP DUP2 ADD SWAP1 PUSH2 0xBDA SWAP2 SWAP1 PUSH2 0x17BB JUMP JUMPDEST PUSH2 0x14E0 JUMP JUMPDEST SWAP1 POP SWAP2 SWAP1 POP JUMP JUMPDEST PUSH1 0x6 SLOAD DUP2 JUMP JUMPDEST PUSH1 0x0 PUSH2 0xC9D CALLVALUE CALLVALUE SELFBALANCE PUSH2 0xBFE SWAP2 SWAP1 PUSH2 0x18AB JUMP JUMPDEST PUSH1 0x0 DUP1 SLOAD SWAP1 PUSH2 0x100 EXP SWAP1 DIV PUSH20 0xFFFFFFFFFFFFFFFFFFFFFFFFFFFFFFFFFFFFFFFF AND PUSH20 0xFFFFFFFFFFFFFFFFFFFFFFFFFFFFFFFFFFFFFFFF AND PUSH4 0x70A08231 ADDRESS PUSH1 0x40 MLOAD DUP3 PUSH4 0xFFFFFFFF AND PUSH1 0xE0 SHL DUP2 MSTORE PUSH1 0x4 ADD PUSH2 0xC57 SWAP2 SWAP1 PUSH2 0x178B JUMP JUMPDEST PUSH1 0x20 PUSH1 0x40 MLOAD DUP1 DUP4 SUB DUP2 DUP7 GAS STATICCALL ISZERO DUP1 ISZERO PUSH2 0xC74 JUMPI RETURNDATASIZE PUSH1 0x0 DUP1 RETURNDATACOPY RETURNDATASIZE PUSH1 0x0 REVERT JUMPDEST POP POP POP POP PUSH1 0x40 MLOAD RETURNDATASIZE PUSH1 0x1F NOT PUSH1 0x1F DUP3 ADD AND DUP3 ADD DUP1 PUSH1 0x40 MSTORE POP DUP2 ADD SWAP1 PUSH2 0xC98 SWAP2 SWAP1 PUSH2 0x17BB JUMP JUMPDEST PUSH2 0x14E0 JUMP JUMPDEST SWAP1 POP PUSH1 0x0 DUP1 SLOAD SWAP1 PUSH2 0x100 EXP SWAP1 DIV PUSH20 0xFFFFFFFFFFFFFFFFFFFFFFFFFFFFFFFFFFFFFFFF AND PUSH20 0xFFFFFFFFFFFFFFFFFFFFFFFFFFFFFFFFFFFFFFFF AND PUSH4 0xA9059CBB ORIGIN DUP4 PUSH1 0x40 MLOAD DUP4 PUSH4 0xFFFFFFFF AND PUSH1 0xE0 SHL DUP2 MSTORE PUSH1 0x4 ADD PUSH2 0xCFA SWAP3 SWAP2 SWAP1 PUSH2 0x18DF JUMP JUMPDEST PUSH1 0x20 PUSH1 0x40 MLOAD DUP1 DUP4 SUB DUP2 PUSH1 0x0 DUP8 GAS CALL ISZERO DUP1 ISZERO PUSH2 0xD19 JUMPI RETURNDATASIZE PUSH1 0x0 DUP1 RETURNDATACOPY RETURNDATASIZE PUSH1 0x0 REVERT JUMPDEST POP POP POP POP PUSH1 0x40 MLOAD RETURNDATASIZE PUSH1 0x1F NOT PUSH1 0x1F DUP3 ADD AND DUP3 ADD DUP1 PUSH1 0x40 MSTORE POP DUP2 ADD SWAP1 PUSH2 0xD3D SWAP2 SWAP1 PUSH2 0x1940 JUMP JUMPDEST PUSH2 0xD46 JUMPI PUSH1 0x0 DUP1 REVERT JUMPDEST CALLVALUE PUSH1 0x3 PUSH1 0x0 DUP3 DUP3 SLOAD PUSH2 0xD58 SWAP2 SWAP1 PUSH2 0x196D JUMP JUMPDEST SWAP3 POP POP DUP2 SWAP1 SSTORE POP CALLVALUE PUSH1 0x4 PUSH1 0x0 ORIGIN PUSH20 0xFFFFFFFFFFFFFFFFFFFFFFFFFFFFFFFFFFFFFFFF AND PUSH20 0xFFFFFFFFFFFFFFFFFFFFFFFFFFFFFFFFFFFFFFFF AND DUP2 MSTORE PUSH1 0x20 ADD SWAP1 DUP2 MSTORE PUSH1 0x20 ADD PUSH1 0x0 KECCAK256 PUSH1 0x0 DUP3 DUP3 SLOAD PUSH2 0xDAE SWAP2 SWAP1 PUSH2 0x196D JUMP JUMPDEST SWAP3 POP POP DUP2 SWAP1 SSTORE POP DUP1 PUSH1 0x6 DUP2 SWAP1 SSTORE POP PUSH32 0xDB04C7A6D4758FD55D738EBC67E7F3010AC922BE00771EF29521A4090D1EB13F DUP2 PUSH1 0x40 MLOAD PUSH2 0xDEB SWAP2 SWAP1 PUSH2 0x1526 JUMP JUMPDEST PUSH1 0x40 MLOAD DUP1 SWAP2 SUB SWAP1 LOG1 POP JUMP JUMPDEST PUSH1 0x0 DUP1 PUSH1 0x0 SWAP1 SLOAD SWAP1 PUSH2 0x100 EXP SWAP1 DIV PUSH20 0xFFFFFFFFFFFFFFFFFFFFFFFFFFFFFFFFFFFFFFFF AND PUSH20 0xFFFFFFFFFFFFFFFFFFFFFFFFFFFFFFFFFFFFFFFF AND PUSH4 0x70A08231 ADDRESS PUSH1 0x40 MLOAD DUP3 PUSH4 0xFFFFFFFF AND PUSH1 0xE0 SHL DUP2 MSTORE PUSH1 0x4 ADD PUSH2 0xE52 SWAP2 SWAP1 PUSH2 0x178B JUMP JUMPDEST PUSH1 0x20 PUSH1 0x40 MLOAD DUP1 DUP4 SUB DUP2 DUP7 GAS STATICCALL ISZERO DUP1 ISZERO PUSH2 0xE6F JUMPI RETURNDATASIZE PUSH1 0x0 DUP1 RETURNDATACOPY RETURNDATASIZE PUSH1 0x0 REVERT JUMPDEST POP POP POP POP PUSH1 0x40 MLOAD RETURNDATASIZE PUSH1 0x1F NOT PUSH1 0x1F DUP3 ADD AND DUP3 ADD DUP1 PUSH1 0x40 MSTORE POP DUP2 ADD SWAP1 PUSH2 0xE93 SWAP2 SWAP1 PUSH2 0x17BB JUMP JUMPDEST SWAP1 POP SWAP1 JUMP JUMPDEST PUSH1 0x7 SLOAD DUP2 JUMP JUMPDEST PUSH1 0x5 PUSH1 0x20 MSTORE DUP1 PUSH1 0x0 MSTORE PUSH1 0x40 PUSH1 0x0 KECCAK256 PUSH1 0x0 SWAP2 POP SWAP1 POP SLOAD DUP2 JUMP JUMPDEST PUSH1 0x0 PUSH1 0x1 SLOAD EQ PUSH2 0xEC5 JUMPI PUSH1 0x0 DUP1 REVERT JUMPDEST PUSH1 0x0 PUSH1 0x3 DUP2 SWAP1 SSTORE POP DUP2 PUSH1 0x0 DUP1 PUSH2 0x100 EXP DUP2 SLOAD DUP2 PUSH20 0xFFFFFFFFFFFFFFFFFFFFFFFFFFFFFFFFFFFFFFFF MUL NOT AND SWAP1 DUP4 PUSH20 0xFFFFFFFFFFFFFFFFFFFFFFFFFFFFFFFFFFFFFFFF AND MUL OR SWAP1 SSTORE POP SELFBALANCE PUSH1 0x1 DUP2 SWAP1 SSTORE POP PUSH1 0x1 SLOAD PUSH1 0x5 PUSH1 0x0 CALLER PUSH20 0xFFFFFFFFFFFFFFFFFFFFFFFFFFFFFFFFFFFFFFFF AND PUSH20 0xFFFFFFFFFFFFFFFFFFFFFFFFFFFFFFFFFFFFFFFF AND DUP2 MSTORE PUSH1 0x20 ADD SWAP1 DUP2 MSTORE PUSH1 0x20 ADD PUSH1 0x0 KECCAK256 DUP2 SWAP1 SSTORE POP PUSH1 0x0 DUP1 SLOAD SWAP1 PUSH2 0x100 EXP SWAP1 DIV PUSH20 0xFFFFFFFFFFFFFFFFFFFFFFFFFFFFFFFFFFFFFFFF AND PUSH20 0xFFFFFFFFFFFFFFFFFFFFFFFFFFFFFFFFFFFFFFFF AND PUSH4 0x23B872DD CALLER ADDRESS DUP5 PUSH1 0x40 MLOAD DUP5 PUSH4 0xFFFFFFFF AND PUSH1 0xE0 SHL DUP2 MSTORE PUSH1 0x4 ADD PUSH2 0xFB7 SWAP4 SWAP3 SWAP2 SWAP1 PUSH2 0x19C3 JUMP JUMPDEST PUSH1 0x20 PUSH1 0x40 MLOAD DUP1 DUP4 SUB DUP2 PUSH1 0x0 DUP8 GAS CALL ISZERO DUP1 ISZERO PUSH2 0xFD6 JUMPI RETURNDATASIZE PUSH1 0x0 DUP1 RETURNDATACOPY RETURNDATASIZE PUSH1 0x0 REVERT JUMPDEST POP POP POP POP PUSH1 0x40 MLOAD RETURNDATASIZE PUSH1 0x1F NOT PUSH1 0x1F DUP3 ADD AND DUP3 ADD DUP1 PUSH1 0x40 MSTORE POP DUP2 ADD SWAP1 PUSH2 0xFFA SWAP2 SWAP1 PUSH2 0x1940 JUMP JUMPDEST PUSH2 0x1003 JUMPI PUSH1 0x0 DUP1 REVERT JUMPDEST PUSH32 0xC43E48CF47E9FA186D0F4096C61D1FCB54159799F935A2AA32E5589688EE36E1 PUSH1 0x1 SLOAD PUSH1 0x40 MLOAD PUSH2 0x1034 SWAP2 SWAP1 PUSH2 0x1526 JUMP JUMPDEST PUSH1 0x40 MLOAD DUP1 SWAP2 SUB SWAP1 LOG1 POP POP JUMP JUMPDEST PUSH1 0x0 CALLVALUE SELFBALANCE PUSH2 0x104E SWAP2 SWAP1 PUSH2 0x18AB JUMP JUMPDEST PUSH1 0x0 DUP1 SLOAD SWAP1 PUSH2 0x100 EXP SWAP1 DIV PUSH20 0xFFFFFFFFFFFFFFFFFFFFFFFFFFFFFFFFFFFFFFFF AND PUSH20 0xFFFFFFFFFFFFFFFFFFFFFFFFFFFFFFFFFFFFFFFF AND PUSH4 0x70A08231 ADDRESS PUSH1 0x40 MLOAD DUP3 PUSH4 0xFFFFFFFF AND PUSH1 0xE0 SHL DUP2 MSTORE PUSH1 0x4 ADD PUSH2 0x10A7 SWAP2 SWAP1 PUSH2 0x178B JUMP JUMPDEST PUSH1 0x20 PUSH1 0x40 MLOAD DUP1 DUP4 SUB DUP2 DUP7 GAS STATICCALL ISZERO DUP1 ISZERO PUSH2 0x10C4 JUMPI RETURNDATASIZE PUSH1 0x0 DUP1 RETURNDATACOPY RETURNDATASIZE PUSH1 0x0 REVERT JUMPDEST POP POP POP POP PUSH1 0x40 MLOAD RETURNDATASIZE PUSH1 0x1F NOT PUSH1 0x1F DUP3 ADD AND DUP3 ADD DUP1 PUSH1 0x40 MSTORE POP DUP2 ADD SWAP1 PUSH2 0x10E8 SWAP2 SWAP1 PUSH2 0x17BB JUMP JUMPDEST CALLVALUE PUSH2 0x10F3 SWAP2 SWAP1 PUSH2 0x16C2 JUMP JUMPDEST PUSH2 0x10FD SWAP2 SWAP1 PUSH2 0x174B JUMP JUMPDEST SWAP1 POP PUSH1 0x0 CALLVALUE SELFBALANCE PUSH2 0x110D SWAP2 SWAP1 PUSH2 0x18AB JUMP JUMPDEST PUSH1 0x1 SLOAD CALLVALUE PUSH2 0x111B SWAP2 SWAP1 PUSH2 0x16C2 JUMP JUMPDEST PUSH2 0x1125 SWAP2 SWAP1 PUSH2 0x174B JUMP JUMPDEST SWAP1 POP DUP1 PUSH1 0x5 PUSH1 0x0 ORIGIN PUSH20 0xFFFFFFFFFFFFFFFFFFFFFFFFFFFFFFFFFFFFFFFF AND PUSH20 0xFFFFFFFFFFFFFFFFFFFFFFFFFFFFFFFFFFFFFFFF AND DUP2 MSTORE PUSH1 0x20 ADD SWAP1 DUP2 MSTORE PUSH1 0x20 ADD PUSH1 0x0 KECCAK256 PUSH1 0x0 DUP3 DUP3 SLOAD PUSH2 0x1176 SWAP2 SWAP1 PUSH2 0x196D JUMP JUMPDEST SWAP3 POP POP DUP2 SWAP1 SSTORE POP DUP1 PUSH1 0x1 PUSH1 0x0 DUP3 DUP3 SLOAD PUSH2 0x118F SWAP2 SWAP1 PUSH2 0x196D JUMP JUMPDEST SWAP3 POP POP DUP2 SWAP1 SSTORE POP PUSH1 0x0 DUP1 SLOAD SWAP1 PUSH2 0x100 EXP SWAP1 DIV PUSH20 0xFFFFFFFFFFFFFFFFFFFFFFFFFFFFFFFFFFFFFFFF AND PUSH20 0xFFFFFFFFFFFFFFFFFFFFFFFFFFFFFFFFFFFFFFFF AND PUSH4 0x23B872DD ORIGIN ADDRESS DUP6 PUSH1 0x40 MLOAD DUP5 PUSH4 0xFFFFFFFF AND PUSH1 0xE0 SHL DUP2 MSTORE PUSH1 0x4 ADD PUSH2 0x11F3 SWAP4 SWAP3 SWAP2 SWAP1 PUSH2 0x19C3 JUMP JUMPDEST PUSH1 0x20 PUSH1 0x40 MLOAD DUP1 DUP4 SUB DUP2 PUSH1 0x0 DUP8 GAS CALL ISZERO DUP1 ISZERO PUSH2 0x1212 JUMPI RETURNDATASIZE PUSH1 0x0 DUP1 RETURNDATACOPY RETURNDATASIZE PUSH1 0x0 REVERT JUMPDEST POP POP POP POP PUSH1 0x40 MLOAD RETURNDATASIZE PUSH1 0x1F NOT PUSH1 0x1F DUP3 ADD AND DUP3 ADD DUP1 PUSH1 0x40 MSTORE POP DUP2 ADD SWAP1 PUSH2 0x1236 SWAP2 SWAP1 PUSH2 0x1940 JUMP JUMPDEST PUSH2 0x123F JUMPI PUSH1 0x0 DUP1 REVERT JUMPDEST PUSH32 0x4D6CE1E535DBADE1C23DEFBA91E23B8F791CE5EDC0CC320257A2B364E4E38426 DUP2 PUSH1 0x40 MLOAD PUSH2 0x126E SWAP2 SWAP1 PUSH2 0x1526 JUMP JUMPDEST PUSH1 0x40 MLOAD DUP1 SWAP2 SUB SWAP1 LOG1 DUP1 PUSH1 0x8 DUP2 SWAP1 SSTORE POP POP POP JUMP JUMPDEST PUSH1 0x3 SLOAD DUP2 JUMP JUMPDEST PUSH1 0x0 PUSH2 0x132D DUP3 PUSH1 0x0 DUP1 SLOAD SWAP1 PUSH2 0x100 EXP SWAP1 DIV PUSH20 0xFFFFFFFFFFFFFFFFFFFFFFFFFFFFFFFFFFFFFFFF AND PUSH20 0xFFFFFFFFFFFFFFFFFFFFFFFFFFFFFFFFFFFFFFFF AND PUSH4 0x70A08231 ADDRESS PUSH1 0x40 MLOAD DUP3 PUSH4 0xFFFFFFFF AND PUSH1 0xE0 SHL DUP2 MSTORE PUSH1 0x4 ADD PUSH2 0x12E6 SWAP2 SWAP1 PUSH2 0x178B JUMP JUMPDEST PUSH1 0x20 PUSH1 0x40 MLOAD DUP1 DUP4 SUB DUP2 DUP7 GAS STATICCALL ISZERO DUP1 ISZERO PUSH2 0x1303 JUMPI RETURNDATASIZE PUSH1 0x0 DUP1 RETURNDATACOPY RETURNDATASIZE PUSH1 0x0 REVERT JUMPDEST POP POP POP POP PUSH1 0x40 MLOAD RETURNDATASIZE PUSH1 0x1F NOT PUSH1 0x1F DUP3 ADD AND DUP3 ADD DUP1 PUSH1 0x40 MSTORE POP DUP2 ADD SWAP1 PUSH2 0x1327 SWAP2 SWAP1 PUSH2 0x17BB JUMP JUMPDEST SELFBALANCE PUSH2 0x14E0 JUMP JUMPDEST SWAP1 POP PUSH1 0x0 ORIGIN PUSH20 0xFFFFFFFFFFFFFFFFFFFFFFFFFFFFFFFFFFFFFFFF AND DUP3 PUSH1 0x40 MLOAD PUSH2 0x1355 SWAP1 PUSH2 0x1819 JUMP JUMPDEST PUSH1 0x0 PUSH1 0x40 MLOAD DUP1 DUP4 SUB DUP2 DUP6 DUP8 GAS CALL SWAP3 POP POP POP RETURNDATASIZE DUP1 PUSH1 0x0 DUP2 EQ PUSH2 0x1392 JUMPI PUSH1 0x40 MLOAD SWAP2 POP PUSH1 0x1F NOT PUSH1 0x3F RETURNDATASIZE ADD AND DUP3 ADD PUSH1 0x40 MSTORE RETURNDATASIZE DUP3 MSTORE RETURNDATASIZE PUSH1 0x0 PUSH1 0x20 DUP5 ADD RETURNDATACOPY PUSH2 0x1397 JUMP JUMPDEST PUSH1 0x60 SWAP2 POP JUMPDEST POP POP SWAP1 POP DUP1 PUSH2 0x13DB JUMPI PUSH1 0x40 MLOAD PUSH32 0x8C379A000000000000000000000000000000000000000000000000000000000 DUP2 MSTORE PUSH1 0x4 ADD PUSH2 0x13D2 SWAP1 PUSH2 0x188B JUMP JUMPDEST PUSH1 0x40 MLOAD DUP1 SWAP2 SUB SWAP1 REVERT JUMPDEST PUSH1 0x0 DUP1 SLOAD SWAP1 PUSH2 0x100 EXP SWAP1 DIV PUSH20 0xFFFFFFFFFFFFFFFFFFFFFFFFFFFFFFFFFFFFFFFF AND PUSH20 0xFFFFFFFFFFFFFFFFFFFFFFFFFFFFFFFFFFFFFFFF AND PUSH4 0x23B872DD ORIGIN ADDRESS DUP7 PUSH1 0x40 MLOAD DUP5 PUSH4 0xFFFFFFFF AND PUSH1 0xE0 SHL DUP2 MSTORE PUSH1 0x4 ADD PUSH2 0x1438 SWAP4 SWAP3 SWAP2 SWAP1 PUSH2 0x19C3 JUMP JUMPDEST PUSH1 0x20 PUSH1 0x40 MLOAD DUP1 DUP4 SUB DUP2 PUSH1 0x0 DUP8 GAS CALL ISZERO DUP1 ISZERO PUSH2 0x1457 JUMPI RETURNDATASIZE PUSH1 0x0 DUP1 RETURNDATACOPY RETURNDATASIZE PUSH1 0x0 REVERT JUMPDEST POP POP POP POP PUSH1 0x40 MLOAD RETURNDATASIZE PUSH1 0x1F NOT PUSH1 0x1F DUP3 ADD AND DUP3 ADD DUP1 PUSH1 0x40 MSTORE POP DUP2 ADD SWAP1 PUSH2 0x147B SWAP2 SWAP1 PUSH2 0x1940 JUMP JUMPDEST PUSH2 0x1484 JUMPI PUSH1 0x0 DUP1 REVERT JUMPDEST DUP2 PUSH1 0x3 PUSH1 0x0 DUP3 DUP3 SLOAD PUSH2 0x1496 SWAP2 SWAP1 PUSH2 0x196D JUMP JUMPDEST SWAP3 POP POP DUP2 SWAP1 SSTORE POP PUSH32 0x4DBF3A71A7C7262F432C2CAD7808225832255D07F7D8AB85117677C0B5C0A850 DUP3 PUSH1 0x40 MLOAD PUSH2 0x14CC SWAP2 SWAP1 PUSH2 0x1526 JUMP JUMPDEST PUSH1 0x40 MLOAD DUP1 SWAP2 SUB SWAP1 LOG1 DUP2 PUSH1 0x7 DUP2 SWAP1 SSTORE POP POP POP POP JUMP JUMPDEST PUSH1 0x0 DUP4 DUP4 PUSH2 0x14EE SWAP2 SWAP1 PUSH2 0x196D JUMP JUMPDEST DUP3 DUP6 PUSH2 0x14FA SWAP2 SWAP1 PUSH2 0x16C2 JUMP JUMPDEST PUSH2 0x1504 SWAP2 SWAP1 PUSH2 0x174B JUMP JUMPDEST SWAP1 POP SWAP4 SWAP3 POP POP POP JUMP JUMPDEST PUSH1 0x0 DUP2 SWAP1 POP SWAP2 SWAP1 POP JUMP JUMPDEST PUSH2 0x1520 DUP2 PUSH2 0x150D JUMP JUMPDEST DUP3 MSTORE POP POP JUMP JUMPDEST PUSH1 0x0 PUSH1 0x20 DUP3 ADD SWAP1 POP PUSH2 0x153B PUSH1 0x0 DUP4 ADD DUP5 PUSH2 0x1517 JUMP JUMPDEST SWAP3 SWAP2 POP POP JUMP JUMPDEST PUSH1 0x0 DUP1 REVERT JUMPDEST PUSH2 0x154F DUP2 PUSH2 0x150D JUMP JUMPDEST DUP2 EQ PUSH2 0x155A JUMPI PUSH1 0x0 DUP1 REVERT JUMPDEST POP JUMP JUMPDEST PUSH1 0x0 DUP2 CALLDATALOAD SWAP1 POP PUSH2 0x156C DUP2 PUSH2 0x1546 JUMP JUMPDEST SWAP3 SWAP2 POP POP JUMP JUMPDEST PUSH1 0x0 PUSH1 0x20 DUP3 DUP5 SUB SLT ISZERO PUSH2 0x1588 JUMPI PUSH2 0x1587 PUSH2 0x1541 JUMP JUMPDEST JUMPDEST PUSH1 0x0 PUSH2 0x1596 DUP5 DUP3 DUP6 ADD PUSH2 0x155D JUMP JUMPDEST SWAP2 POP POP SWAP3 SWAP2 POP POP JUMP JUMPDEST PUSH1 0x0 PUSH1 0x40 DUP3 ADD SWAP1 POP PUSH2 0x15B4 PUSH1 0x0 DUP4 ADD DUP6 PUSH2 0x1517 JUMP JUMPDEST PUSH2 0x15C1 PUSH1 0x20 DUP4 ADD DUP5 PUSH2 0x1517 JUMP JUMPDEST SWAP4 SWAP3 POP POP POP JUMP JUMPDEST PUSH1 0x0 PUSH20 0xFFFFFFFFFFFFFFFFFFFFFFFFFFFFFFFFFFFFFFFF DUP3 AND SWAP1 POP SWAP2 SWAP1 POP JUMP JUMPDEST PUSH1 0x0 PUSH2 0x15F3 DUP3 PUSH2 0x15C8 JUMP JUMPDEST SWAP1 POP SWAP2 SWAP1 POP JUMP JUMPDEST PUSH2 0x1603 DUP2 PUSH2 0x15E8 JUMP JUMPDEST DUP2 EQ PUSH2 0x160E JUMPI PUSH1 0x0 DUP1 REVERT JUMPDEST POP JUMP JUMPDEST PUSH1 0x0 DUP2 CALLDATALOAD SWAP1 POP PUSH2 0x1620 DUP2 PUSH2 0x15FA JUMP JUMPDEST SWAP3 SWAP2 POP POP JUMP JUMPDEST PUSH1 0x0 PUSH1 0x20 DUP3 DUP5 SUB SLT ISZERO PUSH2 0x163C JUMPI PUSH2 0x163B PUSH2 0x1541 JUMP JUMPDEST JUMPDEST PUSH1 0x0 PUSH2 0x164A DUP5 DUP3 DUP6 ADD PUSH2 0x1611 JUMP JUMPDEST SWAP2 POP POP SWAP3 SWAP2 POP POP JUMP JUMPDEST PUSH1 0x0 DUP1 PUSH1 0x40 DUP4 DUP6 SUB SLT ISZERO PUSH2 0x166A JUMPI PUSH2 0x1669 PUSH2 0x1541 JUMP JUMPDEST JUMPDEST PUSH1 0x0 PUSH2 0x1678 DUP6 DUP3 DUP7 ADD PUSH2 0x1611 JUMP JUMPDEST SWAP3 POP POP PUSH1 0x20 PUSH2 0x1689 DUP6 DUP3 DUP7 ADD PUSH2 0x155D JUMP JUMPDEST SWAP2 POP POP SWAP3 POP SWAP3 SWAP1 POP JUMP JUMPDEST PUSH32 0x4E487B7100000000000000000000000000000000000000000000000000000000 PUSH1 0x0 MSTORE PUSH1 0x11 PUSH1 0x4 MSTORE PUSH1 0x24 PUSH1 0x0 REVERT JUMPDEST PUSH1 0x0 PUSH2 0x16CD DUP3 PUSH2 0x150D JUMP JUMPDEST SWAP2 POP PUSH2 0x16D8 DUP4 PUSH2 0x150D JUMP JUMPDEST SWAP3 POP DUP2 PUSH32 0xFFFFFFFFFFFFFFFFFFFFFFFFFFFFFFFFFFFFFFFFFFFFFFFFFFFFFFFFFFFFFFFF DIV DUP4 GT DUP3 ISZERO ISZERO AND ISZERO PUSH2 0x1711 JUMPI PUSH2 0x1710 PUSH2 0x1693 JUMP JUMPDEST JUMPDEST DUP3 DUP3 MUL SWAP1 POP SWAP3 SWAP2 POP POP JUMP JUMPDEST PUSH32 0x4E487B7100000000000000000000000000000000000000000000000000000000 PUSH1 0x0 MSTORE PUSH1 0x12 PUSH1 0x4 MSTORE PUSH1 0x24 PUSH1 0x0 REVERT JUMPDEST PUSH1 0x0 PUSH2 0x1756 DUP3 PUSH2 0x150D JUMP JUMPDEST SWAP2 POP PUSH2 0x1761 DUP4 PUSH2 0x150D JUMP JUMPDEST SWAP3 POP DUP3 PUSH2 0x1771 JUMPI PUSH2 0x1770 PUSH2 0x171C JUMP JUMPDEST JUMPDEST DUP3 DUP3 DIV SWAP1 POP SWAP3 SWAP2 POP POP JUMP JUMPDEST PUSH2 0x1785 DUP2 PUSH2 0x15E8 JUMP JUMPDEST DUP3 MSTORE POP POP JUMP JUMPDEST PUSH1 0x0 PUSH1 0x20 DUP3 ADD SWAP1 POP PUSH2 0x17A0 PUSH1 0x0 DUP4 ADD DUP5 PUSH2 0x177C JUMP JUMPDEST SWAP3 SWAP2 POP POP JUMP JUMPDEST PUSH1 0x0 DUP2 MLOAD SWAP1 POP PUSH2 0x17B5 DUP2 PUSH2 0x1546 JUMP JUMPDEST SWAP3 SWAP2 POP POP JUMP JUMPDEST PUSH1 0x0 PUSH1 0x20 DUP3 DUP5 SUB SLT ISZERO PUSH2 0x17D1 JUMPI PUSH2 0x17D0 PUSH2 0x1541 JUMP JUMPDEST JUMPDEST PUSH1 0x0 PUSH2 0x17DF DUP5 DUP3 DUP6 ADD PUSH2 0x17A6 JUMP JUMPDEST SWAP2 POP POP SWAP3 SWAP2 POP POP JUMP JUMPDEST PUSH1 0x0 DUP2 SWAP1 POP SWAP3 SWAP2 POP POP JUMP JUMPDEST POP JUMP JUMPDEST PUSH1 0x0 PUSH2 0x1803 PUSH1 0x0 DUP4 PUSH2 0x17E8 JUMP JUMPDEST SWAP2 POP PUSH2 0x180E DUP3 PUSH2 0x17F3 JUMP JUMPDEST PUSH1 0x0 DUP3 ADD SWAP1 POP SWAP2 SWAP1 POP JUMP JUMPDEST PUSH1 0x0 PUSH2 0x1824 DUP3 PUSH2 0x17F6 JUMP JUMPDEST SWAP2 POP DUP2 SWAP1 POP SWAP2 SWAP1 POP JUMP JUMPDEST PUSH1 0x0 DUP3 DUP3 MSTORE PUSH1 0x20 DUP3 ADD SWAP1 POP SWAP3 SWAP2 POP POP JUMP JUMPDEST PUSH32 0x5472616E73666572206661696C65642E00000000000000000000000000000000 PUSH1 0x0 DUP3 ADD MSTORE POP JUMP JUMPDEST PUSH1 0x0 PUSH2 0x1875 PUSH1 0x10 DUP4 PUSH2 0x182E JUMP JUMPDEST SWAP2 POP PUSH2 0x1880 DUP3 PUSH2 0x183F JUMP JUMPDEST PUSH1 0x20 DUP3 ADD SWAP1 POP SWAP2 SWAP1 POP JUMP JUMPDEST PUSH1 0x0 PUSH1 0x20 DUP3 ADD SWAP1 POP DUP2 DUP2 SUB PUSH1 0x0 DUP4 ADD MSTORE PUSH2 0x18A4 DUP2 PUSH2 0x1868 JUMP JUMPDEST SWAP1 POP SWAP2 SWAP1 POP JUMP JUMPDEST PUSH1 0x0 PUSH2 0x18B6 DUP3 PUSH2 0x150D JUMP JUMPDEST SWAP2 POP PUSH2 0x18C1 DUP4 PUSH2 0x150D JUMP JUMPDEST SWAP3 POP DUP3 DUP3 LT ISZERO PUSH2 0x18D4 JUMPI PUSH2 0x18D3 PUSH2 0x1693 JUMP JUMPDEST JUMPDEST DUP3 DUP3 SUB SWAP1 POP SWAP3 SWAP2 POP POP JUMP JUMPDEST PUSH1 0x0 PUSH1 0x40 DUP3 ADD SWAP1 POP PUSH2 0x18F4 PUSH1 0x0 DUP4 ADD DUP6 PUSH2 0x177C JUMP JUMPDEST PUSH2 0x1901 PUSH1 0x20 DUP4 ADD DUP5 PUSH2 0x1517 JUMP JUMPDEST SWAP4 SWAP3 POP POP POP JUMP JUMPDEST PUSH1 0x0 DUP2 ISZERO ISZERO SWAP1 POP SWAP2 SWAP1 POP JUMP JUMPDEST PUSH2 0x191D DUP2 PUSH2 0x1908 JUMP JUMPDEST DUP2 EQ PUSH2 0x1928 JUMPI PUSH1 0x0 DUP1 REVERT JUMPDEST POP JUMP JUMPDEST PUSH1 0x0 DUP2 MLOAD SWAP1 POP PUSH2 0x193A DUP2 PUSH2 0x1914 JUMP JUMPDEST SWAP3 SWAP2 POP POP JUMP JUMPDEST PUSH1 0x0 PUSH1 0x20 DUP3 DUP5 SUB SLT ISZERO PUSH2 0x1956 JUMPI PUSH2 0x1955 PUSH2 0x1541 JUMP JUMPDEST JUMPDEST PUSH1 0x0 PUSH2 0x1964 DUP5 DUP3 DUP6 ADD PUSH2 0x192B JUMP JUMPDEST SWAP2 POP POP SWAP3 SWAP2 POP POP JUMP JUMPDEST PUSH1 0x0 PUSH2 0x1978 DUP3 PUSH2 0x150D JUMP JUMPDEST SWAP2 POP PUSH2 0x1983 DUP4 PUSH2 0x150D JUMP JUMPDEST SWAP3 POP DUP3 PUSH32 0xFFFFFFFFFFFFFFFFFFFFFFFFFFFFFFFFFFFFFFFFFFFFFFFFFFFFFFFFFFFFFFFF SUB DUP3 GT ISZERO PUSH2 0x19B8 JUMPI PUSH2 0x19B7 PUSH2 0x1693 JUMP JUMPDEST JUMPDEST DUP3 DUP3 ADD SWAP1 POP SWAP3 SWAP2 POP POP JUMP JUMPDEST PUSH1 0x0 PUSH1 0x60 DUP3 ADD SWAP1 POP PUSH2 0x19D8 PUSH1 0x0 DUP4 ADD DUP7 PUSH2 0x177C JUMP JUMPDEST PUSH2 0x19E5 PUSH1 0x20 DUP4 ADD DUP6 PUSH2 0x177C JUMP JUMPDEST PUSH2 0x19F2 PUSH1 0x40 DUP4 ADD DUP5 PUSH2 0x1517 JUMP JUMPDEST SWAP5 SWAP4 POP POP POP POP JUMP INVALID LOG2 PUSH5 0x6970667358 0x22 SLT KECCAK256 0xCB CHAINID LOG3 MSIZE SELFDESTRUCT MLOAD PUSH29 0xB70F9FDB8FBF7CCDCF7CEB0517F11BEEDBE7215E5B2999358764736F6C PUSH4 0x4300080F STOP CALLER "
				},
				"gasEstimates": {
					"creation": {
						"codeDepositCost": "1340800",
						"executionCost": "25663",
						"totalCost": "1366463"
					},
					"external": {
						"deposit()": "infinite",
						"distributeFee()": "infinite",
						"ercToEth(uint256)": "infinite",
						"ethToErc()": "infinite",
						"eth_received()": "2540",
						"fee()": "2517",
						"getBalance()": "363",
						"getTokenBalance()": "infinite",
						"initialize(address,uint256)": "infinite",
						"invested(address)": "2886",
						"investors(address)": "2903",
						"liq_added()": "2540",
						"liquidity(address)": "2836",
						"liquidityAdded(uint256)": "infinite",
						"liquiditySubstracted(uint256)": "infinite",
						"priceERC(uint256)": "infinite",
						"priceETH(uint256)": "infinite",
						"tokens_received()": "2474",
						"total_liquidity()": "2541",
						"withdraw(uint256)": "infinite"
					},
					"internal": {
						"calculatePrice(uint256,uint256,uint256)": "infinite"
					}
				},
				"methodIdentifiers": {
					"deposit()": "d0e30db0",
					"distributeFee()": "26c4e60d",
					"ercToEth(uint256)": "debc674c",
					"ethToErc()": "7937c03d",
					"eth_received()": "8666107c",
					"fee()": "ddca3f43",
					"getBalance()": "12065fe0",
					"getTokenBalance()": "82b2e257",
					"initialize(address,uint256)": "cd6dc687",
					"invested(address)": "66b3f6bf",
					"investors(address)": "6f7bc9be",
					"liq_added()": "707e7e87",
					"liquidity(address)": "b8c876b1",
					"liquidityAdded(uint256)": "5f244d4e",
					"liquiditySubstracted(uint256)": "1eb928aa",
					"priceERC(uint256)": "72a9d124",
					"priceETH(uint256)": "67da263d",
					"tokens_received()": "74942c0f",
					"total_liquidity()": "31f3bd28",
					"withdraw(uint256)": "2e1a7d4d"
				}
			},
			"storageLayout": {
				"storage": [
					{
						"astId": 716,
						"contract": "PFG/AMM.sol:DEX",
						"label": "tokenERC",
						"offset": 0,
						"slot": "0",
						"type": "t_contract(IERC20)663"
					},
					{
						"astId": 718,
						"contract": "PFG/AMM.sol:DEX",
						"label": "total_liquidity",
						"offset": 0,
						"slot": "1",
						"type": "t_uint256"
					},
					{
						"astId": 720,
						"contract": "PFG/AMM.sol:DEX",
						"label": "deployer",
						"offset": 0,
						"slot": "2",
						"type": "t_address"
					},
					{
						"astId": 722,
						"contract": "PFG/AMM.sol:DEX",
						"label": "fee",
						"offset": 0,
						"slot": "3",
						"type": "t_uint256"
					},
					{
						"astId": 726,
						"contract": "PFG/AMM.sol:DEX",
						"label": "investors",
						"offset": 0,
						"slot": "4",
						"type": "t_mapping(t_address,t_uint256)"
					},
					{
						"astId": 730,
						"contract": "PFG/AMM.sol:DEX",
						"label": "liquidity",
						"offset": 0,
						"slot": "5",
						"type": "t_mapping(t_address,t_uint256)"
					},
					{
						"astId": 754,
						"contract": "PFG/AMM.sol:DEX",
						"label": "tokens_received",
						"offset": 0,
						"slot": "6",
						"type": "t_uint256"
					},
					{
						"astId": 756,
						"contract": "PFG/AMM.sol:DEX",
						"label": "eth_received",
						"offset": 0,
						"slot": "7",
						"type": "t_uint256"
					},
					{
						"astId": 758,
						"contract": "PFG/AMM.sol:DEX",
						"label": "liq_added",
						"offset": 0,
						"slot": "8",
						"type": "t_uint256"
					}
				],
				"types": {
					"t_address": {
						"encoding": "inplace",
						"label": "address",
						"numberOfBytes": "20"
					},
					"t_contract(IERC20)663": {
						"encoding": "inplace",
						"label": "contract IERC20",
						"numberOfBytes": "20"
					},
					"t_mapping(t_address,t_uint256)": {
						"encoding": "mapping",
						"key": "t_address",
						"label": "mapping(address => uint256)",
						"numberOfBytes": "32",
						"value": "t_uint256"
					},
					"t_uint256": {
						"encoding": "inplace",
						"label": "uint256",
						"numberOfBytes": "32"
					}
				}
			},
			"userdoc": {
				"kind": "user",
				"methods": {},
				"version": 1
			}
		}
	}
}