{
	"PFG/LP.sol": {
		"DEX": {
			"abi": [
				{
					"anonymous": false,
					"inputs": [
						{
							"indexed": true,
							"internalType": "address",
							"name": "who",
							"type": "address"
						},
						{
							"indexed": false,
							"internalType": "uint256",
							"name": "amountX",
							"type": "uint256"
						},
						{
							"indexed": false,
							"internalType": "uint256",
							"name": "amountY",
							"type": "uint256"
						}
					],
					"name": "Init",
					"type": "event"
				},
				{
					"inputs": [],
					"name": "ETHtoTFA",
					"outputs": [],
					"stateMutability": "payable",
					"type": "function"
				},
				{
					"inputs": [],
					"name": "assetX",
					"outputs": [
						{
							"internalType": "uint256",
							"name": "",
							"type": "uint256"
						}
					],
					"stateMutability": "view",
					"type": "function"
				},
				{
					"inputs": [],
					"name": "assetY",
					"outputs": [
						{
							"internalType": "uint256",
							"name": "",
							"type": "uint256"
						}
					],
					"stateMutability": "view",
					"type": "function"
				},
				{
					"inputs": [
						{
							"internalType": "uint256",
							"name": "eth",
							"type": "uint256"
						}
					],
					"name": "buyTFA",
					"outputs": [],
					"stateMutability": "nonpayable",
					"type": "function"
				},
				{
					"inputs": [
						{
							"internalType": "int256",
							"name": "x",
							"type": "int256"
						},
						{
							"internalType": "int256",
							"name": "y",
							"type": "int256"
						},
						{
							"internalType": "int256",
							"name": "dx",
							"type": "int256"
						}
					],
					"name": "calculatePrice",
					"outputs": [
						{
							"internalType": "int256",
							"name": "",
							"type": "int256"
						}
					],
					"stateMutability": "pure",
					"type": "function"
				},
				{
					"inputs": [],
					"name": "constK",
					"outputs": [
						{
							"internalType": "uint256",
							"name": "",
							"type": "uint256"
						}
					],
					"stateMutability": "view",
					"type": "function"
				},
				{
					"inputs": [],
					"name": "example",
					"outputs": [],
					"stateMutability": "nonpayable",
					"type": "function"
				},
				{
					"inputs": [
						{
							"internalType": "address",
							"name": "token_address",
							"type": "address"
						},
						{
							"internalType": "uint256",
							"name": "valueX",
							"type": "uint256"
						},
						{
							"internalType": "uint256",
							"name": "valueY",
							"type": "uint256"
						}
					],
					"name": "init",
					"outputs": [],
					"stateMutability": "payable",
					"type": "function"
				}
			],
			"devdoc": {
				"kind": "dev",
				"methods": {},
				"version": 1
			},
			"evm": {
				"assembly": "    /* \"PFG/LP.sol\":161:2272  contract DEX {\r... */\n  mstore(0x40, 0x80)\n  callvalue\n  dup1\n  iszero\n  tag_1\n  jumpi\n  0x00\n  dup1\n  revert\ntag_1:\n  pop\n  dataSize(sub_0)\n  dup1\n  dataOffset(sub_0)\n  0x00\n  codecopy\n  0x00\n  return\nstop\n\nsub_0: assembly {\n        /* \"PFG/LP.sol\":161:2272  contract DEX {\r... */\n      mstore(0x40, 0x80)\n      jumpi(tag_1, lt(calldatasize, 0x04))\n      shr(0xe0, calldataload(0x00))\n      dup1\n      0x9a304317\n      gt\n      tag_10\n      jumpi\n      dup1\n      0x9a304317\n      eq\n      tag_6\n      jumpi\n      dup1\n      0xa4a2a9f6\n      eq\n      tag_7\n      jumpi\n      dup1\n      0xb905128b\n      eq\n      tag_8\n      jumpi\n      dup1\n      0xe2d84ac7\n      eq\n      tag_9\n      jumpi\n      jump(tag_1)\n    tag_10:\n      dup1\n      0x4a1d8d60\n      eq\n      tag_2\n      jumpi\n      dup1\n      0x54353f2f\n      eq\n      tag_3\n      jumpi\n      dup1\n      0x7583d880\n      eq\n      tag_4\n      jumpi\n      dup1\n      0x788ece96\n      eq\n      tag_5\n      jumpi\n    tag_1:\n      0x00\n      dup1\n      revert\n        /* \"PFG/LP.sol\":261:282  uint256 public assetX */\n    tag_2:\n      callvalue\n      dup1\n      iszero\n      tag_11\n      jumpi\n      0x00\n      dup1\n      revert\n    tag_11:\n      pop\n      tag_12\n      tag_13\n      jump\t// in\n    tag_12:\n      mload(0x40)\n      tag_14\n      swap2\n      swap1\n      tag_15\n      jump\t// in\n    tag_14:\n      mload(0x40)\n      dup1\n      swap2\n      sub\n      swap1\n      return\n        /* \"PFG/LP.sol\":1941:2058  function example() external {\r... */\n    tag_3:\n      callvalue\n      dup1\n      iszero\n      tag_16\n      jumpi\n      0x00\n      dup1\n      revert\n    tag_16:\n      pop\n      tag_17\n      tag_18\n      jump\t// in\n    tag_17:\n      stop\n        /* \"PFG/LP.sol\":2066:2259  function buyTFA(uint256 eth) external {\r... */\n    tag_4:\n      callvalue\n      dup1\n      iszero\n      tag_19\n      jumpi\n      0x00\n      dup1\n      revert\n    tag_19:\n      pop\n      tag_20\n      0x04\n      dup1\n      calldatasize\n      sub\n      dup2\n      add\n      swap1\n      tag_21\n      swap2\n      swap1\n      tag_22\n      jump\t// in\n    tag_21:\n      tag_23\n      jump\t// in\n    tag_20:\n      stop\n        /* \"PFG/LP.sol\":1616:1743  function calculatePrice(int256 x, int256 y, int256 dx) public pure returns(int256){\r... */\n    tag_5:\n      callvalue\n      dup1\n      iszero\n      tag_24\n      jumpi\n      0x00\n      dup1\n      revert\n    tag_24:\n      pop\n      tag_25\n      0x04\n      dup1\n      calldatasize\n      sub\n      dup2\n      add\n      swap1\n      tag_26\n      swap2\n      swap1\n      tag_27\n      jump\t// in\n    tag_26:\n      tag_28\n      jump\t// in\n    tag_25:\n      mload(0x40)\n      tag_29\n      swap2\n      swap1\n      tag_30\n      jump\t// in\n    tag_29:\n      mload(0x40)\n      dup1\n      swap2\n      sub\n      swap1\n      return\n        /* \"PFG/LP.sol\":1751:1933  function ETHtoTFA() external payable{\r... */\n    tag_6:\n      tag_31\n      tag_32\n      jump\t// in\n    tag_31:\n      stop\n        /* \"PFG/LP.sol\":969:1608  function init(address token_address, uint256 valueX, uint256 valueY) external payable{\r... */\n    tag_7:\n      tag_33\n      0x04\n      dup1\n      calldatasize\n      sub\n      dup2\n      add\n      swap1\n      tag_34\n      swap2\n      swap1\n      tag_35\n      jump\t// in\n    tag_34:\n      tag_36\n      jump\t// in\n    tag_33:\n      stop\n        /* \"PFG/LP.sol\":387:408  uint256 public constK */\n    tag_8:\n      callvalue\n      dup1\n      iszero\n      tag_37\n      jumpi\n      0x00\n      dup1\n      revert\n    tag_37:\n      pop\n      tag_38\n      tag_39\n      jump\t// in\n    tag_38:\n      mload(0x40)\n      tag_40\n      swap2\n      swap1\n      tag_15\n      jump\t// in\n    tag_40:\n      mload(0x40)\n      dup1\n      swap2\n      sub\n      swap1\n      return\n        /* \"PFG/LP.sol\":339:360  uint256 public assetY */\n    tag_9:\n      callvalue\n      dup1\n      iszero\n      tag_41\n      jumpi\n      0x00\n      dup1\n      revert\n    tag_41:\n      pop\n      tag_42\n      tag_43\n      jump\t// in\n    tag_42:\n      mload(0x40)\n      tag_44\n      swap2\n      swap1\n      tag_15\n      jump\t// in\n    tag_44:\n      mload(0x40)\n      dup1\n      swap2\n      sub\n      swap1\n      return\n        /* \"PFG/LP.sol\":261:282  uint256 public assetX */\n    tag_13:\n      sload(0x01)\n      dup2\n      jump\t// out\n        /* \"PFG/LP.sol\":1941:2058  function example() external {\r... */\n    tag_18:\n        /* \"PFG/LP.sol\":1989:1992  100 */\n      0x64\n        /* \"PFG/LP.sol\":1980:1986  assetX */\n      0x01\n        /* \"PFG/LP.sol\":1980:1992  assetX = 100 */\n      dup2\n      swap1\n      sstore\n      pop\n        /* \"PFG/LP.sol\":2012:2015  200 */\n      0xc8\n        /* \"PFG/LP.sol\":2003:2009  assetY */\n      0x02\n        /* \"PFG/LP.sol\":2003:2015  assetY = 200 */\n      dup2\n      swap1\n      sstore\n      pop\n        /* \"PFG/LP.sol\":2044:2050  assetY */\n      sload(0x02)\n        /* \"PFG/LP.sol\":2035:2041  assetX */\n      sload(0x01)\n        /* \"PFG/LP.sol\":2035:2050  assetX * assetY */\n      tag_46\n      swap2\n      swap1\n      tag_47\n      jump\t// in\n    tag_46:\n        /* \"PFG/LP.sol\":2026:2032  constK */\n      0x03\n        /* \"PFG/LP.sol\":2026:2050  constK = assetX * assetY */\n      dup2\n      swap1\n      sstore\n      pop\n        /* \"PFG/LP.sol\":1941:2058  function example() external {\r... */\n      jump\t// out\n        /* \"PFG/LP.sol\":2066:2259  function buyTFA(uint256 eth) external {\r... */\n    tag_23:\n        /* \"PFG/LP.sol\":2125:2144  uint256 token_value */\n      0x00\n        /* \"PFG/LP.sol\":2173:2176  eth */\n      dup2\n        /* \"PFG/LP.sol\":2164:2170  assetY */\n      sload(0x02)\n        /* \"PFG/LP.sol\":2164:2176  assetY + eth */\n      tag_49\n      swap2\n      swap1\n      tag_50\n      jump\t// in\n    tag_49:\n        /* \"PFG/LP.sol\":2156:2162  constK */\n      sload(0x03)\n        /* \"PFG/LP.sol\":2156:2177  constK/(assetY + eth) */\n      tag_51\n      swap2\n      swap1\n      tag_52\n      jump\t// in\n    tag_51:\n        /* \"PFG/LP.sol\":2147:2153  assetX */\n      sload(0x01)\n        /* \"PFG/LP.sol\":2147:2177  assetX - constK/(assetY + eth) */\n      tag_53\n      swap2\n      swap1\n      tag_54\n      jump\t// in\n    tag_53:\n        /* \"PFG/LP.sol\":2125:2177  uint256 token_value = assetX - constK/(assetY + eth) */\n      swap1\n      pop\n        /* \"PFG/LP.sol\":2201:2212  token_value */\n      dup1\n        /* \"PFG/LP.sol\":2191:2197  assetX */\n      0x01\n      0x00\n        /* \"PFG/LP.sol\":2191:2212  assetX -= token_value */\n      dup3\n      dup3\n      sload\n      tag_55\n      swap2\n      swap1\n      tag_54\n      jump\t// in\n    tag_55:\n      swap3\n      pop\n      pop\n      dup2\n      swap1\n      sstore\n      pop\n        /* \"PFG/LP.sol\":2233:2236  eth */\n      dup2\n        /* \"PFG/LP.sol\":2223:2229  assetY */\n      0x02\n      0x00\n        /* \"PFG/LP.sol\":2223:2236  assetY += eth */\n      dup3\n      dup3\n      sload\n      tag_56\n      swap2\n      swap1\n      tag_50\n      jump\t// in\n    tag_56:\n      swap3\n      pop\n      pop\n      dup2\n      swap1\n      sstore\n      pop\n        /* \"PFG/LP.sol\":2104:2259  {\r... */\n      pop\n        /* \"PFG/LP.sol\":2066:2259  function buyTFA(uint256 eth) external {\r... */\n      pop\n      jump\t// out\n        /* \"PFG/LP.sol\":1616:1743  function calculatePrice(int256 x, int256 y, int256 dx) public pure returns(int256){\r... */\n    tag_28:\n        /* \"PFG/LP.sol\":1691:1697  int256 */\n      0x00\n        /* \"PFG/LP.sol\":1733:1734  y */\n      dup3\n        /* \"PFG/LP.sol\":1726:1728  dx */\n      dup3\n        /* \"PFG/LP.sol\":1724:1725  x */\n      dup6\n        /* \"PFG/LP.sol\":1724:1728  x-dx */\n      tag_58\n      swap2\n      swap1\n      tag_59\n      jump\t// in\n    tag_58:\n        /* \"PFG/LP.sol\":1720:1721  y */\n      dup5\n        /* \"PFG/LP.sol\":1718:1719  x */\n      dup7\n        /* \"PFG/LP.sol\":1718:1721  x*y */\n      tag_60\n      swap2\n      swap1\n      tag_61\n      jump\t// in\n    tag_60:\n        /* \"PFG/LP.sol\":1717:1729  (x*y)/(x-dx) */\n      tag_62\n      swap2\n      swap1\n      tag_63\n      jump\t// in\n    tag_62:\n        /* \"PFG/LP.sol\":1716:1734  ((x*y)/(x-dx)) - y */\n      tag_64\n      swap2\n      swap1\n      tag_59\n      jump\t// in\n    tag_64:\n        /* \"PFG/LP.sol\":1709:1734  return ((x*y)/(x-dx)) - y */\n      swap1\n      pop\n        /* \"PFG/LP.sol\":1616:1743  function calculatePrice(int256 x, int256 y, int256 dx) public pure returns(int256){\r... */\n      swap4\n      swap3\n      pop\n      pop\n      pop\n      jump\t// out\n        /* \"PFG/LP.sol\":1751:1933  function ETHtoTFA() external payable{\r... */\n    tag_32:\n      jump\t// out\n        /* \"PFG/LP.sol\":969:1608  function init(address token_address, uint256 valueX, uint256 valueY) external payable{\r... */\n    tag_36:\n        /* \"PFG/LP.sol\":1083:1084  0 */\n      0x00\n        /* \"PFG/LP.sol\":1073:1079  assetX */\n      sload(0x01)\n        /* \"PFG/LP.sol\":1073:1084  assetX == 0 */\n      eq\n        /* \"PFG/LP.sol\":1065:1085  require(assetX == 0) */\n      tag_67\n      jumpi\n      0x00\n      dup1\n      revert\n    tag_67:\n        /* \"PFG/LP.sol\":1114:1115  0 */\n      0x00\n        /* \"PFG/LP.sol\":1104:1110  assetY */\n      sload(0x02)\n        /* \"PFG/LP.sol\":1104:1115  assetY == 0 */\n      eq\n        /* \"PFG/LP.sol\":1096:1116  require(assetY == 0) */\n      tag_68\n      jumpi\n      0x00\n      dup1\n      revert\n    tag_68:\n        /* \"PFG/LP.sol\":1147:1160  token_address */\n      dup3\n        /* \"PFG/LP.sol\":1129:1137  tokenERC */\n      0x00\n      dup1\n        /* \"PFG/LP.sol\":1129:1161  tokenERC = IERC20(token_address) */\n      0x0100\n      exp\n      dup2\n      sload\n      dup2\n      0xffffffffffffffffffffffffffffffffffffffff\n      mul\n      not\n      and\n      swap1\n      dup4\n      0xffffffffffffffffffffffffffffffffffffffff\n      and\n      mul\n      or\n      swap1\n      sstore\n      pop\n        /* \"PFG/LP.sol\":1213:1221  tokenERC */\n      0x00\n      dup1\n      sload\n      swap1\n      0x0100\n      exp\n      swap1\n      div\n      0xffffffffffffffffffffffffffffffffffffffff\n      and\n        /* \"PFG/LP.sol\":1213:1234  tokenERC.transferFrom */\n      0xffffffffffffffffffffffffffffffffffffffff\n      and\n      0x23b872dd\n        /* \"PFG/LP.sol\":1235:1245  msg.sender */\n      caller\n        /* \"PFG/LP.sol\":1255:1259  this */\n      address\n        /* \"PFG/LP.sol\":1262:1268  valueX */\n      dup6\n        /* \"PFG/LP.sol\":1213:1269  tokenERC.transferFrom(msg.sender, address(this), valueX) */\n      mload(0x40)\n      dup5\n      0xffffffff\n      and\n      0xe0\n      shl\n      dup2\n      mstore\n      0x04\n      add\n      tag_69\n      swap4\n      swap3\n      swap2\n      swap1\n      tag_70\n      jump\t// in\n    tag_69:\n      0x20\n      mload(0x40)\n      dup1\n      dup4\n      sub\n      dup2\n      0x00\n      dup8\n      dup1\n      extcodesize\n      iszero\n      dup1\n      iszero\n      tag_71\n      jumpi\n      0x00\n      dup1\n      revert\n    tag_71:\n      pop\n      gas\n      call\n      iszero\n      dup1\n      iszero\n      tag_73\n      jumpi\n      returndatasize\n      0x00\n      dup1\n      returndatacopy\n      revert(0x00, returndatasize)\n    tag_73:\n      pop\n      pop\n      pop\n      pop\n      mload(0x40)\n      returndatasize\n      not(0x1f)\n      0x1f\n      dup3\n      add\n      and\n      dup3\n      add\n      dup1\n      0x40\n      mstore\n      pop\n      dup2\n      add\n      swap1\n      tag_74\n      swap2\n      swap1\n      tag_75\n      jump\t// in\n    tag_74:\n        /* \"PFG/LP.sol\":1205:1270  require(tokenERC.transferFrom(msg.sender, address(this), valueX)) */\n      tag_76\n      jumpi\n      0x00\n      dup1\n      revert\n    tag_76:\n        /* \"PFG/LP.sol\":1323:1335  bool success */\n      0x00\n        /* \"PFG/LP.sol\":1341:1351  msg.sender */\n      caller\n        /* \"PFG/LP.sol\":1341:1356  msg.sender.call */\n      0xffffffffffffffffffffffffffffffffffffffff\n      and\n        /* \"PFG/LP.sol\":1364:1370  valueY */\n      dup3\n        /* \"PFG/LP.sol\":1341:1375  msg.sender.call{value: valueY}(\"\") */\n      mload(0x40)\n      tag_77\n      swap1\n      tag_78\n      jump\t// in\n    tag_77:\n      0x00\n      mload(0x40)\n      dup1\n      dup4\n      sub\n      dup2\n      dup6\n      dup8\n      gas\n      call\n      swap3\n      pop\n      pop\n      pop\n      returndatasize\n      dup1\n      0x00\n      dup2\n      eq\n      tag_81\n      jumpi\n      mload(0x40)\n      swap2\n      pop\n      and(add(returndatasize, 0x3f), not(0x1f))\n      dup3\n      add\n      0x40\n      mstore\n      returndatasize\n      dup3\n      mstore\n      returndatasize\n      0x00\n      0x20\n      dup5\n      add\n      returndatacopy\n      jump(tag_80)\n    tag_81:\n      0x60\n      swap2\n      pop\n    tag_80:\n      pop\n        /* \"PFG/LP.sol\":1322:1375  (bool success, ) = msg.sender.call{value: valueY}(\"\") */\n      pop\n      swap1\n      pop\n        /* \"PFG/LP.sol\":1394:1401  success */\n      dup1\n        /* \"PFG/LP.sol\":1386:1422  require(success, \"Transfer failed.\") */\n      tag_82\n      jumpi\n      mload(0x40)\n      0x08c379a000000000000000000000000000000000000000000000000000000000\n      dup2\n      mstore\n      0x04\n      add\n      tag_83\n      swap1\n      tag_84\n      jump\t// in\n    tag_83:\n      mload(0x40)\n      dup1\n      swap2\n      sub\n      swap1\n      revert\n    tag_82:\n        /* \"PFG/LP.sol\":1482:1488  valueX */\n      dup3\n        /* \"PFG/LP.sol\":1472:1478  assetX */\n      0x01\n      0x00\n        /* \"PFG/LP.sol\":1472:1488  assetX += valueX */\n      dup3\n      dup3\n      sload\n      tag_85\n      swap2\n      swap1\n      tag_50\n      jump\t// in\n    tag_85:\n      swap3\n      pop\n      pop\n      dup2\n      swap1\n      sstore\n      pop\n        /* \"PFG/LP.sol\":1509:1515  valueY */\n      dup2\n        /* \"PFG/LP.sol\":1499:1505  assetY */\n      0x02\n      0x00\n        /* \"PFG/LP.sol\":1499:1515  assetY += valueY */\n      dup3\n      dup3\n      sload\n      tag_86\n      swap2\n      swap1\n      tag_50\n      jump\t// in\n    tag_86:\n      swap3\n      pop\n      pop\n      dup2\n      swap1\n      sstore\n      pop\n        /* \"PFG/LP.sol\":1544:1550  assetY */\n      sload(0x02)\n        /* \"PFG/LP.sol\":1535:1541  assetX */\n      sload(0x01)\n        /* \"PFG/LP.sol\":1535:1550  assetX * assetY */\n      tag_87\n      swap2\n      swap1\n      tag_47\n      jump\t// in\n    tag_87:\n        /* \"PFG/LP.sol\":1526:1532  constK */\n      0x03\n        /* \"PFG/LP.sol\":1526:1550  constK = assetX * assetY */\n      dup2\n      swap1\n      sstore\n      pop\n        /* \"PFG/LP.sol\":1573:1583  msg.sender */\n      caller\n        /* \"PFG/LP.sol\":1568:1600  Init(msg.sender, valueX, valueY) */\n      0xffffffffffffffffffffffffffffffffffffffff\n      and\n      0x519bbb4a5128192ae1efbee49abf9def583896e872da5278b2c47eb2882702d9\n        /* \"PFG/LP.sol\":1585:1591  valueX */\n      dup5\n        /* \"PFG/LP.sol\":1593:1599  valueY */\n      dup5\n        /* \"PFG/LP.sol\":1568:1600  Init(msg.sender, valueX, valueY) */\n      mload(0x40)\n      tag_88\n      swap3\n      swap2\n      swap1\n      tag_89\n      jump\t// in\n    tag_88:\n      mload(0x40)\n      dup1\n      swap2\n      sub\n      swap1\n      log2\n        /* \"PFG/LP.sol\":1054:1608  {\r... */\n      pop\n        /* \"PFG/LP.sol\":969:1608  function init(address token_address, uint256 valueX, uint256 valueY) external payable{\r... */\n      pop\n      pop\n      pop\n      jump\t// out\n        /* \"PFG/LP.sol\":387:408  uint256 public constK */\n    tag_39:\n      sload(0x03)\n      dup2\n      jump\t// out\n        /* \"PFG/LP.sol\":339:360  uint256 public assetY */\n    tag_43:\n      sload(0x02)\n      dup2\n      jump\t// out\n        /* \"#utility.yul\":7:146   */\n    tag_91:\n        /* \"#utility.yul\":53:58   */\n      0x00\n        /* \"#utility.yul\":91:97   */\n      dup2\n        /* \"#utility.yul\":78:98   */\n      calldataload\n        /* \"#utility.yul\":69:98   */\n      swap1\n      pop\n        /* \"#utility.yul\":107:140   */\n      tag_93\n        /* \"#utility.yul\":134:139   */\n      dup2\n        /* \"#utility.yul\":107:140   */\n      tag_94\n      jump\t// in\n    tag_93:\n        /* \"#utility.yul\":7:146   */\n      swap3\n      swap2\n      pop\n      pop\n      jump\t// out\n        /* \"#utility.yul\":152:289   */\n    tag_95:\n        /* \"#utility.yul\":206:211   */\n      0x00\n        /* \"#utility.yul\":237:243   */\n      dup2\n        /* \"#utility.yul\":231:244   */\n      mload\n        /* \"#utility.yul\":222:244   */\n      swap1\n      pop\n        /* \"#utility.yul\":253:283   */\n      tag_97\n        /* \"#utility.yul\":277:282   */\n      dup2\n        /* \"#utility.yul\":253:283   */\n      tag_98\n      jump\t// in\n    tag_97:\n        /* \"#utility.yul\":152:289   */\n      swap3\n      swap2\n      pop\n      pop\n      jump\t// out\n        /* \"#utility.yul\":295:432   */\n    tag_99:\n        /* \"#utility.yul\":340:345   */\n      0x00\n        /* \"#utility.yul\":378:384   */\n      dup2\n        /* \"#utility.yul\":365:385   */\n      calldataload\n        /* \"#utility.yul\":356:385   */\n      swap1\n      pop\n        /* \"#utility.yul\":394:426   */\n      tag_101\n        /* \"#utility.yul\":420:425   */\n      dup2\n        /* \"#utility.yul\":394:426   */\n      tag_102\n      jump\t// in\n    tag_101:\n        /* \"#utility.yul\":295:432   */\n      swap3\n      swap2\n      pop\n      pop\n      jump\t// out\n        /* \"#utility.yul\":438:577   */\n    tag_103:\n        /* \"#utility.yul\":484:489   */\n      0x00\n        /* \"#utility.yul\":522:528   */\n      dup2\n        /* \"#utility.yul\":509:529   */\n      calldataload\n        /* \"#utility.yul\":500:529   */\n      swap1\n      pop\n        /* \"#utility.yul\":538:571   */\n      tag_105\n        /* \"#utility.yul\":565:570   */\n      dup2\n        /* \"#utility.yul\":538:571   */\n      tag_106\n      jump\t// in\n    tag_105:\n        /* \"#utility.yul\":438:577   */\n      swap3\n      swap2\n      pop\n      pop\n      jump\t// out\n        /* \"#utility.yul\":583:1202   */\n    tag_35:\n        /* \"#utility.yul\":660:666   */\n      0x00\n        /* \"#utility.yul\":668:674   */\n      dup1\n        /* \"#utility.yul\":676:682   */\n      0x00\n        /* \"#utility.yul\":725:727   */\n      0x60\n        /* \"#utility.yul\":713:722   */\n      dup5\n        /* \"#utility.yul\":704:711   */\n      dup7\n        /* \"#utility.yul\":700:723   */\n      sub\n        /* \"#utility.yul\":696:728   */\n      slt\n        /* \"#utility.yul\":693:812   */\n      iszero\n      tag_108\n      jumpi\n        /* \"#utility.yul\":731:810   */\n      tag_109\n      tag_110\n      jump\t// in\n    tag_109:\n        /* \"#utility.yul\":693:812   */\n    tag_108:\n        /* \"#utility.yul\":851:852   */\n      0x00\n        /* \"#utility.yul\":876:929   */\n      tag_111\n        /* \"#utility.yul\":921:928   */\n      dup7\n        /* \"#utility.yul\":912:918   */\n      dup3\n        /* \"#utility.yul\":901:910   */\n      dup8\n        /* \"#utility.yul\":897:919   */\n      add\n        /* \"#utility.yul\":876:929   */\n      tag_91\n      jump\t// in\n    tag_111:\n        /* \"#utility.yul\":866:929   */\n      swap4\n      pop\n        /* \"#utility.yul\":822:939   */\n      pop\n        /* \"#utility.yul\":978:980   */\n      0x20\n        /* \"#utility.yul\":1004:1057   */\n      tag_112\n        /* \"#utility.yul\":1049:1056   */\n      dup7\n        /* \"#utility.yul\":1040:1046   */\n      dup3\n        /* \"#utility.yul\":1029:1038   */\n      dup8\n        /* \"#utility.yul\":1025:1047   */\n      add\n        /* \"#utility.yul\":1004:1057   */\n      tag_103\n      jump\t// in\n    tag_112:\n        /* \"#utility.yul\":994:1057   */\n      swap3\n      pop\n        /* \"#utility.yul\":949:1067   */\n      pop\n        /* \"#utility.yul\":1106:1108   */\n      0x40\n        /* \"#utility.yul\":1132:1185   */\n      tag_113\n        /* \"#utility.yul\":1177:1184   */\n      dup7\n        /* \"#utility.yul\":1168:1174   */\n      dup3\n        /* \"#utility.yul\":1157:1166   */\n      dup8\n        /* \"#utility.yul\":1153:1175   */\n      add\n        /* \"#utility.yul\":1132:1185   */\n      tag_103\n      jump\t// in\n    tag_113:\n        /* \"#utility.yul\":1122:1185   */\n      swap2\n      pop\n        /* \"#utility.yul\":1077:1195   */\n      pop\n        /* \"#utility.yul\":583:1202   */\n      swap3\n      pop\n      swap3\n      pop\n      swap3\n      jump\t// out\n        /* \"#utility.yul\":1208:1553   */\n    tag_75:\n        /* \"#utility.yul\":1275:1281   */\n      0x00\n        /* \"#utility.yul\":1324:1326   */\n      0x20\n        /* \"#utility.yul\":1312:1321   */\n      dup3\n        /* \"#utility.yul\":1303:1310   */\n      dup5\n        /* \"#utility.yul\":1299:1322   */\n      sub\n        /* \"#utility.yul\":1295:1327   */\n      slt\n        /* \"#utility.yul\":1292:1411   */\n      iszero\n      tag_115\n      jumpi\n        /* \"#utility.yul\":1330:1409   */\n      tag_116\n      tag_110\n      jump\t// in\n    tag_116:\n        /* \"#utility.yul\":1292:1411   */\n    tag_115:\n        /* \"#utility.yul\":1450:1451   */\n      0x00\n        /* \"#utility.yul\":1475:1536   */\n      tag_117\n        /* \"#utility.yul\":1528:1535   */\n      dup5\n        /* \"#utility.yul\":1519:1525   */\n      dup3\n        /* \"#utility.yul\":1508:1517   */\n      dup6\n        /* \"#utility.yul\":1504:1526   */\n      add\n        /* \"#utility.yul\":1475:1536   */\n      tag_95\n      jump\t// in\n    tag_117:\n        /* \"#utility.yul\":1465:1536   */\n      swap2\n      pop\n        /* \"#utility.yul\":1421:1546   */\n      pop\n        /* \"#utility.yul\":1208:1553   */\n      swap3\n      swap2\n      pop\n      pop\n      jump\t// out\n        /* \"#utility.yul\":1559:2172   */\n    tag_27:\n        /* \"#utility.yul\":1633:1639   */\n      0x00\n        /* \"#utility.yul\":1641:1647   */\n      dup1\n        /* \"#utility.yul\":1649:1655   */\n      0x00\n        /* \"#utility.yul\":1698:1700   */\n      0x60\n        /* \"#utility.yul\":1686:1695   */\n      dup5\n        /* \"#utility.yul\":1677:1684   */\n      dup7\n        /* \"#utility.yul\":1673:1696   */\n      sub\n        /* \"#utility.yul\":1669:1701   */\n      slt\n        /* \"#utility.yul\":1666:1785   */\n      iszero\n      tag_119\n      jumpi\n        /* \"#utility.yul\":1704:1783   */\n      tag_120\n      tag_110\n      jump\t// in\n    tag_120:\n        /* \"#utility.yul\":1666:1785   */\n    tag_119:\n        /* \"#utility.yul\":1824:1825   */\n      0x00\n        /* \"#utility.yul\":1849:1901   */\n      tag_121\n        /* \"#utility.yul\":1893:1900   */\n      dup7\n        /* \"#utility.yul\":1884:1890   */\n      dup3\n        /* \"#utility.yul\":1873:1882   */\n      dup8\n        /* \"#utility.yul\":1869:1891   */\n      add\n        /* \"#utility.yul\":1849:1901   */\n      tag_99\n      jump\t// in\n    tag_121:\n        /* \"#utility.yul\":1839:1901   */\n      swap4\n      pop\n        /* \"#utility.yul\":1795:1911   */\n      pop\n        /* \"#utility.yul\":1950:1952   */\n      0x20\n        /* \"#utility.yul\":1976:2028   */\n      tag_122\n        /* \"#utility.yul\":2020:2027   */\n      dup7\n        /* \"#utility.yul\":2011:2017   */\n      dup3\n        /* \"#utility.yul\":2000:2009   */\n      dup8\n        /* \"#utility.yul\":1996:2018   */\n      add\n        /* \"#utility.yul\":1976:2028   */\n      tag_99\n      jump\t// in\n    tag_122:\n        /* \"#utility.yul\":1966:2028   */\n      swap3\n      pop\n        /* \"#utility.yul\":1921:2038   */\n      pop\n        /* \"#utility.yul\":2077:2079   */\n      0x40\n        /* \"#utility.yul\":2103:2155   */\n      tag_123\n        /* \"#utility.yul\":2147:2154   */\n      dup7\n        /* \"#utility.yul\":2138:2144   */\n      dup3\n        /* \"#utility.yul\":2127:2136   */\n      dup8\n        /* \"#utility.yul\":2123:2145   */\n      add\n        /* \"#utility.yul\":2103:2155   */\n      tag_99\n      jump\t// in\n    tag_123:\n        /* \"#utility.yul\":2093:2155   */\n      swap2\n      pop\n        /* \"#utility.yul\":2048:2165   */\n      pop\n        /* \"#utility.yul\":1559:2172   */\n      swap3\n      pop\n      swap3\n      pop\n      swap3\n      jump\t// out\n        /* \"#utility.yul\":2178:2507   */\n    tag_22:\n        /* \"#utility.yul\":2237:2243   */\n      0x00\n        /* \"#utility.yul\":2286:2288   */\n      0x20\n        /* \"#utility.yul\":2274:2283   */\n      dup3\n        /* \"#utility.yul\":2265:2272   */\n      dup5\n        /* \"#utility.yul\":2261:2284   */\n      sub\n        /* \"#utility.yul\":2257:2289   */\n      slt\n        /* \"#utility.yul\":2254:2373   */\n      iszero\n      tag_125\n      jumpi\n        /* \"#utility.yul\":2292:2371   */\n      tag_126\n      tag_110\n      jump\t// in\n    tag_126:\n        /* \"#utility.yul\":2254:2373   */\n    tag_125:\n        /* \"#utility.yul\":2412:2413   */\n      0x00\n        /* \"#utility.yul\":2437:2490   */\n      tag_127\n        /* \"#utility.yul\":2482:2489   */\n      dup5\n        /* \"#utility.yul\":2473:2479   */\n      dup3\n        /* \"#utility.yul\":2462:2471   */\n      dup6\n        /* \"#utility.yul\":2458:2480   */\n      add\n        /* \"#utility.yul\":2437:2490   */\n      tag_103\n      jump\t// in\n    tag_127:\n        /* \"#utility.yul\":2427:2490   */\n      swap2\n      pop\n        /* \"#utility.yul\":2383:2500   */\n      pop\n        /* \"#utility.yul\":2178:2507   */\n      swap3\n      swap2\n      pop\n      pop\n      jump\t// out\n        /* \"#utility.yul\":2513:2631   */\n    tag_128:\n        /* \"#utility.yul\":2600:2624   */\n      tag_130\n        /* \"#utility.yul\":2618:2623   */\n      dup2\n        /* \"#utility.yul\":2600:2624   */\n      tag_131\n      jump\t// in\n    tag_130:\n        /* \"#utility.yul\":2595:2598   */\n      dup3\n        /* \"#utility.yul\":2588:2625   */\n      mstore\n        /* \"#utility.yul\":2513:2631   */\n      pop\n      pop\n      jump\t// out\n        /* \"#utility.yul\":2637:2752   */\n    tag_132:\n        /* \"#utility.yul\":2722:2745   */\n      tag_134\n        /* \"#utility.yul\":2739:2744   */\n      dup2\n        /* \"#utility.yul\":2722:2745   */\n      tag_135\n      jump\t// in\n    tag_134:\n        /* \"#utility.yul\":2717:2720   */\n      dup3\n        /* \"#utility.yul\":2710:2746   */\n      mstore\n        /* \"#utility.yul\":2637:2752   */\n      pop\n      pop\n      jump\t// out\n        /* \"#utility.yul\":2758:3156   */\n    tag_136:\n        /* \"#utility.yul\":2917:2920   */\n      0x00\n        /* \"#utility.yul\":2938:3021   */\n      tag_138\n        /* \"#utility.yul\":3019:3020   */\n      0x00\n        /* \"#utility.yul\":3014:3017   */\n      dup4\n        /* \"#utility.yul\":2938:3021   */\n      tag_139\n      jump\t// in\n    tag_138:\n        /* \"#utility.yul\":2931:3021   */\n      swap2\n      pop\n        /* \"#utility.yul\":3030:3123   */\n      tag_140\n        /* \"#utility.yul\":3119:3122   */\n      dup3\n        /* \"#utility.yul\":3030:3123   */\n      tag_141\n      jump\t// in\n    tag_140:\n        /* \"#utility.yul\":3148:3149   */\n      0x00\n        /* \"#utility.yul\":3143:3146   */\n      dup3\n        /* \"#utility.yul\":3139:3150   */\n      add\n        /* \"#utility.yul\":3132:3150   */\n      swap1\n      pop\n        /* \"#utility.yul\":2758:3156   */\n      swap2\n      swap1\n      pop\n      jump\t// out\n        /* \"#utility.yul\":3162:3528   */\n    tag_142:\n        /* \"#utility.yul\":3304:3307   */\n      0x00\n        /* \"#utility.yul\":3325:3392   */\n      tag_144\n        /* \"#utility.yul\":3389:3391   */\n      0x10\n        /* \"#utility.yul\":3384:3387   */\n      dup4\n        /* \"#utility.yul\":3325:3392   */\n      tag_145\n      jump\t// in\n    tag_144:\n        /* \"#utility.yul\":3318:3392   */\n      swap2\n      pop\n        /* \"#utility.yul\":3401:3494   */\n      tag_146\n        /* \"#utility.yul\":3490:3493   */\n      dup3\n        /* \"#utility.yul\":3401:3494   */\n      tag_147\n      jump\t// in\n    tag_146:\n        /* \"#utility.yul\":3519:3521   */\n      0x20\n        /* \"#utility.yul\":3514:3517   */\n      dup3\n        /* \"#utility.yul\":3510:3522   */\n      add\n        /* \"#utility.yul\":3503:3522   */\n      swap1\n      pop\n        /* \"#utility.yul\":3162:3528   */\n      swap2\n      swap1\n      pop\n      jump\t// out\n        /* \"#utility.yul\":3534:3652   */\n    tag_148:\n        /* \"#utility.yul\":3621:3645   */\n      tag_150\n        /* \"#utility.yul\":3639:3644   */\n      dup2\n        /* \"#utility.yul\":3621:3645   */\n      tag_151\n      jump\t// in\n    tag_150:\n        /* \"#utility.yul\":3616:3619   */\n      dup3\n        /* \"#utility.yul\":3609:3646   */\n      mstore\n        /* \"#utility.yul\":3534:3652   */\n      pop\n      pop\n      jump\t// out\n        /* \"#utility.yul\":3658:4037   */\n    tag_78:\n        /* \"#utility.yul\":3842:3845   */\n      0x00\n        /* \"#utility.yul\":3864:4011   */\n      tag_153\n        /* \"#utility.yul\":4007:4010   */\n      dup3\n        /* \"#utility.yul\":3864:4011   */\n      tag_136\n      jump\t// in\n    tag_153:\n        /* \"#utility.yul\":3857:4011   */\n      swap2\n      pop\n        /* \"#utility.yul\":4028:4031   */\n      dup2\n        /* \"#utility.yul\":4021:4031   */\n      swap1\n      pop\n        /* \"#utility.yul\":3658:4037   */\n      swap2\n      swap1\n      pop\n      jump\t// out\n        /* \"#utility.yul\":4043:4485   */\n    tag_70:\n        /* \"#utility.yul\":4192:4196   */\n      0x00\n        /* \"#utility.yul\":4230:4232   */\n      0x60\n        /* \"#utility.yul\":4219:4228   */\n      dup3\n        /* \"#utility.yul\":4215:4233   */\n      add\n        /* \"#utility.yul\":4207:4233   */\n      swap1\n      pop\n        /* \"#utility.yul\":4243:4314   */\n      tag_155\n        /* \"#utility.yul\":4311:4312   */\n      0x00\n        /* \"#utility.yul\":4300:4309   */\n      dup4\n        /* \"#utility.yul\":4296:4313   */\n      add\n        /* \"#utility.yul\":4287:4293   */\n      dup7\n        /* \"#utility.yul\":4243:4314   */\n      tag_128\n      jump\t// in\n    tag_155:\n        /* \"#utility.yul\":4324:4396   */\n      tag_156\n        /* \"#utility.yul\":4392:4394   */\n      0x20\n        /* \"#utility.yul\":4381:4390   */\n      dup4\n        /* \"#utility.yul\":4377:4395   */\n      add\n        /* \"#utility.yul\":4368:4374   */\n      dup6\n        /* \"#utility.yul\":4324:4396   */\n      tag_128\n      jump\t// in\n    tag_156:\n        /* \"#utility.yul\":4406:4478   */\n      tag_157\n        /* \"#utility.yul\":4474:4476   */\n      0x40\n        /* \"#utility.yul\":4463:4472   */\n      dup4\n        /* \"#utility.yul\":4459:4477   */\n      add\n        /* \"#utility.yul\":4450:4456   */\n      dup5\n        /* \"#utility.yul\":4406:4478   */\n      tag_148\n      jump\t// in\n    tag_157:\n        /* \"#utility.yul\":4043:4485   */\n      swap5\n      swap4\n      pop\n      pop\n      pop\n      pop\n      jump\t// out\n        /* \"#utility.yul\":4491:4709   */\n    tag_30:\n        /* \"#utility.yul\":4582:4586   */\n      0x00\n        /* \"#utility.yul\":4620:4622   */\n      0x20\n        /* \"#utility.yul\":4609:4618   */\n      dup3\n        /* \"#utility.yul\":4605:4623   */\n      add\n        /* \"#utility.yul\":4597:4623   */\n      swap1\n      pop\n        /* \"#utility.yul\":4633:4702   */\n      tag_159\n        /* \"#utility.yul\":4699:4700   */\n      0x00\n        /* \"#utility.yul\":4688:4697   */\n      dup4\n        /* \"#utility.yul\":4684:4701   */\n      add\n        /* \"#utility.yul\":4675:4681   */\n      dup5\n        /* \"#utility.yul\":4633:4702   */\n      tag_132\n      jump\t// in\n    tag_159:\n        /* \"#utility.yul\":4491:4709   */\n      swap3\n      swap2\n      pop\n      pop\n      jump\t// out\n        /* \"#utility.yul\":4715:5134   */\n    tag_84:\n        /* \"#utility.yul\":4881:4885   */\n      0x00\n        /* \"#utility.yul\":4919:4921   */\n      0x20\n        /* \"#utility.yul\":4908:4917   */\n      dup3\n        /* \"#utility.yul\":4904:4922   */\n      add\n        /* \"#utility.yul\":4896:4922   */\n      swap1\n      pop\n        /* \"#utility.yul\":4968:4977   */\n      dup2\n        /* \"#utility.yul\":4962:4966   */\n      dup2\n        /* \"#utility.yul\":4958:4978   */\n      sub\n        /* \"#utility.yul\":4954:4955   */\n      0x00\n        /* \"#utility.yul\":4943:4952   */\n      dup4\n        /* \"#utility.yul\":4939:4956   */\n      add\n        /* \"#utility.yul\":4932:4979   */\n      mstore\n        /* \"#utility.yul\":4996:5127   */\n      tag_161\n        /* \"#utility.yul\":5122:5126   */\n      dup2\n        /* \"#utility.yul\":4996:5127   */\n      tag_142\n      jump\t// in\n    tag_161:\n        /* \"#utility.yul\":4988:5127   */\n      swap1\n      pop\n        /* \"#utility.yul\":4715:5134   */\n      swap2\n      swap1\n      pop\n      jump\t// out\n        /* \"#utility.yul\":5140:5362   */\n    tag_15:\n        /* \"#utility.yul\":5233:5237   */\n      0x00\n        /* \"#utility.yul\":5271:5273   */\n      0x20\n        /* \"#utility.yul\":5260:5269   */\n      dup3\n        /* \"#utility.yul\":5256:5274   */\n      add\n        /* \"#utility.yul\":5248:5274   */\n      swap1\n      pop\n        /* \"#utility.yul\":5284:5355   */\n      tag_163\n        /* \"#utility.yul\":5352:5353   */\n      0x00\n        /* \"#utility.yul\":5341:5350   */\n      dup4\n        /* \"#utility.yul\":5337:5354   */\n      add\n        /* \"#utility.yul\":5328:5334   */\n      dup5\n        /* \"#utility.yul\":5284:5355   */\n      tag_148\n      jump\t// in\n    tag_163:\n        /* \"#utility.yul\":5140:5362   */\n      swap3\n      swap2\n      pop\n      pop\n      jump\t// out\n        /* \"#utility.yul\":5368:5700   */\n    tag_89:\n        /* \"#utility.yul\":5489:5493   */\n      0x00\n        /* \"#utility.yul\":5527:5529   */\n      0x40\n        /* \"#utility.yul\":5516:5525   */\n      dup3\n        /* \"#utility.yul\":5512:5530   */\n      add\n        /* \"#utility.yul\":5504:5530   */\n      swap1\n      pop\n        /* \"#utility.yul\":5540:5611   */\n      tag_165\n        /* \"#utility.yul\":5608:5609   */\n      0x00\n        /* \"#utility.yul\":5597:5606   */\n      dup4\n        /* \"#utility.yul\":5593:5610   */\n      add\n        /* \"#utility.yul\":5584:5590   */\n      dup6\n        /* \"#utility.yul\":5540:5611   */\n      tag_148\n      jump\t// in\n    tag_165:\n        /* \"#utility.yul\":5621:5693   */\n      tag_166\n        /* \"#utility.yul\":5689:5691   */\n      0x20\n        /* \"#utility.yul\":5678:5687   */\n      dup4\n        /* \"#utility.yul\":5674:5692   */\n      add\n        /* \"#utility.yul\":5665:5671   */\n      dup5\n        /* \"#utility.yul\":5621:5693   */\n      tag_148\n      jump\t// in\n    tag_166:\n        /* \"#utility.yul\":5368:5700   */\n      swap4\n      swap3\n      pop\n      pop\n      pop\n      jump\t// out\n        /* \"#utility.yul\":5787:5934   */\n    tag_139:\n        /* \"#utility.yul\":5888:5899   */\n      0x00\n        /* \"#utility.yul\":5925:5928   */\n      dup2\n        /* \"#utility.yul\":5910:5928   */\n      swap1\n      pop\n        /* \"#utility.yul\":5787:5934   */\n      swap3\n      swap2\n      pop\n      pop\n      jump\t// out\n        /* \"#utility.yul\":5940:6109   */\n    tag_145:\n        /* \"#utility.yul\":6024:6035   */\n      0x00\n        /* \"#utility.yul\":6058:6064   */\n      dup3\n        /* \"#utility.yul\":6053:6056   */\n      dup3\n        /* \"#utility.yul\":6046:6065   */\n      mstore\n        /* \"#utility.yul\":6098:6102   */\n      0x20\n        /* \"#utility.yul\":6093:6096   */\n      dup3\n        /* \"#utility.yul\":6089:6103   */\n      add\n        /* \"#utility.yul\":6074:6103   */\n      swap1\n      pop\n        /* \"#utility.yul\":5940:6109   */\n      swap3\n      swap2\n      pop\n      pop\n      jump\t// out\n        /* \"#utility.yul\":6115:6420   */\n    tag_50:\n        /* \"#utility.yul\":6155:6158   */\n      0x00\n        /* \"#utility.yul\":6174:6194   */\n      tag_172\n        /* \"#utility.yul\":6192:6193   */\n      dup3\n        /* \"#utility.yul\":6174:6194   */\n      tag_151\n      jump\t// in\n    tag_172:\n        /* \"#utility.yul\":6169:6194   */\n      swap2\n      pop\n        /* \"#utility.yul\":6208:6228   */\n      tag_173\n        /* \"#utility.yul\":6226:6227   */\n      dup4\n        /* \"#utility.yul\":6208:6228   */\n      tag_151\n      jump\t// in\n    tag_173:\n        /* \"#utility.yul\":6203:6228   */\n      swap3\n      pop\n        /* \"#utility.yul\":6362:6363   */\n      dup3\n        /* \"#utility.yul\":6294:6360   */\n      0xffffffffffffffffffffffffffffffffffffffffffffffffffffffffffffffff\n        /* \"#utility.yul\":6290:6364   */\n      sub\n        /* \"#utility.yul\":6287:6288   */\n      dup3\n        /* \"#utility.yul\":6284:6365   */\n      gt\n        /* \"#utility.yul\":6281:6388   */\n      iszero\n      tag_174\n      jumpi\n        /* \"#utility.yul\":6368:6386   */\n      tag_175\n      tag_176\n      jump\t// in\n    tag_175:\n        /* \"#utility.yul\":6281:6388   */\n    tag_174:\n        /* \"#utility.yul\":6412:6413   */\n      dup3\n        /* \"#utility.yul\":6409:6410   */\n      dup3\n        /* \"#utility.yul\":6405:6414   */\n      add\n        /* \"#utility.yul\":6398:6414   */\n      swap1\n      pop\n        /* \"#utility.yul\":6115:6420   */\n      swap3\n      swap2\n      pop\n      pop\n      jump\t// out\n        /* \"#utility.yul\":6426:6811   */\n    tag_63:\n        /* \"#utility.yul\":6465:6466   */\n      0x00\n        /* \"#utility.yul\":6482:6501   */\n      tag_178\n        /* \"#utility.yul\":6499:6500   */\n      dup3\n        /* \"#utility.yul\":6482:6501   */\n      tag_135\n      jump\t// in\n    tag_178:\n        /* \"#utility.yul\":6477:6501   */\n      swap2\n      pop\n        /* \"#utility.yul\":6515:6534   */\n      tag_179\n        /* \"#utility.yul\":6532:6533   */\n      dup4\n        /* \"#utility.yul\":6515:6534   */\n      tag_135\n      jump\t// in\n    tag_179:\n        /* \"#utility.yul\":6510:6534   */\n      swap3\n      pop\n        /* \"#utility.yul\":6553:6554   */\n      dup3\n        /* \"#utility.yul\":6543:6578   */\n      tag_180\n      jumpi\n        /* \"#utility.yul\":6558:6576   */\n      tag_181\n      tag_182\n      jump\t// in\n    tag_181:\n        /* \"#utility.yul\":6543:6578   */\n    tag_180:\n        /* \"#utility.yul\":6744:6745   */\n      0x01\n        /* \"#utility.yul\":6741:6742   */\n      0x00\n        /* \"#utility.yul\":6737:6746   */\n      sub\n        /* \"#utility.yul\":6734:6735   */\n      dup4\n        /* \"#utility.yul\":6731:6747   */\n      eq\n        /* \"#utility.yul\":6650:6716   */\n      0x8000000000000000000000000000000000000000000000000000000000000000\n        /* \"#utility.yul\":6647:6648   */\n      dup4\n        /* \"#utility.yul\":6644:6717   */\n      eq\n        /* \"#utility.yul\":6627:6757   */\n      and\n        /* \"#utility.yul\":6624:6780   */\n      iszero\n      tag_183\n      jumpi\n        /* \"#utility.yul\":6760:6778   */\n      tag_184\n      tag_176\n      jump\t// in\n    tag_184:\n        /* \"#utility.yul\":6624:6780   */\n    tag_183:\n        /* \"#utility.yul\":6803:6804   */\n      dup3\n        /* \"#utility.yul\":6800:6801   */\n      dup3\n        /* \"#utility.yul\":6795:6805   */\n      sdiv\n        /* \"#utility.yul\":6790:6805   */\n      swap1\n      pop\n        /* \"#utility.yul\":6426:6811   */\n      swap3\n      swap2\n      pop\n      pop\n      jump\t// out\n        /* \"#utility.yul\":6817:7002   */\n    tag_52:\n        /* \"#utility.yul\":6857:6858   */\n      0x00\n        /* \"#utility.yul\":6874:6894   */\n      tag_186\n        /* \"#utility.yul\":6892:6893   */\n      dup3\n        /* \"#utility.yul\":6874:6894   */\n      tag_151\n      jump\t// in\n    tag_186:\n        /* \"#utility.yul\":6869:6894   */\n      swap2\n      pop\n        /* \"#utility.yul\":6908:6928   */\n      tag_187\n        /* \"#utility.yul\":6926:6927   */\n      dup4\n        /* \"#utility.yul\":6908:6928   */\n      tag_151\n      jump\t// in\n    tag_187:\n        /* \"#utility.yul\":6903:6928   */\n      swap3\n      pop\n        /* \"#utility.yul\":6947:6948   */\n      dup3\n        /* \"#utility.yul\":6937:6972   */\n      tag_188\n      jumpi\n        /* \"#utility.yul\":6952:6970   */\n      tag_189\n      tag_182\n      jump\t// in\n    tag_189:\n        /* \"#utility.yul\":6937:6972   */\n    tag_188:\n        /* \"#utility.yul\":6994:6995   */\n      dup3\n        /* \"#utility.yul\":6991:6992   */\n      dup3\n        /* \"#utility.yul\":6987:6996   */\n      div\n        /* \"#utility.yul\":6982:6996   */\n      swap1\n      pop\n        /* \"#utility.yul\":6817:7002   */\n      swap3\n      swap2\n      pop\n      pop\n      jump\t// out\n        /* \"#utility.yul\":7008:7999   */\n    tag_61:\n        /* \"#utility.yul\":7047:7054   */\n      0x00\n        /* \"#utility.yul\":7070:7089   */\n      tag_191\n        /* \"#utility.yul\":7087:7088   */\n      dup3\n        /* \"#utility.yul\":7070:7089   */\n      tag_135\n      jump\t// in\n    tag_191:\n        /* \"#utility.yul\":7065:7089   */\n      swap2\n      pop\n        /* \"#utility.yul\":7103:7122   */\n      tag_192\n        /* \"#utility.yul\":7120:7121   */\n      dup4\n        /* \"#utility.yul\":7103:7122   */\n      tag_135\n      jump\t// in\n    tag_192:\n        /* \"#utility.yul\":7098:7122   */\n      swap3\n      pop\n        /* \"#utility.yul\":7304:7305   */\n      dup3\n        /* \"#utility.yul\":7236:7302   */\n      0x7fffffffffffffffffffffffffffffffffffffffffffffffffffffffffffffff\n        /* \"#utility.yul\":7232:7306   */\n      div\n        /* \"#utility.yul\":7229:7230   */\n      dup3\n        /* \"#utility.yul\":7226:7307   */\n      gt\n        /* \"#utility.yul\":7221:7222   */\n      0x00\n        /* \"#utility.yul\":7218:7219   */\n      dup5\n        /* \"#utility.yul\":7214:7223   */\n      sgt\n        /* \"#utility.yul\":7210:7211   */\n      0x00\n        /* \"#utility.yul\":7207:7208   */\n      dup5\n        /* \"#utility.yul\":7203:7212   */\n      sgt\n        /* \"#utility.yul\":7199:7224   */\n      and\n        /* \"#utility.yul\":7195:7308   */\n      and\n        /* \"#utility.yul\":7192:7331   */\n      iszero\n      tag_193\n      jumpi\n        /* \"#utility.yul\":7311:7329   */\n      tag_194\n      tag_176\n      jump\t// in\n    tag_194:\n        /* \"#utility.yul\":7192:7331   */\n    tag_193:\n        /* \"#utility.yul\":7515:7516   */\n      dup2\n        /* \"#utility.yul\":7447:7513   */\n      0x8000000000000000000000000000000000000000000000000000000000000000\n        /* \"#utility.yul\":7442:7517   */\n      sdiv\n        /* \"#utility.yul\":7439:7440   */\n      dup4\n        /* \"#utility.yul\":7435:7518   */\n      slt\n        /* \"#utility.yul\":7430:7431   */\n      0x00\n        /* \"#utility.yul\":7427:7428   */\n      dup5\n        /* \"#utility.yul\":7423:7432   */\n      slt\n        /* \"#utility.yul\":7419:7420   */\n      0x00\n        /* \"#utility.yul\":7416:7417   */\n      dup5\n        /* \"#utility.yul\":7412:7421   */\n      sgt\n        /* \"#utility.yul\":7408:7433   */\n      and\n        /* \"#utility.yul\":7404:7519   */\n      and\n        /* \"#utility.yul\":7401:7542   */\n      iszero\n      tag_195\n      jumpi\n        /* \"#utility.yul\":7522:7540   */\n      tag_196\n      tag_176\n      jump\t// in\n    tag_196:\n        /* \"#utility.yul\":7401:7542   */\n    tag_195:\n        /* \"#utility.yul\":7726:7727   */\n      dup3\n        /* \"#utility.yul\":7658:7724   */\n      0x8000000000000000000000000000000000000000000000000000000000000000\n        /* \"#utility.yul\":7653:7728   */\n      sdiv\n        /* \"#utility.yul\":7650:7651   */\n      dup3\n        /* \"#utility.yul\":7646:7729   */\n      slt\n        /* \"#utility.yul\":7641:7642   */\n      0x00\n        /* \"#utility.yul\":7638:7639   */\n      dup5\n        /* \"#utility.yul\":7634:7643   */\n      sgt\n        /* \"#utility.yul\":7630:7631   */\n      0x00\n        /* \"#utility.yul\":7627:7628   */\n      dup5\n        /* \"#utility.yul\":7623:7632   */\n      slt\n        /* \"#utility.yul\":7619:7644   */\n      and\n        /* \"#utility.yul\":7615:7730   */\n      and\n        /* \"#utility.yul\":7612:7753   */\n      iszero\n      tag_197\n      jumpi\n        /* \"#utility.yul\":7733:7751   */\n      tag_198\n      tag_176\n      jump\t// in\n    tag_198:\n        /* \"#utility.yul\":7612:7753   */\n    tag_197:\n        /* \"#utility.yul\":7936:7937   */\n      dup3\n        /* \"#utility.yul\":7868:7934   */\n      0x7fffffffffffffffffffffffffffffffffffffffffffffffffffffffffffffff\n        /* \"#utility.yul\":7863:7938   */\n      sdiv\n        /* \"#utility.yul\":7860:7861   */\n      dup3\n        /* \"#utility.yul\":7856:7939   */\n      slt\n        /* \"#utility.yul\":7851:7852   */\n      0x00\n        /* \"#utility.yul\":7848:7849   */\n      dup5\n        /* \"#utility.yul\":7844:7853   */\n      slt\n        /* \"#utility.yul\":7840:7841   */\n      0x00\n        /* \"#utility.yul\":7837:7838   */\n      dup5\n        /* \"#utility.yul\":7833:7842   */\n      slt\n        /* \"#utility.yul\":7829:7854   */\n      and\n        /* \"#utility.yul\":7825:7940   */\n      and\n        /* \"#utility.yul\":7822:7963   */\n      iszero\n      tag_199\n      jumpi\n        /* \"#utility.yul\":7943:7961   */\n      tag_200\n      tag_176\n      jump\t// in\n    tag_200:\n        /* \"#utility.yul\":7822:7963   */\n    tag_199:\n        /* \"#utility.yul\":7991:7992   */\n      dup3\n        /* \"#utility.yul\":7988:7989   */\n      dup3\n        /* \"#utility.yul\":7984:7993   */\n      mul\n        /* \"#utility.yul\":7973:7993   */\n      swap1\n      pop\n        /* \"#utility.yul\":7008:7999   */\n      swap3\n      swap2\n      pop\n      pop\n      jump\t// out\n        /* \"#utility.yul\":8005:8353   */\n    tag_47:\n        /* \"#utility.yul\":8045:8052   */\n      0x00\n        /* \"#utility.yul\":8068:8088   */\n      tag_202\n        /* \"#utility.yul\":8086:8087   */\n      dup3\n        /* \"#utility.yul\":8068:8088   */\n      tag_151\n      jump\t// in\n    tag_202:\n        /* \"#utility.yul\":8063:8088   */\n      swap2\n      pop\n        /* \"#utility.yul\":8102:8122   */\n      tag_203\n        /* \"#utility.yul\":8120:8121   */\n      dup4\n        /* \"#utility.yul\":8102:8122   */\n      tag_151\n      jump\t// in\n    tag_203:\n        /* \"#utility.yul\":8097:8122   */\n      swap3\n      pop\n        /* \"#utility.yul\":8290:8291   */\n      dup2\n        /* \"#utility.yul\":8222:8288   */\n      0xffffffffffffffffffffffffffffffffffffffffffffffffffffffffffffffff\n        /* \"#utility.yul\":8218:8292   */\n      div\n        /* \"#utility.yul\":8215:8216   */\n      dup4\n        /* \"#utility.yul\":8212:8293   */\n      gt\n        /* \"#utility.yul\":8207:8208   */\n      dup3\n        /* \"#utility.yul\":8200:8209   */\n      iszero\n        /* \"#utility.yul\":8193:8210   */\n      iszero\n        /* \"#utility.yul\":8189:8294   */\n      and\n        /* \"#utility.yul\":8186:8317   */\n      iszero\n      tag_204\n      jumpi\n        /* \"#utility.yul\":8297:8315   */\n      tag_205\n      tag_176\n      jump\t// in\n    tag_205:\n        /* \"#utility.yul\":8186:8317   */\n    tag_204:\n        /* \"#utility.yul\":8345:8346   */\n      dup3\n        /* \"#utility.yul\":8342:8343   */\n      dup3\n        /* \"#utility.yul\":8338:8347   */\n      mul\n        /* \"#utility.yul\":8327:8347   */\n      swap1\n      pop\n        /* \"#utility.yul\":8005:8353   */\n      swap3\n      swap2\n      pop\n      pop\n      jump\t// out\n        /* \"#utility.yul\":8359:8886   */\n    tag_59:\n        /* \"#utility.yul\":8398:8402   */\n      0x00\n        /* \"#utility.yul\":8418:8437   */\n      tag_207\n        /* \"#utility.yul\":8435:8436   */\n      dup3\n        /* \"#utility.yul\":8418:8437   */\n      tag_135\n      jump\t// in\n    tag_207:\n        /* \"#utility.yul\":8413:8437   */\n      swap2\n      pop\n        /* \"#utility.yul\":8451:8470   */\n      tag_208\n        /* \"#utility.yul\":8468:8469   */\n      dup4\n        /* \"#utility.yul\":8451:8470   */\n      tag_135\n      jump\t// in\n    tag_208:\n        /* \"#utility.yul\":8446:8470   */\n      swap3\n      pop\n        /* \"#utility.yul\":8640:8641   */\n      dup3\n        /* \"#utility.yul\":8572:8638   */\n      0x8000000000000000000000000000000000000000000000000000000000000000\n        /* \"#utility.yul\":8568:8642   */\n      add\n        /* \"#utility.yul\":8565:8566   */\n      dup3\n        /* \"#utility.yul\":8561:8643   */\n      slt\n        /* \"#utility.yul\":8556:8557   */\n      0x00\n        /* \"#utility.yul\":8553:8554   */\n      dup5\n        /* \"#utility.yul\":8549:8558   */\n      slt\n        /* \"#utility.yul\":8542:8559   */\n      iszero\n        /* \"#utility.yul\":8538:8644   */\n      and\n        /* \"#utility.yul\":8535:8667   */\n      iszero\n      tag_209\n      jumpi\n        /* \"#utility.yul\":8647:8665   */\n      tag_210\n      tag_176\n      jump\t// in\n    tag_210:\n        /* \"#utility.yul\":8535:8667   */\n    tag_209:\n        /* \"#utility.yul\":8826:8827   */\n      dup3\n        /* \"#utility.yul\":8758:8824   */\n      0x7fffffffffffffffffffffffffffffffffffffffffffffffffffffffffffffff\n        /* \"#utility.yul\":8754:8828   */\n      add\n        /* \"#utility.yul\":8751:8752   */\n      dup3\n        /* \"#utility.yul\":8747:8829   */\n      sgt\n        /* \"#utility.yul\":8743:8744   */\n      0x00\n        /* \"#utility.yul\":8740:8741   */\n      dup5\n        /* \"#utility.yul\":8736:8745   */\n      slt\n        /* \"#utility.yul\":8732:8830   */\n      and\n        /* \"#utility.yul\":8729:8853   */\n      iszero\n      tag_211\n      jumpi\n        /* \"#utility.yul\":8833:8851   */\n      tag_212\n      tag_176\n      jump\t// in\n    tag_212:\n        /* \"#utility.yul\":8729:8853   */\n    tag_211:\n        /* \"#utility.yul\":8878:8879   */\n      dup3\n        /* \"#utility.yul\":8875:8876   */\n      dup3\n        /* \"#utility.yul\":8871:8880   */\n      sub\n        /* \"#utility.yul\":8863:8880   */\n      swap1\n      pop\n        /* \"#utility.yul\":8359:8886   */\n      swap3\n      swap2\n      pop\n      pop\n      jump\t// out\n        /* \"#utility.yul\":8892:9083   */\n    tag_54:\n        /* \"#utility.yul\":8932:8936   */\n      0x00\n        /* \"#utility.yul\":8952:8972   */\n      tag_214\n        /* \"#utility.yul\":8970:8971   */\n      dup3\n        /* \"#utility.yul\":8952:8972   */\n      tag_151\n      jump\t// in\n    tag_214:\n        /* \"#utility.yul\":8947:8972   */\n      swap2\n      pop\n        /* \"#utility.yul\":8986:9006   */\n      tag_215\n        /* \"#utility.yul\":9004:9005   */\n      dup4\n        /* \"#utility.yul\":8986:9006   */\n      tag_151\n      jump\t// in\n    tag_215:\n        /* \"#utility.yul\":8981:9006   */\n      swap3\n      pop\n        /* \"#utility.yul\":9025:9026   */\n      dup3\n        /* \"#utility.yul\":9022:9023   */\n      dup3\n        /* \"#utility.yul\":9019:9027   */\n      lt\n        /* \"#utility.yul\":9016:9050   */\n      iszero\n      tag_216\n      jumpi\n        /* \"#utility.yul\":9030:9048   */\n      tag_217\n      tag_176\n      jump\t// in\n    tag_217:\n        /* \"#utility.yul\":9016:9050   */\n    tag_216:\n        /* \"#utility.yul\":9075:9076   */\n      dup3\n        /* \"#utility.yul\":9072:9073   */\n      dup3\n        /* \"#utility.yul\":9068:9077   */\n      sub\n        /* \"#utility.yul\":9060:9077   */\n      swap1\n      pop\n        /* \"#utility.yul\":8892:9083   */\n      swap3\n      swap2\n      pop\n      pop\n      jump\t// out\n        /* \"#utility.yul\":9089:9185   */\n    tag_131:\n        /* \"#utility.yul\":9126:9133   */\n      0x00\n        /* \"#utility.yul\":9155:9179   */\n      tag_219\n        /* \"#utility.yul\":9173:9178   */\n      dup3\n        /* \"#utility.yul\":9155:9179   */\n      tag_220\n      jump\t// in\n    tag_219:\n        /* \"#utility.yul\":9144:9179   */\n      swap1\n      pop\n        /* \"#utility.yul\":9089:9185   */\n      swap2\n      swap1\n      pop\n      jump\t// out\n        /* \"#utility.yul\":9191:9281   */\n    tag_221:\n        /* \"#utility.yul\":9225:9232   */\n      0x00\n        /* \"#utility.yul\":9268:9273   */\n      dup2\n        /* \"#utility.yul\":9261:9274   */\n      iszero\n        /* \"#utility.yul\":9254:9275   */\n      iszero\n        /* \"#utility.yul\":9243:9275   */\n      swap1\n      pop\n        /* \"#utility.yul\":9191:9281   */\n      swap2\n      swap1\n      pop\n      jump\t// out\n        /* \"#utility.yul\":9287:9363   */\n    tag_135:\n        /* \"#utility.yul\":9323:9330   */\n      0x00\n        /* \"#utility.yul\":9352:9357   */\n      dup2\n        /* \"#utility.yul\":9341:9357   */\n      swap1\n      pop\n        /* \"#utility.yul\":9287:9363   */\n      swap2\n      swap1\n      pop\n      jump\t// out\n        /* \"#utility.yul\":9369:9495   */\n    tag_220:\n        /* \"#utility.yul\":9406:9413   */\n      0x00\n        /* \"#utility.yul\":9446:9488   */\n      0xffffffffffffffffffffffffffffffffffffffff\n        /* \"#utility.yul\":9439:9444   */\n      dup3\n        /* \"#utility.yul\":9435:9489   */\n      and\n        /* \"#utility.yul\":9424:9489   */\n      swap1\n      pop\n        /* \"#utility.yul\":9369:9495   */\n      swap2\n      swap1\n      pop\n      jump\t// out\n        /* \"#utility.yul\":9501:9578   */\n    tag_151:\n        /* \"#utility.yul\":9538:9545   */\n      0x00\n        /* \"#utility.yul\":9567:9572   */\n      dup2\n        /* \"#utility.yul\":9556:9572   */\n      swap1\n      pop\n        /* \"#utility.yul\":9501:9578   */\n      swap2\n      swap1\n      pop\n      jump\t// out\n        /* \"#utility.yul\":9584:9764   */\n    tag_176:\n        /* \"#utility.yul\":9632:9709   */\n      0x4e487b7100000000000000000000000000000000000000000000000000000000\n        /* \"#utility.yul\":9629:9630   */\n      0x00\n        /* \"#utility.yul\":9622:9710   */\n      mstore\n        /* \"#utility.yul\":9729:9733   */\n      0x11\n        /* \"#utility.yul\":9726:9727   */\n      0x04\n        /* \"#utility.yul\":9719:9734   */\n      mstore\n        /* \"#utility.yul\":9753:9757   */\n      0x24\n        /* \"#utility.yul\":9750:9751   */\n      0x00\n        /* \"#utility.yul\":9743:9758   */\n      revert\n        /* \"#utility.yul\":9770:9950   */\n    tag_182:\n        /* \"#utility.yul\":9818:9895   */\n      0x4e487b7100000000000000000000000000000000000000000000000000000000\n        /* \"#utility.yul\":9815:9816   */\n      0x00\n        /* \"#utility.yul\":9808:9896   */\n      mstore\n        /* \"#utility.yul\":9915:9919   */\n      0x12\n        /* \"#utility.yul\":9912:9913   */\n      0x04\n        /* \"#utility.yul\":9905:9920   */\n      mstore\n        /* \"#utility.yul\":9939:9943   */\n      0x24\n        /* \"#utility.yul\":9936:9937   */\n      0x00\n        /* \"#utility.yul\":9929:9944   */\n      revert\n        /* \"#utility.yul\":10079:10196   */\n    tag_110:\n        /* \"#utility.yul\":10188:10189   */\n      0x00\n        /* \"#utility.yul\":10185:10186   */\n      dup1\n        /* \"#utility.yul\":10178:10190   */\n      revert\n        /* \"#utility.yul\":10202:10316   */\n    tag_141:\n      pop\n      jump\t// out\n        /* \"#utility.yul\":10322:10488   */\n    tag_147:\n        /* \"#utility.yul\":10462:10480   */\n      0x5472616e73666572206661696c65642e00000000000000000000000000000000\n        /* \"#utility.yul\":10458:10459   */\n      0x00\n        /* \"#utility.yul\":10450:10456   */\n      dup3\n        /* \"#utility.yul\":10446:10460   */\n      add\n        /* \"#utility.yul\":10439:10481   */\n      mstore\n        /* \"#utility.yul\":10322:10488   */\n      pop\n      jump\t// out\n        /* \"#utility.yul\":10494:10616   */\n    tag_94:\n        /* \"#utility.yul\":10567:10591   */\n      tag_234\n        /* \"#utility.yul\":10585:10590   */\n      dup2\n        /* \"#utility.yul\":10567:10591   */\n      tag_131\n      jump\t// in\n    tag_234:\n        /* \"#utility.yul\":10560:10565   */\n      dup2\n        /* \"#utility.yul\":10557:10592   */\n      eq\n        /* \"#utility.yul\":10547:10610   */\n      tag_235\n      jumpi\n        /* \"#utility.yul\":10606:10607   */\n      0x00\n        /* \"#utility.yul\":10603:10604   */\n      dup1\n        /* \"#utility.yul\":10596:10608   */\n      revert\n        /* \"#utility.yul\":10547:10610   */\n    tag_235:\n        /* \"#utility.yul\":10494:10616   */\n      pop\n      jump\t// out\n        /* \"#utility.yul\":10622:10738   */\n    tag_98:\n        /* \"#utility.yul\":10692:10713   */\n      tag_237\n        /* \"#utility.yul\":10707:10712   */\n      dup2\n        /* \"#utility.yul\":10692:10713   */\n      tag_221\n      jump\t// in\n    tag_237:\n        /* \"#utility.yul\":10685:10690   */\n      dup2\n        /* \"#utility.yul\":10682:10714   */\n      eq\n        /* \"#utility.yul\":10672:10732   */\n      tag_238\n      jumpi\n        /* \"#utility.yul\":10728:10729   */\n      0x00\n        /* \"#utility.yul\":10725:10726   */\n      dup1\n        /* \"#utility.yul\":10718:10730   */\n      revert\n        /* \"#utility.yul\":10672:10732   */\n    tag_238:\n        /* \"#utility.yul\":10622:10738   */\n      pop\n      jump\t// out\n        /* \"#utility.yul\":10744:10864   */\n    tag_102:\n        /* \"#utility.yul\":10816:10839   */\n      tag_240\n        /* \"#utility.yul\":10833:10838   */\n      dup2\n        /* \"#utility.yul\":10816:10839   */\n      tag_135\n      jump\t// in\n    tag_240:\n        /* \"#utility.yul\":10809:10814   */\n      dup2\n        /* \"#utility.yul\":10806:10840   */\n      eq\n        /* \"#utility.yul\":10796:10858   */\n      tag_241\n      jumpi\n        /* \"#utility.yul\":10854:10855   */\n      0x00\n        /* \"#utility.yul\":10851:10852   */\n      dup1\n        /* \"#utility.yul\":10844:10856   */\n      revert\n        /* \"#utility.yul\":10796:10858   */\n    tag_241:\n        /* \"#utility.yul\":10744:10864   */\n      pop\n      jump\t// out\n        /* \"#utility.yul\":10870:10992   */\n    tag_106:\n        /* \"#utility.yul\":10943:10967   */\n      tag_243\n        /* \"#utility.yul\":10961:10966   */\n      dup2\n        /* \"#utility.yul\":10943:10967   */\n      tag_151\n      jump\t// in\n    tag_243:\n        /* \"#utility.yul\":10936:10941   */\n      dup2\n        /* \"#utility.yul\":10933:10968   */\n      eq\n        /* \"#utility.yul\":10923:10986   */\n      tag_244\n      jumpi\n        /* \"#utility.yul\":10982:10983   */\n      0x00\n        /* \"#utility.yul\":10979:10980   */\n      dup1\n        /* \"#utility.yul\":10972:10984   */\n      revert\n        /* \"#utility.yul\":10923:10986   */\n    tag_244:\n        /* \"#utility.yul\":10870:10992   */\n      pop\n      jump\t// out\n\n    auxdata: 0xa264697066735822122087b37cdc6fa22073161e69dbf6929069f40b21cf833511b24b42a2a682b0931c64736f6c63430008070033\n}\n",
				"bytecode": {
					"linkReferences": {},
					"object": "608060405234801561001057600080fd5b50610c25806100206000396000f3fe60806040526004361061007b5760003560e01c80639a3043171161004e5780639a30431714610128578063a4a2a9f614610132578063b905128b1461014e578063e2d84ac7146101795761007b565b80634a1d8d601461008057806354353f2f146100ab5780637583d880146100c2578063788ece96146100eb575b600080fd5b34801561008c57600080fd5b506100956101a4565b6040516100a29190610728565b60405180910390f35b3480156100b757600080fd5b506100c06101aa565b005b3480156100ce57600080fd5b506100e960048036038101906100e49190610601565b6101d2565b005b3480156100f757600080fd5b50610112600480360381019061010d91906105ae565b610234565b60405161011f91906106ed565b60405180910390f35b61013061026c565b005b61014c6004803603810190610147919061052e565b61026e565b005b34801561015a57600080fd5b506101636104ce565b6040516101709190610728565b60405180910390f35b34801561018557600080fd5b5061018e6104d4565b60405161019b9190610728565b60405180910390f35b60015481565b606460018190555060c86002819055506002546001546101ca9190610990565b600381905550565b6000816002546101e29190610788565b6003546101ef9190610848565b6001546101fc9190610a7e565b905080600160008282546102109190610a7e565b9250508190555081600260008282546102299190610788565b925050819055505050565b600082828561024391906109ea565b848661024f9190610879565b61025991906107de565b61026391906109ea565b90509392505050565b565b60006001541461027d57600080fd5b60006002541461028c57600080fd5b826000806101000a81548173ffffffffffffffffffffffffffffffffffffffff021916908373ffffffffffffffffffffffffffffffffffffffff16021790555060008054906101000a900473ffffffffffffffffffffffffffffffffffffffff1673ffffffffffffffffffffffffffffffffffffffff166323b872dd3330856040518463ffffffff1660e01b8152600401610329939291906106b6565b602060405180830381600087803b15801561034357600080fd5b505af1158015610357573d6000803e3d6000fd5b505050506040513d601f19601f8201168201806040525081019061037b9190610581565b61038457600080fd5b60003373ffffffffffffffffffffffffffffffffffffffff16826040516103aa906106a1565b60006040518083038185875af1925050503d80600081146103e7576040519150601f19603f3d011682016040523d82523d6000602084013e6103ec565b606091505b5050905080610430576040517f08c379a000000000000000000000000000000000000000000000000000000000815260040161042790610708565b60405180910390fd5b82600160008282546104429190610788565b92505081905550816002600082825461045b9190610788565b925050819055506002546001546104729190610990565b6003819055503373ffffffffffffffffffffffffffffffffffffffff167f519bbb4a5128192ae1efbee49abf9def583896e872da5278b2c47eb2882702d984846040516104c0929190610743565b60405180910390a250505050565b60035481565b60025481565b6000813590506104e981610b93565b92915050565b6000815190506104fe81610baa565b92915050565b60008135905061051381610bc1565b92915050565b60008135905061052881610bd8565b92915050565b60008060006060848603121561054757610546610b62565b5b6000610555868287016104da565b935050602061056686828701610519565b925050604061057786828701610519565b9150509250925092565b60006020828403121561059757610596610b62565b5b60006105a5848285016104ef565b91505092915050565b6000806000606084860312156105c7576105c6610b62565b5b60006105d586828701610504565b93505060206105e686828701610504565b92505060406105f786828701610504565b9150509250925092565b60006020828403121561061757610616610b62565b5b600061062584828501610519565b91505092915050565b61063781610ab2565b82525050565b61064681610ad0565b82525050565b600061065960008361076c565b915061066482610b67565b600082019050919050565b600061067c601083610777565b915061068782610b6a565b602082019050919050565b61069b81610afa565b82525050565b60006106ac8261064c565b9150819050919050565b60006060820190506106cb600083018661062e565b6106d8602083018561062e565b6106e56040830184610692565b949350505050565b6000602082019050610702600083018461063d565b92915050565b600060208201905081810360008301526107218161066f565b9050919050565b600060208201905061073d6000830184610692565b92915050565b60006040820190506107586000830185610692565b6107656020830184610692565b9392505050565b600081905092915050565b600082825260208201905092915050565b600061079382610afa565b915061079e83610afa565b9250827fffffffffffffffffffffffffffffffffffffffffffffffffffffffffffffffff038211156107d3576107d2610b04565b5b828201905092915050565b60006107e982610ad0565b91506107f483610ad0565b92508261080457610803610b33565b5b600160000383147f80000000000000000000000000000000000000000000000000000000000000008314161561083d5761083c610b04565b5b828205905092915050565b600061085382610afa565b915061085e83610afa565b92508261086e5761086d610b33565b5b828204905092915050565b600061088482610ad0565b915061088f83610ad0565b9250827f7fffffffffffffffffffffffffffffffffffffffffffffffffffffffffffffff04821160008413600084131616156108ce576108cd610b04565b5b817f8000000000000000000000000000000000000000000000000000000000000000058312600084126000841316161561090b5761090a610b04565b5b827f8000000000000000000000000000000000000000000000000000000000000000058212600084136000841216161561094857610947610b04565b5b827f7fffffffffffffffffffffffffffffffffffffffffffffffffffffffffffffff058212600084126000841216161561098557610984610b04565b5b828202905092915050565b600061099b82610afa565b91506109a683610afa565b9250817fffffffffffffffffffffffffffffffffffffffffffffffffffffffffffffffff04831182151516156109df576109de610b04565b5b828202905092915050565b60006109f582610ad0565b9150610a0083610ad0565b9250827f800000000000000000000000000000000000000000000000000000000000000001821260008412151615610a3b57610a3a610b04565b5b827f7fffffffffffffffffffffffffffffffffffffffffffffffffffffffffffffff018213600084121615610a7357610a72610b04565b5b828203905092915050565b6000610a8982610afa565b9150610a9483610afa565b925082821015610aa757610aa6610b04565b5b828203905092915050565b6000610abd82610ada565b9050919050565b60008115159050919050565b6000819050919050565b600073ffffffffffffffffffffffffffffffffffffffff82169050919050565b6000819050919050565b7f4e487b7100000000000000000000000000000000000000000000000000000000600052601160045260246000fd5b7f4e487b7100000000000000000000000000000000000000000000000000000000600052601260045260246000fd5b600080fd5b50565b7f5472616e73666572206661696c65642e00000000000000000000000000000000600082015250565b610b9c81610ab2565b8114610ba757600080fd5b50565b610bb381610ac4565b8114610bbe57600080fd5b50565b610bca81610ad0565b8114610bd557600080fd5b50565b610be181610afa565b8114610bec57600080fd5b5056fea264697066735822122087b37cdc6fa22073161e69dbf6929069f40b21cf833511b24b42a2a682b0931c64736f6c63430008070033",
					"opcodes": "PUSH1 0x80 PUSH1 0x40 MSTORE CALLVALUE DUP1 ISZERO PUSH2 0x10 JUMPI PUSH1 0x0 DUP1 REVERT JUMPDEST POP PUSH2 0xC25 DUP1 PUSH2 0x20 PUSH1 0x0 CODECOPY PUSH1 0x0 RETURN INVALID PUSH1 0x80 PUSH1 0x40 MSTORE PUSH1 0x4 CALLDATASIZE LT PUSH2 0x7B JUMPI PUSH1 0x0 CALLDATALOAD PUSH1 0xE0 SHR DUP1 PUSH4 0x9A304317 GT PUSH2 0x4E JUMPI DUP1 PUSH4 0x9A304317 EQ PUSH2 0x128 JUMPI DUP1 PUSH4 0xA4A2A9F6 EQ PUSH2 0x132 JUMPI DUP1 PUSH4 0xB905128B EQ PUSH2 0x14E JUMPI DUP1 PUSH4 0xE2D84AC7 EQ PUSH2 0x179 JUMPI PUSH2 0x7B JUMP JUMPDEST DUP1 PUSH4 0x4A1D8D60 EQ PUSH2 0x80 JUMPI DUP1 PUSH4 0x54353F2F EQ PUSH2 0xAB JUMPI DUP1 PUSH4 0x7583D880 EQ PUSH2 0xC2 JUMPI DUP1 PUSH4 0x788ECE96 EQ PUSH2 0xEB JUMPI JUMPDEST PUSH1 0x0 DUP1 REVERT JUMPDEST CALLVALUE DUP1 ISZERO PUSH2 0x8C JUMPI PUSH1 0x0 DUP1 REVERT JUMPDEST POP PUSH2 0x95 PUSH2 0x1A4 JUMP JUMPDEST PUSH1 0x40 MLOAD PUSH2 0xA2 SWAP2 SWAP1 PUSH2 0x728 JUMP JUMPDEST PUSH1 0x40 MLOAD DUP1 SWAP2 SUB SWAP1 RETURN JUMPDEST CALLVALUE DUP1 ISZERO PUSH2 0xB7 JUMPI PUSH1 0x0 DUP1 REVERT JUMPDEST POP PUSH2 0xC0 PUSH2 0x1AA JUMP JUMPDEST STOP JUMPDEST CALLVALUE DUP1 ISZERO PUSH2 0xCE JUMPI PUSH1 0x0 DUP1 REVERT JUMPDEST POP PUSH2 0xE9 PUSH1 0x4 DUP1 CALLDATASIZE SUB DUP2 ADD SWAP1 PUSH2 0xE4 SWAP2 SWAP1 PUSH2 0x601 JUMP JUMPDEST PUSH2 0x1D2 JUMP JUMPDEST STOP JUMPDEST CALLVALUE DUP1 ISZERO PUSH2 0xF7 JUMPI PUSH1 0x0 DUP1 REVERT JUMPDEST POP PUSH2 0x112 PUSH1 0x4 DUP1 CALLDATASIZE SUB DUP2 ADD SWAP1 PUSH2 0x10D SWAP2 SWAP1 PUSH2 0x5AE JUMP JUMPDEST PUSH2 0x234 JUMP JUMPDEST PUSH1 0x40 MLOAD PUSH2 0x11F SWAP2 SWAP1 PUSH2 0x6ED JUMP JUMPDEST PUSH1 0x40 MLOAD DUP1 SWAP2 SUB SWAP1 RETURN JUMPDEST PUSH2 0x130 PUSH2 0x26C JUMP JUMPDEST STOP JUMPDEST PUSH2 0x14C PUSH1 0x4 DUP1 CALLDATASIZE SUB DUP2 ADD SWAP1 PUSH2 0x147 SWAP2 SWAP1 PUSH2 0x52E JUMP JUMPDEST PUSH2 0x26E JUMP JUMPDEST STOP JUMPDEST CALLVALUE DUP1 ISZERO PUSH2 0x15A JUMPI PUSH1 0x0 DUP1 REVERT JUMPDEST POP PUSH2 0x163 PUSH2 0x4CE JUMP JUMPDEST PUSH1 0x40 MLOAD PUSH2 0x170 SWAP2 SWAP1 PUSH2 0x728 JUMP JUMPDEST PUSH1 0x40 MLOAD DUP1 SWAP2 SUB SWAP1 RETURN JUMPDEST CALLVALUE DUP1 ISZERO PUSH2 0x185 JUMPI PUSH1 0x0 DUP1 REVERT JUMPDEST POP PUSH2 0x18E PUSH2 0x4D4 JUMP JUMPDEST PUSH1 0x40 MLOAD PUSH2 0x19B SWAP2 SWAP1 PUSH2 0x728 JUMP JUMPDEST PUSH1 0x40 MLOAD DUP1 SWAP2 SUB SWAP1 RETURN JUMPDEST PUSH1 0x1 SLOAD DUP2 JUMP JUMPDEST PUSH1 0x64 PUSH1 0x1 DUP2 SWAP1 SSTORE POP PUSH1 0xC8 PUSH1 0x2 DUP2 SWAP1 SSTORE POP PUSH1 0x2 SLOAD PUSH1 0x1 SLOAD PUSH2 0x1CA SWAP2 SWAP1 PUSH2 0x990 JUMP JUMPDEST PUSH1 0x3 DUP2 SWAP1 SSTORE POP JUMP JUMPDEST PUSH1 0x0 DUP2 PUSH1 0x2 SLOAD PUSH2 0x1E2 SWAP2 SWAP1 PUSH2 0x788 JUMP JUMPDEST PUSH1 0x3 SLOAD PUSH2 0x1EF SWAP2 SWAP1 PUSH2 0x848 JUMP JUMPDEST PUSH1 0x1 SLOAD PUSH2 0x1FC SWAP2 SWAP1 PUSH2 0xA7E JUMP JUMPDEST SWAP1 POP DUP1 PUSH1 0x1 PUSH1 0x0 DUP3 DUP3 SLOAD PUSH2 0x210 SWAP2 SWAP1 PUSH2 0xA7E JUMP JUMPDEST SWAP3 POP POP DUP2 SWAP1 SSTORE POP DUP2 PUSH1 0x2 PUSH1 0x0 DUP3 DUP3 SLOAD PUSH2 0x229 SWAP2 SWAP1 PUSH2 0x788 JUMP JUMPDEST SWAP3 POP POP DUP2 SWAP1 SSTORE POP POP POP JUMP JUMPDEST PUSH1 0x0 DUP3 DUP3 DUP6 PUSH2 0x243 SWAP2 SWAP1 PUSH2 0x9EA JUMP JUMPDEST DUP5 DUP7 PUSH2 0x24F SWAP2 SWAP1 PUSH2 0x879 JUMP JUMPDEST PUSH2 0x259 SWAP2 SWAP1 PUSH2 0x7DE JUMP JUMPDEST PUSH2 0x263 SWAP2 SWAP1 PUSH2 0x9EA JUMP JUMPDEST SWAP1 POP SWAP4 SWAP3 POP POP POP JUMP JUMPDEST JUMP JUMPDEST PUSH1 0x0 PUSH1 0x1 SLOAD EQ PUSH2 0x27D JUMPI PUSH1 0x0 DUP1 REVERT JUMPDEST PUSH1 0x0 PUSH1 0x2 SLOAD EQ PUSH2 0x28C JUMPI PUSH1 0x0 DUP1 REVERT JUMPDEST DUP3 PUSH1 0x0 DUP1 PUSH2 0x100 EXP DUP2 SLOAD DUP2 PUSH20 0xFFFFFFFFFFFFFFFFFFFFFFFFFFFFFFFFFFFFFFFF MUL NOT AND SWAP1 DUP4 PUSH20 0xFFFFFFFFFFFFFFFFFFFFFFFFFFFFFFFFFFFFFFFF AND MUL OR SWAP1 SSTORE POP PUSH1 0x0 DUP1 SLOAD SWAP1 PUSH2 0x100 EXP SWAP1 DIV PUSH20 0xFFFFFFFFFFFFFFFFFFFFFFFFFFFFFFFFFFFFFFFF AND PUSH20 0xFFFFFFFFFFFFFFFFFFFFFFFFFFFFFFFFFFFFFFFF AND PUSH4 0x23B872DD CALLER ADDRESS DUP6 PUSH1 0x40 MLOAD DUP5 PUSH4 0xFFFFFFFF AND PUSH1 0xE0 SHL DUP2 MSTORE PUSH1 0x4 ADD PUSH2 0x329 SWAP4 SWAP3 SWAP2 SWAP1 PUSH2 0x6B6 JUMP JUMPDEST PUSH1 0x20 PUSH1 0x40 MLOAD DUP1 DUP4 SUB DUP2 PUSH1 0x0 DUP8 DUP1 EXTCODESIZE ISZERO DUP1 ISZERO PUSH2 0x343 JUMPI PUSH1 0x0 DUP1 REVERT JUMPDEST POP GAS CALL ISZERO DUP1 ISZERO PUSH2 0x357 JUMPI RETURNDATASIZE PUSH1 0x0 DUP1 RETURNDATACOPY RETURNDATASIZE PUSH1 0x0 REVERT JUMPDEST POP POP POP POP PUSH1 0x40 MLOAD RETURNDATASIZE PUSH1 0x1F NOT PUSH1 0x1F DUP3 ADD AND DUP3 ADD DUP1 PUSH1 0x40 MSTORE POP DUP2 ADD SWAP1 PUSH2 0x37B SWAP2 SWAP1 PUSH2 0x581 JUMP JUMPDEST PUSH2 0x384 JUMPI PUSH1 0x0 DUP1 REVERT JUMPDEST PUSH1 0x0 CALLER PUSH20 0xFFFFFFFFFFFFFFFFFFFFFFFFFFFFFFFFFFFFFFFF AND DUP3 PUSH1 0x40 MLOAD PUSH2 0x3AA SWAP1 PUSH2 0x6A1 JUMP JUMPDEST PUSH1 0x0 PUSH1 0x40 MLOAD DUP1 DUP4 SUB DUP2 DUP6 DUP8 GAS CALL SWAP3 POP POP POP RETURNDATASIZE DUP1 PUSH1 0x0 DUP2 EQ PUSH2 0x3E7 JUMPI PUSH1 0x40 MLOAD SWAP2 POP PUSH1 0x1F NOT PUSH1 0x3F RETURNDATASIZE ADD AND DUP3 ADD PUSH1 0x40 MSTORE RETURNDATASIZE DUP3 MSTORE RETURNDATASIZE PUSH1 0x0 PUSH1 0x20 DUP5 ADD RETURNDATACOPY PUSH2 0x3EC JUMP JUMPDEST PUSH1 0x60 SWAP2 POP JUMPDEST POP POP SWAP1 POP DUP1 PUSH2 0x430 JUMPI PUSH1 0x40 MLOAD PUSH32 0x8C379A000000000000000000000000000000000000000000000000000000000 DUP2 MSTORE PUSH1 0x4 ADD PUSH2 0x427 SWAP1 PUSH2 0x708 JUMP JUMPDEST PUSH1 0x40 MLOAD DUP1 SWAP2 SUB SWAP1 REVERT JUMPDEST DUP3 PUSH1 0x1 PUSH1 0x0 DUP3 DUP3 SLOAD PUSH2 0x442 SWAP2 SWAP1 PUSH2 0x788 JUMP JUMPDEST SWAP3 POP POP DUP2 SWAP1 SSTORE POP DUP2 PUSH1 0x2 PUSH1 0x0 DUP3 DUP3 SLOAD PUSH2 0x45B SWAP2 SWAP1 PUSH2 0x788 JUMP JUMPDEST SWAP3 POP POP DUP2 SWAP1 SSTORE POP PUSH1 0x2 SLOAD PUSH1 0x1 SLOAD PUSH2 0x472 SWAP2 SWAP1 PUSH2 0x990 JUMP JUMPDEST PUSH1 0x3 DUP2 SWAP1 SSTORE POP CALLER PUSH20 0xFFFFFFFFFFFFFFFFFFFFFFFFFFFFFFFFFFFFFFFF AND PUSH32 0x519BBB4A5128192AE1EFBEE49ABF9DEF583896E872DA5278B2C47EB2882702D9 DUP5 DUP5 PUSH1 0x40 MLOAD PUSH2 0x4C0 SWAP3 SWAP2 SWAP1 PUSH2 0x743 JUMP JUMPDEST PUSH1 0x40 MLOAD DUP1 SWAP2 SUB SWAP1 LOG2 POP POP POP POP JUMP JUMPDEST PUSH1 0x3 SLOAD DUP2 JUMP JUMPDEST PUSH1 0x2 SLOAD DUP2 JUMP JUMPDEST PUSH1 0x0 DUP2 CALLDATALOAD SWAP1 POP PUSH2 0x4E9 DUP2 PUSH2 0xB93 JUMP JUMPDEST SWAP3 SWAP2 POP POP JUMP JUMPDEST PUSH1 0x0 DUP2 MLOAD SWAP1 POP PUSH2 0x4FE DUP2 PUSH2 0xBAA JUMP JUMPDEST SWAP3 SWAP2 POP POP JUMP JUMPDEST PUSH1 0x0 DUP2 CALLDATALOAD SWAP1 POP PUSH2 0x513 DUP2 PUSH2 0xBC1 JUMP JUMPDEST SWAP3 SWAP2 POP POP JUMP JUMPDEST PUSH1 0x0 DUP2 CALLDATALOAD SWAP1 POP PUSH2 0x528 DUP2 PUSH2 0xBD8 JUMP JUMPDEST SWAP3 SWAP2 POP POP JUMP JUMPDEST PUSH1 0x0 DUP1 PUSH1 0x0 PUSH1 0x60 DUP5 DUP7 SUB SLT ISZERO PUSH2 0x547 JUMPI PUSH2 0x546 PUSH2 0xB62 JUMP JUMPDEST JUMPDEST PUSH1 0x0 PUSH2 0x555 DUP7 DUP3 DUP8 ADD PUSH2 0x4DA JUMP JUMPDEST SWAP4 POP POP PUSH1 0x20 PUSH2 0x566 DUP7 DUP3 DUP8 ADD PUSH2 0x519 JUMP JUMPDEST SWAP3 POP POP PUSH1 0x40 PUSH2 0x577 DUP7 DUP3 DUP8 ADD PUSH2 0x519 JUMP JUMPDEST SWAP2 POP POP SWAP3 POP SWAP3 POP SWAP3 JUMP JUMPDEST PUSH1 0x0 PUSH1 0x20 DUP3 DUP5 SUB SLT ISZERO PUSH2 0x597 JUMPI PUSH2 0x596 PUSH2 0xB62 JUMP JUMPDEST JUMPDEST PUSH1 0x0 PUSH2 0x5A5 DUP5 DUP3 DUP6 ADD PUSH2 0x4EF JUMP JUMPDEST SWAP2 POP POP SWAP3 SWAP2 POP POP JUMP JUMPDEST PUSH1 0x0 DUP1 PUSH1 0x0 PUSH1 0x60 DUP5 DUP7 SUB SLT ISZERO PUSH2 0x5C7 JUMPI PUSH2 0x5C6 PUSH2 0xB62 JUMP JUMPDEST JUMPDEST PUSH1 0x0 PUSH2 0x5D5 DUP7 DUP3 DUP8 ADD PUSH2 0x504 JUMP JUMPDEST SWAP4 POP POP PUSH1 0x20 PUSH2 0x5E6 DUP7 DUP3 DUP8 ADD PUSH2 0x504 JUMP JUMPDEST SWAP3 POP POP PUSH1 0x40 PUSH2 0x5F7 DUP7 DUP3 DUP8 ADD PUSH2 0x504 JUMP JUMPDEST SWAP2 POP POP SWAP3 POP SWAP3 POP SWAP3 JUMP JUMPDEST PUSH1 0x0 PUSH1 0x20 DUP3 DUP5 SUB SLT ISZERO PUSH2 0x617 JUMPI PUSH2 0x616 PUSH2 0xB62 JUMP JUMPDEST JUMPDEST PUSH1 0x0 PUSH2 0x625 DUP5 DUP3 DUP6 ADD PUSH2 0x519 JUMP JUMPDEST SWAP2 POP POP SWAP3 SWAP2 POP POP JUMP JUMPDEST PUSH2 0x637 DUP2 PUSH2 0xAB2 JUMP JUMPDEST DUP3 MSTORE POP POP JUMP JUMPDEST PUSH2 0x646 DUP2 PUSH2 0xAD0 JUMP JUMPDEST DUP3 MSTORE POP POP JUMP JUMPDEST PUSH1 0x0 PUSH2 0x659 PUSH1 0x0 DUP4 PUSH2 0x76C JUMP JUMPDEST SWAP2 POP PUSH2 0x664 DUP3 PUSH2 0xB67 JUMP JUMPDEST PUSH1 0x0 DUP3 ADD SWAP1 POP SWAP2 SWAP1 POP JUMP JUMPDEST PUSH1 0x0 PUSH2 0x67C PUSH1 0x10 DUP4 PUSH2 0x777 JUMP JUMPDEST SWAP2 POP PUSH2 0x687 DUP3 PUSH2 0xB6A JUMP JUMPDEST PUSH1 0x20 DUP3 ADD SWAP1 POP SWAP2 SWAP1 POP JUMP JUMPDEST PUSH2 0x69B DUP2 PUSH2 0xAFA JUMP JUMPDEST DUP3 MSTORE POP POP JUMP JUMPDEST PUSH1 0x0 PUSH2 0x6AC DUP3 PUSH2 0x64C JUMP JUMPDEST SWAP2 POP DUP2 SWAP1 POP SWAP2 SWAP1 POP JUMP JUMPDEST PUSH1 0x0 PUSH1 0x60 DUP3 ADD SWAP1 POP PUSH2 0x6CB PUSH1 0x0 DUP4 ADD DUP7 PUSH2 0x62E JUMP JUMPDEST PUSH2 0x6D8 PUSH1 0x20 DUP4 ADD DUP6 PUSH2 0x62E JUMP JUMPDEST PUSH2 0x6E5 PUSH1 0x40 DUP4 ADD DUP5 PUSH2 0x692 JUMP JUMPDEST SWAP5 SWAP4 POP POP POP POP JUMP JUMPDEST PUSH1 0x0 PUSH1 0x20 DUP3 ADD SWAP1 POP PUSH2 0x702 PUSH1 0x0 DUP4 ADD DUP5 PUSH2 0x63D JUMP JUMPDEST SWAP3 SWAP2 POP POP JUMP JUMPDEST PUSH1 0x0 PUSH1 0x20 DUP3 ADD SWAP1 POP DUP2 DUP2 SUB PUSH1 0x0 DUP4 ADD MSTORE PUSH2 0x721 DUP2 PUSH2 0x66F JUMP JUMPDEST SWAP1 POP SWAP2 SWAP1 POP JUMP JUMPDEST PUSH1 0x0 PUSH1 0x20 DUP3 ADD SWAP1 POP PUSH2 0x73D PUSH1 0x0 DUP4 ADD DUP5 PUSH2 0x692 JUMP JUMPDEST SWAP3 SWAP2 POP POP JUMP JUMPDEST PUSH1 0x0 PUSH1 0x40 DUP3 ADD SWAP1 POP PUSH2 0x758 PUSH1 0x0 DUP4 ADD DUP6 PUSH2 0x692 JUMP JUMPDEST PUSH2 0x765 PUSH1 0x20 DUP4 ADD DUP5 PUSH2 0x692 JUMP JUMPDEST SWAP4 SWAP3 POP POP POP JUMP JUMPDEST PUSH1 0x0 DUP2 SWAP1 POP SWAP3 SWAP2 POP POP JUMP JUMPDEST PUSH1 0x0 DUP3 DUP3 MSTORE PUSH1 0x20 DUP3 ADD SWAP1 POP SWAP3 SWAP2 POP POP JUMP JUMPDEST PUSH1 0x0 PUSH2 0x793 DUP3 PUSH2 0xAFA JUMP JUMPDEST SWAP2 POP PUSH2 0x79E DUP4 PUSH2 0xAFA JUMP JUMPDEST SWAP3 POP DUP3 PUSH32 0xFFFFFFFFFFFFFFFFFFFFFFFFFFFFFFFFFFFFFFFFFFFFFFFFFFFFFFFFFFFFFFFF SUB DUP3 GT ISZERO PUSH2 0x7D3 JUMPI PUSH2 0x7D2 PUSH2 0xB04 JUMP JUMPDEST JUMPDEST DUP3 DUP3 ADD SWAP1 POP SWAP3 SWAP2 POP POP JUMP JUMPDEST PUSH1 0x0 PUSH2 0x7E9 DUP3 PUSH2 0xAD0 JUMP JUMPDEST SWAP2 POP PUSH2 0x7F4 DUP4 PUSH2 0xAD0 JUMP JUMPDEST SWAP3 POP DUP3 PUSH2 0x804 JUMPI PUSH2 0x803 PUSH2 0xB33 JUMP JUMPDEST JUMPDEST PUSH1 0x1 PUSH1 0x0 SUB DUP4 EQ PUSH32 0x8000000000000000000000000000000000000000000000000000000000000000 DUP4 EQ AND ISZERO PUSH2 0x83D JUMPI PUSH2 0x83C PUSH2 0xB04 JUMP JUMPDEST JUMPDEST DUP3 DUP3 SDIV SWAP1 POP SWAP3 SWAP2 POP POP JUMP JUMPDEST PUSH1 0x0 PUSH2 0x853 DUP3 PUSH2 0xAFA JUMP JUMPDEST SWAP2 POP PUSH2 0x85E DUP4 PUSH2 0xAFA JUMP JUMPDEST SWAP3 POP DUP3 PUSH2 0x86E JUMPI PUSH2 0x86D PUSH2 0xB33 JUMP JUMPDEST JUMPDEST DUP3 DUP3 DIV SWAP1 POP SWAP3 SWAP2 POP POP JUMP JUMPDEST PUSH1 0x0 PUSH2 0x884 DUP3 PUSH2 0xAD0 JUMP JUMPDEST SWAP2 POP PUSH2 0x88F DUP4 PUSH2 0xAD0 JUMP JUMPDEST SWAP3 POP DUP3 PUSH32 0x7FFFFFFFFFFFFFFFFFFFFFFFFFFFFFFFFFFFFFFFFFFFFFFFFFFFFFFFFFFFFFFF DIV DUP3 GT PUSH1 0x0 DUP5 SGT PUSH1 0x0 DUP5 SGT AND AND ISZERO PUSH2 0x8CE JUMPI PUSH2 0x8CD PUSH2 0xB04 JUMP JUMPDEST JUMPDEST DUP2 PUSH32 0x8000000000000000000000000000000000000000000000000000000000000000 SDIV DUP4 SLT PUSH1 0x0 DUP5 SLT PUSH1 0x0 DUP5 SGT AND AND ISZERO PUSH2 0x90B JUMPI PUSH2 0x90A PUSH2 0xB04 JUMP JUMPDEST JUMPDEST DUP3 PUSH32 0x8000000000000000000000000000000000000000000000000000000000000000 SDIV DUP3 SLT PUSH1 0x0 DUP5 SGT PUSH1 0x0 DUP5 SLT AND AND ISZERO PUSH2 0x948 JUMPI PUSH2 0x947 PUSH2 0xB04 JUMP JUMPDEST JUMPDEST DUP3 PUSH32 0x7FFFFFFFFFFFFFFFFFFFFFFFFFFFFFFFFFFFFFFFFFFFFFFFFFFFFFFFFFFFFFFF SDIV DUP3 SLT PUSH1 0x0 DUP5 SLT PUSH1 0x0 DUP5 SLT AND AND ISZERO PUSH2 0x985 JUMPI PUSH2 0x984 PUSH2 0xB04 JUMP JUMPDEST JUMPDEST DUP3 DUP3 MUL SWAP1 POP SWAP3 SWAP2 POP POP JUMP JUMPDEST PUSH1 0x0 PUSH2 0x99B DUP3 PUSH2 0xAFA JUMP JUMPDEST SWAP2 POP PUSH2 0x9A6 DUP4 PUSH2 0xAFA JUMP JUMPDEST SWAP3 POP DUP2 PUSH32 0xFFFFFFFFFFFFFFFFFFFFFFFFFFFFFFFFFFFFFFFFFFFFFFFFFFFFFFFFFFFFFFFF DIV DUP4 GT DUP3 ISZERO ISZERO AND ISZERO PUSH2 0x9DF JUMPI PUSH2 0x9DE PUSH2 0xB04 JUMP JUMPDEST JUMPDEST DUP3 DUP3 MUL SWAP1 POP SWAP3 SWAP2 POP POP JUMP JUMPDEST PUSH1 0x0 PUSH2 0x9F5 DUP3 PUSH2 0xAD0 JUMP JUMPDEST SWAP2 POP PUSH2 0xA00 DUP4 PUSH2 0xAD0 JUMP JUMPDEST SWAP3 POP DUP3 PUSH32 0x8000000000000000000000000000000000000000000000000000000000000000 ADD DUP3 SLT PUSH1 0x0 DUP5 SLT ISZERO AND ISZERO PUSH2 0xA3B JUMPI PUSH2 0xA3A PUSH2 0xB04 JUMP JUMPDEST JUMPDEST DUP3 PUSH32 0x7FFFFFFFFFFFFFFFFFFFFFFFFFFFFFFFFFFFFFFFFFFFFFFFFFFFFFFFFFFFFFFF ADD DUP3 SGT PUSH1 0x0 DUP5 SLT AND ISZERO PUSH2 0xA73 JUMPI PUSH2 0xA72 PUSH2 0xB04 JUMP JUMPDEST JUMPDEST DUP3 DUP3 SUB SWAP1 POP SWAP3 SWAP2 POP POP JUMP JUMPDEST PUSH1 0x0 PUSH2 0xA89 DUP3 PUSH2 0xAFA JUMP JUMPDEST SWAP2 POP PUSH2 0xA94 DUP4 PUSH2 0xAFA JUMP JUMPDEST SWAP3 POP DUP3 DUP3 LT ISZERO PUSH2 0xAA7 JUMPI PUSH2 0xAA6 PUSH2 0xB04 JUMP JUMPDEST JUMPDEST DUP3 DUP3 SUB SWAP1 POP SWAP3 SWAP2 POP POP JUMP JUMPDEST PUSH1 0x0 PUSH2 0xABD DUP3 PUSH2 0xADA JUMP JUMPDEST SWAP1 POP SWAP2 SWAP1 POP JUMP JUMPDEST PUSH1 0x0 DUP2 ISZERO ISZERO SWAP1 POP SWAP2 SWAP1 POP JUMP JUMPDEST PUSH1 0x0 DUP2 SWAP1 POP SWAP2 SWAP1 POP JUMP JUMPDEST PUSH1 0x0 PUSH20 0xFFFFFFFFFFFFFFFFFFFFFFFFFFFFFFFFFFFFFFFF DUP3 AND SWAP1 POP SWAP2 SWAP1 POP JUMP JUMPDEST PUSH1 0x0 DUP2 SWAP1 POP SWAP2 SWAP1 POP JUMP JUMPDEST PUSH32 0x4E487B7100000000000000000000000000000000000000000000000000000000 PUSH1 0x0 MSTORE PUSH1 0x11 PUSH1 0x4 MSTORE PUSH1 0x24 PUSH1 0x0 REVERT JUMPDEST PUSH32 0x4E487B7100000000000000000000000000000000000000000000000000000000 PUSH1 0x0 MSTORE PUSH1 0x12 PUSH1 0x4 MSTORE PUSH1 0x24 PUSH1 0x0 REVERT JUMPDEST PUSH1 0x0 DUP1 REVERT JUMPDEST POP JUMP JUMPDEST PUSH32 0x5472616E73666572206661696C65642E00000000000000000000000000000000 PUSH1 0x0 DUP3 ADD MSTORE POP JUMP JUMPDEST PUSH2 0xB9C DUP2 PUSH2 0xAB2 JUMP JUMPDEST DUP2 EQ PUSH2 0xBA7 JUMPI PUSH1 0x0 DUP1 REVERT JUMPDEST POP JUMP JUMPDEST PUSH2 0xBB3 DUP2 PUSH2 0xAC4 JUMP JUMPDEST DUP2 EQ PUSH2 0xBBE JUMPI PUSH1 0x0 DUP1 REVERT JUMPDEST POP JUMP JUMPDEST PUSH2 0xBCA DUP2 PUSH2 0xAD0 JUMP JUMPDEST DUP2 EQ PUSH2 0xBD5 JUMPI PUSH1 0x0 DUP1 REVERT JUMPDEST POP JUMP JUMPDEST PUSH2 0xBE1 DUP2 PUSH2 0xAFA JUMP JUMPDEST DUP2 EQ PUSH2 0xBEC JUMPI PUSH1 0x0 DUP1 REVERT JUMPDEST POP JUMP INVALID LOG2 PUSH5 0x6970667358 0x22 SLT KECCAK256 DUP8 0xB3 PUSH29 0xDC6FA22073161E69DBF6929069F40B21CF833511B24B42A2A682B0931C PUSH5 0x736F6C6343 STOP ADDMOD SMOD STOP CALLER "
				},
				"gasEstimates": {
					"creation": {
						"codeDepositCost": "621800",
						"executionCost": "657",
						"totalCost": "622457"
					},
					"external": {
						"ETHtoTFA()": "120",
						"assetX()": "2430",
						"assetY()": "2495",
						"buyTFA(uint256)": "infinite",
						"calculatePrice(int256,int256,int256)": "infinite",
						"constK()": "2473",
						"example()": "infinite",
						"init(address,uint256,uint256)": "infinite"
					}
				},
				"methodIdentifiers": {
					"ETHtoTFA()": "9a304317",
					"assetX()": "4a1d8d60",
					"assetY()": "e2d84ac7",
					"buyTFA(uint256)": "7583d880",
					"calculatePrice(int256,int256,int256)": "788ece96",
					"constK()": "b905128b",
					"example()": "54353f2f",
					"init(address,uint256,uint256)": "a4a2a9f6"
				}
			},
			"storageLayout": {
				"storage": [
					{
						"astId": 717,
						"contract": "PFG/LP.sol:DEX",
						"label": "tokenERC",
						"offset": 0,
						"slot": "0",
						"type": "t_contract(IERC20)663"
					},
					{
						"astId": 719,
						"contract": "PFG/LP.sol:DEX",
						"label": "assetX",
						"offset": 0,
						"slot": "1",
						"type": "t_uint256"
					},
					{
						"astId": 721,
						"contract": "PFG/LP.sol:DEX",
						"label": "assetY",
						"offset": 0,
						"slot": "2",
						"type": "t_uint256"
					},
					{
						"astId": 723,
						"contract": "PFG/LP.sol:DEX",
						"label": "constK",
						"offset": 0,
						"slot": "3",
						"type": "t_uint256"
					}
				],
				"types": {
					"t_contract(IERC20)663": {
						"encoding": "inplace",
						"label": "contract IERC20",
						"numberOfBytes": "20"
					},
					"t_uint256": {
						"encoding": "inplace",
						"label": "uint256",
						"numberOfBytes": "32"
					}
				}
			},
			"userdoc": {
				"kind": "user",
				"methods": {},
				"version": 1
			}
		}
	}
}