{
	"PFG/Interest.sol": {
		"Interest": {
			"abi": [
				{
					"inputs": [
						{
							"internalType": "uint256",
							"name": "_init",
							"type": "uint256"
						}
					],
					"stateMutability": "nonpayable",
					"type": "constructor"
				},
				{
					"inputs": [
						{
							"internalType": "uint256",
							"name": "val",
							"type": "uint256"
						},
						{
							"internalType": "uint256",
							"name": "col",
							"type": "uint256"
						}
					],
					"name": "collInterest",
					"outputs": [],
					"stateMutability": "nonpayable",
					"type": "function"
				},
				{
					"inputs": [],
					"name": "rate",
					"outputs": [
						{
							"internalType": "uint256",
							"name": "",
							"type": "uint256"
						}
					],
					"stateMutability": "view",
					"type": "function"
				},
				{
					"inputs": [],
					"name": "reduction",
					"outputs": [],
					"stateMutability": "nonpayable",
					"type": "function"
				}
			],
			"devdoc": {
				"kind": "dev",
				"methods": {},
				"version": 1
			},
			"evm": {
				"assembly": "    /* \"PFG/Interest.sol\":66:1048  contract Interest {... */\n  mstore(0x40, 0x80)\n    /* \"PFG/Interest.sol\":181:296  constructor(uint256 _init){... */\n  callvalue\n  dup1\n  iszero\n  tag_1\n  jumpi\n  0x00\n  dup1\n  revert\ntag_1:\n  pop\n  mload(0x40)\n  sub(codesize, bytecodeSize)\n  dup1\n  bytecodeSize\n  dup4\n  codecopy\n  dup2\n  dup2\n  add\n  0x40\n  mstore\n  dup2\n  add\n  swap1\n  tag_2\n  swap2\n  swap1\n  tag_3\n  jump\t// in\ntag_2:\n    /* \"PFG/Interest.sol\":224:226  18 */\n  0x12\n    /* \"PFG/Interest.sol\":218:221  dec */\n  0x01\n    /* \"PFG/Interest.sol\":218:226  dec = 18 */\n  dup2\n  swap1\n  sstore\n  pop\n    /* \"PFG/Interest.sol\":258:261  dec */\n  sload(0x01)\n    /* \"PFG/Interest.sol\":252:254  10 */\n  0x0a\n    /* \"PFG/Interest.sol\":252:261  10 ** dec */\n  tag_6\n  swap2\n  swap1\n  tag_7\n  jump\t// in\ntag_6:\n    /* \"PFG/Interest.sol\":244:249  _init */\n  dup2\n    /* \"PFG/Interest.sol\":244:261  _init * 10 ** dec */\n  tag_8\n  swap2\n  swap1\n  tag_9\n  jump\t// in\ntag_8:\n    /* \"PFG/Interest.sol\":237:241  rate */\n  0x00\n    /* \"PFG/Interest.sol\":237:261  rate = _init * 10 ** dec */\n  dup2\n  swap1\n  sstore\n  pop\n    /* \"PFG/Interest.sol\":283:288  false */\n  0x00\n    /* \"PFG/Interest.sol\":272:280  executed */\n  0x02\n  0x00\n    /* \"PFG/Interest.sol\":272:288  executed = false */\n  0x0100\n  exp\n  dup2\n  sload\n  dup2\n  0xff\n  mul\n  not\n  and\n  swap1\n  dup4\n  iszero\n  iszero\n  mul\n  or\n  swap1\n  sstore\n  pop\n    /* \"PFG/Interest.sol\":181:296  constructor(uint256 _init){... */\n  pop\n    /* \"PFG/Interest.sol\":66:1048  contract Interest {... */\n  jump(tag_10)\n    /* \"#utility.yul\":88:205   */\ntag_12:\n    /* \"#utility.yul\":197:198   */\n  0x00\n    /* \"#utility.yul\":194:195   */\n  dup1\n    /* \"#utility.yul\":187:199   */\n  revert\n    /* \"#utility.yul\":334:411   */\ntag_14:\n    /* \"#utility.yul\":371:378   */\n  0x00\n    /* \"#utility.yul\":400:405   */\n  dup2\n    /* \"#utility.yul\":389:405   */\n  swap1\n  pop\n    /* \"#utility.yul\":334:411   */\n  swap2\n  swap1\n  pop\n  jump\t// out\n    /* \"#utility.yul\":417:539   */\ntag_15:\n    /* \"#utility.yul\":490:514   */\n  tag_27\n    /* \"#utility.yul\":508:513   */\n  dup2\n    /* \"#utility.yul\":490:514   */\n  tag_14\n  jump\t// in\ntag_27:\n    /* \"#utility.yul\":483:488   */\n  dup2\n    /* \"#utility.yul\":480:515   */\n  eq\n    /* \"#utility.yul\":470:533   */\n  tag_28\n  jumpi\n    /* \"#utility.yul\":529:530   */\n  0x00\n    /* \"#utility.yul\":526:527   */\n  dup1\n    /* \"#utility.yul\":519:531   */\n  revert\n    /* \"#utility.yul\":470:533   */\ntag_28:\n    /* \"#utility.yul\":417:539   */\n  pop\n  jump\t// out\n    /* \"#utility.yul\":545:688   */\ntag_16:\n    /* \"#utility.yul\":602:607   */\n  0x00\n    /* \"#utility.yul\":633:639   */\n  dup2\n    /* \"#utility.yul\":627:640   */\n  mload\n    /* \"#utility.yul\":618:640   */\n  swap1\n  pop\n    /* \"#utility.yul\":649:682   */\n  tag_30\n    /* \"#utility.yul\":676:681   */\n  dup2\n    /* \"#utility.yul\":649:682   */\n  tag_15\n  jump\t// in\ntag_30:\n    /* \"#utility.yul\":545:688   */\n  swap3\n  swap2\n  pop\n  pop\n  jump\t// out\n    /* \"#utility.yul\":694:1045   */\ntag_3:\n    /* \"#utility.yul\":764:770   */\n  0x00\n    /* \"#utility.yul\":813:815   */\n  0x20\n    /* \"#utility.yul\":801:810   */\n  dup3\n    /* \"#utility.yul\":792:799   */\n  dup5\n    /* \"#utility.yul\":788:811   */\n  sub\n    /* \"#utility.yul\":784:816   */\n  slt\n    /* \"#utility.yul\":781:900   */\n  iszero\n  tag_32\n  jumpi\n    /* \"#utility.yul\":819:898   */\n  tag_33\n  tag_12\n  jump\t// in\ntag_33:\n    /* \"#utility.yul\":781:900   */\ntag_32:\n    /* \"#utility.yul\":939:940   */\n  0x00\n    /* \"#utility.yul\":964:1028   */\n  tag_34\n    /* \"#utility.yul\":1020:1027   */\n  dup5\n    /* \"#utility.yul\":1011:1017   */\n  dup3\n    /* \"#utility.yul\":1000:1009   */\n  dup6\n    /* \"#utility.yul\":996:1018   */\n  add\n    /* \"#utility.yul\":964:1028   */\n  tag_16\n  jump\t// in\ntag_34:\n    /* \"#utility.yul\":954:1028   */\n  swap2\n  pop\n    /* \"#utility.yul\":910:1038   */\n  pop\n    /* \"#utility.yul\":694:1045   */\n  swap3\n  swap2\n  pop\n  pop\n  jump\t// out\n    /* \"#utility.yul\":1051:1231   */\ntag_17:\n    /* \"#utility.yul\":1099:1176   */\n  0x4e487b7100000000000000000000000000000000000000000000000000000000\n    /* \"#utility.yul\":1096:1097   */\n  0x00\n    /* \"#utility.yul\":1089:1177   */\n  mstore\n    /* \"#utility.yul\":1196:1200   */\n  0x11\n    /* \"#utility.yul\":1193:1194   */\n  0x04\n    /* \"#utility.yul\":1186:1201   */\n  mstore\n    /* \"#utility.yul\":1220:1224   */\n  0x24\n    /* \"#utility.yul\":1217:1218   */\n  0x00\n    /* \"#utility.yul\":1210:1225   */\n  revert\n    /* \"#utility.yul\":1237:1339   */\ntag_18:\n    /* \"#utility.yul\":1279:1287   */\n  0x00\n    /* \"#utility.yul\":1326:1331   */\n  dup2\n    /* \"#utility.yul\":1323:1324   */\n  0x01\n    /* \"#utility.yul\":1319:1332   */\n  shr\n    /* \"#utility.yul\":1298:1332   */\n  swap1\n  pop\n    /* \"#utility.yul\":1237:1339   */\n  swap2\n  swap1\n  pop\n  jump\t// out\n    /* \"#utility.yul\":1345:2193   */\ntag_19:\n    /* \"#utility.yul\":1406:1411   */\n  0x00\n    /* \"#utility.yul\":1413:1417   */\n  dup1\n    /* \"#utility.yul\":1437:1443   */\n  dup3\n    /* \"#utility.yul\":1428:1443   */\n  swap2\n  pop\n    /* \"#utility.yul\":1461:1466   */\n  dup4\n    /* \"#utility.yul\":1452:1466   */\n  swap1\n  pop\n    /* \"#utility.yul\":1475:2187   */\ntag_38:\n    /* \"#utility.yul\":1496:1497   */\n  0x01\n    /* \"#utility.yul\":1486:1494   */\n  dup6\n    /* \"#utility.yul\":1483:1498   */\n  gt\n    /* \"#utility.yul\":1475:2187   */\n  iszero\n  tag_40\n  jumpi\n    /* \"#utility.yul\":1591:1595   */\n  dup1\n    /* \"#utility.yul\":1586:1589   */\n  dup7\n    /* \"#utility.yul\":1582:1596   */\n  div\n    /* \"#utility.yul\":1576:1580   */\n  dup2\n    /* \"#utility.yul\":1573:1597   */\n  gt\n    /* \"#utility.yul\":1570:1620   */\n  iszero\n  tag_41\n  jumpi\n    /* \"#utility.yul\":1600:1618   */\n  tag_42\n  tag_17\n  jump\t// in\ntag_42:\n    /* \"#utility.yul\":1570:1620   */\ntag_41:\n    /* \"#utility.yul\":1650:1651   */\n  0x01\n    /* \"#utility.yul\":1640:1648   */\n  dup6\n    /* \"#utility.yul\":1636:1652   */\n  and\n    /* \"#utility.yul\":1633:2084   */\n  iszero\n  tag_43\n  jumpi\n    /* \"#utility.yul\":2065:2069   */\n  dup1\n    /* \"#utility.yul\":2058:2063   */\n  dup3\n    /* \"#utility.yul\":2054:2070   */\n  mul\n    /* \"#utility.yul\":2045:2070   */\n  swap2\n  pop\n    /* \"#utility.yul\":1633:2084   */\ntag_43:\n    /* \"#utility.yul\":2115:2119   */\n  dup1\n    /* \"#utility.yul\":2109:2113   */\n  dup2\n    /* \"#utility.yul\":2105:2120   */\n  mul\n    /* \"#utility.yul\":2097:2120   */\n  swap1\n  pop\n    /* \"#utility.yul\":2145:2177   */\n  tag_44\n    /* \"#utility.yul\":2168:2176   */\n  dup6\n    /* \"#utility.yul\":2145:2177   */\n  tag_18\n  jump\t// in\ntag_44:\n    /* \"#utility.yul\":2133:2177   */\n  swap5\n  pop\n    /* \"#utility.yul\":1475:2187   */\n  jump(tag_38)\ntag_40:\n    /* \"#utility.yul\":1345:2193   */\n  swap5\n  pop\n  swap5\n  swap3\n  pop\n  pop\n  pop\n  jump\t// out\n    /* \"#utility.yul\":2199:3272   */\ntag_20:\n    /* \"#utility.yul\":2253:2258   */\n  0x00\n    /* \"#utility.yul\":2444:2452   */\n  dup3\n    /* \"#utility.yul\":2434:2474   */\n  tag_46\n  jumpi\n    /* \"#utility.yul\":2465:2466   */\n  0x01\n    /* \"#utility.yul\":2456:2466   */\n  swap1\n  pop\n    /* \"#utility.yul\":2467:2472   */\n  jump(tag_45)\n    /* \"#utility.yul\":2434:2474   */\ntag_46:\n    /* \"#utility.yul\":2493:2497   */\n  dup2\n    /* \"#utility.yul\":2483:2519   */\n  tag_47\n  jumpi\n    /* \"#utility.yul\":2510:2511   */\n  0x00\n    /* \"#utility.yul\":2501:2511   */\n  swap1\n  pop\n    /* \"#utility.yul\":2512:2517   */\n  jump(tag_45)\n    /* \"#utility.yul\":2483:2519   */\ntag_47:\n    /* \"#utility.yul\":2579:2583   */\n  dup2\n    /* \"#utility.yul\":2627:2628   */\n  0x01\n    /* \"#utility.yul\":2622:2649   */\n  dup2\n  eq\n  tag_49\n  jumpi\n    /* \"#utility.yul\":2663:2664   */\n  0x02\n    /* \"#utility.yul\":2658:2849   */\n  dup2\n  eq\n  tag_50\n  jumpi\n    /* \"#utility.yul\":2572:2849   */\n  jump(tag_48)\n    /* \"#utility.yul\":2622:2649   */\ntag_49:\n    /* \"#utility.yul\":2640:2641   */\n  0x01\n    /* \"#utility.yul\":2631:2641   */\n  swap2\n  pop\n    /* \"#utility.yul\":2642:2647   */\n  pop\n  jump(tag_45)\n    /* \"#utility.yul\":2658:2849   */\ntag_50:\n    /* \"#utility.yul\":2703:2706   */\n  0xff\n    /* \"#utility.yul\":2693:2701   */\n  dup5\n    /* \"#utility.yul\":2690:2707   */\n  gt\n    /* \"#utility.yul\":2687:2730   */\n  iszero\n  tag_51\n  jumpi\n    /* \"#utility.yul\":2710:2728   */\n  tag_52\n  tag_17\n  jump\t// in\ntag_52:\n    /* \"#utility.yul\":2687:2730   */\ntag_51:\n    /* \"#utility.yul\":2759:2767   */\n  dup4\n    /* \"#utility.yul\":2756:2757   */\n  0x02\n    /* \"#utility.yul\":2752:2768   */\n  exp\n    /* \"#utility.yul\":2743:2768   */\n  swap2\n  pop\n    /* \"#utility.yul\":2794:2797   */\n  dup5\n    /* \"#utility.yul\":2787:2792   */\n  dup3\n    /* \"#utility.yul\":2784:2798   */\n  gt\n    /* \"#utility.yul\":2781:2821   */\n  iszero\n  tag_53\n  jumpi\n    /* \"#utility.yul\":2801:2819   */\n  tag_54\n  tag_17\n  jump\t// in\ntag_54:\n    /* \"#utility.yul\":2781:2821   */\ntag_53:\n    /* \"#utility.yul\":2834:2839   */\n  pop\n  jump(tag_45)\n    /* \"#utility.yul\":2572:2849   */\ntag_48:\n  pop\n    /* \"#utility.yul\":2958:2960   */\n  0x20\n    /* \"#utility.yul\":2948:2956   */\n  dup4\n    /* \"#utility.yul\":2945:2961   */\n  lt\n    /* \"#utility.yul\":2939:2942   */\n  0x0133\n    /* \"#utility.yul\":2933:2937   */\n  dup4\n    /* \"#utility.yul\":2930:2943   */\n  lt\n    /* \"#utility.yul\":2926:2962   */\n  and\n    /* \"#utility.yul\":2908:2910   */\n  0x4e\n    /* \"#utility.yul\":2898:2906   */\n  dup5\n    /* \"#utility.yul\":2895:2911   */\n  lt\n    /* \"#utility.yul\":2890:2892   */\n  0x0b\n    /* \"#utility.yul\":2884:2888   */\n  dup5\n    /* \"#utility.yul\":2881:2893   */\n  lt\n    /* \"#utility.yul\":2877:2912   */\n  and\n    /* \"#utility.yul\":2861:2972   */\n  or\n    /* \"#utility.yul\":2858:3104   */\n  iszero\n  tag_55\n  jumpi\n    /* \"#utility.yul\":3014:3022   */\n  dup3\n    /* \"#utility.yul\":3008:3012   */\n  dup3\n    /* \"#utility.yul\":3004:3023   */\n  exp\n    /* \"#utility.yul\":2995:3023   */\n  swap1\n  pop\n    /* \"#utility.yul\":3049:3052   */\n  dup4\n    /* \"#utility.yul\":3042:3047   */\n  dup2\n    /* \"#utility.yul\":3039:3053   */\n  gt\n    /* \"#utility.yul\":3036:3076   */\n  iszero\n  tag_56\n  jumpi\n    /* \"#utility.yul\":3056:3074   */\n  tag_57\n  tag_17\n  jump\t// in\ntag_57:\n    /* \"#utility.yul\":3036:3076   */\ntag_56:\n    /* \"#utility.yul\":3089:3094   */\n  jump(tag_45)\n    /* \"#utility.yul\":2858:3104   */\ntag_55:\n    /* \"#utility.yul\":3129:3171   */\n  tag_58\n    /* \"#utility.yul\":3167:3170   */\n  dup5\n    /* \"#utility.yul\":3157:3165   */\n  dup5\n    /* \"#utility.yul\":3151:3155   */\n  dup5\n    /* \"#utility.yul\":3148:3149   */\n  0x01\n    /* \"#utility.yul\":3129:3171   */\n  tag_19\n  jump\t// in\ntag_58:\n    /* \"#utility.yul\":3114:3171   */\n  swap3\n  pop\n  swap1\n  pop\n    /* \"#utility.yul\":3203:3207   */\n  dup2\n    /* \"#utility.yul\":3198:3201   */\n  dup5\n    /* \"#utility.yul\":3194:3208   */\n  div\n    /* \"#utility.yul\":3187:3192   */\n  dup2\n    /* \"#utility.yul\":3184:3209   */\n  gt\n    /* \"#utility.yul\":3181:3232   */\n  iszero\n  tag_59\n  jumpi\n    /* \"#utility.yul\":3212:3230   */\n  tag_60\n  tag_17\n  jump\t// in\ntag_60:\n    /* \"#utility.yul\":3181:3232   */\ntag_59:\n    /* \"#utility.yul\":3261:3265   */\n  dup2\n    /* \"#utility.yul\":3254:3259   */\n  dup2\n    /* \"#utility.yul\":3250:3266   */\n  mul\n    /* \"#utility.yul\":3241:3266   */\n  swap1\n  pop\n    /* \"#utility.yul\":2199:3272   */\ntag_45:\n  swap4\n  swap3\n  pop\n  pop\n  pop\n  jump\t// out\n    /* \"#utility.yul\":3278:3563   */\ntag_7:\n    /* \"#utility.yul\":3338:3343   */\n  0x00\n    /* \"#utility.yul\":3362:3385   */\n  tag_62\n    /* \"#utility.yul\":3380:3384   */\n  dup3\n    /* \"#utility.yul\":3362:3385   */\n  tag_14\n  jump\t// in\ntag_62:\n    /* \"#utility.yul\":3354:3385   */\n  swap2\n  pop\n    /* \"#utility.yul\":3406:3433   */\n  tag_63\n    /* \"#utility.yul\":3424:3432   */\n  dup4\n    /* \"#utility.yul\":3406:3433   */\n  tag_14\n  jump\t// in\ntag_63:\n    /* \"#utility.yul\":3394:3433   */\n  swap3\n  pop\n    /* \"#utility.yul\":3452:3556   */\n  tag_64\n    /* \"#utility.yul\":3489:3555   */\n  0xffffffffffffffffffffffffffffffffffffffffffffffffffffffffffffffff\n    /* \"#utility.yul\":3479:3487   */\n  dup5\n    /* \"#utility.yul\":3473:3477   */\n  dup5\n    /* \"#utility.yul\":3452:3556   */\n  tag_20\n  jump\t// in\ntag_64:\n    /* \"#utility.yul\":3443:3556   */\n  swap1\n  pop\n    /* \"#utility.yul\":3278:3563   */\n  swap3\n  swap2\n  pop\n  pop\n  jump\t// out\n    /* \"#utility.yul\":3569:3917   */\ntag_9:\n    /* \"#utility.yul\":3609:3616   */\n  0x00\n    /* \"#utility.yul\":3632:3652   */\n  tag_66\n    /* \"#utility.yul\":3650:3651   */\n  dup3\n    /* \"#utility.yul\":3632:3652   */\n  tag_14\n  jump\t// in\ntag_66:\n    /* \"#utility.yul\":3627:3652   */\n  swap2\n  pop\n    /* \"#utility.yul\":3666:3686   */\n  tag_67\n    /* \"#utility.yul\":3684:3685   */\n  dup4\n    /* \"#utility.yul\":3666:3686   */\n  tag_14\n  jump\t// in\ntag_67:\n    /* \"#utility.yul\":3661:3686   */\n  swap3\n  pop\n    /* \"#utility.yul\":3854:3855   */\n  dup2\n    /* \"#utility.yul\":3786:3852   */\n  0xffffffffffffffffffffffffffffffffffffffffffffffffffffffffffffffff\n    /* \"#utility.yul\":3782:3856   */\n  div\n    /* \"#utility.yul\":3779:3780   */\n  dup4\n    /* \"#utility.yul\":3776:3857   */\n  gt\n    /* \"#utility.yul\":3771:3772   */\n  dup3\n    /* \"#utility.yul\":3764:3773   */\n  iszero\n    /* \"#utility.yul\":3757:3774   */\n  iszero\n    /* \"#utility.yul\":3753:3858   */\n  and\n    /* \"#utility.yul\":3750:3881   */\n  iszero\n  tag_68\n  jumpi\n    /* \"#utility.yul\":3861:3879   */\n  tag_69\n  tag_17\n  jump\t// in\ntag_69:\n    /* \"#utility.yul\":3750:3881   */\ntag_68:\n    /* \"#utility.yul\":3909:3910   */\n  dup3\n    /* \"#utility.yul\":3906:3907   */\n  dup3\n    /* \"#utility.yul\":3902:3911   */\n  mul\n    /* \"#utility.yul\":3891:3911   */\n  swap1\n  pop\n    /* \"#utility.yul\":3569:3917   */\n  swap3\n  swap2\n  pop\n  pop\n  jump\t// out\n    /* \"PFG/Interest.sol\":66:1048  contract Interest {... */\ntag_10:\n  dataSize(sub_0)\n  dup1\n  dataOffset(sub_0)\n  0x00\n  codecopy\n  0x00\n  return\nstop\n\nsub_0: assembly {\n        /* \"PFG/Interest.sol\":66:1048  contract Interest {... */\n      mstore(0x40, 0x80)\n      callvalue\n      dup1\n      iszero\n      tag_1\n      jumpi\n      0x00\n      dup1\n      revert\n    tag_1:\n      pop\n      jumpi(tag_2, lt(calldatasize, 0x04))\n      shr(0xe0, calldataload(0x00))\n      dup1\n      0x2c4e722e\n      eq\n      tag_3\n      jumpi\n      dup1\n      0x4e72d15f\n      eq\n      tag_4\n      jumpi\n      dup1\n      0xea0c9fa1\n      eq\n      tag_5\n      jumpi\n    tag_2:\n      0x00\n      dup1\n      revert\n        /* \"PFG/Interest.sol\":95:114  uint256 public rate */\n    tag_3:\n      tag_6\n      tag_7\n      jump\t// in\n    tag_6:\n      mload(0x40)\n      tag_8\n      swap2\n      swap1\n      tag_9\n      jump\t// in\n    tag_8:\n      mload(0x40)\n      dup1\n      swap2\n      sub\n      swap1\n      return\n        /* \"PFG/Interest.sol\":962:1029  function reduction() public {... */\n    tag_4:\n      tag_10\n      tag_11\n      jump\t// in\n    tag_10:\n      stop\n        /* \"PFG/Interest.sol\":304:954  function collInterest(uint256 val, uint256 col) public {... */\n    tag_5:\n      tag_12\n      0x04\n      dup1\n      calldatasize\n      sub\n      dup2\n      add\n      swap1\n      tag_13\n      swap2\n      swap1\n      tag_14\n      jump\t// in\n    tag_13:\n      tag_15\n      jump\t// in\n    tag_12:\n      stop\n        /* \"PFG/Interest.sol\":95:114  uint256 public rate */\n    tag_7:\n      sload(0x00)\n      dup2\n      jump\t// out\n        /* \"PFG/Interest.sol\":962:1029  function reduction() public {... */\n    tag_11:\n        /* \"PFG/Interest.sol\":1020:1021  8 */\n      0x08\n        /* \"PFG/Interest.sol\":1016:1017  7 */\n      0x07\n        /* \"PFG/Interest.sol\":1009:1013  rate */\n      sload(0x00)\n        /* \"PFG/Interest.sol\":1009:1017  rate * 7 */\n      tag_17\n      swap2\n      swap1\n      tag_18\n      jump\t// in\n    tag_17:\n        /* \"PFG/Interest.sol\":1008:1021  (rate * 7) /8 */\n      tag_19\n      swap2\n      swap1\n      tag_20\n      jump\t// in\n    tag_19:\n        /* \"PFG/Interest.sol\":1001:1005  rate */\n      0x00\n        /* \"PFG/Interest.sol\":1001:1021  rate = (rate * 7) /8 */\n      dup2\n      swap1\n      sstore\n      pop\n        /* \"PFG/Interest.sol\":962:1029  function reduction() public {... */\n      jump\t// out\n        /* \"PFG/Interest.sol\":304:954  function collInterest(uint256 val, uint256 col) public {... */\n    tag_15:\n        /* \"PFG/Interest.sol\":379:387  executed */\n      0x02\n      0x00\n      swap1\n      sload\n      swap1\n      0x0100\n      exp\n      swap1\n      div\n      0xff\n      and\n        /* \"PFG/Interest.sol\":378:387  !executed */\n      iszero\n        /* \"PFG/Interest.sol\":370:408  require(!executed, \"Already executed\") */\n      tag_22\n      jumpi\n      mload(0x40)\n      0x08c379a000000000000000000000000000000000000000000000000000000000\n      dup2\n      mstore\n      0x04\n      add\n      tag_23\n      swap1\n      tag_24\n      jump\t// in\n    tag_23:\n      mload(0x40)\n      dup1\n      swap2\n      sub\n      swap1\n      revert\n    tag_22:\n        /* \"PFG/Interest.sol\":419:435  uint256 valueDec */\n      0x00\n        /* \"PFG/Interest.sol\":451:454  dec */\n      sload(0x01)\n        /* \"PFG/Interest.sol\":445:447  10 */\n      0x0a\n        /* \"PFG/Interest.sol\":445:454  10 ** dec */\n      tag_25\n      swap2\n      swap1\n      tag_26\n      jump\t// in\n    tag_25:\n        /* \"PFG/Interest.sol\":439:442  val */\n      dup4\n        /* \"PFG/Interest.sol\":439:454  val * 10 ** dec */\n      tag_27\n      swap2\n      swap1\n      tag_18\n      jump\t// in\n    tag_27:\n        /* \"PFG/Interest.sol\":419:455  uint256 valueDec = (val * 10 ** dec) */\n      swap1\n      pop\n        /* \"PFG/Interest.sol\":466:480  uint256 colDec */\n      0x00\n        /* \"PFG/Interest.sol\":496:499  dec */\n      sload(0x01)\n        /* \"PFG/Interest.sol\":490:492  10 */\n      0x0a\n        /* \"PFG/Interest.sol\":490:499  10 ** dec */\n      tag_28\n      swap2\n      swap1\n      tag_26\n      jump\t// in\n    tag_28:\n        /* \"PFG/Interest.sol\":484:487  col */\n      dup4\n        /* \"PFG/Interest.sol\":484:499  col * 10 ** dec */\n      tag_29\n      swap2\n      swap1\n      tag_18\n      jump\t// in\n    tag_29:\n        /* \"PFG/Interest.sol\":466:500  uint256 colDec = (col * 10 ** dec) */\n      swap1\n      pop\n        /* \"PFG/Interest.sol\":511:528  uint256 actualRef */\n      0x00\n        /* \"PFG/Interest.sol\":540:543  col */\n      dup4\n        /* \"PFG/Interest.sol\":531:539  valueDec */\n      dup4\n        /* \"PFG/Interest.sol\":531:543  valueDec/col */\n      tag_30\n      swap2\n      swap1\n      tag_20\n      jump\t// in\n    tag_30:\n        /* \"PFG/Interest.sol\":511:543  uint256 actualRef = valueDec/col */\n      swap1\n      pop\n        /* \"PFG/Interest.sol\":554:565  uint256 ref */\n      0x00\n        /* \"PFG/Interest.sol\":568:587  1250000000000000000 */\n      0x1158e460913d0000\n        /* \"PFG/Interest.sol\":554:587  uint256 ref = 1250000000000000000 */\n      swap1\n      pop\n        /* \"PFG/Interest.sol\":611:620  actualRef */\n      dup2\n        /* \"PFG/Interest.sol\":604:607  ref */\n      dup2\n        /* \"PFG/Interest.sol\":604:620  ref <= actualRef */\n      gt\n        /* \"PFG/Interest.sol\":600:919  if (ref <= actualRef){... */\n      tag_31\n      jumpi\n        /* \"PFG/Interest.sol\":648:657  actualRef */\n      dup2\n        /* \"PFG/Interest.sol\":644:647  ref */\n      dup2\n        /* \"PFG/Interest.sol\":644:657  ref-actualRef */\n      tag_32\n      swap2\n      swap1\n      tag_33\n      jump\t// in\n    tag_32:\n        /* \"PFG/Interest.sol\":636:640  rate */\n      0x00\n      dup1\n        /* \"PFG/Interest.sol\":636:657  rate -= ref-actualRef */\n      dup3\n      dup3\n      sload\n      tag_34\n      swap2\n      swap1\n      tag_33\n      jump\t// in\n    tag_34:\n      swap3\n      pop\n      pop\n      dup2\n      swap1\n      sstore\n      pop\n        /* \"PFG/Interest.sol\":600:919  if (ref <= actualRef){... */\n      jump(tag_35)\n    tag_31:\n        /* \"PFG/Interest.sol\":698:707  uint256 x */\n      0x00\n        /* \"PFG/Interest.sol\":728:731  100 */\n      0x64\n        /* \"PFG/Interest.sol\":724:727  val */\n      dup8\n        /* \"PFG/Interest.sol\":724:731  val*100 */\n      tag_36\n      swap2\n      swap1\n      tag_18\n      jump\t// in\n    tag_36:\n        /* \"PFG/Interest.sol\":716:719  125 */\n      0x7d\n        /* \"PFG/Interest.sol\":711:715  rate */\n      sload(0x00)\n        /* \"PFG/Interest.sol\":711:719  rate*125 */\n      tag_37\n      swap2\n      swap1\n      tag_18\n      jump\t// in\n    tag_37:\n        /* \"PFG/Interest.sol\":710:732  (rate*125) / (val*100) */\n      tag_38\n      swap2\n      swap1\n      tag_20\n      jump\t// in\n    tag_38:\n        /* \"PFG/Interest.sol\":698:732  uint256 x = (rate*125) / (val*100) */\n      swap1\n      pop\n        /* \"PFG/Interest.sol\":747:761  uint256 colRes */\n      0x00\n        /* \"PFG/Interest.sol\":780:783  100 */\n      0x64\n        /* \"PFG/Interest.sol\":776:778  80 */\n      0x50\n        /* \"PFG/Interest.sol\":765:773  valueDec */\n      dup8\n        /* \"PFG/Interest.sol\":765:778  valueDec * 80 */\n      tag_39\n      swap2\n      swap1\n      tag_18\n      jump\t// in\n    tag_39:\n        /* \"PFG/Interest.sol\":764:783  (valueDec * 80)/100 */\n      tag_40\n      swap2\n      swap1\n      tag_20\n      jump\t// in\n    tag_40:\n        /* \"PFG/Interest.sol\":747:783  uint256 colRes = (valueDec * 80)/100 */\n      swap1\n      pop\n        /* \"PFG/Interest.sol\":798:812  uint256 difCol */\n      0x00\n        /* \"PFG/Interest.sol\":824:830  colRes */\n      dup2\n        /* \"PFG/Interest.sol\":815:821  colDec */\n      dup7\n        /* \"PFG/Interest.sol\":815:830  colDec - colRes */\n      tag_41\n      swap2\n      swap1\n      tag_33\n      jump\t// in\n    tag_41:\n        /* \"PFG/Interest.sol\":798:830  uint256 difCol = colDec - colRes */\n      swap1\n      pop\n        /* \"PFG/Interest.sol\":845:856  uint256 res */\n      0x00\n        /* \"PFG/Interest.sol\":877:880  dec */\n      sload(0x01)\n        /* \"PFG/Interest.sol\":873:875  10 */\n      0x0a\n        /* \"PFG/Interest.sol\":873:880  10**dec */\n      tag_42\n      swap2\n      swap1\n      tag_26\n      jump\t// in\n    tag_42:\n        /* \"PFG/Interest.sol\":864:870  difCol */\n      dup3\n        /* \"PFG/Interest.sol\":860:861  x */\n      dup6\n        /* \"PFG/Interest.sol\":860:870  x * difCol */\n      tag_43\n      swap2\n      swap1\n      tag_18\n      jump\t// in\n    tag_43:\n        /* \"PFG/Interest.sol\":859:881  (x * difCol)/(10**dec) */\n      tag_44\n      swap2\n      swap1\n      tag_20\n      jump\t// in\n    tag_44:\n        /* \"PFG/Interest.sol\":845:881  uint256 res = (x * difCol)/(10**dec) */\n      swap1\n      pop\n        /* \"PFG/Interest.sol\":904:907  res */\n      dup1\n        /* \"PFG/Interest.sol\":896:900  rate */\n      0x00\n      dup1\n        /* \"PFG/Interest.sol\":896:907  rate -= res */\n      dup3\n      dup3\n      sload\n      tag_45\n      swap2\n      swap1\n      tag_33\n      jump\t// in\n    tag_45:\n      swap3\n      pop\n      pop\n      dup2\n      swap1\n      sstore\n      pop\n        /* \"PFG/Interest.sol\":683:919  {... */\n      pop\n      pop\n      pop\n      pop\n        /* \"PFG/Interest.sol\":600:919  if (ref <= actualRef){... */\n    tag_35:\n        /* \"PFG/Interest.sol\":942:946  true */\n      0x01\n        /* \"PFG/Interest.sol\":931:939  executed */\n      0x02\n      0x00\n        /* \"PFG/Interest.sol\":931:946  executed = true */\n      0x0100\n      exp\n      dup2\n      sload\n      dup2\n      0xff\n      mul\n      not\n      and\n      swap1\n      dup4\n      iszero\n      iszero\n      mul\n      or\n      swap1\n      sstore\n      pop\n        /* \"PFG/Interest.sol\":359:954  {... */\n      pop\n      pop\n      pop\n      pop\n        /* \"PFG/Interest.sol\":304:954  function collInterest(uint256 val, uint256 col) public {... */\n      pop\n      pop\n      jump\t// out\n        /* \"#utility.yul\":7:84   */\n    tag_46:\n        /* \"#utility.yul\":44:51   */\n      0x00\n        /* \"#utility.yul\":73:78   */\n      dup2\n        /* \"#utility.yul\":62:78   */\n      swap1\n      pop\n        /* \"#utility.yul\":7:84   */\n      swap2\n      swap1\n      pop\n      jump\t// out\n        /* \"#utility.yul\":90:208   */\n    tag_47:\n        /* \"#utility.yul\":177:201   */\n      tag_64\n        /* \"#utility.yul\":195:200   */\n      dup2\n        /* \"#utility.yul\":177:201   */\n      tag_46\n      jump\t// in\n    tag_64:\n        /* \"#utility.yul\":172:175   */\n      dup3\n        /* \"#utility.yul\":165:202   */\n      mstore\n        /* \"#utility.yul\":90:208   */\n      pop\n      pop\n      jump\t// out\n        /* \"#utility.yul\":214:436   */\n    tag_9:\n        /* \"#utility.yul\":307:311   */\n      0x00\n        /* \"#utility.yul\":345:347   */\n      0x20\n        /* \"#utility.yul\":334:343   */\n      dup3\n        /* \"#utility.yul\":330:348   */\n      add\n        /* \"#utility.yul\":322:348   */\n      swap1\n      pop\n        /* \"#utility.yul\":358:429   */\n      tag_66\n        /* \"#utility.yul\":426:427   */\n      0x00\n        /* \"#utility.yul\":415:424   */\n      dup4\n        /* \"#utility.yul\":411:428   */\n      add\n        /* \"#utility.yul\":402:408   */\n      dup5\n        /* \"#utility.yul\":358:429   */\n      tag_47\n      jump\t// in\n    tag_66:\n        /* \"#utility.yul\":214:436   */\n      swap3\n      swap2\n      pop\n      pop\n      jump\t// out\n        /* \"#utility.yul\":523:640   */\n    tag_49:\n        /* \"#utility.yul\":632:633   */\n      0x00\n        /* \"#utility.yul\":629:630   */\n      dup1\n        /* \"#utility.yul\":622:634   */\n      revert\n        /* \"#utility.yul\":769:891   */\n    tag_51:\n        /* \"#utility.yul\":842:866   */\n      tag_71\n        /* \"#utility.yul\":860:865   */\n      dup2\n        /* \"#utility.yul\":842:866   */\n      tag_46\n      jump\t// in\n    tag_71:\n        /* \"#utility.yul\":835:840   */\n      dup2\n        /* \"#utility.yul\":832:867   */\n      eq\n        /* \"#utility.yul\":822:885   */\n      tag_72\n      jumpi\n        /* \"#utility.yul\":881:882   */\n      0x00\n        /* \"#utility.yul\":878:879   */\n      dup1\n        /* \"#utility.yul\":871:883   */\n      revert\n        /* \"#utility.yul\":822:885   */\n    tag_72:\n        /* \"#utility.yul\":769:891   */\n      pop\n      jump\t// out\n        /* \"#utility.yul\":897:1036   */\n    tag_52:\n        /* \"#utility.yul\":943:948   */\n      0x00\n        /* \"#utility.yul\":981:987   */\n      dup2\n        /* \"#utility.yul\":968:988   */\n      calldataload\n        /* \"#utility.yul\":959:988   */\n      swap1\n      pop\n        /* \"#utility.yul\":997:1030   */\n      tag_74\n        /* \"#utility.yul\":1024:1029   */\n      dup2\n        /* \"#utility.yul\":997:1030   */\n      tag_51\n      jump\t// in\n    tag_74:\n        /* \"#utility.yul\":897:1036   */\n      swap3\n      swap2\n      pop\n      pop\n      jump\t// out\n        /* \"#utility.yul\":1042:1516   */\n    tag_14:\n        /* \"#utility.yul\":1110:1116   */\n      0x00\n        /* \"#utility.yul\":1118:1124   */\n      dup1\n        /* \"#utility.yul\":1167:1169   */\n      0x40\n        /* \"#utility.yul\":1155:1164   */\n      dup4\n        /* \"#utility.yul\":1146:1153   */\n      dup6\n        /* \"#utility.yul\":1142:1165   */\n      sub\n        /* \"#utility.yul\":1138:1170   */\n      slt\n        /* \"#utility.yul\":1135:1254   */\n      iszero\n      tag_76\n      jumpi\n        /* \"#utility.yul\":1173:1252   */\n      tag_77\n      tag_49\n      jump\t// in\n    tag_77:\n        /* \"#utility.yul\":1135:1254   */\n    tag_76:\n        /* \"#utility.yul\":1293:1294   */\n      0x00\n        /* \"#utility.yul\":1318:1371   */\n      tag_78\n        /* \"#utility.yul\":1363:1370   */\n      dup6\n        /* \"#utility.yul\":1354:1360   */\n      dup3\n        /* \"#utility.yul\":1343:1352   */\n      dup7\n        /* \"#utility.yul\":1339:1361   */\n      add\n        /* \"#utility.yul\":1318:1371   */\n      tag_52\n      jump\t// in\n    tag_78:\n        /* \"#utility.yul\":1308:1371   */\n      swap3\n      pop\n        /* \"#utility.yul\":1264:1381   */\n      pop\n        /* \"#utility.yul\":1420:1422   */\n      0x20\n        /* \"#utility.yul\":1446:1499   */\n      tag_79\n        /* \"#utility.yul\":1491:1498   */\n      dup6\n        /* \"#utility.yul\":1482:1488   */\n      dup3\n        /* \"#utility.yul\":1471:1480   */\n      dup7\n        /* \"#utility.yul\":1467:1489   */\n      add\n        /* \"#utility.yul\":1446:1499   */\n      tag_52\n      jump\t// in\n    tag_79:\n        /* \"#utility.yul\":1436:1499   */\n      swap2\n      pop\n        /* \"#utility.yul\":1391:1509   */\n      pop\n        /* \"#utility.yul\":1042:1516   */\n      swap3\n      pop\n      swap3\n      swap1\n      pop\n      jump\t// out\n        /* \"#utility.yul\":1522:1702   */\n    tag_53:\n        /* \"#utility.yul\":1570:1647   */\n      0x4e487b7100000000000000000000000000000000000000000000000000000000\n        /* \"#utility.yul\":1567:1568   */\n      0x00\n        /* \"#utility.yul\":1560:1648   */\n      mstore\n        /* \"#utility.yul\":1667:1671   */\n      0x11\n        /* \"#utility.yul\":1664:1665   */\n      0x04\n        /* \"#utility.yul\":1657:1672   */\n      mstore\n        /* \"#utility.yul\":1691:1695   */\n      0x24\n        /* \"#utility.yul\":1688:1689   */\n      0x00\n        /* \"#utility.yul\":1681:1696   */\n      revert\n        /* \"#utility.yul\":1708:2056   */\n    tag_18:\n        /* \"#utility.yul\":1748:1755   */\n      0x00\n        /* \"#utility.yul\":1771:1791   */\n      tag_82\n        /* \"#utility.yul\":1789:1790   */\n      dup3\n        /* \"#utility.yul\":1771:1791   */\n      tag_46\n      jump\t// in\n    tag_82:\n        /* \"#utility.yul\":1766:1791   */\n      swap2\n      pop\n        /* \"#utility.yul\":1805:1825   */\n      tag_83\n        /* \"#utility.yul\":1823:1824   */\n      dup4\n        /* \"#utility.yul\":1805:1825   */\n      tag_46\n      jump\t// in\n    tag_83:\n        /* \"#utility.yul\":1800:1825   */\n      swap3\n      pop\n        /* \"#utility.yul\":1993:1994   */\n      dup2\n        /* \"#utility.yul\":1925:1991   */\n      0xffffffffffffffffffffffffffffffffffffffffffffffffffffffffffffffff\n        /* \"#utility.yul\":1921:1995   */\n      div\n        /* \"#utility.yul\":1918:1919   */\n      dup4\n        /* \"#utility.yul\":1915:1996   */\n      gt\n        /* \"#utility.yul\":1910:1911   */\n      dup3\n        /* \"#utility.yul\":1903:1912   */\n      iszero\n        /* \"#utility.yul\":1896:1913   */\n      iszero\n        /* \"#utility.yul\":1892:1997   */\n      and\n        /* \"#utility.yul\":1889:2020   */\n      iszero\n      tag_84\n      jumpi\n        /* \"#utility.yul\":2000:2018   */\n      tag_85\n      tag_53\n      jump\t// in\n    tag_85:\n        /* \"#utility.yul\":1889:2020   */\n    tag_84:\n        /* \"#utility.yul\":2048:2049   */\n      dup3\n        /* \"#utility.yul\":2045:2046   */\n      dup3\n        /* \"#utility.yul\":2041:2050   */\n      mul\n        /* \"#utility.yul\":2030:2050   */\n      swap1\n      pop\n        /* \"#utility.yul\":1708:2056   */\n      swap3\n      swap2\n      pop\n      pop\n      jump\t// out\n        /* \"#utility.yul\":2062:2242   */\n    tag_54:\n        /* \"#utility.yul\":2110:2187   */\n      0x4e487b7100000000000000000000000000000000000000000000000000000000\n        /* \"#utility.yul\":2107:2108   */\n      0x00\n        /* \"#utility.yul\":2100:2188   */\n      mstore\n        /* \"#utility.yul\":2207:2211   */\n      0x12\n        /* \"#utility.yul\":2204:2205   */\n      0x04\n        /* \"#utility.yul\":2197:2212   */\n      mstore\n        /* \"#utility.yul\":2231:2235   */\n      0x24\n        /* \"#utility.yul\":2228:2229   */\n      0x00\n        /* \"#utility.yul\":2221:2236   */\n      revert\n        /* \"#utility.yul\":2248:2433   */\n    tag_20:\n        /* \"#utility.yul\":2288:2289   */\n      0x00\n        /* \"#utility.yul\":2305:2325   */\n      tag_88\n        /* \"#utility.yul\":2323:2324   */\n      dup3\n        /* \"#utility.yul\":2305:2325   */\n      tag_46\n      jump\t// in\n    tag_88:\n        /* \"#utility.yul\":2300:2325   */\n      swap2\n      pop\n        /* \"#utility.yul\":2339:2359   */\n      tag_89\n        /* \"#utility.yul\":2357:2358   */\n      dup4\n        /* \"#utility.yul\":2339:2359   */\n      tag_46\n      jump\t// in\n    tag_89:\n        /* \"#utility.yul\":2334:2359   */\n      swap3\n      pop\n        /* \"#utility.yul\":2378:2379   */\n      dup3\n        /* \"#utility.yul\":2368:2403   */\n      tag_90\n      jumpi\n        /* \"#utility.yul\":2383:2401   */\n      tag_91\n      tag_54\n      jump\t// in\n    tag_91:\n        /* \"#utility.yul\":2368:2403   */\n    tag_90:\n        /* \"#utility.yul\":2425:2426   */\n      dup3\n        /* \"#utility.yul\":2422:2423   */\n      dup3\n        /* \"#utility.yul\":2418:2427   */\n      div\n        /* \"#utility.yul\":2413:2427   */\n      swap1\n      pop\n        /* \"#utility.yul\":2248:2433   */\n      swap3\n      swap2\n      pop\n      pop\n      jump\t// out\n        /* \"#utility.yul\":2439:2608   */\n    tag_55:\n        /* \"#utility.yul\":2523:2534   */\n      0x00\n        /* \"#utility.yul\":2557:2563   */\n      dup3\n        /* \"#utility.yul\":2552:2555   */\n      dup3\n        /* \"#utility.yul\":2545:2564   */\n      mstore\n        /* \"#utility.yul\":2597:2601   */\n      0x20\n        /* \"#utility.yul\":2592:2595   */\n      dup3\n        /* \"#utility.yul\":2588:2602   */\n      add\n        /* \"#utility.yul\":2573:2602   */\n      swap1\n      pop\n        /* \"#utility.yul\":2439:2608   */\n      swap3\n      swap2\n      pop\n      pop\n      jump\t// out\n        /* \"#utility.yul\":2614:2780   */\n    tag_56:\n        /* \"#utility.yul\":2754:2772   */\n      0x416c726561647920657865637574656400000000000000000000000000000000\n        /* \"#utility.yul\":2750:2751   */\n      0x00\n        /* \"#utility.yul\":2742:2748   */\n      dup3\n        /* \"#utility.yul\":2738:2752   */\n      add\n        /* \"#utility.yul\":2731:2773   */\n      mstore\n        /* \"#utility.yul\":2614:2780   */\n      pop\n      jump\t// out\n        /* \"#utility.yul\":2786:3152   */\n    tag_57:\n        /* \"#utility.yul\":2928:2931   */\n      0x00\n        /* \"#utility.yul\":2949:3016   */\n      tag_95\n        /* \"#utility.yul\":3013:3015   */\n      0x10\n        /* \"#utility.yul\":3008:3011   */\n      dup4\n        /* \"#utility.yul\":2949:3016   */\n      tag_55\n      jump\t// in\n    tag_95:\n        /* \"#utility.yul\":2942:3016   */\n      swap2\n      pop\n        /* \"#utility.yul\":3025:3118   */\n      tag_96\n        /* \"#utility.yul\":3114:3117   */\n      dup3\n        /* \"#utility.yul\":3025:3118   */\n      tag_56\n      jump\t// in\n    tag_96:\n        /* \"#utility.yul\":3143:3145   */\n      0x20\n        /* \"#utility.yul\":3138:3141   */\n      dup3\n        /* \"#utility.yul\":3134:3146   */\n      add\n        /* \"#utility.yul\":3127:3146   */\n      swap1\n      pop\n        /* \"#utility.yul\":2786:3152   */\n      swap2\n      swap1\n      pop\n      jump\t// out\n        /* \"#utility.yul\":3158:3577   */\n    tag_24:\n        /* \"#utility.yul\":3324:3328   */\n      0x00\n        /* \"#utility.yul\":3362:3364   */\n      0x20\n        /* \"#utility.yul\":3351:3360   */\n      dup3\n        /* \"#utility.yul\":3347:3365   */\n      add\n        /* \"#utility.yul\":3339:3365   */\n      swap1\n      pop\n        /* \"#utility.yul\":3411:3420   */\n      dup2\n        /* \"#utility.yul\":3405:3409   */\n      dup2\n        /* \"#utility.yul\":3401:3421   */\n      sub\n        /* \"#utility.yul\":3397:3398   */\n      0x00\n        /* \"#utility.yul\":3386:3395   */\n      dup4\n        /* \"#utility.yul\":3382:3399   */\n      add\n        /* \"#utility.yul\":3375:3422   */\n      mstore\n        /* \"#utility.yul\":3439:3570   */\n      tag_98\n        /* \"#utility.yul\":3565:3569   */\n      dup2\n        /* \"#utility.yul\":3439:3570   */\n      tag_57\n      jump\t// in\n    tag_98:\n        /* \"#utility.yul\":3431:3570   */\n      swap1\n      pop\n        /* \"#utility.yul\":3158:3577   */\n      swap2\n      swap1\n      pop\n      jump\t// out\n        /* \"#utility.yul\":3583:3685   */\n    tag_58:\n        /* \"#utility.yul\":3625:3633   */\n      0x00\n        /* \"#utility.yul\":3672:3677   */\n      dup2\n        /* \"#utility.yul\":3669:3670   */\n      0x01\n        /* \"#utility.yul\":3665:3678   */\n      shr\n        /* \"#utility.yul\":3644:3678   */\n      swap1\n      pop\n        /* \"#utility.yul\":3583:3685   */\n      swap2\n      swap1\n      pop\n      jump\t// out\n        /* \"#utility.yul\":3691:4539   */\n    tag_59:\n        /* \"#utility.yul\":3752:3757   */\n      0x00\n        /* \"#utility.yul\":3759:3763   */\n      dup1\n        /* \"#utility.yul\":3783:3789   */\n      dup3\n        /* \"#utility.yul\":3774:3789   */\n      swap2\n      pop\n        /* \"#utility.yul\":3807:3812   */\n      dup4\n        /* \"#utility.yul\":3798:3812   */\n      swap1\n      pop\n        /* \"#utility.yul\":3821:4533   */\n    tag_101:\n        /* \"#utility.yul\":3842:3843   */\n      0x01\n        /* \"#utility.yul\":3832:3840   */\n      dup6\n        /* \"#utility.yul\":3829:3844   */\n      gt\n        /* \"#utility.yul\":3821:4533   */\n      iszero\n      tag_103\n      jumpi\n        /* \"#utility.yul\":3937:3941   */\n      dup1\n        /* \"#utility.yul\":3932:3935   */\n      dup7\n        /* \"#utility.yul\":3928:3942   */\n      div\n        /* \"#utility.yul\":3922:3926   */\n      dup2\n        /* \"#utility.yul\":3919:3943   */\n      gt\n        /* \"#utility.yul\":3916:3966   */\n      iszero\n      tag_104\n      jumpi\n        /* \"#utility.yul\":3946:3964   */\n      tag_105\n      tag_53\n      jump\t// in\n    tag_105:\n        /* \"#utility.yul\":3916:3966   */\n    tag_104:\n        /* \"#utility.yul\":3996:3997   */\n      0x01\n        /* \"#utility.yul\":3986:3994   */\n      dup6\n        /* \"#utility.yul\":3982:3998   */\n      and\n        /* \"#utility.yul\":3979:4430   */\n      iszero\n      tag_106\n      jumpi\n        /* \"#utility.yul\":4411:4415   */\n      dup1\n        /* \"#utility.yul\":4404:4409   */\n      dup3\n        /* \"#utility.yul\":4400:4416   */\n      mul\n        /* \"#utility.yul\":4391:4416   */\n      swap2\n      pop\n        /* \"#utility.yul\":3979:4430   */\n    tag_106:\n        /* \"#utility.yul\":4461:4465   */\n      dup1\n        /* \"#utility.yul\":4455:4459   */\n      dup2\n        /* \"#utility.yul\":4451:4466   */\n      mul\n        /* \"#utility.yul\":4443:4466   */\n      swap1\n      pop\n        /* \"#utility.yul\":4491:4523   */\n      tag_107\n        /* \"#utility.yul\":4514:4522   */\n      dup6\n        /* \"#utility.yul\":4491:4523   */\n      tag_58\n      jump\t// in\n    tag_107:\n        /* \"#utility.yul\":4479:4523   */\n      swap5\n      pop\n        /* \"#utility.yul\":3821:4533   */\n      jump(tag_101)\n    tag_103:\n        /* \"#utility.yul\":3691:4539   */\n      swap5\n      pop\n      swap5\n      swap3\n      pop\n      pop\n      pop\n      jump\t// out\n        /* \"#utility.yul\":4545:5618   */\n    tag_60:\n        /* \"#utility.yul\":4599:4604   */\n      0x00\n        /* \"#utility.yul\":4790:4798   */\n      dup3\n        /* \"#utility.yul\":4780:4820   */\n      tag_109\n      jumpi\n        /* \"#utility.yul\":4811:4812   */\n      0x01\n        /* \"#utility.yul\":4802:4812   */\n      swap1\n      pop\n        /* \"#utility.yul\":4813:4818   */\n      jump(tag_108)\n        /* \"#utility.yul\":4780:4820   */\n    tag_109:\n        /* \"#utility.yul\":4839:4843   */\n      dup2\n        /* \"#utility.yul\":4829:4865   */\n      tag_110\n      jumpi\n        /* \"#utility.yul\":4856:4857   */\n      0x00\n        /* \"#utility.yul\":4847:4857   */\n      swap1\n      pop\n        /* \"#utility.yul\":4858:4863   */\n      jump(tag_108)\n        /* \"#utility.yul\":4829:4865   */\n    tag_110:\n        /* \"#utility.yul\":4925:4929   */\n      dup2\n        /* \"#utility.yul\":4973:4974   */\n      0x01\n        /* \"#utility.yul\":4968:4995   */\n      dup2\n      eq\n      tag_112\n      jumpi\n        /* \"#utility.yul\":5009:5010   */\n      0x02\n        /* \"#utility.yul\":5004:5195   */\n      dup2\n      eq\n      tag_113\n      jumpi\n        /* \"#utility.yul\":4918:5195   */\n      jump(tag_111)\n        /* \"#utility.yul\":4968:4995   */\n    tag_112:\n        /* \"#utility.yul\":4986:4987   */\n      0x01\n        /* \"#utility.yul\":4977:4987   */\n      swap2\n      pop\n        /* \"#utility.yul\":4988:4993   */\n      pop\n      jump(tag_108)\n        /* \"#utility.yul\":5004:5195   */\n    tag_113:\n        /* \"#utility.yul\":5049:5052   */\n      0xff\n        /* \"#utility.yul\":5039:5047   */\n      dup5\n        /* \"#utility.yul\":5036:5053   */\n      gt\n        /* \"#utility.yul\":5033:5076   */\n      iszero\n      tag_114\n      jumpi\n        /* \"#utility.yul\":5056:5074   */\n      tag_115\n      tag_53\n      jump\t// in\n    tag_115:\n        /* \"#utility.yul\":5033:5076   */\n    tag_114:\n        /* \"#utility.yul\":5105:5113   */\n      dup4\n        /* \"#utility.yul\":5102:5103   */\n      0x02\n        /* \"#utility.yul\":5098:5114   */\n      exp\n        /* \"#utility.yul\":5089:5114   */\n      swap2\n      pop\n        /* \"#utility.yul\":5140:5143   */\n      dup5\n        /* \"#utility.yul\":5133:5138   */\n      dup3\n        /* \"#utility.yul\":5130:5144   */\n      gt\n        /* \"#utility.yul\":5127:5167   */\n      iszero\n      tag_116\n      jumpi\n        /* \"#utility.yul\":5147:5165   */\n      tag_117\n      tag_53\n      jump\t// in\n    tag_117:\n        /* \"#utility.yul\":5127:5167   */\n    tag_116:\n        /* \"#utility.yul\":5180:5185   */\n      pop\n      jump(tag_108)\n        /* \"#utility.yul\":4918:5195   */\n    tag_111:\n      pop\n        /* \"#utility.yul\":5304:5306   */\n      0x20\n        /* \"#utility.yul\":5294:5302   */\n      dup4\n        /* \"#utility.yul\":5291:5307   */\n      lt\n        /* \"#utility.yul\":5285:5288   */\n      0x0133\n        /* \"#utility.yul\":5279:5283   */\n      dup4\n        /* \"#utility.yul\":5276:5289   */\n      lt\n        /* \"#utility.yul\":5272:5308   */\n      and\n        /* \"#utility.yul\":5254:5256   */\n      0x4e\n        /* \"#utility.yul\":5244:5252   */\n      dup5\n        /* \"#utility.yul\":5241:5257   */\n      lt\n        /* \"#utility.yul\":5236:5238   */\n      0x0b\n        /* \"#utility.yul\":5230:5234   */\n      dup5\n        /* \"#utility.yul\":5227:5239   */\n      lt\n        /* \"#utility.yul\":5223:5258   */\n      and\n        /* \"#utility.yul\":5207:5318   */\n      or\n        /* \"#utility.yul\":5204:5450   */\n      iszero\n      tag_118\n      jumpi\n        /* \"#utility.yul\":5360:5368   */\n      dup3\n        /* \"#utility.yul\":5354:5358   */\n      dup3\n        /* \"#utility.yul\":5350:5369   */\n      exp\n        /* \"#utility.yul\":5341:5369   */\n      swap1\n      pop\n        /* \"#utility.yul\":5395:5398   */\n      dup4\n        /* \"#utility.yul\":5388:5393   */\n      dup2\n        /* \"#utility.yul\":5385:5399   */\n      gt\n        /* \"#utility.yul\":5382:5422   */\n      iszero\n      tag_119\n      jumpi\n        /* \"#utility.yul\":5402:5420   */\n      tag_120\n      tag_53\n      jump\t// in\n    tag_120:\n        /* \"#utility.yul\":5382:5422   */\n    tag_119:\n        /* \"#utility.yul\":5435:5440   */\n      jump(tag_108)\n        /* \"#utility.yul\":5204:5450   */\n    tag_118:\n        /* \"#utility.yul\":5475:5517   */\n      tag_121\n        /* \"#utility.yul\":5513:5516   */\n      dup5\n        /* \"#utility.yul\":5503:5511   */\n      dup5\n        /* \"#utility.yul\":5497:5501   */\n      dup5\n        /* \"#utility.yul\":5494:5495   */\n      0x01\n        /* \"#utility.yul\":5475:5517   */\n      tag_59\n      jump\t// in\n    tag_121:\n        /* \"#utility.yul\":5460:5517   */\n      swap3\n      pop\n      swap1\n      pop\n        /* \"#utility.yul\":5549:5553   */\n      dup2\n        /* \"#utility.yul\":5544:5547   */\n      dup5\n        /* \"#utility.yul\":5540:5554   */\n      div\n        /* \"#utility.yul\":5533:5538   */\n      dup2\n        /* \"#utility.yul\":5530:5555   */\n      gt\n        /* \"#utility.yul\":5527:5578   */\n      iszero\n      tag_122\n      jumpi\n        /* \"#utility.yul\":5558:5576   */\n      tag_123\n      tag_53\n      jump\t// in\n    tag_123:\n        /* \"#utility.yul\":5527:5578   */\n    tag_122:\n        /* \"#utility.yul\":5607:5611   */\n      dup2\n        /* \"#utility.yul\":5600:5605   */\n      dup2\n        /* \"#utility.yul\":5596:5612   */\n      mul\n        /* \"#utility.yul\":5587:5612   */\n      swap1\n      pop\n        /* \"#utility.yul\":4545:5618   */\n    tag_108:\n      swap4\n      swap3\n      pop\n      pop\n      pop\n      jump\t// out\n        /* \"#utility.yul\":5624:5909   */\n    tag_26:\n        /* \"#utility.yul\":5684:5689   */\n      0x00\n        /* \"#utility.yul\":5708:5731   */\n      tag_125\n        /* \"#utility.yul\":5726:5730   */\n      dup3\n        /* \"#utility.yul\":5708:5731   */\n      tag_46\n      jump\t// in\n    tag_125:\n        /* \"#utility.yul\":5700:5731   */\n      swap2\n      pop\n        /* \"#utility.yul\":5752:5779   */\n      tag_126\n        /* \"#utility.yul\":5770:5778   */\n      dup4\n        /* \"#utility.yul\":5752:5779   */\n      tag_46\n      jump\t// in\n    tag_126:\n        /* \"#utility.yul\":5740:5779   */\n      swap3\n      pop\n        /* \"#utility.yul\":5798:5902   */\n      tag_127\n        /* \"#utility.yul\":5835:5901   */\n      0xffffffffffffffffffffffffffffffffffffffffffffffffffffffffffffffff\n        /* \"#utility.yul\":5825:5833   */\n      dup5\n        /* \"#utility.yul\":5819:5823   */\n      dup5\n        /* \"#utility.yul\":5798:5902   */\n      tag_60\n      jump\t// in\n    tag_127:\n        /* \"#utility.yul\":5789:5902   */\n      swap1\n      pop\n        /* \"#utility.yul\":5624:5909   */\n      swap3\n      swap2\n      pop\n      pop\n      jump\t// out\n        /* \"#utility.yul\":5915:6106   */\n    tag_33:\n        /* \"#utility.yul\":5955:5959   */\n      0x00\n        /* \"#utility.yul\":5975:5995   */\n      tag_129\n        /* \"#utility.yul\":5993:5994   */\n      dup3\n        /* \"#utility.yul\":5975:5995   */\n      tag_46\n      jump\t// in\n    tag_129:\n        /* \"#utility.yul\":5970:5995   */\n      swap2\n      pop\n        /* \"#utility.yul\":6009:6029   */\n      tag_130\n        /* \"#utility.yul\":6027:6028   */\n      dup4\n        /* \"#utility.yul\":6009:6029   */\n      tag_46\n      jump\t// in\n    tag_130:\n        /* \"#utility.yul\":6004:6029   */\n      swap3\n      pop\n        /* \"#utility.yul\":6048:6049   */\n      dup3\n        /* \"#utility.yul\":6045:6046   */\n      dup3\n        /* \"#utility.yul\":6042:6050   */\n      lt\n        /* \"#utility.yul\":6039:6073   */\n      iszero\n      tag_131\n      jumpi\n        /* \"#utility.yul\":6053:6071   */\n      tag_132\n      tag_53\n      jump\t// in\n    tag_132:\n        /* \"#utility.yul\":6039:6073   */\n    tag_131:\n        /* \"#utility.yul\":6098:6099   */\n      dup3\n        /* \"#utility.yul\":6095:6096   */\n      dup3\n        /* \"#utility.yul\":6091:6100   */\n      sub\n        /* \"#utility.yul\":6083:6100   */\n      swap1\n      pop\n        /* \"#utility.yul\":5915:6106   */\n      swap3\n      swap2\n      pop\n      pop\n      jump\t// out\n\n    auxdata: 0xa2646970667358221220b8985cd2724c950bac779544e33e2b5120a32e539f7dcb9740d20d8cbab8bcbd64736f6c634300080f0033\n}\n",
				"bytecode": {
					"linkReferences": {},
					"object": "60806040523480156200001157600080fd5b506040516200097a3803806200097a8339818101604052810190620000379190620000c5565b6012600181905550600154600a6200005091906200027a565b816200005d9190620002cb565b6000819055506000600260006101000a81548160ff021916908315150217905550506200032c565b600080fd5b6000819050919050565b6200009f816200008a565b8114620000ab57600080fd5b50565b600081519050620000bf8162000094565b92915050565b600060208284031215620000de57620000dd62000085565b5b6000620000ee84828501620000ae565b91505092915050565b7f4e487b7100000000000000000000000000000000000000000000000000000000600052601160045260246000fd5b60008160011c9050919050565b6000808291508390505b600185111562000185578086048111156200015d576200015c620000f7565b5b60018516156200016d5780820291505b80810290506200017d8562000126565b94506200013d565b94509492505050565b600082620001a0576001905062000273565b81620001b0576000905062000273565b8160018114620001c95760028114620001d4576200020a565b600191505062000273565b60ff841115620001e957620001e8620000f7565b5b8360020a915084821115620002035762000202620000f7565b5b5062000273565b5060208310610133831016604e8410600b8410161715620002445782820a9050838111156200023e576200023d620000f7565b5b62000273565b62000253848484600162000133565b925090508184048111156200026d576200026c620000f7565b5b81810290505b9392505050565b600062000287826200008a565b915062000294836200008a565b9250620002c37fffffffffffffffffffffffffffffffffffffffffffffffffffffffffffffffff84846200018e565b905092915050565b6000620002d8826200008a565b9150620002e5836200008a565b9250817fffffffffffffffffffffffffffffffffffffffffffffffffffffffffffffffff0483118215151615620003215762000320620000f7565b5b828202905092915050565b61063e806200033c6000396000f3fe608060405234801561001057600080fd5b50600436106100415760003560e01c80632c4e722e146100465780634e72d15f14610064578063ea0c9fa11461006e575b600080fd5b61004e61008a565b60405161005b9190610264565b60405180910390f35b61006c610090565b005b610088600480360381019061008391906102b0565b6100b3565b005b60005481565b600860076000546100a1919061031f565b6100ab91906103a8565b600081905550565b600260009054906101000a900460ff1615610103576040517f08c379a00000000000000000000000000000000000000000000000000000000081526004016100fa90610436565b60405180910390fd5b6000600154600a6101149190610589565b8361011f919061031f565b90506000600154600a6101329190610589565b8361013d919061031f565b90506000838361014d91906103a8565b90506000671158e460913d0000905081811161018b57818161016f91906105d4565b60008082825461017f91906105d4565b92505081905550610228565b600060648761019a919061031f565b607d6000546101a9919061031f565b6101b391906103a8565b9050600060646050876101c6919061031f565b6101d091906103a8565b9050600081866101e091906105d4565b90506000600154600a6101f39190610589565b82856101ff919061031f565b61020991906103a8565b90508060008082825461021c91906105d4565b92505081905550505050505b6001600260006101000a81548160ff021916908315150217905550505050505050565b6000819050919050565b61025e8161024b565b82525050565b60006020820190506102796000830184610255565b92915050565b600080fd5b61028d8161024b565b811461029857600080fd5b50565b6000813590506102aa81610284565b92915050565b600080604083850312156102c7576102c661027f565b5b60006102d58582860161029b565b92505060206102e68582860161029b565b9150509250929050565b7f4e487b7100000000000000000000000000000000000000000000000000000000600052601160045260246000fd5b600061032a8261024b565b91506103358361024b565b9250817fffffffffffffffffffffffffffffffffffffffffffffffffffffffffffffffff048311821515161561036e5761036d6102f0565b5b828202905092915050565b7f4e487b7100000000000000000000000000000000000000000000000000000000600052601260045260246000fd5b60006103b38261024b565b91506103be8361024b565b9250826103ce576103cd610379565b5b828204905092915050565b600082825260208201905092915050565b7f416c726561647920657865637574656400000000000000000000000000000000600082015250565b60006104206010836103d9565b915061042b826103ea565b602082019050919050565b6000602082019050818103600083015261044f81610413565b9050919050565b60008160011c9050919050565b6000808291508390505b60018511156104ad57808604811115610489576104886102f0565b5b60018516156104985780820291505b80810290506104a685610456565b945061046d565b94509492505050565b6000826104c65760019050610582565b816104d45760009050610582565b81600181146104ea57600281146104f457610523565b6001915050610582565b60ff841115610506576105056102f0565b5b8360020a91508482111561051d5761051c6102f0565b5b50610582565b5060208310610133831016604e8410600b84101617156105585782820a905083811115610553576105526102f0565b5b610582565b6105658484846001610463565b9250905081840481111561057c5761057b6102f0565b5b81810290505b9392505050565b60006105948261024b565b915061059f8361024b565b92506105cc7fffffffffffffffffffffffffffffffffffffffffffffffffffffffffffffffff84846104b6565b905092915050565b60006105df8261024b565b91506105ea8361024b565b9250828210156105fd576105fc6102f0565b5b82820390509291505056fea2646970667358221220b8985cd2724c950bac779544e33e2b5120a32e539f7dcb9740d20d8cbab8bcbd64736f6c634300080f0033",
					"opcodes": "PUSH1 0x80 PUSH1 0x40 MSTORE CALLVALUE DUP1 ISZERO PUSH3 0x11 JUMPI PUSH1 0x0 DUP1 REVERT JUMPDEST POP PUSH1 0x40 MLOAD PUSH3 0x97A CODESIZE SUB DUP1 PUSH3 0x97A DUP4 CODECOPY DUP2 DUP2 ADD PUSH1 0x40 MSTORE DUP2 ADD SWAP1 PUSH3 0x37 SWAP2 SWAP1 PUSH3 0xC5 JUMP JUMPDEST PUSH1 0x12 PUSH1 0x1 DUP2 SWAP1 SSTORE POP PUSH1 0x1 SLOAD PUSH1 0xA PUSH3 0x50 SWAP2 SWAP1 PUSH3 0x27A JUMP JUMPDEST DUP2 PUSH3 0x5D SWAP2 SWAP1 PUSH3 0x2CB JUMP JUMPDEST PUSH1 0x0 DUP2 SWAP1 SSTORE POP PUSH1 0x0 PUSH1 0x2 PUSH1 0x0 PUSH2 0x100 EXP DUP2 SLOAD DUP2 PUSH1 0xFF MUL NOT AND SWAP1 DUP4 ISZERO ISZERO MUL OR SWAP1 SSTORE POP POP PUSH3 0x32C JUMP JUMPDEST PUSH1 0x0 DUP1 REVERT JUMPDEST PUSH1 0x0 DUP2 SWAP1 POP SWAP2 SWAP1 POP JUMP JUMPDEST PUSH3 0x9F DUP2 PUSH3 0x8A JUMP JUMPDEST DUP2 EQ PUSH3 0xAB JUMPI PUSH1 0x0 DUP1 REVERT JUMPDEST POP JUMP JUMPDEST PUSH1 0x0 DUP2 MLOAD SWAP1 POP PUSH3 0xBF DUP2 PUSH3 0x94 JUMP JUMPDEST SWAP3 SWAP2 POP POP JUMP JUMPDEST PUSH1 0x0 PUSH1 0x20 DUP3 DUP5 SUB SLT ISZERO PUSH3 0xDE JUMPI PUSH3 0xDD PUSH3 0x85 JUMP JUMPDEST JUMPDEST PUSH1 0x0 PUSH3 0xEE DUP5 DUP3 DUP6 ADD PUSH3 0xAE JUMP JUMPDEST SWAP2 POP POP SWAP3 SWAP2 POP POP JUMP JUMPDEST PUSH32 0x4E487B7100000000000000000000000000000000000000000000000000000000 PUSH1 0x0 MSTORE PUSH1 0x11 PUSH1 0x4 MSTORE PUSH1 0x24 PUSH1 0x0 REVERT JUMPDEST PUSH1 0x0 DUP2 PUSH1 0x1 SHR SWAP1 POP SWAP2 SWAP1 POP JUMP JUMPDEST PUSH1 0x0 DUP1 DUP3 SWAP2 POP DUP4 SWAP1 POP JUMPDEST PUSH1 0x1 DUP6 GT ISZERO PUSH3 0x185 JUMPI DUP1 DUP7 DIV DUP2 GT ISZERO PUSH3 0x15D JUMPI PUSH3 0x15C PUSH3 0xF7 JUMP JUMPDEST JUMPDEST PUSH1 0x1 DUP6 AND ISZERO PUSH3 0x16D JUMPI DUP1 DUP3 MUL SWAP2 POP JUMPDEST DUP1 DUP2 MUL SWAP1 POP PUSH3 0x17D DUP6 PUSH3 0x126 JUMP JUMPDEST SWAP5 POP PUSH3 0x13D JUMP JUMPDEST SWAP5 POP SWAP5 SWAP3 POP POP POP JUMP JUMPDEST PUSH1 0x0 DUP3 PUSH3 0x1A0 JUMPI PUSH1 0x1 SWAP1 POP PUSH3 0x273 JUMP JUMPDEST DUP2 PUSH3 0x1B0 JUMPI PUSH1 0x0 SWAP1 POP PUSH3 0x273 JUMP JUMPDEST DUP2 PUSH1 0x1 DUP2 EQ PUSH3 0x1C9 JUMPI PUSH1 0x2 DUP2 EQ PUSH3 0x1D4 JUMPI PUSH3 0x20A JUMP JUMPDEST PUSH1 0x1 SWAP2 POP POP PUSH3 0x273 JUMP JUMPDEST PUSH1 0xFF DUP5 GT ISZERO PUSH3 0x1E9 JUMPI PUSH3 0x1E8 PUSH3 0xF7 JUMP JUMPDEST JUMPDEST DUP4 PUSH1 0x2 EXP SWAP2 POP DUP5 DUP3 GT ISZERO PUSH3 0x203 JUMPI PUSH3 0x202 PUSH3 0xF7 JUMP JUMPDEST JUMPDEST POP PUSH3 0x273 JUMP JUMPDEST POP PUSH1 0x20 DUP4 LT PUSH2 0x133 DUP4 LT AND PUSH1 0x4E DUP5 LT PUSH1 0xB DUP5 LT AND OR ISZERO PUSH3 0x244 JUMPI DUP3 DUP3 EXP SWAP1 POP DUP4 DUP2 GT ISZERO PUSH3 0x23E JUMPI PUSH3 0x23D PUSH3 0xF7 JUMP JUMPDEST JUMPDEST PUSH3 0x273 JUMP JUMPDEST PUSH3 0x253 DUP5 DUP5 DUP5 PUSH1 0x1 PUSH3 0x133 JUMP JUMPDEST SWAP3 POP SWAP1 POP DUP2 DUP5 DIV DUP2 GT ISZERO PUSH3 0x26D JUMPI PUSH3 0x26C PUSH3 0xF7 JUMP JUMPDEST JUMPDEST DUP2 DUP2 MUL SWAP1 POP JUMPDEST SWAP4 SWAP3 POP POP POP JUMP JUMPDEST PUSH1 0x0 PUSH3 0x287 DUP3 PUSH3 0x8A JUMP JUMPDEST SWAP2 POP PUSH3 0x294 DUP4 PUSH3 0x8A JUMP JUMPDEST SWAP3 POP PUSH3 0x2C3 PUSH32 0xFFFFFFFFFFFFFFFFFFFFFFFFFFFFFFFFFFFFFFFFFFFFFFFFFFFFFFFFFFFFFFFF DUP5 DUP5 PUSH3 0x18E JUMP JUMPDEST SWAP1 POP SWAP3 SWAP2 POP POP JUMP JUMPDEST PUSH1 0x0 PUSH3 0x2D8 DUP3 PUSH3 0x8A JUMP JUMPDEST SWAP2 POP PUSH3 0x2E5 DUP4 PUSH3 0x8A JUMP JUMPDEST SWAP3 POP DUP2 PUSH32 0xFFFFFFFFFFFFFFFFFFFFFFFFFFFFFFFFFFFFFFFFFFFFFFFFFFFFFFFFFFFFFFFF DIV DUP4 GT DUP3 ISZERO ISZERO AND ISZERO PUSH3 0x321 JUMPI PUSH3 0x320 PUSH3 0xF7 JUMP JUMPDEST JUMPDEST DUP3 DUP3 MUL SWAP1 POP SWAP3 SWAP2 POP POP JUMP JUMPDEST PUSH2 0x63E DUP1 PUSH3 0x33C PUSH1 0x0 CODECOPY PUSH1 0x0 RETURN INVALID PUSH1 0x80 PUSH1 0x40 MSTORE CALLVALUE DUP1 ISZERO PUSH2 0x10 JUMPI PUSH1 0x0 DUP1 REVERT JUMPDEST POP PUSH1 0x4 CALLDATASIZE LT PUSH2 0x41 JUMPI PUSH1 0x0 CALLDATALOAD PUSH1 0xE0 SHR DUP1 PUSH4 0x2C4E722E EQ PUSH2 0x46 JUMPI DUP1 PUSH4 0x4E72D15F EQ PUSH2 0x64 JUMPI DUP1 PUSH4 0xEA0C9FA1 EQ PUSH2 0x6E JUMPI JUMPDEST PUSH1 0x0 DUP1 REVERT JUMPDEST PUSH2 0x4E PUSH2 0x8A JUMP JUMPDEST PUSH1 0x40 MLOAD PUSH2 0x5B SWAP2 SWAP1 PUSH2 0x264 JUMP JUMPDEST PUSH1 0x40 MLOAD DUP1 SWAP2 SUB SWAP1 RETURN JUMPDEST PUSH2 0x6C PUSH2 0x90 JUMP JUMPDEST STOP JUMPDEST PUSH2 0x88 PUSH1 0x4 DUP1 CALLDATASIZE SUB DUP2 ADD SWAP1 PUSH2 0x83 SWAP2 SWAP1 PUSH2 0x2B0 JUMP JUMPDEST PUSH2 0xB3 JUMP JUMPDEST STOP JUMPDEST PUSH1 0x0 SLOAD DUP2 JUMP JUMPDEST PUSH1 0x8 PUSH1 0x7 PUSH1 0x0 SLOAD PUSH2 0xA1 SWAP2 SWAP1 PUSH2 0x31F JUMP JUMPDEST PUSH2 0xAB SWAP2 SWAP1 PUSH2 0x3A8 JUMP JUMPDEST PUSH1 0x0 DUP2 SWAP1 SSTORE POP JUMP JUMPDEST PUSH1 0x2 PUSH1 0x0 SWAP1 SLOAD SWAP1 PUSH2 0x100 EXP SWAP1 DIV PUSH1 0xFF AND ISZERO PUSH2 0x103 JUMPI PUSH1 0x40 MLOAD PUSH32 0x8C379A000000000000000000000000000000000000000000000000000000000 DUP2 MSTORE PUSH1 0x4 ADD PUSH2 0xFA SWAP1 PUSH2 0x436 JUMP JUMPDEST PUSH1 0x40 MLOAD DUP1 SWAP2 SUB SWAP1 REVERT JUMPDEST PUSH1 0x0 PUSH1 0x1 SLOAD PUSH1 0xA PUSH2 0x114 SWAP2 SWAP1 PUSH2 0x589 JUMP JUMPDEST DUP4 PUSH2 0x11F SWAP2 SWAP1 PUSH2 0x31F JUMP JUMPDEST SWAP1 POP PUSH1 0x0 PUSH1 0x1 SLOAD PUSH1 0xA PUSH2 0x132 SWAP2 SWAP1 PUSH2 0x589 JUMP JUMPDEST DUP4 PUSH2 0x13D SWAP2 SWAP1 PUSH2 0x31F JUMP JUMPDEST SWAP1 POP PUSH1 0x0 DUP4 DUP4 PUSH2 0x14D SWAP2 SWAP1 PUSH2 0x3A8 JUMP JUMPDEST SWAP1 POP PUSH1 0x0 PUSH8 0x1158E460913D0000 SWAP1 POP DUP2 DUP2 GT PUSH2 0x18B JUMPI DUP2 DUP2 PUSH2 0x16F SWAP2 SWAP1 PUSH2 0x5D4 JUMP JUMPDEST PUSH1 0x0 DUP1 DUP3 DUP3 SLOAD PUSH2 0x17F SWAP2 SWAP1 PUSH2 0x5D4 JUMP JUMPDEST SWAP3 POP POP DUP2 SWAP1 SSTORE POP PUSH2 0x228 JUMP JUMPDEST PUSH1 0x0 PUSH1 0x64 DUP8 PUSH2 0x19A SWAP2 SWAP1 PUSH2 0x31F JUMP JUMPDEST PUSH1 0x7D PUSH1 0x0 SLOAD PUSH2 0x1A9 SWAP2 SWAP1 PUSH2 0x31F JUMP JUMPDEST PUSH2 0x1B3 SWAP2 SWAP1 PUSH2 0x3A8 JUMP JUMPDEST SWAP1 POP PUSH1 0x0 PUSH1 0x64 PUSH1 0x50 DUP8 PUSH2 0x1C6 SWAP2 SWAP1 PUSH2 0x31F JUMP JUMPDEST PUSH2 0x1D0 SWAP2 SWAP1 PUSH2 0x3A8 JUMP JUMPDEST SWAP1 POP PUSH1 0x0 DUP2 DUP7 PUSH2 0x1E0 SWAP2 SWAP1 PUSH2 0x5D4 JUMP JUMPDEST SWAP1 POP PUSH1 0x0 PUSH1 0x1 SLOAD PUSH1 0xA PUSH2 0x1F3 SWAP2 SWAP1 PUSH2 0x589 JUMP JUMPDEST DUP3 DUP6 PUSH2 0x1FF SWAP2 SWAP1 PUSH2 0x31F JUMP JUMPDEST PUSH2 0x209 SWAP2 SWAP1 PUSH2 0x3A8 JUMP JUMPDEST SWAP1 POP DUP1 PUSH1 0x0 DUP1 DUP3 DUP3 SLOAD PUSH2 0x21C SWAP2 SWAP1 PUSH2 0x5D4 JUMP JUMPDEST SWAP3 POP POP DUP2 SWAP1 SSTORE POP POP POP POP POP JUMPDEST PUSH1 0x1 PUSH1 0x2 PUSH1 0x0 PUSH2 0x100 EXP DUP2 SLOAD DUP2 PUSH1 0xFF MUL NOT AND SWAP1 DUP4 ISZERO ISZERO MUL OR SWAP1 SSTORE POP POP POP POP POP POP POP JUMP JUMPDEST PUSH1 0x0 DUP2 SWAP1 POP SWAP2 SWAP1 POP JUMP JUMPDEST PUSH2 0x25E DUP2 PUSH2 0x24B JUMP JUMPDEST DUP3 MSTORE POP POP JUMP JUMPDEST PUSH1 0x0 PUSH1 0x20 DUP3 ADD SWAP1 POP PUSH2 0x279 PUSH1 0x0 DUP4 ADD DUP5 PUSH2 0x255 JUMP JUMPDEST SWAP3 SWAP2 POP POP JUMP JUMPDEST PUSH1 0x0 DUP1 REVERT JUMPDEST PUSH2 0x28D DUP2 PUSH2 0x24B JUMP JUMPDEST DUP2 EQ PUSH2 0x298 JUMPI PUSH1 0x0 DUP1 REVERT JUMPDEST POP JUMP JUMPDEST PUSH1 0x0 DUP2 CALLDATALOAD SWAP1 POP PUSH2 0x2AA DUP2 PUSH2 0x284 JUMP JUMPDEST SWAP3 SWAP2 POP POP JUMP JUMPDEST PUSH1 0x0 DUP1 PUSH1 0x40 DUP4 DUP6 SUB SLT ISZERO PUSH2 0x2C7 JUMPI PUSH2 0x2C6 PUSH2 0x27F JUMP JUMPDEST JUMPDEST PUSH1 0x0 PUSH2 0x2D5 DUP6 DUP3 DUP7 ADD PUSH2 0x29B JUMP JUMPDEST SWAP3 POP POP PUSH1 0x20 PUSH2 0x2E6 DUP6 DUP3 DUP7 ADD PUSH2 0x29B JUMP JUMPDEST SWAP2 POP POP SWAP3 POP SWAP3 SWAP1 POP JUMP JUMPDEST PUSH32 0x4E487B7100000000000000000000000000000000000000000000000000000000 PUSH1 0x0 MSTORE PUSH1 0x11 PUSH1 0x4 MSTORE PUSH1 0x24 PUSH1 0x0 REVERT JUMPDEST PUSH1 0x0 PUSH2 0x32A DUP3 PUSH2 0x24B JUMP JUMPDEST SWAP2 POP PUSH2 0x335 DUP4 PUSH2 0x24B JUMP JUMPDEST SWAP3 POP DUP2 PUSH32 0xFFFFFFFFFFFFFFFFFFFFFFFFFFFFFFFFFFFFFFFFFFFFFFFFFFFFFFFFFFFFFFFF DIV DUP4 GT DUP3 ISZERO ISZERO AND ISZERO PUSH2 0x36E JUMPI PUSH2 0x36D PUSH2 0x2F0 JUMP JUMPDEST JUMPDEST DUP3 DUP3 MUL SWAP1 POP SWAP3 SWAP2 POP POP JUMP JUMPDEST PUSH32 0x4E487B7100000000000000000000000000000000000000000000000000000000 PUSH1 0x0 MSTORE PUSH1 0x12 PUSH1 0x4 MSTORE PUSH1 0x24 PUSH1 0x0 REVERT JUMPDEST PUSH1 0x0 PUSH2 0x3B3 DUP3 PUSH2 0x24B JUMP JUMPDEST SWAP2 POP PUSH2 0x3BE DUP4 PUSH2 0x24B JUMP JUMPDEST SWAP3 POP DUP3 PUSH2 0x3CE JUMPI PUSH2 0x3CD PUSH2 0x379 JUMP JUMPDEST JUMPDEST DUP3 DUP3 DIV SWAP1 POP SWAP3 SWAP2 POP POP JUMP JUMPDEST PUSH1 0x0 DUP3 DUP3 MSTORE PUSH1 0x20 DUP3 ADD SWAP1 POP SWAP3 SWAP2 POP POP JUMP JUMPDEST PUSH32 0x416C726561647920657865637574656400000000000000000000000000000000 PUSH1 0x0 DUP3 ADD MSTORE POP JUMP JUMPDEST PUSH1 0x0 PUSH2 0x420 PUSH1 0x10 DUP4 PUSH2 0x3D9 JUMP JUMPDEST SWAP2 POP PUSH2 0x42B DUP3 PUSH2 0x3EA JUMP JUMPDEST PUSH1 0x20 DUP3 ADD SWAP1 POP SWAP2 SWAP1 POP JUMP JUMPDEST PUSH1 0x0 PUSH1 0x20 DUP3 ADD SWAP1 POP DUP2 DUP2 SUB PUSH1 0x0 DUP4 ADD MSTORE PUSH2 0x44F DUP2 PUSH2 0x413 JUMP JUMPDEST SWAP1 POP SWAP2 SWAP1 POP JUMP JUMPDEST PUSH1 0x0 DUP2 PUSH1 0x1 SHR SWAP1 POP SWAP2 SWAP1 POP JUMP JUMPDEST PUSH1 0x0 DUP1 DUP3 SWAP2 POP DUP4 SWAP1 POP JUMPDEST PUSH1 0x1 DUP6 GT ISZERO PUSH2 0x4AD JUMPI DUP1 DUP7 DIV DUP2 GT ISZERO PUSH2 0x489 JUMPI PUSH2 0x488 PUSH2 0x2F0 JUMP JUMPDEST JUMPDEST PUSH1 0x1 DUP6 AND ISZERO PUSH2 0x498 JUMPI DUP1 DUP3 MUL SWAP2 POP JUMPDEST DUP1 DUP2 MUL SWAP1 POP PUSH2 0x4A6 DUP6 PUSH2 0x456 JUMP JUMPDEST SWAP5 POP PUSH2 0x46D JUMP JUMPDEST SWAP5 POP SWAP5 SWAP3 POP POP POP JUMP JUMPDEST PUSH1 0x0 DUP3 PUSH2 0x4C6 JUMPI PUSH1 0x1 SWAP1 POP PUSH2 0x582 JUMP JUMPDEST DUP2 PUSH2 0x4D4 JUMPI PUSH1 0x0 SWAP1 POP PUSH2 0x582 JUMP JUMPDEST DUP2 PUSH1 0x1 DUP2 EQ PUSH2 0x4EA JUMPI PUSH1 0x2 DUP2 EQ PUSH2 0x4F4 JUMPI PUSH2 0x523 JUMP JUMPDEST PUSH1 0x1 SWAP2 POP POP PUSH2 0x582 JUMP JUMPDEST PUSH1 0xFF DUP5 GT ISZERO PUSH2 0x506 JUMPI PUSH2 0x505 PUSH2 0x2F0 JUMP JUMPDEST JUMPDEST DUP4 PUSH1 0x2 EXP SWAP2 POP DUP5 DUP3 GT ISZERO PUSH2 0x51D JUMPI PUSH2 0x51C PUSH2 0x2F0 JUMP JUMPDEST JUMPDEST POP PUSH2 0x582 JUMP JUMPDEST POP PUSH1 0x20 DUP4 LT PUSH2 0x133 DUP4 LT AND PUSH1 0x4E DUP5 LT PUSH1 0xB DUP5 LT AND OR ISZERO PUSH2 0x558 JUMPI DUP3 DUP3 EXP SWAP1 POP DUP4 DUP2 GT ISZERO PUSH2 0x553 JUMPI PUSH2 0x552 PUSH2 0x2F0 JUMP JUMPDEST JUMPDEST PUSH2 0x582 JUMP JUMPDEST PUSH2 0x565 DUP5 DUP5 DUP5 PUSH1 0x1 PUSH2 0x463 JUMP JUMPDEST SWAP3 POP SWAP1 POP DUP2 DUP5 DIV DUP2 GT ISZERO PUSH2 0x57C JUMPI PUSH2 0x57B PUSH2 0x2F0 JUMP JUMPDEST JUMPDEST DUP2 DUP2 MUL SWAP1 POP JUMPDEST SWAP4 SWAP3 POP POP POP JUMP JUMPDEST PUSH1 0x0 PUSH2 0x594 DUP3 PUSH2 0x24B JUMP JUMPDEST SWAP2 POP PUSH2 0x59F DUP4 PUSH2 0x24B JUMP JUMPDEST SWAP3 POP PUSH2 0x5CC PUSH32 0xFFFFFFFFFFFFFFFFFFFFFFFFFFFFFFFFFFFFFFFFFFFFFFFFFFFFFFFFFFFFFFFF DUP5 DUP5 PUSH2 0x4B6 JUMP JUMPDEST SWAP1 POP SWAP3 SWAP2 POP POP JUMP JUMPDEST PUSH1 0x0 PUSH2 0x5DF DUP3 PUSH2 0x24B JUMP JUMPDEST SWAP2 POP PUSH2 0x5EA DUP4 PUSH2 0x24B JUMP JUMPDEST SWAP3 POP DUP3 DUP3 LT ISZERO PUSH2 0x5FD JUMPI PUSH2 0x5FC PUSH2 0x2F0 JUMP JUMPDEST JUMPDEST DUP3 DUP3 SUB SWAP1 POP SWAP3 SWAP2 POP POP JUMP INVALID LOG2 PUSH5 0x6970667358 0x22 SLT KECCAK256 0xB8 SWAP9 0x5C 0xD2 PUSH19 0x4C950BAC779544E33E2B5120A32E539F7DCB97 BLOCKHASH 0xD2 0xD DUP13 0xBA 0xB8 0xBC 0xBD PUSH5 0x736F6C6343 STOP ADDMOD 0xF STOP CALLER "
				},
				"gasEstimates": {
					"creation": {
						"codeDepositCost": "319600",
						"executionCost": "infinite",
						"totalCost": "infinite"
					},
					"external": {
						"collInterest(uint256,uint256)": "infinite",
						"rate()": "2407",
						"reduction()": "infinite"
					}
				},
				"methodIdentifiers": {
					"collInterest(uint256,uint256)": "ea0c9fa1",
					"rate()": "2c4e722e",
					"reduction()": "4e72d15f"
				}
			},
			"storageLayout": {
				"storage": [
					{
						"astId": 3,
						"contract": "PFG/Interest.sol:Interest",
						"label": "rate",
						"offset": 0,
						"slot": "0",
						"type": "t_uint256"
					},
					{
						"astId": 5,
						"contract": "PFG/Interest.sol:Interest",
						"label": "dec",
						"offset": 0,
						"slot": "1",
						"type": "t_uint256"
					},
					{
						"astId": 7,
						"contract": "PFG/Interest.sol:Interest",
						"label": "executed",
						"offset": 0,
						"slot": "2",
						"type": "t_bool"
					}
				],
				"types": {
					"t_bool": {
						"encoding": "inplace",
						"label": "bool",
						"numberOfBytes": "1"
					},
					"t_uint256": {
						"encoding": "inplace",
						"label": "uint256",
						"numberOfBytes": "32"
					}
				}
			},
			"userdoc": {
				"kind": "user",
				"methods": {},
				"version": 1
			}
		}
	}
}