{
	"PFG/Factoring.sol": {
		"Factoring": {
			"abi": [
				{
					"inputs": [
						{
							"internalType": "string",
							"name": "_filename",
							"type": "string"
						},
						{
							"internalType": "uint256",
							"name": "_value",
							"type": "uint256"
						},
						{
							"internalType": "uint256",
							"name": "_collateral",
							"type": "uint256"
						},
						{
							"internalType": "uint256",
							"name": "_days",
							"type": "uint256"
						},
						{
							"internalType": "bool",
							"name": "_isLiquid",
							"type": "bool"
						}
					],
					"stateMutability": "nonpayable",
					"type": "constructor"
				},
				{
					"anonymous": false,
					"inputs": [
						{
							"indexed": true,
							"internalType": "address",
							"name": "owner",
							"type": "address"
						},
						{
							"indexed": false,
							"internalType": "string",
							"name": "filename",
							"type": "string"
						},
						{
							"indexed": false,
							"internalType": "uint256",
							"name": "value",
							"type": "uint256"
						},
						{
							"indexed": false,
							"internalType": "uint256",
							"name": "collateral",
							"type": "uint256"
						},
						{
							"indexed": false,
							"internalType": "uint256",
							"name": "daysRemaining",
							"type": "uint256"
						}
					],
					"name": "NewDocument",
					"type": "event"
				},
				{
					"inputs": [],
					"name": "getCollateral",
					"outputs": [
						{
							"internalType": "uint256",
							"name": "",
							"type": "uint256"
						}
					],
					"stateMutability": "view",
					"type": "function"
				},
				{
					"inputs": [],
					"name": "getExpDays",
					"outputs": [
						{
							"internalType": "uint256",
							"name": "",
							"type": "uint256"
						}
					],
					"stateMutability": "view",
					"type": "function"
				},
				{
					"inputs": [],
					"name": "getInvoicer",
					"outputs": [
						{
							"internalType": "address",
							"name": "",
							"type": "address"
						}
					],
					"stateMutability": "view",
					"type": "function"
				},
				{
					"inputs": [],
					"name": "getValue",
					"outputs": [
						{
							"internalType": "uint256",
							"name": "",
							"type": "uint256"
						}
					],
					"stateMutability": "view",
					"type": "function"
				},
				{
					"inputs": [],
					"name": "isLiquidCollateral",
					"outputs": [
						{
							"internalType": "bool",
							"name": "",
							"type": "bool"
						}
					],
					"stateMutability": "view",
					"type": "function"
				},
				{
					"inputs": [],
					"name": "isVerifiedDoc",
					"outputs": [
						{
							"internalType": "bool",
							"name": "",
							"type": "bool"
						}
					],
					"stateMutability": "view",
					"type": "function"
				},
				{
					"inputs": [],
					"name": "verificat",
					"outputs": [
						{
							"internalType": "contract Verificacio",
							"name": "",
							"type": "address"
						}
					],
					"stateMutability": "view",
					"type": "function"
				}
			],
			"devdoc": {
				"kind": "dev",
				"methods": {},
				"version": 1
			},
			"evm": {
				"assembly": "    /* \"PFG/Factoring.sol\":109:1823  contract Factoring{\r... */\n  mstore(0x40, 0x80)\n    /* \"PFG/Factoring.sol\":799:1226  constructor(string memory _filename, uint256 _value, uint256 _collateral, uint _days, bool _isLiquid){\r... */\n  callvalue\n  dup1\n  iszero\n  tag_1\n  jumpi\n  0x00\n  dup1\n  revert\ntag_1:\n  pop\n  mload(0x40)\n  sub(codesize, bytecodeSize)\n  dup1\n  bytecodeSize\n  dup4\n  codecopy\n  dup2\n  dup2\n  add\n  0x40\n  mstore\n  dup2\n  add\n  swap1\n  tag_2\n  swap2\n  swap1\n  tag_3\n  jump\t// in\ntag_2:\n    /* \"PFG/Factoring.sol\":922:932  msg.sender */\n  caller\n    /* \"PFG/Factoring.sol\":911:919  invoicer */\n  0x00\n  dup1\n    /* \"PFG/Factoring.sol\":911:932  invoicer = msg.sender */\n  0x0100\n  exp\n  dup2\n  sload\n  dup2\n  0xffffffffffffffffffffffffffffffffffffffff\n  mul\n  not\n  and\n  swap1\n  dup4\n  0xffffffffffffffffffffffffffffffffffffffff\n  and\n  mul\n  or\n  swap1\n  sstore\n  pop\n    /* \"PFG/Factoring.sol\":956:961  false */\n  0x00\n    /* \"PFG/Factoring.sol\":943:953  isVerified */\n  0x02\n  0x14\n    /* \"PFG/Factoring.sol\":943:961  isVerified = false */\n  0x0100\n  exp\n  dup2\n  sload\n  dup2\n  0xff\n  mul\n  not\n  and\n  swap1\n  dup4\n  iszero\n  iszero\n  mul\n  or\n  swap1\n  sstore\n  pop\n    /* \"PFG/Factoring.sol\":980:986  _value */\n  dup4\n    /* \"PFG/Factoring.sol\":972:977  value */\n  0x03\n    /* \"PFG/Factoring.sol\":972:986  value = _value */\n  dup2\n  swap1\n  sstore\n  pop\n    /* \"PFG/Factoring.sol\":1007:1012  _days */\n  dup2\n    /* \"PFG/Factoring.sol\":997:1004  expDays */\n  0x04\n    /* \"PFG/Factoring.sol\":997:1012  expDays = _days */\n  dup2\n  swap1\n  sstore\n  pop\n    /* \"PFG/Factoring.sol\":1036:1047  _collateral */\n  dup3\n    /* \"PFG/Factoring.sol\":1023:1033  collateral */\n  0x05\n    /* \"PFG/Factoring.sol\":1023:1047  collateral = _collateral */\n  dup2\n  swap1\n  sstore\n  pop\n    /* \"PFG/Factoring.sol\":1072:1081  _isLiquid */\n  dup1\n    /* \"PFG/Factoring.sol\":1058:1069  isLiquidCol */\n  0x06\n  0x00\n    /* \"PFG/Factoring.sol\":1058:1081  isLiquidCol = _isLiquid */\n  0x0100\n  exp\n  dup2\n  sload\n  dup2\n  0xff\n  mul\n  not\n  and\n  swap1\n  dup4\n  iszero\n  iszero\n  mul\n  or\n  swap1\n  sstore\n  pop\n    /* \"PFG/Factoring.sol\":1122:1131  _filename */\n  dup5\n    /* \"PFG/Factoring.sol\":1106:1132  new Verificacio(_filename) */\n  mload(0x40)\n  tag_6\n  swap1\n  tag_7\n  jump\t// in\ntag_6:\n  tag_8\n  swap2\n  swap1\n  tag_9\n  jump\t// in\ntag_8:\n  mload(0x40)\n  dup1\n  swap2\n  sub\n  swap1\n  0x00\n  create\n  dup1\n  iszero\n  dup1\n  iszero\n  tag_10\n  jumpi\n  returndatasize\n  0x00\n  dup1\n  returndatacopy\n  revert(0x00, returndatasize)\ntag_10:\n  pop\n    /* \"PFG/Factoring.sol\":1094:1103  verificat */\n  0x02\n  0x00\n    /* \"PFG/Factoring.sol\":1094:1132  verificat = new Verificacio(_filename) */\n  0x0100\n  exp\n  dup2\n  sload\n  dup2\n  0xffffffffffffffffffffffffffffffffffffffff\n  mul\n  not\n  and\n  swap1\n  dup4\n  0xffffffffffffffffffffffffffffffffffffffff\n  and\n  mul\n  or\n  swap1\n  sstore\n  pop\n    /* \"PFG/Factoring.sol\":1170:1178  invoicer */\n  0x00\n  dup1\n  sload\n  swap1\n  0x0100\n  exp\n  swap1\n  div\n  0xffffffffffffffffffffffffffffffffffffffff\n  and\n    /* \"PFG/Factoring.sol\":1158:1218  NewDocument(invoicer, _filename, value, collateral, expDays) */\n  0xffffffffffffffffffffffffffffffffffffffff\n  and\n  0x36c5cfb84b25c611b67a3f5ae576111a61441b10cd2f3b3cb9fd9fb407d6a9f2\n    /* \"PFG/Factoring.sol\":1180:1189  _filename */\n  dup7\n    /* \"PFG/Factoring.sol\":1191:1196  value */\n  sload(0x03)\n    /* \"PFG/Factoring.sol\":1198:1208  collateral */\n  sload(0x05)\n    /* \"PFG/Factoring.sol\":1210:1217  expDays */\n  sload(0x04)\n    /* \"PFG/Factoring.sol\":1158:1218  NewDocument(invoicer, _filename, value, collateral, expDays) */\n  mload(0x40)\n  tag_11\n  swap5\n  swap4\n  swap3\n  swap2\n  swap1\n  tag_12\n  jump\t// in\ntag_11:\n  mload(0x40)\n  dup1\n  swap2\n  sub\n  swap1\n  log2\n    /* \"PFG/Factoring.sol\":799:1226  constructor(string memory _filename, uint256 _value, uint256 _collateral, uint _days, bool _isLiquid){\r... */\n  pop\n  pop\n  pop\n  pop\n  pop\n    /* \"PFG/Factoring.sol\":109:1823  contract Factoring{\r... */\n  jump(tag_13)\ntag_7:\n  dataSize(sub_1)\n  dup1\n  dataOffset(sub_1)\n  dup4\n  codecopy\n  add\n  swap1\n  jump\t// out\n    /* \"#utility.yul\":7:428   */\ntag_15:\n    /* \"#utility.yul\":96:101   */\n  0x00\n    /* \"#utility.yul\":121:187   */\n  tag_17\n    /* \"#utility.yul\":137:186   */\n  tag_18\n    /* \"#utility.yul\":179:185   */\n  dup5\n    /* \"#utility.yul\":137:186   */\n  tag_19\n  jump\t// in\ntag_18:\n    /* \"#utility.yul\":121:187   */\n  tag_20\n  jump\t// in\ntag_17:\n    /* \"#utility.yul\":112:187   */\n  swap1\n  pop\n    /* \"#utility.yul\":210:216   */\n  dup3\n    /* \"#utility.yul\":203:208   */\n  dup2\n    /* \"#utility.yul\":196:217   */\n  mstore\n    /* \"#utility.yul\":248:252   */\n  0x20\n    /* \"#utility.yul\":241:246   */\n  dup2\n    /* \"#utility.yul\":237:253   */\n  add\n    /* \"#utility.yul\":286:289   */\n  dup5\n    /* \"#utility.yul\":277:283   */\n  dup5\n    /* \"#utility.yul\":272:275   */\n  dup5\n    /* \"#utility.yul\":268:284   */\n  add\n    /* \"#utility.yul\":265:290   */\n  gt\n    /* \"#utility.yul\":262:374   */\n  iszero\n  tag_21\n  jumpi\n    /* \"#utility.yul\":293:372   */\n  tag_22\n  tag_23\n  jump\t// in\ntag_22:\n    /* \"#utility.yul\":262:374   */\ntag_21:\n    /* \"#utility.yul\":383:422   */\n  tag_24\n    /* \"#utility.yul\":415:421   */\n  dup5\n    /* \"#utility.yul\":410:413   */\n  dup3\n    /* \"#utility.yul\":405:408   */\n  dup6\n    /* \"#utility.yul\":383:422   */\n  tag_25\n  jump\t// in\ntag_24:\n    /* \"#utility.yul\":102:428   */\n  pop\n    /* \"#utility.yul\":7:428   */\n  swap4\n  swap3\n  pop\n  pop\n  pop\n  jump\t// out\n    /* \"#utility.yul\":434:571   */\ntag_26:\n    /* \"#utility.yul\":488:493   */\n  0x00\n    /* \"#utility.yul\":519:525   */\n  dup2\n    /* \"#utility.yul\":513:526   */\n  mload\n    /* \"#utility.yul\":504:526   */\n  swap1\n  pop\n    /* \"#utility.yul\":535:565   */\n  tag_28\n    /* \"#utility.yul\":559:564   */\n  dup2\n    /* \"#utility.yul\":535:565   */\n  tag_29\n  jump\t// in\ntag_28:\n    /* \"#utility.yul\":434:571   */\n  swap3\n  swap2\n  pop\n  pop\n  jump\t// out\n    /* \"#utility.yul\":591:946   */\ntag_30:\n    /* \"#utility.yul\":658:663   */\n  0x00\n    /* \"#utility.yul\":707:710   */\n  dup3\n    /* \"#utility.yul\":700:704   */\n  0x1f\n    /* \"#utility.yul\":692:698   */\n  dup4\n    /* \"#utility.yul\":688:705   */\n  add\n    /* \"#utility.yul\":684:711   */\n  slt\n    /* \"#utility.yul\":674:796   */\n  tag_32\n  jumpi\n    /* \"#utility.yul\":715:794   */\n  tag_33\n  tag_34\n  jump\t// in\ntag_33:\n    /* \"#utility.yul\":674:796   */\ntag_32:\n    /* \"#utility.yul\":825:831   */\n  dup2\n    /* \"#utility.yul\":819:832   */\n  mload\n    /* \"#utility.yul\":850:940   */\n  tag_35\n    /* \"#utility.yul\":936:939   */\n  dup5\n    /* \"#utility.yul\":928:934   */\n  dup3\n    /* \"#utility.yul\":921:925   */\n  0x20\n    /* \"#utility.yul\":913:919   */\n  dup7\n    /* \"#utility.yul\":909:926   */\n  add\n    /* \"#utility.yul\":850:940   */\n  tag_15\n  jump\t// in\ntag_35:\n    /* \"#utility.yul\":841:940   */\n  swap2\n  pop\n    /* \"#utility.yul\":664:946   */\n  pop\n    /* \"#utility.yul\":591:946   */\n  swap3\n  swap2\n  pop\n  pop\n  jump\t// out\n    /* \"#utility.yul\":952:1095   */\ntag_36:\n    /* \"#utility.yul\":1009:1014   */\n  0x00\n    /* \"#utility.yul\":1040:1046   */\n  dup2\n    /* \"#utility.yul\":1034:1047   */\n  mload\n    /* \"#utility.yul\":1025:1047   */\n  swap1\n  pop\n    /* \"#utility.yul\":1056:1089   */\n  tag_38\n    /* \"#utility.yul\":1083:1088   */\n  dup2\n    /* \"#utility.yul\":1056:1089   */\n  tag_39\n  jump\t// in\ntag_38:\n    /* \"#utility.yul\":952:1095   */\n  swap3\n  swap2\n  pop\n  pop\n  jump\t// out\n    /* \"#utility.yul\":1101:2245   */\ntag_3:\n    /* \"#utility.yul\":1214:1220   */\n  0x00\n    /* \"#utility.yul\":1222:1228   */\n  dup1\n    /* \"#utility.yul\":1230:1236   */\n  0x00\n    /* \"#utility.yul\":1238:1244   */\n  dup1\n    /* \"#utility.yul\":1246:1252   */\n  0x00\n    /* \"#utility.yul\":1295:1298   */\n  0xa0\n    /* \"#utility.yul\":1283:1292   */\n  dup7\n    /* \"#utility.yul\":1274:1281   */\n  dup9\n    /* \"#utility.yul\":1270:1293   */\n  sub\n    /* \"#utility.yul\":1266:1299   */\n  slt\n    /* \"#utility.yul\":1263:1383   */\n  iszero\n  tag_41\n  jumpi\n    /* \"#utility.yul\":1302:1381   */\n  tag_42\n  tag_43\n  jump\t// in\ntag_42:\n    /* \"#utility.yul\":1263:1383   */\ntag_41:\n    /* \"#utility.yul\":1443:1444   */\n  0x00\n    /* \"#utility.yul\":1432:1441   */\n  dup7\n    /* \"#utility.yul\":1428:1445   */\n  add\n    /* \"#utility.yul\":1422:1446   */\n  mload\n    /* \"#utility.yul\":1473:1491   */\n  0xffffffffffffffff\n    /* \"#utility.yul\":1465:1471   */\n  dup2\n    /* \"#utility.yul\":1462:1492   */\n  gt\n    /* \"#utility.yul\":1459:1576   */\n  iszero\n  tag_44\n  jumpi\n    /* \"#utility.yul\":1495:1574   */\n  tag_45\n  tag_46\n  jump\t// in\ntag_45:\n    /* \"#utility.yul\":1459:1576   */\ntag_44:\n    /* \"#utility.yul\":1600:1674   */\n  tag_47\n    /* \"#utility.yul\":1666:1673   */\n  dup9\n    /* \"#utility.yul\":1657:1663   */\n  dup3\n    /* \"#utility.yul\":1646:1655   */\n  dup10\n    /* \"#utility.yul\":1642:1664   */\n  add\n    /* \"#utility.yul\":1600:1674   */\n  tag_30\n  jump\t// in\ntag_47:\n    /* \"#utility.yul\":1590:1674   */\n  swap6\n  pop\n    /* \"#utility.yul\":1393:1684   */\n  pop\n    /* \"#utility.yul\":1723:1725   */\n  0x20\n    /* \"#utility.yul\":1749:1813   */\n  tag_48\n    /* \"#utility.yul\":1805:1812   */\n  dup9\n    /* \"#utility.yul\":1796:1802   */\n  dup3\n    /* \"#utility.yul\":1785:1794   */\n  dup10\n    /* \"#utility.yul\":1781:1803   */\n  add\n    /* \"#utility.yul\":1749:1813   */\n  tag_36\n  jump\t// in\ntag_48:\n    /* \"#utility.yul\":1739:1813   */\n  swap5\n  pop\n    /* \"#utility.yul\":1694:1823   */\n  pop\n    /* \"#utility.yul\":1862:1864   */\n  0x40\n    /* \"#utility.yul\":1888:1952   */\n  tag_49\n    /* \"#utility.yul\":1944:1951   */\n  dup9\n    /* \"#utility.yul\":1935:1941   */\n  dup3\n    /* \"#utility.yul\":1924:1933   */\n  dup10\n    /* \"#utility.yul\":1920:1942   */\n  add\n    /* \"#utility.yul\":1888:1952   */\n  tag_36\n  jump\t// in\ntag_49:\n    /* \"#utility.yul\":1878:1952   */\n  swap4\n  pop\n    /* \"#utility.yul\":1833:1962   */\n  pop\n    /* \"#utility.yul\":2001:2003   */\n  0x60\n    /* \"#utility.yul\":2027:2091   */\n  tag_50\n    /* \"#utility.yul\":2083:2090   */\n  dup9\n    /* \"#utility.yul\":2074:2080   */\n  dup3\n    /* \"#utility.yul\":2063:2072   */\n  dup10\n    /* \"#utility.yul\":2059:2081   */\n  add\n    /* \"#utility.yul\":2027:2091   */\n  tag_36\n  jump\t// in\ntag_50:\n    /* \"#utility.yul\":2017:2091   */\n  swap3\n  pop\n    /* \"#utility.yul\":1972:2101   */\n  pop\n    /* \"#utility.yul\":2140:2143   */\n  0x80\n    /* \"#utility.yul\":2167:2228   */\n  tag_51\n    /* \"#utility.yul\":2220:2227   */\n  dup9\n    /* \"#utility.yul\":2211:2217   */\n  dup3\n    /* \"#utility.yul\":2200:2209   */\n  dup10\n    /* \"#utility.yul\":2196:2218   */\n  add\n    /* \"#utility.yul\":2167:2228   */\n  tag_26\n  jump\t// in\ntag_51:\n    /* \"#utility.yul\":2157:2228   */\n  swap2\n  pop\n    /* \"#utility.yul\":2111:2238   */\n  pop\n    /* \"#utility.yul\":1101:2245   */\n  swap3\n  swap6\n  pop\n  swap3\n  swap6\n  swap1\n  swap4\n  pop\n  jump\t// out\n    /* \"#utility.yul\":2251:2615   */\ntag_52:\n    /* \"#utility.yul\":2339:2342   */\n  0x00\n    /* \"#utility.yul\":2367:2406   */\n  tag_54\n    /* \"#utility.yul\":2400:2405   */\n  dup3\n    /* \"#utility.yul\":2367:2406   */\n  tag_55\n  jump\t// in\ntag_54:\n    /* \"#utility.yul\":2422:2493   */\n  tag_56\n    /* \"#utility.yul\":2486:2492   */\n  dup2\n    /* \"#utility.yul\":2481:2484   */\n  dup6\n    /* \"#utility.yul\":2422:2493   */\n  tag_57\n  jump\t// in\ntag_56:\n    /* \"#utility.yul\":2415:2493   */\n  swap4\n  pop\n    /* \"#utility.yul\":2502:2554   */\n  tag_58\n    /* \"#utility.yul\":2547:2553   */\n  dup2\n    /* \"#utility.yul\":2542:2545   */\n  dup6\n    /* \"#utility.yul\":2535:2539   */\n  0x20\n    /* \"#utility.yul\":2528:2533   */\n  dup7\n    /* \"#utility.yul\":2524:2540   */\n  add\n    /* \"#utility.yul\":2502:2554   */\n  tag_25\n  jump\t// in\ntag_58:\n    /* \"#utility.yul\":2579:2608   */\n  tag_59\n    /* \"#utility.yul\":2601:2607   */\n  dup2\n    /* \"#utility.yul\":2579:2608   */\n  tag_60\n  jump\t// in\ntag_59:\n    /* \"#utility.yul\":2574:2577   */\n  dup5\n    /* \"#utility.yul\":2570:2609   */\n  add\n    /* \"#utility.yul\":2563:2609   */\n  swap2\n  pop\n    /* \"#utility.yul\":2343:2615   */\n  pop\n    /* \"#utility.yul\":2251:2615   */\n  swap3\n  swap2\n  pop\n  pop\n  jump\t// out\n    /* \"#utility.yul\":2621:2739   */\ntag_61:\n    /* \"#utility.yul\":2708:2732   */\n  tag_63\n    /* \"#utility.yul\":2726:2731   */\n  dup2\n    /* \"#utility.yul\":2708:2732   */\n  tag_64\n  jump\t// in\ntag_63:\n    /* \"#utility.yul\":2703:2706   */\n  dup3\n    /* \"#utility.yul\":2696:2733   */\n  mstore\n    /* \"#utility.yul\":2621:2739   */\n  pop\n  pop\n  jump\t// out\n    /* \"#utility.yul\":2745:3058   */\ntag_9:\n    /* \"#utility.yul\":2858:2862   */\n  0x00\n    /* \"#utility.yul\":2896:2898   */\n  0x20\n    /* \"#utility.yul\":2885:2894   */\n  dup3\n    /* \"#utility.yul\":2881:2899   */\n  add\n    /* \"#utility.yul\":2873:2899   */\n  swap1\n  pop\n    /* \"#utility.yul\":2945:2954   */\n  dup2\n    /* \"#utility.yul\":2939:2943   */\n  dup2\n    /* \"#utility.yul\":2935:2955   */\n  sub\n    /* \"#utility.yul\":2931:2932   */\n  0x00\n    /* \"#utility.yul\":2920:2929   */\n  dup4\n    /* \"#utility.yul\":2916:2933   */\n  add\n    /* \"#utility.yul\":2909:2956   */\n  mstore\n    /* \"#utility.yul\":2973:3051   */\n  tag_66\n    /* \"#utility.yul\":3046:3050   */\n  dup2\n    /* \"#utility.yul\":3037:3043   */\n  dup5\n    /* \"#utility.yul\":2973:3051   */\n  tag_52\n  jump\t// in\ntag_66:\n    /* \"#utility.yul\":2965:3051   */\n  swap1\n  pop\n    /* \"#utility.yul\":2745:3058   */\n  swap3\n  swap2\n  pop\n  pop\n  jump\t// out\n    /* \"#utility.yul\":3064:3708   */\ntag_12:\n    /* \"#utility.yul\":3261:3265   */\n  0x00\n    /* \"#utility.yul\":3299:3302   */\n  0x80\n    /* \"#utility.yul\":3288:3297   */\n  dup3\n    /* \"#utility.yul\":3284:3303   */\n  add\n    /* \"#utility.yul\":3276:3303   */\n  swap1\n  pop\n    /* \"#utility.yul\":3349:3358   */\n  dup2\n    /* \"#utility.yul\":3343:3347   */\n  dup2\n    /* \"#utility.yul\":3339:3359   */\n  sub\n    /* \"#utility.yul\":3335:3336   */\n  0x00\n    /* \"#utility.yul\":3324:3333   */\n  dup4\n    /* \"#utility.yul\":3320:3337   */\n  add\n    /* \"#utility.yul\":3313:3360   */\n  mstore\n    /* \"#utility.yul\":3377:3455   */\n  tag_68\n    /* \"#utility.yul\":3450:3454   */\n  dup2\n    /* \"#utility.yul\":3441:3447   */\n  dup8\n    /* \"#utility.yul\":3377:3455   */\n  tag_52\n  jump\t// in\ntag_68:\n    /* \"#utility.yul\":3369:3455   */\n  swap1\n  pop\n    /* \"#utility.yul\":3465:3537   */\n  tag_69\n    /* \"#utility.yul\":3533:3535   */\n  0x20\n    /* \"#utility.yul\":3522:3531   */\n  dup4\n    /* \"#utility.yul\":3518:3536   */\n  add\n    /* \"#utility.yul\":3509:3515   */\n  dup7\n    /* \"#utility.yul\":3465:3537   */\n  tag_61\n  jump\t// in\ntag_69:\n    /* \"#utility.yul\":3547:3619   */\n  tag_70\n    /* \"#utility.yul\":3615:3617   */\n  0x40\n    /* \"#utility.yul\":3604:3613   */\n  dup4\n    /* \"#utility.yul\":3600:3618   */\n  add\n    /* \"#utility.yul\":3591:3597   */\n  dup6\n    /* \"#utility.yul\":3547:3619   */\n  tag_61\n  jump\t// in\ntag_70:\n    /* \"#utility.yul\":3629:3701   */\n  tag_71\n    /* \"#utility.yul\":3697:3699   */\n  0x60\n    /* \"#utility.yul\":3686:3695   */\n  dup4\n    /* \"#utility.yul\":3682:3700   */\n  add\n    /* \"#utility.yul\":3673:3679   */\n  dup5\n    /* \"#utility.yul\":3629:3701   */\n  tag_61\n  jump\t// in\ntag_71:\n    /* \"#utility.yul\":3064:3708   */\n  swap6\n  swap5\n  pop\n  pop\n  pop\n  pop\n  pop\n  jump\t// out\n    /* \"#utility.yul\":3714:3843   */\ntag_20:\n    /* \"#utility.yul\":3748:3754   */\n  0x00\n    /* \"#utility.yul\":3775:3795   */\n  tag_73\n  tag_74\n  jump\t// in\ntag_73:\n    /* \"#utility.yul\":3765:3795   */\n  swap1\n  pop\n    /* \"#utility.yul\":3804:3837   */\n  tag_75\n    /* \"#utility.yul\":3832:3836   */\n  dup3\n    /* \"#utility.yul\":3824:3830   */\n  dup3\n    /* \"#utility.yul\":3804:3837   */\n  tag_76\n  jump\t// in\ntag_75:\n    /* \"#utility.yul\":3714:3843   */\n  swap2\n  swap1\n  pop\n  jump\t// out\n    /* \"#utility.yul\":3849:3924   */\ntag_74:\n    /* \"#utility.yul\":3882:3888   */\n  0x00\n    /* \"#utility.yul\":3915:3917   */\n  0x40\n    /* \"#utility.yul\":3909:3918   */\n  mload\n    /* \"#utility.yul\":3899:3918   */\n  swap1\n  pop\n    /* \"#utility.yul\":3849:3924   */\n  swap1\n  jump\t// out\n    /* \"#utility.yul\":3930:4238   */\ntag_19:\n    /* \"#utility.yul\":3992:3996   */\n  0x00\n    /* \"#utility.yul\":4082:4100   */\n  0xffffffffffffffff\n    /* \"#utility.yul\":4074:4080   */\n  dup3\n    /* \"#utility.yul\":4071:4101   */\n  gt\n    /* \"#utility.yul\":4068:4124   */\n  iszero\n  tag_79\n  jumpi\n    /* \"#utility.yul\":4104:4122   */\n  tag_80\n  tag_81\n  jump\t// in\ntag_80:\n    /* \"#utility.yul\":4068:4124   */\ntag_79:\n    /* \"#utility.yul\":4142:4171   */\n  tag_82\n    /* \"#utility.yul\":4164:4170   */\n  dup3\n    /* \"#utility.yul\":4142:4171   */\n  tag_60\n  jump\t// in\ntag_82:\n    /* \"#utility.yul\":4134:4171   */\n  swap1\n  pop\n    /* \"#utility.yul\":4226:4230   */\n  0x20\n    /* \"#utility.yul\":4220:4224   */\n  dup2\n    /* \"#utility.yul\":4216:4231   */\n  add\n    /* \"#utility.yul\":4208:4231   */\n  swap1\n  pop\n    /* \"#utility.yul\":3930:4238   */\n  swap2\n  swap1\n  pop\n  jump\t// out\n    /* \"#utility.yul\":4244:4343   */\ntag_55:\n    /* \"#utility.yul\":4296:4302   */\n  0x00\n    /* \"#utility.yul\":4330:4335   */\n  dup2\n    /* \"#utility.yul\":4324:4336   */\n  mload\n    /* \"#utility.yul\":4314:4336   */\n  swap1\n  pop\n    /* \"#utility.yul\":4244:4343   */\n  swap2\n  swap1\n  pop\n  jump\t// out\n    /* \"#utility.yul\":4349:4518   */\ntag_57:\n    /* \"#utility.yul\":4433:4444   */\n  0x00\n    /* \"#utility.yul\":4467:4473   */\n  dup3\n    /* \"#utility.yul\":4462:4465   */\n  dup3\n    /* \"#utility.yul\":4455:4474   */\n  mstore\n    /* \"#utility.yul\":4507:4511   */\n  0x20\n    /* \"#utility.yul\":4502:4505   */\n  dup3\n    /* \"#utility.yul\":4498:4512   */\n  add\n    /* \"#utility.yul\":4483:4512   */\n  swap1\n  pop\n    /* \"#utility.yul\":4349:4518   */\n  swap3\n  swap2\n  pop\n  pop\n  jump\t// out\n    /* \"#utility.yul\":4524:4614   */\ntag_85:\n    /* \"#utility.yul\":4558:4565   */\n  0x00\n    /* \"#utility.yul\":4601:4606   */\n  dup2\n    /* \"#utility.yul\":4594:4607   */\n  iszero\n    /* \"#utility.yul\":4587:4608   */\n  iszero\n    /* \"#utility.yul\":4576:4608   */\n  swap1\n  pop\n    /* \"#utility.yul\":4524:4614   */\n  swap2\n  swap1\n  pop\n  jump\t// out\n    /* \"#utility.yul\":4620:4697   */\ntag_64:\n    /* \"#utility.yul\":4657:4664   */\n  0x00\n    /* \"#utility.yul\":4686:4691   */\n  dup2\n    /* \"#utility.yul\":4675:4691   */\n  swap1\n  pop\n    /* \"#utility.yul\":4620:4697   */\n  swap2\n  swap1\n  pop\n  jump\t// out\n    /* \"#utility.yul\":4703:5010   */\ntag_25:\n    /* \"#utility.yul\":4771:4772   */\n  0x00\n    /* \"#utility.yul\":4781:4894   */\ntag_89:\n    /* \"#utility.yul\":4795:4801   */\n  dup4\n    /* \"#utility.yul\":4792:4793   */\n  dup2\n    /* \"#utility.yul\":4789:4802   */\n  lt\n    /* \"#utility.yul\":4781:4894   */\n  iszero\n  tag_91\n  jumpi\n    /* \"#utility.yul\":4880:4881   */\n  dup1\n    /* \"#utility.yul\":4875:4878   */\n  dup3\n    /* \"#utility.yul\":4871:4882   */\n  add\n    /* \"#utility.yul\":4865:4883   */\n  mload\n    /* \"#utility.yul\":4861:4862   */\n  dup2\n    /* \"#utility.yul\":4856:4859   */\n  dup5\n    /* \"#utility.yul\":4852:4863   */\n  add\n    /* \"#utility.yul\":4845:4884   */\n  mstore\n    /* \"#utility.yul\":4817:4819   */\n  0x20\n    /* \"#utility.yul\":4814:4815   */\n  dup2\n    /* \"#utility.yul\":4810:4820   */\n  add\n    /* \"#utility.yul\":4805:4820   */\n  swap1\n  pop\n    /* \"#utility.yul\":4781:4894   */\n  jump(tag_89)\ntag_91:\n    /* \"#utility.yul\":4912:4918   */\n  dup4\n    /* \"#utility.yul\":4909:4910   */\n  dup2\n    /* \"#utility.yul\":4906:4919   */\n  gt\n    /* \"#utility.yul\":4903:5004   */\n  iszero\n  tag_92\n  jumpi\n    /* \"#utility.yul\":4992:4993   */\n  0x00\n    /* \"#utility.yul\":4983:4989   */\n  dup5\n    /* \"#utility.yul\":4978:4981   */\n  dup5\n    /* \"#utility.yul\":4974:4990   */\n  add\n    /* \"#utility.yul\":4967:4994   */\n  mstore\n    /* \"#utility.yul\":4903:5004   */\ntag_92:\n    /* \"#utility.yul\":4752:5010   */\n  pop\n    /* \"#utility.yul\":4703:5010   */\n  pop\n  pop\n  pop\n  jump\t// out\n    /* \"#utility.yul\":5016:5297   */\ntag_76:\n    /* \"#utility.yul\":5099:5126   */\n  tag_94\n    /* \"#utility.yul\":5121:5125   */\n  dup3\n    /* \"#utility.yul\":5099:5126   */\n  tag_60\n  jump\t// in\ntag_94:\n    /* \"#utility.yul\":5091:5097   */\n  dup2\n    /* \"#utility.yul\":5087:5127   */\n  add\n    /* \"#utility.yul\":5229:5235   */\n  dup2\n    /* \"#utility.yul\":5217:5227   */\n  dup2\n    /* \"#utility.yul\":5214:5236   */\n  lt\n    /* \"#utility.yul\":5193:5211   */\n  0xffffffffffffffff\n    /* \"#utility.yul\":5181:5191   */\n  dup3\n    /* \"#utility.yul\":5178:5212   */\n  gt\n    /* \"#utility.yul\":5175:5237   */\n  or\n    /* \"#utility.yul\":5172:5260   */\n  iszero\n  tag_95\n  jumpi\n    /* \"#utility.yul\":5240:5258   */\n  tag_96\n  tag_81\n  jump\t// in\ntag_96:\n    /* \"#utility.yul\":5172:5260   */\ntag_95:\n    /* \"#utility.yul\":5280:5290   */\n  dup1\n    /* \"#utility.yul\":5276:5278   */\n  0x40\n    /* \"#utility.yul\":5269:5291   */\n  mstore\n    /* \"#utility.yul\":5059:5297   */\n  pop\n    /* \"#utility.yul\":5016:5297   */\n  pop\n  pop\n  jump\t// out\n    /* \"#utility.yul\":5303:5483   */\ntag_81:\n    /* \"#utility.yul\":5351:5428   */\n  0x4e487b7100000000000000000000000000000000000000000000000000000000\n    /* \"#utility.yul\":5348:5349   */\n  0x00\n    /* \"#utility.yul\":5341:5429   */\n  mstore\n    /* \"#utility.yul\":5448:5452   */\n  0x41\n    /* \"#utility.yul\":5445:5446   */\n  0x04\n    /* \"#utility.yul\":5438:5453   */\n  mstore\n    /* \"#utility.yul\":5472:5476   */\n  0x24\n    /* \"#utility.yul\":5469:5470   */\n  0x00\n    /* \"#utility.yul\":5462:5477   */\n  revert\n    /* \"#utility.yul\":5489:5606   */\ntag_34:\n    /* \"#utility.yul\":5598:5599   */\n  0x00\n    /* \"#utility.yul\":5595:5596   */\n  dup1\n    /* \"#utility.yul\":5588:5600   */\n  revert\n    /* \"#utility.yul\":5612:5729   */\ntag_23:\n    /* \"#utility.yul\":5721:5722   */\n  0x00\n    /* \"#utility.yul\":5718:5719   */\n  dup1\n    /* \"#utility.yul\":5711:5723   */\n  revert\n    /* \"#utility.yul\":5735:5852   */\ntag_46:\n    /* \"#utility.yul\":5844:5845   */\n  0x00\n    /* \"#utility.yul\":5841:5842   */\n  dup1\n    /* \"#utility.yul\":5834:5846   */\n  revert\n    /* \"#utility.yul\":5858:5975   */\ntag_43:\n    /* \"#utility.yul\":5967:5968   */\n  0x00\n    /* \"#utility.yul\":5964:5965   */\n  dup1\n    /* \"#utility.yul\":5957:5969   */\n  revert\n    /* \"#utility.yul\":5981:6083   */\ntag_60:\n    /* \"#utility.yul\":6022:6028   */\n  0x00\n    /* \"#utility.yul\":6073:6075   */\n  0x1f\n    /* \"#utility.yul\":6069:6076   */\n  not\n    /* \"#utility.yul\":6064:6066   */\n  0x1f\n    /* \"#utility.yul\":6057:6062   */\n  dup4\n    /* \"#utility.yul\":6053:6067   */\n  add\n    /* \"#utility.yul\":6049:6077   */\n  and\n    /* \"#utility.yul\":6039:6077   */\n  swap1\n  pop\n    /* \"#utility.yul\":5981:6083   */\n  swap2\n  swap1\n  pop\n  jump\t// out\n    /* \"#utility.yul\":6089:6205   */\ntag_29:\n    /* \"#utility.yul\":6159:6180   */\n  tag_104\n    /* \"#utility.yul\":6174:6179   */\n  dup2\n    /* \"#utility.yul\":6159:6180   */\n  tag_85\n  jump\t// in\ntag_104:\n    /* \"#utility.yul\":6152:6157   */\n  dup2\n    /* \"#utility.yul\":6149:6181   */\n  eq\n    /* \"#utility.yul\":6139:6199   */\n  tag_105\n  jumpi\n    /* \"#utility.yul\":6195:6196   */\n  0x00\n    /* \"#utility.yul\":6192:6193   */\n  dup1\n    /* \"#utility.yul\":6185:6197   */\n  revert\n    /* \"#utility.yul\":6139:6199   */\ntag_105:\n    /* \"#utility.yul\":6089:6205   */\n  pop\n  jump\t// out\n    /* \"#utility.yul\":6211:6333   */\ntag_39:\n    /* \"#utility.yul\":6284:6308   */\n  tag_107\n    /* \"#utility.yul\":6302:6307   */\n  dup2\n    /* \"#utility.yul\":6284:6308   */\n  tag_64\n  jump\t// in\ntag_107:\n    /* \"#utility.yul\":6277:6282   */\n  dup2\n    /* \"#utility.yul\":6274:6309   */\n  eq\n    /* \"#utility.yul\":6264:6327   */\n  tag_108\n  jumpi\n    /* \"#utility.yul\":6323:6324   */\n  0x00\n    /* \"#utility.yul\":6320:6321   */\n  dup1\n    /* \"#utility.yul\":6313:6325   */\n  revert\n    /* \"#utility.yul\":6264:6327   */\ntag_108:\n    /* \"#utility.yul\":6211:6333   */\n  pop\n  jump\t// out\n    /* \"PFG/Factoring.sol\":109:1823  contract Factoring{\r... */\ntag_13:\n  dataSize(sub_0)\n  dup1\n  dataOffset(sub_0)\n  0x00\n  codecopy\n  0x00\n  return\nstop\n\nsub_0: assembly {\n        /* \"PFG/Factoring.sol\":109:1823  contract Factoring{\r... */\n      mstore(0x40, 0x80)\n      callvalue\n      dup1\n      iszero\n      tag_1\n      jumpi\n      0x00\n      dup1\n      revert\n    tag_1:\n      pop\n      jumpi(tag_2, lt(calldatasize, 0x04))\n      shr(0xe0, calldataload(0x00))\n      dup1\n      0x68ff2d37\n      gt\n      tag_10\n      jumpi\n      dup1\n      0x68ff2d37\n      eq\n      tag_6\n      jumpi\n      dup1\n      0x9ec15039\n      eq\n      tag_7\n      jumpi\n      dup1\n      0xac007eff\n      eq\n      tag_8\n      jumpi\n      dup1\n      0xfb3ceda7\n      eq\n      tag_9\n      jumpi\n      jump(tag_2)\n    tag_10:\n      dup1\n      0x20965255\n      eq\n      tag_3\n      jumpi\n      dup1\n      0x2e3b3b18\n      eq\n      tag_4\n      jumpi\n      dup1\n      0x5c1548fb\n      eq\n      tag_5\n      jumpi\n    tag_2:\n      0x00\n      dup1\n      revert\n        /* \"PFG/Factoring.sol\":1540:1619  function getValue() public view returns(uint256){\r... */\n    tag_3:\n      tag_11\n      tag_12\n      jump\t// in\n    tag_11:\n      mload(0x40)\n      tag_13\n      swap2\n      swap1\n      tag_14\n      jump\t// in\n    tag_13:\n      mload(0x40)\n      dup1\n      swap2\n      sub\n      swap1\n      return\n        /* \"PFG/Factoring.sol\":1344:1431  function isVerifiedDoc() public view returns(bool) {\r... */\n    tag_4:\n      tag_15\n      tag_16\n      jump\t// in\n    tag_15:\n      mload(0x40)\n      tag_17\n      swap2\n      swap1\n      tag_18\n      jump\t// in\n    tag_17:\n      mload(0x40)\n      dup1\n      swap2\n      sub\n      swap1\n      return\n        /* \"PFG/Factoring.sol\":1715:1804  function getCollateral() public view returns(uint256){\r... */\n    tag_5:\n      tag_19\n      tag_20\n      jump\t// in\n    tag_19:\n      mload(0x40)\n      tag_21\n      swap2\n      swap1\n      tag_14\n      jump\t// in\n    tag_21:\n      mload(0x40)\n      dup1\n      swap2\n      sub\n      swap1\n      return\n        /* \"PFG/Factoring.sol\":389:417  Verificacio public verificat */\n    tag_6:\n      tag_22\n      tag_23\n      jump\t// in\n    tag_22:\n      mload(0x40)\n      tag_24\n      swap2\n      swap1\n      tag_25\n      jump\t// in\n    tag_24:\n      mload(0x40)\n      dup1\n      swap2\n      sub\n      swap1\n      return\n        /* \"PFG/Factoring.sol\":1251:1336  function getInvoicer() public view returns(address){\r... */\n    tag_7:\n      tag_26\n      tag_27\n      jump\t// in\n    tag_26:\n      mload(0x40)\n      tag_28\n      swap2\n      swap1\n      tag_29\n      jump\t// in\n    tag_28:\n      mload(0x40)\n      dup1\n      swap2\n      sub\n      swap1\n      return\n        /* \"PFG/Factoring.sol\":1439:1532  function isLiquidCollateral() public view returns(bool) {\r... */\n    tag_8:\n      tag_30\n      tag_31\n      jump\t// in\n    tag_30:\n      mload(0x40)\n      tag_32\n      swap2\n      swap1\n      tag_18\n      jump\t// in\n    tag_32:\n      mload(0x40)\n      dup1\n      swap2\n      sub\n      swap1\n      return\n        /* \"PFG/Factoring.sol\":1627:1707  function getExpDays() public view returns(uint){\r... */\n    tag_9:\n      tag_33\n      tag_34\n      jump\t// in\n    tag_33:\n      mload(0x40)\n      tag_35\n      swap2\n      swap1\n      tag_14\n      jump\t// in\n    tag_35:\n      mload(0x40)\n      dup1\n      swap2\n      sub\n      swap1\n      return\n        /* \"PFG/Factoring.sol\":1540:1619  function getValue() public view returns(uint256){\r... */\n    tag_12:\n        /* \"PFG/Factoring.sol\":1580:1587  uint256 */\n      0x00\n        /* \"PFG/Factoring.sol\":1606:1611  value */\n      sload(0x03)\n        /* \"PFG/Factoring.sol\":1599:1611  return value */\n      swap1\n      pop\n        /* \"PFG/Factoring.sol\":1540:1619  function getValue() public view returns(uint256){\r... */\n      swap1\n      jump\t// out\n        /* \"PFG/Factoring.sol\":1344:1431  function isVerifiedDoc() public view returns(bool) {\r... */\n    tag_16:\n        /* \"PFG/Factoring.sol\":1389:1393  bool */\n      0x00\n        /* \"PFG/Factoring.sol\":1413:1423  isVerified */\n      0x02\n      0x14\n      swap1\n      sload\n      swap1\n      0x0100\n      exp\n      swap1\n      div\n      0xff\n      and\n        /* \"PFG/Factoring.sol\":1406:1423  return isVerified */\n      swap1\n      pop\n        /* \"PFG/Factoring.sol\":1344:1431  function isVerifiedDoc() public view returns(bool) {\r... */\n      swap1\n      jump\t// out\n        /* \"PFG/Factoring.sol\":1715:1804  function getCollateral() public view returns(uint256){\r... */\n    tag_20:\n        /* \"PFG/Factoring.sol\":1760:1767  uint256 */\n      0x00\n        /* \"PFG/Factoring.sol\":1786:1796  collateral */\n      sload(0x05)\n        /* \"PFG/Factoring.sol\":1779:1796  return collateral */\n      swap1\n      pop\n        /* \"PFG/Factoring.sol\":1715:1804  function getCollateral() public view returns(uint256){\r... */\n      swap1\n      jump\t// out\n        /* \"PFG/Factoring.sol\":389:417  Verificacio public verificat */\n    tag_23:\n      0x02\n      0x00\n      swap1\n      sload\n      swap1\n      0x0100\n      exp\n      swap1\n      div\n      0xffffffffffffffffffffffffffffffffffffffff\n      and\n      dup2\n      jump\t// out\n        /* \"PFG/Factoring.sol\":1251:1336  function getInvoicer() public view returns(address){\r... */\n    tag_27:\n        /* \"PFG/Factoring.sol\":1294:1301  address */\n      0x00\n        /* \"PFG/Factoring.sol\":1320:1328  invoicer */\n      dup1\n      0x00\n      swap1\n      sload\n      swap1\n      0x0100\n      exp\n      swap1\n      div\n      0xffffffffffffffffffffffffffffffffffffffff\n      and\n        /* \"PFG/Factoring.sol\":1313:1328  return invoicer */\n      swap1\n      pop\n        /* \"PFG/Factoring.sol\":1251:1336  function getInvoicer() public view returns(address){\r... */\n      swap1\n      jump\t// out\n        /* \"PFG/Factoring.sol\":1439:1532  function isLiquidCollateral() public view returns(bool) {\r... */\n    tag_31:\n        /* \"PFG/Factoring.sol\":1489:1493  bool */\n      0x00\n        /* \"PFG/Factoring.sol\":1513:1524  isLiquidCol */\n      0x06\n      0x00\n      swap1\n      sload\n      swap1\n      0x0100\n      exp\n      swap1\n      div\n      0xff\n      and\n        /* \"PFG/Factoring.sol\":1506:1524  return isLiquidCol */\n      swap1\n      pop\n        /* \"PFG/Factoring.sol\":1439:1532  function isLiquidCollateral() public view returns(bool) {\r... */\n      swap1\n      jump\t// out\n        /* \"PFG/Factoring.sol\":1627:1707  function getExpDays() public view returns(uint){\r... */\n    tag_34:\n        /* \"PFG/Factoring.sol\":1669:1673  uint */\n      0x00\n        /* \"PFG/Factoring.sol\":1692:1699  expDays */\n      sload(0x04)\n        /* \"PFG/Factoring.sol\":1685:1699  return expDays */\n      swap1\n      pop\n        /* \"PFG/Factoring.sol\":1627:1707  function getExpDays() public view returns(uint){\r... */\n      swap1\n      jump\t// out\n        /* \"#utility.yul\":7:125   */\n    tag_43:\n        /* \"#utility.yul\":94:118   */\n      tag_45\n        /* \"#utility.yul\":112:117   */\n      dup2\n        /* \"#utility.yul\":94:118   */\n      tag_46\n      jump\t// in\n    tag_45:\n        /* \"#utility.yul\":89:92   */\n      dup3\n        /* \"#utility.yul\":82:119   */\n      mstore\n        /* \"#utility.yul\":7:125   */\n      pop\n      pop\n      jump\t// out\n        /* \"#utility.yul\":131:240   */\n    tag_47:\n        /* \"#utility.yul\":212:233   */\n      tag_49\n        /* \"#utility.yul\":227:232   */\n      dup2\n        /* \"#utility.yul\":212:233   */\n      tag_50\n      jump\t// in\n    tag_49:\n        /* \"#utility.yul\":207:210   */\n      dup3\n        /* \"#utility.yul\":200:234   */\n      mstore\n        /* \"#utility.yul\":131:240   */\n      pop\n      pop\n      jump\t// out\n        /* \"#utility.yul\":246:415   */\n    tag_51:\n        /* \"#utility.yul\":352:408   */\n      tag_53\n        /* \"#utility.yul\":402:407   */\n      dup2\n        /* \"#utility.yul\":352:408   */\n      tag_54\n      jump\t// in\n    tag_53:\n        /* \"#utility.yul\":347:350   */\n      dup3\n        /* \"#utility.yul\":340:409   */\n      mstore\n        /* \"#utility.yul\":246:415   */\n      pop\n      pop\n      jump\t// out\n        /* \"#utility.yul\":421:539   */\n    tag_55:\n        /* \"#utility.yul\":508:532   */\n      tag_57\n        /* \"#utility.yul\":526:531   */\n      dup2\n        /* \"#utility.yul\":508:532   */\n      tag_58\n      jump\t// in\n    tag_57:\n        /* \"#utility.yul\":503:506   */\n      dup3\n        /* \"#utility.yul\":496:533   */\n      mstore\n        /* \"#utility.yul\":421:539   */\n      pop\n      pop\n      jump\t// out\n        /* \"#utility.yul\":545:767   */\n    tag_29:\n        /* \"#utility.yul\":638:642   */\n      0x00\n        /* \"#utility.yul\":676:678   */\n      0x20\n        /* \"#utility.yul\":665:674   */\n      dup3\n        /* \"#utility.yul\":661:679   */\n      add\n        /* \"#utility.yul\":653:679   */\n      swap1\n      pop\n        /* \"#utility.yul\":689:760   */\n      tag_60\n        /* \"#utility.yul\":757:758   */\n      0x00\n        /* \"#utility.yul\":746:755   */\n      dup4\n        /* \"#utility.yul\":742:759   */\n      add\n        /* \"#utility.yul\":733:739   */\n      dup5\n        /* \"#utility.yul\":689:760   */\n      tag_43\n      jump\t// in\n    tag_60:\n        /* \"#utility.yul\":545:767   */\n      swap3\n      swap2\n      pop\n      pop\n      jump\t// out\n        /* \"#utility.yul\":773:983   */\n    tag_18:\n        /* \"#utility.yul\":860:864   */\n      0x00\n        /* \"#utility.yul\":898:900   */\n      0x20\n        /* \"#utility.yul\":887:896   */\n      dup3\n        /* \"#utility.yul\":883:901   */\n      add\n        /* \"#utility.yul\":875:901   */\n      swap1\n      pop\n        /* \"#utility.yul\":911:976   */\n      tag_62\n        /* \"#utility.yul\":973:974   */\n      0x00\n        /* \"#utility.yul\":962:971   */\n      dup4\n        /* \"#utility.yul\":958:975   */\n      add\n        /* \"#utility.yul\":949:955   */\n      dup5\n        /* \"#utility.yul\":911:976   */\n      tag_47\n      jump\t// in\n    tag_62:\n        /* \"#utility.yul\":773:983   */\n      swap3\n      swap2\n      pop\n      pop\n      jump\t// out\n        /* \"#utility.yul\":989:1249   */\n    tag_25:\n        /* \"#utility.yul\":1101:1105   */\n      0x00\n        /* \"#utility.yul\":1139:1141   */\n      0x20\n        /* \"#utility.yul\":1128:1137   */\n      dup3\n        /* \"#utility.yul\":1124:1142   */\n      add\n        /* \"#utility.yul\":1116:1142   */\n      swap1\n      pop\n        /* \"#utility.yul\":1152:1242   */\n      tag_64\n        /* \"#utility.yul\":1239:1240   */\n      0x00\n        /* \"#utility.yul\":1228:1237   */\n      dup4\n        /* \"#utility.yul\":1224:1241   */\n      add\n        /* \"#utility.yul\":1215:1221   */\n      dup5\n        /* \"#utility.yul\":1152:1242   */\n      tag_51\n      jump\t// in\n    tag_64:\n        /* \"#utility.yul\":989:1249   */\n      swap3\n      swap2\n      pop\n      pop\n      jump\t// out\n        /* \"#utility.yul\":1255:1477   */\n    tag_14:\n        /* \"#utility.yul\":1348:1352   */\n      0x00\n        /* \"#utility.yul\":1386:1388   */\n      0x20\n        /* \"#utility.yul\":1375:1384   */\n      dup3\n        /* \"#utility.yul\":1371:1389   */\n      add\n        /* \"#utility.yul\":1363:1389   */\n      swap1\n      pop\n        /* \"#utility.yul\":1399:1470   */\n      tag_66\n        /* \"#utility.yul\":1467:1468   */\n      0x00\n        /* \"#utility.yul\":1456:1465   */\n      dup4\n        /* \"#utility.yul\":1452:1469   */\n      add\n        /* \"#utility.yul\":1443:1449   */\n      dup5\n        /* \"#utility.yul\":1399:1470   */\n      tag_55\n      jump\t// in\n    tag_66:\n        /* \"#utility.yul\":1255:1477   */\n      swap3\n      swap2\n      pop\n      pop\n      jump\t// out\n        /* \"#utility.yul\":1483:1579   */\n    tag_46:\n        /* \"#utility.yul\":1520:1527   */\n      0x00\n        /* \"#utility.yul\":1549:1573   */\n      tag_68\n        /* \"#utility.yul\":1567:1572   */\n      dup3\n        /* \"#utility.yul\":1549:1573   */\n      tag_69\n      jump\t// in\n    tag_68:\n        /* \"#utility.yul\":1538:1573   */\n      swap1\n      pop\n        /* \"#utility.yul\":1483:1579   */\n      swap2\n      swap1\n      pop\n      jump\t// out\n        /* \"#utility.yul\":1585:1675   */\n    tag_50:\n        /* \"#utility.yul\":1619:1626   */\n      0x00\n        /* \"#utility.yul\":1662:1667   */\n      dup2\n        /* \"#utility.yul\":1655:1668   */\n      iszero\n        /* \"#utility.yul\":1648:1669   */\n      iszero\n        /* \"#utility.yul\":1637:1669   */\n      swap1\n      pop\n        /* \"#utility.yul\":1585:1675   */\n      swap2\n      swap1\n      pop\n      jump\t// out\n        /* \"#utility.yul\":1681:1807   */\n    tag_69:\n        /* \"#utility.yul\":1718:1725   */\n      0x00\n        /* \"#utility.yul\":1758:1800   */\n      0xffffffffffffffffffffffffffffffffffffffff\n        /* \"#utility.yul\":1751:1756   */\n      dup3\n        /* \"#utility.yul\":1747:1801   */\n      and\n        /* \"#utility.yul\":1736:1801   */\n      swap1\n      pop\n        /* \"#utility.yul\":1681:1807   */\n      swap2\n      swap1\n      pop\n      jump\t// out\n        /* \"#utility.yul\":1813:1890   */\n    tag_58:\n        /* \"#utility.yul\":1850:1857   */\n      0x00\n        /* \"#utility.yul\":1879:1884   */\n      dup2\n        /* \"#utility.yul\":1868:1884   */\n      swap1\n      pop\n        /* \"#utility.yul\":1813:1890   */\n      swap2\n      swap1\n      pop\n      jump\t// out\n        /* \"#utility.yul\":1896:2041   */\n    tag_54:\n        /* \"#utility.yul\":1965:1974   */\n      0x00\n        /* \"#utility.yul\":1998:2035   */\n      tag_74\n        /* \"#utility.yul\":2029:2034   */\n      dup3\n        /* \"#utility.yul\":1998:2035   */\n      tag_75\n      jump\t// in\n    tag_74:\n        /* \"#utility.yul\":1985:2035   */\n      swap1\n      pop\n        /* \"#utility.yul\":1896:2041   */\n      swap2\n      swap1\n      pop\n      jump\t// out\n        /* \"#utility.yul\":2047:2173   */\n    tag_75:\n        /* \"#utility.yul\":2097:2106   */\n      0x00\n        /* \"#utility.yul\":2130:2167   */\n      tag_77\n        /* \"#utility.yul\":2161:2166   */\n      dup3\n        /* \"#utility.yul\":2130:2167   */\n      tag_78\n      jump\t// in\n    tag_77:\n        /* \"#utility.yul\":2117:2167   */\n      swap1\n      pop\n        /* \"#utility.yul\":2047:2173   */\n      swap2\n      swap1\n      pop\n      jump\t// out\n        /* \"#utility.yul\":2179:2292   */\n    tag_78:\n        /* \"#utility.yul\":2229:2238   */\n      0x00\n        /* \"#utility.yul\":2262:2286   */\n      tag_80\n        /* \"#utility.yul\":2280:2285   */\n      dup3\n        /* \"#utility.yul\":2262:2286   */\n      tag_69\n      jump\t// in\n    tag_80:\n        /* \"#utility.yul\":2249:2286   */\n      swap1\n      pop\n        /* \"#utility.yul\":2179:2292   */\n      swap2\n      swap1\n      pop\n      jump\t// out\n\n    auxdata: 0xa2646970667358221220dc5bd00b44744d4f241017f635e1173814e2b6bb99574d70da0c3412f59e85a264736f6c63430008070033\n}\n\nsub_1: assembly {\n        /* \"PFG/Verificador.sol\":74:2772  contract Verificacio{\r... */\n      mstore(0x40, 0x80)\n        /* \"PFG/Verificador.sol\":749:907  constructor(string memory _filename) {\r... */\n      callvalue\n      dup1\n      iszero\n      tag_1\n      jumpi\n      0x00\n      dup1\n      revert\n    tag_1:\n      pop\n      mload(0x40)\n      sub(codesize, bytecodeSize)\n      dup1\n      bytecodeSize\n      dup4\n      codecopy\n      dup2\n      dup2\n      add\n      0x40\n      mstore\n      dup2\n      add\n      swap1\n      tag_2\n      swap2\n      swap1\n      tag_3\n      jump\t// in\n    tag_2:\n        /* \"PFG/Verificador.sol\":810:820  msg.sender */\n      caller\n        /* \"PFG/Verificador.sol\":797:807  propietari */\n      0x00\n      dup1\n        /* \"PFG/Verificador.sol\":797:820  propietari = msg.sender */\n      0x0100\n      exp\n      dup2\n      sload\n      dup2\n      0xffffffffffffffffffffffffffffffffffffffff\n      mul\n      not\n      and\n      swap1\n      dup4\n      0xffffffffffffffffffffffffffffffffffffffff\n      and\n      mul\n      or\n      swap1\n      sstore\n      pop\n        /* \"PFG/Verificador.sol\":842:851  _filename */\n      dup1\n        /* \"PFG/Verificador.sol\":831:839  filename */\n      0x01\n        /* \"PFG/Verificador.sol\":831:851  filename = _filename */\n      swap1\n      dup1\n      mload\n      swap1\n      0x20\n      add\n      swap1\n      tag_6\n      swap3\n      swap2\n      swap1\n      tag_7\n      jump\t// in\n    tag_6:\n      pop\n        /* \"PFG/Verificador.sol\":878:888  propietari */\n      0x00\n      dup1\n      sload\n      swap1\n      0x0100\n      exp\n      swap1\n      div\n      0xffffffffffffffffffffffffffffffffffffffff\n      and\n        /* \"PFG/Verificador.sol\":869:899  OwnerSet(propietari, filename) */\n      0xffffffffffffffffffffffffffffffffffffffff\n      and\n      0x3d6aba6def46bd8784b0b6505c24d0aa59cd9316e6c5db593d3d8470797d7a3e\n        /* \"PFG/Verificador.sol\":890:898  filename */\n      0x01\n        /* \"PFG/Verificador.sol\":869:899  OwnerSet(propietari, filename) */\n      mload(0x40)\n      tag_8\n      swap2\n      swap1\n      tag_9\n      jump\t// in\n    tag_8:\n      mload(0x40)\n      dup1\n      swap2\n      sub\n      swap1\n      log2\n        /* \"PFG/Verificador.sol\":749:907  constructor(string memory _filename) {\r... */\n      pop\n        /* \"PFG/Verificador.sol\":74:2772  contract Verificacio{\r... */\n      jump(tag_10)\n    tag_7:\n      dup3\n      dup1\n      sload\n      tag_11\n      swap1\n      tag_12\n      jump\t// in\n    tag_11:\n      swap1\n      0x00\n      mstore\n      keccak256(0x00, 0x20)\n      swap1\n      0x1f\n      add\n      0x20\n      swap1\n      div\n      dup2\n      add\n      swap3\n      dup3\n      tag_14\n      jumpi\n      0x00\n      dup6\n      sstore\n      jump(tag_13)\n    tag_14:\n      dup3\n      0x1f\n      lt\n      tag_15\n      jumpi\n      dup1\n      mload\n      not(0xff)\n      and\n      dup4\n      dup1\n      add\n      or\n      dup6\n      sstore\n      jump(tag_13)\n    tag_15:\n      dup3\n      dup1\n      add\n      0x01\n      add\n      dup6\n      sstore\n      dup3\n      iszero\n      tag_13\n      jumpi\n      swap2\n      dup3\n      add\n    tag_16:\n      dup3\n      dup2\n      gt\n      iszero\n      tag_17\n      jumpi\n      dup3\n      mload\n      dup3\n      sstore\n      swap2\n      0x20\n      add\n      swap2\n      swap1\n      0x01\n      add\n      swap1\n      jump(tag_16)\n    tag_17:\n    tag_13:\n      pop\n      swap1\n      pop\n      tag_18\n      swap2\n      swap1\n      tag_19\n      jump\t// in\n    tag_18:\n      pop\n      swap1\n      jump\t// out\n    tag_19:\n    tag_20:\n      dup1\n      dup3\n      gt\n      iszero\n      tag_21\n      jumpi\n      0x00\n      dup2\n      0x00\n      swap1\n      sstore\n      pop\n      0x01\n      add\n      jump(tag_20)\n    tag_21:\n      pop\n      swap1\n      jump\t// out\n        /* \"#utility.yul\":7:428   */\n    tag_23:\n        /* \"#utility.yul\":96:101   */\n      0x00\n        /* \"#utility.yul\":121:187   */\n      tag_25\n        /* \"#utility.yul\":137:186   */\n      tag_26\n        /* \"#utility.yul\":179:185   */\n      dup5\n        /* \"#utility.yul\":137:186   */\n      tag_27\n      jump\t// in\n    tag_26:\n        /* \"#utility.yul\":121:187   */\n      tag_28\n      jump\t// in\n    tag_25:\n        /* \"#utility.yul\":112:187   */\n      swap1\n      pop\n        /* \"#utility.yul\":210:216   */\n      dup3\n        /* \"#utility.yul\":203:208   */\n      dup2\n        /* \"#utility.yul\":196:217   */\n      mstore\n        /* \"#utility.yul\":248:252   */\n      0x20\n        /* \"#utility.yul\":241:246   */\n      dup2\n        /* \"#utility.yul\":237:253   */\n      add\n        /* \"#utility.yul\":286:289   */\n      dup5\n        /* \"#utility.yul\":277:283   */\n      dup5\n        /* \"#utility.yul\":272:275   */\n      dup5\n        /* \"#utility.yul\":268:284   */\n      add\n        /* \"#utility.yul\":265:290   */\n      gt\n        /* \"#utility.yul\":262:374   */\n      iszero\n      tag_29\n      jumpi\n        /* \"#utility.yul\":293:372   */\n      tag_30\n      tag_31\n      jump\t// in\n    tag_30:\n        /* \"#utility.yul\":262:374   */\n    tag_29:\n        /* \"#utility.yul\":383:422   */\n      tag_32\n        /* \"#utility.yul\":415:421   */\n      dup5\n        /* \"#utility.yul\":410:413   */\n      dup3\n        /* \"#utility.yul\":405:408   */\n      dup6\n        /* \"#utility.yul\":383:422   */\n      tag_33\n      jump\t// in\n    tag_32:\n        /* \"#utility.yul\":102:428   */\n      pop\n        /* \"#utility.yul\":7:428   */\n      swap4\n      swap3\n      pop\n      pop\n      pop\n      jump\t// out\n        /* \"#utility.yul\":448:803   */\n    tag_34:\n        /* \"#utility.yul\":515:520   */\n      0x00\n        /* \"#utility.yul\":564:567   */\n      dup3\n        /* \"#utility.yul\":557:561   */\n      0x1f\n        /* \"#utility.yul\":549:555   */\n      dup4\n        /* \"#utility.yul\":545:562   */\n      add\n        /* \"#utility.yul\":541:568   */\n      slt\n        /* \"#utility.yul\":531:653   */\n      tag_36\n      jumpi\n        /* \"#utility.yul\":572:651   */\n      tag_37\n      tag_38\n      jump\t// in\n    tag_37:\n        /* \"#utility.yul\":531:653   */\n    tag_36:\n        /* \"#utility.yul\":682:688   */\n      dup2\n        /* \"#utility.yul\":676:689   */\n      mload\n        /* \"#utility.yul\":707:797   */\n      tag_39\n        /* \"#utility.yul\":793:796   */\n      dup5\n        /* \"#utility.yul\":785:791   */\n      dup3\n        /* \"#utility.yul\":778:782   */\n      0x20\n        /* \"#utility.yul\":770:776   */\n      dup7\n        /* \"#utility.yul\":766:783   */\n      add\n        /* \"#utility.yul\":707:797   */\n      tag_23\n      jump\t// in\n    tag_39:\n        /* \"#utility.yul\":698:797   */\n      swap2\n      pop\n        /* \"#utility.yul\":521:803   */\n      pop\n        /* \"#utility.yul\":448:803   */\n      swap3\n      swap2\n      pop\n      pop\n      jump\t// out\n        /* \"#utility.yul\":809:1333   */\n    tag_3:\n        /* \"#utility.yul\":889:895   */\n      0x00\n        /* \"#utility.yul\":938:940   */\n      0x20\n        /* \"#utility.yul\":926:935   */\n      dup3\n        /* \"#utility.yul\":917:924   */\n      dup5\n        /* \"#utility.yul\":913:936   */\n      sub\n        /* \"#utility.yul\":909:941   */\n      slt\n        /* \"#utility.yul\":906:1025   */\n      iszero\n      tag_41\n      jumpi\n        /* \"#utility.yul\":944:1023   */\n      tag_42\n      tag_43\n      jump\t// in\n    tag_42:\n        /* \"#utility.yul\":906:1025   */\n    tag_41:\n        /* \"#utility.yul\":1085:1086   */\n      0x00\n        /* \"#utility.yul\":1074:1083   */\n      dup3\n        /* \"#utility.yul\":1070:1087   */\n      add\n        /* \"#utility.yul\":1064:1088   */\n      mload\n        /* \"#utility.yul\":1115:1133   */\n      0xffffffffffffffff\n        /* \"#utility.yul\":1107:1113   */\n      dup2\n        /* \"#utility.yul\":1104:1134   */\n      gt\n        /* \"#utility.yul\":1101:1218   */\n      iszero\n      tag_44\n      jumpi\n        /* \"#utility.yul\":1137:1216   */\n      tag_45\n      tag_46\n      jump\t// in\n    tag_45:\n        /* \"#utility.yul\":1101:1218   */\n    tag_44:\n        /* \"#utility.yul\":1242:1316   */\n      tag_47\n        /* \"#utility.yul\":1308:1315   */\n      dup5\n        /* \"#utility.yul\":1299:1305   */\n      dup3\n        /* \"#utility.yul\":1288:1297   */\n      dup6\n        /* \"#utility.yul\":1284:1306   */\n      add\n        /* \"#utility.yul\":1242:1316   */\n      tag_34\n      jump\t// in\n    tag_47:\n        /* \"#utility.yul\":1232:1316   */\n      swap2\n      pop\n        /* \"#utility.yul\":1035:1326   */\n      pop\n        /* \"#utility.yul\":809:1333   */\n      swap3\n      swap2\n      pop\n      pop\n      jump\t// out\n        /* \"#utility.yul\":1363:2165   */\n    tag_48:\n        /* \"#utility.yul\":1448:1451   */\n      0x00\n        /* \"#utility.yul\":1485:1490   */\n      dup2\n        /* \"#utility.yul\":1479:1491   */\n      sload\n        /* \"#utility.yul\":1514:1550   */\n      tag_50\n        /* \"#utility.yul\":1540:1549   */\n      dup2\n        /* \"#utility.yul\":1514:1550   */\n      tag_12\n      jump\t// in\n    tag_50:\n        /* \"#utility.yul\":1566:1637   */\n      tag_51\n        /* \"#utility.yul\":1630:1636   */\n      dup2\n        /* \"#utility.yul\":1625:1628   */\n      dup7\n        /* \"#utility.yul\":1566:1637   */\n      tag_52\n      jump\t// in\n    tag_51:\n        /* \"#utility.yul\":1559:1637   */\n      swap5\n      pop\n        /* \"#utility.yul\":1668:1669   */\n      0x01\n        /* \"#utility.yul\":1657:1666   */\n      dup3\n        /* \"#utility.yul\":1653:1670   */\n      and\n        /* \"#utility.yul\":1684:1685   */\n      0x00\n        /* \"#utility.yul\":1679:1814   */\n      dup2\n      eq\n      tag_54\n      jumpi\n        /* \"#utility.yul\":1828:1829   */\n      0x01\n        /* \"#utility.yul\":1823:2159   */\n      dup2\n      eq\n      tag_55\n      jumpi\n        /* \"#utility.yul\":1646:2159   */\n      jump(tag_53)\n        /* \"#utility.yul\":1679:1814   */\n    tag_54:\n        /* \"#utility.yul\":1763:1767   */\n      0xff\n        /* \"#utility.yul\":1759:1768   */\n      not\n        /* \"#utility.yul\":1748:1757   */\n      dup4\n        /* \"#utility.yul\":1744:1769   */\n      and\n        /* \"#utility.yul\":1739:1742   */\n      dup7\n        /* \"#utility.yul\":1732:1770   */\n      mstore\n        /* \"#utility.yul\":1799:1803   */\n      0x20\n        /* \"#utility.yul\":1794:1797   */\n      dup7\n        /* \"#utility.yul\":1790:1804   */\n      add\n        /* \"#utility.yul\":1783:1804   */\n      swap4\n      pop\n        /* \"#utility.yul\":1679:1814   */\n      jump(tag_53)\n        /* \"#utility.yul\":1823:2159   */\n    tag_55:\n        /* \"#utility.yul\":1890:1928   */\n      tag_56\n        /* \"#utility.yul\":1922:1927   */\n      dup6\n        /* \"#utility.yul\":1890:1928   */\n      tag_57\n      jump\t// in\n    tag_56:\n        /* \"#utility.yul\":1950:1951   */\n      0x00\n        /* \"#utility.yul\":1964:2118   */\n    tag_58:\n        /* \"#utility.yul\":1978:1984   */\n      dup4\n        /* \"#utility.yul\":1975:1976   */\n      dup2\n        /* \"#utility.yul\":1972:1985   */\n      lt\n        /* \"#utility.yul\":1964:2118   */\n      iszero\n      tag_60\n      jumpi\n        /* \"#utility.yul\":2052:2059   */\n      dup2\n        /* \"#utility.yul\":2046:2060   */\n      sload\n        /* \"#utility.yul\":2042:2043   */\n      dup2\n        /* \"#utility.yul\":2037:2040   */\n      dup10\n        /* \"#utility.yul\":2033:2044   */\n      add\n        /* \"#utility.yul\":2026:2061   */\n      mstore\n        /* \"#utility.yul\":2102:2103   */\n      0x01\n        /* \"#utility.yul\":2093:2100   */\n      dup3\n        /* \"#utility.yul\":2089:2104   */\n      add\n        /* \"#utility.yul\":2078:2104   */\n      swap2\n      pop\n        /* \"#utility.yul\":2000:2004   */\n      0x20\n        /* \"#utility.yul\":1997:1998   */\n      dup2\n        /* \"#utility.yul\":1993:2005   */\n      add\n        /* \"#utility.yul\":1988:2005   */\n      swap1\n      pop\n        /* \"#utility.yul\":1964:2118   */\n      jump(tag_58)\n    tag_60:\n        /* \"#utility.yul\":2147:2148   */\n      dup1\n        /* \"#utility.yul\":2142:2145   */\n      dup9\n        /* \"#utility.yul\":2138:2149   */\n      add\n        /* \"#utility.yul\":2131:2149   */\n      swap6\n      pop\n        /* \"#utility.yul\":1830:2159   */\n      pop\n      pop\n        /* \"#utility.yul\":1646:2159   */\n    tag_53:\n      pop\n        /* \"#utility.yul\":1452:2165   */\n      pop\n      pop\n        /* \"#utility.yul\":1363:2165   */\n      swap3\n      swap2\n      pop\n      pop\n      jump\t// out\n        /* \"#utility.yul\":2171:2478   */\n    tag_9:\n        /* \"#utility.yul\":2281:2285   */\n      0x00\n        /* \"#utility.yul\":2319:2321   */\n      0x20\n        /* \"#utility.yul\":2308:2317   */\n      dup3\n        /* \"#utility.yul\":2304:2322   */\n      add\n        /* \"#utility.yul\":2296:2322   */\n      swap1\n      pop\n        /* \"#utility.yul\":2368:2377   */\n      dup2\n        /* \"#utility.yul\":2362:2366   */\n      dup2\n        /* \"#utility.yul\":2358:2378   */\n      sub\n        /* \"#utility.yul\":2354:2355   */\n      0x00\n        /* \"#utility.yul\":2343:2352   */\n      dup4\n        /* \"#utility.yul\":2339:2356   */\n      add\n        /* \"#utility.yul\":2332:2379   */\n      mstore\n        /* \"#utility.yul\":2396:2471   */\n      tag_62\n        /* \"#utility.yul\":2466:2470   */\n      dup2\n        /* \"#utility.yul\":2457:2463   */\n      dup5\n        /* \"#utility.yul\":2396:2471   */\n      tag_48\n      jump\t// in\n    tag_62:\n        /* \"#utility.yul\":2388:2471   */\n      swap1\n      pop\n        /* \"#utility.yul\":2171:2478   */\n      swap3\n      swap2\n      pop\n      pop\n      jump\t// out\n        /* \"#utility.yul\":2484:2613   */\n    tag_28:\n        /* \"#utility.yul\":2518:2524   */\n      0x00\n        /* \"#utility.yul\":2545:2565   */\n      tag_64\n      tag_65\n      jump\t// in\n    tag_64:\n        /* \"#utility.yul\":2535:2565   */\n      swap1\n      pop\n        /* \"#utility.yul\":2574:2607   */\n      tag_66\n        /* \"#utility.yul\":2602:2606   */\n      dup3\n        /* \"#utility.yul\":2594:2600   */\n      dup3\n        /* \"#utility.yul\":2574:2607   */\n      tag_67\n      jump\t// in\n    tag_66:\n        /* \"#utility.yul\":2484:2613   */\n      swap2\n      swap1\n      pop\n      jump\t// out\n        /* \"#utility.yul\":2619:2694   */\n    tag_65:\n        /* \"#utility.yul\":2652:2658   */\n      0x00\n        /* \"#utility.yul\":2685:2687   */\n      0x40\n        /* \"#utility.yul\":2679:2688   */\n      mload\n        /* \"#utility.yul\":2669:2688   */\n      swap1\n      pop\n        /* \"#utility.yul\":2619:2694   */\n      swap1\n      jump\t// out\n        /* \"#utility.yul\":2700:3008   */\n    tag_27:\n        /* \"#utility.yul\":2762:2766   */\n      0x00\n        /* \"#utility.yul\":2852:2870   */\n      0xffffffffffffffff\n        /* \"#utility.yul\":2844:2850   */\n      dup3\n        /* \"#utility.yul\":2841:2871   */\n      gt\n        /* \"#utility.yul\":2838:2894   */\n      iszero\n      tag_70\n      jumpi\n        /* \"#utility.yul\":2874:2892   */\n      tag_71\n      tag_72\n      jump\t// in\n    tag_71:\n        /* \"#utility.yul\":2838:2894   */\n    tag_70:\n        /* \"#utility.yul\":2912:2941   */\n      tag_73\n        /* \"#utility.yul\":2934:2940   */\n      dup3\n        /* \"#utility.yul\":2912:2941   */\n      tag_74\n      jump\t// in\n    tag_73:\n        /* \"#utility.yul\":2904:2941   */\n      swap1\n      pop\n        /* \"#utility.yul\":2996:3000   */\n      0x20\n        /* \"#utility.yul\":2990:2994   */\n      dup2\n        /* \"#utility.yul\":2986:3001   */\n      add\n        /* \"#utility.yul\":2978:3001   */\n      swap1\n      pop\n        /* \"#utility.yul\":2700:3008   */\n      swap2\n      swap1\n      pop\n      jump\t// out\n        /* \"#utility.yul\":3014:3155   */\n    tag_57:\n        /* \"#utility.yul\":3063:3067   */\n      0x00\n        /* \"#utility.yul\":3086:3089   */\n      dup2\n        /* \"#utility.yul\":3078:3089   */\n      swap1\n      pop\n        /* \"#utility.yul\":3109:3112   */\n      dup2\n        /* \"#utility.yul\":3106:3107   */\n      0x00\n        /* \"#utility.yul\":3099:3113   */\n      mstore\n        /* \"#utility.yul\":3143:3147   */\n      0x20\n        /* \"#utility.yul\":3140:3141   */\n      0x00\n        /* \"#utility.yul\":3130:3148   */\n      keccak256\n        /* \"#utility.yul\":3122:3148   */\n      swap1\n      pop\n        /* \"#utility.yul\":3014:3155   */\n      swap2\n      swap1\n      pop\n      jump\t// out\n        /* \"#utility.yul\":3161:3330   */\n    tag_52:\n        /* \"#utility.yul\":3245:3256   */\n      0x00\n        /* \"#utility.yul\":3279:3285   */\n      dup3\n        /* \"#utility.yul\":3274:3277   */\n      dup3\n        /* \"#utility.yul\":3267:3286   */\n      mstore\n        /* \"#utility.yul\":3319:3323   */\n      0x20\n        /* \"#utility.yul\":3314:3317   */\n      dup3\n        /* \"#utility.yul\":3310:3324   */\n      add\n        /* \"#utility.yul\":3295:3324   */\n      swap1\n      pop\n        /* \"#utility.yul\":3161:3330   */\n      swap3\n      swap2\n      pop\n      pop\n      jump\t// out\n        /* \"#utility.yul\":3336:3643   */\n    tag_33:\n        /* \"#utility.yul\":3404:3405   */\n      0x00\n        /* \"#utility.yul\":3414:3527   */\n    tag_78:\n        /* \"#utility.yul\":3428:3434   */\n      dup4\n        /* \"#utility.yul\":3425:3426   */\n      dup2\n        /* \"#utility.yul\":3422:3435   */\n      lt\n        /* \"#utility.yul\":3414:3527   */\n      iszero\n      tag_80\n      jumpi\n        /* \"#utility.yul\":3513:3514   */\n      dup1\n        /* \"#utility.yul\":3508:3511   */\n      dup3\n        /* \"#utility.yul\":3504:3515   */\n      add\n        /* \"#utility.yul\":3498:3516   */\n      mload\n        /* \"#utility.yul\":3494:3495   */\n      dup2\n        /* \"#utility.yul\":3489:3492   */\n      dup5\n        /* \"#utility.yul\":3485:3496   */\n      add\n        /* \"#utility.yul\":3478:3517   */\n      mstore\n        /* \"#utility.yul\":3450:3452   */\n      0x20\n        /* \"#utility.yul\":3447:3448   */\n      dup2\n        /* \"#utility.yul\":3443:3453   */\n      add\n        /* \"#utility.yul\":3438:3453   */\n      swap1\n      pop\n        /* \"#utility.yul\":3414:3527   */\n      jump(tag_78)\n    tag_80:\n        /* \"#utility.yul\":3545:3551   */\n      dup4\n        /* \"#utility.yul\":3542:3543   */\n      dup2\n        /* \"#utility.yul\":3539:3552   */\n      gt\n        /* \"#utility.yul\":3536:3637   */\n      iszero\n      tag_81\n      jumpi\n        /* \"#utility.yul\":3625:3626   */\n      0x00\n        /* \"#utility.yul\":3616:3622   */\n      dup5\n        /* \"#utility.yul\":3611:3614   */\n      dup5\n        /* \"#utility.yul\":3607:3623   */\n      add\n        /* \"#utility.yul\":3600:3627   */\n      mstore\n        /* \"#utility.yul\":3536:3637   */\n    tag_81:\n        /* \"#utility.yul\":3385:3643   */\n      pop\n        /* \"#utility.yul\":3336:3643   */\n      pop\n      pop\n      pop\n      jump\t// out\n        /* \"#utility.yul\":3649:3969   */\n    tag_12:\n        /* \"#utility.yul\":3693:3699   */\n      0x00\n        /* \"#utility.yul\":3730:3731   */\n      0x02\n        /* \"#utility.yul\":3724:3728   */\n      dup3\n        /* \"#utility.yul\":3720:3732   */\n      div\n        /* \"#utility.yul\":3710:3732   */\n      swap1\n      pop\n        /* \"#utility.yul\":3777:3778   */\n      0x01\n        /* \"#utility.yul\":3771:3775   */\n      dup3\n        /* \"#utility.yul\":3767:3779   */\n      and\n        /* \"#utility.yul\":3798:3816   */\n      dup1\n        /* \"#utility.yul\":3788:3869   */\n      tag_83\n      jumpi\n        /* \"#utility.yul\":3854:3858   */\n      0x7f\n        /* \"#utility.yul\":3846:3852   */\n      dup3\n        /* \"#utility.yul\":3842:3859   */\n      and\n        /* \"#utility.yul\":3832:3859   */\n      swap2\n      pop\n        /* \"#utility.yul\":3788:3869   */\n    tag_83:\n        /* \"#utility.yul\":3916:3918   */\n      0x20\n        /* \"#utility.yul\":3908:3914   */\n      dup3\n        /* \"#utility.yul\":3905:3919   */\n      lt\n        /* \"#utility.yul\":3885:3903   */\n      dup2\n        /* \"#utility.yul\":3882:3920   */\n      eq\n        /* \"#utility.yul\":3879:3963   */\n      iszero\n      tag_84\n      jumpi\n        /* \"#utility.yul\":3935:3953   */\n      tag_85\n      tag_86\n      jump\t// in\n    tag_85:\n        /* \"#utility.yul\":3879:3963   */\n    tag_84:\n        /* \"#utility.yul\":3700:3969   */\n      pop\n        /* \"#utility.yul\":3649:3969   */\n      swap2\n      swap1\n      pop\n      jump\t// out\n        /* \"#utility.yul\":3975:4256   */\n    tag_67:\n        /* \"#utility.yul\":4058:4085   */\n      tag_88\n        /* \"#utility.yul\":4080:4084   */\n      dup3\n        /* \"#utility.yul\":4058:4085   */\n      tag_74\n      jump\t// in\n    tag_88:\n        /* \"#utility.yul\":4050:4056   */\n      dup2\n        /* \"#utility.yul\":4046:4086   */\n      add\n        /* \"#utility.yul\":4188:4194   */\n      dup2\n        /* \"#utility.yul\":4176:4186   */\n      dup2\n        /* \"#utility.yul\":4173:4195   */\n      lt\n        /* \"#utility.yul\":4152:4170   */\n      0xffffffffffffffff\n        /* \"#utility.yul\":4140:4150   */\n      dup3\n        /* \"#utility.yul\":4137:4171   */\n      gt\n        /* \"#utility.yul\":4134:4196   */\n      or\n        /* \"#utility.yul\":4131:4219   */\n      iszero\n      tag_89\n      jumpi\n        /* \"#utility.yul\":4199:4217   */\n      tag_90\n      tag_72\n      jump\t// in\n    tag_90:\n        /* \"#utility.yul\":4131:4219   */\n    tag_89:\n        /* \"#utility.yul\":4239:4249   */\n      dup1\n        /* \"#utility.yul\":4235:4237   */\n      0x40\n        /* \"#utility.yul\":4228:4250   */\n      mstore\n        /* \"#utility.yul\":4018:4256   */\n      pop\n        /* \"#utility.yul\":3975:4256   */\n      pop\n      pop\n      jump\t// out\n        /* \"#utility.yul\":4262:4442   */\n    tag_86:\n        /* \"#utility.yul\":4310:4387   */\n      0x4e487b7100000000000000000000000000000000000000000000000000000000\n        /* \"#utility.yul\":4307:4308   */\n      0x00\n        /* \"#utility.yul\":4300:4388   */\n      mstore\n        /* \"#utility.yul\":4407:4411   */\n      0x22\n        /* \"#utility.yul\":4404:4405   */\n      0x04\n        /* \"#utility.yul\":4397:4412   */\n      mstore\n        /* \"#utility.yul\":4431:4435   */\n      0x24\n        /* \"#utility.yul\":4428:4429   */\n      0x00\n        /* \"#utility.yul\":4421:4436   */\n      revert\n        /* \"#utility.yul\":4448:4628   */\n    tag_72:\n        /* \"#utility.yul\":4496:4573   */\n      0x4e487b7100000000000000000000000000000000000000000000000000000000\n        /* \"#utility.yul\":4493:4494   */\n      0x00\n        /* \"#utility.yul\":4486:4574   */\n      mstore\n        /* \"#utility.yul\":4593:4597   */\n      0x41\n        /* \"#utility.yul\":4590:4591   */\n      0x04\n        /* \"#utility.yul\":4583:4598   */\n      mstore\n        /* \"#utility.yul\":4617:4621   */\n      0x24\n        /* \"#utility.yul\":4614:4615   */\n      0x00\n        /* \"#utility.yul\":4607:4622   */\n      revert\n        /* \"#utility.yul\":4634:4751   */\n    tag_38:\n        /* \"#utility.yul\":4743:4744   */\n      0x00\n        /* \"#utility.yul\":4740:4741   */\n      dup1\n        /* \"#utility.yul\":4733:4745   */\n      revert\n        /* \"#utility.yul\":4757:4874   */\n    tag_31:\n        /* \"#utility.yul\":4866:4867   */\n      0x00\n        /* \"#utility.yul\":4863:4864   */\n      dup1\n        /* \"#utility.yul\":4856:4868   */\n      revert\n        /* \"#utility.yul\":4880:4997   */\n    tag_46:\n        /* \"#utility.yul\":4989:4990   */\n      0x00\n        /* \"#utility.yul\":4986:4987   */\n      dup1\n        /* \"#utility.yul\":4979:4991   */\n      revert\n        /* \"#utility.yul\":5003:5120   */\n    tag_43:\n        /* \"#utility.yul\":5112:5113   */\n      0x00\n        /* \"#utility.yul\":5109:5110   */\n      dup1\n        /* \"#utility.yul\":5102:5114   */\n      revert\n        /* \"#utility.yul\":5126:5228   */\n    tag_74:\n        /* \"#utility.yul\":5167:5173   */\n      0x00\n        /* \"#utility.yul\":5218:5220   */\n      0x1f\n        /* \"#utility.yul\":5214:5221   */\n      not\n        /* \"#utility.yul\":5209:5211   */\n      0x1f\n        /* \"#utility.yul\":5202:5207   */\n      dup4\n        /* \"#utility.yul\":5198:5212   */\n      add\n        /* \"#utility.yul\":5194:5222   */\n      and\n        /* \"#utility.yul\":5184:5222   */\n      swap1\n      pop\n        /* \"#utility.yul\":5126:5228   */\n      swap2\n      swap1\n      pop\n      jump\t// out\n        /* \"PFG/Verificador.sol\":74:2772  contract Verificacio{\r... */\n    tag_10:\n      dataSize(sub_0)\n      dup1\n      dataOffset(sub_0)\n      0x00\n      codecopy\n      0x00\n      return\n    stop\n\n    sub_0: assembly {\n            /* \"PFG/Verificador.sol\":74:2772  contract Verificacio{\r... */\n          mstore(0x40, 0x80)\n          callvalue\n          dup1\n          iszero\n          tag_1\n          jumpi\n          0x00\n          dup1\n          revert\n        tag_1:\n          pop\n          jumpi(tag_2, lt(calldatasize, 0x04))\n          shr(0xe0, calldataload(0x00))\n          dup1\n          0x990ec12b\n          gt\n          tag_11\n          jumpi\n          dup1\n          0x990ec12b\n          eq\n          tag_7\n          jumpi\n          dup1\n          0xb794cc2f\n          eq\n          tag_8\n          jumpi\n          dup1\n          0xc4374575\n          eq\n          tag_9\n          jumpi\n          dup1\n          0xcef2320c\n          eq\n          tag_10\n          jumpi\n          jump(tag_2)\n        tag_11:\n          dup1\n          0x5836e0b5\n          eq\n          tag_3\n          jumpi\n          dup1\n          0x5d8ab6e7\n          eq\n          tag_4\n          jumpi\n          dup1\n          0x6901f668\n          eq\n          tag_5\n          jumpi\n          dup1\n          0x893d20e8\n          eq\n          tag_6\n          jumpi\n        tag_2:\n          0x00\n          dup1\n          revert\n            /* \"PFG/Verificador.sol\":1491:1891  function denegate() public {\r... */\n        tag_3:\n          tag_12\n          tag_13\n          jump\t// in\n        tag_12:\n          stop\n            /* \"PFG/Verificador.sol\":2518:2614  function nDenegations() public view returns(uint256) {\r... */\n        tag_4:\n          tag_14\n          tag_15\n          jump\t// in\n        tag_14:\n          mload(0x40)\n          tag_16\n          swap2\n          swap1\n          tag_17\n          jump\t// in\n        tag_16:\n          mload(0x40)\n          dup1\n          swap2\n          sub\n          swap1\n          return\n            /* \"PFG/Verificador.sol\":999:1399  function validate() public {\r... */\n        tag_5:\n          tag_18\n          tag_19\n          jump\t// in\n        tag_18:\n          stop\n            /* \"PFG/Verificador.sol\":2223:2307  function getOwner() public view returns(address){\r... */\n        tag_6:\n          tag_20\n          tag_21\n          jump\t// in\n        tag_20:\n          mload(0x40)\n          tag_22\n          swap2\n          swap1\n          tag_23\n          jump\t// in\n        tag_22:\n          mload(0x40)\n          dup1\n          swap2\n          sub\n          swap1\n          return\n            /* \"PFG/Verificador.sol\":2414:2510  function nValidations() public view returns(uint256) {\r... */\n        tag_7:\n          tag_24\n          tag_25\n          jump\t// in\n        tag_24:\n          mload(0x40)\n          tag_26\n          swap2\n          swap1\n          tag_17\n          jump\t// in\n        tag_26:\n          mload(0x40)\n          dup1\n          swap2\n          sub\n          swap1\n          return\n            /* \"PFG/Verificador.sol\":2072:2215  function hasDenied(address _user) public view returns(bool) {\r... */\n        tag_8:\n          tag_27\n          0x04\n          dup1\n          calldatasize\n          sub\n          dup2\n          add\n          swap1\n          tag_28\n          swap2\n          swap1\n          tag_29\n          jump\t// in\n        tag_28:\n          tag_30\n          jump\t// in\n        tag_27:\n          mload(0x40)\n          tag_31\n          swap2\n          swap1\n          tag_32\n          jump\t// in\n        tag_31:\n          mload(0x40)\n          dup1\n          swap2\n          sub\n          swap1\n          return\n            /* \"PFG/Verificador.sol\":1918:2064  function hasValidated(address _user) public view returns(bool) {\r... */\n        tag_9:\n          tag_33\n          0x04\n          dup1\n          calldatasize\n          sub\n          dup2\n          add\n          swap1\n          tag_34\n          swap2\n          swap1\n          tag_29\n          jump\t// in\n        tag_34:\n          tag_35\n          jump\t// in\n        tag_33:\n          mload(0x40)\n          tag_36\n          swap2\n          swap1\n          tag_32\n          jump\t// in\n        tag_36:\n          mload(0x40)\n          dup1\n          swap2\n          sub\n          swap1\n          return\n            /* \"PFG/Verificador.sol\":2315:2406  function getFilename() public view returns(string memory){\r... */\n        tag_10:\n          tag_37\n          tag_38\n          jump\t// in\n        tag_37:\n          mload(0x40)\n          tag_39\n          swap2\n          swap1\n          tag_40\n          jump\t// in\n        tag_39:\n          mload(0x40)\n          dup1\n          swap2\n          sub\n          swap1\n          return\n            /* \"PFG/Verificador.sol\":1491:1891  function denegate() public {\r... */\n        tag_13:\n            /* \"PFG/Verificador.sol\":1551:1561  msg.sender */\n          caller\n            /* \"PFG/Verificador.sol\":1537:1561  propietari != msg.sender */\n          0xffffffffffffffffffffffffffffffffffffffff\n          and\n            /* \"PFG/Verificador.sol\":1537:1547  propietari */\n          0x00\n          dup1\n          sload\n          swap1\n          0x0100\n          exp\n          swap1\n          div\n          0xffffffffffffffffffffffffffffffffffffffff\n          and\n            /* \"PFG/Verificador.sol\":1537:1561  propietari != msg.sender */\n          0xffffffffffffffffffffffffffffffffffffffff\n          and\n          eq\n          iszero\n            /* \"PFG/Verificador.sol\":1529:1607  require(propietari != msg.sender, \"El propietari no pot validar el seu asset\") */\n          tag_42\n          jumpi\n          mload(0x40)\n          0x08c379a000000000000000000000000000000000000000000000000000000000\n          dup2\n          mstore\n          0x04\n          add\n          tag_43\n          swap1\n          tag_44\n          jump\t// in\n        tag_43:\n          mload(0x40)\n          dup1\n          swap2\n          sub\n          swap1\n          revert\n        tag_42:\n            /* \"PFG/Verificador.sol\":1627:1638  denegacions */\n          0x05\n            /* \"PFG/Verificador.sol\":1627:1650  denegacions[msg.sender] */\n          0x00\n            /* \"PFG/Verificador.sol\":1639:1649  msg.sender */\n          caller\n            /* \"PFG/Verificador.sol\":1627:1650  denegacions[msg.sender] */\n          0xffffffffffffffffffffffffffffffffffffffff\n          and\n          0xffffffffffffffffffffffffffffffffffffffff\n          and\n          dup2\n          mstore\n          0x20\n          add\n          swap1\n          dup2\n          mstore\n          0x20\n          add\n          0x00\n          keccak256\n          0x00\n          swap1\n          sload\n          swap1\n          0x0100\n          exp\n          swap1\n          div\n          0xff\n          and\n            /* \"PFG/Verificador.sol\":1626:1650  !denegacions[msg.sender] */\n          iszero\n            /* \"PFG/Verificador.sol\":1618:1672  require(!denegacions[msg.sender], \"Denegador repetit\") */\n          tag_45\n          jumpi\n          mload(0x40)\n          0x08c379a000000000000000000000000000000000000000000000000000000000\n          dup2\n          mstore\n          0x04\n          add\n          tag_46\n          swap1\n          tag_47\n          jump\t// in\n        tag_46:\n          mload(0x40)\n          dup1\n          swap2\n          sub\n          swap1\n          revert\n        tag_45:\n            /* \"PFG/Verificador.sol\":1692:1703  validacions */\n          0x04\n            /* \"PFG/Verificador.sol\":1692:1715  validacions[msg.sender] */\n          0x00\n            /* \"PFG/Verificador.sol\":1704:1714  msg.sender */\n          caller\n            /* \"PFG/Verificador.sol\":1692:1715  validacions[msg.sender] */\n          0xffffffffffffffffffffffffffffffffffffffff\n          and\n          0xffffffffffffffffffffffffffffffffffffffff\n          and\n          dup2\n          mstore\n          0x20\n          add\n          swap1\n          dup2\n          mstore\n          0x20\n          add\n          0x00\n          keccak256\n          0x00\n          swap1\n          sload\n          swap1\n          0x0100\n          exp\n          swap1\n          div\n          0xff\n          and\n            /* \"PFG/Verificador.sol\":1691:1715  !validacions[msg.sender] */\n          iszero\n            /* \"PFG/Verificador.sol\":1683:1752  require(!validacions[msg.sender], \"No pots validar i denegar alhora\") */\n          tag_48\n          jumpi\n          mload(0x40)\n          0x08c379a000000000000000000000000000000000000000000000000000000000\n          dup2\n          mstore\n          0x04\n          add\n          tag_49\n          swap1\n          tag_50\n          jump\t// in\n        tag_49:\n          mload(0x40)\n          dup1\n          swap2\n          sub\n          swap1\n          revert\n        tag_48:\n            /* \"PFG/Verificador.sol\":1763:1773  denegadors */\n          0x03\n            /* \"PFG/Verificador.sol\":1779:1789  msg.sender */\n          caller\n            /* \"PFG/Verificador.sol\":1763:1790  denegadors.push(msg.sender) */\n          swap1\n          dup1\n          0x01\n          dup2\n          sload\n          add\n          dup1\n          dup3\n          sstore\n          dup1\n          swap2\n          pop\n          pop\n          0x01\n          swap1\n          sub\n          swap1\n          0x00\n          mstore\n          keccak256(0x00, 0x20)\n          add\n          0x00\n          swap1\n          swap2\n          swap1\n          swap2\n          swap1\n          swap2\n          0x0100\n          exp\n          dup2\n          sload\n          dup2\n          0xffffffffffffffffffffffffffffffffffffffff\n          mul\n          not\n          and\n          swap1\n          dup4\n          0xffffffffffffffffffffffffffffffffffffffff\n          and\n          mul\n          or\n          swap1\n          sstore\n          pop\n            /* \"PFG/Verificador.sol\":1827:1831  true */\n          0x01\n            /* \"PFG/Verificador.sol\":1801:1812  denegacions */\n          0x05\n            /* \"PFG/Verificador.sol\":1801:1824  denegacions[msg.sender] */\n          0x00\n            /* \"PFG/Verificador.sol\":1813:1823  msg.sender */\n          caller\n            /* \"PFG/Verificador.sol\":1801:1824  denegacions[msg.sender] */\n          0xffffffffffffffffffffffffffffffffffffffff\n          and\n          0xffffffffffffffffffffffffffffffffffffffff\n          and\n          dup2\n          mstore\n          0x20\n          add\n          swap1\n          dup2\n          mstore\n          0x20\n          add\n          0x00\n          keccak256\n          0x00\n            /* \"PFG/Verificador.sol\":1801:1831  denegacions[msg.sender] = true */\n          0x0100\n          exp\n          dup2\n          sload\n          dup2\n          0xff\n          mul\n          not\n          and\n          swap1\n          dup4\n          iszero\n          iszero\n          mul\n          or\n          swap1\n          sstore\n          pop\n            /* \"PFG/Verificador.sol\":1860:1870  msg.sender */\n          caller\n            /* \"PFG/Verificador.sol\":1849:1881  Denegation(msg.sender, filename) */\n          0xffffffffffffffffffffffffffffffffffffffff\n          and\n          0x9036bc06ad4a578f0132d89ba4adc07b9772275526730acc38d7e4b4c11872a3\n            /* \"PFG/Verificador.sol\":1872:1880  filename */\n          0x01\n            /* \"PFG/Verificador.sol\":1849:1881  Denegation(msg.sender, filename) */\n          mload(0x40)\n          tag_52\n          swap2\n          swap1\n          tag_53\n          jump\t// in\n        tag_52:\n          mload(0x40)\n          dup1\n          swap2\n          sub\n          swap1\n          log2\n            /* \"PFG/Verificador.sol\":1491:1891  function denegate() public {\r... */\n          jump\t// out\n            /* \"PFG/Verificador.sol\":2518:2614  function nDenegations() public view returns(uint256) {\r... */\n        tag_15:\n            /* \"PFG/Verificador.sol\":2562:2569  uint256 */\n          0x00\n            /* \"PFG/Verificador.sol\":2589:2599  denegadors */\n          0x03\n            /* \"PFG/Verificador.sol\":2589:2606  denegadors.length */\n          dup1\n          sload\n          swap1\n          pop\n            /* \"PFG/Verificador.sol\":2582:2606  return denegadors.length */\n          swap1\n          pop\n            /* \"PFG/Verificador.sol\":2518:2614  function nDenegations() public view returns(uint256) {\r... */\n          swap1\n          jump\t// out\n            /* \"PFG/Verificador.sol\":999:1399  function validate() public {\r... */\n        tag_19:\n            /* \"PFG/Verificador.sol\":1059:1069  msg.sender */\n          caller\n            /* \"PFG/Verificador.sol\":1045:1069  propietari != msg.sender */\n          0xffffffffffffffffffffffffffffffffffffffff\n          and\n            /* \"PFG/Verificador.sol\":1045:1055  propietari */\n          0x00\n          dup1\n          sload\n          swap1\n          0x0100\n          exp\n          swap1\n          div\n          0xffffffffffffffffffffffffffffffffffffffff\n          and\n            /* \"PFG/Verificador.sol\":1045:1069  propietari != msg.sender */\n          0xffffffffffffffffffffffffffffffffffffffff\n          and\n          eq\n          iszero\n            /* \"PFG/Verificador.sol\":1037:1115  require(propietari != msg.sender, \"El propietari no pot validar el seu asset\") */\n          tag_56\n          jumpi\n          mload(0x40)\n          0x08c379a000000000000000000000000000000000000000000000000000000000\n          dup2\n          mstore\n          0x04\n          add\n          tag_57\n          swap1\n          tag_44\n          jump\t// in\n        tag_57:\n          mload(0x40)\n          dup1\n          swap2\n          sub\n          swap1\n          revert\n        tag_56:\n            /* \"PFG/Verificador.sol\":1135:1146  validacions */\n          0x04\n            /* \"PFG/Verificador.sol\":1135:1158  validacions[msg.sender] */\n          0x00\n            /* \"PFG/Verificador.sol\":1147:1157  msg.sender */\n          caller\n            /* \"PFG/Verificador.sol\":1135:1158  validacions[msg.sender] */\n          0xffffffffffffffffffffffffffffffffffffffff\n          and\n          0xffffffffffffffffffffffffffffffffffffffff\n          and\n          dup2\n          mstore\n          0x20\n          add\n          swap1\n          dup2\n          mstore\n          0x20\n          add\n          0x00\n          keccak256\n          0x00\n          swap1\n          sload\n          swap1\n          0x0100\n          exp\n          swap1\n          div\n          0xff\n          and\n            /* \"PFG/Verificador.sol\":1134:1158  !validacions[msg.sender] */\n          iszero\n            /* \"PFG/Verificador.sol\":1126:1180  require(!validacions[msg.sender], \"Validador repetit\") */\n          tag_58\n          jumpi\n          mload(0x40)\n          0x08c379a000000000000000000000000000000000000000000000000000000000\n          dup2\n          mstore\n          0x04\n          add\n          tag_59\n          swap1\n          tag_60\n          jump\t// in\n        tag_59:\n          mload(0x40)\n          dup1\n          swap2\n          sub\n          swap1\n          revert\n        tag_58:\n            /* \"PFG/Verificador.sol\":1200:1211  denegacions */\n          0x05\n            /* \"PFG/Verificador.sol\":1200:1223  denegacions[msg.sender] */\n          0x00\n            /* \"PFG/Verificador.sol\":1212:1222  msg.sender */\n          caller\n            /* \"PFG/Verificador.sol\":1200:1223  denegacions[msg.sender] */\n          0xffffffffffffffffffffffffffffffffffffffff\n          and\n          0xffffffffffffffffffffffffffffffffffffffff\n          and\n          dup2\n          mstore\n          0x20\n          add\n          swap1\n          dup2\n          mstore\n          0x20\n          add\n          0x00\n          keccak256\n          0x00\n          swap1\n          sload\n          swap1\n          0x0100\n          exp\n          swap1\n          div\n          0xff\n          and\n            /* \"PFG/Verificador.sol\":1199:1223  !denegacions[msg.sender] */\n          iszero\n            /* \"PFG/Verificador.sol\":1191:1260  require(!denegacions[msg.sender], \"No pots validar i denegar alhora\") */\n          tag_61\n          jumpi\n          mload(0x40)\n          0x08c379a000000000000000000000000000000000000000000000000000000000\n          dup2\n          mstore\n          0x04\n          add\n          tag_62\n          swap1\n          tag_50\n          jump\t// in\n        tag_62:\n          mload(0x40)\n          dup1\n          swap2\n          sub\n          swap1\n          revert\n        tag_61:\n            /* \"PFG/Verificador.sol\":1271:1281  validadors */\n          0x02\n            /* \"PFG/Verificador.sol\":1287:1297  msg.sender */\n          caller\n            /* \"PFG/Verificador.sol\":1271:1298  validadors.push(msg.sender) */\n          swap1\n          dup1\n          0x01\n          dup2\n          sload\n          add\n          dup1\n          dup3\n          sstore\n          dup1\n          swap2\n          pop\n          pop\n          0x01\n          swap1\n          sub\n          swap1\n          0x00\n          mstore\n          keccak256(0x00, 0x20)\n          add\n          0x00\n          swap1\n          swap2\n          swap1\n          swap2\n          swap1\n          swap2\n          0x0100\n          exp\n          dup2\n          sload\n          dup2\n          0xffffffffffffffffffffffffffffffffffffffff\n          mul\n          not\n          and\n          swap1\n          dup4\n          0xffffffffffffffffffffffffffffffffffffffff\n          and\n          mul\n          or\n          swap1\n          sstore\n          pop\n            /* \"PFG/Verificador.sol\":1335:1339  true */\n          0x01\n            /* \"PFG/Verificador.sol\":1309:1320  validacions */\n          0x04\n            /* \"PFG/Verificador.sol\":1309:1332  validacions[msg.sender] */\n          0x00\n            /* \"PFG/Verificador.sol\":1321:1331  msg.sender */\n          caller\n            /* \"PFG/Verificador.sol\":1309:1332  validacions[msg.sender] */\n          0xffffffffffffffffffffffffffffffffffffffff\n          and\n          0xffffffffffffffffffffffffffffffffffffffff\n          and\n          dup2\n          mstore\n          0x20\n          add\n          swap1\n          dup2\n          mstore\n          0x20\n          add\n          0x00\n          keccak256\n          0x00\n            /* \"PFG/Verificador.sol\":1309:1339  validacions[msg.sender] = true */\n          0x0100\n          exp\n          dup2\n          sload\n          dup2\n          0xff\n          mul\n          not\n          and\n          swap1\n          dup4\n          iszero\n          iszero\n          mul\n          or\n          swap1\n          sstore\n          pop\n            /* \"PFG/Verificador.sol\":1368:1378  msg.sender */\n          caller\n            /* \"PFG/Verificador.sol\":1357:1389  Validation(msg.sender, filename) */\n          0xffffffffffffffffffffffffffffffffffffffff\n          and\n          0x57d77eb32e87e8c65c7cec1df5b0e8a8d5c4eae1b40c7246e7668ed702dd247a\n            /* \"PFG/Verificador.sol\":1380:1388  filename */\n          0x01\n            /* \"PFG/Verificador.sol\":1357:1389  Validation(msg.sender, filename) */\n          mload(0x40)\n          tag_64\n          swap2\n          swap1\n          tag_53\n          jump\t// in\n        tag_64:\n          mload(0x40)\n          dup1\n          swap2\n          sub\n          swap1\n          log2\n            /* \"PFG/Verificador.sol\":999:1399  function validate() public {\r... */\n          jump\t// out\n            /* \"PFG/Verificador.sol\":2223:2307  function getOwner() public view returns(address){\r... */\n        tag_21:\n            /* \"PFG/Verificador.sol\":2263:2270  address */\n          0x00\n            /* \"PFG/Verificador.sol\":2289:2299  propietari */\n          dup1\n          0x00\n          swap1\n          sload\n          swap1\n          0x0100\n          exp\n          swap1\n          div\n          0xffffffffffffffffffffffffffffffffffffffff\n          and\n            /* \"PFG/Verificador.sol\":2282:2299  return propietari */\n          swap1\n          pop\n            /* \"PFG/Verificador.sol\":2223:2307  function getOwner() public view returns(address){\r... */\n          swap1\n          jump\t// out\n            /* \"PFG/Verificador.sol\":2414:2510  function nValidations() public view returns(uint256) {\r... */\n        tag_25:\n            /* \"PFG/Verificador.sol\":2458:2465  uint256 */\n          0x00\n            /* \"PFG/Verificador.sol\":2485:2495  validadors */\n          0x02\n            /* \"PFG/Verificador.sol\":2485:2502  validadors.length */\n          dup1\n          sload\n          swap1\n          pop\n            /* \"PFG/Verificador.sol\":2478:2502  return validadors.length */\n          swap1\n          pop\n            /* \"PFG/Verificador.sol\":2414:2510  function nValidations() public view returns(uint256) {\r... */\n          swap1\n          jump\t// out\n            /* \"PFG/Verificador.sol\":2072:2215  function hasDenied(address _user) public view returns(bool) {\r... */\n        tag_30:\n            /* \"PFG/Verificador.sol\":2126:2130  bool */\n          0x00\n            /* \"PFG/Verificador.sol\":2165:2170  _user */\n          dup2\n            /* \"PFG/Verificador.sol\":2151:2170  propietari != _user */\n          0xffffffffffffffffffffffffffffffffffffffff\n          and\n            /* \"PFG/Verificador.sol\":2151:2161  propietari */\n          0x00\n          dup1\n          sload\n          swap1\n          0x0100\n          exp\n          swap1\n          div\n          0xffffffffffffffffffffffffffffffffffffffff\n          and\n            /* \"PFG/Verificador.sol\":2151:2170  propietari != _user */\n          0xffffffffffffffffffffffffffffffffffffffff\n          and\n          eq\n          iszero\n            /* \"PFG/Verificador.sol\":2143:2171  require(propietari != _user) */\n          tag_68\n          jumpi\n          0x00\n          dup1\n          revert\n        tag_68:\n            /* \"PFG/Verificador.sol\":2189:2200  denegacions */\n          0x05\n            /* \"PFG/Verificador.sol\":2189:2207  denegacions[_user] */\n          0x00\n            /* \"PFG/Verificador.sol\":2201:2206  _user */\n          dup4\n            /* \"PFG/Verificador.sol\":2189:2207  denegacions[_user] */\n          0xffffffffffffffffffffffffffffffffffffffff\n          and\n          0xffffffffffffffffffffffffffffffffffffffff\n          and\n          dup2\n          mstore\n          0x20\n          add\n          swap1\n          dup2\n          mstore\n          0x20\n          add\n          0x00\n          keccak256\n          0x00\n          swap1\n          sload\n          swap1\n          0x0100\n          exp\n          swap1\n          div\n          0xff\n          and\n            /* \"PFG/Verificador.sol\":2182:2207  return denegacions[_user] */\n          swap1\n          pop\n            /* \"PFG/Verificador.sol\":2072:2215  function hasDenied(address _user) public view returns(bool) {\r... */\n          swap2\n          swap1\n          pop\n          jump\t// out\n            /* \"PFG/Verificador.sol\":1918:2064  function hasValidated(address _user) public view returns(bool) {\r... */\n        tag_35:\n            /* \"PFG/Verificador.sol\":1975:1979  bool */\n          0x00\n            /* \"PFG/Verificador.sol\":2014:2019  _user */\n          dup2\n            /* \"PFG/Verificador.sol\":2000:2019  propietari != _user */\n          0xffffffffffffffffffffffffffffffffffffffff\n          and\n            /* \"PFG/Verificador.sol\":2000:2010  propietari */\n          0x00\n          dup1\n          sload\n          swap1\n          0x0100\n          exp\n          swap1\n          div\n          0xffffffffffffffffffffffffffffffffffffffff\n          and\n            /* \"PFG/Verificador.sol\":2000:2019  propietari != _user */\n          0xffffffffffffffffffffffffffffffffffffffff\n          and\n          eq\n          iszero\n            /* \"PFG/Verificador.sol\":1992:2020  require(propietari != _user) */\n          tag_70\n          jumpi\n          0x00\n          dup1\n          revert\n        tag_70:\n            /* \"PFG/Verificador.sol\":2038:2049  validacions */\n          0x04\n            /* \"PFG/Verificador.sol\":2038:2056  validacions[_user] */\n          0x00\n            /* \"PFG/Verificador.sol\":2050:2055  _user */\n          dup4\n            /* \"PFG/Verificador.sol\":2038:2056  validacions[_user] */\n          0xffffffffffffffffffffffffffffffffffffffff\n          and\n          0xffffffffffffffffffffffffffffffffffffffff\n          and\n          dup2\n          mstore\n          0x20\n          add\n          swap1\n          dup2\n          mstore\n          0x20\n          add\n          0x00\n          keccak256\n          0x00\n          swap1\n          sload\n          swap1\n          0x0100\n          exp\n          swap1\n          div\n          0xff\n          and\n            /* \"PFG/Verificador.sol\":2031:2056  return validacions[_user] */\n          swap1\n          pop\n            /* \"PFG/Verificador.sol\":1918:2064  function hasValidated(address _user) public view returns(bool) {\r... */\n          swap2\n          swap1\n          pop\n          jump\t// out\n            /* \"PFG/Verificador.sol\":2315:2406  function getFilename() public view returns(string memory){\r... */\n        tag_38:\n            /* \"PFG/Verificador.sol\":2358:2371  string memory */\n          0x60\n            /* \"PFG/Verificador.sol\":2390:2398  filename */\n          0x01\n            /* \"PFG/Verificador.sol\":2383:2398  return filename */\n          dup1\n          sload\n          tag_72\n          swap1\n          tag_73\n          jump\t// in\n        tag_72:\n          dup1\n          0x1f\n          add\n          0x20\n          dup1\n          swap2\n          div\n          mul\n          0x20\n          add\n          mload(0x40)\n          swap1\n          dup2\n          add\n          0x40\n          mstore\n          dup1\n          swap3\n          swap2\n          swap1\n          dup2\n          dup2\n          mstore\n          0x20\n          add\n          dup3\n          dup1\n          sload\n          tag_74\n          swap1\n          tag_73\n          jump\t// in\n        tag_74:\n          dup1\n          iszero\n          tag_75\n          jumpi\n          dup1\n          0x1f\n          lt\n          tag_76\n          jumpi\n          0x0100\n          dup1\n          dup4\n          sload\n          div\n          mul\n          dup4\n          mstore\n          swap2\n          0x20\n          add\n          swap2\n          jump(tag_75)\n        tag_76:\n          dup3\n          add\n          swap2\n          swap1\n          0x00\n          mstore\n          keccak256(0x00, 0x20)\n          swap1\n        tag_77:\n          dup2\n          sload\n          dup2\n          mstore\n          swap1\n          0x01\n          add\n          swap1\n          0x20\n          add\n          dup1\n          dup4\n          gt\n          tag_77\n          jumpi\n          dup3\n          swap1\n          sub\n          0x1f\n          and\n          dup3\n          add\n          swap2\n        tag_75:\n          pop\n          pop\n          pop\n          pop\n          pop\n          swap1\n          pop\n            /* \"PFG/Verificador.sol\":2315:2406  function getFilename() public view returns(string memory){\r... */\n          swap1\n          jump\t// out\n            /* \"#utility.yul\":7:146   */\n        tag_79:\n            /* \"#utility.yul\":53:58   */\n          0x00\n            /* \"#utility.yul\":91:97   */\n          dup2\n            /* \"#utility.yul\":78:98   */\n          calldataload\n            /* \"#utility.yul\":69:98   */\n          swap1\n          pop\n            /* \"#utility.yul\":107:140   */\n          tag_81\n            /* \"#utility.yul\":134:139   */\n          dup2\n            /* \"#utility.yul\":107:140   */\n          tag_82\n          jump\t// in\n        tag_81:\n            /* \"#utility.yul\":7:146   */\n          swap3\n          swap2\n          pop\n          pop\n          jump\t// out\n            /* \"#utility.yul\":152:481   */\n        tag_29:\n            /* \"#utility.yul\":211:217   */\n          0x00\n            /* \"#utility.yul\":260:262   */\n          0x20\n            /* \"#utility.yul\":248:257   */\n          dup3\n            /* \"#utility.yul\":239:246   */\n          dup5\n            /* \"#utility.yul\":235:258   */\n          sub\n            /* \"#utility.yul\":231:263   */\n          slt\n            /* \"#utility.yul\":228:347   */\n          iszero\n          tag_84\n          jumpi\n            /* \"#utility.yul\":266:345   */\n          tag_85\n          tag_86\n          jump\t// in\n        tag_85:\n            /* \"#utility.yul\":228:347   */\n        tag_84:\n            /* \"#utility.yul\":386:387   */\n          0x00\n            /* \"#utility.yul\":411:464   */\n          tag_87\n            /* \"#utility.yul\":456:463   */\n          dup5\n            /* \"#utility.yul\":447:453   */\n          dup3\n            /* \"#utility.yul\":436:445   */\n          dup6\n            /* \"#utility.yul\":432:454   */\n          add\n            /* \"#utility.yul\":411:464   */\n          tag_79\n          jump\t// in\n        tag_87:\n            /* \"#utility.yul\":401:464   */\n          swap2\n          pop\n            /* \"#utility.yul\":357:474   */\n          pop\n            /* \"#utility.yul\":152:481   */\n          swap3\n          swap2\n          pop\n          pop\n          jump\t// out\n            /* \"#utility.yul\":487:605   */\n        tag_88:\n            /* \"#utility.yul\":574:598   */\n          tag_90\n            /* \"#utility.yul\":592:597   */\n          dup2\n            /* \"#utility.yul\":574:598   */\n          tag_91\n          jump\t// in\n        tag_90:\n            /* \"#utility.yul\":569:572   */\n          dup3\n            /* \"#utility.yul\":562:599   */\n          mstore\n            /* \"#utility.yul\":487:605   */\n          pop\n          pop\n          jump\t// out\n            /* \"#utility.yul\":611:720   */\n        tag_92:\n            /* \"#utility.yul\":692:713   */\n          tag_94\n            /* \"#utility.yul\":707:712   */\n          dup2\n            /* \"#utility.yul\":692:713   */\n          tag_95\n          jump\t// in\n        tag_94:\n            /* \"#utility.yul\":687:690   */\n          dup3\n            /* \"#utility.yul\":680:714   */\n          mstore\n            /* \"#utility.yul\":611:720   */\n          pop\n          pop\n          jump\t// out\n            /* \"#utility.yul\":726:1090   */\n        tag_96:\n            /* \"#utility.yul\":814:817   */\n          0x00\n            /* \"#utility.yul\":842:881   */\n          tag_98\n            /* \"#utility.yul\":875:880   */\n          dup3\n            /* \"#utility.yul\":842:881   */\n          tag_99\n          jump\t// in\n        tag_98:\n            /* \"#utility.yul\":897:968   */\n          tag_100\n            /* \"#utility.yul\":961:967   */\n          dup2\n            /* \"#utility.yul\":956:959   */\n          dup6\n            /* \"#utility.yul\":897:968   */\n          tag_101\n          jump\t// in\n        tag_100:\n            /* \"#utility.yul\":890:968   */\n          swap4\n          pop\n            /* \"#utility.yul\":977:1029   */\n          tag_102\n            /* \"#utility.yul\":1022:1028   */\n          dup2\n            /* \"#utility.yul\":1017:1020   */\n          dup6\n            /* \"#utility.yul\":1010:1014   */\n          0x20\n            /* \"#utility.yul\":1003:1008   */\n          dup7\n            /* \"#utility.yul\":999:1015   */\n          add\n            /* \"#utility.yul\":977:1029   */\n          tag_103\n          jump\t// in\n        tag_102:\n            /* \"#utility.yul\":1054:1083   */\n          tag_104\n            /* \"#utility.yul\":1076:1082   */\n          dup2\n            /* \"#utility.yul\":1054:1083   */\n          tag_105\n          jump\t// in\n        tag_104:\n            /* \"#utility.yul\":1049:1052   */\n          dup5\n            /* \"#utility.yul\":1045:1084   */\n          add\n            /* \"#utility.yul\":1038:1084   */\n          swap2\n          pop\n            /* \"#utility.yul\":818:1090   */\n          pop\n            /* \"#utility.yul\":726:1090   */\n          swap3\n          swap2\n          pop\n          pop\n          jump\t// out\n            /* \"#utility.yul\":1120:1922   */\n        tag_106:\n            /* \"#utility.yul\":1205:1208   */\n          0x00\n            /* \"#utility.yul\":1242:1247   */\n          dup2\n            /* \"#utility.yul\":1236:1248   */\n          sload\n            /* \"#utility.yul\":1271:1307   */\n          tag_108\n            /* \"#utility.yul\":1297:1306   */\n          dup2\n            /* \"#utility.yul\":1271:1307   */\n          tag_73\n          jump\t// in\n        tag_108:\n            /* \"#utility.yul\":1323:1394   */\n          tag_109\n            /* \"#utility.yul\":1387:1393   */\n          dup2\n            /* \"#utility.yul\":1382:1385   */\n          dup7\n            /* \"#utility.yul\":1323:1394   */\n          tag_101\n          jump\t// in\n        tag_109:\n            /* \"#utility.yul\":1316:1394   */\n          swap5\n          pop\n            /* \"#utility.yul\":1425:1426   */\n          0x01\n            /* \"#utility.yul\":1414:1423   */\n          dup3\n            /* \"#utility.yul\":1410:1427   */\n          and\n            /* \"#utility.yul\":1441:1442   */\n          0x00\n            /* \"#utility.yul\":1436:1571   */\n          dup2\n          eq\n          tag_111\n          jumpi\n            /* \"#utility.yul\":1585:1586   */\n          0x01\n            /* \"#utility.yul\":1580:1916   */\n          dup2\n          eq\n          tag_112\n          jumpi\n            /* \"#utility.yul\":1403:1916   */\n          jump(tag_110)\n            /* \"#utility.yul\":1436:1571   */\n        tag_111:\n            /* \"#utility.yul\":1520:1524   */\n          0xff\n            /* \"#utility.yul\":1516:1525   */\n          not\n            /* \"#utility.yul\":1505:1514   */\n          dup4\n            /* \"#utility.yul\":1501:1526   */\n          and\n            /* \"#utility.yul\":1496:1499   */\n          dup7\n            /* \"#utility.yul\":1489:1527   */\n          mstore\n            /* \"#utility.yul\":1556:1560   */\n          0x20\n            /* \"#utility.yul\":1551:1554   */\n          dup7\n            /* \"#utility.yul\":1547:1561   */\n          add\n            /* \"#utility.yul\":1540:1561   */\n          swap4\n          pop\n            /* \"#utility.yul\":1436:1571   */\n          jump(tag_110)\n            /* \"#utility.yul\":1580:1916   */\n        tag_112:\n            /* \"#utility.yul\":1647:1685   */\n          tag_113\n            /* \"#utility.yul\":1679:1684   */\n          dup6\n            /* \"#utility.yul\":1647:1685   */\n          tag_114\n          jump\t// in\n        tag_113:\n            /* \"#utility.yul\":1707:1708   */\n          0x00\n            /* \"#utility.yul\":1721:1875   */\n        tag_115:\n            /* \"#utility.yul\":1735:1741   */\n          dup4\n            /* \"#utility.yul\":1732:1733   */\n          dup2\n            /* \"#utility.yul\":1729:1742   */\n          lt\n            /* \"#utility.yul\":1721:1875   */\n          iszero\n          tag_117\n          jumpi\n            /* \"#utility.yul\":1809:1816   */\n          dup2\n            /* \"#utility.yul\":1803:1817   */\n          sload\n            /* \"#utility.yul\":1799:1800   */\n          dup2\n            /* \"#utility.yul\":1794:1797   */\n          dup10\n            /* \"#utility.yul\":1790:1801   */\n          add\n            /* \"#utility.yul\":1783:1818   */\n          mstore\n            /* \"#utility.yul\":1859:1860   */\n          0x01\n            /* \"#utility.yul\":1850:1857   */\n          dup3\n            /* \"#utility.yul\":1846:1861   */\n          add\n            /* \"#utility.yul\":1835:1861   */\n          swap2\n          pop\n            /* \"#utility.yul\":1757:1761   */\n          0x20\n            /* \"#utility.yul\":1754:1755   */\n          dup2\n            /* \"#utility.yul\":1750:1762   */\n          add\n            /* \"#utility.yul\":1745:1762   */\n          swap1\n          pop\n            /* \"#utility.yul\":1721:1875   */\n          jump(tag_115)\n        tag_117:\n            /* \"#utility.yul\":1904:1905   */\n          dup1\n            /* \"#utility.yul\":1899:1902   */\n          dup9\n            /* \"#utility.yul\":1895:1906   */\n          add\n            /* \"#utility.yul\":1888:1906   */\n          swap6\n          pop\n            /* \"#utility.yul\":1587:1916   */\n          pop\n          pop\n            /* \"#utility.yul\":1403:1916   */\n        tag_110:\n          pop\n            /* \"#utility.yul\":1209:1922   */\n          pop\n          pop\n            /* \"#utility.yul\":1120:1922   */\n          swap3\n          swap2\n          pop\n          pop\n          jump\t// out\n            /* \"#utility.yul\":1928:2294   */\n        tag_118:\n            /* \"#utility.yul\":2070:2073   */\n          0x00\n            /* \"#utility.yul\":2091:2158   */\n          tag_120\n            /* \"#utility.yul\":2155:2157   */\n          0x20\n            /* \"#utility.yul\":2150:2153   */\n          dup4\n            /* \"#utility.yul\":2091:2158   */\n          tag_101\n          jump\t// in\n        tag_120:\n            /* \"#utility.yul\":2084:2158   */\n          swap2\n          pop\n            /* \"#utility.yul\":2167:2260   */\n          tag_121\n            /* \"#utility.yul\":2256:2259   */\n          dup3\n            /* \"#utility.yul\":2167:2260   */\n          tag_122\n          jump\t// in\n        tag_121:\n            /* \"#utility.yul\":2285:2287   */\n          0x20\n            /* \"#utility.yul\":2280:2283   */\n          dup3\n            /* \"#utility.yul\":2276:2288   */\n          add\n            /* \"#utility.yul\":2269:2288   */\n          swap1\n          pop\n            /* \"#utility.yul\":1928:2294   */\n          swap2\n          swap1\n          pop\n          jump\t// out\n            /* \"#utility.yul\":2300:2666   */\n        tag_123:\n            /* \"#utility.yul\":2442:2445   */\n          0x00\n            /* \"#utility.yul\":2463:2530   */\n          tag_125\n            /* \"#utility.yul\":2527:2529   */\n          0x29\n            /* \"#utility.yul\":2522:2525   */\n          dup4\n            /* \"#utility.yul\":2463:2530   */\n          tag_101\n          jump\t// in\n        tag_125:\n            /* \"#utility.yul\":2456:2530   */\n          swap2\n          pop\n            /* \"#utility.yul\":2539:2632   */\n          tag_126\n            /* \"#utility.yul\":2628:2631   */\n          dup3\n            /* \"#utility.yul\":2539:2632   */\n          tag_127\n          jump\t// in\n        tag_126:\n            /* \"#utility.yul\":2657:2659   */\n          0x40\n            /* \"#utility.yul\":2652:2655   */\n          dup3\n            /* \"#utility.yul\":2648:2660   */\n          add\n            /* \"#utility.yul\":2641:2660   */\n          swap1\n          pop\n            /* \"#utility.yul\":2300:2666   */\n          swap2\n          swap1\n          pop\n          jump\t// out\n            /* \"#utility.yul\":2672:3038   */\n        tag_128:\n            /* \"#utility.yul\":2814:2817   */\n          0x00\n            /* \"#utility.yul\":2835:2902   */\n          tag_130\n            /* \"#utility.yul\":2899:2901   */\n          0x11\n            /* \"#utility.yul\":2894:2897   */\n          dup4\n            /* \"#utility.yul\":2835:2902   */\n          tag_101\n          jump\t// in\n        tag_130:\n            /* \"#utility.yul\":2828:2902   */\n          swap2\n          pop\n            /* \"#utility.yul\":2911:3004   */\n          tag_131\n            /* \"#utility.yul\":3000:3003   */\n          dup3\n            /* \"#utility.yul\":2911:3004   */\n          tag_132\n          jump\t// in\n        tag_131:\n            /* \"#utility.yul\":3029:3031   */\n          0x20\n            /* \"#utility.yul\":3024:3027   */\n          dup3\n            /* \"#utility.yul\":3020:3032   */\n          add\n            /* \"#utility.yul\":3013:3032   */\n          swap1\n          pop\n            /* \"#utility.yul\":2672:3038   */\n          swap2\n          swap1\n          pop\n          jump\t// out\n            /* \"#utility.yul\":3044:3410   */\n        tag_133:\n            /* \"#utility.yul\":3186:3189   */\n          0x00\n            /* \"#utility.yul\":3207:3274   */\n          tag_135\n            /* \"#utility.yul\":3271:3273   */\n          0x11\n            /* \"#utility.yul\":3266:3269   */\n          dup4\n            /* \"#utility.yul\":3207:3274   */\n          tag_101\n          jump\t// in\n        tag_135:\n            /* \"#utility.yul\":3200:3274   */\n          swap2\n          pop\n            /* \"#utility.yul\":3283:3376   */\n          tag_136\n            /* \"#utility.yul\":3372:3375   */\n          dup3\n            /* \"#utility.yul\":3283:3376   */\n          tag_137\n          jump\t// in\n        tag_136:\n            /* \"#utility.yul\":3401:3403   */\n          0x20\n            /* \"#utility.yul\":3396:3399   */\n          dup3\n            /* \"#utility.yul\":3392:3404   */\n          add\n            /* \"#utility.yul\":3385:3404   */\n          swap1\n          pop\n            /* \"#utility.yul\":3044:3410   */\n          swap2\n          swap1\n          pop\n          jump\t// out\n            /* \"#utility.yul\":3416:3534   */\n        tag_138:\n            /* \"#utility.yul\":3503:3527   */\n          tag_140\n            /* \"#utility.yul\":3521:3526   */\n          dup2\n            /* \"#utility.yul\":3503:3527   */\n          tag_141\n          jump\t// in\n        tag_140:\n            /* \"#utility.yul\":3498:3501   */\n          dup3\n            /* \"#utility.yul\":3491:3528   */\n          mstore\n            /* \"#utility.yul\":3416:3534   */\n          pop\n          pop\n          jump\t// out\n            /* \"#utility.yul\":3540:3762   */\n        tag_23:\n            /* \"#utility.yul\":3633:3637   */\n          0x00\n            /* \"#utility.yul\":3671:3673   */\n          0x20\n            /* \"#utility.yul\":3660:3669   */\n          dup3\n            /* \"#utility.yul\":3656:3674   */\n          add\n            /* \"#utility.yul\":3648:3674   */\n          swap1\n          pop\n            /* \"#utility.yul\":3684:3755   */\n          tag_143\n            /* \"#utility.yul\":3752:3753   */\n          0x00\n            /* \"#utility.yul\":3741:3750   */\n          dup4\n            /* \"#utility.yul\":3737:3754   */\n          add\n            /* \"#utility.yul\":3728:3734   */\n          dup5\n            /* \"#utility.yul\":3684:3755   */\n          tag_88\n          jump\t// in\n        tag_143:\n            /* \"#utility.yul\":3540:3762   */\n          swap3\n          swap2\n          pop\n          pop\n          jump\t// out\n            /* \"#utility.yul\":3768:3978   */\n        tag_32:\n            /* \"#utility.yul\":3855:3859   */\n          0x00\n            /* \"#utility.yul\":3893:3895   */\n          0x20\n            /* \"#utility.yul\":3882:3891   */\n          dup3\n            /* \"#utility.yul\":3878:3896   */\n          add\n            /* \"#utility.yul\":3870:3896   */\n          swap1\n          pop\n            /* \"#utility.yul\":3906:3971   */\n          tag_145\n            /* \"#utility.yul\":3968:3969   */\n          0x00\n            /* \"#utility.yul\":3957:3966   */\n          dup4\n            /* \"#utility.yul\":3953:3970   */\n          add\n            /* \"#utility.yul\":3944:3950   */\n          dup5\n            /* \"#utility.yul\":3906:3971   */\n          tag_92\n          jump\t// in\n        tag_145:\n            /* \"#utility.yul\":3768:3978   */\n          swap3\n          swap2\n          pop\n          pop\n          jump\t// out\n            /* \"#utility.yul\":3984:4297   */\n        tag_40:\n            /* \"#utility.yul\":4097:4101   */\n          0x00\n            /* \"#utility.yul\":4135:4137   */\n          0x20\n            /* \"#utility.yul\":4124:4133   */\n          dup3\n            /* \"#utility.yul\":4120:4138   */\n          add\n            /* \"#utility.yul\":4112:4138   */\n          swap1\n          pop\n            /* \"#utility.yul\":4184:4193   */\n          dup2\n            /* \"#utility.yul\":4178:4182   */\n          dup2\n            /* \"#utility.yul\":4174:4194   */\n          sub\n            /* \"#utility.yul\":4170:4171   */\n          0x00\n            /* \"#utility.yul\":4159:4168   */\n          dup4\n            /* \"#utility.yul\":4155:4172   */\n          add\n            /* \"#utility.yul\":4148:4195   */\n          mstore\n            /* \"#utility.yul\":4212:4290   */\n          tag_147\n            /* \"#utility.yul\":4285:4289   */\n          dup2\n            /* \"#utility.yul\":4276:4282   */\n          dup5\n            /* \"#utility.yul\":4212:4290   */\n          tag_96\n          jump\t// in\n        tag_147:\n            /* \"#utility.yul\":4204:4290   */\n          swap1\n          pop\n            /* \"#utility.yul\":3984:4297   */\n          swap3\n          swap2\n          pop\n          pop\n          jump\t// out\n            /* \"#utility.yul\":4303:4610   */\n        tag_53:\n            /* \"#utility.yul\":4413:4417   */\n          0x00\n            /* \"#utility.yul\":4451:4453   */\n          0x20\n            /* \"#utility.yul\":4440:4449   */\n          dup3\n            /* \"#utility.yul\":4436:4454   */\n          add\n            /* \"#utility.yul\":4428:4454   */\n          swap1\n          pop\n            /* \"#utility.yul\":4500:4509   */\n          dup2\n            /* \"#utility.yul\":4494:4498   */\n          dup2\n            /* \"#utility.yul\":4490:4510   */\n          sub\n            /* \"#utility.yul\":4486:4487   */\n          0x00\n            /* \"#utility.yul\":4475:4484   */\n          dup4\n            /* \"#utility.yul\":4471:4488   */\n          add\n            /* \"#utility.yul\":4464:4511   */\n          mstore\n            /* \"#utility.yul\":4528:4603   */\n          tag_149\n            /* \"#utility.yul\":4598:4602   */\n          dup2\n            /* \"#utility.yul\":4589:4595   */\n          dup5\n            /* \"#utility.yul\":4528:4603   */\n          tag_106\n          jump\t// in\n        tag_149:\n            /* \"#utility.yul\":4520:4603   */\n          swap1\n          pop\n            /* \"#utility.yul\":4303:4610   */\n          swap3\n          swap2\n          pop\n          pop\n          jump\t// out\n            /* \"#utility.yul\":4616:5035   */\n        tag_50:\n            /* \"#utility.yul\":4782:4786   */\n          0x00\n            /* \"#utility.yul\":4820:4822   */\n          0x20\n            /* \"#utility.yul\":4809:4818   */\n          dup3\n            /* \"#utility.yul\":4805:4823   */\n          add\n            /* \"#utility.yul\":4797:4823   */\n          swap1\n          pop\n            /* \"#utility.yul\":4869:4878   */\n          dup2\n            /* \"#utility.yul\":4863:4867   */\n          dup2\n            /* \"#utility.yul\":4859:4879   */\n          sub\n            /* \"#utility.yul\":4855:4856   */\n          0x00\n            /* \"#utility.yul\":4844:4853   */\n          dup4\n            /* \"#utility.yul\":4840:4857   */\n          add\n            /* \"#utility.yul\":4833:4880   */\n          mstore\n            /* \"#utility.yul\":4897:5028   */\n          tag_151\n            /* \"#utility.yul\":5023:5027   */\n          dup2\n            /* \"#utility.yul\":4897:5028   */\n          tag_118\n          jump\t// in\n        tag_151:\n            /* \"#utility.yul\":4889:5028   */\n          swap1\n          pop\n            /* \"#utility.yul\":4616:5035   */\n          swap2\n          swap1\n          pop\n          jump\t// out\n            /* \"#utility.yul\":5041:5460   */\n        tag_44:\n            /* \"#utility.yul\":5207:5211   */\n          0x00\n            /* \"#utility.yul\":5245:5247   */\n          0x20\n            /* \"#utility.yul\":5234:5243   */\n          dup3\n            /* \"#utility.yul\":5230:5248   */\n          add\n            /* \"#utility.yul\":5222:5248   */\n          swap1\n          pop\n            /* \"#utility.yul\":5294:5303   */\n          dup2\n            /* \"#utility.yul\":5288:5292   */\n          dup2\n            /* \"#utility.yul\":5284:5304   */\n          sub\n            /* \"#utility.yul\":5280:5281   */\n          0x00\n            /* \"#utility.yul\":5269:5278   */\n          dup4\n            /* \"#utility.yul\":5265:5282   */\n          add\n            /* \"#utility.yul\":5258:5305   */\n          mstore\n            /* \"#utility.yul\":5322:5453   */\n          tag_153\n            /* \"#utility.yul\":5448:5452   */\n          dup2\n            /* \"#utility.yul\":5322:5453   */\n          tag_123\n          jump\t// in\n        tag_153:\n            /* \"#utility.yul\":5314:5453   */\n          swap1\n          pop\n            /* \"#utility.yul\":5041:5460   */\n          swap2\n          swap1\n          pop\n          jump\t// out\n            /* \"#utility.yul\":5466:5885   */\n        tag_60:\n            /* \"#utility.yul\":5632:5636   */\n          0x00\n            /* \"#utility.yul\":5670:5672   */\n          0x20\n            /* \"#utility.yul\":5659:5668   */\n          dup3\n            /* \"#utility.yul\":5655:5673   */\n          add\n            /* \"#utility.yul\":5647:5673   */\n          swap1\n          pop\n            /* \"#utility.yul\":5719:5728   */\n          dup2\n            /* \"#utility.yul\":5713:5717   */\n          dup2\n            /* \"#utility.yul\":5709:5729   */\n          sub\n            /* \"#utility.yul\":5705:5706   */\n          0x00\n            /* \"#utility.yul\":5694:5703   */\n          dup4\n            /* \"#utility.yul\":5690:5707   */\n          add\n            /* \"#utility.yul\":5683:5730   */\n          mstore\n            /* \"#utility.yul\":5747:5878   */\n          tag_155\n            /* \"#utility.yul\":5873:5877   */\n          dup2\n            /* \"#utility.yul\":5747:5878   */\n          tag_128\n          jump\t// in\n        tag_155:\n            /* \"#utility.yul\":5739:5878   */\n          swap1\n          pop\n            /* \"#utility.yul\":5466:5885   */\n          swap2\n          swap1\n          pop\n          jump\t// out\n            /* \"#utility.yul\":5891:6310   */\n        tag_47:\n            /* \"#utility.yul\":6057:6061   */\n          0x00\n            /* \"#utility.yul\":6095:6097   */\n          0x20\n            /* \"#utility.yul\":6084:6093   */\n          dup3\n            /* \"#utility.yul\":6080:6098   */\n          add\n            /* \"#utility.yul\":6072:6098   */\n          swap1\n          pop\n            /* \"#utility.yul\":6144:6153   */\n          dup2\n            /* \"#utility.yul\":6138:6142   */\n          dup2\n            /* \"#utility.yul\":6134:6154   */\n          sub\n            /* \"#utility.yul\":6130:6131   */\n          0x00\n            /* \"#utility.yul\":6119:6128   */\n          dup4\n            /* \"#utility.yul\":6115:6132   */\n          add\n            /* \"#utility.yul\":6108:6155   */\n          mstore\n            /* \"#utility.yul\":6172:6303   */\n          tag_157\n            /* \"#utility.yul\":6298:6302   */\n          dup2\n            /* \"#utility.yul\":6172:6303   */\n          tag_133\n          jump\t// in\n        tag_157:\n            /* \"#utility.yul\":6164:6303   */\n          swap1\n          pop\n            /* \"#utility.yul\":5891:6310   */\n          swap2\n          swap1\n          pop\n          jump\t// out\n            /* \"#utility.yul\":6316:6538   */\n        tag_17:\n            /* \"#utility.yul\":6409:6413   */\n          0x00\n            /* \"#utility.yul\":6447:6449   */\n          0x20\n            /* \"#utility.yul\":6436:6445   */\n          dup3\n            /* \"#utility.yul\":6432:6450   */\n          add\n            /* \"#utility.yul\":6424:6450   */\n          swap1\n          pop\n            /* \"#utility.yul\":6460:6531   */\n          tag_159\n            /* \"#utility.yul\":6528:6529   */\n          0x00\n            /* \"#utility.yul\":6517:6526   */\n          dup4\n            /* \"#utility.yul\":6513:6530   */\n          add\n            /* \"#utility.yul\":6504:6510   */\n          dup5\n            /* \"#utility.yul\":6460:6531   */\n          tag_138\n          jump\t// in\n        tag_159:\n            /* \"#utility.yul\":6316:6538   */\n          swap3\n          swap2\n          pop\n          pop\n          jump\t// out\n            /* \"#utility.yul\":6625:6766   */\n        tag_114:\n            /* \"#utility.yul\":6674:6678   */\n          0x00\n            /* \"#utility.yul\":6697:6700   */\n          dup2\n            /* \"#utility.yul\":6689:6700   */\n          swap1\n          pop\n            /* \"#utility.yul\":6720:6723   */\n          dup2\n            /* \"#utility.yul\":6717:6718   */\n          0x00\n            /* \"#utility.yul\":6710:6724   */\n          mstore\n            /* \"#utility.yul\":6754:6758   */\n          0x20\n            /* \"#utility.yul\":6751:6752   */\n          0x00\n            /* \"#utility.yul\":6741:6759   */\n          keccak256\n            /* \"#utility.yul\":6733:6759   */\n          swap1\n          pop\n            /* \"#utility.yul\":6625:6766   */\n          swap2\n          swap1\n          pop\n          jump\t// out\n            /* \"#utility.yul\":6772:6871   */\n        tag_99:\n            /* \"#utility.yul\":6824:6830   */\n          0x00\n            /* \"#utility.yul\":6858:6863   */\n          dup2\n            /* \"#utility.yul\":6852:6864   */\n          mload\n            /* \"#utility.yul\":6842:6864   */\n          swap1\n          pop\n            /* \"#utility.yul\":6772:6871   */\n          swap2\n          swap1\n          pop\n          jump\t// out\n            /* \"#utility.yul\":6877:7046   */\n        tag_101:\n            /* \"#utility.yul\":6961:6972   */\n          0x00\n            /* \"#utility.yul\":6995:7001   */\n          dup3\n            /* \"#utility.yul\":6990:6993   */\n          dup3\n            /* \"#utility.yul\":6983:7002   */\n          mstore\n            /* \"#utility.yul\":7035:7039   */\n          0x20\n            /* \"#utility.yul\":7030:7033   */\n          dup3\n            /* \"#utility.yul\":7026:7040   */\n          add\n            /* \"#utility.yul\":7011:7040   */\n          swap1\n          pop\n            /* \"#utility.yul\":6877:7046   */\n          swap3\n          swap2\n          pop\n          pop\n          jump\t// out\n            /* \"#utility.yul\":7052:7148   */\n        tag_91:\n            /* \"#utility.yul\":7089:7096   */\n          0x00\n            /* \"#utility.yul\":7118:7142   */\n          tag_166\n            /* \"#utility.yul\":7136:7141   */\n          dup3\n            /* \"#utility.yul\":7118:7142   */\n          tag_167\n          jump\t// in\n        tag_166:\n            /* \"#utility.yul\":7107:7142   */\n          swap1\n          pop\n            /* \"#utility.yul\":7052:7148   */\n          swap2\n          swap1\n          pop\n          jump\t// out\n            /* \"#utility.yul\":7154:7244   */\n        tag_95:\n            /* \"#utility.yul\":7188:7195   */\n          0x00\n            /* \"#utility.yul\":7231:7236   */\n          dup2\n            /* \"#utility.yul\":7224:7237   */\n          iszero\n            /* \"#utility.yul\":7217:7238   */\n          iszero\n            /* \"#utility.yul\":7206:7238   */\n          swap1\n          pop\n            /* \"#utility.yul\":7154:7244   */\n          swap2\n          swap1\n          pop\n          jump\t// out\n            /* \"#utility.yul\":7250:7376   */\n        tag_167:\n            /* \"#utility.yul\":7287:7294   */\n          0x00\n            /* \"#utility.yul\":7327:7369   */\n          0xffffffffffffffffffffffffffffffffffffffff\n            /* \"#utility.yul\":7320:7325   */\n          dup3\n            /* \"#utility.yul\":7316:7370   */\n          and\n            /* \"#utility.yul\":7305:7370   */\n          swap1\n          pop\n            /* \"#utility.yul\":7250:7376   */\n          swap2\n          swap1\n          pop\n          jump\t// out\n            /* \"#utility.yul\":7382:7459   */\n        tag_141:\n            /* \"#utility.yul\":7419:7426   */\n          0x00\n            /* \"#utility.yul\":7448:7453   */\n          dup2\n            /* \"#utility.yul\":7437:7453   */\n          swap1\n          pop\n            /* \"#utility.yul\":7382:7459   */\n          swap2\n          swap1\n          pop\n          jump\t// out\n            /* \"#utility.yul\":7465:7772   */\n        tag_103:\n            /* \"#utility.yul\":7533:7534   */\n          0x00\n            /* \"#utility.yul\":7543:7656   */\n        tag_172:\n            /* \"#utility.yul\":7557:7563   */\n          dup4\n            /* \"#utility.yul\":7554:7555   */\n          dup2\n            /* \"#utility.yul\":7551:7564   */\n          lt\n            /* \"#utility.yul\":7543:7656   */\n          iszero\n          tag_174\n          jumpi\n            /* \"#utility.yul\":7642:7643   */\n          dup1\n            /* \"#utility.yul\":7637:7640   */\n          dup3\n            /* \"#utility.yul\":7633:7644   */\n          add\n            /* \"#utility.yul\":7627:7645   */\n          mload\n            /* \"#utility.yul\":7623:7624   */\n          dup2\n            /* \"#utility.yul\":7618:7621   */\n          dup5\n            /* \"#utility.yul\":7614:7625   */\n          add\n            /* \"#utility.yul\":7607:7646   */\n          mstore\n            /* \"#utility.yul\":7579:7581   */\n          0x20\n            /* \"#utility.yul\":7576:7577   */\n          dup2\n            /* \"#utility.yul\":7572:7582   */\n          add\n            /* \"#utility.yul\":7567:7582   */\n          swap1\n          pop\n            /* \"#utility.yul\":7543:7656   */\n          jump(tag_172)\n        tag_174:\n            /* \"#utility.yul\":7674:7680   */\n          dup4\n            /* \"#utility.yul\":7671:7672   */\n          dup2\n            /* \"#utility.yul\":7668:7681   */\n          gt\n            /* \"#utility.yul\":7665:7766   */\n          iszero\n          tag_175\n          jumpi\n            /* \"#utility.yul\":7754:7755   */\n          0x00\n            /* \"#utility.yul\":7745:7751   */\n          dup5\n            /* \"#utility.yul\":7740:7743   */\n          dup5\n            /* \"#utility.yul\":7736:7752   */\n          add\n            /* \"#utility.yul\":7729:7756   */\n          mstore\n            /* \"#utility.yul\":7665:7766   */\n        tag_175:\n            /* \"#utility.yul\":7514:7772   */\n          pop\n            /* \"#utility.yul\":7465:7772   */\n          pop\n          pop\n          pop\n          jump\t// out\n            /* \"#utility.yul\":7778:8098   */\n        tag_73:\n            /* \"#utility.yul\":7822:7828   */\n          0x00\n            /* \"#utility.yul\":7859:7860   */\n          0x02\n            /* \"#utility.yul\":7853:7857   */\n          dup3\n            /* \"#utility.yul\":7849:7861   */\n          div\n            /* \"#utility.yul\":7839:7861   */\n          swap1\n          pop\n            /* \"#utility.yul\":7906:7907   */\n          0x01\n            /* \"#utility.yul\":7900:7904   */\n          dup3\n            /* \"#utility.yul\":7896:7908   */\n          and\n            /* \"#utility.yul\":7927:7945   */\n          dup1\n            /* \"#utility.yul\":7917:7998   */\n          tag_177\n          jumpi\n            /* \"#utility.yul\":7983:7987   */\n          0x7f\n            /* \"#utility.yul\":7975:7981   */\n          dup3\n            /* \"#utility.yul\":7971:7988   */\n          and\n            /* \"#utility.yul\":7961:7988   */\n          swap2\n          pop\n            /* \"#utility.yul\":7917:7998   */\n        tag_177:\n            /* \"#utility.yul\":8045:8047   */\n          0x20\n            /* \"#utility.yul\":8037:8043   */\n          dup3\n            /* \"#utility.yul\":8034:8048   */\n          lt\n            /* \"#utility.yul\":8014:8032   */\n          dup2\n            /* \"#utility.yul\":8011:8049   */\n          eq\n            /* \"#utility.yul\":8008:8092   */\n          iszero\n          tag_178\n          jumpi\n            /* \"#utility.yul\":8064:8082   */\n          tag_179\n          tag_180\n          jump\t// in\n        tag_179:\n            /* \"#utility.yul\":8008:8092   */\n        tag_178:\n            /* \"#utility.yul\":7829:8098   */\n          pop\n            /* \"#utility.yul\":7778:8098   */\n          swap2\n          swap1\n          pop\n          jump\t// out\n            /* \"#utility.yul\":8104:8284   */\n        tag_180:\n            /* \"#utility.yul\":8152:8229   */\n          0x4e487b7100000000000000000000000000000000000000000000000000000000\n            /* \"#utility.yul\":8149:8150   */\n          0x00\n            /* \"#utility.yul\":8142:8230   */\n          mstore\n            /* \"#utility.yul\":8249:8253   */\n          0x22\n            /* \"#utility.yul\":8246:8247   */\n          0x04\n            /* \"#utility.yul\":8239:8254   */\n          mstore\n            /* \"#utility.yul\":8273:8277   */\n          0x24\n            /* \"#utility.yul\":8270:8271   */\n          0x00\n            /* \"#utility.yul\":8263:8278   */\n          revert\n            /* \"#utility.yul\":8413:8530   */\n        tag_86:\n            /* \"#utility.yul\":8522:8523   */\n          0x00\n            /* \"#utility.yul\":8519:8520   */\n          dup1\n            /* \"#utility.yul\":8512:8524   */\n          revert\n            /* \"#utility.yul\":8536:8638   */\n        tag_105:\n            /* \"#utility.yul\":8577:8583   */\n          0x00\n            /* \"#utility.yul\":8628:8630   */\n          0x1f\n            /* \"#utility.yul\":8624:8631   */\n          not\n            /* \"#utility.yul\":8619:8621   */\n          0x1f\n            /* \"#utility.yul\":8612:8617   */\n          dup4\n            /* \"#utility.yul\":8608:8622   */\n          add\n            /* \"#utility.yul\":8604:8632   */\n          and\n            /* \"#utility.yul\":8594:8632   */\n          swap1\n          pop\n            /* \"#utility.yul\":8536:8638   */\n          swap2\n          swap1\n          pop\n          jump\t// out\n            /* \"#utility.yul\":8644:8826   */\n        tag_122:\n            /* \"#utility.yul\":8784:8818   */\n          0x4e6f20706f74732076616c6964617220692064656e6567617220616c686f7261\n            /* \"#utility.yul\":8780:8781   */\n          0x00\n            /* \"#utility.yul\":8772:8778   */\n          dup3\n            /* \"#utility.yul\":8768:8782   */\n          add\n            /* \"#utility.yul\":8761:8819   */\n          mstore\n            /* \"#utility.yul\":8644:8826   */\n          pop\n          jump\t// out\n            /* \"#utility.yul\":8832:9060   */\n        tag_127:\n            /* \"#utility.yul\":8972:9006   */\n          0x456c2070726f70696574617269206e6f20706f742076616c6964617220656c20\n            /* \"#utility.yul\":8968:8969   */\n          0x00\n            /* \"#utility.yul\":8960:8966   */\n          dup3\n            /* \"#utility.yul\":8956:8970   */\n          add\n            /* \"#utility.yul\":8949:9007   */\n          mstore\n            /* \"#utility.yul\":9041:9052   */\n          0x7365752061737365740000000000000000000000000000000000000000000000\n            /* \"#utility.yul\":9036:9038   */\n          0x20\n            /* \"#utility.yul\":9028:9034   */\n          dup3\n            /* \"#utility.yul\":9024:9039   */\n          add\n            /* \"#utility.yul\":9017:9053   */\n          mstore\n            /* \"#utility.yul\":8832:9060   */\n          pop\n          jump\t// out\n            /* \"#utility.yul\":9066:9233   */\n        tag_132:\n            /* \"#utility.yul\":9206:9225   */\n          0x56616c696461646f722072657065746974000000000000000000000000000000\n            /* \"#utility.yul\":9202:9203   */\n          0x00\n            /* \"#utility.yul\":9194:9200   */\n          dup3\n            /* \"#utility.yul\":9190:9204   */\n          add\n            /* \"#utility.yul\":9183:9226   */\n          mstore\n            /* \"#utility.yul\":9066:9233   */\n          pop\n          jump\t// out\n            /* \"#utility.yul\":9239:9406   */\n        tag_137:\n            /* \"#utility.yul\":9379:9398   */\n          0x44656e656761646f722072657065746974000000000000000000000000000000\n            /* \"#utility.yul\":9375:9376   */\n          0x00\n            /* \"#utility.yul\":9367:9373   */\n          dup3\n            /* \"#utility.yul\":9363:9377   */\n          add\n            /* \"#utility.yul\":9356:9399   */\n          mstore\n            /* \"#utility.yul\":9239:9406   */\n          pop\n          jump\t// out\n            /* \"#utility.yul\":9412:9534   */\n        tag_82:\n            /* \"#utility.yul\":9485:9509   */\n          tag_191\n            /* \"#utility.yul\":9503:9508   */\n          dup2\n            /* \"#utility.yul\":9485:9509   */\n          tag_91\n          jump\t// in\n        tag_191:\n            /* \"#utility.yul\":9478:9483   */\n          dup2\n            /* \"#utility.yul\":9475:9510   */\n          eq\n            /* \"#utility.yul\":9465:9528   */\n          tag_192\n          jumpi\n            /* \"#utility.yul\":9524:9525   */\n          0x00\n            /* \"#utility.yul\":9521:9522   */\n          dup1\n            /* \"#utility.yul\":9514:9526   */\n          revert\n            /* \"#utility.yul\":9465:9528   */\n        tag_192:\n            /* \"#utility.yul\":9412:9534   */\n          pop\n          jump\t// out\n\n        auxdata: 0xa264697066735822122001a958e0d8e9121b0693a263eda52f005f08246c67fc7919378e4b43ccbeab4064736f6c63430008070033\n    }\n}\n",
				"bytecode": {
					"linkReferences": {},
					"object": "60806040523480156200001157600080fd5b5060405162001bd638038062001bd683398181016040528101906200003791906200027b565b336000806101000a81548173ffffffffffffffffffffffffffffffffffffffff021916908373ffffffffffffffffffffffffffffffffffffffff1602179055506000600260146101000a81548160ff02191690831515021790555083600381905550816004819055508260058190555080600660006101000a81548160ff02191690831515021790555084604051620000d090620001c1565b620000dc919062000374565b604051809103906000f080158015620000f9573d6000803e3d6000fd5b50600260006101000a81548173ffffffffffffffffffffffffffffffffffffffff021916908373ffffffffffffffffffffffffffffffffffffffff16021790555060008054906101000a900473ffffffffffffffffffffffffffffffffffffffff1673ffffffffffffffffffffffffffffffffffffffff167f36c5cfb84b25c611b67a3f5ae576111a61441b10cd2f3b3cb9fd9fb407d6a9f286600354600554600454604051620001ae949392919062000398565b60405180910390a2505050505062000571565b61130a80620008cc83390190565b6000620001e6620001e08462000415565b620003ec565b9050828152602081018484840111156200020557620002046200051d565b5b620002128482856200047d565b509392505050565b6000815190506200022b816200053d565b92915050565b600082601f83011262000249576200024862000518565b5b81516200025b848260208601620001cf565b91505092915050565b600081519050620002758162000557565b92915050565b600080600080600060a086880312156200029a576200029962000527565b5b600086015167ffffffffffffffff811115620002bb57620002ba62000522565b5b620002c98882890162000231565b9550506020620002dc8882890162000264565b9450506040620002ef8882890162000264565b9350506060620003028882890162000264565b925050608062000315888289016200021a565b9150509295509295909350565b60006200032f826200044b565b6200033b818562000456565b93506200034d8185602086016200047d565b62000358816200052c565b840191505092915050565b6200036e8162000473565b82525050565b6000602082019050818103600083015262000390818462000322565b905092915050565b60006080820190508181036000830152620003b4818762000322565b9050620003c5602083018662000363565b620003d4604083018562000363565b620003e3606083018462000363565b95945050505050565b6000620003f86200040b565b9050620004068282620004b3565b919050565b6000604051905090565b600067ffffffffffffffff821115620004335762000432620004e9565b5b6200043e826200052c565b9050602081019050919050565b600081519050919050565b600082825260208201905092915050565b60008115159050919050565b6000819050919050565b60005b838110156200049d57808201518184015260208101905062000480565b83811115620004ad576000848401525b50505050565b620004be826200052c565b810181811067ffffffffffffffff82111715620004e057620004df620004e9565b5b80604052505050565b7f4e487b7100000000000000000000000000000000000000000000000000000000600052604160045260246000fd5b600080fd5b600080fd5b600080fd5b600080fd5b6000601f19601f8301169050919050565b620005488162000467565b81146200055457600080fd5b50565b620005628162000473565b81146200056e57600080fd5b50565b61034b80620005816000396000f3fe608060405234801561001057600080fd5b506004361061007d5760003560e01c806368ff2d371161005b57806368ff2d37146100dc5780639ec15039146100fa578063ac007eff14610118578063fb3ceda7146101365761007d565b806320965255146100825780632e3b3b18146100a05780635c1548fb146100be575b600080fd5b61008a610154565b604051610097919061027c565b60405180910390f35b6100a861015e565b6040516100b59190610246565b60405180910390f35b6100c6610175565b6040516100d3919061027c565b60405180910390f35b6100e461017f565b6040516100f19190610261565b60405180910390f35b6101026101a5565b60405161010f919061022b565b60405180910390f35b6101206101ce565b60405161012d9190610246565b60405180910390f35b61013e6101e5565b60405161014b919061027c565b60405180910390f35b6000600354905090565b6000600260149054906101000a900460ff16905090565b6000600554905090565b600260009054906101000a900473ffffffffffffffffffffffffffffffffffffffff1681565b60008060009054906101000a900473ffffffffffffffffffffffffffffffffffffffff16905090565b6000600660009054906101000a900460ff16905090565b6000600454905090565b6101f881610297565b82525050565b610207816102a9565b82525050565b610216816102df565b82525050565b610225816102d5565b82525050565b600060208201905061024060008301846101ef565b92915050565b600060208201905061025b60008301846101fe565b92915050565b6000602082019050610276600083018461020d565b92915050565b6000602082019050610291600083018461021c565b92915050565b60006102a2826102b5565b9050919050565b60008115159050919050565b600073ffffffffffffffffffffffffffffffffffffffff82169050919050565b6000819050919050565b60006102ea826102f1565b9050919050565b60006102fc82610303565b9050919050565b600061030e826102b5565b905091905056fea2646970667358221220dc5bd00b44744d4f241017f635e1173814e2b6bb99574d70da0c3412f59e85a264736f6c6343000807003360806040523480156200001157600080fd5b506040516200130a3803806200130a833981810160405281019062000037919062000236565b336000806101000a81548173ffffffffffffffffffffffffffffffffffffffff021916908373ffffffffffffffffffffffffffffffffffffffff16021790555080600190805190602001906200008f92919062000108565b5060008054906101000a900473ffffffffffffffffffffffffffffffffffffffff1673ffffffffffffffffffffffffffffffffffffffff167f3d6aba6def46bd8784b0b6505c24d0aa59cd9316e6c5db593d3d8470797d7a3e6001604051620000f9919062000313565b60405180910390a250620004e1565b8280546200011690620003f2565b90600052602060002090601f0160209004810192826200013a576000855562000186565b82601f106200015557805160ff191683800117855562000186565b8280016001018555821562000186579182015b828111156200018557825182559160200191906001019062000168565b5b50905062000195919062000199565b5090565b5b80821115620001b45760008160009055506001016200019a565b5090565b6000620001cf620001c98462000360565b62000337565b905082815260208101848484011115620001ee57620001ed620004c1565b5b620001fb848285620003bc565b509392505050565b600082601f8301126200021b576200021a620004bc565b5b81516200022d848260208601620001b8565b91505092915050565b6000602082840312156200024f576200024e620004cb565b5b600082015167ffffffffffffffff81111562000270576200026f620004c6565b5b6200027e8482850162000203565b91505092915050565b600081546200029681620003f2565b620002a28186620003ab565b94506001821660008114620002c05760018114620002d3576200030a565b60ff19831686526020860193506200030a565b620002de8562000396565b60005b838110156200030257815481890152600182019150602081019050620002e1565b808801955050505b50505092915050565b600060208201905081810360008301526200032f818462000287565b905092915050565b60006200034362000356565b905062000351828262000428565b919050565b6000604051905090565b600067ffffffffffffffff8211156200037e576200037d6200048d565b5b6200038982620004d0565b9050602081019050919050565b60008190508160005260206000209050919050565b600082825260208201905092915050565b60005b83811015620003dc578082015181840152602081019050620003bf565b83811115620003ec576000848401525b50505050565b600060028204905060018216806200040b57607f821691505b602082108114156200042257620004216200045e565b5b50919050565b6200043382620004d0565b810181811067ffffffffffffffff821117156200045557620004546200048d565b5b80604052505050565b7f4e487b7100000000000000000000000000000000000000000000000000000000600052602260045260246000fd5b7f4e487b7100000000000000000000000000000000000000000000000000000000600052604160045260246000fd5b600080fd5b600080fd5b600080fd5b600080fd5b6000601f19601f8301169050919050565b610e1980620004f16000396000f3fe608060405234801561001057600080fd5b50600436106100885760003560e01c8063990ec12b1161005b578063990ec12b146100dd578063b794cc2f146100fb578063c43745751461012b578063cef2320c1461015b57610088565b80635836e0b51461008d5780635d8ab6e7146100975780636901f668146100b5578063893d20e8146100bf575b600080fd5b610095610179565b005b61009f61042e565b6040516100ac9190610bc4565b60405180910390f35b6100bd61043b565b005b6100c76106f0565b6040516100d49190610aca565b60405180910390f35b6100e5610719565b6040516100f29190610bc4565b60405180910390f35b6101156004803603810190610110919061092b565b610726565b6040516101229190610ae5565b60405180910390f35b6101456004803603810190610140919061092b565b6107d5565b6040516101529190610ae5565b60405180910390f35b610163610884565b6040516101709190610b00565b60405180910390f35b3373ffffffffffffffffffffffffffffffffffffffff1660008054906101000a900473ffffffffffffffffffffffffffffffffffffffff1673ffffffffffffffffffffffffffffffffffffffff161415610208576040517f08c379a00000000000000000000000000000000000000000000000000000000081526004016101ff90610b64565b60405180910390fd5b600560003373ffffffffffffffffffffffffffffffffffffffff1673ffffffffffffffffffffffffffffffffffffffff16815260200190815260200160002060009054906101000a900460ff1615610295576040517f08c379a000000000000000000000000000000000000000000000000000000000815260040161028c90610ba4565b60405180910390fd5b600460003373ffffffffffffffffffffffffffffffffffffffff1673ffffffffffffffffffffffffffffffffffffffff16815260200190815260200160002060009054906101000a900460ff1615610322576040517f08c379a000000000000000000000000000000000000000000000000000000000815260040161031990610b44565b60405180910390fd5b6003339080600181540180825580915050600190039060005260206000200160009091909190916101000a81548173ffffffffffffffffffffffffffffffffffffffff021916908373ffffffffffffffffffffffffffffffffffffffff1602179055506001600560003373ffffffffffffffffffffffffffffffffffffffff1673ffffffffffffffffffffffffffffffffffffffff16815260200190815260200160002060006101000a81548160ff0219169083151502179055503373ffffffffffffffffffffffffffffffffffffffff167f9036bc06ad4a578f0132d89ba4adc07b9772275526730acc38d7e4b4c11872a360016040516104249190610b22565b60405180910390a2565b6000600380549050905090565b3373ffffffffffffffffffffffffffffffffffffffff1660008054906101000a900473ffffffffffffffffffffffffffffffffffffffff1673ffffffffffffffffffffffffffffffffffffffff1614156104ca576040517f08c379a00000000000000000000000000000000000000000000000000000000081526004016104c190610b64565b60405180910390fd5b600460003373ffffffffffffffffffffffffffffffffffffffff1673ffffffffffffffffffffffffffffffffffffffff16815260200190815260200160002060009054906101000a900460ff1615610557576040517f08c379a000000000000000000000000000000000000000000000000000000000815260040161054e90610b84565b60405180910390fd5b600560003373ffffffffffffffffffffffffffffffffffffffff1673ffffffffffffffffffffffffffffffffffffffff16815260200190815260200160002060009054906101000a900460ff16156105e4576040517f08c379a00000000000000000000000000000000000000000000000000000000081526004016105db90610b44565b60405180910390fd5b6002339080600181540180825580915050600190039060005260206000200160009091909190916101000a81548173ffffffffffffffffffffffffffffffffffffffff021916908373ffffffffffffffffffffffffffffffffffffffff1602179055506001600460003373ffffffffffffffffffffffffffffffffffffffff1673ffffffffffffffffffffffffffffffffffffffff16815260200190815260200160002060006101000a81548160ff0219169083151502179055503373ffffffffffffffffffffffffffffffffffffffff167f57d77eb32e87e8c65c7cec1df5b0e8a8d5c4eae1b40c7246e7668ed702dd247a60016040516106e69190610b22565b60405180910390a2565b60008060009054906101000a900473ffffffffffffffffffffffffffffffffffffffff16905090565b6000600280549050905090565b60008173ffffffffffffffffffffffffffffffffffffffff1660008054906101000a900473ffffffffffffffffffffffffffffffffffffffff1673ffffffffffffffffffffffffffffffffffffffff16141561078157600080fd5b600560008373ffffffffffffffffffffffffffffffffffffffff1673ffffffffffffffffffffffffffffffffffffffff16815260200190815260200160002060009054906101000a900460ff169050919050565b60008173ffffffffffffffffffffffffffffffffffffffff1660008054906101000a900473ffffffffffffffffffffffffffffffffffffffff1673ffffffffffffffffffffffffffffffffffffffff16141561083057600080fd5b600460008373ffffffffffffffffffffffffffffffffffffffff1673ffffffffffffffffffffffffffffffffffffffff16815260200190815260200160002060009054906101000a900460ff169050919050565b60606001805461089390610c8b565b80601f01602080910402602001604051908101604052809291908181526020018280546108bf90610c8b565b801561090c5780601f106108e15761010080835404028352916020019161090c565b820191906000526020600020905b8154815290600101906020018083116108ef57829003601f168201915b5050505050905090565b60008135905061092581610dcc565b92915050565b60006020828403121561094157610940610cec565b5b600061094f84828501610916565b91505092915050565b61096181610c10565b82525050565b61097081610c22565b82525050565b600061098182610bf4565b61098b8185610bff565b935061099b818560208601610c58565b6109a481610cf1565b840191505092915050565b600081546109bc81610c8b565b6109c68186610bff565b945060018216600081146109e157600181146109f357610a26565b60ff1983168652602086019350610a26565b6109fc85610bdf565b60005b83811015610a1e578154818901526001820191506020810190506109ff565b808801955050505b50505092915050565b6000610a3c602083610bff565b9150610a4782610d02565b602082019050919050565b6000610a5f602983610bff565b9150610a6a82610d2b565b604082019050919050565b6000610a82601183610bff565b9150610a8d82610d7a565b602082019050919050565b6000610aa5601183610bff565b9150610ab082610da3565b602082019050919050565b610ac481610c4e565b82525050565b6000602082019050610adf6000830184610958565b92915050565b6000602082019050610afa6000830184610967565b92915050565b60006020820190508181036000830152610b1a8184610976565b905092915050565b60006020820190508181036000830152610b3c81846109af565b905092915050565b60006020820190508181036000830152610b5d81610a2f565b9050919050565b60006020820190508181036000830152610b7d81610a52565b9050919050565b60006020820190508181036000830152610b9d81610a75565b9050919050565b60006020820190508181036000830152610bbd81610a98565b9050919050565b6000602082019050610bd96000830184610abb565b92915050565b60008190508160005260206000209050919050565b600081519050919050565b600082825260208201905092915050565b6000610c1b82610c2e565b9050919050565b60008115159050919050565b600073ffffffffffffffffffffffffffffffffffffffff82169050919050565b6000819050919050565b60005b83811015610c76578082015181840152602081019050610c5b565b83811115610c85576000848401525b50505050565b60006002820490506001821680610ca357607f821691505b60208210811415610cb757610cb6610cbd565b5b50919050565b7f4e487b7100000000000000000000000000000000000000000000000000000000600052602260045260246000fd5b600080fd5b6000601f19601f8301169050919050565b7f4e6f20706f74732076616c6964617220692064656e6567617220616c686f7261600082015250565b7f456c2070726f70696574617269206e6f20706f742076616c6964617220656c2060008201527f7365752061737365740000000000000000000000000000000000000000000000602082015250565b7f56616c696461646f722072657065746974000000000000000000000000000000600082015250565b7f44656e656761646f722072657065746974000000000000000000000000000000600082015250565b610dd581610c10565b8114610de057600080fd5b5056fea264697066735822122001a958e0d8e9121b0693a263eda52f005f08246c67fc7919378e4b43ccbeab4064736f6c63430008070033",
					"opcodes": "PUSH1 0x80 PUSH1 0x40 MSTORE CALLVALUE DUP1 ISZERO PUSH3 0x11 JUMPI PUSH1 0x0 DUP1 REVERT JUMPDEST POP PUSH1 0x40 MLOAD PUSH3 0x1BD6 CODESIZE SUB DUP1 PUSH3 0x1BD6 DUP4 CODECOPY DUP2 DUP2 ADD PUSH1 0x40 MSTORE DUP2 ADD SWAP1 PUSH3 0x37 SWAP2 SWAP1 PUSH3 0x27B JUMP JUMPDEST CALLER PUSH1 0x0 DUP1 PUSH2 0x100 EXP DUP2 SLOAD DUP2 PUSH20 0xFFFFFFFFFFFFFFFFFFFFFFFFFFFFFFFFFFFFFFFF MUL NOT AND SWAP1 DUP4 PUSH20 0xFFFFFFFFFFFFFFFFFFFFFFFFFFFFFFFFFFFFFFFF AND MUL OR SWAP1 SSTORE POP PUSH1 0x0 PUSH1 0x2 PUSH1 0x14 PUSH2 0x100 EXP DUP2 SLOAD DUP2 PUSH1 0xFF MUL NOT AND SWAP1 DUP4 ISZERO ISZERO MUL OR SWAP1 SSTORE POP DUP4 PUSH1 0x3 DUP2 SWAP1 SSTORE POP DUP2 PUSH1 0x4 DUP2 SWAP1 SSTORE POP DUP3 PUSH1 0x5 DUP2 SWAP1 SSTORE POP DUP1 PUSH1 0x6 PUSH1 0x0 PUSH2 0x100 EXP DUP2 SLOAD DUP2 PUSH1 0xFF MUL NOT AND SWAP1 DUP4 ISZERO ISZERO MUL OR SWAP1 SSTORE POP DUP5 PUSH1 0x40 MLOAD PUSH3 0xD0 SWAP1 PUSH3 0x1C1 JUMP JUMPDEST PUSH3 0xDC SWAP2 SWAP1 PUSH3 0x374 JUMP JUMPDEST PUSH1 0x40 MLOAD DUP1 SWAP2 SUB SWAP1 PUSH1 0x0 CREATE DUP1 ISZERO DUP1 ISZERO PUSH3 0xF9 JUMPI RETURNDATASIZE PUSH1 0x0 DUP1 RETURNDATACOPY RETURNDATASIZE PUSH1 0x0 REVERT JUMPDEST POP PUSH1 0x2 PUSH1 0x0 PUSH2 0x100 EXP DUP2 SLOAD DUP2 PUSH20 0xFFFFFFFFFFFFFFFFFFFFFFFFFFFFFFFFFFFFFFFF MUL NOT AND SWAP1 DUP4 PUSH20 0xFFFFFFFFFFFFFFFFFFFFFFFFFFFFFFFFFFFFFFFF AND MUL OR SWAP1 SSTORE POP PUSH1 0x0 DUP1 SLOAD SWAP1 PUSH2 0x100 EXP SWAP1 DIV PUSH20 0xFFFFFFFFFFFFFFFFFFFFFFFFFFFFFFFFFFFFFFFF AND PUSH20 0xFFFFFFFFFFFFFFFFFFFFFFFFFFFFFFFFFFFFFFFF AND PUSH32 0x36C5CFB84B25C611B67A3F5AE576111A61441B10CD2F3B3CB9FD9FB407D6A9F2 DUP7 PUSH1 0x3 SLOAD PUSH1 0x5 SLOAD PUSH1 0x4 SLOAD PUSH1 0x40 MLOAD PUSH3 0x1AE SWAP5 SWAP4 SWAP3 SWAP2 SWAP1 PUSH3 0x398 JUMP JUMPDEST PUSH1 0x40 MLOAD DUP1 SWAP2 SUB SWAP1 LOG2 POP POP POP POP POP PUSH3 0x571 JUMP JUMPDEST PUSH2 0x130A DUP1 PUSH3 0x8CC DUP4 CODECOPY ADD SWAP1 JUMP JUMPDEST PUSH1 0x0 PUSH3 0x1E6 PUSH3 0x1E0 DUP5 PUSH3 0x415 JUMP JUMPDEST PUSH3 0x3EC JUMP JUMPDEST SWAP1 POP DUP3 DUP2 MSTORE PUSH1 0x20 DUP2 ADD DUP5 DUP5 DUP5 ADD GT ISZERO PUSH3 0x205 JUMPI PUSH3 0x204 PUSH3 0x51D JUMP JUMPDEST JUMPDEST PUSH3 0x212 DUP5 DUP3 DUP6 PUSH3 0x47D JUMP JUMPDEST POP SWAP4 SWAP3 POP POP POP JUMP JUMPDEST PUSH1 0x0 DUP2 MLOAD SWAP1 POP PUSH3 0x22B DUP2 PUSH3 0x53D JUMP JUMPDEST SWAP3 SWAP2 POP POP JUMP JUMPDEST PUSH1 0x0 DUP3 PUSH1 0x1F DUP4 ADD SLT PUSH3 0x249 JUMPI PUSH3 0x248 PUSH3 0x518 JUMP JUMPDEST JUMPDEST DUP2 MLOAD PUSH3 0x25B DUP5 DUP3 PUSH1 0x20 DUP7 ADD PUSH3 0x1CF JUMP JUMPDEST SWAP2 POP POP SWAP3 SWAP2 POP POP JUMP JUMPDEST PUSH1 0x0 DUP2 MLOAD SWAP1 POP PUSH3 0x275 DUP2 PUSH3 0x557 JUMP JUMPDEST SWAP3 SWAP2 POP POP JUMP JUMPDEST PUSH1 0x0 DUP1 PUSH1 0x0 DUP1 PUSH1 0x0 PUSH1 0xA0 DUP7 DUP9 SUB SLT ISZERO PUSH3 0x29A JUMPI PUSH3 0x299 PUSH3 0x527 JUMP JUMPDEST JUMPDEST PUSH1 0x0 DUP7 ADD MLOAD PUSH8 0xFFFFFFFFFFFFFFFF DUP2 GT ISZERO PUSH3 0x2BB JUMPI PUSH3 0x2BA PUSH3 0x522 JUMP JUMPDEST JUMPDEST PUSH3 0x2C9 DUP9 DUP3 DUP10 ADD PUSH3 0x231 JUMP JUMPDEST SWAP6 POP POP PUSH1 0x20 PUSH3 0x2DC DUP9 DUP3 DUP10 ADD PUSH3 0x264 JUMP JUMPDEST SWAP5 POP POP PUSH1 0x40 PUSH3 0x2EF DUP9 DUP3 DUP10 ADD PUSH3 0x264 JUMP JUMPDEST SWAP4 POP POP PUSH1 0x60 PUSH3 0x302 DUP9 DUP3 DUP10 ADD PUSH3 0x264 JUMP JUMPDEST SWAP3 POP POP PUSH1 0x80 PUSH3 0x315 DUP9 DUP3 DUP10 ADD PUSH3 0x21A JUMP JUMPDEST SWAP2 POP POP SWAP3 SWAP6 POP SWAP3 SWAP6 SWAP1 SWAP4 POP JUMP JUMPDEST PUSH1 0x0 PUSH3 0x32F DUP3 PUSH3 0x44B JUMP JUMPDEST PUSH3 0x33B DUP2 DUP6 PUSH3 0x456 JUMP JUMPDEST SWAP4 POP PUSH3 0x34D DUP2 DUP6 PUSH1 0x20 DUP7 ADD PUSH3 0x47D JUMP JUMPDEST PUSH3 0x358 DUP2 PUSH3 0x52C JUMP JUMPDEST DUP5 ADD SWAP2 POP POP SWAP3 SWAP2 POP POP JUMP JUMPDEST PUSH3 0x36E DUP2 PUSH3 0x473 JUMP JUMPDEST DUP3 MSTORE POP POP JUMP JUMPDEST PUSH1 0x0 PUSH1 0x20 DUP3 ADD SWAP1 POP DUP2 DUP2 SUB PUSH1 0x0 DUP4 ADD MSTORE PUSH3 0x390 DUP2 DUP5 PUSH3 0x322 JUMP JUMPDEST SWAP1 POP SWAP3 SWAP2 POP POP JUMP JUMPDEST PUSH1 0x0 PUSH1 0x80 DUP3 ADD SWAP1 POP DUP2 DUP2 SUB PUSH1 0x0 DUP4 ADD MSTORE PUSH3 0x3B4 DUP2 DUP8 PUSH3 0x322 JUMP JUMPDEST SWAP1 POP PUSH3 0x3C5 PUSH1 0x20 DUP4 ADD DUP7 PUSH3 0x363 JUMP JUMPDEST PUSH3 0x3D4 PUSH1 0x40 DUP4 ADD DUP6 PUSH3 0x363 JUMP JUMPDEST PUSH3 0x3E3 PUSH1 0x60 DUP4 ADD DUP5 PUSH3 0x363 JUMP JUMPDEST SWAP6 SWAP5 POP POP POP POP POP JUMP JUMPDEST PUSH1 0x0 PUSH3 0x3F8 PUSH3 0x40B JUMP JUMPDEST SWAP1 POP PUSH3 0x406 DUP3 DUP3 PUSH3 0x4B3 JUMP JUMPDEST SWAP2 SWAP1 POP JUMP JUMPDEST PUSH1 0x0 PUSH1 0x40 MLOAD SWAP1 POP SWAP1 JUMP JUMPDEST PUSH1 0x0 PUSH8 0xFFFFFFFFFFFFFFFF DUP3 GT ISZERO PUSH3 0x433 JUMPI PUSH3 0x432 PUSH3 0x4E9 JUMP JUMPDEST JUMPDEST PUSH3 0x43E DUP3 PUSH3 0x52C JUMP JUMPDEST SWAP1 POP PUSH1 0x20 DUP2 ADD SWAP1 POP SWAP2 SWAP1 POP JUMP JUMPDEST PUSH1 0x0 DUP2 MLOAD SWAP1 POP SWAP2 SWAP1 POP JUMP JUMPDEST PUSH1 0x0 DUP3 DUP3 MSTORE PUSH1 0x20 DUP3 ADD SWAP1 POP SWAP3 SWAP2 POP POP JUMP JUMPDEST PUSH1 0x0 DUP2 ISZERO ISZERO SWAP1 POP SWAP2 SWAP1 POP JUMP JUMPDEST PUSH1 0x0 DUP2 SWAP1 POP SWAP2 SWAP1 POP JUMP JUMPDEST PUSH1 0x0 JUMPDEST DUP4 DUP2 LT ISZERO PUSH3 0x49D JUMPI DUP1 DUP3 ADD MLOAD DUP2 DUP5 ADD MSTORE PUSH1 0x20 DUP2 ADD SWAP1 POP PUSH3 0x480 JUMP JUMPDEST DUP4 DUP2 GT ISZERO PUSH3 0x4AD JUMPI PUSH1 0x0 DUP5 DUP5 ADD MSTORE JUMPDEST POP POP POP POP JUMP JUMPDEST PUSH3 0x4BE DUP3 PUSH3 0x52C JUMP JUMPDEST DUP2 ADD DUP2 DUP2 LT PUSH8 0xFFFFFFFFFFFFFFFF DUP3 GT OR ISZERO PUSH3 0x4E0 JUMPI PUSH3 0x4DF PUSH3 0x4E9 JUMP JUMPDEST JUMPDEST DUP1 PUSH1 0x40 MSTORE POP POP POP JUMP JUMPDEST PUSH32 0x4E487B7100000000000000000000000000000000000000000000000000000000 PUSH1 0x0 MSTORE PUSH1 0x41 PUSH1 0x4 MSTORE PUSH1 0x24 PUSH1 0x0 REVERT JUMPDEST PUSH1 0x0 DUP1 REVERT JUMPDEST PUSH1 0x0 DUP1 REVERT JUMPDEST PUSH1 0x0 DUP1 REVERT JUMPDEST PUSH1 0x0 DUP1 REVERT JUMPDEST PUSH1 0x0 PUSH1 0x1F NOT PUSH1 0x1F DUP4 ADD AND SWAP1 POP SWAP2 SWAP1 POP JUMP JUMPDEST PUSH3 0x548 DUP2 PUSH3 0x467 JUMP JUMPDEST DUP2 EQ PUSH3 0x554 JUMPI PUSH1 0x0 DUP1 REVERT JUMPDEST POP JUMP JUMPDEST PUSH3 0x562 DUP2 PUSH3 0x473 JUMP JUMPDEST DUP2 EQ PUSH3 0x56E JUMPI PUSH1 0x0 DUP1 REVERT JUMPDEST POP JUMP JUMPDEST PUSH2 0x34B DUP1 PUSH3 0x581 PUSH1 0x0 CODECOPY PUSH1 0x0 RETURN INVALID PUSH1 0x80 PUSH1 0x40 MSTORE CALLVALUE DUP1 ISZERO PUSH2 0x10 JUMPI PUSH1 0x0 DUP1 REVERT JUMPDEST POP PUSH1 0x4 CALLDATASIZE LT PUSH2 0x7D JUMPI PUSH1 0x0 CALLDATALOAD PUSH1 0xE0 SHR DUP1 PUSH4 0x68FF2D37 GT PUSH2 0x5B JUMPI DUP1 PUSH4 0x68FF2D37 EQ PUSH2 0xDC JUMPI DUP1 PUSH4 0x9EC15039 EQ PUSH2 0xFA JUMPI DUP1 PUSH4 0xAC007EFF EQ PUSH2 0x118 JUMPI DUP1 PUSH4 0xFB3CEDA7 EQ PUSH2 0x136 JUMPI PUSH2 0x7D JUMP JUMPDEST DUP1 PUSH4 0x20965255 EQ PUSH2 0x82 JUMPI DUP1 PUSH4 0x2E3B3B18 EQ PUSH2 0xA0 JUMPI DUP1 PUSH4 0x5C1548FB EQ PUSH2 0xBE JUMPI JUMPDEST PUSH1 0x0 DUP1 REVERT JUMPDEST PUSH2 0x8A PUSH2 0x154 JUMP JUMPDEST PUSH1 0x40 MLOAD PUSH2 0x97 SWAP2 SWAP1 PUSH2 0x27C JUMP JUMPDEST PUSH1 0x40 MLOAD DUP1 SWAP2 SUB SWAP1 RETURN JUMPDEST PUSH2 0xA8 PUSH2 0x15E JUMP JUMPDEST PUSH1 0x40 MLOAD PUSH2 0xB5 SWAP2 SWAP1 PUSH2 0x246 JUMP JUMPDEST PUSH1 0x40 MLOAD DUP1 SWAP2 SUB SWAP1 RETURN JUMPDEST PUSH2 0xC6 PUSH2 0x175 JUMP JUMPDEST PUSH1 0x40 MLOAD PUSH2 0xD3 SWAP2 SWAP1 PUSH2 0x27C JUMP JUMPDEST PUSH1 0x40 MLOAD DUP1 SWAP2 SUB SWAP1 RETURN JUMPDEST PUSH2 0xE4 PUSH2 0x17F JUMP JUMPDEST PUSH1 0x40 MLOAD PUSH2 0xF1 SWAP2 SWAP1 PUSH2 0x261 JUMP JUMPDEST PUSH1 0x40 MLOAD DUP1 SWAP2 SUB SWAP1 RETURN JUMPDEST PUSH2 0x102 PUSH2 0x1A5 JUMP JUMPDEST PUSH1 0x40 MLOAD PUSH2 0x10F SWAP2 SWAP1 PUSH2 0x22B JUMP JUMPDEST PUSH1 0x40 MLOAD DUP1 SWAP2 SUB SWAP1 RETURN JUMPDEST PUSH2 0x120 PUSH2 0x1CE JUMP JUMPDEST PUSH1 0x40 MLOAD PUSH2 0x12D SWAP2 SWAP1 PUSH2 0x246 JUMP JUMPDEST PUSH1 0x40 MLOAD DUP1 SWAP2 SUB SWAP1 RETURN JUMPDEST PUSH2 0x13E PUSH2 0x1E5 JUMP JUMPDEST PUSH1 0x40 MLOAD PUSH2 0x14B SWAP2 SWAP1 PUSH2 0x27C JUMP JUMPDEST PUSH1 0x40 MLOAD DUP1 SWAP2 SUB SWAP1 RETURN JUMPDEST PUSH1 0x0 PUSH1 0x3 SLOAD SWAP1 POP SWAP1 JUMP JUMPDEST PUSH1 0x0 PUSH1 0x2 PUSH1 0x14 SWAP1 SLOAD SWAP1 PUSH2 0x100 EXP SWAP1 DIV PUSH1 0xFF AND SWAP1 POP SWAP1 JUMP JUMPDEST PUSH1 0x0 PUSH1 0x5 SLOAD SWAP1 POP SWAP1 JUMP JUMPDEST PUSH1 0x2 PUSH1 0x0 SWAP1 SLOAD SWAP1 PUSH2 0x100 EXP SWAP1 DIV PUSH20 0xFFFFFFFFFFFFFFFFFFFFFFFFFFFFFFFFFFFFFFFF AND DUP2 JUMP JUMPDEST PUSH1 0x0 DUP1 PUSH1 0x0 SWAP1 SLOAD SWAP1 PUSH2 0x100 EXP SWAP1 DIV PUSH20 0xFFFFFFFFFFFFFFFFFFFFFFFFFFFFFFFFFFFFFFFF AND SWAP1 POP SWAP1 JUMP JUMPDEST PUSH1 0x0 PUSH1 0x6 PUSH1 0x0 SWAP1 SLOAD SWAP1 PUSH2 0x100 EXP SWAP1 DIV PUSH1 0xFF AND SWAP1 POP SWAP1 JUMP JUMPDEST PUSH1 0x0 PUSH1 0x4 SLOAD SWAP1 POP SWAP1 JUMP JUMPDEST PUSH2 0x1F8 DUP2 PUSH2 0x297 JUMP JUMPDEST DUP3 MSTORE POP POP JUMP JUMPDEST PUSH2 0x207 DUP2 PUSH2 0x2A9 JUMP JUMPDEST DUP3 MSTORE POP POP JUMP JUMPDEST PUSH2 0x216 DUP2 PUSH2 0x2DF JUMP JUMPDEST DUP3 MSTORE POP POP JUMP JUMPDEST PUSH2 0x225 DUP2 PUSH2 0x2D5 JUMP JUMPDEST DUP3 MSTORE POP POP JUMP JUMPDEST PUSH1 0x0 PUSH1 0x20 DUP3 ADD SWAP1 POP PUSH2 0x240 PUSH1 0x0 DUP4 ADD DUP5 PUSH2 0x1EF JUMP JUMPDEST SWAP3 SWAP2 POP POP JUMP JUMPDEST PUSH1 0x0 PUSH1 0x20 DUP3 ADD SWAP1 POP PUSH2 0x25B PUSH1 0x0 DUP4 ADD DUP5 PUSH2 0x1FE JUMP JUMPDEST SWAP3 SWAP2 POP POP JUMP JUMPDEST PUSH1 0x0 PUSH1 0x20 DUP3 ADD SWAP1 POP PUSH2 0x276 PUSH1 0x0 DUP4 ADD DUP5 PUSH2 0x20D JUMP JUMPDEST SWAP3 SWAP2 POP POP JUMP JUMPDEST PUSH1 0x0 PUSH1 0x20 DUP3 ADD SWAP1 POP PUSH2 0x291 PUSH1 0x0 DUP4 ADD DUP5 PUSH2 0x21C JUMP JUMPDEST SWAP3 SWAP2 POP POP JUMP JUMPDEST PUSH1 0x0 PUSH2 0x2A2 DUP3 PUSH2 0x2B5 JUMP JUMPDEST SWAP1 POP SWAP2 SWAP1 POP JUMP JUMPDEST PUSH1 0x0 DUP2 ISZERO ISZERO SWAP1 POP SWAP2 SWAP1 POP JUMP JUMPDEST PUSH1 0x0 PUSH20 0xFFFFFFFFFFFFFFFFFFFFFFFFFFFFFFFFFFFFFFFF DUP3 AND SWAP1 POP SWAP2 SWAP1 POP JUMP JUMPDEST PUSH1 0x0 DUP2 SWAP1 POP SWAP2 SWAP1 POP JUMP JUMPDEST PUSH1 0x0 PUSH2 0x2EA DUP3 PUSH2 0x2F1 JUMP JUMPDEST SWAP1 POP SWAP2 SWAP1 POP JUMP JUMPDEST PUSH1 0x0 PUSH2 0x2FC DUP3 PUSH2 0x303 JUMP JUMPDEST SWAP1 POP SWAP2 SWAP1 POP JUMP JUMPDEST PUSH1 0x0 PUSH2 0x30E DUP3 PUSH2 0x2B5 JUMP JUMPDEST SWAP1 POP SWAP2 SWAP1 POP JUMP INVALID LOG2 PUSH5 0x6970667358 0x22 SLT KECCAK256 0xDC JUMPDEST 0xD0 SIGNEXTEND DIFFICULTY PUSH21 0x4D4F241017F635E1173814E2B6BB99574D70DA0C34 SLT CREATE2 SWAP15 DUP6 LOG2 PUSH5 0x736F6C6343 STOP ADDMOD SMOD STOP CALLER PUSH1 0x80 PUSH1 0x40 MSTORE CALLVALUE DUP1 ISZERO PUSH3 0x11 JUMPI PUSH1 0x0 DUP1 REVERT JUMPDEST POP PUSH1 0x40 MLOAD PUSH3 0x130A CODESIZE SUB DUP1 PUSH3 0x130A DUP4 CODECOPY DUP2 DUP2 ADD PUSH1 0x40 MSTORE DUP2 ADD SWAP1 PUSH3 0x37 SWAP2 SWAP1 PUSH3 0x236 JUMP JUMPDEST CALLER PUSH1 0x0 DUP1 PUSH2 0x100 EXP DUP2 SLOAD DUP2 PUSH20 0xFFFFFFFFFFFFFFFFFFFFFFFFFFFFFFFFFFFFFFFF MUL NOT AND SWAP1 DUP4 PUSH20 0xFFFFFFFFFFFFFFFFFFFFFFFFFFFFFFFFFFFFFFFF AND MUL OR SWAP1 SSTORE POP DUP1 PUSH1 0x1 SWAP1 DUP1 MLOAD SWAP1 PUSH1 0x20 ADD SWAP1 PUSH3 0x8F SWAP3 SWAP2 SWAP1 PUSH3 0x108 JUMP JUMPDEST POP PUSH1 0x0 DUP1 SLOAD SWAP1 PUSH2 0x100 EXP SWAP1 DIV PUSH20 0xFFFFFFFFFFFFFFFFFFFFFFFFFFFFFFFFFFFFFFFF AND PUSH20 0xFFFFFFFFFFFFFFFFFFFFFFFFFFFFFFFFFFFFFFFF AND PUSH32 0x3D6ABA6DEF46BD8784B0B6505C24D0AA59CD9316E6C5DB593D3D8470797D7A3E PUSH1 0x1 PUSH1 0x40 MLOAD PUSH3 0xF9 SWAP2 SWAP1 PUSH3 0x313 JUMP JUMPDEST PUSH1 0x40 MLOAD DUP1 SWAP2 SUB SWAP1 LOG2 POP PUSH3 0x4E1 JUMP JUMPDEST DUP3 DUP1 SLOAD PUSH3 0x116 SWAP1 PUSH3 0x3F2 JUMP JUMPDEST SWAP1 PUSH1 0x0 MSTORE PUSH1 0x20 PUSH1 0x0 KECCAK256 SWAP1 PUSH1 0x1F ADD PUSH1 0x20 SWAP1 DIV DUP2 ADD SWAP3 DUP3 PUSH3 0x13A JUMPI PUSH1 0x0 DUP6 SSTORE PUSH3 0x186 JUMP JUMPDEST DUP3 PUSH1 0x1F LT PUSH3 0x155 JUMPI DUP1 MLOAD PUSH1 0xFF NOT AND DUP4 DUP1 ADD OR DUP6 SSTORE PUSH3 0x186 JUMP JUMPDEST DUP3 DUP1 ADD PUSH1 0x1 ADD DUP6 SSTORE DUP3 ISZERO PUSH3 0x186 JUMPI SWAP2 DUP3 ADD JUMPDEST DUP3 DUP2 GT ISZERO PUSH3 0x185 JUMPI DUP3 MLOAD DUP3 SSTORE SWAP2 PUSH1 0x20 ADD SWAP2 SWAP1 PUSH1 0x1 ADD SWAP1 PUSH3 0x168 JUMP JUMPDEST JUMPDEST POP SWAP1 POP PUSH3 0x195 SWAP2 SWAP1 PUSH3 0x199 JUMP JUMPDEST POP SWAP1 JUMP JUMPDEST JUMPDEST DUP1 DUP3 GT ISZERO PUSH3 0x1B4 JUMPI PUSH1 0x0 DUP2 PUSH1 0x0 SWAP1 SSTORE POP PUSH1 0x1 ADD PUSH3 0x19A JUMP JUMPDEST POP SWAP1 JUMP JUMPDEST PUSH1 0x0 PUSH3 0x1CF PUSH3 0x1C9 DUP5 PUSH3 0x360 JUMP JUMPDEST PUSH3 0x337 JUMP JUMPDEST SWAP1 POP DUP3 DUP2 MSTORE PUSH1 0x20 DUP2 ADD DUP5 DUP5 DUP5 ADD GT ISZERO PUSH3 0x1EE JUMPI PUSH3 0x1ED PUSH3 0x4C1 JUMP JUMPDEST JUMPDEST PUSH3 0x1FB DUP5 DUP3 DUP6 PUSH3 0x3BC JUMP JUMPDEST POP SWAP4 SWAP3 POP POP POP JUMP JUMPDEST PUSH1 0x0 DUP3 PUSH1 0x1F DUP4 ADD SLT PUSH3 0x21B JUMPI PUSH3 0x21A PUSH3 0x4BC JUMP JUMPDEST JUMPDEST DUP2 MLOAD PUSH3 0x22D DUP5 DUP3 PUSH1 0x20 DUP7 ADD PUSH3 0x1B8 JUMP JUMPDEST SWAP2 POP POP SWAP3 SWAP2 POP POP JUMP JUMPDEST PUSH1 0x0 PUSH1 0x20 DUP3 DUP5 SUB SLT ISZERO PUSH3 0x24F JUMPI PUSH3 0x24E PUSH3 0x4CB JUMP JUMPDEST JUMPDEST PUSH1 0x0 DUP3 ADD MLOAD PUSH8 0xFFFFFFFFFFFFFFFF DUP2 GT ISZERO PUSH3 0x270 JUMPI PUSH3 0x26F PUSH3 0x4C6 JUMP JUMPDEST JUMPDEST PUSH3 0x27E DUP5 DUP3 DUP6 ADD PUSH3 0x203 JUMP JUMPDEST SWAP2 POP POP SWAP3 SWAP2 POP POP JUMP JUMPDEST PUSH1 0x0 DUP2 SLOAD PUSH3 0x296 DUP2 PUSH3 0x3F2 JUMP JUMPDEST PUSH3 0x2A2 DUP2 DUP7 PUSH3 0x3AB JUMP JUMPDEST SWAP5 POP PUSH1 0x1 DUP3 AND PUSH1 0x0 DUP2 EQ PUSH3 0x2C0 JUMPI PUSH1 0x1 DUP2 EQ PUSH3 0x2D3 JUMPI PUSH3 0x30A JUMP JUMPDEST PUSH1 0xFF NOT DUP4 AND DUP7 MSTORE PUSH1 0x20 DUP7 ADD SWAP4 POP PUSH3 0x30A JUMP JUMPDEST PUSH3 0x2DE DUP6 PUSH3 0x396 JUMP JUMPDEST PUSH1 0x0 JUMPDEST DUP4 DUP2 LT ISZERO PUSH3 0x302 JUMPI DUP2 SLOAD DUP2 DUP10 ADD MSTORE PUSH1 0x1 DUP3 ADD SWAP2 POP PUSH1 0x20 DUP2 ADD SWAP1 POP PUSH3 0x2E1 JUMP JUMPDEST DUP1 DUP9 ADD SWAP6 POP POP POP JUMPDEST POP POP POP SWAP3 SWAP2 POP POP JUMP JUMPDEST PUSH1 0x0 PUSH1 0x20 DUP3 ADD SWAP1 POP DUP2 DUP2 SUB PUSH1 0x0 DUP4 ADD MSTORE PUSH3 0x32F DUP2 DUP5 PUSH3 0x287 JUMP JUMPDEST SWAP1 POP SWAP3 SWAP2 POP POP JUMP JUMPDEST PUSH1 0x0 PUSH3 0x343 PUSH3 0x356 JUMP JUMPDEST SWAP1 POP PUSH3 0x351 DUP3 DUP3 PUSH3 0x428 JUMP JUMPDEST SWAP2 SWAP1 POP JUMP JUMPDEST PUSH1 0x0 PUSH1 0x40 MLOAD SWAP1 POP SWAP1 JUMP JUMPDEST PUSH1 0x0 PUSH8 0xFFFFFFFFFFFFFFFF DUP3 GT ISZERO PUSH3 0x37E JUMPI PUSH3 0x37D PUSH3 0x48D JUMP JUMPDEST JUMPDEST PUSH3 0x389 DUP3 PUSH3 0x4D0 JUMP JUMPDEST SWAP1 POP PUSH1 0x20 DUP2 ADD SWAP1 POP SWAP2 SWAP1 POP JUMP JUMPDEST PUSH1 0x0 DUP2 SWAP1 POP DUP2 PUSH1 0x0 MSTORE PUSH1 0x20 PUSH1 0x0 KECCAK256 SWAP1 POP SWAP2 SWAP1 POP JUMP JUMPDEST PUSH1 0x0 DUP3 DUP3 MSTORE PUSH1 0x20 DUP3 ADD SWAP1 POP SWAP3 SWAP2 POP POP JUMP JUMPDEST PUSH1 0x0 JUMPDEST DUP4 DUP2 LT ISZERO PUSH3 0x3DC JUMPI DUP1 DUP3 ADD MLOAD DUP2 DUP5 ADD MSTORE PUSH1 0x20 DUP2 ADD SWAP1 POP PUSH3 0x3BF JUMP JUMPDEST DUP4 DUP2 GT ISZERO PUSH3 0x3EC JUMPI PUSH1 0x0 DUP5 DUP5 ADD MSTORE JUMPDEST POP POP POP POP JUMP JUMPDEST PUSH1 0x0 PUSH1 0x2 DUP3 DIV SWAP1 POP PUSH1 0x1 DUP3 AND DUP1 PUSH3 0x40B JUMPI PUSH1 0x7F DUP3 AND SWAP2 POP JUMPDEST PUSH1 0x20 DUP3 LT DUP2 EQ ISZERO PUSH3 0x422 JUMPI PUSH3 0x421 PUSH3 0x45E JUMP JUMPDEST JUMPDEST POP SWAP2 SWAP1 POP JUMP JUMPDEST PUSH3 0x433 DUP3 PUSH3 0x4D0 JUMP JUMPDEST DUP2 ADD DUP2 DUP2 LT PUSH8 0xFFFFFFFFFFFFFFFF DUP3 GT OR ISZERO PUSH3 0x455 JUMPI PUSH3 0x454 PUSH3 0x48D JUMP JUMPDEST JUMPDEST DUP1 PUSH1 0x40 MSTORE POP POP POP JUMP JUMPDEST PUSH32 0x4E487B7100000000000000000000000000000000000000000000000000000000 PUSH1 0x0 MSTORE PUSH1 0x22 PUSH1 0x4 MSTORE PUSH1 0x24 PUSH1 0x0 REVERT JUMPDEST PUSH32 0x4E487B7100000000000000000000000000000000000000000000000000000000 PUSH1 0x0 MSTORE PUSH1 0x41 PUSH1 0x4 MSTORE PUSH1 0x24 PUSH1 0x0 REVERT JUMPDEST PUSH1 0x0 DUP1 REVERT JUMPDEST PUSH1 0x0 DUP1 REVERT JUMPDEST PUSH1 0x0 DUP1 REVERT JUMPDEST PUSH1 0x0 DUP1 REVERT JUMPDEST PUSH1 0x0 PUSH1 0x1F NOT PUSH1 0x1F DUP4 ADD AND SWAP1 POP SWAP2 SWAP1 POP JUMP JUMPDEST PUSH2 0xE19 DUP1 PUSH3 0x4F1 PUSH1 0x0 CODECOPY PUSH1 0x0 RETURN INVALID PUSH1 0x80 PUSH1 0x40 MSTORE CALLVALUE DUP1 ISZERO PUSH2 0x10 JUMPI PUSH1 0x0 DUP1 REVERT JUMPDEST POP PUSH1 0x4 CALLDATASIZE LT PUSH2 0x88 JUMPI PUSH1 0x0 CALLDATALOAD PUSH1 0xE0 SHR DUP1 PUSH4 0x990EC12B GT PUSH2 0x5B JUMPI DUP1 PUSH4 0x990EC12B EQ PUSH2 0xDD JUMPI DUP1 PUSH4 0xB794CC2F EQ PUSH2 0xFB JUMPI DUP1 PUSH4 0xC4374575 EQ PUSH2 0x12B JUMPI DUP1 PUSH4 0xCEF2320C EQ PUSH2 0x15B JUMPI PUSH2 0x88 JUMP JUMPDEST DUP1 PUSH4 0x5836E0B5 EQ PUSH2 0x8D JUMPI DUP1 PUSH4 0x5D8AB6E7 EQ PUSH2 0x97 JUMPI DUP1 PUSH4 0x6901F668 EQ PUSH2 0xB5 JUMPI DUP1 PUSH4 0x893D20E8 EQ PUSH2 0xBF JUMPI JUMPDEST PUSH1 0x0 DUP1 REVERT JUMPDEST PUSH2 0x95 PUSH2 0x179 JUMP JUMPDEST STOP JUMPDEST PUSH2 0x9F PUSH2 0x42E JUMP JUMPDEST PUSH1 0x40 MLOAD PUSH2 0xAC SWAP2 SWAP1 PUSH2 0xBC4 JUMP JUMPDEST PUSH1 0x40 MLOAD DUP1 SWAP2 SUB SWAP1 RETURN JUMPDEST PUSH2 0xBD PUSH2 0x43B JUMP JUMPDEST STOP JUMPDEST PUSH2 0xC7 PUSH2 0x6F0 JUMP JUMPDEST PUSH1 0x40 MLOAD PUSH2 0xD4 SWAP2 SWAP1 PUSH2 0xACA JUMP JUMPDEST PUSH1 0x40 MLOAD DUP1 SWAP2 SUB SWAP1 RETURN JUMPDEST PUSH2 0xE5 PUSH2 0x719 JUMP JUMPDEST PUSH1 0x40 MLOAD PUSH2 0xF2 SWAP2 SWAP1 PUSH2 0xBC4 JUMP JUMPDEST PUSH1 0x40 MLOAD DUP1 SWAP2 SUB SWAP1 RETURN JUMPDEST PUSH2 0x115 PUSH1 0x4 DUP1 CALLDATASIZE SUB DUP2 ADD SWAP1 PUSH2 0x110 SWAP2 SWAP1 PUSH2 0x92B JUMP JUMPDEST PUSH2 0x726 JUMP JUMPDEST PUSH1 0x40 MLOAD PUSH2 0x122 SWAP2 SWAP1 PUSH2 0xAE5 JUMP JUMPDEST PUSH1 0x40 MLOAD DUP1 SWAP2 SUB SWAP1 RETURN JUMPDEST PUSH2 0x145 PUSH1 0x4 DUP1 CALLDATASIZE SUB DUP2 ADD SWAP1 PUSH2 0x140 SWAP2 SWAP1 PUSH2 0x92B JUMP JUMPDEST PUSH2 0x7D5 JUMP JUMPDEST PUSH1 0x40 MLOAD PUSH2 0x152 SWAP2 SWAP1 PUSH2 0xAE5 JUMP JUMPDEST PUSH1 0x40 MLOAD DUP1 SWAP2 SUB SWAP1 RETURN JUMPDEST PUSH2 0x163 PUSH2 0x884 JUMP JUMPDEST PUSH1 0x40 MLOAD PUSH2 0x170 SWAP2 SWAP1 PUSH2 0xB00 JUMP JUMPDEST PUSH1 0x40 MLOAD DUP1 SWAP2 SUB SWAP1 RETURN JUMPDEST CALLER PUSH20 0xFFFFFFFFFFFFFFFFFFFFFFFFFFFFFFFFFFFFFFFF AND PUSH1 0x0 DUP1 SLOAD SWAP1 PUSH2 0x100 EXP SWAP1 DIV PUSH20 0xFFFFFFFFFFFFFFFFFFFFFFFFFFFFFFFFFFFFFFFF AND PUSH20 0xFFFFFFFFFFFFFFFFFFFFFFFFFFFFFFFFFFFFFFFF AND EQ ISZERO PUSH2 0x208 JUMPI PUSH1 0x40 MLOAD PUSH32 0x8C379A000000000000000000000000000000000000000000000000000000000 DUP2 MSTORE PUSH1 0x4 ADD PUSH2 0x1FF SWAP1 PUSH2 0xB64 JUMP JUMPDEST PUSH1 0x40 MLOAD DUP1 SWAP2 SUB SWAP1 REVERT JUMPDEST PUSH1 0x5 PUSH1 0x0 CALLER PUSH20 0xFFFFFFFFFFFFFFFFFFFFFFFFFFFFFFFFFFFFFFFF AND PUSH20 0xFFFFFFFFFFFFFFFFFFFFFFFFFFFFFFFFFFFFFFFF AND DUP2 MSTORE PUSH1 0x20 ADD SWAP1 DUP2 MSTORE PUSH1 0x20 ADD PUSH1 0x0 KECCAK256 PUSH1 0x0 SWAP1 SLOAD SWAP1 PUSH2 0x100 EXP SWAP1 DIV PUSH1 0xFF AND ISZERO PUSH2 0x295 JUMPI PUSH1 0x40 MLOAD PUSH32 0x8C379A000000000000000000000000000000000000000000000000000000000 DUP2 MSTORE PUSH1 0x4 ADD PUSH2 0x28C SWAP1 PUSH2 0xBA4 JUMP JUMPDEST PUSH1 0x40 MLOAD DUP1 SWAP2 SUB SWAP1 REVERT JUMPDEST PUSH1 0x4 PUSH1 0x0 CALLER PUSH20 0xFFFFFFFFFFFFFFFFFFFFFFFFFFFFFFFFFFFFFFFF AND PUSH20 0xFFFFFFFFFFFFFFFFFFFFFFFFFFFFFFFFFFFFFFFF AND DUP2 MSTORE PUSH1 0x20 ADD SWAP1 DUP2 MSTORE PUSH1 0x20 ADD PUSH1 0x0 KECCAK256 PUSH1 0x0 SWAP1 SLOAD SWAP1 PUSH2 0x100 EXP SWAP1 DIV PUSH1 0xFF AND ISZERO PUSH2 0x322 JUMPI PUSH1 0x40 MLOAD PUSH32 0x8C379A000000000000000000000000000000000000000000000000000000000 DUP2 MSTORE PUSH1 0x4 ADD PUSH2 0x319 SWAP1 PUSH2 0xB44 JUMP JUMPDEST PUSH1 0x40 MLOAD DUP1 SWAP2 SUB SWAP1 REVERT JUMPDEST PUSH1 0x3 CALLER SWAP1 DUP1 PUSH1 0x1 DUP2 SLOAD ADD DUP1 DUP3 SSTORE DUP1 SWAP2 POP POP PUSH1 0x1 SWAP1 SUB SWAP1 PUSH1 0x0 MSTORE PUSH1 0x20 PUSH1 0x0 KECCAK256 ADD PUSH1 0x0 SWAP1 SWAP2 SWAP1 SWAP2 SWAP1 SWAP2 PUSH2 0x100 EXP DUP2 SLOAD DUP2 PUSH20 0xFFFFFFFFFFFFFFFFFFFFFFFFFFFFFFFFFFFFFFFF MUL NOT AND SWAP1 DUP4 PUSH20 0xFFFFFFFFFFFFFFFFFFFFFFFFFFFFFFFFFFFFFFFF AND MUL OR SWAP1 SSTORE POP PUSH1 0x1 PUSH1 0x5 PUSH1 0x0 CALLER PUSH20 0xFFFFFFFFFFFFFFFFFFFFFFFFFFFFFFFFFFFFFFFF AND PUSH20 0xFFFFFFFFFFFFFFFFFFFFFFFFFFFFFFFFFFFFFFFF AND DUP2 MSTORE PUSH1 0x20 ADD SWAP1 DUP2 MSTORE PUSH1 0x20 ADD PUSH1 0x0 KECCAK256 PUSH1 0x0 PUSH2 0x100 EXP DUP2 SLOAD DUP2 PUSH1 0xFF MUL NOT AND SWAP1 DUP4 ISZERO ISZERO MUL OR SWAP1 SSTORE POP CALLER PUSH20 0xFFFFFFFFFFFFFFFFFFFFFFFFFFFFFFFFFFFFFFFF AND PUSH32 0x9036BC06AD4A578F0132D89BA4ADC07B9772275526730ACC38D7E4B4C11872A3 PUSH1 0x1 PUSH1 0x40 MLOAD PUSH2 0x424 SWAP2 SWAP1 PUSH2 0xB22 JUMP JUMPDEST PUSH1 0x40 MLOAD DUP1 SWAP2 SUB SWAP1 LOG2 JUMP JUMPDEST PUSH1 0x0 PUSH1 0x3 DUP1 SLOAD SWAP1 POP SWAP1 POP SWAP1 JUMP JUMPDEST CALLER PUSH20 0xFFFFFFFFFFFFFFFFFFFFFFFFFFFFFFFFFFFFFFFF AND PUSH1 0x0 DUP1 SLOAD SWAP1 PUSH2 0x100 EXP SWAP1 DIV PUSH20 0xFFFFFFFFFFFFFFFFFFFFFFFFFFFFFFFFFFFFFFFF AND PUSH20 0xFFFFFFFFFFFFFFFFFFFFFFFFFFFFFFFFFFFFFFFF AND EQ ISZERO PUSH2 0x4CA JUMPI PUSH1 0x40 MLOAD PUSH32 0x8C379A000000000000000000000000000000000000000000000000000000000 DUP2 MSTORE PUSH1 0x4 ADD PUSH2 0x4C1 SWAP1 PUSH2 0xB64 JUMP JUMPDEST PUSH1 0x40 MLOAD DUP1 SWAP2 SUB SWAP1 REVERT JUMPDEST PUSH1 0x4 PUSH1 0x0 CALLER PUSH20 0xFFFFFFFFFFFFFFFFFFFFFFFFFFFFFFFFFFFFFFFF AND PUSH20 0xFFFFFFFFFFFFFFFFFFFFFFFFFFFFFFFFFFFFFFFF AND DUP2 MSTORE PUSH1 0x20 ADD SWAP1 DUP2 MSTORE PUSH1 0x20 ADD PUSH1 0x0 KECCAK256 PUSH1 0x0 SWAP1 SLOAD SWAP1 PUSH2 0x100 EXP SWAP1 DIV PUSH1 0xFF AND ISZERO PUSH2 0x557 JUMPI PUSH1 0x40 MLOAD PUSH32 0x8C379A000000000000000000000000000000000000000000000000000000000 DUP2 MSTORE PUSH1 0x4 ADD PUSH2 0x54E SWAP1 PUSH2 0xB84 JUMP JUMPDEST PUSH1 0x40 MLOAD DUP1 SWAP2 SUB SWAP1 REVERT JUMPDEST PUSH1 0x5 PUSH1 0x0 CALLER PUSH20 0xFFFFFFFFFFFFFFFFFFFFFFFFFFFFFFFFFFFFFFFF AND PUSH20 0xFFFFFFFFFFFFFFFFFFFFFFFFFFFFFFFFFFFFFFFF AND DUP2 MSTORE PUSH1 0x20 ADD SWAP1 DUP2 MSTORE PUSH1 0x20 ADD PUSH1 0x0 KECCAK256 PUSH1 0x0 SWAP1 SLOAD SWAP1 PUSH2 0x100 EXP SWAP1 DIV PUSH1 0xFF AND ISZERO PUSH2 0x5E4 JUMPI PUSH1 0x40 MLOAD PUSH32 0x8C379A000000000000000000000000000000000000000000000000000000000 DUP2 MSTORE PUSH1 0x4 ADD PUSH2 0x5DB SWAP1 PUSH2 0xB44 JUMP JUMPDEST PUSH1 0x40 MLOAD DUP1 SWAP2 SUB SWAP1 REVERT JUMPDEST PUSH1 0x2 CALLER SWAP1 DUP1 PUSH1 0x1 DUP2 SLOAD ADD DUP1 DUP3 SSTORE DUP1 SWAP2 POP POP PUSH1 0x1 SWAP1 SUB SWAP1 PUSH1 0x0 MSTORE PUSH1 0x20 PUSH1 0x0 KECCAK256 ADD PUSH1 0x0 SWAP1 SWAP2 SWAP1 SWAP2 SWAP1 SWAP2 PUSH2 0x100 EXP DUP2 SLOAD DUP2 PUSH20 0xFFFFFFFFFFFFFFFFFFFFFFFFFFFFFFFFFFFFFFFF MUL NOT AND SWAP1 DUP4 PUSH20 0xFFFFFFFFFFFFFFFFFFFFFFFFFFFFFFFFFFFFFFFF AND MUL OR SWAP1 SSTORE POP PUSH1 0x1 PUSH1 0x4 PUSH1 0x0 CALLER PUSH20 0xFFFFFFFFFFFFFFFFFFFFFFFFFFFFFFFFFFFFFFFF AND PUSH20 0xFFFFFFFFFFFFFFFFFFFFFFFFFFFFFFFFFFFFFFFF AND DUP2 MSTORE PUSH1 0x20 ADD SWAP1 DUP2 MSTORE PUSH1 0x20 ADD PUSH1 0x0 KECCAK256 PUSH1 0x0 PUSH2 0x100 EXP DUP2 SLOAD DUP2 PUSH1 0xFF MUL NOT AND SWAP1 DUP4 ISZERO ISZERO MUL OR SWAP1 SSTORE POP CALLER PUSH20 0xFFFFFFFFFFFFFFFFFFFFFFFFFFFFFFFFFFFFFFFF AND PUSH32 0x57D77EB32E87E8C65C7CEC1DF5B0E8A8D5C4EAE1B40C7246E7668ED702DD247A PUSH1 0x1 PUSH1 0x40 MLOAD PUSH2 0x6E6 SWAP2 SWAP1 PUSH2 0xB22 JUMP JUMPDEST PUSH1 0x40 MLOAD DUP1 SWAP2 SUB SWAP1 LOG2 JUMP JUMPDEST PUSH1 0x0 DUP1 PUSH1 0x0 SWAP1 SLOAD SWAP1 PUSH2 0x100 EXP SWAP1 DIV PUSH20 0xFFFFFFFFFFFFFFFFFFFFFFFFFFFFFFFFFFFFFFFF AND SWAP1 POP SWAP1 JUMP JUMPDEST PUSH1 0x0 PUSH1 0x2 DUP1 SLOAD SWAP1 POP SWAP1 POP SWAP1 JUMP JUMPDEST PUSH1 0x0 DUP2 PUSH20 0xFFFFFFFFFFFFFFFFFFFFFFFFFFFFFFFFFFFFFFFF AND PUSH1 0x0 DUP1 SLOAD SWAP1 PUSH2 0x100 EXP SWAP1 DIV PUSH20 0xFFFFFFFFFFFFFFFFFFFFFFFFFFFFFFFFFFFFFFFF AND PUSH20 0xFFFFFFFFFFFFFFFFFFFFFFFFFFFFFFFFFFFFFFFF AND EQ ISZERO PUSH2 0x781 JUMPI PUSH1 0x0 DUP1 REVERT JUMPDEST PUSH1 0x5 PUSH1 0x0 DUP4 PUSH20 0xFFFFFFFFFFFFFFFFFFFFFFFFFFFFFFFFFFFFFFFF AND PUSH20 0xFFFFFFFFFFFFFFFFFFFFFFFFFFFFFFFFFFFFFFFF AND DUP2 MSTORE PUSH1 0x20 ADD SWAP1 DUP2 MSTORE PUSH1 0x20 ADD PUSH1 0x0 KECCAK256 PUSH1 0x0 SWAP1 SLOAD SWAP1 PUSH2 0x100 EXP SWAP1 DIV PUSH1 0xFF AND SWAP1 POP SWAP2 SWAP1 POP JUMP JUMPDEST PUSH1 0x0 DUP2 PUSH20 0xFFFFFFFFFFFFFFFFFFFFFFFFFFFFFFFFFFFFFFFF AND PUSH1 0x0 DUP1 SLOAD SWAP1 PUSH2 0x100 EXP SWAP1 DIV PUSH20 0xFFFFFFFFFFFFFFFFFFFFFFFFFFFFFFFFFFFFFFFF AND PUSH20 0xFFFFFFFFFFFFFFFFFFFFFFFFFFFFFFFFFFFFFFFF AND EQ ISZERO PUSH2 0x830 JUMPI PUSH1 0x0 DUP1 REVERT JUMPDEST PUSH1 0x4 PUSH1 0x0 DUP4 PUSH20 0xFFFFFFFFFFFFFFFFFFFFFFFFFFFFFFFFFFFFFFFF AND PUSH20 0xFFFFFFFFFFFFFFFFFFFFFFFFFFFFFFFFFFFFFFFF AND DUP2 MSTORE PUSH1 0x20 ADD SWAP1 DUP2 MSTORE PUSH1 0x20 ADD PUSH1 0x0 KECCAK256 PUSH1 0x0 SWAP1 SLOAD SWAP1 PUSH2 0x100 EXP SWAP1 DIV PUSH1 0xFF AND SWAP1 POP SWAP2 SWAP1 POP JUMP JUMPDEST PUSH1 0x60 PUSH1 0x1 DUP1 SLOAD PUSH2 0x893 SWAP1 PUSH2 0xC8B JUMP JUMPDEST DUP1 PUSH1 0x1F ADD PUSH1 0x20 DUP1 SWAP2 DIV MUL PUSH1 0x20 ADD PUSH1 0x40 MLOAD SWAP1 DUP2 ADD PUSH1 0x40 MSTORE DUP1 SWAP3 SWAP2 SWAP1 DUP2 DUP2 MSTORE PUSH1 0x20 ADD DUP3 DUP1 SLOAD PUSH2 0x8BF SWAP1 PUSH2 0xC8B JUMP JUMPDEST DUP1 ISZERO PUSH2 0x90C JUMPI DUP1 PUSH1 0x1F LT PUSH2 0x8E1 JUMPI PUSH2 0x100 DUP1 DUP4 SLOAD DIV MUL DUP4 MSTORE SWAP2 PUSH1 0x20 ADD SWAP2 PUSH2 0x90C JUMP JUMPDEST DUP3 ADD SWAP2 SWAP1 PUSH1 0x0 MSTORE PUSH1 0x20 PUSH1 0x0 KECCAK256 SWAP1 JUMPDEST DUP2 SLOAD DUP2 MSTORE SWAP1 PUSH1 0x1 ADD SWAP1 PUSH1 0x20 ADD DUP1 DUP4 GT PUSH2 0x8EF JUMPI DUP3 SWAP1 SUB PUSH1 0x1F AND DUP3 ADD SWAP2 JUMPDEST POP POP POP POP POP SWAP1 POP SWAP1 JUMP JUMPDEST PUSH1 0x0 DUP2 CALLDATALOAD SWAP1 POP PUSH2 0x925 DUP2 PUSH2 0xDCC JUMP JUMPDEST SWAP3 SWAP2 POP POP JUMP JUMPDEST PUSH1 0x0 PUSH1 0x20 DUP3 DUP5 SUB SLT ISZERO PUSH2 0x941 JUMPI PUSH2 0x940 PUSH2 0xCEC JUMP JUMPDEST JUMPDEST PUSH1 0x0 PUSH2 0x94F DUP5 DUP3 DUP6 ADD PUSH2 0x916 JUMP JUMPDEST SWAP2 POP POP SWAP3 SWAP2 POP POP JUMP JUMPDEST PUSH2 0x961 DUP2 PUSH2 0xC10 JUMP JUMPDEST DUP3 MSTORE POP POP JUMP JUMPDEST PUSH2 0x970 DUP2 PUSH2 0xC22 JUMP JUMPDEST DUP3 MSTORE POP POP JUMP JUMPDEST PUSH1 0x0 PUSH2 0x981 DUP3 PUSH2 0xBF4 JUMP JUMPDEST PUSH2 0x98B DUP2 DUP6 PUSH2 0xBFF JUMP JUMPDEST SWAP4 POP PUSH2 0x99B DUP2 DUP6 PUSH1 0x20 DUP7 ADD PUSH2 0xC58 JUMP JUMPDEST PUSH2 0x9A4 DUP2 PUSH2 0xCF1 JUMP JUMPDEST DUP5 ADD SWAP2 POP POP SWAP3 SWAP2 POP POP JUMP JUMPDEST PUSH1 0x0 DUP2 SLOAD PUSH2 0x9BC DUP2 PUSH2 0xC8B JUMP JUMPDEST PUSH2 0x9C6 DUP2 DUP7 PUSH2 0xBFF JUMP JUMPDEST SWAP5 POP PUSH1 0x1 DUP3 AND PUSH1 0x0 DUP2 EQ PUSH2 0x9E1 JUMPI PUSH1 0x1 DUP2 EQ PUSH2 0x9F3 JUMPI PUSH2 0xA26 JUMP JUMPDEST PUSH1 0xFF NOT DUP4 AND DUP7 MSTORE PUSH1 0x20 DUP7 ADD SWAP4 POP PUSH2 0xA26 JUMP JUMPDEST PUSH2 0x9FC DUP6 PUSH2 0xBDF JUMP JUMPDEST PUSH1 0x0 JUMPDEST DUP4 DUP2 LT ISZERO PUSH2 0xA1E JUMPI DUP2 SLOAD DUP2 DUP10 ADD MSTORE PUSH1 0x1 DUP3 ADD SWAP2 POP PUSH1 0x20 DUP2 ADD SWAP1 POP PUSH2 0x9FF JUMP JUMPDEST DUP1 DUP9 ADD SWAP6 POP POP POP JUMPDEST POP POP POP SWAP3 SWAP2 POP POP JUMP JUMPDEST PUSH1 0x0 PUSH2 0xA3C PUSH1 0x20 DUP4 PUSH2 0xBFF JUMP JUMPDEST SWAP2 POP PUSH2 0xA47 DUP3 PUSH2 0xD02 JUMP JUMPDEST PUSH1 0x20 DUP3 ADD SWAP1 POP SWAP2 SWAP1 POP JUMP JUMPDEST PUSH1 0x0 PUSH2 0xA5F PUSH1 0x29 DUP4 PUSH2 0xBFF JUMP JUMPDEST SWAP2 POP PUSH2 0xA6A DUP3 PUSH2 0xD2B JUMP JUMPDEST PUSH1 0x40 DUP3 ADD SWAP1 POP SWAP2 SWAP1 POP JUMP JUMPDEST PUSH1 0x0 PUSH2 0xA82 PUSH1 0x11 DUP4 PUSH2 0xBFF JUMP JUMPDEST SWAP2 POP PUSH2 0xA8D DUP3 PUSH2 0xD7A JUMP JUMPDEST PUSH1 0x20 DUP3 ADD SWAP1 POP SWAP2 SWAP1 POP JUMP JUMPDEST PUSH1 0x0 PUSH2 0xAA5 PUSH1 0x11 DUP4 PUSH2 0xBFF JUMP JUMPDEST SWAP2 POP PUSH2 0xAB0 DUP3 PUSH2 0xDA3 JUMP JUMPDEST PUSH1 0x20 DUP3 ADD SWAP1 POP SWAP2 SWAP1 POP JUMP JUMPDEST PUSH2 0xAC4 DUP2 PUSH2 0xC4E JUMP JUMPDEST DUP3 MSTORE POP POP JUMP JUMPDEST PUSH1 0x0 PUSH1 0x20 DUP3 ADD SWAP1 POP PUSH2 0xADF PUSH1 0x0 DUP4 ADD DUP5 PUSH2 0x958 JUMP JUMPDEST SWAP3 SWAP2 POP POP JUMP JUMPDEST PUSH1 0x0 PUSH1 0x20 DUP3 ADD SWAP1 POP PUSH2 0xAFA PUSH1 0x0 DUP4 ADD DUP5 PUSH2 0x967 JUMP JUMPDEST SWAP3 SWAP2 POP POP JUMP JUMPDEST PUSH1 0x0 PUSH1 0x20 DUP3 ADD SWAP1 POP DUP2 DUP2 SUB PUSH1 0x0 DUP4 ADD MSTORE PUSH2 0xB1A DUP2 DUP5 PUSH2 0x976 JUMP JUMPDEST SWAP1 POP SWAP3 SWAP2 POP POP JUMP JUMPDEST PUSH1 0x0 PUSH1 0x20 DUP3 ADD SWAP1 POP DUP2 DUP2 SUB PUSH1 0x0 DUP4 ADD MSTORE PUSH2 0xB3C DUP2 DUP5 PUSH2 0x9AF JUMP JUMPDEST SWAP1 POP SWAP3 SWAP2 POP POP JUMP JUMPDEST PUSH1 0x0 PUSH1 0x20 DUP3 ADD SWAP1 POP DUP2 DUP2 SUB PUSH1 0x0 DUP4 ADD MSTORE PUSH2 0xB5D DUP2 PUSH2 0xA2F JUMP JUMPDEST SWAP1 POP SWAP2 SWAP1 POP JUMP JUMPDEST PUSH1 0x0 PUSH1 0x20 DUP3 ADD SWAP1 POP DUP2 DUP2 SUB PUSH1 0x0 DUP4 ADD MSTORE PUSH2 0xB7D DUP2 PUSH2 0xA52 JUMP JUMPDEST SWAP1 POP SWAP2 SWAP1 POP JUMP JUMPDEST PUSH1 0x0 PUSH1 0x20 DUP3 ADD SWAP1 POP DUP2 DUP2 SUB PUSH1 0x0 DUP4 ADD MSTORE PUSH2 0xB9D DUP2 PUSH2 0xA75 JUMP JUMPDEST SWAP1 POP SWAP2 SWAP1 POP JUMP JUMPDEST PUSH1 0x0 PUSH1 0x20 DUP3 ADD SWAP1 POP DUP2 DUP2 SUB PUSH1 0x0 DUP4 ADD MSTORE PUSH2 0xBBD DUP2 PUSH2 0xA98 JUMP JUMPDEST SWAP1 POP SWAP2 SWAP1 POP JUMP JUMPDEST PUSH1 0x0 PUSH1 0x20 DUP3 ADD SWAP1 POP PUSH2 0xBD9 PUSH1 0x0 DUP4 ADD DUP5 PUSH2 0xABB JUMP JUMPDEST SWAP3 SWAP2 POP POP JUMP JUMPDEST PUSH1 0x0 DUP2 SWAP1 POP DUP2 PUSH1 0x0 MSTORE PUSH1 0x20 PUSH1 0x0 KECCAK256 SWAP1 POP SWAP2 SWAP1 POP JUMP JUMPDEST PUSH1 0x0 DUP2 MLOAD SWAP1 POP SWAP2 SWAP1 POP JUMP JUMPDEST PUSH1 0x0 DUP3 DUP3 MSTORE PUSH1 0x20 DUP3 ADD SWAP1 POP SWAP3 SWAP2 POP POP JUMP JUMPDEST PUSH1 0x0 PUSH2 0xC1B DUP3 PUSH2 0xC2E JUMP JUMPDEST SWAP1 POP SWAP2 SWAP1 POP JUMP JUMPDEST PUSH1 0x0 DUP2 ISZERO ISZERO SWAP1 POP SWAP2 SWAP1 POP JUMP JUMPDEST PUSH1 0x0 PUSH20 0xFFFFFFFFFFFFFFFFFFFFFFFFFFFFFFFFFFFFFFFF DUP3 AND SWAP1 POP SWAP2 SWAP1 POP JUMP JUMPDEST PUSH1 0x0 DUP2 SWAP1 POP SWAP2 SWAP1 POP JUMP JUMPDEST PUSH1 0x0 JUMPDEST DUP4 DUP2 LT ISZERO PUSH2 0xC76 JUMPI DUP1 DUP3 ADD MLOAD DUP2 DUP5 ADD MSTORE PUSH1 0x20 DUP2 ADD SWAP1 POP PUSH2 0xC5B JUMP JUMPDEST DUP4 DUP2 GT ISZERO PUSH2 0xC85 JUMPI PUSH1 0x0 DUP5 DUP5 ADD MSTORE JUMPDEST POP POP POP POP JUMP JUMPDEST PUSH1 0x0 PUSH1 0x2 DUP3 DIV SWAP1 POP PUSH1 0x1 DUP3 AND DUP1 PUSH2 0xCA3 JUMPI PUSH1 0x7F DUP3 AND SWAP2 POP JUMPDEST PUSH1 0x20 DUP3 LT DUP2 EQ ISZERO PUSH2 0xCB7 JUMPI PUSH2 0xCB6 PUSH2 0xCBD JUMP JUMPDEST JUMPDEST POP SWAP2 SWAP1 POP JUMP JUMPDEST PUSH32 0x4E487B7100000000000000000000000000000000000000000000000000000000 PUSH1 0x0 MSTORE PUSH1 0x22 PUSH1 0x4 MSTORE PUSH1 0x24 PUSH1 0x0 REVERT JUMPDEST PUSH1 0x0 DUP1 REVERT JUMPDEST PUSH1 0x0 PUSH1 0x1F NOT PUSH1 0x1F DUP4 ADD AND SWAP1 POP SWAP2 SWAP1 POP JUMP JUMPDEST PUSH32 0x4E6F20706F74732076616C6964617220692064656E6567617220616C686F7261 PUSH1 0x0 DUP3 ADD MSTORE POP JUMP JUMPDEST PUSH32 0x456C2070726F70696574617269206E6F20706F742076616C6964617220656C20 PUSH1 0x0 DUP3 ADD MSTORE PUSH32 0x7365752061737365740000000000000000000000000000000000000000000000 PUSH1 0x20 DUP3 ADD MSTORE POP JUMP JUMPDEST PUSH32 0x56616C696461646F722072657065746974000000000000000000000000000000 PUSH1 0x0 DUP3 ADD MSTORE POP JUMP JUMPDEST PUSH32 0x44656E656761646F722072657065746974000000000000000000000000000000 PUSH1 0x0 DUP3 ADD MSTORE POP JUMP JUMPDEST PUSH2 0xDD5 DUP2 PUSH2 0xC10 JUMP JUMPDEST DUP2 EQ PUSH2 0xDE0 JUMPI PUSH1 0x0 DUP1 REVERT JUMPDEST POP JUMP INVALID LOG2 PUSH5 0x6970667358 0x22 SLT KECCAK256 ADD 0xA9 PC 0xE0 0xD8 0xE9 SLT SHL MOD SWAP4 LOG2 PUSH4 0xEDA52F00 0x5F ADDMOD 0x24 PUSH13 0x67FC7919378E4B43CCBEAB4064 PUSH20 0x6F6C634300080700330000000000000000000000 "
				},
				"gasEstimates": {
					"creation": {
						"codeDepositCost": "168600",
						"executionCost": "infinite",
						"totalCost": "infinite"
					},
					"external": {
						"getCollateral()": "2482",
						"getExpDays()": "2503",
						"getInvoicer()": "2544",
						"getValue()": "2438",
						"isLiquidCollateral()": "2523",
						"isVerifiedDoc()": "2552",
						"verificat()": "2600"
					}
				},
				"methodIdentifiers": {
					"getCollateral()": "5c1548fb",
					"getExpDays()": "fb3ceda7",
					"getInvoicer()": "9ec15039",
					"getValue()": "20965255",
					"isLiquidCollateral()": "ac007eff",
					"isVerifiedDoc()": "2e3b3b18",
					"verificat()": "68ff2d37"
				}
			},
			"storageLayout": {
				"storage": [
					{
						"astId": 4,
						"contract": "PFG/Factoring.sol:Factoring",
						"label": "invoicer",
						"offset": 0,
						"slot": "0",
						"type": "t_address"
					},
					{
						"astId": 7,
						"contract": "PFG/Factoring.sol:Factoring",
						"label": "investors",
						"offset": 0,
						"slot": "1",
						"type": "t_array(t_address)dyn_storage"
					},
					{
						"astId": 10,
						"contract": "PFG/Factoring.sol:Factoring",
						"label": "verificat",
						"offset": 0,
						"slot": "2",
						"type": "t_contract(Verificacio)365"
					},
					{
						"astId": 12,
						"contract": "PFG/Factoring.sol:Factoring",
						"label": "isVerified",
						"offset": 20,
						"slot": "2",
						"type": "t_bool"
					},
					{
						"astId": 14,
						"contract": "PFG/Factoring.sol:Factoring",
						"label": "value",
						"offset": 0,
						"slot": "3",
						"type": "t_uint256"
					},
					{
						"astId": 16,
						"contract": "PFG/Factoring.sol:Factoring",
						"label": "expDays",
						"offset": 0,
						"slot": "4",
						"type": "t_uint256"
					},
					{
						"astId": 18,
						"contract": "PFG/Factoring.sol:Factoring",
						"label": "collateral",
						"offset": 0,
						"slot": "5",
						"type": "t_uint256"
					},
					{
						"astId": 20,
						"contract": "PFG/Factoring.sol:Factoring",
						"label": "isLiquidCol",
						"offset": 0,
						"slot": "6",
						"type": "t_bool"
					}
				],
				"types": {
					"t_address": {
						"encoding": "inplace",
						"label": "address",
						"numberOfBytes": "20"
					},
					"t_array(t_address)dyn_storage": {
						"base": "t_address",
						"encoding": "dynamic_array",
						"label": "address[]",
						"numberOfBytes": "32"
					},
					"t_bool": {
						"encoding": "inplace",
						"label": "bool",
						"numberOfBytes": "1"
					},
					"t_contract(Verificacio)365": {
						"encoding": "inplace",
						"label": "contract Verificacio",
						"numberOfBytes": "20"
					},
					"t_uint256": {
						"encoding": "inplace",
						"label": "uint256",
						"numberOfBytes": "32"
					}
				}
			},
			"userdoc": {
				"kind": "user",
				"methods": {},
				"version": 1
			}
		}
	}
}