{
	"PFG/Interest.sol": {
		"Interest": {
			"abi": [
				{
					"inputs": [
						{
							"internalType": "uint256",
							"name": "_init",
							"type": "uint256"
						}
					],
					"stateMutability": "nonpayable",
					"type": "constructor"
				},
				{
					"inputs": [
						{
							"internalType": "uint256",
							"name": "val",
							"type": "uint256"
						},
						{
							"internalType": "uint256",
							"name": "col",
							"type": "uint256"
						}
					],
					"name": "adjustIntCol",
					"outputs": [],
					"stateMutability": "nonpayable",
					"type": "function"
				},
				{
					"inputs": [],
					"name": "adjustIntDoc",
					"outputs": [],
					"stateMutability": "nonpayable",
					"type": "function"
				},
				{
					"inputs": [],
					"name": "adjustIntVerify",
					"outputs": [],
					"stateMutability": "nonpayable",
					"type": "function"
				},
				{
					"inputs": [],
					"name": "rate",
					"outputs": [
						{
							"internalType": "uint256",
							"name": "",
							"type": "uint256"
						}
					],
					"stateMutability": "view",
					"type": "function"
				}
			],
			"devdoc": {
				"kind": "dev",
				"methods": {},
				"version": 1
			},
			"evm": {
				"assembly": "    /* \"PFG/Interest.sol\":66:1361  contract Interest {... */\n  mstore(0x40, 0x80)\n    /* \"PFG/Interest.sol\":219:371  constructor(uint256 _init){... */\n  callvalue\n  dup1\n  iszero\n  tag_1\n  jumpi\n  0x00\n  dup1\n  revert\ntag_1:\n  pop\n  mload(0x40)\n  sub(codesize, bytecodeSize)\n  dup1\n  bytecodeSize\n  dup4\n  codecopy\n  dup2\n  dup2\n  add\n  0x40\n  mstore\n  dup2\n  add\n  swap1\n  tag_2\n  swap2\n  swap1\n  tag_3\n  jump\t// in\ntag_2:\n    /* \"PFG/Interest.sol\":262:264  18 */\n  0x12\n    /* \"PFG/Interest.sol\":256:259  dec */\n  0x01\n    /* \"PFG/Interest.sol\":256:264  dec = 18 */\n  dup2\n  swap1\n  sstore\n  pop\n    /* \"PFG/Interest.sol\":296:299  dec */\n  sload(0x01)\n    /* \"PFG/Interest.sol\":290:292  10 */\n  0x0a\n    /* \"PFG/Interest.sol\":290:299  10 ** dec */\n  tag_6\n  swap2\n  swap1\n  tag_7\n  jump\t// in\ntag_6:\n    /* \"PFG/Interest.sol\":282:287  _init */\n  dup2\n    /* \"PFG/Interest.sol\":282:299  _init * 10 ** dec */\n  tag_8\n  swap2\n  swap1\n  tag_9\n  jump\t// in\ntag_8:\n    /* \"PFG/Interest.sol\":275:279  rate */\n  0x00\n    /* \"PFG/Interest.sol\":275:299  rate = _init * 10 ** dec */\n  dup2\n  swap1\n  sstore\n  pop\n    /* \"PFG/Interest.sol\":327:332  false */\n  0x00\n    /* \"PFG/Interest.sol\":310:324  collateralOnce */\n  0x02\n  0x00\n    /* \"PFG/Interest.sol\":310:332  collateralOnce = false */\n  0x0100\n  exp\n  dup2\n  sload\n  dup2\n  0xff\n  mul\n  not\n  and\n  swap1\n  dup4\n  iszero\n  iszero\n  mul\n  or\n  swap1\n  sstore\n  pop\n    /* \"PFG/Interest.sol\":358:363  false */\n  0x00\n    /* \"PFG/Interest.sol\":343:355  verifiedOnce */\n  0x02\n  0x01\n    /* \"PFG/Interest.sol\":343:363  verifiedOnce = false */\n  0x0100\n  exp\n  dup2\n  sload\n  dup2\n  0xff\n  mul\n  not\n  and\n  swap1\n  dup4\n  iszero\n  iszero\n  mul\n  or\n  swap1\n  sstore\n  pop\n    /* \"PFG/Interest.sol\":219:371  constructor(uint256 _init){... */\n  pop\n    /* \"PFG/Interest.sol\":66:1361  contract Interest {... */\n  jump(tag_10)\n    /* \"#utility.yul\":88:205   */\ntag_12:\n    /* \"#utility.yul\":197:198   */\n  0x00\n    /* \"#utility.yul\":194:195   */\n  dup1\n    /* \"#utility.yul\":187:199   */\n  revert\n    /* \"#utility.yul\":334:411   */\ntag_14:\n    /* \"#utility.yul\":371:378   */\n  0x00\n    /* \"#utility.yul\":400:405   */\n  dup2\n    /* \"#utility.yul\":389:405   */\n  swap1\n  pop\n    /* \"#utility.yul\":334:411   */\n  swap2\n  swap1\n  pop\n  jump\t// out\n    /* \"#utility.yul\":417:539   */\ntag_15:\n    /* \"#utility.yul\":490:514   */\n  tag_27\n    /* \"#utility.yul\":508:513   */\n  dup2\n    /* \"#utility.yul\":490:514   */\n  tag_14\n  jump\t// in\ntag_27:\n    /* \"#utility.yul\":483:488   */\n  dup2\n    /* \"#utility.yul\":480:515   */\n  eq\n    /* \"#utility.yul\":470:533   */\n  tag_28\n  jumpi\n    /* \"#utility.yul\":529:530   */\n  0x00\n    /* \"#utility.yul\":526:527   */\n  dup1\n    /* \"#utility.yul\":519:531   */\n  revert\n    /* \"#utility.yul\":470:533   */\ntag_28:\n    /* \"#utility.yul\":417:539   */\n  pop\n  jump\t// out\n    /* \"#utility.yul\":545:688   */\ntag_16:\n    /* \"#utility.yul\":602:607   */\n  0x00\n    /* \"#utility.yul\":633:639   */\n  dup2\n    /* \"#utility.yul\":627:640   */\n  mload\n    /* \"#utility.yul\":618:640   */\n  swap1\n  pop\n    /* \"#utility.yul\":649:682   */\n  tag_30\n    /* \"#utility.yul\":676:681   */\n  dup2\n    /* \"#utility.yul\":649:682   */\n  tag_15\n  jump\t// in\ntag_30:\n    /* \"#utility.yul\":545:688   */\n  swap3\n  swap2\n  pop\n  pop\n  jump\t// out\n    /* \"#utility.yul\":694:1045   */\ntag_3:\n    /* \"#utility.yul\":764:770   */\n  0x00\n    /* \"#utility.yul\":813:815   */\n  0x20\n    /* \"#utility.yul\":801:810   */\n  dup3\n    /* \"#utility.yul\":792:799   */\n  dup5\n    /* \"#utility.yul\":788:811   */\n  sub\n    /* \"#utility.yul\":784:816   */\n  slt\n    /* \"#utility.yul\":781:900   */\n  iszero\n  tag_32\n  jumpi\n    /* \"#utility.yul\":819:898   */\n  tag_33\n  tag_12\n  jump\t// in\ntag_33:\n    /* \"#utility.yul\":781:900   */\ntag_32:\n    /* \"#utility.yul\":939:940   */\n  0x00\n    /* \"#utility.yul\":964:1028   */\n  tag_34\n    /* \"#utility.yul\":1020:1027   */\n  dup5\n    /* \"#utility.yul\":1011:1017   */\n  dup3\n    /* \"#utility.yul\":1000:1009   */\n  dup6\n    /* \"#utility.yul\":996:1018   */\n  add\n    /* \"#utility.yul\":964:1028   */\n  tag_16\n  jump\t// in\ntag_34:\n    /* \"#utility.yul\":954:1028   */\n  swap2\n  pop\n    /* \"#utility.yul\":910:1038   */\n  pop\n    /* \"#utility.yul\":694:1045   */\n  swap3\n  swap2\n  pop\n  pop\n  jump\t// out\n    /* \"#utility.yul\":1051:1231   */\ntag_17:\n    /* \"#utility.yul\":1099:1176   */\n  0x4e487b7100000000000000000000000000000000000000000000000000000000\n    /* \"#utility.yul\":1096:1097   */\n  0x00\n    /* \"#utility.yul\":1089:1177   */\n  mstore\n    /* \"#utility.yul\":1196:1200   */\n  0x11\n    /* \"#utility.yul\":1193:1194   */\n  0x04\n    /* \"#utility.yul\":1186:1201   */\n  mstore\n    /* \"#utility.yul\":1220:1224   */\n  0x24\n    /* \"#utility.yul\":1217:1218   */\n  0x00\n    /* \"#utility.yul\":1210:1225   */\n  revert\n    /* \"#utility.yul\":1237:1339   */\ntag_18:\n    /* \"#utility.yul\":1279:1287   */\n  0x00\n    /* \"#utility.yul\":1326:1331   */\n  dup2\n    /* \"#utility.yul\":1323:1324   */\n  0x01\n    /* \"#utility.yul\":1319:1332   */\n  shr\n    /* \"#utility.yul\":1298:1332   */\n  swap1\n  pop\n    /* \"#utility.yul\":1237:1339   */\n  swap2\n  swap1\n  pop\n  jump\t// out\n    /* \"#utility.yul\":1345:2193   */\ntag_19:\n    /* \"#utility.yul\":1406:1411   */\n  0x00\n    /* \"#utility.yul\":1413:1417   */\n  dup1\n    /* \"#utility.yul\":1437:1443   */\n  dup3\n    /* \"#utility.yul\":1428:1443   */\n  swap2\n  pop\n    /* \"#utility.yul\":1461:1466   */\n  dup4\n    /* \"#utility.yul\":1452:1466   */\n  swap1\n  pop\n    /* \"#utility.yul\":1475:2187   */\ntag_38:\n    /* \"#utility.yul\":1496:1497   */\n  0x01\n    /* \"#utility.yul\":1486:1494   */\n  dup6\n    /* \"#utility.yul\":1483:1498   */\n  gt\n    /* \"#utility.yul\":1475:2187   */\n  iszero\n  tag_40\n  jumpi\n    /* \"#utility.yul\":1591:1595   */\n  dup1\n    /* \"#utility.yul\":1586:1589   */\n  dup7\n    /* \"#utility.yul\":1582:1596   */\n  div\n    /* \"#utility.yul\":1576:1580   */\n  dup2\n    /* \"#utility.yul\":1573:1597   */\n  gt\n    /* \"#utility.yul\":1570:1620   */\n  iszero\n  tag_41\n  jumpi\n    /* \"#utility.yul\":1600:1618   */\n  tag_42\n  tag_17\n  jump\t// in\ntag_42:\n    /* \"#utility.yul\":1570:1620   */\ntag_41:\n    /* \"#utility.yul\":1650:1651   */\n  0x01\n    /* \"#utility.yul\":1640:1648   */\n  dup6\n    /* \"#utility.yul\":1636:1652   */\n  and\n    /* \"#utility.yul\":1633:2084   */\n  iszero\n  tag_43\n  jumpi\n    /* \"#utility.yul\":2065:2069   */\n  dup1\n    /* \"#utility.yul\":2058:2063   */\n  dup3\n    /* \"#utility.yul\":2054:2070   */\n  mul\n    /* \"#utility.yul\":2045:2070   */\n  swap2\n  pop\n    /* \"#utility.yul\":1633:2084   */\ntag_43:\n    /* \"#utility.yul\":2115:2119   */\n  dup1\n    /* \"#utility.yul\":2109:2113   */\n  dup2\n    /* \"#utility.yul\":2105:2120   */\n  mul\n    /* \"#utility.yul\":2097:2120   */\n  swap1\n  pop\n    /* \"#utility.yul\":2145:2177   */\n  tag_44\n    /* \"#utility.yul\":2168:2176   */\n  dup6\n    /* \"#utility.yul\":2145:2177   */\n  tag_18\n  jump\t// in\ntag_44:\n    /* \"#utility.yul\":2133:2177   */\n  swap5\n  pop\n    /* \"#utility.yul\":1475:2187   */\n  jump(tag_38)\ntag_40:\n    /* \"#utility.yul\":1345:2193   */\n  swap5\n  pop\n  swap5\n  swap3\n  pop\n  pop\n  pop\n  jump\t// out\n    /* \"#utility.yul\":2199:3272   */\ntag_20:\n    /* \"#utility.yul\":2253:2258   */\n  0x00\n    /* \"#utility.yul\":2444:2452   */\n  dup3\n    /* \"#utility.yul\":2434:2474   */\n  tag_46\n  jumpi\n    /* \"#utility.yul\":2465:2466   */\n  0x01\n    /* \"#utility.yul\":2456:2466   */\n  swap1\n  pop\n    /* \"#utility.yul\":2467:2472   */\n  jump(tag_45)\n    /* \"#utility.yul\":2434:2474   */\ntag_46:\n    /* \"#utility.yul\":2493:2497   */\n  dup2\n    /* \"#utility.yul\":2483:2519   */\n  tag_47\n  jumpi\n    /* \"#utility.yul\":2510:2511   */\n  0x00\n    /* \"#utility.yul\":2501:2511   */\n  swap1\n  pop\n    /* \"#utility.yul\":2512:2517   */\n  jump(tag_45)\n    /* \"#utility.yul\":2483:2519   */\ntag_47:\n    /* \"#utility.yul\":2579:2583   */\n  dup2\n    /* \"#utility.yul\":2627:2628   */\n  0x01\n    /* \"#utility.yul\":2622:2649   */\n  dup2\n  eq\n  tag_49\n  jumpi\n    /* \"#utility.yul\":2663:2664   */\n  0x02\n    /* \"#utility.yul\":2658:2849   */\n  dup2\n  eq\n  tag_50\n  jumpi\n    /* \"#utility.yul\":2572:2849   */\n  jump(tag_48)\n    /* \"#utility.yul\":2622:2649   */\ntag_49:\n    /* \"#utility.yul\":2640:2641   */\n  0x01\n    /* \"#utility.yul\":2631:2641   */\n  swap2\n  pop\n    /* \"#utility.yul\":2642:2647   */\n  pop\n  jump(tag_45)\n    /* \"#utility.yul\":2658:2849   */\ntag_50:\n    /* \"#utility.yul\":2703:2706   */\n  0xff\n    /* \"#utility.yul\":2693:2701   */\n  dup5\n    /* \"#utility.yul\":2690:2707   */\n  gt\n    /* \"#utility.yul\":2687:2730   */\n  iszero\n  tag_51\n  jumpi\n    /* \"#utility.yul\":2710:2728   */\n  tag_52\n  tag_17\n  jump\t// in\ntag_52:\n    /* \"#utility.yul\":2687:2730   */\ntag_51:\n    /* \"#utility.yul\":2759:2767   */\n  dup4\n    /* \"#utility.yul\":2756:2757   */\n  0x02\n    /* \"#utility.yul\":2752:2768   */\n  exp\n    /* \"#utility.yul\":2743:2768   */\n  swap2\n  pop\n    /* \"#utility.yul\":2794:2797   */\n  dup5\n    /* \"#utility.yul\":2787:2792   */\n  dup3\n    /* \"#utility.yul\":2784:2798   */\n  gt\n    /* \"#utility.yul\":2781:2821   */\n  iszero\n  tag_53\n  jumpi\n    /* \"#utility.yul\":2801:2819   */\n  tag_54\n  tag_17\n  jump\t// in\ntag_54:\n    /* \"#utility.yul\":2781:2821   */\ntag_53:\n    /* \"#utility.yul\":2834:2839   */\n  pop\n  jump(tag_45)\n    /* \"#utility.yul\":2572:2849   */\ntag_48:\n  pop\n    /* \"#utility.yul\":2958:2960   */\n  0x20\n    /* \"#utility.yul\":2948:2956   */\n  dup4\n    /* \"#utility.yul\":2945:2961   */\n  lt\n    /* \"#utility.yul\":2939:2942   */\n  0x0133\n    /* \"#utility.yul\":2933:2937   */\n  dup4\n    /* \"#utility.yul\":2930:2943   */\n  lt\n    /* \"#utility.yul\":2926:2962   */\n  and\n    /* \"#utility.yul\":2908:2910   */\n  0x4e\n    /* \"#utility.yul\":2898:2906   */\n  dup5\n    /* \"#utility.yul\":2895:2911   */\n  lt\n    /* \"#utility.yul\":2890:2892   */\n  0x0b\n    /* \"#utility.yul\":2884:2888   */\n  dup5\n    /* \"#utility.yul\":2881:2893   */\n  lt\n    /* \"#utility.yul\":2877:2912   */\n  and\n    /* \"#utility.yul\":2861:2972   */\n  or\n    /* \"#utility.yul\":2858:3104   */\n  iszero\n  tag_55\n  jumpi\n    /* \"#utility.yul\":3014:3022   */\n  dup3\n    /* \"#utility.yul\":3008:3012   */\n  dup3\n    /* \"#utility.yul\":3004:3023   */\n  exp\n    /* \"#utility.yul\":2995:3023   */\n  swap1\n  pop\n    /* \"#utility.yul\":3049:3052   */\n  dup4\n    /* \"#utility.yul\":3042:3047   */\n  dup2\n    /* \"#utility.yul\":3039:3053   */\n  gt\n    /* \"#utility.yul\":3036:3076   */\n  iszero\n  tag_56\n  jumpi\n    /* \"#utility.yul\":3056:3074   */\n  tag_57\n  tag_17\n  jump\t// in\ntag_57:\n    /* \"#utility.yul\":3036:3076   */\ntag_56:\n    /* \"#utility.yul\":3089:3094   */\n  jump(tag_45)\n    /* \"#utility.yul\":2858:3104   */\ntag_55:\n    /* \"#utility.yul\":3129:3171   */\n  tag_58\n    /* \"#utility.yul\":3167:3170   */\n  dup5\n    /* \"#utility.yul\":3157:3165   */\n  dup5\n    /* \"#utility.yul\":3151:3155   */\n  dup5\n    /* \"#utility.yul\":3148:3149   */\n  0x01\n    /* \"#utility.yul\":3129:3171   */\n  tag_19\n  jump\t// in\ntag_58:\n    /* \"#utility.yul\":3114:3171   */\n  swap3\n  pop\n  swap1\n  pop\n    /* \"#utility.yul\":3203:3207   */\n  dup2\n    /* \"#utility.yul\":3198:3201   */\n  dup5\n    /* \"#utility.yul\":3194:3208   */\n  div\n    /* \"#utility.yul\":3187:3192   */\n  dup2\n    /* \"#utility.yul\":3184:3209   */\n  gt\n    /* \"#utility.yul\":3181:3232   */\n  iszero\n  tag_59\n  jumpi\n    /* \"#utility.yul\":3212:3230   */\n  tag_60\n  tag_17\n  jump\t// in\ntag_60:\n    /* \"#utility.yul\":3181:3232   */\ntag_59:\n    /* \"#utility.yul\":3261:3265   */\n  dup2\n    /* \"#utility.yul\":3254:3259   */\n  dup2\n    /* \"#utility.yul\":3250:3266   */\n  mul\n    /* \"#utility.yul\":3241:3266   */\n  swap1\n  pop\n    /* \"#utility.yul\":2199:3272   */\ntag_45:\n  swap4\n  swap3\n  pop\n  pop\n  pop\n  jump\t// out\n    /* \"#utility.yul\":3278:3563   */\ntag_7:\n    /* \"#utility.yul\":3338:3343   */\n  0x00\n    /* \"#utility.yul\":3362:3385   */\n  tag_62\n    /* \"#utility.yul\":3380:3384   */\n  dup3\n    /* \"#utility.yul\":3362:3385   */\n  tag_14\n  jump\t// in\ntag_62:\n    /* \"#utility.yul\":3354:3385   */\n  swap2\n  pop\n    /* \"#utility.yul\":3406:3433   */\n  tag_63\n    /* \"#utility.yul\":3424:3432   */\n  dup4\n    /* \"#utility.yul\":3406:3433   */\n  tag_14\n  jump\t// in\ntag_63:\n    /* \"#utility.yul\":3394:3433   */\n  swap3\n  pop\n    /* \"#utility.yul\":3452:3556   */\n  tag_64\n    /* \"#utility.yul\":3489:3555   */\n  0xffffffffffffffffffffffffffffffffffffffffffffffffffffffffffffffff\n    /* \"#utility.yul\":3479:3487   */\n  dup5\n    /* \"#utility.yul\":3473:3477   */\n  dup5\n    /* \"#utility.yul\":3452:3556   */\n  tag_20\n  jump\t// in\ntag_64:\n    /* \"#utility.yul\":3443:3556   */\n  swap1\n  pop\n    /* \"#utility.yul\":3278:3563   */\n  swap3\n  swap2\n  pop\n  pop\n  jump\t// out\n    /* \"#utility.yul\":3569:3917   */\ntag_9:\n    /* \"#utility.yul\":3609:3616   */\n  0x00\n    /* \"#utility.yul\":3632:3652   */\n  tag_66\n    /* \"#utility.yul\":3650:3651   */\n  dup3\n    /* \"#utility.yul\":3632:3652   */\n  tag_14\n  jump\t// in\ntag_66:\n    /* \"#utility.yul\":3627:3652   */\n  swap2\n  pop\n    /* \"#utility.yul\":3666:3686   */\n  tag_67\n    /* \"#utility.yul\":3684:3685   */\n  dup4\n    /* \"#utility.yul\":3666:3686   */\n  tag_14\n  jump\t// in\ntag_67:\n    /* \"#utility.yul\":3661:3686   */\n  swap3\n  pop\n    /* \"#utility.yul\":3854:3855   */\n  dup2\n    /* \"#utility.yul\":3786:3852   */\n  0xffffffffffffffffffffffffffffffffffffffffffffffffffffffffffffffff\n    /* \"#utility.yul\":3782:3856   */\n  div\n    /* \"#utility.yul\":3779:3780   */\n  dup4\n    /* \"#utility.yul\":3776:3857   */\n  gt\n    /* \"#utility.yul\":3771:3772   */\n  dup3\n    /* \"#utility.yul\":3764:3773   */\n  iszero\n    /* \"#utility.yul\":3757:3774   */\n  iszero\n    /* \"#utility.yul\":3753:3858   */\n  and\n    /* \"#utility.yul\":3750:3881   */\n  iszero\n  tag_68\n  jumpi\n    /* \"#utility.yul\":3861:3879   */\n  tag_69\n  tag_17\n  jump\t// in\ntag_69:\n    /* \"#utility.yul\":3750:3881   */\ntag_68:\n    /* \"#utility.yul\":3909:3910   */\n  dup3\n    /* \"#utility.yul\":3906:3907   */\n  dup3\n    /* \"#utility.yul\":3902:3911   */\n  mul\n    /* \"#utility.yul\":3891:3911   */\n  swap1\n  pop\n    /* \"#utility.yul\":3569:3917   */\n  swap3\n  swap2\n  pop\n  pop\n  jump\t// out\n    /* \"PFG/Interest.sol\":66:1361  contract Interest {... */\ntag_10:\n  dataSize(sub_0)\n  dup1\n  dataOffset(sub_0)\n  0x00\n  codecopy\n  0x00\n  return\nstop\n\nsub_0: assembly {\n        /* \"PFG/Interest.sol\":66:1361  contract Interest {... */\n      mstore(0x40, 0x80)\n      callvalue\n      dup1\n      iszero\n      tag_1\n      jumpi\n      0x00\n      dup1\n      revert\n    tag_1:\n      pop\n      jumpi(tag_2, lt(calldatasize, 0x04))\n      shr(0xe0, calldataload(0x00))\n      dup1\n      0x2c4e722e\n      eq\n      tag_3\n      jumpi\n      dup1\n      0x84c6e2c8\n      eq\n      tag_4\n      jumpi\n      dup1\n      0x9f8af9dd\n      eq\n      tag_5\n      jumpi\n      dup1\n      0xeffc1fe0\n      eq\n      tag_6\n      jumpi\n    tag_2:\n      0x00\n      dup1\n      revert\n        /* \"PFG/Interest.sol\":95:114  uint256 public rate */\n    tag_3:\n      tag_7\n      tag_8\n      jump\t// in\n    tag_7:\n      mload(0x40)\n      tag_9\n      swap2\n      swap1\n      tag_10\n      jump\t// in\n    tag_9:\n      mload(0x40)\n      dup1\n      swap2\n      sub\n      swap1\n      return\n        /* \"PFG/Interest.sol\":529:590  function adjustIntDoc() public {... */\n    tag_4:\n      tag_11\n      tag_12\n      jump\t// in\n    tag_11:\n      stop\n        /* \"PFG/Interest.sol\":598:1262  function adjustIntCol(uint256 val, uint256 col) public {... */\n    tag_5:\n      tag_13\n      0x04\n      dup1\n      calldatasize\n      sub\n      dup2\n      add\n      swap1\n      tag_14\n      swap2\n      swap1\n      tag_15\n      jump\t// in\n    tag_14:\n      tag_16\n      jump\t// in\n    tag_13:\n      stop\n        /* \"PFG/Interest.sol\":379:521  function adjustIntVerify() public {... */\n    tag_6:\n      tag_17\n      tag_18\n      jump\t// in\n    tag_17:\n      stop\n        /* \"PFG/Interest.sol\":95:114  uint256 public rate */\n    tag_8:\n      sload(0x00)\n      dup2\n      jump\t// out\n        /* \"PFG/Interest.sol\":529:590  function adjustIntDoc() public {... */\n    tag_12:\n        /* \"PFG/Interest.sol\":571:582  reduction() */\n      tag_20\n        /* \"PFG/Interest.sol\":571:580  reduction */\n      tag_21\n        /* \"PFG/Interest.sol\":571:582  reduction() */\n      jump\t// in\n    tag_20:\n        /* \"PFG/Interest.sol\":529:590  function adjustIntDoc() public {... */\n      jump\t// out\n        /* \"PFG/Interest.sol\":598:1262  function adjustIntCol(uint256 val, uint256 col) public {... */\n    tag_16:\n        /* \"PFG/Interest.sol\":673:687  collateralOnce */\n      0x02\n      0x00\n      swap1\n      sload\n      swap1\n      0x0100\n      exp\n      swap1\n      div\n      0xff\n      and\n        /* \"PFG/Interest.sol\":672:687  !collateralOnce */\n      iszero\n        /* \"PFG/Interest.sol\":664:708  require(!collateralOnce, \"Already executed\") */\n      tag_23\n      jumpi\n      mload(0x40)\n      0x08c379a000000000000000000000000000000000000000000000000000000000\n      dup2\n      mstore\n      0x04\n      add\n      tag_24\n      swap1\n      tag_25\n      jump\t// in\n    tag_24:\n      mload(0x40)\n      dup1\n      swap2\n      sub\n      swap1\n      revert\n    tag_23:\n        /* \"PFG/Interest.sol\":719:735  uint256 valueDec */\n      0x00\n        /* \"PFG/Interest.sol\":751:754  dec */\n      sload(0x01)\n        /* \"PFG/Interest.sol\":745:747  10 */\n      0x0a\n        /* \"PFG/Interest.sol\":745:754  10 ** dec */\n      tag_26\n      swap2\n      swap1\n      tag_27\n      jump\t// in\n    tag_26:\n        /* \"PFG/Interest.sol\":739:742  val */\n      dup4\n        /* \"PFG/Interest.sol\":739:754  val * 10 ** dec */\n      tag_28\n      swap2\n      swap1\n      tag_29\n      jump\t// in\n    tag_28:\n        /* \"PFG/Interest.sol\":719:755  uint256 valueDec = (val * 10 ** dec) */\n      swap1\n      pop\n        /* \"PFG/Interest.sol\":766:780  uint256 colDec */\n      0x00\n        /* \"PFG/Interest.sol\":796:799  dec */\n      sload(0x01)\n        /* \"PFG/Interest.sol\":790:792  10 */\n      0x0a\n        /* \"PFG/Interest.sol\":790:799  10 ** dec */\n      tag_30\n      swap2\n      swap1\n      tag_27\n      jump\t// in\n    tag_30:\n        /* \"PFG/Interest.sol\":784:787  col */\n      dup4\n        /* \"PFG/Interest.sol\":784:799  col * 10 ** dec */\n      tag_31\n      swap2\n      swap1\n      tag_29\n      jump\t// in\n    tag_31:\n        /* \"PFG/Interest.sol\":766:800  uint256 colDec = (col * 10 ** dec) */\n      swap1\n      pop\n        /* \"PFG/Interest.sol\":811:828  uint256 actualRef */\n      0x00\n        /* \"PFG/Interest.sol\":840:843  col */\n      dup4\n        /* \"PFG/Interest.sol\":831:839  valueDec */\n      dup4\n        /* \"PFG/Interest.sol\":831:843  valueDec/col */\n      tag_32\n      swap2\n      swap1\n      tag_33\n      jump\t// in\n    tag_32:\n        /* \"PFG/Interest.sol\":811:843  uint256 actualRef = valueDec/col */\n      swap1\n      pop\n        /* \"PFG/Interest.sol\":854:865  uint256 ref */\n      0x00\n        /* \"PFG/Interest.sol\":868:887  1250000000000000000 */\n      0x1158e460913d0000\n        /* \"PFG/Interest.sol\":854:887  uint256 ref = 1250000000000000000 */\n      swap1\n      pop\n        /* \"PFG/Interest.sol\":911:920  actualRef */\n      dup2\n        /* \"PFG/Interest.sol\":904:907  ref */\n      dup2\n        /* \"PFG/Interest.sol\":904:920  ref <= actualRef */\n      gt\n        /* \"PFG/Interest.sol\":900:1221  if (ref <= actualRef){... */\n      tag_34\n      jumpi\n        /* \"PFG/Interest.sol\":955:958  ref */\n      dup1\n        /* \"PFG/Interest.sol\":945:954  actualRef */\n      dup3\n        /* \"PFG/Interest.sol\":945:958  actualRef-ref */\n      tag_35\n      swap2\n      swap1\n      tag_36\n      jump\t// in\n    tag_35:\n        /* \"PFG/Interest.sol\":936:940  rate */\n      0x00\n      dup1\n        /* \"PFG/Interest.sol\":936:959  rate += (actualRef-ref) */\n      dup3\n      dup3\n      sload\n      tag_37\n      swap2\n      swap1\n      tag_38\n      jump\t// in\n    tag_37:\n      swap3\n      pop\n      pop\n      dup2\n      swap1\n      sstore\n      pop\n        /* \"PFG/Interest.sol\":900:1221  if (ref <= actualRef){... */\n      jump(tag_39)\n    tag_34:\n        /* \"PFG/Interest.sol\":1000:1009  uint256 x */\n      0x00\n        /* \"PFG/Interest.sol\":1030:1033  100 */\n      0x64\n        /* \"PFG/Interest.sol\":1026:1029  val */\n      dup8\n        /* \"PFG/Interest.sol\":1026:1033  val*100 */\n      tag_40\n      swap2\n      swap1\n      tag_29\n      jump\t// in\n    tag_40:\n        /* \"PFG/Interest.sol\":1018:1021  125 */\n      0x7d\n        /* \"PFG/Interest.sol\":1013:1017  rate */\n      sload(0x00)\n        /* \"PFG/Interest.sol\":1013:1021  rate*125 */\n      tag_41\n      swap2\n      swap1\n      tag_29\n      jump\t// in\n    tag_41:\n        /* \"PFG/Interest.sol\":1012:1034  (rate*125) / (val*100) */\n      tag_42\n      swap2\n      swap1\n      tag_33\n      jump\t// in\n    tag_42:\n        /* \"PFG/Interest.sol\":1000:1034  uint256 x = (rate*125) / (val*100) */\n      swap1\n      pop\n        /* \"PFG/Interest.sol\":1049:1063  uint256 colRes */\n      0x00\n        /* \"PFG/Interest.sol\":1082:1085  100 */\n      0x64\n        /* \"PFG/Interest.sol\":1078:1080  80 */\n      0x50\n        /* \"PFG/Interest.sol\":1067:1075  valueDec */\n      dup8\n        /* \"PFG/Interest.sol\":1067:1080  valueDec * 80 */\n      tag_43\n      swap2\n      swap1\n      tag_29\n      jump\t// in\n    tag_43:\n        /* \"PFG/Interest.sol\":1066:1085  (valueDec * 80)/100 */\n      tag_44\n      swap2\n      swap1\n      tag_33\n      jump\t// in\n    tag_44:\n        /* \"PFG/Interest.sol\":1049:1085  uint256 colRes = (valueDec * 80)/100 */\n      swap1\n      pop\n        /* \"PFG/Interest.sol\":1100:1114  uint256 difCol */\n      0x00\n        /* \"PFG/Interest.sol\":1126:1132  colRes */\n      dup2\n        /* \"PFG/Interest.sol\":1117:1123  colDec */\n      dup7\n        /* \"PFG/Interest.sol\":1117:1132  colDec - colRes */\n      tag_45\n      swap2\n      swap1\n      tag_36\n      jump\t// in\n    tag_45:\n        /* \"PFG/Interest.sol\":1100:1132  uint256 difCol = colDec - colRes */\n      swap1\n      pop\n        /* \"PFG/Interest.sol\":1147:1158  uint256 res */\n      0x00\n        /* \"PFG/Interest.sol\":1179:1182  dec */\n      sload(0x01)\n        /* \"PFG/Interest.sol\":1175:1177  10 */\n      0x0a\n        /* \"PFG/Interest.sol\":1175:1182  10**dec */\n      tag_46\n      swap2\n      swap1\n      tag_27\n      jump\t// in\n    tag_46:\n        /* \"PFG/Interest.sol\":1166:1172  difCol */\n      dup3\n        /* \"PFG/Interest.sol\":1162:1163  x */\n      dup6\n        /* \"PFG/Interest.sol\":1162:1172  x * difCol */\n      tag_47\n      swap2\n      swap1\n      tag_29\n      jump\t// in\n    tag_47:\n        /* \"PFG/Interest.sol\":1161:1183  (x * difCol)/(10**dec) */\n      tag_48\n      swap2\n      swap1\n      tag_33\n      jump\t// in\n    tag_48:\n        /* \"PFG/Interest.sol\":1147:1183  uint256 res = (x * difCol)/(10**dec) */\n      swap1\n      pop\n        /* \"PFG/Interest.sol\":1206:1209  res */\n      dup1\n        /* \"PFG/Interest.sol\":1198:1202  rate */\n      0x00\n      dup1\n        /* \"PFG/Interest.sol\":1198:1209  rate -= res */\n      dup3\n      dup3\n      sload\n      tag_49\n      swap2\n      swap1\n      tag_36\n      jump\t// in\n    tag_49:\n      swap3\n      pop\n      pop\n      dup2\n      swap1\n      sstore\n      pop\n        /* \"PFG/Interest.sol\":985:1221  {... */\n      pop\n      pop\n      pop\n      pop\n        /* \"PFG/Interest.sol\":900:1221  if (ref <= actualRef){... */\n    tag_39:\n        /* \"PFG/Interest.sol\":1250:1254  true */\n      0x01\n        /* \"PFG/Interest.sol\":1233:1247  collateralOnce */\n      0x02\n      0x00\n        /* \"PFG/Interest.sol\":1233:1254  collateralOnce = true */\n      0x0100\n      exp\n      dup2\n      sload\n      dup2\n      0xff\n      mul\n      not\n      and\n      swap1\n      dup4\n      iszero\n      iszero\n      mul\n      or\n      swap1\n      sstore\n      pop\n        /* \"PFG/Interest.sol\":653:1262  {... */\n      pop\n      pop\n      pop\n      pop\n        /* \"PFG/Interest.sol\":598:1262  function adjustIntCol(uint256 val, uint256 col) public {... */\n      pop\n      pop\n      jump\t// out\n        /* \"PFG/Interest.sol\":379:521  function adjustIntVerify() public {... */\n    tag_18:\n        /* \"PFG/Interest.sol\":429:441  verifiedOnce */\n      0x02\n      0x01\n      swap1\n      sload\n      swap1\n      0x0100\n      exp\n      swap1\n      div\n      0xff\n      and\n        /* \"PFG/Interest.sol\":424:514  if (!verifiedOnce){... */\n      tag_51\n      jumpi\n        /* \"PFG/Interest.sol\":457:468  reduction() */\n      tag_52\n        /* \"PFG/Interest.sol\":457:466  reduction */\n      tag_21\n        /* \"PFG/Interest.sol\":457:468  reduction() */\n      jump\t// in\n    tag_52:\n        /* \"PFG/Interest.sol\":498:502  true */\n      0x01\n        /* \"PFG/Interest.sol\":483:495  verifiedOnce */\n      0x02\n      0x01\n        /* \"PFG/Interest.sol\":483:502  verifiedOnce = true */\n      0x0100\n      exp\n      dup2\n      sload\n      dup2\n      0xff\n      mul\n      not\n      and\n      swap1\n      dup4\n      iszero\n      iszero\n      mul\n      or\n      swap1\n      sstore\n      pop\n        /* \"PFG/Interest.sol\":424:514  if (!verifiedOnce){... */\n    tag_51:\n        /* \"PFG/Interest.sol\":379:521  function adjustIntVerify() public {... */\n      jump\t// out\n        /* \"PFG/Interest.sol\":1270:1338  function reduction() private {... */\n    tag_21:\n        /* \"PFG/Interest.sol\":1329:1330  8 */\n      0x08\n        /* \"PFG/Interest.sol\":1325:1326  7 */\n      0x07\n        /* \"PFG/Interest.sol\":1318:1322  rate */\n      sload(0x00)\n        /* \"PFG/Interest.sol\":1318:1326  rate * 7 */\n      tag_54\n      swap2\n      swap1\n      tag_29\n      jump\t// in\n    tag_54:\n        /* \"PFG/Interest.sol\":1317:1330  (rate * 7) /8 */\n      tag_55\n      swap2\n      swap1\n      tag_33\n      jump\t// in\n    tag_55:\n        /* \"PFG/Interest.sol\":1310:1314  rate */\n      0x00\n        /* \"PFG/Interest.sol\":1310:1330  rate = (rate * 7) /8 */\n      dup2\n      swap1\n      sstore\n      pop\n        /* \"PFG/Interest.sol\":1270:1338  function reduction() private {... */\n      jump\t// out\n        /* \"#utility.yul\":7:84   */\n    tag_56:\n        /* \"#utility.yul\":44:51   */\n      0x00\n        /* \"#utility.yul\":73:78   */\n      dup2\n        /* \"#utility.yul\":62:78   */\n      swap1\n      pop\n        /* \"#utility.yul\":7:84   */\n      swap2\n      swap1\n      pop\n      jump\t// out\n        /* \"#utility.yul\":90:208   */\n    tag_57:\n        /* \"#utility.yul\":177:201   */\n      tag_74\n        /* \"#utility.yul\":195:200   */\n      dup2\n        /* \"#utility.yul\":177:201   */\n      tag_56\n      jump\t// in\n    tag_74:\n        /* \"#utility.yul\":172:175   */\n      dup3\n        /* \"#utility.yul\":165:202   */\n      mstore\n        /* \"#utility.yul\":90:208   */\n      pop\n      pop\n      jump\t// out\n        /* \"#utility.yul\":214:436   */\n    tag_10:\n        /* \"#utility.yul\":307:311   */\n      0x00\n        /* \"#utility.yul\":345:347   */\n      0x20\n        /* \"#utility.yul\":334:343   */\n      dup3\n        /* \"#utility.yul\":330:348   */\n      add\n        /* \"#utility.yul\":322:348   */\n      swap1\n      pop\n        /* \"#utility.yul\":358:429   */\n      tag_76\n        /* \"#utility.yul\":426:427   */\n      0x00\n        /* \"#utility.yul\":415:424   */\n      dup4\n        /* \"#utility.yul\":411:428   */\n      add\n        /* \"#utility.yul\":402:408   */\n      dup5\n        /* \"#utility.yul\":358:429   */\n      tag_57\n      jump\t// in\n    tag_76:\n        /* \"#utility.yul\":214:436   */\n      swap3\n      swap2\n      pop\n      pop\n      jump\t// out\n        /* \"#utility.yul\":523:640   */\n    tag_59:\n        /* \"#utility.yul\":632:633   */\n      0x00\n        /* \"#utility.yul\":629:630   */\n      dup1\n        /* \"#utility.yul\":622:634   */\n      revert\n        /* \"#utility.yul\":769:891   */\n    tag_61:\n        /* \"#utility.yul\":842:866   */\n      tag_81\n        /* \"#utility.yul\":860:865   */\n      dup2\n        /* \"#utility.yul\":842:866   */\n      tag_56\n      jump\t// in\n    tag_81:\n        /* \"#utility.yul\":835:840   */\n      dup2\n        /* \"#utility.yul\":832:867   */\n      eq\n        /* \"#utility.yul\":822:885   */\n      tag_82\n      jumpi\n        /* \"#utility.yul\":881:882   */\n      0x00\n        /* \"#utility.yul\":878:879   */\n      dup1\n        /* \"#utility.yul\":871:883   */\n      revert\n        /* \"#utility.yul\":822:885   */\n    tag_82:\n        /* \"#utility.yul\":769:891   */\n      pop\n      jump\t// out\n        /* \"#utility.yul\":897:1036   */\n    tag_62:\n        /* \"#utility.yul\":943:948   */\n      0x00\n        /* \"#utility.yul\":981:987   */\n      dup2\n        /* \"#utility.yul\":968:988   */\n      calldataload\n        /* \"#utility.yul\":959:988   */\n      swap1\n      pop\n        /* \"#utility.yul\":997:1030   */\n      tag_84\n        /* \"#utility.yul\":1024:1029   */\n      dup2\n        /* \"#utility.yul\":997:1030   */\n      tag_61\n      jump\t// in\n    tag_84:\n        /* \"#utility.yul\":897:1036   */\n      swap3\n      swap2\n      pop\n      pop\n      jump\t// out\n        /* \"#utility.yul\":1042:1516   */\n    tag_15:\n        /* \"#utility.yul\":1110:1116   */\n      0x00\n        /* \"#utility.yul\":1118:1124   */\n      dup1\n        /* \"#utility.yul\":1167:1169   */\n      0x40\n        /* \"#utility.yul\":1155:1164   */\n      dup4\n        /* \"#utility.yul\":1146:1153   */\n      dup6\n        /* \"#utility.yul\":1142:1165   */\n      sub\n        /* \"#utility.yul\":1138:1170   */\n      slt\n        /* \"#utility.yul\":1135:1254   */\n      iszero\n      tag_86\n      jumpi\n        /* \"#utility.yul\":1173:1252   */\n      tag_87\n      tag_59\n      jump\t// in\n    tag_87:\n        /* \"#utility.yul\":1135:1254   */\n    tag_86:\n        /* \"#utility.yul\":1293:1294   */\n      0x00\n        /* \"#utility.yul\":1318:1371   */\n      tag_88\n        /* \"#utility.yul\":1363:1370   */\n      dup6\n        /* \"#utility.yul\":1354:1360   */\n      dup3\n        /* \"#utility.yul\":1343:1352   */\n      dup7\n        /* \"#utility.yul\":1339:1361   */\n      add\n        /* \"#utility.yul\":1318:1371   */\n      tag_62\n      jump\t// in\n    tag_88:\n        /* \"#utility.yul\":1308:1371   */\n      swap3\n      pop\n        /* \"#utility.yul\":1264:1381   */\n      pop\n        /* \"#utility.yul\":1420:1422   */\n      0x20\n        /* \"#utility.yul\":1446:1499   */\n      tag_89\n        /* \"#utility.yul\":1491:1498   */\n      dup6\n        /* \"#utility.yul\":1482:1488   */\n      dup3\n        /* \"#utility.yul\":1471:1480   */\n      dup7\n        /* \"#utility.yul\":1467:1489   */\n      add\n        /* \"#utility.yul\":1446:1499   */\n      tag_62\n      jump\t// in\n    tag_89:\n        /* \"#utility.yul\":1436:1499   */\n      swap2\n      pop\n        /* \"#utility.yul\":1391:1509   */\n      pop\n        /* \"#utility.yul\":1042:1516   */\n      swap3\n      pop\n      swap3\n      swap1\n      pop\n      jump\t// out\n        /* \"#utility.yul\":1522:1691   */\n    tag_63:\n        /* \"#utility.yul\":1606:1617   */\n      0x00\n        /* \"#utility.yul\":1640:1646   */\n      dup3\n        /* \"#utility.yul\":1635:1638   */\n      dup3\n        /* \"#utility.yul\":1628:1647   */\n      mstore\n        /* \"#utility.yul\":1680:1684   */\n      0x20\n        /* \"#utility.yul\":1675:1678   */\n      dup3\n        /* \"#utility.yul\":1671:1685   */\n      add\n        /* \"#utility.yul\":1656:1685   */\n      swap1\n      pop\n        /* \"#utility.yul\":1522:1691   */\n      swap3\n      swap2\n      pop\n      pop\n      jump\t// out\n        /* \"#utility.yul\":1697:1863   */\n    tag_64:\n        /* \"#utility.yul\":1837:1855   */\n      0x416c726561647920657865637574656400000000000000000000000000000000\n        /* \"#utility.yul\":1833:1834   */\n      0x00\n        /* \"#utility.yul\":1825:1831   */\n      dup3\n        /* \"#utility.yul\":1821:1835   */\n      add\n        /* \"#utility.yul\":1814:1856   */\n      mstore\n        /* \"#utility.yul\":1697:1863   */\n      pop\n      jump\t// out\n        /* \"#utility.yul\":1869:2235   */\n    tag_65:\n        /* \"#utility.yul\":2011:2014   */\n      0x00\n        /* \"#utility.yul\":2032:2099   */\n      tag_93\n        /* \"#utility.yul\":2096:2098   */\n      0x10\n        /* \"#utility.yul\":2091:2094   */\n      dup4\n        /* \"#utility.yul\":2032:2099   */\n      tag_63\n      jump\t// in\n    tag_93:\n        /* \"#utility.yul\":2025:2099   */\n      swap2\n      pop\n        /* \"#utility.yul\":2108:2201   */\n      tag_94\n        /* \"#utility.yul\":2197:2200   */\n      dup3\n        /* \"#utility.yul\":2108:2201   */\n      tag_64\n      jump\t// in\n    tag_94:\n        /* \"#utility.yul\":2226:2228   */\n      0x20\n        /* \"#utility.yul\":2221:2224   */\n      dup3\n        /* \"#utility.yul\":2217:2229   */\n      add\n        /* \"#utility.yul\":2210:2229   */\n      swap1\n      pop\n        /* \"#utility.yul\":1869:2235   */\n      swap2\n      swap1\n      pop\n      jump\t// out\n        /* \"#utility.yul\":2241:2660   */\n    tag_25:\n        /* \"#utility.yul\":2407:2411   */\n      0x00\n        /* \"#utility.yul\":2445:2447   */\n      0x20\n        /* \"#utility.yul\":2434:2443   */\n      dup3\n        /* \"#utility.yul\":2430:2448   */\n      add\n        /* \"#utility.yul\":2422:2448   */\n      swap1\n      pop\n        /* \"#utility.yul\":2494:2503   */\n      dup2\n        /* \"#utility.yul\":2488:2492   */\n      dup2\n        /* \"#utility.yul\":2484:2504   */\n      sub\n        /* \"#utility.yul\":2480:2481   */\n      0x00\n        /* \"#utility.yul\":2469:2478   */\n      dup4\n        /* \"#utility.yul\":2465:2482   */\n      add\n        /* \"#utility.yul\":2458:2505   */\n      mstore\n        /* \"#utility.yul\":2522:2653   */\n      tag_96\n        /* \"#utility.yul\":2648:2652   */\n      dup2\n        /* \"#utility.yul\":2522:2653   */\n      tag_65\n      jump\t// in\n    tag_96:\n        /* \"#utility.yul\":2514:2653   */\n      swap1\n      pop\n        /* \"#utility.yul\":2241:2660   */\n      swap2\n      swap1\n      pop\n      jump\t// out\n        /* \"#utility.yul\":2666:2846   */\n    tag_66:\n        /* \"#utility.yul\":2714:2791   */\n      0x4e487b7100000000000000000000000000000000000000000000000000000000\n        /* \"#utility.yul\":2711:2712   */\n      0x00\n        /* \"#utility.yul\":2704:2792   */\n      mstore\n        /* \"#utility.yul\":2811:2815   */\n      0x11\n        /* \"#utility.yul\":2808:2809   */\n      0x04\n        /* \"#utility.yul\":2801:2816   */\n      mstore\n        /* \"#utility.yul\":2835:2839   */\n      0x24\n        /* \"#utility.yul\":2832:2833   */\n      0x00\n        /* \"#utility.yul\":2825:2840   */\n      revert\n        /* \"#utility.yul\":2852:2954   */\n    tag_67:\n        /* \"#utility.yul\":2894:2902   */\n      0x00\n        /* \"#utility.yul\":2941:2946   */\n      dup2\n        /* \"#utility.yul\":2938:2939   */\n      0x01\n        /* \"#utility.yul\":2934:2947   */\n      shr\n        /* \"#utility.yul\":2913:2947   */\n      swap1\n      pop\n        /* \"#utility.yul\":2852:2954   */\n      swap2\n      swap1\n      pop\n      jump\t// out\n        /* \"#utility.yul\":2960:3808   */\n    tag_68:\n        /* \"#utility.yul\":3021:3026   */\n      0x00\n        /* \"#utility.yul\":3028:3032   */\n      dup1\n        /* \"#utility.yul\":3052:3058   */\n      dup3\n        /* \"#utility.yul\":3043:3058   */\n      swap2\n      pop\n        /* \"#utility.yul\":3076:3081   */\n      dup4\n        /* \"#utility.yul\":3067:3081   */\n      swap1\n      pop\n        /* \"#utility.yul\":3090:3802   */\n    tag_100:\n        /* \"#utility.yul\":3111:3112   */\n      0x01\n        /* \"#utility.yul\":3101:3109   */\n      dup6\n        /* \"#utility.yul\":3098:3113   */\n      gt\n        /* \"#utility.yul\":3090:3802   */\n      iszero\n      tag_102\n      jumpi\n        /* \"#utility.yul\":3206:3210   */\n      dup1\n        /* \"#utility.yul\":3201:3204   */\n      dup7\n        /* \"#utility.yul\":3197:3211   */\n      div\n        /* \"#utility.yul\":3191:3195   */\n      dup2\n        /* \"#utility.yul\":3188:3212   */\n      gt\n        /* \"#utility.yul\":3185:3235   */\n      iszero\n      tag_103\n      jumpi\n        /* \"#utility.yul\":3215:3233   */\n      tag_104\n      tag_66\n      jump\t// in\n    tag_104:\n        /* \"#utility.yul\":3185:3235   */\n    tag_103:\n        /* \"#utility.yul\":3265:3266   */\n      0x01\n        /* \"#utility.yul\":3255:3263   */\n      dup6\n        /* \"#utility.yul\":3251:3267   */\n      and\n        /* \"#utility.yul\":3248:3699   */\n      iszero\n      tag_105\n      jumpi\n        /* \"#utility.yul\":3680:3684   */\n      dup1\n        /* \"#utility.yul\":3673:3678   */\n      dup3\n        /* \"#utility.yul\":3669:3685   */\n      mul\n        /* \"#utility.yul\":3660:3685   */\n      swap2\n      pop\n        /* \"#utility.yul\":3248:3699   */\n    tag_105:\n        /* \"#utility.yul\":3730:3734   */\n      dup1\n        /* \"#utility.yul\":3724:3728   */\n      dup2\n        /* \"#utility.yul\":3720:3735   */\n      mul\n        /* \"#utility.yul\":3712:3735   */\n      swap1\n      pop\n        /* \"#utility.yul\":3760:3792   */\n      tag_106\n        /* \"#utility.yul\":3783:3791   */\n      dup6\n        /* \"#utility.yul\":3760:3792   */\n      tag_67\n      jump\t// in\n    tag_106:\n        /* \"#utility.yul\":3748:3792   */\n      swap5\n      pop\n        /* \"#utility.yul\":3090:3802   */\n      jump(tag_100)\n    tag_102:\n        /* \"#utility.yul\":2960:3808   */\n      swap5\n      pop\n      swap5\n      swap3\n      pop\n      pop\n      pop\n      jump\t// out\n        /* \"#utility.yul\":3814:4887   */\n    tag_69:\n        /* \"#utility.yul\":3868:3873   */\n      0x00\n        /* \"#utility.yul\":4059:4067   */\n      dup3\n        /* \"#utility.yul\":4049:4089   */\n      tag_108\n      jumpi\n        /* \"#utility.yul\":4080:4081   */\n      0x01\n        /* \"#utility.yul\":4071:4081   */\n      swap1\n      pop\n        /* \"#utility.yul\":4082:4087   */\n      jump(tag_107)\n        /* \"#utility.yul\":4049:4089   */\n    tag_108:\n        /* \"#utility.yul\":4108:4112   */\n      dup2\n        /* \"#utility.yul\":4098:4134   */\n      tag_109\n      jumpi\n        /* \"#utility.yul\":4125:4126   */\n      0x00\n        /* \"#utility.yul\":4116:4126   */\n      swap1\n      pop\n        /* \"#utility.yul\":4127:4132   */\n      jump(tag_107)\n        /* \"#utility.yul\":4098:4134   */\n    tag_109:\n        /* \"#utility.yul\":4194:4198   */\n      dup2\n        /* \"#utility.yul\":4242:4243   */\n      0x01\n        /* \"#utility.yul\":4237:4264   */\n      dup2\n      eq\n      tag_111\n      jumpi\n        /* \"#utility.yul\":4278:4279   */\n      0x02\n        /* \"#utility.yul\":4273:4464   */\n      dup2\n      eq\n      tag_112\n      jumpi\n        /* \"#utility.yul\":4187:4464   */\n      jump(tag_110)\n        /* \"#utility.yul\":4237:4264   */\n    tag_111:\n        /* \"#utility.yul\":4255:4256   */\n      0x01\n        /* \"#utility.yul\":4246:4256   */\n      swap2\n      pop\n        /* \"#utility.yul\":4257:4262   */\n      pop\n      jump(tag_107)\n        /* \"#utility.yul\":4273:4464   */\n    tag_112:\n        /* \"#utility.yul\":4318:4321   */\n      0xff\n        /* \"#utility.yul\":4308:4316   */\n      dup5\n        /* \"#utility.yul\":4305:4322   */\n      gt\n        /* \"#utility.yul\":4302:4345   */\n      iszero\n      tag_113\n      jumpi\n        /* \"#utility.yul\":4325:4343   */\n      tag_114\n      tag_66\n      jump\t// in\n    tag_114:\n        /* \"#utility.yul\":4302:4345   */\n    tag_113:\n        /* \"#utility.yul\":4374:4382   */\n      dup4\n        /* \"#utility.yul\":4371:4372   */\n      0x02\n        /* \"#utility.yul\":4367:4383   */\n      exp\n        /* \"#utility.yul\":4358:4383   */\n      swap2\n      pop\n        /* \"#utility.yul\":4409:4412   */\n      dup5\n        /* \"#utility.yul\":4402:4407   */\n      dup3\n        /* \"#utility.yul\":4399:4413   */\n      gt\n        /* \"#utility.yul\":4396:4436   */\n      iszero\n      tag_115\n      jumpi\n        /* \"#utility.yul\":4416:4434   */\n      tag_116\n      tag_66\n      jump\t// in\n    tag_116:\n        /* \"#utility.yul\":4396:4436   */\n    tag_115:\n        /* \"#utility.yul\":4449:4454   */\n      pop\n      jump(tag_107)\n        /* \"#utility.yul\":4187:4464   */\n    tag_110:\n      pop\n        /* \"#utility.yul\":4573:4575   */\n      0x20\n        /* \"#utility.yul\":4563:4571   */\n      dup4\n        /* \"#utility.yul\":4560:4576   */\n      lt\n        /* \"#utility.yul\":4554:4557   */\n      0x0133\n        /* \"#utility.yul\":4548:4552   */\n      dup4\n        /* \"#utility.yul\":4545:4558   */\n      lt\n        /* \"#utility.yul\":4541:4577   */\n      and\n        /* \"#utility.yul\":4523:4525   */\n      0x4e\n        /* \"#utility.yul\":4513:4521   */\n      dup5\n        /* \"#utility.yul\":4510:4526   */\n      lt\n        /* \"#utility.yul\":4505:4507   */\n      0x0b\n        /* \"#utility.yul\":4499:4503   */\n      dup5\n        /* \"#utility.yul\":4496:4508   */\n      lt\n        /* \"#utility.yul\":4492:4527   */\n      and\n        /* \"#utility.yul\":4476:4587   */\n      or\n        /* \"#utility.yul\":4473:4719   */\n      iszero\n      tag_117\n      jumpi\n        /* \"#utility.yul\":4629:4637   */\n      dup3\n        /* \"#utility.yul\":4623:4627   */\n      dup3\n        /* \"#utility.yul\":4619:4638   */\n      exp\n        /* \"#utility.yul\":4610:4638   */\n      swap1\n      pop\n        /* \"#utility.yul\":4664:4667   */\n      dup4\n        /* \"#utility.yul\":4657:4662   */\n      dup2\n        /* \"#utility.yul\":4654:4668   */\n      gt\n        /* \"#utility.yul\":4651:4691   */\n      iszero\n      tag_118\n      jumpi\n        /* \"#utility.yul\":4671:4689   */\n      tag_119\n      tag_66\n      jump\t// in\n    tag_119:\n        /* \"#utility.yul\":4651:4691   */\n    tag_118:\n        /* \"#utility.yul\":4704:4709   */\n      jump(tag_107)\n        /* \"#utility.yul\":4473:4719   */\n    tag_117:\n        /* \"#utility.yul\":4744:4786   */\n      tag_120\n        /* \"#utility.yul\":4782:4785   */\n      dup5\n        /* \"#utility.yul\":4772:4780   */\n      dup5\n        /* \"#utility.yul\":4766:4770   */\n      dup5\n        /* \"#utility.yul\":4763:4764   */\n      0x01\n        /* \"#utility.yul\":4744:4786   */\n      tag_68\n      jump\t// in\n    tag_120:\n        /* \"#utility.yul\":4729:4786   */\n      swap3\n      pop\n      swap1\n      pop\n        /* \"#utility.yul\":4818:4822   */\n      dup2\n        /* \"#utility.yul\":4813:4816   */\n      dup5\n        /* \"#utility.yul\":4809:4823   */\n      div\n        /* \"#utility.yul\":4802:4807   */\n      dup2\n        /* \"#utility.yul\":4799:4824   */\n      gt\n        /* \"#utility.yul\":4796:4847   */\n      iszero\n      tag_121\n      jumpi\n        /* \"#utility.yul\":4827:4845   */\n      tag_122\n      tag_66\n      jump\t// in\n    tag_122:\n        /* \"#utility.yul\":4796:4847   */\n    tag_121:\n        /* \"#utility.yul\":4876:4880   */\n      dup2\n        /* \"#utility.yul\":4869:4874   */\n      dup2\n        /* \"#utility.yul\":4865:4881   */\n      mul\n        /* \"#utility.yul\":4856:4881   */\n      swap1\n      pop\n        /* \"#utility.yul\":3814:4887   */\n    tag_107:\n      swap4\n      swap3\n      pop\n      pop\n      pop\n      jump\t// out\n        /* \"#utility.yul\":4893:5178   */\n    tag_27:\n        /* \"#utility.yul\":4953:4958   */\n      0x00\n        /* \"#utility.yul\":4977:5000   */\n      tag_124\n        /* \"#utility.yul\":4995:4999   */\n      dup3\n        /* \"#utility.yul\":4977:5000   */\n      tag_56\n      jump\t// in\n    tag_124:\n        /* \"#utility.yul\":4969:5000   */\n      swap2\n      pop\n        /* \"#utility.yul\":5021:5048   */\n      tag_125\n        /* \"#utility.yul\":5039:5047   */\n      dup4\n        /* \"#utility.yul\":5021:5048   */\n      tag_56\n      jump\t// in\n    tag_125:\n        /* \"#utility.yul\":5009:5048   */\n      swap3\n      pop\n        /* \"#utility.yul\":5067:5171   */\n      tag_126\n        /* \"#utility.yul\":5104:5170   */\n      0xffffffffffffffffffffffffffffffffffffffffffffffffffffffffffffffff\n        /* \"#utility.yul\":5094:5102   */\n      dup5\n        /* \"#utility.yul\":5088:5092   */\n      dup5\n        /* \"#utility.yul\":5067:5171   */\n      tag_69\n      jump\t// in\n    tag_126:\n        /* \"#utility.yul\":5058:5171   */\n      swap1\n      pop\n        /* \"#utility.yul\":4893:5178   */\n      swap3\n      swap2\n      pop\n      pop\n      jump\t// out\n        /* \"#utility.yul\":5184:5532   */\n    tag_29:\n        /* \"#utility.yul\":5224:5231   */\n      0x00\n        /* \"#utility.yul\":5247:5267   */\n      tag_128\n        /* \"#utility.yul\":5265:5266   */\n      dup3\n        /* \"#utility.yul\":5247:5267   */\n      tag_56\n      jump\t// in\n    tag_128:\n        /* \"#utility.yul\":5242:5267   */\n      swap2\n      pop\n        /* \"#utility.yul\":5281:5301   */\n      tag_129\n        /* \"#utility.yul\":5299:5300   */\n      dup4\n        /* \"#utility.yul\":5281:5301   */\n      tag_56\n      jump\t// in\n    tag_129:\n        /* \"#utility.yul\":5276:5301   */\n      swap3\n      pop\n        /* \"#utility.yul\":5469:5470   */\n      dup2\n        /* \"#utility.yul\":5401:5467   */\n      0xffffffffffffffffffffffffffffffffffffffffffffffffffffffffffffffff\n        /* \"#utility.yul\":5397:5471   */\n      div\n        /* \"#utility.yul\":5394:5395   */\n      dup4\n        /* \"#utility.yul\":5391:5472   */\n      gt\n        /* \"#utility.yul\":5386:5387   */\n      dup3\n        /* \"#utility.yul\":5379:5388   */\n      iszero\n        /* \"#utility.yul\":5372:5389   */\n      iszero\n        /* \"#utility.yul\":5368:5473   */\n      and\n        /* \"#utility.yul\":5365:5496   */\n      iszero\n      tag_130\n      jumpi\n        /* \"#utility.yul\":5476:5494   */\n      tag_131\n      tag_66\n      jump\t// in\n    tag_131:\n        /* \"#utility.yul\":5365:5496   */\n    tag_130:\n        /* \"#utility.yul\":5524:5525   */\n      dup3\n        /* \"#utility.yul\":5521:5522   */\n      dup3\n        /* \"#utility.yul\":5517:5526   */\n      mul\n        /* \"#utility.yul\":5506:5526   */\n      swap1\n      pop\n        /* \"#utility.yul\":5184:5532   */\n      swap3\n      swap2\n      pop\n      pop\n      jump\t// out\n        /* \"#utility.yul\":5538:5718   */\n    tag_70:\n        /* \"#utility.yul\":5586:5663   */\n      0x4e487b7100000000000000000000000000000000000000000000000000000000\n        /* \"#utility.yul\":5583:5584   */\n      0x00\n        /* \"#utility.yul\":5576:5664   */\n      mstore\n        /* \"#utility.yul\":5683:5687   */\n      0x12\n        /* \"#utility.yul\":5680:5681   */\n      0x04\n        /* \"#utility.yul\":5673:5688   */\n      mstore\n        /* \"#utility.yul\":5707:5711   */\n      0x24\n        /* \"#utility.yul\":5704:5705   */\n      0x00\n        /* \"#utility.yul\":5697:5712   */\n      revert\n        /* \"#utility.yul\":5724:5909   */\n    tag_33:\n        /* \"#utility.yul\":5764:5765   */\n      0x00\n        /* \"#utility.yul\":5781:5801   */\n      tag_134\n        /* \"#utility.yul\":5799:5800   */\n      dup3\n        /* \"#utility.yul\":5781:5801   */\n      tag_56\n      jump\t// in\n    tag_134:\n        /* \"#utility.yul\":5776:5801   */\n      swap2\n      pop\n        /* \"#utility.yul\":5815:5835   */\n      tag_135\n        /* \"#utility.yul\":5833:5834   */\n      dup4\n        /* \"#utility.yul\":5815:5835   */\n      tag_56\n      jump\t// in\n    tag_135:\n        /* \"#utility.yul\":5810:5835   */\n      swap3\n      pop\n        /* \"#utility.yul\":5854:5855   */\n      dup3\n        /* \"#utility.yul\":5844:5879   */\n      tag_136\n      jumpi\n        /* \"#utility.yul\":5859:5877   */\n      tag_137\n      tag_70\n      jump\t// in\n    tag_137:\n        /* \"#utility.yul\":5844:5879   */\n    tag_136:\n        /* \"#utility.yul\":5901:5902   */\n      dup3\n        /* \"#utility.yul\":5898:5899   */\n      dup3\n        /* \"#utility.yul\":5894:5903   */\n      div\n        /* \"#utility.yul\":5889:5903   */\n      swap1\n      pop\n        /* \"#utility.yul\":5724:5909   */\n      swap3\n      swap2\n      pop\n      pop\n      jump\t// out\n        /* \"#utility.yul\":5915:6106   */\n    tag_36:\n        /* \"#utility.yul\":5955:5959   */\n      0x00\n        /* \"#utility.yul\":5975:5995   */\n      tag_139\n        /* \"#utility.yul\":5993:5994   */\n      dup3\n        /* \"#utility.yul\":5975:5995   */\n      tag_56\n      jump\t// in\n    tag_139:\n        /* \"#utility.yul\":5970:5995   */\n      swap2\n      pop\n        /* \"#utility.yul\":6009:6029   */\n      tag_140\n        /* \"#utility.yul\":6027:6028   */\n      dup4\n        /* \"#utility.yul\":6009:6029   */\n      tag_56\n      jump\t// in\n    tag_140:\n        /* \"#utility.yul\":6004:6029   */\n      swap3\n      pop\n        /* \"#utility.yul\":6048:6049   */\n      dup3\n        /* \"#utility.yul\":6045:6046   */\n      dup3\n        /* \"#utility.yul\":6042:6050   */\n      lt\n        /* \"#utility.yul\":6039:6073   */\n      iszero\n      tag_141\n      jumpi\n        /* \"#utility.yul\":6053:6071   */\n      tag_142\n      tag_66\n      jump\t// in\n    tag_142:\n        /* \"#utility.yul\":6039:6073   */\n    tag_141:\n        /* \"#utility.yul\":6098:6099   */\n      dup3\n        /* \"#utility.yul\":6095:6096   */\n      dup3\n        /* \"#utility.yul\":6091:6100   */\n      sub\n        /* \"#utility.yul\":6083:6100   */\n      swap1\n      pop\n        /* \"#utility.yul\":5915:6106   */\n      swap3\n      swap2\n      pop\n      pop\n      jump\t// out\n        /* \"#utility.yul\":6112:6417   */\n    tag_38:\n        /* \"#utility.yul\":6152:6155   */\n      0x00\n        /* \"#utility.yul\":6171:6191   */\n      tag_144\n        /* \"#utility.yul\":6189:6190   */\n      dup3\n        /* \"#utility.yul\":6171:6191   */\n      tag_56\n      jump\t// in\n    tag_144:\n        /* \"#utility.yul\":6166:6191   */\n      swap2\n      pop\n        /* \"#utility.yul\":6205:6225   */\n      tag_145\n        /* \"#utility.yul\":6223:6224   */\n      dup4\n        /* \"#utility.yul\":6205:6225   */\n      tag_56\n      jump\t// in\n    tag_145:\n        /* \"#utility.yul\":6200:6225   */\n      swap3\n      pop\n        /* \"#utility.yul\":6359:6360   */\n      dup3\n        /* \"#utility.yul\":6291:6357   */\n      0xffffffffffffffffffffffffffffffffffffffffffffffffffffffffffffffff\n        /* \"#utility.yul\":6287:6361   */\n      sub\n        /* \"#utility.yul\":6284:6285   */\n      dup3\n        /* \"#utility.yul\":6281:6362   */\n      gt\n        /* \"#utility.yul\":6278:6385   */\n      iszero\n      tag_146\n      jumpi\n        /* \"#utility.yul\":6365:6383   */\n      tag_147\n      tag_66\n      jump\t// in\n    tag_147:\n        /* \"#utility.yul\":6278:6385   */\n    tag_146:\n        /* \"#utility.yul\":6409:6410   */\n      dup3\n        /* \"#utility.yul\":6406:6407   */\n      dup3\n        /* \"#utility.yul\":6402:6411   */\n      add\n        /* \"#utility.yul\":6395:6411   */\n      swap1\n      pop\n        /* \"#utility.yul\":6112:6417   */\n      swap3\n      swap2\n      pop\n      pop\n      jump\t// out\n\n    auxdata: 0xa264697066735822122039ed89126f8529035bd551b7a2c838f3aaa3e947c32d1f4dda3ea269e18bdd5764736f6c634300080f0033\n}\n",
				"bytecode": {
					"linkReferences": {},
					"object": "60806040523480156200001157600080fd5b5060405162000a4438038062000a448339818101604052810190620000379190620000e0565b6012600181905550600154600a62000050919062000295565b816200005d9190620002e6565b6000819055506000600260006101000a81548160ff0219169083151502179055506000600260016101000a81548160ff0219169083151502179055505062000347565b600080fd5b6000819050919050565b620000ba81620000a5565b8114620000c657600080fd5b50565b600081519050620000da81620000af565b92915050565b600060208284031215620000f957620000f8620000a0565b5b60006200010984828501620000c9565b91505092915050565b7f4e487b7100000000000000000000000000000000000000000000000000000000600052601160045260246000fd5b60008160011c9050919050565b6000808291508390505b6001851115620001a05780860481111562000178576200017762000112565b5b6001851615620001885780820291505b8081029050620001988562000141565b945062000158565b94509492505050565b600082620001bb57600190506200028e565b81620001cb57600090506200028e565b8160018114620001e45760028114620001ef5762000225565b60019150506200028e565b60ff84111562000204576200020362000112565b5b8360020a9150848211156200021e576200021d62000112565b5b506200028e565b5060208310610133831016604e8410600b84101617156200025f5782820a90508381111562000259576200025862000112565b5b6200028e565b6200026e84848460016200014e565b9250905081840481111562000288576200028762000112565b5b81810290505b9392505050565b6000620002a282620000a5565b9150620002af83620000a5565b9250620002de7fffffffffffffffffffffffffffffffffffffffffffffffffffffffffffffffff8484620001a9565b905092915050565b6000620002f382620000a5565b91506200030083620000a5565b9250817fffffffffffffffffffffffffffffffffffffffffffffffffffffffffffffffff04831182151516156200033c576200033b62000112565b5b828202905092915050565b6106ed80620003576000396000f3fe608060405234801561001057600080fd5b506004361061004c5760003560e01c80632c4e722e1461005157806384c6e2c81461006f5780639f8af9dd14610079578063effc1fe014610095575b600080fd5b61005961009f565b60405161006691906102bd565b60405180910390f35b6100776100a5565b005b610093600480360381019061008e9190610309565b6100af565b005b61009d610247565b005b60005481565b6100ad610281565b565b600260009054906101000a900460ff16156100ff576040517f08c379a00000000000000000000000000000000000000000000000000000000081526004016100f6906103a6565b60405180910390fd5b6000600154600a6101109190610528565b8361011b9190610573565b90506000600154600a61012e9190610528565b836101399190610573565b90506000838361014991906105fc565b90506000671158e460913d0000905081811161018757808261016b919061062d565b60008082825461017b9190610661565b92505081905550610224565b60006064876101969190610573565b607d6000546101a59190610573565b6101af91906105fc565b9050600060646050876101c29190610573565b6101cc91906105fc565b9050600081866101dc919061062d565b90506000600154600a6101ef9190610528565b82856101fb9190610573565b61020591906105fc565b905080600080828254610218919061062d565b92505081905550505050505b6001600260006101000a81548160ff021916908315150217905550505050505050565b600260019054906101000a900460ff1661027f57610263610281565b6001600260016101000a81548160ff0219169083151502179055505b565b600860076000546102929190610573565b61029c91906105fc565b600081905550565b6000819050919050565b6102b7816102a4565b82525050565b60006020820190506102d260008301846102ae565b92915050565b600080fd5b6102e6816102a4565b81146102f157600080fd5b50565b600081359050610303816102dd565b92915050565b600080604083850312156103205761031f6102d8565b5b600061032e858286016102f4565b925050602061033f858286016102f4565b9150509250929050565b600082825260208201905092915050565b7f416c726561647920657865637574656400000000000000000000000000000000600082015250565b6000610390601083610349565b915061039b8261035a565b602082019050919050565b600060208201905081810360008301526103bf81610383565b9050919050565b7f4e487b7100000000000000000000000000000000000000000000000000000000600052601160045260246000fd5b60008160011c9050919050565b6000808291508390505b600185111561044c57808604811115610428576104276103c6565b5b60018516156104375780820291505b8081029050610445856103f5565b945061040c565b94509492505050565b6000826104655760019050610521565b816104735760009050610521565b81600181146104895760028114610493576104c2565b6001915050610521565b60ff8411156104a5576104a46103c6565b5b8360020a9150848211156104bc576104bb6103c6565b5b50610521565b5060208310610133831016604e8410600b84101617156104f75782820a9050838111156104f2576104f16103c6565b5b610521565b6105048484846001610402565b9250905081840481111561051b5761051a6103c6565b5b81810290505b9392505050565b6000610533826102a4565b915061053e836102a4565b925061056b7fffffffffffffffffffffffffffffffffffffffffffffffffffffffffffffffff8484610455565b905092915050565b600061057e826102a4565b9150610589836102a4565b9250817fffffffffffffffffffffffffffffffffffffffffffffffffffffffffffffffff04831182151516156105c2576105c16103c6565b5b828202905092915050565b7f4e487b7100000000000000000000000000000000000000000000000000000000600052601260045260246000fd5b6000610607826102a4565b9150610612836102a4565b925082610622576106216105cd565b5b828204905092915050565b6000610638826102a4565b9150610643836102a4565b925082821015610656576106556103c6565b5b828203905092915050565b600061066c826102a4565b9150610677836102a4565b9250827fffffffffffffffffffffffffffffffffffffffffffffffffffffffffffffffff038211156106ac576106ab6103c6565b5b82820190509291505056fea264697066735822122039ed89126f8529035bd551b7a2c838f3aaa3e947c32d1f4dda3ea269e18bdd5764736f6c634300080f0033",
					"opcodes": "PUSH1 0x80 PUSH1 0x40 MSTORE CALLVALUE DUP1 ISZERO PUSH3 0x11 JUMPI PUSH1 0x0 DUP1 REVERT JUMPDEST POP PUSH1 0x40 MLOAD PUSH3 0xA44 CODESIZE SUB DUP1 PUSH3 0xA44 DUP4 CODECOPY DUP2 DUP2 ADD PUSH1 0x40 MSTORE DUP2 ADD SWAP1 PUSH3 0x37 SWAP2 SWAP1 PUSH3 0xE0 JUMP JUMPDEST PUSH1 0x12 PUSH1 0x1 DUP2 SWAP1 SSTORE POP PUSH1 0x1 SLOAD PUSH1 0xA PUSH3 0x50 SWAP2 SWAP1 PUSH3 0x295 JUMP JUMPDEST DUP2 PUSH3 0x5D SWAP2 SWAP1 PUSH3 0x2E6 JUMP JUMPDEST PUSH1 0x0 DUP2 SWAP1 SSTORE POP PUSH1 0x0 PUSH1 0x2 PUSH1 0x0 PUSH2 0x100 EXP DUP2 SLOAD DUP2 PUSH1 0xFF MUL NOT AND SWAP1 DUP4 ISZERO ISZERO MUL OR SWAP1 SSTORE POP PUSH1 0x0 PUSH1 0x2 PUSH1 0x1 PUSH2 0x100 EXP DUP2 SLOAD DUP2 PUSH1 0xFF MUL NOT AND SWAP1 DUP4 ISZERO ISZERO MUL OR SWAP1 SSTORE POP POP PUSH3 0x347 JUMP JUMPDEST PUSH1 0x0 DUP1 REVERT JUMPDEST PUSH1 0x0 DUP2 SWAP1 POP SWAP2 SWAP1 POP JUMP JUMPDEST PUSH3 0xBA DUP2 PUSH3 0xA5 JUMP JUMPDEST DUP2 EQ PUSH3 0xC6 JUMPI PUSH1 0x0 DUP1 REVERT JUMPDEST POP JUMP JUMPDEST PUSH1 0x0 DUP2 MLOAD SWAP1 POP PUSH3 0xDA DUP2 PUSH3 0xAF JUMP JUMPDEST SWAP3 SWAP2 POP POP JUMP JUMPDEST PUSH1 0x0 PUSH1 0x20 DUP3 DUP5 SUB SLT ISZERO PUSH3 0xF9 JUMPI PUSH3 0xF8 PUSH3 0xA0 JUMP JUMPDEST JUMPDEST PUSH1 0x0 PUSH3 0x109 DUP5 DUP3 DUP6 ADD PUSH3 0xC9 JUMP JUMPDEST SWAP2 POP POP SWAP3 SWAP2 POP POP JUMP JUMPDEST PUSH32 0x4E487B7100000000000000000000000000000000000000000000000000000000 PUSH1 0x0 MSTORE PUSH1 0x11 PUSH1 0x4 MSTORE PUSH1 0x24 PUSH1 0x0 REVERT JUMPDEST PUSH1 0x0 DUP2 PUSH1 0x1 SHR SWAP1 POP SWAP2 SWAP1 POP JUMP JUMPDEST PUSH1 0x0 DUP1 DUP3 SWAP2 POP DUP4 SWAP1 POP JUMPDEST PUSH1 0x1 DUP6 GT ISZERO PUSH3 0x1A0 JUMPI DUP1 DUP7 DIV DUP2 GT ISZERO PUSH3 0x178 JUMPI PUSH3 0x177 PUSH3 0x112 JUMP JUMPDEST JUMPDEST PUSH1 0x1 DUP6 AND ISZERO PUSH3 0x188 JUMPI DUP1 DUP3 MUL SWAP2 POP JUMPDEST DUP1 DUP2 MUL SWAP1 POP PUSH3 0x198 DUP6 PUSH3 0x141 JUMP JUMPDEST SWAP5 POP PUSH3 0x158 JUMP JUMPDEST SWAP5 POP SWAP5 SWAP3 POP POP POP JUMP JUMPDEST PUSH1 0x0 DUP3 PUSH3 0x1BB JUMPI PUSH1 0x1 SWAP1 POP PUSH3 0x28E JUMP JUMPDEST DUP2 PUSH3 0x1CB JUMPI PUSH1 0x0 SWAP1 POP PUSH3 0x28E JUMP JUMPDEST DUP2 PUSH1 0x1 DUP2 EQ PUSH3 0x1E4 JUMPI PUSH1 0x2 DUP2 EQ PUSH3 0x1EF JUMPI PUSH3 0x225 JUMP JUMPDEST PUSH1 0x1 SWAP2 POP POP PUSH3 0x28E JUMP JUMPDEST PUSH1 0xFF DUP5 GT ISZERO PUSH3 0x204 JUMPI PUSH3 0x203 PUSH3 0x112 JUMP JUMPDEST JUMPDEST DUP4 PUSH1 0x2 EXP SWAP2 POP DUP5 DUP3 GT ISZERO PUSH3 0x21E JUMPI PUSH3 0x21D PUSH3 0x112 JUMP JUMPDEST JUMPDEST POP PUSH3 0x28E JUMP JUMPDEST POP PUSH1 0x20 DUP4 LT PUSH2 0x133 DUP4 LT AND PUSH1 0x4E DUP5 LT PUSH1 0xB DUP5 LT AND OR ISZERO PUSH3 0x25F JUMPI DUP3 DUP3 EXP SWAP1 POP DUP4 DUP2 GT ISZERO PUSH3 0x259 JUMPI PUSH3 0x258 PUSH3 0x112 JUMP JUMPDEST JUMPDEST PUSH3 0x28E JUMP JUMPDEST PUSH3 0x26E DUP5 DUP5 DUP5 PUSH1 0x1 PUSH3 0x14E JUMP JUMPDEST SWAP3 POP SWAP1 POP DUP2 DUP5 DIV DUP2 GT ISZERO PUSH3 0x288 JUMPI PUSH3 0x287 PUSH3 0x112 JUMP JUMPDEST JUMPDEST DUP2 DUP2 MUL SWAP1 POP JUMPDEST SWAP4 SWAP3 POP POP POP JUMP JUMPDEST PUSH1 0x0 PUSH3 0x2A2 DUP3 PUSH3 0xA5 JUMP JUMPDEST SWAP2 POP PUSH3 0x2AF DUP4 PUSH3 0xA5 JUMP JUMPDEST SWAP3 POP PUSH3 0x2DE PUSH32 0xFFFFFFFFFFFFFFFFFFFFFFFFFFFFFFFFFFFFFFFFFFFFFFFFFFFFFFFFFFFFFFFF DUP5 DUP5 PUSH3 0x1A9 JUMP JUMPDEST SWAP1 POP SWAP3 SWAP2 POP POP JUMP JUMPDEST PUSH1 0x0 PUSH3 0x2F3 DUP3 PUSH3 0xA5 JUMP JUMPDEST SWAP2 POP PUSH3 0x300 DUP4 PUSH3 0xA5 JUMP JUMPDEST SWAP3 POP DUP2 PUSH32 0xFFFFFFFFFFFFFFFFFFFFFFFFFFFFFFFFFFFFFFFFFFFFFFFFFFFFFFFFFFFFFFFF DIV DUP4 GT DUP3 ISZERO ISZERO AND ISZERO PUSH3 0x33C JUMPI PUSH3 0x33B PUSH3 0x112 JUMP JUMPDEST JUMPDEST DUP3 DUP3 MUL SWAP1 POP SWAP3 SWAP2 POP POP JUMP JUMPDEST PUSH2 0x6ED DUP1 PUSH3 0x357 PUSH1 0x0 CODECOPY PUSH1 0x0 RETURN INVALID PUSH1 0x80 PUSH1 0x40 MSTORE CALLVALUE DUP1 ISZERO PUSH2 0x10 JUMPI PUSH1 0x0 DUP1 REVERT JUMPDEST POP PUSH1 0x4 CALLDATASIZE LT PUSH2 0x4C JUMPI PUSH1 0x0 CALLDATALOAD PUSH1 0xE0 SHR DUP1 PUSH4 0x2C4E722E EQ PUSH2 0x51 JUMPI DUP1 PUSH4 0x84C6E2C8 EQ PUSH2 0x6F JUMPI DUP1 PUSH4 0x9F8AF9DD EQ PUSH2 0x79 JUMPI DUP1 PUSH4 0xEFFC1FE0 EQ PUSH2 0x95 JUMPI JUMPDEST PUSH1 0x0 DUP1 REVERT JUMPDEST PUSH2 0x59 PUSH2 0x9F JUMP JUMPDEST PUSH1 0x40 MLOAD PUSH2 0x66 SWAP2 SWAP1 PUSH2 0x2BD JUMP JUMPDEST PUSH1 0x40 MLOAD DUP1 SWAP2 SUB SWAP1 RETURN JUMPDEST PUSH2 0x77 PUSH2 0xA5 JUMP JUMPDEST STOP JUMPDEST PUSH2 0x93 PUSH1 0x4 DUP1 CALLDATASIZE SUB DUP2 ADD SWAP1 PUSH2 0x8E SWAP2 SWAP1 PUSH2 0x309 JUMP JUMPDEST PUSH2 0xAF JUMP JUMPDEST STOP JUMPDEST PUSH2 0x9D PUSH2 0x247 JUMP JUMPDEST STOP JUMPDEST PUSH1 0x0 SLOAD DUP2 JUMP JUMPDEST PUSH2 0xAD PUSH2 0x281 JUMP JUMPDEST JUMP JUMPDEST PUSH1 0x2 PUSH1 0x0 SWAP1 SLOAD SWAP1 PUSH2 0x100 EXP SWAP1 DIV PUSH1 0xFF AND ISZERO PUSH2 0xFF JUMPI PUSH1 0x40 MLOAD PUSH32 0x8C379A000000000000000000000000000000000000000000000000000000000 DUP2 MSTORE PUSH1 0x4 ADD PUSH2 0xF6 SWAP1 PUSH2 0x3A6 JUMP JUMPDEST PUSH1 0x40 MLOAD DUP1 SWAP2 SUB SWAP1 REVERT JUMPDEST PUSH1 0x0 PUSH1 0x1 SLOAD PUSH1 0xA PUSH2 0x110 SWAP2 SWAP1 PUSH2 0x528 JUMP JUMPDEST DUP4 PUSH2 0x11B SWAP2 SWAP1 PUSH2 0x573 JUMP JUMPDEST SWAP1 POP PUSH1 0x0 PUSH1 0x1 SLOAD PUSH1 0xA PUSH2 0x12E SWAP2 SWAP1 PUSH2 0x528 JUMP JUMPDEST DUP4 PUSH2 0x139 SWAP2 SWAP1 PUSH2 0x573 JUMP JUMPDEST SWAP1 POP PUSH1 0x0 DUP4 DUP4 PUSH2 0x149 SWAP2 SWAP1 PUSH2 0x5FC JUMP JUMPDEST SWAP1 POP PUSH1 0x0 PUSH8 0x1158E460913D0000 SWAP1 POP DUP2 DUP2 GT PUSH2 0x187 JUMPI DUP1 DUP3 PUSH2 0x16B SWAP2 SWAP1 PUSH2 0x62D JUMP JUMPDEST PUSH1 0x0 DUP1 DUP3 DUP3 SLOAD PUSH2 0x17B SWAP2 SWAP1 PUSH2 0x661 JUMP JUMPDEST SWAP3 POP POP DUP2 SWAP1 SSTORE POP PUSH2 0x224 JUMP JUMPDEST PUSH1 0x0 PUSH1 0x64 DUP8 PUSH2 0x196 SWAP2 SWAP1 PUSH2 0x573 JUMP JUMPDEST PUSH1 0x7D PUSH1 0x0 SLOAD PUSH2 0x1A5 SWAP2 SWAP1 PUSH2 0x573 JUMP JUMPDEST PUSH2 0x1AF SWAP2 SWAP1 PUSH2 0x5FC JUMP JUMPDEST SWAP1 POP PUSH1 0x0 PUSH1 0x64 PUSH1 0x50 DUP8 PUSH2 0x1C2 SWAP2 SWAP1 PUSH2 0x573 JUMP JUMPDEST PUSH2 0x1CC SWAP2 SWAP1 PUSH2 0x5FC JUMP JUMPDEST SWAP1 POP PUSH1 0x0 DUP2 DUP7 PUSH2 0x1DC SWAP2 SWAP1 PUSH2 0x62D JUMP JUMPDEST SWAP1 POP PUSH1 0x0 PUSH1 0x1 SLOAD PUSH1 0xA PUSH2 0x1EF SWAP2 SWAP1 PUSH2 0x528 JUMP JUMPDEST DUP3 DUP6 PUSH2 0x1FB SWAP2 SWAP1 PUSH2 0x573 JUMP JUMPDEST PUSH2 0x205 SWAP2 SWAP1 PUSH2 0x5FC JUMP JUMPDEST SWAP1 POP DUP1 PUSH1 0x0 DUP1 DUP3 DUP3 SLOAD PUSH2 0x218 SWAP2 SWAP1 PUSH2 0x62D JUMP JUMPDEST SWAP3 POP POP DUP2 SWAP1 SSTORE POP POP POP POP POP JUMPDEST PUSH1 0x1 PUSH1 0x2 PUSH1 0x0 PUSH2 0x100 EXP DUP2 SLOAD DUP2 PUSH1 0xFF MUL NOT AND SWAP1 DUP4 ISZERO ISZERO MUL OR SWAP1 SSTORE POP POP POP POP POP POP POP JUMP JUMPDEST PUSH1 0x2 PUSH1 0x1 SWAP1 SLOAD SWAP1 PUSH2 0x100 EXP SWAP1 DIV PUSH1 0xFF AND PUSH2 0x27F JUMPI PUSH2 0x263 PUSH2 0x281 JUMP JUMPDEST PUSH1 0x1 PUSH1 0x2 PUSH1 0x1 PUSH2 0x100 EXP DUP2 SLOAD DUP2 PUSH1 0xFF MUL NOT AND SWAP1 DUP4 ISZERO ISZERO MUL OR SWAP1 SSTORE POP JUMPDEST JUMP JUMPDEST PUSH1 0x8 PUSH1 0x7 PUSH1 0x0 SLOAD PUSH2 0x292 SWAP2 SWAP1 PUSH2 0x573 JUMP JUMPDEST PUSH2 0x29C SWAP2 SWAP1 PUSH2 0x5FC JUMP JUMPDEST PUSH1 0x0 DUP2 SWAP1 SSTORE POP JUMP JUMPDEST PUSH1 0x0 DUP2 SWAP1 POP SWAP2 SWAP1 POP JUMP JUMPDEST PUSH2 0x2B7 DUP2 PUSH2 0x2A4 JUMP JUMPDEST DUP3 MSTORE POP POP JUMP JUMPDEST PUSH1 0x0 PUSH1 0x20 DUP3 ADD SWAP1 POP PUSH2 0x2D2 PUSH1 0x0 DUP4 ADD DUP5 PUSH2 0x2AE JUMP JUMPDEST SWAP3 SWAP2 POP POP JUMP JUMPDEST PUSH1 0x0 DUP1 REVERT JUMPDEST PUSH2 0x2E6 DUP2 PUSH2 0x2A4 JUMP JUMPDEST DUP2 EQ PUSH2 0x2F1 JUMPI PUSH1 0x0 DUP1 REVERT JUMPDEST POP JUMP JUMPDEST PUSH1 0x0 DUP2 CALLDATALOAD SWAP1 POP PUSH2 0x303 DUP2 PUSH2 0x2DD JUMP JUMPDEST SWAP3 SWAP2 POP POP JUMP JUMPDEST PUSH1 0x0 DUP1 PUSH1 0x40 DUP4 DUP6 SUB SLT ISZERO PUSH2 0x320 JUMPI PUSH2 0x31F PUSH2 0x2D8 JUMP JUMPDEST JUMPDEST PUSH1 0x0 PUSH2 0x32E DUP6 DUP3 DUP7 ADD PUSH2 0x2F4 JUMP JUMPDEST SWAP3 POP POP PUSH1 0x20 PUSH2 0x33F DUP6 DUP3 DUP7 ADD PUSH2 0x2F4 JUMP JUMPDEST SWAP2 POP POP SWAP3 POP SWAP3 SWAP1 POP JUMP JUMPDEST PUSH1 0x0 DUP3 DUP3 MSTORE PUSH1 0x20 DUP3 ADD SWAP1 POP SWAP3 SWAP2 POP POP JUMP JUMPDEST PUSH32 0x416C726561647920657865637574656400000000000000000000000000000000 PUSH1 0x0 DUP3 ADD MSTORE POP JUMP JUMPDEST PUSH1 0x0 PUSH2 0x390 PUSH1 0x10 DUP4 PUSH2 0x349 JUMP JUMPDEST SWAP2 POP PUSH2 0x39B DUP3 PUSH2 0x35A JUMP JUMPDEST PUSH1 0x20 DUP3 ADD SWAP1 POP SWAP2 SWAP1 POP JUMP JUMPDEST PUSH1 0x0 PUSH1 0x20 DUP3 ADD SWAP1 POP DUP2 DUP2 SUB PUSH1 0x0 DUP4 ADD MSTORE PUSH2 0x3BF DUP2 PUSH2 0x383 JUMP JUMPDEST SWAP1 POP SWAP2 SWAP1 POP JUMP JUMPDEST PUSH32 0x4E487B7100000000000000000000000000000000000000000000000000000000 PUSH1 0x0 MSTORE PUSH1 0x11 PUSH1 0x4 MSTORE PUSH1 0x24 PUSH1 0x0 REVERT JUMPDEST PUSH1 0x0 DUP2 PUSH1 0x1 SHR SWAP1 POP SWAP2 SWAP1 POP JUMP JUMPDEST PUSH1 0x0 DUP1 DUP3 SWAP2 POP DUP4 SWAP1 POP JUMPDEST PUSH1 0x1 DUP6 GT ISZERO PUSH2 0x44C JUMPI DUP1 DUP7 DIV DUP2 GT ISZERO PUSH2 0x428 JUMPI PUSH2 0x427 PUSH2 0x3C6 JUMP JUMPDEST JUMPDEST PUSH1 0x1 DUP6 AND ISZERO PUSH2 0x437 JUMPI DUP1 DUP3 MUL SWAP2 POP JUMPDEST DUP1 DUP2 MUL SWAP1 POP PUSH2 0x445 DUP6 PUSH2 0x3F5 JUMP JUMPDEST SWAP5 POP PUSH2 0x40C JUMP JUMPDEST SWAP5 POP SWAP5 SWAP3 POP POP POP JUMP JUMPDEST PUSH1 0x0 DUP3 PUSH2 0x465 JUMPI PUSH1 0x1 SWAP1 POP PUSH2 0x521 JUMP JUMPDEST DUP2 PUSH2 0x473 JUMPI PUSH1 0x0 SWAP1 POP PUSH2 0x521 JUMP JUMPDEST DUP2 PUSH1 0x1 DUP2 EQ PUSH2 0x489 JUMPI PUSH1 0x2 DUP2 EQ PUSH2 0x493 JUMPI PUSH2 0x4C2 JUMP JUMPDEST PUSH1 0x1 SWAP2 POP POP PUSH2 0x521 JUMP JUMPDEST PUSH1 0xFF DUP5 GT ISZERO PUSH2 0x4A5 JUMPI PUSH2 0x4A4 PUSH2 0x3C6 JUMP JUMPDEST JUMPDEST DUP4 PUSH1 0x2 EXP SWAP2 POP DUP5 DUP3 GT ISZERO PUSH2 0x4BC JUMPI PUSH2 0x4BB PUSH2 0x3C6 JUMP JUMPDEST JUMPDEST POP PUSH2 0x521 JUMP JUMPDEST POP PUSH1 0x20 DUP4 LT PUSH2 0x133 DUP4 LT AND PUSH1 0x4E DUP5 LT PUSH1 0xB DUP5 LT AND OR ISZERO PUSH2 0x4F7 JUMPI DUP3 DUP3 EXP SWAP1 POP DUP4 DUP2 GT ISZERO PUSH2 0x4F2 JUMPI PUSH2 0x4F1 PUSH2 0x3C6 JUMP JUMPDEST JUMPDEST PUSH2 0x521 JUMP JUMPDEST PUSH2 0x504 DUP5 DUP5 DUP5 PUSH1 0x1 PUSH2 0x402 JUMP JUMPDEST SWAP3 POP SWAP1 POP DUP2 DUP5 DIV DUP2 GT ISZERO PUSH2 0x51B JUMPI PUSH2 0x51A PUSH2 0x3C6 JUMP JUMPDEST JUMPDEST DUP2 DUP2 MUL SWAP1 POP JUMPDEST SWAP4 SWAP3 POP POP POP JUMP JUMPDEST PUSH1 0x0 PUSH2 0x533 DUP3 PUSH2 0x2A4 JUMP JUMPDEST SWAP2 POP PUSH2 0x53E DUP4 PUSH2 0x2A4 JUMP JUMPDEST SWAP3 POP PUSH2 0x56B PUSH32 0xFFFFFFFFFFFFFFFFFFFFFFFFFFFFFFFFFFFFFFFFFFFFFFFFFFFFFFFFFFFFFFFF DUP5 DUP5 PUSH2 0x455 JUMP JUMPDEST SWAP1 POP SWAP3 SWAP2 POP POP JUMP JUMPDEST PUSH1 0x0 PUSH2 0x57E DUP3 PUSH2 0x2A4 JUMP JUMPDEST SWAP2 POP PUSH2 0x589 DUP4 PUSH2 0x2A4 JUMP JUMPDEST SWAP3 POP DUP2 PUSH32 0xFFFFFFFFFFFFFFFFFFFFFFFFFFFFFFFFFFFFFFFFFFFFFFFFFFFFFFFFFFFFFFFF DIV DUP4 GT DUP3 ISZERO ISZERO AND ISZERO PUSH2 0x5C2 JUMPI PUSH2 0x5C1 PUSH2 0x3C6 JUMP JUMPDEST JUMPDEST DUP3 DUP3 MUL SWAP1 POP SWAP3 SWAP2 POP POP JUMP JUMPDEST PUSH32 0x4E487B7100000000000000000000000000000000000000000000000000000000 PUSH1 0x0 MSTORE PUSH1 0x12 PUSH1 0x4 MSTORE PUSH1 0x24 PUSH1 0x0 REVERT JUMPDEST PUSH1 0x0 PUSH2 0x607 DUP3 PUSH2 0x2A4 JUMP JUMPDEST SWAP2 POP PUSH2 0x612 DUP4 PUSH2 0x2A4 JUMP JUMPDEST SWAP3 POP DUP3 PUSH2 0x622 JUMPI PUSH2 0x621 PUSH2 0x5CD JUMP JUMPDEST JUMPDEST DUP3 DUP3 DIV SWAP1 POP SWAP3 SWAP2 POP POP JUMP JUMPDEST PUSH1 0x0 PUSH2 0x638 DUP3 PUSH2 0x2A4 JUMP JUMPDEST SWAP2 POP PUSH2 0x643 DUP4 PUSH2 0x2A4 JUMP JUMPDEST SWAP3 POP DUP3 DUP3 LT ISZERO PUSH2 0x656 JUMPI PUSH2 0x655 PUSH2 0x3C6 JUMP JUMPDEST JUMPDEST DUP3 DUP3 SUB SWAP1 POP SWAP3 SWAP2 POP POP JUMP JUMPDEST PUSH1 0x0 PUSH2 0x66C DUP3 PUSH2 0x2A4 JUMP JUMPDEST SWAP2 POP PUSH2 0x677 DUP4 PUSH2 0x2A4 JUMP JUMPDEST SWAP3 POP DUP3 PUSH32 0xFFFFFFFFFFFFFFFFFFFFFFFFFFFFFFFFFFFFFFFFFFFFFFFFFFFFFFFFFFFFFFFF SUB DUP3 GT ISZERO PUSH2 0x6AC JUMPI PUSH2 0x6AB PUSH2 0x3C6 JUMP JUMPDEST JUMPDEST DUP3 DUP3 ADD SWAP1 POP SWAP3 SWAP2 POP POP JUMP INVALID LOG2 PUSH5 0x6970667358 0x22 SLT KECCAK256 CODECOPY 0xED DUP10 SLT PUSH16 0x8529035BD551B7A2C838F3AAA3E947C3 0x2D 0x1F 0x4D 0xDA RETURNDATACOPY LOG2 PUSH10 0xE18BDD5764736F6C6343 STOP ADDMOD 0xF STOP CALLER "
				},
				"gasEstimates": {
					"creation": {
						"codeDepositCost": "354600",
						"executionCost": "infinite",
						"totalCost": "infinite"
					},
					"external": {
						"adjustIntCol(uint256,uint256)": "infinite",
						"adjustIntDoc()": "infinite",
						"adjustIntVerify()": "infinite",
						"rate()": "2407"
					},
					"internal": {
						"reduction()": "infinite"
					}
				},
				"methodIdentifiers": {
					"adjustIntCol(uint256,uint256)": "9f8af9dd",
					"adjustIntDoc()": "84c6e2c8",
					"adjustIntVerify()": "effc1fe0",
					"rate()": "2c4e722e"
				}
			},
			"storageLayout": {
				"storage": [
					{
						"astId": 3,
						"contract": "PFG/Interest.sol:Interest",
						"label": "rate",
						"offset": 0,
						"slot": "0",
						"type": "t_uint256"
					},
					{
						"astId": 5,
						"contract": "PFG/Interest.sol:Interest",
						"label": "dec",
						"offset": 0,
						"slot": "1",
						"type": "t_uint256"
					},
					{
						"astId": 7,
						"contract": "PFG/Interest.sol:Interest",
						"label": "collateralOnce",
						"offset": 0,
						"slot": "2",
						"type": "t_bool"
					},
					{
						"astId": 9,
						"contract": "PFG/Interest.sol:Interest",
						"label": "verifiedOnce",
						"offset": 1,
						"slot": "2",
						"type": "t_bool"
					}
				],
				"types": {
					"t_bool": {
						"encoding": "inplace",
						"label": "bool",
						"numberOfBytes": "1"
					},
					"t_uint256": {
						"encoding": "inplace",
						"label": "uint256",
						"numberOfBytes": "32"
					}
				}
			},
			"userdoc": {
				"kind": "user",
				"methods": {},
				"version": 1
			}
		}
	}
}