{
	"PFG/AMM.sol": {
		"DEX": {
			"abi": [
				{
					"anonymous": false,
					"inputs": [
						{
							"indexed": false,
							"internalType": "uint256",
							"name": "_value",
							"type": "uint256"
						}
					],
					"name": "Deposit",
					"type": "event"
				},
				{
					"anonymous": false,
					"inputs": [
						{
							"indexed": false,
							"internalType": "uint256",
							"name": "_value",
							"type": "uint256"
						}
					],
					"name": "ETHSwapped",
					"type": "event"
				},
				{
					"anonymous": false,
					"inputs": [
						{
							"indexed": false,
							"internalType": "uint256",
							"name": "_value",
							"type": "uint256"
						}
					],
					"name": "Initialize",
					"type": "event"
				},
				{
					"anonymous": false,
					"inputs": [
						{
							"indexed": false,
							"internalType": "uint256",
							"name": "_value",
							"type": "uint256"
						}
					],
					"name": "TokensSwapped",
					"type": "event"
				},
				{
					"anonymous": false,
					"inputs": [
						{
							"indexed": false,
							"internalType": "uint256",
							"name": "_valueETH",
							"type": "uint256"
						},
						{
							"indexed": false,
							"internalType": "uint256",
							"name": "_valueToken",
							"type": "uint256"
						}
					],
					"name": "Withdraw",
					"type": "event"
				},
				{
					"inputs": [],
					"name": "deposit",
					"outputs": [],
					"stateMutability": "payable",
					"type": "function"
				},
				{
					"inputs": [
						{
							"internalType": "uint256",
							"name": "token_amount",
							"type": "uint256"
						}
					],
					"name": "ercToEth",
					"outputs": [],
					"stateMutability": "nonpayable",
					"type": "function"
				},
				{
					"inputs": [],
					"name": "ethToErc",
					"outputs": [],
					"stateMutability": "payable",
					"type": "function"
				},
				{
					"inputs": [],
					"name": "eth_received",
					"outputs": [
						{
							"internalType": "uint256",
							"name": "",
							"type": "uint256"
						}
					],
					"stateMutability": "view",
					"type": "function"
				},
				{
					"inputs": [],
					"name": "fee",
					"outputs": [
						{
							"internalType": "uint256",
							"name": "",
							"type": "uint256"
						}
					],
					"stateMutability": "view",
					"type": "function"
				},
				{
					"inputs": [],
					"name": "getBalance",
					"outputs": [
						{
							"internalType": "uint256",
							"name": "",
							"type": "uint256"
						}
					],
					"stateMutability": "view",
					"type": "function"
				},
				{
					"inputs": [],
					"name": "getTokenBalance",
					"outputs": [
						{
							"internalType": "uint256",
							"name": "",
							"type": "uint256"
						}
					],
					"stateMutability": "view",
					"type": "function"
				},
				{
					"inputs": [],
					"name": "getmMyFee",
					"outputs": [
						{
							"internalType": "uint256",
							"name": "",
							"type": "uint256"
						}
					],
					"stateMutability": "view",
					"type": "function"
				},
				{
					"inputs": [
						{
							"internalType": "address",
							"name": "token_address",
							"type": "address"
						},
						{
							"internalType": "uint256",
							"name": "token_amount",
							"type": "uint256"
						}
					],
					"name": "initialize",
					"outputs": [],
					"stateMutability": "payable",
					"type": "function"
				},
				{
					"inputs": [],
					"name": "liq_added",
					"outputs": [
						{
							"internalType": "uint256",
							"name": "",
							"type": "uint256"
						}
					],
					"stateMutability": "view",
					"type": "function"
				},
				{
					"inputs": [
						{
							"internalType": "address",
							"name": "",
							"type": "address"
						}
					],
					"name": "liquidity",
					"outputs": [
						{
							"internalType": "uint256",
							"name": "",
							"type": "uint256"
						}
					],
					"stateMutability": "view",
					"type": "function"
				},
				{
					"inputs": [
						{
							"internalType": "uint256",
							"name": "eth",
							"type": "uint256"
						}
					],
					"name": "liquidityAdded",
					"outputs": [
						{
							"internalType": "uint256",
							"name": "",
							"type": "uint256"
						},
						{
							"internalType": "uint256",
							"name": "",
							"type": "uint256"
						}
					],
					"stateMutability": "view",
					"type": "function"
				},
				{
					"inputs": [
						{
							"internalType": "uint256",
							"name": "value",
							"type": "uint256"
						}
					],
					"name": "liquiditySubstracted",
					"outputs": [
						{
							"internalType": "uint256",
							"name": "",
							"type": "uint256"
						},
						{
							"internalType": "uint256",
							"name": "",
							"type": "uint256"
						}
					],
					"stateMutability": "view",
					"type": "function"
				},
				{
					"inputs": [
						{
							"internalType": "uint256",
							"name": "eth",
							"type": "uint256"
						}
					],
					"name": "priceERC",
					"outputs": [
						{
							"internalType": "uint256",
							"name": "",
							"type": "uint256"
						}
					],
					"stateMutability": "view",
					"type": "function"
				},
				{
					"inputs": [
						{
							"internalType": "uint256",
							"name": "erc",
							"type": "uint256"
						}
					],
					"name": "priceETH",
					"outputs": [
						{
							"internalType": "uint256",
							"name": "",
							"type": "uint256"
						}
					],
					"stateMutability": "view",
					"type": "function"
				},
				{
					"inputs": [],
					"name": "tokens_received",
					"outputs": [
						{
							"internalType": "uint256",
							"name": "",
							"type": "uint256"
						}
					],
					"stateMutability": "view",
					"type": "function"
				},
				{
					"inputs": [],
					"name": "total_liquidity",
					"outputs": [
						{
							"internalType": "uint256",
							"name": "",
							"type": "uint256"
						}
					],
					"stateMutability": "view",
					"type": "function"
				},
				{
					"inputs": [
						{
							"internalType": "uint256",
							"name": "value",
							"type": "uint256"
						},
						{
							"internalType": "address",
							"name": "who",
							"type": "address"
						}
					],
					"name": "withdraw",
					"outputs": [],
					"stateMutability": "nonpayable",
					"type": "function"
				}
			],
			"devdoc": {
				"kind": "dev",
				"methods": {},
				"version": 1
			},
			"evm": {
				"assembly": "    /* \"PFG/AMM.sol\":133:5497  contract DEX {... */\n  mstore(0x40, 0x80)\n  callvalue\n  dup1\n  iszero\n  tag_1\n  jumpi\n  0x00\n  dup1\n  revert\ntag_1:\n  pop\n  dataSize(sub_0)\n  dup1\n  dataOffset(sub_0)\n  0x00\n  codecopy\n  0x00\n  return\nstop\n\nsub_0: assembly {\n        /* \"PFG/AMM.sol\":133:5497  contract DEX {... */\n      mstore(0x40, 0x80)\n      jumpi(tag_1, lt(calldatasize, 0x04))\n      shr(0xe0, calldataload(0x00))\n      dup1\n      0x74942c0f\n      gt\n      tag_20\n      jumpi\n      dup1\n      0xb8c876b1\n      gt\n      tag_21\n      jumpi\n      dup1\n      0xb8c876b1\n      eq\n      tag_15\n      jumpi\n      dup1\n      0xcd6dc687\n      eq\n      tag_16\n      jumpi\n      dup1\n      0xd0e30db0\n      eq\n      tag_17\n      jumpi\n      dup1\n      0xddca3f43\n      eq\n      tag_18\n      jumpi\n      dup1\n      0xdebc674c\n      eq\n      tag_19\n      jumpi\n      jump(tag_1)\n    tag_21:\n      dup1\n      0x74942c0f\n      eq\n      tag_11\n      jumpi\n      dup1\n      0x7937c03d\n      eq\n      tag_12\n      jumpi\n      dup1\n      0x82b2e257\n      eq\n      tag_13\n      jumpi\n      dup1\n      0x8666107c\n      eq\n      tag_14\n      jumpi\n      jump(tag_1)\n    tag_20:\n      dup1\n      0x38a880ec\n      gt\n      tag_22\n      jumpi\n      dup1\n      0x38a880ec\n      eq\n      tag_6\n      jumpi\n      dup1\n      0x5f244d4e\n      eq\n      tag_7\n      jumpi\n      dup1\n      0x67da263d\n      eq\n      tag_8\n      jumpi\n      dup1\n      0x707e7e87\n      eq\n      tag_9\n      jumpi\n      dup1\n      0x72a9d124\n      eq\n      tag_10\n      jumpi\n      jump(tag_1)\n    tag_22:\n      dup1\n      0xf714ce\n      eq\n      tag_2\n      jumpi\n      dup1\n      0x12065fe0\n      eq\n      tag_3\n      jumpi\n      dup1\n      0x1eb928aa\n      eq\n      tag_4\n      jumpi\n      dup1\n      0x31f3bd28\n      eq\n      tag_5\n      jumpi\n    tag_1:\n      0x00\n      dup1\n      revert\n        /* \"PFG/AMM.sol\":3991:4688  function withdraw(uint256 value, address who) external {... */\n    tag_2:\n      callvalue\n      dup1\n      iszero\n      tag_23\n      jumpi\n      0x00\n      dup1\n      revert\n    tag_23:\n      pop\n      tag_24\n      0x04\n      dup1\n      calldatasize\n      sub\n      dup2\n      add\n      swap1\n      tag_25\n      swap2\n      swap1\n      tag_26\n      jump\t// in\n    tag_25:\n      tag_27\n      jump\t// in\n    tag_24:\n      stop\n        /* \"PFG/AMM.sol\":5211:5324  function getBalance() external view returns (uint256) {... */\n    tag_3:\n      callvalue\n      dup1\n      iszero\n      tag_28\n      jumpi\n      0x00\n      dup1\n      revert\n    tag_28:\n      pop\n      tag_29\n      tag_30\n      jump\t// in\n    tag_29:\n      mload(0x40)\n      tag_31\n      swap2\n      swap1\n      tag_32\n      jump\t// in\n    tag_31:\n      mload(0x40)\n      dup1\n      swap2\n      sub\n      swap1\n      return\n        /* \"PFG/AMM.sol\":4700:5057  function liquiditySubstracted(uint256 value) external view returns (uint256, uint256){... */\n    tag_4:\n      callvalue\n      dup1\n      iszero\n      tag_33\n      jumpi\n      0x00\n      dup1\n      revert\n    tag_33:\n      pop\n      tag_34\n      0x04\n      dup1\n      calldatasize\n      sub\n      dup2\n      add\n      swap1\n      tag_35\n      swap2\n      swap1\n      tag_36\n      jump\t// in\n    tag_35:\n      tag_37\n      jump\t// in\n    tag_34:\n      mload(0x40)\n      tag_38\n      swap3\n      swap2\n      swap1\n      tag_39\n      jump\t// in\n    tag_38:\n      mload(0x40)\n      dup1\n      swap2\n      sub\n      swap1\n      return\n        /* \"PFG/AMM.sol\":187:217  uint256 public total_liquidity */\n    tag_5:\n      callvalue\n      dup1\n      iszero\n      tag_40\n      jumpi\n      0x00\n      dup1\n      revert\n    tag_40:\n      pop\n      tag_41\n      tag_42\n      jump\t// in\n    tag_41:\n      mload(0x40)\n      tag_43\n      swap2\n      swap1\n      tag_32\n      jump\t// in\n    tag_43:\n      mload(0x40)\n      dup1\n      swap2\n      sub\n      swap1\n      return\n        /* \"PFG/AMM.sol\":5336:5494  function getmMyFee() external view returns(uint256) {... */\n    tag_6:\n      callvalue\n      dup1\n      iszero\n      tag_44\n      jumpi\n      0x00\n      dup1\n      revert\n    tag_44:\n      pop\n      tag_45\n      tag_46\n      jump\t// in\n    tag_45:\n      mload(0x40)\n      tag_47\n      swap2\n      swap1\n      tag_32\n      jump\t// in\n    tag_47:\n      mload(0x40)\n      dup1\n      swap2\n      sub\n      swap1\n      return\n        /* \"PFG/AMM.sol\":3622:3977  function liquidityAdded(uint256 eth) external view returns (uint256, uint256){... */\n    tag_7:\n      callvalue\n      dup1\n      iszero\n      tag_48\n      jumpi\n      0x00\n      dup1\n      revert\n    tag_48:\n      pop\n      tag_49\n      0x04\n      dup1\n      calldatasize\n      sub\n      dup2\n      add\n      swap1\n      tag_50\n      swap2\n      swap1\n      tag_36\n      jump\t// in\n    tag_50:\n      tag_51\n      jump\t// in\n    tag_49:\n      mload(0x40)\n      tag_52\n      swap3\n      swap2\n      swap1\n      tag_39\n      jump\t// in\n    tag_52:\n      mload(0x40)\n      dup1\n      swap2\n      sub\n      swap1\n      return\n        /* \"PFG/AMM.sol\":1837:2013  function priceETH(uint256 erc) external view returns(uint256){... */\n    tag_8:\n      callvalue\n      dup1\n      iszero\n      tag_53\n      jumpi\n      0x00\n      dup1\n      revert\n    tag_53:\n      pop\n      tag_54\n      0x04\n      dup1\n      calldatasize\n      sub\n      dup2\n      add\n      swap1\n      tag_55\n      swap2\n      swap1\n      tag_36\n      jump\t// in\n    tag_55:\n      tag_56\n      jump\t// in\n    tag_54:\n      mload(0x40)\n      tag_57\n      swap2\n      swap1\n      tag_32\n      jump\t// in\n    tag_57:\n      mload(0x40)\n      dup1\n      swap2\n      sub\n      swap1\n      return\n        /* \"PFG/AMM.sol\":866:890  uint256 public liq_added */\n    tag_9:\n      callvalue\n      dup1\n      iszero\n      tag_58\n      jumpi\n      0x00\n      dup1\n      revert\n    tag_58:\n      pop\n      tag_59\n      tag_60\n      jump\t// in\n    tag_59:\n      mload(0x40)\n      tag_61\n      swap2\n      swap1\n      tag_32\n      jump\t// in\n    tag_61:\n      mload(0x40)\n      dup1\n      swap2\n      sub\n      swap1\n      return\n        /* \"PFG/AMM.sol\":1641:1825  function priceERC(uint256 eth) external view returns(uint256){... */\n    tag_10:\n      callvalue\n      dup1\n      iszero\n      tag_62\n      jumpi\n      0x00\n      dup1\n      revert\n    tag_62:\n      pop\n      tag_63\n      0x04\n      dup1\n      calldatasize\n      sub\n      dup2\n      add\n      swap1\n      tag_64\n      swap2\n      swap1\n      tag_36\n      jump\t// in\n    tag_64:\n      tag_65\n      jump\t// in\n    tag_63:\n      mload(0x40)\n      tag_66\n      swap2\n      swap1\n      tag_32\n      jump\t// in\n    tag_66:\n      mload(0x40)\n      dup1\n      swap2\n      sub\n      swap1\n      return\n        /* \"PFG/AMM.sol\":787:817  uint256 public tokens_received */\n    tag_11:\n      callvalue\n      dup1\n      iszero\n      tag_67\n      jumpi\n      0x00\n      dup1\n      revert\n    tag_67:\n      pop\n      tag_68\n      tag_69\n      jump\t// in\n    tag_68:\n      mload(0x40)\n      tag_70\n      swap2\n      swap1\n      tag_32\n      jump\t// in\n    tag_70:\n      mload(0x40)\n      dup1\n      swap2\n      sub\n      swap1\n      return\n        /* \"PFG/AMM.sol\":2025:2439  function ethToErc() external payable {... */\n    tag_12:\n      tag_71\n      tag_72\n      jump\t// in\n    tag_71:\n      stop\n        /* \"PFG/AMM.sol\":5069:5199  function getTokenBalance() external view returns (uint256) {... */\n    tag_13:\n      callvalue\n      dup1\n      iszero\n      tag_73\n      jumpi\n      0x00\n      dup1\n      revert\n    tag_73:\n      pop\n      tag_74\n      tag_75\n      jump\t// in\n    tag_74:\n      mload(0x40)\n      tag_76\n      swap2\n      swap1\n      tag_32\n      jump\t// in\n    tag_76:\n      mload(0x40)\n      dup1\n      swap2\n      sub\n      swap1\n      return\n        /* \"PFG/AMM.sol\":828:855  uint256 public eth_received */\n    tag_14:\n      callvalue\n      dup1\n      iszero\n      tag_77\n      jumpi\n      0x00\n      dup1\n      revert\n    tag_77:\n      pop\n      tag_78\n      tag_79\n      jump\t// in\n    tag_78:\n      mload(0x40)\n      tag_80\n      swap2\n      swap1\n      tag_32\n      jump\t// in\n    tag_80:\n      mload(0x40)\n      dup1\n      swap2\n      sub\n      swap1\n      return\n        /* \"PFG/AMM.sol\":456:501  mapping (address => uint256) public liquidity */\n    tag_15:\n      callvalue\n      dup1\n      iszero\n      tag_81\n      jumpi\n      0x00\n      dup1\n      revert\n    tag_81:\n      pop\n      tag_82\n      0x04\n      dup1\n      calldatasize\n      sub\n      dup2\n      add\n      swap1\n      tag_83\n      swap2\n      swap1\n      tag_84\n      jump\t// in\n    tag_83:\n      tag_85\n      jump\t// in\n    tag_82:\n      mload(0x40)\n      tag_86\n      swap2\n      swap1\n      tag_32\n      jump\t// in\n    tag_86:\n      mload(0x40)\n      dup1\n      swap2\n      sub\n      swap1\n      return\n        /* \"PFG/AMM.sol\":903:1403  function initialize(address token_address, uint256 token_amount) external payable {... */\n    tag_16:\n      tag_87\n      0x04\n      dup1\n      calldatasize\n      sub\n      dup2\n      add\n      swap1\n      tag_88\n      swap2\n      swap1\n      tag_89\n      jump\t// in\n    tag_88:\n      tag_90\n      jump\t// in\n    tag_87:\n      stop\n        /* \"PFG/AMM.sol\":3021:3610  function deposit() external payable {... */\n    tag_17:\n      tag_91\n      tag_92\n      jump\t// in\n    tag_91:\n      stop\n        /* \"PFG/AMM.sol\":294:312  uint256 public fee */\n    tag_18:\n      callvalue\n      dup1\n      iszero\n      tag_93\n      jumpi\n      0x00\n      dup1\n      revert\n    tag_93:\n      pop\n      tag_94\n      tag_95\n      jump\t// in\n    tag_94:\n      mload(0x40)\n      tag_96\n      swap2\n      swap1\n      tag_32\n      jump\t// in\n    tag_96:\n      mload(0x40)\n      dup1\n      swap2\n      sub\n      swap1\n      return\n        /* \"PFG/AMM.sol\":2453:3009  function ercToEth(uint256 token_amount) external {... */\n    tag_19:\n      callvalue\n      dup1\n      iszero\n      tag_97\n      jumpi\n      0x00\n      dup1\n      revert\n    tag_97:\n      pop\n      tag_98\n      0x04\n      dup1\n      calldatasize\n      sub\n      dup2\n      add\n      swap1\n      tag_99\n      swap2\n      swap1\n      tag_36\n      jump\t// in\n    tag_99:\n      tag_100\n      jump\t// in\n    tag_98:\n      stop\n        /* \"PFG/AMM.sol\":3991:4688  function withdraw(uint256 value, address who) external {... */\n    tag_27:\n        /* \"PFG/AMM.sol\":4065:4082  uint256 eth_value */\n      0x00\n        /* \"PFG/AMM.sol\":4119:4134  total_liquidity */\n      sload(0x01)\n        /* \"PFG/AMM.sol\":4094:4115  address(this).balance */\n      selfbalance\n        /* \"PFG/AMM.sol\":4086:4091  value */\n      dup5\n        /* \"PFG/AMM.sol\":4086:4115  value * address(this).balance */\n      tag_102\n      swap2\n      swap1\n      tag_103\n      jump\t// in\n    tag_102:\n        /* \"PFG/AMM.sol\":4085:4134  (value * address(this).balance) / total_liquidity */\n      tag_104\n      swap2\n      swap1\n      tag_105\n      jump\t// in\n    tag_104:\n        /* \"PFG/AMM.sol\":4065:4134  uint256 eth_value = (value * address(this).balance) / total_liquidity */\n      swap1\n      pop\n        /* \"PFG/AMM.sol\":4153:4172  uint256 token_value */\n      0x00\n        /* \"PFG/AMM.sol\":4221:4236  total_liquidity */\n      sload(0x01)\n        /* \"PFG/AMM.sol\":4184:4192  tokenERC */\n      0x00\n      dup1\n      sload\n      swap1\n      0x0100\n      exp\n      swap1\n      div\n      0xffffffffffffffffffffffffffffffffffffffff\n      and\n        /* \"PFG/AMM.sol\":4184:4202  tokenERC.balanceOf */\n      0xffffffffffffffffffffffffffffffffffffffff\n      and\n      0x70a08231\n        /* \"PFG/AMM.sol\":4211:4215  this */\n      address\n        /* \"PFG/AMM.sol\":4184:4217  tokenERC.balanceOf(address(this)) */\n      mload(0x40)\n      dup3\n      0xffffffff\n      and\n      0xe0\n      shl\n      dup2\n      mstore\n      0x04\n      add\n      tag_106\n      swap2\n      swap1\n      tag_107\n      jump\t// in\n    tag_106:\n      0x20\n      mload(0x40)\n      dup1\n      dup4\n      sub\n      dup2\n      dup7\n      gas\n      staticcall\n      iszero\n      dup1\n      iszero\n      tag_109\n      jumpi\n      returndatasize\n      0x00\n      dup1\n      returndatacopy\n      revert(0x00, returndatasize)\n    tag_109:\n      pop\n      pop\n      pop\n      pop\n      mload(0x40)\n      returndatasize\n      not(0x1f)\n      0x1f\n      dup3\n      add\n      and\n      dup3\n      add\n      dup1\n      0x40\n      mstore\n      pop\n      dup2\n      add\n      swap1\n      tag_110\n      swap2\n      swap1\n      tag_111\n      jump\t// in\n    tag_110:\n        /* \"PFG/AMM.sol\":4176:4181  value */\n      dup6\n        /* \"PFG/AMM.sol\":4176:4217  value * tokenERC.balanceOf(address(this)) */\n      tag_112\n      swap2\n      swap1\n      tag_103\n      jump\t// in\n    tag_112:\n        /* \"PFG/AMM.sol\":4175:4236  (value * tokenERC.balanceOf(address(this))) / total_liquidity */\n      tag_113\n      swap2\n      swap1\n      tag_105\n      jump\t// in\n    tag_113:\n        /* \"PFG/AMM.sol\":4153:4236  uint256 token_value = (value * tokenERC.balanceOf(address(this))) / total_liquidity */\n      swap1\n      pop\n        /* \"PFG/AMM.sol\":4324:4333  eth_value */\n      dup2\n        /* \"PFG/AMM.sol\":4305:4320  total_liquidity */\n      0x01\n      0x00\n        /* \"PFG/AMM.sol\":4305:4333  total_liquidity -= eth_value */\n      dup3\n      dup3\n      sload\n      tag_114\n      swap2\n      swap1\n      tag_115\n      jump\t// in\n    tag_114:\n      swap3\n      pop\n      pop\n      dup2\n      swap1\n      sstore\n      pop\n        /* \"PFG/AMM.sol\":4355:4367  bool success */\n      0x00\n        /* \"PFG/AMM.sol\":4373:4376  who */\n      dup4\n        /* \"PFG/AMM.sol\":4373:4381  who.call */\n      0xffffffffffffffffffffffffffffffffffffffff\n      and\n        /* \"PFG/AMM.sol\":4389:4398  eth_value */\n      dup4\n        /* \"PFG/AMM.sol\":4373:4403  who.call{value: eth_value}(\"\") */\n      mload(0x40)\n      tag_116\n      swap1\n      tag_117\n      jump\t// in\n    tag_116:\n      0x00\n      mload(0x40)\n      dup1\n      dup4\n      sub\n      dup2\n      dup6\n      dup8\n      gas\n      call\n      swap3\n      pop\n      pop\n      pop\n      returndatasize\n      dup1\n      0x00\n      dup2\n      eq\n      tag_120\n      jumpi\n      mload(0x40)\n      swap2\n      pop\n      and(add(returndatasize, 0x3f), not(0x1f))\n      dup3\n      add\n      0x40\n      mstore\n      returndatasize\n      dup3\n      mstore\n      returndatasize\n      0x00\n      0x20\n      dup5\n      add\n      returndatacopy\n      jump(tag_119)\n    tag_120:\n      0x60\n      swap2\n      pop\n    tag_119:\n      pop\n        /* \"PFG/AMM.sol\":4354:4403  (bool success, ) = who.call{value: eth_value}(\"\") */\n      pop\n      swap1\n      pop\n        /* \"PFG/AMM.sol\":4430:4437  success */\n      dup1\n        /* \"PFG/AMM.sol\":4422:4458  require(success, \"Transfer failed.\") */\n      tag_121\n      jumpi\n      mload(0x40)\n      0x08c379a000000000000000000000000000000000000000000000000000000000\n      dup2\n      mstore\n      0x04\n      add\n      tag_122\n      swap1\n      tag_123\n      jump\t// in\n    tag_122:\n      mload(0x40)\n      dup1\n      swap2\n      sub\n      swap1\n      revert\n    tag_121:\n        /* \"PFG/AMM.sol\":4491:4499  tokenERC */\n      0x00\n      dup1\n      sload\n      swap1\n      0x0100\n      exp\n      swap1\n      div\n      0xffffffffffffffffffffffffffffffffffffffff\n      and\n        /* \"PFG/AMM.sol\":4491:4508  tokenERC.transfer */\n      0xffffffffffffffffffffffffffffffffffffffff\n      and\n      0xa9059cbb\n        /* \"PFG/AMM.sol\":4509:4512  who */\n      dup6\n        /* \"PFG/AMM.sol\":4514:4525  token_value */\n      dup5\n        /* \"PFG/AMM.sol\":4491:4526  tokenERC.transfer(who, token_value) */\n      mload(0x40)\n      dup4\n      0xffffffff\n      and\n      0xe0\n      shl\n      dup2\n      mstore\n      0x04\n      add\n      tag_124\n      swap3\n      swap2\n      swap1\n      tag_125\n      jump\t// in\n    tag_124:\n      0x20\n      mload(0x40)\n      dup1\n      dup4\n      sub\n      dup2\n      0x00\n      dup8\n      gas\n      call\n      iszero\n      dup1\n      iszero\n      tag_127\n      jumpi\n      returndatasize\n      0x00\n      dup1\n      returndatacopy\n      revert(0x00, returndatasize)\n    tag_127:\n      pop\n      pop\n      pop\n      pop\n      mload(0x40)\n      returndatasize\n      not(0x1f)\n      0x1f\n      dup3\n      add\n      and\n      dup3\n      add\n      dup1\n      0x40\n      mstore\n      pop\n      dup2\n      add\n      swap1\n      tag_128\n      swap2\n      swap1\n      tag_129\n      jump\t// in\n    tag_128:\n        /* \"PFG/AMM.sol\":4483:4527  require(tokenERC.transfer(who, token_value)) */\n      tag_130\n      jumpi\n      0x00\n      dup1\n      revert\n    tag_130:\n        /* \"PFG/AMM.sol\":4553:4585  Withdraw(eth_value, token_value) */\n      0x56ca301a9219608c91e7bcee90e083c19671d2cdcc96752c7af291cee5f9c8c8\n        /* \"PFG/AMM.sol\":4562:4571  eth_value */\n      dup4\n        /* \"PFG/AMM.sol\":4573:4584  token_value */\n      dup4\n        /* \"PFG/AMM.sol\":4553:4585  Withdraw(eth_value, token_value) */\n      mload(0x40)\n      tag_131\n      swap3\n      swap2\n      swap1\n      tag_39\n      jump\t// in\n    tag_131:\n      mload(0x40)\n      dup1\n      swap2\n      sub\n      swap1\n      log1\n        /* \"PFG/AMM.sol\":4619:4628  eth_value */\n      dup3\n        /* \"PFG/AMM.sol\":4604:4616  eth_received */\n      0x05\n        /* \"PFG/AMM.sol\":4604:4628  eth_received = eth_value */\n      dup2\n      swap1\n      sstore\n      pop\n        /* \"PFG/AMM.sol\":4665:4676  token_value */\n      dup2\n        /* \"PFG/AMM.sol\":4647:4662  tokens_received */\n      0x04\n        /* \"PFG/AMM.sol\":4647:4676  tokens_received = token_value */\n      dup2\n      swap1\n      sstore\n      pop\n        /* \"PFG/AMM.sol\":4046:4688  {... */\n      pop\n      pop\n      pop\n        /* \"PFG/AMM.sol\":3991:4688  function withdraw(uint256 value, address who) external {... */\n      pop\n      pop\n      jump\t// out\n        /* \"PFG/AMM.sol\":5211:5324  function getBalance() external view returns (uint256) {... */\n    tag_30:\n        /* \"PFG/AMM.sol\":5256:5263  uint256 */\n      0x00\n        /* \"PFG/AMM.sol\":5291:5312  address(this).balance */\n      selfbalance\n        /* \"PFG/AMM.sol\":5284:5312  return address(this).balance */\n      swap1\n      pop\n        /* \"PFG/AMM.sol\":5211:5324  function getBalance() external view returns (uint256) {... */\n      swap1\n      jump\t// out\n        /* \"PFG/AMM.sol\":4700:5057  function liquiditySubstracted(uint256 value) external view returns (uint256, uint256){... */\n    tag_37:\n        /* \"PFG/AMM.sol\":4768:4775  uint256 */\n      0x00\n        /* \"PFG/AMM.sol\":4777:4784  uint256 */\n      dup1\n        /* \"PFG/AMM.sol\":4804:4821  uint256 eth_value */\n      0x00\n        /* \"PFG/AMM.sol\":4858:4873  total_liquidity */\n      sload(0x01)\n        /* \"PFG/AMM.sol\":4833:4854  address(this).balance */\n      selfbalance\n        /* \"PFG/AMM.sol\":4825:4830  value */\n      dup6\n        /* \"PFG/AMM.sol\":4825:4854  value * address(this).balance */\n      tag_134\n      swap2\n      swap1\n      tag_103\n      jump\t// in\n    tag_134:\n        /* \"PFG/AMM.sol\":4824:4873  (value * address(this).balance) / total_liquidity */\n      tag_135\n      swap2\n      swap1\n      tag_105\n      jump\t// in\n    tag_135:\n        /* \"PFG/AMM.sol\":4804:4873  uint256 eth_value = (value * address(this).balance) / total_liquidity */\n      swap1\n      pop\n        /* \"PFG/AMM.sol\":4892:4911  uint256 token_value */\n      0x00\n        /* \"PFG/AMM.sol\":4960:4975  total_liquidity */\n      sload(0x01)\n        /* \"PFG/AMM.sol\":4923:4931  tokenERC */\n      0x00\n      dup1\n      sload\n      swap1\n      0x0100\n      exp\n      swap1\n      div\n      0xffffffffffffffffffffffffffffffffffffffff\n      and\n        /* \"PFG/AMM.sol\":4923:4941  tokenERC.balanceOf */\n      0xffffffffffffffffffffffffffffffffffffffff\n      and\n      0x70a08231\n        /* \"PFG/AMM.sol\":4950:4954  this */\n      address\n        /* \"PFG/AMM.sol\":4923:4956  tokenERC.balanceOf(address(this)) */\n      mload(0x40)\n      dup3\n      0xffffffff\n      and\n      0xe0\n      shl\n      dup2\n      mstore\n      0x04\n      add\n      tag_136\n      swap2\n      swap1\n      tag_107\n      jump\t// in\n    tag_136:\n      0x20\n      mload(0x40)\n      dup1\n      dup4\n      sub\n      dup2\n      dup7\n      gas\n      staticcall\n      iszero\n      dup1\n      iszero\n      tag_138\n      jumpi\n      returndatasize\n      0x00\n      dup1\n      returndatacopy\n      revert(0x00, returndatasize)\n    tag_138:\n      pop\n      pop\n      pop\n      pop\n      mload(0x40)\n      returndatasize\n      not(0x1f)\n      0x1f\n      dup3\n      add\n      and\n      dup3\n      add\n      dup1\n      0x40\n      mstore\n      pop\n      dup2\n      add\n      swap1\n      tag_139\n      swap2\n      swap1\n      tag_111\n      jump\t// in\n    tag_139:\n        /* \"PFG/AMM.sol\":4915:4920  value */\n      dup7\n        /* \"PFG/AMM.sol\":4915:4956  value * tokenERC.balanceOf(address(this)) */\n      tag_140\n      swap2\n      swap1\n      tag_103\n      jump\t// in\n    tag_140:\n        /* \"PFG/AMM.sol\":4914:4975  (value * tokenERC.balanceOf(address(this))) / total_liquidity */\n      tag_141\n      swap2\n      swap1\n      tag_105\n      jump\t// in\n    tag_141:\n        /* \"PFG/AMM.sol\":4892:4975  uint256 token_value = (value * tokenERC.balanceOf(address(this))) / total_liquidity */\n      swap1\n      pop\n        /* \"PFG/AMM.sol\":5020:5029  eth_value */\n      dup2\n        /* \"PFG/AMM.sol\":5031:5042  token_value */\n      dup2\n        /* \"PFG/AMM.sol\":5012:5043  return (eth_value, token_value) */\n      swap4\n      pop\n      swap4\n      pop\n      pop\n      pop\n        /* \"PFG/AMM.sol\":4700:5057  function liquiditySubstracted(uint256 value) external view returns (uint256, uint256){... */\n      swap2\n      pop\n      swap2\n      jump\t// out\n        /* \"PFG/AMM.sol\":187:217  uint256 public total_liquidity */\n    tag_42:\n      sload(0x01)\n      dup2\n      jump\t// out\n        /* \"PFG/AMM.sol\":5336:5494  function getmMyFee() external view returns(uint256) {... */\n    tag_46:\n        /* \"PFG/AMM.sol\":5379:5386  uint256 */\n      0x00\n        /* \"PFG/AMM.sol\":5466:5481  total_liquidity */\n      sload(0x01)\n        /* \"PFG/AMM.sol\":403:407  1000 */\n      0x03e8\n        /* \"PFG/AMM.sol\":357:358  3 */\n      0x03\n        /* \"PFG/AMM.sol\":5422:5431  liquidity */\n      dup1\n        /* \"PFG/AMM.sol\":5422:5443  liquidity[msg.sender] */\n      0x00\n        /* \"PFG/AMM.sol\":5432:5442  msg.sender */\n      caller\n        /* \"PFG/AMM.sol\":5422:5443  liquidity[msg.sender] */\n      0xffffffffffffffffffffffffffffffffffffffff\n      and\n      0xffffffffffffffffffffffffffffffffffffffff\n      and\n      dup2\n      mstore\n      0x20\n      add\n      swap1\n      dup2\n      mstore\n      0x20\n      add\n      0x00\n      keccak256\n      sload\n        /* \"PFG/AMM.sol\":5416:5419  fee */\n      sload(0x02)\n        /* \"PFG/AMM.sol\":5416:5443  fee * liquidity[msg.sender] */\n      tag_143\n      swap2\n      swap1\n      tag_103\n      jump\t// in\n    tag_143:\n        /* \"PFG/AMM.sol\":5416:5452  fee * liquidity[msg.sender] * feeNum */\n      tag_144\n      swap2\n      swap1\n      tag_103\n      jump\t// in\n    tag_144:\n        /* \"PFG/AMM.sol\":5415:5462  (fee * liquidity[msg.sender] * feeNum) / feeDen */\n      tag_145\n      swap2\n      swap1\n      tag_105\n      jump\t// in\n    tag_145:\n        /* \"PFG/AMM.sol\":5414:5481  ((fee * liquidity[msg.sender] * feeNum) / feeDen) / total_liquidity */\n      tag_146\n      swap2\n      swap1\n      tag_105\n      jump\t// in\n    tag_146:\n        /* \"PFG/AMM.sol\":5407:5481  return ((fee * liquidity[msg.sender] * feeNum) / feeDen) / total_liquidity */\n      swap1\n      pop\n        /* \"PFG/AMM.sol\":5336:5494  function getmMyFee() external view returns(uint256) {... */\n      swap1\n      jump\t// out\n        /* \"PFG/AMM.sol\":3622:3977  function liquidityAdded(uint256 eth) external view returns (uint256, uint256){... */\n    tag_51:\n        /* \"PFG/AMM.sol\":3682:3689  uint256 */\n      0x00\n        /* \"PFG/AMM.sol\":3691:3698  uint256 */\n      dup1\n        /* \"PFG/AMM.sol\":3718:3738  uint256 token_amount */\n      0x00\n        /* \"PFG/AMM.sol\":3787:3808  address(this).balance */\n      selfbalance\n        /* \"PFG/AMM.sol\":3749:3757  tokenERC */\n      0x00\n      dup1\n      sload\n      swap1\n      0x0100\n      exp\n      swap1\n      div\n      0xffffffffffffffffffffffffffffffffffffffff\n      and\n        /* \"PFG/AMM.sol\":3749:3767  tokenERC.balanceOf */\n      0xffffffffffffffffffffffffffffffffffffffff\n      and\n      0x70a08231\n        /* \"PFG/AMM.sol\":3776:3780  this */\n      address\n        /* \"PFG/AMM.sol\":3749:3782  tokenERC.balanceOf(address(this)) */\n      mload(0x40)\n      dup3\n      0xffffffff\n      and\n      0xe0\n      shl\n      dup2\n      mstore\n      0x04\n      add\n      tag_148\n      swap2\n      swap1\n      tag_107\n      jump\t// in\n    tag_148:\n      0x20\n      mload(0x40)\n      dup1\n      dup4\n      sub\n      dup2\n      dup7\n      gas\n      staticcall\n      iszero\n      dup1\n      iszero\n      tag_150\n      jumpi\n      returndatasize\n      0x00\n      dup1\n      returndatacopy\n      revert(0x00, returndatasize)\n    tag_150:\n      pop\n      pop\n      pop\n      pop\n      mload(0x40)\n      returndatasize\n      not(0x1f)\n      0x1f\n      dup3\n      add\n      and\n      dup3\n      add\n      dup1\n      0x40\n      mstore\n      pop\n      dup2\n      add\n      swap1\n      tag_151\n      swap2\n      swap1\n      tag_111\n      jump\t// in\n    tag_151:\n        /* \"PFG/AMM.sol\":3743:3746  eth */\n      dup6\n        /* \"PFG/AMM.sol\":3743:3782  eth * tokenERC.balanceOf(address(this)) */\n      tag_152\n      swap2\n      swap1\n      tag_103\n      jump\t// in\n    tag_152:\n        /* \"PFG/AMM.sol\":3742:3809  (eth * tokenERC.balanceOf(address(this))) / (address(this).balance) */\n      tag_153\n      swap2\n      swap1\n      tag_105\n      jump\t// in\n    tag_153:\n        /* \"PFG/AMM.sol\":3718:3810  uint256 token_amount = ((eth * tokenERC.balanceOf(address(this))) / (address(this).balance)) */\n      swap1\n      pop\n        /* \"PFG/AMM.sol\":3829:3852  uint256 liquidity_added */\n      0x00\n        /* \"PFG/AMM.sol\":3882:3903  address(this).balance */\n      selfbalance\n        /* \"PFG/AMM.sol\":3862:3877  total_liquidity */\n      sload(0x01)\n        /* \"PFG/AMM.sol\":3856:3859  eth */\n      dup7\n        /* \"PFG/AMM.sol\":3856:3877  eth * total_liquidity */\n      tag_154\n      swap2\n      swap1\n      tag_103\n      jump\t// in\n    tag_154:\n        /* \"PFG/AMM.sol\":3855:3904  (eth * total_liquidity) / (address(this).balance) */\n      tag_155\n      swap2\n      swap1\n      tag_105\n      jump\t// in\n    tag_155:\n        /* \"PFG/AMM.sol\":3829:3904  uint256 liquidity_added = (eth * total_liquidity) / (address(this).balance) */\n      swap1\n      pop\n        /* \"PFG/AMM.sol\":3933:3945  token_amount */\n      dup2\n        /* \"PFG/AMM.sol\":3947:3962  liquidity_added */\n      dup2\n        /* \"PFG/AMM.sol\":3925:3963  return (token_amount, liquidity_added) */\n      swap4\n      pop\n      swap4\n      pop\n      pop\n      pop\n        /* \"PFG/AMM.sol\":3622:3977  function liquidityAdded(uint256 eth) external view returns (uint256, uint256){... */\n      swap2\n      pop\n      swap2\n      jump\t// out\n        /* \"PFG/AMM.sol\":1837:2013  function priceETH(uint256 erc) external view returns(uint256){... */\n    tag_56:\n        /* \"PFG/AMM.sol\":1890:1897  uint256 */\n      0x00\n        /* \"PFG/AMM.sol\":1924:2001  calculatePrice(erc, tokenERC.balanceOf(address(this)), address(this).balance) */\n      tag_157\n        /* \"PFG/AMM.sol\":1939:1942  erc */\n      dup3\n        /* \"PFG/AMM.sol\":1944:1952  tokenERC */\n      0x00\n      dup1\n      sload\n      swap1\n      0x0100\n      exp\n      swap1\n      div\n      0xffffffffffffffffffffffffffffffffffffffff\n      and\n        /* \"PFG/AMM.sol\":1944:1962  tokenERC.balanceOf */\n      0xffffffffffffffffffffffffffffffffffffffff\n      and\n      0x70a08231\n        /* \"PFG/AMM.sol\":1971:1975  this */\n      address\n        /* \"PFG/AMM.sol\":1944:1977  tokenERC.balanceOf(address(this)) */\n      mload(0x40)\n      dup3\n      0xffffffff\n      and\n      0xe0\n      shl\n      dup2\n      mstore\n      0x04\n      add\n      tag_158\n      swap2\n      swap1\n      tag_107\n      jump\t// in\n    tag_158:\n      0x20\n      mload(0x40)\n      dup1\n      dup4\n      sub\n      dup2\n      dup7\n      gas\n      staticcall\n      iszero\n      dup1\n      iszero\n      tag_160\n      jumpi\n      returndatasize\n      0x00\n      dup1\n      returndatacopy\n      revert(0x00, returndatasize)\n    tag_160:\n      pop\n      pop\n      pop\n      pop\n      mload(0x40)\n      returndatasize\n      not(0x1f)\n      0x1f\n      dup3\n      add\n      and\n      dup3\n      add\n      dup1\n      0x40\n      mstore\n      pop\n      dup2\n      add\n      swap1\n      tag_161\n      swap2\n      swap1\n      tag_111\n      jump\t// in\n    tag_161:\n        /* \"PFG/AMM.sol\":1979:2000  address(this).balance */\n      selfbalance\n        /* \"PFG/AMM.sol\":1924:1938  calculatePrice */\n      tag_162\n        /* \"PFG/AMM.sol\":1924:2001  calculatePrice(erc, tokenERC.balanceOf(address(this)), address(this).balance) */\n      jump\t// in\n    tag_157:\n        /* \"PFG/AMM.sol\":1917:2001  return calculatePrice(erc, tokenERC.balanceOf(address(this)), address(this).balance) */\n      swap1\n      pop\n        /* \"PFG/AMM.sol\":1837:2013  function priceETH(uint256 erc) external view returns(uint256){... */\n      swap2\n      swap1\n      pop\n      jump\t// out\n        /* \"PFG/AMM.sol\":866:890  uint256 public liq_added */\n    tag_60:\n      sload(0x06)\n      dup2\n      jump\t// out\n        /* \"PFG/AMM.sol\":1641:1825  function priceERC(uint256 eth) external view returns(uint256){... */\n    tag_65:\n        /* \"PFG/AMM.sol\":1694:1701  uint256 */\n      0x00\n        /* \"PFG/AMM.sol\":1728:1813  calculatePrice(eth, (address(this).balance - eth), tokenERC.balanceOf(address(this))) */\n      tag_164\n        /* \"PFG/AMM.sol\":1743:1746  eth */\n      dup3\n        /* \"PFG/AMM.sol\":1773:1776  eth */\n      dup4\n        /* \"PFG/AMM.sol\":1749:1770  address(this).balance */\n      selfbalance\n        /* \"PFG/AMM.sol\":1749:1776  address(this).balance - eth */\n      tag_165\n      swap2\n      swap1\n      tag_115\n      jump\t// in\n    tag_165:\n        /* \"PFG/AMM.sol\":1779:1787  tokenERC */\n      0x00\n      dup1\n      sload\n      swap1\n      0x0100\n      exp\n      swap1\n      div\n      0xffffffffffffffffffffffffffffffffffffffff\n      and\n        /* \"PFG/AMM.sol\":1779:1797  tokenERC.balanceOf */\n      0xffffffffffffffffffffffffffffffffffffffff\n      and\n      0x70a08231\n        /* \"PFG/AMM.sol\":1806:1810  this */\n      address\n        /* \"PFG/AMM.sol\":1779:1812  tokenERC.balanceOf(address(this)) */\n      mload(0x40)\n      dup3\n      0xffffffff\n      and\n      0xe0\n      shl\n      dup2\n      mstore\n      0x04\n      add\n      tag_166\n      swap2\n      swap1\n      tag_107\n      jump\t// in\n    tag_166:\n      0x20\n      mload(0x40)\n      dup1\n      dup4\n      sub\n      dup2\n      dup7\n      gas\n      staticcall\n      iszero\n      dup1\n      iszero\n      tag_168\n      jumpi\n      returndatasize\n      0x00\n      dup1\n      returndatacopy\n      revert(0x00, returndatasize)\n    tag_168:\n      pop\n      pop\n      pop\n      pop\n      mload(0x40)\n      returndatasize\n      not(0x1f)\n      0x1f\n      dup3\n      add\n      and\n      dup3\n      add\n      dup1\n      0x40\n      mstore\n      pop\n      dup2\n      add\n      swap1\n      tag_169\n      swap2\n      swap1\n      tag_111\n      jump\t// in\n    tag_169:\n        /* \"PFG/AMM.sol\":1728:1742  calculatePrice */\n      tag_162\n        /* \"PFG/AMM.sol\":1728:1813  calculatePrice(eth, (address(this).balance - eth), tokenERC.balanceOf(address(this))) */\n      jump\t// in\n    tag_164:\n        /* \"PFG/AMM.sol\":1721:1813  return calculatePrice(eth, (address(this).balance - eth), tokenERC.balanceOf(address(this))) */\n      swap1\n      pop\n        /* \"PFG/AMM.sol\":1641:1825  function priceERC(uint256 eth) external view returns(uint256){... */\n      swap2\n      swap1\n      pop\n      jump\t// out\n        /* \"PFG/AMM.sol\":787:817  uint256 public tokens_received */\n    tag_69:\n      sload(0x04)\n      dup2\n      jump\t// out\n        /* \"PFG/AMM.sol\":2025:2439  function ethToErc() external payable {... */\n    tag_72:\n        /* \"PFG/AMM.sol\":2081:2103  uint256 tokens_swapped */\n      0x00\n        /* \"PFG/AMM.sol\":2106:2203  calculatePrice(msg.value, (address(this).balance - msg.value), tokenERC.balanceOf(address(this))) */\n      tag_171\n        /* \"PFG/AMM.sol\":2121:2130  msg.value */\n      callvalue\n        /* \"PFG/AMM.sol\":2157:2166  msg.value */\n      callvalue\n        /* \"PFG/AMM.sol\":2133:2154  address(this).balance */\n      selfbalance\n        /* \"PFG/AMM.sol\":2133:2166  address(this).balance - msg.value */\n      tag_172\n      swap2\n      swap1\n      tag_115\n      jump\t// in\n    tag_172:\n        /* \"PFG/AMM.sol\":2169:2177  tokenERC */\n      0x00\n      dup1\n      sload\n      swap1\n      0x0100\n      exp\n      swap1\n      div\n      0xffffffffffffffffffffffffffffffffffffffff\n      and\n        /* \"PFG/AMM.sol\":2169:2187  tokenERC.balanceOf */\n      0xffffffffffffffffffffffffffffffffffffffff\n      and\n      0x70a08231\n        /* \"PFG/AMM.sol\":2196:2200  this */\n      address\n        /* \"PFG/AMM.sol\":2169:2202  tokenERC.balanceOf(address(this)) */\n      mload(0x40)\n      dup3\n      0xffffffff\n      and\n      0xe0\n      shl\n      dup2\n      mstore\n      0x04\n      add\n      tag_173\n      swap2\n      swap1\n      tag_107\n      jump\t// in\n    tag_173:\n      0x20\n      mload(0x40)\n      dup1\n      dup4\n      sub\n      dup2\n      dup7\n      gas\n      staticcall\n      iszero\n      dup1\n      iszero\n      tag_175\n      jumpi\n      returndatasize\n      0x00\n      dup1\n      returndatacopy\n      revert(0x00, returndatasize)\n    tag_175:\n      pop\n      pop\n      pop\n      pop\n      mload(0x40)\n      returndatasize\n      not(0x1f)\n      0x1f\n      dup3\n      add\n      and\n      dup3\n      add\n      dup1\n      0x40\n      mstore\n      pop\n      dup2\n      add\n      swap1\n      tag_176\n      swap2\n      swap1\n      tag_111\n      jump\t// in\n    tag_176:\n        /* \"PFG/AMM.sol\":2106:2120  calculatePrice */\n      tag_162\n        /* \"PFG/AMM.sol\":2106:2203  calculatePrice(msg.value, (address(this).balance - msg.value), tokenERC.balanceOf(address(this))) */\n      jump\t// in\n    tag_171:\n        /* \"PFG/AMM.sol\":2081:2203  uint256 tokens_swapped = calculatePrice(msg.value, (address(this).balance - msg.value), tokenERC.balanceOf(address(this))) */\n      swap1\n      pop\n        /* \"PFG/AMM.sol\":2232:2240  tokenERC */\n      0x00\n      dup1\n      sload\n      swap1\n      0x0100\n      exp\n      swap1\n      div\n      0xffffffffffffffffffffffffffffffffffffffff\n      and\n        /* \"PFG/AMM.sol\":2232:2249  tokenERC.transfer */\n      0xffffffffffffffffffffffffffffffffffffffff\n      and\n      0xa9059cbb\n        /* \"PFG/AMM.sol\":2250:2259  tx.origin */\n      origin\n        /* \"PFG/AMM.sol\":2261:2275  tokens_swapped */\n      dup4\n        /* \"PFG/AMM.sol\":2232:2276  tokenERC.transfer(tx.origin, tokens_swapped) */\n      mload(0x40)\n      dup4\n      0xffffffff\n      and\n      0xe0\n      shl\n      dup2\n      mstore\n      0x04\n      add\n      tag_177\n      swap3\n      swap2\n      swap1\n      tag_125\n      jump\t// in\n    tag_177:\n      0x20\n      mload(0x40)\n      dup1\n      dup4\n      sub\n      dup2\n      0x00\n      dup8\n      gas\n      call\n      iszero\n      dup1\n      iszero\n      tag_179\n      jumpi\n      returndatasize\n      0x00\n      dup1\n      returndatacopy\n      revert(0x00, returndatasize)\n    tag_179:\n      pop\n      pop\n      pop\n      pop\n      mload(0x40)\n      returndatasize\n      not(0x1f)\n      0x1f\n      dup3\n      add\n      and\n      dup3\n      add\n      dup1\n      0x40\n      mstore\n      pop\n      dup2\n      add\n      swap1\n      tag_180\n      swap2\n      swap1\n      tag_129\n      jump\t// in\n    tag_180:\n        /* \"PFG/AMM.sol\":2224:2277  require(tokenERC.transfer(tx.origin, tokens_swapped)) */\n      tag_181\n      jumpi\n      0x00\n      dup1\n      revert\n    tag_181:\n        /* \"PFG/AMM.sol\":2314:2323  msg.value */\n      callvalue\n        /* \"PFG/AMM.sol\":357:358  3 */\n      0x03\n        /* \"PFG/AMM.sol\":2305:2323  feeNum * msg.value */\n      tag_182\n      swap2\n      swap1\n      tag_103\n      jump\t// in\n    tag_182:\n        /* \"PFG/AMM.sol\":2298:2301  fee */\n      0x02\n      0x00\n        /* \"PFG/AMM.sol\":2298:2323  fee += feeNum * msg.value */\n      dup3\n      dup3\n      sload\n      tag_183\n      swap2\n      swap1\n      tag_184\n      jump\t// in\n    tag_183:\n      swap3\n      pop\n      pop\n      dup2\n      swap1\n      sstore\n      pop\n        /* \"PFG/AMM.sol\":2347:2376  TokensSwapped(tokens_swapped) */\n      0xdb04c7a6d4758fd55d738ebc67e7f3010ac922be00771ef29521a4090d1eb13f\n        /* \"PFG/AMM.sol\":2361:2375  tokens_swapped */\n      dup2\n        /* \"PFG/AMM.sol\":2347:2376  TokensSwapped(tokens_swapped) */\n      mload(0x40)\n      tag_185\n      swap2\n      swap1\n      tag_32\n      jump\t// in\n    tag_185:\n      mload(0x40)\n      dup1\n      swap2\n      sub\n      swap1\n      log1\n        /* \"PFG/AMM.sol\":2413:2427  tokens_swapped */\n      dup1\n        /* \"PFG/AMM.sol\":2395:2410  tokens_received */\n      0x04\n        /* \"PFG/AMM.sol\":2395:2427  tokens_received = tokens_swapped */\n      dup2\n      swap1\n      sstore\n      pop\n        /* \"PFG/AMM.sol\":2062:2439  {... */\n      pop\n        /* \"PFG/AMM.sol\":2025:2439  function ethToErc() external payable {... */\n      jump\t// out\n        /* \"PFG/AMM.sol\":5069:5199  function getTokenBalance() external view returns (uint256) {... */\n    tag_75:\n        /* \"PFG/AMM.sol\":5119:5126  uint256 */\n      0x00\n        /* \"PFG/AMM.sol\":5154:5162  tokenERC */\n      dup1\n      0x00\n      swap1\n      sload\n      swap1\n      0x0100\n      exp\n      swap1\n      div\n      0xffffffffffffffffffffffffffffffffffffffff\n      and\n        /* \"PFG/AMM.sol\":5154:5172  tokenERC.balanceOf */\n      0xffffffffffffffffffffffffffffffffffffffff\n      and\n      0x70a08231\n        /* \"PFG/AMM.sol\":5181:5185  this */\n      address\n        /* \"PFG/AMM.sol\":5154:5187  tokenERC.balanceOf(address(this)) */\n      mload(0x40)\n      dup3\n      0xffffffff\n      and\n      0xe0\n      shl\n      dup2\n      mstore\n      0x04\n      add\n      tag_187\n      swap2\n      swap1\n      tag_107\n      jump\t// in\n    tag_187:\n      0x20\n      mload(0x40)\n      dup1\n      dup4\n      sub\n      dup2\n      dup7\n      gas\n      staticcall\n      iszero\n      dup1\n      iszero\n      tag_189\n      jumpi\n      returndatasize\n      0x00\n      dup1\n      returndatacopy\n      revert(0x00, returndatasize)\n    tag_189:\n      pop\n      pop\n      pop\n      pop\n      mload(0x40)\n      returndatasize\n      not(0x1f)\n      0x1f\n      dup3\n      add\n      and\n      dup3\n      add\n      dup1\n      0x40\n      mstore\n      pop\n      dup2\n      add\n      swap1\n      tag_190\n      swap2\n      swap1\n      tag_111\n      jump\t// in\n    tag_190:\n        /* \"PFG/AMM.sol\":5147:5187  return tokenERC.balanceOf(address(this)) */\n      swap1\n      pop\n        /* \"PFG/AMM.sol\":5069:5199  function getTokenBalance() external view returns (uint256) {... */\n      swap1\n      jump\t// out\n        /* \"PFG/AMM.sol\":828:855  uint256 public eth_received */\n    tag_79:\n      sload(0x05)\n      dup2\n      jump\t// out\n        /* \"PFG/AMM.sol\":456:501  mapping (address => uint256) public liquidity */\n    tag_85:\n      mstore(0x20, 0x03)\n      dup1\n      0x00\n      mstore\n      keccak256(0x00, 0x40)\n      0x00\n      swap2\n      pop\n      swap1\n      pop\n      sload\n      dup2\n      jump\t// out\n        /* \"PFG/AMM.sol\":903:1403  function initialize(address token_address, uint256 token_amount) external payable {... */\n    tag_90:\n        /* \"PFG/AMM.sol\":1031:1032  0 */\n      0x00\n        /* \"PFG/AMM.sol\":1012:1027  total_liquidity */\n      sload(0x01)\n        /* \"PFG/AMM.sol\":1012:1032  total_liquidity == 0 */\n      eq\n        /* \"PFG/AMM.sol\":1004:1033  require(total_liquidity == 0) */\n      tag_192\n      jumpi\n      0x00\n      dup1\n      revert\n    tag_192:\n        /* \"PFG/AMM.sol\":1076:1077  0 */\n      0x00\n        /* \"PFG/AMM.sol\":1070:1073  fee */\n      0x02\n        /* \"PFG/AMM.sol\":1070:1077  fee = 0 */\n      dup2\n      swap1\n      sstore\n      pop\n        /* \"PFG/AMM.sol\":1114:1127  token_address */\n      dup2\n        /* \"PFG/AMM.sol\":1096:1104  tokenERC */\n      0x00\n      dup1\n        /* \"PFG/AMM.sol\":1096:1128  tokenERC = IERC20(token_address) */\n      0x0100\n      exp\n      dup2\n      sload\n      dup2\n      0xffffffffffffffffffffffffffffffffffffffff\n      mul\n      not\n      and\n      swap1\n      dup4\n      0xffffffffffffffffffffffffffffffffffffffff\n      and\n      mul\n      or\n      swap1\n      sstore\n      pop\n        /* \"PFG/AMM.sol\":1167:1188  address(this).balance */\n      selfbalance\n        /* \"PFG/AMM.sol\":1149:1164  total_liquidity */\n      0x01\n        /* \"PFG/AMM.sol\":1149:1188  total_liquidity = address(this).balance */\n      dup2\n      swap1\n      sstore\n      pop\n        /* \"PFG/AMM.sol\":1231:1246  total_liquidity */\n      sload(0x01)\n        /* \"PFG/AMM.sol\":1207:1216  liquidity */\n      0x03\n        /* \"PFG/AMM.sol\":1207:1228  liquidity[msg.sender] */\n      0x00\n        /* \"PFG/AMM.sol\":1217:1227  msg.sender */\n      caller\n        /* \"PFG/AMM.sol\":1207:1228  liquidity[msg.sender] */\n      0xffffffffffffffffffffffffffffffffffffffff\n      and\n      0xffffffffffffffffffffffffffffffffffffffff\n      and\n      dup2\n      mstore\n      0x20\n      add\n      swap1\n      dup2\n      mstore\n      0x20\n      add\n      0x00\n      keccak256\n        /* \"PFG/AMM.sol\":1207:1246  liquidity[msg.sender] = total_liquidity */\n      dup2\n      swap1\n      sstore\n      pop\n        /* \"PFG/AMM.sol\":1275:1283  tokenERC */\n      0x00\n      dup1\n      sload\n      swap1\n      0x0100\n      exp\n      swap1\n      div\n      0xffffffffffffffffffffffffffffffffffffffff\n      and\n        /* \"PFG/AMM.sol\":1275:1296  tokenERC.transferFrom */\n      0xffffffffffffffffffffffffffffffffffffffff\n      and\n      0x23b872dd\n        /* \"PFG/AMM.sol\":1297:1307  msg.sender */\n      caller\n        /* \"PFG/AMM.sol\":1317:1321  this */\n      address\n        /* \"PFG/AMM.sol\":1324:1336  token_amount */\n      dup5\n        /* \"PFG/AMM.sol\":1275:1337  tokenERC.transferFrom(msg.sender, address(this), token_amount) */\n      mload(0x40)\n      dup5\n      0xffffffff\n      and\n      0xe0\n      shl\n      dup2\n      mstore\n      0x04\n      add\n      tag_193\n      swap4\n      swap3\n      swap2\n      swap1\n      tag_194\n      jump\t// in\n    tag_193:\n      0x20\n      mload(0x40)\n      dup1\n      dup4\n      sub\n      dup2\n      0x00\n      dup8\n      gas\n      call\n      iszero\n      dup1\n      iszero\n      tag_196\n      jumpi\n      returndatasize\n      0x00\n      dup1\n      returndatacopy\n      revert(0x00, returndatasize)\n    tag_196:\n      pop\n      pop\n      pop\n      pop\n      mload(0x40)\n      returndatasize\n      not(0x1f)\n      0x1f\n      dup3\n      add\n      and\n      dup3\n      add\n      dup1\n      0x40\n      mstore\n      pop\n      dup2\n      add\n      swap1\n      tag_197\n      swap2\n      swap1\n      tag_129\n      jump\t// in\n    tag_197:\n        /* \"PFG/AMM.sol\":1267:1338  require(tokenERC.transferFrom(msg.sender, address(this), token_amount)) */\n      tag_198\n      jumpi\n      0x00\n      dup1\n      revert\n    tag_198:\n        /* \"PFG/AMM.sol\":1364:1391  Initialize(total_liquidity) */\n      0xc43e48cf47e9fa186d0f4096c61d1fcb54159799f935a2aa32e5589688ee36e1\n        /* \"PFG/AMM.sol\":1375:1390  total_liquidity */\n      sload(0x01)\n        /* \"PFG/AMM.sol\":1364:1391  Initialize(total_liquidity) */\n      mload(0x40)\n      tag_199\n      swap2\n      swap1\n      tag_32\n      jump\t// in\n    tag_199:\n      mload(0x40)\n      dup1\n      swap2\n      sub\n      swap1\n      log1\n        /* \"PFG/AMM.sol\":903:1403  function initialize(address token_address, uint256 token_amount) external payable {... */\n      pop\n      pop\n      jump\t// out\n        /* \"PFG/AMM.sol\":3021:3610  function deposit() external payable {... */\n    tag_92:\n        /* \"PFG/AMM.sol\":3076:3096  uint256 token_amount */\n      0x00\n        /* \"PFG/AMM.sol\":3175:3184  msg.value */\n      callvalue\n        /* \"PFG/AMM.sol\":3151:3172  address(this).balance */\n      selfbalance\n        /* \"PFG/AMM.sol\":3151:3184  address(this).balance - msg.value */\n      tag_201\n      swap2\n      swap1\n      tag_115\n      jump\t// in\n    tag_201:\n        /* \"PFG/AMM.sol\":3113:3121  tokenERC */\n      0x00\n      dup1\n      sload\n      swap1\n      0x0100\n      exp\n      swap1\n      div\n      0xffffffffffffffffffffffffffffffffffffffff\n      and\n        /* \"PFG/AMM.sol\":3113:3131  tokenERC.balanceOf */\n      0xffffffffffffffffffffffffffffffffffffffff\n      and\n      0x70a08231\n        /* \"PFG/AMM.sol\":3140:3144  this */\n      address\n        /* \"PFG/AMM.sol\":3113:3146  tokenERC.balanceOf(address(this)) */\n      mload(0x40)\n      dup3\n      0xffffffff\n      and\n      0xe0\n      shl\n      dup2\n      mstore\n      0x04\n      add\n      tag_202\n      swap2\n      swap1\n      tag_107\n      jump\t// in\n    tag_202:\n      0x20\n      mload(0x40)\n      dup1\n      dup4\n      sub\n      dup2\n      dup7\n      gas\n      staticcall\n      iszero\n      dup1\n      iszero\n      tag_204\n      jumpi\n      returndatasize\n      0x00\n      dup1\n      returndatacopy\n      revert(0x00, returndatasize)\n    tag_204:\n      pop\n      pop\n      pop\n      pop\n      mload(0x40)\n      returndatasize\n      not(0x1f)\n      0x1f\n      dup3\n      add\n      and\n      dup3\n      add\n      dup1\n      0x40\n      mstore\n      pop\n      dup2\n      add\n      swap1\n      tag_205\n      swap2\n      swap1\n      tag_111\n      jump\t// in\n    tag_205:\n        /* \"PFG/AMM.sol\":3101:3110  msg.value */\n      callvalue\n        /* \"PFG/AMM.sol\":3101:3146  msg.value * tokenERC.balanceOf(address(this)) */\n      tag_206\n      swap2\n      swap1\n      tag_103\n      jump\t// in\n    tag_206:\n        /* \"PFG/AMM.sol\":3100:3185  (msg.value * tokenERC.balanceOf(address(this))) / (address(this).balance - msg.value) */\n      tag_207\n      swap2\n      swap1\n      tag_105\n      jump\t// in\n    tag_207:\n        /* \"PFG/AMM.sol\":3076:3186  uint256 token_amount = ((msg.value * tokenERC.balanceOf(address(this))) / (address(this).balance - msg.value)) */\n      swap1\n      pop\n        /* \"PFG/AMM.sol\":3205:3228  uint256 liquidity_added */\n      0x00\n        /* \"PFG/AMM.sol\":3288:3297  msg.value */\n      callvalue\n        /* \"PFG/AMM.sol\":3264:3285  address(this).balance */\n      selfbalance\n        /* \"PFG/AMM.sol\":3264:3297  address(this).balance - msg.value */\n      tag_208\n      swap2\n      swap1\n      tag_115\n      jump\t// in\n    tag_208:\n        /* \"PFG/AMM.sol\":3244:3259  total_liquidity */\n      sload(0x01)\n        /* \"PFG/AMM.sol\":3232:3241  msg.value */\n      callvalue\n        /* \"PFG/AMM.sol\":3232:3259  msg.value * total_liquidity */\n      tag_209\n      swap2\n      swap1\n      tag_103\n      jump\t// in\n    tag_209:\n        /* \"PFG/AMM.sol\":3231:3298  (msg.value * total_liquidity) / (address(this).balance - msg.value) */\n      tag_210\n      swap2\n      swap1\n      tag_105\n      jump\t// in\n    tag_210:\n        /* \"PFG/AMM.sol\":3205:3298  uint256 liquidity_added = (msg.value * total_liquidity) / (address(this).balance - msg.value) */\n      swap1\n      pop\n        /* \"PFG/AMM.sol\":3343:3358  liquidity_added */\n      dup1\n        /* \"PFG/AMM.sol\":3319:3328  liquidity */\n      0x03\n        /* \"PFG/AMM.sol\":3319:3339  liquidity[tx.origin] */\n      0x00\n        /* \"PFG/AMM.sol\":3329:3338  tx.origin */\n      origin\n        /* \"PFG/AMM.sol\":3319:3339  liquidity[tx.origin] */\n      0xffffffffffffffffffffffffffffffffffffffff\n      and\n      0xffffffffffffffffffffffffffffffffffffffff\n      and\n      dup2\n      mstore\n      0x20\n      add\n      swap1\n      dup2\n      mstore\n      0x20\n      add\n      0x00\n      keccak256\n      0x00\n        /* \"PFG/AMM.sol\":3319:3358  liquidity[tx.origin] += liquidity_added */\n      dup3\n      dup3\n      sload\n      tag_211\n      swap2\n      swap1\n      tag_184\n      jump\t// in\n    tag_211:\n      swap3\n      pop\n      pop\n      dup2\n      swap1\n      sstore\n      pop\n        /* \"PFG/AMM.sol\":3396:3411  liquidity_added */\n      dup1\n        /* \"PFG/AMM.sol\":3377:3392  total_liquidity */\n      0x01\n      0x00\n        /* \"PFG/AMM.sol\":3377:3411  total_liquidity += liquidity_added */\n      dup3\n      dup3\n      sload\n      tag_212\n      swap2\n      swap1\n      tag_184\n      jump\t// in\n    tag_212:\n      swap3\n      pop\n      pop\n      dup2\n      swap1\n      sstore\n      pop\n        /* \"PFG/AMM.sol\":3440:3448  tokenERC */\n      0x00\n      dup1\n      sload\n      swap1\n      0x0100\n      exp\n      swap1\n      div\n      0xffffffffffffffffffffffffffffffffffffffff\n      and\n        /* \"PFG/AMM.sol\":3440:3461  tokenERC.transferFrom */\n      0xffffffffffffffffffffffffffffffffffffffff\n      and\n      0x23b872dd\n        /* \"PFG/AMM.sol\":3462:3471  tx.origin */\n      origin\n        /* \"PFG/AMM.sol\":3481:3485  this */\n      address\n        /* \"PFG/AMM.sol\":3488:3500  token_amount */\n      dup6\n        /* \"PFG/AMM.sol\":3440:3501  tokenERC.transferFrom(tx.origin, address(this), token_amount) */\n      mload(0x40)\n      dup5\n      0xffffffff\n      and\n      0xe0\n      shl\n      dup2\n      mstore\n      0x04\n      add\n      tag_213\n      swap4\n      swap3\n      swap2\n      swap1\n      tag_194\n      jump\t// in\n    tag_213:\n      0x20\n      mload(0x40)\n      dup1\n      dup4\n      sub\n      dup2\n      0x00\n      dup8\n      gas\n      call\n      iszero\n      dup1\n      iszero\n      tag_215\n      jumpi\n      returndatasize\n      0x00\n      dup1\n      returndatacopy\n      revert(0x00, returndatasize)\n    tag_215:\n      pop\n      pop\n      pop\n      pop\n      mload(0x40)\n      returndatasize\n      not(0x1f)\n      0x1f\n      dup3\n      add\n      and\n      dup3\n      add\n      dup1\n      0x40\n      mstore\n      pop\n      dup2\n      add\n      swap1\n      tag_216\n      swap2\n      swap1\n      tag_129\n      jump\t// in\n    tag_216:\n        /* \"PFG/AMM.sol\":3432:3502  require(tokenERC.transferFrom(tx.origin, address(this), token_amount)) */\n      tag_217\n      jumpi\n      0x00\n      dup1\n      revert\n    tag_217:\n        /* \"PFG/AMM.sol\":3528:3552  Deposit(liquidity_added) */\n      0x4d6ce1e535dbade1c23defba91e23b8f791ce5edc0cc320257a2b364e4e38426\n        /* \"PFG/AMM.sol\":3536:3551  liquidity_added */\n      dup2\n        /* \"PFG/AMM.sol\":3528:3552  Deposit(liquidity_added) */\n      mload(0x40)\n      tag_218\n      swap2\n      swap1\n      tag_32\n      jump\t// in\n    tag_218:\n      mload(0x40)\n      dup1\n      swap2\n      sub\n      swap1\n      log1\n        /* \"PFG/AMM.sol\":3583:3598  liquidity_added */\n      dup1\n        /* \"PFG/AMM.sol\":3571:3580  liq_added */\n      0x06\n        /* \"PFG/AMM.sol\":3571:3598  liq_added = liquidity_added */\n      dup2\n      swap1\n      sstore\n      pop\n        /* \"PFG/AMM.sol\":3057:3610  {... */\n      pop\n      pop\n        /* \"PFG/AMM.sol\":3021:3610  function deposit() external payable {... */\n      jump\t// out\n        /* \"PFG/AMM.sol\":294:312  uint256 public fee */\n    tag_95:\n      sload(0x02)\n      dup2\n      jump\t// out\n        /* \"PFG/AMM.sol\":2453:3009  function ercToEth(uint256 token_amount) external {... */\n    tag_100:\n        /* \"PFG/AMM.sol\":2521:2540  uint256 eth_swapped */\n      0x00\n        /* \"PFG/AMM.sol\":2543:2629  calculatePrice(token_amount, tokenERC.balanceOf(address(this)), address(this).balance) */\n      tag_220\n        /* \"PFG/AMM.sol\":2558:2570  token_amount */\n      dup3\n        /* \"PFG/AMM.sol\":2572:2580  tokenERC */\n      0x00\n      dup1\n      sload\n      swap1\n      0x0100\n      exp\n      swap1\n      div\n      0xffffffffffffffffffffffffffffffffffffffff\n      and\n        /* \"PFG/AMM.sol\":2572:2590  tokenERC.balanceOf */\n      0xffffffffffffffffffffffffffffffffffffffff\n      and\n      0x70a08231\n        /* \"PFG/AMM.sol\":2599:2603  this */\n      address\n        /* \"PFG/AMM.sol\":2572:2605  tokenERC.balanceOf(address(this)) */\n      mload(0x40)\n      dup3\n      0xffffffff\n      and\n      0xe0\n      shl\n      dup2\n      mstore\n      0x04\n      add\n      tag_221\n      swap2\n      swap1\n      tag_107\n      jump\t// in\n    tag_221:\n      0x20\n      mload(0x40)\n      dup1\n      dup4\n      sub\n      dup2\n      dup7\n      gas\n      staticcall\n      iszero\n      dup1\n      iszero\n      tag_223\n      jumpi\n      returndatasize\n      0x00\n      dup1\n      returndatacopy\n      revert(0x00, returndatasize)\n    tag_223:\n      pop\n      pop\n      pop\n      pop\n      mload(0x40)\n      returndatasize\n      not(0x1f)\n      0x1f\n      dup3\n      add\n      and\n      dup3\n      add\n      dup1\n      0x40\n      mstore\n      pop\n      dup2\n      add\n      swap1\n      tag_224\n      swap2\n      swap1\n      tag_111\n      jump\t// in\n    tag_224:\n        /* \"PFG/AMM.sol\":2607:2628  address(this).balance */\n      selfbalance\n        /* \"PFG/AMM.sol\":2543:2557  calculatePrice */\n      tag_162\n        /* \"PFG/AMM.sol\":2543:2629  calculatePrice(token_amount, tokenERC.balanceOf(address(this)), address(this).balance) */\n      jump\t// in\n    tag_220:\n        /* \"PFG/AMM.sol\":2521:2629  uint256 eth_swapped = calculatePrice(token_amount, tokenERC.balanceOf(address(this)), address(this).balance) */\n      swap1\n      pop\n        /* \"PFG/AMM.sol\":2651:2663  bool success */\n      0x00\n        /* \"PFG/AMM.sol\":2669:2678  tx.origin */\n      origin\n        /* \"PFG/AMM.sol\":2669:2683  tx.origin.call */\n      0xffffffffffffffffffffffffffffffffffffffff\n      and\n        /* \"PFG/AMM.sol\":2691:2702  eth_swapped */\n      dup3\n        /* \"PFG/AMM.sol\":2669:2707  tx.origin.call{value: eth_swapped}(\"\") */\n      mload(0x40)\n      tag_225\n      swap1\n      tag_117\n      jump\t// in\n    tag_225:\n      0x00\n      mload(0x40)\n      dup1\n      dup4\n      sub\n      dup2\n      dup6\n      dup8\n      gas\n      call\n      swap3\n      pop\n      pop\n      pop\n      returndatasize\n      dup1\n      0x00\n      dup2\n      eq\n      tag_228\n      jumpi\n      mload(0x40)\n      swap2\n      pop\n      and(add(returndatasize, 0x3f), not(0x1f))\n      dup3\n      add\n      0x40\n      mstore\n      returndatasize\n      dup3\n      mstore\n      returndatasize\n      0x00\n      0x20\n      dup5\n      add\n      returndatacopy\n      jump(tag_227)\n    tag_228:\n      0x60\n      swap2\n      pop\n    tag_227:\n      pop\n        /* \"PFG/AMM.sol\":2650:2707  (bool success, ) = tx.origin.call{value: eth_swapped}(\"\") */\n      pop\n      swap1\n      pop\n        /* \"PFG/AMM.sol\":2734:2741  success */\n      dup1\n        /* \"PFG/AMM.sol\":2726:2762  require(success, \"Transfer failed.\") */\n      tag_229\n      jumpi\n      mload(0x40)\n      0x08c379a000000000000000000000000000000000000000000000000000000000\n      dup2\n      mstore\n      0x04\n      add\n      tag_230\n      swap1\n      tag_123\n      jump\t// in\n    tag_230:\n      mload(0x40)\n      dup1\n      swap2\n      sub\n      swap1\n      revert\n    tag_229:\n        /* \"PFG/AMM.sol\":2795:2803  tokenERC */\n      0x00\n      dup1\n      sload\n      swap1\n      0x0100\n      exp\n      swap1\n      div\n      0xffffffffffffffffffffffffffffffffffffffff\n      and\n        /* \"PFG/AMM.sol\":2795:2816  tokenERC.transferFrom */\n      0xffffffffffffffffffffffffffffffffffffffff\n      and\n      0x23b872dd\n        /* \"PFG/AMM.sol\":2817:2826  tx.origin */\n      origin\n        /* \"PFG/AMM.sol\":2836:2840  this */\n      address\n        /* \"PFG/AMM.sol\":2843:2855  token_amount */\n      dup7\n        /* \"PFG/AMM.sol\":2795:2856  tokenERC.transferFrom(tx.origin, address(this), token_amount) */\n      mload(0x40)\n      dup5\n      0xffffffff\n      and\n      0xe0\n      shl\n      dup2\n      mstore\n      0x04\n      add\n      tag_231\n      swap4\n      swap3\n      swap2\n      swap1\n      tag_194\n      jump\t// in\n    tag_231:\n      0x20\n      mload(0x40)\n      dup1\n      dup4\n      sub\n      dup2\n      0x00\n      dup8\n      gas\n      call\n      iszero\n      dup1\n      iszero\n      tag_233\n      jumpi\n      returndatasize\n      0x00\n      dup1\n      returndatacopy\n      revert(0x00, returndatasize)\n    tag_233:\n      pop\n      pop\n      pop\n      pop\n      mload(0x40)\n      returndatasize\n      not(0x1f)\n      0x1f\n      dup3\n      add\n      and\n      dup3\n      add\n      dup1\n      0x40\n      mstore\n      pop\n      dup2\n      add\n      swap1\n      tag_234\n      swap2\n      swap1\n      tag_129\n      jump\t// in\n    tag_234:\n        /* \"PFG/AMM.sol\":2787:2857  require(tokenERC.transferFrom(tx.origin, address(this), token_amount)) */\n      tag_235\n      jumpi\n      0x00\n      dup1\n      revert\n    tag_235:\n        /* \"PFG/AMM.sol\":2894:2905  eth_swapped */\n      dup2\n        /* \"PFG/AMM.sol\":357:358  3 */\n      0x03\n        /* \"PFG/AMM.sol\":2885:2905  feeNum * eth_swapped */\n      tag_236\n      swap2\n      swap1\n      tag_103\n      jump\t// in\n    tag_236:\n        /* \"PFG/AMM.sol\":2878:2881  fee */\n      0x02\n      0x00\n        /* \"PFG/AMM.sol\":2878:2905  fee += feeNum * eth_swapped */\n      dup3\n      dup3\n      sload\n      tag_237\n      swap2\n      swap1\n      tag_184\n      jump\t// in\n    tag_237:\n      swap3\n      pop\n      pop\n      dup2\n      swap1\n      sstore\n      pop\n        /* \"PFG/AMM.sol\":2929:2952  ETHSwapped(eth_swapped) */\n      0x4dbf3a71a7c7262f432c2cad7808225832255d07f7d8ab85117677c0b5c0a850\n        /* \"PFG/AMM.sol\":2940:2951  eth_swapped */\n      dup3\n        /* \"PFG/AMM.sol\":2929:2952  ETHSwapped(eth_swapped) */\n      mload(0x40)\n      tag_238\n      swap2\n      swap1\n      tag_32\n      jump\t// in\n    tag_238:\n      mload(0x40)\n      dup1\n      swap2\n      sub\n      swap1\n      log1\n        /* \"PFG/AMM.sol\":2986:2997  eth_swapped */\n      dup2\n        /* \"PFG/AMM.sol\":2971:2983  eth_received */\n      0x05\n        /* \"PFG/AMM.sol\":2971:2997  eth_received = eth_swapped */\n      dup2\n      swap1\n      sstore\n      pop\n        /* \"PFG/AMM.sol\":2502:3009  {... */\n      pop\n      pop\n        /* \"PFG/AMM.sol\":2453:3009  function ercToEth(uint256 token_amount) external {... */\n      pop\n      jump\t// out\n        /* \"PFG/AMM.sol\":1415:1627  function calculatePrice(uint256 input_value, uint256 input_pool, uint256 output_pool) internal pure returns (uint256) {... */\n    tag_162:\n        /* \"PFG/AMM.sol\":1524:1531  uint256 */\n      0x00\n        /* \"PFG/AMM.sol\":1603:1614  input_value */\n      dup4\n        /* \"PFG/AMM.sol\":1590:1600  input_pool */\n      dup4\n        /* \"PFG/AMM.sol\":1590:1614  input_pool + input_value */\n      tag_240\n      swap2\n      swap1\n      tag_184\n      jump\t// in\n    tag_240:\n        /* \"PFG/AMM.sol\":1574:1585  output_pool */\n      dup3\n        /* \"PFG/AMM.sol\":1560:1571  input_value */\n      dup6\n        /* \"PFG/AMM.sol\":1560:1585  input_value * output_pool */\n      tag_241\n      swap2\n      swap1\n      tag_103\n      jump\t// in\n    tag_241:\n        /* \"PFG/AMM.sol\":1559:1615  (input_value * output_pool) / (input_pool + input_value) */\n      tag_242\n      swap2\n      swap1\n      tag_105\n      jump\t// in\n    tag_242:\n        /* \"PFG/AMM.sol\":1552:1615  return (input_value * output_pool) / (input_pool + input_value) */\n      swap1\n      pop\n        /* \"PFG/AMM.sol\":1415:1627  function calculatePrice(uint256 input_value, uint256 input_pool, uint256 output_pool) internal pure returns (uint256) {... */\n      swap4\n      swap3\n      pop\n      pop\n      pop\n      jump\t// out\n        /* \"#utility.yul\":88:205   */\n    tag_244:\n        /* \"#utility.yul\":197:198   */\n      0x00\n        /* \"#utility.yul\":194:195   */\n      dup1\n        /* \"#utility.yul\":187:199   */\n      revert\n        /* \"#utility.yul\":334:411   */\n    tag_246:\n        /* \"#utility.yul\":371:378   */\n      0x00\n        /* \"#utility.yul\":400:405   */\n      dup2\n        /* \"#utility.yul\":389:405   */\n      swap1\n      pop\n        /* \"#utility.yul\":334:411   */\n      swap2\n      swap1\n      pop\n      jump\t// out\n        /* \"#utility.yul\":417:539   */\n    tag_247:\n        /* \"#utility.yul\":490:514   */\n      tag_273\n        /* \"#utility.yul\":508:513   */\n      dup2\n        /* \"#utility.yul\":490:514   */\n      tag_246\n      jump\t// in\n    tag_273:\n        /* \"#utility.yul\":483:488   */\n      dup2\n        /* \"#utility.yul\":480:515   */\n      eq\n        /* \"#utility.yul\":470:533   */\n      tag_274\n      jumpi\n        /* \"#utility.yul\":529:530   */\n      0x00\n        /* \"#utility.yul\":526:527   */\n      dup1\n        /* \"#utility.yul\":519:531   */\n      revert\n        /* \"#utility.yul\":470:533   */\n    tag_274:\n        /* \"#utility.yul\":417:539   */\n      pop\n      jump\t// out\n        /* \"#utility.yul\":545:684   */\n    tag_248:\n        /* \"#utility.yul\":591:596   */\n      0x00\n        /* \"#utility.yul\":629:635   */\n      dup2\n        /* \"#utility.yul\":616:636   */\n      calldataload\n        /* \"#utility.yul\":607:636   */\n      swap1\n      pop\n        /* \"#utility.yul\":645:678   */\n      tag_276\n        /* \"#utility.yul\":672:677   */\n      dup2\n        /* \"#utility.yul\":645:678   */\n      tag_247\n      jump\t// in\n    tag_276:\n        /* \"#utility.yul\":545:684   */\n      swap3\n      swap2\n      pop\n      pop\n      jump\t// out\n        /* \"#utility.yul\":690:816   */\n    tag_249:\n        /* \"#utility.yul\":727:734   */\n      0x00\n        /* \"#utility.yul\":767:809   */\n      0xffffffffffffffffffffffffffffffffffffffff\n        /* \"#utility.yul\":760:765   */\n      dup3\n        /* \"#utility.yul\":756:810   */\n      and\n        /* \"#utility.yul\":745:810   */\n      swap1\n      pop\n        /* \"#utility.yul\":690:816   */\n      swap2\n      swap1\n      pop\n      jump\t// out\n        /* \"#utility.yul\":822:918   */\n    tag_250:\n        /* \"#utility.yul\":859:866   */\n      0x00\n        /* \"#utility.yul\":888:912   */\n      tag_279\n        /* \"#utility.yul\":906:911   */\n      dup3\n        /* \"#utility.yul\":888:912   */\n      tag_249\n      jump\t// in\n    tag_279:\n        /* \"#utility.yul\":877:912   */\n      swap1\n      pop\n        /* \"#utility.yul\":822:918   */\n      swap2\n      swap1\n      pop\n      jump\t// out\n        /* \"#utility.yul\":924:1046   */\n    tag_251:\n        /* \"#utility.yul\":997:1021   */\n      tag_281\n        /* \"#utility.yul\":1015:1020   */\n      dup2\n        /* \"#utility.yul\":997:1021   */\n      tag_250\n      jump\t// in\n    tag_281:\n        /* \"#utility.yul\":990:995   */\n      dup2\n        /* \"#utility.yul\":987:1022   */\n      eq\n        /* \"#utility.yul\":977:1040   */\n      tag_282\n      jumpi\n        /* \"#utility.yul\":1036:1037   */\n      0x00\n        /* \"#utility.yul\":1033:1034   */\n      dup1\n        /* \"#utility.yul\":1026:1038   */\n      revert\n        /* \"#utility.yul\":977:1040   */\n    tag_282:\n        /* \"#utility.yul\":924:1046   */\n      pop\n      jump\t// out\n        /* \"#utility.yul\":1052:1191   */\n    tag_252:\n        /* \"#utility.yul\":1098:1103   */\n      0x00\n        /* \"#utility.yul\":1136:1142   */\n      dup2\n        /* \"#utility.yul\":1123:1143   */\n      calldataload\n        /* \"#utility.yul\":1114:1143   */\n      swap1\n      pop\n        /* \"#utility.yul\":1152:1185   */\n      tag_284\n        /* \"#utility.yul\":1179:1184   */\n      dup2\n        /* \"#utility.yul\":1152:1185   */\n      tag_251\n      jump\t// in\n    tag_284:\n        /* \"#utility.yul\":1052:1191   */\n      swap3\n      swap2\n      pop\n      pop\n      jump\t// out\n        /* \"#utility.yul\":1197:1671   */\n    tag_26:\n        /* \"#utility.yul\":1265:1271   */\n      0x00\n        /* \"#utility.yul\":1273:1279   */\n      dup1\n        /* \"#utility.yul\":1322:1324   */\n      0x40\n        /* \"#utility.yul\":1310:1319   */\n      dup4\n        /* \"#utility.yul\":1301:1308   */\n      dup6\n        /* \"#utility.yul\":1297:1320   */\n      sub\n        /* \"#utility.yul\":1293:1325   */\n      slt\n        /* \"#utility.yul\":1290:1409   */\n      iszero\n      tag_286\n      jumpi\n        /* \"#utility.yul\":1328:1407   */\n      tag_287\n      tag_244\n      jump\t// in\n    tag_287:\n        /* \"#utility.yul\":1290:1409   */\n    tag_286:\n        /* \"#utility.yul\":1448:1449   */\n      0x00\n        /* \"#utility.yul\":1473:1526   */\n      tag_288\n        /* \"#utility.yul\":1518:1525   */\n      dup6\n        /* \"#utility.yul\":1509:1515   */\n      dup3\n        /* \"#utility.yul\":1498:1507   */\n      dup7\n        /* \"#utility.yul\":1494:1516   */\n      add\n        /* \"#utility.yul\":1473:1526   */\n      tag_248\n      jump\t// in\n    tag_288:\n        /* \"#utility.yul\":1463:1526   */\n      swap3\n      pop\n        /* \"#utility.yul\":1419:1536   */\n      pop\n        /* \"#utility.yul\":1575:1577   */\n      0x20\n        /* \"#utility.yul\":1601:1654   */\n      tag_289\n        /* \"#utility.yul\":1646:1653   */\n      dup6\n        /* \"#utility.yul\":1637:1643   */\n      dup3\n        /* \"#utility.yul\":1626:1635   */\n      dup7\n        /* \"#utility.yul\":1622:1644   */\n      add\n        /* \"#utility.yul\":1601:1654   */\n      tag_252\n      jump\t// in\n    tag_289:\n        /* \"#utility.yul\":1591:1654   */\n      swap2\n      pop\n        /* \"#utility.yul\":1546:1664   */\n      pop\n        /* \"#utility.yul\":1197:1671   */\n      swap3\n      pop\n      swap3\n      swap1\n      pop\n      jump\t// out\n        /* \"#utility.yul\":1677:1795   */\n    tag_253:\n        /* \"#utility.yul\":1764:1788   */\n      tag_291\n        /* \"#utility.yul\":1782:1787   */\n      dup2\n        /* \"#utility.yul\":1764:1788   */\n      tag_246\n      jump\t// in\n    tag_291:\n        /* \"#utility.yul\":1759:1762   */\n      dup3\n        /* \"#utility.yul\":1752:1789   */\n      mstore\n        /* \"#utility.yul\":1677:1795   */\n      pop\n      pop\n      jump\t// out\n        /* \"#utility.yul\":1801:2023   */\n    tag_32:\n        /* \"#utility.yul\":1894:1898   */\n      0x00\n        /* \"#utility.yul\":1932:1934   */\n      0x20\n        /* \"#utility.yul\":1921:1930   */\n      dup3\n        /* \"#utility.yul\":1917:1935   */\n      add\n        /* \"#utility.yul\":1909:1935   */\n      swap1\n      pop\n        /* \"#utility.yul\":1945:2016   */\n      tag_293\n        /* \"#utility.yul\":2013:2014   */\n      0x00\n        /* \"#utility.yul\":2002:2011   */\n      dup4\n        /* \"#utility.yul\":1998:2015   */\n      add\n        /* \"#utility.yul\":1989:1995   */\n      dup5\n        /* \"#utility.yul\":1945:2016   */\n      tag_253\n      jump\t// in\n    tag_293:\n        /* \"#utility.yul\":1801:2023   */\n      swap3\n      swap2\n      pop\n      pop\n      jump\t// out\n        /* \"#utility.yul\":2029:2358   */\n    tag_36:\n        /* \"#utility.yul\":2088:2094   */\n      0x00\n        /* \"#utility.yul\":2137:2139   */\n      0x20\n        /* \"#utility.yul\":2125:2134   */\n      dup3\n        /* \"#utility.yul\":2116:2123   */\n      dup5\n        /* \"#utility.yul\":2112:2135   */\n      sub\n        /* \"#utility.yul\":2108:2140   */\n      slt\n        /* \"#utility.yul\":2105:2224   */\n      iszero\n      tag_295\n      jumpi\n        /* \"#utility.yul\":2143:2222   */\n      tag_296\n      tag_244\n      jump\t// in\n    tag_296:\n        /* \"#utility.yul\":2105:2224   */\n    tag_295:\n        /* \"#utility.yul\":2263:2264   */\n      0x00\n        /* \"#utility.yul\":2288:2341   */\n      tag_297\n        /* \"#utility.yul\":2333:2340   */\n      dup5\n        /* \"#utility.yul\":2324:2330   */\n      dup3\n        /* \"#utility.yul\":2313:2322   */\n      dup6\n        /* \"#utility.yul\":2309:2331   */\n      add\n        /* \"#utility.yul\":2288:2341   */\n      tag_248\n      jump\t// in\n    tag_297:\n        /* \"#utility.yul\":2278:2341   */\n      swap2\n      pop\n        /* \"#utility.yul\":2234:2351   */\n      pop\n        /* \"#utility.yul\":2029:2358   */\n      swap3\n      swap2\n      pop\n      pop\n      jump\t// out\n        /* \"#utility.yul\":2364:2696   */\n    tag_39:\n        /* \"#utility.yul\":2485:2489   */\n      0x00\n        /* \"#utility.yul\":2523:2525   */\n      0x40\n        /* \"#utility.yul\":2512:2521   */\n      dup3\n        /* \"#utility.yul\":2508:2526   */\n      add\n        /* \"#utility.yul\":2500:2526   */\n      swap1\n      pop\n        /* \"#utility.yul\":2536:2607   */\n      tag_299\n        /* \"#utility.yul\":2604:2605   */\n      0x00\n        /* \"#utility.yul\":2593:2602   */\n      dup4\n        /* \"#utility.yul\":2589:2606   */\n      add\n        /* \"#utility.yul\":2580:2586   */\n      dup6\n        /* \"#utility.yul\":2536:2607   */\n      tag_253\n      jump\t// in\n    tag_299:\n        /* \"#utility.yul\":2617:2689   */\n      tag_300\n        /* \"#utility.yul\":2685:2687   */\n      0x20\n        /* \"#utility.yul\":2674:2683   */\n      dup4\n        /* \"#utility.yul\":2670:2688   */\n      add\n        /* \"#utility.yul\":2661:2667   */\n      dup5\n        /* \"#utility.yul\":2617:2689   */\n      tag_253\n      jump\t// in\n    tag_300:\n        /* \"#utility.yul\":2364:2696   */\n      swap4\n      swap3\n      pop\n      pop\n      pop\n      jump\t// out\n        /* \"#utility.yul\":2702:3031   */\n    tag_84:\n        /* \"#utility.yul\":2761:2767   */\n      0x00\n        /* \"#utility.yul\":2810:2812   */\n      0x20\n        /* \"#utility.yul\":2798:2807   */\n      dup3\n        /* \"#utility.yul\":2789:2796   */\n      dup5\n        /* \"#utility.yul\":2785:2808   */\n      sub\n        /* \"#utility.yul\":2781:2813   */\n      slt\n        /* \"#utility.yul\":2778:2897   */\n      iszero\n      tag_302\n      jumpi\n        /* \"#utility.yul\":2816:2895   */\n      tag_303\n      tag_244\n      jump\t// in\n    tag_303:\n        /* \"#utility.yul\":2778:2897   */\n    tag_302:\n        /* \"#utility.yul\":2936:2937   */\n      0x00\n        /* \"#utility.yul\":2961:3014   */\n      tag_304\n        /* \"#utility.yul\":3006:3013   */\n      dup5\n        /* \"#utility.yul\":2997:3003   */\n      dup3\n        /* \"#utility.yul\":2986:2995   */\n      dup6\n        /* \"#utility.yul\":2982:3004   */\n      add\n        /* \"#utility.yul\":2961:3014   */\n      tag_252\n      jump\t// in\n    tag_304:\n        /* \"#utility.yul\":2951:3014   */\n      swap2\n      pop\n        /* \"#utility.yul\":2907:3024   */\n      pop\n        /* \"#utility.yul\":2702:3031   */\n      swap3\n      swap2\n      pop\n      pop\n      jump\t// out\n        /* \"#utility.yul\":3037:3511   */\n    tag_89:\n        /* \"#utility.yul\":3105:3111   */\n      0x00\n        /* \"#utility.yul\":3113:3119   */\n      dup1\n        /* \"#utility.yul\":3162:3164   */\n      0x40\n        /* \"#utility.yul\":3150:3159   */\n      dup4\n        /* \"#utility.yul\":3141:3148   */\n      dup6\n        /* \"#utility.yul\":3137:3160   */\n      sub\n        /* \"#utility.yul\":3133:3165   */\n      slt\n        /* \"#utility.yul\":3130:3249   */\n      iszero\n      tag_306\n      jumpi\n        /* \"#utility.yul\":3168:3247   */\n      tag_307\n      tag_244\n      jump\t// in\n    tag_307:\n        /* \"#utility.yul\":3130:3249   */\n    tag_306:\n        /* \"#utility.yul\":3288:3289   */\n      0x00\n        /* \"#utility.yul\":3313:3366   */\n      tag_308\n        /* \"#utility.yul\":3358:3365   */\n      dup6\n        /* \"#utility.yul\":3349:3355   */\n      dup3\n        /* \"#utility.yul\":3338:3347   */\n      dup7\n        /* \"#utility.yul\":3334:3356   */\n      add\n        /* \"#utility.yul\":3313:3366   */\n      tag_252\n      jump\t// in\n    tag_308:\n        /* \"#utility.yul\":3303:3366   */\n      swap3\n      pop\n        /* \"#utility.yul\":3259:3376   */\n      pop\n        /* \"#utility.yul\":3415:3417   */\n      0x20\n        /* \"#utility.yul\":3441:3494   */\n      tag_309\n        /* \"#utility.yul\":3486:3493   */\n      dup6\n        /* \"#utility.yul\":3477:3483   */\n      dup3\n        /* \"#utility.yul\":3466:3475   */\n      dup7\n        /* \"#utility.yul\":3462:3484   */\n      add\n        /* \"#utility.yul\":3441:3494   */\n      tag_248\n      jump\t// in\n    tag_309:\n        /* \"#utility.yul\":3431:3494   */\n      swap2\n      pop\n        /* \"#utility.yul\":3386:3504   */\n      pop\n        /* \"#utility.yul\":3037:3511   */\n      swap3\n      pop\n      swap3\n      swap1\n      pop\n      jump\t// out\n        /* \"#utility.yul\":3517:3697   */\n    tag_254:\n        /* \"#utility.yul\":3565:3642   */\n      0x4e487b7100000000000000000000000000000000000000000000000000000000\n        /* \"#utility.yul\":3562:3563   */\n      0x00\n        /* \"#utility.yul\":3555:3643   */\n      mstore\n        /* \"#utility.yul\":3662:3666   */\n      0x11\n        /* \"#utility.yul\":3659:3660   */\n      0x04\n        /* \"#utility.yul\":3652:3667   */\n      mstore\n        /* \"#utility.yul\":3686:3690   */\n      0x24\n        /* \"#utility.yul\":3683:3684   */\n      0x00\n        /* \"#utility.yul\":3676:3691   */\n      revert\n        /* \"#utility.yul\":3703:4051   */\n    tag_103:\n        /* \"#utility.yul\":3743:3750   */\n      0x00\n        /* \"#utility.yul\":3766:3786   */\n      tag_312\n        /* \"#utility.yul\":3784:3785   */\n      dup3\n        /* \"#utility.yul\":3766:3786   */\n      tag_246\n      jump\t// in\n    tag_312:\n        /* \"#utility.yul\":3761:3786   */\n      swap2\n      pop\n        /* \"#utility.yul\":3800:3820   */\n      tag_313\n        /* \"#utility.yul\":3818:3819   */\n      dup4\n        /* \"#utility.yul\":3800:3820   */\n      tag_246\n      jump\t// in\n    tag_313:\n        /* \"#utility.yul\":3795:3820   */\n      swap3\n      pop\n        /* \"#utility.yul\":3988:3989   */\n      dup2\n        /* \"#utility.yul\":3920:3986   */\n      0xffffffffffffffffffffffffffffffffffffffffffffffffffffffffffffffff\n        /* \"#utility.yul\":3916:3990   */\n      div\n        /* \"#utility.yul\":3913:3914   */\n      dup4\n        /* \"#utility.yul\":3910:3991   */\n      gt\n        /* \"#utility.yul\":3905:3906   */\n      dup3\n        /* \"#utility.yul\":3898:3907   */\n      iszero\n        /* \"#utility.yul\":3891:3908   */\n      iszero\n        /* \"#utility.yul\":3887:3992   */\n      and\n        /* \"#utility.yul\":3884:4015   */\n      iszero\n      tag_314\n      jumpi\n        /* \"#utility.yul\":3995:4013   */\n      tag_315\n      tag_254\n      jump\t// in\n    tag_315:\n        /* \"#utility.yul\":3884:4015   */\n    tag_314:\n        /* \"#utility.yul\":4043:4044   */\n      dup3\n        /* \"#utility.yul\":4040:4041   */\n      dup3\n        /* \"#utility.yul\":4036:4045   */\n      mul\n        /* \"#utility.yul\":4025:4045   */\n      swap1\n      pop\n        /* \"#utility.yul\":3703:4051   */\n      swap3\n      swap2\n      pop\n      pop\n      jump\t// out\n        /* \"#utility.yul\":4057:4237   */\n    tag_255:\n        /* \"#utility.yul\":4105:4182   */\n      0x4e487b7100000000000000000000000000000000000000000000000000000000\n        /* \"#utility.yul\":4102:4103   */\n      0x00\n        /* \"#utility.yul\":4095:4183   */\n      mstore\n        /* \"#utility.yul\":4202:4206   */\n      0x12\n        /* \"#utility.yul\":4199:4200   */\n      0x04\n        /* \"#utility.yul\":4192:4207   */\n      mstore\n        /* \"#utility.yul\":4226:4230   */\n      0x24\n        /* \"#utility.yul\":4223:4224   */\n      0x00\n        /* \"#utility.yul\":4216:4231   */\n      revert\n        /* \"#utility.yul\":4243:4428   */\n    tag_105:\n        /* \"#utility.yul\":4283:4284   */\n      0x00\n        /* \"#utility.yul\":4300:4320   */\n      tag_318\n        /* \"#utility.yul\":4318:4319   */\n      dup3\n        /* \"#utility.yul\":4300:4320   */\n      tag_246\n      jump\t// in\n    tag_318:\n        /* \"#utility.yul\":4295:4320   */\n      swap2\n      pop\n        /* \"#utility.yul\":4334:4354   */\n      tag_319\n        /* \"#utility.yul\":4352:4353   */\n      dup4\n        /* \"#utility.yul\":4334:4354   */\n      tag_246\n      jump\t// in\n    tag_319:\n        /* \"#utility.yul\":4329:4354   */\n      swap3\n      pop\n        /* \"#utility.yul\":4373:4374   */\n      dup3\n        /* \"#utility.yul\":4363:4398   */\n      tag_320\n      jumpi\n        /* \"#utility.yul\":4378:4396   */\n      tag_321\n      tag_255\n      jump\t// in\n    tag_321:\n        /* \"#utility.yul\":4363:4398   */\n    tag_320:\n        /* \"#utility.yul\":4420:4421   */\n      dup3\n        /* \"#utility.yul\":4417:4418   */\n      dup3\n        /* \"#utility.yul\":4413:4422   */\n      div\n        /* \"#utility.yul\":4408:4422   */\n      swap1\n      pop\n        /* \"#utility.yul\":4243:4428   */\n      swap3\n      swap2\n      pop\n      pop\n      jump\t// out\n        /* \"#utility.yul\":4434:4552   */\n    tag_256:\n        /* \"#utility.yul\":4521:4545   */\n      tag_323\n        /* \"#utility.yul\":4539:4544   */\n      dup2\n        /* \"#utility.yul\":4521:4545   */\n      tag_250\n      jump\t// in\n    tag_323:\n        /* \"#utility.yul\":4516:4519   */\n      dup3\n        /* \"#utility.yul\":4509:4546   */\n      mstore\n        /* \"#utility.yul\":4434:4552   */\n      pop\n      pop\n      jump\t// out\n        /* \"#utility.yul\":4558:4780   */\n    tag_107:\n        /* \"#utility.yul\":4651:4655   */\n      0x00\n        /* \"#utility.yul\":4689:4691   */\n      0x20\n        /* \"#utility.yul\":4678:4687   */\n      dup3\n        /* \"#utility.yul\":4674:4692   */\n      add\n        /* \"#utility.yul\":4666:4692   */\n      swap1\n      pop\n        /* \"#utility.yul\":4702:4773   */\n      tag_325\n        /* \"#utility.yul\":4770:4771   */\n      0x00\n        /* \"#utility.yul\":4759:4768   */\n      dup4\n        /* \"#utility.yul\":4755:4772   */\n      add\n        /* \"#utility.yul\":4746:4752   */\n      dup5\n        /* \"#utility.yul\":4702:4773   */\n      tag_256\n      jump\t// in\n    tag_325:\n        /* \"#utility.yul\":4558:4780   */\n      swap3\n      swap2\n      pop\n      pop\n      jump\t// out\n        /* \"#utility.yul\":4786:4929   */\n    tag_257:\n        /* \"#utility.yul\":4843:4848   */\n      0x00\n        /* \"#utility.yul\":4874:4880   */\n      dup2\n        /* \"#utility.yul\":4868:4881   */\n      mload\n        /* \"#utility.yul\":4859:4881   */\n      swap1\n      pop\n        /* \"#utility.yul\":4890:4923   */\n      tag_327\n        /* \"#utility.yul\":4917:4922   */\n      dup2\n        /* \"#utility.yul\":4890:4923   */\n      tag_247\n      jump\t// in\n    tag_327:\n        /* \"#utility.yul\":4786:4929   */\n      swap3\n      swap2\n      pop\n      pop\n      jump\t// out\n        /* \"#utility.yul\":4935:5286   */\n    tag_111:\n        /* \"#utility.yul\":5005:5011   */\n      0x00\n        /* \"#utility.yul\":5054:5056   */\n      0x20\n        /* \"#utility.yul\":5042:5051   */\n      dup3\n        /* \"#utility.yul\":5033:5040   */\n      dup5\n        /* \"#utility.yul\":5029:5052   */\n      sub\n        /* \"#utility.yul\":5025:5057   */\n      slt\n        /* \"#utility.yul\":5022:5141   */\n      iszero\n      tag_329\n      jumpi\n        /* \"#utility.yul\":5060:5139   */\n      tag_330\n      tag_244\n      jump\t// in\n    tag_330:\n        /* \"#utility.yul\":5022:5141   */\n    tag_329:\n        /* \"#utility.yul\":5180:5181   */\n      0x00\n        /* \"#utility.yul\":5205:5269   */\n      tag_331\n        /* \"#utility.yul\":5261:5268   */\n      dup5\n        /* \"#utility.yul\":5252:5258   */\n      dup3\n        /* \"#utility.yul\":5241:5250   */\n      dup6\n        /* \"#utility.yul\":5237:5259   */\n      add\n        /* \"#utility.yul\":5205:5269   */\n      tag_257\n      jump\t// in\n    tag_331:\n        /* \"#utility.yul\":5195:5269   */\n      swap2\n      pop\n        /* \"#utility.yul\":5151:5279   */\n      pop\n        /* \"#utility.yul\":4935:5286   */\n      swap3\n      swap2\n      pop\n      pop\n      jump\t// out\n        /* \"#utility.yul\":5292:5483   */\n    tag_115:\n        /* \"#utility.yul\":5332:5336   */\n      0x00\n        /* \"#utility.yul\":5352:5372   */\n      tag_333\n        /* \"#utility.yul\":5370:5371   */\n      dup3\n        /* \"#utility.yul\":5352:5372   */\n      tag_246\n      jump\t// in\n    tag_333:\n        /* \"#utility.yul\":5347:5372   */\n      swap2\n      pop\n        /* \"#utility.yul\":5386:5406   */\n      tag_334\n        /* \"#utility.yul\":5404:5405   */\n      dup4\n        /* \"#utility.yul\":5386:5406   */\n      tag_246\n      jump\t// in\n    tag_334:\n        /* \"#utility.yul\":5381:5406   */\n      swap3\n      pop\n        /* \"#utility.yul\":5425:5426   */\n      dup3\n        /* \"#utility.yul\":5422:5423   */\n      dup3\n        /* \"#utility.yul\":5419:5427   */\n      lt\n        /* \"#utility.yul\":5416:5450   */\n      iszero\n      tag_335\n      jumpi\n        /* \"#utility.yul\":5430:5448   */\n      tag_336\n      tag_254\n      jump\t// in\n    tag_336:\n        /* \"#utility.yul\":5416:5450   */\n    tag_335:\n        /* \"#utility.yul\":5475:5476   */\n      dup3\n        /* \"#utility.yul\":5472:5473   */\n      dup3\n        /* \"#utility.yul\":5468:5477   */\n      sub\n        /* \"#utility.yul\":5460:5477   */\n      swap1\n      pop\n        /* \"#utility.yul\":5292:5483   */\n      swap3\n      swap2\n      pop\n      pop\n      jump\t// out\n        /* \"#utility.yul\":5489:5636   */\n    tag_258:\n        /* \"#utility.yul\":5590:5601   */\n      0x00\n        /* \"#utility.yul\":5627:5630   */\n      dup2\n        /* \"#utility.yul\":5612:5630   */\n      swap1\n      pop\n        /* \"#utility.yul\":5489:5636   */\n      swap3\n      swap2\n      pop\n      pop\n      jump\t// out\n        /* \"#utility.yul\":5642:5756   */\n    tag_259:\n      pop\n      jump\t// out\n        /* \"#utility.yul\":5762:6160   */\n    tag_260:\n        /* \"#utility.yul\":5921:5924   */\n      0x00\n        /* \"#utility.yul\":5942:6025   */\n      tag_340\n        /* \"#utility.yul\":6023:6024   */\n      0x00\n        /* \"#utility.yul\":6018:6021   */\n      dup4\n        /* \"#utility.yul\":5942:6025   */\n      tag_258\n      jump\t// in\n    tag_340:\n        /* \"#utility.yul\":5935:6025   */\n      swap2\n      pop\n        /* \"#utility.yul\":6034:6127   */\n      tag_341\n        /* \"#utility.yul\":6123:6126   */\n      dup3\n        /* \"#utility.yul\":6034:6127   */\n      tag_259\n      jump\t// in\n    tag_341:\n        /* \"#utility.yul\":6152:6153   */\n      0x00\n        /* \"#utility.yul\":6147:6150   */\n      dup3\n        /* \"#utility.yul\":6143:6154   */\n      add\n        /* \"#utility.yul\":6136:6154   */\n      swap1\n      pop\n        /* \"#utility.yul\":5762:6160   */\n      swap2\n      swap1\n      pop\n      jump\t// out\n        /* \"#utility.yul\":6166:6545   */\n    tag_117:\n        /* \"#utility.yul\":6350:6353   */\n      0x00\n        /* \"#utility.yul\":6372:6519   */\n      tag_343\n        /* \"#utility.yul\":6515:6518   */\n      dup3\n        /* \"#utility.yul\":6372:6519   */\n      tag_260\n      jump\t// in\n    tag_343:\n        /* \"#utility.yul\":6365:6519   */\n      swap2\n      pop\n        /* \"#utility.yul\":6536:6539   */\n      dup2\n        /* \"#utility.yul\":6529:6539   */\n      swap1\n      pop\n        /* \"#utility.yul\":6166:6545   */\n      swap2\n      swap1\n      pop\n      jump\t// out\n        /* \"#utility.yul\":6551:6720   */\n    tag_261:\n        /* \"#utility.yul\":6635:6646   */\n      0x00\n        /* \"#utility.yul\":6669:6675   */\n      dup3\n        /* \"#utility.yul\":6664:6667   */\n      dup3\n        /* \"#utility.yul\":6657:6676   */\n      mstore\n        /* \"#utility.yul\":6709:6713   */\n      0x20\n        /* \"#utility.yul\":6704:6707   */\n      dup3\n        /* \"#utility.yul\":6700:6714   */\n      add\n        /* \"#utility.yul\":6685:6714   */\n      swap1\n      pop\n        /* \"#utility.yul\":6551:6720   */\n      swap3\n      swap2\n      pop\n      pop\n      jump\t// out\n        /* \"#utility.yul\":6726:6892   */\n    tag_262:\n        /* \"#utility.yul\":6866:6884   */\n      0x5472616e73666572206661696c65642e00000000000000000000000000000000\n        /* \"#utility.yul\":6862:6863   */\n      0x00\n        /* \"#utility.yul\":6854:6860   */\n      dup3\n        /* \"#utility.yul\":6850:6864   */\n      add\n        /* \"#utility.yul\":6843:6885   */\n      mstore\n        /* \"#utility.yul\":6726:6892   */\n      pop\n      jump\t// out\n        /* \"#utility.yul\":6898:7264   */\n    tag_263:\n        /* \"#utility.yul\":7040:7043   */\n      0x00\n        /* \"#utility.yul\":7061:7128   */\n      tag_347\n        /* \"#utility.yul\":7125:7127   */\n      0x10\n        /* \"#utility.yul\":7120:7123   */\n      dup4\n        /* \"#utility.yul\":7061:7128   */\n      tag_261\n      jump\t// in\n    tag_347:\n        /* \"#utility.yul\":7054:7128   */\n      swap2\n      pop\n        /* \"#utility.yul\":7137:7230   */\n      tag_348\n        /* \"#utility.yul\":7226:7229   */\n      dup3\n        /* \"#utility.yul\":7137:7230   */\n      tag_262\n      jump\t// in\n    tag_348:\n        /* \"#utility.yul\":7255:7257   */\n      0x20\n        /* \"#utility.yul\":7250:7253   */\n      dup3\n        /* \"#utility.yul\":7246:7258   */\n      add\n        /* \"#utility.yul\":7239:7258   */\n      swap1\n      pop\n        /* \"#utility.yul\":6898:7264   */\n      swap2\n      swap1\n      pop\n      jump\t// out\n        /* \"#utility.yul\":7270:7689   */\n    tag_123:\n        /* \"#utility.yul\":7436:7440   */\n      0x00\n        /* \"#utility.yul\":7474:7476   */\n      0x20\n        /* \"#utility.yul\":7463:7472   */\n      dup3\n        /* \"#utility.yul\":7459:7477   */\n      add\n        /* \"#utility.yul\":7451:7477   */\n      swap1\n      pop\n        /* \"#utility.yul\":7523:7532   */\n      dup2\n        /* \"#utility.yul\":7517:7521   */\n      dup2\n        /* \"#utility.yul\":7513:7533   */\n      sub\n        /* \"#utility.yul\":7509:7510   */\n      0x00\n        /* \"#utility.yul\":7498:7507   */\n      dup4\n        /* \"#utility.yul\":7494:7511   */\n      add\n        /* \"#utility.yul\":7487:7534   */\n      mstore\n        /* \"#utility.yul\":7551:7682   */\n      tag_350\n        /* \"#utility.yul\":7677:7681   */\n      dup2\n        /* \"#utility.yul\":7551:7682   */\n      tag_263\n      jump\t// in\n    tag_350:\n        /* \"#utility.yul\":7543:7682   */\n      swap1\n      pop\n        /* \"#utility.yul\":7270:7689   */\n      swap2\n      swap1\n      pop\n      jump\t// out\n        /* \"#utility.yul\":7695:8027   */\n    tag_125:\n        /* \"#utility.yul\":7816:7820   */\n      0x00\n        /* \"#utility.yul\":7854:7856   */\n      0x40\n        /* \"#utility.yul\":7843:7852   */\n      dup3\n        /* \"#utility.yul\":7839:7857   */\n      add\n        /* \"#utility.yul\":7831:7857   */\n      swap1\n      pop\n        /* \"#utility.yul\":7867:7938   */\n      tag_352\n        /* \"#utility.yul\":7935:7936   */\n      0x00\n        /* \"#utility.yul\":7924:7933   */\n      dup4\n        /* \"#utility.yul\":7920:7937   */\n      add\n        /* \"#utility.yul\":7911:7917   */\n      dup6\n        /* \"#utility.yul\":7867:7938   */\n      tag_256\n      jump\t// in\n    tag_352:\n        /* \"#utility.yul\":7948:8020   */\n      tag_353\n        /* \"#utility.yul\":8016:8018   */\n      0x20\n        /* \"#utility.yul\":8005:8014   */\n      dup4\n        /* \"#utility.yul\":8001:8019   */\n      add\n        /* \"#utility.yul\":7992:7998   */\n      dup5\n        /* \"#utility.yul\":7948:8020   */\n      tag_253\n      jump\t// in\n    tag_353:\n        /* \"#utility.yul\":7695:8027   */\n      swap4\n      swap3\n      pop\n      pop\n      pop\n      jump\t// out\n        /* \"#utility.yul\":8033:8123   */\n    tag_264:\n        /* \"#utility.yul\":8067:8074   */\n      0x00\n        /* \"#utility.yul\":8110:8115   */\n      dup2\n        /* \"#utility.yul\":8103:8116   */\n      iszero\n        /* \"#utility.yul\":8096:8117   */\n      iszero\n        /* \"#utility.yul\":8085:8117   */\n      swap1\n      pop\n        /* \"#utility.yul\":8033:8123   */\n      swap2\n      swap1\n      pop\n      jump\t// out\n        /* \"#utility.yul\":8129:8245   */\n    tag_265:\n        /* \"#utility.yul\":8199:8220   */\n      tag_356\n        /* \"#utility.yul\":8214:8219   */\n      dup2\n        /* \"#utility.yul\":8199:8220   */\n      tag_264\n      jump\t// in\n    tag_356:\n        /* \"#utility.yul\":8192:8197   */\n      dup2\n        /* \"#utility.yul\":8189:8221   */\n      eq\n        /* \"#utility.yul\":8179:8239   */\n      tag_357\n      jumpi\n        /* \"#utility.yul\":8235:8236   */\n      0x00\n        /* \"#utility.yul\":8232:8233   */\n      dup1\n        /* \"#utility.yul\":8225:8237   */\n      revert\n        /* \"#utility.yul\":8179:8239   */\n    tag_357:\n        /* \"#utility.yul\":8129:8245   */\n      pop\n      jump\t// out\n        /* \"#utility.yul\":8251:8388   */\n    tag_266:\n        /* \"#utility.yul\":8305:8310   */\n      0x00\n        /* \"#utility.yul\":8336:8342   */\n      dup2\n        /* \"#utility.yul\":8330:8343   */\n      mload\n        /* \"#utility.yul\":8321:8343   */\n      swap1\n      pop\n        /* \"#utility.yul\":8352:8382   */\n      tag_359\n        /* \"#utility.yul\":8376:8381   */\n      dup2\n        /* \"#utility.yul\":8352:8382   */\n      tag_265\n      jump\t// in\n    tag_359:\n        /* \"#utility.yul\":8251:8388   */\n      swap3\n      swap2\n      pop\n      pop\n      jump\t// out\n        /* \"#utility.yul\":8394:8739   */\n    tag_129:\n        /* \"#utility.yul\":8461:8467   */\n      0x00\n        /* \"#utility.yul\":8510:8512   */\n      0x20\n        /* \"#utility.yul\":8498:8507   */\n      dup3\n        /* \"#utility.yul\":8489:8496   */\n      dup5\n        /* \"#utility.yul\":8485:8508   */\n      sub\n        /* \"#utility.yul\":8481:8513   */\n      slt\n        /* \"#utility.yul\":8478:8597   */\n      iszero\n      tag_361\n      jumpi\n        /* \"#utility.yul\":8516:8595   */\n      tag_362\n      tag_244\n      jump\t// in\n    tag_362:\n        /* \"#utility.yul\":8478:8597   */\n    tag_361:\n        /* \"#utility.yul\":8636:8637   */\n      0x00\n        /* \"#utility.yul\":8661:8722   */\n      tag_363\n        /* \"#utility.yul\":8714:8721   */\n      dup5\n        /* \"#utility.yul\":8705:8711   */\n      dup3\n        /* \"#utility.yul\":8694:8703   */\n      dup6\n        /* \"#utility.yul\":8690:8712   */\n      add\n        /* \"#utility.yul\":8661:8722   */\n      tag_266\n      jump\t// in\n    tag_363:\n        /* \"#utility.yul\":8651:8722   */\n      swap2\n      pop\n        /* \"#utility.yul\":8607:8732   */\n      pop\n        /* \"#utility.yul\":8394:8739   */\n      swap3\n      swap2\n      pop\n      pop\n      jump\t// out\n        /* \"#utility.yul\":8745:9050   */\n    tag_184:\n        /* \"#utility.yul\":8785:8788   */\n      0x00\n        /* \"#utility.yul\":8804:8824   */\n      tag_365\n        /* \"#utility.yul\":8822:8823   */\n      dup3\n        /* \"#utility.yul\":8804:8824   */\n      tag_246\n      jump\t// in\n    tag_365:\n        /* \"#utility.yul\":8799:8824   */\n      swap2\n      pop\n        /* \"#utility.yul\":8838:8858   */\n      tag_366\n        /* \"#utility.yul\":8856:8857   */\n      dup4\n        /* \"#utility.yul\":8838:8858   */\n      tag_246\n      jump\t// in\n    tag_366:\n        /* \"#utility.yul\":8833:8858   */\n      swap3\n      pop\n        /* \"#utility.yul\":8992:8993   */\n      dup3\n        /* \"#utility.yul\":8924:8990   */\n      0xffffffffffffffffffffffffffffffffffffffffffffffffffffffffffffffff\n        /* \"#utility.yul\":8920:8994   */\n      sub\n        /* \"#utility.yul\":8917:8918   */\n      dup3\n        /* \"#utility.yul\":8914:8995   */\n      gt\n        /* \"#utility.yul\":8911:9018   */\n      iszero\n      tag_367\n      jumpi\n        /* \"#utility.yul\":8998:9016   */\n      tag_368\n      tag_254\n      jump\t// in\n    tag_368:\n        /* \"#utility.yul\":8911:9018   */\n    tag_367:\n        /* \"#utility.yul\":9042:9043   */\n      dup3\n        /* \"#utility.yul\":9039:9040   */\n      dup3\n        /* \"#utility.yul\":9035:9044   */\n      add\n        /* \"#utility.yul\":9028:9044   */\n      swap1\n      pop\n        /* \"#utility.yul\":8745:9050   */\n      swap3\n      swap2\n      pop\n      pop\n      jump\t// out\n        /* \"#utility.yul\":9056:9498   */\n    tag_194:\n        /* \"#utility.yul\":9205:9209   */\n      0x00\n        /* \"#utility.yul\":9243:9245   */\n      0x60\n        /* \"#utility.yul\":9232:9241   */\n      dup3\n        /* \"#utility.yul\":9228:9246   */\n      add\n        /* \"#utility.yul\":9220:9246   */\n      swap1\n      pop\n        /* \"#utility.yul\":9256:9327   */\n      tag_370\n        /* \"#utility.yul\":9324:9325   */\n      0x00\n        /* \"#utility.yul\":9313:9322   */\n      dup4\n        /* \"#utility.yul\":9309:9326   */\n      add\n        /* \"#utility.yul\":9300:9306   */\n      dup7\n        /* \"#utility.yul\":9256:9327   */\n      tag_256\n      jump\t// in\n    tag_370:\n        /* \"#utility.yul\":9337:9409   */\n      tag_371\n        /* \"#utility.yul\":9405:9407   */\n      0x20\n        /* \"#utility.yul\":9394:9403   */\n      dup4\n        /* \"#utility.yul\":9390:9408   */\n      add\n        /* \"#utility.yul\":9381:9387   */\n      dup6\n        /* \"#utility.yul\":9337:9409   */\n      tag_256\n      jump\t// in\n    tag_371:\n        /* \"#utility.yul\":9419:9491   */\n      tag_372\n        /* \"#utility.yul\":9487:9489   */\n      0x40\n        /* \"#utility.yul\":9476:9485   */\n      dup4\n        /* \"#utility.yul\":9472:9490   */\n      add\n        /* \"#utility.yul\":9463:9469   */\n      dup5\n        /* \"#utility.yul\":9419:9491   */\n      tag_253\n      jump\t// in\n    tag_372:\n        /* \"#utility.yul\":9056:9498   */\n      swap5\n      swap4\n      pop\n      pop\n      pop\n      pop\n      jump\t// out\n\n    auxdata: 0xa264697066735822122066c5ac1e78e3f3b53de8c82ca0ad35fff058882813409a8b19f43c6572a9099c64736f6c634300080f0033\n}\n",
				"bytecode": {
					"linkReferences": {},
					"object": "608060405234801561001057600080fd5b506118a9806100206000396000f3fe6080604052600436106101085760003560e01c806374942c0f11610095578063b8c876b111610064578063b8c876b114610363578063cd6dc687146103a0578063d0e30db0146103bc578063ddca3f43146103c6578063debc674c146103f157610108565b806374942c0f146102d85780637937c03d1461030357806382b2e2571461030d5780638666107c1461033857610108565b806338a880ec116100dc57806338a880ec146101ca5780635f244d4e146101f557806367da263d14610233578063707e7e871461027057806372a9d1241461029b57610108565b8062f714ce1461010d57806312065fe0146101365780631eb928aa1461016157806331f3bd281461019f575b600080fd5b34801561011957600080fd5b50610134600480360381019061012f91906113df565b61041a565b005b34801561014257600080fd5b5061014b6106a7565b604051610158919061142e565b60405180910390f35b34801561016d57600080fd5b5061018860048036038101906101839190611449565b6106af565b604051610196929190611476565b60405180910390f35b3480156101ab57600080fd5b506101b4610792565b6040516101c1919061142e565b60405180910390f35b3480156101d657600080fd5b506101df610798565b6040516101ec919061142e565b60405180910390f35b34801561020157600080fd5b5061021c60048036038101906102179190611449565b610811565b60405161022a929190611476565b60405180910390f35b34801561023f57600080fd5b5061025a60048036038101906102559190611449565b6108f2565b604051610267919061142e565b60405180910390f35b34801561027c57600080fd5b5061028561099f565b604051610292919061142e565b60405180910390f35b3480156102a757600080fd5b506102c260048036038101906102bd9190611449565b6109a5565b6040516102cf919061142e565b60405180910390f35b3480156102e457600080fd5b506102ed610a5d565b6040516102fa919061142e565b60405180910390f35b61030b610a63565b005b34801561031957600080fd5b50610322610c23565b60405161032f919061142e565b60405180910390f35b34801561034457600080fd5b5061034d610cc5565b60405161035a919061142e565b60405180910390f35b34801561036f57600080fd5b5061038a6004803603810190610385919061149f565b610ccb565b604051610397919061142e565b60405180910390f35b6103ba60048036038101906103b591906114cc565b610ce3565b005b6103c4610e6d565b005b3480156103d257600080fd5b506103db6110ae565b6040516103e8919061142e565b60405180910390f35b3480156103fd57600080fd5b5061041860048036038101906104139190611449565b6110b4565b005b6000600154478461042b919061153b565b61043591906115c4565b9050600060015460008054906101000a900473ffffffffffffffffffffffffffffffffffffffff1673ffffffffffffffffffffffffffffffffffffffff166370a08231306040518263ffffffff1660e01b81526004016104959190611604565b602060405180830381865afa1580156104b2573d6000803e3d6000fd5b505050506040513d601f19601f820116820180604052508101906104d69190611634565b856104e1919061153b565b6104eb91906115c4565b905081600160008282546104ff9190611661565b9250508190555060008373ffffffffffffffffffffffffffffffffffffffff168360405161052c906116c6565b60006040518083038185875af1925050503d8060008114610569576040519150601f19603f3d011682016040523d82523d6000602084013e61056e565b606091505b50509050806105b2576040517f08c379a00000000000000000000000000000000000000000000000000000000081526004016105a990611738565b60405180910390fd5b60008054906101000a900473ffffffffffffffffffffffffffffffffffffffff1673ffffffffffffffffffffffffffffffffffffffff1663a9059cbb85846040518363ffffffff1660e01b815260040161060d929190611758565b6020604051808303816000875af115801561062c573d6000803e3d6000fd5b505050506040513d601f19601f8201168201806040525081019061065091906117b9565b61065957600080fd5b7f56ca301a9219608c91e7bcee90e083c19671d2cdcc96752c7af291cee5f9c8c8838360405161068a929190611476565b60405180910390a182600581905550816004819055505050505050565b600047905090565b600080600060015447856106c3919061153b565b6106cd91906115c4565b9050600060015460008054906101000a900473ffffffffffffffffffffffffffffffffffffffff1673ffffffffffffffffffffffffffffffffffffffff166370a08231306040518263ffffffff1660e01b815260040161072d9190611604565b602060405180830381865afa15801561074a573d6000803e3d6000fd5b505050506040513d601f19601f8201168201806040525081019061076e9190611634565b86610779919061153b565b61078391906115c4565b90508181935093505050915091565b60015481565b60006001546103e860038060003373ffffffffffffffffffffffffffffffffffffffff1673ffffffffffffffffffffffffffffffffffffffff168152602001908152602001600020546002546107ee919061153b565b6107f8919061153b565b61080291906115c4565b61080c91906115c4565b905090565b60008060004760008054906101000a900473ffffffffffffffffffffffffffffffffffffffff1673ffffffffffffffffffffffffffffffffffffffff166370a08231306040518263ffffffff1660e01b81526004016108709190611604565b602060405180830381865afa15801561088d573d6000803e3d6000fd5b505050506040513d601f19601f820116820180604052508101906108b19190611634565b856108bc919061153b565b6108c691906115c4565b9050600047600154866108d9919061153b565b6108e391906115c4565b90508181935093505050915091565b60006109988260008054906101000a900473ffffffffffffffffffffffffffffffffffffffff1673ffffffffffffffffffffffffffffffffffffffff166370a08231306040518263ffffffff1660e01b81526004016109519190611604565b602060405180830381865afa15801561096e573d6000803e3d6000fd5b505050506040513d601f19601f820116820180604052508101906109929190611634565b47611319565b9050919050565b60065481565b6000610a568283476109b79190611661565b60008054906101000a900473ffffffffffffffffffffffffffffffffffffffff1673ffffffffffffffffffffffffffffffffffffffff166370a08231306040518263ffffffff1660e01b8152600401610a109190611604565b602060405180830381865afa158015610a2d573d6000803e3d6000fd5b505050506040513d601f19601f82011682018060405250810190610a519190611634565b611319565b9050919050565b60045481565b6000610b14343447610a759190611661565b60008054906101000a900473ffffffffffffffffffffffffffffffffffffffff1673ffffffffffffffffffffffffffffffffffffffff166370a08231306040518263ffffffff1660e01b8152600401610ace9190611604565b602060405180830381865afa158015610aeb573d6000803e3d6000fd5b505050506040513d601f19601f82011682018060405250810190610b0f9190611634565b611319565b905060008054906101000a900473ffffffffffffffffffffffffffffffffffffffff1673ffffffffffffffffffffffffffffffffffffffff1663a9059cbb32836040518363ffffffff1660e01b8152600401610b71929190611758565b6020604051808303816000875af1158015610b90573d6000803e3d6000fd5b505050506040513d601f19601f82011682018060405250810190610bb491906117b9565b610bbd57600080fd5b346003610bca919061153b565b60026000828254610bdb91906117e6565b925050819055507fdb04c7a6d4758fd55d738ebc67e7f3010ac922be00771ef29521a4090d1eb13f81604051610c11919061142e565b60405180910390a18060048190555050565b60008060009054906101000a900473ffffffffffffffffffffffffffffffffffffffff1673ffffffffffffffffffffffffffffffffffffffff166370a08231306040518263ffffffff1660e01b8152600401610c7f9190611604565b602060405180830381865afa158015610c9c573d6000803e3d6000fd5b505050506040513d601f19601f82011682018060405250810190610cc09190611634565b905090565b60055481565b60036020528060005260406000206000915090505481565b600060015414610cf257600080fd5b6000600281905550816000806101000a81548173ffffffffffffffffffffffffffffffffffffffff021916908373ffffffffffffffffffffffffffffffffffffffff16021790555047600181905550600154600360003373ffffffffffffffffffffffffffffffffffffffff1673ffffffffffffffffffffffffffffffffffffffff1681526020019081526020016000208190555060008054906101000a900473ffffffffffffffffffffffffffffffffffffffff1673ffffffffffffffffffffffffffffffffffffffff166323b872dd3330846040518463ffffffff1660e01b8152600401610de49392919061183c565b6020604051808303816000875af1158015610e03573d6000803e3d6000fd5b505050506040513d601f19601f82011682018060405250810190610e2791906117b9565b610e3057600080fd5b7fc43e48cf47e9fa186d0f4096c61d1fcb54159799f935a2aa32e5589688ee36e1600154604051610e61919061142e565b60405180910390a15050565b60003447610e7b9190611661565b60008054906101000a900473ffffffffffffffffffffffffffffffffffffffff1673ffffffffffffffffffffffffffffffffffffffff166370a08231306040518263ffffffff1660e01b8152600401610ed49190611604565b602060405180830381865afa158015610ef1573d6000803e3d6000fd5b505050506040513d601f19601f82011682018060405250810190610f159190611634565b34610f20919061153b565b610f2a91906115c4565b905060003447610f3a9190611661565b60015434610f48919061153b565b610f5291906115c4565b905080600360003273ffffffffffffffffffffffffffffffffffffffff1673ffffffffffffffffffffffffffffffffffffffff1681526020019081526020016000206000828254610fa391906117e6565b925050819055508060016000828254610fbc91906117e6565b9250508190555060008054906101000a900473ffffffffffffffffffffffffffffffffffffffff1673ffffffffffffffffffffffffffffffffffffffff166323b872dd3230856040518463ffffffff1660e01b81526004016110209392919061183c565b6020604051808303816000875af115801561103f573d6000803e3d6000fd5b505050506040513d601f19601f8201168201806040525081019061106391906117b9565b61106c57600080fd5b7f4d6ce1e535dbade1c23defba91e23b8f791ce5edc0cc320257a2b364e4e384268160405161109b919061142e565b60405180910390a1806006819055505050565b60025481565b600061115a8260008054906101000a900473ffffffffffffffffffffffffffffffffffffffff1673ffffffffffffffffffffffffffffffffffffffff166370a08231306040518263ffffffff1660e01b81526004016111139190611604565b602060405180830381865afa158015611130573d6000803e3d6000fd5b505050506040513d601f19601f820116820180604052508101906111549190611634565b47611319565b905060003273ffffffffffffffffffffffffffffffffffffffff1682604051611182906116c6565b60006040518083038185875af1925050503d80600081146111bf576040519150601f19603f3d011682016040523d82523d6000602084013e6111c4565b606091505b5050905080611208576040517f08c379a00000000000000000000000000000000000000000000000000000000081526004016111ff90611738565b60405180910390fd5b60008054906101000a900473ffffffffffffffffffffffffffffffffffffffff1673ffffffffffffffffffffffffffffffffffffffff166323b872dd3230866040518463ffffffff1660e01b81526004016112659392919061183c565b6020604051808303816000875af1158015611284573d6000803e3d6000fd5b505050506040513d601f19601f820116820180604052508101906112a891906117b9565b6112b157600080fd5b8160036112be919061153b565b600260008282546112cf91906117e6565b925050819055507f4dbf3a71a7c7262f432c2cad7808225832255d07f7d8ab85117677c0b5c0a85082604051611305919061142e565b60405180910390a181600581905550505050565b6000838361132791906117e6565b8285611333919061153b565b61133d91906115c4565b90509392505050565b600080fd5b6000819050919050565b61135e8161134b565b811461136957600080fd5b50565b60008135905061137b81611355565b92915050565b600073ffffffffffffffffffffffffffffffffffffffff82169050919050565b60006113ac82611381565b9050919050565b6113bc816113a1565b81146113c757600080fd5b50565b6000813590506113d9816113b3565b92915050565b600080604083850312156113f6576113f5611346565b5b60006114048582860161136c565b9250506020611415858286016113ca565b9150509250929050565b6114288161134b565b82525050565b6000602082019050611443600083018461141f565b92915050565b60006020828403121561145f5761145e611346565b5b600061146d8482850161136c565b91505092915050565b600060408201905061148b600083018561141f565b611498602083018461141f565b9392505050565b6000602082840312156114b5576114b4611346565b5b60006114c3848285016113ca565b91505092915050565b600080604083850312156114e3576114e2611346565b5b60006114f1858286016113ca565b92505060206115028582860161136c565b9150509250929050565b7f4e487b7100000000000000000000000000000000000000000000000000000000600052601160045260246000fd5b60006115468261134b565b91506115518361134b565b9250817fffffffffffffffffffffffffffffffffffffffffffffffffffffffffffffffff048311821515161561158a5761158961150c565b5b828202905092915050565b7f4e487b7100000000000000000000000000000000000000000000000000000000600052601260045260246000fd5b60006115cf8261134b565b91506115da8361134b565b9250826115ea576115e9611595565b5b828204905092915050565b6115fe816113a1565b82525050565b600060208201905061161960008301846115f5565b92915050565b60008151905061162e81611355565b92915050565b60006020828403121561164a57611649611346565b5b60006116588482850161161f565b91505092915050565b600061166c8261134b565b91506116778361134b565b92508282101561168a5761168961150c565b5b828203905092915050565b600081905092915050565b50565b60006116b0600083611695565b91506116bb826116a0565b600082019050919050565b60006116d1826116a3565b9150819050919050565b600082825260208201905092915050565b7f5472616e73666572206661696c65642e00000000000000000000000000000000600082015250565b60006117226010836116db565b915061172d826116ec565b602082019050919050565b6000602082019050818103600083015261175181611715565b9050919050565b600060408201905061176d60008301856115f5565b61177a602083018461141f565b9392505050565b60008115159050919050565b61179681611781565b81146117a157600080fd5b50565b6000815190506117b38161178d565b92915050565b6000602082840312156117cf576117ce611346565b5b60006117dd848285016117a4565b91505092915050565b60006117f18261134b565b91506117fc8361134b565b9250827fffffffffffffffffffffffffffffffffffffffffffffffffffffffffffffffff038211156118315761183061150c565b5b828201905092915050565b600060608201905061185160008301866115f5565b61185e60208301856115f5565b61186b604083018461141f565b94935050505056fea264697066735822122066c5ac1e78e3f3b53de8c82ca0ad35fff058882813409a8b19f43c6572a9099c64736f6c634300080f0033",
					"opcodes": "PUSH1 0x80 PUSH1 0x40 MSTORE CALLVALUE DUP1 ISZERO PUSH2 0x10 JUMPI PUSH1 0x0 DUP1 REVERT JUMPDEST POP PUSH2 0x18A9 DUP1 PUSH2 0x20 PUSH1 0x0 CODECOPY PUSH1 0x0 RETURN INVALID PUSH1 0x80 PUSH1 0x40 MSTORE PUSH1 0x4 CALLDATASIZE LT PUSH2 0x108 JUMPI PUSH1 0x0 CALLDATALOAD PUSH1 0xE0 SHR DUP1 PUSH4 0x74942C0F GT PUSH2 0x95 JUMPI DUP1 PUSH4 0xB8C876B1 GT PUSH2 0x64 JUMPI DUP1 PUSH4 0xB8C876B1 EQ PUSH2 0x363 JUMPI DUP1 PUSH4 0xCD6DC687 EQ PUSH2 0x3A0 JUMPI DUP1 PUSH4 0xD0E30DB0 EQ PUSH2 0x3BC JUMPI DUP1 PUSH4 0xDDCA3F43 EQ PUSH2 0x3C6 JUMPI DUP1 PUSH4 0xDEBC674C EQ PUSH2 0x3F1 JUMPI PUSH2 0x108 JUMP JUMPDEST DUP1 PUSH4 0x74942C0F EQ PUSH2 0x2D8 JUMPI DUP1 PUSH4 0x7937C03D EQ PUSH2 0x303 JUMPI DUP1 PUSH4 0x82B2E257 EQ PUSH2 0x30D JUMPI DUP1 PUSH4 0x8666107C EQ PUSH2 0x338 JUMPI PUSH2 0x108 JUMP JUMPDEST DUP1 PUSH4 0x38A880EC GT PUSH2 0xDC JUMPI DUP1 PUSH4 0x38A880EC EQ PUSH2 0x1CA JUMPI DUP1 PUSH4 0x5F244D4E EQ PUSH2 0x1F5 JUMPI DUP1 PUSH4 0x67DA263D EQ PUSH2 0x233 JUMPI DUP1 PUSH4 0x707E7E87 EQ PUSH2 0x270 JUMPI DUP1 PUSH4 0x72A9D124 EQ PUSH2 0x29B JUMPI PUSH2 0x108 JUMP JUMPDEST DUP1 PUSH3 0xF714CE EQ PUSH2 0x10D JUMPI DUP1 PUSH4 0x12065FE0 EQ PUSH2 0x136 JUMPI DUP1 PUSH4 0x1EB928AA EQ PUSH2 0x161 JUMPI DUP1 PUSH4 0x31F3BD28 EQ PUSH2 0x19F JUMPI JUMPDEST PUSH1 0x0 DUP1 REVERT JUMPDEST CALLVALUE DUP1 ISZERO PUSH2 0x119 JUMPI PUSH1 0x0 DUP1 REVERT JUMPDEST POP PUSH2 0x134 PUSH1 0x4 DUP1 CALLDATASIZE SUB DUP2 ADD SWAP1 PUSH2 0x12F SWAP2 SWAP1 PUSH2 0x13DF JUMP JUMPDEST PUSH2 0x41A JUMP JUMPDEST STOP JUMPDEST CALLVALUE DUP1 ISZERO PUSH2 0x142 JUMPI PUSH1 0x0 DUP1 REVERT JUMPDEST POP PUSH2 0x14B PUSH2 0x6A7 JUMP JUMPDEST PUSH1 0x40 MLOAD PUSH2 0x158 SWAP2 SWAP1 PUSH2 0x142E JUMP JUMPDEST PUSH1 0x40 MLOAD DUP1 SWAP2 SUB SWAP1 RETURN JUMPDEST CALLVALUE DUP1 ISZERO PUSH2 0x16D JUMPI PUSH1 0x0 DUP1 REVERT JUMPDEST POP PUSH2 0x188 PUSH1 0x4 DUP1 CALLDATASIZE SUB DUP2 ADD SWAP1 PUSH2 0x183 SWAP2 SWAP1 PUSH2 0x1449 JUMP JUMPDEST PUSH2 0x6AF JUMP JUMPDEST PUSH1 0x40 MLOAD PUSH2 0x196 SWAP3 SWAP2 SWAP1 PUSH2 0x1476 JUMP JUMPDEST PUSH1 0x40 MLOAD DUP1 SWAP2 SUB SWAP1 RETURN JUMPDEST CALLVALUE DUP1 ISZERO PUSH2 0x1AB JUMPI PUSH1 0x0 DUP1 REVERT JUMPDEST POP PUSH2 0x1B4 PUSH2 0x792 JUMP JUMPDEST PUSH1 0x40 MLOAD PUSH2 0x1C1 SWAP2 SWAP1 PUSH2 0x142E JUMP JUMPDEST PUSH1 0x40 MLOAD DUP1 SWAP2 SUB SWAP1 RETURN JUMPDEST CALLVALUE DUP1 ISZERO PUSH2 0x1D6 JUMPI PUSH1 0x0 DUP1 REVERT JUMPDEST POP PUSH2 0x1DF PUSH2 0x798 JUMP JUMPDEST PUSH1 0x40 MLOAD PUSH2 0x1EC SWAP2 SWAP1 PUSH2 0x142E JUMP JUMPDEST PUSH1 0x40 MLOAD DUP1 SWAP2 SUB SWAP1 RETURN JUMPDEST CALLVALUE DUP1 ISZERO PUSH2 0x201 JUMPI PUSH1 0x0 DUP1 REVERT JUMPDEST POP PUSH2 0x21C PUSH1 0x4 DUP1 CALLDATASIZE SUB DUP2 ADD SWAP1 PUSH2 0x217 SWAP2 SWAP1 PUSH2 0x1449 JUMP JUMPDEST PUSH2 0x811 JUMP JUMPDEST PUSH1 0x40 MLOAD PUSH2 0x22A SWAP3 SWAP2 SWAP1 PUSH2 0x1476 JUMP JUMPDEST PUSH1 0x40 MLOAD DUP1 SWAP2 SUB SWAP1 RETURN JUMPDEST CALLVALUE DUP1 ISZERO PUSH2 0x23F JUMPI PUSH1 0x0 DUP1 REVERT JUMPDEST POP PUSH2 0x25A PUSH1 0x4 DUP1 CALLDATASIZE SUB DUP2 ADD SWAP1 PUSH2 0x255 SWAP2 SWAP1 PUSH2 0x1449 JUMP JUMPDEST PUSH2 0x8F2 JUMP JUMPDEST PUSH1 0x40 MLOAD PUSH2 0x267 SWAP2 SWAP1 PUSH2 0x142E JUMP JUMPDEST PUSH1 0x40 MLOAD DUP1 SWAP2 SUB SWAP1 RETURN JUMPDEST CALLVALUE DUP1 ISZERO PUSH2 0x27C JUMPI PUSH1 0x0 DUP1 REVERT JUMPDEST POP PUSH2 0x285 PUSH2 0x99F JUMP JUMPDEST PUSH1 0x40 MLOAD PUSH2 0x292 SWAP2 SWAP1 PUSH2 0x142E JUMP JUMPDEST PUSH1 0x40 MLOAD DUP1 SWAP2 SUB SWAP1 RETURN JUMPDEST CALLVALUE DUP1 ISZERO PUSH2 0x2A7 JUMPI PUSH1 0x0 DUP1 REVERT JUMPDEST POP PUSH2 0x2C2 PUSH1 0x4 DUP1 CALLDATASIZE SUB DUP2 ADD SWAP1 PUSH2 0x2BD SWAP2 SWAP1 PUSH2 0x1449 JUMP JUMPDEST PUSH2 0x9A5 JUMP JUMPDEST PUSH1 0x40 MLOAD PUSH2 0x2CF SWAP2 SWAP1 PUSH2 0x142E JUMP JUMPDEST PUSH1 0x40 MLOAD DUP1 SWAP2 SUB SWAP1 RETURN JUMPDEST CALLVALUE DUP1 ISZERO PUSH2 0x2E4 JUMPI PUSH1 0x0 DUP1 REVERT JUMPDEST POP PUSH2 0x2ED PUSH2 0xA5D JUMP JUMPDEST PUSH1 0x40 MLOAD PUSH2 0x2FA SWAP2 SWAP1 PUSH2 0x142E JUMP JUMPDEST PUSH1 0x40 MLOAD DUP1 SWAP2 SUB SWAP1 RETURN JUMPDEST PUSH2 0x30B PUSH2 0xA63 JUMP JUMPDEST STOP JUMPDEST CALLVALUE DUP1 ISZERO PUSH2 0x319 JUMPI PUSH1 0x0 DUP1 REVERT JUMPDEST POP PUSH2 0x322 PUSH2 0xC23 JUMP JUMPDEST PUSH1 0x40 MLOAD PUSH2 0x32F SWAP2 SWAP1 PUSH2 0x142E JUMP JUMPDEST PUSH1 0x40 MLOAD DUP1 SWAP2 SUB SWAP1 RETURN JUMPDEST CALLVALUE DUP1 ISZERO PUSH2 0x344 JUMPI PUSH1 0x0 DUP1 REVERT JUMPDEST POP PUSH2 0x34D PUSH2 0xCC5 JUMP JUMPDEST PUSH1 0x40 MLOAD PUSH2 0x35A SWAP2 SWAP1 PUSH2 0x142E JUMP JUMPDEST PUSH1 0x40 MLOAD DUP1 SWAP2 SUB SWAP1 RETURN JUMPDEST CALLVALUE DUP1 ISZERO PUSH2 0x36F JUMPI PUSH1 0x0 DUP1 REVERT JUMPDEST POP PUSH2 0x38A PUSH1 0x4 DUP1 CALLDATASIZE SUB DUP2 ADD SWAP1 PUSH2 0x385 SWAP2 SWAP1 PUSH2 0x149F JUMP JUMPDEST PUSH2 0xCCB JUMP JUMPDEST PUSH1 0x40 MLOAD PUSH2 0x397 SWAP2 SWAP1 PUSH2 0x142E JUMP JUMPDEST PUSH1 0x40 MLOAD DUP1 SWAP2 SUB SWAP1 RETURN JUMPDEST PUSH2 0x3BA PUSH1 0x4 DUP1 CALLDATASIZE SUB DUP2 ADD SWAP1 PUSH2 0x3B5 SWAP2 SWAP1 PUSH2 0x14CC JUMP JUMPDEST PUSH2 0xCE3 JUMP JUMPDEST STOP JUMPDEST PUSH2 0x3C4 PUSH2 0xE6D JUMP JUMPDEST STOP JUMPDEST CALLVALUE DUP1 ISZERO PUSH2 0x3D2 JUMPI PUSH1 0x0 DUP1 REVERT JUMPDEST POP PUSH2 0x3DB PUSH2 0x10AE JUMP JUMPDEST PUSH1 0x40 MLOAD PUSH2 0x3E8 SWAP2 SWAP1 PUSH2 0x142E JUMP JUMPDEST PUSH1 0x40 MLOAD DUP1 SWAP2 SUB SWAP1 RETURN JUMPDEST CALLVALUE DUP1 ISZERO PUSH2 0x3FD JUMPI PUSH1 0x0 DUP1 REVERT JUMPDEST POP PUSH2 0x418 PUSH1 0x4 DUP1 CALLDATASIZE SUB DUP2 ADD SWAP1 PUSH2 0x413 SWAP2 SWAP1 PUSH2 0x1449 JUMP JUMPDEST PUSH2 0x10B4 JUMP JUMPDEST STOP JUMPDEST PUSH1 0x0 PUSH1 0x1 SLOAD SELFBALANCE DUP5 PUSH2 0x42B SWAP2 SWAP1 PUSH2 0x153B JUMP JUMPDEST PUSH2 0x435 SWAP2 SWAP1 PUSH2 0x15C4 JUMP JUMPDEST SWAP1 POP PUSH1 0x0 PUSH1 0x1 SLOAD PUSH1 0x0 DUP1 SLOAD SWAP1 PUSH2 0x100 EXP SWAP1 DIV PUSH20 0xFFFFFFFFFFFFFFFFFFFFFFFFFFFFFFFFFFFFFFFF AND PUSH20 0xFFFFFFFFFFFFFFFFFFFFFFFFFFFFFFFFFFFFFFFF AND PUSH4 0x70A08231 ADDRESS PUSH1 0x40 MLOAD DUP3 PUSH4 0xFFFFFFFF AND PUSH1 0xE0 SHL DUP2 MSTORE PUSH1 0x4 ADD PUSH2 0x495 SWAP2 SWAP1 PUSH2 0x1604 JUMP JUMPDEST PUSH1 0x20 PUSH1 0x40 MLOAD DUP1 DUP4 SUB DUP2 DUP7 GAS STATICCALL ISZERO DUP1 ISZERO PUSH2 0x4B2 JUMPI RETURNDATASIZE PUSH1 0x0 DUP1 RETURNDATACOPY RETURNDATASIZE PUSH1 0x0 REVERT JUMPDEST POP POP POP POP PUSH1 0x40 MLOAD RETURNDATASIZE PUSH1 0x1F NOT PUSH1 0x1F DUP3 ADD AND DUP3 ADD DUP1 PUSH1 0x40 MSTORE POP DUP2 ADD SWAP1 PUSH2 0x4D6 SWAP2 SWAP1 PUSH2 0x1634 JUMP JUMPDEST DUP6 PUSH2 0x4E1 SWAP2 SWAP1 PUSH2 0x153B JUMP JUMPDEST PUSH2 0x4EB SWAP2 SWAP1 PUSH2 0x15C4 JUMP JUMPDEST SWAP1 POP DUP2 PUSH1 0x1 PUSH1 0x0 DUP3 DUP3 SLOAD PUSH2 0x4FF SWAP2 SWAP1 PUSH2 0x1661 JUMP JUMPDEST SWAP3 POP POP DUP2 SWAP1 SSTORE POP PUSH1 0x0 DUP4 PUSH20 0xFFFFFFFFFFFFFFFFFFFFFFFFFFFFFFFFFFFFFFFF AND DUP4 PUSH1 0x40 MLOAD PUSH2 0x52C SWAP1 PUSH2 0x16C6 JUMP JUMPDEST PUSH1 0x0 PUSH1 0x40 MLOAD DUP1 DUP4 SUB DUP2 DUP6 DUP8 GAS CALL SWAP3 POP POP POP RETURNDATASIZE DUP1 PUSH1 0x0 DUP2 EQ PUSH2 0x569 JUMPI PUSH1 0x40 MLOAD SWAP2 POP PUSH1 0x1F NOT PUSH1 0x3F RETURNDATASIZE ADD AND DUP3 ADD PUSH1 0x40 MSTORE RETURNDATASIZE DUP3 MSTORE RETURNDATASIZE PUSH1 0x0 PUSH1 0x20 DUP5 ADD RETURNDATACOPY PUSH2 0x56E JUMP JUMPDEST PUSH1 0x60 SWAP2 POP JUMPDEST POP POP SWAP1 POP DUP1 PUSH2 0x5B2 JUMPI PUSH1 0x40 MLOAD PUSH32 0x8C379A000000000000000000000000000000000000000000000000000000000 DUP2 MSTORE PUSH1 0x4 ADD PUSH2 0x5A9 SWAP1 PUSH2 0x1738 JUMP JUMPDEST PUSH1 0x40 MLOAD DUP1 SWAP2 SUB SWAP1 REVERT JUMPDEST PUSH1 0x0 DUP1 SLOAD SWAP1 PUSH2 0x100 EXP SWAP1 DIV PUSH20 0xFFFFFFFFFFFFFFFFFFFFFFFFFFFFFFFFFFFFFFFF AND PUSH20 0xFFFFFFFFFFFFFFFFFFFFFFFFFFFFFFFFFFFFFFFF AND PUSH4 0xA9059CBB DUP6 DUP5 PUSH1 0x40 MLOAD DUP4 PUSH4 0xFFFFFFFF AND PUSH1 0xE0 SHL DUP2 MSTORE PUSH1 0x4 ADD PUSH2 0x60D SWAP3 SWAP2 SWAP1 PUSH2 0x1758 JUMP JUMPDEST PUSH1 0x20 PUSH1 0x40 MLOAD DUP1 DUP4 SUB DUP2 PUSH1 0x0 DUP8 GAS CALL ISZERO DUP1 ISZERO PUSH2 0x62C JUMPI RETURNDATASIZE PUSH1 0x0 DUP1 RETURNDATACOPY RETURNDATASIZE PUSH1 0x0 REVERT JUMPDEST POP POP POP POP PUSH1 0x40 MLOAD RETURNDATASIZE PUSH1 0x1F NOT PUSH1 0x1F DUP3 ADD AND DUP3 ADD DUP1 PUSH1 0x40 MSTORE POP DUP2 ADD SWAP1 PUSH2 0x650 SWAP2 SWAP1 PUSH2 0x17B9 JUMP JUMPDEST PUSH2 0x659 JUMPI PUSH1 0x0 DUP1 REVERT JUMPDEST PUSH32 0x56CA301A9219608C91E7BCEE90E083C19671D2CDCC96752C7AF291CEE5F9C8C8 DUP4 DUP4 PUSH1 0x40 MLOAD PUSH2 0x68A SWAP3 SWAP2 SWAP1 PUSH2 0x1476 JUMP JUMPDEST PUSH1 0x40 MLOAD DUP1 SWAP2 SUB SWAP1 LOG1 DUP3 PUSH1 0x5 DUP2 SWAP1 SSTORE POP DUP2 PUSH1 0x4 DUP2 SWAP1 SSTORE POP POP POP POP POP POP JUMP JUMPDEST PUSH1 0x0 SELFBALANCE SWAP1 POP SWAP1 JUMP JUMPDEST PUSH1 0x0 DUP1 PUSH1 0x0 PUSH1 0x1 SLOAD SELFBALANCE DUP6 PUSH2 0x6C3 SWAP2 SWAP1 PUSH2 0x153B JUMP JUMPDEST PUSH2 0x6CD SWAP2 SWAP1 PUSH2 0x15C4 JUMP JUMPDEST SWAP1 POP PUSH1 0x0 PUSH1 0x1 SLOAD PUSH1 0x0 DUP1 SLOAD SWAP1 PUSH2 0x100 EXP SWAP1 DIV PUSH20 0xFFFFFFFFFFFFFFFFFFFFFFFFFFFFFFFFFFFFFFFF AND PUSH20 0xFFFFFFFFFFFFFFFFFFFFFFFFFFFFFFFFFFFFFFFF AND PUSH4 0x70A08231 ADDRESS PUSH1 0x40 MLOAD DUP3 PUSH4 0xFFFFFFFF AND PUSH1 0xE0 SHL DUP2 MSTORE PUSH1 0x4 ADD PUSH2 0x72D SWAP2 SWAP1 PUSH2 0x1604 JUMP JUMPDEST PUSH1 0x20 PUSH1 0x40 MLOAD DUP1 DUP4 SUB DUP2 DUP7 GAS STATICCALL ISZERO DUP1 ISZERO PUSH2 0x74A JUMPI RETURNDATASIZE PUSH1 0x0 DUP1 RETURNDATACOPY RETURNDATASIZE PUSH1 0x0 REVERT JUMPDEST POP POP POP POP PUSH1 0x40 MLOAD RETURNDATASIZE PUSH1 0x1F NOT PUSH1 0x1F DUP3 ADD AND DUP3 ADD DUP1 PUSH1 0x40 MSTORE POP DUP2 ADD SWAP1 PUSH2 0x76E SWAP2 SWAP1 PUSH2 0x1634 JUMP JUMPDEST DUP7 PUSH2 0x779 SWAP2 SWAP1 PUSH2 0x153B JUMP JUMPDEST PUSH2 0x783 SWAP2 SWAP1 PUSH2 0x15C4 JUMP JUMPDEST SWAP1 POP DUP2 DUP2 SWAP4 POP SWAP4 POP POP POP SWAP2 POP SWAP2 JUMP JUMPDEST PUSH1 0x1 SLOAD DUP2 JUMP JUMPDEST PUSH1 0x0 PUSH1 0x1 SLOAD PUSH2 0x3E8 PUSH1 0x3 DUP1 PUSH1 0x0 CALLER PUSH20 0xFFFFFFFFFFFFFFFFFFFFFFFFFFFFFFFFFFFFFFFF AND PUSH20 0xFFFFFFFFFFFFFFFFFFFFFFFFFFFFFFFFFFFFFFFF AND DUP2 MSTORE PUSH1 0x20 ADD SWAP1 DUP2 MSTORE PUSH1 0x20 ADD PUSH1 0x0 KECCAK256 SLOAD PUSH1 0x2 SLOAD PUSH2 0x7EE SWAP2 SWAP1 PUSH2 0x153B JUMP JUMPDEST PUSH2 0x7F8 SWAP2 SWAP1 PUSH2 0x153B JUMP JUMPDEST PUSH2 0x802 SWAP2 SWAP1 PUSH2 0x15C4 JUMP JUMPDEST PUSH2 0x80C SWAP2 SWAP1 PUSH2 0x15C4 JUMP JUMPDEST SWAP1 POP SWAP1 JUMP JUMPDEST PUSH1 0x0 DUP1 PUSH1 0x0 SELFBALANCE PUSH1 0x0 DUP1 SLOAD SWAP1 PUSH2 0x100 EXP SWAP1 DIV PUSH20 0xFFFFFFFFFFFFFFFFFFFFFFFFFFFFFFFFFFFFFFFF AND PUSH20 0xFFFFFFFFFFFFFFFFFFFFFFFFFFFFFFFFFFFFFFFF AND PUSH4 0x70A08231 ADDRESS PUSH1 0x40 MLOAD DUP3 PUSH4 0xFFFFFFFF AND PUSH1 0xE0 SHL DUP2 MSTORE PUSH1 0x4 ADD PUSH2 0x870 SWAP2 SWAP1 PUSH2 0x1604 JUMP JUMPDEST PUSH1 0x20 PUSH1 0x40 MLOAD DUP1 DUP4 SUB DUP2 DUP7 GAS STATICCALL ISZERO DUP1 ISZERO PUSH2 0x88D JUMPI RETURNDATASIZE PUSH1 0x0 DUP1 RETURNDATACOPY RETURNDATASIZE PUSH1 0x0 REVERT JUMPDEST POP POP POP POP PUSH1 0x40 MLOAD RETURNDATASIZE PUSH1 0x1F NOT PUSH1 0x1F DUP3 ADD AND DUP3 ADD DUP1 PUSH1 0x40 MSTORE POP DUP2 ADD SWAP1 PUSH2 0x8B1 SWAP2 SWAP1 PUSH2 0x1634 JUMP JUMPDEST DUP6 PUSH2 0x8BC SWAP2 SWAP1 PUSH2 0x153B JUMP JUMPDEST PUSH2 0x8C6 SWAP2 SWAP1 PUSH2 0x15C4 JUMP JUMPDEST SWAP1 POP PUSH1 0x0 SELFBALANCE PUSH1 0x1 SLOAD DUP7 PUSH2 0x8D9 SWAP2 SWAP1 PUSH2 0x153B JUMP JUMPDEST PUSH2 0x8E3 SWAP2 SWAP1 PUSH2 0x15C4 JUMP JUMPDEST SWAP1 POP DUP2 DUP2 SWAP4 POP SWAP4 POP POP POP SWAP2 POP SWAP2 JUMP JUMPDEST PUSH1 0x0 PUSH2 0x998 DUP3 PUSH1 0x0 DUP1 SLOAD SWAP1 PUSH2 0x100 EXP SWAP1 DIV PUSH20 0xFFFFFFFFFFFFFFFFFFFFFFFFFFFFFFFFFFFFFFFF AND PUSH20 0xFFFFFFFFFFFFFFFFFFFFFFFFFFFFFFFFFFFFFFFF AND PUSH4 0x70A08231 ADDRESS PUSH1 0x40 MLOAD DUP3 PUSH4 0xFFFFFFFF AND PUSH1 0xE0 SHL DUP2 MSTORE PUSH1 0x4 ADD PUSH2 0x951 SWAP2 SWAP1 PUSH2 0x1604 JUMP JUMPDEST PUSH1 0x20 PUSH1 0x40 MLOAD DUP1 DUP4 SUB DUP2 DUP7 GAS STATICCALL ISZERO DUP1 ISZERO PUSH2 0x96E JUMPI RETURNDATASIZE PUSH1 0x0 DUP1 RETURNDATACOPY RETURNDATASIZE PUSH1 0x0 REVERT JUMPDEST POP POP POP POP PUSH1 0x40 MLOAD RETURNDATASIZE PUSH1 0x1F NOT PUSH1 0x1F DUP3 ADD AND DUP3 ADD DUP1 PUSH1 0x40 MSTORE POP DUP2 ADD SWAP1 PUSH2 0x992 SWAP2 SWAP1 PUSH2 0x1634 JUMP JUMPDEST SELFBALANCE PUSH2 0x1319 JUMP JUMPDEST SWAP1 POP SWAP2 SWAP1 POP JUMP JUMPDEST PUSH1 0x6 SLOAD DUP2 JUMP JUMPDEST PUSH1 0x0 PUSH2 0xA56 DUP3 DUP4 SELFBALANCE PUSH2 0x9B7 SWAP2 SWAP1 PUSH2 0x1661 JUMP JUMPDEST PUSH1 0x0 DUP1 SLOAD SWAP1 PUSH2 0x100 EXP SWAP1 DIV PUSH20 0xFFFFFFFFFFFFFFFFFFFFFFFFFFFFFFFFFFFFFFFF AND PUSH20 0xFFFFFFFFFFFFFFFFFFFFFFFFFFFFFFFFFFFFFFFF AND PUSH4 0x70A08231 ADDRESS PUSH1 0x40 MLOAD DUP3 PUSH4 0xFFFFFFFF AND PUSH1 0xE0 SHL DUP2 MSTORE PUSH1 0x4 ADD PUSH2 0xA10 SWAP2 SWAP1 PUSH2 0x1604 JUMP JUMPDEST PUSH1 0x20 PUSH1 0x40 MLOAD DUP1 DUP4 SUB DUP2 DUP7 GAS STATICCALL ISZERO DUP1 ISZERO PUSH2 0xA2D JUMPI RETURNDATASIZE PUSH1 0x0 DUP1 RETURNDATACOPY RETURNDATASIZE PUSH1 0x0 REVERT JUMPDEST POP POP POP POP PUSH1 0x40 MLOAD RETURNDATASIZE PUSH1 0x1F NOT PUSH1 0x1F DUP3 ADD AND DUP3 ADD DUP1 PUSH1 0x40 MSTORE POP DUP2 ADD SWAP1 PUSH2 0xA51 SWAP2 SWAP1 PUSH2 0x1634 JUMP JUMPDEST PUSH2 0x1319 JUMP JUMPDEST SWAP1 POP SWAP2 SWAP1 POP JUMP JUMPDEST PUSH1 0x4 SLOAD DUP2 JUMP JUMPDEST PUSH1 0x0 PUSH2 0xB14 CALLVALUE CALLVALUE SELFBALANCE PUSH2 0xA75 SWAP2 SWAP1 PUSH2 0x1661 JUMP JUMPDEST PUSH1 0x0 DUP1 SLOAD SWAP1 PUSH2 0x100 EXP SWAP1 DIV PUSH20 0xFFFFFFFFFFFFFFFFFFFFFFFFFFFFFFFFFFFFFFFF AND PUSH20 0xFFFFFFFFFFFFFFFFFFFFFFFFFFFFFFFFFFFFFFFF AND PUSH4 0x70A08231 ADDRESS PUSH1 0x40 MLOAD DUP3 PUSH4 0xFFFFFFFF AND PUSH1 0xE0 SHL DUP2 MSTORE PUSH1 0x4 ADD PUSH2 0xACE SWAP2 SWAP1 PUSH2 0x1604 JUMP JUMPDEST PUSH1 0x20 PUSH1 0x40 MLOAD DUP1 DUP4 SUB DUP2 DUP7 GAS STATICCALL ISZERO DUP1 ISZERO PUSH2 0xAEB JUMPI RETURNDATASIZE PUSH1 0x0 DUP1 RETURNDATACOPY RETURNDATASIZE PUSH1 0x0 REVERT JUMPDEST POP POP POP POP PUSH1 0x40 MLOAD RETURNDATASIZE PUSH1 0x1F NOT PUSH1 0x1F DUP3 ADD AND DUP3 ADD DUP1 PUSH1 0x40 MSTORE POP DUP2 ADD SWAP1 PUSH2 0xB0F SWAP2 SWAP1 PUSH2 0x1634 JUMP JUMPDEST PUSH2 0x1319 JUMP JUMPDEST SWAP1 POP PUSH1 0x0 DUP1 SLOAD SWAP1 PUSH2 0x100 EXP SWAP1 DIV PUSH20 0xFFFFFFFFFFFFFFFFFFFFFFFFFFFFFFFFFFFFFFFF AND PUSH20 0xFFFFFFFFFFFFFFFFFFFFFFFFFFFFFFFFFFFFFFFF AND PUSH4 0xA9059CBB ORIGIN DUP4 PUSH1 0x40 MLOAD DUP4 PUSH4 0xFFFFFFFF AND PUSH1 0xE0 SHL DUP2 MSTORE PUSH1 0x4 ADD PUSH2 0xB71 SWAP3 SWAP2 SWAP1 PUSH2 0x1758 JUMP JUMPDEST PUSH1 0x20 PUSH1 0x40 MLOAD DUP1 DUP4 SUB DUP2 PUSH1 0x0 DUP8 GAS CALL ISZERO DUP1 ISZERO PUSH2 0xB90 JUMPI RETURNDATASIZE PUSH1 0x0 DUP1 RETURNDATACOPY RETURNDATASIZE PUSH1 0x0 REVERT JUMPDEST POP POP POP POP PUSH1 0x40 MLOAD RETURNDATASIZE PUSH1 0x1F NOT PUSH1 0x1F DUP3 ADD AND DUP3 ADD DUP1 PUSH1 0x40 MSTORE POP DUP2 ADD SWAP1 PUSH2 0xBB4 SWAP2 SWAP1 PUSH2 0x17B9 JUMP JUMPDEST PUSH2 0xBBD JUMPI PUSH1 0x0 DUP1 REVERT JUMPDEST CALLVALUE PUSH1 0x3 PUSH2 0xBCA SWAP2 SWAP1 PUSH2 0x153B JUMP JUMPDEST PUSH1 0x2 PUSH1 0x0 DUP3 DUP3 SLOAD PUSH2 0xBDB SWAP2 SWAP1 PUSH2 0x17E6 JUMP JUMPDEST SWAP3 POP POP DUP2 SWAP1 SSTORE POP PUSH32 0xDB04C7A6D4758FD55D738EBC67E7F3010AC922BE00771EF29521A4090D1EB13F DUP2 PUSH1 0x40 MLOAD PUSH2 0xC11 SWAP2 SWAP1 PUSH2 0x142E JUMP JUMPDEST PUSH1 0x40 MLOAD DUP1 SWAP2 SUB SWAP1 LOG1 DUP1 PUSH1 0x4 DUP2 SWAP1 SSTORE POP POP JUMP JUMPDEST PUSH1 0x0 DUP1 PUSH1 0x0 SWAP1 SLOAD SWAP1 PUSH2 0x100 EXP SWAP1 DIV PUSH20 0xFFFFFFFFFFFFFFFFFFFFFFFFFFFFFFFFFFFFFFFF AND PUSH20 0xFFFFFFFFFFFFFFFFFFFFFFFFFFFFFFFFFFFFFFFF AND PUSH4 0x70A08231 ADDRESS PUSH1 0x40 MLOAD DUP3 PUSH4 0xFFFFFFFF AND PUSH1 0xE0 SHL DUP2 MSTORE PUSH1 0x4 ADD PUSH2 0xC7F SWAP2 SWAP1 PUSH2 0x1604 JUMP JUMPDEST PUSH1 0x20 PUSH1 0x40 MLOAD DUP1 DUP4 SUB DUP2 DUP7 GAS STATICCALL ISZERO DUP1 ISZERO PUSH2 0xC9C JUMPI RETURNDATASIZE PUSH1 0x0 DUP1 RETURNDATACOPY RETURNDATASIZE PUSH1 0x0 REVERT JUMPDEST POP POP POP POP PUSH1 0x40 MLOAD RETURNDATASIZE PUSH1 0x1F NOT PUSH1 0x1F DUP3 ADD AND DUP3 ADD DUP1 PUSH1 0x40 MSTORE POP DUP2 ADD SWAP1 PUSH2 0xCC0 SWAP2 SWAP1 PUSH2 0x1634 JUMP JUMPDEST SWAP1 POP SWAP1 JUMP JUMPDEST PUSH1 0x5 SLOAD DUP2 JUMP JUMPDEST PUSH1 0x3 PUSH1 0x20 MSTORE DUP1 PUSH1 0x0 MSTORE PUSH1 0x40 PUSH1 0x0 KECCAK256 PUSH1 0x0 SWAP2 POP SWAP1 POP SLOAD DUP2 JUMP JUMPDEST PUSH1 0x0 PUSH1 0x1 SLOAD EQ PUSH2 0xCF2 JUMPI PUSH1 0x0 DUP1 REVERT JUMPDEST PUSH1 0x0 PUSH1 0x2 DUP2 SWAP1 SSTORE POP DUP2 PUSH1 0x0 DUP1 PUSH2 0x100 EXP DUP2 SLOAD DUP2 PUSH20 0xFFFFFFFFFFFFFFFFFFFFFFFFFFFFFFFFFFFFFFFF MUL NOT AND SWAP1 DUP4 PUSH20 0xFFFFFFFFFFFFFFFFFFFFFFFFFFFFFFFFFFFFFFFF AND MUL OR SWAP1 SSTORE POP SELFBALANCE PUSH1 0x1 DUP2 SWAP1 SSTORE POP PUSH1 0x1 SLOAD PUSH1 0x3 PUSH1 0x0 CALLER PUSH20 0xFFFFFFFFFFFFFFFFFFFFFFFFFFFFFFFFFFFFFFFF AND PUSH20 0xFFFFFFFFFFFFFFFFFFFFFFFFFFFFFFFFFFFFFFFF AND DUP2 MSTORE PUSH1 0x20 ADD SWAP1 DUP2 MSTORE PUSH1 0x20 ADD PUSH1 0x0 KECCAK256 DUP2 SWAP1 SSTORE POP PUSH1 0x0 DUP1 SLOAD SWAP1 PUSH2 0x100 EXP SWAP1 DIV PUSH20 0xFFFFFFFFFFFFFFFFFFFFFFFFFFFFFFFFFFFFFFFF AND PUSH20 0xFFFFFFFFFFFFFFFFFFFFFFFFFFFFFFFFFFFFFFFF AND PUSH4 0x23B872DD CALLER ADDRESS DUP5 PUSH1 0x40 MLOAD DUP5 PUSH4 0xFFFFFFFF AND PUSH1 0xE0 SHL DUP2 MSTORE PUSH1 0x4 ADD PUSH2 0xDE4 SWAP4 SWAP3 SWAP2 SWAP1 PUSH2 0x183C JUMP JUMPDEST PUSH1 0x20 PUSH1 0x40 MLOAD DUP1 DUP4 SUB DUP2 PUSH1 0x0 DUP8 GAS CALL ISZERO DUP1 ISZERO PUSH2 0xE03 JUMPI RETURNDATASIZE PUSH1 0x0 DUP1 RETURNDATACOPY RETURNDATASIZE PUSH1 0x0 REVERT JUMPDEST POP POP POP POP PUSH1 0x40 MLOAD RETURNDATASIZE PUSH1 0x1F NOT PUSH1 0x1F DUP3 ADD AND DUP3 ADD DUP1 PUSH1 0x40 MSTORE POP DUP2 ADD SWAP1 PUSH2 0xE27 SWAP2 SWAP1 PUSH2 0x17B9 JUMP JUMPDEST PUSH2 0xE30 JUMPI PUSH1 0x0 DUP1 REVERT JUMPDEST PUSH32 0xC43E48CF47E9FA186D0F4096C61D1FCB54159799F935A2AA32E5589688EE36E1 PUSH1 0x1 SLOAD PUSH1 0x40 MLOAD PUSH2 0xE61 SWAP2 SWAP1 PUSH2 0x142E JUMP JUMPDEST PUSH1 0x40 MLOAD DUP1 SWAP2 SUB SWAP1 LOG1 POP POP JUMP JUMPDEST PUSH1 0x0 CALLVALUE SELFBALANCE PUSH2 0xE7B SWAP2 SWAP1 PUSH2 0x1661 JUMP JUMPDEST PUSH1 0x0 DUP1 SLOAD SWAP1 PUSH2 0x100 EXP SWAP1 DIV PUSH20 0xFFFFFFFFFFFFFFFFFFFFFFFFFFFFFFFFFFFFFFFF AND PUSH20 0xFFFFFFFFFFFFFFFFFFFFFFFFFFFFFFFFFFFFFFFF AND PUSH4 0x70A08231 ADDRESS PUSH1 0x40 MLOAD DUP3 PUSH4 0xFFFFFFFF AND PUSH1 0xE0 SHL DUP2 MSTORE PUSH1 0x4 ADD PUSH2 0xED4 SWAP2 SWAP1 PUSH2 0x1604 JUMP JUMPDEST PUSH1 0x20 PUSH1 0x40 MLOAD DUP1 DUP4 SUB DUP2 DUP7 GAS STATICCALL ISZERO DUP1 ISZERO PUSH2 0xEF1 JUMPI RETURNDATASIZE PUSH1 0x0 DUP1 RETURNDATACOPY RETURNDATASIZE PUSH1 0x0 REVERT JUMPDEST POP POP POP POP PUSH1 0x40 MLOAD RETURNDATASIZE PUSH1 0x1F NOT PUSH1 0x1F DUP3 ADD AND DUP3 ADD DUP1 PUSH1 0x40 MSTORE POP DUP2 ADD SWAP1 PUSH2 0xF15 SWAP2 SWAP1 PUSH2 0x1634 JUMP JUMPDEST CALLVALUE PUSH2 0xF20 SWAP2 SWAP1 PUSH2 0x153B JUMP JUMPDEST PUSH2 0xF2A SWAP2 SWAP1 PUSH2 0x15C4 JUMP JUMPDEST SWAP1 POP PUSH1 0x0 CALLVALUE SELFBALANCE PUSH2 0xF3A SWAP2 SWAP1 PUSH2 0x1661 JUMP JUMPDEST PUSH1 0x1 SLOAD CALLVALUE PUSH2 0xF48 SWAP2 SWAP1 PUSH2 0x153B JUMP JUMPDEST PUSH2 0xF52 SWAP2 SWAP1 PUSH2 0x15C4 JUMP JUMPDEST SWAP1 POP DUP1 PUSH1 0x3 PUSH1 0x0 ORIGIN PUSH20 0xFFFFFFFFFFFFFFFFFFFFFFFFFFFFFFFFFFFFFFFF AND PUSH20 0xFFFFFFFFFFFFFFFFFFFFFFFFFFFFFFFFFFFFFFFF AND DUP2 MSTORE PUSH1 0x20 ADD SWAP1 DUP2 MSTORE PUSH1 0x20 ADD PUSH1 0x0 KECCAK256 PUSH1 0x0 DUP3 DUP3 SLOAD PUSH2 0xFA3 SWAP2 SWAP1 PUSH2 0x17E6 JUMP JUMPDEST SWAP3 POP POP DUP2 SWAP1 SSTORE POP DUP1 PUSH1 0x1 PUSH1 0x0 DUP3 DUP3 SLOAD PUSH2 0xFBC SWAP2 SWAP1 PUSH2 0x17E6 JUMP JUMPDEST SWAP3 POP POP DUP2 SWAP1 SSTORE POP PUSH1 0x0 DUP1 SLOAD SWAP1 PUSH2 0x100 EXP SWAP1 DIV PUSH20 0xFFFFFFFFFFFFFFFFFFFFFFFFFFFFFFFFFFFFFFFF AND PUSH20 0xFFFFFFFFFFFFFFFFFFFFFFFFFFFFFFFFFFFFFFFF AND PUSH4 0x23B872DD ORIGIN ADDRESS DUP6 PUSH1 0x40 MLOAD DUP5 PUSH4 0xFFFFFFFF AND PUSH1 0xE0 SHL DUP2 MSTORE PUSH1 0x4 ADD PUSH2 0x1020 SWAP4 SWAP3 SWAP2 SWAP1 PUSH2 0x183C JUMP JUMPDEST PUSH1 0x20 PUSH1 0x40 MLOAD DUP1 DUP4 SUB DUP2 PUSH1 0x0 DUP8 GAS CALL ISZERO DUP1 ISZERO PUSH2 0x103F JUMPI RETURNDATASIZE PUSH1 0x0 DUP1 RETURNDATACOPY RETURNDATASIZE PUSH1 0x0 REVERT JUMPDEST POP POP POP POP PUSH1 0x40 MLOAD RETURNDATASIZE PUSH1 0x1F NOT PUSH1 0x1F DUP3 ADD AND DUP3 ADD DUP1 PUSH1 0x40 MSTORE POP DUP2 ADD SWAP1 PUSH2 0x1063 SWAP2 SWAP1 PUSH2 0x17B9 JUMP JUMPDEST PUSH2 0x106C JUMPI PUSH1 0x0 DUP1 REVERT JUMPDEST PUSH32 0x4D6CE1E535DBADE1C23DEFBA91E23B8F791CE5EDC0CC320257A2B364E4E38426 DUP2 PUSH1 0x40 MLOAD PUSH2 0x109B SWAP2 SWAP1 PUSH2 0x142E JUMP JUMPDEST PUSH1 0x40 MLOAD DUP1 SWAP2 SUB SWAP1 LOG1 DUP1 PUSH1 0x6 DUP2 SWAP1 SSTORE POP POP POP JUMP JUMPDEST PUSH1 0x2 SLOAD DUP2 JUMP JUMPDEST PUSH1 0x0 PUSH2 0x115A DUP3 PUSH1 0x0 DUP1 SLOAD SWAP1 PUSH2 0x100 EXP SWAP1 DIV PUSH20 0xFFFFFFFFFFFFFFFFFFFFFFFFFFFFFFFFFFFFFFFF AND PUSH20 0xFFFFFFFFFFFFFFFFFFFFFFFFFFFFFFFFFFFFFFFF AND PUSH4 0x70A08231 ADDRESS PUSH1 0x40 MLOAD DUP3 PUSH4 0xFFFFFFFF AND PUSH1 0xE0 SHL DUP2 MSTORE PUSH1 0x4 ADD PUSH2 0x1113 SWAP2 SWAP1 PUSH2 0x1604 JUMP JUMPDEST PUSH1 0x20 PUSH1 0x40 MLOAD DUP1 DUP4 SUB DUP2 DUP7 GAS STATICCALL ISZERO DUP1 ISZERO PUSH2 0x1130 JUMPI RETURNDATASIZE PUSH1 0x0 DUP1 RETURNDATACOPY RETURNDATASIZE PUSH1 0x0 REVERT JUMPDEST POP POP POP POP PUSH1 0x40 MLOAD RETURNDATASIZE PUSH1 0x1F NOT PUSH1 0x1F DUP3 ADD AND DUP3 ADD DUP1 PUSH1 0x40 MSTORE POP DUP2 ADD SWAP1 PUSH2 0x1154 SWAP2 SWAP1 PUSH2 0x1634 JUMP JUMPDEST SELFBALANCE PUSH2 0x1319 JUMP JUMPDEST SWAP1 POP PUSH1 0x0 ORIGIN PUSH20 0xFFFFFFFFFFFFFFFFFFFFFFFFFFFFFFFFFFFFFFFF AND DUP3 PUSH1 0x40 MLOAD PUSH2 0x1182 SWAP1 PUSH2 0x16C6 JUMP JUMPDEST PUSH1 0x0 PUSH1 0x40 MLOAD DUP1 DUP4 SUB DUP2 DUP6 DUP8 GAS CALL SWAP3 POP POP POP RETURNDATASIZE DUP1 PUSH1 0x0 DUP2 EQ PUSH2 0x11BF JUMPI PUSH1 0x40 MLOAD SWAP2 POP PUSH1 0x1F NOT PUSH1 0x3F RETURNDATASIZE ADD AND DUP3 ADD PUSH1 0x40 MSTORE RETURNDATASIZE DUP3 MSTORE RETURNDATASIZE PUSH1 0x0 PUSH1 0x20 DUP5 ADD RETURNDATACOPY PUSH2 0x11C4 JUMP JUMPDEST PUSH1 0x60 SWAP2 POP JUMPDEST POP POP SWAP1 POP DUP1 PUSH2 0x1208 JUMPI PUSH1 0x40 MLOAD PUSH32 0x8C379A000000000000000000000000000000000000000000000000000000000 DUP2 MSTORE PUSH1 0x4 ADD PUSH2 0x11FF SWAP1 PUSH2 0x1738 JUMP JUMPDEST PUSH1 0x40 MLOAD DUP1 SWAP2 SUB SWAP1 REVERT JUMPDEST PUSH1 0x0 DUP1 SLOAD SWAP1 PUSH2 0x100 EXP SWAP1 DIV PUSH20 0xFFFFFFFFFFFFFFFFFFFFFFFFFFFFFFFFFFFFFFFF AND PUSH20 0xFFFFFFFFFFFFFFFFFFFFFFFFFFFFFFFFFFFFFFFF AND PUSH4 0x23B872DD ORIGIN ADDRESS DUP7 PUSH1 0x40 MLOAD DUP5 PUSH4 0xFFFFFFFF AND PUSH1 0xE0 SHL DUP2 MSTORE PUSH1 0x4 ADD PUSH2 0x1265 SWAP4 SWAP3 SWAP2 SWAP1 PUSH2 0x183C JUMP JUMPDEST PUSH1 0x20 PUSH1 0x40 MLOAD DUP1 DUP4 SUB DUP2 PUSH1 0x0 DUP8 GAS CALL ISZERO DUP1 ISZERO PUSH2 0x1284 JUMPI RETURNDATASIZE PUSH1 0x0 DUP1 RETURNDATACOPY RETURNDATASIZE PUSH1 0x0 REVERT JUMPDEST POP POP POP POP PUSH1 0x40 MLOAD RETURNDATASIZE PUSH1 0x1F NOT PUSH1 0x1F DUP3 ADD AND DUP3 ADD DUP1 PUSH1 0x40 MSTORE POP DUP2 ADD SWAP1 PUSH2 0x12A8 SWAP2 SWAP1 PUSH2 0x17B9 JUMP JUMPDEST PUSH2 0x12B1 JUMPI PUSH1 0x0 DUP1 REVERT JUMPDEST DUP2 PUSH1 0x3 PUSH2 0x12BE SWAP2 SWAP1 PUSH2 0x153B JUMP JUMPDEST PUSH1 0x2 PUSH1 0x0 DUP3 DUP3 SLOAD PUSH2 0x12CF SWAP2 SWAP1 PUSH2 0x17E6 JUMP JUMPDEST SWAP3 POP POP DUP2 SWAP1 SSTORE POP PUSH32 0x4DBF3A71A7C7262F432C2CAD7808225832255D07F7D8AB85117677C0B5C0A850 DUP3 PUSH1 0x40 MLOAD PUSH2 0x1305 SWAP2 SWAP1 PUSH2 0x142E JUMP JUMPDEST PUSH1 0x40 MLOAD DUP1 SWAP2 SUB SWAP1 LOG1 DUP2 PUSH1 0x5 DUP2 SWAP1 SSTORE POP POP POP POP JUMP JUMPDEST PUSH1 0x0 DUP4 DUP4 PUSH2 0x1327 SWAP2 SWAP1 PUSH2 0x17E6 JUMP JUMPDEST DUP3 DUP6 PUSH2 0x1333 SWAP2 SWAP1 PUSH2 0x153B JUMP JUMPDEST PUSH2 0x133D SWAP2 SWAP1 PUSH2 0x15C4 JUMP JUMPDEST SWAP1 POP SWAP4 SWAP3 POP POP POP JUMP JUMPDEST PUSH1 0x0 DUP1 REVERT JUMPDEST PUSH1 0x0 DUP2 SWAP1 POP SWAP2 SWAP1 POP JUMP JUMPDEST PUSH2 0x135E DUP2 PUSH2 0x134B JUMP JUMPDEST DUP2 EQ PUSH2 0x1369 JUMPI PUSH1 0x0 DUP1 REVERT JUMPDEST POP JUMP JUMPDEST PUSH1 0x0 DUP2 CALLDATALOAD SWAP1 POP PUSH2 0x137B DUP2 PUSH2 0x1355 JUMP JUMPDEST SWAP3 SWAP2 POP POP JUMP JUMPDEST PUSH1 0x0 PUSH20 0xFFFFFFFFFFFFFFFFFFFFFFFFFFFFFFFFFFFFFFFF DUP3 AND SWAP1 POP SWAP2 SWAP1 POP JUMP JUMPDEST PUSH1 0x0 PUSH2 0x13AC DUP3 PUSH2 0x1381 JUMP JUMPDEST SWAP1 POP SWAP2 SWAP1 POP JUMP JUMPDEST PUSH2 0x13BC DUP2 PUSH2 0x13A1 JUMP JUMPDEST DUP2 EQ PUSH2 0x13C7 JUMPI PUSH1 0x0 DUP1 REVERT JUMPDEST POP JUMP JUMPDEST PUSH1 0x0 DUP2 CALLDATALOAD SWAP1 POP PUSH2 0x13D9 DUP2 PUSH2 0x13B3 JUMP JUMPDEST SWAP3 SWAP2 POP POP JUMP JUMPDEST PUSH1 0x0 DUP1 PUSH1 0x40 DUP4 DUP6 SUB SLT ISZERO PUSH2 0x13F6 JUMPI PUSH2 0x13F5 PUSH2 0x1346 JUMP JUMPDEST JUMPDEST PUSH1 0x0 PUSH2 0x1404 DUP6 DUP3 DUP7 ADD PUSH2 0x136C JUMP JUMPDEST SWAP3 POP POP PUSH1 0x20 PUSH2 0x1415 DUP6 DUP3 DUP7 ADD PUSH2 0x13CA JUMP JUMPDEST SWAP2 POP POP SWAP3 POP SWAP3 SWAP1 POP JUMP JUMPDEST PUSH2 0x1428 DUP2 PUSH2 0x134B JUMP JUMPDEST DUP3 MSTORE POP POP JUMP JUMPDEST PUSH1 0x0 PUSH1 0x20 DUP3 ADD SWAP1 POP PUSH2 0x1443 PUSH1 0x0 DUP4 ADD DUP5 PUSH2 0x141F JUMP JUMPDEST SWAP3 SWAP2 POP POP JUMP JUMPDEST PUSH1 0x0 PUSH1 0x20 DUP3 DUP5 SUB SLT ISZERO PUSH2 0x145F JUMPI PUSH2 0x145E PUSH2 0x1346 JUMP JUMPDEST JUMPDEST PUSH1 0x0 PUSH2 0x146D DUP5 DUP3 DUP6 ADD PUSH2 0x136C JUMP JUMPDEST SWAP2 POP POP SWAP3 SWAP2 POP POP JUMP JUMPDEST PUSH1 0x0 PUSH1 0x40 DUP3 ADD SWAP1 POP PUSH2 0x148B PUSH1 0x0 DUP4 ADD DUP6 PUSH2 0x141F JUMP JUMPDEST PUSH2 0x1498 PUSH1 0x20 DUP4 ADD DUP5 PUSH2 0x141F JUMP JUMPDEST SWAP4 SWAP3 POP POP POP JUMP JUMPDEST PUSH1 0x0 PUSH1 0x20 DUP3 DUP5 SUB SLT ISZERO PUSH2 0x14B5 JUMPI PUSH2 0x14B4 PUSH2 0x1346 JUMP JUMPDEST JUMPDEST PUSH1 0x0 PUSH2 0x14C3 DUP5 DUP3 DUP6 ADD PUSH2 0x13CA JUMP JUMPDEST SWAP2 POP POP SWAP3 SWAP2 POP POP JUMP JUMPDEST PUSH1 0x0 DUP1 PUSH1 0x40 DUP4 DUP6 SUB SLT ISZERO PUSH2 0x14E3 JUMPI PUSH2 0x14E2 PUSH2 0x1346 JUMP JUMPDEST JUMPDEST PUSH1 0x0 PUSH2 0x14F1 DUP6 DUP3 DUP7 ADD PUSH2 0x13CA JUMP JUMPDEST SWAP3 POP POP PUSH1 0x20 PUSH2 0x1502 DUP6 DUP3 DUP7 ADD PUSH2 0x136C JUMP JUMPDEST SWAP2 POP POP SWAP3 POP SWAP3 SWAP1 POP JUMP JUMPDEST PUSH32 0x4E487B7100000000000000000000000000000000000000000000000000000000 PUSH1 0x0 MSTORE PUSH1 0x11 PUSH1 0x4 MSTORE PUSH1 0x24 PUSH1 0x0 REVERT JUMPDEST PUSH1 0x0 PUSH2 0x1546 DUP3 PUSH2 0x134B JUMP JUMPDEST SWAP2 POP PUSH2 0x1551 DUP4 PUSH2 0x134B JUMP JUMPDEST SWAP3 POP DUP2 PUSH32 0xFFFFFFFFFFFFFFFFFFFFFFFFFFFFFFFFFFFFFFFFFFFFFFFFFFFFFFFFFFFFFFFF DIV DUP4 GT DUP3 ISZERO ISZERO AND ISZERO PUSH2 0x158A JUMPI PUSH2 0x1589 PUSH2 0x150C JUMP JUMPDEST JUMPDEST DUP3 DUP3 MUL SWAP1 POP SWAP3 SWAP2 POP POP JUMP JUMPDEST PUSH32 0x4E487B7100000000000000000000000000000000000000000000000000000000 PUSH1 0x0 MSTORE PUSH1 0x12 PUSH1 0x4 MSTORE PUSH1 0x24 PUSH1 0x0 REVERT JUMPDEST PUSH1 0x0 PUSH2 0x15CF DUP3 PUSH2 0x134B JUMP JUMPDEST SWAP2 POP PUSH2 0x15DA DUP4 PUSH2 0x134B JUMP JUMPDEST SWAP3 POP DUP3 PUSH2 0x15EA JUMPI PUSH2 0x15E9 PUSH2 0x1595 JUMP JUMPDEST JUMPDEST DUP3 DUP3 DIV SWAP1 POP SWAP3 SWAP2 POP POP JUMP JUMPDEST PUSH2 0x15FE DUP2 PUSH2 0x13A1 JUMP JUMPDEST DUP3 MSTORE POP POP JUMP JUMPDEST PUSH1 0x0 PUSH1 0x20 DUP3 ADD SWAP1 POP PUSH2 0x1619 PUSH1 0x0 DUP4 ADD DUP5 PUSH2 0x15F5 JUMP JUMPDEST SWAP3 SWAP2 POP POP JUMP JUMPDEST PUSH1 0x0 DUP2 MLOAD SWAP1 POP PUSH2 0x162E DUP2 PUSH2 0x1355 JUMP JUMPDEST SWAP3 SWAP2 POP POP JUMP JUMPDEST PUSH1 0x0 PUSH1 0x20 DUP3 DUP5 SUB SLT ISZERO PUSH2 0x164A JUMPI PUSH2 0x1649 PUSH2 0x1346 JUMP JUMPDEST JUMPDEST PUSH1 0x0 PUSH2 0x1658 DUP5 DUP3 DUP6 ADD PUSH2 0x161F JUMP JUMPDEST SWAP2 POP POP SWAP3 SWAP2 POP POP JUMP JUMPDEST PUSH1 0x0 PUSH2 0x166C DUP3 PUSH2 0x134B JUMP JUMPDEST SWAP2 POP PUSH2 0x1677 DUP4 PUSH2 0x134B JUMP JUMPDEST SWAP3 POP DUP3 DUP3 LT ISZERO PUSH2 0x168A JUMPI PUSH2 0x1689 PUSH2 0x150C JUMP JUMPDEST JUMPDEST DUP3 DUP3 SUB SWAP1 POP SWAP3 SWAP2 POP POP JUMP JUMPDEST PUSH1 0x0 DUP2 SWAP1 POP SWAP3 SWAP2 POP POP JUMP JUMPDEST POP JUMP JUMPDEST PUSH1 0x0 PUSH2 0x16B0 PUSH1 0x0 DUP4 PUSH2 0x1695 JUMP JUMPDEST SWAP2 POP PUSH2 0x16BB DUP3 PUSH2 0x16A0 JUMP JUMPDEST PUSH1 0x0 DUP3 ADD SWAP1 POP SWAP2 SWAP1 POP JUMP JUMPDEST PUSH1 0x0 PUSH2 0x16D1 DUP3 PUSH2 0x16A3 JUMP JUMPDEST SWAP2 POP DUP2 SWAP1 POP SWAP2 SWAP1 POP JUMP JUMPDEST PUSH1 0x0 DUP3 DUP3 MSTORE PUSH1 0x20 DUP3 ADD SWAP1 POP SWAP3 SWAP2 POP POP JUMP JUMPDEST PUSH32 0x5472616E73666572206661696C65642E00000000000000000000000000000000 PUSH1 0x0 DUP3 ADD MSTORE POP JUMP JUMPDEST PUSH1 0x0 PUSH2 0x1722 PUSH1 0x10 DUP4 PUSH2 0x16DB JUMP JUMPDEST SWAP2 POP PUSH2 0x172D DUP3 PUSH2 0x16EC JUMP JUMPDEST PUSH1 0x20 DUP3 ADD SWAP1 POP SWAP2 SWAP1 POP JUMP JUMPDEST PUSH1 0x0 PUSH1 0x20 DUP3 ADD SWAP1 POP DUP2 DUP2 SUB PUSH1 0x0 DUP4 ADD MSTORE PUSH2 0x1751 DUP2 PUSH2 0x1715 JUMP JUMPDEST SWAP1 POP SWAP2 SWAP1 POP JUMP JUMPDEST PUSH1 0x0 PUSH1 0x40 DUP3 ADD SWAP1 POP PUSH2 0x176D PUSH1 0x0 DUP4 ADD DUP6 PUSH2 0x15F5 JUMP JUMPDEST PUSH2 0x177A PUSH1 0x20 DUP4 ADD DUP5 PUSH2 0x141F JUMP JUMPDEST SWAP4 SWAP3 POP POP POP JUMP JUMPDEST PUSH1 0x0 DUP2 ISZERO ISZERO SWAP1 POP SWAP2 SWAP1 POP JUMP JUMPDEST PUSH2 0x1796 DUP2 PUSH2 0x1781 JUMP JUMPDEST DUP2 EQ PUSH2 0x17A1 JUMPI PUSH1 0x0 DUP1 REVERT JUMPDEST POP JUMP JUMPDEST PUSH1 0x0 DUP2 MLOAD SWAP1 POP PUSH2 0x17B3 DUP2 PUSH2 0x178D JUMP JUMPDEST SWAP3 SWAP2 POP POP JUMP JUMPDEST PUSH1 0x0 PUSH1 0x20 DUP3 DUP5 SUB SLT ISZERO PUSH2 0x17CF JUMPI PUSH2 0x17CE PUSH2 0x1346 JUMP JUMPDEST JUMPDEST PUSH1 0x0 PUSH2 0x17DD DUP5 DUP3 DUP6 ADD PUSH2 0x17A4 JUMP JUMPDEST SWAP2 POP POP SWAP3 SWAP2 POP POP JUMP JUMPDEST PUSH1 0x0 PUSH2 0x17F1 DUP3 PUSH2 0x134B JUMP JUMPDEST SWAP2 POP PUSH2 0x17FC DUP4 PUSH2 0x134B JUMP JUMPDEST SWAP3 POP DUP3 PUSH32 0xFFFFFFFFFFFFFFFFFFFFFFFFFFFFFFFFFFFFFFFFFFFFFFFFFFFFFFFFFFFFFFFF SUB DUP3 GT ISZERO PUSH2 0x1831 JUMPI PUSH2 0x1830 PUSH2 0x150C JUMP JUMPDEST JUMPDEST DUP3 DUP3 ADD SWAP1 POP SWAP3 SWAP2 POP POP JUMP JUMPDEST PUSH1 0x0 PUSH1 0x60 DUP3 ADD SWAP1 POP PUSH2 0x1851 PUSH1 0x0 DUP4 ADD DUP7 PUSH2 0x15F5 JUMP JUMPDEST PUSH2 0x185E PUSH1 0x20 DUP4 ADD DUP6 PUSH2 0x15F5 JUMP JUMPDEST PUSH2 0x186B PUSH1 0x40 DUP4 ADD DUP5 PUSH2 0x141F JUMP JUMPDEST SWAP5 SWAP4 POP POP POP POP JUMP INVALID LOG2 PUSH5 0x6970667358 0x22 SLT KECCAK256 PUSH7 0xC5AC1E78E3F3B5 RETURNDATASIZE 0xE8 0xC8 0x2C LOG0 0xAD CALLDATALOAD SELFDESTRUCT CREATE PC DUP9 0x28 SGT BLOCKHASH SWAP11 DUP12 NOT DELEGATECALL EXTCODECOPY PUSH6 0x72A9099C6473 PUSH16 0x6C634300080F00330000000000000000 "
				},
				"gasEstimates": {
					"creation": {
						"codeDepositCost": "1262600",
						"executionCost": "1315",
						"totalCost": "1263915"
					},
					"external": {
						"deposit()": "infinite",
						"ercToEth(uint256)": "infinite",
						"ethToErc()": "infinite",
						"eth_received()": "2518",
						"fee()": "2517",
						"getBalance()": "385",
						"getTokenBalance()": "infinite",
						"getmMyFee()": "infinite",
						"initialize(address,uint256)": "infinite",
						"liq_added()": "2518",
						"liquidity(address)": "2836",
						"liquidityAdded(uint256)": "infinite",
						"liquiditySubstracted(uint256)": "infinite",
						"priceERC(uint256)": "infinite",
						"priceETH(uint256)": "infinite",
						"tokens_received()": "2452",
						"total_liquidity()": "2519",
						"withdraw(uint256,address)": "infinite"
					},
					"internal": {
						"calculatePrice(uint256,uint256,uint256)": "infinite"
					}
				},
				"methodIdentifiers": {
					"deposit()": "d0e30db0",
					"ercToEth(uint256)": "debc674c",
					"ethToErc()": "7937c03d",
					"eth_received()": "8666107c",
					"fee()": "ddca3f43",
					"getBalance()": "12065fe0",
					"getTokenBalance()": "82b2e257",
					"getmMyFee()": "38a880ec",
					"initialize(address,uint256)": "cd6dc687",
					"liq_added()": "707e7e87",
					"liquidity(address)": "b8c876b1",
					"liquidityAdded(uint256)": "5f244d4e",
					"liquiditySubstracted(uint256)": "1eb928aa",
					"priceERC(uint256)": "72a9d124",
					"priceETH(uint256)": "67da263d",
					"tokens_received()": "74942c0f",
					"total_liquidity()": "31f3bd28",
					"withdraw(uint256,address)": "00f714ce"
				}
			},
			"storageLayout": {
				"storage": [
					{
						"astId": 716,
						"contract": "PFG/AMM.sol:DEX",
						"label": "tokenERC",
						"offset": 0,
						"slot": "0",
						"type": "t_contract(IERC20)663"
					},
					{
						"astId": 718,
						"contract": "PFG/AMM.sol:DEX",
						"label": "total_liquidity",
						"offset": 0,
						"slot": "1",
						"type": "t_uint256"
					},
					{
						"astId": 720,
						"contract": "PFG/AMM.sol:DEX",
						"label": "fee",
						"offset": 0,
						"slot": "2",
						"type": "t_uint256"
					},
					{
						"astId": 730,
						"contract": "PFG/AMM.sol:DEX",
						"label": "liquidity",
						"offset": 0,
						"slot": "3",
						"type": "t_mapping(t_address,t_uint256)"
					},
					{
						"astId": 754,
						"contract": "PFG/AMM.sol:DEX",
						"label": "tokens_received",
						"offset": 0,
						"slot": "4",
						"type": "t_uint256"
					},
					{
						"astId": 756,
						"contract": "PFG/AMM.sol:DEX",
						"label": "eth_received",
						"offset": 0,
						"slot": "5",
						"type": "t_uint256"
					},
					{
						"astId": 758,
						"contract": "PFG/AMM.sol:DEX",
						"label": "liq_added",
						"offset": 0,
						"slot": "6",
						"type": "t_uint256"
					}
				],
				"types": {
					"t_address": {
						"encoding": "inplace",
						"label": "address",
						"numberOfBytes": "20"
					},
					"t_contract(IERC20)663": {
						"encoding": "inplace",
						"label": "contract IERC20",
						"numberOfBytes": "20"
					},
					"t_mapping(t_address,t_uint256)": {
						"encoding": "mapping",
						"key": "t_address",
						"label": "mapping(address => uint256)",
						"numberOfBytes": "32",
						"value": "t_uint256"
					},
					"t_uint256": {
						"encoding": "inplace",
						"label": "uint256",
						"numberOfBytes": "32"
					}
				}
			},
			"userdoc": {
				"kind": "user",
				"methods": {},
				"version": 1
			}
		}
	}
}