{
	"PFG/Proves/DEX.sol": {
		"DEX": {
			"abi": [
				{
					"anonymous": false,
					"inputs": [
						{
							"indexed": false,
							"internalType": "uint256",
							"name": "_value",
							"type": "uint256"
						}
					],
					"name": "Deposit",
					"type": "event"
				},
				{
					"anonymous": false,
					"inputs": [
						{
							"indexed": false,
							"internalType": "uint256",
							"name": "_value",
							"type": "uint256"
						}
					],
					"name": "ETHSwapped",
					"type": "event"
				},
				{
					"anonymous": false,
					"inputs": [
						{
							"indexed": false,
							"internalType": "uint256",
							"name": "_value",
							"type": "uint256"
						}
					],
					"name": "Initialize",
					"type": "event"
				},
				{
					"anonymous": false,
					"inputs": [
						{
							"indexed": false,
							"internalType": "uint256",
							"name": "_value",
							"type": "uint256"
						}
					],
					"name": "TokensSwapped",
					"type": "event"
				},
				{
					"anonymous": false,
					"inputs": [
						{
							"indexed": false,
							"internalType": "uint256",
							"name": "_valueETH",
							"type": "uint256"
						},
						{
							"indexed": false,
							"internalType": "uint256",
							"name": "_valueToken",
							"type": "uint256"
						}
					],
					"name": "Withdraw",
					"type": "event"
				},
				{
					"inputs": [],
					"name": "deposit",
					"outputs": [],
					"stateMutability": "payable",
					"type": "function"
				},
				{
					"inputs": [
						{
							"internalType": "uint256",
							"name": "token_amount",
							"type": "uint256"
						}
					],
					"name": "ercToEth",
					"outputs": [],
					"stateMutability": "nonpayable",
					"type": "function"
				},
				{
					"inputs": [],
					"name": "ethToErc",
					"outputs": [],
					"stateMutability": "payable",
					"type": "function"
				},
				{
					"inputs": [],
					"name": "getBalance",
					"outputs": [
						{
							"internalType": "uint256",
							"name": "",
							"type": "uint256"
						}
					],
					"stateMutability": "view",
					"type": "function"
				},
				{
					"inputs": [],
					"name": "getTokenBalance",
					"outputs": [
						{
							"internalType": "uint256",
							"name": "",
							"type": "uint256"
						}
					],
					"stateMutability": "view",
					"type": "function"
				},
				{
					"inputs": [
						{
							"internalType": "address",
							"name": "token_address",
							"type": "address"
						},
						{
							"internalType": "uint256",
							"name": "token_amount",
							"type": "uint256"
						},
						{
							"internalType": "uint256",
							"name": "eth_amount",
							"type": "uint256"
						}
					],
					"name": "initialize",
					"outputs": [],
					"stateMutability": "payable",
					"type": "function"
				},
				{
					"inputs": [
						{
							"internalType": "address",
							"name": "",
							"type": "address"
						}
					],
					"name": "liquidity",
					"outputs": [
						{
							"internalType": "uint256",
							"name": "",
							"type": "uint256"
						}
					],
					"stateMutability": "view",
					"type": "function"
				},
				{
					"inputs": [],
					"name": "total_liquidity",
					"outputs": [
						{
							"internalType": "uint256",
							"name": "",
							"type": "uint256"
						}
					],
					"stateMutability": "view",
					"type": "function"
				},
				{
					"inputs": [
						{
							"internalType": "uint256",
							"name": "value",
							"type": "uint256"
						}
					],
					"name": "withdraw",
					"outputs": [],
					"stateMutability": "nonpayable",
					"type": "function"
				}
			],
			"devdoc": {
				"kind": "dev",
				"methods": {},
				"version": 1
			},
			"evm": {
				"assembly": "    /* \"PFG/Proves/DEX.sol\":164:3385  contract DEX {... */\n  mstore(0x40, 0x80)\n  callvalue\n  dup1\n  iszero\n  tag_1\n  jumpi\n  0x00\n  dup1\n  revert\ntag_1:\n  pop\n  dataSize(sub_0)\n  dup1\n  dataOffset(sub_0)\n  0x00\n  codecopy\n  0x00\n  return\nstop\n\nsub_0: assembly {\n        /* \"PFG/Proves/DEX.sol\":164:3385  contract DEX {... */\n      mstore(0x40, 0x80)\n      jumpi(tag_1, lt(calldatasize, 0x04))\n      shr(0xe0, calldataload(0x00))\n      dup1\n      0x7a1ac61e\n      gt\n      tag_11\n      jumpi\n      dup1\n      0x7a1ac61e\n      eq\n      tag_6\n      jumpi\n      dup1\n      0x82b2e257\n      eq\n      tag_7\n      jumpi\n      dup1\n      0xb8c876b1\n      eq\n      tag_8\n      jumpi\n      dup1\n      0xd0e30db0\n      eq\n      tag_9\n      jumpi\n      dup1\n      0xdebc674c\n      eq\n      tag_10\n      jumpi\n      jump(tag_1)\n    tag_11:\n      dup1\n      0x12065fe0\n      eq\n      tag_2\n      jumpi\n      dup1\n      0x2e1a7d4d\n      eq\n      tag_3\n      jumpi\n      dup1\n      0x31f3bd28\n      eq\n      tag_4\n      jumpi\n      dup1\n      0x7937c03d\n      eq\n      tag_5\n      jumpi\n    tag_1:\n      0x00\n      dup1\n      revert\n        /* \"PFG/Proves/DEX.sol\":3287:3382  function getBalance() external view returns (uint256) {... */\n    tag_2:\n      callvalue\n      dup1\n      iszero\n      tag_12\n      jumpi\n      0x00\n      dup1\n      revert\n    tag_12:\n      pop\n      tag_13\n      tag_14\n      jump\t// in\n    tag_13:\n      mload(0x40)\n      tag_15\n      swap2\n      swap1\n      tag_16\n      jump\t// in\n    tag_15:\n      mload(0x40)\n      dup1\n      swap2\n      sub\n      swap1\n      return\n        /* \"PFG/Proves/DEX.sol\":2598:3163  function withdraw(uint256 value) external {... */\n    tag_3:\n      callvalue\n      dup1\n      iszero\n      tag_17\n      jumpi\n      0x00\n      dup1\n      revert\n    tag_17:\n      pop\n      tag_18\n      0x04\n      dup1\n      calldatasize\n      sub\n      dup2\n      add\n      swap1\n      tag_19\n      swap2\n      swap1\n      tag_20\n      jump\t// in\n    tag_19:\n      tag_21\n      jump\t// in\n    tag_18:\n      stop\n        /* \"PFG/Proves/DEX.sol\":208:238  uint256 public total_liquidity */\n    tag_4:\n      callvalue\n      dup1\n      iszero\n      tag_22\n      jumpi\n      0x00\n      dup1\n      revert\n    tag_22:\n      pop\n      tag_23\n      tag_24\n      jump\t// in\n    tag_23:\n      mload(0x40)\n      tag_25\n      swap2\n      swap1\n      tag_16\n      jump\t// in\n    tag_25:\n      mload(0x40)\n      dup1\n      swap2\n      sub\n      swap1\n      return\n        /* \"PFG/Proves/DEX.sol\":1321:1626  function ethToErc() external payable {... */\n    tag_5:\n      tag_26\n      tag_27\n      jump\t// in\n    tag_26:\n      stop\n        /* \"PFG/Proves/DEX.sol\":524:1084  function initialize(address token_address, uint256 token_amount, uint256 eth_amount) external payable {... */\n    tag_6:\n      tag_28\n      0x04\n      dup1\n      calldatasize\n      sub\n      dup2\n      add\n      swap1\n      tag_29\n      swap2\n      swap1\n      tag_30\n      jump\t// in\n    tag_29:\n      tag_31\n      jump\t// in\n    tag_28:\n      stop\n        /* \"PFG/Proves/DEX.sol\":3169:3281  function getTokenBalance() external view returns (uint256) {... */\n    tag_7:\n      callvalue\n      dup1\n      iszero\n      tag_32\n      jumpi\n      0x00\n      dup1\n      revert\n    tag_32:\n      pop\n      tag_33\n      tag_34\n      jump\t// in\n    tag_33:\n      mload(0x40)\n      tag_35\n      swap2\n      swap1\n      tag_16\n      jump\t// in\n    tag_35:\n      mload(0x40)\n      dup1\n      swap2\n      sub\n      swap1\n      return\n        /* \"PFG/Proves/DEX.sol\":245:290  mapping (address => uint256) public liquidity */\n    tag_8:\n      callvalue\n      dup1\n      iszero\n      tag_36\n      jumpi\n      0x00\n      dup1\n      revert\n    tag_36:\n      pop\n      tag_37\n      0x04\n      dup1\n      calldatasize\n      sub\n      dup2\n      add\n      swap1\n      tag_38\n      swap2\n      swap1\n      tag_39\n      jump\t// in\n    tag_38:\n      tag_40\n      jump\t// in\n    tag_37:\n      mload(0x40)\n      tag_41\n      swap2\n      swap1\n      tag_16\n      jump\t// in\n    tag_41:\n      mload(0x40)\n      dup1\n      swap2\n      sub\n      swap1\n      return\n        /* \"PFG/Proves/DEX.sol\":2074:2592  function deposit() external payable {... */\n    tag_9:\n      tag_42\n      tag_43\n      jump\t// in\n    tag_42:\n      stop\n        /* \"PFG/Proves/DEX.sol\":1632:2068  function ercToEth(uint256 token_amount) external {... */\n    tag_10:\n      callvalue\n      dup1\n      iszero\n      tag_44\n      jumpi\n      0x00\n      dup1\n      revert\n    tag_44:\n      pop\n      tag_45\n      0x04\n      dup1\n      calldatasize\n      sub\n      dup2\n      add\n      swap1\n      tag_46\n      swap2\n      swap1\n      tag_20\n      jump\t// in\n    tag_46:\n      tag_47\n      jump\t// in\n    tag_45:\n      stop\n        /* \"PFG/Proves/DEX.sol\":3287:3382  function getBalance() external view returns (uint256) {... */\n    tag_14:\n        /* \"PFG/Proves/DEX.sol\":3332:3339  uint256 */\n      0x00\n        /* \"PFG/Proves/DEX.sol\":3356:3377  address(this).balance */\n      selfbalance\n        /* \"PFG/Proves/DEX.sol\":3349:3377  return address(this).balance */\n      swap1\n      pop\n        /* \"PFG/Proves/DEX.sol\":3287:3382  function getBalance() external view returns (uint256) {... */\n      swap1\n      jump\t// out\n        /* \"PFG/Proves/DEX.sol\":2598:3163  function withdraw(uint256 value) external {... */\n    tag_21:\n        /* \"PFG/Proves/DEX.sol\":2651:2668  uint256 eth_value */\n      0x00\n        /* \"PFG/Proves/DEX.sol\":2705:2720  total_liquidity */\n      sload(0x01)\n        /* \"PFG/Proves/DEX.sol\":2680:2701  address(this).balance */\n      selfbalance\n        /* \"PFG/Proves/DEX.sol\":2672:2677  value */\n      dup4\n        /* \"PFG/Proves/DEX.sol\":2672:2701  value * address(this).balance */\n      tag_50\n      swap2\n      swap1\n      tag_51\n      jump\t// in\n    tag_50:\n        /* \"PFG/Proves/DEX.sol\":2671:2720  (value * address(this).balance) / total_liquidity */\n      tag_52\n      swap2\n      swap1\n      tag_53\n      jump\t// in\n    tag_52:\n        /* \"PFG/Proves/DEX.sol\":2651:2720  uint256 eth_value = (value * address(this).balance) / total_liquidity */\n      swap1\n      pop\n        /* \"PFG/Proves/DEX.sol\":2731:2750  uint256 token_value */\n      0x00\n        /* \"PFG/Proves/DEX.sol\":2799:2814  total_liquidity */\n      sload(0x01)\n        /* \"PFG/Proves/DEX.sol\":2762:2770  tokenERC */\n      0x00\n      dup1\n      sload\n      swap1\n      0x0100\n      exp\n      swap1\n      div\n      0xffffffffffffffffffffffffffffffffffffffff\n      and\n        /* \"PFG/Proves/DEX.sol\":2762:2780  tokenERC.balanceOf */\n      0xffffffffffffffffffffffffffffffffffffffff\n      and\n      0x70a08231\n        /* \"PFG/Proves/DEX.sol\":2789:2793  this */\n      address\n        /* \"PFG/Proves/DEX.sol\":2762:2795  tokenERC.balanceOf(address(this)) */\n      mload(0x40)\n      dup3\n      0xffffffff\n      and\n      0xe0\n      shl\n      dup2\n      mstore\n      0x04\n      add\n      tag_54\n      swap2\n      swap1\n      tag_55\n      jump\t// in\n    tag_54:\n      0x20\n      mload(0x40)\n      dup1\n      dup4\n      sub\n      dup2\n      dup7\n      gas\n      staticcall\n      iszero\n      dup1\n      iszero\n      tag_57\n      jumpi\n      returndatasize\n      0x00\n      dup1\n      returndatacopy\n      revert(0x00, returndatasize)\n    tag_57:\n      pop\n      pop\n      pop\n      pop\n      mload(0x40)\n      returndatasize\n      not(0x1f)\n      0x1f\n      dup3\n      add\n      and\n      dup3\n      add\n      dup1\n      0x40\n      mstore\n      pop\n      dup2\n      add\n      swap1\n      tag_58\n      swap2\n      swap1\n      tag_59\n      jump\t// in\n    tag_58:\n        /* \"PFG/Proves/DEX.sol\":2754:2759  value */\n      dup5\n        /* \"PFG/Proves/DEX.sol\":2754:2795  value * tokenERC.balanceOf(address(this)) */\n      tag_60\n      swap2\n      swap1\n      tag_51\n      jump\t// in\n    tag_60:\n        /* \"PFG/Proves/DEX.sol\":2753:2814  (value * tokenERC.balanceOf(address(this))) / total_liquidity */\n      tag_61\n      swap2\n      swap1\n      tag_53\n      jump\t// in\n    tag_61:\n        /* \"PFG/Proves/DEX.sol\":2731:2814  uint256 token_value = (value * tokenERC.balanceOf(address(this))) / total_liquidity */\n      swap1\n      pop\n        /* \"PFG/Proves/DEX.sol\":2860:2869  eth_value */\n      dup2\n        /* \"PFG/Proves/DEX.sol\":2835:2844  liquidity */\n      0x02\n        /* \"PFG/Proves/DEX.sol\":2835:2856  liquidity[msg.sender] */\n      0x00\n        /* \"PFG/Proves/DEX.sol\":2845:2855  msg.sender */\n      caller\n        /* \"PFG/Proves/DEX.sol\":2835:2856  liquidity[msg.sender] */\n      0xffffffffffffffffffffffffffffffffffffffff\n      and\n      0xffffffffffffffffffffffffffffffffffffffff\n      and\n      dup2\n      mstore\n      0x20\n      add\n      swap1\n      dup2\n      mstore\n      0x20\n      add\n      0x00\n      keccak256\n      0x00\n        /* \"PFG/Proves/DEX.sol\":2835:2869  liquidity[msg.sender] -= eth_value */\n      dup3\n      dup3\n      sload\n      tag_62\n      swap2\n      swap1\n      tag_63\n      jump\t// in\n    tag_62:\n      swap3\n      pop\n      pop\n      dup2\n      swap1\n      sstore\n      pop\n        /* \"PFG/Proves/DEX.sol\":2899:2908  eth_value */\n      dup2\n        /* \"PFG/Proves/DEX.sol\":2880:2895  total_liquidity */\n      0x01\n      0x00\n        /* \"PFG/Proves/DEX.sol\":2880:2908  total_liquidity -= eth_value */\n      dup3\n      dup3\n      sload\n      tag_64\n      swap2\n      swap1\n      tag_63\n      jump\t// in\n    tag_64:\n      swap3\n      pop\n      pop\n      dup2\n      swap1\n      sstore\n      pop\n        /* \"PFG/Proves/DEX.sol\":2930:2942  bool success */\n      0x00\n        /* \"PFG/Proves/DEX.sol\":2948:2958  msg.sender */\n      caller\n        /* \"PFG/Proves/DEX.sol\":2948:2963  msg.sender.call */\n      0xffffffffffffffffffffffffffffffffffffffff\n      and\n        /* \"PFG/Proves/DEX.sol\":2971:2980  eth_value */\n      dup4\n        /* \"PFG/Proves/DEX.sol\":2948:2985  msg.sender.call{value: eth_value}(\"\") */\n      mload(0x40)\n      tag_65\n      swap1\n      tag_66\n      jump\t// in\n    tag_65:\n      0x00\n      mload(0x40)\n      dup1\n      dup4\n      sub\n      dup2\n      dup6\n      dup8\n      gas\n      call\n      swap3\n      pop\n      pop\n      pop\n      returndatasize\n      dup1\n      0x00\n      dup2\n      eq\n      tag_69\n      jumpi\n      mload(0x40)\n      swap2\n      pop\n      and(add(returndatasize, 0x3f), not(0x1f))\n      dup3\n      add\n      0x40\n      mstore\n      returndatasize\n      dup3\n      mstore\n      returndatasize\n      0x00\n      0x20\n      dup5\n      add\n      returndatacopy\n      jump(tag_68)\n    tag_69:\n      0x60\n      swap2\n      pop\n    tag_68:\n      pop\n        /* \"PFG/Proves/DEX.sol\":2929:2985  (bool success, ) = msg.sender.call{value: eth_value}(\"\") */\n      pop\n      swap1\n      pop\n        /* \"PFG/Proves/DEX.sol\":3004:3011  success */\n      dup1\n        /* \"PFG/Proves/DEX.sol\":2996:3032  require(success, \"Transfer failed.\") */\n      tag_70\n      jumpi\n      mload(0x40)\n      0x08c379a000000000000000000000000000000000000000000000000000000000\n      dup2\n      mstore\n      0x04\n      add\n      tag_71\n      swap1\n      tag_72\n      jump\t// in\n    tag_71:\n      mload(0x40)\n      dup1\n      swap2\n      sub\n      swap1\n      revert\n    tag_70:\n        /* \"PFG/Proves/DEX.sol\":3057:3065  tokenERC */\n      0x00\n      dup1\n      sload\n      swap1\n      0x0100\n      exp\n      swap1\n      div\n      0xffffffffffffffffffffffffffffffffffffffff\n      and\n        /* \"PFG/Proves/DEX.sol\":3057:3074  tokenERC.transfer */\n      0xffffffffffffffffffffffffffffffffffffffff\n      and\n      0xa9059cbb\n        /* \"PFG/Proves/DEX.sol\":3075:3085  msg.sender */\n      caller\n        /* \"PFG/Proves/DEX.sol\":3087:3098  token_value */\n      dup5\n        /* \"PFG/Proves/DEX.sol\":3057:3099  tokenERC.transfer(msg.sender, token_value) */\n      mload(0x40)\n      dup4\n      0xffffffff\n      and\n      0xe0\n      shl\n      dup2\n      mstore\n      0x04\n      add\n      tag_73\n      swap3\n      swap2\n      swap1\n      tag_74\n      jump\t// in\n    tag_73:\n      0x20\n      mload(0x40)\n      dup1\n      dup4\n      sub\n      dup2\n      0x00\n      dup8\n      gas\n      call\n      iszero\n      dup1\n      iszero\n      tag_76\n      jumpi\n      returndatasize\n      0x00\n      dup1\n      returndatacopy\n      revert(0x00, returndatasize)\n    tag_76:\n      pop\n      pop\n      pop\n      pop\n      mload(0x40)\n      returndatasize\n      not(0x1f)\n      0x1f\n      dup3\n      add\n      and\n      dup3\n      add\n      dup1\n      0x40\n      mstore\n      pop\n      dup2\n      add\n      swap1\n      tag_77\n      swap2\n      swap1\n      tag_78\n      jump\t// in\n    tag_77:\n        /* \"PFG/Proves/DEX.sol\":3049:3100  require(tokenERC.transfer(msg.sender, token_value)) */\n      tag_79\n      jumpi\n      0x00\n      dup1\n      revert\n    tag_79:\n        /* \"PFG/Proves/DEX.sol\":3126:3158  Withdraw(eth_value, token_value) */\n      0x56ca301a9219608c91e7bcee90e083c19671d2cdcc96752c7af291cee5f9c8c8\n        /* \"PFG/Proves/DEX.sol\":3135:3144  eth_value */\n      dup4\n        /* \"PFG/Proves/DEX.sol\":3146:3157  token_value */\n      dup4\n        /* \"PFG/Proves/DEX.sol\":3126:3158  Withdraw(eth_value, token_value) */\n      mload(0x40)\n      tag_80\n      swap3\n      swap2\n      swap1\n      tag_81\n      jump\t// in\n    tag_80:\n      mload(0x40)\n      dup1\n      swap2\n      sub\n      swap1\n      log1\n        /* \"PFG/Proves/DEX.sol\":2640:3163  {... */\n      pop\n      pop\n      pop\n        /* \"PFG/Proves/DEX.sol\":2598:3163  function withdraw(uint256 value) external {... */\n      pop\n      jump\t// out\n        /* \"PFG/Proves/DEX.sol\":208:238  uint256 public total_liquidity */\n    tag_24:\n      sload(0x01)\n      dup2\n      jump\t// out\n        /* \"PFG/Proves/DEX.sol\":1321:1626  function ethToErc() external payable {... */\n    tag_27:\n        /* \"PFG/Proves/DEX.sol\":1369:1391  uint256 tokens_swapped */\n      0x00\n        /* \"PFG/Proves/DEX.sol\":1394:1491  calculatePrice(msg.value, (address(this).balance - msg.value), tokenERC.balanceOf(address(this))) */\n      tag_83\n        /* \"PFG/Proves/DEX.sol\":1409:1418  msg.value */\n      callvalue\n        /* \"PFG/Proves/DEX.sol\":1445:1454  msg.value */\n      callvalue\n        /* \"PFG/Proves/DEX.sol\":1421:1442  address(this).balance */\n      selfbalance\n        /* \"PFG/Proves/DEX.sol\":1421:1454  address(this).balance - msg.value */\n      tag_84\n      swap2\n      swap1\n      tag_63\n      jump\t// in\n    tag_84:\n        /* \"PFG/Proves/DEX.sol\":1457:1465  tokenERC */\n      0x00\n      dup1\n      sload\n      swap1\n      0x0100\n      exp\n      swap1\n      div\n      0xffffffffffffffffffffffffffffffffffffffff\n      and\n        /* \"PFG/Proves/DEX.sol\":1457:1475  tokenERC.balanceOf */\n      0xffffffffffffffffffffffffffffffffffffffff\n      and\n      0x70a08231\n        /* \"PFG/Proves/DEX.sol\":1484:1488  this */\n      address\n        /* \"PFG/Proves/DEX.sol\":1457:1490  tokenERC.balanceOf(address(this)) */\n      mload(0x40)\n      dup3\n      0xffffffff\n      and\n      0xe0\n      shl\n      dup2\n      mstore\n      0x04\n      add\n      tag_85\n      swap2\n      swap1\n      tag_55\n      jump\t// in\n    tag_85:\n      0x20\n      mload(0x40)\n      dup1\n      dup4\n      sub\n      dup2\n      dup7\n      gas\n      staticcall\n      iszero\n      dup1\n      iszero\n      tag_87\n      jumpi\n      returndatasize\n      0x00\n      dup1\n      returndatacopy\n      revert(0x00, returndatasize)\n    tag_87:\n      pop\n      pop\n      pop\n      pop\n      mload(0x40)\n      returndatasize\n      not(0x1f)\n      0x1f\n      dup3\n      add\n      and\n      dup3\n      add\n      dup1\n      0x40\n      mstore\n      pop\n      dup2\n      add\n      swap1\n      tag_88\n      swap2\n      swap1\n      tag_59\n      jump\t// in\n    tag_88:\n        /* \"PFG/Proves/DEX.sol\":1394:1408  calculatePrice */\n      tag_89\n        /* \"PFG/Proves/DEX.sol\":1394:1491  calculatePrice(msg.value, (address(this).balance - msg.value), tokenERC.balanceOf(address(this))) */\n      jump\t// in\n    tag_83:\n        /* \"PFG/Proves/DEX.sol\":1369:1491  uint256 tokens_swapped = calculatePrice(msg.value, (address(this).balance - msg.value), tokenERC.balanceOf(address(this))) */\n      swap1\n      pop\n        /* \"PFG/Proves/DEX.sol\":1520:1528  tokenERC */\n      0x00\n      dup1\n      sload\n      swap1\n      0x0100\n      exp\n      swap1\n      div\n      0xffffffffffffffffffffffffffffffffffffffff\n      and\n        /* \"PFG/Proves/DEX.sol\":1520:1537  tokenERC.transfer */\n      0xffffffffffffffffffffffffffffffffffffffff\n      and\n      0xa9059cbb\n        /* \"PFG/Proves/DEX.sol\":1538:1548  msg.sender */\n      caller\n        /* \"PFG/Proves/DEX.sol\":1550:1564  tokens_swapped */\n      dup4\n        /* \"PFG/Proves/DEX.sol\":1520:1565  tokenERC.transfer(msg.sender, tokens_swapped) */\n      mload(0x40)\n      dup4\n      0xffffffff\n      and\n      0xe0\n      shl\n      dup2\n      mstore\n      0x04\n      add\n      tag_90\n      swap3\n      swap2\n      swap1\n      tag_74\n      jump\t// in\n    tag_90:\n      0x20\n      mload(0x40)\n      dup1\n      dup4\n      sub\n      dup2\n      0x00\n      dup8\n      gas\n      call\n      iszero\n      dup1\n      iszero\n      tag_92\n      jumpi\n      returndatasize\n      0x00\n      dup1\n      returndatacopy\n      revert(0x00, returndatasize)\n    tag_92:\n      pop\n      pop\n      pop\n      pop\n      mload(0x40)\n      returndatasize\n      not(0x1f)\n      0x1f\n      dup3\n      add\n      and\n      dup3\n      add\n      dup1\n      0x40\n      mstore\n      pop\n      dup2\n      add\n      swap1\n      tag_93\n      swap2\n      swap1\n      tag_78\n      jump\t// in\n    tag_93:\n        /* \"PFG/Proves/DEX.sol\":1512:1566  require(tokenERC.transfer(msg.sender, tokens_swapped)) */\n      tag_94\n      jumpi\n      0x00\n      dup1\n      revert\n    tag_94:\n        /* \"PFG/Proves/DEX.sol\":1592:1621  TokensSwapped(tokens_swapped) */\n      0xdb04c7a6d4758fd55d738ebc67e7f3010ac922be00771ef29521a4090d1eb13f\n        /* \"PFG/Proves/DEX.sol\":1606:1620  tokens_swapped */\n      dup2\n        /* \"PFG/Proves/DEX.sol\":1592:1621  TokensSwapped(tokens_swapped) */\n      mload(0x40)\n      tag_95\n      swap2\n      swap1\n      tag_16\n      jump\t// in\n    tag_95:\n      mload(0x40)\n      dup1\n      swap2\n      sub\n      swap1\n      log1\n        /* \"PFG/Proves/DEX.sol\":1358:1626  {... */\n      pop\n        /* \"PFG/Proves/DEX.sol\":1321:1626  function ethToErc() external payable {... */\n      jump\t// out\n        /* \"PFG/Proves/DEX.sol\":524:1084  function initialize(address token_address, uint256 token_amount, uint256 eth_amount) external payable {... */\n    tag_31:\n        /* \"PFG/Proves/DEX.sol\":661:662  0 */\n      0x00\n        /* \"PFG/Proves/DEX.sol\":642:657  total_liquidity */\n      sload(0x01)\n        /* \"PFG/Proves/DEX.sol\":642:662  total_liquidity == 0 */\n      eq\n        /* \"PFG/Proves/DEX.sol\":634:663  require(total_liquidity == 0) */\n      tag_97\n      jumpi\n      0x00\n      dup1\n      revert\n    tag_97:\n        /* \"PFG/Proves/DEX.sol\":696:709  token_address */\n      dup3\n        /* \"PFG/Proves/DEX.sol\":678:686  tokenERC */\n      0x00\n      dup1\n        /* \"PFG/Proves/DEX.sol\":678:710  tokenERC = IERC20(token_address) */\n      0x0100\n      exp\n      dup2\n      sload\n      dup2\n      0xffffffffffffffffffffffffffffffffffffffff\n      mul\n      not\n      and\n      swap1\n      dup4\n      0xffffffffffffffffffffffffffffffffffffffff\n      and\n      mul\n      or\n      swap1\n      sstore\n      pop\n        /* \"PFG/Proves/DEX.sol\":732:744  bool success */\n      0x00\n        /* \"PFG/Proves/DEX.sol\":750:760  msg.sender */\n      caller\n        /* \"PFG/Proves/DEX.sol\":750:765  msg.sender.call */\n      0xffffffffffffffffffffffffffffffffffffffff\n      and\n        /* \"PFG/Proves/DEX.sol\":773:783  eth_amount */\n      dup3\n        /* \"PFG/Proves/DEX.sol\":750:788  msg.sender.call{value: eth_amount}(\"\") */\n      mload(0x40)\n      tag_98\n      swap1\n      tag_66\n      jump\t// in\n    tag_98:\n      0x00\n      mload(0x40)\n      dup1\n      dup4\n      sub\n      dup2\n      dup6\n      dup8\n      gas\n      call\n      swap3\n      pop\n      pop\n      pop\n      returndatasize\n      dup1\n      0x00\n      dup2\n      eq\n      tag_101\n      jumpi\n      mload(0x40)\n      swap2\n      pop\n      and(add(returndatasize, 0x3f), not(0x1f))\n      dup3\n      add\n      0x40\n      mstore\n      returndatasize\n      dup3\n      mstore\n      returndatasize\n      0x00\n      0x20\n      dup5\n      add\n      returndatacopy\n      jump(tag_100)\n    tag_101:\n      0x60\n      swap2\n      pop\n    tag_100:\n      pop\n        /* \"PFG/Proves/DEX.sol\":731:788  (bool success, ) = msg.sender.call{value: eth_amount}(\"\") */\n      pop\n      swap1\n      pop\n        /* \"PFG/Proves/DEX.sol\":807:814  success */\n      dup1\n        /* \"PFG/Proves/DEX.sol\":799:835  require(success, \"Transfer failed.\") */\n      tag_102\n      jumpi\n      mload(0x40)\n      0x08c379a000000000000000000000000000000000000000000000000000000000\n      dup2\n      mstore\n      0x04\n      add\n      tag_103\n      swap1\n      tag_72\n      jump\t// in\n    tag_103:\n      mload(0x40)\n      dup1\n      swap2\n      sub\n      swap1\n      revert\n    tag_102:\n        /* \"PFG/Proves/DEX.sol\":863:884  address(this).balance */\n      selfbalance\n        /* \"PFG/Proves/DEX.sol\":845:860  total_liquidity */\n      0x01\n        /* \"PFG/Proves/DEX.sol\":845:884  total_liquidity = address(this).balance */\n      dup2\n      swap1\n      sstore\n      pop\n        /* \"PFG/Proves/DEX.sol\":919:934  total_liquidity */\n      sload(0x01)\n        /* \"PFG/Proves/DEX.sol\":895:904  liquidity */\n      0x02\n        /* \"PFG/Proves/DEX.sol\":895:916  liquidity[msg.sender] */\n      0x00\n        /* \"PFG/Proves/DEX.sol\":905:915  msg.sender */\n      caller\n        /* \"PFG/Proves/DEX.sol\":895:916  liquidity[msg.sender] */\n      0xffffffffffffffffffffffffffffffffffffffff\n      and\n      0xffffffffffffffffffffffffffffffffffffffff\n      and\n      dup2\n      mstore\n      0x20\n      add\n      swap1\n      dup2\n      mstore\n      0x20\n      add\n      0x00\n      keccak256\n        /* \"PFG/Proves/DEX.sol\":895:934  liquidity[msg.sender] = total_liquidity */\n      dup2\n      swap1\n      sstore\n      pop\n        /* \"PFG/Proves/DEX.sol\":963:971  tokenERC */\n      0x00\n      dup1\n      sload\n      swap1\n      0x0100\n      exp\n      swap1\n      div\n      0xffffffffffffffffffffffffffffffffffffffff\n      and\n        /* \"PFG/Proves/DEX.sol\":963:984  tokenERC.transferFrom */\n      0xffffffffffffffffffffffffffffffffffffffff\n      and\n      0x23b872dd\n        /* \"PFG/Proves/DEX.sol\":985:995  msg.sender */\n      caller\n        /* \"PFG/Proves/DEX.sol\":1005:1009  this */\n      address\n        /* \"PFG/Proves/DEX.sol\":1012:1024  token_amount */\n      dup7\n        /* \"PFG/Proves/DEX.sol\":963:1025  tokenERC.transferFrom(msg.sender, address(this), token_amount) */\n      mload(0x40)\n      dup5\n      0xffffffff\n      and\n      0xe0\n      shl\n      dup2\n      mstore\n      0x04\n      add\n      tag_104\n      swap4\n      swap3\n      swap2\n      swap1\n      tag_105\n      jump\t// in\n    tag_104:\n      0x20\n      mload(0x40)\n      dup1\n      dup4\n      sub\n      dup2\n      0x00\n      dup8\n      gas\n      call\n      iszero\n      dup1\n      iszero\n      tag_107\n      jumpi\n      returndatasize\n      0x00\n      dup1\n      returndatacopy\n      revert(0x00, returndatasize)\n    tag_107:\n      pop\n      pop\n      pop\n      pop\n      mload(0x40)\n      returndatasize\n      not(0x1f)\n      0x1f\n      dup3\n      add\n      and\n      dup3\n      add\n      dup1\n      0x40\n      mstore\n      pop\n      dup2\n      add\n      swap1\n      tag_108\n      swap2\n      swap1\n      tag_78\n      jump\t// in\n    tag_108:\n        /* \"PFG/Proves/DEX.sol\":955:1026  require(tokenERC.transferFrom(msg.sender, address(this), token_amount)) */\n      tag_109\n      jumpi\n      0x00\n      dup1\n      revert\n    tag_109:\n        /* \"PFG/Proves/DEX.sol\":1052:1079  Initialize(total_liquidity) */\n      0xc43e48cf47e9fa186d0f4096c61d1fcb54159799f935a2aa32e5589688ee36e1\n        /* \"PFG/Proves/DEX.sol\":1063:1078  total_liquidity */\n      sload(0x01)\n        /* \"PFG/Proves/DEX.sol\":1052:1079  Initialize(total_liquidity) */\n      mload(0x40)\n      tag_110\n      swap2\n      swap1\n      tag_16\n      jump\t// in\n    tag_110:\n      mload(0x40)\n      dup1\n      swap2\n      sub\n      swap1\n      log1\n        /* \"PFG/Proves/DEX.sol\":626:1084  {... */\n      pop\n        /* \"PFG/Proves/DEX.sol\":524:1084  function initialize(address token_address, uint256 token_amount, uint256 eth_amount) external payable {... */\n      pop\n      pop\n      pop\n      jump\t// out\n        /* \"PFG/Proves/DEX.sol\":3169:3281  function getTokenBalance() external view returns (uint256) {... */\n    tag_34:\n        /* \"PFG/Proves/DEX.sol\":3219:3226  uint256 */\n      0x00\n        /* \"PFG/Proves/DEX.sol\":3243:3251  tokenERC */\n      dup1\n      0x00\n      swap1\n      sload\n      swap1\n      0x0100\n      exp\n      swap1\n      div\n      0xffffffffffffffffffffffffffffffffffffffff\n      and\n        /* \"PFG/Proves/DEX.sol\":3243:3261  tokenERC.balanceOf */\n      0xffffffffffffffffffffffffffffffffffffffff\n      and\n      0x70a08231\n        /* \"PFG/Proves/DEX.sol\":3270:3274  this */\n      address\n        /* \"PFG/Proves/DEX.sol\":3243:3276  tokenERC.balanceOf(address(this)) */\n      mload(0x40)\n      dup3\n      0xffffffff\n      and\n      0xe0\n      shl\n      dup2\n      mstore\n      0x04\n      add\n      tag_112\n      swap2\n      swap1\n      tag_55\n      jump\t// in\n    tag_112:\n      0x20\n      mload(0x40)\n      dup1\n      dup4\n      sub\n      dup2\n      dup7\n      gas\n      staticcall\n      iszero\n      dup1\n      iszero\n      tag_114\n      jumpi\n      returndatasize\n      0x00\n      dup1\n      returndatacopy\n      revert(0x00, returndatasize)\n    tag_114:\n      pop\n      pop\n      pop\n      pop\n      mload(0x40)\n      returndatasize\n      not(0x1f)\n      0x1f\n      dup3\n      add\n      and\n      dup3\n      add\n      dup1\n      0x40\n      mstore\n      pop\n      dup2\n      add\n      swap1\n      tag_115\n      swap2\n      swap1\n      tag_59\n      jump\t// in\n    tag_115:\n        /* \"PFG/Proves/DEX.sol\":3236:3276  return tokenERC.balanceOf(address(this)) */\n      swap1\n      pop\n        /* \"PFG/Proves/DEX.sol\":3169:3281  function getTokenBalance() external view returns (uint256) {... */\n      swap1\n      jump\t// out\n        /* \"PFG/Proves/DEX.sol\":245:290  mapping (address => uint256) public liquidity */\n    tag_40:\n      mstore(0x20, 0x02)\n      dup1\n      0x00\n      mstore\n      keccak256(0x00, 0x40)\n      0x00\n      swap2\n      pop\n      swap1\n      pop\n      sload\n      dup2\n      jump\t// out\n        /* \"PFG/Proves/DEX.sol\":2074:2592  function deposit() external payable {... */\n    tag_43:\n        /* \"PFG/Proves/DEX.sol\":2121:2141  uint256 token_amount */\n      0x00\n        /* \"PFG/Proves/DEX.sol\":2234:2235  1 */\n      0x01\n        /* \"PFG/Proves/DEX.sol\":2220:2229  msg.value */\n      callvalue\n        /* \"PFG/Proves/DEX.sol\":2196:2217  address(this).balance */\n      selfbalance\n        /* \"PFG/Proves/DEX.sol\":2196:2229  address(this).balance - msg.value */\n      tag_117\n      swap2\n      swap1\n      tag_63\n      jump\t// in\n    tag_117:\n        /* \"PFG/Proves/DEX.sol\":2158:2166  tokenERC */\n      0x00\n      dup1\n      sload\n      swap1\n      0x0100\n      exp\n      swap1\n      div\n      0xffffffffffffffffffffffffffffffffffffffff\n      and\n        /* \"PFG/Proves/DEX.sol\":2158:2176  tokenERC.balanceOf */\n      0xffffffffffffffffffffffffffffffffffffffff\n      and\n      0x70a08231\n        /* \"PFG/Proves/DEX.sol\":2185:2189  this */\n      address\n        /* \"PFG/Proves/DEX.sol\":2158:2191  tokenERC.balanceOf(address(this)) */\n      mload(0x40)\n      dup3\n      0xffffffff\n      and\n      0xe0\n      shl\n      dup2\n      mstore\n      0x04\n      add\n      tag_118\n      swap2\n      swap1\n      tag_55\n      jump\t// in\n    tag_118:\n      0x20\n      mload(0x40)\n      dup1\n      dup4\n      sub\n      dup2\n      dup7\n      gas\n      staticcall\n      iszero\n      dup1\n      iszero\n      tag_120\n      jumpi\n      returndatasize\n      0x00\n      dup1\n      returndatacopy\n      revert(0x00, returndatasize)\n    tag_120:\n      pop\n      pop\n      pop\n      pop\n      mload(0x40)\n      returndatasize\n      not(0x1f)\n      0x1f\n      dup3\n      add\n      and\n      dup3\n      add\n      dup1\n      0x40\n      mstore\n      pop\n      dup2\n      add\n      swap1\n      tag_121\n      swap2\n      swap1\n      tag_59\n      jump\t// in\n    tag_121:\n        /* \"PFG/Proves/DEX.sol\":2146:2155  msg.value */\n      callvalue\n        /* \"PFG/Proves/DEX.sol\":2146:2191  msg.value * tokenERC.balanceOf(address(this)) */\n      tag_122\n      swap2\n      swap1\n      tag_51\n      jump\t// in\n    tag_122:\n        /* \"PFG/Proves/DEX.sol\":2145:2230  (msg.value * tokenERC.balanceOf(address(this))) / (address(this).balance - msg.value) */\n      tag_123\n      swap2\n      swap1\n      tag_53\n      jump\t// in\n    tag_123:\n        /* \"PFG/Proves/DEX.sol\":2144:2235  ((msg.value * tokenERC.balanceOf(address(this))) / (address(this).balance - msg.value)) + 1 */\n      tag_124\n      swap2\n      swap1\n      tag_125\n      jump\t// in\n    tag_124:\n        /* \"PFG/Proves/DEX.sol\":2121:2235  uint256 token_amount = ((msg.value * tokenERC.balanceOf(address(this))) / (address(this).balance - msg.value)) + 1 */\n      swap1\n      pop\n        /* \"PFG/Proves/DEX.sol\":2246:2269  uint256 liquidity_added */\n      0x00\n        /* \"PFG/Proves/DEX.sol\":2329:2338  msg.value */\n      callvalue\n        /* \"PFG/Proves/DEX.sol\":2305:2326  address(this).balance */\n      selfbalance\n        /* \"PFG/Proves/DEX.sol\":2305:2338  address(this).balance - msg.value */\n      tag_126\n      swap2\n      swap1\n      tag_63\n      jump\t// in\n    tag_126:\n        /* \"PFG/Proves/DEX.sol\":2285:2300  total_liquidity */\n      sload(0x01)\n        /* \"PFG/Proves/DEX.sol\":2273:2282  msg.value */\n      callvalue\n        /* \"PFG/Proves/DEX.sol\":2273:2300  msg.value * total_liquidity */\n      tag_127\n      swap2\n      swap1\n      tag_51\n      jump\t// in\n    tag_127:\n        /* \"PFG/Proves/DEX.sol\":2272:2339  (msg.value * total_liquidity) / (address(this).balance - msg.value) */\n      tag_128\n      swap2\n      swap1\n      tag_53\n      jump\t// in\n    tag_128:\n        /* \"PFG/Proves/DEX.sol\":2246:2339  uint256 liquidity_added = (msg.value * total_liquidity) / (address(this).balance - msg.value) */\n      swap1\n      pop\n        /* \"PFG/Proves/DEX.sol\":2385:2400  liquidity_added */\n      dup1\n        /* \"PFG/Proves/DEX.sol\":2360:2369  liquidity */\n      0x02\n        /* \"PFG/Proves/DEX.sol\":2360:2381  liquidity[msg.sender] */\n      0x00\n        /* \"PFG/Proves/DEX.sol\":2370:2380  msg.sender */\n      caller\n        /* \"PFG/Proves/DEX.sol\":2360:2381  liquidity[msg.sender] */\n      0xffffffffffffffffffffffffffffffffffffffff\n      and\n      0xffffffffffffffffffffffffffffffffffffffff\n      and\n      dup2\n      mstore\n      0x20\n      add\n      swap1\n      dup2\n      mstore\n      0x20\n      add\n      0x00\n      keccak256\n      0x00\n        /* \"PFG/Proves/DEX.sol\":2360:2400  liquidity[msg.sender] += liquidity_added */\n      dup3\n      dup3\n      sload\n      tag_129\n      swap2\n      swap1\n      tag_125\n      jump\t// in\n    tag_129:\n      swap3\n      pop\n      pop\n      dup2\n      swap1\n      sstore\n      pop\n        /* \"PFG/Proves/DEX.sol\":2430:2445  liquidity_added */\n      dup1\n        /* \"PFG/Proves/DEX.sol\":2411:2426  total_liquidity */\n      0x01\n      0x00\n        /* \"PFG/Proves/DEX.sol\":2411:2445  total_liquidity += liquidity_added */\n      dup3\n      dup3\n      sload\n      tag_130\n      swap2\n      swap1\n      tag_125\n      jump\t// in\n    tag_130:\n      swap3\n      pop\n      pop\n      dup2\n      swap1\n      sstore\n      pop\n        /* \"PFG/Proves/DEX.sol\":2474:2482  tokenERC */\n      0x00\n      dup1\n      sload\n      swap1\n      0x0100\n      exp\n      swap1\n      div\n      0xffffffffffffffffffffffffffffffffffffffff\n      and\n        /* \"PFG/Proves/DEX.sol\":2474:2495  tokenERC.transferFrom */\n      0xffffffffffffffffffffffffffffffffffffffff\n      and\n      0x23b872dd\n        /* \"PFG/Proves/DEX.sol\":2496:2506  msg.sender */\n      caller\n        /* \"PFG/Proves/DEX.sol\":2516:2520  this */\n      address\n        /* \"PFG/Proves/DEX.sol\":2523:2535  token_amount */\n      dup6\n        /* \"PFG/Proves/DEX.sol\":2474:2536  tokenERC.transferFrom(msg.sender, address(this), token_amount) */\n      mload(0x40)\n      dup5\n      0xffffffff\n      and\n      0xe0\n      shl\n      dup2\n      mstore\n      0x04\n      add\n      tag_131\n      swap4\n      swap3\n      swap2\n      swap1\n      tag_105\n      jump\t// in\n    tag_131:\n      0x20\n      mload(0x40)\n      dup1\n      dup4\n      sub\n      dup2\n      0x00\n      dup8\n      gas\n      call\n      iszero\n      dup1\n      iszero\n      tag_133\n      jumpi\n      returndatasize\n      0x00\n      dup1\n      returndatacopy\n      revert(0x00, returndatasize)\n    tag_133:\n      pop\n      pop\n      pop\n      pop\n      mload(0x40)\n      returndatasize\n      not(0x1f)\n      0x1f\n      dup3\n      add\n      and\n      dup3\n      add\n      dup1\n      0x40\n      mstore\n      pop\n      dup2\n      add\n      swap1\n      tag_134\n      swap2\n      swap1\n      tag_78\n      jump\t// in\n    tag_134:\n        /* \"PFG/Proves/DEX.sol\":2466:2537  require(tokenERC.transferFrom(msg.sender, address(this), token_amount)) */\n      tag_135\n      jumpi\n      0x00\n      dup1\n      revert\n    tag_135:\n        /* \"PFG/Proves/DEX.sol\":2563:2587  Deposit(liquidity_added) */\n      0x4d6ce1e535dbade1c23defba91e23b8f791ce5edc0cc320257a2b364e4e38426\n        /* \"PFG/Proves/DEX.sol\":2571:2586  liquidity_added */\n      dup2\n        /* \"PFG/Proves/DEX.sol\":2563:2587  Deposit(liquidity_added) */\n      mload(0x40)\n      tag_136\n      swap2\n      swap1\n      tag_16\n      jump\t// in\n    tag_136:\n      mload(0x40)\n      dup1\n      swap2\n      sub\n      swap1\n      log1\n        /* \"PFG/Proves/DEX.sol\":2110:2592  {... */\n      pop\n      pop\n        /* \"PFG/Proves/DEX.sol\":2074:2592  function deposit() external payable {... */\n      jump\t// out\n        /* \"PFG/Proves/DEX.sol\":1632:2068  function ercToEth(uint256 token_amount) external {... */\n    tag_47:\n        /* \"PFG/Proves/DEX.sol\":1692:1711  uint256 eth_swapped */\n      0x00\n        /* \"PFG/Proves/DEX.sol\":1714:1800  calculatePrice(token_amount, tokenERC.balanceOf(address(this)), address(this).balance) */\n      tag_138\n        /* \"PFG/Proves/DEX.sol\":1729:1741  token_amount */\n      dup3\n        /* \"PFG/Proves/DEX.sol\":1743:1751  tokenERC */\n      0x00\n      dup1\n      sload\n      swap1\n      0x0100\n      exp\n      swap1\n      div\n      0xffffffffffffffffffffffffffffffffffffffff\n      and\n        /* \"PFG/Proves/DEX.sol\":1743:1761  tokenERC.balanceOf */\n      0xffffffffffffffffffffffffffffffffffffffff\n      and\n      0x70a08231\n        /* \"PFG/Proves/DEX.sol\":1770:1774  this */\n      address\n        /* \"PFG/Proves/DEX.sol\":1743:1776  tokenERC.balanceOf(address(this)) */\n      mload(0x40)\n      dup3\n      0xffffffff\n      and\n      0xe0\n      shl\n      dup2\n      mstore\n      0x04\n      add\n      tag_139\n      swap2\n      swap1\n      tag_55\n      jump\t// in\n    tag_139:\n      0x20\n      mload(0x40)\n      dup1\n      dup4\n      sub\n      dup2\n      dup7\n      gas\n      staticcall\n      iszero\n      dup1\n      iszero\n      tag_141\n      jumpi\n      returndatasize\n      0x00\n      dup1\n      returndatacopy\n      revert(0x00, returndatasize)\n    tag_141:\n      pop\n      pop\n      pop\n      pop\n      mload(0x40)\n      returndatasize\n      not(0x1f)\n      0x1f\n      dup3\n      add\n      and\n      dup3\n      add\n      dup1\n      0x40\n      mstore\n      pop\n      dup2\n      add\n      swap1\n      tag_142\n      swap2\n      swap1\n      tag_59\n      jump\t// in\n    tag_142:\n        /* \"PFG/Proves/DEX.sol\":1778:1799  address(this).balance */\n      selfbalance\n        /* \"PFG/Proves/DEX.sol\":1714:1728  calculatePrice */\n      tag_89\n        /* \"PFG/Proves/DEX.sol\":1714:1800  calculatePrice(token_amount, tokenERC.balanceOf(address(this)), address(this).balance) */\n      jump\t// in\n    tag_138:\n        /* \"PFG/Proves/DEX.sol\":1692:1800  uint256 eth_swapped = calculatePrice(token_amount, tokenERC.balanceOf(address(this)), address(this).balance) */\n      swap1\n      pop\n        /* \"PFG/Proves/DEX.sol\":1822:1834  bool success */\n      0x00\n        /* \"PFG/Proves/DEX.sol\":1840:1850  msg.sender */\n      caller\n        /* \"PFG/Proves/DEX.sol\":1840:1855  msg.sender.call */\n      0xffffffffffffffffffffffffffffffffffffffff\n      and\n        /* \"PFG/Proves/DEX.sol\":1863:1874  eth_swapped */\n      dup3\n        /* \"PFG/Proves/DEX.sol\":1840:1879  msg.sender.call{value: eth_swapped}(\"\") */\n      mload(0x40)\n      tag_143\n      swap1\n      tag_66\n      jump\t// in\n    tag_143:\n      0x00\n      mload(0x40)\n      dup1\n      dup4\n      sub\n      dup2\n      dup6\n      dup8\n      gas\n      call\n      swap3\n      pop\n      pop\n      pop\n      returndatasize\n      dup1\n      0x00\n      dup2\n      eq\n      tag_146\n      jumpi\n      mload(0x40)\n      swap2\n      pop\n      and(add(returndatasize, 0x3f), not(0x1f))\n      dup3\n      add\n      0x40\n      mstore\n      returndatasize\n      dup3\n      mstore\n      returndatasize\n      0x00\n      0x20\n      dup5\n      add\n      returndatacopy\n      jump(tag_145)\n    tag_146:\n      0x60\n      swap2\n      pop\n    tag_145:\n      pop\n        /* \"PFG/Proves/DEX.sol\":1821:1879  (bool success, ) = msg.sender.call{value: eth_swapped}(\"\") */\n      pop\n      swap1\n      pop\n        /* \"PFG/Proves/DEX.sol\":1898:1905  success */\n      dup1\n        /* \"PFG/Proves/DEX.sol\":1890:1926  require(success, \"Transfer failed.\") */\n      tag_147\n      jumpi\n      mload(0x40)\n      0x08c379a000000000000000000000000000000000000000000000000000000000\n      dup2\n      mstore\n      0x04\n      add\n      tag_148\n      swap1\n      tag_72\n      jump\t// in\n    tag_148:\n      mload(0x40)\n      dup1\n      swap2\n      sub\n      swap1\n      revert\n    tag_147:\n        /* \"PFG/Proves/DEX.sol\":1951:1959  tokenERC */\n      0x00\n      dup1\n      sload\n      swap1\n      0x0100\n      exp\n      swap1\n      div\n      0xffffffffffffffffffffffffffffffffffffffff\n      and\n        /* \"PFG/Proves/DEX.sol\":1951:1972  tokenERC.transferFrom */\n      0xffffffffffffffffffffffffffffffffffffffff\n      and\n      0x23b872dd\n        /* \"PFG/Proves/DEX.sol\":1973:1983  msg.sender */\n      caller\n        /* \"PFG/Proves/DEX.sol\":1993:1997  this */\n      address\n        /* \"PFG/Proves/DEX.sol\":2000:2012  token_amount */\n      dup7\n        /* \"PFG/Proves/DEX.sol\":1951:2013  tokenERC.transferFrom(msg.sender, address(this), token_amount) */\n      mload(0x40)\n      dup5\n      0xffffffff\n      and\n      0xe0\n      shl\n      dup2\n      mstore\n      0x04\n      add\n      tag_149\n      swap4\n      swap3\n      swap2\n      swap1\n      tag_105\n      jump\t// in\n    tag_149:\n      0x20\n      mload(0x40)\n      dup1\n      dup4\n      sub\n      dup2\n      0x00\n      dup8\n      gas\n      call\n      iszero\n      dup1\n      iszero\n      tag_151\n      jumpi\n      returndatasize\n      0x00\n      dup1\n      returndatacopy\n      revert(0x00, returndatasize)\n    tag_151:\n      pop\n      pop\n      pop\n      pop\n      mload(0x40)\n      returndatasize\n      not(0x1f)\n      0x1f\n      dup3\n      add\n      and\n      dup3\n      add\n      dup1\n      0x40\n      mstore\n      pop\n      dup2\n      add\n      swap1\n      tag_152\n      swap2\n      swap1\n      tag_78\n      jump\t// in\n    tag_152:\n        /* \"PFG/Proves/DEX.sol\":1943:2014  require(tokenERC.transferFrom(msg.sender, address(this), token_amount)) */\n      tag_153\n      jumpi\n      0x00\n      dup1\n      revert\n    tag_153:\n        /* \"PFG/Proves/DEX.sol\":2040:2063  ETHSwapped(eth_swapped) */\n      0x4dbf3a71a7c7262f432c2cad7808225832255d07f7d8ab85117677c0b5c0a850\n        /* \"PFG/Proves/DEX.sol\":2051:2062  eth_swapped */\n      dup3\n        /* \"PFG/Proves/DEX.sol\":2040:2063  ETHSwapped(eth_swapped) */\n      mload(0x40)\n      tag_154\n      swap2\n      swap1\n      tag_16\n      jump\t// in\n    tag_154:\n      mload(0x40)\n      dup1\n      swap2\n      sub\n      swap1\n      log1\n        /* \"PFG/Proves/DEX.sol\":1681:2068  {... */\n      pop\n      pop\n        /* \"PFG/Proves/DEX.sol\":1632:2068  function ercToEth(uint256 token_amount) external {... */\n      pop\n      jump\t// out\n        /* \"PFG/Proves/DEX.sol\":1090:1315  function calculatePrice(uint256 input_value, uint256 input_pool, uint256 output_pool) internal pure returns (uint256) {... */\n    tag_89:\n        /* \"PFG/Proves/DEX.sol\":1199:1206  uint256 */\n      0x00\n        /* \"PFG/Proves/DEX.sol\":1294:1305  input_value */\n      dup4\n        /* \"PFG/Proves/DEX.sol\":1288:1291  995 */\n      0x03e3\n        /* \"PFG/Proves/DEX.sol\":1288:1305  995 * input_value */\n      tag_156\n      swap2\n      swap1\n      tag_51\n      jump\t// in\n    tag_156:\n        /* \"PFG/Proves/DEX.sol\":1273:1283  input_pool */\n      dup4\n        /* \"PFG/Proves/DEX.sol\":1266:1270  1000 */\n      0x03e8\n        /* \"PFG/Proves/DEX.sol\":1266:1283  1000 * input_pool */\n      tag_157\n      swap2\n      swap1\n      tag_51\n      jump\t// in\n    tag_157:\n        /* \"PFG/Proves/DEX.sol\":1265:1306  (1000 * input_pool) + (995 * input_value) */\n      tag_158\n      swap2\n      swap1\n      tag_125\n      jump\t// in\n    tag_158:\n        /* \"PFG/Proves/DEX.sol\":1249:1260  output_pool */\n      dup3\n        /* \"PFG/Proves/DEX.sol\":1234:1245  input_value */\n      dup6\n        /* \"PFG/Proves/DEX.sol\":1228:1231  995 */\n      0x03e3\n        /* \"PFG/Proves/DEX.sol\":1228:1245  995 * input_value */\n      tag_159\n      swap2\n      swap1\n      tag_51\n      jump\t// in\n    tag_159:\n        /* \"PFG/Proves/DEX.sol\":1227:1260  (995 * input_value) * output_pool */\n      tag_160\n      swap2\n      swap1\n      tag_51\n      jump\t// in\n    tag_160:\n        /* \"PFG/Proves/DEX.sol\":1226:1307  ((995 * input_value) * output_pool) / ((1000 * input_pool) + (995 * input_value)) */\n      tag_161\n      swap2\n      swap1\n      tag_53\n      jump\t// in\n    tag_161:\n        /* \"PFG/Proves/DEX.sol\":1219:1307  return ((995 * input_value) * output_pool) / ((1000 * input_pool) + (995 * input_value)) */\n      swap1\n      pop\n        /* \"PFG/Proves/DEX.sol\":1090:1315  function calculatePrice(uint256 input_value, uint256 input_pool, uint256 output_pool) internal pure returns (uint256) {... */\n      swap4\n      swap3\n      pop\n      pop\n      pop\n      jump\t// out\n        /* \"#utility.yul\":7:84   */\n    tag_162:\n        /* \"#utility.yul\":44:51   */\n      0x00\n        /* \"#utility.yul\":73:78   */\n      dup2\n        /* \"#utility.yul\":62:78   */\n      swap1\n      pop\n        /* \"#utility.yul\":7:84   */\n      swap2\n      swap1\n      pop\n      jump\t// out\n        /* \"#utility.yul\":90:208   */\n    tag_163:\n        /* \"#utility.yul\":177:201   */\n      tag_189\n        /* \"#utility.yul\":195:200   */\n      dup2\n        /* \"#utility.yul\":177:201   */\n      tag_162\n      jump\t// in\n    tag_189:\n        /* \"#utility.yul\":172:175   */\n      dup3\n        /* \"#utility.yul\":165:202   */\n      mstore\n        /* \"#utility.yul\":90:208   */\n      pop\n      pop\n      jump\t// out\n        /* \"#utility.yul\":214:436   */\n    tag_16:\n        /* \"#utility.yul\":307:311   */\n      0x00\n        /* \"#utility.yul\":345:347   */\n      0x20\n        /* \"#utility.yul\":334:343   */\n      dup3\n        /* \"#utility.yul\":330:348   */\n      add\n        /* \"#utility.yul\":322:348   */\n      swap1\n      pop\n        /* \"#utility.yul\":358:429   */\n      tag_191\n        /* \"#utility.yul\":426:427   */\n      0x00\n        /* \"#utility.yul\":415:424   */\n      dup4\n        /* \"#utility.yul\":411:428   */\n      add\n        /* \"#utility.yul\":402:408   */\n      dup5\n        /* \"#utility.yul\":358:429   */\n      tag_163\n      jump\t// in\n    tag_191:\n        /* \"#utility.yul\":214:436   */\n      swap3\n      swap2\n      pop\n      pop\n      jump\t// out\n        /* \"#utility.yul\":523:640   */\n    tag_165:\n        /* \"#utility.yul\":632:633   */\n      0x00\n        /* \"#utility.yul\":629:630   */\n      dup1\n        /* \"#utility.yul\":622:634   */\n      revert\n        /* \"#utility.yul\":769:891   */\n    tag_167:\n        /* \"#utility.yul\":842:866   */\n      tag_196\n        /* \"#utility.yul\":860:865   */\n      dup2\n        /* \"#utility.yul\":842:866   */\n      tag_162\n      jump\t// in\n    tag_196:\n        /* \"#utility.yul\":835:840   */\n      dup2\n        /* \"#utility.yul\":832:867   */\n      eq\n        /* \"#utility.yul\":822:885   */\n      tag_197\n      jumpi\n        /* \"#utility.yul\":881:882   */\n      0x00\n        /* \"#utility.yul\":878:879   */\n      dup1\n        /* \"#utility.yul\":871:883   */\n      revert\n        /* \"#utility.yul\":822:885   */\n    tag_197:\n        /* \"#utility.yul\":769:891   */\n      pop\n      jump\t// out\n        /* \"#utility.yul\":897:1036   */\n    tag_168:\n        /* \"#utility.yul\":943:948   */\n      0x00\n        /* \"#utility.yul\":981:987   */\n      dup2\n        /* \"#utility.yul\":968:988   */\n      calldataload\n        /* \"#utility.yul\":959:988   */\n      swap1\n      pop\n        /* \"#utility.yul\":997:1030   */\n      tag_199\n        /* \"#utility.yul\":1024:1029   */\n      dup2\n        /* \"#utility.yul\":997:1030   */\n      tag_167\n      jump\t// in\n    tag_199:\n        /* \"#utility.yul\":897:1036   */\n      swap3\n      swap2\n      pop\n      pop\n      jump\t// out\n        /* \"#utility.yul\":1042:1371   */\n    tag_20:\n        /* \"#utility.yul\":1101:1107   */\n      0x00\n        /* \"#utility.yul\":1150:1152   */\n      0x20\n        /* \"#utility.yul\":1138:1147   */\n      dup3\n        /* \"#utility.yul\":1129:1136   */\n      dup5\n        /* \"#utility.yul\":1125:1148   */\n      sub\n        /* \"#utility.yul\":1121:1153   */\n      slt\n        /* \"#utility.yul\":1118:1237   */\n      iszero\n      tag_201\n      jumpi\n        /* \"#utility.yul\":1156:1235   */\n      tag_202\n      tag_165\n      jump\t// in\n    tag_202:\n        /* \"#utility.yul\":1118:1237   */\n    tag_201:\n        /* \"#utility.yul\":1276:1277   */\n      0x00\n        /* \"#utility.yul\":1301:1354   */\n      tag_203\n        /* \"#utility.yul\":1346:1353   */\n      dup5\n        /* \"#utility.yul\":1337:1343   */\n      dup3\n        /* \"#utility.yul\":1326:1335   */\n      dup6\n        /* \"#utility.yul\":1322:1344   */\n      add\n        /* \"#utility.yul\":1301:1354   */\n      tag_168\n      jump\t// in\n    tag_203:\n        /* \"#utility.yul\":1291:1354   */\n      swap2\n      pop\n        /* \"#utility.yul\":1247:1364   */\n      pop\n        /* \"#utility.yul\":1042:1371   */\n      swap3\n      swap2\n      pop\n      pop\n      jump\t// out\n        /* \"#utility.yul\":1377:1503   */\n    tag_169:\n        /* \"#utility.yul\":1414:1421   */\n      0x00\n        /* \"#utility.yul\":1454:1496   */\n      0xffffffffffffffffffffffffffffffffffffffff\n        /* \"#utility.yul\":1447:1452   */\n      dup3\n        /* \"#utility.yul\":1443:1497   */\n      and\n        /* \"#utility.yul\":1432:1497   */\n      swap1\n      pop\n        /* \"#utility.yul\":1377:1503   */\n      swap2\n      swap1\n      pop\n      jump\t// out\n        /* \"#utility.yul\":1509:1605   */\n    tag_170:\n        /* \"#utility.yul\":1546:1553   */\n      0x00\n        /* \"#utility.yul\":1575:1599   */\n      tag_206\n        /* \"#utility.yul\":1593:1598   */\n      dup3\n        /* \"#utility.yul\":1575:1599   */\n      tag_169\n      jump\t// in\n    tag_206:\n        /* \"#utility.yul\":1564:1599   */\n      swap1\n      pop\n        /* \"#utility.yul\":1509:1605   */\n      swap2\n      swap1\n      pop\n      jump\t// out\n        /* \"#utility.yul\":1611:1733   */\n    tag_171:\n        /* \"#utility.yul\":1684:1708   */\n      tag_208\n        /* \"#utility.yul\":1702:1707   */\n      dup2\n        /* \"#utility.yul\":1684:1708   */\n      tag_170\n      jump\t// in\n    tag_208:\n        /* \"#utility.yul\":1677:1682   */\n      dup2\n        /* \"#utility.yul\":1674:1709   */\n      eq\n        /* \"#utility.yul\":1664:1727   */\n      tag_209\n      jumpi\n        /* \"#utility.yul\":1723:1724   */\n      0x00\n        /* \"#utility.yul\":1720:1721   */\n      dup1\n        /* \"#utility.yul\":1713:1725   */\n      revert\n        /* \"#utility.yul\":1664:1727   */\n    tag_209:\n        /* \"#utility.yul\":1611:1733   */\n      pop\n      jump\t// out\n        /* \"#utility.yul\":1739:1878   */\n    tag_172:\n        /* \"#utility.yul\":1785:1790   */\n      0x00\n        /* \"#utility.yul\":1823:1829   */\n      dup2\n        /* \"#utility.yul\":1810:1830   */\n      calldataload\n        /* \"#utility.yul\":1801:1830   */\n      swap1\n      pop\n        /* \"#utility.yul\":1839:1872   */\n      tag_211\n        /* \"#utility.yul\":1866:1871   */\n      dup2\n        /* \"#utility.yul\":1839:1872   */\n      tag_171\n      jump\t// in\n    tag_211:\n        /* \"#utility.yul\":1739:1878   */\n      swap3\n      swap2\n      pop\n      pop\n      jump\t// out\n        /* \"#utility.yul\":1884:2503   */\n    tag_30:\n        /* \"#utility.yul\":1961:1967   */\n      0x00\n        /* \"#utility.yul\":1969:1975   */\n      dup1\n        /* \"#utility.yul\":1977:1983   */\n      0x00\n        /* \"#utility.yul\":2026:2028   */\n      0x60\n        /* \"#utility.yul\":2014:2023   */\n      dup5\n        /* \"#utility.yul\":2005:2012   */\n      dup7\n        /* \"#utility.yul\":2001:2024   */\n      sub\n        /* \"#utility.yul\":1997:2029   */\n      slt\n        /* \"#utility.yul\":1994:2113   */\n      iszero\n      tag_213\n      jumpi\n        /* \"#utility.yul\":2032:2111   */\n      tag_214\n      tag_165\n      jump\t// in\n    tag_214:\n        /* \"#utility.yul\":1994:2113   */\n    tag_213:\n        /* \"#utility.yul\":2152:2153   */\n      0x00\n        /* \"#utility.yul\":2177:2230   */\n      tag_215\n        /* \"#utility.yul\":2222:2229   */\n      dup7\n        /* \"#utility.yul\":2213:2219   */\n      dup3\n        /* \"#utility.yul\":2202:2211   */\n      dup8\n        /* \"#utility.yul\":2198:2220   */\n      add\n        /* \"#utility.yul\":2177:2230   */\n      tag_172\n      jump\t// in\n    tag_215:\n        /* \"#utility.yul\":2167:2230   */\n      swap4\n      pop\n        /* \"#utility.yul\":2123:2240   */\n      pop\n        /* \"#utility.yul\":2279:2281   */\n      0x20\n        /* \"#utility.yul\":2305:2358   */\n      tag_216\n        /* \"#utility.yul\":2350:2357   */\n      dup7\n        /* \"#utility.yul\":2341:2347   */\n      dup3\n        /* \"#utility.yul\":2330:2339   */\n      dup8\n        /* \"#utility.yul\":2326:2348   */\n      add\n        /* \"#utility.yul\":2305:2358   */\n      tag_168\n      jump\t// in\n    tag_216:\n        /* \"#utility.yul\":2295:2358   */\n      swap3\n      pop\n        /* \"#utility.yul\":2250:2368   */\n      pop\n        /* \"#utility.yul\":2407:2409   */\n      0x40\n        /* \"#utility.yul\":2433:2486   */\n      tag_217\n        /* \"#utility.yul\":2478:2485   */\n      dup7\n        /* \"#utility.yul\":2469:2475   */\n      dup3\n        /* \"#utility.yul\":2458:2467   */\n      dup8\n        /* \"#utility.yul\":2454:2476   */\n      add\n        /* \"#utility.yul\":2433:2486   */\n      tag_168\n      jump\t// in\n    tag_217:\n        /* \"#utility.yul\":2423:2486   */\n      swap2\n      pop\n        /* \"#utility.yul\":2378:2496   */\n      pop\n        /* \"#utility.yul\":1884:2503   */\n      swap3\n      pop\n      swap3\n      pop\n      swap3\n      jump\t// out\n        /* \"#utility.yul\":2509:2838   */\n    tag_39:\n        /* \"#utility.yul\":2568:2574   */\n      0x00\n        /* \"#utility.yul\":2617:2619   */\n      0x20\n        /* \"#utility.yul\":2605:2614   */\n      dup3\n        /* \"#utility.yul\":2596:2603   */\n      dup5\n        /* \"#utility.yul\":2592:2615   */\n      sub\n        /* \"#utility.yul\":2588:2620   */\n      slt\n        /* \"#utility.yul\":2585:2704   */\n      iszero\n      tag_219\n      jumpi\n        /* \"#utility.yul\":2623:2702   */\n      tag_220\n      tag_165\n      jump\t// in\n    tag_220:\n        /* \"#utility.yul\":2585:2704   */\n    tag_219:\n        /* \"#utility.yul\":2743:2744   */\n      0x00\n        /* \"#utility.yul\":2768:2821   */\n      tag_221\n        /* \"#utility.yul\":2813:2820   */\n      dup5\n        /* \"#utility.yul\":2804:2810   */\n      dup3\n        /* \"#utility.yul\":2793:2802   */\n      dup6\n        /* \"#utility.yul\":2789:2811   */\n      add\n        /* \"#utility.yul\":2768:2821   */\n      tag_172\n      jump\t// in\n    tag_221:\n        /* \"#utility.yul\":2758:2821   */\n      swap2\n      pop\n        /* \"#utility.yul\":2714:2831   */\n      pop\n        /* \"#utility.yul\":2509:2838   */\n      swap3\n      swap2\n      pop\n      pop\n      jump\t// out\n        /* \"#utility.yul\":2844:3024   */\n    tag_173:\n        /* \"#utility.yul\":2892:2969   */\n      0x4e487b7100000000000000000000000000000000000000000000000000000000\n        /* \"#utility.yul\":2889:2890   */\n      0x00\n        /* \"#utility.yul\":2882:2970   */\n      mstore\n        /* \"#utility.yul\":2989:2993   */\n      0x11\n        /* \"#utility.yul\":2986:2987   */\n      0x04\n        /* \"#utility.yul\":2979:2994   */\n      mstore\n        /* \"#utility.yul\":3013:3017   */\n      0x24\n        /* \"#utility.yul\":3010:3011   */\n      0x00\n        /* \"#utility.yul\":3003:3018   */\n      revert\n        /* \"#utility.yul\":3030:3378   */\n    tag_51:\n        /* \"#utility.yul\":3070:3077   */\n      0x00\n        /* \"#utility.yul\":3093:3113   */\n      tag_224\n        /* \"#utility.yul\":3111:3112   */\n      dup3\n        /* \"#utility.yul\":3093:3113   */\n      tag_162\n      jump\t// in\n    tag_224:\n        /* \"#utility.yul\":3088:3113   */\n      swap2\n      pop\n        /* \"#utility.yul\":3127:3147   */\n      tag_225\n        /* \"#utility.yul\":3145:3146   */\n      dup4\n        /* \"#utility.yul\":3127:3147   */\n      tag_162\n      jump\t// in\n    tag_225:\n        /* \"#utility.yul\":3122:3147   */\n      swap3\n      pop\n        /* \"#utility.yul\":3315:3316   */\n      dup2\n        /* \"#utility.yul\":3247:3313   */\n      0xffffffffffffffffffffffffffffffffffffffffffffffffffffffffffffffff\n        /* \"#utility.yul\":3243:3317   */\n      div\n        /* \"#utility.yul\":3240:3241   */\n      dup4\n        /* \"#utility.yul\":3237:3318   */\n      gt\n        /* \"#utility.yul\":3232:3233   */\n      dup3\n        /* \"#utility.yul\":3225:3234   */\n      iszero\n        /* \"#utility.yul\":3218:3235   */\n      iszero\n        /* \"#utility.yul\":3214:3319   */\n      and\n        /* \"#utility.yul\":3211:3342   */\n      iszero\n      tag_226\n      jumpi\n        /* \"#utility.yul\":3322:3340   */\n      tag_227\n      tag_173\n      jump\t// in\n    tag_227:\n        /* \"#utility.yul\":3211:3342   */\n    tag_226:\n        /* \"#utility.yul\":3370:3371   */\n      dup3\n        /* \"#utility.yul\":3367:3368   */\n      dup3\n        /* \"#utility.yul\":3363:3372   */\n      mul\n        /* \"#utility.yul\":3352:3372   */\n      swap1\n      pop\n        /* \"#utility.yul\":3030:3378   */\n      swap3\n      swap2\n      pop\n      pop\n      jump\t// out\n        /* \"#utility.yul\":3384:3564   */\n    tag_174:\n        /* \"#utility.yul\":3432:3509   */\n      0x4e487b7100000000000000000000000000000000000000000000000000000000\n        /* \"#utility.yul\":3429:3430   */\n      0x00\n        /* \"#utility.yul\":3422:3510   */\n      mstore\n        /* \"#utility.yul\":3529:3533   */\n      0x12\n        /* \"#utility.yul\":3526:3527   */\n      0x04\n        /* \"#utility.yul\":3519:3534   */\n      mstore\n        /* \"#utility.yul\":3553:3557   */\n      0x24\n        /* \"#utility.yul\":3550:3551   */\n      0x00\n        /* \"#utility.yul\":3543:3558   */\n      revert\n        /* \"#utility.yul\":3570:3755   */\n    tag_53:\n        /* \"#utility.yul\":3610:3611   */\n      0x00\n        /* \"#utility.yul\":3627:3647   */\n      tag_230\n        /* \"#utility.yul\":3645:3646   */\n      dup3\n        /* \"#utility.yul\":3627:3647   */\n      tag_162\n      jump\t// in\n    tag_230:\n        /* \"#utility.yul\":3622:3647   */\n      swap2\n      pop\n        /* \"#utility.yul\":3661:3681   */\n      tag_231\n        /* \"#utility.yul\":3679:3680   */\n      dup4\n        /* \"#utility.yul\":3661:3681   */\n      tag_162\n      jump\t// in\n    tag_231:\n        /* \"#utility.yul\":3656:3681   */\n      swap3\n      pop\n        /* \"#utility.yul\":3700:3701   */\n      dup3\n        /* \"#utility.yul\":3690:3725   */\n      tag_232\n      jumpi\n        /* \"#utility.yul\":3705:3723   */\n      tag_233\n      tag_174\n      jump\t// in\n    tag_233:\n        /* \"#utility.yul\":3690:3725   */\n    tag_232:\n        /* \"#utility.yul\":3747:3748   */\n      dup3\n        /* \"#utility.yul\":3744:3745   */\n      dup3\n        /* \"#utility.yul\":3740:3749   */\n      div\n        /* \"#utility.yul\":3735:3749   */\n      swap1\n      pop\n        /* \"#utility.yul\":3570:3755   */\n      swap3\n      swap2\n      pop\n      pop\n      jump\t// out\n        /* \"#utility.yul\":3761:3879   */\n    tag_175:\n        /* \"#utility.yul\":3848:3872   */\n      tag_235\n        /* \"#utility.yul\":3866:3871   */\n      dup2\n        /* \"#utility.yul\":3848:3872   */\n      tag_170\n      jump\t// in\n    tag_235:\n        /* \"#utility.yul\":3843:3846   */\n      dup3\n        /* \"#utility.yul\":3836:3873   */\n      mstore\n        /* \"#utility.yul\":3761:3879   */\n      pop\n      pop\n      jump\t// out\n        /* \"#utility.yul\":3885:4107   */\n    tag_55:\n        /* \"#utility.yul\":3978:3982   */\n      0x00\n        /* \"#utility.yul\":4016:4018   */\n      0x20\n        /* \"#utility.yul\":4005:4014   */\n      dup3\n        /* \"#utility.yul\":4001:4019   */\n      add\n        /* \"#utility.yul\":3993:4019   */\n      swap1\n      pop\n        /* \"#utility.yul\":4029:4100   */\n      tag_237\n        /* \"#utility.yul\":4097:4098   */\n      0x00\n        /* \"#utility.yul\":4086:4095   */\n      dup4\n        /* \"#utility.yul\":4082:4099   */\n      add\n        /* \"#utility.yul\":4073:4079   */\n      dup5\n        /* \"#utility.yul\":4029:4100   */\n      tag_175\n      jump\t// in\n    tag_237:\n        /* \"#utility.yul\":3885:4107   */\n      swap3\n      swap2\n      pop\n      pop\n      jump\t// out\n        /* \"#utility.yul\":4113:4256   */\n    tag_176:\n        /* \"#utility.yul\":4170:4175   */\n      0x00\n        /* \"#utility.yul\":4201:4207   */\n      dup2\n        /* \"#utility.yul\":4195:4208   */\n      mload\n        /* \"#utility.yul\":4186:4208   */\n      swap1\n      pop\n        /* \"#utility.yul\":4217:4250   */\n      tag_239\n        /* \"#utility.yul\":4244:4249   */\n      dup2\n        /* \"#utility.yul\":4217:4250   */\n      tag_167\n      jump\t// in\n    tag_239:\n        /* \"#utility.yul\":4113:4256   */\n      swap3\n      swap2\n      pop\n      pop\n      jump\t// out\n        /* \"#utility.yul\":4262:4613   */\n    tag_59:\n        /* \"#utility.yul\":4332:4338   */\n      0x00\n        /* \"#utility.yul\":4381:4383   */\n      0x20\n        /* \"#utility.yul\":4369:4378   */\n      dup3\n        /* \"#utility.yul\":4360:4367   */\n      dup5\n        /* \"#utility.yul\":4356:4379   */\n      sub\n        /* \"#utility.yul\":4352:4384   */\n      slt\n        /* \"#utility.yul\":4349:4468   */\n      iszero\n      tag_241\n      jumpi\n        /* \"#utility.yul\":4387:4466   */\n      tag_242\n      tag_165\n      jump\t// in\n    tag_242:\n        /* \"#utility.yul\":4349:4468   */\n    tag_241:\n        /* \"#utility.yul\":4507:4508   */\n      0x00\n        /* \"#utility.yul\":4532:4596   */\n      tag_243\n        /* \"#utility.yul\":4588:4595   */\n      dup5\n        /* \"#utility.yul\":4579:4585   */\n      dup3\n        /* \"#utility.yul\":4568:4577   */\n      dup6\n        /* \"#utility.yul\":4564:4586   */\n      add\n        /* \"#utility.yul\":4532:4596   */\n      tag_176\n      jump\t// in\n    tag_243:\n        /* \"#utility.yul\":4522:4596   */\n      swap2\n      pop\n        /* \"#utility.yul\":4478:4606   */\n      pop\n        /* \"#utility.yul\":4262:4613   */\n      swap3\n      swap2\n      pop\n      pop\n      jump\t// out\n        /* \"#utility.yul\":4619:4810   */\n    tag_63:\n        /* \"#utility.yul\":4659:4663   */\n      0x00\n        /* \"#utility.yul\":4679:4699   */\n      tag_245\n        /* \"#utility.yul\":4697:4698   */\n      dup3\n        /* \"#utility.yul\":4679:4699   */\n      tag_162\n      jump\t// in\n    tag_245:\n        /* \"#utility.yul\":4674:4699   */\n      swap2\n      pop\n        /* \"#utility.yul\":4713:4733   */\n      tag_246\n        /* \"#utility.yul\":4731:4732   */\n      dup4\n        /* \"#utility.yul\":4713:4733   */\n      tag_162\n      jump\t// in\n    tag_246:\n        /* \"#utility.yul\":4708:4733   */\n      swap3\n      pop\n        /* \"#utility.yul\":4752:4753   */\n      dup3\n        /* \"#utility.yul\":4749:4750   */\n      dup3\n        /* \"#utility.yul\":4746:4754   */\n      lt\n        /* \"#utility.yul\":4743:4777   */\n      iszero\n      tag_247\n      jumpi\n        /* \"#utility.yul\":4757:4775   */\n      tag_248\n      tag_173\n      jump\t// in\n    tag_248:\n        /* \"#utility.yul\":4743:4777   */\n    tag_247:\n        /* \"#utility.yul\":4802:4803   */\n      dup3\n        /* \"#utility.yul\":4799:4800   */\n      dup3\n        /* \"#utility.yul\":4795:4804   */\n      sub\n        /* \"#utility.yul\":4787:4804   */\n      swap1\n      pop\n        /* \"#utility.yul\":4619:4810   */\n      swap3\n      swap2\n      pop\n      pop\n      jump\t// out\n        /* \"#utility.yul\":4816:4963   */\n    tag_177:\n        /* \"#utility.yul\":4917:4928   */\n      0x00\n        /* \"#utility.yul\":4954:4957   */\n      dup2\n        /* \"#utility.yul\":4939:4957   */\n      swap1\n      pop\n        /* \"#utility.yul\":4816:4963   */\n      swap3\n      swap2\n      pop\n      pop\n      jump\t// out\n        /* \"#utility.yul\":4969:5083   */\n    tag_178:\n      pop\n      jump\t// out\n        /* \"#utility.yul\":5089:5487   */\n    tag_179:\n        /* \"#utility.yul\":5248:5251   */\n      0x00\n        /* \"#utility.yul\":5269:5352   */\n      tag_252\n        /* \"#utility.yul\":5350:5351   */\n      0x00\n        /* \"#utility.yul\":5345:5348   */\n      dup4\n        /* \"#utility.yul\":5269:5352   */\n      tag_177\n      jump\t// in\n    tag_252:\n        /* \"#utility.yul\":5262:5352   */\n      swap2\n      pop\n        /* \"#utility.yul\":5361:5454   */\n      tag_253\n        /* \"#utility.yul\":5450:5453   */\n      dup3\n        /* \"#utility.yul\":5361:5454   */\n      tag_178\n      jump\t// in\n    tag_253:\n        /* \"#utility.yul\":5479:5480   */\n      0x00\n        /* \"#utility.yul\":5474:5477   */\n      dup3\n        /* \"#utility.yul\":5470:5481   */\n      add\n        /* \"#utility.yul\":5463:5481   */\n      swap1\n      pop\n        /* \"#utility.yul\":5089:5487   */\n      swap2\n      swap1\n      pop\n      jump\t// out\n        /* \"#utility.yul\":5493:5872   */\n    tag_66:\n        /* \"#utility.yul\":5677:5680   */\n      0x00\n        /* \"#utility.yul\":5699:5846   */\n      tag_255\n        /* \"#utility.yul\":5842:5845   */\n      dup3\n        /* \"#utility.yul\":5699:5846   */\n      tag_179\n      jump\t// in\n    tag_255:\n        /* \"#utility.yul\":5692:5846   */\n      swap2\n      pop\n        /* \"#utility.yul\":5863:5866   */\n      dup2\n        /* \"#utility.yul\":5856:5866   */\n      swap1\n      pop\n        /* \"#utility.yul\":5493:5872   */\n      swap2\n      swap1\n      pop\n      jump\t// out\n        /* \"#utility.yul\":5878:6047   */\n    tag_180:\n        /* \"#utility.yul\":5962:5973   */\n      0x00\n        /* \"#utility.yul\":5996:6002   */\n      dup3\n        /* \"#utility.yul\":5991:5994   */\n      dup3\n        /* \"#utility.yul\":5984:6003   */\n      mstore\n        /* \"#utility.yul\":6036:6040   */\n      0x20\n        /* \"#utility.yul\":6031:6034   */\n      dup3\n        /* \"#utility.yul\":6027:6041   */\n      add\n        /* \"#utility.yul\":6012:6041   */\n      swap1\n      pop\n        /* \"#utility.yul\":5878:6047   */\n      swap3\n      swap2\n      pop\n      pop\n      jump\t// out\n        /* \"#utility.yul\":6053:6219   */\n    tag_181:\n        /* \"#utility.yul\":6193:6211   */\n      0x5472616e73666572206661696c65642e00000000000000000000000000000000\n        /* \"#utility.yul\":6189:6190   */\n      0x00\n        /* \"#utility.yul\":6181:6187   */\n      dup3\n        /* \"#utility.yul\":6177:6191   */\n      add\n        /* \"#utility.yul\":6170:6212   */\n      mstore\n        /* \"#utility.yul\":6053:6219   */\n      pop\n      jump\t// out\n        /* \"#utility.yul\":6225:6591   */\n    tag_182:\n        /* \"#utility.yul\":6367:6370   */\n      0x00\n        /* \"#utility.yul\":6388:6455   */\n      tag_259\n        /* \"#utility.yul\":6452:6454   */\n      0x10\n        /* \"#utility.yul\":6447:6450   */\n      dup4\n        /* \"#utility.yul\":6388:6455   */\n      tag_180\n      jump\t// in\n    tag_259:\n        /* \"#utility.yul\":6381:6455   */\n      swap2\n      pop\n        /* \"#utility.yul\":6464:6557   */\n      tag_260\n        /* \"#utility.yul\":6553:6556   */\n      dup3\n        /* \"#utility.yul\":6464:6557   */\n      tag_181\n      jump\t// in\n    tag_260:\n        /* \"#utility.yul\":6582:6584   */\n      0x20\n        /* \"#utility.yul\":6577:6580   */\n      dup3\n        /* \"#utility.yul\":6573:6585   */\n      add\n        /* \"#utility.yul\":6566:6585   */\n      swap1\n      pop\n        /* \"#utility.yul\":6225:6591   */\n      swap2\n      swap1\n      pop\n      jump\t// out\n        /* \"#utility.yul\":6597:7016   */\n    tag_72:\n        /* \"#utility.yul\":6763:6767   */\n      0x00\n        /* \"#utility.yul\":6801:6803   */\n      0x20\n        /* \"#utility.yul\":6790:6799   */\n      dup3\n        /* \"#utility.yul\":6786:6804   */\n      add\n        /* \"#utility.yul\":6778:6804   */\n      swap1\n      pop\n        /* \"#utility.yul\":6850:6859   */\n      dup2\n        /* \"#utility.yul\":6844:6848   */\n      dup2\n        /* \"#utility.yul\":6840:6860   */\n      sub\n        /* \"#utility.yul\":6836:6837   */\n      0x00\n        /* \"#utility.yul\":6825:6834   */\n      dup4\n        /* \"#utility.yul\":6821:6838   */\n      add\n        /* \"#utility.yul\":6814:6861   */\n      mstore\n        /* \"#utility.yul\":6878:7009   */\n      tag_262\n        /* \"#utility.yul\":7004:7008   */\n      dup2\n        /* \"#utility.yul\":6878:7009   */\n      tag_182\n      jump\t// in\n    tag_262:\n        /* \"#utility.yul\":6870:7009   */\n      swap1\n      pop\n        /* \"#utility.yul\":6597:7016   */\n      swap2\n      swap1\n      pop\n      jump\t// out\n        /* \"#utility.yul\":7022:7354   */\n    tag_74:\n        /* \"#utility.yul\":7143:7147   */\n      0x00\n        /* \"#utility.yul\":7181:7183   */\n      0x40\n        /* \"#utility.yul\":7170:7179   */\n      dup3\n        /* \"#utility.yul\":7166:7184   */\n      add\n        /* \"#utility.yul\":7158:7184   */\n      swap1\n      pop\n        /* \"#utility.yul\":7194:7265   */\n      tag_264\n        /* \"#utility.yul\":7262:7263   */\n      0x00\n        /* \"#utility.yul\":7251:7260   */\n      dup4\n        /* \"#utility.yul\":7247:7264   */\n      add\n        /* \"#utility.yul\":7238:7244   */\n      dup6\n        /* \"#utility.yul\":7194:7265   */\n      tag_175\n      jump\t// in\n    tag_264:\n        /* \"#utility.yul\":7275:7347   */\n      tag_265\n        /* \"#utility.yul\":7343:7345   */\n      0x20\n        /* \"#utility.yul\":7332:7341   */\n      dup4\n        /* \"#utility.yul\":7328:7346   */\n      add\n        /* \"#utility.yul\":7319:7325   */\n      dup5\n        /* \"#utility.yul\":7275:7347   */\n      tag_163\n      jump\t// in\n    tag_265:\n        /* \"#utility.yul\":7022:7354   */\n      swap4\n      swap3\n      pop\n      pop\n      pop\n      jump\t// out\n        /* \"#utility.yul\":7360:7450   */\n    tag_183:\n        /* \"#utility.yul\":7394:7401   */\n      0x00\n        /* \"#utility.yul\":7437:7442   */\n      dup2\n        /* \"#utility.yul\":7430:7443   */\n      iszero\n        /* \"#utility.yul\":7423:7444   */\n      iszero\n        /* \"#utility.yul\":7412:7444   */\n      swap1\n      pop\n        /* \"#utility.yul\":7360:7450   */\n      swap2\n      swap1\n      pop\n      jump\t// out\n        /* \"#utility.yul\":7456:7572   */\n    tag_184:\n        /* \"#utility.yul\":7526:7547   */\n      tag_268\n        /* \"#utility.yul\":7541:7546   */\n      dup2\n        /* \"#utility.yul\":7526:7547   */\n      tag_183\n      jump\t// in\n    tag_268:\n        /* \"#utility.yul\":7519:7524   */\n      dup2\n        /* \"#utility.yul\":7516:7548   */\n      eq\n        /* \"#utility.yul\":7506:7566   */\n      tag_269\n      jumpi\n        /* \"#utility.yul\":7562:7563   */\n      0x00\n        /* \"#utility.yul\":7559:7560   */\n      dup1\n        /* \"#utility.yul\":7552:7564   */\n      revert\n        /* \"#utility.yul\":7506:7566   */\n    tag_269:\n        /* \"#utility.yul\":7456:7572   */\n      pop\n      jump\t// out\n        /* \"#utility.yul\":7578:7715   */\n    tag_185:\n        /* \"#utility.yul\":7632:7637   */\n      0x00\n        /* \"#utility.yul\":7663:7669   */\n      dup2\n        /* \"#utility.yul\":7657:7670   */\n      mload\n        /* \"#utility.yul\":7648:7670   */\n      swap1\n      pop\n        /* \"#utility.yul\":7679:7709   */\n      tag_271\n        /* \"#utility.yul\":7703:7708   */\n      dup2\n        /* \"#utility.yul\":7679:7709   */\n      tag_184\n      jump\t// in\n    tag_271:\n        /* \"#utility.yul\":7578:7715   */\n      swap3\n      swap2\n      pop\n      pop\n      jump\t// out\n        /* \"#utility.yul\":7721:8066   */\n    tag_78:\n        /* \"#utility.yul\":7788:7794   */\n      0x00\n        /* \"#utility.yul\":7837:7839   */\n      0x20\n        /* \"#utility.yul\":7825:7834   */\n      dup3\n        /* \"#utility.yul\":7816:7823   */\n      dup5\n        /* \"#utility.yul\":7812:7835   */\n      sub\n        /* \"#utility.yul\":7808:7840   */\n      slt\n        /* \"#utility.yul\":7805:7924   */\n      iszero\n      tag_273\n      jumpi\n        /* \"#utility.yul\":7843:7922   */\n      tag_274\n      tag_165\n      jump\t// in\n    tag_274:\n        /* \"#utility.yul\":7805:7924   */\n    tag_273:\n        /* \"#utility.yul\":7963:7964   */\n      0x00\n        /* \"#utility.yul\":7988:8049   */\n      tag_275\n        /* \"#utility.yul\":8041:8048   */\n      dup5\n        /* \"#utility.yul\":8032:8038   */\n      dup3\n        /* \"#utility.yul\":8021:8030   */\n      dup6\n        /* \"#utility.yul\":8017:8039   */\n      add\n        /* \"#utility.yul\":7988:8049   */\n      tag_185\n      jump\t// in\n    tag_275:\n        /* \"#utility.yul\":7978:8049   */\n      swap2\n      pop\n        /* \"#utility.yul\":7934:8059   */\n      pop\n        /* \"#utility.yul\":7721:8066   */\n      swap3\n      swap2\n      pop\n      pop\n      jump\t// out\n        /* \"#utility.yul\":8072:8404   */\n    tag_81:\n        /* \"#utility.yul\":8193:8197   */\n      0x00\n        /* \"#utility.yul\":8231:8233   */\n      0x40\n        /* \"#utility.yul\":8220:8229   */\n      dup3\n        /* \"#utility.yul\":8216:8234   */\n      add\n        /* \"#utility.yul\":8208:8234   */\n      swap1\n      pop\n        /* \"#utility.yul\":8244:8315   */\n      tag_277\n        /* \"#utility.yul\":8312:8313   */\n      0x00\n        /* \"#utility.yul\":8301:8310   */\n      dup4\n        /* \"#utility.yul\":8297:8314   */\n      add\n        /* \"#utility.yul\":8288:8294   */\n      dup6\n        /* \"#utility.yul\":8244:8315   */\n      tag_163\n      jump\t// in\n    tag_277:\n        /* \"#utility.yul\":8325:8397   */\n      tag_278\n        /* \"#utility.yul\":8393:8395   */\n      0x20\n        /* \"#utility.yul\":8382:8391   */\n      dup4\n        /* \"#utility.yul\":8378:8396   */\n      add\n        /* \"#utility.yul\":8369:8375   */\n      dup5\n        /* \"#utility.yul\":8325:8397   */\n      tag_163\n      jump\t// in\n    tag_278:\n        /* \"#utility.yul\":8072:8404   */\n      swap4\n      swap3\n      pop\n      pop\n      pop\n      jump\t// out\n        /* \"#utility.yul\":8410:8852   */\n    tag_105:\n        /* \"#utility.yul\":8559:8563   */\n      0x00\n        /* \"#utility.yul\":8597:8599   */\n      0x60\n        /* \"#utility.yul\":8586:8595   */\n      dup3\n        /* \"#utility.yul\":8582:8600   */\n      add\n        /* \"#utility.yul\":8574:8600   */\n      swap1\n      pop\n        /* \"#utility.yul\":8610:8681   */\n      tag_280\n        /* \"#utility.yul\":8678:8679   */\n      0x00\n        /* \"#utility.yul\":8667:8676   */\n      dup4\n        /* \"#utility.yul\":8663:8680   */\n      add\n        /* \"#utility.yul\":8654:8660   */\n      dup7\n        /* \"#utility.yul\":8610:8681   */\n      tag_175\n      jump\t// in\n    tag_280:\n        /* \"#utility.yul\":8691:8763   */\n      tag_281\n        /* \"#utility.yul\":8759:8761   */\n      0x20\n        /* \"#utility.yul\":8748:8757   */\n      dup4\n        /* \"#utility.yul\":8744:8762   */\n      add\n        /* \"#utility.yul\":8735:8741   */\n      dup6\n        /* \"#utility.yul\":8691:8763   */\n      tag_175\n      jump\t// in\n    tag_281:\n        /* \"#utility.yul\":8773:8845   */\n      tag_282\n        /* \"#utility.yul\":8841:8843   */\n      0x40\n        /* \"#utility.yul\":8830:8839   */\n      dup4\n        /* \"#utility.yul\":8826:8844   */\n      add\n        /* \"#utility.yul\":8817:8823   */\n      dup5\n        /* \"#utility.yul\":8773:8845   */\n      tag_163\n      jump\t// in\n    tag_282:\n        /* \"#utility.yul\":8410:8852   */\n      swap5\n      swap4\n      pop\n      pop\n      pop\n      pop\n      jump\t// out\n        /* \"#utility.yul\":8858:9163   */\n    tag_125:\n        /* \"#utility.yul\":8898:8901   */\n      0x00\n        /* \"#utility.yul\":8917:8937   */\n      tag_284\n        /* \"#utility.yul\":8935:8936   */\n      dup3\n        /* \"#utility.yul\":8917:8937   */\n      tag_162\n      jump\t// in\n    tag_284:\n        /* \"#utility.yul\":8912:8937   */\n      swap2\n      pop\n        /* \"#utility.yul\":8951:8971   */\n      tag_285\n        /* \"#utility.yul\":8969:8970   */\n      dup4\n        /* \"#utility.yul\":8951:8971   */\n      tag_162\n      jump\t// in\n    tag_285:\n        /* \"#utility.yul\":8946:8971   */\n      swap3\n      pop\n        /* \"#utility.yul\":9105:9106   */\n      dup3\n        /* \"#utility.yul\":9037:9103   */\n      0xffffffffffffffffffffffffffffffffffffffffffffffffffffffffffffffff\n        /* \"#utility.yul\":9033:9107   */\n      sub\n        /* \"#utility.yul\":9030:9031   */\n      dup3\n        /* \"#utility.yul\":9027:9108   */\n      gt\n        /* \"#utility.yul\":9024:9131   */\n      iszero\n      tag_286\n      jumpi\n        /* \"#utility.yul\":9111:9129   */\n      tag_287\n      tag_173\n      jump\t// in\n    tag_287:\n        /* \"#utility.yul\":9024:9131   */\n    tag_286:\n        /* \"#utility.yul\":9155:9156   */\n      dup3\n        /* \"#utility.yul\":9152:9153   */\n      dup3\n        /* \"#utility.yul\":9148:9157   */\n      add\n        /* \"#utility.yul\":9141:9157   */\n      swap1\n      pop\n        /* \"#utility.yul\":8858:9163   */\n      swap3\n      swap2\n      pop\n      pop\n      jump\t// out\n\n    auxdata: 0xa26469706673582212202ed20065d576d65d4cc09a1e12094b17ad1a18b8b2b7766eb3683214d89d9f0864736f6c634300080f0033\n}\n",
				"bytecode": {
					"linkReferences": {},
					"object": "608060405234801561001057600080fd5b50611334806100206000396000f3fe6080604052600436106100865760003560e01c80637a1ac61e116100595780637a1ac61e1461011457806382b2e25714610130578063b8c876b11461015b578063d0e30db014610198578063debc674c146101a257610086565b806312065fe01461008b5780632e1a7d4d146100b657806331f3bd28146100df5780637937c03d1461010a575b600080fd5b34801561009757600080fd5b506100a06101cb565b6040516100ad9190610e17565b60405180910390f35b3480156100c257600080fd5b506100dd60048036038101906100d89190610e63565b6101d3565b005b3480156100eb57600080fd5b506100f46104a7565b6040516101019190610e17565b60405180910390f35b6101126104ad565b005b61012e60048036038101906101299190610eee565b610641565b005b34801561013c57600080fd5b50610145610871565b6040516101529190610e17565b60405180910390f35b34801561016757600080fd5b50610182600480360381019061017d9190610f41565b610913565b60405161018f9190610e17565b60405180910390f35b6101a061092b565b005b3480156101ae57600080fd5b506101c960048036038101906101c49190610e63565b610b71565b005b600047905090565b600060015447836101e49190610f9d565b6101ee9190611026565b9050600060015460008054906101000a900473ffffffffffffffffffffffffffffffffffffffff1673ffffffffffffffffffffffffffffffffffffffff166370a08231306040518263ffffffff1660e01b815260040161024e9190611066565b602060405180830381865afa15801561026b573d6000803e3d6000fd5b505050506040513d601f19601f8201168201806040525081019061028f9190611096565b8461029a9190610f9d565b6102a49190611026565b905081600260003373ffffffffffffffffffffffffffffffffffffffff1673ffffffffffffffffffffffffffffffffffffffff16815260200190815260200160002060008282546102f591906110c3565b92505081905550816001600082825461030e91906110c3565b9250508190555060003373ffffffffffffffffffffffffffffffffffffffff168360405161033b90611128565b60006040518083038185875af1925050503d8060008114610378576040519150601f19603f3d011682016040523d82523d6000602084013e61037d565b606091505b50509050806103c1576040517f08c379a00000000000000000000000000000000000000000000000000000000081526004016103b89061119a565b60405180910390fd5b60008054906101000a900473ffffffffffffffffffffffffffffffffffffffff1673ffffffffffffffffffffffffffffffffffffffff1663a9059cbb33846040518363ffffffff1660e01b815260040161041c9291906111ba565b6020604051808303816000875af115801561043b573d6000803e3d6000fd5b505050506040513d601f19601f8201168201806040525081019061045f919061121b565b61046857600080fd5b7f56ca301a9219608c91e7bcee90e083c19671d2cdcc96752c7af291cee5f9c8c88383604051610499929190611248565b60405180910390a150505050565b60015481565b600061055e3434476104bf91906110c3565b60008054906101000a900473ffffffffffffffffffffffffffffffffffffffff1673ffffffffffffffffffffffffffffffffffffffff166370a08231306040518263ffffffff1660e01b81526004016105189190611066565b602060405180830381865afa158015610535573d6000803e3d6000fd5b505050506040513d601f19601f820116820180604052508101906105599190611096565b610daa565b905060008054906101000a900473ffffffffffffffffffffffffffffffffffffffff1673ffffffffffffffffffffffffffffffffffffffff1663a9059cbb33836040518363ffffffff1660e01b81526004016105bb9291906111ba565b6020604051808303816000875af11580156105da573d6000803e3d6000fd5b505050506040513d601f19601f820116820180604052508101906105fe919061121b565b61060757600080fd5b7fdb04c7a6d4758fd55d738ebc67e7f3010ac922be00771ef29521a4090d1eb13f816040516106369190610e17565b60405180910390a150565b60006001541461065057600080fd5b826000806101000a81548173ffffffffffffffffffffffffffffffffffffffff021916908373ffffffffffffffffffffffffffffffffffffffff16021790555060003373ffffffffffffffffffffffffffffffffffffffff16826040516106b690611128565b60006040518083038185875af1925050503d80600081146106f3576040519150601f19603f3d011682016040523d82523d6000602084013e6106f8565b606091505b505090508061073c576040517f08c379a00000000000000000000000000000000000000000000000000000000081526004016107339061119a565b60405180910390fd5b47600181905550600154600260003373ffffffffffffffffffffffffffffffffffffffff1673ffffffffffffffffffffffffffffffffffffffff1681526020019081526020016000208190555060008054906101000a900473ffffffffffffffffffffffffffffffffffffffff1673ffffffffffffffffffffffffffffffffffffffff166323b872dd3330866040518463ffffffff1660e01b81526004016107e693929190611271565b6020604051808303816000875af1158015610805573d6000803e3d6000fd5b505050506040513d601f19601f82011682018060405250810190610829919061121b565b61083257600080fd5b7fc43e48cf47e9fa186d0f4096c61d1fcb54159799f935a2aa32e5589688ee36e16001546040516108639190610e17565b60405180910390a150505050565b60008060009054906101000a900473ffffffffffffffffffffffffffffffffffffffff1673ffffffffffffffffffffffffffffffffffffffff166370a08231306040518263ffffffff1660e01b81526004016108cd9190611066565b602060405180830381865afa1580156108ea573d6000803e3d6000fd5b505050506040513d601f19601f8201168201806040525081019061090e9190611096565b905090565b60026020528060005260406000206000915090505481565b60006001344761093b91906110c3565b60008054906101000a900473ffffffffffffffffffffffffffffffffffffffff1673ffffffffffffffffffffffffffffffffffffffff166370a08231306040518263ffffffff1660e01b81526004016109949190611066565b602060405180830381865afa1580156109b1573d6000803e3d6000fd5b505050506040513d601f19601f820116820180604052508101906109d59190611096565b346109e09190610f9d565b6109ea9190611026565b6109f491906112a8565b905060003447610a0491906110c3565b60015434610a129190610f9d565b610a1c9190611026565b905080600260003373ffffffffffffffffffffffffffffffffffffffff1673ffffffffffffffffffffffffffffffffffffffff1681526020019081526020016000206000828254610a6d91906112a8565b925050819055508060016000828254610a8691906112a8565b9250508190555060008054906101000a900473ffffffffffffffffffffffffffffffffffffffff1673ffffffffffffffffffffffffffffffffffffffff166323b872dd3330856040518463ffffffff1660e01b8152600401610aea93929190611271565b6020604051808303816000875af1158015610b09573d6000803e3d6000fd5b505050506040513d601f19601f82011682018060405250810190610b2d919061121b565b610b3657600080fd5b7f4d6ce1e535dbade1c23defba91e23b8f791ce5edc0cc320257a2b364e4e3842681604051610b659190610e17565b60405180910390a15050565b6000610c178260008054906101000a900473ffffffffffffffffffffffffffffffffffffffff1673ffffffffffffffffffffffffffffffffffffffff166370a08231306040518263ffffffff1660e01b8152600401610bd09190611066565b602060405180830381865afa158015610bed573d6000803e3d6000fd5b505050506040513d601f19601f82011682018060405250810190610c119190611096565b47610daa565b905060003373ffffffffffffffffffffffffffffffffffffffff1682604051610c3f90611128565b60006040518083038185875af1925050503d8060008114610c7c576040519150601f19603f3d011682016040523d82523d6000602084013e610c81565b606091505b5050905080610cc5576040517f08c379a0000000000000000000000000000000000000000000000000000000008152600401610cbc9061119a565b60405180910390fd5b60008054906101000a900473ffffffffffffffffffffffffffffffffffffffff1673ffffffffffffffffffffffffffffffffffffffff166323b872dd3330866040518463ffffffff1660e01b8152600401610d2293929190611271565b6020604051808303816000875af1158015610d41573d6000803e3d6000fd5b505050506040513d601f19601f82011682018060405250810190610d65919061121b565b610d6e57600080fd5b7f4dbf3a71a7c7262f432c2cad7808225832255d07f7d8ab85117677c0b5c0a85082604051610d9d9190610e17565b60405180910390a1505050565b6000836103e3610dba9190610f9d565b836103e8610dc89190610f9d565b610dd291906112a8565b82856103e3610de19190610f9d565b610deb9190610f9d565b610df59190611026565b90509392505050565b6000819050919050565b610e1181610dfe565b82525050565b6000602082019050610e2c6000830184610e08565b92915050565b600080fd5b610e4081610dfe565b8114610e4b57600080fd5b50565b600081359050610e5d81610e37565b92915050565b600060208284031215610e7957610e78610e32565b5b6000610e8784828501610e4e565b91505092915050565b600073ffffffffffffffffffffffffffffffffffffffff82169050919050565b6000610ebb82610e90565b9050919050565b610ecb81610eb0565b8114610ed657600080fd5b50565b600081359050610ee881610ec2565b92915050565b600080600060608486031215610f0757610f06610e32565b5b6000610f1586828701610ed9565b9350506020610f2686828701610e4e565b9250506040610f3786828701610e4e565b9150509250925092565b600060208284031215610f5757610f56610e32565b5b6000610f6584828501610ed9565b91505092915050565b7f4e487b7100000000000000000000000000000000000000000000000000000000600052601160045260246000fd5b6000610fa882610dfe565b9150610fb383610dfe565b9250817fffffffffffffffffffffffffffffffffffffffffffffffffffffffffffffffff0483118215151615610fec57610feb610f6e565b5b828202905092915050565b7f4e487b7100000000000000000000000000000000000000000000000000000000600052601260045260246000fd5b600061103182610dfe565b915061103c83610dfe565b92508261104c5761104b610ff7565b5b828204905092915050565b61106081610eb0565b82525050565b600060208201905061107b6000830184611057565b92915050565b60008151905061109081610e37565b92915050565b6000602082840312156110ac576110ab610e32565b5b60006110ba84828501611081565b91505092915050565b60006110ce82610dfe565b91506110d983610dfe565b9250828210156110ec576110eb610f6e565b5b828203905092915050565b600081905092915050565b50565b60006111126000836110f7565b915061111d82611102565b600082019050919050565b600061113382611105565b9150819050919050565b600082825260208201905092915050565b7f5472616e73666572206661696c65642e00000000000000000000000000000000600082015250565b600061118460108361113d565b915061118f8261114e565b602082019050919050565b600060208201905081810360008301526111b381611177565b9050919050565b60006040820190506111cf6000830185611057565b6111dc6020830184610e08565b9392505050565b60008115159050919050565b6111f8816111e3565b811461120357600080fd5b50565b600081519050611215816111ef565b92915050565b60006020828403121561123157611230610e32565b5b600061123f84828501611206565b91505092915050565b600060408201905061125d6000830185610e08565b61126a6020830184610e08565b9392505050565b60006060820190506112866000830186611057565b6112936020830185611057565b6112a06040830184610e08565b949350505050565b60006112b382610dfe565b91506112be83610dfe565b9250827fffffffffffffffffffffffffffffffffffffffffffffffffffffffffffffffff038211156112f3576112f2610f6e565b5b82820190509291505056fea26469706673582212202ed20065d576d65d4cc09a1e12094b17ad1a18b8b2b7766eb3683214d89d9f0864736f6c634300080f0033",
					"opcodes": "PUSH1 0x80 PUSH1 0x40 MSTORE CALLVALUE DUP1 ISZERO PUSH2 0x10 JUMPI PUSH1 0x0 DUP1 REVERT JUMPDEST POP PUSH2 0x1334 DUP1 PUSH2 0x20 PUSH1 0x0 CODECOPY PUSH1 0x0 RETURN INVALID PUSH1 0x80 PUSH1 0x40 MSTORE PUSH1 0x4 CALLDATASIZE LT PUSH2 0x86 JUMPI PUSH1 0x0 CALLDATALOAD PUSH1 0xE0 SHR DUP1 PUSH4 0x7A1AC61E GT PUSH2 0x59 JUMPI DUP1 PUSH4 0x7A1AC61E EQ PUSH2 0x114 JUMPI DUP1 PUSH4 0x82B2E257 EQ PUSH2 0x130 JUMPI DUP1 PUSH4 0xB8C876B1 EQ PUSH2 0x15B JUMPI DUP1 PUSH4 0xD0E30DB0 EQ PUSH2 0x198 JUMPI DUP1 PUSH4 0xDEBC674C EQ PUSH2 0x1A2 JUMPI PUSH2 0x86 JUMP JUMPDEST DUP1 PUSH4 0x12065FE0 EQ PUSH2 0x8B JUMPI DUP1 PUSH4 0x2E1A7D4D EQ PUSH2 0xB6 JUMPI DUP1 PUSH4 0x31F3BD28 EQ PUSH2 0xDF JUMPI DUP1 PUSH4 0x7937C03D EQ PUSH2 0x10A JUMPI JUMPDEST PUSH1 0x0 DUP1 REVERT JUMPDEST CALLVALUE DUP1 ISZERO PUSH2 0x97 JUMPI PUSH1 0x0 DUP1 REVERT JUMPDEST POP PUSH2 0xA0 PUSH2 0x1CB JUMP JUMPDEST PUSH1 0x40 MLOAD PUSH2 0xAD SWAP2 SWAP1 PUSH2 0xE17 JUMP JUMPDEST PUSH1 0x40 MLOAD DUP1 SWAP2 SUB SWAP1 RETURN JUMPDEST CALLVALUE DUP1 ISZERO PUSH2 0xC2 JUMPI PUSH1 0x0 DUP1 REVERT JUMPDEST POP PUSH2 0xDD PUSH1 0x4 DUP1 CALLDATASIZE SUB DUP2 ADD SWAP1 PUSH2 0xD8 SWAP2 SWAP1 PUSH2 0xE63 JUMP JUMPDEST PUSH2 0x1D3 JUMP JUMPDEST STOP JUMPDEST CALLVALUE DUP1 ISZERO PUSH2 0xEB JUMPI PUSH1 0x0 DUP1 REVERT JUMPDEST POP PUSH2 0xF4 PUSH2 0x4A7 JUMP JUMPDEST PUSH1 0x40 MLOAD PUSH2 0x101 SWAP2 SWAP1 PUSH2 0xE17 JUMP JUMPDEST PUSH1 0x40 MLOAD DUP1 SWAP2 SUB SWAP1 RETURN JUMPDEST PUSH2 0x112 PUSH2 0x4AD JUMP JUMPDEST STOP JUMPDEST PUSH2 0x12E PUSH1 0x4 DUP1 CALLDATASIZE SUB DUP2 ADD SWAP1 PUSH2 0x129 SWAP2 SWAP1 PUSH2 0xEEE JUMP JUMPDEST PUSH2 0x641 JUMP JUMPDEST STOP JUMPDEST CALLVALUE DUP1 ISZERO PUSH2 0x13C JUMPI PUSH1 0x0 DUP1 REVERT JUMPDEST POP PUSH2 0x145 PUSH2 0x871 JUMP JUMPDEST PUSH1 0x40 MLOAD PUSH2 0x152 SWAP2 SWAP1 PUSH2 0xE17 JUMP JUMPDEST PUSH1 0x40 MLOAD DUP1 SWAP2 SUB SWAP1 RETURN JUMPDEST CALLVALUE DUP1 ISZERO PUSH2 0x167 JUMPI PUSH1 0x0 DUP1 REVERT JUMPDEST POP PUSH2 0x182 PUSH1 0x4 DUP1 CALLDATASIZE SUB DUP2 ADD SWAP1 PUSH2 0x17D SWAP2 SWAP1 PUSH2 0xF41 JUMP JUMPDEST PUSH2 0x913 JUMP JUMPDEST PUSH1 0x40 MLOAD PUSH2 0x18F SWAP2 SWAP1 PUSH2 0xE17 JUMP JUMPDEST PUSH1 0x40 MLOAD DUP1 SWAP2 SUB SWAP1 RETURN JUMPDEST PUSH2 0x1A0 PUSH2 0x92B JUMP JUMPDEST STOP JUMPDEST CALLVALUE DUP1 ISZERO PUSH2 0x1AE JUMPI PUSH1 0x0 DUP1 REVERT JUMPDEST POP PUSH2 0x1C9 PUSH1 0x4 DUP1 CALLDATASIZE SUB DUP2 ADD SWAP1 PUSH2 0x1C4 SWAP2 SWAP1 PUSH2 0xE63 JUMP JUMPDEST PUSH2 0xB71 JUMP JUMPDEST STOP JUMPDEST PUSH1 0x0 SELFBALANCE SWAP1 POP SWAP1 JUMP JUMPDEST PUSH1 0x0 PUSH1 0x1 SLOAD SELFBALANCE DUP4 PUSH2 0x1E4 SWAP2 SWAP1 PUSH2 0xF9D JUMP JUMPDEST PUSH2 0x1EE SWAP2 SWAP1 PUSH2 0x1026 JUMP JUMPDEST SWAP1 POP PUSH1 0x0 PUSH1 0x1 SLOAD PUSH1 0x0 DUP1 SLOAD SWAP1 PUSH2 0x100 EXP SWAP1 DIV PUSH20 0xFFFFFFFFFFFFFFFFFFFFFFFFFFFFFFFFFFFFFFFF AND PUSH20 0xFFFFFFFFFFFFFFFFFFFFFFFFFFFFFFFFFFFFFFFF AND PUSH4 0x70A08231 ADDRESS PUSH1 0x40 MLOAD DUP3 PUSH4 0xFFFFFFFF AND PUSH1 0xE0 SHL DUP2 MSTORE PUSH1 0x4 ADD PUSH2 0x24E SWAP2 SWAP1 PUSH2 0x1066 JUMP JUMPDEST PUSH1 0x20 PUSH1 0x40 MLOAD DUP1 DUP4 SUB DUP2 DUP7 GAS STATICCALL ISZERO DUP1 ISZERO PUSH2 0x26B JUMPI RETURNDATASIZE PUSH1 0x0 DUP1 RETURNDATACOPY RETURNDATASIZE PUSH1 0x0 REVERT JUMPDEST POP POP POP POP PUSH1 0x40 MLOAD RETURNDATASIZE PUSH1 0x1F NOT PUSH1 0x1F DUP3 ADD AND DUP3 ADD DUP1 PUSH1 0x40 MSTORE POP DUP2 ADD SWAP1 PUSH2 0x28F SWAP2 SWAP1 PUSH2 0x1096 JUMP JUMPDEST DUP5 PUSH2 0x29A SWAP2 SWAP1 PUSH2 0xF9D JUMP JUMPDEST PUSH2 0x2A4 SWAP2 SWAP1 PUSH2 0x1026 JUMP JUMPDEST SWAP1 POP DUP2 PUSH1 0x2 PUSH1 0x0 CALLER PUSH20 0xFFFFFFFFFFFFFFFFFFFFFFFFFFFFFFFFFFFFFFFF AND PUSH20 0xFFFFFFFFFFFFFFFFFFFFFFFFFFFFFFFFFFFFFFFF AND DUP2 MSTORE PUSH1 0x20 ADD SWAP1 DUP2 MSTORE PUSH1 0x20 ADD PUSH1 0x0 KECCAK256 PUSH1 0x0 DUP3 DUP3 SLOAD PUSH2 0x2F5 SWAP2 SWAP1 PUSH2 0x10C3 JUMP JUMPDEST SWAP3 POP POP DUP2 SWAP1 SSTORE POP DUP2 PUSH1 0x1 PUSH1 0x0 DUP3 DUP3 SLOAD PUSH2 0x30E SWAP2 SWAP1 PUSH2 0x10C3 JUMP JUMPDEST SWAP3 POP POP DUP2 SWAP1 SSTORE POP PUSH1 0x0 CALLER PUSH20 0xFFFFFFFFFFFFFFFFFFFFFFFFFFFFFFFFFFFFFFFF AND DUP4 PUSH1 0x40 MLOAD PUSH2 0x33B SWAP1 PUSH2 0x1128 JUMP JUMPDEST PUSH1 0x0 PUSH1 0x40 MLOAD DUP1 DUP4 SUB DUP2 DUP6 DUP8 GAS CALL SWAP3 POP POP POP RETURNDATASIZE DUP1 PUSH1 0x0 DUP2 EQ PUSH2 0x378 JUMPI PUSH1 0x40 MLOAD SWAP2 POP PUSH1 0x1F NOT PUSH1 0x3F RETURNDATASIZE ADD AND DUP3 ADD PUSH1 0x40 MSTORE RETURNDATASIZE DUP3 MSTORE RETURNDATASIZE PUSH1 0x0 PUSH1 0x20 DUP5 ADD RETURNDATACOPY PUSH2 0x37D JUMP JUMPDEST PUSH1 0x60 SWAP2 POP JUMPDEST POP POP SWAP1 POP DUP1 PUSH2 0x3C1 JUMPI PUSH1 0x40 MLOAD PUSH32 0x8C379A000000000000000000000000000000000000000000000000000000000 DUP2 MSTORE PUSH1 0x4 ADD PUSH2 0x3B8 SWAP1 PUSH2 0x119A JUMP JUMPDEST PUSH1 0x40 MLOAD DUP1 SWAP2 SUB SWAP1 REVERT JUMPDEST PUSH1 0x0 DUP1 SLOAD SWAP1 PUSH2 0x100 EXP SWAP1 DIV PUSH20 0xFFFFFFFFFFFFFFFFFFFFFFFFFFFFFFFFFFFFFFFF AND PUSH20 0xFFFFFFFFFFFFFFFFFFFFFFFFFFFFFFFFFFFFFFFF AND PUSH4 0xA9059CBB CALLER DUP5 PUSH1 0x40 MLOAD DUP4 PUSH4 0xFFFFFFFF AND PUSH1 0xE0 SHL DUP2 MSTORE PUSH1 0x4 ADD PUSH2 0x41C SWAP3 SWAP2 SWAP1 PUSH2 0x11BA JUMP JUMPDEST PUSH1 0x20 PUSH1 0x40 MLOAD DUP1 DUP4 SUB DUP2 PUSH1 0x0 DUP8 GAS CALL ISZERO DUP1 ISZERO PUSH2 0x43B JUMPI RETURNDATASIZE PUSH1 0x0 DUP1 RETURNDATACOPY RETURNDATASIZE PUSH1 0x0 REVERT JUMPDEST POP POP POP POP PUSH1 0x40 MLOAD RETURNDATASIZE PUSH1 0x1F NOT PUSH1 0x1F DUP3 ADD AND DUP3 ADD DUP1 PUSH1 0x40 MSTORE POP DUP2 ADD SWAP1 PUSH2 0x45F SWAP2 SWAP1 PUSH2 0x121B JUMP JUMPDEST PUSH2 0x468 JUMPI PUSH1 0x0 DUP1 REVERT JUMPDEST PUSH32 0x56CA301A9219608C91E7BCEE90E083C19671D2CDCC96752C7AF291CEE5F9C8C8 DUP4 DUP4 PUSH1 0x40 MLOAD PUSH2 0x499 SWAP3 SWAP2 SWAP1 PUSH2 0x1248 JUMP JUMPDEST PUSH1 0x40 MLOAD DUP1 SWAP2 SUB SWAP1 LOG1 POP POP POP POP JUMP JUMPDEST PUSH1 0x1 SLOAD DUP2 JUMP JUMPDEST PUSH1 0x0 PUSH2 0x55E CALLVALUE CALLVALUE SELFBALANCE PUSH2 0x4BF SWAP2 SWAP1 PUSH2 0x10C3 JUMP JUMPDEST PUSH1 0x0 DUP1 SLOAD SWAP1 PUSH2 0x100 EXP SWAP1 DIV PUSH20 0xFFFFFFFFFFFFFFFFFFFFFFFFFFFFFFFFFFFFFFFF AND PUSH20 0xFFFFFFFFFFFFFFFFFFFFFFFFFFFFFFFFFFFFFFFF AND PUSH4 0x70A08231 ADDRESS PUSH1 0x40 MLOAD DUP3 PUSH4 0xFFFFFFFF AND PUSH1 0xE0 SHL DUP2 MSTORE PUSH1 0x4 ADD PUSH2 0x518 SWAP2 SWAP1 PUSH2 0x1066 JUMP JUMPDEST PUSH1 0x20 PUSH1 0x40 MLOAD DUP1 DUP4 SUB DUP2 DUP7 GAS STATICCALL ISZERO DUP1 ISZERO PUSH2 0x535 JUMPI RETURNDATASIZE PUSH1 0x0 DUP1 RETURNDATACOPY RETURNDATASIZE PUSH1 0x0 REVERT JUMPDEST POP POP POP POP PUSH1 0x40 MLOAD RETURNDATASIZE PUSH1 0x1F NOT PUSH1 0x1F DUP3 ADD AND DUP3 ADD DUP1 PUSH1 0x40 MSTORE POP DUP2 ADD SWAP1 PUSH2 0x559 SWAP2 SWAP1 PUSH2 0x1096 JUMP JUMPDEST PUSH2 0xDAA JUMP JUMPDEST SWAP1 POP PUSH1 0x0 DUP1 SLOAD SWAP1 PUSH2 0x100 EXP SWAP1 DIV PUSH20 0xFFFFFFFFFFFFFFFFFFFFFFFFFFFFFFFFFFFFFFFF AND PUSH20 0xFFFFFFFFFFFFFFFFFFFFFFFFFFFFFFFFFFFFFFFF AND PUSH4 0xA9059CBB CALLER DUP4 PUSH1 0x40 MLOAD DUP4 PUSH4 0xFFFFFFFF AND PUSH1 0xE0 SHL DUP2 MSTORE PUSH1 0x4 ADD PUSH2 0x5BB SWAP3 SWAP2 SWAP1 PUSH2 0x11BA JUMP JUMPDEST PUSH1 0x20 PUSH1 0x40 MLOAD DUP1 DUP4 SUB DUP2 PUSH1 0x0 DUP8 GAS CALL ISZERO DUP1 ISZERO PUSH2 0x5DA JUMPI RETURNDATASIZE PUSH1 0x0 DUP1 RETURNDATACOPY RETURNDATASIZE PUSH1 0x0 REVERT JUMPDEST POP POP POP POP PUSH1 0x40 MLOAD RETURNDATASIZE PUSH1 0x1F NOT PUSH1 0x1F DUP3 ADD AND DUP3 ADD DUP1 PUSH1 0x40 MSTORE POP DUP2 ADD SWAP1 PUSH2 0x5FE SWAP2 SWAP1 PUSH2 0x121B JUMP JUMPDEST PUSH2 0x607 JUMPI PUSH1 0x0 DUP1 REVERT JUMPDEST PUSH32 0xDB04C7A6D4758FD55D738EBC67E7F3010AC922BE00771EF29521A4090D1EB13F DUP2 PUSH1 0x40 MLOAD PUSH2 0x636 SWAP2 SWAP1 PUSH2 0xE17 JUMP JUMPDEST PUSH1 0x40 MLOAD DUP1 SWAP2 SUB SWAP1 LOG1 POP JUMP JUMPDEST PUSH1 0x0 PUSH1 0x1 SLOAD EQ PUSH2 0x650 JUMPI PUSH1 0x0 DUP1 REVERT JUMPDEST DUP3 PUSH1 0x0 DUP1 PUSH2 0x100 EXP DUP2 SLOAD DUP2 PUSH20 0xFFFFFFFFFFFFFFFFFFFFFFFFFFFFFFFFFFFFFFFF MUL NOT AND SWAP1 DUP4 PUSH20 0xFFFFFFFFFFFFFFFFFFFFFFFFFFFFFFFFFFFFFFFF AND MUL OR SWAP1 SSTORE POP PUSH1 0x0 CALLER PUSH20 0xFFFFFFFFFFFFFFFFFFFFFFFFFFFFFFFFFFFFFFFF AND DUP3 PUSH1 0x40 MLOAD PUSH2 0x6B6 SWAP1 PUSH2 0x1128 JUMP JUMPDEST PUSH1 0x0 PUSH1 0x40 MLOAD DUP1 DUP4 SUB DUP2 DUP6 DUP8 GAS CALL SWAP3 POP POP POP RETURNDATASIZE DUP1 PUSH1 0x0 DUP2 EQ PUSH2 0x6F3 JUMPI PUSH1 0x40 MLOAD SWAP2 POP PUSH1 0x1F NOT PUSH1 0x3F RETURNDATASIZE ADD AND DUP3 ADD PUSH1 0x40 MSTORE RETURNDATASIZE DUP3 MSTORE RETURNDATASIZE PUSH1 0x0 PUSH1 0x20 DUP5 ADD RETURNDATACOPY PUSH2 0x6F8 JUMP JUMPDEST PUSH1 0x60 SWAP2 POP JUMPDEST POP POP SWAP1 POP DUP1 PUSH2 0x73C JUMPI PUSH1 0x40 MLOAD PUSH32 0x8C379A000000000000000000000000000000000000000000000000000000000 DUP2 MSTORE PUSH1 0x4 ADD PUSH2 0x733 SWAP1 PUSH2 0x119A JUMP JUMPDEST PUSH1 0x40 MLOAD DUP1 SWAP2 SUB SWAP1 REVERT JUMPDEST SELFBALANCE PUSH1 0x1 DUP2 SWAP1 SSTORE POP PUSH1 0x1 SLOAD PUSH1 0x2 PUSH1 0x0 CALLER PUSH20 0xFFFFFFFFFFFFFFFFFFFFFFFFFFFFFFFFFFFFFFFF AND PUSH20 0xFFFFFFFFFFFFFFFFFFFFFFFFFFFFFFFFFFFFFFFF AND DUP2 MSTORE PUSH1 0x20 ADD SWAP1 DUP2 MSTORE PUSH1 0x20 ADD PUSH1 0x0 KECCAK256 DUP2 SWAP1 SSTORE POP PUSH1 0x0 DUP1 SLOAD SWAP1 PUSH2 0x100 EXP SWAP1 DIV PUSH20 0xFFFFFFFFFFFFFFFFFFFFFFFFFFFFFFFFFFFFFFFF AND PUSH20 0xFFFFFFFFFFFFFFFFFFFFFFFFFFFFFFFFFFFFFFFF AND PUSH4 0x23B872DD CALLER ADDRESS DUP7 PUSH1 0x40 MLOAD DUP5 PUSH4 0xFFFFFFFF AND PUSH1 0xE0 SHL DUP2 MSTORE PUSH1 0x4 ADD PUSH2 0x7E6 SWAP4 SWAP3 SWAP2 SWAP1 PUSH2 0x1271 JUMP JUMPDEST PUSH1 0x20 PUSH1 0x40 MLOAD DUP1 DUP4 SUB DUP2 PUSH1 0x0 DUP8 GAS CALL ISZERO DUP1 ISZERO PUSH2 0x805 JUMPI RETURNDATASIZE PUSH1 0x0 DUP1 RETURNDATACOPY RETURNDATASIZE PUSH1 0x0 REVERT JUMPDEST POP POP POP POP PUSH1 0x40 MLOAD RETURNDATASIZE PUSH1 0x1F NOT PUSH1 0x1F DUP3 ADD AND DUP3 ADD DUP1 PUSH1 0x40 MSTORE POP DUP2 ADD SWAP1 PUSH2 0x829 SWAP2 SWAP1 PUSH2 0x121B JUMP JUMPDEST PUSH2 0x832 JUMPI PUSH1 0x0 DUP1 REVERT JUMPDEST PUSH32 0xC43E48CF47E9FA186D0F4096C61D1FCB54159799F935A2AA32E5589688EE36E1 PUSH1 0x1 SLOAD PUSH1 0x40 MLOAD PUSH2 0x863 SWAP2 SWAP1 PUSH2 0xE17 JUMP JUMPDEST PUSH1 0x40 MLOAD DUP1 SWAP2 SUB SWAP1 LOG1 POP POP POP POP JUMP JUMPDEST PUSH1 0x0 DUP1 PUSH1 0x0 SWAP1 SLOAD SWAP1 PUSH2 0x100 EXP SWAP1 DIV PUSH20 0xFFFFFFFFFFFFFFFFFFFFFFFFFFFFFFFFFFFFFFFF AND PUSH20 0xFFFFFFFFFFFFFFFFFFFFFFFFFFFFFFFFFFFFFFFF AND PUSH4 0x70A08231 ADDRESS PUSH1 0x40 MLOAD DUP3 PUSH4 0xFFFFFFFF AND PUSH1 0xE0 SHL DUP2 MSTORE PUSH1 0x4 ADD PUSH2 0x8CD SWAP2 SWAP1 PUSH2 0x1066 JUMP JUMPDEST PUSH1 0x20 PUSH1 0x40 MLOAD DUP1 DUP4 SUB DUP2 DUP7 GAS STATICCALL ISZERO DUP1 ISZERO PUSH2 0x8EA JUMPI RETURNDATASIZE PUSH1 0x0 DUP1 RETURNDATACOPY RETURNDATASIZE PUSH1 0x0 REVERT JUMPDEST POP POP POP POP PUSH1 0x40 MLOAD RETURNDATASIZE PUSH1 0x1F NOT PUSH1 0x1F DUP3 ADD AND DUP3 ADD DUP1 PUSH1 0x40 MSTORE POP DUP2 ADD SWAP1 PUSH2 0x90E SWAP2 SWAP1 PUSH2 0x1096 JUMP JUMPDEST SWAP1 POP SWAP1 JUMP JUMPDEST PUSH1 0x2 PUSH1 0x20 MSTORE DUP1 PUSH1 0x0 MSTORE PUSH1 0x40 PUSH1 0x0 KECCAK256 PUSH1 0x0 SWAP2 POP SWAP1 POP SLOAD DUP2 JUMP JUMPDEST PUSH1 0x0 PUSH1 0x1 CALLVALUE SELFBALANCE PUSH2 0x93B SWAP2 SWAP1 PUSH2 0x10C3 JUMP JUMPDEST PUSH1 0x0 DUP1 SLOAD SWAP1 PUSH2 0x100 EXP SWAP1 DIV PUSH20 0xFFFFFFFFFFFFFFFFFFFFFFFFFFFFFFFFFFFFFFFF AND PUSH20 0xFFFFFFFFFFFFFFFFFFFFFFFFFFFFFFFFFFFFFFFF AND PUSH4 0x70A08231 ADDRESS PUSH1 0x40 MLOAD DUP3 PUSH4 0xFFFFFFFF AND PUSH1 0xE0 SHL DUP2 MSTORE PUSH1 0x4 ADD PUSH2 0x994 SWAP2 SWAP1 PUSH2 0x1066 JUMP JUMPDEST PUSH1 0x20 PUSH1 0x40 MLOAD DUP1 DUP4 SUB DUP2 DUP7 GAS STATICCALL ISZERO DUP1 ISZERO PUSH2 0x9B1 JUMPI RETURNDATASIZE PUSH1 0x0 DUP1 RETURNDATACOPY RETURNDATASIZE PUSH1 0x0 REVERT JUMPDEST POP POP POP POP PUSH1 0x40 MLOAD RETURNDATASIZE PUSH1 0x1F NOT PUSH1 0x1F DUP3 ADD AND DUP3 ADD DUP1 PUSH1 0x40 MSTORE POP DUP2 ADD SWAP1 PUSH2 0x9D5 SWAP2 SWAP1 PUSH2 0x1096 JUMP JUMPDEST CALLVALUE PUSH2 0x9E0 SWAP2 SWAP1 PUSH2 0xF9D JUMP JUMPDEST PUSH2 0x9EA SWAP2 SWAP1 PUSH2 0x1026 JUMP JUMPDEST PUSH2 0x9F4 SWAP2 SWAP1 PUSH2 0x12A8 JUMP JUMPDEST SWAP1 POP PUSH1 0x0 CALLVALUE SELFBALANCE PUSH2 0xA04 SWAP2 SWAP1 PUSH2 0x10C3 JUMP JUMPDEST PUSH1 0x1 SLOAD CALLVALUE PUSH2 0xA12 SWAP2 SWAP1 PUSH2 0xF9D JUMP JUMPDEST PUSH2 0xA1C SWAP2 SWAP1 PUSH2 0x1026 JUMP JUMPDEST SWAP1 POP DUP1 PUSH1 0x2 PUSH1 0x0 CALLER PUSH20 0xFFFFFFFFFFFFFFFFFFFFFFFFFFFFFFFFFFFFFFFF AND PUSH20 0xFFFFFFFFFFFFFFFFFFFFFFFFFFFFFFFFFFFFFFFF AND DUP2 MSTORE PUSH1 0x20 ADD SWAP1 DUP2 MSTORE PUSH1 0x20 ADD PUSH1 0x0 KECCAK256 PUSH1 0x0 DUP3 DUP3 SLOAD PUSH2 0xA6D SWAP2 SWAP1 PUSH2 0x12A8 JUMP JUMPDEST SWAP3 POP POP DUP2 SWAP1 SSTORE POP DUP1 PUSH1 0x1 PUSH1 0x0 DUP3 DUP3 SLOAD PUSH2 0xA86 SWAP2 SWAP1 PUSH2 0x12A8 JUMP JUMPDEST SWAP3 POP POP DUP2 SWAP1 SSTORE POP PUSH1 0x0 DUP1 SLOAD SWAP1 PUSH2 0x100 EXP SWAP1 DIV PUSH20 0xFFFFFFFFFFFFFFFFFFFFFFFFFFFFFFFFFFFFFFFF AND PUSH20 0xFFFFFFFFFFFFFFFFFFFFFFFFFFFFFFFFFFFFFFFF AND PUSH4 0x23B872DD CALLER ADDRESS DUP6 PUSH1 0x40 MLOAD DUP5 PUSH4 0xFFFFFFFF AND PUSH1 0xE0 SHL DUP2 MSTORE PUSH1 0x4 ADD PUSH2 0xAEA SWAP4 SWAP3 SWAP2 SWAP1 PUSH2 0x1271 JUMP JUMPDEST PUSH1 0x20 PUSH1 0x40 MLOAD DUP1 DUP4 SUB DUP2 PUSH1 0x0 DUP8 GAS CALL ISZERO DUP1 ISZERO PUSH2 0xB09 JUMPI RETURNDATASIZE PUSH1 0x0 DUP1 RETURNDATACOPY RETURNDATASIZE PUSH1 0x0 REVERT JUMPDEST POP POP POP POP PUSH1 0x40 MLOAD RETURNDATASIZE PUSH1 0x1F NOT PUSH1 0x1F DUP3 ADD AND DUP3 ADD DUP1 PUSH1 0x40 MSTORE POP DUP2 ADD SWAP1 PUSH2 0xB2D SWAP2 SWAP1 PUSH2 0x121B JUMP JUMPDEST PUSH2 0xB36 JUMPI PUSH1 0x0 DUP1 REVERT JUMPDEST PUSH32 0x4D6CE1E535DBADE1C23DEFBA91E23B8F791CE5EDC0CC320257A2B364E4E38426 DUP2 PUSH1 0x40 MLOAD PUSH2 0xB65 SWAP2 SWAP1 PUSH2 0xE17 JUMP JUMPDEST PUSH1 0x40 MLOAD DUP1 SWAP2 SUB SWAP1 LOG1 POP POP JUMP JUMPDEST PUSH1 0x0 PUSH2 0xC17 DUP3 PUSH1 0x0 DUP1 SLOAD SWAP1 PUSH2 0x100 EXP SWAP1 DIV PUSH20 0xFFFFFFFFFFFFFFFFFFFFFFFFFFFFFFFFFFFFFFFF AND PUSH20 0xFFFFFFFFFFFFFFFFFFFFFFFFFFFFFFFFFFFFFFFF AND PUSH4 0x70A08231 ADDRESS PUSH1 0x40 MLOAD DUP3 PUSH4 0xFFFFFFFF AND PUSH1 0xE0 SHL DUP2 MSTORE PUSH1 0x4 ADD PUSH2 0xBD0 SWAP2 SWAP1 PUSH2 0x1066 JUMP JUMPDEST PUSH1 0x20 PUSH1 0x40 MLOAD DUP1 DUP4 SUB DUP2 DUP7 GAS STATICCALL ISZERO DUP1 ISZERO PUSH2 0xBED JUMPI RETURNDATASIZE PUSH1 0x0 DUP1 RETURNDATACOPY RETURNDATASIZE PUSH1 0x0 REVERT JUMPDEST POP POP POP POP PUSH1 0x40 MLOAD RETURNDATASIZE PUSH1 0x1F NOT PUSH1 0x1F DUP3 ADD AND DUP3 ADD DUP1 PUSH1 0x40 MSTORE POP DUP2 ADD SWAP1 PUSH2 0xC11 SWAP2 SWAP1 PUSH2 0x1096 JUMP JUMPDEST SELFBALANCE PUSH2 0xDAA JUMP JUMPDEST SWAP1 POP PUSH1 0x0 CALLER PUSH20 0xFFFFFFFFFFFFFFFFFFFFFFFFFFFFFFFFFFFFFFFF AND DUP3 PUSH1 0x40 MLOAD PUSH2 0xC3F SWAP1 PUSH2 0x1128 JUMP JUMPDEST PUSH1 0x0 PUSH1 0x40 MLOAD DUP1 DUP4 SUB DUP2 DUP6 DUP8 GAS CALL SWAP3 POP POP POP RETURNDATASIZE DUP1 PUSH1 0x0 DUP2 EQ PUSH2 0xC7C JUMPI PUSH1 0x40 MLOAD SWAP2 POP PUSH1 0x1F NOT PUSH1 0x3F RETURNDATASIZE ADD AND DUP3 ADD PUSH1 0x40 MSTORE RETURNDATASIZE DUP3 MSTORE RETURNDATASIZE PUSH1 0x0 PUSH1 0x20 DUP5 ADD RETURNDATACOPY PUSH2 0xC81 JUMP JUMPDEST PUSH1 0x60 SWAP2 POP JUMPDEST POP POP SWAP1 POP DUP1 PUSH2 0xCC5 JUMPI PUSH1 0x40 MLOAD PUSH32 0x8C379A000000000000000000000000000000000000000000000000000000000 DUP2 MSTORE PUSH1 0x4 ADD PUSH2 0xCBC SWAP1 PUSH2 0x119A JUMP JUMPDEST PUSH1 0x40 MLOAD DUP1 SWAP2 SUB SWAP1 REVERT JUMPDEST PUSH1 0x0 DUP1 SLOAD SWAP1 PUSH2 0x100 EXP SWAP1 DIV PUSH20 0xFFFFFFFFFFFFFFFFFFFFFFFFFFFFFFFFFFFFFFFF AND PUSH20 0xFFFFFFFFFFFFFFFFFFFFFFFFFFFFFFFFFFFFFFFF AND PUSH4 0x23B872DD CALLER ADDRESS DUP7 PUSH1 0x40 MLOAD DUP5 PUSH4 0xFFFFFFFF AND PUSH1 0xE0 SHL DUP2 MSTORE PUSH1 0x4 ADD PUSH2 0xD22 SWAP4 SWAP3 SWAP2 SWAP1 PUSH2 0x1271 JUMP JUMPDEST PUSH1 0x20 PUSH1 0x40 MLOAD DUP1 DUP4 SUB DUP2 PUSH1 0x0 DUP8 GAS CALL ISZERO DUP1 ISZERO PUSH2 0xD41 JUMPI RETURNDATASIZE PUSH1 0x0 DUP1 RETURNDATACOPY RETURNDATASIZE PUSH1 0x0 REVERT JUMPDEST POP POP POP POP PUSH1 0x40 MLOAD RETURNDATASIZE PUSH1 0x1F NOT PUSH1 0x1F DUP3 ADD AND DUP3 ADD DUP1 PUSH1 0x40 MSTORE POP DUP2 ADD SWAP1 PUSH2 0xD65 SWAP2 SWAP1 PUSH2 0x121B JUMP JUMPDEST PUSH2 0xD6E JUMPI PUSH1 0x0 DUP1 REVERT JUMPDEST PUSH32 0x4DBF3A71A7C7262F432C2CAD7808225832255D07F7D8AB85117677C0B5C0A850 DUP3 PUSH1 0x40 MLOAD PUSH2 0xD9D SWAP2 SWAP1 PUSH2 0xE17 JUMP JUMPDEST PUSH1 0x40 MLOAD DUP1 SWAP2 SUB SWAP1 LOG1 POP POP POP JUMP JUMPDEST PUSH1 0x0 DUP4 PUSH2 0x3E3 PUSH2 0xDBA SWAP2 SWAP1 PUSH2 0xF9D JUMP JUMPDEST DUP4 PUSH2 0x3E8 PUSH2 0xDC8 SWAP2 SWAP1 PUSH2 0xF9D JUMP JUMPDEST PUSH2 0xDD2 SWAP2 SWAP1 PUSH2 0x12A8 JUMP JUMPDEST DUP3 DUP6 PUSH2 0x3E3 PUSH2 0xDE1 SWAP2 SWAP1 PUSH2 0xF9D JUMP JUMPDEST PUSH2 0xDEB SWAP2 SWAP1 PUSH2 0xF9D JUMP JUMPDEST PUSH2 0xDF5 SWAP2 SWAP1 PUSH2 0x1026 JUMP JUMPDEST SWAP1 POP SWAP4 SWAP3 POP POP POP JUMP JUMPDEST PUSH1 0x0 DUP2 SWAP1 POP SWAP2 SWAP1 POP JUMP JUMPDEST PUSH2 0xE11 DUP2 PUSH2 0xDFE JUMP JUMPDEST DUP3 MSTORE POP POP JUMP JUMPDEST PUSH1 0x0 PUSH1 0x20 DUP3 ADD SWAP1 POP PUSH2 0xE2C PUSH1 0x0 DUP4 ADD DUP5 PUSH2 0xE08 JUMP JUMPDEST SWAP3 SWAP2 POP POP JUMP JUMPDEST PUSH1 0x0 DUP1 REVERT JUMPDEST PUSH2 0xE40 DUP2 PUSH2 0xDFE JUMP JUMPDEST DUP2 EQ PUSH2 0xE4B JUMPI PUSH1 0x0 DUP1 REVERT JUMPDEST POP JUMP JUMPDEST PUSH1 0x0 DUP2 CALLDATALOAD SWAP1 POP PUSH2 0xE5D DUP2 PUSH2 0xE37 JUMP JUMPDEST SWAP3 SWAP2 POP POP JUMP JUMPDEST PUSH1 0x0 PUSH1 0x20 DUP3 DUP5 SUB SLT ISZERO PUSH2 0xE79 JUMPI PUSH2 0xE78 PUSH2 0xE32 JUMP JUMPDEST JUMPDEST PUSH1 0x0 PUSH2 0xE87 DUP5 DUP3 DUP6 ADD PUSH2 0xE4E JUMP JUMPDEST SWAP2 POP POP SWAP3 SWAP2 POP POP JUMP JUMPDEST PUSH1 0x0 PUSH20 0xFFFFFFFFFFFFFFFFFFFFFFFFFFFFFFFFFFFFFFFF DUP3 AND SWAP1 POP SWAP2 SWAP1 POP JUMP JUMPDEST PUSH1 0x0 PUSH2 0xEBB DUP3 PUSH2 0xE90 JUMP JUMPDEST SWAP1 POP SWAP2 SWAP1 POP JUMP JUMPDEST PUSH2 0xECB DUP2 PUSH2 0xEB0 JUMP JUMPDEST DUP2 EQ PUSH2 0xED6 JUMPI PUSH1 0x0 DUP1 REVERT JUMPDEST POP JUMP JUMPDEST PUSH1 0x0 DUP2 CALLDATALOAD SWAP1 POP PUSH2 0xEE8 DUP2 PUSH2 0xEC2 JUMP JUMPDEST SWAP3 SWAP2 POP POP JUMP JUMPDEST PUSH1 0x0 DUP1 PUSH1 0x0 PUSH1 0x60 DUP5 DUP7 SUB SLT ISZERO PUSH2 0xF07 JUMPI PUSH2 0xF06 PUSH2 0xE32 JUMP JUMPDEST JUMPDEST PUSH1 0x0 PUSH2 0xF15 DUP7 DUP3 DUP8 ADD PUSH2 0xED9 JUMP JUMPDEST SWAP4 POP POP PUSH1 0x20 PUSH2 0xF26 DUP7 DUP3 DUP8 ADD PUSH2 0xE4E JUMP JUMPDEST SWAP3 POP POP PUSH1 0x40 PUSH2 0xF37 DUP7 DUP3 DUP8 ADD PUSH2 0xE4E JUMP JUMPDEST SWAP2 POP POP SWAP3 POP SWAP3 POP SWAP3 JUMP JUMPDEST PUSH1 0x0 PUSH1 0x20 DUP3 DUP5 SUB SLT ISZERO PUSH2 0xF57 JUMPI PUSH2 0xF56 PUSH2 0xE32 JUMP JUMPDEST JUMPDEST PUSH1 0x0 PUSH2 0xF65 DUP5 DUP3 DUP6 ADD PUSH2 0xED9 JUMP JUMPDEST SWAP2 POP POP SWAP3 SWAP2 POP POP JUMP JUMPDEST PUSH32 0x4E487B7100000000000000000000000000000000000000000000000000000000 PUSH1 0x0 MSTORE PUSH1 0x11 PUSH1 0x4 MSTORE PUSH1 0x24 PUSH1 0x0 REVERT JUMPDEST PUSH1 0x0 PUSH2 0xFA8 DUP3 PUSH2 0xDFE JUMP JUMPDEST SWAP2 POP PUSH2 0xFB3 DUP4 PUSH2 0xDFE JUMP JUMPDEST SWAP3 POP DUP2 PUSH32 0xFFFFFFFFFFFFFFFFFFFFFFFFFFFFFFFFFFFFFFFFFFFFFFFFFFFFFFFFFFFFFFFF DIV DUP4 GT DUP3 ISZERO ISZERO AND ISZERO PUSH2 0xFEC JUMPI PUSH2 0xFEB PUSH2 0xF6E JUMP JUMPDEST JUMPDEST DUP3 DUP3 MUL SWAP1 POP SWAP3 SWAP2 POP POP JUMP JUMPDEST PUSH32 0x4E487B7100000000000000000000000000000000000000000000000000000000 PUSH1 0x0 MSTORE PUSH1 0x12 PUSH1 0x4 MSTORE PUSH1 0x24 PUSH1 0x0 REVERT JUMPDEST PUSH1 0x0 PUSH2 0x1031 DUP3 PUSH2 0xDFE JUMP JUMPDEST SWAP2 POP PUSH2 0x103C DUP4 PUSH2 0xDFE JUMP JUMPDEST SWAP3 POP DUP3 PUSH2 0x104C JUMPI PUSH2 0x104B PUSH2 0xFF7 JUMP JUMPDEST JUMPDEST DUP3 DUP3 DIV SWAP1 POP SWAP3 SWAP2 POP POP JUMP JUMPDEST PUSH2 0x1060 DUP2 PUSH2 0xEB0 JUMP JUMPDEST DUP3 MSTORE POP POP JUMP JUMPDEST PUSH1 0x0 PUSH1 0x20 DUP3 ADD SWAP1 POP PUSH2 0x107B PUSH1 0x0 DUP4 ADD DUP5 PUSH2 0x1057 JUMP JUMPDEST SWAP3 SWAP2 POP POP JUMP JUMPDEST PUSH1 0x0 DUP2 MLOAD SWAP1 POP PUSH2 0x1090 DUP2 PUSH2 0xE37 JUMP JUMPDEST SWAP3 SWAP2 POP POP JUMP JUMPDEST PUSH1 0x0 PUSH1 0x20 DUP3 DUP5 SUB SLT ISZERO PUSH2 0x10AC JUMPI PUSH2 0x10AB PUSH2 0xE32 JUMP JUMPDEST JUMPDEST PUSH1 0x0 PUSH2 0x10BA DUP5 DUP3 DUP6 ADD PUSH2 0x1081 JUMP JUMPDEST SWAP2 POP POP SWAP3 SWAP2 POP POP JUMP JUMPDEST PUSH1 0x0 PUSH2 0x10CE DUP3 PUSH2 0xDFE JUMP JUMPDEST SWAP2 POP PUSH2 0x10D9 DUP4 PUSH2 0xDFE JUMP JUMPDEST SWAP3 POP DUP3 DUP3 LT ISZERO PUSH2 0x10EC JUMPI PUSH2 0x10EB PUSH2 0xF6E JUMP JUMPDEST JUMPDEST DUP3 DUP3 SUB SWAP1 POP SWAP3 SWAP2 POP POP JUMP JUMPDEST PUSH1 0x0 DUP2 SWAP1 POP SWAP3 SWAP2 POP POP JUMP JUMPDEST POP JUMP JUMPDEST PUSH1 0x0 PUSH2 0x1112 PUSH1 0x0 DUP4 PUSH2 0x10F7 JUMP JUMPDEST SWAP2 POP PUSH2 0x111D DUP3 PUSH2 0x1102 JUMP JUMPDEST PUSH1 0x0 DUP3 ADD SWAP1 POP SWAP2 SWAP1 POP JUMP JUMPDEST PUSH1 0x0 PUSH2 0x1133 DUP3 PUSH2 0x1105 JUMP JUMPDEST SWAP2 POP DUP2 SWAP1 POP SWAP2 SWAP1 POP JUMP JUMPDEST PUSH1 0x0 DUP3 DUP3 MSTORE PUSH1 0x20 DUP3 ADD SWAP1 POP SWAP3 SWAP2 POP POP JUMP JUMPDEST PUSH32 0x5472616E73666572206661696C65642E00000000000000000000000000000000 PUSH1 0x0 DUP3 ADD MSTORE POP JUMP JUMPDEST PUSH1 0x0 PUSH2 0x1184 PUSH1 0x10 DUP4 PUSH2 0x113D JUMP JUMPDEST SWAP2 POP PUSH2 0x118F DUP3 PUSH2 0x114E JUMP JUMPDEST PUSH1 0x20 DUP3 ADD SWAP1 POP SWAP2 SWAP1 POP JUMP JUMPDEST PUSH1 0x0 PUSH1 0x20 DUP3 ADD SWAP1 POP DUP2 DUP2 SUB PUSH1 0x0 DUP4 ADD MSTORE PUSH2 0x11B3 DUP2 PUSH2 0x1177 JUMP JUMPDEST SWAP1 POP SWAP2 SWAP1 POP JUMP JUMPDEST PUSH1 0x0 PUSH1 0x40 DUP3 ADD SWAP1 POP PUSH2 0x11CF PUSH1 0x0 DUP4 ADD DUP6 PUSH2 0x1057 JUMP JUMPDEST PUSH2 0x11DC PUSH1 0x20 DUP4 ADD DUP5 PUSH2 0xE08 JUMP JUMPDEST SWAP4 SWAP3 POP POP POP JUMP JUMPDEST PUSH1 0x0 DUP2 ISZERO ISZERO SWAP1 POP SWAP2 SWAP1 POP JUMP JUMPDEST PUSH2 0x11F8 DUP2 PUSH2 0x11E3 JUMP JUMPDEST DUP2 EQ PUSH2 0x1203 JUMPI PUSH1 0x0 DUP1 REVERT JUMPDEST POP JUMP JUMPDEST PUSH1 0x0 DUP2 MLOAD SWAP1 POP PUSH2 0x1215 DUP2 PUSH2 0x11EF JUMP JUMPDEST SWAP3 SWAP2 POP POP JUMP JUMPDEST PUSH1 0x0 PUSH1 0x20 DUP3 DUP5 SUB SLT ISZERO PUSH2 0x1231 JUMPI PUSH2 0x1230 PUSH2 0xE32 JUMP JUMPDEST JUMPDEST PUSH1 0x0 PUSH2 0x123F DUP5 DUP3 DUP6 ADD PUSH2 0x1206 JUMP JUMPDEST SWAP2 POP POP SWAP3 SWAP2 POP POP JUMP JUMPDEST PUSH1 0x0 PUSH1 0x40 DUP3 ADD SWAP1 POP PUSH2 0x125D PUSH1 0x0 DUP4 ADD DUP6 PUSH2 0xE08 JUMP JUMPDEST PUSH2 0x126A PUSH1 0x20 DUP4 ADD DUP5 PUSH2 0xE08 JUMP JUMPDEST SWAP4 SWAP3 POP POP POP JUMP JUMPDEST PUSH1 0x0 PUSH1 0x60 DUP3 ADD SWAP1 POP PUSH2 0x1286 PUSH1 0x0 DUP4 ADD DUP7 PUSH2 0x1057 JUMP JUMPDEST PUSH2 0x1293 PUSH1 0x20 DUP4 ADD DUP6 PUSH2 0x1057 JUMP JUMPDEST PUSH2 0x12A0 PUSH1 0x40 DUP4 ADD DUP5 PUSH2 0xE08 JUMP JUMPDEST SWAP5 SWAP4 POP POP POP POP JUMP JUMPDEST PUSH1 0x0 PUSH2 0x12B3 DUP3 PUSH2 0xDFE JUMP JUMPDEST SWAP2 POP PUSH2 0x12BE DUP4 PUSH2 0xDFE JUMP JUMPDEST SWAP3 POP DUP3 PUSH32 0xFFFFFFFFFFFFFFFFFFFFFFFFFFFFFFFFFFFFFFFFFFFFFFFFFFFFFFFFFFFFFFFF SUB DUP3 GT ISZERO PUSH2 0x12F3 JUMPI PUSH2 0x12F2 PUSH2 0xF6E JUMP JUMPDEST JUMPDEST DUP3 DUP3 ADD SWAP1 POP SWAP3 SWAP2 POP POP JUMP INVALID LOG2 PUSH5 0x6970667358 0x22 SLT KECCAK256 0x2E 0xD2 STOP PUSH6 0xD576D65D4CC0 SWAP11 0x1E SLT MULMOD 0x4B OR 0xAD BYTE XOR 0xB8 0xB2 0xB7 PUSH23 0x6EB3683214D89D9F0864736F6C634300080F0033000000 "
				},
				"gasEstimates": {
					"creation": {
						"codeDepositCost": "983200",
						"executionCost": "1021",
						"totalCost": "984221"
					},
					"external": {
						"deposit()": "infinite",
						"ercToEth(uint256)": "infinite",
						"ethToErc()": "infinite",
						"getBalance()": "340",
						"getTokenBalance()": "infinite",
						"initialize(address,uint256,uint256)": "infinite",
						"liquidity(address)": "2858",
						"total_liquidity()": "2474",
						"withdraw(uint256)": "infinite"
					},
					"internal": {
						"calculatePrice(uint256,uint256,uint256)": "infinite"
					}
				},
				"methodIdentifiers": {
					"deposit()": "d0e30db0",
					"ercToEth(uint256)": "debc674c",
					"ethToErc()": "7937c03d",
					"getBalance()": "12065fe0",
					"getTokenBalance()": "82b2e257",
					"initialize(address,uint256,uint256)": "7a1ac61e",
					"liquidity(address)": "b8c876b1",
					"total_liquidity()": "31f3bd28",
					"withdraw(uint256)": "2e1a7d4d"
				}
			},
			"storageLayout": {
				"storage": [
					{
						"astId": 5,
						"contract": "PFG/Proves/DEX.sol:DEX",
						"label": "tokenERC",
						"offset": 0,
						"slot": "0",
						"type": "t_contract(IERC20)485"
					},
					{
						"astId": 7,
						"contract": "PFG/Proves/DEX.sol:DEX",
						"label": "total_liquidity",
						"offset": 0,
						"slot": "1",
						"type": "t_uint256"
					},
					{
						"astId": 11,
						"contract": "PFG/Proves/DEX.sol:DEX",
						"label": "liquidity",
						"offset": 0,
						"slot": "2",
						"type": "t_mapping(t_address,t_uint256)"
					}
				],
				"types": {
					"t_address": {
						"encoding": "inplace",
						"label": "address",
						"numberOfBytes": "20"
					},
					"t_contract(IERC20)485": {
						"encoding": "inplace",
						"label": "contract IERC20",
						"numberOfBytes": "20"
					},
					"t_mapping(t_address,t_uint256)": {
						"encoding": "mapping",
						"key": "t_address",
						"label": "mapping(address => uint256)",
						"numberOfBytes": "32",
						"value": "t_uint256"
					},
					"t_uint256": {
						"encoding": "inplace",
						"label": "uint256",
						"numberOfBytes": "32"
					}
				}
			},
			"userdoc": {
				"kind": "user",
				"methods": {},
				"version": 1
			}
		}
	}
}